{
	"data": {
		"bytecode": {
			"linkReferences": {},
			"object": "60806040525f60065f6101000a81548160ff0219169083151502179055505f600660016101000a81548160ff0219169083151502179055505f600660026101000a81548160ff021916908315150217905550604051806101600160405280608d60ff168152602001600160ff168152602001600260ff168152602001600460ff168152602001600860ff168152602001601060ff168152602001602060ff168152602001604060ff168152602001608060ff168152602001601b60ff168152602001603660ff16815250600790600b6100d9929190612954565b50604051806120000160405280606360ff168152602001607c60ff168152602001607760ff168152602001607b60ff16815260200160f260ff168152602001606b60ff168152602001606f60ff16815260200160c560ff168152602001603060ff168152602001600160ff168152602001606760ff168152602001602b60ff16815260200160fe60ff16815260200160d760ff16815260200160ab60ff168152602001607660ff16815260200160ca60ff168152602001608260ff16815260200160c960ff168152602001607d60ff16815260200160fa60ff168152602001605960ff168152602001604760ff16815260200160f060ff16815260200160ad60ff16815260200160d460ff16815260200160a260ff16815260200160af60ff168152602001609c60ff16815260200160a460ff168152602001607260ff16815260200160c060ff16815260200160b760ff16815260200160fd60ff168152602001609360ff168152602001602660ff168152602001603660ff168152602001603f60ff16815260200160f760ff16815260200160cc60ff168152602001603460ff16815260200160a560ff16815260200160e560ff16815260200160f160ff168152602001607160ff16815260200160d860ff168152602001603160ff168152602001601560ff168152602001600460ff16815260200160c760ff168152602001602360ff16815260200160c360ff168152602001601860ff168152602001609660ff168152602001600560ff168152602001609a60ff168152602001600760ff168152602001601260ff168152602001608060ff16815260200160e260ff16815260200160eb60ff168152602001602760ff16815260200160b260ff168152602001607560ff168152602001600960ff168152602001608360ff168152602001602c60ff168152602001601a60ff168152602001601b60ff168152602001606e60ff168152602001605a60ff16815260200160a060ff168152602001605260ff168152602001603b60ff16815260200160d660ff16815260200160b360ff168152602001602960ff16815260200160e360ff168152602001602f60ff168152602001608460ff168152602001605360ff16815260200160d160ff1681526020015f60ff16815260200160ed60ff168152602001602060ff16815260200160fc60ff16815260200160b160ff168152602001605b60ff168152602001606a60ff16815260200160cb60ff16815260200160be60ff168152602001603960ff168152602001604a60ff168152602001604c60ff168152602001605860ff16815260200160cf60ff16815260200160d060ff16815260200160ef60ff16815260200160aa60ff16815260200160fb60ff168152602001604360ff168152602001604d60ff168152602001603360ff168152602001608560ff168152602001604560ff16815260200160f960ff168152602001600260ff168152602001607f60ff168152602001605060ff168152602001603c60ff168152602001609f60ff16815260200160a860ff168152602001605160ff16815260200160a360ff168152602001604060ff168152602001608f60ff168152602001609260ff168152602001609d60ff168152602001603860ff16815260200160f560ff16815260200160bc60ff16815260200160b660ff16815260200160da60ff168152602001602160ff168152602001601060ff16815260200160ff8016815260200160f360ff16815260200160d260ff16815260200160cd60ff168152602001600c60ff168152602001601360ff16815260200160ec60ff168152602001605f60ff168152602001609760ff168152602001604460ff168152602001601760ff16815260200160c460ff16815260200160a760ff168152602001607e60ff168152602001603d60ff168152602001606460ff168152602001605d60ff168152602001601960ff168152602001607360ff168152602001606060ff168152602001608160ff168152602001604f60ff16815260200160dc60ff168152602001602260ff168152602001602a60ff168152602001609060ff168152602001608860ff168152602001604660ff16815260200160ee60ff16815260200160b860ff168152602001601460ff16815260200160de60ff168152602001605e60ff168152602001600b60ff16815260200160db60ff16815260200160e060ff168152602001603260ff168152602001603a60ff168152602001600a60ff168152602001604960ff168152602001600660ff168152602001602460ff168152602001605c60ff16815260200160c260ff16815260200160d360ff16815260200160ac60ff168152602001606260ff168152602001609160ff168152602001609560ff16815260200160e460ff168152602001607960ff16815260200160e760ff16815260200160c860ff168152602001603760ff168152602001606d60ff168152602001608d60ff16815260200160d560ff168152602001604e60ff16815260200160a960ff168152602001606c60ff168152602001605660ff16815260200160f460ff16815260200160ea60ff168152602001606560ff168152602001607a60ff16815260200160ae60ff168152602001600860ff16815260200160ba60ff168152602001607860ff168152602001602560ff168152602001602e60ff168152602001601c60ff16815260200160a660ff16815260200160b460ff16815260200160c660ff16815260200160e860ff16815260200160dd60ff168152602001607460ff168152602001601f60ff168152602001604b60ff16815260200160bd60ff168152602001608b60ff168152602001608a60ff168152602001607060ff168152602001603e60ff16815260200160b560ff168152602001606660ff168152602001604860ff168152602001600360ff16815260200160f660ff168152602001600e60ff168152602001606160ff168152602001603560ff168152602001605760ff16815260200160b960ff168152602001608660ff16815260200160c160ff168152602001601d60ff168152602001609e60ff16815260200160e160ff16815260200160f860ff168152602001609860ff168152602001601160ff168152602001606960ff16815260200160d960ff168152602001608e60ff168152602001609460ff168152602001609b60ff168152602001601e60ff168152602001608760ff16815260200160e960ff16815260200160ce60ff168152602001605560ff168152602001602860ff16815260200160df60ff168152602001608c60ff16815260200160a160ff168152602001608960ff168152602001600d60ff16815260200160bf60ff16815260200160e660ff168152602001604260ff168152602001606860ff168152602001604160ff168152602001609960ff168152602001602d60ff168152602001600f60ff16815260200160b060ff168152602001605460ff16815260200160bb60ff168152602001601660ff16815250600890610100610af39291906129eb565b50604051806120000160405280605260ff168152602001600960ff168152602001606a60ff16815260200160d560ff168152602001603060ff168152602001603660ff16815260200160a560ff168152602001603860ff16815260200160bf60ff168152602001604060ff16815260200160a360ff168152602001609e60ff168152602001608160ff16815260200160f360ff16815260200160d760ff16815260200160fb60ff168152602001607c60ff16815260200160e360ff168152602001603960ff168152602001608260ff168152602001609b60ff168152602001602f60ff16815260200160ff80168152602001608760ff168152602001603460ff168152602001608e60ff168152602001604360ff168152602001604460ff16815260200160c460ff16815260200160de60ff16815260200160e960ff16815260200160cb60ff168152602001605460ff168152602001607b60ff168152602001609460ff168152602001603260ff16815260200160a660ff16815260200160c260ff168152602001602360ff168152602001603d60ff16815260200160ee60ff168152602001604c60ff168152602001609560ff168152602001600b60ff168152602001604260ff16815260200160fa60ff16815260200160c360ff168152602001604e60ff168152602001600860ff168152602001602e60ff16815260200160a160ff168152602001606660ff168152602001602860ff16815260200160d960ff168152602001602460ff16815260200160b260ff168152602001607660ff168152602001605b60ff16815260200160a260ff168152602001604960ff168152602001606d60ff168152602001608b60ff16815260200160d160ff168152602001602560ff168152602001607260ff16815260200160f860ff16815260200160f660ff168152602001606460ff168152602001608660ff168152602001606860ff168152602001609860ff168152602001601660ff16815260200160d460ff16815260200160a460ff168152602001605c60ff16815260200160cc60ff168152602001605d60ff168152602001606560ff16815260200160b660ff168152602001609260ff168152602001606c60ff168152602001607060ff168152602001604860ff168152602001605060ff16815260200160fd60ff16815260200160ed60ff16815260200160b960ff16815260200160da60ff168152602001605e60ff168152602001601560ff168152602001604660ff168152602001605760ff16815260200160a760ff168152602001608d60ff168152602001609d60ff168152602001608460ff168152602001609060ff16815260200160d860ff16815260200160ab60ff1681526020015f60ff168152602001608c60ff16815260200160bc60ff16815260200160d360ff168152602001600a60ff16815260200160f760ff16815260200160e460ff168152602001605860ff168152602001600560ff16815260200160b860ff16815260200160b360ff168152602001604560ff168152602001600660ff16815260200160d060ff168152602001602c60ff168152602001601e60ff168152602001608f60ff16815260200160ca60ff168152602001603f60ff168152602001600f60ff168152602001600260ff16815260200160c160ff16815260200160af60ff16815260200160bd60ff168152602001600360ff168152602001600160ff168152602001601360ff168152602001608a60ff168152602001606b60ff168152602001603a60ff168152602001609160ff168152602001601160ff168152602001604160ff168152602001604f60ff168152602001606760ff16815260200160dc60ff16815260200160ea60ff168152602001609760ff16815260200160f260ff16815260200160cf60ff16815260200160ce60ff16815260200160f060ff16815260200160b460ff16815260200160e660ff168152602001607360ff168152602001609660ff16815260200160ac60ff168152602001607460ff168152602001602260ff16815260200160e760ff16815260200160ad60ff168152602001603560ff168152602001608560ff16815260200160e260ff16815260200160f960ff168152602001603760ff16815260200160e860ff168152602001601c60ff168152602001607560ff16815260200160df60ff168152602001606e60ff168152602001604760ff16815260200160f160ff168152602001601a60ff168152602001607160ff168152602001601d60ff168152602001602960ff16815260200160c560ff168152602001608960ff168152602001606f60ff16815260200160b760ff168152602001606260ff168152602001600e60ff16815260200160aa60ff168152602001601860ff16815260200160be60ff168152602001601b60ff16815260200160fc60ff168152602001605660ff168152602001603e60ff168152602001604b60ff16815260200160c660ff16815260200160d260ff168152602001607960ff168152602001602060ff168152602001609a60ff16815260200160db60ff16815260200160c060ff16815260200160fe60ff168152602001607860ff16815260200160cd60ff168152602001605a60ff16815260200160f460ff168152602001601f60ff16815260200160dd60ff16815260200160a860ff168152602001603360ff168152602001608860ff168152602001600760ff16815260200160c760ff168152602001603160ff16815260200160b160ff168152602001601260ff168152602001601060ff168152602001605960ff168152602001602760ff168152602001608060ff16815260200160ec60ff168152602001605f60ff168152602001606060ff168152602001605160ff168152602001607f60ff16815260200160a960ff168152602001601960ff16815260200160b560ff168152602001604a60ff168152602001600d60ff168152602001602d60ff16815260200160e560ff168152602001607a60ff168152602001609f60ff168152602001609360ff16815260200160c960ff168152602001609c60ff16815260200160ef60ff16815260200160a060ff16815260200160e060ff168152602001603b60ff168152602001604d60ff16815260200160ae60ff168152602001602a60ff16815260200160f560ff16815260200160b060ff16815260200160c860ff16815260200160eb60ff16815260200160bb60ff168152602001603c60ff168152602001608360ff168152602001605360ff168152602001609960ff168152602001606160ff168152602001601760ff168152602001602b60ff168152602001600460ff168152602001607e60ff16815260200160ba60ff168152602001607760ff16815260200160d660ff168152602001602660ff16815260200160e160ff168152602001606960ff168152602001601460ff168152602001606360ff168152602001605560ff168152602001602160ff168152602001600c60ff168152602001607d60ff1681525060109061010061150d9291906129eb565b506040518061200001604052805f60ff1681526020015f60ff16815260200160c860ff168152602001600860ff168152602001609160ff168152602001601060ff16815260200160d060ff168152602001603660ff168152602001605a60ff168152602001603e60ff16815260200160d860ff168152602001604360ff168152602001609960ff168152602001607760ff16815260200160fe60ff168152602001601860ff168152602001602360ff168152602001602060ff168152602001600760ff168152602001607060ff16815260200160a160ff168152602001606c60ff168152602001600c60ff168152602001607f60ff168152602001606260ff168152602001608b60ff168152602001604060ff168152602001604660ff16815260200160c760ff168152602001604b60ff16815260200160e060ff168152602001600e60ff16815260200160eb60ff168152602001601660ff16815260200160e860ff16815260200160ad60ff16815260200160cf60ff16815260200160cd60ff168152602001603960ff168152602001605360ff168152602001606a60ff168152602001602760ff168152602001603560ff168152602001609360ff16815260200160d460ff168152602001604e60ff168152602001604860ff16815260200160c360ff168152602001602b60ff168152602001607960ff168152602001605460ff168152602001602860ff168152602001600960ff168152602001607860ff168152602001600f60ff168152602001602160ff168152602001609060ff168152602001608760ff168152602001601460ff168152602001602a60ff16815260200160a960ff168152602001609c60ff16815260200160d660ff168152602001607460ff16815260200160b460ff168152602001607c60ff16815260200160de60ff16815260200160ed60ff16815260200160b160ff168152602001608660ff168152602001607660ff16815260200160a460ff168152602001609860ff16815260200160e260ff168152602001609660ff168152602001608f60ff168152602001600260ff168152602001603260ff168152602001601c60ff16815260200160c160ff168152602001603360ff16815260200160ee60ff16815260200160ef60ff168152602001608160ff16815260200160fd60ff168152602001603060ff168152602001605c60ff168152602001601360ff168152602001609d60ff168152602001602960ff168152602001601760ff16815260200160c460ff168152602001601160ff168152602001604460ff168152602001608c60ff168152602001608060ff16815260200160f360ff168152602001607360ff168152602001604260ff168152602001601e60ff168152602001601d60ff16815260200160b560ff16815260200160f060ff168152602001601260ff16815260200160d160ff168152602001605b60ff168152602001604160ff16815260200160a260ff16815260200160d760ff168152602001602c60ff16815260200160e960ff16815260200160d560ff168152602001605960ff16815260200160cb60ff168152602001605060ff16815260200160a860ff16815260200160dc60ff16815260200160fc60ff16815260200160f260ff168152602001605660ff168152602001607260ff16815260200160a660ff168152602001606560ff168152602001602f60ff168152602001609f60ff168152602001609b60ff168152602001603d60ff16815260200160ba60ff168152602001607d60ff16815260200160c260ff168152602001604560ff168152602001608260ff16815260200160a760ff168152602001605760ff16815260200160b660ff16815260200160a360ff168152602001607a60ff168152602001607560ff168152602001604f60ff16815260200160ae60ff168152602001603f60ff168152602001603760ff168152602001606d60ff168152602001604760ff168152602001606160ff16815260200160be60ff16815260200160ab60ff16815260200160d360ff168152602001605f60ff16815260200160b060ff168152602001605860ff16815260200160af60ff16815260200160ca60ff168152602001605e60ff16815260200160fa60ff168152602001608560ff16815260200160e460ff168152602001604d60ff168152602001608a60ff168152602001600560ff16815260200160fb60ff168152602001606060ff16815260200160b760ff168152602001607b60ff16815260200160b860ff168152602001602660ff168152602001604a60ff168152602001606760ff16815260200160c660ff168152602001601a60ff16815260200160f860ff168152602001606960ff168152602001602560ff16815260200160b360ff16815260200160db60ff16815260200160bd60ff168152602001606660ff16815260200160dd60ff16815260200160f160ff16815260200160d260ff16815260200160df60ff168152602001600360ff168152602001608d60ff168152602001603460ff16815260200160d960ff168152602001609260ff168152602001600d60ff168152602001606360ff168152602001605560ff16815260200160aa60ff168152602001604960ff16815260200160ec60ff16815260200160bc60ff168152602001609560ff168152602001603c60ff168152602001608460ff168152602001600b60ff16815260200160f560ff16815260200160e660ff16815260200160e760ff16815260200160e560ff16815260200160ac60ff168152602001607e60ff168152602001606e60ff16815260200160b960ff16815260200160f960ff16815260200160da60ff168152602001608e60ff168152602001609a60ff16815260200160c960ff168152602001602460ff16815260200160e160ff168152602001600a60ff168152602001601560ff168152602001606b60ff168152602001603a60ff16815260200160a060ff168152602001605160ff16815260200160f460ff16815260200160ea60ff16815260200160b260ff168152602001609760ff168152602001609e60ff168152602001605d60ff168152602001602260ff168152602001608860ff168152602001609460ff16815260200160ce60ff168152602001601960ff168152602001600160ff168152602001607160ff168152602001604c60ff16815260200160a560ff16815260200160e360ff16815260200160c560ff168152602001603160ff16815260200160bb60ff16815260200160cc60ff168152602001601f60ff168152602001602d60ff168152602001603b60ff168152602001605260ff168152602001606f60ff16815260200160f660ff168152602001602e60ff168152602001608960ff16815260200160f760ff16815260200160c060ff168152602001606860ff168152602001601b60ff168152602001606460ff168152602001600460ff168152602001600660ff16815260200160bf60ff168152602001608360ff168152602001603860ff16815250601890610100611f279291906129eb565b50604051806120000160405280600160ff16815260200160e560ff168152602001604c60ff16815260200160b560ff16815260200160fb60ff168152602001609f60ff16815260200160fc60ff168152602001601260ff168152602001600360ff168152602001603460ff16815260200160d460ff16815260200160c460ff168152602001601660ff16815260200160ba60ff168152602001601f60ff168152602001603660ff168152602001600560ff168152602001605c60ff168152602001606760ff168152602001605760ff168152602001603a60ff16815260200160d560ff168152602001602160ff168152602001605a60ff168152602001600f60ff16815260200160e460ff16815260200160a960ff16815260200160f960ff168152602001604e60ff168152602001606460ff168152602001606360ff16815260200160ee60ff168152602001601160ff168152602001603760ff16815260200160e060ff168152602001601060ff16815260200160d260ff16815260200160ac60ff16815260200160a560ff168152602001602960ff168152602001603360ff168152602001605960ff168152602001603b60ff168152602001603060ff168152602001606d60ff16815260200160ef60ff16815260200160f460ff168152602001607b60ff168152602001605560ff16815260200160eb60ff168152602001604d60ff168152602001605060ff16815260200160b760ff168152602001602a60ff168152602001600760ff168152602001608d60ff16815260200160ff80168152602001602660ff16815260200160d760ff16815260200160f060ff16815260200160c260ff168152602001607e60ff168152602001600960ff168152602001608c60ff168152602001601a60ff168152602001606a60ff168152602001606260ff168152602001600b60ff168152602001605d60ff168152602001608260ff168152602001601b60ff168152602001608f60ff168152602001602e60ff16815260200160be60ff16815260200160a660ff168152602001601d60ff16815260200160e760ff168152602001609d60ff168152602001602d60ff168152602001608a60ff168152602001607260ff16815260200160d960ff16815260200160f160ff168152602001602760ff168152602001603260ff16815260200160bc60ff168152602001607760ff168152602001608560ff168152602001609660ff168152602001607060ff168152602001600860ff168152602001606960ff168152602001605660ff16815260200160df60ff168152602001609960ff168152602001609460ff16815260200160a160ff168152602001609060ff168152602001601860ff16815260200160bb60ff16815260200160fa60ff168152602001607a60ff16815260200160b060ff16815260200160a760ff16815260200160f860ff16815260200160ab60ff168152602001602860ff16815260200160d660ff168152602001601560ff168152602001608e60ff16815260200160cb60ff16815260200160f260ff168152602001601360ff16815260200160e660ff168152602001607860ff168152602001606160ff168152602001603f60ff168152602001608960ff168152602001604660ff168152602001600d60ff168152602001603560ff168152602001603160ff168152602001608860ff16815260200160a360ff168152602001604160ff168152602001608060ff16815260200160ca60ff168152602001601760ff168152602001605f60ff168152602001605360ff168152602001608360ff16815260200160fe60ff16815260200160c360ff168152602001609b60ff168152602001604560ff168152602001603960ff16815260200160e160ff16815260200160f560ff168152602001609e60ff168152602001601960ff168152602001605e60ff16815260200160b660ff16815260200160cf60ff168152602001604b60ff168152602001603860ff168152602001600460ff16815260200160b960ff168152602001602b60ff16815260200160e260ff16815260200160c160ff168152602001604a60ff16815260200160dd60ff168152602001604860ff168152602001600c60ff16815260200160d060ff168152602001607d60ff168152602001603d60ff168152602001605860ff16815260200160de60ff168152602001607c60ff16815260200160d860ff168152602001601460ff168152602001606b60ff168152602001608760ff168152602001604760ff16815260200160e860ff168152602001607960ff168152602001608460ff168152602001607360ff168152602001603c60ff16815260200160bd60ff168152602001609260ff16815260200160c960ff168152602001602360ff168152602001608b60ff168152602001609760ff168152602001609560ff168152602001604460ff16815260200160dc60ff16815260200160ad60ff168152602001604060ff168152602001606560ff168152602001608660ff16815260200160a260ff16815260200160a460ff16815260200160cc60ff168152602001607f60ff16815260200160ec60ff16815260200160c060ff16815260200160af60ff168152602001609160ff16815260200160fd60ff16815260200160f760ff168152602001604f60ff168152602001608160ff168152602001602f60ff168152602001605b60ff16815260200160ea60ff16815260200160a860ff168152602001601c60ff168152602001600260ff16815260200160d160ff168152602001609860ff168152602001607160ff16815260200160ed60ff168152602001602560ff16815260200160e360ff168152602001602460ff168152602001600660ff168152602001606860ff16815260200160b360ff168152602001609360ff168152602001602c60ff168152602001606f60ff168152602001603e60ff168152602001606c60ff168152602001600a60ff16815260200160b860ff16815260200160ce60ff16815260200160ae60ff168152602001607460ff16815260200160b160ff168152602001604260ff16815260200160b460ff168152602001601e60ff16815260200160d360ff168152602001604960ff16815260200160e960ff168152602001609c60ff16815260200160c860ff16815260200160c660ff16815260200160c760ff168152602001602260ff168152602001606e60ff16815260200160db60ff168152602001602060ff16815260200160bf60ff168152602001604360ff168152602001605160ff168152602001605260ff168152602001606660ff16815260200160b260ff168152602001607660ff168152602001606060ff16815260200160da60ff16815260200160c560ff16815260200160f360ff16815260200160f660ff16815260200160aa60ff16815260200160cd60ff168152602001609a60ff16815260200160a060ff168152602001607560ff168152602001605460ff168152602001600e60ff168152602001600160ff168152506020906101006129429291906129eb565b5034801561294e575f80fd5b50612a9e565b82600b601f016020900481019282156129da579160200282015f5b838211156129ac57835183826101000a81548160ff021916908360ff16021790555092602001926001016020815f0104928301926001030261296f565b80156129d85782816101000a81549060ff02191690556001016020815f010492830192600103026129ac565b505b5090506129e79190612a83565b5090565b82610100601f01602090048101928215612a72579160200282015f5b83821115612a4457835183826101000a81548160ff021916908360ff16021790555092602001926001016020815f01049283019260010302612a07565b8015612a705782816101000a81549060ff02191690556001016020815f01049283019260010302612a44565b505b509050612a7f9190612a83565b5090565b5b80821115612a9a575f815f905550600101612a84565b5090565b61370b80612aab5f395ff3fe608060405234801561000f575f80fd5b5060043610610060575f3560e01c8063177661871461006457806326498a7c146100825780638381eb64146100a057806389fd61bd146100be578063971fa622146100dc578063c659dceb146100f8575b5f80fd5b61006c610116565b6040516100799190612c47565b60405180910390f35b61008a61042f565b6040516100979190612c47565b60405180910390f35b6100a8610442565b6040516100b59190612c47565b60405180910390f35b6100c6610454565b6040516100d39190612cd0565b60405180910390f35b6100f660048036038101906100f19190612e2d565b6106a4565b005b61010061085c565b60405161010d9190612c47565b60405180910390f35b5f60065f9054906101000a900460ff16610165576040517f08c379a000000000000000000000000000000000000000000000000000000000815260040161015c90612fb0565b60405180910390fd5b5f6101cb6101c66101755f61086f565b6101c160035f8154811061018c5761018b612fce565b5b905f5260205f2090600291828204019190066010029054906101000a90046fffffffffffffffffffffffffffffffff1661086f565b6108e7565b610f1a565b90505f61025061024b6101fa60045f9054906101000a90046fffffffffffffffffffffffffffffffff1661086f565b61024660035f8154811061021157610210612fce565b5b905f5260205f2090600291828204019190066010029054906101000a90046fffffffffffffffffffffffffffffffff1661086f565b6108e7565b610f1a565b90505f805b6002805490508110156102c7576102b86102b2836002848154811061027d5761027c612fce565b5b905f5260205f2090600291828204019190066010029054906101000a90046fffffffffffffffffffffffffffffffff16610fa0565b85610fac565b91508080600101915050610255565b505f5b60018054905081101561033c5761032d61032783600184815481106102f2576102f1612fce565b5b905f5260205f2090600291828204019190066010029054906101000a90046fffffffffffffffffffffffffffffffff16610fa0565b85610fac565b915080806001019150506102ca565b5061036b610365825f8054906101000a90046fffffffffffffffffffffffffffffffff16610fa0565b84610fac565b90506103778183610fa0565b90506001600660016101000a81548160ff02191690831515021790555060055f815481106103a8576103a7612fce565b5b905f5260205f2090600291828204019190066010029054906101000a90046fffffffffffffffffffffffffffffffff166fffffffffffffffffffffffffffffffff16816fffffffffffffffffffffffffffffffff1614600660026101000a81548160ff021916908315150217905550600660029054906101000a900460ff16935050505090565b600660029054906101000a900460ff1681565b60065f9054906101000a900460ff1681565b6060600660019054906101000a900460ff166104a5576040517f08c379a000000000000000000000000000000000000000000000000000000000815260040161049c9061306b565b60405180910390fd5b600660029054906101000a900460ff166104f4576040517f08c379a00000000000000000000000000000000000000000000000000000000081526004016104eb906130d3565b60405180910390fd5b5f600160045f9054906101000a90046fffffffffffffffffffffffffffffffff1661051f9190613139565b90505f60018054905067ffffffffffffffff81111561054157610540612d09565b5b60405190808252806020026020018201604052801561056f5781602001602082028036833780820191505090505b5090505f5b8151811015610693575f6105e36105de61058d8661086f565b6105d960035f815481106105a4576105a3612fce565b5b905f5260205f2090600291828204019190066010029054906101000a90046fffffffffffffffffffffffffffffffff1661086f565b6108e7565b610f1a565b905061063281600184815481106105fd576105fc612fce565b5b905f5260205f2090600291828204019190066010029054906101000a90046fffffffffffffffffffffffffffffffff16610fa0565b83838151811061064557610644612fce565b5b60200260200101906fffffffffffffffffffffffffffffffff1690816fffffffffffffffffffffffffffffffff168152505083806106829061317c565b945050508080600101915050610574565b5061069d81611056565b9250505090565b5f600886516106b391906131bc565b90505f600884516106c491906131bc565b9050816040826fffffffffffffffffffffffffffffffff16901b6106e89190613139565b5f806101000a8154816fffffffffffffffffffffffffffffffff02191690836fffffffffffffffffffffffffffffffff1602179055506107278761111b565b6001908051906020019061073c929190612aa1565b506107468461111b565b6002908051906020019061075b929190612aa1565b506107658661111b565b6003908051906020019061077a929190612aa1565b505f6107858661111b565b90506001815f8151811061079c5761079b612fce565b5b60200260200101516107ae9190613139565b60045f6101000a8154816fffffffffffffffffffffffffffffffff02191690836fffffffffffffffffffffffffffffffff1602179055506107ee8461111b565b60059080519060200190610803929190612aa1565b50600160065f6101000a81548160ff0219169083151502179055505f600660026101000a81548160ff0219169083151502179055505f600660016101000a81548160ff0219169083151502179055505050505050505050565b600660019054906101000a900460ff1681565b610877612b72565b5f5b60108110156108e15780600861088f91906131bc565b836fffffffffffffffffffffffffffffffff16901c8282600f6108b291906131fd565b601081106108c3576108c2612fce565b5b602002019060ff16908160ff16815250508080600101915050610879565b50919050565b6108ef612b72565b5f60405180608001604052806040518060800160405280875f6010811061091957610918612fce565b5b602002015160ff1660ff1681526020018760046010811061093d5761093c612fce565b5b602002015160ff1660ff1681526020018760086010811061096157610960612fce565b5b602002015160ff1660ff16815260200187600c6010811061098557610984612fce565b5b602002015160ff1660ff1681525081526020016040518060800160405280876001601081106109b7576109b6612fce565b5b602002015160ff1660ff168152602001876005601081106109db576109da612fce565b5b602002015160ff1660ff168152602001876009601081106109ff576109fe612fce565b5b602002015160ff1660ff16815260200187600d60108110610a2357610a22612fce565b5b602002015160ff1660ff168152508152602001604051806080016040528087600260108110610a5557610a54612fce565b5b602002015160ff1660ff16815260200187600660108110610a7957610a78612fce565b5b602002015160ff1660ff16815260200187600a60108110610a9d57610a9c612fce565b5b602002015160ff1660ff16815260200187600e60108110610ac157610ac0612fce565b5b602002015160ff1660ff168152508152602001604051806080016040528087600360108110610af357610af2612fce565b5b602002015160ff1660ff16815260200187600760108110610b1757610b16612fce565b5b602002015160ff1660ff16815260200187600b60108110610b3b57610b3a612fce565b5b602002015160ff1660ff16815260200187600f60108110610b5f57610b5e612fce565b5b602002015160ff1660ff1681525081525090505f610b7c846112b2565b90505f6040518060800160405280835f602c8110610b9d57610b9c612fce565b5b60200201518152602001836001602c8110610bbb57610bba612fce565b5b60200201518152602001836002602c8110610bd957610bd8612fce565b5b60200201518152602001836003602c8110610bf757610bf6612fce565b5b60200201518152509050610c0b8382611aa7565b9250610c1683611b84565b9250610c2183611c5d565b92505f600190505b60098111610d4457610c3a84611f9d565b9350604051806080016040528084836004610c5591906131bc565b602c8110610c6657610c65612fce565b5b60200201518152602001846001846004610c8091906131bc565b610c8a9190613230565b602c8110610c9b57610c9a612fce565b5b60200201518152602001846002846004610cb591906131bc565b610cbf9190613230565b602c8110610cd057610ccf612fce565b5b60200201518152602001846003846004610cea91906131bc565b610cf49190613230565b602c8110610d0557610d04612fce565b5b60200201518152509150610d198483611aa7565b9350610d2484611b84565b9350610d2f84611c5d565b93508080610d3c90613263565b915050610c29565b506040518060800160405280836028602c8110610d6457610d63612fce565b5b60200201518152602001836029602c8110610d8257610d81612fce565b5b6020020151815260200183602a602c8110610da057610d9f612fce565b5b6020020151815260200183602b602c8110610dbe57610dbd612fce565b5b60200201518152509050610dd28382611aa7565b92505f6040518061020001604052805f60ff1681526020015f60ff1681526020015f60ff1681526020015f60ff1681526020015f60ff1681526020015f60ff1681526020015f60ff1681526020015f60ff1681526020015f60ff1681526020015f60ff1681526020015f60ff1681526020015f60ff1681526020015f60ff1681526020015f60ff1681526020015f60ff1681526020015f60ff1681525090505f5b6004811015610f0c575f5b6004811015610efe57858160048110610e9a57610e99612fce565b5b60200201518260048110610eb157610eb0612fce565b5b60200201518382846004610ec591906131bc565b610ecf9190613230565b60108110610ee057610edf612fce565b5b602002019060ff16908160ff16815250508080600101915050610e7e565b508080600101915050610e73565b508094505050505092915050565b5f80825f60108110610f2f57610f2e612fce565b5b602002015160ff1690505f600190505b6010811015610f96576008826fffffffffffffffffffffffffffffffff16901b9150838160108110610f7457610f73612fce565b5b602002015160ff1682610f879190613139565b91508080600101915050610f3f565b5080915050919050565b5f818318905092915050565b5f805f90505f607f90505b5f811261104b57600181856fffffffffffffffffffffffffffffffff16901c1685610fe291906132aa565b821891505f80600187166fffffffffffffffffffffffffffffffff16141590506001866fffffffffffffffffffffffffffffffff16901c95508015611037576fe1000000000000000000000000000000861895505b508080611043906132ef565b915050610fb7565b508091505092915050565b60605f825f8151811061106c5761106b612fce565b5b602002602001015160801b6040516020016110879190613381565b60405160208183030381529060405290505f600190505b835181101561111157818482815181106110bb576110ba612fce565b5b60200260200101516040516020016110d391906133cf565b6040516020818303038152906040526040516020016110f3929190613423565b6040516020818303038152906040529150808060010191505061109e565b5080915050919050565b60605f825190505f6010826111309190613473565b601061113c91906131fd565b90506010810361114a575f90505b5f6040518060400160405280600181526020015f81525090505f600190505b828110156111a0578160405160200161118291906134a9565b60405160208183030381529060405291508080600101915050611169565b505f85826040516020016111b5929190613423565b60405160208183030381529060405290505f601082516111d591906134ce565b90505f8167ffffffffffffffff8111156111f2576111f1612d09565b5b6040519080825280602002602001820160405280156112205781602001602082028036833780820191505090505b5090505f5b828110156112a3576112458460108361123e91906131bc565b60106125b5565b61124e9061352d565b60801c82828151811061126457611263612fce565b5b60200260200101906fffffffffffffffffffffffffffffffff1690816fffffffffffffffffffffffffffffffff16815250508080600101915050611225565b50809650505050505050919050565b6112ba612b95565b6112c2612b95565b825f601081106112d5576112d4612fce565b5b6020020151815f602c81106112ed576112ec612fce565b5b60200201515f6004811061130457611303612fce565b5b602002019060ff16908160ff16815250508260016010811061132957611328612fce565b5b6020020151815f602c811061134157611340612fce565b5b602002015160016004811061135957611358612fce565b5b602002019060ff16908160ff16815250508260026010811061137e5761137d612fce565b5b6020020151815f602c811061139657611395612fce565b5b60200201516002600481106113ae576113ad612fce565b5b602002019060ff16908160ff1681525050826003601081106113d3576113d2612fce565b5b6020020151815f602c81106113eb576113ea612fce565b5b602002015160036004811061140357611402612fce565b5b602002019060ff16908160ff16815250508260046010811061142857611427612fce565b5b6020020151816001602c811061144157611440612fce565b5b60200201515f6004811061145857611457612fce565b5b602002019060ff16908160ff16815250508260056010811061147d5761147c612fce565b5b6020020151816001602c811061149657611495612fce565b5b60200201516001600481106114ae576114ad612fce565b5b602002019060ff16908160ff1681525050826006601081106114d3576114d2612fce565b5b6020020151816001602c81106114ec576114eb612fce565b5b602002015160026004811061150457611503612fce565b5b602002019060ff16908160ff16815250508260076010811061152957611528612fce565b5b6020020151816001602c811061154257611541612fce565b5b602002015160036004811061155a57611559612fce565b5b602002019060ff16908160ff16815250508260086010811061157f5761157e612fce565b5b6020020151816002602c811061159857611597612fce565b5b60200201515f600481106115af576115ae612fce565b5b602002019060ff16908160ff1681525050826009601081106115d4576115d3612fce565b5b6020020151816002602c81106115ed576115ec612fce565b5b602002015160016004811061160557611604612fce565b5b602002019060ff16908160ff168152505082600a6010811061162a57611629612fce565b5b6020020151816002602c811061164357611642612fce565b5b602002015160026004811061165b5761165a612fce565b5b602002019060ff16908160ff168152505082600b601081106116805761167f612fce565b5b6020020151816002602c811061169957611698612fce565b5b60200201516003600481106116b1576116b0612fce565b5b602002019060ff16908160ff168152505082600c601081106116d6576116d5612fce565b5b6020020151816003602c81106116ef576116ee612fce565b5b60200201515f6004811061170657611705612fce565b5b602002019060ff16908160ff168152505082600d6010811061172b5761172a612fce565b5b6020020151816003602c811061174457611743612fce565b5b602002015160016004811061175c5761175b612fce565b5b602002019060ff16908160ff168152505082600e6010811061178157611780612fce565b5b6020020151816003602c811061179a57611799612fce565b5b60200201516002600481106117b2576117b1612fce565b5b602002019060ff16908160ff168152505082600f601081106117d7576117d6612fce565b5b6020020151816003602c81106117f0576117ef612fce565b5b602002015160036004811061180857611807612fce565b5b602002019060ff16908160ff16815250505f600490505b602c811015611a9d575f8260018361183791906131fd565b602c811061184857611847612fce565b5b602002015190505f60048361185d9190613473565b036118e95761187361186e826126d1565b612808565b9050600760048361188491906134ce565b600b811061189557611894612fce565b5b602091828204019190069054906101000a900460ff16815f600481106118be576118bd612fce565b5b602002015118815f600481106118d7576118d6612fce565b5b602002019060ff16908160ff16815250505b60405180608001604052808460048561190291906131fd565b602c811061191357611912612fce565b5b60200201515f6004811061192a57611929612fce565b5b6020020151835f6004811061194257611941612fce565b5b60200201511860ff1660ff1681526020018460048561196191906131fd565b602c811061197257611971612fce565b5b602002015160016004811061198a57611989612fce565b5b6020020151836001600481106119a3576119a2612fce565b5b60200201511860ff1660ff168152602001846004856119c291906131fd565b602c81106119d3576119d2612fce565b5b60200201516002600481106119eb576119ea612fce565b5b602002015183600260048110611a0457611a03612fce565b5b60200201511860ff1660ff16815260200184600485611a2391906131fd565b602c8110611a3457611a33612fce565b5b6020020151600360048110611a4c57611a4b612fce565b5b602002015183600360048110611a6557611a64612fce565b5b60200201511860ff1660ff168152508383602c8110611a8757611a86612fce565b5b602002018190525050808060010191505061181f565b5080915050919050565b611aaf612bc3565b5f5b6004811015611b7a575f5b6004811015611b6c57838160048110611ad857611ad7612fce565b5b60200201518260048110611aef57611aee612fce565b5b6020020151858360048110611b0757611b06612fce565b5b60200201518260048110611b1e57611b1d612fce565b5b602002015118858360048110611b3757611b36612fce565b5b60200201518260048110611b4e57611b4d612fce565b5b602002019060ff16908160ff16815250508080600101915050611abc565b508080600101915050611ab1565b5082905092915050565b611b8c612bc3565b5f5b6004811015611c54575f5b6004811015611c46576008848360048110611bb757611bb6612fce565b5b60200201518260048110611bce57611bcd612fce565b5b602002015160ff166101008110611be857611be7612fce565b5b602091828204019190069054906101000a900460ff16848360048110611c1157611c10612fce565b5b60200201518260048110611c2857611c27612fce565b5b602002019060ff16908160ff16815250508080600101915050611b99565b508080600101915050611b8e565b50819050919050565b611c65612bc3565b5f825f60048110611c7957611c78612fce565b5b602002015190505f604051806080016040528085600160048110611ca057611c9f612fce565b5b6020020151600160048110611cb857611cb7612fce565b5b602002015160ff1660ff16815260200185600160048110611cdc57611cdb612fce565b5b6020020151600260048110611cf457611cf3612fce565b5b602002015160ff1660ff16815260200185600160048110611d1857611d17612fce565b5b6020020151600360048110611d3057611d2f612fce565b5b602002015160ff1660ff16815260200185600160048110611d5457611d53612fce565b5b60200201515f60048110611d6b57611d6a612fce565b5b602002015160ff1660ff1681525090505f604051806080016040528086600260048110611d9b57611d9a612fce565b5b6020020151600260048110611db357611db2612fce565b5b602002015160ff1660ff16815260200186600260048110611dd757611dd6612fce565b5b6020020151600360048110611def57611dee612fce565b5b602002015160ff1660ff16815260200186600260048110611e1357611e12612fce565b5b60200201515f60048110611e2a57611e29612fce565b5b602002015160ff1660ff16815260200186600260048110611e4e57611e4d612fce565b5b6020020151600160048110611e6657611e65612fce565b5b602002015160ff1660ff1681525090505f604051806080016040528087600360048110611e9657611e95612fce565b5b6020020151600360048110611eae57611ead612fce565b5b602002015160ff1660ff16815260200187600360048110611ed257611ed1612fce565b5b60200201515f60048110611ee957611ee8612fce565b5b602002015160ff1660ff16815260200187600360048110611f0d57611f0c612fce565b5b6020020151600160048110611f2557611f24612fce565b5b602002015160ff1660ff16815260200187600360048110611f4957611f48612fce565b5b6020020151600260048110611f6157611f60612fce565b5b602002015160ff1660ff168152509050604051806080016040528085815260200184815260200183815260200182815250945050505050919050565b611fa5612bc3565b5f604051806080016040528060405180608001604052805f60ff1681526020015f60ff1681526020015f60ff1681526020015f60ff16815250815260200160405180608001604052805f60ff1681526020015f60ff1681526020015f60ff1681526020015f60ff16815250815260200160405180608001604052805f60ff1681526020015f60ff1681526020015f60ff1681526020015f60ff16815250815260200160405180608001604052805f60ff1681526020015f60ff1681526020015f60ff1681526020015f60ff1681525081525090505f5b60048110156125ab575f5b6004811015612106578481600481106120a2576120a1612fce565b5b602002015182600481106120b9576120b8612fce565b5b60200201518382600481106120d1576120d0612fce565b5b602002015183600481106120e8576120e7612fce565b5b602002019060ff16908160ff16815250508080600101915050612086565b506121418260036004811061211e5761211d612fce565b5b6020020151826004811061213557612134612fce565b5b602002015160016129c2565b61217b8360026004811061215857612157612fce565b5b6020020151836004811061216f5761216e612fce565b5b602002015160016129c2565b6121b58460016004811061219257612191612fce565b5b602002015184600481106121a9576121a8612fce565b5b602002015160036129c2565b6121ee855f600481106121cb576121ca612fce565b5b602002015185600481106121e2576121e1612fce565b5b602002015160026129c2565b181818845f6004811061220457612203612fce565b5b6020020151826004811061221b5761221a612fce565b5b602002019060ff16908160ff16815250506122668260036004811061224357612242612fce565b5b6020020151826004811061225a57612259612fce565b5b602002015160016129c2565b6122a08360026004811061227d5761227c612fce565b5b6020020151836004811061229457612293612fce565b5b602002015160036129c2565b6122da846001600481106122b7576122b6612fce565b5b602002015184600481106122ce576122cd612fce565b5b602002015160026129c2565b612313855f600481106122f0576122ef612fce565b5b6020020151856004811061230757612306612fce565b5b602002015160016129c2565b1818188460016004811061232a57612329612fce565b5b6020020151826004811061234157612340612fce565b5b602002019060ff16908160ff168152505061238c8260036004811061236957612368612fce565b5b602002015182600481106123805761237f612fce565b5b602002015160036129c2565b6123c6836002600481106123a3576123a2612fce565b5b602002015183600481106123ba576123b9612fce565b5b602002015160026129c2565b612400846001600481106123dd576123dc612fce565b5b602002015184600481106123f4576123f3612fce565b5b602002015160016129c2565b612439855f6004811061241657612415612fce565b5b6020020151856004811061242d5761242c612fce565b5b602002015160016129c2565b181818846002600481106124505761244f612fce565b5b6020020151826004811061246757612466612fce565b5b602002019060ff16908160ff16815250506124b28260036004811061248f5761248e612fce565b5b602002015182600481106124a6576124a5612fce565b5b602002015160026129c2565b6124ec836002600481106124c9576124c8612fce565b5b602002015183600481106124e0576124df612fce565b5b602002015160016129c2565b6125268460016004811061250357612502612fce565b5b6020020151846004811061251a57612519612fce565b5b602002015160016129c2565b61255f855f6004811061253c5761253b612fce565b5b6020020151856004811061255357612552612fce565b5b602002015160036129c2565b1818188460036004811061257657612575612fce565b5b6020020151826004811061258d5761258c612fce565b5b602002019060ff16908160ff1681525050808060010191505061207b565b5082915050919050565b606081601f836125c59190613230565b1015612606576040517f08c379a00000000000000000000000000000000000000000000000000000000081526004016125fd906135dd565b60405180910390fd5b81836126129190613230565b84511015612655576040517f08c379a000000000000000000000000000000000000000000000000000000000815260040161264c90613645565b60405180910390fd5b606082155f81146126745760405191505f8252602082016040526126c5565b6040519150601f8416801560200281840101858101878315602002848b0101015b818310156126b25780518352602083019250602081019050612695565b50868552601f19601f8301166040525050505b50809150509392505050565b6126d9612bf0565b5f60405180608001604052805f60ff1681526020015f60ff1681526020015f60ff1681526020015f60ff1681525090508260016004811061271d5761271c612fce565b5b6020020151815f6004811061273557612734612fce565b5b602002019060ff16908160ff16815250508260026004811061275a57612759612fce565b5b60200201518160016004811061277357612772612fce565b5b602002019060ff16908160ff16815250508260036004811061279857612797612fce565b5b6020020151816002600481106127b1576127b0612fce565b5b602002019060ff16908160ff1681525050825f600481106127d5576127d4612fce565b5b6020020151816003600481106127ee576127ed612fce565b5b602002019060ff16908160ff168152505080915050919050565b612810612bf0565b6008825f6004811061282557612824612fce565b5b602002015160ff16610100811061283f5761283e612fce565b5b602091828204019190069054906101000a900460ff16825f6004811061286857612867612fce565b5b602002019060ff16908160ff168152505060088260016004811061288f5761288e612fce565b5b602002015160ff1661010081106128a9576128a8612fce565b5b602091828204019190069054906101000a900460ff16826001600481106128d3576128d2612fce565b5b602002019060ff16908160ff16815250506008826002600481106128fa576128f9612fce565b5b602002015160ff16610100811061291457612913612fce565b5b602091828204019190069054906101000a900460ff168260026004811061293e5761293d612fce565b5b602002019060ff16908160ff168152505060088260036004811061296557612964612fce565b5b602002015160ff16610100811061297f5761297e612fce565b5b602091828204019190069054906101000a900460ff16826003600481106129a9576129a8612fce565b5b602002019060ff16908160ff1681525050819050919050565b5f808360ff1614806129d657505f8260ff16145b156129e3575f9050612a9b565b5f60188460ff1661010081106129fc576129fb612fce565b5b602091828204019190069054906101000a900460ff1660ff1690505f60188460ff166101008110612a3057612a2f612fce565b5b602091828204019190069054906101000a900460ff1660ff1690505f60ff8284612a5a9190613670565b612a6491906136a5565b905060208161ffff166101008110612a7f57612a7e612fce565b5b602091828204019190069054906101000a900460ff1693505050505b92915050565b828054828255905f5260205f2090600101600290048101928215612b61579160200282015f5b83821115612b2357835183826101000a8154816fffffffffffffffffffffffffffffffff02191690836fffffffffffffffffffffffffffffffff1602179055509260200192601001602081600f01049283019260010302612ac7565b8015612b5f5782816101000a8154906fffffffffffffffffffffffffffffffff0219169055601001602081600f01049283019260010302612b23565b505b509050612b6e9190612c12565b5090565b604051806102000160405280601090602082028036833780820191505090505090565b604051806105800160405280602c905b612bad612bf0565b815260200190600190039081612ba55790505090565b60405180608001604052806004905b612bda612bf0565b815260200190600190039081612bd25790505090565b6040518060800160405280600490602082028036833780820191505090505090565b5b80821115612c29575f815f905550600101612c13565b5090565b5f8115159050919050565b612c4181612c2d565b82525050565b5f602082019050612c5a5f830184612c38565b92915050565b5f81519050919050565b5f82825260208201905092915050565b8281835e5f83830152505050565b5f601f19601f8301169050919050565b5f612ca282612c60565b612cac8185612c6a565b9350612cbc818560208601612c7a565b612cc581612c88565b840191505092915050565b5f6020820190508181035f830152612ce88184612c98565b905092915050565b5f604051905090565b5f80fd5b5f80fd5b5f80fd5b5f80fd5b7f4e487b71000000000000000000000000000000000000000000000000000000005f52604160045260245ffd5b612d3f82612c88565b810181811067ffffffffffffffff82111715612d5e57612d5d612d09565b5b80604052505050565b5f612d70612cf0565b9050612d7c8282612d36565b919050565b5f67ffffffffffffffff821115612d9b57612d9a612d09565b5b612da482612c88565b9050602081019050919050565b828183375f83830152505050565b5f612dd1612dcc84612d81565b612d67565b905082815260208101848484011115612ded57612dec612d05565b5b612df8848285612db1565b509392505050565b5f82601f830112612e1457612e13612d01565b5b8135612e24848260208601612dbf565b91505092915050565b5f805f805f60a08688031215612e4657612e45612cf9565b5b5f86013567ffffffffffffffff811115612e6357612e62612cfd565b5b612e6f88828901612e00565b955050602086013567ffffffffffffffff811115612e9057612e8f612cfd565b5b612e9c88828901612e00565b945050604086013567ffffffffffffffff811115612ebd57612ebc612cfd565b5b612ec988828901612e00565b935050606086013567ffffffffffffffff811115612eea57612ee9612cfd565b5b612ef688828901612e00565b925050608086013567ffffffffffffffff811115612f1757612f16612cfd565b5b612f2388828901612e00565b9150509295509295909350565b5f82825260208201905092915050565b7f63616c6c207468652066756e6374696f6e20276165735f67636d5f73657427205f8201527f6669727374000000000000000000000000000000000000000000000000000000602082015250565b5f612f9a602583612f30565b9150612fa582612f40565b604082019050919050565b5f6020820190508181035f830152612fc781612f8e565b9050919050565b7f4e487b71000000000000000000000000000000000000000000000000000000005f52603260045260245ffd5b7f63616c6c207468652066756e6374696f6e20276165735f67636d5f76657269665f8201527f7927206669727374000000000000000000000000000000000000000000000000602082015250565b5f613055602883612f30565b915061306082612ffb565b604082019050919050565b5f6020820190508181035f83015261308281613049565b9050919050565b7f617574682074616720697320696e76616c6964000000000000000000000000005f82015250565b5f6130bd601383612f30565b91506130c882613089565b602082019050919050565b5f6020820190508181035f8301526130ea816130b1565b9050919050565b5f6fffffffffffffffffffffffffffffffff82169050919050565b7f4e487b71000000000000000000000000000000000000000000000000000000005f52601160045260245ffd5b5f613143826130f1565b915061314e836130f1565b925082820190506fffffffffffffffffffffffffffffffff8111156131765761317561310c565b5b92915050565b5f613186826130f1565b91506fffffffffffffffffffffffffffffffff82036131a8576131a761310c565b5b600182019050919050565b5f819050919050565b5f6131c6826131b3565b91506131d1836131b3565b92508282026131df816131b3565b915082820484148315176131f6576131f561310c565b5b5092915050565b5f613207826131b3565b9150613212836131b3565b925082820390508181111561322a5761322961310c565b5b92915050565b5f61323a826131b3565b9150613245836131b3565b925082820190508082111561325d5761325c61310c565b5b92915050565b5f61326d826131b3565b91507fffffffffffffffffffffffffffffffffffffffffffffffffffffffffffffffff820361329f5761329e61310c565b5b600182019050919050565b5f6132b4826130f1565b91506132bf836130f1565b92508282026132cd816130f1565b91508082146132df576132de61310c565b5b5092915050565b5f819050919050565b5f6132f9826132e6565b91507f8000000000000000000000000000000000000000000000000000000000000000820361332b5761332a61310c565b5b600182039050919050565b5f7fffffffffffffffffffffffffffffffff0000000000000000000000000000000082169050919050565b5f819050919050565b61337b61337682613336565b613361565b82525050565b5f61338c828461336a565b60108201915081905092915050565b5f8160801b9050919050565b5f6133b18261339b565b9050919050565b6133c96133c4826130f1565b6133a7565b82525050565b5f6133da82846133b8565b60108201915081905092915050565b5f81905092915050565b5f6133fd82612c60565b61340781856133e9565b9350613417818560208601612c7a565b80840191505092915050565b5f61342e82856133f3565b915061343a82846133f3565b91508190509392505050565b7f4e487b71000000000000000000000000000000000000000000000000000000005f52601260045260245ffd5b5f61347d826131b3565b9150613488836131b3565b92508261349857613497613446565b5b828206905092915050565b5f815250565b5f6134b482846133f3565b91506134bf826134a3565b60018201915081905092915050565b5f6134d8826131b3565b91506134e3836131b3565b9250826134f3576134f2613446565b5b828204905092915050565b5f819050602082019050919050565b5f6135188251613336565b80915050919050565b5f82821b905092915050565b5f61353782612c60565b82613541846134fe565b905061354c8161350d565b9250601082101561358c576135877fffffffffffffffffffffffffffffffff0000000000000000000000000000000083601003600802613521565b831692505b5050919050565b7f736c6963655f6f766572666c6f770000000000000000000000000000000000005f82015250565b5f6135c7600e83612f30565b91506135d282613593565b602082019050919050565b5f6020820190508181035f8301526135f4816135bb565b9050919050565b7f736c6963655f6f75744f66426f756e64730000000000000000000000000000005f82015250565b5f61362f601183612f30565b915061363a826135fb565b602082019050919050565b5f6020820190508181035f83015261365c81613623565b9050919050565b5f61ffff82169050919050565b5f61367a82613663565b915061368583613663565b9250828201905061ffff81111561369f5761369e61310c565b5b92915050565b5f6136af82613663565b91506136ba83613663565b9250826136ca576136c9613446565b5b82820690509291505056fea2646970667358221220f27b6573cafc978ba81043f79782eebe8110dc7773ac2b82a1afc00e3ae2cbe364736f6c634300081a0033",
			"opcodes": "PUSH1 0x80 PUSH1 0x40 MSTORE PUSH0 PUSH1 0x6 PUSH0 PUSH2 0x100 EXP DUP2 SLOAD DUP2 PUSH1 0xFF MUL NOT AND SWAP1 DUP4 ISZERO ISZERO MUL OR SWAP1 SSTORE POP PUSH0 PUSH1 0x6 PUSH1 0x1 PUSH2 0x100 EXP DUP2 SLOAD DUP2 PUSH1 0xFF MUL NOT AND SWAP1 DUP4 ISZERO ISZERO MUL OR SWAP1 SSTORE POP PUSH0 PUSH1 0x6 PUSH1 0x2 PUSH2 0x100 EXP DUP2 SLOAD DUP2 PUSH1 0xFF MUL NOT AND SWAP1 DUP4 ISZERO ISZERO MUL OR SWAP1 SSTORE POP PUSH1 0x40 MLOAD DUP1 PUSH2 0x160 ADD PUSH1 0x40 MSTORE DUP1 PUSH1 0x8D PUSH1 0xFF AND DUP2 MSTORE PUSH1 0x20 ADD PUSH1 0x1 PUSH1 0xFF AND DUP2 MSTORE PUSH1 0x20 ADD PUSH1 0x2 PUSH1 0xFF AND DUP2 MSTORE PUSH1 0x20 ADD PUSH1 0x4 PUSH1 0xFF AND DUP2 MSTORE PUSH1 0x20 ADD PUSH1 0x8 PUSH1 0xFF AND DUP2 MSTORE PUSH1 0x20 ADD PUSH1 0x10 PUSH1 0xFF AND DUP2 MSTORE PUSH1 0x20 ADD PUSH1 0x20 PUSH1 0xFF AND DUP2 MSTORE PUSH1 0x20 ADD PUSH1 0x40 PUSH1 0xFF AND DUP2 MSTORE PUSH1 0x20 ADD PUSH1 0x80 PUSH1 0xFF AND DUP2 MSTORE PUSH1 0x20 ADD PUSH1 0x1B PUSH1 0xFF AND DUP2 MSTORE PUSH1 0x20 ADD PUSH1 0x36 PUSH1 0xFF AND DUP2 MSTORE POP PUSH1 0x7 SWAP1 PUSH1 0xB PUSH2 0xD9 SWAP3 SWAP2 SWAP1 PUSH2 0x2954 JUMP JUMPDEST POP PUSH1 0x40 MLOAD DUP1 PUSH2 0x2000 ADD PUSH1 0x40 MSTORE DUP1 PUSH1 0x63 PUSH1 0xFF AND DUP2 MSTORE PUSH1 0x20 ADD PUSH1 0x7C PUSH1 0xFF AND DUP2 MSTORE PUSH1 0x20 ADD PUSH1 0x77 PUSH1 0xFF AND DUP2 MSTORE PUSH1 0x20 ADD PUSH1 0x7B PUSH1 0xFF AND DUP2 MSTORE PUSH1 0x20 ADD PUSH1 0xF2 PUSH1 0xFF AND DUP2 MSTORE PUSH1 0x20 ADD PUSH1 0x6B PUSH1 0xFF AND DUP2 MSTORE PUSH1 0x20 ADD PUSH1 0x6F PUSH1 0xFF AND DUP2 MSTORE PUSH1 0x20 ADD PUSH1 0xC5 PUSH1 0xFF AND DUP2 MSTORE PUSH1 0x20 ADD PUSH1 0x30 PUSH1 0xFF AND DUP2 MSTORE PUSH1 0x20 ADD PUSH1 0x1 PUSH1 0xFF AND DUP2 MSTORE PUSH1 0x20 ADD PUSH1 0x67 PUSH1 0xFF AND DUP2 MSTORE PUSH1 0x20 ADD PUSH1 0x2B PUSH1 0xFF AND DUP2 MSTORE PUSH1 0x20 ADD PUSH1 0xFE PUSH1 0xFF AND DUP2 MSTORE PUSH1 0x20 ADD PUSH1 0xD7 PUSH1 0xFF AND DUP2 MSTORE PUSH1 0x20 ADD PUSH1 0xAB PUSH1 0xFF AND DUP2 MSTORE PUSH1 0x20 ADD PUSH1 0x76 PUSH1 0xFF AND DUP2 MSTORE PUSH1 0x20 ADD PUSH1 0xCA PUSH1 0xFF AND DUP2 MSTORE PUSH1 0x20 ADD PUSH1 0x82 PUSH1 0xFF AND DUP2 MSTORE PUSH1 0x20 ADD PUSH1 0xC9 PUSH1 0xFF AND DUP2 MSTORE PUSH1 0x20 ADD PUSH1 0x7D PUSH1 0xFF AND DUP2 MSTORE PUSH1 0x20 ADD PUSH1 0xFA PUSH1 0xFF AND DUP2 MSTORE PUSH1 0x20 ADD PUSH1 0x59 PUSH1 0xFF AND DUP2 MSTORE PUSH1 0x20 ADD PUSH1 0x47 PUSH1 0xFF AND DUP2 MSTORE PUSH1 0x20 ADD PUSH1 0xF0 PUSH1 0xFF AND DUP2 MSTORE PUSH1 0x20 ADD PUSH1 0xAD PUSH1 0xFF AND DUP2 MSTORE PUSH1 0x20 ADD PUSH1 0xD4 PUSH1 0xFF AND DUP2 MSTORE PUSH1 0x20 ADD PUSH1 0xA2 PUSH1 0xFF AND DUP2 MSTORE PUSH1 0x20 ADD PUSH1 0xAF PUSH1 0xFF AND DUP2 MSTORE PUSH1 0x20 ADD PUSH1 0x9C PUSH1 0xFF AND DUP2 MSTORE PUSH1 0x20 ADD PUSH1 0xA4 PUSH1 0xFF AND DUP2 MSTORE PUSH1 0x20 ADD PUSH1 0x72 PUSH1 0xFF AND DUP2 MSTORE PUSH1 0x20 ADD PUSH1 0xC0 PUSH1 0xFF AND DUP2 MSTORE PUSH1 0x20 ADD PUSH1 0xB7 PUSH1 0xFF AND DUP2 MSTORE PUSH1 0x20 ADD PUSH1 0xFD PUSH1 0xFF AND DUP2 MSTORE PUSH1 0x20 ADD PUSH1 0x93 PUSH1 0xFF AND DUP2 MSTORE PUSH1 0x20 ADD PUSH1 0x26 PUSH1 0xFF AND DUP2 MSTORE PUSH1 0x20 ADD PUSH1 0x36 PUSH1 0xFF AND DUP2 MSTORE PUSH1 0x20 ADD PUSH1 0x3F PUSH1 0xFF AND DUP2 MSTORE PUSH1 0x20 ADD PUSH1 0xF7 PUSH1 0xFF AND DUP2 MSTORE PUSH1 0x20 ADD PUSH1 0xCC PUSH1 0xFF AND DUP2 MSTORE PUSH1 0x20 ADD PUSH1 0x34 PUSH1 0xFF AND DUP2 MSTORE PUSH1 0x20 ADD PUSH1 0xA5 PUSH1 0xFF AND DUP2 MSTORE PUSH1 0x20 ADD PUSH1 0xE5 PUSH1 0xFF AND DUP2 MSTORE PUSH1 0x20 ADD PUSH1 0xF1 PUSH1 0xFF AND DUP2 MSTORE PUSH1 0x20 ADD PUSH1 0x71 PUSH1 0xFF AND DUP2 MSTORE PUSH1 0x20 ADD PUSH1 0xD8 PUSH1 0xFF AND DUP2 MSTORE PUSH1 0x20 ADD PUSH1 0x31 PUSH1 0xFF AND DUP2 MSTORE PUSH1 0x20 ADD PUSH1 0x15 PUSH1 0xFF AND DUP2 MSTORE PUSH1 0x20 ADD PUSH1 0x4 PUSH1 0xFF AND DUP2 MSTORE PUSH1 0x20 ADD PUSH1 0xC7 PUSH1 0xFF AND DUP2 MSTORE PUSH1 0x20 ADD PUSH1 0x23 PUSH1 0xFF AND DUP2 MSTORE PUSH1 0x20 ADD PUSH1 0xC3 PUSH1 0xFF AND DUP2 MSTORE PUSH1 0x20 ADD PUSH1 0x18 PUSH1 0xFF AND DUP2 MSTORE PUSH1 0x20 ADD PUSH1 0x96 PUSH1 0xFF AND DUP2 MSTORE PUSH1 0x20 ADD PUSH1 0x5 PUSH1 0xFF AND DUP2 MSTORE PUSH1 0x20 ADD PUSH1 0x9A PUSH1 0xFF AND DUP2 MSTORE PUSH1 0x20 ADD PUSH1 0x7 PUSH1 0xFF AND DUP2 MSTORE PUSH1 0x20 ADD PUSH1 0x12 PUSH1 0xFF AND DUP2 MSTORE PUSH1 0x20 ADD PUSH1 0x80 PUSH1 0xFF AND DUP2 MSTORE PUSH1 0x20 ADD PUSH1 0xE2 PUSH1 0xFF AND DUP2 MSTORE PUSH1 0x20 ADD PUSH1 0xEB PUSH1 0xFF AND DUP2 MSTORE PUSH1 0x20 ADD PUSH1 0x27 PUSH1 0xFF AND DUP2 MSTORE PUSH1 0x20 ADD PUSH1 0xB2 PUSH1 0xFF AND DUP2 MSTORE PUSH1 0x20 ADD PUSH1 0x75 PUSH1 0xFF AND DUP2 MSTORE PUSH1 0x20 ADD PUSH1 0x9 PUSH1 0xFF AND DUP2 MSTORE PUSH1 0x20 ADD PUSH1 0x83 PUSH1 0xFF AND DUP2 MSTORE PUSH1 0x20 ADD PUSH1 0x2C PUSH1 0xFF AND DUP2 MSTORE PUSH1 0x20 ADD PUSH1 0x1A PUSH1 0xFF AND DUP2 MSTORE PUSH1 0x20 ADD PUSH1 0x1B PUSH1 0xFF AND DUP2 MSTORE PUSH1 0x20 ADD PUSH1 0x6E PUSH1 0xFF AND DUP2 MSTORE PUSH1 0x20 ADD PUSH1 0x5A PUSH1 0xFF AND DUP2 MSTORE PUSH1 0x20 ADD PUSH1 0xA0 PUSH1 0xFF AND DUP2 MSTORE PUSH1 0x20 ADD PUSH1 0x52 PUSH1 0xFF AND DUP2 MSTORE PUSH1 0x20 ADD PUSH1 0x3B PUSH1 0xFF AND DUP2 MSTORE PUSH1 0x20 ADD PUSH1 0xD6 PUSH1 0xFF AND DUP2 MSTORE PUSH1 0x20 ADD PUSH1 0xB3 PUSH1 0xFF AND DUP2 MSTORE PUSH1 0x20 ADD PUSH1 0x29 PUSH1 0xFF AND DUP2 MSTORE PUSH1 0x20 ADD PUSH1 0xE3 PUSH1 0xFF AND DUP2 MSTORE PUSH1 0x20 ADD PUSH1 0x2F PUSH1 0xFF AND DUP2 MSTORE PUSH1 0x20 ADD PUSH1 0x84 PUSH1 0xFF AND DUP2 MSTORE PUSH1 0x20 ADD PUSH1 0x53 PUSH1 0xFF AND DUP2 MSTORE PUSH1 0x20 ADD PUSH1 0xD1 PUSH1 0xFF AND DUP2 MSTORE PUSH1 0x20 ADD PUSH0 PUSH1 0xFF AND DUP2 MSTORE PUSH1 0x20 ADD PUSH1 0xED PUSH1 0xFF AND DUP2 MSTORE PUSH1 0x20 ADD PUSH1 0x20 PUSH1 0xFF AND DUP2 MSTORE PUSH1 0x20 ADD PUSH1 0xFC PUSH1 0xFF AND DUP2 MSTORE PUSH1 0x20 ADD PUSH1 0xB1 PUSH1 0xFF AND DUP2 MSTORE PUSH1 0x20 ADD PUSH1 0x5B PUSH1 0xFF AND DUP2 MSTORE PUSH1 0x20 ADD PUSH1 0x6A PUSH1 0xFF AND DUP2 MSTORE PUSH1 0x20 ADD PUSH1 0xCB PUSH1 0xFF AND DUP2 MSTORE PUSH1 0x20 ADD PUSH1 0xBE PUSH1 0xFF AND DUP2 MSTORE PUSH1 0x20 ADD PUSH1 0x39 PUSH1 0xFF AND DUP2 MSTORE PUSH1 0x20 ADD PUSH1 0x4A PUSH1 0xFF AND DUP2 MSTORE PUSH1 0x20 ADD PUSH1 0x4C PUSH1 0xFF AND DUP2 MSTORE PUSH1 0x20 ADD PUSH1 0x58 PUSH1 0xFF AND DUP2 MSTORE PUSH1 0x20 ADD PUSH1 0xCF PUSH1 0xFF AND DUP2 MSTORE PUSH1 0x20 ADD PUSH1 0xD0 PUSH1 0xFF AND DUP2 MSTORE PUSH1 0x20 ADD PUSH1 0xEF PUSH1 0xFF AND DUP2 MSTORE PUSH1 0x20 ADD PUSH1 0xAA PUSH1 0xFF AND DUP2 MSTORE PUSH1 0x20 ADD PUSH1 0xFB PUSH1 0xFF AND DUP2 MSTORE PUSH1 0x20 ADD PUSH1 0x43 PUSH1 0xFF AND DUP2 MSTORE PUSH1 0x20 ADD PUSH1 0x4D PUSH1 0xFF AND DUP2 MSTORE PUSH1 0x20 ADD PUSH1 0x33 PUSH1 0xFF AND DUP2 MSTORE PUSH1 0x20 ADD PUSH1 0x85 PUSH1 0xFF AND DUP2 MSTORE PUSH1 0x20 ADD PUSH1 0x45 PUSH1 0xFF AND DUP2 MSTORE PUSH1 0x20 ADD PUSH1 0xF9 PUSH1 0xFF AND DUP2 MSTORE PUSH1 0x20 ADD PUSH1 0x2 PUSH1 0xFF AND DUP2 MSTORE PUSH1 0x20 ADD PUSH1 0x7F PUSH1 0xFF AND DUP2 MSTORE PUSH1 0x20 ADD PUSH1 0x50 PUSH1 0xFF AND DUP2 MSTORE PUSH1 0x20 ADD PUSH1 0x3C PUSH1 0xFF AND DUP2 MSTORE PUSH1 0x20 ADD PUSH1 0x9F PUSH1 0xFF AND DUP2 MSTORE PUSH1 0x20 ADD PUSH1 0xA8 PUSH1 0xFF AND DUP2 MSTORE PUSH1 0x20 ADD PUSH1 0x51 PUSH1 0xFF AND DUP2 MSTORE PUSH1 0x20 ADD PUSH1 0xA3 PUSH1 0xFF AND DUP2 MSTORE PUSH1 0x20 ADD PUSH1 0x40 PUSH1 0xFF AND DUP2 MSTORE PUSH1 0x20 ADD PUSH1 0x8F PUSH1 0xFF AND DUP2 MSTORE PUSH1 0x20 ADD PUSH1 0x92 PUSH1 0xFF AND DUP2 MSTORE PUSH1 0x20 ADD PUSH1 0x9D PUSH1 0xFF AND DUP2 MSTORE PUSH1 0x20 ADD PUSH1 0x38 PUSH1 0xFF AND DUP2 MSTORE PUSH1 0x20 ADD PUSH1 0xF5 PUSH1 0xFF AND DUP2 MSTORE PUSH1 0x20 ADD PUSH1 0xBC PUSH1 0xFF AND DUP2 MSTORE PUSH1 0x20 ADD PUSH1 0xB6 PUSH1 0xFF AND DUP2 MSTORE PUSH1 0x20 ADD PUSH1 0xDA PUSH1 0xFF AND DUP2 MSTORE PUSH1 0x20 ADD PUSH1 0x21 PUSH1 0xFF AND DUP2 MSTORE PUSH1 0x20 ADD PUSH1 0x10 PUSH1 0xFF AND DUP2 MSTORE PUSH1 0x20 ADD PUSH1 0xFF DUP1 AND DUP2 MSTORE PUSH1 0x20 ADD PUSH1 0xF3 PUSH1 0xFF AND DUP2 MSTORE PUSH1 0x20 ADD PUSH1 0xD2 PUSH1 0xFF AND DUP2 MSTORE PUSH1 0x20 ADD PUSH1 0xCD PUSH1 0xFF AND DUP2 MSTORE PUSH1 0x20 ADD PUSH1 0xC PUSH1 0xFF AND DUP2 MSTORE PUSH1 0x20 ADD PUSH1 0x13 PUSH1 0xFF AND DUP2 MSTORE PUSH1 0x20 ADD PUSH1 0xEC PUSH1 0xFF AND DUP2 MSTORE PUSH1 0x20 ADD PUSH1 0x5F PUSH1 0xFF AND DUP2 MSTORE PUSH1 0x20 ADD PUSH1 0x97 PUSH1 0xFF AND DUP2 MSTORE PUSH1 0x20 ADD PUSH1 0x44 PUSH1 0xFF AND DUP2 MSTORE PUSH1 0x20 ADD PUSH1 0x17 PUSH1 0xFF AND DUP2 MSTORE PUSH1 0x20 ADD PUSH1 0xC4 PUSH1 0xFF AND DUP2 MSTORE PUSH1 0x20 ADD PUSH1 0xA7 PUSH1 0xFF AND DUP2 MSTORE PUSH1 0x20 ADD PUSH1 0x7E PUSH1 0xFF AND DUP2 MSTORE PUSH1 0x20 ADD PUSH1 0x3D PUSH1 0xFF AND DUP2 MSTORE PUSH1 0x20 ADD PUSH1 0x64 PUSH1 0xFF AND DUP2 MSTORE PUSH1 0x20 ADD PUSH1 0x5D PUSH1 0xFF AND DUP2 MSTORE PUSH1 0x20 ADD PUSH1 0x19 PUSH1 0xFF AND DUP2 MSTORE PUSH1 0x20 ADD PUSH1 0x73 PUSH1 0xFF AND DUP2 MSTORE PUSH1 0x20 ADD PUSH1 0x60 PUSH1 0xFF AND DUP2 MSTORE PUSH1 0x20 ADD PUSH1 0x81 PUSH1 0xFF AND DUP2 MSTORE PUSH1 0x20 ADD PUSH1 0x4F PUSH1 0xFF AND DUP2 MSTORE PUSH1 0x20 ADD PUSH1 0xDC PUSH1 0xFF AND DUP2 MSTORE PUSH1 0x20 ADD PUSH1 0x22 PUSH1 0xFF AND DUP2 MSTORE PUSH1 0x20 ADD PUSH1 0x2A PUSH1 0xFF AND DUP2 MSTORE PUSH1 0x20 ADD PUSH1 0x90 PUSH1 0xFF AND DUP2 MSTORE PUSH1 0x20 ADD PUSH1 0x88 PUSH1 0xFF AND DUP2 MSTORE PUSH1 0x20 ADD PUSH1 0x46 PUSH1 0xFF AND DUP2 MSTORE PUSH1 0x20 ADD PUSH1 0xEE PUSH1 0xFF AND DUP2 MSTORE PUSH1 0x20 ADD PUSH1 0xB8 PUSH1 0xFF AND DUP2 MSTORE PUSH1 0x20 ADD PUSH1 0x14 PUSH1 0xFF AND DUP2 MSTORE PUSH1 0x20 ADD PUSH1 0xDE PUSH1 0xFF AND DUP2 MSTORE PUSH1 0x20 ADD PUSH1 0x5E PUSH1 0xFF AND DUP2 MSTORE PUSH1 0x20 ADD PUSH1 0xB PUSH1 0xFF AND DUP2 MSTORE PUSH1 0x20 ADD PUSH1 0xDB PUSH1 0xFF AND DUP2 MSTORE PUSH1 0x20 ADD PUSH1 0xE0 PUSH1 0xFF AND DUP2 MSTORE PUSH1 0x20 ADD PUSH1 0x32 PUSH1 0xFF AND DUP2 MSTORE PUSH1 0x20 ADD PUSH1 0x3A PUSH1 0xFF AND DUP2 MSTORE PUSH1 0x20 ADD PUSH1 0xA PUSH1 0xFF AND DUP2 MSTORE PUSH1 0x20 ADD PUSH1 0x49 PUSH1 0xFF AND DUP2 MSTORE PUSH1 0x20 ADD PUSH1 0x6 PUSH1 0xFF AND DUP2 MSTORE PUSH1 0x20 ADD PUSH1 0x24 PUSH1 0xFF AND DUP2 MSTORE PUSH1 0x20 ADD PUSH1 0x5C PUSH1 0xFF AND DUP2 MSTORE PUSH1 0x20 ADD PUSH1 0xC2 PUSH1 0xFF AND DUP2 MSTORE PUSH1 0x20 ADD PUSH1 0xD3 PUSH1 0xFF AND DUP2 MSTORE PUSH1 0x20 ADD PUSH1 0xAC PUSH1 0xFF AND DUP2 MSTORE PUSH1 0x20 ADD PUSH1 0x62 PUSH1 0xFF AND DUP2 MSTORE PUSH1 0x20 ADD PUSH1 0x91 PUSH1 0xFF AND DUP2 MSTORE PUSH1 0x20 ADD PUSH1 0x95 PUSH1 0xFF AND DUP2 MSTORE PUSH1 0x20 ADD PUSH1 0xE4 PUSH1 0xFF AND DUP2 MSTORE PUSH1 0x20 ADD PUSH1 0x79 PUSH1 0xFF AND DUP2 MSTORE PUSH1 0x20 ADD PUSH1 0xE7 PUSH1 0xFF AND DUP2 MSTORE PUSH1 0x20 ADD PUSH1 0xC8 PUSH1 0xFF AND DUP2 MSTORE PUSH1 0x20 ADD PUSH1 0x37 PUSH1 0xFF AND DUP2 MSTORE PUSH1 0x20 ADD PUSH1 0x6D PUSH1 0xFF AND DUP2 MSTORE PUSH1 0x20 ADD PUSH1 0x8D PUSH1 0xFF AND DUP2 MSTORE PUSH1 0x20 ADD PUSH1 0xD5 PUSH1 0xFF AND DUP2 MSTORE PUSH1 0x20 ADD PUSH1 0x4E PUSH1 0xFF AND DUP2 MSTORE PUSH1 0x20 ADD PUSH1 0xA9 PUSH1 0xFF AND DUP2 MSTORE PUSH1 0x20 ADD PUSH1 0x6C PUSH1 0xFF AND DUP2 MSTORE PUSH1 0x20 ADD PUSH1 0x56 PUSH1 0xFF AND DUP2 MSTORE PUSH1 0x20 ADD PUSH1 0xF4 PUSH1 0xFF AND DUP2 MSTORE PUSH1 0x20 ADD PUSH1 0xEA PUSH1 0xFF AND DUP2 MSTORE PUSH1 0x20 ADD PUSH1 0x65 PUSH1 0xFF AND DUP2 MSTORE PUSH1 0x20 ADD PUSH1 0x7A PUSH1 0xFF AND DUP2 MSTORE PUSH1 0x20 ADD PUSH1 0xAE PUSH1 0xFF AND DUP2 MSTORE PUSH1 0x20 ADD PUSH1 0x8 PUSH1 0xFF AND DUP2 MSTORE PUSH1 0x20 ADD PUSH1 0xBA PUSH1 0xFF AND DUP2 MSTORE PUSH1 0x20 ADD PUSH1 0x78 PUSH1 0xFF AND DUP2 MSTORE PUSH1 0x20 ADD PUSH1 0x25 PUSH1 0xFF AND DUP2 MSTORE PUSH1 0x20 ADD PUSH1 0x2E PUSH1 0xFF AND DUP2 MSTORE PUSH1 0x20 ADD PUSH1 0x1C PUSH1 0xFF AND DUP2 MSTORE PUSH1 0x20 ADD PUSH1 0xA6 PUSH1 0xFF AND DUP2 MSTORE PUSH1 0x20 ADD PUSH1 0xB4 PUSH1 0xFF AND DUP2 MSTORE PUSH1 0x20 ADD PUSH1 0xC6 PUSH1 0xFF AND DUP2 MSTORE PUSH1 0x20 ADD PUSH1 0xE8 PUSH1 0xFF AND DUP2 MSTORE PUSH1 0x20 ADD PUSH1 0xDD PUSH1 0xFF AND DUP2 MSTORE PUSH1 0x20 ADD PUSH1 0x74 PUSH1 0xFF AND DUP2 MSTORE PUSH1 0x20 ADD PUSH1 0x1F PUSH1 0xFF AND DUP2 MSTORE PUSH1 0x20 ADD PUSH1 0x4B PUSH1 0xFF AND DUP2 MSTORE PUSH1 0x20 ADD PUSH1 0xBD PUSH1 0xFF AND DUP2 MSTORE PUSH1 0x20 ADD PUSH1 0x8B PUSH1 0xFF AND DUP2 MSTORE PUSH1 0x20 ADD PUSH1 0x8A PUSH1 0xFF AND DUP2 MSTORE PUSH1 0x20 ADD PUSH1 0x70 PUSH1 0xFF AND DUP2 MSTORE PUSH1 0x20 ADD PUSH1 0x3E PUSH1 0xFF AND DUP2 MSTORE PUSH1 0x20 ADD PUSH1 0xB5 PUSH1 0xFF AND DUP2 MSTORE PUSH1 0x20 ADD PUSH1 0x66 PUSH1 0xFF AND DUP2 MSTORE PUSH1 0x20 ADD PUSH1 0x48 PUSH1 0xFF AND DUP2 MSTORE PUSH1 0x20 ADD PUSH1 0x3 PUSH1 0xFF AND DUP2 MSTORE PUSH1 0x20 ADD PUSH1 0xF6 PUSH1 0xFF AND DUP2 MSTORE PUSH1 0x20 ADD PUSH1 0xE PUSH1 0xFF AND DUP2 MSTORE PUSH1 0x20 ADD PUSH1 0x61 PUSH1 0xFF AND DUP2 MSTORE PUSH1 0x20 ADD PUSH1 0x35 PUSH1 0xFF AND DUP2 MSTORE PUSH1 0x20 ADD PUSH1 0x57 PUSH1 0xFF AND DUP2 MSTORE PUSH1 0x20 ADD PUSH1 0xB9 PUSH1 0xFF AND DUP2 MSTORE PUSH1 0x20 ADD PUSH1 0x86 PUSH1 0xFF AND DUP2 MSTORE PUSH1 0x20 ADD PUSH1 0xC1 PUSH1 0xFF AND DUP2 MSTORE PUSH1 0x20 ADD PUSH1 0x1D PUSH1 0xFF AND DUP2 MSTORE PUSH1 0x20 ADD PUSH1 0x9E PUSH1 0xFF AND DUP2 MSTORE PUSH1 0x20 ADD PUSH1 0xE1 PUSH1 0xFF AND DUP2 MSTORE PUSH1 0x20 ADD PUSH1 0xF8 PUSH1 0xFF AND DUP2 MSTORE PUSH1 0x20 ADD PUSH1 0x98 PUSH1 0xFF AND DUP2 MSTORE PUSH1 0x20 ADD PUSH1 0x11 PUSH1 0xFF AND DUP2 MSTORE PUSH1 0x20 ADD PUSH1 0x69 PUSH1 0xFF AND DUP2 MSTORE PUSH1 0x20 ADD PUSH1 0xD9 PUSH1 0xFF AND DUP2 MSTORE PUSH1 0x20 ADD PUSH1 0x8E PUSH1 0xFF AND DUP2 MSTORE PUSH1 0x20 ADD PUSH1 0x94 PUSH1 0xFF AND DUP2 MSTORE PUSH1 0x20 ADD PUSH1 0x9B PUSH1 0xFF AND DUP2 MSTORE PUSH1 0x20 ADD PUSH1 0x1E PUSH1 0xFF AND DUP2 MSTORE PUSH1 0x20 ADD PUSH1 0x87 PUSH1 0xFF AND DUP2 MSTORE PUSH1 0x20 ADD PUSH1 0xE9 PUSH1 0xFF AND DUP2 MSTORE PUSH1 0x20 ADD PUSH1 0xCE PUSH1 0xFF AND DUP2 MSTORE PUSH1 0x20 ADD PUSH1 0x55 PUSH1 0xFF AND DUP2 MSTORE PUSH1 0x20 ADD PUSH1 0x28 PUSH1 0xFF AND DUP2 MSTORE PUSH1 0x20 ADD PUSH1 0xDF PUSH1 0xFF AND DUP2 MSTORE PUSH1 0x20 ADD PUSH1 0x8C PUSH1 0xFF AND DUP2 MSTORE PUSH1 0x20 ADD PUSH1 0xA1 PUSH1 0xFF AND DUP2 MSTORE PUSH1 0x20 ADD PUSH1 0x89 PUSH1 0xFF AND DUP2 MSTORE PUSH1 0x20 ADD PUSH1 0xD PUSH1 0xFF AND DUP2 MSTORE PUSH1 0x20 ADD PUSH1 0xBF PUSH1 0xFF AND DUP2 MSTORE PUSH1 0x20 ADD PUSH1 0xE6 PUSH1 0xFF AND DUP2 MSTORE PUSH1 0x20 ADD PUSH1 0x42 PUSH1 0xFF AND DUP2 MSTORE PUSH1 0x20 ADD PUSH1 0x68 PUSH1 0xFF AND DUP2 MSTORE PUSH1 0x20 ADD PUSH1 0x41 PUSH1 0xFF AND DUP2 MSTORE PUSH1 0x20 ADD PUSH1 0x99 PUSH1 0xFF AND DUP2 MSTORE PUSH1 0x20 ADD PUSH1 0x2D PUSH1 0xFF AND DUP2 MSTORE PUSH1 0x20 ADD PUSH1 0xF PUSH1 0xFF AND DUP2 MSTORE PUSH1 0x20 ADD PUSH1 0xB0 PUSH1 0xFF AND DUP2 MSTORE PUSH1 0x20 ADD PUSH1 0x54 PUSH1 0xFF AND DUP2 MSTORE PUSH1 0x20 ADD PUSH1 0xBB PUSH1 0xFF AND DUP2 MSTORE PUSH1 0x20 ADD PUSH1 0x16 PUSH1 0xFF AND DUP2 MSTORE POP PUSH1 0x8 SWAP1 PUSH2 0x100 PUSH2 0xAF3 SWAP3 SWAP2 SWAP1 PUSH2 0x29EB JUMP JUMPDEST POP PUSH1 0x40 MLOAD DUP1 PUSH2 0x2000 ADD PUSH1 0x40 MSTORE DUP1 PUSH1 0x52 PUSH1 0xFF AND DUP2 MSTORE PUSH1 0x20 ADD PUSH1 0x9 PUSH1 0xFF AND DUP2 MSTORE PUSH1 0x20 ADD PUSH1 0x6A PUSH1 0xFF AND DUP2 MSTORE PUSH1 0x20 ADD PUSH1 0xD5 PUSH1 0xFF AND DUP2 MSTORE PUSH1 0x20 ADD PUSH1 0x30 PUSH1 0xFF AND DUP2 MSTORE PUSH1 0x20 ADD PUSH1 0x36 PUSH1 0xFF AND DUP2 MSTORE PUSH1 0x20 ADD PUSH1 0xA5 PUSH1 0xFF AND DUP2 MSTORE PUSH1 0x20 ADD PUSH1 0x38 PUSH1 0xFF AND DUP2 MSTORE PUSH1 0x20 ADD PUSH1 0xBF PUSH1 0xFF AND DUP2 MSTORE PUSH1 0x20 ADD PUSH1 0x40 PUSH1 0xFF AND DUP2 MSTORE PUSH1 0x20 ADD PUSH1 0xA3 PUSH1 0xFF AND DUP2 MSTORE PUSH1 0x20 ADD PUSH1 0x9E PUSH1 0xFF AND DUP2 MSTORE PUSH1 0x20 ADD PUSH1 0x81 PUSH1 0xFF AND DUP2 MSTORE PUSH1 0x20 ADD PUSH1 0xF3 PUSH1 0xFF AND DUP2 MSTORE PUSH1 0x20 ADD PUSH1 0xD7 PUSH1 0xFF AND DUP2 MSTORE PUSH1 0x20 ADD PUSH1 0xFB PUSH1 0xFF AND DUP2 MSTORE PUSH1 0x20 ADD PUSH1 0x7C PUSH1 0xFF AND DUP2 MSTORE PUSH1 0x20 ADD PUSH1 0xE3 PUSH1 0xFF AND DUP2 MSTORE PUSH1 0x20 ADD PUSH1 0x39 PUSH1 0xFF AND DUP2 MSTORE PUSH1 0x20 ADD PUSH1 0x82 PUSH1 0xFF AND DUP2 MSTORE PUSH1 0x20 ADD PUSH1 0x9B PUSH1 0xFF AND DUP2 MSTORE PUSH1 0x20 ADD PUSH1 0x2F PUSH1 0xFF AND DUP2 MSTORE PUSH1 0x20 ADD PUSH1 0xFF DUP1 AND DUP2 MSTORE PUSH1 0x20 ADD PUSH1 0x87 PUSH1 0xFF AND DUP2 MSTORE PUSH1 0x20 ADD PUSH1 0x34 PUSH1 0xFF AND DUP2 MSTORE PUSH1 0x20 ADD PUSH1 0x8E PUSH1 0xFF AND DUP2 MSTORE PUSH1 0x20 ADD PUSH1 0x43 PUSH1 0xFF AND DUP2 MSTORE PUSH1 0x20 ADD PUSH1 0x44 PUSH1 0xFF AND DUP2 MSTORE PUSH1 0x20 ADD PUSH1 0xC4 PUSH1 0xFF AND DUP2 MSTORE PUSH1 0x20 ADD PUSH1 0xDE PUSH1 0xFF AND DUP2 MSTORE PUSH1 0x20 ADD PUSH1 0xE9 PUSH1 0xFF AND DUP2 MSTORE PUSH1 0x20 ADD PUSH1 0xCB PUSH1 0xFF AND DUP2 MSTORE PUSH1 0x20 ADD PUSH1 0x54 PUSH1 0xFF AND DUP2 MSTORE PUSH1 0x20 ADD PUSH1 0x7B PUSH1 0xFF AND DUP2 MSTORE PUSH1 0x20 ADD PUSH1 0x94 PUSH1 0xFF AND DUP2 MSTORE PUSH1 0x20 ADD PUSH1 0x32 PUSH1 0xFF AND DUP2 MSTORE PUSH1 0x20 ADD PUSH1 0xA6 PUSH1 0xFF AND DUP2 MSTORE PUSH1 0x20 ADD PUSH1 0xC2 PUSH1 0xFF AND DUP2 MSTORE PUSH1 0x20 ADD PUSH1 0x23 PUSH1 0xFF AND DUP2 MSTORE PUSH1 0x20 ADD PUSH1 0x3D PUSH1 0xFF AND DUP2 MSTORE PUSH1 0x20 ADD PUSH1 0xEE PUSH1 0xFF AND DUP2 MSTORE PUSH1 0x20 ADD PUSH1 0x4C PUSH1 0xFF AND DUP2 MSTORE PUSH1 0x20 ADD PUSH1 0x95 PUSH1 0xFF AND DUP2 MSTORE PUSH1 0x20 ADD PUSH1 0xB PUSH1 0xFF AND DUP2 MSTORE PUSH1 0x20 ADD PUSH1 0x42 PUSH1 0xFF AND DUP2 MSTORE PUSH1 0x20 ADD PUSH1 0xFA PUSH1 0xFF AND DUP2 MSTORE PUSH1 0x20 ADD PUSH1 0xC3 PUSH1 0xFF AND DUP2 MSTORE PUSH1 0x20 ADD PUSH1 0x4E PUSH1 0xFF AND DUP2 MSTORE PUSH1 0x20 ADD PUSH1 0x8 PUSH1 0xFF AND DUP2 MSTORE PUSH1 0x20 ADD PUSH1 0x2E PUSH1 0xFF AND DUP2 MSTORE PUSH1 0x20 ADD PUSH1 0xA1 PUSH1 0xFF AND DUP2 MSTORE PUSH1 0x20 ADD PUSH1 0x66 PUSH1 0xFF AND DUP2 MSTORE PUSH1 0x20 ADD PUSH1 0x28 PUSH1 0xFF AND DUP2 MSTORE PUSH1 0x20 ADD PUSH1 0xD9 PUSH1 0xFF AND DUP2 MSTORE PUSH1 0x20 ADD PUSH1 0x24 PUSH1 0xFF AND DUP2 MSTORE PUSH1 0x20 ADD PUSH1 0xB2 PUSH1 0xFF AND DUP2 MSTORE PUSH1 0x20 ADD PUSH1 0x76 PUSH1 0xFF AND DUP2 MSTORE PUSH1 0x20 ADD PUSH1 0x5B PUSH1 0xFF AND DUP2 MSTORE PUSH1 0x20 ADD PUSH1 0xA2 PUSH1 0xFF AND DUP2 MSTORE PUSH1 0x20 ADD PUSH1 0x49 PUSH1 0xFF AND DUP2 MSTORE PUSH1 0x20 ADD PUSH1 0x6D PUSH1 0xFF AND DUP2 MSTORE PUSH1 0x20 ADD PUSH1 0x8B PUSH1 0xFF AND DUP2 MSTORE PUSH1 0x20 ADD PUSH1 0xD1 PUSH1 0xFF AND DUP2 MSTORE PUSH1 0x20 ADD PUSH1 0x25 PUSH1 0xFF AND DUP2 MSTORE PUSH1 0x20 ADD PUSH1 0x72 PUSH1 0xFF AND DUP2 MSTORE PUSH1 0x20 ADD PUSH1 0xF8 PUSH1 0xFF AND DUP2 MSTORE PUSH1 0x20 ADD PUSH1 0xF6 PUSH1 0xFF AND DUP2 MSTORE PUSH1 0x20 ADD PUSH1 0x64 PUSH1 0xFF AND DUP2 MSTORE PUSH1 0x20 ADD PUSH1 0x86 PUSH1 0xFF AND DUP2 MSTORE PUSH1 0x20 ADD PUSH1 0x68 PUSH1 0xFF AND DUP2 MSTORE PUSH1 0x20 ADD PUSH1 0x98 PUSH1 0xFF AND DUP2 MSTORE PUSH1 0x20 ADD PUSH1 0x16 PUSH1 0xFF AND DUP2 MSTORE PUSH1 0x20 ADD PUSH1 0xD4 PUSH1 0xFF AND DUP2 MSTORE PUSH1 0x20 ADD PUSH1 0xA4 PUSH1 0xFF AND DUP2 MSTORE PUSH1 0x20 ADD PUSH1 0x5C PUSH1 0xFF AND DUP2 MSTORE PUSH1 0x20 ADD PUSH1 0xCC PUSH1 0xFF AND DUP2 MSTORE PUSH1 0x20 ADD PUSH1 0x5D PUSH1 0xFF AND DUP2 MSTORE PUSH1 0x20 ADD PUSH1 0x65 PUSH1 0xFF AND DUP2 MSTORE PUSH1 0x20 ADD PUSH1 0xB6 PUSH1 0xFF AND DUP2 MSTORE PUSH1 0x20 ADD PUSH1 0x92 PUSH1 0xFF AND DUP2 MSTORE PUSH1 0x20 ADD PUSH1 0x6C PUSH1 0xFF AND DUP2 MSTORE PUSH1 0x20 ADD PUSH1 0x70 PUSH1 0xFF AND DUP2 MSTORE PUSH1 0x20 ADD PUSH1 0x48 PUSH1 0xFF AND DUP2 MSTORE PUSH1 0x20 ADD PUSH1 0x50 PUSH1 0xFF AND DUP2 MSTORE PUSH1 0x20 ADD PUSH1 0xFD PUSH1 0xFF AND DUP2 MSTORE PUSH1 0x20 ADD PUSH1 0xED PUSH1 0xFF AND DUP2 MSTORE PUSH1 0x20 ADD PUSH1 0xB9 PUSH1 0xFF AND DUP2 MSTORE PUSH1 0x20 ADD PUSH1 0xDA PUSH1 0xFF AND DUP2 MSTORE PUSH1 0x20 ADD PUSH1 0x5E PUSH1 0xFF AND DUP2 MSTORE PUSH1 0x20 ADD PUSH1 0x15 PUSH1 0xFF AND DUP2 MSTORE PUSH1 0x20 ADD PUSH1 0x46 PUSH1 0xFF AND DUP2 MSTORE PUSH1 0x20 ADD PUSH1 0x57 PUSH1 0xFF AND DUP2 MSTORE PUSH1 0x20 ADD PUSH1 0xA7 PUSH1 0xFF AND DUP2 MSTORE PUSH1 0x20 ADD PUSH1 0x8D PUSH1 0xFF AND DUP2 MSTORE PUSH1 0x20 ADD PUSH1 0x9D PUSH1 0xFF AND DUP2 MSTORE PUSH1 0x20 ADD PUSH1 0x84 PUSH1 0xFF AND DUP2 MSTORE PUSH1 0x20 ADD PUSH1 0x90 PUSH1 0xFF AND DUP2 MSTORE PUSH1 0x20 ADD PUSH1 0xD8 PUSH1 0xFF AND DUP2 MSTORE PUSH1 0x20 ADD PUSH1 0xAB PUSH1 0xFF AND DUP2 MSTORE PUSH1 0x20 ADD PUSH0 PUSH1 0xFF AND DUP2 MSTORE PUSH1 0x20 ADD PUSH1 0x8C PUSH1 0xFF AND DUP2 MSTORE PUSH1 0x20 ADD PUSH1 0xBC PUSH1 0xFF AND DUP2 MSTORE PUSH1 0x20 ADD PUSH1 0xD3 PUSH1 0xFF AND DUP2 MSTORE PUSH1 0x20 ADD PUSH1 0xA PUSH1 0xFF AND DUP2 MSTORE PUSH1 0x20 ADD PUSH1 0xF7 PUSH1 0xFF AND DUP2 MSTORE PUSH1 0x20 ADD PUSH1 0xE4 PUSH1 0xFF AND DUP2 MSTORE PUSH1 0x20 ADD PUSH1 0x58 PUSH1 0xFF AND DUP2 MSTORE PUSH1 0x20 ADD PUSH1 0x5 PUSH1 0xFF AND DUP2 MSTORE PUSH1 0x20 ADD PUSH1 0xB8 PUSH1 0xFF AND DUP2 MSTORE PUSH1 0x20 ADD PUSH1 0xB3 PUSH1 0xFF AND DUP2 MSTORE PUSH1 0x20 ADD PUSH1 0x45 PUSH1 0xFF AND DUP2 MSTORE PUSH1 0x20 ADD PUSH1 0x6 PUSH1 0xFF AND DUP2 MSTORE PUSH1 0x20 ADD PUSH1 0xD0 PUSH1 0xFF AND DUP2 MSTORE PUSH1 0x20 ADD PUSH1 0x2C PUSH1 0xFF AND DUP2 MSTORE PUSH1 0x20 ADD PUSH1 0x1E PUSH1 0xFF AND DUP2 MSTORE PUSH1 0x20 ADD PUSH1 0x8F PUSH1 0xFF AND DUP2 MSTORE PUSH1 0x20 ADD PUSH1 0xCA PUSH1 0xFF AND DUP2 MSTORE PUSH1 0x20 ADD PUSH1 0x3F PUSH1 0xFF AND DUP2 MSTORE PUSH1 0x20 ADD PUSH1 0xF PUSH1 0xFF AND DUP2 MSTORE PUSH1 0x20 ADD PUSH1 0x2 PUSH1 0xFF AND DUP2 MSTORE PUSH1 0x20 ADD PUSH1 0xC1 PUSH1 0xFF AND DUP2 MSTORE PUSH1 0x20 ADD PUSH1 0xAF PUSH1 0xFF AND DUP2 MSTORE PUSH1 0x20 ADD PUSH1 0xBD PUSH1 0xFF AND DUP2 MSTORE PUSH1 0x20 ADD PUSH1 0x3 PUSH1 0xFF AND DUP2 MSTORE PUSH1 0x20 ADD PUSH1 0x1 PUSH1 0xFF AND DUP2 MSTORE PUSH1 0x20 ADD PUSH1 0x13 PUSH1 0xFF AND DUP2 MSTORE PUSH1 0x20 ADD PUSH1 0x8A PUSH1 0xFF AND DUP2 MSTORE PUSH1 0x20 ADD PUSH1 0x6B PUSH1 0xFF AND DUP2 MSTORE PUSH1 0x20 ADD PUSH1 0x3A PUSH1 0xFF AND DUP2 MSTORE PUSH1 0x20 ADD PUSH1 0x91 PUSH1 0xFF AND DUP2 MSTORE PUSH1 0x20 ADD PUSH1 0x11 PUSH1 0xFF AND DUP2 MSTORE PUSH1 0x20 ADD PUSH1 0x41 PUSH1 0xFF AND DUP2 MSTORE PUSH1 0x20 ADD PUSH1 0x4F PUSH1 0xFF AND DUP2 MSTORE PUSH1 0x20 ADD PUSH1 0x67 PUSH1 0xFF AND DUP2 MSTORE PUSH1 0x20 ADD PUSH1 0xDC PUSH1 0xFF AND DUP2 MSTORE PUSH1 0x20 ADD PUSH1 0xEA PUSH1 0xFF AND DUP2 MSTORE PUSH1 0x20 ADD PUSH1 0x97 PUSH1 0xFF AND DUP2 MSTORE PUSH1 0x20 ADD PUSH1 0xF2 PUSH1 0xFF AND DUP2 MSTORE PUSH1 0x20 ADD PUSH1 0xCF PUSH1 0xFF AND DUP2 MSTORE PUSH1 0x20 ADD PUSH1 0xCE PUSH1 0xFF AND DUP2 MSTORE PUSH1 0x20 ADD PUSH1 0xF0 PUSH1 0xFF AND DUP2 MSTORE PUSH1 0x20 ADD PUSH1 0xB4 PUSH1 0xFF AND DUP2 MSTORE PUSH1 0x20 ADD PUSH1 0xE6 PUSH1 0xFF AND DUP2 MSTORE PUSH1 0x20 ADD PUSH1 0x73 PUSH1 0xFF AND DUP2 MSTORE PUSH1 0x20 ADD PUSH1 0x96 PUSH1 0xFF AND DUP2 MSTORE PUSH1 0x20 ADD PUSH1 0xAC PUSH1 0xFF AND DUP2 MSTORE PUSH1 0x20 ADD PUSH1 0x74 PUSH1 0xFF AND DUP2 MSTORE PUSH1 0x20 ADD PUSH1 0x22 PUSH1 0xFF AND DUP2 MSTORE PUSH1 0x20 ADD PUSH1 0xE7 PUSH1 0xFF AND DUP2 MSTORE PUSH1 0x20 ADD PUSH1 0xAD PUSH1 0xFF AND DUP2 MSTORE PUSH1 0x20 ADD PUSH1 0x35 PUSH1 0xFF AND DUP2 MSTORE PUSH1 0x20 ADD PUSH1 0x85 PUSH1 0xFF AND DUP2 MSTORE PUSH1 0x20 ADD PUSH1 0xE2 PUSH1 0xFF AND DUP2 MSTORE PUSH1 0x20 ADD PUSH1 0xF9 PUSH1 0xFF AND DUP2 MSTORE PUSH1 0x20 ADD PUSH1 0x37 PUSH1 0xFF AND DUP2 MSTORE PUSH1 0x20 ADD PUSH1 0xE8 PUSH1 0xFF AND DUP2 MSTORE PUSH1 0x20 ADD PUSH1 0x1C PUSH1 0xFF AND DUP2 MSTORE PUSH1 0x20 ADD PUSH1 0x75 PUSH1 0xFF AND DUP2 MSTORE PUSH1 0x20 ADD PUSH1 0xDF PUSH1 0xFF AND DUP2 MSTORE PUSH1 0x20 ADD PUSH1 0x6E PUSH1 0xFF AND DUP2 MSTORE PUSH1 0x20 ADD PUSH1 0x47 PUSH1 0xFF AND DUP2 MSTORE PUSH1 0x20 ADD PUSH1 0xF1 PUSH1 0xFF AND DUP2 MSTORE PUSH1 0x20 ADD PUSH1 0x1A PUSH1 0xFF AND DUP2 MSTORE PUSH1 0x20 ADD PUSH1 0x71 PUSH1 0xFF AND DUP2 MSTORE PUSH1 0x20 ADD PUSH1 0x1D PUSH1 0xFF AND DUP2 MSTORE PUSH1 0x20 ADD PUSH1 0x29 PUSH1 0xFF AND DUP2 MSTORE PUSH1 0x20 ADD PUSH1 0xC5 PUSH1 0xFF AND DUP2 MSTORE PUSH1 0x20 ADD PUSH1 0x89 PUSH1 0xFF AND DUP2 MSTORE PUSH1 0x20 ADD PUSH1 0x6F PUSH1 0xFF AND DUP2 MSTORE PUSH1 0x20 ADD PUSH1 0xB7 PUSH1 0xFF AND DUP2 MSTORE PUSH1 0x20 ADD PUSH1 0x62 PUSH1 0xFF AND DUP2 MSTORE PUSH1 0x20 ADD PUSH1 0xE PUSH1 0xFF AND DUP2 MSTORE PUSH1 0x20 ADD PUSH1 0xAA PUSH1 0xFF AND DUP2 MSTORE PUSH1 0x20 ADD PUSH1 0x18 PUSH1 0xFF AND DUP2 MSTORE PUSH1 0x20 ADD PUSH1 0xBE PUSH1 0xFF AND DUP2 MSTORE PUSH1 0x20 ADD PUSH1 0x1B PUSH1 0xFF AND DUP2 MSTORE PUSH1 0x20 ADD PUSH1 0xFC PUSH1 0xFF AND DUP2 MSTORE PUSH1 0x20 ADD PUSH1 0x56 PUSH1 0xFF AND DUP2 MSTORE PUSH1 0x20 ADD PUSH1 0x3E PUSH1 0xFF AND DUP2 MSTORE PUSH1 0x20 ADD PUSH1 0x4B PUSH1 0xFF AND DUP2 MSTORE PUSH1 0x20 ADD PUSH1 0xC6 PUSH1 0xFF AND DUP2 MSTORE PUSH1 0x20 ADD PUSH1 0xD2 PUSH1 0xFF AND DUP2 MSTORE PUSH1 0x20 ADD PUSH1 0x79 PUSH1 0xFF AND DUP2 MSTORE PUSH1 0x20 ADD PUSH1 0x20 PUSH1 0xFF AND DUP2 MSTORE PUSH1 0x20 ADD PUSH1 0x9A PUSH1 0xFF AND DUP2 MSTORE PUSH1 0x20 ADD PUSH1 0xDB PUSH1 0xFF AND DUP2 MSTORE PUSH1 0x20 ADD PUSH1 0xC0 PUSH1 0xFF AND DUP2 MSTORE PUSH1 0x20 ADD PUSH1 0xFE PUSH1 0xFF AND DUP2 MSTORE PUSH1 0x20 ADD PUSH1 0x78 PUSH1 0xFF AND DUP2 MSTORE PUSH1 0x20 ADD PUSH1 0xCD PUSH1 0xFF AND DUP2 MSTORE PUSH1 0x20 ADD PUSH1 0x5A PUSH1 0xFF AND DUP2 MSTORE PUSH1 0x20 ADD PUSH1 0xF4 PUSH1 0xFF AND DUP2 MSTORE PUSH1 0x20 ADD PUSH1 0x1F PUSH1 0xFF AND DUP2 MSTORE PUSH1 0x20 ADD PUSH1 0xDD PUSH1 0xFF AND DUP2 MSTORE PUSH1 0x20 ADD PUSH1 0xA8 PUSH1 0xFF AND DUP2 MSTORE PUSH1 0x20 ADD PUSH1 0x33 PUSH1 0xFF AND DUP2 MSTORE PUSH1 0x20 ADD PUSH1 0x88 PUSH1 0xFF AND DUP2 MSTORE PUSH1 0x20 ADD PUSH1 0x7 PUSH1 0xFF AND DUP2 MSTORE PUSH1 0x20 ADD PUSH1 0xC7 PUSH1 0xFF AND DUP2 MSTORE PUSH1 0x20 ADD PUSH1 0x31 PUSH1 0xFF AND DUP2 MSTORE PUSH1 0x20 ADD PUSH1 0xB1 PUSH1 0xFF AND DUP2 MSTORE PUSH1 0x20 ADD PUSH1 0x12 PUSH1 0xFF AND DUP2 MSTORE PUSH1 0x20 ADD PUSH1 0x10 PUSH1 0xFF AND DUP2 MSTORE PUSH1 0x20 ADD PUSH1 0x59 PUSH1 0xFF AND DUP2 MSTORE PUSH1 0x20 ADD PUSH1 0x27 PUSH1 0xFF AND DUP2 MSTORE PUSH1 0x20 ADD PUSH1 0x80 PUSH1 0xFF AND DUP2 MSTORE PUSH1 0x20 ADD PUSH1 0xEC PUSH1 0xFF AND DUP2 MSTORE PUSH1 0x20 ADD PUSH1 0x5F PUSH1 0xFF AND DUP2 MSTORE PUSH1 0x20 ADD PUSH1 0x60 PUSH1 0xFF AND DUP2 MSTORE PUSH1 0x20 ADD PUSH1 0x51 PUSH1 0xFF AND DUP2 MSTORE PUSH1 0x20 ADD PUSH1 0x7F PUSH1 0xFF AND DUP2 MSTORE PUSH1 0x20 ADD PUSH1 0xA9 PUSH1 0xFF AND DUP2 MSTORE PUSH1 0x20 ADD PUSH1 0x19 PUSH1 0xFF AND DUP2 MSTORE PUSH1 0x20 ADD PUSH1 0xB5 PUSH1 0xFF AND DUP2 MSTORE PUSH1 0x20 ADD PUSH1 0x4A PUSH1 0xFF AND DUP2 MSTORE PUSH1 0x20 ADD PUSH1 0xD PUSH1 0xFF AND DUP2 MSTORE PUSH1 0x20 ADD PUSH1 0x2D PUSH1 0xFF AND DUP2 MSTORE PUSH1 0x20 ADD PUSH1 0xE5 PUSH1 0xFF AND DUP2 MSTORE PUSH1 0x20 ADD PUSH1 0x7A PUSH1 0xFF AND DUP2 MSTORE PUSH1 0x20 ADD PUSH1 0x9F PUSH1 0xFF AND DUP2 MSTORE PUSH1 0x20 ADD PUSH1 0x93 PUSH1 0xFF AND DUP2 MSTORE PUSH1 0x20 ADD PUSH1 0xC9 PUSH1 0xFF AND DUP2 MSTORE PUSH1 0x20 ADD PUSH1 0x9C PUSH1 0xFF AND DUP2 MSTORE PUSH1 0x20 ADD PUSH1 0xEF PUSH1 0xFF AND DUP2 MSTORE PUSH1 0x20 ADD PUSH1 0xA0 PUSH1 0xFF AND DUP2 MSTORE PUSH1 0x20 ADD PUSH1 0xE0 PUSH1 0xFF AND DUP2 MSTORE PUSH1 0x20 ADD PUSH1 0x3B PUSH1 0xFF AND DUP2 MSTORE PUSH1 0x20 ADD PUSH1 0x4D PUSH1 0xFF AND DUP2 MSTORE PUSH1 0x20 ADD PUSH1 0xAE PUSH1 0xFF AND DUP2 MSTORE PUSH1 0x20 ADD PUSH1 0x2A PUSH1 0xFF AND DUP2 MSTORE PUSH1 0x20 ADD PUSH1 0xF5 PUSH1 0xFF AND DUP2 MSTORE PUSH1 0x20 ADD PUSH1 0xB0 PUSH1 0xFF AND DUP2 MSTORE PUSH1 0x20 ADD PUSH1 0xC8 PUSH1 0xFF AND DUP2 MSTORE PUSH1 0x20 ADD PUSH1 0xEB PUSH1 0xFF AND DUP2 MSTORE PUSH1 0x20 ADD PUSH1 0xBB PUSH1 0xFF AND DUP2 MSTORE PUSH1 0x20 ADD PUSH1 0x3C PUSH1 0xFF AND DUP2 MSTORE PUSH1 0x20 ADD PUSH1 0x83 PUSH1 0xFF AND DUP2 MSTORE PUSH1 0x20 ADD PUSH1 0x53 PUSH1 0xFF AND DUP2 MSTORE PUSH1 0x20 ADD PUSH1 0x99 PUSH1 0xFF AND DUP2 MSTORE PUSH1 0x20 ADD PUSH1 0x61 PUSH1 0xFF AND DUP2 MSTORE PUSH1 0x20 ADD PUSH1 0x17 PUSH1 0xFF AND DUP2 MSTORE PUSH1 0x20 ADD PUSH1 0x2B PUSH1 0xFF AND DUP2 MSTORE PUSH1 0x20 ADD PUSH1 0x4 PUSH1 0xFF AND DUP2 MSTORE PUSH1 0x20 ADD PUSH1 0x7E PUSH1 0xFF AND DUP2 MSTORE PUSH1 0x20 ADD PUSH1 0xBA PUSH1 0xFF AND DUP2 MSTORE PUSH1 0x20 ADD PUSH1 0x77 PUSH1 0xFF AND DUP2 MSTORE PUSH1 0x20 ADD PUSH1 0xD6 PUSH1 0xFF AND DUP2 MSTORE PUSH1 0x20 ADD PUSH1 0x26 PUSH1 0xFF AND DUP2 MSTORE PUSH1 0x20 ADD PUSH1 0xE1 PUSH1 0xFF AND DUP2 MSTORE PUSH1 0x20 ADD PUSH1 0x69 PUSH1 0xFF AND DUP2 MSTORE PUSH1 0x20 ADD PUSH1 0x14 PUSH1 0xFF AND DUP2 MSTORE PUSH1 0x20 ADD PUSH1 0x63 PUSH1 0xFF AND DUP2 MSTORE PUSH1 0x20 ADD PUSH1 0x55 PUSH1 0xFF AND DUP2 MSTORE PUSH1 0x20 ADD PUSH1 0x21 PUSH1 0xFF AND DUP2 MSTORE PUSH1 0x20 ADD PUSH1 0xC PUSH1 0xFF AND DUP2 MSTORE PUSH1 0x20 ADD PUSH1 0x7D PUSH1 0xFF AND DUP2 MSTORE POP PUSH1 0x10 SWAP1 PUSH2 0x100 PUSH2 0x150D SWAP3 SWAP2 SWAP1 PUSH2 0x29EB JUMP JUMPDEST POP PUSH1 0x40 MLOAD DUP1 PUSH2 0x2000 ADD PUSH1 0x40 MSTORE DUP1 PUSH0 PUSH1 0xFF AND DUP2 MSTORE PUSH1 0x20 ADD PUSH0 PUSH1 0xFF AND DUP2 MSTORE PUSH1 0x20 ADD PUSH1 0xC8 PUSH1 0xFF AND DUP2 MSTORE PUSH1 0x20 ADD PUSH1 0x8 PUSH1 0xFF AND DUP2 MSTORE PUSH1 0x20 ADD PUSH1 0x91 PUSH1 0xFF AND DUP2 MSTORE PUSH1 0x20 ADD PUSH1 0x10 PUSH1 0xFF AND DUP2 MSTORE PUSH1 0x20 ADD PUSH1 0xD0 PUSH1 0xFF AND DUP2 MSTORE PUSH1 0x20 ADD PUSH1 0x36 PUSH1 0xFF AND DUP2 MSTORE PUSH1 0x20 ADD PUSH1 0x5A PUSH1 0xFF AND DUP2 MSTORE PUSH1 0x20 ADD PUSH1 0x3E PUSH1 0xFF AND DUP2 MSTORE PUSH1 0x20 ADD PUSH1 0xD8 PUSH1 0xFF AND DUP2 MSTORE PUSH1 0x20 ADD PUSH1 0x43 PUSH1 0xFF AND DUP2 MSTORE PUSH1 0x20 ADD PUSH1 0x99 PUSH1 0xFF AND DUP2 MSTORE PUSH1 0x20 ADD PUSH1 0x77 PUSH1 0xFF AND DUP2 MSTORE PUSH1 0x20 ADD PUSH1 0xFE PUSH1 0xFF AND DUP2 MSTORE PUSH1 0x20 ADD PUSH1 0x18 PUSH1 0xFF AND DUP2 MSTORE PUSH1 0x20 ADD PUSH1 0x23 PUSH1 0xFF AND DUP2 MSTORE PUSH1 0x20 ADD PUSH1 0x20 PUSH1 0xFF AND DUP2 MSTORE PUSH1 0x20 ADD PUSH1 0x7 PUSH1 0xFF AND DUP2 MSTORE PUSH1 0x20 ADD PUSH1 0x70 PUSH1 0xFF AND DUP2 MSTORE PUSH1 0x20 ADD PUSH1 0xA1 PUSH1 0xFF AND DUP2 MSTORE PUSH1 0x20 ADD PUSH1 0x6C PUSH1 0xFF AND DUP2 MSTORE PUSH1 0x20 ADD PUSH1 0xC PUSH1 0xFF AND DUP2 MSTORE PUSH1 0x20 ADD PUSH1 0x7F PUSH1 0xFF AND DUP2 MSTORE PUSH1 0x20 ADD PUSH1 0x62 PUSH1 0xFF AND DUP2 MSTORE PUSH1 0x20 ADD PUSH1 0x8B PUSH1 0xFF AND DUP2 MSTORE PUSH1 0x20 ADD PUSH1 0x40 PUSH1 0xFF AND DUP2 MSTORE PUSH1 0x20 ADD PUSH1 0x46 PUSH1 0xFF AND DUP2 MSTORE PUSH1 0x20 ADD PUSH1 0xC7 PUSH1 0xFF AND DUP2 MSTORE PUSH1 0x20 ADD PUSH1 0x4B PUSH1 0xFF AND DUP2 MSTORE PUSH1 0x20 ADD PUSH1 0xE0 PUSH1 0xFF AND DUP2 MSTORE PUSH1 0x20 ADD PUSH1 0xE PUSH1 0xFF AND DUP2 MSTORE PUSH1 0x20 ADD PUSH1 0xEB PUSH1 0xFF AND DUP2 MSTORE PUSH1 0x20 ADD PUSH1 0x16 PUSH1 0xFF AND DUP2 MSTORE PUSH1 0x20 ADD PUSH1 0xE8 PUSH1 0xFF AND DUP2 MSTORE PUSH1 0x20 ADD PUSH1 0xAD PUSH1 0xFF AND DUP2 MSTORE PUSH1 0x20 ADD PUSH1 0xCF PUSH1 0xFF AND DUP2 MSTORE PUSH1 0x20 ADD PUSH1 0xCD PUSH1 0xFF AND DUP2 MSTORE PUSH1 0x20 ADD PUSH1 0x39 PUSH1 0xFF AND DUP2 MSTORE PUSH1 0x20 ADD PUSH1 0x53 PUSH1 0xFF AND DUP2 MSTORE PUSH1 0x20 ADD PUSH1 0x6A PUSH1 0xFF AND DUP2 MSTORE PUSH1 0x20 ADD PUSH1 0x27 PUSH1 0xFF AND DUP2 MSTORE PUSH1 0x20 ADD PUSH1 0x35 PUSH1 0xFF AND DUP2 MSTORE PUSH1 0x20 ADD PUSH1 0x93 PUSH1 0xFF AND DUP2 MSTORE PUSH1 0x20 ADD PUSH1 0xD4 PUSH1 0xFF AND DUP2 MSTORE PUSH1 0x20 ADD PUSH1 0x4E PUSH1 0xFF AND DUP2 MSTORE PUSH1 0x20 ADD PUSH1 0x48 PUSH1 0xFF AND DUP2 MSTORE PUSH1 0x20 ADD PUSH1 0xC3 PUSH1 0xFF AND DUP2 MSTORE PUSH1 0x20 ADD PUSH1 0x2B PUSH1 0xFF AND DUP2 MSTORE PUSH1 0x20 ADD PUSH1 0x79 PUSH1 0xFF AND DUP2 MSTORE PUSH1 0x20 ADD PUSH1 0x54 PUSH1 0xFF AND DUP2 MSTORE PUSH1 0x20 ADD PUSH1 0x28 PUSH1 0xFF AND DUP2 MSTORE PUSH1 0x20 ADD PUSH1 0x9 PUSH1 0xFF AND DUP2 MSTORE PUSH1 0x20 ADD PUSH1 0x78 PUSH1 0xFF AND DUP2 MSTORE PUSH1 0x20 ADD PUSH1 0xF PUSH1 0xFF AND DUP2 MSTORE PUSH1 0x20 ADD PUSH1 0x21 PUSH1 0xFF AND DUP2 MSTORE PUSH1 0x20 ADD PUSH1 0x90 PUSH1 0xFF AND DUP2 MSTORE PUSH1 0x20 ADD PUSH1 0x87 PUSH1 0xFF AND DUP2 MSTORE PUSH1 0x20 ADD PUSH1 0x14 PUSH1 0xFF AND DUP2 MSTORE PUSH1 0x20 ADD PUSH1 0x2A PUSH1 0xFF AND DUP2 MSTORE PUSH1 0x20 ADD PUSH1 0xA9 PUSH1 0xFF AND DUP2 MSTORE PUSH1 0x20 ADD PUSH1 0x9C PUSH1 0xFF AND DUP2 MSTORE PUSH1 0x20 ADD PUSH1 0xD6 PUSH1 0xFF AND DUP2 MSTORE PUSH1 0x20 ADD PUSH1 0x74 PUSH1 0xFF AND DUP2 MSTORE PUSH1 0x20 ADD PUSH1 0xB4 PUSH1 0xFF AND DUP2 MSTORE PUSH1 0x20 ADD PUSH1 0x7C PUSH1 0xFF AND DUP2 MSTORE PUSH1 0x20 ADD PUSH1 0xDE PUSH1 0xFF AND DUP2 MSTORE PUSH1 0x20 ADD PUSH1 0xED PUSH1 0xFF AND DUP2 MSTORE PUSH1 0x20 ADD PUSH1 0xB1 PUSH1 0xFF AND DUP2 MSTORE PUSH1 0x20 ADD PUSH1 0x86 PUSH1 0xFF AND DUP2 MSTORE PUSH1 0x20 ADD PUSH1 0x76 PUSH1 0xFF AND DUP2 MSTORE PUSH1 0x20 ADD PUSH1 0xA4 PUSH1 0xFF AND DUP2 MSTORE PUSH1 0x20 ADD PUSH1 0x98 PUSH1 0xFF AND DUP2 MSTORE PUSH1 0x20 ADD PUSH1 0xE2 PUSH1 0xFF AND DUP2 MSTORE PUSH1 0x20 ADD PUSH1 0x96 PUSH1 0xFF AND DUP2 MSTORE PUSH1 0x20 ADD PUSH1 0x8F PUSH1 0xFF AND DUP2 MSTORE PUSH1 0x20 ADD PUSH1 0x2 PUSH1 0xFF AND DUP2 MSTORE PUSH1 0x20 ADD PUSH1 0x32 PUSH1 0xFF AND DUP2 MSTORE PUSH1 0x20 ADD PUSH1 0x1C PUSH1 0xFF AND DUP2 MSTORE PUSH1 0x20 ADD PUSH1 0xC1 PUSH1 0xFF AND DUP2 MSTORE PUSH1 0x20 ADD PUSH1 0x33 PUSH1 0xFF AND DUP2 MSTORE PUSH1 0x20 ADD PUSH1 0xEE PUSH1 0xFF AND DUP2 MSTORE PUSH1 0x20 ADD PUSH1 0xEF PUSH1 0xFF AND DUP2 MSTORE PUSH1 0x20 ADD PUSH1 0x81 PUSH1 0xFF AND DUP2 MSTORE PUSH1 0x20 ADD PUSH1 0xFD PUSH1 0xFF AND DUP2 MSTORE PUSH1 0x20 ADD PUSH1 0x30 PUSH1 0xFF AND DUP2 MSTORE PUSH1 0x20 ADD PUSH1 0x5C PUSH1 0xFF AND DUP2 MSTORE PUSH1 0x20 ADD PUSH1 0x13 PUSH1 0xFF AND DUP2 MSTORE PUSH1 0x20 ADD PUSH1 0x9D PUSH1 0xFF AND DUP2 MSTORE PUSH1 0x20 ADD PUSH1 0x29 PUSH1 0xFF AND DUP2 MSTORE PUSH1 0x20 ADD PUSH1 0x17 PUSH1 0xFF AND DUP2 MSTORE PUSH1 0x20 ADD PUSH1 0xC4 PUSH1 0xFF AND DUP2 MSTORE PUSH1 0x20 ADD PUSH1 0x11 PUSH1 0xFF AND DUP2 MSTORE PUSH1 0x20 ADD PUSH1 0x44 PUSH1 0xFF AND DUP2 MSTORE PUSH1 0x20 ADD PUSH1 0x8C PUSH1 0xFF AND DUP2 MSTORE PUSH1 0x20 ADD PUSH1 0x80 PUSH1 0xFF AND DUP2 MSTORE PUSH1 0x20 ADD PUSH1 0xF3 PUSH1 0xFF AND DUP2 MSTORE PUSH1 0x20 ADD PUSH1 0x73 PUSH1 0xFF AND DUP2 MSTORE PUSH1 0x20 ADD PUSH1 0x42 PUSH1 0xFF AND DUP2 MSTORE PUSH1 0x20 ADD PUSH1 0x1E PUSH1 0xFF AND DUP2 MSTORE PUSH1 0x20 ADD PUSH1 0x1D PUSH1 0xFF AND DUP2 MSTORE PUSH1 0x20 ADD PUSH1 0xB5 PUSH1 0xFF AND DUP2 MSTORE PUSH1 0x20 ADD PUSH1 0xF0 PUSH1 0xFF AND DUP2 MSTORE PUSH1 0x20 ADD PUSH1 0x12 PUSH1 0xFF AND DUP2 MSTORE PUSH1 0x20 ADD PUSH1 0xD1 PUSH1 0xFF AND DUP2 MSTORE PUSH1 0x20 ADD PUSH1 0x5B PUSH1 0xFF AND DUP2 MSTORE PUSH1 0x20 ADD PUSH1 0x41 PUSH1 0xFF AND DUP2 MSTORE PUSH1 0x20 ADD PUSH1 0xA2 PUSH1 0xFF AND DUP2 MSTORE PUSH1 0x20 ADD PUSH1 0xD7 PUSH1 0xFF AND DUP2 MSTORE PUSH1 0x20 ADD PUSH1 0x2C PUSH1 0xFF AND DUP2 MSTORE PUSH1 0x20 ADD PUSH1 0xE9 PUSH1 0xFF AND DUP2 MSTORE PUSH1 0x20 ADD PUSH1 0xD5 PUSH1 0xFF AND DUP2 MSTORE PUSH1 0x20 ADD PUSH1 0x59 PUSH1 0xFF AND DUP2 MSTORE PUSH1 0x20 ADD PUSH1 0xCB PUSH1 0xFF AND DUP2 MSTORE PUSH1 0x20 ADD PUSH1 0x50 PUSH1 0xFF AND DUP2 MSTORE PUSH1 0x20 ADD PUSH1 0xA8 PUSH1 0xFF AND DUP2 MSTORE PUSH1 0x20 ADD PUSH1 0xDC PUSH1 0xFF AND DUP2 MSTORE PUSH1 0x20 ADD PUSH1 0xFC PUSH1 0xFF AND DUP2 MSTORE PUSH1 0x20 ADD PUSH1 0xF2 PUSH1 0xFF AND DUP2 MSTORE PUSH1 0x20 ADD PUSH1 0x56 PUSH1 0xFF AND DUP2 MSTORE PUSH1 0x20 ADD PUSH1 0x72 PUSH1 0xFF AND DUP2 MSTORE PUSH1 0x20 ADD PUSH1 0xA6 PUSH1 0xFF AND DUP2 MSTORE PUSH1 0x20 ADD PUSH1 0x65 PUSH1 0xFF AND DUP2 MSTORE PUSH1 0x20 ADD PUSH1 0x2F PUSH1 0xFF AND DUP2 MSTORE PUSH1 0x20 ADD PUSH1 0x9F PUSH1 0xFF AND DUP2 MSTORE PUSH1 0x20 ADD PUSH1 0x9B PUSH1 0xFF AND DUP2 MSTORE PUSH1 0x20 ADD PUSH1 0x3D PUSH1 0xFF AND DUP2 MSTORE PUSH1 0x20 ADD PUSH1 0xBA PUSH1 0xFF AND DUP2 MSTORE PUSH1 0x20 ADD PUSH1 0x7D PUSH1 0xFF AND DUP2 MSTORE PUSH1 0x20 ADD PUSH1 0xC2 PUSH1 0xFF AND DUP2 MSTORE PUSH1 0x20 ADD PUSH1 0x45 PUSH1 0xFF AND DUP2 MSTORE PUSH1 0x20 ADD PUSH1 0x82 PUSH1 0xFF AND DUP2 MSTORE PUSH1 0x20 ADD PUSH1 0xA7 PUSH1 0xFF AND DUP2 MSTORE PUSH1 0x20 ADD PUSH1 0x57 PUSH1 0xFF AND DUP2 MSTORE PUSH1 0x20 ADD PUSH1 0xB6 PUSH1 0xFF AND DUP2 MSTORE PUSH1 0x20 ADD PUSH1 0xA3 PUSH1 0xFF AND DUP2 MSTORE PUSH1 0x20 ADD PUSH1 0x7A PUSH1 0xFF AND DUP2 MSTORE PUSH1 0x20 ADD PUSH1 0x75 PUSH1 0xFF AND DUP2 MSTORE PUSH1 0x20 ADD PUSH1 0x4F PUSH1 0xFF AND DUP2 MSTORE PUSH1 0x20 ADD PUSH1 0xAE PUSH1 0xFF AND DUP2 MSTORE PUSH1 0x20 ADD PUSH1 0x3F PUSH1 0xFF AND DUP2 MSTORE PUSH1 0x20 ADD PUSH1 0x37 PUSH1 0xFF AND DUP2 MSTORE PUSH1 0x20 ADD PUSH1 0x6D PUSH1 0xFF AND DUP2 MSTORE PUSH1 0x20 ADD PUSH1 0x47 PUSH1 0xFF AND DUP2 MSTORE PUSH1 0x20 ADD PUSH1 0x61 PUSH1 0xFF AND DUP2 MSTORE PUSH1 0x20 ADD PUSH1 0xBE PUSH1 0xFF AND DUP2 MSTORE PUSH1 0x20 ADD PUSH1 0xAB PUSH1 0xFF AND DUP2 MSTORE PUSH1 0x20 ADD PUSH1 0xD3 PUSH1 0xFF AND DUP2 MSTORE PUSH1 0x20 ADD PUSH1 0x5F PUSH1 0xFF AND DUP2 MSTORE PUSH1 0x20 ADD PUSH1 0xB0 PUSH1 0xFF AND DUP2 MSTORE PUSH1 0x20 ADD PUSH1 0x58 PUSH1 0xFF AND DUP2 MSTORE PUSH1 0x20 ADD PUSH1 0xAF PUSH1 0xFF AND DUP2 MSTORE PUSH1 0x20 ADD PUSH1 0xCA PUSH1 0xFF AND DUP2 MSTORE PUSH1 0x20 ADD PUSH1 0x5E PUSH1 0xFF AND DUP2 MSTORE PUSH1 0x20 ADD PUSH1 0xFA PUSH1 0xFF AND DUP2 MSTORE PUSH1 0x20 ADD PUSH1 0x85 PUSH1 0xFF AND DUP2 MSTORE PUSH1 0x20 ADD PUSH1 0xE4 PUSH1 0xFF AND DUP2 MSTORE PUSH1 0x20 ADD PUSH1 0x4D PUSH1 0xFF AND DUP2 MSTORE PUSH1 0x20 ADD PUSH1 0x8A PUSH1 0xFF AND DUP2 MSTORE PUSH1 0x20 ADD PUSH1 0x5 PUSH1 0xFF AND DUP2 MSTORE PUSH1 0x20 ADD PUSH1 0xFB PUSH1 0xFF AND DUP2 MSTORE PUSH1 0x20 ADD PUSH1 0x60 PUSH1 0xFF AND DUP2 MSTORE PUSH1 0x20 ADD PUSH1 0xB7 PUSH1 0xFF AND DUP2 MSTORE PUSH1 0x20 ADD PUSH1 0x7B PUSH1 0xFF AND DUP2 MSTORE PUSH1 0x20 ADD PUSH1 0xB8 PUSH1 0xFF AND DUP2 MSTORE PUSH1 0x20 ADD PUSH1 0x26 PUSH1 0xFF AND DUP2 MSTORE PUSH1 0x20 ADD PUSH1 0x4A PUSH1 0xFF AND DUP2 MSTORE PUSH1 0x20 ADD PUSH1 0x67 PUSH1 0xFF AND DUP2 MSTORE PUSH1 0x20 ADD PUSH1 0xC6 PUSH1 0xFF AND DUP2 MSTORE PUSH1 0x20 ADD PUSH1 0x1A PUSH1 0xFF AND DUP2 MSTORE PUSH1 0x20 ADD PUSH1 0xF8 PUSH1 0xFF AND DUP2 MSTORE PUSH1 0x20 ADD PUSH1 0x69 PUSH1 0xFF AND DUP2 MSTORE PUSH1 0x20 ADD PUSH1 0x25 PUSH1 0xFF AND DUP2 MSTORE PUSH1 0x20 ADD PUSH1 0xB3 PUSH1 0xFF AND DUP2 MSTORE PUSH1 0x20 ADD PUSH1 0xDB PUSH1 0xFF AND DUP2 MSTORE PUSH1 0x20 ADD PUSH1 0xBD PUSH1 0xFF AND DUP2 MSTORE PUSH1 0x20 ADD PUSH1 0x66 PUSH1 0xFF AND DUP2 MSTORE PUSH1 0x20 ADD PUSH1 0xDD PUSH1 0xFF AND DUP2 MSTORE PUSH1 0x20 ADD PUSH1 0xF1 PUSH1 0xFF AND DUP2 MSTORE PUSH1 0x20 ADD PUSH1 0xD2 PUSH1 0xFF AND DUP2 MSTORE PUSH1 0x20 ADD PUSH1 0xDF PUSH1 0xFF AND DUP2 MSTORE PUSH1 0x20 ADD PUSH1 0x3 PUSH1 0xFF AND DUP2 MSTORE PUSH1 0x20 ADD PUSH1 0x8D PUSH1 0xFF AND DUP2 MSTORE PUSH1 0x20 ADD PUSH1 0x34 PUSH1 0xFF AND DUP2 MSTORE PUSH1 0x20 ADD PUSH1 0xD9 PUSH1 0xFF AND DUP2 MSTORE PUSH1 0x20 ADD PUSH1 0x92 PUSH1 0xFF AND DUP2 MSTORE PUSH1 0x20 ADD PUSH1 0xD PUSH1 0xFF AND DUP2 MSTORE PUSH1 0x20 ADD PUSH1 0x63 PUSH1 0xFF AND DUP2 MSTORE PUSH1 0x20 ADD PUSH1 0x55 PUSH1 0xFF AND DUP2 MSTORE PUSH1 0x20 ADD PUSH1 0xAA PUSH1 0xFF AND DUP2 MSTORE PUSH1 0x20 ADD PUSH1 0x49 PUSH1 0xFF AND DUP2 MSTORE PUSH1 0x20 ADD PUSH1 0xEC PUSH1 0xFF AND DUP2 MSTORE PUSH1 0x20 ADD PUSH1 0xBC PUSH1 0xFF AND DUP2 MSTORE PUSH1 0x20 ADD PUSH1 0x95 PUSH1 0xFF AND DUP2 MSTORE PUSH1 0x20 ADD PUSH1 0x3C PUSH1 0xFF AND DUP2 MSTORE PUSH1 0x20 ADD PUSH1 0x84 PUSH1 0xFF AND DUP2 MSTORE PUSH1 0x20 ADD PUSH1 0xB PUSH1 0xFF AND DUP2 MSTORE PUSH1 0x20 ADD PUSH1 0xF5 PUSH1 0xFF AND DUP2 MSTORE PUSH1 0x20 ADD PUSH1 0xE6 PUSH1 0xFF AND DUP2 MSTORE PUSH1 0x20 ADD PUSH1 0xE7 PUSH1 0xFF AND DUP2 MSTORE PUSH1 0x20 ADD PUSH1 0xE5 PUSH1 0xFF AND DUP2 MSTORE PUSH1 0x20 ADD PUSH1 0xAC PUSH1 0xFF AND DUP2 MSTORE PUSH1 0x20 ADD PUSH1 0x7E PUSH1 0xFF AND DUP2 MSTORE PUSH1 0x20 ADD PUSH1 0x6E PUSH1 0xFF AND DUP2 MSTORE PUSH1 0x20 ADD PUSH1 0xB9 PUSH1 0xFF AND DUP2 MSTORE PUSH1 0x20 ADD PUSH1 0xF9 PUSH1 0xFF AND DUP2 MSTORE PUSH1 0x20 ADD PUSH1 0xDA PUSH1 0xFF AND DUP2 MSTORE PUSH1 0x20 ADD PUSH1 0x8E PUSH1 0xFF AND DUP2 MSTORE PUSH1 0x20 ADD PUSH1 0x9A PUSH1 0xFF AND DUP2 MSTORE PUSH1 0x20 ADD PUSH1 0xC9 PUSH1 0xFF AND DUP2 MSTORE PUSH1 0x20 ADD PUSH1 0x24 PUSH1 0xFF AND DUP2 MSTORE PUSH1 0x20 ADD PUSH1 0xE1 PUSH1 0xFF AND DUP2 MSTORE PUSH1 0x20 ADD PUSH1 0xA PUSH1 0xFF AND DUP2 MSTORE PUSH1 0x20 ADD PUSH1 0x15 PUSH1 0xFF AND DUP2 MSTORE PUSH1 0x20 ADD PUSH1 0x6B PUSH1 0xFF AND DUP2 MSTORE PUSH1 0x20 ADD PUSH1 0x3A PUSH1 0xFF AND DUP2 MSTORE PUSH1 0x20 ADD PUSH1 0xA0 PUSH1 0xFF AND DUP2 MSTORE PUSH1 0x20 ADD PUSH1 0x51 PUSH1 0xFF AND DUP2 MSTORE PUSH1 0x20 ADD PUSH1 0xF4 PUSH1 0xFF AND DUP2 MSTORE PUSH1 0x20 ADD PUSH1 0xEA PUSH1 0xFF AND DUP2 MSTORE PUSH1 0x20 ADD PUSH1 0xB2 PUSH1 0xFF AND DUP2 MSTORE PUSH1 0x20 ADD PUSH1 0x97 PUSH1 0xFF AND DUP2 MSTORE PUSH1 0x20 ADD PUSH1 0x9E PUSH1 0xFF AND DUP2 MSTORE PUSH1 0x20 ADD PUSH1 0x5D PUSH1 0xFF AND DUP2 MSTORE PUSH1 0x20 ADD PUSH1 0x22 PUSH1 0xFF AND DUP2 MSTORE PUSH1 0x20 ADD PUSH1 0x88 PUSH1 0xFF AND DUP2 MSTORE PUSH1 0x20 ADD PUSH1 0x94 PUSH1 0xFF AND DUP2 MSTORE PUSH1 0x20 ADD PUSH1 0xCE PUSH1 0xFF AND DUP2 MSTORE PUSH1 0x20 ADD PUSH1 0x19 PUSH1 0xFF AND DUP2 MSTORE PUSH1 0x20 ADD PUSH1 0x1 PUSH1 0xFF AND DUP2 MSTORE PUSH1 0x20 ADD PUSH1 0x71 PUSH1 0xFF AND DUP2 MSTORE PUSH1 0x20 ADD PUSH1 0x4C PUSH1 0xFF AND DUP2 MSTORE PUSH1 0x20 ADD PUSH1 0xA5 PUSH1 0xFF AND DUP2 MSTORE PUSH1 0x20 ADD PUSH1 0xE3 PUSH1 0xFF AND DUP2 MSTORE PUSH1 0x20 ADD PUSH1 0xC5 PUSH1 0xFF AND DUP2 MSTORE PUSH1 0x20 ADD PUSH1 0x31 PUSH1 0xFF AND DUP2 MSTORE PUSH1 0x20 ADD PUSH1 0xBB PUSH1 0xFF AND DUP2 MSTORE PUSH1 0x20 ADD PUSH1 0xCC PUSH1 0xFF AND DUP2 MSTORE PUSH1 0x20 ADD PUSH1 0x1F PUSH1 0xFF AND DUP2 MSTORE PUSH1 0x20 ADD PUSH1 0x2D PUSH1 0xFF AND DUP2 MSTORE PUSH1 0x20 ADD PUSH1 0x3B PUSH1 0xFF AND DUP2 MSTORE PUSH1 0x20 ADD PUSH1 0x52 PUSH1 0xFF AND DUP2 MSTORE PUSH1 0x20 ADD PUSH1 0x6F PUSH1 0xFF AND DUP2 MSTORE PUSH1 0x20 ADD PUSH1 0xF6 PUSH1 0xFF AND DUP2 MSTORE PUSH1 0x20 ADD PUSH1 0x2E PUSH1 0xFF AND DUP2 MSTORE PUSH1 0x20 ADD PUSH1 0x89 PUSH1 0xFF AND DUP2 MSTORE PUSH1 0x20 ADD PUSH1 0xF7 PUSH1 0xFF AND DUP2 MSTORE PUSH1 0x20 ADD PUSH1 0xC0 PUSH1 0xFF AND DUP2 MSTORE PUSH1 0x20 ADD PUSH1 0x68 PUSH1 0xFF AND DUP2 MSTORE PUSH1 0x20 ADD PUSH1 0x1B PUSH1 0xFF AND DUP2 MSTORE PUSH1 0x20 ADD PUSH1 0x64 PUSH1 0xFF AND DUP2 MSTORE PUSH1 0x20 ADD PUSH1 0x4 PUSH1 0xFF AND DUP2 MSTORE PUSH1 0x20 ADD PUSH1 0x6 PUSH1 0xFF AND DUP2 MSTORE PUSH1 0x20 ADD PUSH1 0xBF PUSH1 0xFF AND DUP2 MSTORE PUSH1 0x20 ADD PUSH1 0x83 PUSH1 0xFF AND DUP2 MSTORE PUSH1 0x20 ADD PUSH1 0x38 PUSH1 0xFF AND DUP2 MSTORE POP PUSH1 0x18 SWAP1 PUSH2 0x100 PUSH2 0x1F27 SWAP3 SWAP2 SWAP1 PUSH2 0x29EB JUMP JUMPDEST POP PUSH1 0x40 MLOAD DUP1 PUSH2 0x2000 ADD PUSH1 0x40 MSTORE DUP1 PUSH1 0x1 PUSH1 0xFF AND DUP2 MSTORE PUSH1 0x20 ADD PUSH1 0xE5 PUSH1 0xFF AND DUP2 MSTORE PUSH1 0x20 ADD PUSH1 0x4C PUSH1 0xFF AND DUP2 MSTORE PUSH1 0x20 ADD PUSH1 0xB5 PUSH1 0xFF AND DUP2 MSTORE PUSH1 0x20 ADD PUSH1 0xFB PUSH1 0xFF AND DUP2 MSTORE PUSH1 0x20 ADD PUSH1 0x9F PUSH1 0xFF AND DUP2 MSTORE PUSH1 0x20 ADD PUSH1 0xFC PUSH1 0xFF AND DUP2 MSTORE PUSH1 0x20 ADD PUSH1 0x12 PUSH1 0xFF AND DUP2 MSTORE PUSH1 0x20 ADD PUSH1 0x3 PUSH1 0xFF AND DUP2 MSTORE PUSH1 0x20 ADD PUSH1 0x34 PUSH1 0xFF AND DUP2 MSTORE PUSH1 0x20 ADD PUSH1 0xD4 PUSH1 0xFF AND DUP2 MSTORE PUSH1 0x20 ADD PUSH1 0xC4 PUSH1 0xFF AND DUP2 MSTORE PUSH1 0x20 ADD PUSH1 0x16 PUSH1 0xFF AND DUP2 MSTORE PUSH1 0x20 ADD PUSH1 0xBA PUSH1 0xFF AND DUP2 MSTORE PUSH1 0x20 ADD PUSH1 0x1F PUSH1 0xFF AND DUP2 MSTORE PUSH1 0x20 ADD PUSH1 0x36 PUSH1 0xFF AND DUP2 MSTORE PUSH1 0x20 ADD PUSH1 0x5 PUSH1 0xFF AND DUP2 MSTORE PUSH1 0x20 ADD PUSH1 0x5C PUSH1 0xFF AND DUP2 MSTORE PUSH1 0x20 ADD PUSH1 0x67 PUSH1 0xFF AND DUP2 MSTORE PUSH1 0x20 ADD PUSH1 0x57 PUSH1 0xFF AND DUP2 MSTORE PUSH1 0x20 ADD PUSH1 0x3A PUSH1 0xFF AND DUP2 MSTORE PUSH1 0x20 ADD PUSH1 0xD5 PUSH1 0xFF AND DUP2 MSTORE PUSH1 0x20 ADD PUSH1 0x21 PUSH1 0xFF AND DUP2 MSTORE PUSH1 0x20 ADD PUSH1 0x5A PUSH1 0xFF AND DUP2 MSTORE PUSH1 0x20 ADD PUSH1 0xF PUSH1 0xFF AND DUP2 MSTORE PUSH1 0x20 ADD PUSH1 0xE4 PUSH1 0xFF AND DUP2 MSTORE PUSH1 0x20 ADD PUSH1 0xA9 PUSH1 0xFF AND DUP2 MSTORE PUSH1 0x20 ADD PUSH1 0xF9 PUSH1 0xFF AND DUP2 MSTORE PUSH1 0x20 ADD PUSH1 0x4E PUSH1 0xFF AND DUP2 MSTORE PUSH1 0x20 ADD PUSH1 0x64 PUSH1 0xFF AND DUP2 MSTORE PUSH1 0x20 ADD PUSH1 0x63 PUSH1 0xFF AND DUP2 MSTORE PUSH1 0x20 ADD PUSH1 0xEE PUSH1 0xFF AND DUP2 MSTORE PUSH1 0x20 ADD PUSH1 0x11 PUSH1 0xFF AND DUP2 MSTORE PUSH1 0x20 ADD PUSH1 0x37 PUSH1 0xFF AND DUP2 MSTORE PUSH1 0x20 ADD PUSH1 0xE0 PUSH1 0xFF AND DUP2 MSTORE PUSH1 0x20 ADD PUSH1 0x10 PUSH1 0xFF AND DUP2 MSTORE PUSH1 0x20 ADD PUSH1 0xD2 PUSH1 0xFF AND DUP2 MSTORE PUSH1 0x20 ADD PUSH1 0xAC PUSH1 0xFF AND DUP2 MSTORE PUSH1 0x20 ADD PUSH1 0xA5 PUSH1 0xFF AND DUP2 MSTORE PUSH1 0x20 ADD PUSH1 0x29 PUSH1 0xFF AND DUP2 MSTORE PUSH1 0x20 ADD PUSH1 0x33 PUSH1 0xFF AND DUP2 MSTORE PUSH1 0x20 ADD PUSH1 0x59 PUSH1 0xFF AND DUP2 MSTORE PUSH1 0x20 ADD PUSH1 0x3B PUSH1 0xFF AND DUP2 MSTORE PUSH1 0x20 ADD PUSH1 0x30 PUSH1 0xFF AND DUP2 MSTORE PUSH1 0x20 ADD PUSH1 0x6D PUSH1 0xFF AND DUP2 MSTORE PUSH1 0x20 ADD PUSH1 0xEF PUSH1 0xFF AND DUP2 MSTORE PUSH1 0x20 ADD PUSH1 0xF4 PUSH1 0xFF AND DUP2 MSTORE PUSH1 0x20 ADD PUSH1 0x7B PUSH1 0xFF AND DUP2 MSTORE PUSH1 0x20 ADD PUSH1 0x55 PUSH1 0xFF AND DUP2 MSTORE PUSH1 0x20 ADD PUSH1 0xEB PUSH1 0xFF AND DUP2 MSTORE PUSH1 0x20 ADD PUSH1 0x4D PUSH1 0xFF AND DUP2 MSTORE PUSH1 0x20 ADD PUSH1 0x50 PUSH1 0xFF AND DUP2 MSTORE PUSH1 0x20 ADD PUSH1 0xB7 PUSH1 0xFF AND DUP2 MSTORE PUSH1 0x20 ADD PUSH1 0x2A PUSH1 0xFF AND DUP2 MSTORE PUSH1 0x20 ADD PUSH1 0x7 PUSH1 0xFF AND DUP2 MSTORE PUSH1 0x20 ADD PUSH1 0x8D PUSH1 0xFF AND DUP2 MSTORE PUSH1 0x20 ADD PUSH1 0xFF DUP1 AND DUP2 MSTORE PUSH1 0x20 ADD PUSH1 0x26 PUSH1 0xFF AND DUP2 MSTORE PUSH1 0x20 ADD PUSH1 0xD7 PUSH1 0xFF AND DUP2 MSTORE PUSH1 0x20 ADD PUSH1 0xF0 PUSH1 0xFF AND DUP2 MSTORE PUSH1 0x20 ADD PUSH1 0xC2 PUSH1 0xFF AND DUP2 MSTORE PUSH1 0x20 ADD PUSH1 0x7E PUSH1 0xFF AND DUP2 MSTORE PUSH1 0x20 ADD PUSH1 0x9 PUSH1 0xFF AND DUP2 MSTORE PUSH1 0x20 ADD PUSH1 0x8C PUSH1 0xFF AND DUP2 MSTORE PUSH1 0x20 ADD PUSH1 0x1A PUSH1 0xFF AND DUP2 MSTORE PUSH1 0x20 ADD PUSH1 0x6A PUSH1 0xFF AND DUP2 MSTORE PUSH1 0x20 ADD PUSH1 0x62 PUSH1 0xFF AND DUP2 MSTORE PUSH1 0x20 ADD PUSH1 0xB PUSH1 0xFF AND DUP2 MSTORE PUSH1 0x20 ADD PUSH1 0x5D PUSH1 0xFF AND DUP2 MSTORE PUSH1 0x20 ADD PUSH1 0x82 PUSH1 0xFF AND DUP2 MSTORE PUSH1 0x20 ADD PUSH1 0x1B PUSH1 0xFF AND DUP2 MSTORE PUSH1 0x20 ADD PUSH1 0x8F PUSH1 0xFF AND DUP2 MSTORE PUSH1 0x20 ADD PUSH1 0x2E PUSH1 0xFF AND DUP2 MSTORE PUSH1 0x20 ADD PUSH1 0xBE PUSH1 0xFF AND DUP2 MSTORE PUSH1 0x20 ADD PUSH1 0xA6 PUSH1 0xFF AND DUP2 MSTORE PUSH1 0x20 ADD PUSH1 0x1D PUSH1 0xFF AND DUP2 MSTORE PUSH1 0x20 ADD PUSH1 0xE7 PUSH1 0xFF AND DUP2 MSTORE PUSH1 0x20 ADD PUSH1 0x9D PUSH1 0xFF AND DUP2 MSTORE PUSH1 0x20 ADD PUSH1 0x2D PUSH1 0xFF AND DUP2 MSTORE PUSH1 0x20 ADD PUSH1 0x8A PUSH1 0xFF AND DUP2 MSTORE PUSH1 0x20 ADD PUSH1 0x72 PUSH1 0xFF AND DUP2 MSTORE PUSH1 0x20 ADD PUSH1 0xD9 PUSH1 0xFF AND DUP2 MSTORE PUSH1 0x20 ADD PUSH1 0xF1 PUSH1 0xFF AND DUP2 MSTORE PUSH1 0x20 ADD PUSH1 0x27 PUSH1 0xFF AND DUP2 MSTORE PUSH1 0x20 ADD PUSH1 0x32 PUSH1 0xFF AND DUP2 MSTORE PUSH1 0x20 ADD PUSH1 0xBC PUSH1 0xFF AND DUP2 MSTORE PUSH1 0x20 ADD PUSH1 0x77 PUSH1 0xFF AND DUP2 MSTORE PUSH1 0x20 ADD PUSH1 0x85 PUSH1 0xFF AND DUP2 MSTORE PUSH1 0x20 ADD PUSH1 0x96 PUSH1 0xFF AND DUP2 MSTORE PUSH1 0x20 ADD PUSH1 0x70 PUSH1 0xFF AND DUP2 MSTORE PUSH1 0x20 ADD PUSH1 0x8 PUSH1 0xFF AND DUP2 MSTORE PUSH1 0x20 ADD PUSH1 0x69 PUSH1 0xFF AND DUP2 MSTORE PUSH1 0x20 ADD PUSH1 0x56 PUSH1 0xFF AND DUP2 MSTORE PUSH1 0x20 ADD PUSH1 0xDF PUSH1 0xFF AND DUP2 MSTORE PUSH1 0x20 ADD PUSH1 0x99 PUSH1 0xFF AND DUP2 MSTORE PUSH1 0x20 ADD PUSH1 0x94 PUSH1 0xFF AND DUP2 MSTORE PUSH1 0x20 ADD PUSH1 0xA1 PUSH1 0xFF AND DUP2 MSTORE PUSH1 0x20 ADD PUSH1 0x90 PUSH1 0xFF AND DUP2 MSTORE PUSH1 0x20 ADD PUSH1 0x18 PUSH1 0xFF AND DUP2 MSTORE PUSH1 0x20 ADD PUSH1 0xBB PUSH1 0xFF AND DUP2 MSTORE PUSH1 0x20 ADD PUSH1 0xFA PUSH1 0xFF AND DUP2 MSTORE PUSH1 0x20 ADD PUSH1 0x7A PUSH1 0xFF AND DUP2 MSTORE PUSH1 0x20 ADD PUSH1 0xB0 PUSH1 0xFF AND DUP2 MSTORE PUSH1 0x20 ADD PUSH1 0xA7 PUSH1 0xFF AND DUP2 MSTORE PUSH1 0x20 ADD PUSH1 0xF8 PUSH1 0xFF AND DUP2 MSTORE PUSH1 0x20 ADD PUSH1 0xAB PUSH1 0xFF AND DUP2 MSTORE PUSH1 0x20 ADD PUSH1 0x28 PUSH1 0xFF AND DUP2 MSTORE PUSH1 0x20 ADD PUSH1 0xD6 PUSH1 0xFF AND DUP2 MSTORE PUSH1 0x20 ADD PUSH1 0x15 PUSH1 0xFF AND DUP2 MSTORE PUSH1 0x20 ADD PUSH1 0x8E PUSH1 0xFF AND DUP2 MSTORE PUSH1 0x20 ADD PUSH1 0xCB PUSH1 0xFF AND DUP2 MSTORE PUSH1 0x20 ADD PUSH1 0xF2 PUSH1 0xFF AND DUP2 MSTORE PUSH1 0x20 ADD PUSH1 0x13 PUSH1 0xFF AND DUP2 MSTORE PUSH1 0x20 ADD PUSH1 0xE6 PUSH1 0xFF AND DUP2 MSTORE PUSH1 0x20 ADD PUSH1 0x78 PUSH1 0xFF AND DUP2 MSTORE PUSH1 0x20 ADD PUSH1 0x61 PUSH1 0xFF AND DUP2 MSTORE PUSH1 0x20 ADD PUSH1 0x3F PUSH1 0xFF AND DUP2 MSTORE PUSH1 0x20 ADD PUSH1 0x89 PUSH1 0xFF AND DUP2 MSTORE PUSH1 0x20 ADD PUSH1 0x46 PUSH1 0xFF AND DUP2 MSTORE PUSH1 0x20 ADD PUSH1 0xD PUSH1 0xFF AND DUP2 MSTORE PUSH1 0x20 ADD PUSH1 0x35 PUSH1 0xFF AND DUP2 MSTORE PUSH1 0x20 ADD PUSH1 0x31 PUSH1 0xFF AND DUP2 MSTORE PUSH1 0x20 ADD PUSH1 0x88 PUSH1 0xFF AND DUP2 MSTORE PUSH1 0x20 ADD PUSH1 0xA3 PUSH1 0xFF AND DUP2 MSTORE PUSH1 0x20 ADD PUSH1 0x41 PUSH1 0xFF AND DUP2 MSTORE PUSH1 0x20 ADD PUSH1 0x80 PUSH1 0xFF AND DUP2 MSTORE PUSH1 0x20 ADD PUSH1 0xCA PUSH1 0xFF AND DUP2 MSTORE PUSH1 0x20 ADD PUSH1 0x17 PUSH1 0xFF AND DUP2 MSTORE PUSH1 0x20 ADD PUSH1 0x5F PUSH1 0xFF AND DUP2 MSTORE PUSH1 0x20 ADD PUSH1 0x53 PUSH1 0xFF AND DUP2 MSTORE PUSH1 0x20 ADD PUSH1 0x83 PUSH1 0xFF AND DUP2 MSTORE PUSH1 0x20 ADD PUSH1 0xFE PUSH1 0xFF AND DUP2 MSTORE PUSH1 0x20 ADD PUSH1 0xC3 PUSH1 0xFF AND DUP2 MSTORE PUSH1 0x20 ADD PUSH1 0x9B PUSH1 0xFF AND DUP2 MSTORE PUSH1 0x20 ADD PUSH1 0x45 PUSH1 0xFF AND DUP2 MSTORE PUSH1 0x20 ADD PUSH1 0x39 PUSH1 0xFF AND DUP2 MSTORE PUSH1 0x20 ADD PUSH1 0xE1 PUSH1 0xFF AND DUP2 MSTORE PUSH1 0x20 ADD PUSH1 0xF5 PUSH1 0xFF AND DUP2 MSTORE PUSH1 0x20 ADD PUSH1 0x9E PUSH1 0xFF AND DUP2 MSTORE PUSH1 0x20 ADD PUSH1 0x19 PUSH1 0xFF AND DUP2 MSTORE PUSH1 0x20 ADD PUSH1 0x5E PUSH1 0xFF AND DUP2 MSTORE PUSH1 0x20 ADD PUSH1 0xB6 PUSH1 0xFF AND DUP2 MSTORE PUSH1 0x20 ADD PUSH1 0xCF PUSH1 0xFF AND DUP2 MSTORE PUSH1 0x20 ADD PUSH1 0x4B PUSH1 0xFF AND DUP2 MSTORE PUSH1 0x20 ADD PUSH1 0x38 PUSH1 0xFF AND DUP2 MSTORE PUSH1 0x20 ADD PUSH1 0x4 PUSH1 0xFF AND DUP2 MSTORE PUSH1 0x20 ADD PUSH1 0xB9 PUSH1 0xFF AND DUP2 MSTORE PUSH1 0x20 ADD PUSH1 0x2B PUSH1 0xFF AND DUP2 MSTORE PUSH1 0x20 ADD PUSH1 0xE2 PUSH1 0xFF AND DUP2 MSTORE PUSH1 0x20 ADD PUSH1 0xC1 PUSH1 0xFF AND DUP2 MSTORE PUSH1 0x20 ADD PUSH1 0x4A PUSH1 0xFF AND DUP2 MSTORE PUSH1 0x20 ADD PUSH1 0xDD PUSH1 0xFF AND DUP2 MSTORE PUSH1 0x20 ADD PUSH1 0x48 PUSH1 0xFF AND DUP2 MSTORE PUSH1 0x20 ADD PUSH1 0xC PUSH1 0xFF AND DUP2 MSTORE PUSH1 0x20 ADD PUSH1 0xD0 PUSH1 0xFF AND DUP2 MSTORE PUSH1 0x20 ADD PUSH1 0x7D PUSH1 0xFF AND DUP2 MSTORE PUSH1 0x20 ADD PUSH1 0x3D PUSH1 0xFF AND DUP2 MSTORE PUSH1 0x20 ADD PUSH1 0x58 PUSH1 0xFF AND DUP2 MSTORE PUSH1 0x20 ADD PUSH1 0xDE PUSH1 0xFF AND DUP2 MSTORE PUSH1 0x20 ADD PUSH1 0x7C PUSH1 0xFF AND DUP2 MSTORE PUSH1 0x20 ADD PUSH1 0xD8 PUSH1 0xFF AND DUP2 MSTORE PUSH1 0x20 ADD PUSH1 0x14 PUSH1 0xFF AND DUP2 MSTORE PUSH1 0x20 ADD PUSH1 0x6B PUSH1 0xFF AND DUP2 MSTORE PUSH1 0x20 ADD PUSH1 0x87 PUSH1 0xFF AND DUP2 MSTORE PUSH1 0x20 ADD PUSH1 0x47 PUSH1 0xFF AND DUP2 MSTORE PUSH1 0x20 ADD PUSH1 0xE8 PUSH1 0xFF AND DUP2 MSTORE PUSH1 0x20 ADD PUSH1 0x79 PUSH1 0xFF AND DUP2 MSTORE PUSH1 0x20 ADD PUSH1 0x84 PUSH1 0xFF AND DUP2 MSTORE PUSH1 0x20 ADD PUSH1 0x73 PUSH1 0xFF AND DUP2 MSTORE PUSH1 0x20 ADD PUSH1 0x3C PUSH1 0xFF AND DUP2 MSTORE PUSH1 0x20 ADD PUSH1 0xBD PUSH1 0xFF AND DUP2 MSTORE PUSH1 0x20 ADD PUSH1 0x92 PUSH1 0xFF AND DUP2 MSTORE PUSH1 0x20 ADD PUSH1 0xC9 PUSH1 0xFF AND DUP2 MSTORE PUSH1 0x20 ADD PUSH1 0x23 PUSH1 0xFF AND DUP2 MSTORE PUSH1 0x20 ADD PUSH1 0x8B PUSH1 0xFF AND DUP2 MSTORE PUSH1 0x20 ADD PUSH1 0x97 PUSH1 0xFF AND DUP2 MSTORE PUSH1 0x20 ADD PUSH1 0x95 PUSH1 0xFF AND DUP2 MSTORE PUSH1 0x20 ADD PUSH1 0x44 PUSH1 0xFF AND DUP2 MSTORE PUSH1 0x20 ADD PUSH1 0xDC PUSH1 0xFF AND DUP2 MSTORE PUSH1 0x20 ADD PUSH1 0xAD PUSH1 0xFF AND DUP2 MSTORE PUSH1 0x20 ADD PUSH1 0x40 PUSH1 0xFF AND DUP2 MSTORE PUSH1 0x20 ADD PUSH1 0x65 PUSH1 0xFF AND DUP2 MSTORE PUSH1 0x20 ADD PUSH1 0x86 PUSH1 0xFF AND DUP2 MSTORE PUSH1 0x20 ADD PUSH1 0xA2 PUSH1 0xFF AND DUP2 MSTORE PUSH1 0x20 ADD PUSH1 0xA4 PUSH1 0xFF AND DUP2 MSTORE PUSH1 0x20 ADD PUSH1 0xCC PUSH1 0xFF AND DUP2 MSTORE PUSH1 0x20 ADD PUSH1 0x7F PUSH1 0xFF AND DUP2 MSTORE PUSH1 0x20 ADD PUSH1 0xEC PUSH1 0xFF AND DUP2 MSTORE PUSH1 0x20 ADD PUSH1 0xC0 PUSH1 0xFF AND DUP2 MSTORE PUSH1 0x20 ADD PUSH1 0xAF PUSH1 0xFF AND DUP2 MSTORE PUSH1 0x20 ADD PUSH1 0x91 PUSH1 0xFF AND DUP2 MSTORE PUSH1 0x20 ADD PUSH1 0xFD PUSH1 0xFF AND DUP2 MSTORE PUSH1 0x20 ADD PUSH1 0xF7 PUSH1 0xFF AND DUP2 MSTORE PUSH1 0x20 ADD PUSH1 0x4F PUSH1 0xFF AND DUP2 MSTORE PUSH1 0x20 ADD PUSH1 0x81 PUSH1 0xFF AND DUP2 MSTORE PUSH1 0x20 ADD PUSH1 0x2F PUSH1 0xFF AND DUP2 MSTORE PUSH1 0x20 ADD PUSH1 0x5B PUSH1 0xFF AND DUP2 MSTORE PUSH1 0x20 ADD PUSH1 0xEA PUSH1 0xFF AND DUP2 MSTORE PUSH1 0x20 ADD PUSH1 0xA8 PUSH1 0xFF AND DUP2 MSTORE PUSH1 0x20 ADD PUSH1 0x1C PUSH1 0xFF AND DUP2 MSTORE PUSH1 0x20 ADD PUSH1 0x2 PUSH1 0xFF AND DUP2 MSTORE PUSH1 0x20 ADD PUSH1 0xD1 PUSH1 0xFF AND DUP2 MSTORE PUSH1 0x20 ADD PUSH1 0x98 PUSH1 0xFF AND DUP2 MSTORE PUSH1 0x20 ADD PUSH1 0x71 PUSH1 0xFF AND DUP2 MSTORE PUSH1 0x20 ADD PUSH1 0xED PUSH1 0xFF AND DUP2 MSTORE PUSH1 0x20 ADD PUSH1 0x25 PUSH1 0xFF AND DUP2 MSTORE PUSH1 0x20 ADD PUSH1 0xE3 PUSH1 0xFF AND DUP2 MSTORE PUSH1 0x20 ADD PUSH1 0x24 PUSH1 0xFF AND DUP2 MSTORE PUSH1 0x20 ADD PUSH1 0x6 PUSH1 0xFF AND DUP2 MSTORE PUSH1 0x20 ADD PUSH1 0x68 PUSH1 0xFF AND DUP2 MSTORE PUSH1 0x20 ADD PUSH1 0xB3 PUSH1 0xFF AND DUP2 MSTORE PUSH1 0x20 ADD PUSH1 0x93 PUSH1 0xFF AND DUP2 MSTORE PUSH1 0x20 ADD PUSH1 0x2C PUSH1 0xFF AND DUP2 MSTORE PUSH1 0x20 ADD PUSH1 0x6F PUSH1 0xFF AND DUP2 MSTORE PUSH1 0x20 ADD PUSH1 0x3E PUSH1 0xFF AND DUP2 MSTORE PUSH1 0x20 ADD PUSH1 0x6C PUSH1 0xFF AND DUP2 MSTORE PUSH1 0x20 ADD PUSH1 0xA PUSH1 0xFF AND DUP2 MSTORE PUSH1 0x20 ADD PUSH1 0xB8 PUSH1 0xFF AND DUP2 MSTORE PUSH1 0x20 ADD PUSH1 0xCE PUSH1 0xFF AND DUP2 MSTORE PUSH1 0x20 ADD PUSH1 0xAE PUSH1 0xFF AND DUP2 MSTORE PUSH1 0x20 ADD PUSH1 0x74 PUSH1 0xFF AND DUP2 MSTORE PUSH1 0x20 ADD PUSH1 0xB1 PUSH1 0xFF AND DUP2 MSTORE PUSH1 0x20 ADD PUSH1 0x42 PUSH1 0xFF AND DUP2 MSTORE PUSH1 0x20 ADD PUSH1 0xB4 PUSH1 0xFF AND DUP2 MSTORE PUSH1 0x20 ADD PUSH1 0x1E PUSH1 0xFF AND DUP2 MSTORE PUSH1 0x20 ADD PUSH1 0xD3 PUSH1 0xFF AND DUP2 MSTORE PUSH1 0x20 ADD PUSH1 0x49 PUSH1 0xFF AND DUP2 MSTORE PUSH1 0x20 ADD PUSH1 0xE9 PUSH1 0xFF AND DUP2 MSTORE PUSH1 0x20 ADD PUSH1 0x9C PUSH1 0xFF AND DUP2 MSTORE PUSH1 0x20 ADD PUSH1 0xC8 PUSH1 0xFF AND DUP2 MSTORE PUSH1 0x20 ADD PUSH1 0xC6 PUSH1 0xFF AND DUP2 MSTORE PUSH1 0x20 ADD PUSH1 0xC7 PUSH1 0xFF AND DUP2 MSTORE PUSH1 0x20 ADD PUSH1 0x22 PUSH1 0xFF AND DUP2 MSTORE PUSH1 0x20 ADD PUSH1 0x6E PUSH1 0xFF AND DUP2 MSTORE PUSH1 0x20 ADD PUSH1 0xDB PUSH1 0xFF AND DUP2 MSTORE PUSH1 0x20 ADD PUSH1 0x20 PUSH1 0xFF AND DUP2 MSTORE PUSH1 0x20 ADD PUSH1 0xBF PUSH1 0xFF AND DUP2 MSTORE PUSH1 0x20 ADD PUSH1 0x43 PUSH1 0xFF AND DUP2 MSTORE PUSH1 0x20 ADD PUSH1 0x51 PUSH1 0xFF AND DUP2 MSTORE PUSH1 0x20 ADD PUSH1 0x52 PUSH1 0xFF AND DUP2 MSTORE PUSH1 0x20 ADD PUSH1 0x66 PUSH1 0xFF AND DUP2 MSTORE PUSH1 0x20 ADD PUSH1 0xB2 PUSH1 0xFF AND DUP2 MSTORE PUSH1 0x20 ADD PUSH1 0x76 PUSH1 0xFF AND DUP2 MSTORE PUSH1 0x20 ADD PUSH1 0x60 PUSH1 0xFF AND DUP2 MSTORE PUSH1 0x20 ADD PUSH1 0xDA PUSH1 0xFF AND DUP2 MSTORE PUSH1 0x20 ADD PUSH1 0xC5 PUSH1 0xFF AND DUP2 MSTORE PUSH1 0x20 ADD PUSH1 0xF3 PUSH1 0xFF AND DUP2 MSTORE PUSH1 0x20 ADD PUSH1 0xF6 PUSH1 0xFF AND DUP2 MSTORE PUSH1 0x20 ADD PUSH1 0xAA PUSH1 0xFF AND DUP2 MSTORE PUSH1 0x20 ADD PUSH1 0xCD PUSH1 0xFF AND DUP2 MSTORE PUSH1 0x20 ADD PUSH1 0x9A PUSH1 0xFF AND DUP2 MSTORE PUSH1 0x20 ADD PUSH1 0xA0 PUSH1 0xFF AND DUP2 MSTORE PUSH1 0x20 ADD PUSH1 0x75 PUSH1 0xFF AND DUP2 MSTORE PUSH1 0x20 ADD PUSH1 0x54 PUSH1 0xFF AND DUP2 MSTORE PUSH1 0x20 ADD PUSH1 0xE PUSH1 0xFF AND DUP2 MSTORE PUSH1 0x20 ADD PUSH1 0x1 PUSH1 0xFF AND DUP2 MSTORE POP PUSH1 0x20 SWAP1 PUSH2 0x100 PUSH2 0x2942 SWAP3 SWAP2 SWAP1 PUSH2 0x29EB JUMP JUMPDEST POP CALLVALUE DUP1 ISZERO PUSH2 0x294E JUMPI PUSH0 DUP1 REVERT JUMPDEST POP PUSH2 0x2A9E JUMP JUMPDEST DUP3 PUSH1 0xB PUSH1 0x1F ADD PUSH1 0x20 SWAP1 DIV DUP2 ADD SWAP3 DUP3 ISZERO PUSH2 0x29DA JUMPI SWAP2 PUSH1 0x20 MUL DUP3 ADD PUSH0 JUMPDEST DUP4 DUP3 GT ISZERO PUSH2 0x29AC JUMPI DUP4 MLOAD DUP4 DUP3 PUSH2 0x100 EXP DUP2 SLOAD DUP2 PUSH1 0xFF MUL NOT AND SWAP1 DUP4 PUSH1 0xFF AND MUL OR SWAP1 SSTORE POP SWAP3 PUSH1 0x20 ADD SWAP3 PUSH1 0x1 ADD PUSH1 0x20 DUP2 PUSH0 ADD DIV SWAP3 DUP4 ADD SWAP3 PUSH1 0x1 SUB MUL PUSH2 0x296F JUMP JUMPDEST DUP1 ISZERO PUSH2 0x29D8 JUMPI DUP3 DUP2 PUSH2 0x100 EXP DUP2 SLOAD SWAP1 PUSH1 0xFF MUL NOT AND SWAP1 SSTORE PUSH1 0x1 ADD PUSH1 0x20 DUP2 PUSH0 ADD DIV SWAP3 DUP4 ADD SWAP3 PUSH1 0x1 SUB MUL PUSH2 0x29AC JUMP JUMPDEST POP JUMPDEST POP SWAP1 POP PUSH2 0x29E7 SWAP2 SWAP1 PUSH2 0x2A83 JUMP JUMPDEST POP SWAP1 JUMP JUMPDEST DUP3 PUSH2 0x100 PUSH1 0x1F ADD PUSH1 0x20 SWAP1 DIV DUP2 ADD SWAP3 DUP3 ISZERO PUSH2 0x2A72 JUMPI SWAP2 PUSH1 0x20 MUL DUP3 ADD PUSH0 JUMPDEST DUP4 DUP3 GT ISZERO PUSH2 0x2A44 JUMPI DUP4 MLOAD DUP4 DUP3 PUSH2 0x100 EXP DUP2 SLOAD DUP2 PUSH1 0xFF MUL NOT AND SWAP1 DUP4 PUSH1 0xFF AND MUL OR SWAP1 SSTORE POP SWAP3 PUSH1 0x20 ADD SWAP3 PUSH1 0x1 ADD PUSH1 0x20 DUP2 PUSH0 ADD DIV SWAP3 DUP4 ADD SWAP3 PUSH1 0x1 SUB MUL PUSH2 0x2A07 JUMP JUMPDEST DUP1 ISZERO PUSH2 0x2A70 JUMPI DUP3 DUP2 PUSH2 0x100 EXP DUP2 SLOAD SWAP1 PUSH1 0xFF MUL NOT AND SWAP1 SSTORE PUSH1 0x1 ADD PUSH1 0x20 DUP2 PUSH0 ADD DIV SWAP3 DUP4 ADD SWAP3 PUSH1 0x1 SUB MUL PUSH2 0x2A44 JUMP JUMPDEST POP JUMPDEST POP SWAP1 POP PUSH2 0x2A7F SWAP2 SWAP1 PUSH2 0x2A83 JUMP JUMPDEST POP SWAP1 JUMP JUMPDEST JUMPDEST DUP1 DUP3 GT ISZERO PUSH2 0x2A9A JUMPI PUSH0 DUP2 PUSH0 SWAP1 SSTORE POP PUSH1 0x1 ADD PUSH2 0x2A84 JUMP JUMPDEST POP SWAP1 JUMP JUMPDEST PUSH2 0x370B DUP1 PUSH2 0x2AAB PUSH0 CODECOPY PUSH0 RETURN INVALID PUSH1 0x80 PUSH1 0x40 MSTORE CALLVALUE DUP1 ISZERO PUSH2 0xF JUMPI PUSH0 DUP1 REVERT JUMPDEST POP PUSH1 0x4 CALLDATASIZE LT PUSH2 0x60 JUMPI PUSH0 CALLDATALOAD PUSH1 0xE0 SHR DUP1 PUSH4 0x17766187 EQ PUSH2 0x64 JUMPI DUP1 PUSH4 0x26498A7C EQ PUSH2 0x82 JUMPI DUP1 PUSH4 0x8381EB64 EQ PUSH2 0xA0 JUMPI DUP1 PUSH4 0x89FD61BD EQ PUSH2 0xBE JUMPI DUP1 PUSH4 0x971FA622 EQ PUSH2 0xDC JUMPI DUP1 PUSH4 0xC659DCEB EQ PUSH2 0xF8 JUMPI JUMPDEST PUSH0 DUP1 REVERT JUMPDEST PUSH2 0x6C PUSH2 0x116 JUMP JUMPDEST PUSH1 0x40 MLOAD PUSH2 0x79 SWAP2 SWAP1 PUSH2 0x2C47 JUMP JUMPDEST PUSH1 0x40 MLOAD DUP1 SWAP2 SUB SWAP1 RETURN JUMPDEST PUSH2 0x8A PUSH2 0x42F JUMP JUMPDEST PUSH1 0x40 MLOAD PUSH2 0x97 SWAP2 SWAP1 PUSH2 0x2C47 JUMP JUMPDEST PUSH1 0x40 MLOAD DUP1 SWAP2 SUB SWAP1 RETURN JUMPDEST PUSH2 0xA8 PUSH2 0x442 JUMP JUMPDEST PUSH1 0x40 MLOAD PUSH2 0xB5 SWAP2 SWAP1 PUSH2 0x2C47 JUMP JUMPDEST PUSH1 0x40 MLOAD DUP1 SWAP2 SUB SWAP1 RETURN JUMPDEST PUSH2 0xC6 PUSH2 0x454 JUMP JUMPDEST PUSH1 0x40 MLOAD PUSH2 0xD3 SWAP2 SWAP1 PUSH2 0x2CD0 JUMP JUMPDEST PUSH1 0x40 MLOAD DUP1 SWAP2 SUB SWAP1 RETURN JUMPDEST PUSH2 0xF6 PUSH1 0x4 DUP1 CALLDATASIZE SUB DUP2 ADD SWAP1 PUSH2 0xF1 SWAP2 SWAP1 PUSH2 0x2E2D JUMP JUMPDEST PUSH2 0x6A4 JUMP JUMPDEST STOP JUMPDEST PUSH2 0x100 PUSH2 0x85C JUMP JUMPDEST PUSH1 0x40 MLOAD PUSH2 0x10D SWAP2 SWAP1 PUSH2 0x2C47 JUMP JUMPDEST PUSH1 0x40 MLOAD DUP1 SWAP2 SUB SWAP1 RETURN JUMPDEST PUSH0 PUSH1 0x6 PUSH0 SWAP1 SLOAD SWAP1 PUSH2 0x100 EXP SWAP1 DIV PUSH1 0xFF AND PUSH2 0x165 JUMPI PUSH1 0x40 MLOAD PUSH32 0x8C379A000000000000000000000000000000000000000000000000000000000 DUP2 MSTORE PUSH1 0x4 ADD PUSH2 0x15C SWAP1 PUSH2 0x2FB0 JUMP JUMPDEST PUSH1 0x40 MLOAD DUP1 SWAP2 SUB SWAP1 REVERT JUMPDEST PUSH0 PUSH2 0x1CB PUSH2 0x1C6 PUSH2 0x175 PUSH0 PUSH2 0x86F JUMP JUMPDEST PUSH2 0x1C1 PUSH1 0x3 PUSH0 DUP2 SLOAD DUP2 LT PUSH2 0x18C JUMPI PUSH2 0x18B PUSH2 0x2FCE JUMP JUMPDEST JUMPDEST SWAP1 PUSH0 MSTORE PUSH1 0x20 PUSH0 KECCAK256 SWAP1 PUSH1 0x2 SWAP2 DUP3 DUP3 DIV ADD SWAP2 SWAP1 MOD PUSH1 0x10 MUL SWAP1 SLOAD SWAP1 PUSH2 0x100 EXP SWAP1 DIV PUSH16 0xFFFFFFFFFFFFFFFFFFFFFFFFFFFFFFFF AND PUSH2 0x86F JUMP JUMPDEST PUSH2 0x8E7 JUMP JUMPDEST PUSH2 0xF1A JUMP JUMPDEST SWAP1 POP PUSH0 PUSH2 0x250 PUSH2 0x24B PUSH2 0x1FA PUSH1 0x4 PUSH0 SWAP1 SLOAD SWAP1 PUSH2 0x100 EXP SWAP1 DIV PUSH16 0xFFFFFFFFFFFFFFFFFFFFFFFFFFFFFFFF AND PUSH2 0x86F JUMP JUMPDEST PUSH2 0x246 PUSH1 0x3 PUSH0 DUP2 SLOAD DUP2 LT PUSH2 0x211 JUMPI PUSH2 0x210 PUSH2 0x2FCE JUMP JUMPDEST JUMPDEST SWAP1 PUSH0 MSTORE PUSH1 0x20 PUSH0 KECCAK256 SWAP1 PUSH1 0x2 SWAP2 DUP3 DUP3 DIV ADD SWAP2 SWAP1 MOD PUSH1 0x10 MUL SWAP1 SLOAD SWAP1 PUSH2 0x100 EXP SWAP1 DIV PUSH16 0xFFFFFFFFFFFFFFFFFFFFFFFFFFFFFFFF AND PUSH2 0x86F JUMP JUMPDEST PUSH2 0x8E7 JUMP JUMPDEST PUSH2 0xF1A JUMP JUMPDEST SWAP1 POP PUSH0 DUP1 JUMPDEST PUSH1 0x2 DUP1 SLOAD SWAP1 POP DUP2 LT ISZERO PUSH2 0x2C7 JUMPI PUSH2 0x2B8 PUSH2 0x2B2 DUP4 PUSH1 0x2 DUP5 DUP2 SLOAD DUP2 LT PUSH2 0x27D JUMPI PUSH2 0x27C PUSH2 0x2FCE JUMP JUMPDEST JUMPDEST SWAP1 PUSH0 MSTORE PUSH1 0x20 PUSH0 KECCAK256 SWAP1 PUSH1 0x2 SWAP2 DUP3 DUP3 DIV ADD SWAP2 SWAP1 MOD PUSH1 0x10 MUL SWAP1 SLOAD SWAP1 PUSH2 0x100 EXP SWAP1 DIV PUSH16 0xFFFFFFFFFFFFFFFFFFFFFFFFFFFFFFFF AND PUSH2 0xFA0 JUMP JUMPDEST DUP6 PUSH2 0xFAC JUMP JUMPDEST SWAP2 POP DUP1 DUP1 PUSH1 0x1 ADD SWAP2 POP POP PUSH2 0x255 JUMP JUMPDEST POP PUSH0 JUMPDEST PUSH1 0x1 DUP1 SLOAD SWAP1 POP DUP2 LT ISZERO PUSH2 0x33C JUMPI PUSH2 0x32D PUSH2 0x327 DUP4 PUSH1 0x1 DUP5 DUP2 SLOAD DUP2 LT PUSH2 0x2F2 JUMPI PUSH2 0x2F1 PUSH2 0x2FCE JUMP JUMPDEST JUMPDEST SWAP1 PUSH0 MSTORE PUSH1 0x20 PUSH0 KECCAK256 SWAP1 PUSH1 0x2 SWAP2 DUP3 DUP3 DIV ADD SWAP2 SWAP1 MOD PUSH1 0x10 MUL SWAP1 SLOAD SWAP1 PUSH2 0x100 EXP SWAP1 DIV PUSH16 0xFFFFFFFFFFFFFFFFFFFFFFFFFFFFFFFF AND PUSH2 0xFA0 JUMP JUMPDEST DUP6 PUSH2 0xFAC JUMP JUMPDEST SWAP2 POP DUP1 DUP1 PUSH1 0x1 ADD SWAP2 POP POP PUSH2 0x2CA JUMP JUMPDEST POP PUSH2 0x36B PUSH2 0x365 DUP3 PUSH0 DUP1 SLOAD SWAP1 PUSH2 0x100 EXP SWAP1 DIV PUSH16 0xFFFFFFFFFFFFFFFFFFFFFFFFFFFFFFFF AND PUSH2 0xFA0 JUMP JUMPDEST DUP5 PUSH2 0xFAC JUMP JUMPDEST SWAP1 POP PUSH2 0x377 DUP2 DUP4 PUSH2 0xFA0 JUMP JUMPDEST SWAP1 POP PUSH1 0x1 PUSH1 0x6 PUSH1 0x1 PUSH2 0x100 EXP DUP2 SLOAD DUP2 PUSH1 0xFF MUL NOT AND SWAP1 DUP4 ISZERO ISZERO MUL OR SWAP1 SSTORE POP PUSH1 0x5 PUSH0 DUP2 SLOAD DUP2 LT PUSH2 0x3A8 JUMPI PUSH2 0x3A7 PUSH2 0x2FCE JUMP JUMPDEST JUMPDEST SWAP1 PUSH0 MSTORE PUSH1 0x20 PUSH0 KECCAK256 SWAP1 PUSH1 0x2 SWAP2 DUP3 DUP3 DIV ADD SWAP2 SWAP1 MOD PUSH1 0x10 MUL SWAP1 SLOAD SWAP1 PUSH2 0x100 EXP SWAP1 DIV PUSH16 0xFFFFFFFFFFFFFFFFFFFFFFFFFFFFFFFF AND PUSH16 0xFFFFFFFFFFFFFFFFFFFFFFFFFFFFFFFF AND DUP2 PUSH16 0xFFFFFFFFFFFFFFFFFFFFFFFFFFFFFFFF AND EQ PUSH1 0x6 PUSH1 0x2 PUSH2 0x100 EXP DUP2 SLOAD DUP2 PUSH1 0xFF MUL NOT AND SWAP1 DUP4 ISZERO ISZERO MUL OR SWAP1 SSTORE POP PUSH1 0x6 PUSH1 0x2 SWAP1 SLOAD SWAP1 PUSH2 0x100 EXP SWAP1 DIV PUSH1 0xFF AND SWAP4 POP POP POP POP SWAP1 JUMP JUMPDEST PUSH1 0x6 PUSH1 0x2 SWAP1 SLOAD SWAP1 PUSH2 0x100 EXP SWAP1 DIV PUSH1 0xFF AND DUP2 JUMP JUMPDEST PUSH1 0x6 PUSH0 SWAP1 SLOAD SWAP1 PUSH2 0x100 EXP SWAP1 DIV PUSH1 0xFF AND DUP2 JUMP JUMPDEST PUSH1 0x60 PUSH1 0x6 PUSH1 0x1 SWAP1 SLOAD SWAP1 PUSH2 0x100 EXP SWAP1 DIV PUSH1 0xFF AND PUSH2 0x4A5 JUMPI PUSH1 0x40 MLOAD PUSH32 0x8C379A000000000000000000000000000000000000000000000000000000000 DUP2 MSTORE PUSH1 0x4 ADD PUSH2 0x49C SWAP1 PUSH2 0x306B JUMP JUMPDEST PUSH1 0x40 MLOAD DUP1 SWAP2 SUB SWAP1 REVERT JUMPDEST PUSH1 0x6 PUSH1 0x2 SWAP1 SLOAD SWAP1 PUSH2 0x100 EXP SWAP1 DIV PUSH1 0xFF AND PUSH2 0x4F4 JUMPI PUSH1 0x40 MLOAD PUSH32 0x8C379A000000000000000000000000000000000000000000000000000000000 DUP2 MSTORE PUSH1 0x4 ADD PUSH2 0x4EB SWAP1 PUSH2 0x30D3 JUMP JUMPDEST PUSH1 0x40 MLOAD DUP1 SWAP2 SUB SWAP1 REVERT JUMPDEST PUSH0 PUSH1 0x1 PUSH1 0x4 PUSH0 SWAP1 SLOAD SWAP1 PUSH2 0x100 EXP SWAP1 DIV PUSH16 0xFFFFFFFFFFFFFFFFFFFFFFFFFFFFFFFF AND PUSH2 0x51F SWAP2 SWAP1 PUSH2 0x3139 JUMP JUMPDEST SWAP1 POP PUSH0 PUSH1 0x1 DUP1 SLOAD SWAP1 POP PUSH8 0xFFFFFFFFFFFFFFFF DUP2 GT ISZERO PUSH2 0x541 JUMPI PUSH2 0x540 PUSH2 0x2D09 JUMP JUMPDEST JUMPDEST PUSH1 0x40 MLOAD SWAP1 DUP1 DUP3 MSTORE DUP1 PUSH1 0x20 MUL PUSH1 0x20 ADD DUP3 ADD PUSH1 0x40 MSTORE DUP1 ISZERO PUSH2 0x56F JUMPI DUP2 PUSH1 0x20 ADD PUSH1 0x20 DUP3 MUL DUP1 CALLDATASIZE DUP4 CALLDATACOPY DUP1 DUP3 ADD SWAP2 POP POP SWAP1 POP JUMPDEST POP SWAP1 POP PUSH0 JUMPDEST DUP2 MLOAD DUP2 LT ISZERO PUSH2 0x693 JUMPI PUSH0 PUSH2 0x5E3 PUSH2 0x5DE PUSH2 0x58D DUP7 PUSH2 0x86F JUMP JUMPDEST PUSH2 0x5D9 PUSH1 0x3 PUSH0 DUP2 SLOAD DUP2 LT PUSH2 0x5A4 JUMPI PUSH2 0x5A3 PUSH2 0x2FCE JUMP JUMPDEST JUMPDEST SWAP1 PUSH0 MSTORE PUSH1 0x20 PUSH0 KECCAK256 SWAP1 PUSH1 0x2 SWAP2 DUP3 DUP3 DIV ADD SWAP2 SWAP1 MOD PUSH1 0x10 MUL SWAP1 SLOAD SWAP1 PUSH2 0x100 EXP SWAP1 DIV PUSH16 0xFFFFFFFFFFFFFFFFFFFFFFFFFFFFFFFF AND PUSH2 0x86F JUMP JUMPDEST PUSH2 0x8E7 JUMP JUMPDEST PUSH2 0xF1A JUMP JUMPDEST SWAP1 POP PUSH2 0x632 DUP2 PUSH1 0x1 DUP5 DUP2 SLOAD DUP2 LT PUSH2 0x5FD JUMPI PUSH2 0x5FC PUSH2 0x2FCE JUMP JUMPDEST JUMPDEST SWAP1 PUSH0 MSTORE PUSH1 0x20 PUSH0 KECCAK256 SWAP1 PUSH1 0x2 SWAP2 DUP3 DUP3 DIV ADD SWAP2 SWAP1 MOD PUSH1 0x10 MUL SWAP1 SLOAD SWAP1 PUSH2 0x100 EXP SWAP1 DIV PUSH16 0xFFFFFFFFFFFFFFFFFFFFFFFFFFFFFFFF AND PUSH2 0xFA0 JUMP JUMPDEST DUP4 DUP4 DUP2 MLOAD DUP2 LT PUSH2 0x645 JUMPI PUSH2 0x644 PUSH2 0x2FCE JUMP JUMPDEST JUMPDEST PUSH1 0x20 MUL PUSH1 0x20 ADD ADD SWAP1 PUSH16 0xFFFFFFFFFFFFFFFFFFFFFFFFFFFFFFFF AND SWAP1 DUP2 PUSH16 0xFFFFFFFFFFFFFFFFFFFFFFFFFFFFFFFF AND DUP2 MSTORE POP POP DUP4 DUP1 PUSH2 0x682 SWAP1 PUSH2 0x317C JUMP JUMPDEST SWAP5 POP POP POP DUP1 DUP1 PUSH1 0x1 ADD SWAP2 POP POP PUSH2 0x574 JUMP JUMPDEST POP PUSH2 0x69D DUP2 PUSH2 0x1056 JUMP JUMPDEST SWAP3 POP POP POP SWAP1 JUMP JUMPDEST PUSH0 PUSH1 0x8 DUP7 MLOAD PUSH2 0x6B3 SWAP2 SWAP1 PUSH2 0x31BC JUMP JUMPDEST SWAP1 POP PUSH0 PUSH1 0x8 DUP5 MLOAD PUSH2 0x6C4 SWAP2 SWAP1 PUSH2 0x31BC JUMP JUMPDEST SWAP1 POP DUP2 PUSH1 0x40 DUP3 PUSH16 0xFFFFFFFFFFFFFFFFFFFFFFFFFFFFFFFF AND SWAP1 SHL PUSH2 0x6E8 SWAP2 SWAP1 PUSH2 0x3139 JUMP JUMPDEST PUSH0 DUP1 PUSH2 0x100 EXP DUP2 SLOAD DUP2 PUSH16 0xFFFFFFFFFFFFFFFFFFFFFFFFFFFFFFFF MUL NOT AND SWAP1 DUP4 PUSH16 0xFFFFFFFFFFFFFFFFFFFFFFFFFFFFFFFF AND MUL OR SWAP1 SSTORE POP PUSH2 0x727 DUP8 PUSH2 0x111B JUMP JUMPDEST PUSH1 0x1 SWAP1 DUP1 MLOAD SWAP1 PUSH1 0x20 ADD SWAP1 PUSH2 0x73C SWAP3 SWAP2 SWAP1 PUSH2 0x2AA1 JUMP JUMPDEST POP PUSH2 0x746 DUP5 PUSH2 0x111B JUMP JUMPDEST PUSH1 0x2 SWAP1 DUP1 MLOAD SWAP1 PUSH1 0x20 ADD SWAP1 PUSH2 0x75B SWAP3 SWAP2 SWAP1 PUSH2 0x2AA1 JUMP JUMPDEST POP PUSH2 0x765 DUP7 PUSH2 0x111B JUMP JUMPDEST PUSH1 0x3 SWAP1 DUP1 MLOAD SWAP1 PUSH1 0x20 ADD SWAP1 PUSH2 0x77A SWAP3 SWAP2 SWAP1 PUSH2 0x2AA1 JUMP JUMPDEST POP PUSH0 PUSH2 0x785 DUP7 PUSH2 0x111B JUMP JUMPDEST SWAP1 POP PUSH1 0x1 DUP2 PUSH0 DUP2 MLOAD DUP2 LT PUSH2 0x79C JUMPI PUSH2 0x79B PUSH2 0x2FCE JUMP JUMPDEST JUMPDEST PUSH1 0x20 MUL PUSH1 0x20 ADD ADD MLOAD PUSH2 0x7AE SWAP2 SWAP1 PUSH2 0x3139 JUMP JUMPDEST PUSH1 0x4 PUSH0 PUSH2 0x100 EXP DUP2 SLOAD DUP2 PUSH16 0xFFFFFFFFFFFFFFFFFFFFFFFFFFFFFFFF MUL NOT AND SWAP1 DUP4 PUSH16 0xFFFFFFFFFFFFFFFFFFFFFFFFFFFFFFFF AND MUL OR SWAP1 SSTORE POP PUSH2 0x7EE DUP5 PUSH2 0x111B JUMP JUMPDEST PUSH1 0x5 SWAP1 DUP1 MLOAD SWAP1 PUSH1 0x20 ADD SWAP1 PUSH2 0x803 SWAP3 SWAP2 SWAP1 PUSH2 0x2AA1 JUMP JUMPDEST POP PUSH1 0x1 PUSH1 0x6 PUSH0 PUSH2 0x100 EXP DUP2 SLOAD DUP2 PUSH1 0xFF MUL NOT AND SWAP1 DUP4 ISZERO ISZERO MUL OR SWAP1 SSTORE POP PUSH0 PUSH1 0x6 PUSH1 0x2 PUSH2 0x100 EXP DUP2 SLOAD DUP2 PUSH1 0xFF MUL NOT AND SWAP1 DUP4 ISZERO ISZERO MUL OR SWAP1 SSTORE POP PUSH0 PUSH1 0x6 PUSH1 0x1 PUSH2 0x100 EXP DUP2 SLOAD DUP2 PUSH1 0xFF MUL NOT AND SWAP1 DUP4 ISZERO ISZERO MUL OR SWAP1 SSTORE POP POP POP POP POP POP POP POP POP JUMP JUMPDEST PUSH1 0x6 PUSH1 0x1 SWAP1 SLOAD SWAP1 PUSH2 0x100 EXP SWAP1 DIV PUSH1 0xFF AND DUP2 JUMP JUMPDEST PUSH2 0x877 PUSH2 0x2B72 JUMP JUMPDEST PUSH0 JUMPDEST PUSH1 0x10 DUP2 LT ISZERO PUSH2 0x8E1 JUMPI DUP1 PUSH1 0x8 PUSH2 0x88F SWAP2 SWAP1 PUSH2 0x31BC JUMP JUMPDEST DUP4 PUSH16 0xFFFFFFFFFFFFFFFFFFFFFFFFFFFFFFFF AND SWAP1 SHR DUP3 DUP3 PUSH1 0xF PUSH2 0x8B2 SWAP2 SWAP1 PUSH2 0x31FD JUMP JUMPDEST PUSH1 0x10 DUP2 LT PUSH2 0x8C3 JUMPI PUSH2 0x8C2 PUSH2 0x2FCE JUMP JUMPDEST JUMPDEST PUSH1 0x20 MUL ADD SWAP1 PUSH1 0xFF AND SWAP1 DUP2 PUSH1 0xFF AND DUP2 MSTORE POP POP DUP1 DUP1 PUSH1 0x1 ADD SWAP2 POP POP PUSH2 0x879 JUMP JUMPDEST POP SWAP2 SWAP1 POP JUMP JUMPDEST PUSH2 0x8EF PUSH2 0x2B72 JUMP JUMPDEST PUSH0 PUSH1 0x40 MLOAD DUP1 PUSH1 0x80 ADD PUSH1 0x40 MSTORE DUP1 PUSH1 0x40 MLOAD DUP1 PUSH1 0x80 ADD PUSH1 0x40 MSTORE DUP1 DUP8 PUSH0 PUSH1 0x10 DUP2 LT PUSH2 0x919 JUMPI PUSH2 0x918 PUSH2 0x2FCE JUMP JUMPDEST JUMPDEST PUSH1 0x20 MUL ADD MLOAD PUSH1 0xFF AND PUSH1 0xFF AND DUP2 MSTORE PUSH1 0x20 ADD DUP8 PUSH1 0x4 PUSH1 0x10 DUP2 LT PUSH2 0x93D JUMPI PUSH2 0x93C PUSH2 0x2FCE JUMP JUMPDEST JUMPDEST PUSH1 0x20 MUL ADD MLOAD PUSH1 0xFF AND PUSH1 0xFF AND DUP2 MSTORE PUSH1 0x20 ADD DUP8 PUSH1 0x8 PUSH1 0x10 DUP2 LT PUSH2 0x961 JUMPI PUSH2 0x960 PUSH2 0x2FCE JUMP JUMPDEST JUMPDEST PUSH1 0x20 MUL ADD MLOAD PUSH1 0xFF AND PUSH1 0xFF AND DUP2 MSTORE PUSH1 0x20 ADD DUP8 PUSH1 0xC PUSH1 0x10 DUP2 LT PUSH2 0x985 JUMPI PUSH2 0x984 PUSH2 0x2FCE JUMP JUMPDEST JUMPDEST PUSH1 0x20 MUL ADD MLOAD PUSH1 0xFF AND PUSH1 0xFF AND DUP2 MSTORE POP DUP2 MSTORE PUSH1 0x20 ADD PUSH1 0x40 MLOAD DUP1 PUSH1 0x80 ADD PUSH1 0x40 MSTORE DUP1 DUP8 PUSH1 0x1 PUSH1 0x10 DUP2 LT PUSH2 0x9B7 JUMPI PUSH2 0x9B6 PUSH2 0x2FCE JUMP JUMPDEST JUMPDEST PUSH1 0x20 MUL ADD MLOAD PUSH1 0xFF AND PUSH1 0xFF AND DUP2 MSTORE PUSH1 0x20 ADD DUP8 PUSH1 0x5 PUSH1 0x10 DUP2 LT PUSH2 0x9DB JUMPI PUSH2 0x9DA PUSH2 0x2FCE JUMP JUMPDEST JUMPDEST PUSH1 0x20 MUL ADD MLOAD PUSH1 0xFF AND PUSH1 0xFF AND DUP2 MSTORE PUSH1 0x20 ADD DUP8 PUSH1 0x9 PUSH1 0x10 DUP2 LT PUSH2 0x9FF JUMPI PUSH2 0x9FE PUSH2 0x2FCE JUMP JUMPDEST JUMPDEST PUSH1 0x20 MUL ADD MLOAD PUSH1 0xFF AND PUSH1 0xFF AND DUP2 MSTORE PUSH1 0x20 ADD DUP8 PUSH1 0xD PUSH1 0x10 DUP2 LT PUSH2 0xA23 JUMPI PUSH2 0xA22 PUSH2 0x2FCE JUMP JUMPDEST JUMPDEST PUSH1 0x20 MUL ADD MLOAD PUSH1 0xFF AND PUSH1 0xFF AND DUP2 MSTORE POP DUP2 MSTORE PUSH1 0x20 ADD PUSH1 0x40 MLOAD DUP1 PUSH1 0x80 ADD PUSH1 0x40 MSTORE DUP1 DUP8 PUSH1 0x2 PUSH1 0x10 DUP2 LT PUSH2 0xA55 JUMPI PUSH2 0xA54 PUSH2 0x2FCE JUMP JUMPDEST JUMPDEST PUSH1 0x20 MUL ADD MLOAD PUSH1 0xFF AND PUSH1 0xFF AND DUP2 MSTORE PUSH1 0x20 ADD DUP8 PUSH1 0x6 PUSH1 0x10 DUP2 LT PUSH2 0xA79 JUMPI PUSH2 0xA78 PUSH2 0x2FCE JUMP JUMPDEST JUMPDEST PUSH1 0x20 MUL ADD MLOAD PUSH1 0xFF AND PUSH1 0xFF AND DUP2 MSTORE PUSH1 0x20 ADD DUP8 PUSH1 0xA PUSH1 0x10 DUP2 LT PUSH2 0xA9D JUMPI PUSH2 0xA9C PUSH2 0x2FCE JUMP JUMPDEST JUMPDEST PUSH1 0x20 MUL ADD MLOAD PUSH1 0xFF AND PUSH1 0xFF AND DUP2 MSTORE PUSH1 0x20 ADD DUP8 PUSH1 0xE PUSH1 0x10 DUP2 LT PUSH2 0xAC1 JUMPI PUSH2 0xAC0 PUSH2 0x2FCE JUMP JUMPDEST JUMPDEST PUSH1 0x20 MUL ADD MLOAD PUSH1 0xFF AND PUSH1 0xFF AND DUP2 MSTORE POP DUP2 MSTORE PUSH1 0x20 ADD PUSH1 0x40 MLOAD DUP1 PUSH1 0x80 ADD PUSH1 0x40 MSTORE DUP1 DUP8 PUSH1 0x3 PUSH1 0x10 DUP2 LT PUSH2 0xAF3 JUMPI PUSH2 0xAF2 PUSH2 0x2FCE JUMP JUMPDEST JUMPDEST PUSH1 0x20 MUL ADD MLOAD PUSH1 0xFF AND PUSH1 0xFF AND DUP2 MSTORE PUSH1 0x20 ADD DUP8 PUSH1 0x7 PUSH1 0x10 DUP2 LT PUSH2 0xB17 JUMPI PUSH2 0xB16 PUSH2 0x2FCE JUMP JUMPDEST JUMPDEST PUSH1 0x20 MUL ADD MLOAD PUSH1 0xFF AND PUSH1 0xFF AND DUP2 MSTORE PUSH1 0x20 ADD DUP8 PUSH1 0xB PUSH1 0x10 DUP2 LT PUSH2 0xB3B JUMPI PUSH2 0xB3A PUSH2 0x2FCE JUMP JUMPDEST JUMPDEST PUSH1 0x20 MUL ADD MLOAD PUSH1 0xFF AND PUSH1 0xFF AND DUP2 MSTORE PUSH1 0x20 ADD DUP8 PUSH1 0xF PUSH1 0x10 DUP2 LT PUSH2 0xB5F JUMPI PUSH2 0xB5E PUSH2 0x2FCE JUMP JUMPDEST JUMPDEST PUSH1 0x20 MUL ADD MLOAD PUSH1 0xFF AND PUSH1 0xFF AND DUP2 MSTORE POP DUP2 MSTORE POP SWAP1 POP PUSH0 PUSH2 0xB7C DUP5 PUSH2 0x12B2 JUMP JUMPDEST SWAP1 POP PUSH0 PUSH1 0x40 MLOAD DUP1 PUSH1 0x80 ADD PUSH1 0x40 MSTORE DUP1 DUP4 PUSH0 PUSH1 0x2C DUP2 LT PUSH2 0xB9D JUMPI PUSH2 0xB9C PUSH2 0x2FCE JUMP JUMPDEST JUMPDEST PUSH1 0x20 MUL ADD MLOAD DUP2 MSTORE PUSH1 0x20 ADD DUP4 PUSH1 0x1 PUSH1 0x2C DUP2 LT PUSH2 0xBBB JUMPI PUSH2 0xBBA PUSH2 0x2FCE JUMP JUMPDEST JUMPDEST PUSH1 0x20 MUL ADD MLOAD DUP2 MSTORE PUSH1 0x20 ADD DUP4 PUSH1 0x2 PUSH1 0x2C DUP2 LT PUSH2 0xBD9 JUMPI PUSH2 0xBD8 PUSH2 0x2FCE JUMP JUMPDEST JUMPDEST PUSH1 0x20 MUL ADD MLOAD DUP2 MSTORE PUSH1 0x20 ADD DUP4 PUSH1 0x3 PUSH1 0x2C DUP2 LT PUSH2 0xBF7 JUMPI PUSH2 0xBF6 PUSH2 0x2FCE JUMP JUMPDEST JUMPDEST PUSH1 0x20 MUL ADD MLOAD DUP2 MSTORE POP SWAP1 POP PUSH2 0xC0B DUP4 DUP3 PUSH2 0x1AA7 JUMP JUMPDEST SWAP3 POP PUSH2 0xC16 DUP4 PUSH2 0x1B84 JUMP JUMPDEST SWAP3 POP PUSH2 0xC21 DUP4 PUSH2 0x1C5D JUMP JUMPDEST SWAP3 POP PUSH0 PUSH1 0x1 SWAP1 POP JUMPDEST PUSH1 0x9 DUP2 GT PUSH2 0xD44 JUMPI PUSH2 0xC3A DUP5 PUSH2 0x1F9D JUMP JUMPDEST SWAP4 POP PUSH1 0x40 MLOAD DUP1 PUSH1 0x80 ADD PUSH1 0x40 MSTORE DUP1 DUP5 DUP4 PUSH1 0x4 PUSH2 0xC55 SWAP2 SWAP1 PUSH2 0x31BC JUMP JUMPDEST PUSH1 0x2C DUP2 LT PUSH2 0xC66 JUMPI PUSH2 0xC65 PUSH2 0x2FCE JUMP JUMPDEST JUMPDEST PUSH1 0x20 MUL ADD MLOAD DUP2 MSTORE PUSH1 0x20 ADD DUP5 PUSH1 0x1 DUP5 PUSH1 0x4 PUSH2 0xC80 SWAP2 SWAP1 PUSH2 0x31BC JUMP JUMPDEST PUSH2 0xC8A SWAP2 SWAP1 PUSH2 0x3230 JUMP JUMPDEST PUSH1 0x2C DUP2 LT PUSH2 0xC9B JUMPI PUSH2 0xC9A PUSH2 0x2FCE JUMP JUMPDEST JUMPDEST PUSH1 0x20 MUL ADD MLOAD DUP2 MSTORE PUSH1 0x20 ADD DUP5 PUSH1 0x2 DUP5 PUSH1 0x4 PUSH2 0xCB5 SWAP2 SWAP1 PUSH2 0x31BC JUMP JUMPDEST PUSH2 0xCBF SWAP2 SWAP1 PUSH2 0x3230 JUMP JUMPDEST PUSH1 0x2C DUP2 LT PUSH2 0xCD0 JUMPI PUSH2 0xCCF PUSH2 0x2FCE JUMP JUMPDEST JUMPDEST PUSH1 0x20 MUL ADD MLOAD DUP2 MSTORE PUSH1 0x20 ADD DUP5 PUSH1 0x3 DUP5 PUSH1 0x4 PUSH2 0xCEA SWAP2 SWAP1 PUSH2 0x31BC JUMP JUMPDEST PUSH2 0xCF4 SWAP2 SWAP1 PUSH2 0x3230 JUMP JUMPDEST PUSH1 0x2C DUP2 LT PUSH2 0xD05 JUMPI PUSH2 0xD04 PUSH2 0x2FCE JUMP JUMPDEST JUMPDEST PUSH1 0x20 MUL ADD MLOAD DUP2 MSTORE POP SWAP2 POP PUSH2 0xD19 DUP5 DUP4 PUSH2 0x1AA7 JUMP JUMPDEST SWAP4 POP PUSH2 0xD24 DUP5 PUSH2 0x1B84 JUMP JUMPDEST SWAP4 POP PUSH2 0xD2F DUP5 PUSH2 0x1C5D JUMP JUMPDEST SWAP4 POP DUP1 DUP1 PUSH2 0xD3C SWAP1 PUSH2 0x3263 JUMP JUMPDEST SWAP2 POP POP PUSH2 0xC29 JUMP JUMPDEST POP PUSH1 0x40 MLOAD DUP1 PUSH1 0x80 ADD PUSH1 0x40 MSTORE DUP1 DUP4 PUSH1 0x28 PUSH1 0x2C DUP2 LT PUSH2 0xD64 JUMPI PUSH2 0xD63 PUSH2 0x2FCE JUMP JUMPDEST JUMPDEST PUSH1 0x20 MUL ADD MLOAD DUP2 MSTORE PUSH1 0x20 ADD DUP4 PUSH1 0x29 PUSH1 0x2C DUP2 LT PUSH2 0xD82 JUMPI PUSH2 0xD81 PUSH2 0x2FCE JUMP JUMPDEST JUMPDEST PUSH1 0x20 MUL ADD MLOAD DUP2 MSTORE PUSH1 0x20 ADD DUP4 PUSH1 0x2A PUSH1 0x2C DUP2 LT PUSH2 0xDA0 JUMPI PUSH2 0xD9F PUSH2 0x2FCE JUMP JUMPDEST JUMPDEST PUSH1 0x20 MUL ADD MLOAD DUP2 MSTORE PUSH1 0x20 ADD DUP4 PUSH1 0x2B PUSH1 0x2C DUP2 LT PUSH2 0xDBE JUMPI PUSH2 0xDBD PUSH2 0x2FCE JUMP JUMPDEST JUMPDEST PUSH1 0x20 MUL ADD MLOAD DUP2 MSTORE POP SWAP1 POP PUSH2 0xDD2 DUP4 DUP3 PUSH2 0x1AA7 JUMP JUMPDEST SWAP3 POP PUSH0 PUSH1 0x40 MLOAD DUP1 PUSH2 0x200 ADD PUSH1 0x40 MSTORE DUP1 PUSH0 PUSH1 0xFF AND DUP2 MSTORE PUSH1 0x20 ADD PUSH0 PUSH1 0xFF AND DUP2 MSTORE PUSH1 0x20 ADD PUSH0 PUSH1 0xFF AND DUP2 MSTORE PUSH1 0x20 ADD PUSH0 PUSH1 0xFF AND DUP2 MSTORE PUSH1 0x20 ADD PUSH0 PUSH1 0xFF AND DUP2 MSTORE PUSH1 0x20 ADD PUSH0 PUSH1 0xFF AND DUP2 MSTORE PUSH1 0x20 ADD PUSH0 PUSH1 0xFF AND DUP2 MSTORE PUSH1 0x20 ADD PUSH0 PUSH1 0xFF AND DUP2 MSTORE PUSH1 0x20 ADD PUSH0 PUSH1 0xFF AND DUP2 MSTORE PUSH1 0x20 ADD PUSH0 PUSH1 0xFF AND DUP2 MSTORE PUSH1 0x20 ADD PUSH0 PUSH1 0xFF AND DUP2 MSTORE PUSH1 0x20 ADD PUSH0 PUSH1 0xFF AND DUP2 MSTORE PUSH1 0x20 ADD PUSH0 PUSH1 0xFF AND DUP2 MSTORE PUSH1 0x20 ADD PUSH0 PUSH1 0xFF AND DUP2 MSTORE PUSH1 0x20 ADD PUSH0 PUSH1 0xFF AND DUP2 MSTORE PUSH1 0x20 ADD PUSH0 PUSH1 0xFF AND DUP2 MSTORE POP SWAP1 POP PUSH0 JUMPDEST PUSH1 0x4 DUP2 LT ISZERO PUSH2 0xF0C JUMPI PUSH0 JUMPDEST PUSH1 0x4 DUP2 LT ISZERO PUSH2 0xEFE JUMPI DUP6 DUP2 PUSH1 0x4 DUP2 LT PUSH2 0xE9A JUMPI PUSH2 0xE99 PUSH2 0x2FCE JUMP JUMPDEST JUMPDEST PUSH1 0x20 MUL ADD MLOAD DUP3 PUSH1 0x4 DUP2 LT PUSH2 0xEB1 JUMPI PUSH2 0xEB0 PUSH2 0x2FCE JUMP JUMPDEST JUMPDEST PUSH1 0x20 MUL ADD MLOAD DUP4 DUP3 DUP5 PUSH1 0x4 PUSH2 0xEC5 SWAP2 SWAP1 PUSH2 0x31BC JUMP JUMPDEST PUSH2 0xECF SWAP2 SWAP1 PUSH2 0x3230 JUMP JUMPDEST PUSH1 0x10 DUP2 LT PUSH2 0xEE0 JUMPI PUSH2 0xEDF PUSH2 0x2FCE JUMP JUMPDEST JUMPDEST PUSH1 0x20 MUL ADD SWAP1 PUSH1 0xFF AND SWAP1 DUP2 PUSH1 0xFF AND DUP2 MSTORE POP POP DUP1 DUP1 PUSH1 0x1 ADD SWAP2 POP POP PUSH2 0xE7E JUMP JUMPDEST POP DUP1 DUP1 PUSH1 0x1 ADD SWAP2 POP POP PUSH2 0xE73 JUMP JUMPDEST POP DUP1 SWAP5 POP POP POP POP POP SWAP3 SWAP2 POP POP JUMP JUMPDEST PUSH0 DUP1 DUP3 PUSH0 PUSH1 0x10 DUP2 LT PUSH2 0xF2F JUMPI PUSH2 0xF2E PUSH2 0x2FCE JUMP JUMPDEST JUMPDEST PUSH1 0x20 MUL ADD MLOAD PUSH1 0xFF AND SWAP1 POP PUSH0 PUSH1 0x1 SWAP1 POP JUMPDEST PUSH1 0x10 DUP2 LT ISZERO PUSH2 0xF96 JUMPI PUSH1 0x8 DUP3 PUSH16 0xFFFFFFFFFFFFFFFFFFFFFFFFFFFFFFFF AND SWAP1 SHL SWAP2 POP DUP4 DUP2 PUSH1 0x10 DUP2 LT PUSH2 0xF74 JUMPI PUSH2 0xF73 PUSH2 0x2FCE JUMP JUMPDEST JUMPDEST PUSH1 0x20 MUL ADD MLOAD PUSH1 0xFF AND DUP3 PUSH2 0xF87 SWAP2 SWAP1 PUSH2 0x3139 JUMP JUMPDEST SWAP2 POP DUP1 DUP1 PUSH1 0x1 ADD SWAP2 POP POP PUSH2 0xF3F JUMP JUMPDEST POP DUP1 SWAP2 POP POP SWAP2 SWAP1 POP JUMP JUMPDEST PUSH0 DUP2 DUP4 XOR SWAP1 POP SWAP3 SWAP2 POP POP JUMP JUMPDEST PUSH0 DUP1 PUSH0 SWAP1 POP PUSH0 PUSH1 0x7F SWAP1 POP JUMPDEST PUSH0 DUP2 SLT PUSH2 0x104B JUMPI PUSH1 0x1 DUP2 DUP6 PUSH16 0xFFFFFFFFFFFFFFFFFFFFFFFFFFFFFFFF AND SWAP1 SHR AND DUP6 PUSH2 0xFE2 SWAP2 SWAP1 PUSH2 0x32AA JUMP JUMPDEST DUP3 XOR SWAP2 POP PUSH0 DUP1 PUSH1 0x1 DUP8 AND PUSH16 0xFFFFFFFFFFFFFFFFFFFFFFFFFFFFFFFF AND EQ ISZERO SWAP1 POP PUSH1 0x1 DUP7 PUSH16 0xFFFFFFFFFFFFFFFFFFFFFFFFFFFFFFFF AND SWAP1 SHR SWAP6 POP DUP1 ISZERO PUSH2 0x1037 JUMPI PUSH16 0xE1000000000000000000000000000000 DUP7 XOR SWAP6 POP JUMPDEST POP DUP1 DUP1 PUSH2 0x1043 SWAP1 PUSH2 0x32EF JUMP JUMPDEST SWAP2 POP POP PUSH2 0xFB7 JUMP JUMPDEST POP DUP1 SWAP2 POP POP SWAP3 SWAP2 POP POP JUMP JUMPDEST PUSH1 0x60 PUSH0 DUP3 PUSH0 DUP2 MLOAD DUP2 LT PUSH2 0x106C JUMPI PUSH2 0x106B PUSH2 0x2FCE JUMP JUMPDEST JUMPDEST PUSH1 0x20 MUL PUSH1 0x20 ADD ADD MLOAD PUSH1 0x80 SHL PUSH1 0x40 MLOAD PUSH1 0x20 ADD PUSH2 0x1087 SWAP2 SWAP1 PUSH2 0x3381 JUMP JUMPDEST PUSH1 0x40 MLOAD PUSH1 0x20 DUP2 DUP4 SUB SUB DUP2 MSTORE SWAP1 PUSH1 0x40 MSTORE SWAP1 POP PUSH0 PUSH1 0x1 SWAP1 POP JUMPDEST DUP4 MLOAD DUP2 LT ISZERO PUSH2 0x1111 JUMPI DUP2 DUP5 DUP3 DUP2 MLOAD DUP2 LT PUSH2 0x10BB JUMPI PUSH2 0x10BA PUSH2 0x2FCE JUMP JUMPDEST JUMPDEST PUSH1 0x20 MUL PUSH1 0x20 ADD ADD MLOAD PUSH1 0x40 MLOAD PUSH1 0x20 ADD PUSH2 0x10D3 SWAP2 SWAP1 PUSH2 0x33CF JUMP JUMPDEST PUSH1 0x40 MLOAD PUSH1 0x20 DUP2 DUP4 SUB SUB DUP2 MSTORE SWAP1 PUSH1 0x40 MSTORE PUSH1 0x40 MLOAD PUSH1 0x20 ADD PUSH2 0x10F3 SWAP3 SWAP2 SWAP1 PUSH2 0x3423 JUMP JUMPDEST PUSH1 0x40 MLOAD PUSH1 0x20 DUP2 DUP4 SUB SUB DUP2 MSTORE SWAP1 PUSH1 0x40 MSTORE SWAP2 POP DUP1 DUP1 PUSH1 0x1 ADD SWAP2 POP POP PUSH2 0x109E JUMP JUMPDEST POP DUP1 SWAP2 POP POP SWAP2 SWAP1 POP JUMP JUMPDEST PUSH1 0x60 PUSH0 DUP3 MLOAD SWAP1 POP PUSH0 PUSH1 0x10 DUP3 PUSH2 0x1130 SWAP2 SWAP1 PUSH2 0x3473 JUMP JUMPDEST PUSH1 0x10 PUSH2 0x113C SWAP2 SWAP1 PUSH2 0x31FD JUMP JUMPDEST SWAP1 POP PUSH1 0x10 DUP2 SUB PUSH2 0x114A JUMPI PUSH0 SWAP1 POP JUMPDEST PUSH0 PUSH1 0x40 MLOAD DUP1 PUSH1 0x40 ADD PUSH1 0x40 MSTORE DUP1 PUSH1 0x1 DUP2 MSTORE PUSH1 0x20 ADD PUSH0 DUP2 MSTORE POP SWAP1 POP PUSH0 PUSH1 0x1 SWAP1 POP JUMPDEST DUP3 DUP2 LT ISZERO PUSH2 0x11A0 JUMPI DUP2 PUSH1 0x40 MLOAD PUSH1 0x20 ADD PUSH2 0x1182 SWAP2 SWAP1 PUSH2 0x34A9 JUMP JUMPDEST PUSH1 0x40 MLOAD PUSH1 0x20 DUP2 DUP4 SUB SUB DUP2 MSTORE SWAP1 PUSH1 0x40 MSTORE SWAP2 POP DUP1 DUP1 PUSH1 0x1 ADD SWAP2 POP POP PUSH2 0x1169 JUMP JUMPDEST POP PUSH0 DUP6 DUP3 PUSH1 0x40 MLOAD PUSH1 0x20 ADD PUSH2 0x11B5 SWAP3 SWAP2 SWAP1 PUSH2 0x3423 JUMP JUMPDEST PUSH1 0x40 MLOAD PUSH1 0x20 DUP2 DUP4 SUB SUB DUP2 MSTORE SWAP1 PUSH1 0x40 MSTORE SWAP1 POP PUSH0 PUSH1 0x10 DUP3 MLOAD PUSH2 0x11D5 SWAP2 SWAP1 PUSH2 0x34CE JUMP JUMPDEST SWAP1 POP PUSH0 DUP2 PUSH8 0xFFFFFFFFFFFFFFFF DUP2 GT ISZERO PUSH2 0x11F2 JUMPI PUSH2 0x11F1 PUSH2 0x2D09 JUMP JUMPDEST JUMPDEST PUSH1 0x40 MLOAD SWAP1 DUP1 DUP3 MSTORE DUP1 PUSH1 0x20 MUL PUSH1 0x20 ADD DUP3 ADD PUSH1 0x40 MSTORE DUP1 ISZERO PUSH2 0x1220 JUMPI DUP2 PUSH1 0x20 ADD PUSH1 0x20 DUP3 MUL DUP1 CALLDATASIZE DUP4 CALLDATACOPY DUP1 DUP3 ADD SWAP2 POP POP SWAP1 POP JUMPDEST POP SWAP1 POP PUSH0 JUMPDEST DUP3 DUP2 LT ISZERO PUSH2 0x12A3 JUMPI PUSH2 0x1245 DUP5 PUSH1 0x10 DUP4 PUSH2 0x123E SWAP2 SWAP1 PUSH2 0x31BC JUMP JUMPDEST PUSH1 0x10 PUSH2 0x25B5 JUMP JUMPDEST PUSH2 0x124E SWAP1 PUSH2 0x352D JUMP JUMPDEST PUSH1 0x80 SHR DUP3 DUP3 DUP2 MLOAD DUP2 LT PUSH2 0x1264 JUMPI PUSH2 0x1263 PUSH2 0x2FCE JUMP JUMPDEST JUMPDEST PUSH1 0x20 MUL PUSH1 0x20 ADD ADD SWAP1 PUSH16 0xFFFFFFFFFFFFFFFFFFFFFFFFFFFFFFFF AND SWAP1 DUP2 PUSH16 0xFFFFFFFFFFFFFFFFFFFFFFFFFFFFFFFF AND DUP2 MSTORE POP POP DUP1 DUP1 PUSH1 0x1 ADD SWAP2 POP POP PUSH2 0x1225 JUMP JUMPDEST POP DUP1 SWAP7 POP POP POP POP POP POP POP SWAP2 SWAP1 POP JUMP JUMPDEST PUSH2 0x12BA PUSH2 0x2B95 JUMP JUMPDEST PUSH2 0x12C2 PUSH2 0x2B95 JUMP JUMPDEST DUP3 PUSH0 PUSH1 0x10 DUP2 LT PUSH2 0x12D5 JUMPI PUSH2 0x12D4 PUSH2 0x2FCE JUMP JUMPDEST JUMPDEST PUSH1 0x20 MUL ADD MLOAD DUP2 PUSH0 PUSH1 0x2C DUP2 LT PUSH2 0x12ED JUMPI PUSH2 0x12EC PUSH2 0x2FCE JUMP JUMPDEST JUMPDEST PUSH1 0x20 MUL ADD MLOAD PUSH0 PUSH1 0x4 DUP2 LT PUSH2 0x1304 JUMPI PUSH2 0x1303 PUSH2 0x2FCE JUMP JUMPDEST JUMPDEST PUSH1 0x20 MUL ADD SWAP1 PUSH1 0xFF AND SWAP1 DUP2 PUSH1 0xFF AND DUP2 MSTORE POP POP DUP3 PUSH1 0x1 PUSH1 0x10 DUP2 LT PUSH2 0x1329 JUMPI PUSH2 0x1328 PUSH2 0x2FCE JUMP JUMPDEST JUMPDEST PUSH1 0x20 MUL ADD MLOAD DUP2 PUSH0 PUSH1 0x2C DUP2 LT PUSH2 0x1341 JUMPI PUSH2 0x1340 PUSH2 0x2FCE JUMP JUMPDEST JUMPDEST PUSH1 0x20 MUL ADD MLOAD PUSH1 0x1 PUSH1 0x4 DUP2 LT PUSH2 0x1359 JUMPI PUSH2 0x1358 PUSH2 0x2FCE JUMP JUMPDEST JUMPDEST PUSH1 0x20 MUL ADD SWAP1 PUSH1 0xFF AND SWAP1 DUP2 PUSH1 0xFF AND DUP2 MSTORE POP POP DUP3 PUSH1 0x2 PUSH1 0x10 DUP2 LT PUSH2 0x137E JUMPI PUSH2 0x137D PUSH2 0x2FCE JUMP JUMPDEST JUMPDEST PUSH1 0x20 MUL ADD MLOAD DUP2 PUSH0 PUSH1 0x2C DUP2 LT PUSH2 0x1396 JUMPI PUSH2 0x1395 PUSH2 0x2FCE JUMP JUMPDEST JUMPDEST PUSH1 0x20 MUL ADD MLOAD PUSH1 0x2 PUSH1 0x4 DUP2 LT PUSH2 0x13AE JUMPI PUSH2 0x13AD PUSH2 0x2FCE JUMP JUMPDEST JUMPDEST PUSH1 0x20 MUL ADD SWAP1 PUSH1 0xFF AND SWAP1 DUP2 PUSH1 0xFF AND DUP2 MSTORE POP POP DUP3 PUSH1 0x3 PUSH1 0x10 DUP2 LT PUSH2 0x13D3 JUMPI PUSH2 0x13D2 PUSH2 0x2FCE JUMP JUMPDEST JUMPDEST PUSH1 0x20 MUL ADD MLOAD DUP2 PUSH0 PUSH1 0x2C DUP2 LT PUSH2 0x13EB JUMPI PUSH2 0x13EA PUSH2 0x2FCE JUMP JUMPDEST JUMPDEST PUSH1 0x20 MUL ADD MLOAD PUSH1 0x3 PUSH1 0x4 DUP2 LT PUSH2 0x1403 JUMPI PUSH2 0x1402 PUSH2 0x2FCE JUMP JUMPDEST JUMPDEST PUSH1 0x20 MUL ADD SWAP1 PUSH1 0xFF AND SWAP1 DUP2 PUSH1 0xFF AND DUP2 MSTORE POP POP DUP3 PUSH1 0x4 PUSH1 0x10 DUP2 LT PUSH2 0x1428 JUMPI PUSH2 0x1427 PUSH2 0x2FCE JUMP JUMPDEST JUMPDEST PUSH1 0x20 MUL ADD MLOAD DUP2 PUSH1 0x1 PUSH1 0x2C DUP2 LT PUSH2 0x1441 JUMPI PUSH2 0x1440 PUSH2 0x2FCE JUMP JUMPDEST JUMPDEST PUSH1 0x20 MUL ADD MLOAD PUSH0 PUSH1 0x4 DUP2 LT PUSH2 0x1458 JUMPI PUSH2 0x1457 PUSH2 0x2FCE JUMP JUMPDEST JUMPDEST PUSH1 0x20 MUL ADD SWAP1 PUSH1 0xFF AND SWAP1 DUP2 PUSH1 0xFF AND DUP2 MSTORE POP POP DUP3 PUSH1 0x5 PUSH1 0x10 DUP2 LT PUSH2 0x147D JUMPI PUSH2 0x147C PUSH2 0x2FCE JUMP JUMPDEST JUMPDEST PUSH1 0x20 MUL ADD MLOAD DUP2 PUSH1 0x1 PUSH1 0x2C DUP2 LT PUSH2 0x1496 JUMPI PUSH2 0x1495 PUSH2 0x2FCE JUMP JUMPDEST JUMPDEST PUSH1 0x20 MUL ADD MLOAD PUSH1 0x1 PUSH1 0x4 DUP2 LT PUSH2 0x14AE JUMPI PUSH2 0x14AD PUSH2 0x2FCE JUMP JUMPDEST JUMPDEST PUSH1 0x20 MUL ADD SWAP1 PUSH1 0xFF AND SWAP1 DUP2 PUSH1 0xFF AND DUP2 MSTORE POP POP DUP3 PUSH1 0x6 PUSH1 0x10 DUP2 LT PUSH2 0x14D3 JUMPI PUSH2 0x14D2 PUSH2 0x2FCE JUMP JUMPDEST JUMPDEST PUSH1 0x20 MUL ADD MLOAD DUP2 PUSH1 0x1 PUSH1 0x2C DUP2 LT PUSH2 0x14EC JUMPI PUSH2 0x14EB PUSH2 0x2FCE JUMP JUMPDEST JUMPDEST PUSH1 0x20 MUL ADD MLOAD PUSH1 0x2 PUSH1 0x4 DUP2 LT PUSH2 0x1504 JUMPI PUSH2 0x1503 PUSH2 0x2FCE JUMP JUMPDEST JUMPDEST PUSH1 0x20 MUL ADD SWAP1 PUSH1 0xFF AND SWAP1 DUP2 PUSH1 0xFF AND DUP2 MSTORE POP POP DUP3 PUSH1 0x7 PUSH1 0x10 DUP2 LT PUSH2 0x1529 JUMPI PUSH2 0x1528 PUSH2 0x2FCE JUMP JUMPDEST JUMPDEST PUSH1 0x20 MUL ADD MLOAD DUP2 PUSH1 0x1 PUSH1 0x2C DUP2 LT PUSH2 0x1542 JUMPI PUSH2 0x1541 PUSH2 0x2FCE JUMP JUMPDEST JUMPDEST PUSH1 0x20 MUL ADD MLOAD PUSH1 0x3 PUSH1 0x4 DUP2 LT PUSH2 0x155A JUMPI PUSH2 0x1559 PUSH2 0x2FCE JUMP JUMPDEST JUMPDEST PUSH1 0x20 MUL ADD SWAP1 PUSH1 0xFF AND SWAP1 DUP2 PUSH1 0xFF AND DUP2 MSTORE POP POP DUP3 PUSH1 0x8 PUSH1 0x10 DUP2 LT PUSH2 0x157F JUMPI PUSH2 0x157E PUSH2 0x2FCE JUMP JUMPDEST JUMPDEST PUSH1 0x20 MUL ADD MLOAD DUP2 PUSH1 0x2 PUSH1 0x2C DUP2 LT PUSH2 0x1598 JUMPI PUSH2 0x1597 PUSH2 0x2FCE JUMP JUMPDEST JUMPDEST PUSH1 0x20 MUL ADD MLOAD PUSH0 PUSH1 0x4 DUP2 LT PUSH2 0x15AF JUMPI PUSH2 0x15AE PUSH2 0x2FCE JUMP JUMPDEST JUMPDEST PUSH1 0x20 MUL ADD SWAP1 PUSH1 0xFF AND SWAP1 DUP2 PUSH1 0xFF AND DUP2 MSTORE POP POP DUP3 PUSH1 0x9 PUSH1 0x10 DUP2 LT PUSH2 0x15D4 JUMPI PUSH2 0x15D3 PUSH2 0x2FCE JUMP JUMPDEST JUMPDEST PUSH1 0x20 MUL ADD MLOAD DUP2 PUSH1 0x2 PUSH1 0x2C DUP2 LT PUSH2 0x15ED JUMPI PUSH2 0x15EC PUSH2 0x2FCE JUMP JUMPDEST JUMPDEST PUSH1 0x20 MUL ADD MLOAD PUSH1 0x1 PUSH1 0x4 DUP2 LT PUSH2 0x1605 JUMPI PUSH2 0x1604 PUSH2 0x2FCE JUMP JUMPDEST JUMPDEST PUSH1 0x20 MUL ADD SWAP1 PUSH1 0xFF AND SWAP1 DUP2 PUSH1 0xFF AND DUP2 MSTORE POP POP DUP3 PUSH1 0xA PUSH1 0x10 DUP2 LT PUSH2 0x162A JUMPI PUSH2 0x1629 PUSH2 0x2FCE JUMP JUMPDEST JUMPDEST PUSH1 0x20 MUL ADD MLOAD DUP2 PUSH1 0x2 PUSH1 0x2C DUP2 LT PUSH2 0x1643 JUMPI PUSH2 0x1642 PUSH2 0x2FCE JUMP JUMPDEST JUMPDEST PUSH1 0x20 MUL ADD MLOAD PUSH1 0x2 PUSH1 0x4 DUP2 LT PUSH2 0x165B JUMPI PUSH2 0x165A PUSH2 0x2FCE JUMP JUMPDEST JUMPDEST PUSH1 0x20 MUL ADD SWAP1 PUSH1 0xFF AND SWAP1 DUP2 PUSH1 0xFF AND DUP2 MSTORE POP POP DUP3 PUSH1 0xB PUSH1 0x10 DUP2 LT PUSH2 0x1680 JUMPI PUSH2 0x167F PUSH2 0x2FCE JUMP JUMPDEST JUMPDEST PUSH1 0x20 MUL ADD MLOAD DUP2 PUSH1 0x2 PUSH1 0x2C DUP2 LT PUSH2 0x1699 JUMPI PUSH2 0x1698 PUSH2 0x2FCE JUMP JUMPDEST JUMPDEST PUSH1 0x20 MUL ADD MLOAD PUSH1 0x3 PUSH1 0x4 DUP2 LT PUSH2 0x16B1 JUMPI PUSH2 0x16B0 PUSH2 0x2FCE JUMP JUMPDEST JUMPDEST PUSH1 0x20 MUL ADD SWAP1 PUSH1 0xFF AND SWAP1 DUP2 PUSH1 0xFF AND DUP2 MSTORE POP POP DUP3 PUSH1 0xC PUSH1 0x10 DUP2 LT PUSH2 0x16D6 JUMPI PUSH2 0x16D5 PUSH2 0x2FCE JUMP JUMPDEST JUMPDEST PUSH1 0x20 MUL ADD MLOAD DUP2 PUSH1 0x3 PUSH1 0x2C DUP2 LT PUSH2 0x16EF JUMPI PUSH2 0x16EE PUSH2 0x2FCE JUMP JUMPDEST JUMPDEST PUSH1 0x20 MUL ADD MLOAD PUSH0 PUSH1 0x4 DUP2 LT PUSH2 0x1706 JUMPI PUSH2 0x1705 PUSH2 0x2FCE JUMP JUMPDEST JUMPDEST PUSH1 0x20 MUL ADD SWAP1 PUSH1 0xFF AND SWAP1 DUP2 PUSH1 0xFF AND DUP2 MSTORE POP POP DUP3 PUSH1 0xD PUSH1 0x10 DUP2 LT PUSH2 0x172B JUMPI PUSH2 0x172A PUSH2 0x2FCE JUMP JUMPDEST JUMPDEST PUSH1 0x20 MUL ADD MLOAD DUP2 PUSH1 0x3 PUSH1 0x2C DUP2 LT PUSH2 0x1744 JUMPI PUSH2 0x1743 PUSH2 0x2FCE JUMP JUMPDEST JUMPDEST PUSH1 0x20 MUL ADD MLOAD PUSH1 0x1 PUSH1 0x4 DUP2 LT PUSH2 0x175C JUMPI PUSH2 0x175B PUSH2 0x2FCE JUMP JUMPDEST JUMPDEST PUSH1 0x20 MUL ADD SWAP1 PUSH1 0xFF AND SWAP1 DUP2 PUSH1 0xFF AND DUP2 MSTORE POP POP DUP3 PUSH1 0xE PUSH1 0x10 DUP2 LT PUSH2 0x1781 JUMPI PUSH2 0x1780 PUSH2 0x2FCE JUMP JUMPDEST JUMPDEST PUSH1 0x20 MUL ADD MLOAD DUP2 PUSH1 0x3 PUSH1 0x2C DUP2 LT PUSH2 0x179A JUMPI PUSH2 0x1799 PUSH2 0x2FCE JUMP JUMPDEST JUMPDEST PUSH1 0x20 MUL ADD MLOAD PUSH1 0x2 PUSH1 0x4 DUP2 LT PUSH2 0x17B2 JUMPI PUSH2 0x17B1 PUSH2 0x2FCE JUMP JUMPDEST JUMPDEST PUSH1 0x20 MUL ADD SWAP1 PUSH1 0xFF AND SWAP1 DUP2 PUSH1 0xFF AND DUP2 MSTORE POP POP DUP3 PUSH1 0xF PUSH1 0x10 DUP2 LT PUSH2 0x17D7 JUMPI PUSH2 0x17D6 PUSH2 0x2FCE JUMP JUMPDEST JUMPDEST PUSH1 0x20 MUL ADD MLOAD DUP2 PUSH1 0x3 PUSH1 0x2C DUP2 LT PUSH2 0x17F0 JUMPI PUSH2 0x17EF PUSH2 0x2FCE JUMP JUMPDEST JUMPDEST PUSH1 0x20 MUL ADD MLOAD PUSH1 0x3 PUSH1 0x4 DUP2 LT PUSH2 0x1808 JUMPI PUSH2 0x1807 PUSH2 0x2FCE JUMP JUMPDEST JUMPDEST PUSH1 0x20 MUL ADD SWAP1 PUSH1 0xFF AND SWAP1 DUP2 PUSH1 0xFF AND DUP2 MSTORE POP POP PUSH0 PUSH1 0x4 SWAP1 POP JUMPDEST PUSH1 0x2C DUP2 LT ISZERO PUSH2 0x1A9D JUMPI PUSH0 DUP3 PUSH1 0x1 DUP4 PUSH2 0x1837 SWAP2 SWAP1 PUSH2 0x31FD JUMP JUMPDEST PUSH1 0x2C DUP2 LT PUSH2 0x1848 JUMPI PUSH2 0x1847 PUSH2 0x2FCE JUMP JUMPDEST JUMPDEST PUSH1 0x20 MUL ADD MLOAD SWAP1 POP PUSH0 PUSH1 0x4 DUP4 PUSH2 0x185D SWAP2 SWAP1 PUSH2 0x3473 JUMP JUMPDEST SUB PUSH2 0x18E9 JUMPI PUSH2 0x1873 PUSH2 0x186E DUP3 PUSH2 0x26D1 JUMP JUMPDEST PUSH2 0x2808 JUMP JUMPDEST SWAP1 POP PUSH1 0x7 PUSH1 0x4 DUP4 PUSH2 0x1884 SWAP2 SWAP1 PUSH2 0x34CE JUMP JUMPDEST PUSH1 0xB DUP2 LT PUSH2 0x1895 JUMPI PUSH2 0x1894 PUSH2 0x2FCE JUMP JUMPDEST JUMPDEST PUSH1 0x20 SWAP2 DUP3 DUP3 DIV ADD SWAP2 SWAP1 MOD SWAP1 SLOAD SWAP1 PUSH2 0x100 EXP SWAP1 DIV PUSH1 0xFF AND DUP2 PUSH0 PUSH1 0x4 DUP2 LT PUSH2 0x18BE JUMPI PUSH2 0x18BD PUSH2 0x2FCE JUMP JUMPDEST JUMPDEST PUSH1 0x20 MUL ADD MLOAD XOR DUP2 PUSH0 PUSH1 0x4 DUP2 LT PUSH2 0x18D7 JUMPI PUSH2 0x18D6 PUSH2 0x2FCE JUMP JUMPDEST JUMPDEST PUSH1 0x20 MUL ADD SWAP1 PUSH1 0xFF AND SWAP1 DUP2 PUSH1 0xFF AND DUP2 MSTORE POP POP JUMPDEST PUSH1 0x40 MLOAD DUP1 PUSH1 0x80 ADD PUSH1 0x40 MSTORE DUP1 DUP5 PUSH1 0x4 DUP6 PUSH2 0x1902 SWAP2 SWAP1 PUSH2 0x31FD JUMP JUMPDEST PUSH1 0x2C DUP2 LT PUSH2 0x1913 JUMPI PUSH2 0x1912 PUSH2 0x2FCE JUMP JUMPDEST JUMPDEST PUSH1 0x20 MUL ADD MLOAD PUSH0 PUSH1 0x4 DUP2 LT PUSH2 0x192A JUMPI PUSH2 0x1929 PUSH2 0x2FCE JUMP JUMPDEST JUMPDEST PUSH1 0x20 MUL ADD MLOAD DUP4 PUSH0 PUSH1 0x4 DUP2 LT PUSH2 0x1942 JUMPI PUSH2 0x1941 PUSH2 0x2FCE JUMP JUMPDEST JUMPDEST PUSH1 0x20 MUL ADD MLOAD XOR PUSH1 0xFF AND PUSH1 0xFF AND DUP2 MSTORE PUSH1 0x20 ADD DUP5 PUSH1 0x4 DUP6 PUSH2 0x1961 SWAP2 SWAP1 PUSH2 0x31FD JUMP JUMPDEST PUSH1 0x2C DUP2 LT PUSH2 0x1972 JUMPI PUSH2 0x1971 PUSH2 0x2FCE JUMP JUMPDEST JUMPDEST PUSH1 0x20 MUL ADD MLOAD PUSH1 0x1 PUSH1 0x4 DUP2 LT PUSH2 0x198A JUMPI PUSH2 0x1989 PUSH2 0x2FCE JUMP JUMPDEST JUMPDEST PUSH1 0x20 MUL ADD MLOAD DUP4 PUSH1 0x1 PUSH1 0x4 DUP2 LT PUSH2 0x19A3 JUMPI PUSH2 0x19A2 PUSH2 0x2FCE JUMP JUMPDEST JUMPDEST PUSH1 0x20 MUL ADD MLOAD XOR PUSH1 0xFF AND PUSH1 0xFF AND DUP2 MSTORE PUSH1 0x20 ADD DUP5 PUSH1 0x4 DUP6 PUSH2 0x19C2 SWAP2 SWAP1 PUSH2 0x31FD JUMP JUMPDEST PUSH1 0x2C DUP2 LT PUSH2 0x19D3 JUMPI PUSH2 0x19D2 PUSH2 0x2FCE JUMP JUMPDEST JUMPDEST PUSH1 0x20 MUL ADD MLOAD PUSH1 0x2 PUSH1 0x4 DUP2 LT PUSH2 0x19EB JUMPI PUSH2 0x19EA PUSH2 0x2FCE JUMP JUMPDEST JUMPDEST PUSH1 0x20 MUL ADD MLOAD DUP4 PUSH1 0x2 PUSH1 0x4 DUP2 LT PUSH2 0x1A04 JUMPI PUSH2 0x1A03 PUSH2 0x2FCE JUMP JUMPDEST JUMPDEST PUSH1 0x20 MUL ADD MLOAD XOR PUSH1 0xFF AND PUSH1 0xFF AND DUP2 MSTORE PUSH1 0x20 ADD DUP5 PUSH1 0x4 DUP6 PUSH2 0x1A23 SWAP2 SWAP1 PUSH2 0x31FD JUMP JUMPDEST PUSH1 0x2C DUP2 LT PUSH2 0x1A34 JUMPI PUSH2 0x1A33 PUSH2 0x2FCE JUMP JUMPDEST JUMPDEST PUSH1 0x20 MUL ADD MLOAD PUSH1 0x3 PUSH1 0x4 DUP2 LT PUSH2 0x1A4C JUMPI PUSH2 0x1A4B PUSH2 0x2FCE JUMP JUMPDEST JUMPDEST PUSH1 0x20 MUL ADD MLOAD DUP4 PUSH1 0x3 PUSH1 0x4 DUP2 LT PUSH2 0x1A65 JUMPI PUSH2 0x1A64 PUSH2 0x2FCE JUMP JUMPDEST JUMPDEST PUSH1 0x20 MUL ADD MLOAD XOR PUSH1 0xFF AND PUSH1 0xFF AND DUP2 MSTORE POP DUP4 DUP4 PUSH1 0x2C DUP2 LT PUSH2 0x1A87 JUMPI PUSH2 0x1A86 PUSH2 0x2FCE JUMP JUMPDEST JUMPDEST PUSH1 0x20 MUL ADD DUP2 SWAP1 MSTORE POP POP DUP1 DUP1 PUSH1 0x1 ADD SWAP2 POP POP PUSH2 0x181F JUMP JUMPDEST POP DUP1 SWAP2 POP POP SWAP2 SWAP1 POP JUMP JUMPDEST PUSH2 0x1AAF PUSH2 0x2BC3 JUMP JUMPDEST PUSH0 JUMPDEST PUSH1 0x4 DUP2 LT ISZERO PUSH2 0x1B7A JUMPI PUSH0 JUMPDEST PUSH1 0x4 DUP2 LT ISZERO PUSH2 0x1B6C JUMPI DUP4 DUP2 PUSH1 0x4 DUP2 LT PUSH2 0x1AD8 JUMPI PUSH2 0x1AD7 PUSH2 0x2FCE JUMP JUMPDEST JUMPDEST PUSH1 0x20 MUL ADD MLOAD DUP3 PUSH1 0x4 DUP2 LT PUSH2 0x1AEF JUMPI PUSH2 0x1AEE PUSH2 0x2FCE JUMP JUMPDEST JUMPDEST PUSH1 0x20 MUL ADD MLOAD DUP6 DUP4 PUSH1 0x4 DUP2 LT PUSH2 0x1B07 JUMPI PUSH2 0x1B06 PUSH2 0x2FCE JUMP JUMPDEST JUMPDEST PUSH1 0x20 MUL ADD MLOAD DUP3 PUSH1 0x4 DUP2 LT PUSH2 0x1B1E JUMPI PUSH2 0x1B1D PUSH2 0x2FCE JUMP JUMPDEST JUMPDEST PUSH1 0x20 MUL ADD MLOAD XOR DUP6 DUP4 PUSH1 0x4 DUP2 LT PUSH2 0x1B37 JUMPI PUSH2 0x1B36 PUSH2 0x2FCE JUMP JUMPDEST JUMPDEST PUSH1 0x20 MUL ADD MLOAD DUP3 PUSH1 0x4 DUP2 LT PUSH2 0x1B4E JUMPI PUSH2 0x1B4D PUSH2 0x2FCE JUMP JUMPDEST JUMPDEST PUSH1 0x20 MUL ADD SWAP1 PUSH1 0xFF AND SWAP1 DUP2 PUSH1 0xFF AND DUP2 MSTORE POP POP DUP1 DUP1 PUSH1 0x1 ADD SWAP2 POP POP PUSH2 0x1ABC JUMP JUMPDEST POP DUP1 DUP1 PUSH1 0x1 ADD SWAP2 POP POP PUSH2 0x1AB1 JUMP JUMPDEST POP DUP3 SWAP1 POP SWAP3 SWAP2 POP POP JUMP JUMPDEST PUSH2 0x1B8C PUSH2 0x2BC3 JUMP JUMPDEST PUSH0 JUMPDEST PUSH1 0x4 DUP2 LT ISZERO PUSH2 0x1C54 JUMPI PUSH0 JUMPDEST PUSH1 0x4 DUP2 LT ISZERO PUSH2 0x1C46 JUMPI PUSH1 0x8 DUP5 DUP4 PUSH1 0x4 DUP2 LT PUSH2 0x1BB7 JUMPI PUSH2 0x1BB6 PUSH2 0x2FCE JUMP JUMPDEST JUMPDEST PUSH1 0x20 MUL ADD MLOAD DUP3 PUSH1 0x4 DUP2 LT PUSH2 0x1BCE JUMPI PUSH2 0x1BCD PUSH2 0x2FCE JUMP JUMPDEST JUMPDEST PUSH1 0x20 MUL ADD MLOAD PUSH1 0xFF AND PUSH2 0x100 DUP2 LT PUSH2 0x1BE8 JUMPI PUSH2 0x1BE7 PUSH2 0x2FCE JUMP JUMPDEST JUMPDEST PUSH1 0x20 SWAP2 DUP3 DUP3 DIV ADD SWAP2 SWAP1 MOD SWAP1 SLOAD SWAP1 PUSH2 0x100 EXP SWAP1 DIV PUSH1 0xFF AND DUP5 DUP4 PUSH1 0x4 DUP2 LT PUSH2 0x1C11 JUMPI PUSH2 0x1C10 PUSH2 0x2FCE JUMP JUMPDEST JUMPDEST PUSH1 0x20 MUL ADD MLOAD DUP3 PUSH1 0x4 DUP2 LT PUSH2 0x1C28 JUMPI PUSH2 0x1C27 PUSH2 0x2FCE JUMP JUMPDEST JUMPDEST PUSH1 0x20 MUL ADD SWAP1 PUSH1 0xFF AND SWAP1 DUP2 PUSH1 0xFF AND DUP2 MSTORE POP POP DUP1 DUP1 PUSH1 0x1 ADD SWAP2 POP POP PUSH2 0x1B99 JUMP JUMPDEST POP DUP1 DUP1 PUSH1 0x1 ADD SWAP2 POP POP PUSH2 0x1B8E JUMP JUMPDEST POP DUP2 SWAP1 POP SWAP2 SWAP1 POP JUMP JUMPDEST PUSH2 0x1C65 PUSH2 0x2BC3 JUMP JUMPDEST PUSH0 DUP3 PUSH0 PUSH1 0x4 DUP2 LT PUSH2 0x1C79 JUMPI PUSH2 0x1C78 PUSH2 0x2FCE JUMP JUMPDEST JUMPDEST PUSH1 0x20 MUL ADD MLOAD SWAP1 POP PUSH0 PUSH1 0x40 MLOAD DUP1 PUSH1 0x80 ADD PUSH1 0x40 MSTORE DUP1 DUP6 PUSH1 0x1 PUSH1 0x4 DUP2 LT PUSH2 0x1CA0 JUMPI PUSH2 0x1C9F PUSH2 0x2FCE JUMP JUMPDEST JUMPDEST PUSH1 0x20 MUL ADD MLOAD PUSH1 0x1 PUSH1 0x4 DUP2 LT PUSH2 0x1CB8 JUMPI PUSH2 0x1CB7 PUSH2 0x2FCE JUMP JUMPDEST JUMPDEST PUSH1 0x20 MUL ADD MLOAD PUSH1 0xFF AND PUSH1 0xFF AND DUP2 MSTORE PUSH1 0x20 ADD DUP6 PUSH1 0x1 PUSH1 0x4 DUP2 LT PUSH2 0x1CDC JUMPI PUSH2 0x1CDB PUSH2 0x2FCE JUMP JUMPDEST JUMPDEST PUSH1 0x20 MUL ADD MLOAD PUSH1 0x2 PUSH1 0x4 DUP2 LT PUSH2 0x1CF4 JUMPI PUSH2 0x1CF3 PUSH2 0x2FCE JUMP JUMPDEST JUMPDEST PUSH1 0x20 MUL ADD MLOAD PUSH1 0xFF AND PUSH1 0xFF AND DUP2 MSTORE PUSH1 0x20 ADD DUP6 PUSH1 0x1 PUSH1 0x4 DUP2 LT PUSH2 0x1D18 JUMPI PUSH2 0x1D17 PUSH2 0x2FCE JUMP JUMPDEST JUMPDEST PUSH1 0x20 MUL ADD MLOAD PUSH1 0x3 PUSH1 0x4 DUP2 LT PUSH2 0x1D30 JUMPI PUSH2 0x1D2F PUSH2 0x2FCE JUMP JUMPDEST JUMPDEST PUSH1 0x20 MUL ADD MLOAD PUSH1 0xFF AND PUSH1 0xFF AND DUP2 MSTORE PUSH1 0x20 ADD DUP6 PUSH1 0x1 PUSH1 0x4 DUP2 LT PUSH2 0x1D54 JUMPI PUSH2 0x1D53 PUSH2 0x2FCE JUMP JUMPDEST JUMPDEST PUSH1 0x20 MUL ADD MLOAD PUSH0 PUSH1 0x4 DUP2 LT PUSH2 0x1D6B JUMPI PUSH2 0x1D6A PUSH2 0x2FCE JUMP JUMPDEST JUMPDEST PUSH1 0x20 MUL ADD MLOAD PUSH1 0xFF AND PUSH1 0xFF AND DUP2 MSTORE POP SWAP1 POP PUSH0 PUSH1 0x40 MLOAD DUP1 PUSH1 0x80 ADD PUSH1 0x40 MSTORE DUP1 DUP7 PUSH1 0x2 PUSH1 0x4 DUP2 LT PUSH2 0x1D9B JUMPI PUSH2 0x1D9A PUSH2 0x2FCE JUMP JUMPDEST JUMPDEST PUSH1 0x20 MUL ADD MLOAD PUSH1 0x2 PUSH1 0x4 DUP2 LT PUSH2 0x1DB3 JUMPI PUSH2 0x1DB2 PUSH2 0x2FCE JUMP JUMPDEST JUMPDEST PUSH1 0x20 MUL ADD MLOAD PUSH1 0xFF AND PUSH1 0xFF AND DUP2 MSTORE PUSH1 0x20 ADD DUP7 PUSH1 0x2 PUSH1 0x4 DUP2 LT PUSH2 0x1DD7 JUMPI PUSH2 0x1DD6 PUSH2 0x2FCE JUMP JUMPDEST JUMPDEST PUSH1 0x20 MUL ADD MLOAD PUSH1 0x3 PUSH1 0x4 DUP2 LT PUSH2 0x1DEF JUMPI PUSH2 0x1DEE PUSH2 0x2FCE JUMP JUMPDEST JUMPDEST PUSH1 0x20 MUL ADD MLOAD PUSH1 0xFF AND PUSH1 0xFF AND DUP2 MSTORE PUSH1 0x20 ADD DUP7 PUSH1 0x2 PUSH1 0x4 DUP2 LT PUSH2 0x1E13 JUMPI PUSH2 0x1E12 PUSH2 0x2FCE JUMP JUMPDEST JUMPDEST PUSH1 0x20 MUL ADD MLOAD PUSH0 PUSH1 0x4 DUP2 LT PUSH2 0x1E2A JUMPI PUSH2 0x1E29 PUSH2 0x2FCE JUMP JUMPDEST JUMPDEST PUSH1 0x20 MUL ADD MLOAD PUSH1 0xFF AND PUSH1 0xFF AND DUP2 MSTORE PUSH1 0x20 ADD DUP7 PUSH1 0x2 PUSH1 0x4 DUP2 LT PUSH2 0x1E4E JUMPI PUSH2 0x1E4D PUSH2 0x2FCE JUMP JUMPDEST JUMPDEST PUSH1 0x20 MUL ADD MLOAD PUSH1 0x1 PUSH1 0x4 DUP2 LT PUSH2 0x1E66 JUMPI PUSH2 0x1E65 PUSH2 0x2FCE JUMP JUMPDEST JUMPDEST PUSH1 0x20 MUL ADD MLOAD PUSH1 0xFF AND PUSH1 0xFF AND DUP2 MSTORE POP SWAP1 POP PUSH0 PUSH1 0x40 MLOAD DUP1 PUSH1 0x80 ADD PUSH1 0x40 MSTORE DUP1 DUP8 PUSH1 0x3 PUSH1 0x4 DUP2 LT PUSH2 0x1E96 JUMPI PUSH2 0x1E95 PUSH2 0x2FCE JUMP JUMPDEST JUMPDEST PUSH1 0x20 MUL ADD MLOAD PUSH1 0x3 PUSH1 0x4 DUP2 LT PUSH2 0x1EAE JUMPI PUSH2 0x1EAD PUSH2 0x2FCE JUMP JUMPDEST JUMPDEST PUSH1 0x20 MUL ADD MLOAD PUSH1 0xFF AND PUSH1 0xFF AND DUP2 MSTORE PUSH1 0x20 ADD DUP8 PUSH1 0x3 PUSH1 0x4 DUP2 LT PUSH2 0x1ED2 JUMPI PUSH2 0x1ED1 PUSH2 0x2FCE JUMP JUMPDEST JUMPDEST PUSH1 0x20 MUL ADD MLOAD PUSH0 PUSH1 0x4 DUP2 LT PUSH2 0x1EE9 JUMPI PUSH2 0x1EE8 PUSH2 0x2FCE JUMP JUMPDEST JUMPDEST PUSH1 0x20 MUL ADD MLOAD PUSH1 0xFF AND PUSH1 0xFF AND DUP2 MSTORE PUSH1 0x20 ADD DUP8 PUSH1 0x3 PUSH1 0x4 DUP2 LT PUSH2 0x1F0D JUMPI PUSH2 0x1F0C PUSH2 0x2FCE JUMP JUMPDEST JUMPDEST PUSH1 0x20 MUL ADD MLOAD PUSH1 0x1 PUSH1 0x4 DUP2 LT PUSH2 0x1F25 JUMPI PUSH2 0x1F24 PUSH2 0x2FCE JUMP JUMPDEST JUMPDEST PUSH1 0x20 MUL ADD MLOAD PUSH1 0xFF AND PUSH1 0xFF AND DUP2 MSTORE PUSH1 0x20 ADD DUP8 PUSH1 0x3 PUSH1 0x4 DUP2 LT PUSH2 0x1F49 JUMPI PUSH2 0x1F48 PUSH2 0x2FCE JUMP JUMPDEST JUMPDEST PUSH1 0x20 MUL ADD MLOAD PUSH1 0x2 PUSH1 0x4 DUP2 LT PUSH2 0x1F61 JUMPI PUSH2 0x1F60 PUSH2 0x2FCE JUMP JUMPDEST JUMPDEST PUSH1 0x20 MUL ADD MLOAD PUSH1 0xFF AND PUSH1 0xFF AND DUP2 MSTORE POP SWAP1 POP PUSH1 0x40 MLOAD DUP1 PUSH1 0x80 ADD PUSH1 0x40 MSTORE DUP1 DUP6 DUP2 MSTORE PUSH1 0x20 ADD DUP5 DUP2 MSTORE PUSH1 0x20 ADD DUP4 DUP2 MSTORE PUSH1 0x20 ADD DUP3 DUP2 MSTORE POP SWAP5 POP POP POP POP POP SWAP2 SWAP1 POP JUMP JUMPDEST PUSH2 0x1FA5 PUSH2 0x2BC3 JUMP JUMPDEST PUSH0 PUSH1 0x40 MLOAD DUP1 PUSH1 0x80 ADD PUSH1 0x40 MSTORE DUP1 PUSH1 0x40 MLOAD DUP1 PUSH1 0x80 ADD PUSH1 0x40 MSTORE DUP1 PUSH0 PUSH1 0xFF AND DUP2 MSTORE PUSH1 0x20 ADD PUSH0 PUSH1 0xFF AND DUP2 MSTORE PUSH1 0x20 ADD PUSH0 PUSH1 0xFF AND DUP2 MSTORE PUSH1 0x20 ADD PUSH0 PUSH1 0xFF AND DUP2 MSTORE POP DUP2 MSTORE PUSH1 0x20 ADD PUSH1 0x40 MLOAD DUP1 PUSH1 0x80 ADD PUSH1 0x40 MSTORE DUP1 PUSH0 PUSH1 0xFF AND DUP2 MSTORE PUSH1 0x20 ADD PUSH0 PUSH1 0xFF AND DUP2 MSTORE PUSH1 0x20 ADD PUSH0 PUSH1 0xFF AND DUP2 MSTORE PUSH1 0x20 ADD PUSH0 PUSH1 0xFF AND DUP2 MSTORE POP DUP2 MSTORE PUSH1 0x20 ADD PUSH1 0x40 MLOAD DUP1 PUSH1 0x80 ADD PUSH1 0x40 MSTORE DUP1 PUSH0 PUSH1 0xFF AND DUP2 MSTORE PUSH1 0x20 ADD PUSH0 PUSH1 0xFF AND DUP2 MSTORE PUSH1 0x20 ADD PUSH0 PUSH1 0xFF AND DUP2 MSTORE PUSH1 0x20 ADD PUSH0 PUSH1 0xFF AND DUP2 MSTORE POP DUP2 MSTORE PUSH1 0x20 ADD PUSH1 0x40 MLOAD DUP1 PUSH1 0x80 ADD PUSH1 0x40 MSTORE DUP1 PUSH0 PUSH1 0xFF AND DUP2 MSTORE PUSH1 0x20 ADD PUSH0 PUSH1 0xFF AND DUP2 MSTORE PUSH1 0x20 ADD PUSH0 PUSH1 0xFF AND DUP2 MSTORE PUSH1 0x20 ADD PUSH0 PUSH1 0xFF AND DUP2 MSTORE POP DUP2 MSTORE POP SWAP1 POP PUSH0 JUMPDEST PUSH1 0x4 DUP2 LT ISZERO PUSH2 0x25AB JUMPI PUSH0 JUMPDEST PUSH1 0x4 DUP2 LT ISZERO PUSH2 0x2106 JUMPI DUP5 DUP2 PUSH1 0x4 DUP2 LT PUSH2 0x20A2 JUMPI PUSH2 0x20A1 PUSH2 0x2FCE JUMP JUMPDEST JUMPDEST PUSH1 0x20 MUL ADD MLOAD DUP3 PUSH1 0x4 DUP2 LT PUSH2 0x20B9 JUMPI PUSH2 0x20B8 PUSH2 0x2FCE JUMP JUMPDEST JUMPDEST PUSH1 0x20 MUL ADD MLOAD DUP4 DUP3 PUSH1 0x4 DUP2 LT PUSH2 0x20D1 JUMPI PUSH2 0x20D0 PUSH2 0x2FCE JUMP JUMPDEST JUMPDEST PUSH1 0x20 MUL ADD MLOAD DUP4 PUSH1 0x4 DUP2 LT PUSH2 0x20E8 JUMPI PUSH2 0x20E7 PUSH2 0x2FCE JUMP JUMPDEST JUMPDEST PUSH1 0x20 MUL ADD SWAP1 PUSH1 0xFF AND SWAP1 DUP2 PUSH1 0xFF AND DUP2 MSTORE POP POP DUP1 DUP1 PUSH1 0x1 ADD SWAP2 POP POP PUSH2 0x2086 JUMP JUMPDEST POP PUSH2 0x2141 DUP3 PUSH1 0x3 PUSH1 0x4 DUP2 LT PUSH2 0x211E JUMPI PUSH2 0x211D PUSH2 0x2FCE JUMP JUMPDEST JUMPDEST PUSH1 0x20 MUL ADD MLOAD DUP3 PUSH1 0x4 DUP2 LT PUSH2 0x2135 JUMPI PUSH2 0x2134 PUSH2 0x2FCE JUMP JUMPDEST JUMPDEST PUSH1 0x20 MUL ADD MLOAD PUSH1 0x1 PUSH2 0x29C2 JUMP JUMPDEST PUSH2 0x217B DUP4 PUSH1 0x2 PUSH1 0x4 DUP2 LT PUSH2 0x2158 JUMPI PUSH2 0x2157 PUSH2 0x2FCE JUMP JUMPDEST JUMPDEST PUSH1 0x20 MUL ADD MLOAD DUP4 PUSH1 0x4 DUP2 LT PUSH2 0x216F JUMPI PUSH2 0x216E PUSH2 0x2FCE JUMP JUMPDEST JUMPDEST PUSH1 0x20 MUL ADD MLOAD PUSH1 0x1 PUSH2 0x29C2 JUMP JUMPDEST PUSH2 0x21B5 DUP5 PUSH1 0x1 PUSH1 0x4 DUP2 LT PUSH2 0x2192 JUMPI PUSH2 0x2191 PUSH2 0x2FCE JUMP JUMPDEST JUMPDEST PUSH1 0x20 MUL ADD MLOAD DUP5 PUSH1 0x4 DUP2 LT PUSH2 0x21A9 JUMPI PUSH2 0x21A8 PUSH2 0x2FCE JUMP JUMPDEST JUMPDEST PUSH1 0x20 MUL ADD MLOAD PUSH1 0x3 PUSH2 0x29C2 JUMP JUMPDEST PUSH2 0x21EE DUP6 PUSH0 PUSH1 0x4 DUP2 LT PUSH2 0x21CB JUMPI PUSH2 0x21CA PUSH2 0x2FCE JUMP JUMPDEST JUMPDEST PUSH1 0x20 MUL ADD MLOAD DUP6 PUSH1 0x4 DUP2 LT PUSH2 0x21E2 JUMPI PUSH2 0x21E1 PUSH2 0x2FCE JUMP JUMPDEST JUMPDEST PUSH1 0x20 MUL ADD MLOAD PUSH1 0x2 PUSH2 0x29C2 JUMP JUMPDEST XOR XOR XOR DUP5 PUSH0 PUSH1 0x4 DUP2 LT PUSH2 0x2204 JUMPI PUSH2 0x2203 PUSH2 0x2FCE JUMP JUMPDEST JUMPDEST PUSH1 0x20 MUL ADD MLOAD DUP3 PUSH1 0x4 DUP2 LT PUSH2 0x221B JUMPI PUSH2 0x221A PUSH2 0x2FCE JUMP JUMPDEST JUMPDEST PUSH1 0x20 MUL ADD SWAP1 PUSH1 0xFF AND SWAP1 DUP2 PUSH1 0xFF AND DUP2 MSTORE POP POP PUSH2 0x2266 DUP3 PUSH1 0x3 PUSH1 0x4 DUP2 LT PUSH2 0x2243 JUMPI PUSH2 0x2242 PUSH2 0x2FCE JUMP JUMPDEST JUMPDEST PUSH1 0x20 MUL ADD MLOAD DUP3 PUSH1 0x4 DUP2 LT PUSH2 0x225A JUMPI PUSH2 0x2259 PUSH2 0x2FCE JUMP JUMPDEST JUMPDEST PUSH1 0x20 MUL ADD MLOAD PUSH1 0x1 PUSH2 0x29C2 JUMP JUMPDEST PUSH2 0x22A0 DUP4 PUSH1 0x2 PUSH1 0x4 DUP2 LT PUSH2 0x227D JUMPI PUSH2 0x227C PUSH2 0x2FCE JUMP JUMPDEST JUMPDEST PUSH1 0x20 MUL ADD MLOAD DUP4 PUSH1 0x4 DUP2 LT PUSH2 0x2294 JUMPI PUSH2 0x2293 PUSH2 0x2FCE JUMP JUMPDEST JUMPDEST PUSH1 0x20 MUL ADD MLOAD PUSH1 0x3 PUSH2 0x29C2 JUMP JUMPDEST PUSH2 0x22DA DUP5 PUSH1 0x1 PUSH1 0x4 DUP2 LT PUSH2 0x22B7 JUMPI PUSH2 0x22B6 PUSH2 0x2FCE JUMP JUMPDEST JUMPDEST PUSH1 0x20 MUL ADD MLOAD DUP5 PUSH1 0x4 DUP2 LT PUSH2 0x22CE JUMPI PUSH2 0x22CD PUSH2 0x2FCE JUMP JUMPDEST JUMPDEST PUSH1 0x20 MUL ADD MLOAD PUSH1 0x2 PUSH2 0x29C2 JUMP JUMPDEST PUSH2 0x2313 DUP6 PUSH0 PUSH1 0x4 DUP2 LT PUSH2 0x22F0 JUMPI PUSH2 0x22EF PUSH2 0x2FCE JUMP JUMPDEST JUMPDEST PUSH1 0x20 MUL ADD MLOAD DUP6 PUSH1 0x4 DUP2 LT PUSH2 0x2307 JUMPI PUSH2 0x2306 PUSH2 0x2FCE JUMP JUMPDEST JUMPDEST PUSH1 0x20 MUL ADD MLOAD PUSH1 0x1 PUSH2 0x29C2 JUMP JUMPDEST XOR XOR XOR DUP5 PUSH1 0x1 PUSH1 0x4 DUP2 LT PUSH2 0x232A JUMPI PUSH2 0x2329 PUSH2 0x2FCE JUMP JUMPDEST JUMPDEST PUSH1 0x20 MUL ADD MLOAD DUP3 PUSH1 0x4 DUP2 LT PUSH2 0x2341 JUMPI PUSH2 0x2340 PUSH2 0x2FCE JUMP JUMPDEST JUMPDEST PUSH1 0x20 MUL ADD SWAP1 PUSH1 0xFF AND SWAP1 DUP2 PUSH1 0xFF AND DUP2 MSTORE POP POP PUSH2 0x238C DUP3 PUSH1 0x3 PUSH1 0x4 DUP2 LT PUSH2 0x2369 JUMPI PUSH2 0x2368 PUSH2 0x2FCE JUMP JUMPDEST JUMPDEST PUSH1 0x20 MUL ADD MLOAD DUP3 PUSH1 0x4 DUP2 LT PUSH2 0x2380 JUMPI PUSH2 0x237F PUSH2 0x2FCE JUMP JUMPDEST JUMPDEST PUSH1 0x20 MUL ADD MLOAD PUSH1 0x3 PUSH2 0x29C2 JUMP JUMPDEST PUSH2 0x23C6 DUP4 PUSH1 0x2 PUSH1 0x4 DUP2 LT PUSH2 0x23A3 JUMPI PUSH2 0x23A2 PUSH2 0x2FCE JUMP JUMPDEST JUMPDEST PUSH1 0x20 MUL ADD MLOAD DUP4 PUSH1 0x4 DUP2 LT PUSH2 0x23BA JUMPI PUSH2 0x23B9 PUSH2 0x2FCE JUMP JUMPDEST JUMPDEST PUSH1 0x20 MUL ADD MLOAD PUSH1 0x2 PUSH2 0x29C2 JUMP JUMPDEST PUSH2 0x2400 DUP5 PUSH1 0x1 PUSH1 0x4 DUP2 LT PUSH2 0x23DD JUMPI PUSH2 0x23DC PUSH2 0x2FCE JUMP JUMPDEST JUMPDEST PUSH1 0x20 MUL ADD MLOAD DUP5 PUSH1 0x4 DUP2 LT PUSH2 0x23F4 JUMPI PUSH2 0x23F3 PUSH2 0x2FCE JUMP JUMPDEST JUMPDEST PUSH1 0x20 MUL ADD MLOAD PUSH1 0x1 PUSH2 0x29C2 JUMP JUMPDEST PUSH2 0x2439 DUP6 PUSH0 PUSH1 0x4 DUP2 LT PUSH2 0x2416 JUMPI PUSH2 0x2415 PUSH2 0x2FCE JUMP JUMPDEST JUMPDEST PUSH1 0x20 MUL ADD MLOAD DUP6 PUSH1 0x4 DUP2 LT PUSH2 0x242D JUMPI PUSH2 0x242C PUSH2 0x2FCE JUMP JUMPDEST JUMPDEST PUSH1 0x20 MUL ADD MLOAD PUSH1 0x1 PUSH2 0x29C2 JUMP JUMPDEST XOR XOR XOR DUP5 PUSH1 0x2 PUSH1 0x4 DUP2 LT PUSH2 0x2450 JUMPI PUSH2 0x244F PUSH2 0x2FCE JUMP JUMPDEST JUMPDEST PUSH1 0x20 MUL ADD MLOAD DUP3 PUSH1 0x4 DUP2 LT PUSH2 0x2467 JUMPI PUSH2 0x2466 PUSH2 0x2FCE JUMP JUMPDEST JUMPDEST PUSH1 0x20 MUL ADD SWAP1 PUSH1 0xFF AND SWAP1 DUP2 PUSH1 0xFF AND DUP2 MSTORE POP POP PUSH2 0x24B2 DUP3 PUSH1 0x3 PUSH1 0x4 DUP2 LT PUSH2 0x248F JUMPI PUSH2 0x248E PUSH2 0x2FCE JUMP JUMPDEST JUMPDEST PUSH1 0x20 MUL ADD MLOAD DUP3 PUSH1 0x4 DUP2 LT PUSH2 0x24A6 JUMPI PUSH2 0x24A5 PUSH2 0x2FCE JUMP JUMPDEST JUMPDEST PUSH1 0x20 MUL ADD MLOAD PUSH1 0x2 PUSH2 0x29C2 JUMP JUMPDEST PUSH2 0x24EC DUP4 PUSH1 0x2 PUSH1 0x4 DUP2 LT PUSH2 0x24C9 JUMPI PUSH2 0x24C8 PUSH2 0x2FCE JUMP JUMPDEST JUMPDEST PUSH1 0x20 MUL ADD MLOAD DUP4 PUSH1 0x4 DUP2 LT PUSH2 0x24E0 JUMPI PUSH2 0x24DF PUSH2 0x2FCE JUMP JUMPDEST JUMPDEST PUSH1 0x20 MUL ADD MLOAD PUSH1 0x1 PUSH2 0x29C2 JUMP JUMPDEST PUSH2 0x2526 DUP5 PUSH1 0x1 PUSH1 0x4 DUP2 LT PUSH2 0x2503 JUMPI PUSH2 0x2502 PUSH2 0x2FCE JUMP JUMPDEST JUMPDEST PUSH1 0x20 MUL ADD MLOAD DUP5 PUSH1 0x4 DUP2 LT PUSH2 0x251A JUMPI PUSH2 0x2519 PUSH2 0x2FCE JUMP JUMPDEST JUMPDEST PUSH1 0x20 MUL ADD MLOAD PUSH1 0x1 PUSH2 0x29C2 JUMP JUMPDEST PUSH2 0x255F DUP6 PUSH0 PUSH1 0x4 DUP2 LT PUSH2 0x253C JUMPI PUSH2 0x253B PUSH2 0x2FCE JUMP JUMPDEST JUMPDEST PUSH1 0x20 MUL ADD MLOAD DUP6 PUSH1 0x4 DUP2 LT PUSH2 0x2553 JUMPI PUSH2 0x2552 PUSH2 0x2FCE JUMP JUMPDEST JUMPDEST PUSH1 0x20 MUL ADD MLOAD PUSH1 0x3 PUSH2 0x29C2 JUMP JUMPDEST XOR XOR XOR DUP5 PUSH1 0x3 PUSH1 0x4 DUP2 LT PUSH2 0x2576 JUMPI PUSH2 0x2575 PUSH2 0x2FCE JUMP JUMPDEST JUMPDEST PUSH1 0x20 MUL ADD MLOAD DUP3 PUSH1 0x4 DUP2 LT PUSH2 0x258D JUMPI PUSH2 0x258C PUSH2 0x2FCE JUMP JUMPDEST JUMPDEST PUSH1 0x20 MUL ADD SWAP1 PUSH1 0xFF AND SWAP1 DUP2 PUSH1 0xFF AND DUP2 MSTORE POP POP DUP1 DUP1 PUSH1 0x1 ADD SWAP2 POP POP PUSH2 0x207B JUMP JUMPDEST POP DUP3 SWAP2 POP POP SWAP2 SWAP1 POP JUMP JUMPDEST PUSH1 0x60 DUP2 PUSH1 0x1F DUP4 PUSH2 0x25C5 SWAP2 SWAP1 PUSH2 0x3230 JUMP JUMPDEST LT ISZERO PUSH2 0x2606 JUMPI PUSH1 0x40 MLOAD PUSH32 0x8C379A000000000000000000000000000000000000000000000000000000000 DUP2 MSTORE PUSH1 0x4 ADD PUSH2 0x25FD SWAP1 PUSH2 0x35DD JUMP JUMPDEST PUSH1 0x40 MLOAD DUP1 SWAP2 SUB SWAP1 REVERT JUMPDEST DUP2 DUP4 PUSH2 0x2612 SWAP2 SWAP1 PUSH2 0x3230 JUMP JUMPDEST DUP5 MLOAD LT ISZERO PUSH2 0x2655 JUMPI PUSH1 0x40 MLOAD PUSH32 0x8C379A000000000000000000000000000000000000000000000000000000000 DUP2 MSTORE PUSH1 0x4 ADD PUSH2 0x264C SWAP1 PUSH2 0x3645 JUMP JUMPDEST PUSH1 0x40 MLOAD DUP1 SWAP2 SUB SWAP1 REVERT JUMPDEST PUSH1 0x60 DUP3 ISZERO PUSH0 DUP2 EQ PUSH2 0x2674 JUMPI PUSH1 0x40 MLOAD SWAP2 POP PUSH0 DUP3 MSTORE PUSH1 0x20 DUP3 ADD PUSH1 0x40 MSTORE PUSH2 0x26C5 JUMP JUMPDEST PUSH1 0x40 MLOAD SWAP2 POP PUSH1 0x1F DUP5 AND DUP1 ISZERO PUSH1 0x20 MUL DUP2 DUP5 ADD ADD DUP6 DUP2 ADD DUP8 DUP4 ISZERO PUSH1 0x20 MUL DUP5 DUP12 ADD ADD ADD JUMPDEST DUP2 DUP4 LT ISZERO PUSH2 0x26B2 JUMPI DUP1 MLOAD DUP4 MSTORE PUSH1 0x20 DUP4 ADD SWAP3 POP PUSH1 0x20 DUP2 ADD SWAP1 POP PUSH2 0x2695 JUMP JUMPDEST POP DUP7 DUP6 MSTORE PUSH1 0x1F NOT PUSH1 0x1F DUP4 ADD AND PUSH1 0x40 MSTORE POP POP POP JUMPDEST POP DUP1 SWAP2 POP POP SWAP4 SWAP3 POP POP POP JUMP JUMPDEST PUSH2 0x26D9 PUSH2 0x2BF0 JUMP JUMPDEST PUSH0 PUSH1 0x40 MLOAD DUP1 PUSH1 0x80 ADD PUSH1 0x40 MSTORE DUP1 PUSH0 PUSH1 0xFF AND DUP2 MSTORE PUSH1 0x20 ADD PUSH0 PUSH1 0xFF AND DUP2 MSTORE PUSH1 0x20 ADD PUSH0 PUSH1 0xFF AND DUP2 MSTORE PUSH1 0x20 ADD PUSH0 PUSH1 0xFF AND DUP2 MSTORE POP SWAP1 POP DUP3 PUSH1 0x1 PUSH1 0x4 DUP2 LT PUSH2 0x271D JUMPI PUSH2 0x271C PUSH2 0x2FCE JUMP JUMPDEST JUMPDEST PUSH1 0x20 MUL ADD MLOAD DUP2 PUSH0 PUSH1 0x4 DUP2 LT PUSH2 0x2735 JUMPI PUSH2 0x2734 PUSH2 0x2FCE JUMP JUMPDEST JUMPDEST PUSH1 0x20 MUL ADD SWAP1 PUSH1 0xFF AND SWAP1 DUP2 PUSH1 0xFF AND DUP2 MSTORE POP POP DUP3 PUSH1 0x2 PUSH1 0x4 DUP2 LT PUSH2 0x275A JUMPI PUSH2 0x2759 PUSH2 0x2FCE JUMP JUMPDEST JUMPDEST PUSH1 0x20 MUL ADD MLOAD DUP2 PUSH1 0x1 PUSH1 0x4 DUP2 LT PUSH2 0x2773 JUMPI PUSH2 0x2772 PUSH2 0x2FCE JUMP JUMPDEST JUMPDEST PUSH1 0x20 MUL ADD SWAP1 PUSH1 0xFF AND SWAP1 DUP2 PUSH1 0xFF AND DUP2 MSTORE POP POP DUP3 PUSH1 0x3 PUSH1 0x4 DUP2 LT PUSH2 0x2798 JUMPI PUSH2 0x2797 PUSH2 0x2FCE JUMP JUMPDEST JUMPDEST PUSH1 0x20 MUL ADD MLOAD DUP2 PUSH1 0x2 PUSH1 0x4 DUP2 LT PUSH2 0x27B1 JUMPI PUSH2 0x27B0 PUSH2 0x2FCE JUMP JUMPDEST JUMPDEST PUSH1 0x20 MUL ADD SWAP1 PUSH1 0xFF AND SWAP1 DUP2 PUSH1 0xFF AND DUP2 MSTORE POP POP DUP3 PUSH0 PUSH1 0x4 DUP2 LT PUSH2 0x27D5 JUMPI PUSH2 0x27D4 PUSH2 0x2FCE JUMP JUMPDEST JUMPDEST PUSH1 0x20 MUL ADD MLOAD DUP2 PUSH1 0x3 PUSH1 0x4 DUP2 LT PUSH2 0x27EE JUMPI PUSH2 0x27ED PUSH2 0x2FCE JUMP JUMPDEST JUMPDEST PUSH1 0x20 MUL ADD SWAP1 PUSH1 0xFF AND SWAP1 DUP2 PUSH1 0xFF AND DUP2 MSTORE POP POP DUP1 SWAP2 POP POP SWAP2 SWAP1 POP JUMP JUMPDEST PUSH2 0x2810 PUSH2 0x2BF0 JUMP JUMPDEST PUSH1 0x8 DUP3 PUSH0 PUSH1 0x4 DUP2 LT PUSH2 0x2825 JUMPI PUSH2 0x2824 PUSH2 0x2FCE JUMP JUMPDEST JUMPDEST PUSH1 0x20 MUL ADD MLOAD PUSH1 0xFF AND PUSH2 0x100 DUP2 LT PUSH2 0x283F JUMPI PUSH2 0x283E PUSH2 0x2FCE JUMP JUMPDEST JUMPDEST PUSH1 0x20 SWAP2 DUP3 DUP3 DIV ADD SWAP2 SWAP1 MOD SWAP1 SLOAD SWAP1 PUSH2 0x100 EXP SWAP1 DIV PUSH1 0xFF AND DUP3 PUSH0 PUSH1 0x4 DUP2 LT PUSH2 0x2868 JUMPI PUSH2 0x2867 PUSH2 0x2FCE JUMP JUMPDEST JUMPDEST PUSH1 0x20 MUL ADD SWAP1 PUSH1 0xFF AND SWAP1 DUP2 PUSH1 0xFF AND DUP2 MSTORE POP POP PUSH1 0x8 DUP3 PUSH1 0x1 PUSH1 0x4 DUP2 LT PUSH2 0x288F JUMPI PUSH2 0x288E PUSH2 0x2FCE JUMP JUMPDEST JUMPDEST PUSH1 0x20 MUL ADD MLOAD PUSH1 0xFF AND PUSH2 0x100 DUP2 LT PUSH2 0x28A9 JUMPI PUSH2 0x28A8 PUSH2 0x2FCE JUMP JUMPDEST JUMPDEST PUSH1 0x20 SWAP2 DUP3 DUP3 DIV ADD SWAP2 SWAP1 MOD SWAP1 SLOAD SWAP1 PUSH2 0x100 EXP SWAP1 DIV PUSH1 0xFF AND DUP3 PUSH1 0x1 PUSH1 0x4 DUP2 LT PUSH2 0x28D3 JUMPI PUSH2 0x28D2 PUSH2 0x2FCE JUMP JUMPDEST JUMPDEST PUSH1 0x20 MUL ADD SWAP1 PUSH1 0xFF AND SWAP1 DUP2 PUSH1 0xFF AND DUP2 MSTORE POP POP PUSH1 0x8 DUP3 PUSH1 0x2 PUSH1 0x4 DUP2 LT PUSH2 0x28FA JUMPI PUSH2 0x28F9 PUSH2 0x2FCE JUMP JUMPDEST JUMPDEST PUSH1 0x20 MUL ADD MLOAD PUSH1 0xFF AND PUSH2 0x100 DUP2 LT PUSH2 0x2914 JUMPI PUSH2 0x2913 PUSH2 0x2FCE JUMP JUMPDEST JUMPDEST PUSH1 0x20 SWAP2 DUP3 DUP3 DIV ADD SWAP2 SWAP1 MOD SWAP1 SLOAD SWAP1 PUSH2 0x100 EXP SWAP1 DIV PUSH1 0xFF AND DUP3 PUSH1 0x2 PUSH1 0x4 DUP2 LT PUSH2 0x293E JUMPI PUSH2 0x293D PUSH2 0x2FCE JUMP JUMPDEST JUMPDEST PUSH1 0x20 MUL ADD SWAP1 PUSH1 0xFF AND SWAP1 DUP2 PUSH1 0xFF AND DUP2 MSTORE POP POP PUSH1 0x8 DUP3 PUSH1 0x3 PUSH1 0x4 DUP2 LT PUSH2 0x2965 JUMPI PUSH2 0x2964 PUSH2 0x2FCE JUMP JUMPDEST JUMPDEST PUSH1 0x20 MUL ADD MLOAD PUSH1 0xFF AND PUSH2 0x100 DUP2 LT PUSH2 0x297F JUMPI PUSH2 0x297E PUSH2 0x2FCE JUMP JUMPDEST JUMPDEST PUSH1 0x20 SWAP2 DUP3 DUP3 DIV ADD SWAP2 SWAP1 MOD SWAP1 SLOAD SWAP1 PUSH2 0x100 EXP SWAP1 DIV PUSH1 0xFF AND DUP3 PUSH1 0x3 PUSH1 0x4 DUP2 LT PUSH2 0x29A9 JUMPI PUSH2 0x29A8 PUSH2 0x2FCE JUMP JUMPDEST JUMPDEST PUSH1 0x20 MUL ADD SWAP1 PUSH1 0xFF AND SWAP1 DUP2 PUSH1 0xFF AND DUP2 MSTORE POP POP DUP2 SWAP1 POP SWAP2 SWAP1 POP JUMP JUMPDEST PUSH0 DUP1 DUP4 PUSH1 0xFF AND EQ DUP1 PUSH2 0x29D6 JUMPI POP PUSH0 DUP3 PUSH1 0xFF AND EQ JUMPDEST ISZERO PUSH2 0x29E3 JUMPI PUSH0 SWAP1 POP PUSH2 0x2A9B JUMP JUMPDEST PUSH0 PUSH1 0x18 DUP5 PUSH1 0xFF AND PUSH2 0x100 DUP2 LT PUSH2 0x29FC JUMPI PUSH2 0x29FB PUSH2 0x2FCE JUMP JUMPDEST JUMPDEST PUSH1 0x20 SWAP2 DUP3 DUP3 DIV ADD SWAP2 SWAP1 MOD SWAP1 SLOAD SWAP1 PUSH2 0x100 EXP SWAP1 DIV PUSH1 0xFF AND PUSH1 0xFF AND SWAP1 POP PUSH0 PUSH1 0x18 DUP5 PUSH1 0xFF AND PUSH2 0x100 DUP2 LT PUSH2 0x2A30 JUMPI PUSH2 0x2A2F PUSH2 0x2FCE JUMP JUMPDEST JUMPDEST PUSH1 0x20 SWAP2 DUP3 DUP3 DIV ADD SWAP2 SWAP1 MOD SWAP1 SLOAD SWAP1 PUSH2 0x100 EXP SWAP1 DIV PUSH1 0xFF AND PUSH1 0xFF AND SWAP1 POP PUSH0 PUSH1 0xFF DUP3 DUP5 PUSH2 0x2A5A SWAP2 SWAP1 PUSH2 0x3670 JUMP JUMPDEST PUSH2 0x2A64 SWAP2 SWAP1 PUSH2 0x36A5 JUMP JUMPDEST SWAP1 POP PUSH1 0x20 DUP2 PUSH2 0xFFFF AND PUSH2 0x100 DUP2 LT PUSH2 0x2A7F JUMPI PUSH2 0x2A7E PUSH2 0x2FCE JUMP JUMPDEST JUMPDEST PUSH1 0x20 SWAP2 DUP3 DUP3 DIV ADD SWAP2 SWAP1 MOD SWAP1 SLOAD SWAP1 PUSH2 0x100 EXP SWAP1 DIV PUSH1 0xFF AND SWAP4 POP POP POP POP JUMPDEST SWAP3 SWAP2 POP POP JUMP JUMPDEST DUP3 DUP1 SLOAD DUP3 DUP3 SSTORE SWAP1 PUSH0 MSTORE PUSH1 0x20 PUSH0 KECCAK256 SWAP1 PUSH1 0x1 ADD PUSH1 0x2 SWAP1 DIV DUP2 ADD SWAP3 DUP3 ISZERO PUSH2 0x2B61 JUMPI SWAP2 PUSH1 0x20 MUL DUP3 ADD PUSH0 JUMPDEST DUP4 DUP3 GT ISZERO PUSH2 0x2B23 JUMPI DUP4 MLOAD DUP4 DUP3 PUSH2 0x100 EXP DUP2 SLOAD DUP2 PUSH16 0xFFFFFFFFFFFFFFFFFFFFFFFFFFFFFFFF MUL NOT AND SWAP1 DUP4 PUSH16 0xFFFFFFFFFFFFFFFFFFFFFFFFFFFFFFFF AND MUL OR SWAP1 SSTORE POP SWAP3 PUSH1 0x20 ADD SWAP3 PUSH1 0x10 ADD PUSH1 0x20 DUP2 PUSH1 0xF ADD DIV SWAP3 DUP4 ADD SWAP3 PUSH1 0x1 SUB MUL PUSH2 0x2AC7 JUMP JUMPDEST DUP1 ISZERO PUSH2 0x2B5F JUMPI DUP3 DUP2 PUSH2 0x100 EXP DUP2 SLOAD SWAP1 PUSH16 0xFFFFFFFFFFFFFFFFFFFFFFFFFFFFFFFF MUL NOT AND SWAP1 SSTORE PUSH1 0x10 ADD PUSH1 0x20 DUP2 PUSH1 0xF ADD DIV SWAP3 DUP4 ADD SWAP3 PUSH1 0x1 SUB MUL PUSH2 0x2B23 JUMP JUMPDEST POP JUMPDEST POP SWAP1 POP PUSH2 0x2B6E SWAP2 SWAP1 PUSH2 0x2C12 JUMP JUMPDEST POP SWAP1 JUMP JUMPDEST PUSH1 0x40 MLOAD DUP1 PUSH2 0x200 ADD PUSH1 0x40 MSTORE DUP1 PUSH1 0x10 SWAP1 PUSH1 0x20 DUP3 MUL DUP1 CALLDATASIZE DUP4 CALLDATACOPY DUP1 DUP3 ADD SWAP2 POP POP SWAP1 POP POP SWAP1 JUMP JUMPDEST PUSH1 0x40 MLOAD DUP1 PUSH2 0x580 ADD PUSH1 0x40 MSTORE DUP1 PUSH1 0x2C SWAP1 JUMPDEST PUSH2 0x2BAD PUSH2 0x2BF0 JUMP JUMPDEST DUP2 MSTORE PUSH1 0x20 ADD SWAP1 PUSH1 0x1 SWAP1 SUB SWAP1 DUP2 PUSH2 0x2BA5 JUMPI SWAP1 POP POP SWAP1 JUMP JUMPDEST PUSH1 0x40 MLOAD DUP1 PUSH1 0x80 ADD PUSH1 0x40 MSTORE DUP1 PUSH1 0x4 SWAP1 JUMPDEST PUSH2 0x2BDA PUSH2 0x2BF0 JUMP JUMPDEST DUP2 MSTORE PUSH1 0x20 ADD SWAP1 PUSH1 0x1 SWAP1 SUB SWAP1 DUP2 PUSH2 0x2BD2 JUMPI SWAP1 POP POP SWAP1 JUMP JUMPDEST PUSH1 0x40 MLOAD DUP1 PUSH1 0x80 ADD PUSH1 0x40 MSTORE DUP1 PUSH1 0x4 SWAP1 PUSH1 0x20 DUP3 MUL DUP1 CALLDATASIZE DUP4 CALLDATACOPY DUP1 DUP3 ADD SWAP2 POP POP SWAP1 POP POP SWAP1 JUMP JUMPDEST JUMPDEST DUP1 DUP3 GT ISZERO PUSH2 0x2C29 JUMPI PUSH0 DUP2 PUSH0 SWAP1 SSTORE POP PUSH1 0x1 ADD PUSH2 0x2C13 JUMP JUMPDEST POP SWAP1 JUMP JUMPDEST PUSH0 DUP2 ISZERO ISZERO SWAP1 POP SWAP2 SWAP1 POP JUMP JUMPDEST PUSH2 0x2C41 DUP2 PUSH2 0x2C2D JUMP JUMPDEST DUP3 MSTORE POP POP JUMP JUMPDEST PUSH0 PUSH1 0x20 DUP3 ADD SWAP1 POP PUSH2 0x2C5A PUSH0 DUP4 ADD DUP5 PUSH2 0x2C38 JUMP JUMPDEST SWAP3 SWAP2 POP POP JUMP JUMPDEST PUSH0 DUP2 MLOAD SWAP1 POP SWAP2 SWAP1 POP JUMP JUMPDEST PUSH0 DUP3 DUP3 MSTORE PUSH1 0x20 DUP3 ADD SWAP1 POP SWAP3 SWAP2 POP POP JUMP JUMPDEST DUP3 DUP2 DUP4 MCOPY PUSH0 DUP4 DUP4 ADD MSTORE POP POP POP JUMP JUMPDEST PUSH0 PUSH1 0x1F NOT PUSH1 0x1F DUP4 ADD AND SWAP1 POP SWAP2 SWAP1 POP JUMP JUMPDEST PUSH0 PUSH2 0x2CA2 DUP3 PUSH2 0x2C60 JUMP JUMPDEST PUSH2 0x2CAC DUP2 DUP6 PUSH2 0x2C6A JUMP JUMPDEST SWAP4 POP PUSH2 0x2CBC DUP2 DUP6 PUSH1 0x20 DUP7 ADD PUSH2 0x2C7A JUMP JUMPDEST PUSH2 0x2CC5 DUP2 PUSH2 0x2C88 JUMP JUMPDEST DUP5 ADD SWAP2 POP POP SWAP3 SWAP2 POP POP JUMP JUMPDEST PUSH0 PUSH1 0x20 DUP3 ADD SWAP1 POP DUP2 DUP2 SUB PUSH0 DUP4 ADD MSTORE PUSH2 0x2CE8 DUP2 DUP5 PUSH2 0x2C98 JUMP JUMPDEST SWAP1 POP SWAP3 SWAP2 POP POP JUMP JUMPDEST PUSH0 PUSH1 0x40 MLOAD SWAP1 POP SWAP1 JUMP JUMPDEST PUSH0 DUP1 REVERT JUMPDEST PUSH0 DUP1 REVERT JUMPDEST PUSH0 DUP1 REVERT JUMPDEST PUSH0 DUP1 REVERT JUMPDEST PUSH32 0x4E487B7100000000000000000000000000000000000000000000000000000000 PUSH0 MSTORE PUSH1 0x41 PUSH1 0x4 MSTORE PUSH1 0x24 PUSH0 REVERT JUMPDEST PUSH2 0x2D3F DUP3 PUSH2 0x2C88 JUMP JUMPDEST DUP2 ADD DUP2 DUP2 LT PUSH8 0xFFFFFFFFFFFFFFFF DUP3 GT OR ISZERO PUSH2 0x2D5E JUMPI PUSH2 0x2D5D PUSH2 0x2D09 JUMP JUMPDEST JUMPDEST DUP1 PUSH1 0x40 MSTORE POP POP POP JUMP JUMPDEST PUSH0 PUSH2 0x2D70 PUSH2 0x2CF0 JUMP JUMPDEST SWAP1 POP PUSH2 0x2D7C DUP3 DUP3 PUSH2 0x2D36 JUMP JUMPDEST SWAP2 SWAP1 POP JUMP JUMPDEST PUSH0 PUSH8 0xFFFFFFFFFFFFFFFF DUP3 GT ISZERO PUSH2 0x2D9B JUMPI PUSH2 0x2D9A PUSH2 0x2D09 JUMP JUMPDEST JUMPDEST PUSH2 0x2DA4 DUP3 PUSH2 0x2C88 JUMP JUMPDEST SWAP1 POP PUSH1 0x20 DUP2 ADD SWAP1 POP SWAP2 SWAP1 POP JUMP JUMPDEST DUP3 DUP2 DUP4 CALLDATACOPY PUSH0 DUP4 DUP4 ADD MSTORE POP POP POP JUMP JUMPDEST PUSH0 PUSH2 0x2DD1 PUSH2 0x2DCC DUP5 PUSH2 0x2D81 JUMP JUMPDEST PUSH2 0x2D67 JUMP JUMPDEST SWAP1 POP DUP3 DUP2 MSTORE PUSH1 0x20 DUP2 ADD DUP5 DUP5 DUP5 ADD GT ISZERO PUSH2 0x2DED JUMPI PUSH2 0x2DEC PUSH2 0x2D05 JUMP JUMPDEST JUMPDEST PUSH2 0x2DF8 DUP5 DUP3 DUP6 PUSH2 0x2DB1 JUMP JUMPDEST POP SWAP4 SWAP3 POP POP POP JUMP JUMPDEST PUSH0 DUP3 PUSH1 0x1F DUP4 ADD SLT PUSH2 0x2E14 JUMPI PUSH2 0x2E13 PUSH2 0x2D01 JUMP JUMPDEST JUMPDEST DUP2 CALLDATALOAD PUSH2 0x2E24 DUP5 DUP3 PUSH1 0x20 DUP7 ADD PUSH2 0x2DBF JUMP JUMPDEST SWAP2 POP POP SWAP3 SWAP2 POP POP JUMP JUMPDEST PUSH0 DUP1 PUSH0 DUP1 PUSH0 PUSH1 0xA0 DUP7 DUP9 SUB SLT ISZERO PUSH2 0x2E46 JUMPI PUSH2 0x2E45 PUSH2 0x2CF9 JUMP JUMPDEST JUMPDEST PUSH0 DUP7 ADD CALLDATALOAD PUSH8 0xFFFFFFFFFFFFFFFF DUP2 GT ISZERO PUSH2 0x2E63 JUMPI PUSH2 0x2E62 PUSH2 0x2CFD JUMP JUMPDEST JUMPDEST PUSH2 0x2E6F DUP9 DUP3 DUP10 ADD PUSH2 0x2E00 JUMP JUMPDEST SWAP6 POP POP PUSH1 0x20 DUP7 ADD CALLDATALOAD PUSH8 0xFFFFFFFFFFFFFFFF DUP2 GT ISZERO PUSH2 0x2E90 JUMPI PUSH2 0x2E8F PUSH2 0x2CFD JUMP JUMPDEST JUMPDEST PUSH2 0x2E9C DUP9 DUP3 DUP10 ADD PUSH2 0x2E00 JUMP JUMPDEST SWAP5 POP POP PUSH1 0x40 DUP7 ADD CALLDATALOAD PUSH8 0xFFFFFFFFFFFFFFFF DUP2 GT ISZERO PUSH2 0x2EBD JUMPI PUSH2 0x2EBC PUSH2 0x2CFD JUMP JUMPDEST JUMPDEST PUSH2 0x2EC9 DUP9 DUP3 DUP10 ADD PUSH2 0x2E00 JUMP JUMPDEST SWAP4 POP POP PUSH1 0x60 DUP7 ADD CALLDATALOAD PUSH8 0xFFFFFFFFFFFFFFFF DUP2 GT ISZERO PUSH2 0x2EEA JUMPI PUSH2 0x2EE9 PUSH2 0x2CFD JUMP JUMPDEST JUMPDEST PUSH2 0x2EF6 DUP9 DUP3 DUP10 ADD PUSH2 0x2E00 JUMP JUMPDEST SWAP3 POP POP PUSH1 0x80 DUP7 ADD CALLDATALOAD PUSH8 0xFFFFFFFFFFFFFFFF DUP2 GT ISZERO PUSH2 0x2F17 JUMPI PUSH2 0x2F16 PUSH2 0x2CFD JUMP JUMPDEST JUMPDEST PUSH2 0x2F23 DUP9 DUP3 DUP10 ADD PUSH2 0x2E00 JUMP JUMPDEST SWAP2 POP POP SWAP3 SWAP6 POP SWAP3 SWAP6 SWAP1 SWAP4 POP JUMP JUMPDEST PUSH0 DUP3 DUP3 MSTORE PUSH1 0x20 DUP3 ADD SWAP1 POP SWAP3 SWAP2 POP POP JUMP JUMPDEST PUSH32 0x63616C6C207468652066756E6374696F6E20276165735F67636D5F7365742720 PUSH0 DUP3 ADD MSTORE PUSH32 0x6669727374000000000000000000000000000000000000000000000000000000 PUSH1 0x20 DUP3 ADD MSTORE POP JUMP JUMPDEST PUSH0 PUSH2 0x2F9A PUSH1 0x25 DUP4 PUSH2 0x2F30 JUMP JUMPDEST SWAP2 POP PUSH2 0x2FA5 DUP3 PUSH2 0x2F40 JUMP JUMPDEST PUSH1 0x40 DUP3 ADD SWAP1 POP SWAP2 SWAP1 POP JUMP JUMPDEST PUSH0 PUSH1 0x20 DUP3 ADD SWAP1 POP DUP2 DUP2 SUB PUSH0 DUP4 ADD MSTORE PUSH2 0x2FC7 DUP2 PUSH2 0x2F8E JUMP JUMPDEST SWAP1 POP SWAP2 SWAP1 POP JUMP JUMPDEST PUSH32 0x4E487B7100000000000000000000000000000000000000000000000000000000 PUSH0 MSTORE PUSH1 0x32 PUSH1 0x4 MSTORE PUSH1 0x24 PUSH0 REVERT JUMPDEST PUSH32 0x63616C6C207468652066756E6374696F6E20276165735F67636D5F7665726966 PUSH0 DUP3 ADD MSTORE PUSH32 0x7927206669727374000000000000000000000000000000000000000000000000 PUSH1 0x20 DUP3 ADD MSTORE POP JUMP JUMPDEST PUSH0 PUSH2 0x3055 PUSH1 0x28 DUP4 PUSH2 0x2F30 JUMP JUMPDEST SWAP2 POP PUSH2 0x3060 DUP3 PUSH2 0x2FFB JUMP JUMPDEST PUSH1 0x40 DUP3 ADD SWAP1 POP SWAP2 SWAP1 POP JUMP JUMPDEST PUSH0 PUSH1 0x20 DUP3 ADD SWAP1 POP DUP2 DUP2 SUB PUSH0 DUP4 ADD MSTORE PUSH2 0x3082 DUP2 PUSH2 0x3049 JUMP JUMPDEST SWAP1 POP SWAP2 SWAP1 POP JUMP JUMPDEST PUSH32 0x617574682074616720697320696E76616C696400000000000000000000000000 PUSH0 DUP3 ADD MSTORE POP JUMP JUMPDEST PUSH0 PUSH2 0x30BD PUSH1 0x13 DUP4 PUSH2 0x2F30 JUMP JUMPDEST SWAP2 POP PUSH2 0x30C8 DUP3 PUSH2 0x3089 JUMP JUMPDEST PUSH1 0x20 DUP3 ADD SWAP1 POP SWAP2 SWAP1 POP JUMP JUMPDEST PUSH0 PUSH1 0x20 DUP3 ADD SWAP1 POP DUP2 DUP2 SUB PUSH0 DUP4 ADD MSTORE PUSH2 0x30EA DUP2 PUSH2 0x30B1 JUMP JUMPDEST SWAP1 POP SWAP2 SWAP1 POP JUMP JUMPDEST PUSH0 PUSH16 0xFFFFFFFFFFFFFFFFFFFFFFFFFFFFFFFF DUP3 AND SWAP1 POP SWAP2 SWAP1 POP JUMP JUMPDEST PUSH32 0x4E487B7100000000000000000000000000000000000000000000000000000000 PUSH0 MSTORE PUSH1 0x11 PUSH1 0x4 MSTORE PUSH1 0x24 PUSH0 REVERT JUMPDEST PUSH0 PUSH2 0x3143 DUP3 PUSH2 0x30F1 JUMP JUMPDEST SWAP2 POP PUSH2 0x314E DUP4 PUSH2 0x30F1 JUMP JUMPDEST SWAP3 POP DUP3 DUP3 ADD SWAP1 POP PUSH16 0xFFFFFFFFFFFFFFFFFFFFFFFFFFFFFFFF DUP2 GT ISZERO PUSH2 0x3176 JUMPI PUSH2 0x3175 PUSH2 0x310C JUMP JUMPDEST JUMPDEST SWAP3 SWAP2 POP POP JUMP JUMPDEST PUSH0 PUSH2 0x3186 DUP3 PUSH2 0x30F1 JUMP JUMPDEST SWAP2 POP PUSH16 0xFFFFFFFFFFFFFFFFFFFFFFFFFFFFFFFF DUP3 SUB PUSH2 0x31A8 JUMPI PUSH2 0x31A7 PUSH2 0x310C JUMP JUMPDEST JUMPDEST PUSH1 0x1 DUP3 ADD SWAP1 POP SWAP2 SWAP1 POP JUMP JUMPDEST PUSH0 DUP2 SWAP1 POP SWAP2 SWAP1 POP JUMP JUMPDEST PUSH0 PUSH2 0x31C6 DUP3 PUSH2 0x31B3 JUMP JUMPDEST SWAP2 POP PUSH2 0x31D1 DUP4 PUSH2 0x31B3 JUMP JUMPDEST SWAP3 POP DUP3 DUP3 MUL PUSH2 0x31DF DUP2 PUSH2 0x31B3 JUMP JUMPDEST SWAP2 POP DUP3 DUP3 DIV DUP5 EQ DUP4 ISZERO OR PUSH2 0x31F6 JUMPI PUSH2 0x31F5 PUSH2 0x310C JUMP JUMPDEST JUMPDEST POP SWAP3 SWAP2 POP POP JUMP JUMPDEST PUSH0 PUSH2 0x3207 DUP3 PUSH2 0x31B3 JUMP JUMPDEST SWAP2 POP PUSH2 0x3212 DUP4 PUSH2 0x31B3 JUMP JUMPDEST SWAP3 POP DUP3 DUP3 SUB SWAP1 POP DUP2 DUP2 GT ISZERO PUSH2 0x322A JUMPI PUSH2 0x3229 PUSH2 0x310C JUMP JUMPDEST JUMPDEST SWAP3 SWAP2 POP POP JUMP JUMPDEST PUSH0 PUSH2 0x323A DUP3 PUSH2 0x31B3 JUMP JUMPDEST SWAP2 POP PUSH2 0x3245 DUP4 PUSH2 0x31B3 JUMP JUMPDEST SWAP3 POP DUP3 DUP3 ADD SWAP1 POP DUP1 DUP3 GT ISZERO PUSH2 0x325D JUMPI PUSH2 0x325C PUSH2 0x310C JUMP JUMPDEST JUMPDEST SWAP3 SWAP2 POP POP JUMP JUMPDEST PUSH0 PUSH2 0x326D DUP3 PUSH2 0x31B3 JUMP JUMPDEST SWAP2 POP PUSH32 0xFFFFFFFFFFFFFFFFFFFFFFFFFFFFFFFFFFFFFFFFFFFFFFFFFFFFFFFFFFFFFFFF DUP3 SUB PUSH2 0x329F JUMPI PUSH2 0x329E PUSH2 0x310C JUMP JUMPDEST JUMPDEST PUSH1 0x1 DUP3 ADD SWAP1 POP SWAP2 SWAP1 POP JUMP JUMPDEST PUSH0 PUSH2 0x32B4 DUP3 PUSH2 0x30F1 JUMP JUMPDEST SWAP2 POP PUSH2 0x32BF DUP4 PUSH2 0x30F1 JUMP JUMPDEST SWAP3 POP DUP3 DUP3 MUL PUSH2 0x32CD DUP2 PUSH2 0x30F1 JUMP JUMPDEST SWAP2 POP DUP1 DUP3 EQ PUSH2 0x32DF JUMPI PUSH2 0x32DE PUSH2 0x310C JUMP JUMPDEST JUMPDEST POP SWAP3 SWAP2 POP POP JUMP JUMPDEST PUSH0 DUP2 SWAP1 POP SWAP2 SWAP1 POP JUMP JUMPDEST PUSH0 PUSH2 0x32F9 DUP3 PUSH2 0x32E6 JUMP JUMPDEST SWAP2 POP PUSH32 0x8000000000000000000000000000000000000000000000000000000000000000 DUP3 SUB PUSH2 0x332B JUMPI PUSH2 0x332A PUSH2 0x310C JUMP JUMPDEST JUMPDEST PUSH1 0x1 DUP3 SUB SWAP1 POP SWAP2 SWAP1 POP JUMP JUMPDEST PUSH0 PUSH32 0xFFFFFFFFFFFFFFFFFFFFFFFFFFFFFFFF00000000000000000000000000000000 DUP3 AND SWAP1 POP SWAP2 SWAP1 POP JUMP JUMPDEST PUSH0 DUP2 SWAP1 POP SWAP2 SWAP1 POP JUMP JUMPDEST PUSH2 0x337B PUSH2 0x3376 DUP3 PUSH2 0x3336 JUMP JUMPDEST PUSH2 0x3361 JUMP JUMPDEST DUP3 MSTORE POP POP JUMP JUMPDEST PUSH0 PUSH2 0x338C DUP3 DUP5 PUSH2 0x336A JUMP JUMPDEST PUSH1 0x10 DUP3 ADD SWAP2 POP DUP2 SWAP1 POP SWAP3 SWAP2 POP POP JUMP JUMPDEST PUSH0 DUP2 PUSH1 0x80 SHL SWAP1 POP SWAP2 SWAP1 POP JUMP JUMPDEST PUSH0 PUSH2 0x33B1 DUP3 PUSH2 0x339B JUMP JUMPDEST SWAP1 POP SWAP2 SWAP1 POP JUMP JUMPDEST PUSH2 0x33C9 PUSH2 0x33C4 DUP3 PUSH2 0x30F1 JUMP JUMPDEST PUSH2 0x33A7 JUMP JUMPDEST DUP3 MSTORE POP POP JUMP JUMPDEST PUSH0 PUSH2 0x33DA DUP3 DUP5 PUSH2 0x33B8 JUMP JUMPDEST PUSH1 0x10 DUP3 ADD SWAP2 POP DUP2 SWAP1 POP SWAP3 SWAP2 POP POP JUMP JUMPDEST PUSH0 DUP2 SWAP1 POP SWAP3 SWAP2 POP POP JUMP JUMPDEST PUSH0 PUSH2 0x33FD DUP3 PUSH2 0x2C60 JUMP JUMPDEST PUSH2 0x3407 DUP2 DUP6 PUSH2 0x33E9 JUMP JUMPDEST SWAP4 POP PUSH2 0x3417 DUP2 DUP6 PUSH1 0x20 DUP7 ADD PUSH2 0x2C7A JUMP JUMPDEST DUP1 DUP5 ADD SWAP2 POP POP SWAP3 SWAP2 POP POP JUMP JUMPDEST PUSH0 PUSH2 0x342E DUP3 DUP6 PUSH2 0x33F3 JUMP JUMPDEST SWAP2 POP PUSH2 0x343A DUP3 DUP5 PUSH2 0x33F3 JUMP JUMPDEST SWAP2 POP DUP2 SWAP1 POP SWAP4 SWAP3 POP POP POP JUMP JUMPDEST PUSH32 0x4E487B7100000000000000000000000000000000000000000000000000000000 PUSH0 MSTORE PUSH1 0x12 PUSH1 0x4 MSTORE PUSH1 0x24 PUSH0 REVERT JUMPDEST PUSH0 PUSH2 0x347D DUP3 PUSH2 0x31B3 JUMP JUMPDEST SWAP2 POP PUSH2 0x3488 DUP4 PUSH2 0x31B3 JUMP JUMPDEST SWAP3 POP DUP3 PUSH2 0x3498 JUMPI PUSH2 0x3497 PUSH2 0x3446 JUMP JUMPDEST JUMPDEST DUP3 DUP3 MOD SWAP1 POP SWAP3 SWAP2 POP POP JUMP JUMPDEST PUSH0 DUP2 MSTORE POP JUMP JUMPDEST PUSH0 PUSH2 0x34B4 DUP3 DUP5 PUSH2 0x33F3 JUMP JUMPDEST SWAP2 POP PUSH2 0x34BF DUP3 PUSH2 0x34A3 JUMP JUMPDEST PUSH1 0x1 DUP3 ADD SWAP2 POP DUP2 SWAP1 POP SWAP3 SWAP2 POP POP JUMP JUMPDEST PUSH0 PUSH2 0x34D8 DUP3 PUSH2 0x31B3 JUMP JUMPDEST SWAP2 POP PUSH2 0x34E3 DUP4 PUSH2 0x31B3 JUMP JUMPDEST SWAP3 POP DUP3 PUSH2 0x34F3 JUMPI PUSH2 0x34F2 PUSH2 0x3446 JUMP JUMPDEST JUMPDEST DUP3 DUP3 DIV SWAP1 POP SWAP3 SWAP2 POP POP JUMP JUMPDEST PUSH0 DUP2 SWAP1 POP PUSH1 0x20 DUP3 ADD SWAP1 POP SWAP2 SWAP1 POP JUMP JUMPDEST PUSH0 PUSH2 0x3518 DUP3 MLOAD PUSH2 0x3336 JUMP JUMPDEST DUP1 SWAP2 POP POP SWAP2 SWAP1 POP JUMP JUMPDEST PUSH0 DUP3 DUP3 SHL SWAP1 POP SWAP3 SWAP2 POP POP JUMP JUMPDEST PUSH0 PUSH2 0x3537 DUP3 PUSH2 0x2C60 JUMP JUMPDEST DUP3 PUSH2 0x3541 DUP5 PUSH2 0x34FE JUMP JUMPDEST SWAP1 POP PUSH2 0x354C DUP2 PUSH2 0x350D JUMP JUMPDEST SWAP3 POP PUSH1 0x10 DUP3 LT ISZERO PUSH2 0x358C JUMPI PUSH2 0x3587 PUSH32 0xFFFFFFFFFFFFFFFFFFFFFFFFFFFFFFFF00000000000000000000000000000000 DUP4 PUSH1 0x10 SUB PUSH1 0x8 MUL PUSH2 0x3521 JUMP JUMPDEST DUP4 AND SWAP3 POP JUMPDEST POP POP SWAP2 SWAP1 POP JUMP JUMPDEST PUSH32 0x736C6963655F6F766572666C6F77000000000000000000000000000000000000 PUSH0 DUP3 ADD MSTORE POP JUMP JUMPDEST PUSH0 PUSH2 0x35C7 PUSH1 0xE DUP4 PUSH2 0x2F30 JUMP JUMPDEST SWAP2 POP PUSH2 0x35D2 DUP3 PUSH2 0x3593 JUMP JUMPDEST PUSH1 0x20 DUP3 ADD SWAP1 POP SWAP2 SWAP1 POP JUMP JUMPDEST PUSH0 PUSH1 0x20 DUP3 ADD SWAP1 POP DUP2 DUP2 SUB PUSH0 DUP4 ADD MSTORE PUSH2 0x35F4 DUP2 PUSH2 0x35BB JUMP JUMPDEST SWAP1 POP SWAP2 SWAP1 POP JUMP JUMPDEST PUSH32 0x736C6963655F6F75744F66426F756E6473000000000000000000000000000000 PUSH0 DUP3 ADD MSTORE POP JUMP JUMPDEST PUSH0 PUSH2 0x362F PUSH1 0x11 DUP4 PUSH2 0x2F30 JUMP JUMPDEST SWAP2 POP PUSH2 0x363A DUP3 PUSH2 0x35FB JUMP JUMPDEST PUSH1 0x20 DUP3 ADD SWAP1 POP SWAP2 SWAP1 POP JUMP JUMPDEST PUSH0 PUSH1 0x20 DUP3 ADD SWAP1 POP DUP2 DUP2 SUB PUSH0 DUP4 ADD MSTORE PUSH2 0x365C DUP2 PUSH2 0x3623 JUMP JUMPDEST SWAP1 POP SWAP2 SWAP1 POP JUMP JUMPDEST PUSH0 PUSH2 0xFFFF DUP3 AND SWAP1 POP SWAP2 SWAP1 POP JUMP JUMPDEST PUSH0 PUSH2 0x367A DUP3 PUSH2 0x3663 JUMP JUMPDEST SWAP2 POP PUSH2 0x3685 DUP4 PUSH2 0x3663 JUMP JUMPDEST SWAP3 POP DUP3 DUP3 ADD SWAP1 POP PUSH2 0xFFFF DUP2 GT ISZERO PUSH2 0x369F JUMPI PUSH2 0x369E PUSH2 0x310C JUMP JUMPDEST JUMPDEST SWAP3 SWAP2 POP POP JUMP JUMPDEST PUSH0 PUSH2 0x36AF DUP3 PUSH2 0x3663 JUMP JUMPDEST SWAP2 POP PUSH2 0x36BA DUP4 PUSH2 0x3663 JUMP JUMPDEST SWAP3 POP DUP3 PUSH2 0x36CA JUMPI PUSH2 0x36C9 PUSH2 0x3446 JUMP JUMPDEST JUMPDEST DUP3 DUP3 MOD SWAP1 POP SWAP3 SWAP2 POP POP JUMP INVALID LOG2 PUSH5 0x6970667358 0x22 SLT KECCAK256 CALLCODE PUSH28 0x6573CAFC978BA81043F79782EEBE8110DC7773AC2B82A1AFC00E3AE2 0xCB 0xE3 PUSH5 0x736F6C6343 STOP ADDMOD BYTE STOP CALLER "
		},
		"gasEstimates": {
			"creation": {
				"codeDepositCost": "2818200",
				"executionCost": "infinite",
				"totalCost": "infinite"
			},
			"external": {
				"aes_gcm_dec()": "infinite",
				"aes_gcm_set(bytes,bytes,bytes,bytes,bytes)": "infinite",
				"aes_gcm_verify()": "infinite",
				"is_pass_the_verification()": "2517",
				"is_upload_cipher()": "2488",
				"is_verified()": "2605"
			},
			"internal": {
				"add_round_key(uint8[4] memory[4] memory,uint8[4] memory[4] memory)": "infinite",
				"aes_enc(uint8[16] memory,uint8[16] memory)": "infinite",
				"bytes_to_uint128_array_w_padding(bytes memory)": "infinite",
				"expand_key(uint8[16] memory)": "infinite",
				"gal_mul(uint8,uint8)": "infinite",
				"mix_columns(uint8[4] memory[4] memory)": "infinite",
				"rot_word(uint8[4] memory)": "infinite",
				"shift_rows(uint8[4] memory[4] memory)": "infinite",
				"sub_state(uint8[4] memory[4] memory)": "infinite",
				"sub_word(uint8[4] memory)": "infinite",
				"uint128_array_to_bytes(uint128[] memory)": "infinite",
				"uint128_to_uint8_array(uint128)": "infinite",
				"uint8_array_to_uint128(uint8[16] memory)": "infinite"
			}
		},
		"methodIdentifiers": {
			"aes_gcm_dec()": "89fd61bd",
			"aes_gcm_set(bytes,bytes,bytes,bytes,bytes)": "971fa622",
			"aes_gcm_verify()": "17766187",
			"is_pass_the_verification()": "26498a7c",
			"is_upload_cipher()": "8381eb64",
			"is_verified()": "c659dceb"
		}
	},
	"abi": [
		{
			"inputs": [],
			"name": "aes_gcm_dec",
			"outputs": [
				{
					"internalType": "bytes",
					"name": "plain",
					"type": "bytes"
				}
			],
			"stateMutability": "view",
			"type": "function"
		},
		{
			"inputs": [
				{
					"internalType": "bytes",
					"name": "_cipher",
					"type": "bytes"
				},
				{
					"internalType": "bytes",
					"name": "_key",
					"type": "bytes"
				},
				{
					"internalType": "bytes",
					"name": "_iv",
					"type": "bytes"
				},
				{
					"internalType": "bytes",
					"name": "_auth_data",
					"type": "bytes"
				},
				{
					"internalType": "bytes",
					"name": "_auth_tag",
					"type": "bytes"
				}
			],
			"name": "aes_gcm_set",
			"outputs": [],
			"stateMutability": "nonpayable",
			"type": "function"
		},
		{
			"inputs": [],
			"name": "aes_gcm_verify",
			"outputs": [
				{
					"internalType": "bool",
					"name": "",
					"type": "bool"
				}
			],
			"stateMutability": "nonpayable",
			"type": "function"
		},
		{
			"inputs": [],
			"name": "is_pass_the_verification",
			"outputs": [
				{
					"internalType": "bool",
					"name": "",
					"type": "bool"
				}
			],
			"stateMutability": "view",
			"type": "function"
		},
		{
			"inputs": [],
			"name": "is_upload_cipher",
			"outputs": [
				{
					"internalType": "bool",
					"name": "",
					"type": "bool"
				}
			],
			"stateMutability": "view",
			"type": "function"
		},
		{
			"inputs": [],
			"name": "is_verified",
			"outputs": [
				{
					"internalType": "bool",
					"name": "",
					"type": "bool"
				}
			],
			"stateMutability": "view",
			"type": "function"
		}
	]
}