{
	"data": {
		"bytecode": {
			"linkReferences": {},
			"object": "6080604052604051806101600160405280608d60ff168152602001600160ff168152602001600260ff168152602001600460ff168152602001600860ff168152602001601060ff168152602001602060ff168152602001604060ff168152602001608060ff168152602001601b60ff168152602001603660ff168152505f90600b61008b929190612906565b50604051806120000160405280606360ff168152602001607c60ff168152602001607760ff168152602001607b60ff16815260200160f260ff168152602001606b60ff168152602001606f60ff16815260200160c560ff168152602001603060ff168152602001600160ff168152602001606760ff168152602001602b60ff16815260200160fe60ff16815260200160d760ff16815260200160ab60ff168152602001607660ff16815260200160ca60ff168152602001608260ff16815260200160c960ff168152602001607d60ff16815260200160fa60ff168152602001605960ff168152602001604760ff16815260200160f060ff16815260200160ad60ff16815260200160d460ff16815260200160a260ff16815260200160af60ff168152602001609c60ff16815260200160a460ff168152602001607260ff16815260200160c060ff16815260200160b760ff16815260200160fd60ff168152602001609360ff168152602001602660ff168152602001603660ff168152602001603f60ff16815260200160f760ff16815260200160cc60ff168152602001603460ff16815260200160a560ff16815260200160e560ff16815260200160f160ff168152602001607160ff16815260200160d860ff168152602001603160ff168152602001601560ff168152602001600460ff16815260200160c760ff168152602001602360ff16815260200160c360ff168152602001601860ff168152602001609660ff168152602001600560ff168152602001609a60ff168152602001600760ff168152602001601260ff168152602001608060ff16815260200160e260ff16815260200160eb60ff168152602001602760ff16815260200160b260ff168152602001607560ff168152602001600960ff168152602001608360ff168152602001602c60ff168152602001601a60ff168152602001601b60ff168152602001606e60ff168152602001605a60ff16815260200160a060ff168152602001605260ff168152602001603b60ff16815260200160d660ff16815260200160b360ff168152602001602960ff16815260200160e360ff168152602001602f60ff168152602001608460ff168152602001605360ff16815260200160d160ff1681526020015f60ff16815260200160ed60ff168152602001602060ff16815260200160fc60ff16815260200160b160ff168152602001605b60ff168152602001606a60ff16815260200160cb60ff16815260200160be60ff168152602001603960ff168152602001604a60ff168152602001604c60ff168152602001605860ff16815260200160cf60ff16815260200160d060ff16815260200160ef60ff16815260200160aa60ff16815260200160fb60ff168152602001604360ff168152602001604d60ff168152602001603360ff168152602001608560ff168152602001604560ff16815260200160f960ff168152602001600260ff168152602001607f60ff168152602001605060ff168152602001603c60ff168152602001609f60ff16815260200160a860ff168152602001605160ff16815260200160a360ff168152602001604060ff168152602001608f60ff168152602001609260ff168152602001609d60ff168152602001603860ff16815260200160f560ff16815260200160bc60ff16815260200160b660ff16815260200160da60ff168152602001602160ff168152602001601060ff16815260200160ff8016815260200160f360ff16815260200160d260ff16815260200160cd60ff168152602001600c60ff168152602001601360ff16815260200160ec60ff168152602001605f60ff168152602001609760ff168152602001604460ff168152602001601760ff16815260200160c460ff16815260200160a760ff168152602001607e60ff168152602001603d60ff168152602001606460ff168152602001605d60ff168152602001601960ff168152602001607360ff168152602001606060ff168152602001608160ff168152602001604f60ff16815260200160dc60ff168152602001602260ff168152602001602a60ff168152602001609060ff168152602001608860ff168152602001604660ff16815260200160ee60ff16815260200160b860ff168152602001601460ff16815260200160de60ff168152602001605e60ff168152602001600b60ff16815260200160db60ff16815260200160e060ff168152602001603260ff168152602001603a60ff168152602001600a60ff168152602001604960ff168152602001600660ff168152602001602460ff168152602001605c60ff16815260200160c260ff16815260200160d360ff16815260200160ac60ff168152602001606260ff168152602001609160ff168152602001609560ff16815260200160e460ff168152602001607960ff16815260200160e760ff16815260200160c860ff168152602001603760ff168152602001606d60ff168152602001608d60ff16815260200160d560ff168152602001604e60ff16815260200160a960ff168152602001606c60ff168152602001605660ff16815260200160f460ff16815260200160ea60ff168152602001606560ff168152602001607a60ff16815260200160ae60ff168152602001600860ff16815260200160ba60ff168152602001607860ff168152602001602560ff168152602001602e60ff168152602001601c60ff16815260200160a660ff16815260200160b460ff16815260200160c660ff16815260200160e860ff16815260200160dd60ff168152602001607460ff168152602001601f60ff168152602001604b60ff16815260200160bd60ff168152602001608b60ff168152602001608a60ff168152602001607060ff168152602001603e60ff16815260200160b560ff168152602001606660ff168152602001604860ff168152602001600360ff16815260200160f660ff168152602001600e60ff168152602001606160ff168152602001603560ff168152602001605760ff16815260200160b960ff168152602001608660ff16815260200160c160ff168152602001601d60ff168152602001609e60ff16815260200160e160ff16815260200160f860ff168152602001609860ff168152602001601160ff168152602001606960ff16815260200160d960ff168152602001608e60ff168152602001609460ff168152602001609b60ff168152602001601e60ff168152602001608760ff16815260200160e960ff16815260200160ce60ff168152602001605560ff168152602001602860ff16815260200160df60ff168152602001608c60ff16815260200160a160ff168152602001608960ff168152602001600d60ff16815260200160bf60ff16815260200160e660ff168152602001604260ff168152602001606860ff168152602001604160ff168152602001609960ff168152602001602d60ff168152602001600f60ff16815260200160b060ff168152602001605460ff16815260200160bb60ff168152602001601660ff16815250600190610100610aa592919061299d565b50604051806120000160405280605260ff168152602001600960ff168152602001606a60ff16815260200160d560ff168152602001603060ff168152602001603660ff16815260200160a560ff168152602001603860ff16815260200160bf60ff168152602001604060ff16815260200160a360ff168152602001609e60ff168152602001608160ff16815260200160f360ff16815260200160d760ff16815260200160fb60ff168152602001607c60ff16815260200160e360ff168152602001603960ff168152602001608260ff168152602001609b60ff168152602001602f60ff16815260200160ff80168152602001608760ff168152602001603460ff168152602001608e60ff168152602001604360ff168152602001604460ff16815260200160c460ff16815260200160de60ff16815260200160e960ff16815260200160cb60ff168152602001605460ff168152602001607b60ff168152602001609460ff168152602001603260ff16815260200160a660ff16815260200160c260ff168152602001602360ff168152602001603d60ff16815260200160ee60ff168152602001604c60ff168152602001609560ff168152602001600b60ff168152602001604260ff16815260200160fa60ff16815260200160c360ff168152602001604e60ff168152602001600860ff168152602001602e60ff16815260200160a160ff168152602001606660ff168152602001602860ff16815260200160d960ff168152602001602460ff16815260200160b260ff168152602001607660ff168152602001605b60ff16815260200160a260ff168152602001604960ff168152602001606d60ff168152602001608b60ff16815260200160d160ff168152602001602560ff168152602001607260ff16815260200160f860ff16815260200160f660ff168152602001606460ff168152602001608660ff168152602001606860ff168152602001609860ff168152602001601660ff16815260200160d460ff16815260200160a460ff168152602001605c60ff16815260200160cc60ff168152602001605d60ff168152602001606560ff16815260200160b660ff168152602001609260ff168152602001606c60ff168152602001607060ff168152602001604860ff168152602001605060ff16815260200160fd60ff16815260200160ed60ff16815260200160b960ff16815260200160da60ff168152602001605e60ff168152602001601560ff168152602001604660ff168152602001605760ff16815260200160a760ff168152602001608d60ff168152602001609d60ff168152602001608460ff168152602001609060ff16815260200160d860ff16815260200160ab60ff1681526020015f60ff168152602001608c60ff16815260200160bc60ff16815260200160d360ff168152602001600a60ff16815260200160f760ff16815260200160e460ff168152602001605860ff168152602001600560ff16815260200160b860ff16815260200160b360ff168152602001604560ff168152602001600660ff16815260200160d060ff168152602001602c60ff168152602001601e60ff168152602001608f60ff16815260200160ca60ff168152602001603f60ff168152602001600f60ff168152602001600260ff16815260200160c160ff16815260200160af60ff16815260200160bd60ff168152602001600360ff168152602001600160ff168152602001601360ff168152602001608a60ff168152602001606b60ff168152602001603a60ff168152602001609160ff168152602001601160ff168152602001604160ff168152602001604f60ff168152602001606760ff16815260200160dc60ff16815260200160ea60ff168152602001609760ff16815260200160f260ff16815260200160cf60ff16815260200160ce60ff16815260200160f060ff16815260200160b460ff16815260200160e660ff168152602001607360ff168152602001609660ff16815260200160ac60ff168152602001607460ff168152602001602260ff16815260200160e760ff16815260200160ad60ff168152602001603560ff168152602001608560ff16815260200160e260ff16815260200160f960ff168152602001603760ff16815260200160e860ff168152602001601c60ff168152602001607560ff16815260200160df60ff168152602001606e60ff168152602001604760ff16815260200160f160ff168152602001601a60ff168152602001607160ff168152602001601d60ff168152602001602960ff16815260200160c560ff168152602001608960ff168152602001606f60ff16815260200160b760ff168152602001606260ff168152602001600e60ff16815260200160aa60ff168152602001601860ff16815260200160be60ff168152602001601b60ff16815260200160fc60ff168152602001605660ff168152602001603e60ff168152602001604b60ff16815260200160c660ff16815260200160d260ff168152602001607960ff168152602001602060ff168152602001609a60ff16815260200160db60ff16815260200160c060ff16815260200160fe60ff168152602001607860ff16815260200160cd60ff168152602001605a60ff16815260200160f460ff168152602001601f60ff16815260200160dd60ff16815260200160a860ff168152602001603360ff168152602001608860ff168152602001600760ff16815260200160c760ff168152602001603160ff16815260200160b160ff168152602001601260ff168152602001601060ff168152602001605960ff168152602001602760ff168152602001608060ff16815260200160ec60ff168152602001605f60ff168152602001606060ff168152602001605160ff168152602001607f60ff16815260200160a960ff168152602001601960ff16815260200160b560ff168152602001604a60ff168152602001600d60ff168152602001602d60ff16815260200160e560ff168152602001607a60ff168152602001609f60ff168152602001609360ff16815260200160c960ff168152602001609c60ff16815260200160ef60ff16815260200160a060ff16815260200160e060ff168152602001603b60ff168152602001604d60ff16815260200160ae60ff168152602001602a60ff16815260200160f560ff16815260200160b060ff16815260200160c860ff16815260200160eb60ff16815260200160bb60ff168152602001603c60ff168152602001608360ff168152602001605360ff168152602001609960ff168152602001606160ff168152602001601760ff168152602001602b60ff168152602001600460ff168152602001607e60ff16815260200160ba60ff168152602001607760ff16815260200160d660ff168152602001602660ff16815260200160e160ff168152602001606960ff168152602001601460ff168152602001606360ff168152602001605560ff168152602001602160ff168152602001600c60ff168152602001607d60ff168152506009906101006114bf92919061299d565b506040518061200001604052805f60ff1681526020015f60ff16815260200160c860ff168152602001600860ff168152602001609160ff168152602001601060ff16815260200160d060ff168152602001603660ff168152602001605a60ff168152602001603e60ff16815260200160d860ff168152602001604360ff168152602001609960ff168152602001607760ff16815260200160fe60ff168152602001601860ff168152602001602360ff168152602001602060ff168152602001600760ff168152602001607060ff16815260200160a160ff168152602001606c60ff168152602001600c60ff168152602001607f60ff168152602001606260ff168152602001608b60ff168152602001604060ff168152602001604660ff16815260200160c760ff168152602001604b60ff16815260200160e060ff168152602001600e60ff16815260200160eb60ff168152602001601660ff16815260200160e860ff16815260200160ad60ff16815260200160cf60ff16815260200160cd60ff168152602001603960ff168152602001605360ff168152602001606a60ff168152602001602760ff168152602001603560ff168152602001609360ff16815260200160d460ff168152602001604e60ff168152602001604860ff16815260200160c360ff168152602001602b60ff168152602001607960ff168152602001605460ff168152602001602860ff168152602001600960ff168152602001607860ff168152602001600f60ff168152602001602160ff168152602001609060ff168152602001608760ff168152602001601460ff168152602001602a60ff16815260200160a960ff168152602001609c60ff16815260200160d660ff168152602001607460ff16815260200160b460ff168152602001607c60ff16815260200160de60ff16815260200160ed60ff16815260200160b160ff168152602001608660ff168152602001607660ff16815260200160a460ff168152602001609860ff16815260200160e260ff168152602001609660ff168152602001608f60ff168152602001600260ff168152602001603260ff168152602001601c60ff16815260200160c160ff168152602001603360ff16815260200160ee60ff16815260200160ef60ff168152602001608160ff16815260200160fd60ff168152602001603060ff168152602001605c60ff168152602001601360ff168152602001609d60ff168152602001602960ff168152602001601760ff16815260200160c460ff168152602001601160ff168152602001604460ff168152602001608c60ff168152602001608060ff16815260200160f360ff168152602001607360ff168152602001604260ff168152602001601e60ff168152602001601d60ff16815260200160b560ff16815260200160f060ff168152602001601260ff16815260200160d160ff168152602001605b60ff168152602001604160ff16815260200160a260ff16815260200160d760ff168152602001602c60ff16815260200160e960ff16815260200160d560ff168152602001605960ff16815260200160cb60ff168152602001605060ff16815260200160a860ff16815260200160dc60ff16815260200160fc60ff16815260200160f260ff168152602001605660ff168152602001607260ff16815260200160a660ff168152602001606560ff168152602001602f60ff168152602001609f60ff168152602001609b60ff168152602001603d60ff16815260200160ba60ff168152602001607d60ff16815260200160c260ff168152602001604560ff168152602001608260ff16815260200160a760ff168152602001605760ff16815260200160b660ff16815260200160a360ff168152602001607a60ff168152602001607560ff168152602001604f60ff16815260200160ae60ff168152602001603f60ff168152602001603760ff168152602001606d60ff168152602001604760ff168152602001606160ff16815260200160be60ff16815260200160ab60ff16815260200160d360ff168152602001605f60ff16815260200160b060ff168152602001605860ff16815260200160af60ff16815260200160ca60ff168152602001605e60ff16815260200160fa60ff168152602001608560ff16815260200160e460ff168152602001604d60ff168152602001608a60ff168152602001600560ff16815260200160fb60ff168152602001606060ff16815260200160b760ff168152602001607b60ff16815260200160b860ff168152602001602660ff168152602001604a60ff168152602001606760ff16815260200160c660ff168152602001601a60ff16815260200160f860ff168152602001606960ff168152602001602560ff16815260200160b360ff16815260200160db60ff16815260200160bd60ff168152602001606660ff16815260200160dd60ff16815260200160f160ff16815260200160d260ff16815260200160df60ff168152602001600360ff168152602001608d60ff168152602001603460ff16815260200160d960ff168152602001609260ff168152602001600d60ff168152602001606360ff168152602001605560ff16815260200160aa60ff168152602001604960ff16815260200160ec60ff16815260200160bc60ff168152602001609560ff168152602001603c60ff168152602001608460ff168152602001600b60ff16815260200160f560ff16815260200160e660ff16815260200160e760ff16815260200160e560ff16815260200160ac60ff168152602001607e60ff168152602001606e60ff16815260200160b960ff16815260200160f960ff16815260200160da60ff168152602001608e60ff168152602001609a60ff16815260200160c960ff168152602001602460ff16815260200160e160ff168152602001600a60ff168152602001601560ff168152602001606b60ff168152602001603a60ff16815260200160a060ff168152602001605160ff16815260200160f460ff16815260200160ea60ff16815260200160b260ff168152602001609760ff168152602001609e60ff168152602001605d60ff168152602001602260ff168152602001608860ff168152602001609460ff16815260200160ce60ff168152602001601960ff168152602001600160ff168152602001607160ff168152602001604c60ff16815260200160a560ff16815260200160e360ff16815260200160c560ff168152602001603160ff16815260200160bb60ff16815260200160cc60ff168152602001601f60ff168152602001602d60ff168152602001603b60ff168152602001605260ff168152602001606f60ff16815260200160f660ff168152602001602e60ff168152602001608960ff16815260200160f760ff16815260200160c060ff168152602001606860ff168152602001601b60ff168152602001606460ff168152602001600460ff168152602001600660ff16815260200160bf60ff168152602001608360ff168152602001603860ff16815250601190610100611ed992919061299d565b50604051806120000160405280600160ff16815260200160e560ff168152602001604c60ff16815260200160b560ff16815260200160fb60ff168152602001609f60ff16815260200160fc60ff168152602001601260ff168152602001600360ff168152602001603460ff16815260200160d460ff16815260200160c460ff168152602001601660ff16815260200160ba60ff168152602001601f60ff168152602001603660ff168152602001600560ff168152602001605c60ff168152602001606760ff168152602001605760ff168152602001603a60ff16815260200160d560ff168152602001602160ff168152602001605a60ff168152602001600f60ff16815260200160e460ff16815260200160a960ff16815260200160f960ff168152602001604e60ff168152602001606460ff168152602001606360ff16815260200160ee60ff168152602001601160ff168152602001603760ff16815260200160e060ff168152602001601060ff16815260200160d260ff16815260200160ac60ff16815260200160a560ff168152602001602960ff168152602001603360ff168152602001605960ff168152602001603b60ff168152602001603060ff168152602001606d60ff16815260200160ef60ff16815260200160f460ff168152602001607b60ff168152602001605560ff16815260200160eb60ff168152602001604d60ff168152602001605060ff16815260200160b760ff168152602001602a60ff168152602001600760ff168152602001608d60ff16815260200160ff80168152602001602660ff16815260200160d760ff16815260200160f060ff16815260200160c260ff168152602001607e60ff168152602001600960ff168152602001608c60ff168152602001601a60ff168152602001606a60ff168152602001606260ff168152602001600b60ff168152602001605d60ff168152602001608260ff168152602001601b60ff168152602001608f60ff168152602001602e60ff16815260200160be60ff16815260200160a660ff168152602001601d60ff16815260200160e760ff168152602001609d60ff168152602001602d60ff168152602001608a60ff168152602001607260ff16815260200160d960ff16815260200160f160ff168152602001602760ff168152602001603260ff16815260200160bc60ff168152602001607760ff168152602001608560ff168152602001609660ff168152602001607060ff168152602001600860ff168152602001606960ff168152602001605660ff16815260200160df60ff168152602001609960ff168152602001609460ff16815260200160a160ff168152602001609060ff168152602001601860ff16815260200160bb60ff16815260200160fa60ff168152602001607a60ff16815260200160b060ff16815260200160a760ff16815260200160f860ff16815260200160ab60ff168152602001602860ff16815260200160d660ff168152602001601560ff168152602001608e60ff16815260200160cb60ff16815260200160f260ff168152602001601360ff16815260200160e660ff168152602001607860ff168152602001606160ff168152602001603f60ff168152602001608960ff168152602001604660ff168152602001600d60ff168152602001603560ff168152602001603160ff168152602001608860ff16815260200160a360ff168152602001604160ff168152602001608060ff16815260200160ca60ff168152602001601760ff168152602001605f60ff168152602001605360ff168152602001608360ff16815260200160fe60ff16815260200160c360ff168152602001609b60ff168152602001604560ff168152602001603960ff16815260200160e160ff16815260200160f560ff168152602001609e60ff168152602001601960ff168152602001605e60ff16815260200160b660ff16815260200160cf60ff168152602001604b60ff168152602001603860ff168152602001600460ff16815260200160b960ff168152602001602b60ff16815260200160e260ff16815260200160c160ff168152602001604a60ff16815260200160dd60ff168152602001604860ff168152602001600c60ff16815260200160d060ff168152602001607d60ff168152602001603d60ff168152602001605860ff16815260200160de60ff168152602001607c60ff16815260200160d860ff168152602001601460ff168152602001606b60ff168152602001608760ff168152602001604760ff16815260200160e860ff168152602001607960ff168152602001608460ff168152602001607360ff168152602001603c60ff16815260200160bd60ff168152602001609260ff16815260200160c960ff168152602001602360ff168152602001608b60ff168152602001609760ff168152602001609560ff168152602001604460ff16815260200160dc60ff16815260200160ad60ff168152602001604060ff168152602001606560ff168152602001608660ff16815260200160a260ff16815260200160a460ff16815260200160cc60ff168152602001607f60ff16815260200160ec60ff16815260200160c060ff16815260200160af60ff168152602001609160ff16815260200160fd60ff16815260200160f760ff168152602001604f60ff168152602001608160ff168152602001602f60ff168152602001605b60ff16815260200160ea60ff16815260200160a860ff168152602001601c60ff168152602001600260ff16815260200160d160ff168152602001609860ff168152602001607160ff16815260200160ed60ff168152602001602560ff16815260200160e360ff168152602001602460ff168152602001600660ff168152602001606860ff16815260200160b360ff168152602001609360ff168152602001602c60ff168152602001606f60ff168152602001603e60ff168152602001606c60ff168152602001600a60ff16815260200160b860ff16815260200160ce60ff16815260200160ae60ff168152602001607460ff16815260200160b160ff168152602001604260ff16815260200160b460ff168152602001601e60ff16815260200160d360ff168152602001604960ff16815260200160e960ff168152602001609c60ff16815260200160c860ff16815260200160c660ff16815260200160c760ff168152602001602260ff168152602001606e60ff16815260200160db60ff168152602001602060ff16815260200160bf60ff168152602001604360ff168152602001605160ff168152602001605260ff168152602001606660ff16815260200160b260ff168152602001607660ff168152602001606060ff16815260200160da60ff16815260200160c560ff16815260200160f360ff16815260200160f660ff16815260200160aa60ff16815260200160cd60ff168152602001609a60ff16815260200160a060ff168152602001607560ff168152602001605460ff168152602001600e60ff168152602001600160ff168152506019906101006128f492919061299d565b50348015612900575f80fd5b50612a50565b82600b601f0160209004810192821561298c579160200282015f5b8382111561295e57835183826101000a81548160ff021916908360ff16021790555092602001926001016020815f01049283019260010302612921565b801561298a5782816101000a81549060ff02191690556001016020815f0104928301926001030261295e565b505b5090506129999190612a35565b5090565b82610100601f01602090048101928215612a24579160200282015f5b838211156129f657835183826101000a81548160ff021916908360ff16021790555092602001926001016020815f010492830192600103026129b9565b8015612a225782816101000a81549060ff02191690556001016020815f010492830192600103026129f6565b505b509050612a319190612a35565b5090565b5b80821115612a4c575f815f905550600101612a36565b5090565b61471080612a5d5f395ff3fe608060405234801561000f575f80fd5b5060043610610086575f3560e01c80634dd76c8a116100595780634dd76c8a1461014a5780636b71a8461461017a57806375f9a137146101aa57806393a4014e146101da57610086565b806306f4a01c1461008a5780631798a240146100ba5780633a0e6be2146100ea57806345c0e63e1461011a575b5f80fd5b6100a4600480360381019061009f9190613a40565b61020a565b6040516100b19190613b59565b60405180910390f35b6100d460048036038101906100cf9190613b79565b6103a1565b6040516100e19190613cdc565b60405180910390f35b61010460048036038101906100ff9190613dea565b61072b565b6040516101119190613cdc565b60405180910390f35b610134600480360381019061012f9190613e31565b6107f0565b6040516101419190613e7e565b60405180910390f35b610164600480360381019061015f9190613f7b565b610803565b6040516101719190614060565b60405180910390f35b610194600480360381019061018f9190613f7b565b610e36565b6040516101a19190614060565b60405180910390f35b6101c460048036038101906101bf919061407a565b611469565b6040516101d19190613e7e565b60405180910390f35b6101f460048036038101906101ef91906140a6565b6114ef565b6040516102019190614060565b60405180910390f35b60605f825190505f60108261021f9190614107565b601061022b9190614164565b905060108103610239575f90505b5f6040518060400160405280600181526020015f81525090505f600190505b8281101561028f578160405160200161027191906141d7565b60405160208183030381529060405291508080600101915050610258565b505f85826040516020016102a49291906141fc565b60405160208183030381529060405290505f601082516102c4919061421f565b90505f8167ffffffffffffffff8111156102e1576102e061391c565b5b60405190808252806020026020018201604052801561030f5781602001602082028036833780820191505090505b5090505f5b82811015610392576103348460108361032d919061424f565b6010611567565b61033d906142ea565b60801c82828151811061035357610352614350565b5b60200260200101906fffffffffffffffffffffffffffffffff1690816fffffffffffffffffffffffffffffffff16815250508080600101915050610314565b50809650505050505050919050565b60605f600887516103b2919061424f565b90505f600885516103c3919061424f565b90505f8260406103d3919061437d565b82901b90505f6103e28a61020a565b90505f6103ee8861020a565b90505f6103fa8b61020a565b90505f6104068b61020a565b90505f6001825f8151811061041e5761041d614350565b5b602002602001015161043091906143b0565b90505f61043c8b61020a565b90505f61047b61047661044e5f6114ef565b610471885f8151811061046457610463614350565b5b60200260200101516114ef565b610e36565b611469565b90505f6104ba6104b561048d866114ef565b6104b0895f815181106104a3576104a2614350565b5b60200260200101516114ef565b610e36565b611469565b90505f805b8851811015610504576104f56104ef838b84815181106104e2576104e1614350565b5b6020026020010151611683565b8561168f565b915080806001019150506104bf565b505f5b895181101561054c5761053d610537838c848151811061052a57610529614350565b5b6020026020010151611683565b8561168f565b91508080600101915050610507565b5061056061055a828c611683565b8461168f565b905061056c8183611683565b90505f845f8151811061058257610581614350565b5b60200260200101516fffffffffffffffffffffffffffffffff16116105dc576040517f08c379a00000000000000000000000000000000000000000000000000000000081526004016105d39061444d565b60405180910390fd5b5f6001866105ea91906143b0565b90505f8a5167ffffffffffffffff8111156106085761060761391c565b5b6040519080825280602002602001820160405280156106365781602001602082028036833780820191505090505b5090505f5b8151811015610708575f61068161067c610654866114ef565b6106778e5f8151811061066a57610669614350565b5b60200260200101516114ef565b610e36565b611469565b90506106a7818e848151811061069a57610699614350565b5b6020026020010151611683565b8383815181106106ba576106b9614350565b5b60200260200101906fffffffffffffffffffffffffffffffff1690816fffffffffffffffffffffffffffffffff168152505083806106f79061446b565b94505050808060010191505061063b565b506107128161072b565b9e50505050505050505050505050505095945050505050565b60605f825f8151811061074157610740614350565b5b602002602001015160801b60405160200161075c91906144c2565b60405160208183030381529060405290505f600190505b83518110156107e657818482815181106107905761078f614350565b5b60200260200101516040516020016107a89190614510565b6040516020818303038152906040526040516020016107c89291906141fc565b60405160208183030381529060405291508080600101915050610773565b5080915050919050565b5f6107fb838361168f565b905092915050565b61080b613853565b5f60405180608001604052806040518060800160405280875f6010811061083557610834614350565b5b602002015160ff1660ff1681526020018760046010811061085957610858614350565b5b602002015160ff1660ff1681526020018760086010811061087d5761087c614350565b5b602002015160ff1660ff16815260200187600c601081106108a1576108a0614350565b5b602002015160ff1660ff1681525081526020016040518060800160405280876001601081106108d3576108d2614350565b5b602002015160ff1660ff168152602001876005601081106108f7576108f6614350565b5b602002015160ff1660ff1681526020018760096010811061091b5761091a614350565b5b602002015160ff1660ff16815260200187600d6010811061093f5761093e614350565b5b602002015160ff1660ff16815250815260200160405180608001604052808760026010811061097157610970614350565b5b602002015160ff1660ff1681526020018760066010811061099557610994614350565b5b602002015160ff1660ff16815260200187600a601081106109b9576109b8614350565b5b602002015160ff1660ff16815260200187600e601081106109dd576109dc614350565b5b602002015160ff1660ff168152508152602001604051806080016040528087600360108110610a0f57610a0e614350565b5b602002015160ff1660ff16815260200187600760108110610a3357610a32614350565b5b602002015160ff1660ff16815260200187600b60108110610a5757610a56614350565b5b602002015160ff1660ff16815260200187600f60108110610a7b57610a7a614350565b5b602002015160ff1660ff1681525081525090505f610a9884611750565b90505f6040518060800160405280836028602c8110610aba57610ab9614350565b5b60200201518152602001836029602c8110610ad857610ad7614350565b5b6020020151815260200183602a602c8110610af657610af5614350565b5b6020020151815260200183602b602c8110610b1457610b13614350565b5b60200201518152509050610b288382611f44565b92505f600990505b60018110610c4b57610b4184612021565b9350610b4c84612361565b9350604051806080016040528084836004610b67919061424f565b602c8110610b7857610b77614350565b5b60200201518152602001846001846004610b92919061424f565b610b9c919061437d565b602c8110610bad57610bac614350565b5b60200201518152602001846002846004610bc7919061424f565b610bd1919061437d565b602c8110610be257610be1614350565b5b60200201518152602001846003846004610bfc919061424f565b610c06919061437d565b602c8110610c1757610c16614350565b5b60200201518152509150610c2b8483611f44565b9350610c368461243a565b93508080610c439061452a565b915050610b30565b50610c5583612021565b9250610c6083612361565b92506040518060800160405280835f602c8110610c8057610c7f614350565b5b60200201518152602001836001602c8110610c9e57610c9d614350565b5b60200201518152602001836002602c8110610cbc57610cbb614350565b5b60200201518152602001836003602c8110610cda57610cd9614350565b5b60200201518152509050610cee8382611f44565b92505f6040518061020001604052805f60ff1681526020015f60ff1681526020015f60ff1681526020015f60ff1681526020015f60ff1681526020015f60ff1681526020015f60ff1681526020015f60ff1681526020015f60ff1681526020015f60ff1681526020015f60ff1681526020015f60ff1681526020015f60ff1681526020015f60ff1681526020015f60ff1681526020015f60ff1681525090505f5b6004811015610e28575f5b6004811015610e1a57858160048110610db657610db5614350565b5b60200201518260048110610dcd57610dcc614350565b5b60200201518382846004610de1919061424f565b610deb919061437d565b60108110610dfc57610dfb614350565b5b602002019060ff16908160ff16815250508080600101915050610d9a565b508080600101915050610d8f565b508094505050505092915050565b610e3e613853565b5f60405180608001604052806040518060800160405280875f60108110610e6857610e67614350565b5b602002015160ff1660ff16815260200187600460108110610e8c57610e8b614350565b5b602002015160ff1660ff16815260200187600860108110610eb057610eaf614350565b5b602002015160ff1660ff16815260200187600c60108110610ed457610ed3614350565b5b602002015160ff1660ff168152508152602001604051806080016040528087600160108110610f0657610f05614350565b5b602002015160ff1660ff16815260200187600560108110610f2a57610f29614350565b5b602002015160ff1660ff16815260200187600960108110610f4e57610f4d614350565b5b602002015160ff1660ff16815260200187600d60108110610f7257610f71614350565b5b602002015160ff1660ff168152508152602001604051806080016040528087600260108110610fa457610fa3614350565b5b602002015160ff1660ff16815260200187600660108110610fc857610fc7614350565b5b602002015160ff1660ff16815260200187600a60108110610fec57610feb614350565b5b602002015160ff1660ff16815260200187600e601081106110105761100f614350565b5b602002015160ff1660ff16815250815260200160405180608001604052808760036010811061104257611041614350565b5b602002015160ff1660ff1681526020018760076010811061106657611065614350565b5b602002015160ff1660ff16815260200187600b6010811061108a57611089614350565b5b602002015160ff1660ff16815260200187600f601081106110ae576110ad614350565b5b602002015160ff1660ff1681525081525090505f6110cb84611750565b90505f6040518060800160405280835f602c81106110ec576110eb614350565b5b60200201518152602001836001602c811061110a57611109614350565b5b60200201518152602001836002602c811061112857611127614350565b5b60200201518152602001836003602c811061114657611145614350565b5b6020020151815250905061115a8382611f44565b925061116583612a52565b925061117083612b2b565b92505f600190505b600981116112935761118984612e6b565b93506040518060800160405280848360046111a4919061424f565b602c81106111b5576111b4614350565b5b602002015181526020018460018460046111cf919061424f565b6111d9919061437d565b602c81106111ea576111e9614350565b5b60200201518152602001846002846004611204919061424f565b61120e919061437d565b602c811061121f5761121e614350565b5b60200201518152602001846003846004611239919061424f565b611243919061437d565b602c811061125457611253614350565b5b602002015181525091506112688483611f44565b935061127384612a52565b935061127e84612b2b565b9350808061128b90614551565b915050611178565b506040518060800160405280836028602c81106112b3576112b2614350565b5b60200201518152602001836029602c81106112d1576112d0614350565b5b6020020151815260200183602a602c81106112ef576112ee614350565b5b6020020151815260200183602b602c811061130d5761130c614350565b5b602002015181525090506113218382611f44565b92505f6040518061020001604052805f60ff1681526020015f60ff1681526020015f60ff1681526020015f60ff1681526020015f60ff1681526020015f60ff1681526020015f60ff1681526020015f60ff1681526020015f60ff1681526020015f60ff1681526020015f60ff1681526020015f60ff1681526020015f60ff1681526020015f60ff1681526020015f60ff1681526020015f60ff1681525090505f5b600481101561145b575f5b600481101561144d578581600481106113e9576113e8614350565b5b60200201518260048110611400576113ff614350565b5b60200201518382846004611414919061424f565b61141e919061437d565b6010811061142f5761142e614350565b5b602002019060ff16908160ff168152505080806001019150506113cd565b5080806001019150506113c2565b508094505050505092915050565b5f80825f6010811061147e5761147d614350565b5b602002015160ff1690505f600190505b60108110156114e5576008826fffffffffffffffffffffffffffffffff16901b91508381601081106114c3576114c2614350565b5b602002015160ff16826114d691906143b0565b9150808060010191505061148e565b5080915050919050565b6114f7613853565b5f5b60108110156115615780600861150f919061424f565b836fffffffffffffffffffffffffffffffff16901c8282600f6115329190614164565b6010811061154357611542614350565b5b602002019060ff16908160ff168152505080806001019150506114f9565b50919050565b606081601f83611577919061437d565b10156115b8576040517f08c379a00000000000000000000000000000000000000000000000000000000081526004016115af906145e2565b60405180910390fd5b81836115c4919061437d565b84511015611607576040517f08c379a00000000000000000000000000000000000000000000000000000000081526004016115fe9061464a565b60405180910390fd5b606082155f81146116265760405191505f825260208201604052611677565b6040519150601f8416801560200281840101858101878315602002848b0101015b818310156116645780518352602083019250602081019050611647565b50868552601f19601f8301166040525050505b50809150509392505050565b5f818318905092915050565b5f805f90505f608790505f5b60808160ff161015611744575f600186166fffffffffffffffffffffffffffffffff16146116c95785831892505b5f80607f886fffffffffffffffffffffffffffffffff16901c6fffffffffffffffffffffffffffffffff16141590506001876fffffffffffffffffffffffffffffffff16901b9650801561171d5782871896505b6001866fffffffffffffffffffffffffffffffff16901c955050808060010191505061169b565b50819250505092915050565b611758613876565b611760613876565b825f6010811061177357611772614350565b5b6020020151815f602c811061178b5761178a614350565b5b60200201515f600481106117a2576117a1614350565b5b602002019060ff16908160ff1681525050826001601081106117c7576117c6614350565b5b6020020151815f602c81106117df576117de614350565b5b60200201516001600481106117f7576117f6614350565b5b602002019060ff16908160ff16815250508260026010811061181c5761181b614350565b5b6020020151815f602c811061183457611833614350565b5b602002015160026004811061184c5761184b614350565b5b602002019060ff16908160ff16815250508260036010811061187157611870614350565b5b6020020151815f602c811061188957611888614350565b5b60200201516003600481106118a1576118a0614350565b5b602002019060ff16908160ff1681525050826004601081106118c6576118c5614350565b5b6020020151816001602c81106118df576118de614350565b5b60200201515f600481106118f6576118f5614350565b5b602002019060ff16908160ff16815250508260056010811061191b5761191a614350565b5b6020020151816001602c811061193457611933614350565b5b602002015160016004811061194c5761194b614350565b5b602002019060ff16908160ff16815250508260066010811061197157611970614350565b5b6020020151816001602c811061198a57611989614350565b5b60200201516002600481106119a2576119a1614350565b5b602002019060ff16908160ff1681525050826007601081106119c7576119c6614350565b5b6020020151816001602c81106119e0576119df614350565b5b60200201516003600481106119f8576119f7614350565b5b602002019060ff16908160ff168152505082600860108110611a1d57611a1c614350565b5b6020020151816002602c8110611a3657611a35614350565b5b60200201515f60048110611a4d57611a4c614350565b5b602002019060ff16908160ff168152505082600960108110611a7257611a71614350565b5b6020020151816002602c8110611a8b57611a8a614350565b5b6020020151600160048110611aa357611aa2614350565b5b602002019060ff16908160ff168152505082600a60108110611ac857611ac7614350565b5b6020020151816002602c8110611ae157611ae0614350565b5b6020020151600260048110611af957611af8614350565b5b602002019060ff16908160ff168152505082600b60108110611b1e57611b1d614350565b5b6020020151816002602c8110611b3757611b36614350565b5b6020020151600360048110611b4f57611b4e614350565b5b602002019060ff16908160ff168152505082600c60108110611b7457611b73614350565b5b6020020151816003602c8110611b8d57611b8c614350565b5b60200201515f60048110611ba457611ba3614350565b5b602002019060ff16908160ff168152505082600d60108110611bc957611bc8614350565b5b6020020151816003602c8110611be257611be1614350565b5b6020020151600160048110611bfa57611bf9614350565b5b602002019060ff16908160ff168152505082600e60108110611c1f57611c1e614350565b5b6020020151816003602c8110611c3857611c37614350565b5b6020020151600260048110611c5057611c4f614350565b5b602002019060ff16908160ff168152505082600f60108110611c7557611c74614350565b5b6020020151816003602c8110611c8e57611c8d614350565b5b6020020151600360048110611ca657611ca5614350565b5b602002019060ff16908160ff16815250505f600490505b602c811015611f3a575f82600183611cd59190614164565b602c8110611ce657611ce5614350565b5b602002015190505f600483611cfb9190614107565b03611d8657611d11611d0c82613483565b6135ba565b90505f600483611d21919061421f565b600b8110611d3257611d31614350565b5b602091828204019190069054906101000a900460ff16815f60048110611d5b57611d5a614350565b5b602002015118815f60048110611d7457611d73614350565b5b602002019060ff16908160ff16815250505b604051806080016040528084600485611d9f9190614164565b602c8110611db057611daf614350565b5b60200201515f60048110611dc757611dc6614350565b5b6020020151835f60048110611ddf57611dde614350565b5b60200201511860ff1660ff16815260200184600485611dfe9190614164565b602c8110611e0f57611e0e614350565b5b6020020151600160048110611e2757611e26614350565b5b602002015183600160048110611e4057611e3f614350565b5b60200201511860ff1660ff16815260200184600485611e5f9190614164565b602c8110611e7057611e6f614350565b5b6020020151600260048110611e8857611e87614350565b5b602002015183600260048110611ea157611ea0614350565b5b60200201511860ff1660ff16815260200184600485611ec09190614164565b602c8110611ed157611ed0614350565b5b6020020151600360048110611ee957611ee8614350565b5b602002015183600360048110611f0257611f01614350565b5b60200201511860ff1660ff168152508383602c8110611f2457611f23614350565b5b6020020181905250508080600101915050611cbd565b5080915050919050565b611f4c6138a4565b5f5b6004811015612017575f5b600481101561200957838160048110611f7557611f74614350565b5b60200201518260048110611f8c57611f8b614350565b5b6020020151858360048110611fa457611fa3614350565b5b60200201518260048110611fbb57611fba614350565b5b602002015118858360048110611fd457611fd3614350565b5b60200201518260048110611feb57611fea614350565b5b602002019060ff16908160ff16815250508080600101915050611f59565b508080600101915050611f4e565b5082905092915050565b6120296138a4565b5f825f6004811061203d5761203c614350565b5b602002015190505f60405180608001604052808560016004811061206457612063614350565b5b602002015160036004811061207c5761207b614350565b5b602002015160ff1660ff168152602001856001600481106120a05761209f614350565b5b60200201515f600481106120b7576120b6614350565b5b602002015160ff1660ff168152602001856001600481106120db576120da614350565b5b60200201516001600481106120f3576120f2614350565b5b602002015160ff1660ff1681526020018560016004811061211757612116614350565b5b602002015160026004811061212f5761212e614350565b5b602002015160ff1660ff1681525090505f60405180608001604052808660026004811061215f5761215e614350565b5b602002015160026004811061217757612176614350565b5b602002015160ff1660ff1681526020018660026004811061219b5761219a614350565b5b60200201516003600481106121b3576121b2614350565b5b602002015160ff1660ff168152602001866002600481106121d7576121d6614350565b5b60200201515f600481106121ee576121ed614350565b5b602002015160ff1660ff1681526020018660026004811061221257612211614350565b5b602002015160016004811061222a57612229614350565b5b602002015160ff1660ff1681525090505f60405180608001604052808760036004811061225a57612259614350565b5b602002015160016004811061227257612271614350565b5b602002015160ff1660ff1681526020018760036004811061229657612295614350565b5b60200201516002600481106122ae576122ad614350565b5b602002015160ff1660ff168152602001876003600481106122d2576122d1614350565b5b60200201516003600481106122ea576122e9614350565b5b602002015160ff1660ff1681526020018760036004811061230e5761230d614350565b5b60200201515f6004811061232557612324614350565b5b602002015160ff1660ff168152509050604051806080016040528085815260200184815260200183815260200182815250945050505050919050565b6123696138a4565b5f5b6004811015612431575f5b600481101561242357600984836004811061239457612393614350565b5b602002015182600481106123ab576123aa614350565b5b602002015160ff1661010081106123c5576123c4614350565b5b602091828204019190069054906101000a900460ff168483600481106123ee576123ed614350565b5b6020020151826004811061240557612404614350565b5b602002019060ff16908160ff16815250508080600101915050612376565b50808060010191505061236b565b50819050919050565b6124426138a4565b5f604051806080016040528060405180608001604052805f60ff1681526020015f60ff1681526020015f60ff1681526020015f60ff16815250815260200160405180608001604052805f60ff1681526020015f60ff1681526020015f60ff1681526020015f60ff16815250815260200160405180608001604052805f60ff1681526020015f60ff1681526020015f60ff1681526020015f60ff16815250815260200160405180608001604052805f60ff1681526020015f60ff1681526020015f60ff1681526020015f60ff1681525081525090505f5b6004811015612a48575f5b60048110156125a35784816004811061253f5761253e614350565b5b6020020151826004811061255657612555614350565b5b602002015183826004811061256e5761256d614350565b5b6020020151836004811061258557612584614350565b5b602002019060ff16908160ff16815250508080600101915050612523565b506125de826001600481106125bb576125ba614350565b5b602002015182600481106125d2576125d1614350565b5b6020020151600b613774565b612618836002600481106125f5576125f4614350565b5b6020020151836004811061260c5761260b614350565b5b6020020151600d613774565b6126528460036004811061262f5761262e614350565b5b6020020151846004811061264657612645614350565b5b60200201516009613774565b61268b855f6004811061266857612667614350565b5b6020020151856004811061267f5761267e614350565b5b6020020151600e613774565b181818845f600481106126a1576126a0614350565b5b602002015182600481106126b8576126b7614350565b5b602002019060ff16908160ff1681525050612703826002600481106126e0576126df614350565b5b602002015182600481106126f7576126f6614350565b5b6020020151600b613774565b61273d8360036004811061271a57612719614350565b5b6020020151836004811061273157612730614350565b5b6020020151600d613774565b612776845f6004811061275357612752614350565b5b6020020151846004811061276a57612769614350565b5b60200201516009613774565b6127b08560016004811061278d5761278c614350565b5b602002015185600481106127a4576127a3614350565b5b6020020151600e613774565b181818846001600481106127c7576127c6614350565b5b602002015182600481106127de576127dd614350565b5b602002019060ff16908160ff16815250506128298260036004811061280657612805614350565b5b6020020151826004811061281d5761281c614350565b5b6020020151600b613774565b612862835f6004811061283f5761283e614350565b5b6020020151836004811061285657612855614350565b5b6020020151600d613774565b61289c8460016004811061287957612878614350565b5b602002015184600481106128905761288f614350565b5b60200201516009613774565b6128d6856002600481106128b3576128b2614350565b5b602002015185600481106128ca576128c9614350565b5b6020020151600e613774565b181818846002600481106128ed576128ec614350565b5b6020020151826004811061290457612903614350565b5b602002019060ff16908160ff168152505061294e825f6004811061292b5761292a614350565b5b6020020151826004811061294257612941614350565b5b6020020151600b613774565b6129888360016004811061296557612964614350565b5b6020020151836004811061297c5761297b614350565b5b6020020151600d613774565b6129c28460026004811061299f5761299e614350565b5b602002015184600481106129b6576129b5614350565b5b60200201516009613774565b6129fc856003600481106129d9576129d8614350565b5b602002015185600481106129f0576129ef614350565b5b6020020151600e613774565b18181884600360048110612a1357612a12614350565b5b60200201518260048110612a2a57612a29614350565b5b602002019060ff16908160ff16815250508080600101915050612518565b5082915050919050565b612a5a6138a4565b5f5b6004811015612b22575f5b6004811015612b14576001848360048110612a8557612a84614350565b5b60200201518260048110612a9c57612a9b614350565b5b602002015160ff166101008110612ab657612ab5614350565b5b602091828204019190069054906101000a900460ff16848360048110612adf57612ade614350565b5b60200201518260048110612af657612af5614350565b5b602002019060ff16908160ff16815250508080600101915050612a67565b508080600101915050612a5c565b50819050919050565b612b336138a4565b5f825f60048110612b4757612b46614350565b5b602002015190505f604051806080016040528085600160048110612b6e57612b6d614350565b5b6020020151600160048110612b8657612b85614350565b5b602002015160ff1660ff16815260200185600160048110612baa57612ba9614350565b5b6020020151600260048110612bc257612bc1614350565b5b602002015160ff1660ff16815260200185600160048110612be657612be5614350565b5b6020020151600360048110612bfe57612bfd614350565b5b602002015160ff1660ff16815260200185600160048110612c2257612c21614350565b5b60200201515f60048110612c3957612c38614350565b5b602002015160ff1660ff1681525090505f604051806080016040528086600260048110612c6957612c68614350565b5b6020020151600260048110612c8157612c80614350565b5b602002015160ff1660ff16815260200186600260048110612ca557612ca4614350565b5b6020020151600360048110612cbd57612cbc614350565b5b602002015160ff1660ff16815260200186600260048110612ce157612ce0614350565b5b60200201515f60048110612cf857612cf7614350565b5b602002015160ff1660ff16815260200186600260048110612d1c57612d1b614350565b5b6020020151600160048110612d3457612d33614350565b5b602002015160ff1660ff1681525090505f604051806080016040528087600360048110612d6457612d63614350565b5b6020020151600360048110612d7c57612d7b614350565b5b602002015160ff1660ff16815260200187600360048110612da057612d9f614350565b5b60200201515f60048110612db757612db6614350565b5b602002015160ff1660ff16815260200187600360048110612ddb57612dda614350565b5b6020020151600160048110612df357612df2614350565b5b602002015160ff1660ff16815260200187600360048110612e1757612e16614350565b5b6020020151600260048110612e2f57612e2e614350565b5b602002015160ff1660ff168152509050604051806080016040528085815260200184815260200183815260200182815250945050505050919050565b612e736138a4565b5f604051806080016040528060405180608001604052805f60ff1681526020015f60ff1681526020015f60ff1681526020015f60ff16815250815260200160405180608001604052805f60ff1681526020015f60ff1681526020015f60ff1681526020015f60ff16815250815260200160405180608001604052805f60ff1681526020015f60ff1681526020015f60ff1681526020015f60ff16815250815260200160405180608001604052805f60ff1681526020015f60ff1681526020015f60ff1681526020015f60ff1681525081525090505f5b6004811015613479575f5b6004811015612fd457848160048110612f7057612f6f614350565b5b60200201518260048110612f8757612f86614350565b5b6020020151838260048110612f9f57612f9e614350565b5b60200201518360048110612fb657612fb5614350565b5b602002019060ff16908160ff16815250508080600101915050612f54565b5061300f82600360048110612fec57612feb614350565b5b6020020151826004811061300357613002614350565b5b60200201516001613774565b6130498360026004811061302657613025614350565b5b6020020151836004811061303d5761303c614350565b5b60200201516001613774565b613083846001600481106130605761305f614350565b5b6020020151846004811061307757613076614350565b5b60200201516003613774565b6130bc855f6004811061309957613098614350565b5b602002015185600481106130b0576130af614350565b5b60200201516002613774565b181818845f600481106130d2576130d1614350565b5b602002015182600481106130e9576130e8614350565b5b602002019060ff16908160ff16815250506131348260036004811061311157613110614350565b5b6020020151826004811061312857613127614350565b5b60200201516001613774565b61316e8360026004811061314b5761314a614350565b5b6020020151836004811061316257613161614350565b5b60200201516003613774565b6131a88460016004811061318557613184614350565b5b6020020151846004811061319c5761319b614350565b5b60200201516002613774565b6131e1855f600481106131be576131bd614350565b5b602002015185600481106131d5576131d4614350565b5b60200201516001613774565b181818846001600481106131f8576131f7614350565b5b6020020151826004811061320f5761320e614350565b5b602002019060ff16908160ff168152505061325a8260036004811061323757613236614350565b5b6020020151826004811061324e5761324d614350565b5b60200201516003613774565b6132948360026004811061327157613270614350565b5b6020020151836004811061328857613287614350565b5b60200201516002613774565b6132ce846001600481106132ab576132aa614350565b5b602002015184600481106132c2576132c1614350565b5b60200201516001613774565b613307855f600481106132e4576132e3614350565b5b602002015185600481106132fb576132fa614350565b5b60200201516001613774565b1818188460026004811061331e5761331d614350565b5b6020020151826004811061333557613334614350565b5b602002019060ff16908160ff16815250506133808260036004811061335d5761335c614350565b5b6020020151826004811061337457613373614350565b5b60200201516002613774565b6133ba8360026004811061339757613396614350565b5b602002015183600481106133ae576133ad614350565b5b60200201516001613774565b6133f4846001600481106133d1576133d0614350565b5b602002015184600481106133e8576133e7614350565b5b60200201516001613774565b61342d855f6004811061340a57613409614350565b5b6020020151856004811061342157613420614350565b5b60200201516003613774565b1818188460036004811061344457613443614350565b5b6020020151826004811061345b5761345a614350565b5b602002019060ff16908160ff16815250508080600101915050612f49565b5082915050919050565b61348b6138d1565b5f60405180608001604052805f60ff1681526020015f60ff1681526020015f60ff1681526020015f60ff168152509050826001600481106134cf576134ce614350565b5b6020020151815f600481106134e7576134e6614350565b5b602002019060ff16908160ff16815250508260026004811061350c5761350b614350565b5b60200201518160016004811061352557613524614350565b5b602002019060ff16908160ff16815250508260036004811061354a57613549614350565b5b60200201518160026004811061356357613562614350565b5b602002019060ff16908160ff1681525050825f6004811061358757613586614350565b5b6020020151816003600481106135a05761359f614350565b5b602002019060ff16908160ff168152505080915050919050565b6135c26138d1565b6001825f600481106135d7576135d6614350565b5b602002015160ff1661010081106135f1576135f0614350565b5b602091828204019190069054906101000a900460ff16825f6004811061361a57613619614350565b5b602002019060ff16908160ff168152505060018260016004811061364157613640614350565b5b602002015160ff16610100811061365b5761365a614350565b5b602091828204019190069054906101000a900460ff168260016004811061368557613684614350565b5b602002019060ff16908160ff16815250506001826002600481106136ac576136ab614350565b5b602002015160ff1661010081106136c6576136c5614350565b5b602091828204019190069054906101000a900460ff16826002600481106136f0576136ef614350565b5b602002019060ff16908160ff168152505060018260036004811061371757613716614350565b5b602002015160ff16610100811061373157613730614350565b5b602091828204019190069054906101000a900460ff168260036004811061375b5761375a614350565b5b602002019060ff16908160ff1681525050819050919050565b5f808360ff16148061378857505f8260ff16145b15613795575f905061384d565b5f60118460ff1661010081106137ae576137ad614350565b5b602091828204019190069054906101000a900460ff1660ff1690505f60118460ff1661010081106137e2576137e1614350565b5b602091828204019190069054906101000a900460ff1660ff1690505f60ff828461380c9190614675565b61381691906146aa565b905060198161ffff16610100811061383157613830614350565b5b602091828204019190069054906101000a900460ff1693505050505b92915050565b604051806102000160405280601090602082028036833780820191505090505090565b604051806105800160405280602c905b61388e6138d1565b8152602001906001900390816138865790505090565b60405180608001604052806004905b6138bb6138d1565b8152602001906001900390816138b35790505090565b6040518060800160405280600490602082028036833780820191505090505090565b5f604051905090565b5f80fd5b5f80fd5b5f80fd5b5f80fd5b5f601f19601f8301169050919050565b7f4e487b71000000000000000000000000000000000000000000000000000000005f52604160045260245ffd5b6139528261390c565b810181811067ffffffffffffffff821117156139715761397061391c565b5b80604052505050565b5f6139836138f3565b905061398f8282613949565b919050565b5f67ffffffffffffffff8211156139ae576139ad61391c565b5b6139b78261390c565b9050602081019050919050565b828183375f83830152505050565b5f6139e46139df84613994565b61397a565b905082815260208101848484011115613a00576139ff613908565b5b613a0b8482856139c4565b509392505050565b5f82601f830112613a2757613a26613904565b5b8135613a378482602086016139d2565b91505092915050565b5f60208284031215613a5557613a546138fc565b5b5f82013567ffffffffffffffff811115613a7257613a71613900565b5b613a7e84828501613a13565b91505092915050565b5f81519050919050565b5f82825260208201905092915050565b5f819050602082019050919050565b5f6fffffffffffffffffffffffffffffffff82169050919050565b613ad481613ab0565b82525050565b5f613ae58383613acb565b60208301905092915050565b5f602082019050919050565b5f613b0782613a87565b613b118185613a91565b9350613b1c83613aa1565b805f5b83811015613b4c578151613b338882613ada565b9750613b3e83613af1565b925050600181019050613b1f565b5085935050505092915050565b5f6020820190508181035f830152613b718184613afd565b905092915050565b5f805f805f60a08688031215613b9257613b916138fc565b5b5f86013567ffffffffffffffff811115613baf57613bae613900565b5b613bbb88828901613a13565b955050602086013567ffffffffffffffff811115613bdc57613bdb613900565b5b613be888828901613a13565b945050604086013567ffffffffffffffff811115613c0957613c08613900565b5b613c1588828901613a13565b935050606086013567ffffffffffffffff811115613c3657613c35613900565b5b613c4288828901613a13565b925050608086013567ffffffffffffffff811115613c6357613c62613900565b5b613c6f88828901613a13565b9150509295509295909350565b5f81519050919050565b5f82825260208201905092915050565b8281835e5f83830152505050565b5f613cae82613c7c565b613cb88185613c86565b9350613cc8818560208601613c96565b613cd18161390c565b840191505092915050565b5f6020820190508181035f830152613cf48184613ca4565b905092915050565b5f67ffffffffffffffff821115613d1657613d1561391c565b5b602082029050602081019050919050565b5f80fd5b613d3481613ab0565b8114613d3e575f80fd5b50565b5f81359050613d4f81613d2b565b92915050565b5f613d67613d6284613cfc565b61397a565b90508083825260208201905060208402830185811115613d8a57613d89613d27565b5b835b81811015613db35780613d9f8882613d41565b845260208401935050602081019050613d8c565b5050509392505050565b5f82601f830112613dd157613dd0613904565b5b8135613de1848260208601613d55565b91505092915050565b5f60208284031215613dff57613dfe6138fc565b5b5f82013567ffffffffffffffff811115613e1c57613e1b613900565b5b613e2884828501613dbd565b91505092915050565b5f8060408385031215613e4757613e466138fc565b5b5f613e5485828601613d41565b9250506020613e6585828601613d41565b9150509250929050565b613e7881613ab0565b82525050565b5f602082019050613e915f830184613e6f565b92915050565b5f67ffffffffffffffff821115613eb157613eb061391c565b5b602082029050919050565b5f60ff82169050919050565b613ed181613ebc565b8114613edb575f80fd5b50565b5f81359050613eec81613ec8565b92915050565b5f613f04613eff84613e97565b61397a565b90508060208402830185811115613f1e57613f1d613d27565b5b835b81811015613f475780613f338882613ede565b845260208401935050602081019050613f20565b5050509392505050565b5f82601f830112613f6557613f64613904565b5b6010613f72848285613ef2565b91505092915050565b5f806104008385031215613f9257613f916138fc565b5b5f613f9f85828601613f51565b925050610200613fb185828601613f51565b9150509250929050565b5f60109050919050565b5f81905092915050565b5f819050919050565b613fe181613ebc565b82525050565b5f613ff28383613fd8565b60208301905092915050565b5f602082019050919050565b61401381613fbb565b61401d8184613fc5565b925061402882613fcf565b805f5b8381101561405857815161403f8782613fe7565b965061404a83613ffe565b92505060018101905061402b565b505050505050565b5f610200820190506140745f83018461400a565b92915050565b5f61020082840312156140905761408f6138fc565b5b5f61409d84828501613f51565b91505092915050565b5f602082840312156140bb576140ba6138fc565b5b5f6140c884828501613d41565b91505092915050565b5f819050919050565b7f4e487b71000000000000000000000000000000000000000000000000000000005f52601260045260245ffd5b5f614111826140d1565b915061411c836140d1565b92508261412c5761412b6140da565b5b828206905092915050565b7f4e487b71000000000000000000000000000000000000000000000000000000005f52601160045260245ffd5b5f61416e826140d1565b9150614179836140d1565b925082820390508181111561419157614190614137565b5b92915050565b5f81905092915050565b5f6141ab82613c7c565b6141b58185614197565b93506141c5818560208601613c96565b80840191505092915050565b5f815250565b5f6141e282846141a1565b91506141ed826141d1565b60018201915081905092915050565b5f61420782856141a1565b915061421382846141a1565b91508190509392505050565b5f614229826140d1565b9150614234836140d1565b925082614244576142436140da565b5b828204905092915050565b5f614259826140d1565b9150614264836140d1565b9250828202614272816140d1565b9150828204841483151761428957614288614137565b5b5092915050565b5f819050602082019050919050565b5f7fffffffffffffffffffffffffffffffff0000000000000000000000000000000082169050919050565b5f6142d5825161429f565b80915050919050565b5f82821b905092915050565b5f6142f482613c7c565b826142fe84614290565b9050614309816142ca565b92506010821015614349576143447fffffffffffffffffffffffffffffffff00000000000000000000000000000000836010036008026142de565b831692505b5050919050565b7f4e487b71000000000000000000000000000000000000000000000000000000005f52603260045260245ffd5b5f614387826140d1565b9150614392836140d1565b92508282019050808211156143aa576143a9614137565b5b92915050565b5f6143ba82613ab0565b91506143c583613ab0565b925082820190506fffffffffffffffffffffffffffffffff8111156143ed576143ec614137565b5b92915050565b5f82825260208201905092915050565b7f696e76616c6964206175746820746167000000000000000000000000000000005f82015250565b5f6144376010836143f3565b915061444282614403565b602082019050919050565b5f6020820190508181035f8301526144648161442b565b9050919050565b5f61447582613ab0565b91506fffffffffffffffffffffffffffffffff820361449757614496614137565b5b600182019050919050565b5f819050919050565b6144bc6144b78261429f565b6144a2565b82525050565b5f6144cd82846144ab565b60108201915081905092915050565b5f8160801b9050919050565b5f6144f2826144dc565b9050919050565b61450a61450582613ab0565b6144e8565b82525050565b5f61451b82846144f9565b60108201915081905092915050565b5f614534826140d1565b91505f820361454657614545614137565b5b600182039050919050565b5f61455b826140d1565b91507fffffffffffffffffffffffffffffffffffffffffffffffffffffffffffffffff820361458d5761458c614137565b5b600182019050919050565b7f736c6963655f6f766572666c6f770000000000000000000000000000000000005f82015250565b5f6145cc600e836143f3565b91506145d782614598565b602082019050919050565b5f6020820190508181035f8301526145f9816145c0565b9050919050565b7f736c6963655f6f75744f66426f756e64730000000000000000000000000000005f82015250565b5f6146346011836143f3565b915061463f82614600565b602082019050919050565b5f6020820190508181035f83015261466181614628565b9050919050565b5f61ffff82169050919050565b5f61467f82614668565b915061468a83614668565b9250828201905061ffff8111156146a4576146a3614137565b5b92915050565b5f6146b482614668565b91506146bf83614668565b9250826146cf576146ce6140da565b5b82820690509291505056fea26469706673582212209a1da3943bddb12f42868d94b88d235c6022da52ce8e848dd5177026f793547d64736f6c634300081a0033",
			"opcodes": "PUSH1 0x80 PUSH1 0x40 MSTORE PUSH1 0x40 MLOAD DUP1 PUSH2 0x160 ADD PUSH1 0x40 MSTORE DUP1 PUSH1 0x8D PUSH1 0xFF AND DUP2 MSTORE PUSH1 0x20 ADD PUSH1 0x1 PUSH1 0xFF AND DUP2 MSTORE PUSH1 0x20 ADD PUSH1 0x2 PUSH1 0xFF AND DUP2 MSTORE PUSH1 0x20 ADD PUSH1 0x4 PUSH1 0xFF AND DUP2 MSTORE PUSH1 0x20 ADD PUSH1 0x8 PUSH1 0xFF AND DUP2 MSTORE PUSH1 0x20 ADD PUSH1 0x10 PUSH1 0xFF AND DUP2 MSTORE PUSH1 0x20 ADD PUSH1 0x20 PUSH1 0xFF AND DUP2 MSTORE PUSH1 0x20 ADD PUSH1 0x40 PUSH1 0xFF AND DUP2 MSTORE PUSH1 0x20 ADD PUSH1 0x80 PUSH1 0xFF AND DUP2 MSTORE PUSH1 0x20 ADD PUSH1 0x1B PUSH1 0xFF AND DUP2 MSTORE PUSH1 0x20 ADD PUSH1 0x36 PUSH1 0xFF AND DUP2 MSTORE POP PUSH0 SWAP1 PUSH1 0xB PUSH2 0x8B SWAP3 SWAP2 SWAP1 PUSH2 0x2906 JUMP JUMPDEST POP PUSH1 0x40 MLOAD DUP1 PUSH2 0x2000 ADD PUSH1 0x40 MSTORE DUP1 PUSH1 0x63 PUSH1 0xFF AND DUP2 MSTORE PUSH1 0x20 ADD PUSH1 0x7C PUSH1 0xFF AND DUP2 MSTORE PUSH1 0x20 ADD PUSH1 0x77 PUSH1 0xFF AND DUP2 MSTORE PUSH1 0x20 ADD PUSH1 0x7B PUSH1 0xFF AND DUP2 MSTORE PUSH1 0x20 ADD PUSH1 0xF2 PUSH1 0xFF AND DUP2 MSTORE PUSH1 0x20 ADD PUSH1 0x6B PUSH1 0xFF AND DUP2 MSTORE PUSH1 0x20 ADD PUSH1 0x6F PUSH1 0xFF AND DUP2 MSTORE PUSH1 0x20 ADD PUSH1 0xC5 PUSH1 0xFF AND DUP2 MSTORE PUSH1 0x20 ADD PUSH1 0x30 PUSH1 0xFF AND DUP2 MSTORE PUSH1 0x20 ADD PUSH1 0x1 PUSH1 0xFF AND DUP2 MSTORE PUSH1 0x20 ADD PUSH1 0x67 PUSH1 0xFF AND DUP2 MSTORE PUSH1 0x20 ADD PUSH1 0x2B PUSH1 0xFF AND DUP2 MSTORE PUSH1 0x20 ADD PUSH1 0xFE PUSH1 0xFF AND DUP2 MSTORE PUSH1 0x20 ADD PUSH1 0xD7 PUSH1 0xFF AND DUP2 MSTORE PUSH1 0x20 ADD PUSH1 0xAB PUSH1 0xFF AND DUP2 MSTORE PUSH1 0x20 ADD PUSH1 0x76 PUSH1 0xFF AND DUP2 MSTORE PUSH1 0x20 ADD PUSH1 0xCA PUSH1 0xFF AND DUP2 MSTORE PUSH1 0x20 ADD PUSH1 0x82 PUSH1 0xFF AND DUP2 MSTORE PUSH1 0x20 ADD PUSH1 0xC9 PUSH1 0xFF AND DUP2 MSTORE PUSH1 0x20 ADD PUSH1 0x7D PUSH1 0xFF AND DUP2 MSTORE PUSH1 0x20 ADD PUSH1 0xFA PUSH1 0xFF AND DUP2 MSTORE PUSH1 0x20 ADD PUSH1 0x59 PUSH1 0xFF AND DUP2 MSTORE PUSH1 0x20 ADD PUSH1 0x47 PUSH1 0xFF AND DUP2 MSTORE PUSH1 0x20 ADD PUSH1 0xF0 PUSH1 0xFF AND DUP2 MSTORE PUSH1 0x20 ADD PUSH1 0xAD PUSH1 0xFF AND DUP2 MSTORE PUSH1 0x20 ADD PUSH1 0xD4 PUSH1 0xFF AND DUP2 MSTORE PUSH1 0x20 ADD PUSH1 0xA2 PUSH1 0xFF AND DUP2 MSTORE PUSH1 0x20 ADD PUSH1 0xAF PUSH1 0xFF AND DUP2 MSTORE PUSH1 0x20 ADD PUSH1 0x9C PUSH1 0xFF AND DUP2 MSTORE PUSH1 0x20 ADD PUSH1 0xA4 PUSH1 0xFF AND DUP2 MSTORE PUSH1 0x20 ADD PUSH1 0x72 PUSH1 0xFF AND DUP2 MSTORE PUSH1 0x20 ADD PUSH1 0xC0 PUSH1 0xFF AND DUP2 MSTORE PUSH1 0x20 ADD PUSH1 0xB7 PUSH1 0xFF AND DUP2 MSTORE PUSH1 0x20 ADD PUSH1 0xFD PUSH1 0xFF AND DUP2 MSTORE PUSH1 0x20 ADD PUSH1 0x93 PUSH1 0xFF AND DUP2 MSTORE PUSH1 0x20 ADD PUSH1 0x26 PUSH1 0xFF AND DUP2 MSTORE PUSH1 0x20 ADD PUSH1 0x36 PUSH1 0xFF AND DUP2 MSTORE PUSH1 0x20 ADD PUSH1 0x3F PUSH1 0xFF AND DUP2 MSTORE PUSH1 0x20 ADD PUSH1 0xF7 PUSH1 0xFF AND DUP2 MSTORE PUSH1 0x20 ADD PUSH1 0xCC PUSH1 0xFF AND DUP2 MSTORE PUSH1 0x20 ADD PUSH1 0x34 PUSH1 0xFF AND DUP2 MSTORE PUSH1 0x20 ADD PUSH1 0xA5 PUSH1 0xFF AND DUP2 MSTORE PUSH1 0x20 ADD PUSH1 0xE5 PUSH1 0xFF AND DUP2 MSTORE PUSH1 0x20 ADD PUSH1 0xF1 PUSH1 0xFF AND DUP2 MSTORE PUSH1 0x20 ADD PUSH1 0x71 PUSH1 0xFF AND DUP2 MSTORE PUSH1 0x20 ADD PUSH1 0xD8 PUSH1 0xFF AND DUP2 MSTORE PUSH1 0x20 ADD PUSH1 0x31 PUSH1 0xFF AND DUP2 MSTORE PUSH1 0x20 ADD PUSH1 0x15 PUSH1 0xFF AND DUP2 MSTORE PUSH1 0x20 ADD PUSH1 0x4 PUSH1 0xFF AND DUP2 MSTORE PUSH1 0x20 ADD PUSH1 0xC7 PUSH1 0xFF AND DUP2 MSTORE PUSH1 0x20 ADD PUSH1 0x23 PUSH1 0xFF AND DUP2 MSTORE PUSH1 0x20 ADD PUSH1 0xC3 PUSH1 0xFF AND DUP2 MSTORE PUSH1 0x20 ADD PUSH1 0x18 PUSH1 0xFF AND DUP2 MSTORE PUSH1 0x20 ADD PUSH1 0x96 PUSH1 0xFF AND DUP2 MSTORE PUSH1 0x20 ADD PUSH1 0x5 PUSH1 0xFF AND DUP2 MSTORE PUSH1 0x20 ADD PUSH1 0x9A PUSH1 0xFF AND DUP2 MSTORE PUSH1 0x20 ADD PUSH1 0x7 PUSH1 0xFF AND DUP2 MSTORE PUSH1 0x20 ADD PUSH1 0x12 PUSH1 0xFF AND DUP2 MSTORE PUSH1 0x20 ADD PUSH1 0x80 PUSH1 0xFF AND DUP2 MSTORE PUSH1 0x20 ADD PUSH1 0xE2 PUSH1 0xFF AND DUP2 MSTORE PUSH1 0x20 ADD PUSH1 0xEB PUSH1 0xFF AND DUP2 MSTORE PUSH1 0x20 ADD PUSH1 0x27 PUSH1 0xFF AND DUP2 MSTORE PUSH1 0x20 ADD PUSH1 0xB2 PUSH1 0xFF AND DUP2 MSTORE PUSH1 0x20 ADD PUSH1 0x75 PUSH1 0xFF AND DUP2 MSTORE PUSH1 0x20 ADD PUSH1 0x9 PUSH1 0xFF AND DUP2 MSTORE PUSH1 0x20 ADD PUSH1 0x83 PUSH1 0xFF AND DUP2 MSTORE PUSH1 0x20 ADD PUSH1 0x2C PUSH1 0xFF AND DUP2 MSTORE PUSH1 0x20 ADD PUSH1 0x1A PUSH1 0xFF AND DUP2 MSTORE PUSH1 0x20 ADD PUSH1 0x1B PUSH1 0xFF AND DUP2 MSTORE PUSH1 0x20 ADD PUSH1 0x6E PUSH1 0xFF AND DUP2 MSTORE PUSH1 0x20 ADD PUSH1 0x5A PUSH1 0xFF AND DUP2 MSTORE PUSH1 0x20 ADD PUSH1 0xA0 PUSH1 0xFF AND DUP2 MSTORE PUSH1 0x20 ADD PUSH1 0x52 PUSH1 0xFF AND DUP2 MSTORE PUSH1 0x20 ADD PUSH1 0x3B PUSH1 0xFF AND DUP2 MSTORE PUSH1 0x20 ADD PUSH1 0xD6 PUSH1 0xFF AND DUP2 MSTORE PUSH1 0x20 ADD PUSH1 0xB3 PUSH1 0xFF AND DUP2 MSTORE PUSH1 0x20 ADD PUSH1 0x29 PUSH1 0xFF AND DUP2 MSTORE PUSH1 0x20 ADD PUSH1 0xE3 PUSH1 0xFF AND DUP2 MSTORE PUSH1 0x20 ADD PUSH1 0x2F PUSH1 0xFF AND DUP2 MSTORE PUSH1 0x20 ADD PUSH1 0x84 PUSH1 0xFF AND DUP2 MSTORE PUSH1 0x20 ADD PUSH1 0x53 PUSH1 0xFF AND DUP2 MSTORE PUSH1 0x20 ADD PUSH1 0xD1 PUSH1 0xFF AND DUP2 MSTORE PUSH1 0x20 ADD PUSH0 PUSH1 0xFF AND DUP2 MSTORE PUSH1 0x20 ADD PUSH1 0xED PUSH1 0xFF AND DUP2 MSTORE PUSH1 0x20 ADD PUSH1 0x20 PUSH1 0xFF AND DUP2 MSTORE PUSH1 0x20 ADD PUSH1 0xFC PUSH1 0xFF AND DUP2 MSTORE PUSH1 0x20 ADD PUSH1 0xB1 PUSH1 0xFF AND DUP2 MSTORE PUSH1 0x20 ADD PUSH1 0x5B PUSH1 0xFF AND DUP2 MSTORE PUSH1 0x20 ADD PUSH1 0x6A PUSH1 0xFF AND DUP2 MSTORE PUSH1 0x20 ADD PUSH1 0xCB PUSH1 0xFF AND DUP2 MSTORE PUSH1 0x20 ADD PUSH1 0xBE PUSH1 0xFF AND DUP2 MSTORE PUSH1 0x20 ADD PUSH1 0x39 PUSH1 0xFF AND DUP2 MSTORE PUSH1 0x20 ADD PUSH1 0x4A PUSH1 0xFF AND DUP2 MSTORE PUSH1 0x20 ADD PUSH1 0x4C PUSH1 0xFF AND DUP2 MSTORE PUSH1 0x20 ADD PUSH1 0x58 PUSH1 0xFF AND DUP2 MSTORE PUSH1 0x20 ADD PUSH1 0xCF PUSH1 0xFF AND DUP2 MSTORE PUSH1 0x20 ADD PUSH1 0xD0 PUSH1 0xFF AND DUP2 MSTORE PUSH1 0x20 ADD PUSH1 0xEF PUSH1 0xFF AND DUP2 MSTORE PUSH1 0x20 ADD PUSH1 0xAA PUSH1 0xFF AND DUP2 MSTORE PUSH1 0x20 ADD PUSH1 0xFB PUSH1 0xFF AND DUP2 MSTORE PUSH1 0x20 ADD PUSH1 0x43 PUSH1 0xFF AND DUP2 MSTORE PUSH1 0x20 ADD PUSH1 0x4D PUSH1 0xFF AND DUP2 MSTORE PUSH1 0x20 ADD PUSH1 0x33 PUSH1 0xFF AND DUP2 MSTORE PUSH1 0x20 ADD PUSH1 0x85 PUSH1 0xFF AND DUP2 MSTORE PUSH1 0x20 ADD PUSH1 0x45 PUSH1 0xFF AND DUP2 MSTORE PUSH1 0x20 ADD PUSH1 0xF9 PUSH1 0xFF AND DUP2 MSTORE PUSH1 0x20 ADD PUSH1 0x2 PUSH1 0xFF AND DUP2 MSTORE PUSH1 0x20 ADD PUSH1 0x7F PUSH1 0xFF AND DUP2 MSTORE PUSH1 0x20 ADD PUSH1 0x50 PUSH1 0xFF AND DUP2 MSTORE PUSH1 0x20 ADD PUSH1 0x3C PUSH1 0xFF AND DUP2 MSTORE PUSH1 0x20 ADD PUSH1 0x9F PUSH1 0xFF AND DUP2 MSTORE PUSH1 0x20 ADD PUSH1 0xA8 PUSH1 0xFF AND DUP2 MSTORE PUSH1 0x20 ADD PUSH1 0x51 PUSH1 0xFF AND DUP2 MSTORE PUSH1 0x20 ADD PUSH1 0xA3 PUSH1 0xFF AND DUP2 MSTORE PUSH1 0x20 ADD PUSH1 0x40 PUSH1 0xFF AND DUP2 MSTORE PUSH1 0x20 ADD PUSH1 0x8F PUSH1 0xFF AND DUP2 MSTORE PUSH1 0x20 ADD PUSH1 0x92 PUSH1 0xFF AND DUP2 MSTORE PUSH1 0x20 ADD PUSH1 0x9D PUSH1 0xFF AND DUP2 MSTORE PUSH1 0x20 ADD PUSH1 0x38 PUSH1 0xFF AND DUP2 MSTORE PUSH1 0x20 ADD PUSH1 0xF5 PUSH1 0xFF AND DUP2 MSTORE PUSH1 0x20 ADD PUSH1 0xBC PUSH1 0xFF AND DUP2 MSTORE PUSH1 0x20 ADD PUSH1 0xB6 PUSH1 0xFF AND DUP2 MSTORE PUSH1 0x20 ADD PUSH1 0xDA PUSH1 0xFF AND DUP2 MSTORE PUSH1 0x20 ADD PUSH1 0x21 PUSH1 0xFF AND DUP2 MSTORE PUSH1 0x20 ADD PUSH1 0x10 PUSH1 0xFF AND DUP2 MSTORE PUSH1 0x20 ADD PUSH1 0xFF DUP1 AND DUP2 MSTORE PUSH1 0x20 ADD PUSH1 0xF3 PUSH1 0xFF AND DUP2 MSTORE PUSH1 0x20 ADD PUSH1 0xD2 PUSH1 0xFF AND DUP2 MSTORE PUSH1 0x20 ADD PUSH1 0xCD PUSH1 0xFF AND DUP2 MSTORE PUSH1 0x20 ADD PUSH1 0xC PUSH1 0xFF AND DUP2 MSTORE PUSH1 0x20 ADD PUSH1 0x13 PUSH1 0xFF AND DUP2 MSTORE PUSH1 0x20 ADD PUSH1 0xEC PUSH1 0xFF AND DUP2 MSTORE PUSH1 0x20 ADD PUSH1 0x5F PUSH1 0xFF AND DUP2 MSTORE PUSH1 0x20 ADD PUSH1 0x97 PUSH1 0xFF AND DUP2 MSTORE PUSH1 0x20 ADD PUSH1 0x44 PUSH1 0xFF AND DUP2 MSTORE PUSH1 0x20 ADD PUSH1 0x17 PUSH1 0xFF AND DUP2 MSTORE PUSH1 0x20 ADD PUSH1 0xC4 PUSH1 0xFF AND DUP2 MSTORE PUSH1 0x20 ADD PUSH1 0xA7 PUSH1 0xFF AND DUP2 MSTORE PUSH1 0x20 ADD PUSH1 0x7E PUSH1 0xFF AND DUP2 MSTORE PUSH1 0x20 ADD PUSH1 0x3D PUSH1 0xFF AND DUP2 MSTORE PUSH1 0x20 ADD PUSH1 0x64 PUSH1 0xFF AND DUP2 MSTORE PUSH1 0x20 ADD PUSH1 0x5D PUSH1 0xFF AND DUP2 MSTORE PUSH1 0x20 ADD PUSH1 0x19 PUSH1 0xFF AND DUP2 MSTORE PUSH1 0x20 ADD PUSH1 0x73 PUSH1 0xFF AND DUP2 MSTORE PUSH1 0x20 ADD PUSH1 0x60 PUSH1 0xFF AND DUP2 MSTORE PUSH1 0x20 ADD PUSH1 0x81 PUSH1 0xFF AND DUP2 MSTORE PUSH1 0x20 ADD PUSH1 0x4F PUSH1 0xFF AND DUP2 MSTORE PUSH1 0x20 ADD PUSH1 0xDC PUSH1 0xFF AND DUP2 MSTORE PUSH1 0x20 ADD PUSH1 0x22 PUSH1 0xFF AND DUP2 MSTORE PUSH1 0x20 ADD PUSH1 0x2A PUSH1 0xFF AND DUP2 MSTORE PUSH1 0x20 ADD PUSH1 0x90 PUSH1 0xFF AND DUP2 MSTORE PUSH1 0x20 ADD PUSH1 0x88 PUSH1 0xFF AND DUP2 MSTORE PUSH1 0x20 ADD PUSH1 0x46 PUSH1 0xFF AND DUP2 MSTORE PUSH1 0x20 ADD PUSH1 0xEE PUSH1 0xFF AND DUP2 MSTORE PUSH1 0x20 ADD PUSH1 0xB8 PUSH1 0xFF AND DUP2 MSTORE PUSH1 0x20 ADD PUSH1 0x14 PUSH1 0xFF AND DUP2 MSTORE PUSH1 0x20 ADD PUSH1 0xDE PUSH1 0xFF AND DUP2 MSTORE PUSH1 0x20 ADD PUSH1 0x5E PUSH1 0xFF AND DUP2 MSTORE PUSH1 0x20 ADD PUSH1 0xB PUSH1 0xFF AND DUP2 MSTORE PUSH1 0x20 ADD PUSH1 0xDB PUSH1 0xFF AND DUP2 MSTORE PUSH1 0x20 ADD PUSH1 0xE0 PUSH1 0xFF AND DUP2 MSTORE PUSH1 0x20 ADD PUSH1 0x32 PUSH1 0xFF AND DUP2 MSTORE PUSH1 0x20 ADD PUSH1 0x3A PUSH1 0xFF AND DUP2 MSTORE PUSH1 0x20 ADD PUSH1 0xA PUSH1 0xFF AND DUP2 MSTORE PUSH1 0x20 ADD PUSH1 0x49 PUSH1 0xFF AND DUP2 MSTORE PUSH1 0x20 ADD PUSH1 0x6 PUSH1 0xFF AND DUP2 MSTORE PUSH1 0x20 ADD PUSH1 0x24 PUSH1 0xFF AND DUP2 MSTORE PUSH1 0x20 ADD PUSH1 0x5C PUSH1 0xFF AND DUP2 MSTORE PUSH1 0x20 ADD PUSH1 0xC2 PUSH1 0xFF AND DUP2 MSTORE PUSH1 0x20 ADD PUSH1 0xD3 PUSH1 0xFF AND DUP2 MSTORE PUSH1 0x20 ADD PUSH1 0xAC PUSH1 0xFF AND DUP2 MSTORE PUSH1 0x20 ADD PUSH1 0x62 PUSH1 0xFF AND DUP2 MSTORE PUSH1 0x20 ADD PUSH1 0x91 PUSH1 0xFF AND DUP2 MSTORE PUSH1 0x20 ADD PUSH1 0x95 PUSH1 0xFF AND DUP2 MSTORE PUSH1 0x20 ADD PUSH1 0xE4 PUSH1 0xFF AND DUP2 MSTORE PUSH1 0x20 ADD PUSH1 0x79 PUSH1 0xFF AND DUP2 MSTORE PUSH1 0x20 ADD PUSH1 0xE7 PUSH1 0xFF AND DUP2 MSTORE PUSH1 0x20 ADD PUSH1 0xC8 PUSH1 0xFF AND DUP2 MSTORE PUSH1 0x20 ADD PUSH1 0x37 PUSH1 0xFF AND DUP2 MSTORE PUSH1 0x20 ADD PUSH1 0x6D PUSH1 0xFF AND DUP2 MSTORE PUSH1 0x20 ADD PUSH1 0x8D PUSH1 0xFF AND DUP2 MSTORE PUSH1 0x20 ADD PUSH1 0xD5 PUSH1 0xFF AND DUP2 MSTORE PUSH1 0x20 ADD PUSH1 0x4E PUSH1 0xFF AND DUP2 MSTORE PUSH1 0x20 ADD PUSH1 0xA9 PUSH1 0xFF AND DUP2 MSTORE PUSH1 0x20 ADD PUSH1 0x6C PUSH1 0xFF AND DUP2 MSTORE PUSH1 0x20 ADD PUSH1 0x56 PUSH1 0xFF AND DUP2 MSTORE PUSH1 0x20 ADD PUSH1 0xF4 PUSH1 0xFF AND DUP2 MSTORE PUSH1 0x20 ADD PUSH1 0xEA PUSH1 0xFF AND DUP2 MSTORE PUSH1 0x20 ADD PUSH1 0x65 PUSH1 0xFF AND DUP2 MSTORE PUSH1 0x20 ADD PUSH1 0x7A PUSH1 0xFF AND DUP2 MSTORE PUSH1 0x20 ADD PUSH1 0xAE PUSH1 0xFF AND DUP2 MSTORE PUSH1 0x20 ADD PUSH1 0x8 PUSH1 0xFF AND DUP2 MSTORE PUSH1 0x20 ADD PUSH1 0xBA PUSH1 0xFF AND DUP2 MSTORE PUSH1 0x20 ADD PUSH1 0x78 PUSH1 0xFF AND DUP2 MSTORE PUSH1 0x20 ADD PUSH1 0x25 PUSH1 0xFF AND DUP2 MSTORE PUSH1 0x20 ADD PUSH1 0x2E PUSH1 0xFF AND DUP2 MSTORE PUSH1 0x20 ADD PUSH1 0x1C PUSH1 0xFF AND DUP2 MSTORE PUSH1 0x20 ADD PUSH1 0xA6 PUSH1 0xFF AND DUP2 MSTORE PUSH1 0x20 ADD PUSH1 0xB4 PUSH1 0xFF AND DUP2 MSTORE PUSH1 0x20 ADD PUSH1 0xC6 PUSH1 0xFF AND DUP2 MSTORE PUSH1 0x20 ADD PUSH1 0xE8 PUSH1 0xFF AND DUP2 MSTORE PUSH1 0x20 ADD PUSH1 0xDD PUSH1 0xFF AND DUP2 MSTORE PUSH1 0x20 ADD PUSH1 0x74 PUSH1 0xFF AND DUP2 MSTORE PUSH1 0x20 ADD PUSH1 0x1F PUSH1 0xFF AND DUP2 MSTORE PUSH1 0x20 ADD PUSH1 0x4B PUSH1 0xFF AND DUP2 MSTORE PUSH1 0x20 ADD PUSH1 0xBD PUSH1 0xFF AND DUP2 MSTORE PUSH1 0x20 ADD PUSH1 0x8B PUSH1 0xFF AND DUP2 MSTORE PUSH1 0x20 ADD PUSH1 0x8A PUSH1 0xFF AND DUP2 MSTORE PUSH1 0x20 ADD PUSH1 0x70 PUSH1 0xFF AND DUP2 MSTORE PUSH1 0x20 ADD PUSH1 0x3E PUSH1 0xFF AND DUP2 MSTORE PUSH1 0x20 ADD PUSH1 0xB5 PUSH1 0xFF AND DUP2 MSTORE PUSH1 0x20 ADD PUSH1 0x66 PUSH1 0xFF AND DUP2 MSTORE PUSH1 0x20 ADD PUSH1 0x48 PUSH1 0xFF AND DUP2 MSTORE PUSH1 0x20 ADD PUSH1 0x3 PUSH1 0xFF AND DUP2 MSTORE PUSH1 0x20 ADD PUSH1 0xF6 PUSH1 0xFF AND DUP2 MSTORE PUSH1 0x20 ADD PUSH1 0xE PUSH1 0xFF AND DUP2 MSTORE PUSH1 0x20 ADD PUSH1 0x61 PUSH1 0xFF AND DUP2 MSTORE PUSH1 0x20 ADD PUSH1 0x35 PUSH1 0xFF AND DUP2 MSTORE PUSH1 0x20 ADD PUSH1 0x57 PUSH1 0xFF AND DUP2 MSTORE PUSH1 0x20 ADD PUSH1 0xB9 PUSH1 0xFF AND DUP2 MSTORE PUSH1 0x20 ADD PUSH1 0x86 PUSH1 0xFF AND DUP2 MSTORE PUSH1 0x20 ADD PUSH1 0xC1 PUSH1 0xFF AND DUP2 MSTORE PUSH1 0x20 ADD PUSH1 0x1D PUSH1 0xFF AND DUP2 MSTORE PUSH1 0x20 ADD PUSH1 0x9E PUSH1 0xFF AND DUP2 MSTORE PUSH1 0x20 ADD PUSH1 0xE1 PUSH1 0xFF AND DUP2 MSTORE PUSH1 0x20 ADD PUSH1 0xF8 PUSH1 0xFF AND DUP2 MSTORE PUSH1 0x20 ADD PUSH1 0x98 PUSH1 0xFF AND DUP2 MSTORE PUSH1 0x20 ADD PUSH1 0x11 PUSH1 0xFF AND DUP2 MSTORE PUSH1 0x20 ADD PUSH1 0x69 PUSH1 0xFF AND DUP2 MSTORE PUSH1 0x20 ADD PUSH1 0xD9 PUSH1 0xFF AND DUP2 MSTORE PUSH1 0x20 ADD PUSH1 0x8E PUSH1 0xFF AND DUP2 MSTORE PUSH1 0x20 ADD PUSH1 0x94 PUSH1 0xFF AND DUP2 MSTORE PUSH1 0x20 ADD PUSH1 0x9B PUSH1 0xFF AND DUP2 MSTORE PUSH1 0x20 ADD PUSH1 0x1E PUSH1 0xFF AND DUP2 MSTORE PUSH1 0x20 ADD PUSH1 0x87 PUSH1 0xFF AND DUP2 MSTORE PUSH1 0x20 ADD PUSH1 0xE9 PUSH1 0xFF AND DUP2 MSTORE PUSH1 0x20 ADD PUSH1 0xCE PUSH1 0xFF AND DUP2 MSTORE PUSH1 0x20 ADD PUSH1 0x55 PUSH1 0xFF AND DUP2 MSTORE PUSH1 0x20 ADD PUSH1 0x28 PUSH1 0xFF AND DUP2 MSTORE PUSH1 0x20 ADD PUSH1 0xDF PUSH1 0xFF AND DUP2 MSTORE PUSH1 0x20 ADD PUSH1 0x8C PUSH1 0xFF AND DUP2 MSTORE PUSH1 0x20 ADD PUSH1 0xA1 PUSH1 0xFF AND DUP2 MSTORE PUSH1 0x20 ADD PUSH1 0x89 PUSH1 0xFF AND DUP2 MSTORE PUSH1 0x20 ADD PUSH1 0xD PUSH1 0xFF AND DUP2 MSTORE PUSH1 0x20 ADD PUSH1 0xBF PUSH1 0xFF AND DUP2 MSTORE PUSH1 0x20 ADD PUSH1 0xE6 PUSH1 0xFF AND DUP2 MSTORE PUSH1 0x20 ADD PUSH1 0x42 PUSH1 0xFF AND DUP2 MSTORE PUSH1 0x20 ADD PUSH1 0x68 PUSH1 0xFF AND DUP2 MSTORE PUSH1 0x20 ADD PUSH1 0x41 PUSH1 0xFF AND DUP2 MSTORE PUSH1 0x20 ADD PUSH1 0x99 PUSH1 0xFF AND DUP2 MSTORE PUSH1 0x20 ADD PUSH1 0x2D PUSH1 0xFF AND DUP2 MSTORE PUSH1 0x20 ADD PUSH1 0xF PUSH1 0xFF AND DUP2 MSTORE PUSH1 0x20 ADD PUSH1 0xB0 PUSH1 0xFF AND DUP2 MSTORE PUSH1 0x20 ADD PUSH1 0x54 PUSH1 0xFF AND DUP2 MSTORE PUSH1 0x20 ADD PUSH1 0xBB PUSH1 0xFF AND DUP2 MSTORE PUSH1 0x20 ADD PUSH1 0x16 PUSH1 0xFF AND DUP2 MSTORE POP PUSH1 0x1 SWAP1 PUSH2 0x100 PUSH2 0xAA5 SWAP3 SWAP2 SWAP1 PUSH2 0x299D JUMP JUMPDEST POP PUSH1 0x40 MLOAD DUP1 PUSH2 0x2000 ADD PUSH1 0x40 MSTORE DUP1 PUSH1 0x52 PUSH1 0xFF AND DUP2 MSTORE PUSH1 0x20 ADD PUSH1 0x9 PUSH1 0xFF AND DUP2 MSTORE PUSH1 0x20 ADD PUSH1 0x6A PUSH1 0xFF AND DUP2 MSTORE PUSH1 0x20 ADD PUSH1 0xD5 PUSH1 0xFF AND DUP2 MSTORE PUSH1 0x20 ADD PUSH1 0x30 PUSH1 0xFF AND DUP2 MSTORE PUSH1 0x20 ADD PUSH1 0x36 PUSH1 0xFF AND DUP2 MSTORE PUSH1 0x20 ADD PUSH1 0xA5 PUSH1 0xFF AND DUP2 MSTORE PUSH1 0x20 ADD PUSH1 0x38 PUSH1 0xFF AND DUP2 MSTORE PUSH1 0x20 ADD PUSH1 0xBF PUSH1 0xFF AND DUP2 MSTORE PUSH1 0x20 ADD PUSH1 0x40 PUSH1 0xFF AND DUP2 MSTORE PUSH1 0x20 ADD PUSH1 0xA3 PUSH1 0xFF AND DUP2 MSTORE PUSH1 0x20 ADD PUSH1 0x9E PUSH1 0xFF AND DUP2 MSTORE PUSH1 0x20 ADD PUSH1 0x81 PUSH1 0xFF AND DUP2 MSTORE PUSH1 0x20 ADD PUSH1 0xF3 PUSH1 0xFF AND DUP2 MSTORE PUSH1 0x20 ADD PUSH1 0xD7 PUSH1 0xFF AND DUP2 MSTORE PUSH1 0x20 ADD PUSH1 0xFB PUSH1 0xFF AND DUP2 MSTORE PUSH1 0x20 ADD PUSH1 0x7C PUSH1 0xFF AND DUP2 MSTORE PUSH1 0x20 ADD PUSH1 0xE3 PUSH1 0xFF AND DUP2 MSTORE PUSH1 0x20 ADD PUSH1 0x39 PUSH1 0xFF AND DUP2 MSTORE PUSH1 0x20 ADD PUSH1 0x82 PUSH1 0xFF AND DUP2 MSTORE PUSH1 0x20 ADD PUSH1 0x9B PUSH1 0xFF AND DUP2 MSTORE PUSH1 0x20 ADD PUSH1 0x2F PUSH1 0xFF AND DUP2 MSTORE PUSH1 0x20 ADD PUSH1 0xFF DUP1 AND DUP2 MSTORE PUSH1 0x20 ADD PUSH1 0x87 PUSH1 0xFF AND DUP2 MSTORE PUSH1 0x20 ADD PUSH1 0x34 PUSH1 0xFF AND DUP2 MSTORE PUSH1 0x20 ADD PUSH1 0x8E PUSH1 0xFF AND DUP2 MSTORE PUSH1 0x20 ADD PUSH1 0x43 PUSH1 0xFF AND DUP2 MSTORE PUSH1 0x20 ADD PUSH1 0x44 PUSH1 0xFF AND DUP2 MSTORE PUSH1 0x20 ADD PUSH1 0xC4 PUSH1 0xFF AND DUP2 MSTORE PUSH1 0x20 ADD PUSH1 0xDE PUSH1 0xFF AND DUP2 MSTORE PUSH1 0x20 ADD PUSH1 0xE9 PUSH1 0xFF AND DUP2 MSTORE PUSH1 0x20 ADD PUSH1 0xCB PUSH1 0xFF AND DUP2 MSTORE PUSH1 0x20 ADD PUSH1 0x54 PUSH1 0xFF AND DUP2 MSTORE PUSH1 0x20 ADD PUSH1 0x7B PUSH1 0xFF AND DUP2 MSTORE PUSH1 0x20 ADD PUSH1 0x94 PUSH1 0xFF AND DUP2 MSTORE PUSH1 0x20 ADD PUSH1 0x32 PUSH1 0xFF AND DUP2 MSTORE PUSH1 0x20 ADD PUSH1 0xA6 PUSH1 0xFF AND DUP2 MSTORE PUSH1 0x20 ADD PUSH1 0xC2 PUSH1 0xFF AND DUP2 MSTORE PUSH1 0x20 ADD PUSH1 0x23 PUSH1 0xFF AND DUP2 MSTORE PUSH1 0x20 ADD PUSH1 0x3D PUSH1 0xFF AND DUP2 MSTORE PUSH1 0x20 ADD PUSH1 0xEE PUSH1 0xFF AND DUP2 MSTORE PUSH1 0x20 ADD PUSH1 0x4C PUSH1 0xFF AND DUP2 MSTORE PUSH1 0x20 ADD PUSH1 0x95 PUSH1 0xFF AND DUP2 MSTORE PUSH1 0x20 ADD PUSH1 0xB PUSH1 0xFF AND DUP2 MSTORE PUSH1 0x20 ADD PUSH1 0x42 PUSH1 0xFF AND DUP2 MSTORE PUSH1 0x20 ADD PUSH1 0xFA PUSH1 0xFF AND DUP2 MSTORE PUSH1 0x20 ADD PUSH1 0xC3 PUSH1 0xFF AND DUP2 MSTORE PUSH1 0x20 ADD PUSH1 0x4E PUSH1 0xFF AND DUP2 MSTORE PUSH1 0x20 ADD PUSH1 0x8 PUSH1 0xFF AND DUP2 MSTORE PUSH1 0x20 ADD PUSH1 0x2E PUSH1 0xFF AND DUP2 MSTORE PUSH1 0x20 ADD PUSH1 0xA1 PUSH1 0xFF AND DUP2 MSTORE PUSH1 0x20 ADD PUSH1 0x66 PUSH1 0xFF AND DUP2 MSTORE PUSH1 0x20 ADD PUSH1 0x28 PUSH1 0xFF AND DUP2 MSTORE PUSH1 0x20 ADD PUSH1 0xD9 PUSH1 0xFF AND DUP2 MSTORE PUSH1 0x20 ADD PUSH1 0x24 PUSH1 0xFF AND DUP2 MSTORE PUSH1 0x20 ADD PUSH1 0xB2 PUSH1 0xFF AND DUP2 MSTORE PUSH1 0x20 ADD PUSH1 0x76 PUSH1 0xFF AND DUP2 MSTORE PUSH1 0x20 ADD PUSH1 0x5B PUSH1 0xFF AND DUP2 MSTORE PUSH1 0x20 ADD PUSH1 0xA2 PUSH1 0xFF AND DUP2 MSTORE PUSH1 0x20 ADD PUSH1 0x49 PUSH1 0xFF AND DUP2 MSTORE PUSH1 0x20 ADD PUSH1 0x6D PUSH1 0xFF AND DUP2 MSTORE PUSH1 0x20 ADD PUSH1 0x8B PUSH1 0xFF AND DUP2 MSTORE PUSH1 0x20 ADD PUSH1 0xD1 PUSH1 0xFF AND DUP2 MSTORE PUSH1 0x20 ADD PUSH1 0x25 PUSH1 0xFF AND DUP2 MSTORE PUSH1 0x20 ADD PUSH1 0x72 PUSH1 0xFF AND DUP2 MSTORE PUSH1 0x20 ADD PUSH1 0xF8 PUSH1 0xFF AND DUP2 MSTORE PUSH1 0x20 ADD PUSH1 0xF6 PUSH1 0xFF AND DUP2 MSTORE PUSH1 0x20 ADD PUSH1 0x64 PUSH1 0xFF AND DUP2 MSTORE PUSH1 0x20 ADD PUSH1 0x86 PUSH1 0xFF AND DUP2 MSTORE PUSH1 0x20 ADD PUSH1 0x68 PUSH1 0xFF AND DUP2 MSTORE PUSH1 0x20 ADD PUSH1 0x98 PUSH1 0xFF AND DUP2 MSTORE PUSH1 0x20 ADD PUSH1 0x16 PUSH1 0xFF AND DUP2 MSTORE PUSH1 0x20 ADD PUSH1 0xD4 PUSH1 0xFF AND DUP2 MSTORE PUSH1 0x20 ADD PUSH1 0xA4 PUSH1 0xFF AND DUP2 MSTORE PUSH1 0x20 ADD PUSH1 0x5C PUSH1 0xFF AND DUP2 MSTORE PUSH1 0x20 ADD PUSH1 0xCC PUSH1 0xFF AND DUP2 MSTORE PUSH1 0x20 ADD PUSH1 0x5D PUSH1 0xFF AND DUP2 MSTORE PUSH1 0x20 ADD PUSH1 0x65 PUSH1 0xFF AND DUP2 MSTORE PUSH1 0x20 ADD PUSH1 0xB6 PUSH1 0xFF AND DUP2 MSTORE PUSH1 0x20 ADD PUSH1 0x92 PUSH1 0xFF AND DUP2 MSTORE PUSH1 0x20 ADD PUSH1 0x6C PUSH1 0xFF AND DUP2 MSTORE PUSH1 0x20 ADD PUSH1 0x70 PUSH1 0xFF AND DUP2 MSTORE PUSH1 0x20 ADD PUSH1 0x48 PUSH1 0xFF AND DUP2 MSTORE PUSH1 0x20 ADD PUSH1 0x50 PUSH1 0xFF AND DUP2 MSTORE PUSH1 0x20 ADD PUSH1 0xFD PUSH1 0xFF AND DUP2 MSTORE PUSH1 0x20 ADD PUSH1 0xED PUSH1 0xFF AND DUP2 MSTORE PUSH1 0x20 ADD PUSH1 0xB9 PUSH1 0xFF AND DUP2 MSTORE PUSH1 0x20 ADD PUSH1 0xDA PUSH1 0xFF AND DUP2 MSTORE PUSH1 0x20 ADD PUSH1 0x5E PUSH1 0xFF AND DUP2 MSTORE PUSH1 0x20 ADD PUSH1 0x15 PUSH1 0xFF AND DUP2 MSTORE PUSH1 0x20 ADD PUSH1 0x46 PUSH1 0xFF AND DUP2 MSTORE PUSH1 0x20 ADD PUSH1 0x57 PUSH1 0xFF AND DUP2 MSTORE PUSH1 0x20 ADD PUSH1 0xA7 PUSH1 0xFF AND DUP2 MSTORE PUSH1 0x20 ADD PUSH1 0x8D PUSH1 0xFF AND DUP2 MSTORE PUSH1 0x20 ADD PUSH1 0x9D PUSH1 0xFF AND DUP2 MSTORE PUSH1 0x20 ADD PUSH1 0x84 PUSH1 0xFF AND DUP2 MSTORE PUSH1 0x20 ADD PUSH1 0x90 PUSH1 0xFF AND DUP2 MSTORE PUSH1 0x20 ADD PUSH1 0xD8 PUSH1 0xFF AND DUP2 MSTORE PUSH1 0x20 ADD PUSH1 0xAB PUSH1 0xFF AND DUP2 MSTORE PUSH1 0x20 ADD PUSH0 PUSH1 0xFF AND DUP2 MSTORE PUSH1 0x20 ADD PUSH1 0x8C PUSH1 0xFF AND DUP2 MSTORE PUSH1 0x20 ADD PUSH1 0xBC PUSH1 0xFF AND DUP2 MSTORE PUSH1 0x20 ADD PUSH1 0xD3 PUSH1 0xFF AND DUP2 MSTORE PUSH1 0x20 ADD PUSH1 0xA PUSH1 0xFF AND DUP2 MSTORE PUSH1 0x20 ADD PUSH1 0xF7 PUSH1 0xFF AND DUP2 MSTORE PUSH1 0x20 ADD PUSH1 0xE4 PUSH1 0xFF AND DUP2 MSTORE PUSH1 0x20 ADD PUSH1 0x58 PUSH1 0xFF AND DUP2 MSTORE PUSH1 0x20 ADD PUSH1 0x5 PUSH1 0xFF AND DUP2 MSTORE PUSH1 0x20 ADD PUSH1 0xB8 PUSH1 0xFF AND DUP2 MSTORE PUSH1 0x20 ADD PUSH1 0xB3 PUSH1 0xFF AND DUP2 MSTORE PUSH1 0x20 ADD PUSH1 0x45 PUSH1 0xFF AND DUP2 MSTORE PUSH1 0x20 ADD PUSH1 0x6 PUSH1 0xFF AND DUP2 MSTORE PUSH1 0x20 ADD PUSH1 0xD0 PUSH1 0xFF AND DUP2 MSTORE PUSH1 0x20 ADD PUSH1 0x2C PUSH1 0xFF AND DUP2 MSTORE PUSH1 0x20 ADD PUSH1 0x1E PUSH1 0xFF AND DUP2 MSTORE PUSH1 0x20 ADD PUSH1 0x8F PUSH1 0xFF AND DUP2 MSTORE PUSH1 0x20 ADD PUSH1 0xCA PUSH1 0xFF AND DUP2 MSTORE PUSH1 0x20 ADD PUSH1 0x3F PUSH1 0xFF AND DUP2 MSTORE PUSH1 0x20 ADD PUSH1 0xF PUSH1 0xFF AND DUP2 MSTORE PUSH1 0x20 ADD PUSH1 0x2 PUSH1 0xFF AND DUP2 MSTORE PUSH1 0x20 ADD PUSH1 0xC1 PUSH1 0xFF AND DUP2 MSTORE PUSH1 0x20 ADD PUSH1 0xAF PUSH1 0xFF AND DUP2 MSTORE PUSH1 0x20 ADD PUSH1 0xBD PUSH1 0xFF AND DUP2 MSTORE PUSH1 0x20 ADD PUSH1 0x3 PUSH1 0xFF AND DUP2 MSTORE PUSH1 0x20 ADD PUSH1 0x1 PUSH1 0xFF AND DUP2 MSTORE PUSH1 0x20 ADD PUSH1 0x13 PUSH1 0xFF AND DUP2 MSTORE PUSH1 0x20 ADD PUSH1 0x8A PUSH1 0xFF AND DUP2 MSTORE PUSH1 0x20 ADD PUSH1 0x6B PUSH1 0xFF AND DUP2 MSTORE PUSH1 0x20 ADD PUSH1 0x3A PUSH1 0xFF AND DUP2 MSTORE PUSH1 0x20 ADD PUSH1 0x91 PUSH1 0xFF AND DUP2 MSTORE PUSH1 0x20 ADD PUSH1 0x11 PUSH1 0xFF AND DUP2 MSTORE PUSH1 0x20 ADD PUSH1 0x41 PUSH1 0xFF AND DUP2 MSTORE PUSH1 0x20 ADD PUSH1 0x4F PUSH1 0xFF AND DUP2 MSTORE PUSH1 0x20 ADD PUSH1 0x67 PUSH1 0xFF AND DUP2 MSTORE PUSH1 0x20 ADD PUSH1 0xDC PUSH1 0xFF AND DUP2 MSTORE PUSH1 0x20 ADD PUSH1 0xEA PUSH1 0xFF AND DUP2 MSTORE PUSH1 0x20 ADD PUSH1 0x97 PUSH1 0xFF AND DUP2 MSTORE PUSH1 0x20 ADD PUSH1 0xF2 PUSH1 0xFF AND DUP2 MSTORE PUSH1 0x20 ADD PUSH1 0xCF PUSH1 0xFF AND DUP2 MSTORE PUSH1 0x20 ADD PUSH1 0xCE PUSH1 0xFF AND DUP2 MSTORE PUSH1 0x20 ADD PUSH1 0xF0 PUSH1 0xFF AND DUP2 MSTORE PUSH1 0x20 ADD PUSH1 0xB4 PUSH1 0xFF AND DUP2 MSTORE PUSH1 0x20 ADD PUSH1 0xE6 PUSH1 0xFF AND DUP2 MSTORE PUSH1 0x20 ADD PUSH1 0x73 PUSH1 0xFF AND DUP2 MSTORE PUSH1 0x20 ADD PUSH1 0x96 PUSH1 0xFF AND DUP2 MSTORE PUSH1 0x20 ADD PUSH1 0xAC PUSH1 0xFF AND DUP2 MSTORE PUSH1 0x20 ADD PUSH1 0x74 PUSH1 0xFF AND DUP2 MSTORE PUSH1 0x20 ADD PUSH1 0x22 PUSH1 0xFF AND DUP2 MSTORE PUSH1 0x20 ADD PUSH1 0xE7 PUSH1 0xFF AND DUP2 MSTORE PUSH1 0x20 ADD PUSH1 0xAD PUSH1 0xFF AND DUP2 MSTORE PUSH1 0x20 ADD PUSH1 0x35 PUSH1 0xFF AND DUP2 MSTORE PUSH1 0x20 ADD PUSH1 0x85 PUSH1 0xFF AND DUP2 MSTORE PUSH1 0x20 ADD PUSH1 0xE2 PUSH1 0xFF AND DUP2 MSTORE PUSH1 0x20 ADD PUSH1 0xF9 PUSH1 0xFF AND DUP2 MSTORE PUSH1 0x20 ADD PUSH1 0x37 PUSH1 0xFF AND DUP2 MSTORE PUSH1 0x20 ADD PUSH1 0xE8 PUSH1 0xFF AND DUP2 MSTORE PUSH1 0x20 ADD PUSH1 0x1C PUSH1 0xFF AND DUP2 MSTORE PUSH1 0x20 ADD PUSH1 0x75 PUSH1 0xFF AND DUP2 MSTORE PUSH1 0x20 ADD PUSH1 0xDF PUSH1 0xFF AND DUP2 MSTORE PUSH1 0x20 ADD PUSH1 0x6E PUSH1 0xFF AND DUP2 MSTORE PUSH1 0x20 ADD PUSH1 0x47 PUSH1 0xFF AND DUP2 MSTORE PUSH1 0x20 ADD PUSH1 0xF1 PUSH1 0xFF AND DUP2 MSTORE PUSH1 0x20 ADD PUSH1 0x1A PUSH1 0xFF AND DUP2 MSTORE PUSH1 0x20 ADD PUSH1 0x71 PUSH1 0xFF AND DUP2 MSTORE PUSH1 0x20 ADD PUSH1 0x1D PUSH1 0xFF AND DUP2 MSTORE PUSH1 0x20 ADD PUSH1 0x29 PUSH1 0xFF AND DUP2 MSTORE PUSH1 0x20 ADD PUSH1 0xC5 PUSH1 0xFF AND DUP2 MSTORE PUSH1 0x20 ADD PUSH1 0x89 PUSH1 0xFF AND DUP2 MSTORE PUSH1 0x20 ADD PUSH1 0x6F PUSH1 0xFF AND DUP2 MSTORE PUSH1 0x20 ADD PUSH1 0xB7 PUSH1 0xFF AND DUP2 MSTORE PUSH1 0x20 ADD PUSH1 0x62 PUSH1 0xFF AND DUP2 MSTORE PUSH1 0x20 ADD PUSH1 0xE PUSH1 0xFF AND DUP2 MSTORE PUSH1 0x20 ADD PUSH1 0xAA PUSH1 0xFF AND DUP2 MSTORE PUSH1 0x20 ADD PUSH1 0x18 PUSH1 0xFF AND DUP2 MSTORE PUSH1 0x20 ADD PUSH1 0xBE PUSH1 0xFF AND DUP2 MSTORE PUSH1 0x20 ADD PUSH1 0x1B PUSH1 0xFF AND DUP2 MSTORE PUSH1 0x20 ADD PUSH1 0xFC PUSH1 0xFF AND DUP2 MSTORE PUSH1 0x20 ADD PUSH1 0x56 PUSH1 0xFF AND DUP2 MSTORE PUSH1 0x20 ADD PUSH1 0x3E PUSH1 0xFF AND DUP2 MSTORE PUSH1 0x20 ADD PUSH1 0x4B PUSH1 0xFF AND DUP2 MSTORE PUSH1 0x20 ADD PUSH1 0xC6 PUSH1 0xFF AND DUP2 MSTORE PUSH1 0x20 ADD PUSH1 0xD2 PUSH1 0xFF AND DUP2 MSTORE PUSH1 0x20 ADD PUSH1 0x79 PUSH1 0xFF AND DUP2 MSTORE PUSH1 0x20 ADD PUSH1 0x20 PUSH1 0xFF AND DUP2 MSTORE PUSH1 0x20 ADD PUSH1 0x9A PUSH1 0xFF AND DUP2 MSTORE PUSH1 0x20 ADD PUSH1 0xDB PUSH1 0xFF AND DUP2 MSTORE PUSH1 0x20 ADD PUSH1 0xC0 PUSH1 0xFF AND DUP2 MSTORE PUSH1 0x20 ADD PUSH1 0xFE PUSH1 0xFF AND DUP2 MSTORE PUSH1 0x20 ADD PUSH1 0x78 PUSH1 0xFF AND DUP2 MSTORE PUSH1 0x20 ADD PUSH1 0xCD PUSH1 0xFF AND DUP2 MSTORE PUSH1 0x20 ADD PUSH1 0x5A PUSH1 0xFF AND DUP2 MSTORE PUSH1 0x20 ADD PUSH1 0xF4 PUSH1 0xFF AND DUP2 MSTORE PUSH1 0x20 ADD PUSH1 0x1F PUSH1 0xFF AND DUP2 MSTORE PUSH1 0x20 ADD PUSH1 0xDD PUSH1 0xFF AND DUP2 MSTORE PUSH1 0x20 ADD PUSH1 0xA8 PUSH1 0xFF AND DUP2 MSTORE PUSH1 0x20 ADD PUSH1 0x33 PUSH1 0xFF AND DUP2 MSTORE PUSH1 0x20 ADD PUSH1 0x88 PUSH1 0xFF AND DUP2 MSTORE PUSH1 0x20 ADD PUSH1 0x7 PUSH1 0xFF AND DUP2 MSTORE PUSH1 0x20 ADD PUSH1 0xC7 PUSH1 0xFF AND DUP2 MSTORE PUSH1 0x20 ADD PUSH1 0x31 PUSH1 0xFF AND DUP2 MSTORE PUSH1 0x20 ADD PUSH1 0xB1 PUSH1 0xFF AND DUP2 MSTORE PUSH1 0x20 ADD PUSH1 0x12 PUSH1 0xFF AND DUP2 MSTORE PUSH1 0x20 ADD PUSH1 0x10 PUSH1 0xFF AND DUP2 MSTORE PUSH1 0x20 ADD PUSH1 0x59 PUSH1 0xFF AND DUP2 MSTORE PUSH1 0x20 ADD PUSH1 0x27 PUSH1 0xFF AND DUP2 MSTORE PUSH1 0x20 ADD PUSH1 0x80 PUSH1 0xFF AND DUP2 MSTORE PUSH1 0x20 ADD PUSH1 0xEC PUSH1 0xFF AND DUP2 MSTORE PUSH1 0x20 ADD PUSH1 0x5F PUSH1 0xFF AND DUP2 MSTORE PUSH1 0x20 ADD PUSH1 0x60 PUSH1 0xFF AND DUP2 MSTORE PUSH1 0x20 ADD PUSH1 0x51 PUSH1 0xFF AND DUP2 MSTORE PUSH1 0x20 ADD PUSH1 0x7F PUSH1 0xFF AND DUP2 MSTORE PUSH1 0x20 ADD PUSH1 0xA9 PUSH1 0xFF AND DUP2 MSTORE PUSH1 0x20 ADD PUSH1 0x19 PUSH1 0xFF AND DUP2 MSTORE PUSH1 0x20 ADD PUSH1 0xB5 PUSH1 0xFF AND DUP2 MSTORE PUSH1 0x20 ADD PUSH1 0x4A PUSH1 0xFF AND DUP2 MSTORE PUSH1 0x20 ADD PUSH1 0xD PUSH1 0xFF AND DUP2 MSTORE PUSH1 0x20 ADD PUSH1 0x2D PUSH1 0xFF AND DUP2 MSTORE PUSH1 0x20 ADD PUSH1 0xE5 PUSH1 0xFF AND DUP2 MSTORE PUSH1 0x20 ADD PUSH1 0x7A PUSH1 0xFF AND DUP2 MSTORE PUSH1 0x20 ADD PUSH1 0x9F PUSH1 0xFF AND DUP2 MSTORE PUSH1 0x20 ADD PUSH1 0x93 PUSH1 0xFF AND DUP2 MSTORE PUSH1 0x20 ADD PUSH1 0xC9 PUSH1 0xFF AND DUP2 MSTORE PUSH1 0x20 ADD PUSH1 0x9C PUSH1 0xFF AND DUP2 MSTORE PUSH1 0x20 ADD PUSH1 0xEF PUSH1 0xFF AND DUP2 MSTORE PUSH1 0x20 ADD PUSH1 0xA0 PUSH1 0xFF AND DUP2 MSTORE PUSH1 0x20 ADD PUSH1 0xE0 PUSH1 0xFF AND DUP2 MSTORE PUSH1 0x20 ADD PUSH1 0x3B PUSH1 0xFF AND DUP2 MSTORE PUSH1 0x20 ADD PUSH1 0x4D PUSH1 0xFF AND DUP2 MSTORE PUSH1 0x20 ADD PUSH1 0xAE PUSH1 0xFF AND DUP2 MSTORE PUSH1 0x20 ADD PUSH1 0x2A PUSH1 0xFF AND DUP2 MSTORE PUSH1 0x20 ADD PUSH1 0xF5 PUSH1 0xFF AND DUP2 MSTORE PUSH1 0x20 ADD PUSH1 0xB0 PUSH1 0xFF AND DUP2 MSTORE PUSH1 0x20 ADD PUSH1 0xC8 PUSH1 0xFF AND DUP2 MSTORE PUSH1 0x20 ADD PUSH1 0xEB PUSH1 0xFF AND DUP2 MSTORE PUSH1 0x20 ADD PUSH1 0xBB PUSH1 0xFF AND DUP2 MSTORE PUSH1 0x20 ADD PUSH1 0x3C PUSH1 0xFF AND DUP2 MSTORE PUSH1 0x20 ADD PUSH1 0x83 PUSH1 0xFF AND DUP2 MSTORE PUSH1 0x20 ADD PUSH1 0x53 PUSH1 0xFF AND DUP2 MSTORE PUSH1 0x20 ADD PUSH1 0x99 PUSH1 0xFF AND DUP2 MSTORE PUSH1 0x20 ADD PUSH1 0x61 PUSH1 0xFF AND DUP2 MSTORE PUSH1 0x20 ADD PUSH1 0x17 PUSH1 0xFF AND DUP2 MSTORE PUSH1 0x20 ADD PUSH1 0x2B PUSH1 0xFF AND DUP2 MSTORE PUSH1 0x20 ADD PUSH1 0x4 PUSH1 0xFF AND DUP2 MSTORE PUSH1 0x20 ADD PUSH1 0x7E PUSH1 0xFF AND DUP2 MSTORE PUSH1 0x20 ADD PUSH1 0xBA PUSH1 0xFF AND DUP2 MSTORE PUSH1 0x20 ADD PUSH1 0x77 PUSH1 0xFF AND DUP2 MSTORE PUSH1 0x20 ADD PUSH1 0xD6 PUSH1 0xFF AND DUP2 MSTORE PUSH1 0x20 ADD PUSH1 0x26 PUSH1 0xFF AND DUP2 MSTORE PUSH1 0x20 ADD PUSH1 0xE1 PUSH1 0xFF AND DUP2 MSTORE PUSH1 0x20 ADD PUSH1 0x69 PUSH1 0xFF AND DUP2 MSTORE PUSH1 0x20 ADD PUSH1 0x14 PUSH1 0xFF AND DUP2 MSTORE PUSH1 0x20 ADD PUSH1 0x63 PUSH1 0xFF AND DUP2 MSTORE PUSH1 0x20 ADD PUSH1 0x55 PUSH1 0xFF AND DUP2 MSTORE PUSH1 0x20 ADD PUSH1 0x21 PUSH1 0xFF AND DUP2 MSTORE PUSH1 0x20 ADD PUSH1 0xC PUSH1 0xFF AND DUP2 MSTORE PUSH1 0x20 ADD PUSH1 0x7D PUSH1 0xFF AND DUP2 MSTORE POP PUSH1 0x9 SWAP1 PUSH2 0x100 PUSH2 0x14BF SWAP3 SWAP2 SWAP1 PUSH2 0x299D JUMP JUMPDEST POP PUSH1 0x40 MLOAD DUP1 PUSH2 0x2000 ADD PUSH1 0x40 MSTORE DUP1 PUSH0 PUSH1 0xFF AND DUP2 MSTORE PUSH1 0x20 ADD PUSH0 PUSH1 0xFF AND DUP2 MSTORE PUSH1 0x20 ADD PUSH1 0xC8 PUSH1 0xFF AND DUP2 MSTORE PUSH1 0x20 ADD PUSH1 0x8 PUSH1 0xFF AND DUP2 MSTORE PUSH1 0x20 ADD PUSH1 0x91 PUSH1 0xFF AND DUP2 MSTORE PUSH1 0x20 ADD PUSH1 0x10 PUSH1 0xFF AND DUP2 MSTORE PUSH1 0x20 ADD PUSH1 0xD0 PUSH1 0xFF AND DUP2 MSTORE PUSH1 0x20 ADD PUSH1 0x36 PUSH1 0xFF AND DUP2 MSTORE PUSH1 0x20 ADD PUSH1 0x5A PUSH1 0xFF AND DUP2 MSTORE PUSH1 0x20 ADD PUSH1 0x3E PUSH1 0xFF AND DUP2 MSTORE PUSH1 0x20 ADD PUSH1 0xD8 PUSH1 0xFF AND DUP2 MSTORE PUSH1 0x20 ADD PUSH1 0x43 PUSH1 0xFF AND DUP2 MSTORE PUSH1 0x20 ADD PUSH1 0x99 PUSH1 0xFF AND DUP2 MSTORE PUSH1 0x20 ADD PUSH1 0x77 PUSH1 0xFF AND DUP2 MSTORE PUSH1 0x20 ADD PUSH1 0xFE PUSH1 0xFF AND DUP2 MSTORE PUSH1 0x20 ADD PUSH1 0x18 PUSH1 0xFF AND DUP2 MSTORE PUSH1 0x20 ADD PUSH1 0x23 PUSH1 0xFF AND DUP2 MSTORE PUSH1 0x20 ADD PUSH1 0x20 PUSH1 0xFF AND DUP2 MSTORE PUSH1 0x20 ADD PUSH1 0x7 PUSH1 0xFF AND DUP2 MSTORE PUSH1 0x20 ADD PUSH1 0x70 PUSH1 0xFF AND DUP2 MSTORE PUSH1 0x20 ADD PUSH1 0xA1 PUSH1 0xFF AND DUP2 MSTORE PUSH1 0x20 ADD PUSH1 0x6C PUSH1 0xFF AND DUP2 MSTORE PUSH1 0x20 ADD PUSH1 0xC PUSH1 0xFF AND DUP2 MSTORE PUSH1 0x20 ADD PUSH1 0x7F PUSH1 0xFF AND DUP2 MSTORE PUSH1 0x20 ADD PUSH1 0x62 PUSH1 0xFF AND DUP2 MSTORE PUSH1 0x20 ADD PUSH1 0x8B PUSH1 0xFF AND DUP2 MSTORE PUSH1 0x20 ADD PUSH1 0x40 PUSH1 0xFF AND DUP2 MSTORE PUSH1 0x20 ADD PUSH1 0x46 PUSH1 0xFF AND DUP2 MSTORE PUSH1 0x20 ADD PUSH1 0xC7 PUSH1 0xFF AND DUP2 MSTORE PUSH1 0x20 ADD PUSH1 0x4B PUSH1 0xFF AND DUP2 MSTORE PUSH1 0x20 ADD PUSH1 0xE0 PUSH1 0xFF AND DUP2 MSTORE PUSH1 0x20 ADD PUSH1 0xE PUSH1 0xFF AND DUP2 MSTORE PUSH1 0x20 ADD PUSH1 0xEB PUSH1 0xFF AND DUP2 MSTORE PUSH1 0x20 ADD PUSH1 0x16 PUSH1 0xFF AND DUP2 MSTORE PUSH1 0x20 ADD PUSH1 0xE8 PUSH1 0xFF AND DUP2 MSTORE PUSH1 0x20 ADD PUSH1 0xAD PUSH1 0xFF AND DUP2 MSTORE PUSH1 0x20 ADD PUSH1 0xCF PUSH1 0xFF AND DUP2 MSTORE PUSH1 0x20 ADD PUSH1 0xCD PUSH1 0xFF AND DUP2 MSTORE PUSH1 0x20 ADD PUSH1 0x39 PUSH1 0xFF AND DUP2 MSTORE PUSH1 0x20 ADD PUSH1 0x53 PUSH1 0xFF AND DUP2 MSTORE PUSH1 0x20 ADD PUSH1 0x6A PUSH1 0xFF AND DUP2 MSTORE PUSH1 0x20 ADD PUSH1 0x27 PUSH1 0xFF AND DUP2 MSTORE PUSH1 0x20 ADD PUSH1 0x35 PUSH1 0xFF AND DUP2 MSTORE PUSH1 0x20 ADD PUSH1 0x93 PUSH1 0xFF AND DUP2 MSTORE PUSH1 0x20 ADD PUSH1 0xD4 PUSH1 0xFF AND DUP2 MSTORE PUSH1 0x20 ADD PUSH1 0x4E PUSH1 0xFF AND DUP2 MSTORE PUSH1 0x20 ADD PUSH1 0x48 PUSH1 0xFF AND DUP2 MSTORE PUSH1 0x20 ADD PUSH1 0xC3 PUSH1 0xFF AND DUP2 MSTORE PUSH1 0x20 ADD PUSH1 0x2B PUSH1 0xFF AND DUP2 MSTORE PUSH1 0x20 ADD PUSH1 0x79 PUSH1 0xFF AND DUP2 MSTORE PUSH1 0x20 ADD PUSH1 0x54 PUSH1 0xFF AND DUP2 MSTORE PUSH1 0x20 ADD PUSH1 0x28 PUSH1 0xFF AND DUP2 MSTORE PUSH1 0x20 ADD PUSH1 0x9 PUSH1 0xFF AND DUP2 MSTORE PUSH1 0x20 ADD PUSH1 0x78 PUSH1 0xFF AND DUP2 MSTORE PUSH1 0x20 ADD PUSH1 0xF PUSH1 0xFF AND DUP2 MSTORE PUSH1 0x20 ADD PUSH1 0x21 PUSH1 0xFF AND DUP2 MSTORE PUSH1 0x20 ADD PUSH1 0x90 PUSH1 0xFF AND DUP2 MSTORE PUSH1 0x20 ADD PUSH1 0x87 PUSH1 0xFF AND DUP2 MSTORE PUSH1 0x20 ADD PUSH1 0x14 PUSH1 0xFF AND DUP2 MSTORE PUSH1 0x20 ADD PUSH1 0x2A PUSH1 0xFF AND DUP2 MSTORE PUSH1 0x20 ADD PUSH1 0xA9 PUSH1 0xFF AND DUP2 MSTORE PUSH1 0x20 ADD PUSH1 0x9C PUSH1 0xFF AND DUP2 MSTORE PUSH1 0x20 ADD PUSH1 0xD6 PUSH1 0xFF AND DUP2 MSTORE PUSH1 0x20 ADD PUSH1 0x74 PUSH1 0xFF AND DUP2 MSTORE PUSH1 0x20 ADD PUSH1 0xB4 PUSH1 0xFF AND DUP2 MSTORE PUSH1 0x20 ADD PUSH1 0x7C PUSH1 0xFF AND DUP2 MSTORE PUSH1 0x20 ADD PUSH1 0xDE PUSH1 0xFF AND DUP2 MSTORE PUSH1 0x20 ADD PUSH1 0xED PUSH1 0xFF AND DUP2 MSTORE PUSH1 0x20 ADD PUSH1 0xB1 PUSH1 0xFF AND DUP2 MSTORE PUSH1 0x20 ADD PUSH1 0x86 PUSH1 0xFF AND DUP2 MSTORE PUSH1 0x20 ADD PUSH1 0x76 PUSH1 0xFF AND DUP2 MSTORE PUSH1 0x20 ADD PUSH1 0xA4 PUSH1 0xFF AND DUP2 MSTORE PUSH1 0x20 ADD PUSH1 0x98 PUSH1 0xFF AND DUP2 MSTORE PUSH1 0x20 ADD PUSH1 0xE2 PUSH1 0xFF AND DUP2 MSTORE PUSH1 0x20 ADD PUSH1 0x96 PUSH1 0xFF AND DUP2 MSTORE PUSH1 0x20 ADD PUSH1 0x8F PUSH1 0xFF AND DUP2 MSTORE PUSH1 0x20 ADD PUSH1 0x2 PUSH1 0xFF AND DUP2 MSTORE PUSH1 0x20 ADD PUSH1 0x32 PUSH1 0xFF AND DUP2 MSTORE PUSH1 0x20 ADD PUSH1 0x1C PUSH1 0xFF AND DUP2 MSTORE PUSH1 0x20 ADD PUSH1 0xC1 PUSH1 0xFF AND DUP2 MSTORE PUSH1 0x20 ADD PUSH1 0x33 PUSH1 0xFF AND DUP2 MSTORE PUSH1 0x20 ADD PUSH1 0xEE PUSH1 0xFF AND DUP2 MSTORE PUSH1 0x20 ADD PUSH1 0xEF PUSH1 0xFF AND DUP2 MSTORE PUSH1 0x20 ADD PUSH1 0x81 PUSH1 0xFF AND DUP2 MSTORE PUSH1 0x20 ADD PUSH1 0xFD PUSH1 0xFF AND DUP2 MSTORE PUSH1 0x20 ADD PUSH1 0x30 PUSH1 0xFF AND DUP2 MSTORE PUSH1 0x20 ADD PUSH1 0x5C PUSH1 0xFF AND DUP2 MSTORE PUSH1 0x20 ADD PUSH1 0x13 PUSH1 0xFF AND DUP2 MSTORE PUSH1 0x20 ADD PUSH1 0x9D PUSH1 0xFF AND DUP2 MSTORE PUSH1 0x20 ADD PUSH1 0x29 PUSH1 0xFF AND DUP2 MSTORE PUSH1 0x20 ADD PUSH1 0x17 PUSH1 0xFF AND DUP2 MSTORE PUSH1 0x20 ADD PUSH1 0xC4 PUSH1 0xFF AND DUP2 MSTORE PUSH1 0x20 ADD PUSH1 0x11 PUSH1 0xFF AND DUP2 MSTORE PUSH1 0x20 ADD PUSH1 0x44 PUSH1 0xFF AND DUP2 MSTORE PUSH1 0x20 ADD PUSH1 0x8C PUSH1 0xFF AND DUP2 MSTORE PUSH1 0x20 ADD PUSH1 0x80 PUSH1 0xFF AND DUP2 MSTORE PUSH1 0x20 ADD PUSH1 0xF3 PUSH1 0xFF AND DUP2 MSTORE PUSH1 0x20 ADD PUSH1 0x73 PUSH1 0xFF AND DUP2 MSTORE PUSH1 0x20 ADD PUSH1 0x42 PUSH1 0xFF AND DUP2 MSTORE PUSH1 0x20 ADD PUSH1 0x1E PUSH1 0xFF AND DUP2 MSTORE PUSH1 0x20 ADD PUSH1 0x1D PUSH1 0xFF AND DUP2 MSTORE PUSH1 0x20 ADD PUSH1 0xB5 PUSH1 0xFF AND DUP2 MSTORE PUSH1 0x20 ADD PUSH1 0xF0 PUSH1 0xFF AND DUP2 MSTORE PUSH1 0x20 ADD PUSH1 0x12 PUSH1 0xFF AND DUP2 MSTORE PUSH1 0x20 ADD PUSH1 0xD1 PUSH1 0xFF AND DUP2 MSTORE PUSH1 0x20 ADD PUSH1 0x5B PUSH1 0xFF AND DUP2 MSTORE PUSH1 0x20 ADD PUSH1 0x41 PUSH1 0xFF AND DUP2 MSTORE PUSH1 0x20 ADD PUSH1 0xA2 PUSH1 0xFF AND DUP2 MSTORE PUSH1 0x20 ADD PUSH1 0xD7 PUSH1 0xFF AND DUP2 MSTORE PUSH1 0x20 ADD PUSH1 0x2C PUSH1 0xFF AND DUP2 MSTORE PUSH1 0x20 ADD PUSH1 0xE9 PUSH1 0xFF AND DUP2 MSTORE PUSH1 0x20 ADD PUSH1 0xD5 PUSH1 0xFF AND DUP2 MSTORE PUSH1 0x20 ADD PUSH1 0x59 PUSH1 0xFF AND DUP2 MSTORE PUSH1 0x20 ADD PUSH1 0xCB PUSH1 0xFF AND DUP2 MSTORE PUSH1 0x20 ADD PUSH1 0x50 PUSH1 0xFF AND DUP2 MSTORE PUSH1 0x20 ADD PUSH1 0xA8 PUSH1 0xFF AND DUP2 MSTORE PUSH1 0x20 ADD PUSH1 0xDC PUSH1 0xFF AND DUP2 MSTORE PUSH1 0x20 ADD PUSH1 0xFC PUSH1 0xFF AND DUP2 MSTORE PUSH1 0x20 ADD PUSH1 0xF2 PUSH1 0xFF AND DUP2 MSTORE PUSH1 0x20 ADD PUSH1 0x56 PUSH1 0xFF AND DUP2 MSTORE PUSH1 0x20 ADD PUSH1 0x72 PUSH1 0xFF AND DUP2 MSTORE PUSH1 0x20 ADD PUSH1 0xA6 PUSH1 0xFF AND DUP2 MSTORE PUSH1 0x20 ADD PUSH1 0x65 PUSH1 0xFF AND DUP2 MSTORE PUSH1 0x20 ADD PUSH1 0x2F PUSH1 0xFF AND DUP2 MSTORE PUSH1 0x20 ADD PUSH1 0x9F PUSH1 0xFF AND DUP2 MSTORE PUSH1 0x20 ADD PUSH1 0x9B PUSH1 0xFF AND DUP2 MSTORE PUSH1 0x20 ADD PUSH1 0x3D PUSH1 0xFF AND DUP2 MSTORE PUSH1 0x20 ADD PUSH1 0xBA PUSH1 0xFF AND DUP2 MSTORE PUSH1 0x20 ADD PUSH1 0x7D PUSH1 0xFF AND DUP2 MSTORE PUSH1 0x20 ADD PUSH1 0xC2 PUSH1 0xFF AND DUP2 MSTORE PUSH1 0x20 ADD PUSH1 0x45 PUSH1 0xFF AND DUP2 MSTORE PUSH1 0x20 ADD PUSH1 0x82 PUSH1 0xFF AND DUP2 MSTORE PUSH1 0x20 ADD PUSH1 0xA7 PUSH1 0xFF AND DUP2 MSTORE PUSH1 0x20 ADD PUSH1 0x57 PUSH1 0xFF AND DUP2 MSTORE PUSH1 0x20 ADD PUSH1 0xB6 PUSH1 0xFF AND DUP2 MSTORE PUSH1 0x20 ADD PUSH1 0xA3 PUSH1 0xFF AND DUP2 MSTORE PUSH1 0x20 ADD PUSH1 0x7A PUSH1 0xFF AND DUP2 MSTORE PUSH1 0x20 ADD PUSH1 0x75 PUSH1 0xFF AND DUP2 MSTORE PUSH1 0x20 ADD PUSH1 0x4F PUSH1 0xFF AND DUP2 MSTORE PUSH1 0x20 ADD PUSH1 0xAE PUSH1 0xFF AND DUP2 MSTORE PUSH1 0x20 ADD PUSH1 0x3F PUSH1 0xFF AND DUP2 MSTORE PUSH1 0x20 ADD PUSH1 0x37 PUSH1 0xFF AND DUP2 MSTORE PUSH1 0x20 ADD PUSH1 0x6D PUSH1 0xFF AND DUP2 MSTORE PUSH1 0x20 ADD PUSH1 0x47 PUSH1 0xFF AND DUP2 MSTORE PUSH1 0x20 ADD PUSH1 0x61 PUSH1 0xFF AND DUP2 MSTORE PUSH1 0x20 ADD PUSH1 0xBE PUSH1 0xFF AND DUP2 MSTORE PUSH1 0x20 ADD PUSH1 0xAB PUSH1 0xFF AND DUP2 MSTORE PUSH1 0x20 ADD PUSH1 0xD3 PUSH1 0xFF AND DUP2 MSTORE PUSH1 0x20 ADD PUSH1 0x5F PUSH1 0xFF AND DUP2 MSTORE PUSH1 0x20 ADD PUSH1 0xB0 PUSH1 0xFF AND DUP2 MSTORE PUSH1 0x20 ADD PUSH1 0x58 PUSH1 0xFF AND DUP2 MSTORE PUSH1 0x20 ADD PUSH1 0xAF PUSH1 0xFF AND DUP2 MSTORE PUSH1 0x20 ADD PUSH1 0xCA PUSH1 0xFF AND DUP2 MSTORE PUSH1 0x20 ADD PUSH1 0x5E PUSH1 0xFF AND DUP2 MSTORE PUSH1 0x20 ADD PUSH1 0xFA PUSH1 0xFF AND DUP2 MSTORE PUSH1 0x20 ADD PUSH1 0x85 PUSH1 0xFF AND DUP2 MSTORE PUSH1 0x20 ADD PUSH1 0xE4 PUSH1 0xFF AND DUP2 MSTORE PUSH1 0x20 ADD PUSH1 0x4D PUSH1 0xFF AND DUP2 MSTORE PUSH1 0x20 ADD PUSH1 0x8A PUSH1 0xFF AND DUP2 MSTORE PUSH1 0x20 ADD PUSH1 0x5 PUSH1 0xFF AND DUP2 MSTORE PUSH1 0x20 ADD PUSH1 0xFB PUSH1 0xFF AND DUP2 MSTORE PUSH1 0x20 ADD PUSH1 0x60 PUSH1 0xFF AND DUP2 MSTORE PUSH1 0x20 ADD PUSH1 0xB7 PUSH1 0xFF AND DUP2 MSTORE PUSH1 0x20 ADD PUSH1 0x7B PUSH1 0xFF AND DUP2 MSTORE PUSH1 0x20 ADD PUSH1 0xB8 PUSH1 0xFF AND DUP2 MSTORE PUSH1 0x20 ADD PUSH1 0x26 PUSH1 0xFF AND DUP2 MSTORE PUSH1 0x20 ADD PUSH1 0x4A PUSH1 0xFF AND DUP2 MSTORE PUSH1 0x20 ADD PUSH1 0x67 PUSH1 0xFF AND DUP2 MSTORE PUSH1 0x20 ADD PUSH1 0xC6 PUSH1 0xFF AND DUP2 MSTORE PUSH1 0x20 ADD PUSH1 0x1A PUSH1 0xFF AND DUP2 MSTORE PUSH1 0x20 ADD PUSH1 0xF8 PUSH1 0xFF AND DUP2 MSTORE PUSH1 0x20 ADD PUSH1 0x69 PUSH1 0xFF AND DUP2 MSTORE PUSH1 0x20 ADD PUSH1 0x25 PUSH1 0xFF AND DUP2 MSTORE PUSH1 0x20 ADD PUSH1 0xB3 PUSH1 0xFF AND DUP2 MSTORE PUSH1 0x20 ADD PUSH1 0xDB PUSH1 0xFF AND DUP2 MSTORE PUSH1 0x20 ADD PUSH1 0xBD PUSH1 0xFF AND DUP2 MSTORE PUSH1 0x20 ADD PUSH1 0x66 PUSH1 0xFF AND DUP2 MSTORE PUSH1 0x20 ADD PUSH1 0xDD PUSH1 0xFF AND DUP2 MSTORE PUSH1 0x20 ADD PUSH1 0xF1 PUSH1 0xFF AND DUP2 MSTORE PUSH1 0x20 ADD PUSH1 0xD2 PUSH1 0xFF AND DUP2 MSTORE PUSH1 0x20 ADD PUSH1 0xDF PUSH1 0xFF AND DUP2 MSTORE PUSH1 0x20 ADD PUSH1 0x3 PUSH1 0xFF AND DUP2 MSTORE PUSH1 0x20 ADD PUSH1 0x8D PUSH1 0xFF AND DUP2 MSTORE PUSH1 0x20 ADD PUSH1 0x34 PUSH1 0xFF AND DUP2 MSTORE PUSH1 0x20 ADD PUSH1 0xD9 PUSH1 0xFF AND DUP2 MSTORE PUSH1 0x20 ADD PUSH1 0x92 PUSH1 0xFF AND DUP2 MSTORE PUSH1 0x20 ADD PUSH1 0xD PUSH1 0xFF AND DUP2 MSTORE PUSH1 0x20 ADD PUSH1 0x63 PUSH1 0xFF AND DUP2 MSTORE PUSH1 0x20 ADD PUSH1 0x55 PUSH1 0xFF AND DUP2 MSTORE PUSH1 0x20 ADD PUSH1 0xAA PUSH1 0xFF AND DUP2 MSTORE PUSH1 0x20 ADD PUSH1 0x49 PUSH1 0xFF AND DUP2 MSTORE PUSH1 0x20 ADD PUSH1 0xEC PUSH1 0xFF AND DUP2 MSTORE PUSH1 0x20 ADD PUSH1 0xBC PUSH1 0xFF AND DUP2 MSTORE PUSH1 0x20 ADD PUSH1 0x95 PUSH1 0xFF AND DUP2 MSTORE PUSH1 0x20 ADD PUSH1 0x3C PUSH1 0xFF AND DUP2 MSTORE PUSH1 0x20 ADD PUSH1 0x84 PUSH1 0xFF AND DUP2 MSTORE PUSH1 0x20 ADD PUSH1 0xB PUSH1 0xFF AND DUP2 MSTORE PUSH1 0x20 ADD PUSH1 0xF5 PUSH1 0xFF AND DUP2 MSTORE PUSH1 0x20 ADD PUSH1 0xE6 PUSH1 0xFF AND DUP2 MSTORE PUSH1 0x20 ADD PUSH1 0xE7 PUSH1 0xFF AND DUP2 MSTORE PUSH1 0x20 ADD PUSH1 0xE5 PUSH1 0xFF AND DUP2 MSTORE PUSH1 0x20 ADD PUSH1 0xAC PUSH1 0xFF AND DUP2 MSTORE PUSH1 0x20 ADD PUSH1 0x7E PUSH1 0xFF AND DUP2 MSTORE PUSH1 0x20 ADD PUSH1 0x6E PUSH1 0xFF AND DUP2 MSTORE PUSH1 0x20 ADD PUSH1 0xB9 PUSH1 0xFF AND DUP2 MSTORE PUSH1 0x20 ADD PUSH1 0xF9 PUSH1 0xFF AND DUP2 MSTORE PUSH1 0x20 ADD PUSH1 0xDA PUSH1 0xFF AND DUP2 MSTORE PUSH1 0x20 ADD PUSH1 0x8E PUSH1 0xFF AND DUP2 MSTORE PUSH1 0x20 ADD PUSH1 0x9A PUSH1 0xFF AND DUP2 MSTORE PUSH1 0x20 ADD PUSH1 0xC9 PUSH1 0xFF AND DUP2 MSTORE PUSH1 0x20 ADD PUSH1 0x24 PUSH1 0xFF AND DUP2 MSTORE PUSH1 0x20 ADD PUSH1 0xE1 PUSH1 0xFF AND DUP2 MSTORE PUSH1 0x20 ADD PUSH1 0xA PUSH1 0xFF AND DUP2 MSTORE PUSH1 0x20 ADD PUSH1 0x15 PUSH1 0xFF AND DUP2 MSTORE PUSH1 0x20 ADD PUSH1 0x6B PUSH1 0xFF AND DUP2 MSTORE PUSH1 0x20 ADD PUSH1 0x3A PUSH1 0xFF AND DUP2 MSTORE PUSH1 0x20 ADD PUSH1 0xA0 PUSH1 0xFF AND DUP2 MSTORE PUSH1 0x20 ADD PUSH1 0x51 PUSH1 0xFF AND DUP2 MSTORE PUSH1 0x20 ADD PUSH1 0xF4 PUSH1 0xFF AND DUP2 MSTORE PUSH1 0x20 ADD PUSH1 0xEA PUSH1 0xFF AND DUP2 MSTORE PUSH1 0x20 ADD PUSH1 0xB2 PUSH1 0xFF AND DUP2 MSTORE PUSH1 0x20 ADD PUSH1 0x97 PUSH1 0xFF AND DUP2 MSTORE PUSH1 0x20 ADD PUSH1 0x9E PUSH1 0xFF AND DUP2 MSTORE PUSH1 0x20 ADD PUSH1 0x5D PUSH1 0xFF AND DUP2 MSTORE PUSH1 0x20 ADD PUSH1 0x22 PUSH1 0xFF AND DUP2 MSTORE PUSH1 0x20 ADD PUSH1 0x88 PUSH1 0xFF AND DUP2 MSTORE PUSH1 0x20 ADD PUSH1 0x94 PUSH1 0xFF AND DUP2 MSTORE PUSH1 0x20 ADD PUSH1 0xCE PUSH1 0xFF AND DUP2 MSTORE PUSH1 0x20 ADD PUSH1 0x19 PUSH1 0xFF AND DUP2 MSTORE PUSH1 0x20 ADD PUSH1 0x1 PUSH1 0xFF AND DUP2 MSTORE PUSH1 0x20 ADD PUSH1 0x71 PUSH1 0xFF AND DUP2 MSTORE PUSH1 0x20 ADD PUSH1 0x4C PUSH1 0xFF AND DUP2 MSTORE PUSH1 0x20 ADD PUSH1 0xA5 PUSH1 0xFF AND DUP2 MSTORE PUSH1 0x20 ADD PUSH1 0xE3 PUSH1 0xFF AND DUP2 MSTORE PUSH1 0x20 ADD PUSH1 0xC5 PUSH1 0xFF AND DUP2 MSTORE PUSH1 0x20 ADD PUSH1 0x31 PUSH1 0xFF AND DUP2 MSTORE PUSH1 0x20 ADD PUSH1 0xBB PUSH1 0xFF AND DUP2 MSTORE PUSH1 0x20 ADD PUSH1 0xCC PUSH1 0xFF AND DUP2 MSTORE PUSH1 0x20 ADD PUSH1 0x1F PUSH1 0xFF AND DUP2 MSTORE PUSH1 0x20 ADD PUSH1 0x2D PUSH1 0xFF AND DUP2 MSTORE PUSH1 0x20 ADD PUSH1 0x3B PUSH1 0xFF AND DUP2 MSTORE PUSH1 0x20 ADD PUSH1 0x52 PUSH1 0xFF AND DUP2 MSTORE PUSH1 0x20 ADD PUSH1 0x6F PUSH1 0xFF AND DUP2 MSTORE PUSH1 0x20 ADD PUSH1 0xF6 PUSH1 0xFF AND DUP2 MSTORE PUSH1 0x20 ADD PUSH1 0x2E PUSH1 0xFF AND DUP2 MSTORE PUSH1 0x20 ADD PUSH1 0x89 PUSH1 0xFF AND DUP2 MSTORE PUSH1 0x20 ADD PUSH1 0xF7 PUSH1 0xFF AND DUP2 MSTORE PUSH1 0x20 ADD PUSH1 0xC0 PUSH1 0xFF AND DUP2 MSTORE PUSH1 0x20 ADD PUSH1 0x68 PUSH1 0xFF AND DUP2 MSTORE PUSH1 0x20 ADD PUSH1 0x1B PUSH1 0xFF AND DUP2 MSTORE PUSH1 0x20 ADD PUSH1 0x64 PUSH1 0xFF AND DUP2 MSTORE PUSH1 0x20 ADD PUSH1 0x4 PUSH1 0xFF AND DUP2 MSTORE PUSH1 0x20 ADD PUSH1 0x6 PUSH1 0xFF AND DUP2 MSTORE PUSH1 0x20 ADD PUSH1 0xBF PUSH1 0xFF AND DUP2 MSTORE PUSH1 0x20 ADD PUSH1 0x83 PUSH1 0xFF AND DUP2 MSTORE PUSH1 0x20 ADD PUSH1 0x38 PUSH1 0xFF AND DUP2 MSTORE POP PUSH1 0x11 SWAP1 PUSH2 0x100 PUSH2 0x1ED9 SWAP3 SWAP2 SWAP1 PUSH2 0x299D JUMP JUMPDEST POP PUSH1 0x40 MLOAD DUP1 PUSH2 0x2000 ADD PUSH1 0x40 MSTORE DUP1 PUSH1 0x1 PUSH1 0xFF AND DUP2 MSTORE PUSH1 0x20 ADD PUSH1 0xE5 PUSH1 0xFF AND DUP2 MSTORE PUSH1 0x20 ADD PUSH1 0x4C PUSH1 0xFF AND DUP2 MSTORE PUSH1 0x20 ADD PUSH1 0xB5 PUSH1 0xFF AND DUP2 MSTORE PUSH1 0x20 ADD PUSH1 0xFB PUSH1 0xFF AND DUP2 MSTORE PUSH1 0x20 ADD PUSH1 0x9F PUSH1 0xFF AND DUP2 MSTORE PUSH1 0x20 ADD PUSH1 0xFC PUSH1 0xFF AND DUP2 MSTORE PUSH1 0x20 ADD PUSH1 0x12 PUSH1 0xFF AND DUP2 MSTORE PUSH1 0x20 ADD PUSH1 0x3 PUSH1 0xFF AND DUP2 MSTORE PUSH1 0x20 ADD PUSH1 0x34 PUSH1 0xFF AND DUP2 MSTORE PUSH1 0x20 ADD PUSH1 0xD4 PUSH1 0xFF AND DUP2 MSTORE PUSH1 0x20 ADD PUSH1 0xC4 PUSH1 0xFF AND DUP2 MSTORE PUSH1 0x20 ADD PUSH1 0x16 PUSH1 0xFF AND DUP2 MSTORE PUSH1 0x20 ADD PUSH1 0xBA PUSH1 0xFF AND DUP2 MSTORE PUSH1 0x20 ADD PUSH1 0x1F PUSH1 0xFF AND DUP2 MSTORE PUSH1 0x20 ADD PUSH1 0x36 PUSH1 0xFF AND DUP2 MSTORE PUSH1 0x20 ADD PUSH1 0x5 PUSH1 0xFF AND DUP2 MSTORE PUSH1 0x20 ADD PUSH1 0x5C PUSH1 0xFF AND DUP2 MSTORE PUSH1 0x20 ADD PUSH1 0x67 PUSH1 0xFF AND DUP2 MSTORE PUSH1 0x20 ADD PUSH1 0x57 PUSH1 0xFF AND DUP2 MSTORE PUSH1 0x20 ADD PUSH1 0x3A PUSH1 0xFF AND DUP2 MSTORE PUSH1 0x20 ADD PUSH1 0xD5 PUSH1 0xFF AND DUP2 MSTORE PUSH1 0x20 ADD PUSH1 0x21 PUSH1 0xFF AND DUP2 MSTORE PUSH1 0x20 ADD PUSH1 0x5A PUSH1 0xFF AND DUP2 MSTORE PUSH1 0x20 ADD PUSH1 0xF PUSH1 0xFF AND DUP2 MSTORE PUSH1 0x20 ADD PUSH1 0xE4 PUSH1 0xFF AND DUP2 MSTORE PUSH1 0x20 ADD PUSH1 0xA9 PUSH1 0xFF AND DUP2 MSTORE PUSH1 0x20 ADD PUSH1 0xF9 PUSH1 0xFF AND DUP2 MSTORE PUSH1 0x20 ADD PUSH1 0x4E PUSH1 0xFF AND DUP2 MSTORE PUSH1 0x20 ADD PUSH1 0x64 PUSH1 0xFF AND DUP2 MSTORE PUSH1 0x20 ADD PUSH1 0x63 PUSH1 0xFF AND DUP2 MSTORE PUSH1 0x20 ADD PUSH1 0xEE PUSH1 0xFF AND DUP2 MSTORE PUSH1 0x20 ADD PUSH1 0x11 PUSH1 0xFF AND DUP2 MSTORE PUSH1 0x20 ADD PUSH1 0x37 PUSH1 0xFF AND DUP2 MSTORE PUSH1 0x20 ADD PUSH1 0xE0 PUSH1 0xFF AND DUP2 MSTORE PUSH1 0x20 ADD PUSH1 0x10 PUSH1 0xFF AND DUP2 MSTORE PUSH1 0x20 ADD PUSH1 0xD2 PUSH1 0xFF AND DUP2 MSTORE PUSH1 0x20 ADD PUSH1 0xAC PUSH1 0xFF AND DUP2 MSTORE PUSH1 0x20 ADD PUSH1 0xA5 PUSH1 0xFF AND DUP2 MSTORE PUSH1 0x20 ADD PUSH1 0x29 PUSH1 0xFF AND DUP2 MSTORE PUSH1 0x20 ADD PUSH1 0x33 PUSH1 0xFF AND DUP2 MSTORE PUSH1 0x20 ADD PUSH1 0x59 PUSH1 0xFF AND DUP2 MSTORE PUSH1 0x20 ADD PUSH1 0x3B PUSH1 0xFF AND DUP2 MSTORE PUSH1 0x20 ADD PUSH1 0x30 PUSH1 0xFF AND DUP2 MSTORE PUSH1 0x20 ADD PUSH1 0x6D PUSH1 0xFF AND DUP2 MSTORE PUSH1 0x20 ADD PUSH1 0xEF PUSH1 0xFF AND DUP2 MSTORE PUSH1 0x20 ADD PUSH1 0xF4 PUSH1 0xFF AND DUP2 MSTORE PUSH1 0x20 ADD PUSH1 0x7B PUSH1 0xFF AND DUP2 MSTORE PUSH1 0x20 ADD PUSH1 0x55 PUSH1 0xFF AND DUP2 MSTORE PUSH1 0x20 ADD PUSH1 0xEB PUSH1 0xFF AND DUP2 MSTORE PUSH1 0x20 ADD PUSH1 0x4D PUSH1 0xFF AND DUP2 MSTORE PUSH1 0x20 ADD PUSH1 0x50 PUSH1 0xFF AND DUP2 MSTORE PUSH1 0x20 ADD PUSH1 0xB7 PUSH1 0xFF AND DUP2 MSTORE PUSH1 0x20 ADD PUSH1 0x2A PUSH1 0xFF AND DUP2 MSTORE PUSH1 0x20 ADD PUSH1 0x7 PUSH1 0xFF AND DUP2 MSTORE PUSH1 0x20 ADD PUSH1 0x8D PUSH1 0xFF AND DUP2 MSTORE PUSH1 0x20 ADD PUSH1 0xFF DUP1 AND DUP2 MSTORE PUSH1 0x20 ADD PUSH1 0x26 PUSH1 0xFF AND DUP2 MSTORE PUSH1 0x20 ADD PUSH1 0xD7 PUSH1 0xFF AND DUP2 MSTORE PUSH1 0x20 ADD PUSH1 0xF0 PUSH1 0xFF AND DUP2 MSTORE PUSH1 0x20 ADD PUSH1 0xC2 PUSH1 0xFF AND DUP2 MSTORE PUSH1 0x20 ADD PUSH1 0x7E PUSH1 0xFF AND DUP2 MSTORE PUSH1 0x20 ADD PUSH1 0x9 PUSH1 0xFF AND DUP2 MSTORE PUSH1 0x20 ADD PUSH1 0x8C PUSH1 0xFF AND DUP2 MSTORE PUSH1 0x20 ADD PUSH1 0x1A PUSH1 0xFF AND DUP2 MSTORE PUSH1 0x20 ADD PUSH1 0x6A PUSH1 0xFF AND DUP2 MSTORE PUSH1 0x20 ADD PUSH1 0x62 PUSH1 0xFF AND DUP2 MSTORE PUSH1 0x20 ADD PUSH1 0xB PUSH1 0xFF AND DUP2 MSTORE PUSH1 0x20 ADD PUSH1 0x5D PUSH1 0xFF AND DUP2 MSTORE PUSH1 0x20 ADD PUSH1 0x82 PUSH1 0xFF AND DUP2 MSTORE PUSH1 0x20 ADD PUSH1 0x1B PUSH1 0xFF AND DUP2 MSTORE PUSH1 0x20 ADD PUSH1 0x8F PUSH1 0xFF AND DUP2 MSTORE PUSH1 0x20 ADD PUSH1 0x2E PUSH1 0xFF AND DUP2 MSTORE PUSH1 0x20 ADD PUSH1 0xBE PUSH1 0xFF AND DUP2 MSTORE PUSH1 0x20 ADD PUSH1 0xA6 PUSH1 0xFF AND DUP2 MSTORE PUSH1 0x20 ADD PUSH1 0x1D PUSH1 0xFF AND DUP2 MSTORE PUSH1 0x20 ADD PUSH1 0xE7 PUSH1 0xFF AND DUP2 MSTORE PUSH1 0x20 ADD PUSH1 0x9D PUSH1 0xFF AND DUP2 MSTORE PUSH1 0x20 ADD PUSH1 0x2D PUSH1 0xFF AND DUP2 MSTORE PUSH1 0x20 ADD PUSH1 0x8A PUSH1 0xFF AND DUP2 MSTORE PUSH1 0x20 ADD PUSH1 0x72 PUSH1 0xFF AND DUP2 MSTORE PUSH1 0x20 ADD PUSH1 0xD9 PUSH1 0xFF AND DUP2 MSTORE PUSH1 0x20 ADD PUSH1 0xF1 PUSH1 0xFF AND DUP2 MSTORE PUSH1 0x20 ADD PUSH1 0x27 PUSH1 0xFF AND DUP2 MSTORE PUSH1 0x20 ADD PUSH1 0x32 PUSH1 0xFF AND DUP2 MSTORE PUSH1 0x20 ADD PUSH1 0xBC PUSH1 0xFF AND DUP2 MSTORE PUSH1 0x20 ADD PUSH1 0x77 PUSH1 0xFF AND DUP2 MSTORE PUSH1 0x20 ADD PUSH1 0x85 PUSH1 0xFF AND DUP2 MSTORE PUSH1 0x20 ADD PUSH1 0x96 PUSH1 0xFF AND DUP2 MSTORE PUSH1 0x20 ADD PUSH1 0x70 PUSH1 0xFF AND DUP2 MSTORE PUSH1 0x20 ADD PUSH1 0x8 PUSH1 0xFF AND DUP2 MSTORE PUSH1 0x20 ADD PUSH1 0x69 PUSH1 0xFF AND DUP2 MSTORE PUSH1 0x20 ADD PUSH1 0x56 PUSH1 0xFF AND DUP2 MSTORE PUSH1 0x20 ADD PUSH1 0xDF PUSH1 0xFF AND DUP2 MSTORE PUSH1 0x20 ADD PUSH1 0x99 PUSH1 0xFF AND DUP2 MSTORE PUSH1 0x20 ADD PUSH1 0x94 PUSH1 0xFF AND DUP2 MSTORE PUSH1 0x20 ADD PUSH1 0xA1 PUSH1 0xFF AND DUP2 MSTORE PUSH1 0x20 ADD PUSH1 0x90 PUSH1 0xFF AND DUP2 MSTORE PUSH1 0x20 ADD PUSH1 0x18 PUSH1 0xFF AND DUP2 MSTORE PUSH1 0x20 ADD PUSH1 0xBB PUSH1 0xFF AND DUP2 MSTORE PUSH1 0x20 ADD PUSH1 0xFA PUSH1 0xFF AND DUP2 MSTORE PUSH1 0x20 ADD PUSH1 0x7A PUSH1 0xFF AND DUP2 MSTORE PUSH1 0x20 ADD PUSH1 0xB0 PUSH1 0xFF AND DUP2 MSTORE PUSH1 0x20 ADD PUSH1 0xA7 PUSH1 0xFF AND DUP2 MSTORE PUSH1 0x20 ADD PUSH1 0xF8 PUSH1 0xFF AND DUP2 MSTORE PUSH1 0x20 ADD PUSH1 0xAB PUSH1 0xFF AND DUP2 MSTORE PUSH1 0x20 ADD PUSH1 0x28 PUSH1 0xFF AND DUP2 MSTORE PUSH1 0x20 ADD PUSH1 0xD6 PUSH1 0xFF AND DUP2 MSTORE PUSH1 0x20 ADD PUSH1 0x15 PUSH1 0xFF AND DUP2 MSTORE PUSH1 0x20 ADD PUSH1 0x8E PUSH1 0xFF AND DUP2 MSTORE PUSH1 0x20 ADD PUSH1 0xCB PUSH1 0xFF AND DUP2 MSTORE PUSH1 0x20 ADD PUSH1 0xF2 PUSH1 0xFF AND DUP2 MSTORE PUSH1 0x20 ADD PUSH1 0x13 PUSH1 0xFF AND DUP2 MSTORE PUSH1 0x20 ADD PUSH1 0xE6 PUSH1 0xFF AND DUP2 MSTORE PUSH1 0x20 ADD PUSH1 0x78 PUSH1 0xFF AND DUP2 MSTORE PUSH1 0x20 ADD PUSH1 0x61 PUSH1 0xFF AND DUP2 MSTORE PUSH1 0x20 ADD PUSH1 0x3F PUSH1 0xFF AND DUP2 MSTORE PUSH1 0x20 ADD PUSH1 0x89 PUSH1 0xFF AND DUP2 MSTORE PUSH1 0x20 ADD PUSH1 0x46 PUSH1 0xFF AND DUP2 MSTORE PUSH1 0x20 ADD PUSH1 0xD PUSH1 0xFF AND DUP2 MSTORE PUSH1 0x20 ADD PUSH1 0x35 PUSH1 0xFF AND DUP2 MSTORE PUSH1 0x20 ADD PUSH1 0x31 PUSH1 0xFF AND DUP2 MSTORE PUSH1 0x20 ADD PUSH1 0x88 PUSH1 0xFF AND DUP2 MSTORE PUSH1 0x20 ADD PUSH1 0xA3 PUSH1 0xFF AND DUP2 MSTORE PUSH1 0x20 ADD PUSH1 0x41 PUSH1 0xFF AND DUP2 MSTORE PUSH1 0x20 ADD PUSH1 0x80 PUSH1 0xFF AND DUP2 MSTORE PUSH1 0x20 ADD PUSH1 0xCA PUSH1 0xFF AND DUP2 MSTORE PUSH1 0x20 ADD PUSH1 0x17 PUSH1 0xFF AND DUP2 MSTORE PUSH1 0x20 ADD PUSH1 0x5F PUSH1 0xFF AND DUP2 MSTORE PUSH1 0x20 ADD PUSH1 0x53 PUSH1 0xFF AND DUP2 MSTORE PUSH1 0x20 ADD PUSH1 0x83 PUSH1 0xFF AND DUP2 MSTORE PUSH1 0x20 ADD PUSH1 0xFE PUSH1 0xFF AND DUP2 MSTORE PUSH1 0x20 ADD PUSH1 0xC3 PUSH1 0xFF AND DUP2 MSTORE PUSH1 0x20 ADD PUSH1 0x9B PUSH1 0xFF AND DUP2 MSTORE PUSH1 0x20 ADD PUSH1 0x45 PUSH1 0xFF AND DUP2 MSTORE PUSH1 0x20 ADD PUSH1 0x39 PUSH1 0xFF AND DUP2 MSTORE PUSH1 0x20 ADD PUSH1 0xE1 PUSH1 0xFF AND DUP2 MSTORE PUSH1 0x20 ADD PUSH1 0xF5 PUSH1 0xFF AND DUP2 MSTORE PUSH1 0x20 ADD PUSH1 0x9E PUSH1 0xFF AND DUP2 MSTORE PUSH1 0x20 ADD PUSH1 0x19 PUSH1 0xFF AND DUP2 MSTORE PUSH1 0x20 ADD PUSH1 0x5E PUSH1 0xFF AND DUP2 MSTORE PUSH1 0x20 ADD PUSH1 0xB6 PUSH1 0xFF AND DUP2 MSTORE PUSH1 0x20 ADD PUSH1 0xCF PUSH1 0xFF AND DUP2 MSTORE PUSH1 0x20 ADD PUSH1 0x4B PUSH1 0xFF AND DUP2 MSTORE PUSH1 0x20 ADD PUSH1 0x38 PUSH1 0xFF AND DUP2 MSTORE PUSH1 0x20 ADD PUSH1 0x4 PUSH1 0xFF AND DUP2 MSTORE PUSH1 0x20 ADD PUSH1 0xB9 PUSH1 0xFF AND DUP2 MSTORE PUSH1 0x20 ADD PUSH1 0x2B PUSH1 0xFF AND DUP2 MSTORE PUSH1 0x20 ADD PUSH1 0xE2 PUSH1 0xFF AND DUP2 MSTORE PUSH1 0x20 ADD PUSH1 0xC1 PUSH1 0xFF AND DUP2 MSTORE PUSH1 0x20 ADD PUSH1 0x4A PUSH1 0xFF AND DUP2 MSTORE PUSH1 0x20 ADD PUSH1 0xDD PUSH1 0xFF AND DUP2 MSTORE PUSH1 0x20 ADD PUSH1 0x48 PUSH1 0xFF AND DUP2 MSTORE PUSH1 0x20 ADD PUSH1 0xC PUSH1 0xFF AND DUP2 MSTORE PUSH1 0x20 ADD PUSH1 0xD0 PUSH1 0xFF AND DUP2 MSTORE PUSH1 0x20 ADD PUSH1 0x7D PUSH1 0xFF AND DUP2 MSTORE PUSH1 0x20 ADD PUSH1 0x3D PUSH1 0xFF AND DUP2 MSTORE PUSH1 0x20 ADD PUSH1 0x58 PUSH1 0xFF AND DUP2 MSTORE PUSH1 0x20 ADD PUSH1 0xDE PUSH1 0xFF AND DUP2 MSTORE PUSH1 0x20 ADD PUSH1 0x7C PUSH1 0xFF AND DUP2 MSTORE PUSH1 0x20 ADD PUSH1 0xD8 PUSH1 0xFF AND DUP2 MSTORE PUSH1 0x20 ADD PUSH1 0x14 PUSH1 0xFF AND DUP2 MSTORE PUSH1 0x20 ADD PUSH1 0x6B PUSH1 0xFF AND DUP2 MSTORE PUSH1 0x20 ADD PUSH1 0x87 PUSH1 0xFF AND DUP2 MSTORE PUSH1 0x20 ADD PUSH1 0x47 PUSH1 0xFF AND DUP2 MSTORE PUSH1 0x20 ADD PUSH1 0xE8 PUSH1 0xFF AND DUP2 MSTORE PUSH1 0x20 ADD PUSH1 0x79 PUSH1 0xFF AND DUP2 MSTORE PUSH1 0x20 ADD PUSH1 0x84 PUSH1 0xFF AND DUP2 MSTORE PUSH1 0x20 ADD PUSH1 0x73 PUSH1 0xFF AND DUP2 MSTORE PUSH1 0x20 ADD PUSH1 0x3C PUSH1 0xFF AND DUP2 MSTORE PUSH1 0x20 ADD PUSH1 0xBD PUSH1 0xFF AND DUP2 MSTORE PUSH1 0x20 ADD PUSH1 0x92 PUSH1 0xFF AND DUP2 MSTORE PUSH1 0x20 ADD PUSH1 0xC9 PUSH1 0xFF AND DUP2 MSTORE PUSH1 0x20 ADD PUSH1 0x23 PUSH1 0xFF AND DUP2 MSTORE PUSH1 0x20 ADD PUSH1 0x8B PUSH1 0xFF AND DUP2 MSTORE PUSH1 0x20 ADD PUSH1 0x97 PUSH1 0xFF AND DUP2 MSTORE PUSH1 0x20 ADD PUSH1 0x95 PUSH1 0xFF AND DUP2 MSTORE PUSH1 0x20 ADD PUSH1 0x44 PUSH1 0xFF AND DUP2 MSTORE PUSH1 0x20 ADD PUSH1 0xDC PUSH1 0xFF AND DUP2 MSTORE PUSH1 0x20 ADD PUSH1 0xAD PUSH1 0xFF AND DUP2 MSTORE PUSH1 0x20 ADD PUSH1 0x40 PUSH1 0xFF AND DUP2 MSTORE PUSH1 0x20 ADD PUSH1 0x65 PUSH1 0xFF AND DUP2 MSTORE PUSH1 0x20 ADD PUSH1 0x86 PUSH1 0xFF AND DUP2 MSTORE PUSH1 0x20 ADD PUSH1 0xA2 PUSH1 0xFF AND DUP2 MSTORE PUSH1 0x20 ADD PUSH1 0xA4 PUSH1 0xFF AND DUP2 MSTORE PUSH1 0x20 ADD PUSH1 0xCC PUSH1 0xFF AND DUP2 MSTORE PUSH1 0x20 ADD PUSH1 0x7F PUSH1 0xFF AND DUP2 MSTORE PUSH1 0x20 ADD PUSH1 0xEC PUSH1 0xFF AND DUP2 MSTORE PUSH1 0x20 ADD PUSH1 0xC0 PUSH1 0xFF AND DUP2 MSTORE PUSH1 0x20 ADD PUSH1 0xAF PUSH1 0xFF AND DUP2 MSTORE PUSH1 0x20 ADD PUSH1 0x91 PUSH1 0xFF AND DUP2 MSTORE PUSH1 0x20 ADD PUSH1 0xFD PUSH1 0xFF AND DUP2 MSTORE PUSH1 0x20 ADD PUSH1 0xF7 PUSH1 0xFF AND DUP2 MSTORE PUSH1 0x20 ADD PUSH1 0x4F PUSH1 0xFF AND DUP2 MSTORE PUSH1 0x20 ADD PUSH1 0x81 PUSH1 0xFF AND DUP2 MSTORE PUSH1 0x20 ADD PUSH1 0x2F PUSH1 0xFF AND DUP2 MSTORE PUSH1 0x20 ADD PUSH1 0x5B PUSH1 0xFF AND DUP2 MSTORE PUSH1 0x20 ADD PUSH1 0xEA PUSH1 0xFF AND DUP2 MSTORE PUSH1 0x20 ADD PUSH1 0xA8 PUSH1 0xFF AND DUP2 MSTORE PUSH1 0x20 ADD PUSH1 0x1C PUSH1 0xFF AND DUP2 MSTORE PUSH1 0x20 ADD PUSH1 0x2 PUSH1 0xFF AND DUP2 MSTORE PUSH1 0x20 ADD PUSH1 0xD1 PUSH1 0xFF AND DUP2 MSTORE PUSH1 0x20 ADD PUSH1 0x98 PUSH1 0xFF AND DUP2 MSTORE PUSH1 0x20 ADD PUSH1 0x71 PUSH1 0xFF AND DUP2 MSTORE PUSH1 0x20 ADD PUSH1 0xED PUSH1 0xFF AND DUP2 MSTORE PUSH1 0x20 ADD PUSH1 0x25 PUSH1 0xFF AND DUP2 MSTORE PUSH1 0x20 ADD PUSH1 0xE3 PUSH1 0xFF AND DUP2 MSTORE PUSH1 0x20 ADD PUSH1 0x24 PUSH1 0xFF AND DUP2 MSTORE PUSH1 0x20 ADD PUSH1 0x6 PUSH1 0xFF AND DUP2 MSTORE PUSH1 0x20 ADD PUSH1 0x68 PUSH1 0xFF AND DUP2 MSTORE PUSH1 0x20 ADD PUSH1 0xB3 PUSH1 0xFF AND DUP2 MSTORE PUSH1 0x20 ADD PUSH1 0x93 PUSH1 0xFF AND DUP2 MSTORE PUSH1 0x20 ADD PUSH1 0x2C PUSH1 0xFF AND DUP2 MSTORE PUSH1 0x20 ADD PUSH1 0x6F PUSH1 0xFF AND DUP2 MSTORE PUSH1 0x20 ADD PUSH1 0x3E PUSH1 0xFF AND DUP2 MSTORE PUSH1 0x20 ADD PUSH1 0x6C PUSH1 0xFF AND DUP2 MSTORE PUSH1 0x20 ADD PUSH1 0xA PUSH1 0xFF AND DUP2 MSTORE PUSH1 0x20 ADD PUSH1 0xB8 PUSH1 0xFF AND DUP2 MSTORE PUSH1 0x20 ADD PUSH1 0xCE PUSH1 0xFF AND DUP2 MSTORE PUSH1 0x20 ADD PUSH1 0xAE PUSH1 0xFF AND DUP2 MSTORE PUSH1 0x20 ADD PUSH1 0x74 PUSH1 0xFF AND DUP2 MSTORE PUSH1 0x20 ADD PUSH1 0xB1 PUSH1 0xFF AND DUP2 MSTORE PUSH1 0x20 ADD PUSH1 0x42 PUSH1 0xFF AND DUP2 MSTORE PUSH1 0x20 ADD PUSH1 0xB4 PUSH1 0xFF AND DUP2 MSTORE PUSH1 0x20 ADD PUSH1 0x1E PUSH1 0xFF AND DUP2 MSTORE PUSH1 0x20 ADD PUSH1 0xD3 PUSH1 0xFF AND DUP2 MSTORE PUSH1 0x20 ADD PUSH1 0x49 PUSH1 0xFF AND DUP2 MSTORE PUSH1 0x20 ADD PUSH1 0xE9 PUSH1 0xFF AND DUP2 MSTORE PUSH1 0x20 ADD PUSH1 0x9C PUSH1 0xFF AND DUP2 MSTORE PUSH1 0x20 ADD PUSH1 0xC8 PUSH1 0xFF AND DUP2 MSTORE PUSH1 0x20 ADD PUSH1 0xC6 PUSH1 0xFF AND DUP2 MSTORE PUSH1 0x20 ADD PUSH1 0xC7 PUSH1 0xFF AND DUP2 MSTORE PUSH1 0x20 ADD PUSH1 0x22 PUSH1 0xFF AND DUP2 MSTORE PUSH1 0x20 ADD PUSH1 0x6E PUSH1 0xFF AND DUP2 MSTORE PUSH1 0x20 ADD PUSH1 0xDB PUSH1 0xFF AND DUP2 MSTORE PUSH1 0x20 ADD PUSH1 0x20 PUSH1 0xFF AND DUP2 MSTORE PUSH1 0x20 ADD PUSH1 0xBF PUSH1 0xFF AND DUP2 MSTORE PUSH1 0x20 ADD PUSH1 0x43 PUSH1 0xFF AND DUP2 MSTORE PUSH1 0x20 ADD PUSH1 0x51 PUSH1 0xFF AND DUP2 MSTORE PUSH1 0x20 ADD PUSH1 0x52 PUSH1 0xFF AND DUP2 MSTORE PUSH1 0x20 ADD PUSH1 0x66 PUSH1 0xFF AND DUP2 MSTORE PUSH1 0x20 ADD PUSH1 0xB2 PUSH1 0xFF AND DUP2 MSTORE PUSH1 0x20 ADD PUSH1 0x76 PUSH1 0xFF AND DUP2 MSTORE PUSH1 0x20 ADD PUSH1 0x60 PUSH1 0xFF AND DUP2 MSTORE PUSH1 0x20 ADD PUSH1 0xDA PUSH1 0xFF AND DUP2 MSTORE PUSH1 0x20 ADD PUSH1 0xC5 PUSH1 0xFF AND DUP2 MSTORE PUSH1 0x20 ADD PUSH1 0xF3 PUSH1 0xFF AND DUP2 MSTORE PUSH1 0x20 ADD PUSH1 0xF6 PUSH1 0xFF AND DUP2 MSTORE PUSH1 0x20 ADD PUSH1 0xAA PUSH1 0xFF AND DUP2 MSTORE PUSH1 0x20 ADD PUSH1 0xCD PUSH1 0xFF AND DUP2 MSTORE PUSH1 0x20 ADD PUSH1 0x9A PUSH1 0xFF AND DUP2 MSTORE PUSH1 0x20 ADD PUSH1 0xA0 PUSH1 0xFF AND DUP2 MSTORE PUSH1 0x20 ADD PUSH1 0x75 PUSH1 0xFF AND DUP2 MSTORE PUSH1 0x20 ADD PUSH1 0x54 PUSH1 0xFF AND DUP2 MSTORE PUSH1 0x20 ADD PUSH1 0xE PUSH1 0xFF AND DUP2 MSTORE PUSH1 0x20 ADD PUSH1 0x1 PUSH1 0xFF AND DUP2 MSTORE POP PUSH1 0x19 SWAP1 PUSH2 0x100 PUSH2 0x28F4 SWAP3 SWAP2 SWAP1 PUSH2 0x299D JUMP JUMPDEST POP CALLVALUE DUP1 ISZERO PUSH2 0x2900 JUMPI PUSH0 DUP1 REVERT JUMPDEST POP PUSH2 0x2A50 JUMP JUMPDEST DUP3 PUSH1 0xB PUSH1 0x1F ADD PUSH1 0x20 SWAP1 DIV DUP2 ADD SWAP3 DUP3 ISZERO PUSH2 0x298C JUMPI SWAP2 PUSH1 0x20 MUL DUP3 ADD PUSH0 JUMPDEST DUP4 DUP3 GT ISZERO PUSH2 0x295E JUMPI DUP4 MLOAD DUP4 DUP3 PUSH2 0x100 EXP DUP2 SLOAD DUP2 PUSH1 0xFF MUL NOT AND SWAP1 DUP4 PUSH1 0xFF AND MUL OR SWAP1 SSTORE POP SWAP3 PUSH1 0x20 ADD SWAP3 PUSH1 0x1 ADD PUSH1 0x20 DUP2 PUSH0 ADD DIV SWAP3 DUP4 ADD SWAP3 PUSH1 0x1 SUB MUL PUSH2 0x2921 JUMP JUMPDEST DUP1 ISZERO PUSH2 0x298A JUMPI DUP3 DUP2 PUSH2 0x100 EXP DUP2 SLOAD SWAP1 PUSH1 0xFF MUL NOT AND SWAP1 SSTORE PUSH1 0x1 ADD PUSH1 0x20 DUP2 PUSH0 ADD DIV SWAP3 DUP4 ADD SWAP3 PUSH1 0x1 SUB MUL PUSH2 0x295E JUMP JUMPDEST POP JUMPDEST POP SWAP1 POP PUSH2 0x2999 SWAP2 SWAP1 PUSH2 0x2A35 JUMP JUMPDEST POP SWAP1 JUMP JUMPDEST DUP3 PUSH2 0x100 PUSH1 0x1F ADD PUSH1 0x20 SWAP1 DIV DUP2 ADD SWAP3 DUP3 ISZERO PUSH2 0x2A24 JUMPI SWAP2 PUSH1 0x20 MUL DUP3 ADD PUSH0 JUMPDEST DUP4 DUP3 GT ISZERO PUSH2 0x29F6 JUMPI DUP4 MLOAD DUP4 DUP3 PUSH2 0x100 EXP DUP2 SLOAD DUP2 PUSH1 0xFF MUL NOT AND SWAP1 DUP4 PUSH1 0xFF AND MUL OR SWAP1 SSTORE POP SWAP3 PUSH1 0x20 ADD SWAP3 PUSH1 0x1 ADD PUSH1 0x20 DUP2 PUSH0 ADD DIV SWAP3 DUP4 ADD SWAP3 PUSH1 0x1 SUB MUL PUSH2 0x29B9 JUMP JUMPDEST DUP1 ISZERO PUSH2 0x2A22 JUMPI DUP3 DUP2 PUSH2 0x100 EXP DUP2 SLOAD SWAP1 PUSH1 0xFF MUL NOT AND SWAP1 SSTORE PUSH1 0x1 ADD PUSH1 0x20 DUP2 PUSH0 ADD DIV SWAP3 DUP4 ADD SWAP3 PUSH1 0x1 SUB MUL PUSH2 0x29F6 JUMP JUMPDEST POP JUMPDEST POP SWAP1 POP PUSH2 0x2A31 SWAP2 SWAP1 PUSH2 0x2A35 JUMP JUMPDEST POP SWAP1 JUMP JUMPDEST JUMPDEST DUP1 DUP3 GT ISZERO PUSH2 0x2A4C JUMPI PUSH0 DUP2 PUSH0 SWAP1 SSTORE POP PUSH1 0x1 ADD PUSH2 0x2A36 JUMP JUMPDEST POP SWAP1 JUMP JUMPDEST PUSH2 0x4710 DUP1 PUSH2 0x2A5D PUSH0 CODECOPY PUSH0 RETURN INVALID PUSH1 0x80 PUSH1 0x40 MSTORE CALLVALUE DUP1 ISZERO PUSH2 0xF JUMPI PUSH0 DUP1 REVERT JUMPDEST POP PUSH1 0x4 CALLDATASIZE LT PUSH2 0x86 JUMPI PUSH0 CALLDATALOAD PUSH1 0xE0 SHR DUP1 PUSH4 0x4DD76C8A GT PUSH2 0x59 JUMPI DUP1 PUSH4 0x4DD76C8A EQ PUSH2 0x14A JUMPI DUP1 PUSH4 0x6B71A846 EQ PUSH2 0x17A JUMPI DUP1 PUSH4 0x75F9A137 EQ PUSH2 0x1AA JUMPI DUP1 PUSH4 0x93A4014E EQ PUSH2 0x1DA JUMPI PUSH2 0x86 JUMP JUMPDEST DUP1 PUSH4 0x6F4A01C EQ PUSH2 0x8A JUMPI DUP1 PUSH4 0x1798A240 EQ PUSH2 0xBA JUMPI DUP1 PUSH4 0x3A0E6BE2 EQ PUSH2 0xEA JUMPI DUP1 PUSH4 0x45C0E63E EQ PUSH2 0x11A JUMPI JUMPDEST PUSH0 DUP1 REVERT JUMPDEST PUSH2 0xA4 PUSH1 0x4 DUP1 CALLDATASIZE SUB DUP2 ADD SWAP1 PUSH2 0x9F SWAP2 SWAP1 PUSH2 0x3A40 JUMP JUMPDEST PUSH2 0x20A JUMP JUMPDEST PUSH1 0x40 MLOAD PUSH2 0xB1 SWAP2 SWAP1 PUSH2 0x3B59 JUMP JUMPDEST PUSH1 0x40 MLOAD DUP1 SWAP2 SUB SWAP1 RETURN JUMPDEST PUSH2 0xD4 PUSH1 0x4 DUP1 CALLDATASIZE SUB DUP2 ADD SWAP1 PUSH2 0xCF SWAP2 SWAP1 PUSH2 0x3B79 JUMP JUMPDEST PUSH2 0x3A1 JUMP JUMPDEST PUSH1 0x40 MLOAD PUSH2 0xE1 SWAP2 SWAP1 PUSH2 0x3CDC JUMP JUMPDEST PUSH1 0x40 MLOAD DUP1 SWAP2 SUB SWAP1 RETURN JUMPDEST PUSH2 0x104 PUSH1 0x4 DUP1 CALLDATASIZE SUB DUP2 ADD SWAP1 PUSH2 0xFF SWAP2 SWAP1 PUSH2 0x3DEA JUMP JUMPDEST PUSH2 0x72B JUMP JUMPDEST PUSH1 0x40 MLOAD PUSH2 0x111 SWAP2 SWAP1 PUSH2 0x3CDC JUMP JUMPDEST PUSH1 0x40 MLOAD DUP1 SWAP2 SUB SWAP1 RETURN JUMPDEST PUSH2 0x134 PUSH1 0x4 DUP1 CALLDATASIZE SUB DUP2 ADD SWAP1 PUSH2 0x12F SWAP2 SWAP1 PUSH2 0x3E31 JUMP JUMPDEST PUSH2 0x7F0 JUMP JUMPDEST PUSH1 0x40 MLOAD PUSH2 0x141 SWAP2 SWAP1 PUSH2 0x3E7E JUMP JUMPDEST PUSH1 0x40 MLOAD DUP1 SWAP2 SUB SWAP1 RETURN JUMPDEST PUSH2 0x164 PUSH1 0x4 DUP1 CALLDATASIZE SUB DUP2 ADD SWAP1 PUSH2 0x15F SWAP2 SWAP1 PUSH2 0x3F7B JUMP JUMPDEST PUSH2 0x803 JUMP JUMPDEST PUSH1 0x40 MLOAD PUSH2 0x171 SWAP2 SWAP1 PUSH2 0x4060 JUMP JUMPDEST PUSH1 0x40 MLOAD DUP1 SWAP2 SUB SWAP1 RETURN JUMPDEST PUSH2 0x194 PUSH1 0x4 DUP1 CALLDATASIZE SUB DUP2 ADD SWAP1 PUSH2 0x18F SWAP2 SWAP1 PUSH2 0x3F7B JUMP JUMPDEST PUSH2 0xE36 JUMP JUMPDEST PUSH1 0x40 MLOAD PUSH2 0x1A1 SWAP2 SWAP1 PUSH2 0x4060 JUMP JUMPDEST PUSH1 0x40 MLOAD DUP1 SWAP2 SUB SWAP1 RETURN JUMPDEST PUSH2 0x1C4 PUSH1 0x4 DUP1 CALLDATASIZE SUB DUP2 ADD SWAP1 PUSH2 0x1BF SWAP2 SWAP1 PUSH2 0x407A JUMP JUMPDEST PUSH2 0x1469 JUMP JUMPDEST PUSH1 0x40 MLOAD PUSH2 0x1D1 SWAP2 SWAP1 PUSH2 0x3E7E JUMP JUMPDEST PUSH1 0x40 MLOAD DUP1 SWAP2 SUB SWAP1 RETURN JUMPDEST PUSH2 0x1F4 PUSH1 0x4 DUP1 CALLDATASIZE SUB DUP2 ADD SWAP1 PUSH2 0x1EF SWAP2 SWAP1 PUSH2 0x40A6 JUMP JUMPDEST PUSH2 0x14EF JUMP JUMPDEST PUSH1 0x40 MLOAD PUSH2 0x201 SWAP2 SWAP1 PUSH2 0x4060 JUMP JUMPDEST PUSH1 0x40 MLOAD DUP1 SWAP2 SUB SWAP1 RETURN JUMPDEST PUSH1 0x60 PUSH0 DUP3 MLOAD SWAP1 POP PUSH0 PUSH1 0x10 DUP3 PUSH2 0x21F SWAP2 SWAP1 PUSH2 0x4107 JUMP JUMPDEST PUSH1 0x10 PUSH2 0x22B SWAP2 SWAP1 PUSH2 0x4164 JUMP JUMPDEST SWAP1 POP PUSH1 0x10 DUP2 SUB PUSH2 0x239 JUMPI PUSH0 SWAP1 POP JUMPDEST PUSH0 PUSH1 0x40 MLOAD DUP1 PUSH1 0x40 ADD PUSH1 0x40 MSTORE DUP1 PUSH1 0x1 DUP2 MSTORE PUSH1 0x20 ADD PUSH0 DUP2 MSTORE POP SWAP1 POP PUSH0 PUSH1 0x1 SWAP1 POP JUMPDEST DUP3 DUP2 LT ISZERO PUSH2 0x28F JUMPI DUP2 PUSH1 0x40 MLOAD PUSH1 0x20 ADD PUSH2 0x271 SWAP2 SWAP1 PUSH2 0x41D7 JUMP JUMPDEST PUSH1 0x40 MLOAD PUSH1 0x20 DUP2 DUP4 SUB SUB DUP2 MSTORE SWAP1 PUSH1 0x40 MSTORE SWAP2 POP DUP1 DUP1 PUSH1 0x1 ADD SWAP2 POP POP PUSH2 0x258 JUMP JUMPDEST POP PUSH0 DUP6 DUP3 PUSH1 0x40 MLOAD PUSH1 0x20 ADD PUSH2 0x2A4 SWAP3 SWAP2 SWAP1 PUSH2 0x41FC JUMP JUMPDEST PUSH1 0x40 MLOAD PUSH1 0x20 DUP2 DUP4 SUB SUB DUP2 MSTORE SWAP1 PUSH1 0x40 MSTORE SWAP1 POP PUSH0 PUSH1 0x10 DUP3 MLOAD PUSH2 0x2C4 SWAP2 SWAP1 PUSH2 0x421F JUMP JUMPDEST SWAP1 POP PUSH0 DUP2 PUSH8 0xFFFFFFFFFFFFFFFF DUP2 GT ISZERO PUSH2 0x2E1 JUMPI PUSH2 0x2E0 PUSH2 0x391C JUMP JUMPDEST JUMPDEST PUSH1 0x40 MLOAD SWAP1 DUP1 DUP3 MSTORE DUP1 PUSH1 0x20 MUL PUSH1 0x20 ADD DUP3 ADD PUSH1 0x40 MSTORE DUP1 ISZERO PUSH2 0x30F JUMPI DUP2 PUSH1 0x20 ADD PUSH1 0x20 DUP3 MUL DUP1 CALLDATASIZE DUP4 CALLDATACOPY DUP1 DUP3 ADD SWAP2 POP POP SWAP1 POP JUMPDEST POP SWAP1 POP PUSH0 JUMPDEST DUP3 DUP2 LT ISZERO PUSH2 0x392 JUMPI PUSH2 0x334 DUP5 PUSH1 0x10 DUP4 PUSH2 0x32D SWAP2 SWAP1 PUSH2 0x424F JUMP JUMPDEST PUSH1 0x10 PUSH2 0x1567 JUMP JUMPDEST PUSH2 0x33D SWAP1 PUSH2 0x42EA JUMP JUMPDEST PUSH1 0x80 SHR DUP3 DUP3 DUP2 MLOAD DUP2 LT PUSH2 0x353 JUMPI PUSH2 0x352 PUSH2 0x4350 JUMP JUMPDEST JUMPDEST PUSH1 0x20 MUL PUSH1 0x20 ADD ADD SWAP1 PUSH16 0xFFFFFFFFFFFFFFFFFFFFFFFFFFFFFFFF AND SWAP1 DUP2 PUSH16 0xFFFFFFFFFFFFFFFFFFFFFFFFFFFFFFFF AND DUP2 MSTORE POP POP DUP1 DUP1 PUSH1 0x1 ADD SWAP2 POP POP PUSH2 0x314 JUMP JUMPDEST POP DUP1 SWAP7 POP POP POP POP POP POP POP SWAP2 SWAP1 POP JUMP JUMPDEST PUSH1 0x60 PUSH0 PUSH1 0x8 DUP8 MLOAD PUSH2 0x3B2 SWAP2 SWAP1 PUSH2 0x424F JUMP JUMPDEST SWAP1 POP PUSH0 PUSH1 0x8 DUP6 MLOAD PUSH2 0x3C3 SWAP2 SWAP1 PUSH2 0x424F JUMP JUMPDEST SWAP1 POP PUSH0 DUP3 PUSH1 0x40 PUSH2 0x3D3 SWAP2 SWAP1 PUSH2 0x437D JUMP JUMPDEST DUP3 SWAP1 SHL SWAP1 POP PUSH0 PUSH2 0x3E2 DUP11 PUSH2 0x20A JUMP JUMPDEST SWAP1 POP PUSH0 PUSH2 0x3EE DUP9 PUSH2 0x20A JUMP JUMPDEST SWAP1 POP PUSH0 PUSH2 0x3FA DUP12 PUSH2 0x20A JUMP JUMPDEST SWAP1 POP PUSH0 PUSH2 0x406 DUP12 PUSH2 0x20A JUMP JUMPDEST SWAP1 POP PUSH0 PUSH1 0x1 DUP3 PUSH0 DUP2 MLOAD DUP2 LT PUSH2 0x41E JUMPI PUSH2 0x41D PUSH2 0x4350 JUMP JUMPDEST JUMPDEST PUSH1 0x20 MUL PUSH1 0x20 ADD ADD MLOAD PUSH2 0x430 SWAP2 SWAP1 PUSH2 0x43B0 JUMP JUMPDEST SWAP1 POP PUSH0 PUSH2 0x43C DUP12 PUSH2 0x20A JUMP JUMPDEST SWAP1 POP PUSH0 PUSH2 0x47B PUSH2 0x476 PUSH2 0x44E PUSH0 PUSH2 0x14EF JUMP JUMPDEST PUSH2 0x471 DUP9 PUSH0 DUP2 MLOAD DUP2 LT PUSH2 0x464 JUMPI PUSH2 0x463 PUSH2 0x4350 JUMP JUMPDEST JUMPDEST PUSH1 0x20 MUL PUSH1 0x20 ADD ADD MLOAD PUSH2 0x14EF JUMP JUMPDEST PUSH2 0xE36 JUMP JUMPDEST PUSH2 0x1469 JUMP JUMPDEST SWAP1 POP PUSH0 PUSH2 0x4BA PUSH2 0x4B5 PUSH2 0x48D DUP7 PUSH2 0x14EF JUMP JUMPDEST PUSH2 0x4B0 DUP10 PUSH0 DUP2 MLOAD DUP2 LT PUSH2 0x4A3 JUMPI PUSH2 0x4A2 PUSH2 0x4350 JUMP JUMPDEST JUMPDEST PUSH1 0x20 MUL PUSH1 0x20 ADD ADD MLOAD PUSH2 0x14EF JUMP JUMPDEST PUSH2 0xE36 JUMP JUMPDEST PUSH2 0x1469 JUMP JUMPDEST SWAP1 POP PUSH0 DUP1 JUMPDEST DUP9 MLOAD DUP2 LT ISZERO PUSH2 0x504 JUMPI PUSH2 0x4F5 PUSH2 0x4EF DUP4 DUP12 DUP5 DUP2 MLOAD DUP2 LT PUSH2 0x4E2 JUMPI PUSH2 0x4E1 PUSH2 0x4350 JUMP JUMPDEST JUMPDEST PUSH1 0x20 MUL PUSH1 0x20 ADD ADD MLOAD PUSH2 0x1683 JUMP JUMPDEST DUP6 PUSH2 0x168F JUMP JUMPDEST SWAP2 POP DUP1 DUP1 PUSH1 0x1 ADD SWAP2 POP POP PUSH2 0x4BF JUMP JUMPDEST POP PUSH0 JUMPDEST DUP10 MLOAD DUP2 LT ISZERO PUSH2 0x54C JUMPI PUSH2 0x53D PUSH2 0x537 DUP4 DUP13 DUP5 DUP2 MLOAD DUP2 LT PUSH2 0x52A JUMPI PUSH2 0x529 PUSH2 0x4350 JUMP JUMPDEST JUMPDEST PUSH1 0x20 MUL PUSH1 0x20 ADD ADD MLOAD PUSH2 0x1683 JUMP JUMPDEST DUP6 PUSH2 0x168F JUMP JUMPDEST SWAP2 POP DUP1 DUP1 PUSH1 0x1 ADD SWAP2 POP POP PUSH2 0x507 JUMP JUMPDEST POP PUSH2 0x560 PUSH2 0x55A DUP3 DUP13 PUSH2 0x1683 JUMP JUMPDEST DUP5 PUSH2 0x168F JUMP JUMPDEST SWAP1 POP PUSH2 0x56C DUP2 DUP4 PUSH2 0x1683 JUMP JUMPDEST SWAP1 POP PUSH0 DUP5 PUSH0 DUP2 MLOAD DUP2 LT PUSH2 0x582 JUMPI PUSH2 0x581 PUSH2 0x4350 JUMP JUMPDEST JUMPDEST PUSH1 0x20 MUL PUSH1 0x20 ADD ADD MLOAD PUSH16 0xFFFFFFFFFFFFFFFFFFFFFFFFFFFFFFFF AND GT PUSH2 0x5DC JUMPI PUSH1 0x40 MLOAD PUSH32 0x8C379A000000000000000000000000000000000000000000000000000000000 DUP2 MSTORE PUSH1 0x4 ADD PUSH2 0x5D3 SWAP1 PUSH2 0x444D JUMP JUMPDEST PUSH1 0x40 MLOAD DUP1 SWAP2 SUB SWAP1 REVERT JUMPDEST PUSH0 PUSH1 0x1 DUP7 PUSH2 0x5EA SWAP2 SWAP1 PUSH2 0x43B0 JUMP JUMPDEST SWAP1 POP PUSH0 DUP11 MLOAD PUSH8 0xFFFFFFFFFFFFFFFF DUP2 GT ISZERO PUSH2 0x608 JUMPI PUSH2 0x607 PUSH2 0x391C JUMP JUMPDEST JUMPDEST PUSH1 0x40 MLOAD SWAP1 DUP1 DUP3 MSTORE DUP1 PUSH1 0x20 MUL PUSH1 0x20 ADD DUP3 ADD PUSH1 0x40 MSTORE DUP1 ISZERO PUSH2 0x636 JUMPI DUP2 PUSH1 0x20 ADD PUSH1 0x20 DUP3 MUL DUP1 CALLDATASIZE DUP4 CALLDATACOPY DUP1 DUP3 ADD SWAP2 POP POP SWAP1 POP JUMPDEST POP SWAP1 POP PUSH0 JUMPDEST DUP2 MLOAD DUP2 LT ISZERO PUSH2 0x708 JUMPI PUSH0 PUSH2 0x681 PUSH2 0x67C PUSH2 0x654 DUP7 PUSH2 0x14EF JUMP JUMPDEST PUSH2 0x677 DUP15 PUSH0 DUP2 MLOAD DUP2 LT PUSH2 0x66A JUMPI PUSH2 0x669 PUSH2 0x4350 JUMP JUMPDEST JUMPDEST PUSH1 0x20 MUL PUSH1 0x20 ADD ADD MLOAD PUSH2 0x14EF JUMP JUMPDEST PUSH2 0xE36 JUMP JUMPDEST PUSH2 0x1469 JUMP JUMPDEST SWAP1 POP PUSH2 0x6A7 DUP2 DUP15 DUP5 DUP2 MLOAD DUP2 LT PUSH2 0x69A JUMPI PUSH2 0x699 PUSH2 0x4350 JUMP JUMPDEST JUMPDEST PUSH1 0x20 MUL PUSH1 0x20 ADD ADD MLOAD PUSH2 0x1683 JUMP JUMPDEST DUP4 DUP4 DUP2 MLOAD DUP2 LT PUSH2 0x6BA JUMPI PUSH2 0x6B9 PUSH2 0x4350 JUMP JUMPDEST JUMPDEST PUSH1 0x20 MUL PUSH1 0x20 ADD ADD SWAP1 PUSH16 0xFFFFFFFFFFFFFFFFFFFFFFFFFFFFFFFF AND SWAP1 DUP2 PUSH16 0xFFFFFFFFFFFFFFFFFFFFFFFFFFFFFFFF AND DUP2 MSTORE POP POP DUP4 DUP1 PUSH2 0x6F7 SWAP1 PUSH2 0x446B JUMP JUMPDEST SWAP5 POP POP POP DUP1 DUP1 PUSH1 0x1 ADD SWAP2 POP POP PUSH2 0x63B JUMP JUMPDEST POP PUSH2 0x712 DUP2 PUSH2 0x72B JUMP JUMPDEST SWAP15 POP POP POP POP POP POP POP POP POP POP POP POP POP POP POP SWAP6 SWAP5 POP POP POP POP POP JUMP JUMPDEST PUSH1 0x60 PUSH0 DUP3 PUSH0 DUP2 MLOAD DUP2 LT PUSH2 0x741 JUMPI PUSH2 0x740 PUSH2 0x4350 JUMP JUMPDEST JUMPDEST PUSH1 0x20 MUL PUSH1 0x20 ADD ADD MLOAD PUSH1 0x80 SHL PUSH1 0x40 MLOAD PUSH1 0x20 ADD PUSH2 0x75C SWAP2 SWAP1 PUSH2 0x44C2 JUMP JUMPDEST PUSH1 0x40 MLOAD PUSH1 0x20 DUP2 DUP4 SUB SUB DUP2 MSTORE SWAP1 PUSH1 0x40 MSTORE SWAP1 POP PUSH0 PUSH1 0x1 SWAP1 POP JUMPDEST DUP4 MLOAD DUP2 LT ISZERO PUSH2 0x7E6 JUMPI DUP2 DUP5 DUP3 DUP2 MLOAD DUP2 LT PUSH2 0x790 JUMPI PUSH2 0x78F PUSH2 0x4350 JUMP JUMPDEST JUMPDEST PUSH1 0x20 MUL PUSH1 0x20 ADD ADD MLOAD PUSH1 0x40 MLOAD PUSH1 0x20 ADD PUSH2 0x7A8 SWAP2 SWAP1 PUSH2 0x4510 JUMP JUMPDEST PUSH1 0x40 MLOAD PUSH1 0x20 DUP2 DUP4 SUB SUB DUP2 MSTORE SWAP1 PUSH1 0x40 MSTORE PUSH1 0x40 MLOAD PUSH1 0x20 ADD PUSH2 0x7C8 SWAP3 SWAP2 SWAP1 PUSH2 0x41FC JUMP JUMPDEST PUSH1 0x40 MLOAD PUSH1 0x20 DUP2 DUP4 SUB SUB DUP2 MSTORE SWAP1 PUSH1 0x40 MSTORE SWAP2 POP DUP1 DUP1 PUSH1 0x1 ADD SWAP2 POP POP PUSH2 0x773 JUMP JUMPDEST POP DUP1 SWAP2 POP POP SWAP2 SWAP1 POP JUMP JUMPDEST PUSH0 PUSH2 0x7FB DUP4 DUP4 PUSH2 0x168F JUMP JUMPDEST SWAP1 POP SWAP3 SWAP2 POP POP JUMP JUMPDEST PUSH2 0x80B PUSH2 0x3853 JUMP JUMPDEST PUSH0 PUSH1 0x40 MLOAD DUP1 PUSH1 0x80 ADD PUSH1 0x40 MSTORE DUP1 PUSH1 0x40 MLOAD DUP1 PUSH1 0x80 ADD PUSH1 0x40 MSTORE DUP1 DUP8 PUSH0 PUSH1 0x10 DUP2 LT PUSH2 0x835 JUMPI PUSH2 0x834 PUSH2 0x4350 JUMP JUMPDEST JUMPDEST PUSH1 0x20 MUL ADD MLOAD PUSH1 0xFF AND PUSH1 0xFF AND DUP2 MSTORE PUSH1 0x20 ADD DUP8 PUSH1 0x4 PUSH1 0x10 DUP2 LT PUSH2 0x859 JUMPI PUSH2 0x858 PUSH2 0x4350 JUMP JUMPDEST JUMPDEST PUSH1 0x20 MUL ADD MLOAD PUSH1 0xFF AND PUSH1 0xFF AND DUP2 MSTORE PUSH1 0x20 ADD DUP8 PUSH1 0x8 PUSH1 0x10 DUP2 LT PUSH2 0x87D JUMPI PUSH2 0x87C PUSH2 0x4350 JUMP JUMPDEST JUMPDEST PUSH1 0x20 MUL ADD MLOAD PUSH1 0xFF AND PUSH1 0xFF AND DUP2 MSTORE PUSH1 0x20 ADD DUP8 PUSH1 0xC PUSH1 0x10 DUP2 LT PUSH2 0x8A1 JUMPI PUSH2 0x8A0 PUSH2 0x4350 JUMP JUMPDEST JUMPDEST PUSH1 0x20 MUL ADD MLOAD PUSH1 0xFF AND PUSH1 0xFF AND DUP2 MSTORE POP DUP2 MSTORE PUSH1 0x20 ADD PUSH1 0x40 MLOAD DUP1 PUSH1 0x80 ADD PUSH1 0x40 MSTORE DUP1 DUP8 PUSH1 0x1 PUSH1 0x10 DUP2 LT PUSH2 0x8D3 JUMPI PUSH2 0x8D2 PUSH2 0x4350 JUMP JUMPDEST JUMPDEST PUSH1 0x20 MUL ADD MLOAD PUSH1 0xFF AND PUSH1 0xFF AND DUP2 MSTORE PUSH1 0x20 ADD DUP8 PUSH1 0x5 PUSH1 0x10 DUP2 LT PUSH2 0x8F7 JUMPI PUSH2 0x8F6 PUSH2 0x4350 JUMP JUMPDEST JUMPDEST PUSH1 0x20 MUL ADD MLOAD PUSH1 0xFF AND PUSH1 0xFF AND DUP2 MSTORE PUSH1 0x20 ADD DUP8 PUSH1 0x9 PUSH1 0x10 DUP2 LT PUSH2 0x91B JUMPI PUSH2 0x91A PUSH2 0x4350 JUMP JUMPDEST JUMPDEST PUSH1 0x20 MUL ADD MLOAD PUSH1 0xFF AND PUSH1 0xFF AND DUP2 MSTORE PUSH1 0x20 ADD DUP8 PUSH1 0xD PUSH1 0x10 DUP2 LT PUSH2 0x93F JUMPI PUSH2 0x93E PUSH2 0x4350 JUMP JUMPDEST JUMPDEST PUSH1 0x20 MUL ADD MLOAD PUSH1 0xFF AND PUSH1 0xFF AND DUP2 MSTORE POP DUP2 MSTORE PUSH1 0x20 ADD PUSH1 0x40 MLOAD DUP1 PUSH1 0x80 ADD PUSH1 0x40 MSTORE DUP1 DUP8 PUSH1 0x2 PUSH1 0x10 DUP2 LT PUSH2 0x971 JUMPI PUSH2 0x970 PUSH2 0x4350 JUMP JUMPDEST JUMPDEST PUSH1 0x20 MUL ADD MLOAD PUSH1 0xFF AND PUSH1 0xFF AND DUP2 MSTORE PUSH1 0x20 ADD DUP8 PUSH1 0x6 PUSH1 0x10 DUP2 LT PUSH2 0x995 JUMPI PUSH2 0x994 PUSH2 0x4350 JUMP JUMPDEST JUMPDEST PUSH1 0x20 MUL ADD MLOAD PUSH1 0xFF AND PUSH1 0xFF AND DUP2 MSTORE PUSH1 0x20 ADD DUP8 PUSH1 0xA PUSH1 0x10 DUP2 LT PUSH2 0x9B9 JUMPI PUSH2 0x9B8 PUSH2 0x4350 JUMP JUMPDEST JUMPDEST PUSH1 0x20 MUL ADD MLOAD PUSH1 0xFF AND PUSH1 0xFF AND DUP2 MSTORE PUSH1 0x20 ADD DUP8 PUSH1 0xE PUSH1 0x10 DUP2 LT PUSH2 0x9DD JUMPI PUSH2 0x9DC PUSH2 0x4350 JUMP JUMPDEST JUMPDEST PUSH1 0x20 MUL ADD MLOAD PUSH1 0xFF AND PUSH1 0xFF AND DUP2 MSTORE POP DUP2 MSTORE PUSH1 0x20 ADD PUSH1 0x40 MLOAD DUP1 PUSH1 0x80 ADD PUSH1 0x40 MSTORE DUP1 DUP8 PUSH1 0x3 PUSH1 0x10 DUP2 LT PUSH2 0xA0F JUMPI PUSH2 0xA0E PUSH2 0x4350 JUMP JUMPDEST JUMPDEST PUSH1 0x20 MUL ADD MLOAD PUSH1 0xFF AND PUSH1 0xFF AND DUP2 MSTORE PUSH1 0x20 ADD DUP8 PUSH1 0x7 PUSH1 0x10 DUP2 LT PUSH2 0xA33 JUMPI PUSH2 0xA32 PUSH2 0x4350 JUMP JUMPDEST JUMPDEST PUSH1 0x20 MUL ADD MLOAD PUSH1 0xFF AND PUSH1 0xFF AND DUP2 MSTORE PUSH1 0x20 ADD DUP8 PUSH1 0xB PUSH1 0x10 DUP2 LT PUSH2 0xA57 JUMPI PUSH2 0xA56 PUSH2 0x4350 JUMP JUMPDEST JUMPDEST PUSH1 0x20 MUL ADD MLOAD PUSH1 0xFF AND PUSH1 0xFF AND DUP2 MSTORE PUSH1 0x20 ADD DUP8 PUSH1 0xF PUSH1 0x10 DUP2 LT PUSH2 0xA7B JUMPI PUSH2 0xA7A PUSH2 0x4350 JUMP JUMPDEST JUMPDEST PUSH1 0x20 MUL ADD MLOAD PUSH1 0xFF AND PUSH1 0xFF AND DUP2 MSTORE POP DUP2 MSTORE POP SWAP1 POP PUSH0 PUSH2 0xA98 DUP5 PUSH2 0x1750 JUMP JUMPDEST SWAP1 POP PUSH0 PUSH1 0x40 MLOAD DUP1 PUSH1 0x80 ADD PUSH1 0x40 MSTORE DUP1 DUP4 PUSH1 0x28 PUSH1 0x2C DUP2 LT PUSH2 0xABA JUMPI PUSH2 0xAB9 PUSH2 0x4350 JUMP JUMPDEST JUMPDEST PUSH1 0x20 MUL ADD MLOAD DUP2 MSTORE PUSH1 0x20 ADD DUP4 PUSH1 0x29 PUSH1 0x2C DUP2 LT PUSH2 0xAD8 JUMPI PUSH2 0xAD7 PUSH2 0x4350 JUMP JUMPDEST JUMPDEST PUSH1 0x20 MUL ADD MLOAD DUP2 MSTORE PUSH1 0x20 ADD DUP4 PUSH1 0x2A PUSH1 0x2C DUP2 LT PUSH2 0xAF6 JUMPI PUSH2 0xAF5 PUSH2 0x4350 JUMP JUMPDEST JUMPDEST PUSH1 0x20 MUL ADD MLOAD DUP2 MSTORE PUSH1 0x20 ADD DUP4 PUSH1 0x2B PUSH1 0x2C DUP2 LT PUSH2 0xB14 JUMPI PUSH2 0xB13 PUSH2 0x4350 JUMP JUMPDEST JUMPDEST PUSH1 0x20 MUL ADD MLOAD DUP2 MSTORE POP SWAP1 POP PUSH2 0xB28 DUP4 DUP3 PUSH2 0x1F44 JUMP JUMPDEST SWAP3 POP PUSH0 PUSH1 0x9 SWAP1 POP JUMPDEST PUSH1 0x1 DUP2 LT PUSH2 0xC4B JUMPI PUSH2 0xB41 DUP5 PUSH2 0x2021 JUMP JUMPDEST SWAP4 POP PUSH2 0xB4C DUP5 PUSH2 0x2361 JUMP JUMPDEST SWAP4 POP PUSH1 0x40 MLOAD DUP1 PUSH1 0x80 ADD PUSH1 0x40 MSTORE DUP1 DUP5 DUP4 PUSH1 0x4 PUSH2 0xB67 SWAP2 SWAP1 PUSH2 0x424F JUMP JUMPDEST PUSH1 0x2C DUP2 LT PUSH2 0xB78 JUMPI PUSH2 0xB77 PUSH2 0x4350 JUMP JUMPDEST JUMPDEST PUSH1 0x20 MUL ADD MLOAD DUP2 MSTORE PUSH1 0x20 ADD DUP5 PUSH1 0x1 DUP5 PUSH1 0x4 PUSH2 0xB92 SWAP2 SWAP1 PUSH2 0x424F JUMP JUMPDEST PUSH2 0xB9C SWAP2 SWAP1 PUSH2 0x437D JUMP JUMPDEST PUSH1 0x2C DUP2 LT PUSH2 0xBAD JUMPI PUSH2 0xBAC PUSH2 0x4350 JUMP JUMPDEST JUMPDEST PUSH1 0x20 MUL ADD MLOAD DUP2 MSTORE PUSH1 0x20 ADD DUP5 PUSH1 0x2 DUP5 PUSH1 0x4 PUSH2 0xBC7 SWAP2 SWAP1 PUSH2 0x424F JUMP JUMPDEST PUSH2 0xBD1 SWAP2 SWAP1 PUSH2 0x437D JUMP JUMPDEST PUSH1 0x2C DUP2 LT PUSH2 0xBE2 JUMPI PUSH2 0xBE1 PUSH2 0x4350 JUMP JUMPDEST JUMPDEST PUSH1 0x20 MUL ADD MLOAD DUP2 MSTORE PUSH1 0x20 ADD DUP5 PUSH1 0x3 DUP5 PUSH1 0x4 PUSH2 0xBFC SWAP2 SWAP1 PUSH2 0x424F JUMP JUMPDEST PUSH2 0xC06 SWAP2 SWAP1 PUSH2 0x437D JUMP JUMPDEST PUSH1 0x2C DUP2 LT PUSH2 0xC17 JUMPI PUSH2 0xC16 PUSH2 0x4350 JUMP JUMPDEST JUMPDEST PUSH1 0x20 MUL ADD MLOAD DUP2 MSTORE POP SWAP2 POP PUSH2 0xC2B DUP5 DUP4 PUSH2 0x1F44 JUMP JUMPDEST SWAP4 POP PUSH2 0xC36 DUP5 PUSH2 0x243A JUMP JUMPDEST SWAP4 POP DUP1 DUP1 PUSH2 0xC43 SWAP1 PUSH2 0x452A JUMP JUMPDEST SWAP2 POP POP PUSH2 0xB30 JUMP JUMPDEST POP PUSH2 0xC55 DUP4 PUSH2 0x2021 JUMP JUMPDEST SWAP3 POP PUSH2 0xC60 DUP4 PUSH2 0x2361 JUMP JUMPDEST SWAP3 POP PUSH1 0x40 MLOAD DUP1 PUSH1 0x80 ADD PUSH1 0x40 MSTORE DUP1 DUP4 PUSH0 PUSH1 0x2C DUP2 LT PUSH2 0xC80 JUMPI PUSH2 0xC7F PUSH2 0x4350 JUMP JUMPDEST JUMPDEST PUSH1 0x20 MUL ADD MLOAD DUP2 MSTORE PUSH1 0x20 ADD DUP4 PUSH1 0x1 PUSH1 0x2C DUP2 LT PUSH2 0xC9E JUMPI PUSH2 0xC9D PUSH2 0x4350 JUMP JUMPDEST JUMPDEST PUSH1 0x20 MUL ADD MLOAD DUP2 MSTORE PUSH1 0x20 ADD DUP4 PUSH1 0x2 PUSH1 0x2C DUP2 LT PUSH2 0xCBC JUMPI PUSH2 0xCBB PUSH2 0x4350 JUMP JUMPDEST JUMPDEST PUSH1 0x20 MUL ADD MLOAD DUP2 MSTORE PUSH1 0x20 ADD DUP4 PUSH1 0x3 PUSH1 0x2C DUP2 LT PUSH2 0xCDA JUMPI PUSH2 0xCD9 PUSH2 0x4350 JUMP JUMPDEST JUMPDEST PUSH1 0x20 MUL ADD MLOAD DUP2 MSTORE POP SWAP1 POP PUSH2 0xCEE DUP4 DUP3 PUSH2 0x1F44 JUMP JUMPDEST SWAP3 POP PUSH0 PUSH1 0x40 MLOAD DUP1 PUSH2 0x200 ADD PUSH1 0x40 MSTORE DUP1 PUSH0 PUSH1 0xFF AND DUP2 MSTORE PUSH1 0x20 ADD PUSH0 PUSH1 0xFF AND DUP2 MSTORE PUSH1 0x20 ADD PUSH0 PUSH1 0xFF AND DUP2 MSTORE PUSH1 0x20 ADD PUSH0 PUSH1 0xFF AND DUP2 MSTORE PUSH1 0x20 ADD PUSH0 PUSH1 0xFF AND DUP2 MSTORE PUSH1 0x20 ADD PUSH0 PUSH1 0xFF AND DUP2 MSTORE PUSH1 0x20 ADD PUSH0 PUSH1 0xFF AND DUP2 MSTORE PUSH1 0x20 ADD PUSH0 PUSH1 0xFF AND DUP2 MSTORE PUSH1 0x20 ADD PUSH0 PUSH1 0xFF AND DUP2 MSTORE PUSH1 0x20 ADD PUSH0 PUSH1 0xFF AND DUP2 MSTORE PUSH1 0x20 ADD PUSH0 PUSH1 0xFF AND DUP2 MSTORE PUSH1 0x20 ADD PUSH0 PUSH1 0xFF AND DUP2 MSTORE PUSH1 0x20 ADD PUSH0 PUSH1 0xFF AND DUP2 MSTORE PUSH1 0x20 ADD PUSH0 PUSH1 0xFF AND DUP2 MSTORE PUSH1 0x20 ADD PUSH0 PUSH1 0xFF AND DUP2 MSTORE PUSH1 0x20 ADD PUSH0 PUSH1 0xFF AND DUP2 MSTORE POP SWAP1 POP PUSH0 JUMPDEST PUSH1 0x4 DUP2 LT ISZERO PUSH2 0xE28 JUMPI PUSH0 JUMPDEST PUSH1 0x4 DUP2 LT ISZERO PUSH2 0xE1A JUMPI DUP6 DUP2 PUSH1 0x4 DUP2 LT PUSH2 0xDB6 JUMPI PUSH2 0xDB5 PUSH2 0x4350 JUMP JUMPDEST JUMPDEST PUSH1 0x20 MUL ADD MLOAD DUP3 PUSH1 0x4 DUP2 LT PUSH2 0xDCD JUMPI PUSH2 0xDCC PUSH2 0x4350 JUMP JUMPDEST JUMPDEST PUSH1 0x20 MUL ADD MLOAD DUP4 DUP3 DUP5 PUSH1 0x4 PUSH2 0xDE1 SWAP2 SWAP1 PUSH2 0x424F JUMP JUMPDEST PUSH2 0xDEB SWAP2 SWAP1 PUSH2 0x437D JUMP JUMPDEST PUSH1 0x10 DUP2 LT PUSH2 0xDFC JUMPI PUSH2 0xDFB PUSH2 0x4350 JUMP JUMPDEST JUMPDEST PUSH1 0x20 MUL ADD SWAP1 PUSH1 0xFF AND SWAP1 DUP2 PUSH1 0xFF AND DUP2 MSTORE POP POP DUP1 DUP1 PUSH1 0x1 ADD SWAP2 POP POP PUSH2 0xD9A JUMP JUMPDEST POP DUP1 DUP1 PUSH1 0x1 ADD SWAP2 POP POP PUSH2 0xD8F JUMP JUMPDEST POP DUP1 SWAP5 POP POP POP POP POP SWAP3 SWAP2 POP POP JUMP JUMPDEST PUSH2 0xE3E PUSH2 0x3853 JUMP JUMPDEST PUSH0 PUSH1 0x40 MLOAD DUP1 PUSH1 0x80 ADD PUSH1 0x40 MSTORE DUP1 PUSH1 0x40 MLOAD DUP1 PUSH1 0x80 ADD PUSH1 0x40 MSTORE DUP1 DUP8 PUSH0 PUSH1 0x10 DUP2 LT PUSH2 0xE68 JUMPI PUSH2 0xE67 PUSH2 0x4350 JUMP JUMPDEST JUMPDEST PUSH1 0x20 MUL ADD MLOAD PUSH1 0xFF AND PUSH1 0xFF AND DUP2 MSTORE PUSH1 0x20 ADD DUP8 PUSH1 0x4 PUSH1 0x10 DUP2 LT PUSH2 0xE8C JUMPI PUSH2 0xE8B PUSH2 0x4350 JUMP JUMPDEST JUMPDEST PUSH1 0x20 MUL ADD MLOAD PUSH1 0xFF AND PUSH1 0xFF AND DUP2 MSTORE PUSH1 0x20 ADD DUP8 PUSH1 0x8 PUSH1 0x10 DUP2 LT PUSH2 0xEB0 JUMPI PUSH2 0xEAF PUSH2 0x4350 JUMP JUMPDEST JUMPDEST PUSH1 0x20 MUL ADD MLOAD PUSH1 0xFF AND PUSH1 0xFF AND DUP2 MSTORE PUSH1 0x20 ADD DUP8 PUSH1 0xC PUSH1 0x10 DUP2 LT PUSH2 0xED4 JUMPI PUSH2 0xED3 PUSH2 0x4350 JUMP JUMPDEST JUMPDEST PUSH1 0x20 MUL ADD MLOAD PUSH1 0xFF AND PUSH1 0xFF AND DUP2 MSTORE POP DUP2 MSTORE PUSH1 0x20 ADD PUSH1 0x40 MLOAD DUP1 PUSH1 0x80 ADD PUSH1 0x40 MSTORE DUP1 DUP8 PUSH1 0x1 PUSH1 0x10 DUP2 LT PUSH2 0xF06 JUMPI PUSH2 0xF05 PUSH2 0x4350 JUMP JUMPDEST JUMPDEST PUSH1 0x20 MUL ADD MLOAD PUSH1 0xFF AND PUSH1 0xFF AND DUP2 MSTORE PUSH1 0x20 ADD DUP8 PUSH1 0x5 PUSH1 0x10 DUP2 LT PUSH2 0xF2A JUMPI PUSH2 0xF29 PUSH2 0x4350 JUMP JUMPDEST JUMPDEST PUSH1 0x20 MUL ADD MLOAD PUSH1 0xFF AND PUSH1 0xFF AND DUP2 MSTORE PUSH1 0x20 ADD DUP8 PUSH1 0x9 PUSH1 0x10 DUP2 LT PUSH2 0xF4E JUMPI PUSH2 0xF4D PUSH2 0x4350 JUMP JUMPDEST JUMPDEST PUSH1 0x20 MUL ADD MLOAD PUSH1 0xFF AND PUSH1 0xFF AND DUP2 MSTORE PUSH1 0x20 ADD DUP8 PUSH1 0xD PUSH1 0x10 DUP2 LT PUSH2 0xF72 JUMPI PUSH2 0xF71 PUSH2 0x4350 JUMP JUMPDEST JUMPDEST PUSH1 0x20 MUL ADD MLOAD PUSH1 0xFF AND PUSH1 0xFF AND DUP2 MSTORE POP DUP2 MSTORE PUSH1 0x20 ADD PUSH1 0x40 MLOAD DUP1 PUSH1 0x80 ADD PUSH1 0x40 MSTORE DUP1 DUP8 PUSH1 0x2 PUSH1 0x10 DUP2 LT PUSH2 0xFA4 JUMPI PUSH2 0xFA3 PUSH2 0x4350 JUMP JUMPDEST JUMPDEST PUSH1 0x20 MUL ADD MLOAD PUSH1 0xFF AND PUSH1 0xFF AND DUP2 MSTORE PUSH1 0x20 ADD DUP8 PUSH1 0x6 PUSH1 0x10 DUP2 LT PUSH2 0xFC8 JUMPI PUSH2 0xFC7 PUSH2 0x4350 JUMP JUMPDEST JUMPDEST PUSH1 0x20 MUL ADD MLOAD PUSH1 0xFF AND PUSH1 0xFF AND DUP2 MSTORE PUSH1 0x20 ADD DUP8 PUSH1 0xA PUSH1 0x10 DUP2 LT PUSH2 0xFEC JUMPI PUSH2 0xFEB PUSH2 0x4350 JUMP JUMPDEST JUMPDEST PUSH1 0x20 MUL ADD MLOAD PUSH1 0xFF AND PUSH1 0xFF AND DUP2 MSTORE PUSH1 0x20 ADD DUP8 PUSH1 0xE PUSH1 0x10 DUP2 LT PUSH2 0x1010 JUMPI PUSH2 0x100F PUSH2 0x4350 JUMP JUMPDEST JUMPDEST PUSH1 0x20 MUL ADD MLOAD PUSH1 0xFF AND PUSH1 0xFF AND DUP2 MSTORE POP DUP2 MSTORE PUSH1 0x20 ADD PUSH1 0x40 MLOAD DUP1 PUSH1 0x80 ADD PUSH1 0x40 MSTORE DUP1 DUP8 PUSH1 0x3 PUSH1 0x10 DUP2 LT PUSH2 0x1042 JUMPI PUSH2 0x1041 PUSH2 0x4350 JUMP JUMPDEST JUMPDEST PUSH1 0x20 MUL ADD MLOAD PUSH1 0xFF AND PUSH1 0xFF AND DUP2 MSTORE PUSH1 0x20 ADD DUP8 PUSH1 0x7 PUSH1 0x10 DUP2 LT PUSH2 0x1066 JUMPI PUSH2 0x1065 PUSH2 0x4350 JUMP JUMPDEST JUMPDEST PUSH1 0x20 MUL ADD MLOAD PUSH1 0xFF AND PUSH1 0xFF AND DUP2 MSTORE PUSH1 0x20 ADD DUP8 PUSH1 0xB PUSH1 0x10 DUP2 LT PUSH2 0x108A JUMPI PUSH2 0x1089 PUSH2 0x4350 JUMP JUMPDEST JUMPDEST PUSH1 0x20 MUL ADD MLOAD PUSH1 0xFF AND PUSH1 0xFF AND DUP2 MSTORE PUSH1 0x20 ADD DUP8 PUSH1 0xF PUSH1 0x10 DUP2 LT PUSH2 0x10AE JUMPI PUSH2 0x10AD PUSH2 0x4350 JUMP JUMPDEST JUMPDEST PUSH1 0x20 MUL ADD MLOAD PUSH1 0xFF AND PUSH1 0xFF AND DUP2 MSTORE POP DUP2 MSTORE POP SWAP1 POP PUSH0 PUSH2 0x10CB DUP5 PUSH2 0x1750 JUMP JUMPDEST SWAP1 POP PUSH0 PUSH1 0x40 MLOAD DUP1 PUSH1 0x80 ADD PUSH1 0x40 MSTORE DUP1 DUP4 PUSH0 PUSH1 0x2C DUP2 LT PUSH2 0x10EC JUMPI PUSH2 0x10EB PUSH2 0x4350 JUMP JUMPDEST JUMPDEST PUSH1 0x20 MUL ADD MLOAD DUP2 MSTORE PUSH1 0x20 ADD DUP4 PUSH1 0x1 PUSH1 0x2C DUP2 LT PUSH2 0x110A JUMPI PUSH2 0x1109 PUSH2 0x4350 JUMP JUMPDEST JUMPDEST PUSH1 0x20 MUL ADD MLOAD DUP2 MSTORE PUSH1 0x20 ADD DUP4 PUSH1 0x2 PUSH1 0x2C DUP2 LT PUSH2 0x1128 JUMPI PUSH2 0x1127 PUSH2 0x4350 JUMP JUMPDEST JUMPDEST PUSH1 0x20 MUL ADD MLOAD DUP2 MSTORE PUSH1 0x20 ADD DUP4 PUSH1 0x3 PUSH1 0x2C DUP2 LT PUSH2 0x1146 JUMPI PUSH2 0x1145 PUSH2 0x4350 JUMP JUMPDEST JUMPDEST PUSH1 0x20 MUL ADD MLOAD DUP2 MSTORE POP SWAP1 POP PUSH2 0x115A DUP4 DUP3 PUSH2 0x1F44 JUMP JUMPDEST SWAP3 POP PUSH2 0x1165 DUP4 PUSH2 0x2A52 JUMP JUMPDEST SWAP3 POP PUSH2 0x1170 DUP4 PUSH2 0x2B2B JUMP JUMPDEST SWAP3 POP PUSH0 PUSH1 0x1 SWAP1 POP JUMPDEST PUSH1 0x9 DUP2 GT PUSH2 0x1293 JUMPI PUSH2 0x1189 DUP5 PUSH2 0x2E6B JUMP JUMPDEST SWAP4 POP PUSH1 0x40 MLOAD DUP1 PUSH1 0x80 ADD PUSH1 0x40 MSTORE DUP1 DUP5 DUP4 PUSH1 0x4 PUSH2 0x11A4 SWAP2 SWAP1 PUSH2 0x424F JUMP JUMPDEST PUSH1 0x2C DUP2 LT PUSH2 0x11B5 JUMPI PUSH2 0x11B4 PUSH2 0x4350 JUMP JUMPDEST JUMPDEST PUSH1 0x20 MUL ADD MLOAD DUP2 MSTORE PUSH1 0x20 ADD DUP5 PUSH1 0x1 DUP5 PUSH1 0x4 PUSH2 0x11CF SWAP2 SWAP1 PUSH2 0x424F JUMP JUMPDEST PUSH2 0x11D9 SWAP2 SWAP1 PUSH2 0x437D JUMP JUMPDEST PUSH1 0x2C DUP2 LT PUSH2 0x11EA JUMPI PUSH2 0x11E9 PUSH2 0x4350 JUMP JUMPDEST JUMPDEST PUSH1 0x20 MUL ADD MLOAD DUP2 MSTORE PUSH1 0x20 ADD DUP5 PUSH1 0x2 DUP5 PUSH1 0x4 PUSH2 0x1204 SWAP2 SWAP1 PUSH2 0x424F JUMP JUMPDEST PUSH2 0x120E SWAP2 SWAP1 PUSH2 0x437D JUMP JUMPDEST PUSH1 0x2C DUP2 LT PUSH2 0x121F JUMPI PUSH2 0x121E PUSH2 0x4350 JUMP JUMPDEST JUMPDEST PUSH1 0x20 MUL ADD MLOAD DUP2 MSTORE PUSH1 0x20 ADD DUP5 PUSH1 0x3 DUP5 PUSH1 0x4 PUSH2 0x1239 SWAP2 SWAP1 PUSH2 0x424F JUMP JUMPDEST PUSH2 0x1243 SWAP2 SWAP1 PUSH2 0x437D JUMP JUMPDEST PUSH1 0x2C DUP2 LT PUSH2 0x1254 JUMPI PUSH2 0x1253 PUSH2 0x4350 JUMP JUMPDEST JUMPDEST PUSH1 0x20 MUL ADD MLOAD DUP2 MSTORE POP SWAP2 POP PUSH2 0x1268 DUP5 DUP4 PUSH2 0x1F44 JUMP JUMPDEST SWAP4 POP PUSH2 0x1273 DUP5 PUSH2 0x2A52 JUMP JUMPDEST SWAP4 POP PUSH2 0x127E DUP5 PUSH2 0x2B2B JUMP JUMPDEST SWAP4 POP DUP1 DUP1 PUSH2 0x128B SWAP1 PUSH2 0x4551 JUMP JUMPDEST SWAP2 POP POP PUSH2 0x1178 JUMP JUMPDEST POP PUSH1 0x40 MLOAD DUP1 PUSH1 0x80 ADD PUSH1 0x40 MSTORE DUP1 DUP4 PUSH1 0x28 PUSH1 0x2C DUP2 LT PUSH2 0x12B3 JUMPI PUSH2 0x12B2 PUSH2 0x4350 JUMP JUMPDEST JUMPDEST PUSH1 0x20 MUL ADD MLOAD DUP2 MSTORE PUSH1 0x20 ADD DUP4 PUSH1 0x29 PUSH1 0x2C DUP2 LT PUSH2 0x12D1 JUMPI PUSH2 0x12D0 PUSH2 0x4350 JUMP JUMPDEST JUMPDEST PUSH1 0x20 MUL ADD MLOAD DUP2 MSTORE PUSH1 0x20 ADD DUP4 PUSH1 0x2A PUSH1 0x2C DUP2 LT PUSH2 0x12EF JUMPI PUSH2 0x12EE PUSH2 0x4350 JUMP JUMPDEST JUMPDEST PUSH1 0x20 MUL ADD MLOAD DUP2 MSTORE PUSH1 0x20 ADD DUP4 PUSH1 0x2B PUSH1 0x2C DUP2 LT PUSH2 0x130D JUMPI PUSH2 0x130C PUSH2 0x4350 JUMP JUMPDEST JUMPDEST PUSH1 0x20 MUL ADD MLOAD DUP2 MSTORE POP SWAP1 POP PUSH2 0x1321 DUP4 DUP3 PUSH2 0x1F44 JUMP JUMPDEST SWAP3 POP PUSH0 PUSH1 0x40 MLOAD DUP1 PUSH2 0x200 ADD PUSH1 0x40 MSTORE DUP1 PUSH0 PUSH1 0xFF AND DUP2 MSTORE PUSH1 0x20 ADD PUSH0 PUSH1 0xFF AND DUP2 MSTORE PUSH1 0x20 ADD PUSH0 PUSH1 0xFF AND DUP2 MSTORE PUSH1 0x20 ADD PUSH0 PUSH1 0xFF AND DUP2 MSTORE PUSH1 0x20 ADD PUSH0 PUSH1 0xFF AND DUP2 MSTORE PUSH1 0x20 ADD PUSH0 PUSH1 0xFF AND DUP2 MSTORE PUSH1 0x20 ADD PUSH0 PUSH1 0xFF AND DUP2 MSTORE PUSH1 0x20 ADD PUSH0 PUSH1 0xFF AND DUP2 MSTORE PUSH1 0x20 ADD PUSH0 PUSH1 0xFF AND DUP2 MSTORE PUSH1 0x20 ADD PUSH0 PUSH1 0xFF AND DUP2 MSTORE PUSH1 0x20 ADD PUSH0 PUSH1 0xFF AND DUP2 MSTORE PUSH1 0x20 ADD PUSH0 PUSH1 0xFF AND DUP2 MSTORE PUSH1 0x20 ADD PUSH0 PUSH1 0xFF AND DUP2 MSTORE PUSH1 0x20 ADD PUSH0 PUSH1 0xFF AND DUP2 MSTORE PUSH1 0x20 ADD PUSH0 PUSH1 0xFF AND DUP2 MSTORE PUSH1 0x20 ADD PUSH0 PUSH1 0xFF AND DUP2 MSTORE POP SWAP1 POP PUSH0 JUMPDEST PUSH1 0x4 DUP2 LT ISZERO PUSH2 0x145B JUMPI PUSH0 JUMPDEST PUSH1 0x4 DUP2 LT ISZERO PUSH2 0x144D JUMPI DUP6 DUP2 PUSH1 0x4 DUP2 LT PUSH2 0x13E9 JUMPI PUSH2 0x13E8 PUSH2 0x4350 JUMP JUMPDEST JUMPDEST PUSH1 0x20 MUL ADD MLOAD DUP3 PUSH1 0x4 DUP2 LT PUSH2 0x1400 JUMPI PUSH2 0x13FF PUSH2 0x4350 JUMP JUMPDEST JUMPDEST PUSH1 0x20 MUL ADD MLOAD DUP4 DUP3 DUP5 PUSH1 0x4 PUSH2 0x1414 SWAP2 SWAP1 PUSH2 0x424F JUMP JUMPDEST PUSH2 0x141E SWAP2 SWAP1 PUSH2 0x437D JUMP JUMPDEST PUSH1 0x10 DUP2 LT PUSH2 0x142F JUMPI PUSH2 0x142E PUSH2 0x4350 JUMP JUMPDEST JUMPDEST PUSH1 0x20 MUL ADD SWAP1 PUSH1 0xFF AND SWAP1 DUP2 PUSH1 0xFF AND DUP2 MSTORE POP POP DUP1 DUP1 PUSH1 0x1 ADD SWAP2 POP POP PUSH2 0x13CD JUMP JUMPDEST POP DUP1 DUP1 PUSH1 0x1 ADD SWAP2 POP POP PUSH2 0x13C2 JUMP JUMPDEST POP DUP1 SWAP5 POP POP POP POP POP SWAP3 SWAP2 POP POP JUMP JUMPDEST PUSH0 DUP1 DUP3 PUSH0 PUSH1 0x10 DUP2 LT PUSH2 0x147E JUMPI PUSH2 0x147D PUSH2 0x4350 JUMP JUMPDEST JUMPDEST PUSH1 0x20 MUL ADD MLOAD PUSH1 0xFF AND SWAP1 POP PUSH0 PUSH1 0x1 SWAP1 POP JUMPDEST PUSH1 0x10 DUP2 LT ISZERO PUSH2 0x14E5 JUMPI PUSH1 0x8 DUP3 PUSH16 0xFFFFFFFFFFFFFFFFFFFFFFFFFFFFFFFF AND SWAP1 SHL SWAP2 POP DUP4 DUP2 PUSH1 0x10 DUP2 LT PUSH2 0x14C3 JUMPI PUSH2 0x14C2 PUSH2 0x4350 JUMP JUMPDEST JUMPDEST PUSH1 0x20 MUL ADD MLOAD PUSH1 0xFF AND DUP3 PUSH2 0x14D6 SWAP2 SWAP1 PUSH2 0x43B0 JUMP JUMPDEST SWAP2 POP DUP1 DUP1 PUSH1 0x1 ADD SWAP2 POP POP PUSH2 0x148E JUMP JUMPDEST POP DUP1 SWAP2 POP POP SWAP2 SWAP1 POP JUMP JUMPDEST PUSH2 0x14F7 PUSH2 0x3853 JUMP JUMPDEST PUSH0 JUMPDEST PUSH1 0x10 DUP2 LT ISZERO PUSH2 0x1561 JUMPI DUP1 PUSH1 0x8 PUSH2 0x150F SWAP2 SWAP1 PUSH2 0x424F JUMP JUMPDEST DUP4 PUSH16 0xFFFFFFFFFFFFFFFFFFFFFFFFFFFFFFFF AND SWAP1 SHR DUP3 DUP3 PUSH1 0xF PUSH2 0x1532 SWAP2 SWAP1 PUSH2 0x4164 JUMP JUMPDEST PUSH1 0x10 DUP2 LT PUSH2 0x1543 JUMPI PUSH2 0x1542 PUSH2 0x4350 JUMP JUMPDEST JUMPDEST PUSH1 0x20 MUL ADD SWAP1 PUSH1 0xFF AND SWAP1 DUP2 PUSH1 0xFF AND DUP2 MSTORE POP POP DUP1 DUP1 PUSH1 0x1 ADD SWAP2 POP POP PUSH2 0x14F9 JUMP JUMPDEST POP SWAP2 SWAP1 POP JUMP JUMPDEST PUSH1 0x60 DUP2 PUSH1 0x1F DUP4 PUSH2 0x1577 SWAP2 SWAP1 PUSH2 0x437D JUMP JUMPDEST LT ISZERO PUSH2 0x15B8 JUMPI PUSH1 0x40 MLOAD PUSH32 0x8C379A000000000000000000000000000000000000000000000000000000000 DUP2 MSTORE PUSH1 0x4 ADD PUSH2 0x15AF SWAP1 PUSH2 0x45E2 JUMP JUMPDEST PUSH1 0x40 MLOAD DUP1 SWAP2 SUB SWAP1 REVERT JUMPDEST DUP2 DUP4 PUSH2 0x15C4 SWAP2 SWAP1 PUSH2 0x437D JUMP JUMPDEST DUP5 MLOAD LT ISZERO PUSH2 0x1607 JUMPI PUSH1 0x40 MLOAD PUSH32 0x8C379A000000000000000000000000000000000000000000000000000000000 DUP2 MSTORE PUSH1 0x4 ADD PUSH2 0x15FE SWAP1 PUSH2 0x464A JUMP JUMPDEST PUSH1 0x40 MLOAD DUP1 SWAP2 SUB SWAP1 REVERT JUMPDEST PUSH1 0x60 DUP3 ISZERO PUSH0 DUP2 EQ PUSH2 0x1626 JUMPI PUSH1 0x40 MLOAD SWAP2 POP PUSH0 DUP3 MSTORE PUSH1 0x20 DUP3 ADD PUSH1 0x40 MSTORE PUSH2 0x1677 JUMP JUMPDEST PUSH1 0x40 MLOAD SWAP2 POP PUSH1 0x1F DUP5 AND DUP1 ISZERO PUSH1 0x20 MUL DUP2 DUP5 ADD ADD DUP6 DUP2 ADD DUP8 DUP4 ISZERO PUSH1 0x20 MUL DUP5 DUP12 ADD ADD ADD JUMPDEST DUP2 DUP4 LT ISZERO PUSH2 0x1664 JUMPI DUP1 MLOAD DUP4 MSTORE PUSH1 0x20 DUP4 ADD SWAP3 POP PUSH1 0x20 DUP2 ADD SWAP1 POP PUSH2 0x1647 JUMP JUMPDEST POP DUP7 DUP6 MSTORE PUSH1 0x1F NOT PUSH1 0x1F DUP4 ADD AND PUSH1 0x40 MSTORE POP POP POP JUMPDEST POP DUP1 SWAP2 POP POP SWAP4 SWAP3 POP POP POP JUMP JUMPDEST PUSH0 DUP2 DUP4 XOR SWAP1 POP SWAP3 SWAP2 POP POP JUMP JUMPDEST PUSH0 DUP1 PUSH0 SWAP1 POP PUSH0 PUSH1 0x87 SWAP1 POP PUSH0 JUMPDEST PUSH1 0x80 DUP2 PUSH1 0xFF AND LT ISZERO PUSH2 0x1744 JUMPI PUSH0 PUSH1 0x1 DUP7 AND PUSH16 0xFFFFFFFFFFFFFFFFFFFFFFFFFFFFFFFF AND EQ PUSH2 0x16C9 JUMPI DUP6 DUP4 XOR SWAP3 POP JUMPDEST PUSH0 DUP1 PUSH1 0x7F DUP9 PUSH16 0xFFFFFFFFFFFFFFFFFFFFFFFFFFFFFFFF AND SWAP1 SHR PUSH16 0xFFFFFFFFFFFFFFFFFFFFFFFFFFFFFFFF AND EQ ISZERO SWAP1 POP PUSH1 0x1 DUP8 PUSH16 0xFFFFFFFFFFFFFFFFFFFFFFFFFFFFFFFF AND SWAP1 SHL SWAP7 POP DUP1 ISZERO PUSH2 0x171D JUMPI DUP3 DUP8 XOR SWAP7 POP JUMPDEST PUSH1 0x1 DUP7 PUSH16 0xFFFFFFFFFFFFFFFFFFFFFFFFFFFFFFFF AND SWAP1 SHR SWAP6 POP POP DUP1 DUP1 PUSH1 0x1 ADD SWAP2 POP POP PUSH2 0x169B JUMP JUMPDEST POP DUP2 SWAP3 POP POP POP SWAP3 SWAP2 POP POP JUMP JUMPDEST PUSH2 0x1758 PUSH2 0x3876 JUMP JUMPDEST PUSH2 0x1760 PUSH2 0x3876 JUMP JUMPDEST DUP3 PUSH0 PUSH1 0x10 DUP2 LT PUSH2 0x1773 JUMPI PUSH2 0x1772 PUSH2 0x4350 JUMP JUMPDEST JUMPDEST PUSH1 0x20 MUL ADD MLOAD DUP2 PUSH0 PUSH1 0x2C DUP2 LT PUSH2 0x178B JUMPI PUSH2 0x178A PUSH2 0x4350 JUMP JUMPDEST JUMPDEST PUSH1 0x20 MUL ADD MLOAD PUSH0 PUSH1 0x4 DUP2 LT PUSH2 0x17A2 JUMPI PUSH2 0x17A1 PUSH2 0x4350 JUMP JUMPDEST JUMPDEST PUSH1 0x20 MUL ADD SWAP1 PUSH1 0xFF AND SWAP1 DUP2 PUSH1 0xFF AND DUP2 MSTORE POP POP DUP3 PUSH1 0x1 PUSH1 0x10 DUP2 LT PUSH2 0x17C7 JUMPI PUSH2 0x17C6 PUSH2 0x4350 JUMP JUMPDEST JUMPDEST PUSH1 0x20 MUL ADD MLOAD DUP2 PUSH0 PUSH1 0x2C DUP2 LT PUSH2 0x17DF JUMPI PUSH2 0x17DE PUSH2 0x4350 JUMP JUMPDEST JUMPDEST PUSH1 0x20 MUL ADD MLOAD PUSH1 0x1 PUSH1 0x4 DUP2 LT PUSH2 0x17F7 JUMPI PUSH2 0x17F6 PUSH2 0x4350 JUMP JUMPDEST JUMPDEST PUSH1 0x20 MUL ADD SWAP1 PUSH1 0xFF AND SWAP1 DUP2 PUSH1 0xFF AND DUP2 MSTORE POP POP DUP3 PUSH1 0x2 PUSH1 0x10 DUP2 LT PUSH2 0x181C JUMPI PUSH2 0x181B PUSH2 0x4350 JUMP JUMPDEST JUMPDEST PUSH1 0x20 MUL ADD MLOAD DUP2 PUSH0 PUSH1 0x2C DUP2 LT PUSH2 0x1834 JUMPI PUSH2 0x1833 PUSH2 0x4350 JUMP JUMPDEST JUMPDEST PUSH1 0x20 MUL ADD MLOAD PUSH1 0x2 PUSH1 0x4 DUP2 LT PUSH2 0x184C JUMPI PUSH2 0x184B PUSH2 0x4350 JUMP JUMPDEST JUMPDEST PUSH1 0x20 MUL ADD SWAP1 PUSH1 0xFF AND SWAP1 DUP2 PUSH1 0xFF AND DUP2 MSTORE POP POP DUP3 PUSH1 0x3 PUSH1 0x10 DUP2 LT PUSH2 0x1871 JUMPI PUSH2 0x1870 PUSH2 0x4350 JUMP JUMPDEST JUMPDEST PUSH1 0x20 MUL ADD MLOAD DUP2 PUSH0 PUSH1 0x2C DUP2 LT PUSH2 0x1889 JUMPI PUSH2 0x1888 PUSH2 0x4350 JUMP JUMPDEST JUMPDEST PUSH1 0x20 MUL ADD MLOAD PUSH1 0x3 PUSH1 0x4 DUP2 LT PUSH2 0x18A1 JUMPI PUSH2 0x18A0 PUSH2 0x4350 JUMP JUMPDEST JUMPDEST PUSH1 0x20 MUL ADD SWAP1 PUSH1 0xFF AND SWAP1 DUP2 PUSH1 0xFF AND DUP2 MSTORE POP POP DUP3 PUSH1 0x4 PUSH1 0x10 DUP2 LT PUSH2 0x18C6 JUMPI PUSH2 0x18C5 PUSH2 0x4350 JUMP JUMPDEST JUMPDEST PUSH1 0x20 MUL ADD MLOAD DUP2 PUSH1 0x1 PUSH1 0x2C DUP2 LT PUSH2 0x18DF JUMPI PUSH2 0x18DE PUSH2 0x4350 JUMP JUMPDEST JUMPDEST PUSH1 0x20 MUL ADD MLOAD PUSH0 PUSH1 0x4 DUP2 LT PUSH2 0x18F6 JUMPI PUSH2 0x18F5 PUSH2 0x4350 JUMP JUMPDEST JUMPDEST PUSH1 0x20 MUL ADD SWAP1 PUSH1 0xFF AND SWAP1 DUP2 PUSH1 0xFF AND DUP2 MSTORE POP POP DUP3 PUSH1 0x5 PUSH1 0x10 DUP2 LT PUSH2 0x191B JUMPI PUSH2 0x191A PUSH2 0x4350 JUMP JUMPDEST JUMPDEST PUSH1 0x20 MUL ADD MLOAD DUP2 PUSH1 0x1 PUSH1 0x2C DUP2 LT PUSH2 0x1934 JUMPI PUSH2 0x1933 PUSH2 0x4350 JUMP JUMPDEST JUMPDEST PUSH1 0x20 MUL ADD MLOAD PUSH1 0x1 PUSH1 0x4 DUP2 LT PUSH2 0x194C JUMPI PUSH2 0x194B PUSH2 0x4350 JUMP JUMPDEST JUMPDEST PUSH1 0x20 MUL ADD SWAP1 PUSH1 0xFF AND SWAP1 DUP2 PUSH1 0xFF AND DUP2 MSTORE POP POP DUP3 PUSH1 0x6 PUSH1 0x10 DUP2 LT PUSH2 0x1971 JUMPI PUSH2 0x1970 PUSH2 0x4350 JUMP JUMPDEST JUMPDEST PUSH1 0x20 MUL ADD MLOAD DUP2 PUSH1 0x1 PUSH1 0x2C DUP2 LT PUSH2 0x198A JUMPI PUSH2 0x1989 PUSH2 0x4350 JUMP JUMPDEST JUMPDEST PUSH1 0x20 MUL ADD MLOAD PUSH1 0x2 PUSH1 0x4 DUP2 LT PUSH2 0x19A2 JUMPI PUSH2 0x19A1 PUSH2 0x4350 JUMP JUMPDEST JUMPDEST PUSH1 0x20 MUL ADD SWAP1 PUSH1 0xFF AND SWAP1 DUP2 PUSH1 0xFF AND DUP2 MSTORE POP POP DUP3 PUSH1 0x7 PUSH1 0x10 DUP2 LT PUSH2 0x19C7 JUMPI PUSH2 0x19C6 PUSH2 0x4350 JUMP JUMPDEST JUMPDEST PUSH1 0x20 MUL ADD MLOAD DUP2 PUSH1 0x1 PUSH1 0x2C DUP2 LT PUSH2 0x19E0 JUMPI PUSH2 0x19DF PUSH2 0x4350 JUMP JUMPDEST JUMPDEST PUSH1 0x20 MUL ADD MLOAD PUSH1 0x3 PUSH1 0x4 DUP2 LT PUSH2 0x19F8 JUMPI PUSH2 0x19F7 PUSH2 0x4350 JUMP JUMPDEST JUMPDEST PUSH1 0x20 MUL ADD SWAP1 PUSH1 0xFF AND SWAP1 DUP2 PUSH1 0xFF AND DUP2 MSTORE POP POP DUP3 PUSH1 0x8 PUSH1 0x10 DUP2 LT PUSH2 0x1A1D JUMPI PUSH2 0x1A1C PUSH2 0x4350 JUMP JUMPDEST JUMPDEST PUSH1 0x20 MUL ADD MLOAD DUP2 PUSH1 0x2 PUSH1 0x2C DUP2 LT PUSH2 0x1A36 JUMPI PUSH2 0x1A35 PUSH2 0x4350 JUMP JUMPDEST JUMPDEST PUSH1 0x20 MUL ADD MLOAD PUSH0 PUSH1 0x4 DUP2 LT PUSH2 0x1A4D JUMPI PUSH2 0x1A4C PUSH2 0x4350 JUMP JUMPDEST JUMPDEST PUSH1 0x20 MUL ADD SWAP1 PUSH1 0xFF AND SWAP1 DUP2 PUSH1 0xFF AND DUP2 MSTORE POP POP DUP3 PUSH1 0x9 PUSH1 0x10 DUP2 LT PUSH2 0x1A72 JUMPI PUSH2 0x1A71 PUSH2 0x4350 JUMP JUMPDEST JUMPDEST PUSH1 0x20 MUL ADD MLOAD DUP2 PUSH1 0x2 PUSH1 0x2C DUP2 LT PUSH2 0x1A8B JUMPI PUSH2 0x1A8A PUSH2 0x4350 JUMP JUMPDEST JUMPDEST PUSH1 0x20 MUL ADD MLOAD PUSH1 0x1 PUSH1 0x4 DUP2 LT PUSH2 0x1AA3 JUMPI PUSH2 0x1AA2 PUSH2 0x4350 JUMP JUMPDEST JUMPDEST PUSH1 0x20 MUL ADD SWAP1 PUSH1 0xFF AND SWAP1 DUP2 PUSH1 0xFF AND DUP2 MSTORE POP POP DUP3 PUSH1 0xA PUSH1 0x10 DUP2 LT PUSH2 0x1AC8 JUMPI PUSH2 0x1AC7 PUSH2 0x4350 JUMP JUMPDEST JUMPDEST PUSH1 0x20 MUL ADD MLOAD DUP2 PUSH1 0x2 PUSH1 0x2C DUP2 LT PUSH2 0x1AE1 JUMPI PUSH2 0x1AE0 PUSH2 0x4350 JUMP JUMPDEST JUMPDEST PUSH1 0x20 MUL ADD MLOAD PUSH1 0x2 PUSH1 0x4 DUP2 LT PUSH2 0x1AF9 JUMPI PUSH2 0x1AF8 PUSH2 0x4350 JUMP JUMPDEST JUMPDEST PUSH1 0x20 MUL ADD SWAP1 PUSH1 0xFF AND SWAP1 DUP2 PUSH1 0xFF AND DUP2 MSTORE POP POP DUP3 PUSH1 0xB PUSH1 0x10 DUP2 LT PUSH2 0x1B1E JUMPI PUSH2 0x1B1D PUSH2 0x4350 JUMP JUMPDEST JUMPDEST PUSH1 0x20 MUL ADD MLOAD DUP2 PUSH1 0x2 PUSH1 0x2C DUP2 LT PUSH2 0x1B37 JUMPI PUSH2 0x1B36 PUSH2 0x4350 JUMP JUMPDEST JUMPDEST PUSH1 0x20 MUL ADD MLOAD PUSH1 0x3 PUSH1 0x4 DUP2 LT PUSH2 0x1B4F JUMPI PUSH2 0x1B4E PUSH2 0x4350 JUMP JUMPDEST JUMPDEST PUSH1 0x20 MUL ADD SWAP1 PUSH1 0xFF AND SWAP1 DUP2 PUSH1 0xFF AND DUP2 MSTORE POP POP DUP3 PUSH1 0xC PUSH1 0x10 DUP2 LT PUSH2 0x1B74 JUMPI PUSH2 0x1B73 PUSH2 0x4350 JUMP JUMPDEST JUMPDEST PUSH1 0x20 MUL ADD MLOAD DUP2 PUSH1 0x3 PUSH1 0x2C DUP2 LT PUSH2 0x1B8D JUMPI PUSH2 0x1B8C PUSH2 0x4350 JUMP JUMPDEST JUMPDEST PUSH1 0x20 MUL ADD MLOAD PUSH0 PUSH1 0x4 DUP2 LT PUSH2 0x1BA4 JUMPI PUSH2 0x1BA3 PUSH2 0x4350 JUMP JUMPDEST JUMPDEST PUSH1 0x20 MUL ADD SWAP1 PUSH1 0xFF AND SWAP1 DUP2 PUSH1 0xFF AND DUP2 MSTORE POP POP DUP3 PUSH1 0xD PUSH1 0x10 DUP2 LT PUSH2 0x1BC9 JUMPI PUSH2 0x1BC8 PUSH2 0x4350 JUMP JUMPDEST JUMPDEST PUSH1 0x20 MUL ADD MLOAD DUP2 PUSH1 0x3 PUSH1 0x2C DUP2 LT PUSH2 0x1BE2 JUMPI PUSH2 0x1BE1 PUSH2 0x4350 JUMP JUMPDEST JUMPDEST PUSH1 0x20 MUL ADD MLOAD PUSH1 0x1 PUSH1 0x4 DUP2 LT PUSH2 0x1BFA JUMPI PUSH2 0x1BF9 PUSH2 0x4350 JUMP JUMPDEST JUMPDEST PUSH1 0x20 MUL ADD SWAP1 PUSH1 0xFF AND SWAP1 DUP2 PUSH1 0xFF AND DUP2 MSTORE POP POP DUP3 PUSH1 0xE PUSH1 0x10 DUP2 LT PUSH2 0x1C1F JUMPI PUSH2 0x1C1E PUSH2 0x4350 JUMP JUMPDEST JUMPDEST PUSH1 0x20 MUL ADD MLOAD DUP2 PUSH1 0x3 PUSH1 0x2C DUP2 LT PUSH2 0x1C38 JUMPI PUSH2 0x1C37 PUSH2 0x4350 JUMP JUMPDEST JUMPDEST PUSH1 0x20 MUL ADD MLOAD PUSH1 0x2 PUSH1 0x4 DUP2 LT PUSH2 0x1C50 JUMPI PUSH2 0x1C4F PUSH2 0x4350 JUMP JUMPDEST JUMPDEST PUSH1 0x20 MUL ADD SWAP1 PUSH1 0xFF AND SWAP1 DUP2 PUSH1 0xFF AND DUP2 MSTORE POP POP DUP3 PUSH1 0xF PUSH1 0x10 DUP2 LT PUSH2 0x1C75 JUMPI PUSH2 0x1C74 PUSH2 0x4350 JUMP JUMPDEST JUMPDEST PUSH1 0x20 MUL ADD MLOAD DUP2 PUSH1 0x3 PUSH1 0x2C DUP2 LT PUSH2 0x1C8E JUMPI PUSH2 0x1C8D PUSH2 0x4350 JUMP JUMPDEST JUMPDEST PUSH1 0x20 MUL ADD MLOAD PUSH1 0x3 PUSH1 0x4 DUP2 LT PUSH2 0x1CA6 JUMPI PUSH2 0x1CA5 PUSH2 0x4350 JUMP JUMPDEST JUMPDEST PUSH1 0x20 MUL ADD SWAP1 PUSH1 0xFF AND SWAP1 DUP2 PUSH1 0xFF AND DUP2 MSTORE POP POP PUSH0 PUSH1 0x4 SWAP1 POP JUMPDEST PUSH1 0x2C DUP2 LT ISZERO PUSH2 0x1F3A JUMPI PUSH0 DUP3 PUSH1 0x1 DUP4 PUSH2 0x1CD5 SWAP2 SWAP1 PUSH2 0x4164 JUMP JUMPDEST PUSH1 0x2C DUP2 LT PUSH2 0x1CE6 JUMPI PUSH2 0x1CE5 PUSH2 0x4350 JUMP JUMPDEST JUMPDEST PUSH1 0x20 MUL ADD MLOAD SWAP1 POP PUSH0 PUSH1 0x4 DUP4 PUSH2 0x1CFB SWAP2 SWAP1 PUSH2 0x4107 JUMP JUMPDEST SUB PUSH2 0x1D86 JUMPI PUSH2 0x1D11 PUSH2 0x1D0C DUP3 PUSH2 0x3483 JUMP JUMPDEST PUSH2 0x35BA JUMP JUMPDEST SWAP1 POP PUSH0 PUSH1 0x4 DUP4 PUSH2 0x1D21 SWAP2 SWAP1 PUSH2 0x421F JUMP JUMPDEST PUSH1 0xB DUP2 LT PUSH2 0x1D32 JUMPI PUSH2 0x1D31 PUSH2 0x4350 JUMP JUMPDEST JUMPDEST PUSH1 0x20 SWAP2 DUP3 DUP3 DIV ADD SWAP2 SWAP1 MOD SWAP1 SLOAD SWAP1 PUSH2 0x100 EXP SWAP1 DIV PUSH1 0xFF AND DUP2 PUSH0 PUSH1 0x4 DUP2 LT PUSH2 0x1D5B JUMPI PUSH2 0x1D5A PUSH2 0x4350 JUMP JUMPDEST JUMPDEST PUSH1 0x20 MUL ADD MLOAD XOR DUP2 PUSH0 PUSH1 0x4 DUP2 LT PUSH2 0x1D74 JUMPI PUSH2 0x1D73 PUSH2 0x4350 JUMP JUMPDEST JUMPDEST PUSH1 0x20 MUL ADD SWAP1 PUSH1 0xFF AND SWAP1 DUP2 PUSH1 0xFF AND DUP2 MSTORE POP POP JUMPDEST PUSH1 0x40 MLOAD DUP1 PUSH1 0x80 ADD PUSH1 0x40 MSTORE DUP1 DUP5 PUSH1 0x4 DUP6 PUSH2 0x1D9F SWAP2 SWAP1 PUSH2 0x4164 JUMP JUMPDEST PUSH1 0x2C DUP2 LT PUSH2 0x1DB0 JUMPI PUSH2 0x1DAF PUSH2 0x4350 JUMP JUMPDEST JUMPDEST PUSH1 0x20 MUL ADD MLOAD PUSH0 PUSH1 0x4 DUP2 LT PUSH2 0x1DC7 JUMPI PUSH2 0x1DC6 PUSH2 0x4350 JUMP JUMPDEST JUMPDEST PUSH1 0x20 MUL ADD MLOAD DUP4 PUSH0 PUSH1 0x4 DUP2 LT PUSH2 0x1DDF JUMPI PUSH2 0x1DDE PUSH2 0x4350 JUMP JUMPDEST JUMPDEST PUSH1 0x20 MUL ADD MLOAD XOR PUSH1 0xFF AND PUSH1 0xFF AND DUP2 MSTORE PUSH1 0x20 ADD DUP5 PUSH1 0x4 DUP6 PUSH2 0x1DFE SWAP2 SWAP1 PUSH2 0x4164 JUMP JUMPDEST PUSH1 0x2C DUP2 LT PUSH2 0x1E0F JUMPI PUSH2 0x1E0E PUSH2 0x4350 JUMP JUMPDEST JUMPDEST PUSH1 0x20 MUL ADD MLOAD PUSH1 0x1 PUSH1 0x4 DUP2 LT PUSH2 0x1E27 JUMPI PUSH2 0x1E26 PUSH2 0x4350 JUMP JUMPDEST JUMPDEST PUSH1 0x20 MUL ADD MLOAD DUP4 PUSH1 0x1 PUSH1 0x4 DUP2 LT PUSH2 0x1E40 JUMPI PUSH2 0x1E3F PUSH2 0x4350 JUMP JUMPDEST JUMPDEST PUSH1 0x20 MUL ADD MLOAD XOR PUSH1 0xFF AND PUSH1 0xFF AND DUP2 MSTORE PUSH1 0x20 ADD DUP5 PUSH1 0x4 DUP6 PUSH2 0x1E5F SWAP2 SWAP1 PUSH2 0x4164 JUMP JUMPDEST PUSH1 0x2C DUP2 LT PUSH2 0x1E70 JUMPI PUSH2 0x1E6F PUSH2 0x4350 JUMP JUMPDEST JUMPDEST PUSH1 0x20 MUL ADD MLOAD PUSH1 0x2 PUSH1 0x4 DUP2 LT PUSH2 0x1E88 JUMPI PUSH2 0x1E87 PUSH2 0x4350 JUMP JUMPDEST JUMPDEST PUSH1 0x20 MUL ADD MLOAD DUP4 PUSH1 0x2 PUSH1 0x4 DUP2 LT PUSH2 0x1EA1 JUMPI PUSH2 0x1EA0 PUSH2 0x4350 JUMP JUMPDEST JUMPDEST PUSH1 0x20 MUL ADD MLOAD XOR PUSH1 0xFF AND PUSH1 0xFF AND DUP2 MSTORE PUSH1 0x20 ADD DUP5 PUSH1 0x4 DUP6 PUSH2 0x1EC0 SWAP2 SWAP1 PUSH2 0x4164 JUMP JUMPDEST PUSH1 0x2C DUP2 LT PUSH2 0x1ED1 JUMPI PUSH2 0x1ED0 PUSH2 0x4350 JUMP JUMPDEST JUMPDEST PUSH1 0x20 MUL ADD MLOAD PUSH1 0x3 PUSH1 0x4 DUP2 LT PUSH2 0x1EE9 JUMPI PUSH2 0x1EE8 PUSH2 0x4350 JUMP JUMPDEST JUMPDEST PUSH1 0x20 MUL ADD MLOAD DUP4 PUSH1 0x3 PUSH1 0x4 DUP2 LT PUSH2 0x1F02 JUMPI PUSH2 0x1F01 PUSH2 0x4350 JUMP JUMPDEST JUMPDEST PUSH1 0x20 MUL ADD MLOAD XOR PUSH1 0xFF AND PUSH1 0xFF AND DUP2 MSTORE POP DUP4 DUP4 PUSH1 0x2C DUP2 LT PUSH2 0x1F24 JUMPI PUSH2 0x1F23 PUSH2 0x4350 JUMP JUMPDEST JUMPDEST PUSH1 0x20 MUL ADD DUP2 SWAP1 MSTORE POP POP DUP1 DUP1 PUSH1 0x1 ADD SWAP2 POP POP PUSH2 0x1CBD JUMP JUMPDEST POP DUP1 SWAP2 POP POP SWAP2 SWAP1 POP JUMP JUMPDEST PUSH2 0x1F4C PUSH2 0x38A4 JUMP JUMPDEST PUSH0 JUMPDEST PUSH1 0x4 DUP2 LT ISZERO PUSH2 0x2017 JUMPI PUSH0 JUMPDEST PUSH1 0x4 DUP2 LT ISZERO PUSH2 0x2009 JUMPI DUP4 DUP2 PUSH1 0x4 DUP2 LT PUSH2 0x1F75 JUMPI PUSH2 0x1F74 PUSH2 0x4350 JUMP JUMPDEST JUMPDEST PUSH1 0x20 MUL ADD MLOAD DUP3 PUSH1 0x4 DUP2 LT PUSH2 0x1F8C JUMPI PUSH2 0x1F8B PUSH2 0x4350 JUMP JUMPDEST JUMPDEST PUSH1 0x20 MUL ADD MLOAD DUP6 DUP4 PUSH1 0x4 DUP2 LT PUSH2 0x1FA4 JUMPI PUSH2 0x1FA3 PUSH2 0x4350 JUMP JUMPDEST JUMPDEST PUSH1 0x20 MUL ADD MLOAD DUP3 PUSH1 0x4 DUP2 LT PUSH2 0x1FBB JUMPI PUSH2 0x1FBA PUSH2 0x4350 JUMP JUMPDEST JUMPDEST PUSH1 0x20 MUL ADD MLOAD XOR DUP6 DUP4 PUSH1 0x4 DUP2 LT PUSH2 0x1FD4 JUMPI PUSH2 0x1FD3 PUSH2 0x4350 JUMP JUMPDEST JUMPDEST PUSH1 0x20 MUL ADD MLOAD DUP3 PUSH1 0x4 DUP2 LT PUSH2 0x1FEB JUMPI PUSH2 0x1FEA PUSH2 0x4350 JUMP JUMPDEST JUMPDEST PUSH1 0x20 MUL ADD SWAP1 PUSH1 0xFF AND SWAP1 DUP2 PUSH1 0xFF AND DUP2 MSTORE POP POP DUP1 DUP1 PUSH1 0x1 ADD SWAP2 POP POP PUSH2 0x1F59 JUMP JUMPDEST POP DUP1 DUP1 PUSH1 0x1 ADD SWAP2 POP POP PUSH2 0x1F4E JUMP JUMPDEST POP DUP3 SWAP1 POP SWAP3 SWAP2 POP POP JUMP JUMPDEST PUSH2 0x2029 PUSH2 0x38A4 JUMP JUMPDEST PUSH0 DUP3 PUSH0 PUSH1 0x4 DUP2 LT PUSH2 0x203D JUMPI PUSH2 0x203C PUSH2 0x4350 JUMP JUMPDEST JUMPDEST PUSH1 0x20 MUL ADD MLOAD SWAP1 POP PUSH0 PUSH1 0x40 MLOAD DUP1 PUSH1 0x80 ADD PUSH1 0x40 MSTORE DUP1 DUP6 PUSH1 0x1 PUSH1 0x4 DUP2 LT PUSH2 0x2064 JUMPI PUSH2 0x2063 PUSH2 0x4350 JUMP JUMPDEST JUMPDEST PUSH1 0x20 MUL ADD MLOAD PUSH1 0x3 PUSH1 0x4 DUP2 LT PUSH2 0x207C JUMPI PUSH2 0x207B PUSH2 0x4350 JUMP JUMPDEST JUMPDEST PUSH1 0x20 MUL ADD MLOAD PUSH1 0xFF AND PUSH1 0xFF AND DUP2 MSTORE PUSH1 0x20 ADD DUP6 PUSH1 0x1 PUSH1 0x4 DUP2 LT PUSH2 0x20A0 JUMPI PUSH2 0x209F PUSH2 0x4350 JUMP JUMPDEST JUMPDEST PUSH1 0x20 MUL ADD MLOAD PUSH0 PUSH1 0x4 DUP2 LT PUSH2 0x20B7 JUMPI PUSH2 0x20B6 PUSH2 0x4350 JUMP JUMPDEST JUMPDEST PUSH1 0x20 MUL ADD MLOAD PUSH1 0xFF AND PUSH1 0xFF AND DUP2 MSTORE PUSH1 0x20 ADD DUP6 PUSH1 0x1 PUSH1 0x4 DUP2 LT PUSH2 0x20DB JUMPI PUSH2 0x20DA PUSH2 0x4350 JUMP JUMPDEST JUMPDEST PUSH1 0x20 MUL ADD MLOAD PUSH1 0x1 PUSH1 0x4 DUP2 LT PUSH2 0x20F3 JUMPI PUSH2 0x20F2 PUSH2 0x4350 JUMP JUMPDEST JUMPDEST PUSH1 0x20 MUL ADD MLOAD PUSH1 0xFF AND PUSH1 0xFF AND DUP2 MSTORE PUSH1 0x20 ADD DUP6 PUSH1 0x1 PUSH1 0x4 DUP2 LT PUSH2 0x2117 JUMPI PUSH2 0x2116 PUSH2 0x4350 JUMP JUMPDEST JUMPDEST PUSH1 0x20 MUL ADD MLOAD PUSH1 0x2 PUSH1 0x4 DUP2 LT PUSH2 0x212F JUMPI PUSH2 0x212E PUSH2 0x4350 JUMP JUMPDEST JUMPDEST PUSH1 0x20 MUL ADD MLOAD PUSH1 0xFF AND PUSH1 0xFF AND DUP2 MSTORE POP SWAP1 POP PUSH0 PUSH1 0x40 MLOAD DUP1 PUSH1 0x80 ADD PUSH1 0x40 MSTORE DUP1 DUP7 PUSH1 0x2 PUSH1 0x4 DUP2 LT PUSH2 0x215F JUMPI PUSH2 0x215E PUSH2 0x4350 JUMP JUMPDEST JUMPDEST PUSH1 0x20 MUL ADD MLOAD PUSH1 0x2 PUSH1 0x4 DUP2 LT PUSH2 0x2177 JUMPI PUSH2 0x2176 PUSH2 0x4350 JUMP JUMPDEST JUMPDEST PUSH1 0x20 MUL ADD MLOAD PUSH1 0xFF AND PUSH1 0xFF AND DUP2 MSTORE PUSH1 0x20 ADD DUP7 PUSH1 0x2 PUSH1 0x4 DUP2 LT PUSH2 0x219B JUMPI PUSH2 0x219A PUSH2 0x4350 JUMP JUMPDEST JUMPDEST PUSH1 0x20 MUL ADD MLOAD PUSH1 0x3 PUSH1 0x4 DUP2 LT PUSH2 0x21B3 JUMPI PUSH2 0x21B2 PUSH2 0x4350 JUMP JUMPDEST JUMPDEST PUSH1 0x20 MUL ADD MLOAD PUSH1 0xFF AND PUSH1 0xFF AND DUP2 MSTORE PUSH1 0x20 ADD DUP7 PUSH1 0x2 PUSH1 0x4 DUP2 LT PUSH2 0x21D7 JUMPI PUSH2 0x21D6 PUSH2 0x4350 JUMP JUMPDEST JUMPDEST PUSH1 0x20 MUL ADD MLOAD PUSH0 PUSH1 0x4 DUP2 LT PUSH2 0x21EE JUMPI PUSH2 0x21ED PUSH2 0x4350 JUMP JUMPDEST JUMPDEST PUSH1 0x20 MUL ADD MLOAD PUSH1 0xFF AND PUSH1 0xFF AND DUP2 MSTORE PUSH1 0x20 ADD DUP7 PUSH1 0x2 PUSH1 0x4 DUP2 LT PUSH2 0x2212 JUMPI PUSH2 0x2211 PUSH2 0x4350 JUMP JUMPDEST JUMPDEST PUSH1 0x20 MUL ADD MLOAD PUSH1 0x1 PUSH1 0x4 DUP2 LT PUSH2 0x222A JUMPI PUSH2 0x2229 PUSH2 0x4350 JUMP JUMPDEST JUMPDEST PUSH1 0x20 MUL ADD MLOAD PUSH1 0xFF AND PUSH1 0xFF AND DUP2 MSTORE POP SWAP1 POP PUSH0 PUSH1 0x40 MLOAD DUP1 PUSH1 0x80 ADD PUSH1 0x40 MSTORE DUP1 DUP8 PUSH1 0x3 PUSH1 0x4 DUP2 LT PUSH2 0x225A JUMPI PUSH2 0x2259 PUSH2 0x4350 JUMP JUMPDEST JUMPDEST PUSH1 0x20 MUL ADD MLOAD PUSH1 0x1 PUSH1 0x4 DUP2 LT PUSH2 0x2272 JUMPI PUSH2 0x2271 PUSH2 0x4350 JUMP JUMPDEST JUMPDEST PUSH1 0x20 MUL ADD MLOAD PUSH1 0xFF AND PUSH1 0xFF AND DUP2 MSTORE PUSH1 0x20 ADD DUP8 PUSH1 0x3 PUSH1 0x4 DUP2 LT PUSH2 0x2296 JUMPI PUSH2 0x2295 PUSH2 0x4350 JUMP JUMPDEST JUMPDEST PUSH1 0x20 MUL ADD MLOAD PUSH1 0x2 PUSH1 0x4 DUP2 LT PUSH2 0x22AE JUMPI PUSH2 0x22AD PUSH2 0x4350 JUMP JUMPDEST JUMPDEST PUSH1 0x20 MUL ADD MLOAD PUSH1 0xFF AND PUSH1 0xFF AND DUP2 MSTORE PUSH1 0x20 ADD DUP8 PUSH1 0x3 PUSH1 0x4 DUP2 LT PUSH2 0x22D2 JUMPI PUSH2 0x22D1 PUSH2 0x4350 JUMP JUMPDEST JUMPDEST PUSH1 0x20 MUL ADD MLOAD PUSH1 0x3 PUSH1 0x4 DUP2 LT PUSH2 0x22EA JUMPI PUSH2 0x22E9 PUSH2 0x4350 JUMP JUMPDEST JUMPDEST PUSH1 0x20 MUL ADD MLOAD PUSH1 0xFF AND PUSH1 0xFF AND DUP2 MSTORE PUSH1 0x20 ADD DUP8 PUSH1 0x3 PUSH1 0x4 DUP2 LT PUSH2 0x230E JUMPI PUSH2 0x230D PUSH2 0x4350 JUMP JUMPDEST JUMPDEST PUSH1 0x20 MUL ADD MLOAD PUSH0 PUSH1 0x4 DUP2 LT PUSH2 0x2325 JUMPI PUSH2 0x2324 PUSH2 0x4350 JUMP JUMPDEST JUMPDEST PUSH1 0x20 MUL ADD MLOAD PUSH1 0xFF AND PUSH1 0xFF AND DUP2 MSTORE POP SWAP1 POP PUSH1 0x40 MLOAD DUP1 PUSH1 0x80 ADD PUSH1 0x40 MSTORE DUP1 DUP6 DUP2 MSTORE PUSH1 0x20 ADD DUP5 DUP2 MSTORE PUSH1 0x20 ADD DUP4 DUP2 MSTORE PUSH1 0x20 ADD DUP3 DUP2 MSTORE POP SWAP5 POP POP POP POP POP SWAP2 SWAP1 POP JUMP JUMPDEST PUSH2 0x2369 PUSH2 0x38A4 JUMP JUMPDEST PUSH0 JUMPDEST PUSH1 0x4 DUP2 LT ISZERO PUSH2 0x2431 JUMPI PUSH0 JUMPDEST PUSH1 0x4 DUP2 LT ISZERO PUSH2 0x2423 JUMPI PUSH1 0x9 DUP5 DUP4 PUSH1 0x4 DUP2 LT PUSH2 0x2394 JUMPI PUSH2 0x2393 PUSH2 0x4350 JUMP JUMPDEST JUMPDEST PUSH1 0x20 MUL ADD MLOAD DUP3 PUSH1 0x4 DUP2 LT PUSH2 0x23AB JUMPI PUSH2 0x23AA PUSH2 0x4350 JUMP JUMPDEST JUMPDEST PUSH1 0x20 MUL ADD MLOAD PUSH1 0xFF AND PUSH2 0x100 DUP2 LT PUSH2 0x23C5 JUMPI PUSH2 0x23C4 PUSH2 0x4350 JUMP JUMPDEST JUMPDEST PUSH1 0x20 SWAP2 DUP3 DUP3 DIV ADD SWAP2 SWAP1 MOD SWAP1 SLOAD SWAP1 PUSH2 0x100 EXP SWAP1 DIV PUSH1 0xFF AND DUP5 DUP4 PUSH1 0x4 DUP2 LT PUSH2 0x23EE JUMPI PUSH2 0x23ED PUSH2 0x4350 JUMP JUMPDEST JUMPDEST PUSH1 0x20 MUL ADD MLOAD DUP3 PUSH1 0x4 DUP2 LT PUSH2 0x2405 JUMPI PUSH2 0x2404 PUSH2 0x4350 JUMP JUMPDEST JUMPDEST PUSH1 0x20 MUL ADD SWAP1 PUSH1 0xFF AND SWAP1 DUP2 PUSH1 0xFF AND DUP2 MSTORE POP POP DUP1 DUP1 PUSH1 0x1 ADD SWAP2 POP POP PUSH2 0x2376 JUMP JUMPDEST POP DUP1 DUP1 PUSH1 0x1 ADD SWAP2 POP POP PUSH2 0x236B JUMP JUMPDEST POP DUP2 SWAP1 POP SWAP2 SWAP1 POP JUMP JUMPDEST PUSH2 0x2442 PUSH2 0x38A4 JUMP JUMPDEST PUSH0 PUSH1 0x40 MLOAD DUP1 PUSH1 0x80 ADD PUSH1 0x40 MSTORE DUP1 PUSH1 0x40 MLOAD DUP1 PUSH1 0x80 ADD PUSH1 0x40 MSTORE DUP1 PUSH0 PUSH1 0xFF AND DUP2 MSTORE PUSH1 0x20 ADD PUSH0 PUSH1 0xFF AND DUP2 MSTORE PUSH1 0x20 ADD PUSH0 PUSH1 0xFF AND DUP2 MSTORE PUSH1 0x20 ADD PUSH0 PUSH1 0xFF AND DUP2 MSTORE POP DUP2 MSTORE PUSH1 0x20 ADD PUSH1 0x40 MLOAD DUP1 PUSH1 0x80 ADD PUSH1 0x40 MSTORE DUP1 PUSH0 PUSH1 0xFF AND DUP2 MSTORE PUSH1 0x20 ADD PUSH0 PUSH1 0xFF AND DUP2 MSTORE PUSH1 0x20 ADD PUSH0 PUSH1 0xFF AND DUP2 MSTORE PUSH1 0x20 ADD PUSH0 PUSH1 0xFF AND DUP2 MSTORE POP DUP2 MSTORE PUSH1 0x20 ADD PUSH1 0x40 MLOAD DUP1 PUSH1 0x80 ADD PUSH1 0x40 MSTORE DUP1 PUSH0 PUSH1 0xFF AND DUP2 MSTORE PUSH1 0x20 ADD PUSH0 PUSH1 0xFF AND DUP2 MSTORE PUSH1 0x20 ADD PUSH0 PUSH1 0xFF AND DUP2 MSTORE PUSH1 0x20 ADD PUSH0 PUSH1 0xFF AND DUP2 MSTORE POP DUP2 MSTORE PUSH1 0x20 ADD PUSH1 0x40 MLOAD DUP1 PUSH1 0x80 ADD PUSH1 0x40 MSTORE DUP1 PUSH0 PUSH1 0xFF AND DUP2 MSTORE PUSH1 0x20 ADD PUSH0 PUSH1 0xFF AND DUP2 MSTORE PUSH1 0x20 ADD PUSH0 PUSH1 0xFF AND DUP2 MSTORE PUSH1 0x20 ADD PUSH0 PUSH1 0xFF AND DUP2 MSTORE POP DUP2 MSTORE POP SWAP1 POP PUSH0 JUMPDEST PUSH1 0x4 DUP2 LT ISZERO PUSH2 0x2A48 JUMPI PUSH0 JUMPDEST PUSH1 0x4 DUP2 LT ISZERO PUSH2 0x25A3 JUMPI DUP5 DUP2 PUSH1 0x4 DUP2 LT PUSH2 0x253F JUMPI PUSH2 0x253E PUSH2 0x4350 JUMP JUMPDEST JUMPDEST PUSH1 0x20 MUL ADD MLOAD DUP3 PUSH1 0x4 DUP2 LT PUSH2 0x2556 JUMPI PUSH2 0x2555 PUSH2 0x4350 JUMP JUMPDEST JUMPDEST PUSH1 0x20 MUL ADD MLOAD DUP4 DUP3 PUSH1 0x4 DUP2 LT PUSH2 0x256E JUMPI PUSH2 0x256D PUSH2 0x4350 JUMP JUMPDEST JUMPDEST PUSH1 0x20 MUL ADD MLOAD DUP4 PUSH1 0x4 DUP2 LT PUSH2 0x2585 JUMPI PUSH2 0x2584 PUSH2 0x4350 JUMP JUMPDEST JUMPDEST PUSH1 0x20 MUL ADD SWAP1 PUSH1 0xFF AND SWAP1 DUP2 PUSH1 0xFF AND DUP2 MSTORE POP POP DUP1 DUP1 PUSH1 0x1 ADD SWAP2 POP POP PUSH2 0x2523 JUMP JUMPDEST POP PUSH2 0x25DE DUP3 PUSH1 0x1 PUSH1 0x4 DUP2 LT PUSH2 0x25BB JUMPI PUSH2 0x25BA PUSH2 0x4350 JUMP JUMPDEST JUMPDEST PUSH1 0x20 MUL ADD MLOAD DUP3 PUSH1 0x4 DUP2 LT PUSH2 0x25D2 JUMPI PUSH2 0x25D1 PUSH2 0x4350 JUMP JUMPDEST JUMPDEST PUSH1 0x20 MUL ADD MLOAD PUSH1 0xB PUSH2 0x3774 JUMP JUMPDEST PUSH2 0x2618 DUP4 PUSH1 0x2 PUSH1 0x4 DUP2 LT PUSH2 0x25F5 JUMPI PUSH2 0x25F4 PUSH2 0x4350 JUMP JUMPDEST JUMPDEST PUSH1 0x20 MUL ADD MLOAD DUP4 PUSH1 0x4 DUP2 LT PUSH2 0x260C JUMPI PUSH2 0x260B PUSH2 0x4350 JUMP JUMPDEST JUMPDEST PUSH1 0x20 MUL ADD MLOAD PUSH1 0xD PUSH2 0x3774 JUMP JUMPDEST PUSH2 0x2652 DUP5 PUSH1 0x3 PUSH1 0x4 DUP2 LT PUSH2 0x262F JUMPI PUSH2 0x262E PUSH2 0x4350 JUMP JUMPDEST JUMPDEST PUSH1 0x20 MUL ADD MLOAD DUP5 PUSH1 0x4 DUP2 LT PUSH2 0x2646 JUMPI PUSH2 0x2645 PUSH2 0x4350 JUMP JUMPDEST JUMPDEST PUSH1 0x20 MUL ADD MLOAD PUSH1 0x9 PUSH2 0x3774 JUMP JUMPDEST PUSH2 0x268B DUP6 PUSH0 PUSH1 0x4 DUP2 LT PUSH2 0x2668 JUMPI PUSH2 0x2667 PUSH2 0x4350 JUMP JUMPDEST JUMPDEST PUSH1 0x20 MUL ADD MLOAD DUP6 PUSH1 0x4 DUP2 LT PUSH2 0x267F JUMPI PUSH2 0x267E PUSH2 0x4350 JUMP JUMPDEST JUMPDEST PUSH1 0x20 MUL ADD MLOAD PUSH1 0xE PUSH2 0x3774 JUMP JUMPDEST XOR XOR XOR DUP5 PUSH0 PUSH1 0x4 DUP2 LT PUSH2 0x26A1 JUMPI PUSH2 0x26A0 PUSH2 0x4350 JUMP JUMPDEST JUMPDEST PUSH1 0x20 MUL ADD MLOAD DUP3 PUSH1 0x4 DUP2 LT PUSH2 0x26B8 JUMPI PUSH2 0x26B7 PUSH2 0x4350 JUMP JUMPDEST JUMPDEST PUSH1 0x20 MUL ADD SWAP1 PUSH1 0xFF AND SWAP1 DUP2 PUSH1 0xFF AND DUP2 MSTORE POP POP PUSH2 0x2703 DUP3 PUSH1 0x2 PUSH1 0x4 DUP2 LT PUSH2 0x26E0 JUMPI PUSH2 0x26DF PUSH2 0x4350 JUMP JUMPDEST JUMPDEST PUSH1 0x20 MUL ADD MLOAD DUP3 PUSH1 0x4 DUP2 LT PUSH2 0x26F7 JUMPI PUSH2 0x26F6 PUSH2 0x4350 JUMP JUMPDEST JUMPDEST PUSH1 0x20 MUL ADD MLOAD PUSH1 0xB PUSH2 0x3774 JUMP JUMPDEST PUSH2 0x273D DUP4 PUSH1 0x3 PUSH1 0x4 DUP2 LT PUSH2 0x271A JUMPI PUSH2 0x2719 PUSH2 0x4350 JUMP JUMPDEST JUMPDEST PUSH1 0x20 MUL ADD MLOAD DUP4 PUSH1 0x4 DUP2 LT PUSH2 0x2731 JUMPI PUSH2 0x2730 PUSH2 0x4350 JUMP JUMPDEST JUMPDEST PUSH1 0x20 MUL ADD MLOAD PUSH1 0xD PUSH2 0x3774 JUMP JUMPDEST PUSH2 0x2776 DUP5 PUSH0 PUSH1 0x4 DUP2 LT PUSH2 0x2753 JUMPI PUSH2 0x2752 PUSH2 0x4350 JUMP JUMPDEST JUMPDEST PUSH1 0x20 MUL ADD MLOAD DUP5 PUSH1 0x4 DUP2 LT PUSH2 0x276A JUMPI PUSH2 0x2769 PUSH2 0x4350 JUMP JUMPDEST JUMPDEST PUSH1 0x20 MUL ADD MLOAD PUSH1 0x9 PUSH2 0x3774 JUMP JUMPDEST PUSH2 0x27B0 DUP6 PUSH1 0x1 PUSH1 0x4 DUP2 LT PUSH2 0x278D JUMPI PUSH2 0x278C PUSH2 0x4350 JUMP JUMPDEST JUMPDEST PUSH1 0x20 MUL ADD MLOAD DUP6 PUSH1 0x4 DUP2 LT PUSH2 0x27A4 JUMPI PUSH2 0x27A3 PUSH2 0x4350 JUMP JUMPDEST JUMPDEST PUSH1 0x20 MUL ADD MLOAD PUSH1 0xE PUSH2 0x3774 JUMP JUMPDEST XOR XOR XOR DUP5 PUSH1 0x1 PUSH1 0x4 DUP2 LT PUSH2 0x27C7 JUMPI PUSH2 0x27C6 PUSH2 0x4350 JUMP JUMPDEST JUMPDEST PUSH1 0x20 MUL ADD MLOAD DUP3 PUSH1 0x4 DUP2 LT PUSH2 0x27DE JUMPI PUSH2 0x27DD PUSH2 0x4350 JUMP JUMPDEST JUMPDEST PUSH1 0x20 MUL ADD SWAP1 PUSH1 0xFF AND SWAP1 DUP2 PUSH1 0xFF AND DUP2 MSTORE POP POP PUSH2 0x2829 DUP3 PUSH1 0x3 PUSH1 0x4 DUP2 LT PUSH2 0x2806 JUMPI PUSH2 0x2805 PUSH2 0x4350 JUMP JUMPDEST JUMPDEST PUSH1 0x20 MUL ADD MLOAD DUP3 PUSH1 0x4 DUP2 LT PUSH2 0x281D JUMPI PUSH2 0x281C PUSH2 0x4350 JUMP JUMPDEST JUMPDEST PUSH1 0x20 MUL ADD MLOAD PUSH1 0xB PUSH2 0x3774 JUMP JUMPDEST PUSH2 0x2862 DUP4 PUSH0 PUSH1 0x4 DUP2 LT PUSH2 0x283F JUMPI PUSH2 0x283E PUSH2 0x4350 JUMP JUMPDEST JUMPDEST PUSH1 0x20 MUL ADD MLOAD DUP4 PUSH1 0x4 DUP2 LT PUSH2 0x2856 JUMPI PUSH2 0x2855 PUSH2 0x4350 JUMP JUMPDEST JUMPDEST PUSH1 0x20 MUL ADD MLOAD PUSH1 0xD PUSH2 0x3774 JUMP JUMPDEST PUSH2 0x289C DUP5 PUSH1 0x1 PUSH1 0x4 DUP2 LT PUSH2 0x2879 JUMPI PUSH2 0x2878 PUSH2 0x4350 JUMP JUMPDEST JUMPDEST PUSH1 0x20 MUL ADD MLOAD DUP5 PUSH1 0x4 DUP2 LT PUSH2 0x2890 JUMPI PUSH2 0x288F PUSH2 0x4350 JUMP JUMPDEST JUMPDEST PUSH1 0x20 MUL ADD MLOAD PUSH1 0x9 PUSH2 0x3774 JUMP JUMPDEST PUSH2 0x28D6 DUP6 PUSH1 0x2 PUSH1 0x4 DUP2 LT PUSH2 0x28B3 JUMPI PUSH2 0x28B2 PUSH2 0x4350 JUMP JUMPDEST JUMPDEST PUSH1 0x20 MUL ADD MLOAD DUP6 PUSH1 0x4 DUP2 LT PUSH2 0x28CA JUMPI PUSH2 0x28C9 PUSH2 0x4350 JUMP JUMPDEST JUMPDEST PUSH1 0x20 MUL ADD MLOAD PUSH1 0xE PUSH2 0x3774 JUMP JUMPDEST XOR XOR XOR DUP5 PUSH1 0x2 PUSH1 0x4 DUP2 LT PUSH2 0x28ED JUMPI PUSH2 0x28EC PUSH2 0x4350 JUMP JUMPDEST JUMPDEST PUSH1 0x20 MUL ADD MLOAD DUP3 PUSH1 0x4 DUP2 LT PUSH2 0x2904 JUMPI PUSH2 0x2903 PUSH2 0x4350 JUMP JUMPDEST JUMPDEST PUSH1 0x20 MUL ADD SWAP1 PUSH1 0xFF AND SWAP1 DUP2 PUSH1 0xFF AND DUP2 MSTORE POP POP PUSH2 0x294E DUP3 PUSH0 PUSH1 0x4 DUP2 LT PUSH2 0x292B JUMPI PUSH2 0x292A PUSH2 0x4350 JUMP JUMPDEST JUMPDEST PUSH1 0x20 MUL ADD MLOAD DUP3 PUSH1 0x4 DUP2 LT PUSH2 0x2942 JUMPI PUSH2 0x2941 PUSH2 0x4350 JUMP JUMPDEST JUMPDEST PUSH1 0x20 MUL ADD MLOAD PUSH1 0xB PUSH2 0x3774 JUMP JUMPDEST PUSH2 0x2988 DUP4 PUSH1 0x1 PUSH1 0x4 DUP2 LT PUSH2 0x2965 JUMPI PUSH2 0x2964 PUSH2 0x4350 JUMP JUMPDEST JUMPDEST PUSH1 0x20 MUL ADD MLOAD DUP4 PUSH1 0x4 DUP2 LT PUSH2 0x297C JUMPI PUSH2 0x297B PUSH2 0x4350 JUMP JUMPDEST JUMPDEST PUSH1 0x20 MUL ADD MLOAD PUSH1 0xD PUSH2 0x3774 JUMP JUMPDEST PUSH2 0x29C2 DUP5 PUSH1 0x2 PUSH1 0x4 DUP2 LT PUSH2 0x299F JUMPI PUSH2 0x299E PUSH2 0x4350 JUMP JUMPDEST JUMPDEST PUSH1 0x20 MUL ADD MLOAD DUP5 PUSH1 0x4 DUP2 LT PUSH2 0x29B6 JUMPI PUSH2 0x29B5 PUSH2 0x4350 JUMP JUMPDEST JUMPDEST PUSH1 0x20 MUL ADD MLOAD PUSH1 0x9 PUSH2 0x3774 JUMP JUMPDEST PUSH2 0x29FC DUP6 PUSH1 0x3 PUSH1 0x4 DUP2 LT PUSH2 0x29D9 JUMPI PUSH2 0x29D8 PUSH2 0x4350 JUMP JUMPDEST JUMPDEST PUSH1 0x20 MUL ADD MLOAD DUP6 PUSH1 0x4 DUP2 LT PUSH2 0x29F0 JUMPI PUSH2 0x29EF PUSH2 0x4350 JUMP JUMPDEST JUMPDEST PUSH1 0x20 MUL ADD MLOAD PUSH1 0xE PUSH2 0x3774 JUMP JUMPDEST XOR XOR XOR DUP5 PUSH1 0x3 PUSH1 0x4 DUP2 LT PUSH2 0x2A13 JUMPI PUSH2 0x2A12 PUSH2 0x4350 JUMP JUMPDEST JUMPDEST PUSH1 0x20 MUL ADD MLOAD DUP3 PUSH1 0x4 DUP2 LT PUSH2 0x2A2A JUMPI PUSH2 0x2A29 PUSH2 0x4350 JUMP JUMPDEST JUMPDEST PUSH1 0x20 MUL ADD SWAP1 PUSH1 0xFF AND SWAP1 DUP2 PUSH1 0xFF AND DUP2 MSTORE POP POP DUP1 DUP1 PUSH1 0x1 ADD SWAP2 POP POP PUSH2 0x2518 JUMP JUMPDEST POP DUP3 SWAP2 POP POP SWAP2 SWAP1 POP JUMP JUMPDEST PUSH2 0x2A5A PUSH2 0x38A4 JUMP JUMPDEST PUSH0 JUMPDEST PUSH1 0x4 DUP2 LT ISZERO PUSH2 0x2B22 JUMPI PUSH0 JUMPDEST PUSH1 0x4 DUP2 LT ISZERO PUSH2 0x2B14 JUMPI PUSH1 0x1 DUP5 DUP4 PUSH1 0x4 DUP2 LT PUSH2 0x2A85 JUMPI PUSH2 0x2A84 PUSH2 0x4350 JUMP JUMPDEST JUMPDEST PUSH1 0x20 MUL ADD MLOAD DUP3 PUSH1 0x4 DUP2 LT PUSH2 0x2A9C JUMPI PUSH2 0x2A9B PUSH2 0x4350 JUMP JUMPDEST JUMPDEST PUSH1 0x20 MUL ADD MLOAD PUSH1 0xFF AND PUSH2 0x100 DUP2 LT PUSH2 0x2AB6 JUMPI PUSH2 0x2AB5 PUSH2 0x4350 JUMP JUMPDEST JUMPDEST PUSH1 0x20 SWAP2 DUP3 DUP3 DIV ADD SWAP2 SWAP1 MOD SWAP1 SLOAD SWAP1 PUSH2 0x100 EXP SWAP1 DIV PUSH1 0xFF AND DUP5 DUP4 PUSH1 0x4 DUP2 LT PUSH2 0x2ADF JUMPI PUSH2 0x2ADE PUSH2 0x4350 JUMP JUMPDEST JUMPDEST PUSH1 0x20 MUL ADD MLOAD DUP3 PUSH1 0x4 DUP2 LT PUSH2 0x2AF6 JUMPI PUSH2 0x2AF5 PUSH2 0x4350 JUMP JUMPDEST JUMPDEST PUSH1 0x20 MUL ADD SWAP1 PUSH1 0xFF AND SWAP1 DUP2 PUSH1 0xFF AND DUP2 MSTORE POP POP DUP1 DUP1 PUSH1 0x1 ADD SWAP2 POP POP PUSH2 0x2A67 JUMP JUMPDEST POP DUP1 DUP1 PUSH1 0x1 ADD SWAP2 POP POP PUSH2 0x2A5C JUMP JUMPDEST POP DUP2 SWAP1 POP SWAP2 SWAP1 POP JUMP JUMPDEST PUSH2 0x2B33 PUSH2 0x38A4 JUMP JUMPDEST PUSH0 DUP3 PUSH0 PUSH1 0x4 DUP2 LT PUSH2 0x2B47 JUMPI PUSH2 0x2B46 PUSH2 0x4350 JUMP JUMPDEST JUMPDEST PUSH1 0x20 MUL ADD MLOAD SWAP1 POP PUSH0 PUSH1 0x40 MLOAD DUP1 PUSH1 0x80 ADD PUSH1 0x40 MSTORE DUP1 DUP6 PUSH1 0x1 PUSH1 0x4 DUP2 LT PUSH2 0x2B6E JUMPI PUSH2 0x2B6D PUSH2 0x4350 JUMP JUMPDEST JUMPDEST PUSH1 0x20 MUL ADD MLOAD PUSH1 0x1 PUSH1 0x4 DUP2 LT PUSH2 0x2B86 JUMPI PUSH2 0x2B85 PUSH2 0x4350 JUMP JUMPDEST JUMPDEST PUSH1 0x20 MUL ADD MLOAD PUSH1 0xFF AND PUSH1 0xFF AND DUP2 MSTORE PUSH1 0x20 ADD DUP6 PUSH1 0x1 PUSH1 0x4 DUP2 LT PUSH2 0x2BAA JUMPI PUSH2 0x2BA9 PUSH2 0x4350 JUMP JUMPDEST JUMPDEST PUSH1 0x20 MUL ADD MLOAD PUSH1 0x2 PUSH1 0x4 DUP2 LT PUSH2 0x2BC2 JUMPI PUSH2 0x2BC1 PUSH2 0x4350 JUMP JUMPDEST JUMPDEST PUSH1 0x20 MUL ADD MLOAD PUSH1 0xFF AND PUSH1 0xFF AND DUP2 MSTORE PUSH1 0x20 ADD DUP6 PUSH1 0x1 PUSH1 0x4 DUP2 LT PUSH2 0x2BE6 JUMPI PUSH2 0x2BE5 PUSH2 0x4350 JUMP JUMPDEST JUMPDEST PUSH1 0x20 MUL ADD MLOAD PUSH1 0x3 PUSH1 0x4 DUP2 LT PUSH2 0x2BFE JUMPI PUSH2 0x2BFD PUSH2 0x4350 JUMP JUMPDEST JUMPDEST PUSH1 0x20 MUL ADD MLOAD PUSH1 0xFF AND PUSH1 0xFF AND DUP2 MSTORE PUSH1 0x20 ADD DUP6 PUSH1 0x1 PUSH1 0x4 DUP2 LT PUSH2 0x2C22 JUMPI PUSH2 0x2C21 PUSH2 0x4350 JUMP JUMPDEST JUMPDEST PUSH1 0x20 MUL ADD MLOAD PUSH0 PUSH1 0x4 DUP2 LT PUSH2 0x2C39 JUMPI PUSH2 0x2C38 PUSH2 0x4350 JUMP JUMPDEST JUMPDEST PUSH1 0x20 MUL ADD MLOAD PUSH1 0xFF AND PUSH1 0xFF AND DUP2 MSTORE POP SWAP1 POP PUSH0 PUSH1 0x40 MLOAD DUP1 PUSH1 0x80 ADD PUSH1 0x40 MSTORE DUP1 DUP7 PUSH1 0x2 PUSH1 0x4 DUP2 LT PUSH2 0x2C69 JUMPI PUSH2 0x2C68 PUSH2 0x4350 JUMP JUMPDEST JUMPDEST PUSH1 0x20 MUL ADD MLOAD PUSH1 0x2 PUSH1 0x4 DUP2 LT PUSH2 0x2C81 JUMPI PUSH2 0x2C80 PUSH2 0x4350 JUMP JUMPDEST JUMPDEST PUSH1 0x20 MUL ADD MLOAD PUSH1 0xFF AND PUSH1 0xFF AND DUP2 MSTORE PUSH1 0x20 ADD DUP7 PUSH1 0x2 PUSH1 0x4 DUP2 LT PUSH2 0x2CA5 JUMPI PUSH2 0x2CA4 PUSH2 0x4350 JUMP JUMPDEST JUMPDEST PUSH1 0x20 MUL ADD MLOAD PUSH1 0x3 PUSH1 0x4 DUP2 LT PUSH2 0x2CBD JUMPI PUSH2 0x2CBC PUSH2 0x4350 JUMP JUMPDEST JUMPDEST PUSH1 0x20 MUL ADD MLOAD PUSH1 0xFF AND PUSH1 0xFF AND DUP2 MSTORE PUSH1 0x20 ADD DUP7 PUSH1 0x2 PUSH1 0x4 DUP2 LT PUSH2 0x2CE1 JUMPI PUSH2 0x2CE0 PUSH2 0x4350 JUMP JUMPDEST JUMPDEST PUSH1 0x20 MUL ADD MLOAD PUSH0 PUSH1 0x4 DUP2 LT PUSH2 0x2CF8 JUMPI PUSH2 0x2CF7 PUSH2 0x4350 JUMP JUMPDEST JUMPDEST PUSH1 0x20 MUL ADD MLOAD PUSH1 0xFF AND PUSH1 0xFF AND DUP2 MSTORE PUSH1 0x20 ADD DUP7 PUSH1 0x2 PUSH1 0x4 DUP2 LT PUSH2 0x2D1C JUMPI PUSH2 0x2D1B PUSH2 0x4350 JUMP JUMPDEST JUMPDEST PUSH1 0x20 MUL ADD MLOAD PUSH1 0x1 PUSH1 0x4 DUP2 LT PUSH2 0x2D34 JUMPI PUSH2 0x2D33 PUSH2 0x4350 JUMP JUMPDEST JUMPDEST PUSH1 0x20 MUL ADD MLOAD PUSH1 0xFF AND PUSH1 0xFF AND DUP2 MSTORE POP SWAP1 POP PUSH0 PUSH1 0x40 MLOAD DUP1 PUSH1 0x80 ADD PUSH1 0x40 MSTORE DUP1 DUP8 PUSH1 0x3 PUSH1 0x4 DUP2 LT PUSH2 0x2D64 JUMPI PUSH2 0x2D63 PUSH2 0x4350 JUMP JUMPDEST JUMPDEST PUSH1 0x20 MUL ADD MLOAD PUSH1 0x3 PUSH1 0x4 DUP2 LT PUSH2 0x2D7C JUMPI PUSH2 0x2D7B PUSH2 0x4350 JUMP JUMPDEST JUMPDEST PUSH1 0x20 MUL ADD MLOAD PUSH1 0xFF AND PUSH1 0xFF AND DUP2 MSTORE PUSH1 0x20 ADD DUP8 PUSH1 0x3 PUSH1 0x4 DUP2 LT PUSH2 0x2DA0 JUMPI PUSH2 0x2D9F PUSH2 0x4350 JUMP JUMPDEST JUMPDEST PUSH1 0x20 MUL ADD MLOAD PUSH0 PUSH1 0x4 DUP2 LT PUSH2 0x2DB7 JUMPI PUSH2 0x2DB6 PUSH2 0x4350 JUMP JUMPDEST JUMPDEST PUSH1 0x20 MUL ADD MLOAD PUSH1 0xFF AND PUSH1 0xFF AND DUP2 MSTORE PUSH1 0x20 ADD DUP8 PUSH1 0x3 PUSH1 0x4 DUP2 LT PUSH2 0x2DDB JUMPI PUSH2 0x2DDA PUSH2 0x4350 JUMP JUMPDEST JUMPDEST PUSH1 0x20 MUL ADD MLOAD PUSH1 0x1 PUSH1 0x4 DUP2 LT PUSH2 0x2DF3 JUMPI PUSH2 0x2DF2 PUSH2 0x4350 JUMP JUMPDEST JUMPDEST PUSH1 0x20 MUL ADD MLOAD PUSH1 0xFF AND PUSH1 0xFF AND DUP2 MSTORE PUSH1 0x20 ADD DUP8 PUSH1 0x3 PUSH1 0x4 DUP2 LT PUSH2 0x2E17 JUMPI PUSH2 0x2E16 PUSH2 0x4350 JUMP JUMPDEST JUMPDEST PUSH1 0x20 MUL ADD MLOAD PUSH1 0x2 PUSH1 0x4 DUP2 LT PUSH2 0x2E2F JUMPI PUSH2 0x2E2E PUSH2 0x4350 JUMP JUMPDEST JUMPDEST PUSH1 0x20 MUL ADD MLOAD PUSH1 0xFF AND PUSH1 0xFF AND DUP2 MSTORE POP SWAP1 POP PUSH1 0x40 MLOAD DUP1 PUSH1 0x80 ADD PUSH1 0x40 MSTORE DUP1 DUP6 DUP2 MSTORE PUSH1 0x20 ADD DUP5 DUP2 MSTORE PUSH1 0x20 ADD DUP4 DUP2 MSTORE PUSH1 0x20 ADD DUP3 DUP2 MSTORE POP SWAP5 POP POP POP POP POP SWAP2 SWAP1 POP JUMP JUMPDEST PUSH2 0x2E73 PUSH2 0x38A4 JUMP JUMPDEST PUSH0 PUSH1 0x40 MLOAD DUP1 PUSH1 0x80 ADD PUSH1 0x40 MSTORE DUP1 PUSH1 0x40 MLOAD DUP1 PUSH1 0x80 ADD PUSH1 0x40 MSTORE DUP1 PUSH0 PUSH1 0xFF AND DUP2 MSTORE PUSH1 0x20 ADD PUSH0 PUSH1 0xFF AND DUP2 MSTORE PUSH1 0x20 ADD PUSH0 PUSH1 0xFF AND DUP2 MSTORE PUSH1 0x20 ADD PUSH0 PUSH1 0xFF AND DUP2 MSTORE POP DUP2 MSTORE PUSH1 0x20 ADD PUSH1 0x40 MLOAD DUP1 PUSH1 0x80 ADD PUSH1 0x40 MSTORE DUP1 PUSH0 PUSH1 0xFF AND DUP2 MSTORE PUSH1 0x20 ADD PUSH0 PUSH1 0xFF AND DUP2 MSTORE PUSH1 0x20 ADD PUSH0 PUSH1 0xFF AND DUP2 MSTORE PUSH1 0x20 ADD PUSH0 PUSH1 0xFF AND DUP2 MSTORE POP DUP2 MSTORE PUSH1 0x20 ADD PUSH1 0x40 MLOAD DUP1 PUSH1 0x80 ADD PUSH1 0x40 MSTORE DUP1 PUSH0 PUSH1 0xFF AND DUP2 MSTORE PUSH1 0x20 ADD PUSH0 PUSH1 0xFF AND DUP2 MSTORE PUSH1 0x20 ADD PUSH0 PUSH1 0xFF AND DUP2 MSTORE PUSH1 0x20 ADD PUSH0 PUSH1 0xFF AND DUP2 MSTORE POP DUP2 MSTORE PUSH1 0x20 ADD PUSH1 0x40 MLOAD DUP1 PUSH1 0x80 ADD PUSH1 0x40 MSTORE DUP1 PUSH0 PUSH1 0xFF AND DUP2 MSTORE PUSH1 0x20 ADD PUSH0 PUSH1 0xFF AND DUP2 MSTORE PUSH1 0x20 ADD PUSH0 PUSH1 0xFF AND DUP2 MSTORE PUSH1 0x20 ADD PUSH0 PUSH1 0xFF AND DUP2 MSTORE POP DUP2 MSTORE POP SWAP1 POP PUSH0 JUMPDEST PUSH1 0x4 DUP2 LT ISZERO PUSH2 0x3479 JUMPI PUSH0 JUMPDEST PUSH1 0x4 DUP2 LT ISZERO PUSH2 0x2FD4 JUMPI DUP5 DUP2 PUSH1 0x4 DUP2 LT PUSH2 0x2F70 JUMPI PUSH2 0x2F6F PUSH2 0x4350 JUMP JUMPDEST JUMPDEST PUSH1 0x20 MUL ADD MLOAD DUP3 PUSH1 0x4 DUP2 LT PUSH2 0x2F87 JUMPI PUSH2 0x2F86 PUSH2 0x4350 JUMP JUMPDEST JUMPDEST PUSH1 0x20 MUL ADD MLOAD DUP4 DUP3 PUSH1 0x4 DUP2 LT PUSH2 0x2F9F JUMPI PUSH2 0x2F9E PUSH2 0x4350 JUMP JUMPDEST JUMPDEST PUSH1 0x20 MUL ADD MLOAD DUP4 PUSH1 0x4 DUP2 LT PUSH2 0x2FB6 JUMPI PUSH2 0x2FB5 PUSH2 0x4350 JUMP JUMPDEST JUMPDEST PUSH1 0x20 MUL ADD SWAP1 PUSH1 0xFF AND SWAP1 DUP2 PUSH1 0xFF AND DUP2 MSTORE POP POP DUP1 DUP1 PUSH1 0x1 ADD SWAP2 POP POP PUSH2 0x2F54 JUMP JUMPDEST POP PUSH2 0x300F DUP3 PUSH1 0x3 PUSH1 0x4 DUP2 LT PUSH2 0x2FEC JUMPI PUSH2 0x2FEB PUSH2 0x4350 JUMP JUMPDEST JUMPDEST PUSH1 0x20 MUL ADD MLOAD DUP3 PUSH1 0x4 DUP2 LT PUSH2 0x3003 JUMPI PUSH2 0x3002 PUSH2 0x4350 JUMP JUMPDEST JUMPDEST PUSH1 0x20 MUL ADD MLOAD PUSH1 0x1 PUSH2 0x3774 JUMP JUMPDEST PUSH2 0x3049 DUP4 PUSH1 0x2 PUSH1 0x4 DUP2 LT PUSH2 0x3026 JUMPI PUSH2 0x3025 PUSH2 0x4350 JUMP JUMPDEST JUMPDEST PUSH1 0x20 MUL ADD MLOAD DUP4 PUSH1 0x4 DUP2 LT PUSH2 0x303D JUMPI PUSH2 0x303C PUSH2 0x4350 JUMP JUMPDEST JUMPDEST PUSH1 0x20 MUL ADD MLOAD PUSH1 0x1 PUSH2 0x3774 JUMP JUMPDEST PUSH2 0x3083 DUP5 PUSH1 0x1 PUSH1 0x4 DUP2 LT PUSH2 0x3060 JUMPI PUSH2 0x305F PUSH2 0x4350 JUMP JUMPDEST JUMPDEST PUSH1 0x20 MUL ADD MLOAD DUP5 PUSH1 0x4 DUP2 LT PUSH2 0x3077 JUMPI PUSH2 0x3076 PUSH2 0x4350 JUMP JUMPDEST JUMPDEST PUSH1 0x20 MUL ADD MLOAD PUSH1 0x3 PUSH2 0x3774 JUMP JUMPDEST PUSH2 0x30BC DUP6 PUSH0 PUSH1 0x4 DUP2 LT PUSH2 0x3099 JUMPI PUSH2 0x3098 PUSH2 0x4350 JUMP JUMPDEST JUMPDEST PUSH1 0x20 MUL ADD MLOAD DUP6 PUSH1 0x4 DUP2 LT PUSH2 0x30B0 JUMPI PUSH2 0x30AF PUSH2 0x4350 JUMP JUMPDEST JUMPDEST PUSH1 0x20 MUL ADD MLOAD PUSH1 0x2 PUSH2 0x3774 JUMP JUMPDEST XOR XOR XOR DUP5 PUSH0 PUSH1 0x4 DUP2 LT PUSH2 0x30D2 JUMPI PUSH2 0x30D1 PUSH2 0x4350 JUMP JUMPDEST JUMPDEST PUSH1 0x20 MUL ADD MLOAD DUP3 PUSH1 0x4 DUP2 LT PUSH2 0x30E9 JUMPI PUSH2 0x30E8 PUSH2 0x4350 JUMP JUMPDEST JUMPDEST PUSH1 0x20 MUL ADD SWAP1 PUSH1 0xFF AND SWAP1 DUP2 PUSH1 0xFF AND DUP2 MSTORE POP POP PUSH2 0x3134 DUP3 PUSH1 0x3 PUSH1 0x4 DUP2 LT PUSH2 0x3111 JUMPI PUSH2 0x3110 PUSH2 0x4350 JUMP JUMPDEST JUMPDEST PUSH1 0x20 MUL ADD MLOAD DUP3 PUSH1 0x4 DUP2 LT PUSH2 0x3128 JUMPI PUSH2 0x3127 PUSH2 0x4350 JUMP JUMPDEST JUMPDEST PUSH1 0x20 MUL ADD MLOAD PUSH1 0x1 PUSH2 0x3774 JUMP JUMPDEST PUSH2 0x316E DUP4 PUSH1 0x2 PUSH1 0x4 DUP2 LT PUSH2 0x314B JUMPI PUSH2 0x314A PUSH2 0x4350 JUMP JUMPDEST JUMPDEST PUSH1 0x20 MUL ADD MLOAD DUP4 PUSH1 0x4 DUP2 LT PUSH2 0x3162 JUMPI PUSH2 0x3161 PUSH2 0x4350 JUMP JUMPDEST JUMPDEST PUSH1 0x20 MUL ADD MLOAD PUSH1 0x3 PUSH2 0x3774 JUMP JUMPDEST PUSH2 0x31A8 DUP5 PUSH1 0x1 PUSH1 0x4 DUP2 LT PUSH2 0x3185 JUMPI PUSH2 0x3184 PUSH2 0x4350 JUMP JUMPDEST JUMPDEST PUSH1 0x20 MUL ADD MLOAD DUP5 PUSH1 0x4 DUP2 LT PUSH2 0x319C JUMPI PUSH2 0x319B PUSH2 0x4350 JUMP JUMPDEST JUMPDEST PUSH1 0x20 MUL ADD MLOAD PUSH1 0x2 PUSH2 0x3774 JUMP JUMPDEST PUSH2 0x31E1 DUP6 PUSH0 PUSH1 0x4 DUP2 LT PUSH2 0x31BE JUMPI PUSH2 0x31BD PUSH2 0x4350 JUMP JUMPDEST JUMPDEST PUSH1 0x20 MUL ADD MLOAD DUP6 PUSH1 0x4 DUP2 LT PUSH2 0x31D5 JUMPI PUSH2 0x31D4 PUSH2 0x4350 JUMP JUMPDEST JUMPDEST PUSH1 0x20 MUL ADD MLOAD PUSH1 0x1 PUSH2 0x3774 JUMP JUMPDEST XOR XOR XOR DUP5 PUSH1 0x1 PUSH1 0x4 DUP2 LT PUSH2 0x31F8 JUMPI PUSH2 0x31F7 PUSH2 0x4350 JUMP JUMPDEST JUMPDEST PUSH1 0x20 MUL ADD MLOAD DUP3 PUSH1 0x4 DUP2 LT PUSH2 0x320F JUMPI PUSH2 0x320E PUSH2 0x4350 JUMP JUMPDEST JUMPDEST PUSH1 0x20 MUL ADD SWAP1 PUSH1 0xFF AND SWAP1 DUP2 PUSH1 0xFF AND DUP2 MSTORE POP POP PUSH2 0x325A DUP3 PUSH1 0x3 PUSH1 0x4 DUP2 LT PUSH2 0x3237 JUMPI PUSH2 0x3236 PUSH2 0x4350 JUMP JUMPDEST JUMPDEST PUSH1 0x20 MUL ADD MLOAD DUP3 PUSH1 0x4 DUP2 LT PUSH2 0x324E JUMPI PUSH2 0x324D PUSH2 0x4350 JUMP JUMPDEST JUMPDEST PUSH1 0x20 MUL ADD MLOAD PUSH1 0x3 PUSH2 0x3774 JUMP JUMPDEST PUSH2 0x3294 DUP4 PUSH1 0x2 PUSH1 0x4 DUP2 LT PUSH2 0x3271 JUMPI PUSH2 0x3270 PUSH2 0x4350 JUMP JUMPDEST JUMPDEST PUSH1 0x20 MUL ADD MLOAD DUP4 PUSH1 0x4 DUP2 LT PUSH2 0x3288 JUMPI PUSH2 0x3287 PUSH2 0x4350 JUMP JUMPDEST JUMPDEST PUSH1 0x20 MUL ADD MLOAD PUSH1 0x2 PUSH2 0x3774 JUMP JUMPDEST PUSH2 0x32CE DUP5 PUSH1 0x1 PUSH1 0x4 DUP2 LT PUSH2 0x32AB JUMPI PUSH2 0x32AA PUSH2 0x4350 JUMP JUMPDEST JUMPDEST PUSH1 0x20 MUL ADD MLOAD DUP5 PUSH1 0x4 DUP2 LT PUSH2 0x32C2 JUMPI PUSH2 0x32C1 PUSH2 0x4350 JUMP JUMPDEST JUMPDEST PUSH1 0x20 MUL ADD MLOAD PUSH1 0x1 PUSH2 0x3774 JUMP JUMPDEST PUSH2 0x3307 DUP6 PUSH0 PUSH1 0x4 DUP2 LT PUSH2 0x32E4 JUMPI PUSH2 0x32E3 PUSH2 0x4350 JUMP JUMPDEST JUMPDEST PUSH1 0x20 MUL ADD MLOAD DUP6 PUSH1 0x4 DUP2 LT PUSH2 0x32FB JUMPI PUSH2 0x32FA PUSH2 0x4350 JUMP JUMPDEST JUMPDEST PUSH1 0x20 MUL ADD MLOAD PUSH1 0x1 PUSH2 0x3774 JUMP JUMPDEST XOR XOR XOR DUP5 PUSH1 0x2 PUSH1 0x4 DUP2 LT PUSH2 0x331E JUMPI PUSH2 0x331D PUSH2 0x4350 JUMP JUMPDEST JUMPDEST PUSH1 0x20 MUL ADD MLOAD DUP3 PUSH1 0x4 DUP2 LT PUSH2 0x3335 JUMPI PUSH2 0x3334 PUSH2 0x4350 JUMP JUMPDEST JUMPDEST PUSH1 0x20 MUL ADD SWAP1 PUSH1 0xFF AND SWAP1 DUP2 PUSH1 0xFF AND DUP2 MSTORE POP POP PUSH2 0x3380 DUP3 PUSH1 0x3 PUSH1 0x4 DUP2 LT PUSH2 0x335D JUMPI PUSH2 0x335C PUSH2 0x4350 JUMP JUMPDEST JUMPDEST PUSH1 0x20 MUL ADD MLOAD DUP3 PUSH1 0x4 DUP2 LT PUSH2 0x3374 JUMPI PUSH2 0x3373 PUSH2 0x4350 JUMP JUMPDEST JUMPDEST PUSH1 0x20 MUL ADD MLOAD PUSH1 0x2 PUSH2 0x3774 JUMP JUMPDEST PUSH2 0x33BA DUP4 PUSH1 0x2 PUSH1 0x4 DUP2 LT PUSH2 0x3397 JUMPI PUSH2 0x3396 PUSH2 0x4350 JUMP JUMPDEST JUMPDEST PUSH1 0x20 MUL ADD MLOAD DUP4 PUSH1 0x4 DUP2 LT PUSH2 0x33AE JUMPI PUSH2 0x33AD PUSH2 0x4350 JUMP JUMPDEST JUMPDEST PUSH1 0x20 MUL ADD MLOAD PUSH1 0x1 PUSH2 0x3774 JUMP JUMPDEST PUSH2 0x33F4 DUP5 PUSH1 0x1 PUSH1 0x4 DUP2 LT PUSH2 0x33D1 JUMPI PUSH2 0x33D0 PUSH2 0x4350 JUMP JUMPDEST JUMPDEST PUSH1 0x20 MUL ADD MLOAD DUP5 PUSH1 0x4 DUP2 LT PUSH2 0x33E8 JUMPI PUSH2 0x33E7 PUSH2 0x4350 JUMP JUMPDEST JUMPDEST PUSH1 0x20 MUL ADD MLOAD PUSH1 0x1 PUSH2 0x3774 JUMP JUMPDEST PUSH2 0x342D DUP6 PUSH0 PUSH1 0x4 DUP2 LT PUSH2 0x340A JUMPI PUSH2 0x3409 PUSH2 0x4350 JUMP JUMPDEST JUMPDEST PUSH1 0x20 MUL ADD MLOAD DUP6 PUSH1 0x4 DUP2 LT PUSH2 0x3421 JUMPI PUSH2 0x3420 PUSH2 0x4350 JUMP JUMPDEST JUMPDEST PUSH1 0x20 MUL ADD MLOAD PUSH1 0x3 PUSH2 0x3774 JUMP JUMPDEST XOR XOR XOR DUP5 PUSH1 0x3 PUSH1 0x4 DUP2 LT PUSH2 0x3444 JUMPI PUSH2 0x3443 PUSH2 0x4350 JUMP JUMPDEST JUMPDEST PUSH1 0x20 MUL ADD MLOAD DUP3 PUSH1 0x4 DUP2 LT PUSH2 0x345B JUMPI PUSH2 0x345A PUSH2 0x4350 JUMP JUMPDEST JUMPDEST PUSH1 0x20 MUL ADD SWAP1 PUSH1 0xFF AND SWAP1 DUP2 PUSH1 0xFF AND DUP2 MSTORE POP POP DUP1 DUP1 PUSH1 0x1 ADD SWAP2 POP POP PUSH2 0x2F49 JUMP JUMPDEST POP DUP3 SWAP2 POP POP SWAP2 SWAP1 POP JUMP JUMPDEST PUSH2 0x348B PUSH2 0x38D1 JUMP JUMPDEST PUSH0 PUSH1 0x40 MLOAD DUP1 PUSH1 0x80 ADD PUSH1 0x40 MSTORE DUP1 PUSH0 PUSH1 0xFF AND DUP2 MSTORE PUSH1 0x20 ADD PUSH0 PUSH1 0xFF AND DUP2 MSTORE PUSH1 0x20 ADD PUSH0 PUSH1 0xFF AND DUP2 MSTORE PUSH1 0x20 ADD PUSH0 PUSH1 0xFF AND DUP2 MSTORE POP SWAP1 POP DUP3 PUSH1 0x1 PUSH1 0x4 DUP2 LT PUSH2 0x34CF JUMPI PUSH2 0x34CE PUSH2 0x4350 JUMP JUMPDEST JUMPDEST PUSH1 0x20 MUL ADD MLOAD DUP2 PUSH0 PUSH1 0x4 DUP2 LT PUSH2 0x34E7 JUMPI PUSH2 0x34E6 PUSH2 0x4350 JUMP JUMPDEST JUMPDEST PUSH1 0x20 MUL ADD SWAP1 PUSH1 0xFF AND SWAP1 DUP2 PUSH1 0xFF AND DUP2 MSTORE POP POP DUP3 PUSH1 0x2 PUSH1 0x4 DUP2 LT PUSH2 0x350C JUMPI PUSH2 0x350B PUSH2 0x4350 JUMP JUMPDEST JUMPDEST PUSH1 0x20 MUL ADD MLOAD DUP2 PUSH1 0x1 PUSH1 0x4 DUP2 LT PUSH2 0x3525 JUMPI PUSH2 0x3524 PUSH2 0x4350 JUMP JUMPDEST JUMPDEST PUSH1 0x20 MUL ADD SWAP1 PUSH1 0xFF AND SWAP1 DUP2 PUSH1 0xFF AND DUP2 MSTORE POP POP DUP3 PUSH1 0x3 PUSH1 0x4 DUP2 LT PUSH2 0x354A JUMPI PUSH2 0x3549 PUSH2 0x4350 JUMP JUMPDEST JUMPDEST PUSH1 0x20 MUL ADD MLOAD DUP2 PUSH1 0x2 PUSH1 0x4 DUP2 LT PUSH2 0x3563 JUMPI PUSH2 0x3562 PUSH2 0x4350 JUMP JUMPDEST JUMPDEST PUSH1 0x20 MUL ADD SWAP1 PUSH1 0xFF AND SWAP1 DUP2 PUSH1 0xFF AND DUP2 MSTORE POP POP DUP3 PUSH0 PUSH1 0x4 DUP2 LT PUSH2 0x3587 JUMPI PUSH2 0x3586 PUSH2 0x4350 JUMP JUMPDEST JUMPDEST PUSH1 0x20 MUL ADD MLOAD DUP2 PUSH1 0x3 PUSH1 0x4 DUP2 LT PUSH2 0x35A0 JUMPI PUSH2 0x359F PUSH2 0x4350 JUMP JUMPDEST JUMPDEST PUSH1 0x20 MUL ADD SWAP1 PUSH1 0xFF AND SWAP1 DUP2 PUSH1 0xFF AND DUP2 MSTORE POP POP DUP1 SWAP2 POP POP SWAP2 SWAP1 POP JUMP JUMPDEST PUSH2 0x35C2 PUSH2 0x38D1 JUMP JUMPDEST PUSH1 0x1 DUP3 PUSH0 PUSH1 0x4 DUP2 LT PUSH2 0x35D7 JUMPI PUSH2 0x35D6 PUSH2 0x4350 JUMP JUMPDEST JUMPDEST PUSH1 0x20 MUL ADD MLOAD PUSH1 0xFF AND PUSH2 0x100 DUP2 LT PUSH2 0x35F1 JUMPI PUSH2 0x35F0 PUSH2 0x4350 JUMP JUMPDEST JUMPDEST PUSH1 0x20 SWAP2 DUP3 DUP3 DIV ADD SWAP2 SWAP1 MOD SWAP1 SLOAD SWAP1 PUSH2 0x100 EXP SWAP1 DIV PUSH1 0xFF AND DUP3 PUSH0 PUSH1 0x4 DUP2 LT PUSH2 0x361A JUMPI PUSH2 0x3619 PUSH2 0x4350 JUMP JUMPDEST JUMPDEST PUSH1 0x20 MUL ADD SWAP1 PUSH1 0xFF AND SWAP1 DUP2 PUSH1 0xFF AND DUP2 MSTORE POP POP PUSH1 0x1 DUP3 PUSH1 0x1 PUSH1 0x4 DUP2 LT PUSH2 0x3641 JUMPI PUSH2 0x3640 PUSH2 0x4350 JUMP JUMPDEST JUMPDEST PUSH1 0x20 MUL ADD MLOAD PUSH1 0xFF AND PUSH2 0x100 DUP2 LT PUSH2 0x365B JUMPI PUSH2 0x365A PUSH2 0x4350 JUMP JUMPDEST JUMPDEST PUSH1 0x20 SWAP2 DUP3 DUP3 DIV ADD SWAP2 SWAP1 MOD SWAP1 SLOAD SWAP1 PUSH2 0x100 EXP SWAP1 DIV PUSH1 0xFF AND DUP3 PUSH1 0x1 PUSH1 0x4 DUP2 LT PUSH2 0x3685 JUMPI PUSH2 0x3684 PUSH2 0x4350 JUMP JUMPDEST JUMPDEST PUSH1 0x20 MUL ADD SWAP1 PUSH1 0xFF AND SWAP1 DUP2 PUSH1 0xFF AND DUP2 MSTORE POP POP PUSH1 0x1 DUP3 PUSH1 0x2 PUSH1 0x4 DUP2 LT PUSH2 0x36AC JUMPI PUSH2 0x36AB PUSH2 0x4350 JUMP JUMPDEST JUMPDEST PUSH1 0x20 MUL ADD MLOAD PUSH1 0xFF AND PUSH2 0x100 DUP2 LT PUSH2 0x36C6 JUMPI PUSH2 0x36C5 PUSH2 0x4350 JUMP JUMPDEST JUMPDEST PUSH1 0x20 SWAP2 DUP3 DUP3 DIV ADD SWAP2 SWAP1 MOD SWAP1 SLOAD SWAP1 PUSH2 0x100 EXP SWAP1 DIV PUSH1 0xFF AND DUP3 PUSH1 0x2 PUSH1 0x4 DUP2 LT PUSH2 0x36F0 JUMPI PUSH2 0x36EF PUSH2 0x4350 JUMP JUMPDEST JUMPDEST PUSH1 0x20 MUL ADD SWAP1 PUSH1 0xFF AND SWAP1 DUP2 PUSH1 0xFF AND DUP2 MSTORE POP POP PUSH1 0x1 DUP3 PUSH1 0x3 PUSH1 0x4 DUP2 LT PUSH2 0x3717 JUMPI PUSH2 0x3716 PUSH2 0x4350 JUMP JUMPDEST JUMPDEST PUSH1 0x20 MUL ADD MLOAD PUSH1 0xFF AND PUSH2 0x100 DUP2 LT PUSH2 0x3731 JUMPI PUSH2 0x3730 PUSH2 0x4350 JUMP JUMPDEST JUMPDEST PUSH1 0x20 SWAP2 DUP3 DUP3 DIV ADD SWAP2 SWAP1 MOD SWAP1 SLOAD SWAP1 PUSH2 0x100 EXP SWAP1 DIV PUSH1 0xFF AND DUP3 PUSH1 0x3 PUSH1 0x4 DUP2 LT PUSH2 0x375B JUMPI PUSH2 0x375A PUSH2 0x4350 JUMP JUMPDEST JUMPDEST PUSH1 0x20 MUL ADD SWAP1 PUSH1 0xFF AND SWAP1 DUP2 PUSH1 0xFF AND DUP2 MSTORE POP POP DUP2 SWAP1 POP SWAP2 SWAP1 POP JUMP JUMPDEST PUSH0 DUP1 DUP4 PUSH1 0xFF AND EQ DUP1 PUSH2 0x3788 JUMPI POP PUSH0 DUP3 PUSH1 0xFF AND EQ JUMPDEST ISZERO PUSH2 0x3795 JUMPI PUSH0 SWAP1 POP PUSH2 0x384D JUMP JUMPDEST PUSH0 PUSH1 0x11 DUP5 PUSH1 0xFF AND PUSH2 0x100 DUP2 LT PUSH2 0x37AE JUMPI PUSH2 0x37AD PUSH2 0x4350 JUMP JUMPDEST JUMPDEST PUSH1 0x20 SWAP2 DUP3 DUP3 DIV ADD SWAP2 SWAP1 MOD SWAP1 SLOAD SWAP1 PUSH2 0x100 EXP SWAP1 DIV PUSH1 0xFF AND PUSH1 0xFF AND SWAP1 POP PUSH0 PUSH1 0x11 DUP5 PUSH1 0xFF AND PUSH2 0x100 DUP2 LT PUSH2 0x37E2 JUMPI PUSH2 0x37E1 PUSH2 0x4350 JUMP JUMPDEST JUMPDEST PUSH1 0x20 SWAP2 DUP3 DUP3 DIV ADD SWAP2 SWAP1 MOD SWAP1 SLOAD SWAP1 PUSH2 0x100 EXP SWAP1 DIV PUSH1 0xFF AND PUSH1 0xFF AND SWAP1 POP PUSH0 PUSH1 0xFF DUP3 DUP5 PUSH2 0x380C SWAP2 SWAP1 PUSH2 0x4675 JUMP JUMPDEST PUSH2 0x3816 SWAP2 SWAP1 PUSH2 0x46AA JUMP JUMPDEST SWAP1 POP PUSH1 0x19 DUP2 PUSH2 0xFFFF AND PUSH2 0x100 DUP2 LT PUSH2 0x3831 JUMPI PUSH2 0x3830 PUSH2 0x4350 JUMP JUMPDEST JUMPDEST PUSH1 0x20 SWAP2 DUP3 DUP3 DIV ADD SWAP2 SWAP1 MOD SWAP1 SLOAD SWAP1 PUSH2 0x100 EXP SWAP1 DIV PUSH1 0xFF AND SWAP4 POP POP POP POP JUMPDEST SWAP3 SWAP2 POP POP JUMP JUMPDEST PUSH1 0x40 MLOAD DUP1 PUSH2 0x200 ADD PUSH1 0x40 MSTORE DUP1 PUSH1 0x10 SWAP1 PUSH1 0x20 DUP3 MUL DUP1 CALLDATASIZE DUP4 CALLDATACOPY DUP1 DUP3 ADD SWAP2 POP POP SWAP1 POP POP SWAP1 JUMP JUMPDEST PUSH1 0x40 MLOAD DUP1 PUSH2 0x580 ADD PUSH1 0x40 MSTORE DUP1 PUSH1 0x2C SWAP1 JUMPDEST PUSH2 0x388E PUSH2 0x38D1 JUMP JUMPDEST DUP2 MSTORE PUSH1 0x20 ADD SWAP1 PUSH1 0x1 SWAP1 SUB SWAP1 DUP2 PUSH2 0x3886 JUMPI SWAP1 POP POP SWAP1 JUMP JUMPDEST PUSH1 0x40 MLOAD DUP1 PUSH1 0x80 ADD PUSH1 0x40 MSTORE DUP1 PUSH1 0x4 SWAP1 JUMPDEST PUSH2 0x38BB PUSH2 0x38D1 JUMP JUMPDEST DUP2 MSTORE PUSH1 0x20 ADD SWAP1 PUSH1 0x1 SWAP1 SUB SWAP1 DUP2 PUSH2 0x38B3 JUMPI SWAP1 POP POP SWAP1 JUMP JUMPDEST PUSH1 0x40 MLOAD DUP1 PUSH1 0x80 ADD PUSH1 0x40 MSTORE DUP1 PUSH1 0x4 SWAP1 PUSH1 0x20 DUP3 MUL DUP1 CALLDATASIZE DUP4 CALLDATACOPY DUP1 DUP3 ADD SWAP2 POP POP SWAP1 POP POP SWAP1 JUMP JUMPDEST PUSH0 PUSH1 0x40 MLOAD SWAP1 POP SWAP1 JUMP JUMPDEST PUSH0 DUP1 REVERT JUMPDEST PUSH0 DUP1 REVERT JUMPDEST PUSH0 DUP1 REVERT JUMPDEST PUSH0 DUP1 REVERT JUMPDEST PUSH0 PUSH1 0x1F NOT PUSH1 0x1F DUP4 ADD AND SWAP1 POP SWAP2 SWAP1 POP JUMP JUMPDEST PUSH32 0x4E487B7100000000000000000000000000000000000000000000000000000000 PUSH0 MSTORE PUSH1 0x41 PUSH1 0x4 MSTORE PUSH1 0x24 PUSH0 REVERT JUMPDEST PUSH2 0x3952 DUP3 PUSH2 0x390C JUMP JUMPDEST DUP2 ADD DUP2 DUP2 LT PUSH8 0xFFFFFFFFFFFFFFFF DUP3 GT OR ISZERO PUSH2 0x3971 JUMPI PUSH2 0x3970 PUSH2 0x391C JUMP JUMPDEST JUMPDEST DUP1 PUSH1 0x40 MSTORE POP POP POP JUMP JUMPDEST PUSH0 PUSH2 0x3983 PUSH2 0x38F3 JUMP JUMPDEST SWAP1 POP PUSH2 0x398F DUP3 DUP3 PUSH2 0x3949 JUMP JUMPDEST SWAP2 SWAP1 POP JUMP JUMPDEST PUSH0 PUSH8 0xFFFFFFFFFFFFFFFF DUP3 GT ISZERO PUSH2 0x39AE JUMPI PUSH2 0x39AD PUSH2 0x391C JUMP JUMPDEST JUMPDEST PUSH2 0x39B7 DUP3 PUSH2 0x390C JUMP JUMPDEST SWAP1 POP PUSH1 0x20 DUP2 ADD SWAP1 POP SWAP2 SWAP1 POP JUMP JUMPDEST DUP3 DUP2 DUP4 CALLDATACOPY PUSH0 DUP4 DUP4 ADD MSTORE POP POP POP JUMP JUMPDEST PUSH0 PUSH2 0x39E4 PUSH2 0x39DF DUP5 PUSH2 0x3994 JUMP JUMPDEST PUSH2 0x397A JUMP JUMPDEST SWAP1 POP DUP3 DUP2 MSTORE PUSH1 0x20 DUP2 ADD DUP5 DUP5 DUP5 ADD GT ISZERO PUSH2 0x3A00 JUMPI PUSH2 0x39FF PUSH2 0x3908 JUMP JUMPDEST JUMPDEST PUSH2 0x3A0B DUP5 DUP3 DUP6 PUSH2 0x39C4 JUMP JUMPDEST POP SWAP4 SWAP3 POP POP POP JUMP JUMPDEST PUSH0 DUP3 PUSH1 0x1F DUP4 ADD SLT PUSH2 0x3A27 JUMPI PUSH2 0x3A26 PUSH2 0x3904 JUMP JUMPDEST JUMPDEST DUP2 CALLDATALOAD PUSH2 0x3A37 DUP5 DUP3 PUSH1 0x20 DUP7 ADD PUSH2 0x39D2 JUMP JUMPDEST SWAP2 POP POP SWAP3 SWAP2 POP POP JUMP JUMPDEST PUSH0 PUSH1 0x20 DUP3 DUP5 SUB SLT ISZERO PUSH2 0x3A55 JUMPI PUSH2 0x3A54 PUSH2 0x38FC JUMP JUMPDEST JUMPDEST PUSH0 DUP3 ADD CALLDATALOAD PUSH8 0xFFFFFFFFFFFFFFFF DUP2 GT ISZERO PUSH2 0x3A72 JUMPI PUSH2 0x3A71 PUSH2 0x3900 JUMP JUMPDEST JUMPDEST PUSH2 0x3A7E DUP5 DUP3 DUP6 ADD PUSH2 0x3A13 JUMP JUMPDEST SWAP2 POP POP SWAP3 SWAP2 POP POP JUMP JUMPDEST PUSH0 DUP2 MLOAD SWAP1 POP SWAP2 SWAP1 POP JUMP JUMPDEST PUSH0 DUP3 DUP3 MSTORE PUSH1 0x20 DUP3 ADD SWAP1 POP SWAP3 SWAP2 POP POP JUMP JUMPDEST PUSH0 DUP2 SWAP1 POP PUSH1 0x20 DUP3 ADD SWAP1 POP SWAP2 SWAP1 POP JUMP JUMPDEST PUSH0 PUSH16 0xFFFFFFFFFFFFFFFFFFFFFFFFFFFFFFFF DUP3 AND SWAP1 POP SWAP2 SWAP1 POP JUMP JUMPDEST PUSH2 0x3AD4 DUP2 PUSH2 0x3AB0 JUMP JUMPDEST DUP3 MSTORE POP POP JUMP JUMPDEST PUSH0 PUSH2 0x3AE5 DUP4 DUP4 PUSH2 0x3ACB JUMP JUMPDEST PUSH1 0x20 DUP4 ADD SWAP1 POP SWAP3 SWAP2 POP POP JUMP JUMPDEST PUSH0 PUSH1 0x20 DUP3 ADD SWAP1 POP SWAP2 SWAP1 POP JUMP JUMPDEST PUSH0 PUSH2 0x3B07 DUP3 PUSH2 0x3A87 JUMP JUMPDEST PUSH2 0x3B11 DUP2 DUP6 PUSH2 0x3A91 JUMP JUMPDEST SWAP4 POP PUSH2 0x3B1C DUP4 PUSH2 0x3AA1 JUMP JUMPDEST DUP1 PUSH0 JUMPDEST DUP4 DUP2 LT ISZERO PUSH2 0x3B4C JUMPI DUP2 MLOAD PUSH2 0x3B33 DUP9 DUP3 PUSH2 0x3ADA JUMP JUMPDEST SWAP8 POP PUSH2 0x3B3E DUP4 PUSH2 0x3AF1 JUMP JUMPDEST SWAP3 POP POP PUSH1 0x1 DUP2 ADD SWAP1 POP PUSH2 0x3B1F JUMP JUMPDEST POP DUP6 SWAP4 POP POP POP POP SWAP3 SWAP2 POP POP JUMP JUMPDEST PUSH0 PUSH1 0x20 DUP3 ADD SWAP1 POP DUP2 DUP2 SUB PUSH0 DUP4 ADD MSTORE PUSH2 0x3B71 DUP2 DUP5 PUSH2 0x3AFD JUMP JUMPDEST SWAP1 POP SWAP3 SWAP2 POP POP JUMP JUMPDEST PUSH0 DUP1 PUSH0 DUP1 PUSH0 PUSH1 0xA0 DUP7 DUP9 SUB SLT ISZERO PUSH2 0x3B92 JUMPI PUSH2 0x3B91 PUSH2 0x38FC JUMP JUMPDEST JUMPDEST PUSH0 DUP7 ADD CALLDATALOAD PUSH8 0xFFFFFFFFFFFFFFFF DUP2 GT ISZERO PUSH2 0x3BAF JUMPI PUSH2 0x3BAE PUSH2 0x3900 JUMP JUMPDEST JUMPDEST PUSH2 0x3BBB DUP9 DUP3 DUP10 ADD PUSH2 0x3A13 JUMP JUMPDEST SWAP6 POP POP PUSH1 0x20 DUP7 ADD CALLDATALOAD PUSH8 0xFFFFFFFFFFFFFFFF DUP2 GT ISZERO PUSH2 0x3BDC JUMPI PUSH2 0x3BDB PUSH2 0x3900 JUMP JUMPDEST JUMPDEST PUSH2 0x3BE8 DUP9 DUP3 DUP10 ADD PUSH2 0x3A13 JUMP JUMPDEST SWAP5 POP POP PUSH1 0x40 DUP7 ADD CALLDATALOAD PUSH8 0xFFFFFFFFFFFFFFFF DUP2 GT ISZERO PUSH2 0x3C09 JUMPI PUSH2 0x3C08 PUSH2 0x3900 JUMP JUMPDEST JUMPDEST PUSH2 0x3C15 DUP9 DUP3 DUP10 ADD PUSH2 0x3A13 JUMP JUMPDEST SWAP4 POP POP PUSH1 0x60 DUP7 ADD CALLDATALOAD PUSH8 0xFFFFFFFFFFFFFFFF DUP2 GT ISZERO PUSH2 0x3C36 JUMPI PUSH2 0x3C35 PUSH2 0x3900 JUMP JUMPDEST JUMPDEST PUSH2 0x3C42 DUP9 DUP3 DUP10 ADD PUSH2 0x3A13 JUMP JUMPDEST SWAP3 POP POP PUSH1 0x80 DUP7 ADD CALLDATALOAD PUSH8 0xFFFFFFFFFFFFFFFF DUP2 GT ISZERO PUSH2 0x3C63 JUMPI PUSH2 0x3C62 PUSH2 0x3900 JUMP JUMPDEST JUMPDEST PUSH2 0x3C6F DUP9 DUP3 DUP10 ADD PUSH2 0x3A13 JUMP JUMPDEST SWAP2 POP POP SWAP3 SWAP6 POP SWAP3 SWAP6 SWAP1 SWAP4 POP JUMP JUMPDEST PUSH0 DUP2 MLOAD SWAP1 POP SWAP2 SWAP1 POP JUMP JUMPDEST PUSH0 DUP3 DUP3 MSTORE PUSH1 0x20 DUP3 ADD SWAP1 POP SWAP3 SWAP2 POP POP JUMP JUMPDEST DUP3 DUP2 DUP4 MCOPY PUSH0 DUP4 DUP4 ADD MSTORE POP POP POP JUMP JUMPDEST PUSH0 PUSH2 0x3CAE DUP3 PUSH2 0x3C7C JUMP JUMPDEST PUSH2 0x3CB8 DUP2 DUP6 PUSH2 0x3C86 JUMP JUMPDEST SWAP4 POP PUSH2 0x3CC8 DUP2 DUP6 PUSH1 0x20 DUP7 ADD PUSH2 0x3C96 JUMP JUMPDEST PUSH2 0x3CD1 DUP2 PUSH2 0x390C JUMP JUMPDEST DUP5 ADD SWAP2 POP POP SWAP3 SWAP2 POP POP JUMP JUMPDEST PUSH0 PUSH1 0x20 DUP3 ADD SWAP1 POP DUP2 DUP2 SUB PUSH0 DUP4 ADD MSTORE PUSH2 0x3CF4 DUP2 DUP5 PUSH2 0x3CA4 JUMP JUMPDEST SWAP1 POP SWAP3 SWAP2 POP POP JUMP JUMPDEST PUSH0 PUSH8 0xFFFFFFFFFFFFFFFF DUP3 GT ISZERO PUSH2 0x3D16 JUMPI PUSH2 0x3D15 PUSH2 0x391C JUMP JUMPDEST JUMPDEST PUSH1 0x20 DUP3 MUL SWAP1 POP PUSH1 0x20 DUP2 ADD SWAP1 POP SWAP2 SWAP1 POP JUMP JUMPDEST PUSH0 DUP1 REVERT JUMPDEST PUSH2 0x3D34 DUP2 PUSH2 0x3AB0 JUMP JUMPDEST DUP2 EQ PUSH2 0x3D3E JUMPI PUSH0 DUP1 REVERT JUMPDEST POP JUMP JUMPDEST PUSH0 DUP2 CALLDATALOAD SWAP1 POP PUSH2 0x3D4F DUP2 PUSH2 0x3D2B JUMP JUMPDEST SWAP3 SWAP2 POP POP JUMP JUMPDEST PUSH0 PUSH2 0x3D67 PUSH2 0x3D62 DUP5 PUSH2 0x3CFC JUMP JUMPDEST PUSH2 0x397A JUMP JUMPDEST SWAP1 POP DUP1 DUP4 DUP3 MSTORE PUSH1 0x20 DUP3 ADD SWAP1 POP PUSH1 0x20 DUP5 MUL DUP4 ADD DUP6 DUP2 GT ISZERO PUSH2 0x3D8A JUMPI PUSH2 0x3D89 PUSH2 0x3D27 JUMP JUMPDEST JUMPDEST DUP4 JUMPDEST DUP2 DUP2 LT ISZERO PUSH2 0x3DB3 JUMPI DUP1 PUSH2 0x3D9F DUP9 DUP3 PUSH2 0x3D41 JUMP JUMPDEST DUP5 MSTORE PUSH1 0x20 DUP5 ADD SWAP4 POP POP PUSH1 0x20 DUP2 ADD SWAP1 POP PUSH2 0x3D8C JUMP JUMPDEST POP POP POP SWAP4 SWAP3 POP POP POP JUMP JUMPDEST PUSH0 DUP3 PUSH1 0x1F DUP4 ADD SLT PUSH2 0x3DD1 JUMPI PUSH2 0x3DD0 PUSH2 0x3904 JUMP JUMPDEST JUMPDEST DUP2 CALLDATALOAD PUSH2 0x3DE1 DUP5 DUP3 PUSH1 0x20 DUP7 ADD PUSH2 0x3D55 JUMP JUMPDEST SWAP2 POP POP SWAP3 SWAP2 POP POP JUMP JUMPDEST PUSH0 PUSH1 0x20 DUP3 DUP5 SUB SLT ISZERO PUSH2 0x3DFF JUMPI PUSH2 0x3DFE PUSH2 0x38FC JUMP JUMPDEST JUMPDEST PUSH0 DUP3 ADD CALLDATALOAD PUSH8 0xFFFFFFFFFFFFFFFF DUP2 GT ISZERO PUSH2 0x3E1C JUMPI PUSH2 0x3E1B PUSH2 0x3900 JUMP JUMPDEST JUMPDEST PUSH2 0x3E28 DUP5 DUP3 DUP6 ADD PUSH2 0x3DBD JUMP JUMPDEST SWAP2 POP POP SWAP3 SWAP2 POP POP JUMP JUMPDEST PUSH0 DUP1 PUSH1 0x40 DUP4 DUP6 SUB SLT ISZERO PUSH2 0x3E47 JUMPI PUSH2 0x3E46 PUSH2 0x38FC JUMP JUMPDEST JUMPDEST PUSH0 PUSH2 0x3E54 DUP6 DUP3 DUP7 ADD PUSH2 0x3D41 JUMP JUMPDEST SWAP3 POP POP PUSH1 0x20 PUSH2 0x3E65 DUP6 DUP3 DUP7 ADD PUSH2 0x3D41 JUMP JUMPDEST SWAP2 POP POP SWAP3 POP SWAP3 SWAP1 POP JUMP JUMPDEST PUSH2 0x3E78 DUP2 PUSH2 0x3AB0 JUMP JUMPDEST DUP3 MSTORE POP POP JUMP JUMPDEST PUSH0 PUSH1 0x20 DUP3 ADD SWAP1 POP PUSH2 0x3E91 PUSH0 DUP4 ADD DUP5 PUSH2 0x3E6F JUMP JUMPDEST SWAP3 SWAP2 POP POP JUMP JUMPDEST PUSH0 PUSH8 0xFFFFFFFFFFFFFFFF DUP3 GT ISZERO PUSH2 0x3EB1 JUMPI PUSH2 0x3EB0 PUSH2 0x391C JUMP JUMPDEST JUMPDEST PUSH1 0x20 DUP3 MUL SWAP1 POP SWAP2 SWAP1 POP JUMP JUMPDEST PUSH0 PUSH1 0xFF DUP3 AND SWAP1 POP SWAP2 SWAP1 POP JUMP JUMPDEST PUSH2 0x3ED1 DUP2 PUSH2 0x3EBC JUMP JUMPDEST DUP2 EQ PUSH2 0x3EDB JUMPI PUSH0 DUP1 REVERT JUMPDEST POP JUMP JUMPDEST PUSH0 DUP2 CALLDATALOAD SWAP1 POP PUSH2 0x3EEC DUP2 PUSH2 0x3EC8 JUMP JUMPDEST SWAP3 SWAP2 POP POP JUMP JUMPDEST PUSH0 PUSH2 0x3F04 PUSH2 0x3EFF DUP5 PUSH2 0x3E97 JUMP JUMPDEST PUSH2 0x397A JUMP JUMPDEST SWAP1 POP DUP1 PUSH1 0x20 DUP5 MUL DUP4 ADD DUP6 DUP2 GT ISZERO PUSH2 0x3F1E JUMPI PUSH2 0x3F1D PUSH2 0x3D27 JUMP JUMPDEST JUMPDEST DUP4 JUMPDEST DUP2 DUP2 LT ISZERO PUSH2 0x3F47 JUMPI DUP1 PUSH2 0x3F33 DUP9 DUP3 PUSH2 0x3EDE JUMP JUMPDEST DUP5 MSTORE PUSH1 0x20 DUP5 ADD SWAP4 POP POP PUSH1 0x20 DUP2 ADD SWAP1 POP PUSH2 0x3F20 JUMP JUMPDEST POP POP POP SWAP4 SWAP3 POP POP POP JUMP JUMPDEST PUSH0 DUP3 PUSH1 0x1F DUP4 ADD SLT PUSH2 0x3F65 JUMPI PUSH2 0x3F64 PUSH2 0x3904 JUMP JUMPDEST JUMPDEST PUSH1 0x10 PUSH2 0x3F72 DUP5 DUP3 DUP6 PUSH2 0x3EF2 JUMP JUMPDEST SWAP2 POP POP SWAP3 SWAP2 POP POP JUMP JUMPDEST PUSH0 DUP1 PUSH2 0x400 DUP4 DUP6 SUB SLT ISZERO PUSH2 0x3F92 JUMPI PUSH2 0x3F91 PUSH2 0x38FC JUMP JUMPDEST JUMPDEST PUSH0 PUSH2 0x3F9F DUP6 DUP3 DUP7 ADD PUSH2 0x3F51 JUMP JUMPDEST SWAP3 POP POP PUSH2 0x200 PUSH2 0x3FB1 DUP6 DUP3 DUP7 ADD PUSH2 0x3F51 JUMP JUMPDEST SWAP2 POP POP SWAP3 POP SWAP3 SWAP1 POP JUMP JUMPDEST PUSH0 PUSH1 0x10 SWAP1 POP SWAP2 SWAP1 POP JUMP JUMPDEST PUSH0 DUP2 SWAP1 POP SWAP3 SWAP2 POP POP JUMP JUMPDEST PUSH0 DUP2 SWAP1 POP SWAP2 SWAP1 POP JUMP JUMPDEST PUSH2 0x3FE1 DUP2 PUSH2 0x3EBC JUMP JUMPDEST DUP3 MSTORE POP POP JUMP JUMPDEST PUSH0 PUSH2 0x3FF2 DUP4 DUP4 PUSH2 0x3FD8 JUMP JUMPDEST PUSH1 0x20 DUP4 ADD SWAP1 POP SWAP3 SWAP2 POP POP JUMP JUMPDEST PUSH0 PUSH1 0x20 DUP3 ADD SWAP1 POP SWAP2 SWAP1 POP JUMP JUMPDEST PUSH2 0x4013 DUP2 PUSH2 0x3FBB JUMP JUMPDEST PUSH2 0x401D DUP2 DUP5 PUSH2 0x3FC5 JUMP JUMPDEST SWAP3 POP PUSH2 0x4028 DUP3 PUSH2 0x3FCF JUMP JUMPDEST DUP1 PUSH0 JUMPDEST DUP4 DUP2 LT ISZERO PUSH2 0x4058 JUMPI DUP2 MLOAD PUSH2 0x403F DUP8 DUP3 PUSH2 0x3FE7 JUMP JUMPDEST SWAP7 POP PUSH2 0x404A DUP4 PUSH2 0x3FFE JUMP JUMPDEST SWAP3 POP POP PUSH1 0x1 DUP2 ADD SWAP1 POP PUSH2 0x402B JUMP JUMPDEST POP POP POP POP POP POP JUMP JUMPDEST PUSH0 PUSH2 0x200 DUP3 ADD SWAP1 POP PUSH2 0x4074 PUSH0 DUP4 ADD DUP5 PUSH2 0x400A JUMP JUMPDEST SWAP3 SWAP2 POP POP JUMP JUMPDEST PUSH0 PUSH2 0x200 DUP3 DUP5 SUB SLT ISZERO PUSH2 0x4090 JUMPI PUSH2 0x408F PUSH2 0x38FC JUMP JUMPDEST JUMPDEST PUSH0 PUSH2 0x409D DUP5 DUP3 DUP6 ADD PUSH2 0x3F51 JUMP JUMPDEST SWAP2 POP POP SWAP3 SWAP2 POP POP JUMP JUMPDEST PUSH0 PUSH1 0x20 DUP3 DUP5 SUB SLT ISZERO PUSH2 0x40BB JUMPI PUSH2 0x40BA PUSH2 0x38FC JUMP JUMPDEST JUMPDEST PUSH0 PUSH2 0x40C8 DUP5 DUP3 DUP6 ADD PUSH2 0x3D41 JUMP JUMPDEST SWAP2 POP POP SWAP3 SWAP2 POP POP JUMP JUMPDEST PUSH0 DUP2 SWAP1 POP SWAP2 SWAP1 POP JUMP JUMPDEST PUSH32 0x4E487B7100000000000000000000000000000000000000000000000000000000 PUSH0 MSTORE PUSH1 0x12 PUSH1 0x4 MSTORE PUSH1 0x24 PUSH0 REVERT JUMPDEST PUSH0 PUSH2 0x4111 DUP3 PUSH2 0x40D1 JUMP JUMPDEST SWAP2 POP PUSH2 0x411C DUP4 PUSH2 0x40D1 JUMP JUMPDEST SWAP3 POP DUP3 PUSH2 0x412C JUMPI PUSH2 0x412B PUSH2 0x40DA JUMP JUMPDEST JUMPDEST DUP3 DUP3 MOD SWAP1 POP SWAP3 SWAP2 POP POP JUMP JUMPDEST PUSH32 0x4E487B7100000000000000000000000000000000000000000000000000000000 PUSH0 MSTORE PUSH1 0x11 PUSH1 0x4 MSTORE PUSH1 0x24 PUSH0 REVERT JUMPDEST PUSH0 PUSH2 0x416E DUP3 PUSH2 0x40D1 JUMP JUMPDEST SWAP2 POP PUSH2 0x4179 DUP4 PUSH2 0x40D1 JUMP JUMPDEST SWAP3 POP DUP3 DUP3 SUB SWAP1 POP DUP2 DUP2 GT ISZERO PUSH2 0x4191 JUMPI PUSH2 0x4190 PUSH2 0x4137 JUMP JUMPDEST JUMPDEST SWAP3 SWAP2 POP POP JUMP JUMPDEST PUSH0 DUP2 SWAP1 POP SWAP3 SWAP2 POP POP JUMP JUMPDEST PUSH0 PUSH2 0x41AB DUP3 PUSH2 0x3C7C JUMP JUMPDEST PUSH2 0x41B5 DUP2 DUP6 PUSH2 0x4197 JUMP JUMPDEST SWAP4 POP PUSH2 0x41C5 DUP2 DUP6 PUSH1 0x20 DUP7 ADD PUSH2 0x3C96 JUMP JUMPDEST DUP1 DUP5 ADD SWAP2 POP POP SWAP3 SWAP2 POP POP JUMP JUMPDEST PUSH0 DUP2 MSTORE POP JUMP JUMPDEST PUSH0 PUSH2 0x41E2 DUP3 DUP5 PUSH2 0x41A1 JUMP JUMPDEST SWAP2 POP PUSH2 0x41ED DUP3 PUSH2 0x41D1 JUMP JUMPDEST PUSH1 0x1 DUP3 ADD SWAP2 POP DUP2 SWAP1 POP SWAP3 SWAP2 POP POP JUMP JUMPDEST PUSH0 PUSH2 0x4207 DUP3 DUP6 PUSH2 0x41A1 JUMP JUMPDEST SWAP2 POP PUSH2 0x4213 DUP3 DUP5 PUSH2 0x41A1 JUMP JUMPDEST SWAP2 POP DUP2 SWAP1 POP SWAP4 SWAP3 POP POP POP JUMP JUMPDEST PUSH0 PUSH2 0x4229 DUP3 PUSH2 0x40D1 JUMP JUMPDEST SWAP2 POP PUSH2 0x4234 DUP4 PUSH2 0x40D1 JUMP JUMPDEST SWAP3 POP DUP3 PUSH2 0x4244 JUMPI PUSH2 0x4243 PUSH2 0x40DA JUMP JUMPDEST JUMPDEST DUP3 DUP3 DIV SWAP1 POP SWAP3 SWAP2 POP POP JUMP JUMPDEST PUSH0 PUSH2 0x4259 DUP3 PUSH2 0x40D1 JUMP JUMPDEST SWAP2 POP PUSH2 0x4264 DUP4 PUSH2 0x40D1 JUMP JUMPDEST SWAP3 POP DUP3 DUP3 MUL PUSH2 0x4272 DUP2 PUSH2 0x40D1 JUMP JUMPDEST SWAP2 POP DUP3 DUP3 DIV DUP5 EQ DUP4 ISZERO OR PUSH2 0x4289 JUMPI PUSH2 0x4288 PUSH2 0x4137 JUMP JUMPDEST JUMPDEST POP SWAP3 SWAP2 POP POP JUMP JUMPDEST PUSH0 DUP2 SWAP1 POP PUSH1 0x20 DUP3 ADD SWAP1 POP SWAP2 SWAP1 POP JUMP JUMPDEST PUSH0 PUSH32 0xFFFFFFFFFFFFFFFFFFFFFFFFFFFFFFFF00000000000000000000000000000000 DUP3 AND SWAP1 POP SWAP2 SWAP1 POP JUMP JUMPDEST PUSH0 PUSH2 0x42D5 DUP3 MLOAD PUSH2 0x429F JUMP JUMPDEST DUP1 SWAP2 POP POP SWAP2 SWAP1 POP JUMP JUMPDEST PUSH0 DUP3 DUP3 SHL SWAP1 POP SWAP3 SWAP2 POP POP JUMP JUMPDEST PUSH0 PUSH2 0x42F4 DUP3 PUSH2 0x3C7C JUMP JUMPDEST DUP3 PUSH2 0x42FE DUP5 PUSH2 0x4290 JUMP JUMPDEST SWAP1 POP PUSH2 0x4309 DUP2 PUSH2 0x42CA JUMP JUMPDEST SWAP3 POP PUSH1 0x10 DUP3 LT ISZERO PUSH2 0x4349 JUMPI PUSH2 0x4344 PUSH32 0xFFFFFFFFFFFFFFFFFFFFFFFFFFFFFFFF00000000000000000000000000000000 DUP4 PUSH1 0x10 SUB PUSH1 0x8 MUL PUSH2 0x42DE JUMP JUMPDEST DUP4 AND SWAP3 POP JUMPDEST POP POP SWAP2 SWAP1 POP JUMP JUMPDEST PUSH32 0x4E487B7100000000000000000000000000000000000000000000000000000000 PUSH0 MSTORE PUSH1 0x32 PUSH1 0x4 MSTORE PUSH1 0x24 PUSH0 REVERT JUMPDEST PUSH0 PUSH2 0x4387 DUP3 PUSH2 0x40D1 JUMP JUMPDEST SWAP2 POP PUSH2 0x4392 DUP4 PUSH2 0x40D1 JUMP JUMPDEST SWAP3 POP DUP3 DUP3 ADD SWAP1 POP DUP1 DUP3 GT ISZERO PUSH2 0x43AA JUMPI PUSH2 0x43A9 PUSH2 0x4137 JUMP JUMPDEST JUMPDEST SWAP3 SWAP2 POP POP JUMP JUMPDEST PUSH0 PUSH2 0x43BA DUP3 PUSH2 0x3AB0 JUMP JUMPDEST SWAP2 POP PUSH2 0x43C5 DUP4 PUSH2 0x3AB0 JUMP JUMPDEST SWAP3 POP DUP3 DUP3 ADD SWAP1 POP PUSH16 0xFFFFFFFFFFFFFFFFFFFFFFFFFFFFFFFF DUP2 GT ISZERO PUSH2 0x43ED JUMPI PUSH2 0x43EC PUSH2 0x4137 JUMP JUMPDEST JUMPDEST SWAP3 SWAP2 POP POP JUMP JUMPDEST PUSH0 DUP3 DUP3 MSTORE PUSH1 0x20 DUP3 ADD SWAP1 POP SWAP3 SWAP2 POP POP JUMP JUMPDEST PUSH32 0x696E76616C696420617574682074616700000000000000000000000000000000 PUSH0 DUP3 ADD MSTORE POP JUMP JUMPDEST PUSH0 PUSH2 0x4437 PUSH1 0x10 DUP4 PUSH2 0x43F3 JUMP JUMPDEST SWAP2 POP PUSH2 0x4442 DUP3 PUSH2 0x4403 JUMP JUMPDEST PUSH1 0x20 DUP3 ADD SWAP1 POP SWAP2 SWAP1 POP JUMP JUMPDEST PUSH0 PUSH1 0x20 DUP3 ADD SWAP1 POP DUP2 DUP2 SUB PUSH0 DUP4 ADD MSTORE PUSH2 0x4464 DUP2 PUSH2 0x442B JUMP JUMPDEST SWAP1 POP SWAP2 SWAP1 POP JUMP JUMPDEST PUSH0 PUSH2 0x4475 DUP3 PUSH2 0x3AB0 JUMP JUMPDEST SWAP2 POP PUSH16 0xFFFFFFFFFFFFFFFFFFFFFFFFFFFFFFFF DUP3 SUB PUSH2 0x4497 JUMPI PUSH2 0x4496 PUSH2 0x4137 JUMP JUMPDEST JUMPDEST PUSH1 0x1 DUP3 ADD SWAP1 POP SWAP2 SWAP1 POP JUMP JUMPDEST PUSH0 DUP2 SWAP1 POP SWAP2 SWAP1 POP JUMP JUMPDEST PUSH2 0x44BC PUSH2 0x44B7 DUP3 PUSH2 0x429F JUMP JUMPDEST PUSH2 0x44A2 JUMP JUMPDEST DUP3 MSTORE POP POP JUMP JUMPDEST PUSH0 PUSH2 0x44CD DUP3 DUP5 PUSH2 0x44AB JUMP JUMPDEST PUSH1 0x10 DUP3 ADD SWAP2 POP DUP2 SWAP1 POP SWAP3 SWAP2 POP POP JUMP JUMPDEST PUSH0 DUP2 PUSH1 0x80 SHL SWAP1 POP SWAP2 SWAP1 POP JUMP JUMPDEST PUSH0 PUSH2 0x44F2 DUP3 PUSH2 0x44DC JUMP JUMPDEST SWAP1 POP SWAP2 SWAP1 POP JUMP JUMPDEST PUSH2 0x450A PUSH2 0x4505 DUP3 PUSH2 0x3AB0 JUMP JUMPDEST PUSH2 0x44E8 JUMP JUMPDEST DUP3 MSTORE POP POP JUMP JUMPDEST PUSH0 PUSH2 0x451B DUP3 DUP5 PUSH2 0x44F9 JUMP JUMPDEST PUSH1 0x10 DUP3 ADD SWAP2 POP DUP2 SWAP1 POP SWAP3 SWAP2 POP POP JUMP JUMPDEST PUSH0 PUSH2 0x4534 DUP3 PUSH2 0x40D1 JUMP JUMPDEST SWAP2 POP PUSH0 DUP3 SUB PUSH2 0x4546 JUMPI PUSH2 0x4545 PUSH2 0x4137 JUMP JUMPDEST JUMPDEST PUSH1 0x1 DUP3 SUB SWAP1 POP SWAP2 SWAP1 POP JUMP JUMPDEST PUSH0 PUSH2 0x455B DUP3 PUSH2 0x40D1 JUMP JUMPDEST SWAP2 POP PUSH32 0xFFFFFFFFFFFFFFFFFFFFFFFFFFFFFFFFFFFFFFFFFFFFFFFFFFFFFFFFFFFFFFFF DUP3 SUB PUSH2 0x458D JUMPI PUSH2 0x458C PUSH2 0x4137 JUMP JUMPDEST JUMPDEST PUSH1 0x1 DUP3 ADD SWAP1 POP SWAP2 SWAP1 POP JUMP JUMPDEST PUSH32 0x736C6963655F6F766572666C6F77000000000000000000000000000000000000 PUSH0 DUP3 ADD MSTORE POP JUMP JUMPDEST PUSH0 PUSH2 0x45CC PUSH1 0xE DUP4 PUSH2 0x43F3 JUMP JUMPDEST SWAP2 POP PUSH2 0x45D7 DUP3 PUSH2 0x4598 JUMP JUMPDEST PUSH1 0x20 DUP3 ADD SWAP1 POP SWAP2 SWAP1 POP JUMP JUMPDEST PUSH0 PUSH1 0x20 DUP3 ADD SWAP1 POP DUP2 DUP2 SUB PUSH0 DUP4 ADD MSTORE PUSH2 0x45F9 DUP2 PUSH2 0x45C0 JUMP JUMPDEST SWAP1 POP SWAP2 SWAP1 POP JUMP JUMPDEST PUSH32 0x736C6963655F6F75744F66426F756E6473000000000000000000000000000000 PUSH0 DUP3 ADD MSTORE POP JUMP JUMPDEST PUSH0 PUSH2 0x4634 PUSH1 0x11 DUP4 PUSH2 0x43F3 JUMP JUMPDEST SWAP2 POP PUSH2 0x463F DUP3 PUSH2 0x4600 JUMP JUMPDEST PUSH1 0x20 DUP3 ADD SWAP1 POP SWAP2 SWAP1 POP JUMP JUMPDEST PUSH0 PUSH1 0x20 DUP3 ADD SWAP1 POP DUP2 DUP2 SUB PUSH0 DUP4 ADD MSTORE PUSH2 0x4661 DUP2 PUSH2 0x4628 JUMP JUMPDEST SWAP1 POP SWAP2 SWAP1 POP JUMP JUMPDEST PUSH0 PUSH2 0xFFFF DUP3 AND SWAP1 POP SWAP2 SWAP1 POP JUMP JUMPDEST PUSH0 PUSH2 0x467F DUP3 PUSH2 0x4668 JUMP JUMPDEST SWAP2 POP PUSH2 0x468A DUP4 PUSH2 0x4668 JUMP JUMPDEST SWAP3 POP DUP3 DUP3 ADD SWAP1 POP PUSH2 0xFFFF DUP2 GT ISZERO PUSH2 0x46A4 JUMPI PUSH2 0x46A3 PUSH2 0x4137 JUMP JUMPDEST JUMPDEST SWAP3 SWAP2 POP POP JUMP JUMPDEST PUSH0 PUSH2 0x46B4 DUP3 PUSH2 0x4668 JUMP JUMPDEST SWAP2 POP PUSH2 0x46BF DUP4 PUSH2 0x4668 JUMP JUMPDEST SWAP3 POP DUP3 PUSH2 0x46CF JUMPI PUSH2 0x46CE PUSH2 0x40DA JUMP JUMPDEST JUMPDEST DUP3 DUP3 MOD SWAP1 POP SWAP3 SWAP2 POP POP JUMP INVALID LOG2 PUSH5 0x6970667358 0x22 SLT KECCAK256 SWAP11 SAR LOG3 SWAP5 EXTCODESIZE 0xDD 0xB1 0x2F TIMESTAMP DUP7 DUP14 SWAP5 0xB8 DUP14 0x23 TLOAD PUSH1 0x22 0xDA MSTORE 0xCE DUP15 DUP5 DUP14 0xD5 OR PUSH17 0x26F793547D64736F6C634300081A003300 "
		},
		"gasEstimates": {
			"creation": {
				"codeDepositCost": "3638400",
				"executionCost": "infinite",
				"totalCost": "infinite"
			},
			"external": {
				"aes_dec(uint8[16],uint8[16])": "infinite",
				"aes_enc(uint8[16],uint8[16])": "infinite",
				"aes_gcm_dec(bytes,bytes,bytes,bytes,bytes)": "infinite",
				"bytes_to_uint128_array_w_padding(bytes)": "infinite",
				"test_galois_mul(uint128,uint128)": "infinite",
				"uint128_array_to_bytes(uint128[])": "infinite",
				"uint128_to_uint8_array(uint128)": "infinite",
				"uint8_array_to_uint128(uint8[16])": "infinite"
			},
			"internal": {
				"add_round_key(uint8[4] memory[4] memory,uint8[4] memory[4] memory)": "infinite",
				"expand_key(uint8[16] memory)": "infinite",
				"gal_mul(uint8,uint8)": "infinite",
				"inv_mix_columns(uint8[4] memory[4] memory)": "infinite",
				"inv_shift_rows(uint8[4] memory[4] memory)": "infinite",
				"inv_sub_state(uint8[4] memory[4] memory)": "infinite",
				"mix_columns(uint8[4] memory[4] memory)": "infinite",
				"rot_word(uint8[4] memory)": "infinite",
				"shift_rows(uint8[4] memory[4] memory)": "infinite",
				"sub_state(uint8[4] memory[4] memory)": "infinite",
				"sub_word(uint8[4] memory)": "infinite"
			}
		},
		"methodIdentifiers": {
			"aes_dec(uint8[16],uint8[16])": "4dd76c8a",
			"aes_enc(uint8[16],uint8[16])": "6b71a846",
			"aes_gcm_dec(bytes,bytes,bytes,bytes,bytes)": "1798a240",
			"bytes_to_uint128_array_w_padding(bytes)": "06f4a01c",
			"test_galois_mul(uint128,uint128)": "45c0e63e",
			"uint128_array_to_bytes(uint128[])": "3a0e6be2",
			"uint128_to_uint8_array(uint128)": "93a4014e",
			"uint8_array_to_uint128(uint8[16])": "75f9a137"
		}
	},
	"abi": [
		{
			"inputs": [
				{
					"internalType": "uint8[16]",
					"name": "cipher",
					"type": "uint8[16]"
				},
				{
					"internalType": "uint8[16]",
					"name": "key",
					"type": "uint8[16]"
				}
			],
			"name": "aes_dec",
			"outputs": [
				{
					"internalType": "uint8[16]",
					"name": "",
					"type": "uint8[16]"
				}
			],
			"stateMutability": "view",
			"type": "function"
		},
		{
			"inputs": [
				{
					"internalType": "uint8[16]",
					"name": "plain",
					"type": "uint8[16]"
				},
				{
					"internalType": "uint8[16]",
					"name": "key",
					"type": "uint8[16]"
				}
			],
			"name": "aes_enc",
			"outputs": [
				{
					"internalType": "uint8[16]",
					"name": "",
					"type": "uint8[16]"
				}
			],
			"stateMutability": "view",
			"type": "function"
		},
		{
			"inputs": [
				{
					"internalType": "bytes",
					"name": "cipher",
					"type": "bytes"
				},
				{
					"internalType": "bytes",
					"name": "key",
					"type": "bytes"
				},
				{
					"internalType": "bytes",
					"name": "iv",
					"type": "bytes"
				},
				{
					"internalType": "bytes",
					"name": "auth_data",
					"type": "bytes"
				},
				{
					"internalType": "bytes",
					"name": "auth_tag",
					"type": "bytes"
				}
			],
			"name": "aes_gcm_dec",
			"outputs": [
				{
					"internalType": "bytes",
					"name": "plain",
					"type": "bytes"
				}
			],
			"stateMutability": "view",
			"type": "function"
		},
		{
			"inputs": [
				{
					"internalType": "bytes",
					"name": "in_bytes",
					"type": "bytes"
				}
			],
			"name": "bytes_to_uint128_array_w_padding",
			"outputs": [
				{
					"internalType": "uint128[]",
					"name": "",
					"type": "uint128[]"
				}
			],
			"stateMutability": "pure",
			"type": "function"
		},
		{
			"inputs": [
				{
					"internalType": "uint128",
					"name": "a",
					"type": "uint128"
				},
				{
					"internalType": "uint128",
					"name": "b",
					"type": "uint128"
				}
			],
			"name": "test_galois_mul",
			"outputs": [
				{
					"internalType": "uint128",
					"name": "c",
					"type": "uint128"
				}
			],
			"stateMutability": "pure",
			"type": "function"
		},
		{
			"inputs": [
				{
					"internalType": "uint128[]",
					"name": "uint128_array",
					"type": "uint128[]"
				}
			],
			"name": "uint128_array_to_bytes",
			"outputs": [
				{
					"internalType": "bytes",
					"name": "",
					"type": "bytes"
				}
			],
			"stateMutability": "pure",
			"type": "function"
		},
		{
			"inputs": [
				{
					"internalType": "uint128",
					"name": "num",
					"type": "uint128"
				}
			],
			"name": "uint128_to_uint8_array",
			"outputs": [
				{
					"internalType": "uint8[16]",
					"name": "array",
					"type": "uint8[16]"
				}
			],
			"stateMutability": "pure",
			"type": "function"
		},
		{
			"inputs": [
				{
					"internalType": "uint8[16]",
					"name": "uint8_array",
					"type": "uint8[16]"
				}
			],
			"name": "uint8_array_to_uint128",
			"outputs": [
				{
					"internalType": "uint128",
					"name": "",
					"type": "uint128"
				}
			],
			"stateMutability": "pure",
			"type": "function"
		}
	]
}