{
	"data": {
		"bytecode": {
			"linkReferences": {},
			"object": "6080604052604051806101600160405280608d60ff168152602001600160ff168152602001600260ff168152602001600460ff168152602001600860ff168152602001601060ff168152602001602060ff168152602001604060ff168152602001608060ff168152602001601b60ff168152602001603660ff168152505f90600b61008b929190612906565b50604051806120000160405280606360ff168152602001607c60ff168152602001607760ff168152602001607b60ff16815260200160f260ff168152602001606b60ff168152602001606f60ff16815260200160c560ff168152602001603060ff168152602001600160ff168152602001606760ff168152602001602b60ff16815260200160fe60ff16815260200160d760ff16815260200160ab60ff168152602001607660ff16815260200160ca60ff168152602001608260ff16815260200160c960ff168152602001607d60ff16815260200160fa60ff168152602001605960ff168152602001604760ff16815260200160f060ff16815260200160ad60ff16815260200160d460ff16815260200160a260ff16815260200160af60ff168152602001609c60ff16815260200160a460ff168152602001607260ff16815260200160c060ff16815260200160b760ff16815260200160fd60ff168152602001609360ff168152602001602660ff168152602001603660ff168152602001603f60ff16815260200160f760ff16815260200160cc60ff168152602001603460ff16815260200160a560ff16815260200160e560ff16815260200160f160ff168152602001607160ff16815260200160d860ff168152602001603160ff168152602001601560ff168152602001600460ff16815260200160c760ff168152602001602360ff16815260200160c360ff168152602001601860ff168152602001609660ff168152602001600560ff168152602001609a60ff168152602001600760ff168152602001601260ff168152602001608060ff16815260200160e260ff16815260200160eb60ff168152602001602760ff16815260200160b260ff168152602001607560ff168152602001600960ff168152602001608360ff168152602001602c60ff168152602001601a60ff168152602001601b60ff168152602001606e60ff168152602001605a60ff16815260200160a060ff168152602001605260ff168152602001603b60ff16815260200160d660ff16815260200160b360ff168152602001602960ff16815260200160e360ff168152602001602f60ff168152602001608460ff168152602001605360ff16815260200160d160ff1681526020015f60ff16815260200160ed60ff168152602001602060ff16815260200160fc60ff16815260200160b160ff168152602001605b60ff168152602001606a60ff16815260200160cb60ff16815260200160be60ff168152602001603960ff168152602001604a60ff168152602001604c60ff168152602001605860ff16815260200160cf60ff16815260200160d060ff16815260200160ef60ff16815260200160aa60ff16815260200160fb60ff168152602001604360ff168152602001604d60ff168152602001603360ff168152602001608560ff168152602001604560ff16815260200160f960ff168152602001600260ff168152602001607f60ff168152602001605060ff168152602001603c60ff168152602001609f60ff16815260200160a860ff168152602001605160ff16815260200160a360ff168152602001604060ff168152602001608f60ff168152602001609260ff168152602001609d60ff168152602001603860ff16815260200160f560ff16815260200160bc60ff16815260200160b660ff16815260200160da60ff168152602001602160ff168152602001601060ff16815260200160ff8016815260200160f360ff16815260200160d260ff16815260200160cd60ff168152602001600c60ff168152602001601360ff16815260200160ec60ff168152602001605f60ff168152602001609760ff168152602001604460ff168152602001601760ff16815260200160c460ff16815260200160a760ff168152602001607e60ff168152602001603d60ff168152602001606460ff168152602001605d60ff168152602001601960ff168152602001607360ff168152602001606060ff168152602001608160ff168152602001604f60ff16815260200160dc60ff168152602001602260ff168152602001602a60ff168152602001609060ff168152602001608860ff168152602001604660ff16815260200160ee60ff16815260200160b860ff168152602001601460ff16815260200160de60ff168152602001605e60ff168152602001600b60ff16815260200160db60ff16815260200160e060ff168152602001603260ff168152602001603a60ff168152602001600a60ff168152602001604960ff168152602001600660ff168152602001602460ff168152602001605c60ff16815260200160c260ff16815260200160d360ff16815260200160ac60ff168152602001606260ff168152602001609160ff168152602001609560ff16815260200160e460ff168152602001607960ff16815260200160e760ff16815260200160c860ff168152602001603760ff168152602001606d60ff168152602001608d60ff16815260200160d560ff168152602001604e60ff16815260200160a960ff168152602001606c60ff168152602001605660ff16815260200160f460ff16815260200160ea60ff168152602001606560ff168152602001607a60ff16815260200160ae60ff168152602001600860ff16815260200160ba60ff168152602001607860ff168152602001602560ff168152602001602e60ff168152602001601c60ff16815260200160a660ff16815260200160b460ff16815260200160c660ff16815260200160e860ff16815260200160dd60ff168152602001607460ff168152602001601f60ff168152602001604b60ff16815260200160bd60ff168152602001608b60ff168152602001608a60ff168152602001607060ff168152602001603e60ff16815260200160b560ff168152602001606660ff168152602001604860ff168152602001600360ff16815260200160f660ff168152602001600e60ff168152602001606160ff168152602001603560ff168152602001605760ff16815260200160b960ff168152602001608660ff16815260200160c160ff168152602001601d60ff168152602001609e60ff16815260200160e160ff16815260200160f860ff168152602001609860ff168152602001601160ff168152602001606960ff16815260200160d960ff168152602001608e60ff168152602001609460ff168152602001609b60ff168152602001601e60ff168152602001608760ff16815260200160e960ff16815260200160ce60ff168152602001605560ff168152602001602860ff16815260200160df60ff168152602001608c60ff16815260200160a160ff168152602001608960ff168152602001600d60ff16815260200160bf60ff16815260200160e660ff168152602001604260ff168152602001606860ff168152602001604160ff168152602001609960ff168152602001602d60ff168152602001600f60ff16815260200160b060ff168152602001605460ff16815260200160bb60ff168152602001601660ff16815250600190610100610aa592919061299d565b50604051806120000160405280605260ff168152602001600960ff168152602001606a60ff16815260200160d560ff168152602001603060ff168152602001603660ff16815260200160a560ff168152602001603860ff16815260200160bf60ff168152602001604060ff16815260200160a360ff168152602001609e60ff168152602001608160ff16815260200160f360ff16815260200160d760ff16815260200160fb60ff168152602001607c60ff16815260200160e360ff168152602001603960ff168152602001608260ff168152602001609b60ff168152602001602f60ff16815260200160ff80168152602001608760ff168152602001603460ff168152602001608e60ff168152602001604360ff168152602001604460ff16815260200160c460ff16815260200160de60ff16815260200160e960ff16815260200160cb60ff168152602001605460ff168152602001607b60ff168152602001609460ff168152602001603260ff16815260200160a660ff16815260200160c260ff168152602001602360ff168152602001603d60ff16815260200160ee60ff168152602001604c60ff168152602001609560ff168152602001600b60ff168152602001604260ff16815260200160fa60ff16815260200160c360ff168152602001604e60ff168152602001600860ff168152602001602e60ff16815260200160a160ff168152602001606660ff168152602001602860ff16815260200160d960ff168152602001602460ff16815260200160b260ff168152602001607660ff168152602001605b60ff16815260200160a260ff168152602001604960ff168152602001606d60ff168152602001608b60ff16815260200160d160ff168152602001602560ff168152602001607260ff16815260200160f860ff16815260200160f660ff168152602001606460ff168152602001608660ff168152602001606860ff168152602001609860ff168152602001601660ff16815260200160d460ff16815260200160a460ff168152602001605c60ff16815260200160cc60ff168152602001605d60ff168152602001606560ff16815260200160b660ff168152602001609260ff168152602001606c60ff168152602001607060ff168152602001604860ff168152602001605060ff16815260200160fd60ff16815260200160ed60ff16815260200160b960ff16815260200160da60ff168152602001605e60ff168152602001601560ff168152602001604660ff168152602001605760ff16815260200160a760ff168152602001608d60ff168152602001609d60ff168152602001608460ff168152602001609060ff16815260200160d860ff16815260200160ab60ff1681526020015f60ff168152602001608c60ff16815260200160bc60ff16815260200160d360ff168152602001600a60ff16815260200160f760ff16815260200160e460ff168152602001605860ff168152602001600560ff16815260200160b860ff16815260200160b360ff168152602001604560ff168152602001600660ff16815260200160d060ff168152602001602c60ff168152602001601e60ff168152602001608f60ff16815260200160ca60ff168152602001603f60ff168152602001600f60ff168152602001600260ff16815260200160c160ff16815260200160af60ff16815260200160bd60ff168152602001600360ff168152602001600160ff168152602001601360ff168152602001608a60ff168152602001606b60ff168152602001603a60ff168152602001609160ff168152602001601160ff168152602001604160ff168152602001604f60ff168152602001606760ff16815260200160dc60ff16815260200160ea60ff168152602001609760ff16815260200160f260ff16815260200160cf60ff16815260200160ce60ff16815260200160f060ff16815260200160b460ff16815260200160e660ff168152602001607360ff168152602001609660ff16815260200160ac60ff168152602001607460ff168152602001602260ff16815260200160e760ff16815260200160ad60ff168152602001603560ff168152602001608560ff16815260200160e260ff16815260200160f960ff168152602001603760ff16815260200160e860ff168152602001601c60ff168152602001607560ff16815260200160df60ff168152602001606e60ff168152602001604760ff16815260200160f160ff168152602001601a60ff168152602001607160ff168152602001601d60ff168152602001602960ff16815260200160c560ff168152602001608960ff168152602001606f60ff16815260200160b760ff168152602001606260ff168152602001600e60ff16815260200160aa60ff168152602001601860ff16815260200160be60ff168152602001601b60ff16815260200160fc60ff168152602001605660ff168152602001603e60ff168152602001604b60ff16815260200160c660ff16815260200160d260ff168152602001607960ff168152602001602060ff168152602001609a60ff16815260200160db60ff16815260200160c060ff16815260200160fe60ff168152602001607860ff16815260200160cd60ff168152602001605a60ff16815260200160f460ff168152602001601f60ff16815260200160dd60ff16815260200160a860ff168152602001603360ff168152602001608860ff168152602001600760ff16815260200160c760ff168152602001603160ff16815260200160b160ff168152602001601260ff168152602001601060ff168152602001605960ff168152602001602760ff168152602001608060ff16815260200160ec60ff168152602001605f60ff168152602001606060ff168152602001605160ff168152602001607f60ff16815260200160a960ff168152602001601960ff16815260200160b560ff168152602001604a60ff168152602001600d60ff168152602001602d60ff16815260200160e560ff168152602001607a60ff168152602001609f60ff168152602001609360ff16815260200160c960ff168152602001609c60ff16815260200160ef60ff16815260200160a060ff16815260200160e060ff168152602001603b60ff168152602001604d60ff16815260200160ae60ff168152602001602a60ff16815260200160f560ff16815260200160b060ff16815260200160c860ff16815260200160eb60ff16815260200160bb60ff168152602001603c60ff168152602001608360ff168152602001605360ff168152602001609960ff168152602001606160ff168152602001601760ff168152602001602b60ff168152602001600460ff168152602001607e60ff16815260200160ba60ff168152602001607760ff16815260200160d660ff168152602001602660ff16815260200160e160ff168152602001606960ff168152602001601460ff168152602001606360ff168152602001605560ff168152602001602160ff168152602001600c60ff168152602001607d60ff168152506009906101006114bf92919061299d565b506040518061200001604052805f60ff1681526020015f60ff16815260200160c860ff168152602001600860ff168152602001609160ff168152602001601060ff16815260200160d060ff168152602001603660ff168152602001605a60ff168152602001603e60ff16815260200160d860ff168152602001604360ff168152602001609960ff168152602001607760ff16815260200160fe60ff168152602001601860ff168152602001602360ff168152602001602060ff168152602001600760ff168152602001607060ff16815260200160a160ff168152602001606c60ff168152602001600c60ff168152602001607f60ff168152602001606260ff168152602001608b60ff168152602001604060ff168152602001604660ff16815260200160c760ff168152602001604b60ff16815260200160e060ff168152602001600e60ff16815260200160eb60ff168152602001601660ff16815260200160e860ff16815260200160ad60ff16815260200160cf60ff16815260200160cd60ff168152602001603960ff168152602001605360ff168152602001606a60ff168152602001602760ff168152602001603560ff168152602001609360ff16815260200160d460ff168152602001604e60ff168152602001604860ff16815260200160c360ff168152602001602b60ff168152602001607960ff168152602001605460ff168152602001602860ff168152602001600960ff168152602001607860ff168152602001600f60ff168152602001602160ff168152602001609060ff168152602001608760ff168152602001601460ff168152602001602a60ff16815260200160a960ff168152602001609c60ff16815260200160d660ff168152602001607460ff16815260200160b460ff168152602001607c60ff16815260200160de60ff16815260200160ed60ff16815260200160b160ff168152602001608660ff168152602001607660ff16815260200160a460ff168152602001609860ff16815260200160e260ff168152602001609660ff168152602001608f60ff168152602001600260ff168152602001603260ff168152602001601c60ff16815260200160c160ff168152602001603360ff16815260200160ee60ff16815260200160ef60ff168152602001608160ff16815260200160fd60ff168152602001603060ff168152602001605c60ff168152602001601360ff168152602001609d60ff168152602001602960ff168152602001601760ff16815260200160c460ff168152602001601160ff168152602001604460ff168152602001608c60ff168152602001608060ff16815260200160f360ff168152602001607360ff168152602001604260ff168152602001601e60ff168152602001601d60ff16815260200160b560ff16815260200160f060ff168152602001601260ff16815260200160d160ff168152602001605b60ff168152602001604160ff16815260200160a260ff16815260200160d760ff168152602001602c60ff16815260200160e960ff16815260200160d560ff168152602001605960ff16815260200160cb60ff168152602001605060ff16815260200160a860ff16815260200160dc60ff16815260200160fc60ff16815260200160f260ff168152602001605660ff168152602001607260ff16815260200160a660ff168152602001606560ff168152602001602f60ff168152602001609f60ff168152602001609b60ff168152602001603d60ff16815260200160ba60ff168152602001607d60ff16815260200160c260ff168152602001604560ff168152602001608260ff16815260200160a760ff168152602001605760ff16815260200160b660ff16815260200160a360ff168152602001607a60ff168152602001607560ff168152602001604f60ff16815260200160ae60ff168152602001603f60ff168152602001603760ff168152602001606d60ff168152602001604760ff168152602001606160ff16815260200160be60ff16815260200160ab60ff16815260200160d360ff168152602001605f60ff16815260200160b060ff168152602001605860ff16815260200160af60ff16815260200160ca60ff168152602001605e60ff16815260200160fa60ff168152602001608560ff16815260200160e460ff168152602001604d60ff168152602001608a60ff168152602001600560ff16815260200160fb60ff168152602001606060ff16815260200160b760ff168152602001607b60ff16815260200160b860ff168152602001602660ff168152602001604a60ff168152602001606760ff16815260200160c660ff168152602001601a60ff16815260200160f860ff168152602001606960ff168152602001602560ff16815260200160b360ff16815260200160db60ff16815260200160bd60ff168152602001606660ff16815260200160dd60ff16815260200160f160ff16815260200160d260ff16815260200160df60ff168152602001600360ff168152602001608d60ff168152602001603460ff16815260200160d960ff168152602001609260ff168152602001600d60ff168152602001606360ff168152602001605560ff16815260200160aa60ff168152602001604960ff16815260200160ec60ff16815260200160bc60ff168152602001609560ff168152602001603c60ff168152602001608460ff168152602001600b60ff16815260200160f560ff16815260200160e660ff16815260200160e760ff16815260200160e560ff16815260200160ac60ff168152602001607e60ff168152602001606e60ff16815260200160b960ff16815260200160f960ff16815260200160da60ff168152602001608e60ff168152602001609a60ff16815260200160c960ff168152602001602460ff16815260200160e160ff168152602001600a60ff168152602001601560ff168152602001606b60ff168152602001603a60ff16815260200160a060ff168152602001605160ff16815260200160f460ff16815260200160ea60ff16815260200160b260ff168152602001609760ff168152602001609e60ff168152602001605d60ff168152602001602260ff168152602001608860ff168152602001609460ff16815260200160ce60ff168152602001601960ff168152602001600160ff168152602001607160ff168152602001604c60ff16815260200160a560ff16815260200160e360ff16815260200160c560ff168152602001603160ff16815260200160bb60ff16815260200160cc60ff168152602001601f60ff168152602001602d60ff168152602001603b60ff168152602001605260ff168152602001606f60ff16815260200160f660ff168152602001602e60ff168152602001608960ff16815260200160f760ff16815260200160c060ff168152602001606860ff168152602001601b60ff168152602001606460ff168152602001600460ff168152602001600660ff16815260200160bf60ff168152602001608360ff168152602001603860ff16815250601190610100611ed992919061299d565b50604051806120000160405280600160ff16815260200160e560ff168152602001604c60ff16815260200160b560ff16815260200160fb60ff168152602001609f60ff16815260200160fc60ff168152602001601260ff168152602001600360ff168152602001603460ff16815260200160d460ff16815260200160c460ff168152602001601660ff16815260200160ba60ff168152602001601f60ff168152602001603660ff168152602001600560ff168152602001605c60ff168152602001606760ff168152602001605760ff168152602001603a60ff16815260200160d560ff168152602001602160ff168152602001605a60ff168152602001600f60ff16815260200160e460ff16815260200160a960ff16815260200160f960ff168152602001604e60ff168152602001606460ff168152602001606360ff16815260200160ee60ff168152602001601160ff168152602001603760ff16815260200160e060ff168152602001601060ff16815260200160d260ff16815260200160ac60ff16815260200160a560ff168152602001602960ff168152602001603360ff168152602001605960ff168152602001603b60ff168152602001603060ff168152602001606d60ff16815260200160ef60ff16815260200160f460ff168152602001607b60ff168152602001605560ff16815260200160eb60ff168152602001604d60ff168152602001605060ff16815260200160b760ff168152602001602a60ff168152602001600760ff168152602001608d60ff16815260200160ff80168152602001602660ff16815260200160d760ff16815260200160f060ff16815260200160c260ff168152602001607e60ff168152602001600960ff168152602001608c60ff168152602001601a60ff168152602001606a60ff168152602001606260ff168152602001600b60ff168152602001605d60ff168152602001608260ff168152602001601b60ff168152602001608f60ff168152602001602e60ff16815260200160be60ff16815260200160a660ff168152602001601d60ff16815260200160e760ff168152602001609d60ff168152602001602d60ff168152602001608a60ff168152602001607260ff16815260200160d960ff16815260200160f160ff168152602001602760ff168152602001603260ff16815260200160bc60ff168152602001607760ff168152602001608560ff168152602001609660ff168152602001607060ff168152602001600860ff168152602001606960ff168152602001605660ff16815260200160df60ff168152602001609960ff168152602001609460ff16815260200160a160ff168152602001609060ff168152602001601860ff16815260200160bb60ff16815260200160fa60ff168152602001607a60ff16815260200160b060ff16815260200160a760ff16815260200160f860ff16815260200160ab60ff168152602001602860ff16815260200160d660ff168152602001601560ff168152602001608e60ff16815260200160cb60ff16815260200160f260ff168152602001601360ff16815260200160e660ff168152602001607860ff168152602001606160ff168152602001603f60ff168152602001608960ff168152602001604660ff168152602001600d60ff168152602001603560ff168152602001603160ff168152602001608860ff16815260200160a360ff168152602001604160ff168152602001608060ff16815260200160ca60ff168152602001601760ff168152602001605f60ff168152602001605360ff168152602001608360ff16815260200160fe60ff16815260200160c360ff168152602001609b60ff168152602001604560ff168152602001603960ff16815260200160e160ff16815260200160f560ff168152602001609e60ff168152602001601960ff168152602001605e60ff16815260200160b660ff16815260200160cf60ff168152602001604b60ff168152602001603860ff168152602001600460ff16815260200160b960ff168152602001602b60ff16815260200160e260ff16815260200160c160ff168152602001604a60ff16815260200160dd60ff168152602001604860ff168152602001600c60ff16815260200160d060ff168152602001607d60ff168152602001603d60ff168152602001605860ff16815260200160de60ff168152602001607c60ff16815260200160d860ff168152602001601460ff168152602001606b60ff168152602001608760ff168152602001604760ff16815260200160e860ff168152602001607960ff168152602001608460ff168152602001607360ff168152602001603c60ff16815260200160bd60ff168152602001609260ff16815260200160c960ff168152602001602360ff168152602001608b60ff168152602001609760ff168152602001609560ff168152602001604460ff16815260200160dc60ff16815260200160ad60ff168152602001604060ff168152602001606560ff168152602001608660ff16815260200160a260ff16815260200160a460ff16815260200160cc60ff168152602001607f60ff16815260200160ec60ff16815260200160c060ff16815260200160af60ff168152602001609160ff16815260200160fd60ff16815260200160f760ff168152602001604f60ff168152602001608160ff168152602001602f60ff168152602001605b60ff16815260200160ea60ff16815260200160a860ff168152602001601c60ff168152602001600260ff16815260200160d160ff168152602001609860ff168152602001607160ff16815260200160ed60ff168152602001602560ff16815260200160e360ff168152602001602460ff168152602001600660ff168152602001606860ff16815260200160b360ff168152602001609360ff168152602001602c60ff168152602001606f60ff168152602001603e60ff168152602001606c60ff168152602001600a60ff16815260200160b860ff16815260200160ce60ff16815260200160ae60ff168152602001607460ff16815260200160b160ff168152602001604260ff16815260200160b460ff168152602001601e60ff16815260200160d360ff168152602001604960ff16815260200160e960ff168152602001609c60ff16815260200160c860ff16815260200160c660ff16815260200160c760ff168152602001602260ff168152602001606e60ff16815260200160db60ff168152602001602060ff16815260200160bf60ff168152602001604360ff168152602001605160ff168152602001605260ff168152602001606660ff16815260200160b260ff168152602001607660ff168152602001606060ff16815260200160da60ff16815260200160c560ff16815260200160f360ff16815260200160f660ff16815260200160aa60ff16815260200160cd60ff168152602001609a60ff16815260200160a060ff168152602001607560ff168152602001605460ff168152602001600e60ff168152602001600160ff168152506019906101006128f492919061299d565b50348015612900575f80fd5b50612a50565b82600b601f0160209004810192821561298c579160200282015f5b8382111561295e57835183826101000a81548160ff021916908360ff16021790555092602001926001016020815f01049283019260010302612921565b801561298a5782816101000a81549060ff02191690556001016020815f0104928301926001030261295e565b505b5090506129999190612a35565b5090565b82610100601f01602090048101928215612a24579160200282015f5b838211156129f657835183826101000a81548160ff021916908360ff16021790555092602001926001016020815f010492830192600103026129b9565b8015612a225782816101000a81549060ff02191690556001016020815f010492830192600103026129f6565b505b509050612a319190612a35565b5090565b5b80821115612a4c575f815f905550600101612a36565b5090565b61483b80612a5d5f395ff3fe608060405234801561000f575f80fd5b506004361061007b575f3560e01c80634dd76c8a116100595780634dd76c8a1461010f5780636b71a8461461013f57806375f9a1371461016f57806393a4014e1461019f5761007b565b806306f4a01c1461007f5780631798a240146100af5780633a0e6be2146100df575b5f80fd5b61009960048036038101906100949190613b54565b6101cf565b6040516100a69190613c6d565b60405180910390f35b6100c960048036038101906100c49190613c8d565b610366565b6040516100d69190613df0565b60405180910390f35b6100f960048036038101906100f49190613efe565b61076b565b6040516101069190613df0565b60405180910390f35b61012960048036038101906101249190614029565b610830565b604051610136919061410e565b60405180910390f35b61015960048036038101906101549190614029565b610e63565b604051610166919061410e565b60405180910390f35b61018960048036038101906101849190614128565b611496565b6040516101969190614163565b60405180910390f35b6101b960048036038101906101b4919061417c565b61151c565b6040516101c6919061410e565b60405180910390f35b60605f825190505f6010826101e491906141dd565b60106101f0919061423a565b9050601081036101fe575f90505b5f6040518060400160405280600181526020015f81525090505f600190505b82811015610254578160405160200161023691906142ad565b6040516020818303038152906040529150808060010191505061021d565b505f85826040516020016102699291906142d2565b60405160208183030381529060405290505f6010825161028991906142f5565b90505f8167ffffffffffffffff8111156102a6576102a5613a30565b5b6040519080825280602002602001820160405280156102d45781602001602082028036833780820191505090505b5090505f5b82811015610357576102f9846010836102f29190614325565b6010611594565b610302906143c0565b60801c82828151811061031857610317614426565b5b60200260200101906fffffffffffffffffffffffffffffffff1690816fffffffffffffffffffffffffffffffff168152505080806001019150506102d9565b50809650505050505050919050565b60605f600887516103779190614325565b90505f600885516103889190614325565b90505f8260406103989190614453565b82901b90505f6103a78a6101cf565b90505f6103b3886101cf565b90505f6103bf8b6101cf565b90505f6103cb8b6101cf565b90505f6001825f815181106103e3576103e2614426565b5b60200260200101516103f59190614486565b90505f6104018b6101cf565b90505f60405180602001604052805f6fffffffffffffffffffffffffffffffff166fffffffffffffffffffffffffffffffff1681525090505f61048d610488610460845f6001811061045657610455614426565b5b602002015161151c565b610483895f8151811061047657610475614426565b5b602002602001015161151c565b610e63565b611496565b90505f6104cc6104c761049f8761151c565b6104c28a5f815181106104b5576104b4614426565b5b602002602001015161151c565b610e63565b611496565b90505f805b895181101561051657610507610501838c84815181106104f4576104f3614426565b5b60200260200101516116b0565b856116bc565b915080806001019150506104d1565b505f5b8a5181101561055e5761054f610549838d848151811061053c5761053b614426565b5b60200260200101516116b0565b856116bc565b91508080600101915050610519565b5061057261056c828d6116b0565b846116bc565b905061057e81836116b0565b905061059b816fffffffffffffffffffffffffffffffff1661177d565b845f815181106105ae576105ad614426565b5b60200260200101516fffffffffffffffffffffffffffffffff16816fffffffffffffffffffffffffffffffff161461061b576040517f08c379a000000000000000000000000000000000000000000000000000000000815260040161061290614523565b60405180910390fd5b5f6001876106299190614486565b90505f8b5167ffffffffffffffff81111561064757610646613a30565b5b6040519080825280602002602001820160405280156106755781602001602082028036833780820191505090505b5090505f5b8151811015610747575f6106c06106bb6106938661151c565b6106b68f5f815181106106a9576106a8614426565b5b602002602001015161151c565b610e63565b611496565b90506106e6818f84815181106106d9576106d8614426565b5b60200260200101516116b0565b8383815181106106f9576106f8614426565b5b60200260200101906fffffffffffffffffffffffffffffffff1690816fffffffffffffffffffffffffffffffff1681525050838061073690614541565b94505050808060010191505061067a565b506107518161076b565b9f5050505050505050505050505050505095945050505050565b60605f825f8151811061078157610780614426565b5b602002602001015160801b60405160200161079c9190614598565b60405160208183030381529060405290505f600190505b835181101561082657818482815181106107d0576107cf614426565b5b60200260200101516040516020016107e891906145e6565b6040516020818303038152906040526040516020016108089291906142d2565b604051602081830303815290604052915080806001019150506107b3565b5080915050919050565b61083861395d565b5f60405180608001604052806040518060800160405280875f6010811061086257610861614426565b5b602002015160ff1660ff1681526020018760046010811061088657610885614426565b5b602002015160ff1660ff168152602001876008601081106108aa576108a9614426565b5b602002015160ff1660ff16815260200187600c601081106108ce576108cd614426565b5b602002015160ff1660ff168152508152602001604051806080016040528087600160108110610900576108ff614426565b5b602002015160ff1660ff1681526020018760056010811061092457610923614426565b5b602002015160ff1660ff1681526020018760096010811061094857610947614426565b5b602002015160ff1660ff16815260200187600d6010811061096c5761096b614426565b5b602002015160ff1660ff16815250815260200160405180608001604052808760026010811061099e5761099d614426565b5b602002015160ff1660ff168152602001876006601081106109c2576109c1614426565b5b602002015160ff1660ff16815260200187600a601081106109e6576109e5614426565b5b602002015160ff1660ff16815260200187600e60108110610a0a57610a09614426565b5b602002015160ff1660ff168152508152602001604051806080016040528087600360108110610a3c57610a3b614426565b5b602002015160ff1660ff16815260200187600760108110610a6057610a5f614426565b5b602002015160ff1660ff16815260200187600b60108110610a8457610a83614426565b5b602002015160ff1660ff16815260200187600f60108110610aa857610aa7614426565b5b602002015160ff1660ff1681525081525090505f610ac584611816565b90505f6040518060800160405280836028602c8110610ae757610ae6614426565b5b60200201518152602001836029602c8110610b0557610b04614426565b5b6020020151815260200183602a602c8110610b2357610b22614426565b5b6020020151815260200183602b602c8110610b4157610b40614426565b5b60200201518152509050610b55838261200a565b92505f600990505b60018110610c7857610b6e846120e7565b9350610b7984612427565b9350604051806080016040528084836004610b949190614325565b602c8110610ba557610ba4614426565b5b60200201518152602001846001846004610bbf9190614325565b610bc99190614453565b602c8110610bda57610bd9614426565b5b60200201518152602001846002846004610bf49190614325565b610bfe9190614453565b602c8110610c0f57610c0e614426565b5b60200201518152602001846003846004610c299190614325565b610c339190614453565b602c8110610c4457610c43614426565b5b60200201518152509150610c58848361200a565b9350610c6384612500565b93508080610c7090614600565b915050610b5d565b50610c82836120e7565b9250610c8d83612427565b92506040518060800160405280835f602c8110610cad57610cac614426565b5b60200201518152602001836001602c8110610ccb57610cca614426565b5b60200201518152602001836002602c8110610ce957610ce8614426565b5b60200201518152602001836003602c8110610d0757610d06614426565b5b60200201518152509050610d1b838261200a565b92505f6040518061020001604052805f60ff1681526020015f60ff1681526020015f60ff1681526020015f60ff1681526020015f60ff1681526020015f60ff1681526020015f60ff1681526020015f60ff1681526020015f60ff1681526020015f60ff1681526020015f60ff1681526020015f60ff1681526020015f60ff1681526020015f60ff1681526020015f60ff1681526020015f60ff1681525090505f5b6004811015610e55575f5b6004811015610e4757858160048110610de357610de2614426565b5b60200201518260048110610dfa57610df9614426565b5b60200201518382846004610e0e9190614325565b610e189190614453565b60108110610e2957610e28614426565b5b602002019060ff16908160ff16815250508080600101915050610dc7565b508080600101915050610dbc565b508094505050505092915050565b610e6b61395d565b5f60405180608001604052806040518060800160405280875f60108110610e9557610e94614426565b5b602002015160ff1660ff16815260200187600460108110610eb957610eb8614426565b5b602002015160ff1660ff16815260200187600860108110610edd57610edc614426565b5b602002015160ff1660ff16815260200187600c60108110610f0157610f00614426565b5b602002015160ff1660ff168152508152602001604051806080016040528087600160108110610f3357610f32614426565b5b602002015160ff1660ff16815260200187600560108110610f5757610f56614426565b5b602002015160ff1660ff16815260200187600960108110610f7b57610f7a614426565b5b602002015160ff1660ff16815260200187600d60108110610f9f57610f9e614426565b5b602002015160ff1660ff168152508152602001604051806080016040528087600260108110610fd157610fd0614426565b5b602002015160ff1660ff16815260200187600660108110610ff557610ff4614426565b5b602002015160ff1660ff16815260200187600a6010811061101957611018614426565b5b602002015160ff1660ff16815260200187600e6010811061103d5761103c614426565b5b602002015160ff1660ff16815250815260200160405180608001604052808760036010811061106f5761106e614426565b5b602002015160ff1660ff1681526020018760076010811061109357611092614426565b5b602002015160ff1660ff16815260200187600b601081106110b7576110b6614426565b5b602002015160ff1660ff16815260200187600f601081106110db576110da614426565b5b602002015160ff1660ff1681525081525090505f6110f884611816565b90505f6040518060800160405280835f602c811061111957611118614426565b5b60200201518152602001836001602c811061113757611136614426565b5b60200201518152602001836002602c811061115557611154614426565b5b60200201518152602001836003602c811061117357611172614426565b5b60200201518152509050611187838261200a565b925061119283612b18565b925061119d83612bf1565b92505f600190505b600981116112c0576111b684612f31565b93506040518060800160405280848360046111d19190614325565b602c81106111e2576111e1614426565b5b602002015181526020018460018460046111fc9190614325565b6112069190614453565b602c811061121757611216614426565b5b602002015181526020018460028460046112319190614325565b61123b9190614453565b602c811061124c5761124b614426565b5b602002015181526020018460038460046112669190614325565b6112709190614453565b602c811061128157611280614426565b5b60200201518152509150611295848361200a565b93506112a084612b18565b93506112ab84612bf1565b935080806112b890614627565b9150506111a5565b506040518060800160405280836028602c81106112e0576112df614426565b5b60200201518152602001836029602c81106112fe576112fd614426565b5b6020020151815260200183602a602c811061131c5761131b614426565b5b6020020151815260200183602b602c811061133a57611339614426565b5b6020020151815250905061134e838261200a565b92505f6040518061020001604052805f60ff1681526020015f60ff1681526020015f60ff1681526020015f60ff1681526020015f60ff1681526020015f60ff1681526020015f60ff1681526020015f60ff1681526020015f60ff1681526020015f60ff1681526020015f60ff1681526020015f60ff1681526020015f60ff1681526020015f60ff1681526020015f60ff1681526020015f60ff1681525090505f5b6004811015611488575f5b600481101561147a5785816004811061141657611415614426565b5b6020020151826004811061142d5761142c614426565b5b602002015183828460046114419190614325565b61144b9190614453565b6010811061145c5761145b614426565b5b602002019060ff16908160ff168152505080806001019150506113fa565b5080806001019150506113ef565b508094505050505092915050565b5f80825f601081106114ab576114aa614426565b5b602002015160ff1690505f600190505b6010811015611512576008826fffffffffffffffffffffffffffffffff16901b91508381601081106114f0576114ef614426565b5b602002015160ff16826115039190614486565b915080806001019150506114bb565b5080915050919050565b61152461395d565b5f5b601081101561158e5780600861153c9190614325565b836fffffffffffffffffffffffffffffffff16901c8282600f61155f919061423a565b601081106115705761156f614426565b5b602002019060ff16908160ff16815250508080600101915050611526565b50919050565b606081601f836115a49190614453565b10156115e5576040517f08c379a00000000000000000000000000000000000000000000000000000000081526004016115dc906146b8565b60405180910390fd5b81836115f19190614453565b84511015611634576040517f08c379a000000000000000000000000000000000000000000000000000000000815260040161162b90614720565b60405180910390fd5b606082155f81146116535760405191505f8252602082016040526116a4565b6040519150601f8416801560200281840101858101878315602002848b0101015b818310156116915780518352602083019250602081019050611674565b50868552601f19601f8301166040525050505b50809150509392505050565b5f818318905092915050565b5f805f90505f608790505f5b60808160ff161015611771575f600186166fffffffffffffffffffffffffffffffff16146116f65785831892505b5f80607f886fffffffffffffffffffffffffffffffff16901c6fffffffffffffffffffffffffffffffff16141590506001876fffffffffffffffffffffffffffffffff16901b9650801561174a5782871896505b6001866fffffffffffffffffffffffffffffffff16901c95505080806001019150506116c8565b50819250505092915050565b61181381604051602401611791919061474d565b6040516020818303038152906040527ff82c50f1000000000000000000000000000000000000000000000000000000007bffffffffffffffffffffffffffffffffffffffffffffffffffffffff19166020820180517bffffffffffffffffffffffffffffffffffffffffffffffffffffffff8381831617835250505050613549565b50565b61181e613980565b611826613980565b825f6010811061183957611838614426565b5b6020020151815f602c811061185157611850614426565b5b60200201515f6004811061186857611867614426565b5b602002019060ff16908160ff16815250508260016010811061188d5761188c614426565b5b6020020151815f602c81106118a5576118a4614426565b5b60200201516001600481106118bd576118bc614426565b5b602002019060ff16908160ff1681525050826002601081106118e2576118e1614426565b5b6020020151815f602c81106118fa576118f9614426565b5b602002015160026004811061191257611911614426565b5b602002019060ff16908160ff16815250508260036010811061193757611936614426565b5b6020020151815f602c811061194f5761194e614426565b5b602002015160036004811061196757611966614426565b5b602002019060ff16908160ff16815250508260046010811061198c5761198b614426565b5b6020020151816001602c81106119a5576119a4614426565b5b60200201515f600481106119bc576119bb614426565b5b602002019060ff16908160ff1681525050826005601081106119e1576119e0614426565b5b6020020151816001602c81106119fa576119f9614426565b5b6020020151600160048110611a1257611a11614426565b5b602002019060ff16908160ff168152505082600660108110611a3757611a36614426565b5b6020020151816001602c8110611a5057611a4f614426565b5b6020020151600260048110611a6857611a67614426565b5b602002019060ff16908160ff168152505082600760108110611a8d57611a8c614426565b5b6020020151816001602c8110611aa657611aa5614426565b5b6020020151600360048110611abe57611abd614426565b5b602002019060ff16908160ff168152505082600860108110611ae357611ae2614426565b5b6020020151816002602c8110611afc57611afb614426565b5b60200201515f60048110611b1357611b12614426565b5b602002019060ff16908160ff168152505082600960108110611b3857611b37614426565b5b6020020151816002602c8110611b5157611b50614426565b5b6020020151600160048110611b6957611b68614426565b5b602002019060ff16908160ff168152505082600a60108110611b8e57611b8d614426565b5b6020020151816002602c8110611ba757611ba6614426565b5b6020020151600260048110611bbf57611bbe614426565b5b602002019060ff16908160ff168152505082600b60108110611be457611be3614426565b5b6020020151816002602c8110611bfd57611bfc614426565b5b6020020151600360048110611c1557611c14614426565b5b602002019060ff16908160ff168152505082600c60108110611c3a57611c39614426565b5b6020020151816003602c8110611c5357611c52614426565b5b60200201515f60048110611c6a57611c69614426565b5b602002019060ff16908160ff168152505082600d60108110611c8f57611c8e614426565b5b6020020151816003602c8110611ca857611ca7614426565b5b6020020151600160048110611cc057611cbf614426565b5b602002019060ff16908160ff168152505082600e60108110611ce557611ce4614426565b5b6020020151816003602c8110611cfe57611cfd614426565b5b6020020151600260048110611d1657611d15614426565b5b602002019060ff16908160ff168152505082600f60108110611d3b57611d3a614426565b5b6020020151816003602c8110611d5457611d53614426565b5b6020020151600360048110611d6c57611d6b614426565b5b602002019060ff16908160ff16815250505f600490505b602c811015612000575f82600183611d9b919061423a565b602c8110611dac57611dab614426565b5b602002015190505f600483611dc191906141dd565b03611e4c57611dd7611dd282613563565b61369a565b90505f600483611de791906142f5565b600b8110611df857611df7614426565b5b602091828204019190069054906101000a900460ff16815f60048110611e2157611e20614426565b5b602002015118815f60048110611e3a57611e39614426565b5b602002019060ff16908160ff16815250505b604051806080016040528084600485611e65919061423a565b602c8110611e7657611e75614426565b5b60200201515f60048110611e8d57611e8c614426565b5b6020020151835f60048110611ea557611ea4614426565b5b60200201511860ff1660ff16815260200184600485611ec4919061423a565b602c8110611ed557611ed4614426565b5b6020020151600160048110611eed57611eec614426565b5b602002015183600160048110611f0657611f05614426565b5b60200201511860ff1660ff16815260200184600485611f25919061423a565b602c8110611f3657611f35614426565b5b6020020151600260048110611f4e57611f4d614426565b5b602002015183600260048110611f6757611f66614426565b5b60200201511860ff1660ff16815260200184600485611f86919061423a565b602c8110611f9757611f96614426565b5b6020020151600360048110611faf57611fae614426565b5b602002015183600360048110611fc857611fc7614426565b5b60200201511860ff1660ff168152508383602c8110611fea57611fe9614426565b5b6020020181905250508080600101915050611d83565b5080915050919050565b6120126139ae565b5f5b60048110156120dd575f5b60048110156120cf5783816004811061203b5761203a614426565b5b6020020151826004811061205257612051614426565b5b602002015185836004811061206a57612069614426565b5b6020020151826004811061208157612080614426565b5b60200201511885836004811061209a57612099614426565b5b602002015182600481106120b1576120b0614426565b5b602002019060ff16908160ff1681525050808060010191505061201f565b508080600101915050612014565b5082905092915050565b6120ef6139ae565b5f825f6004811061210357612102614426565b5b602002015190505f60405180608001604052808560016004811061212a57612129614426565b5b602002015160036004811061214257612141614426565b5b602002015160ff1660ff1681526020018560016004811061216657612165614426565b5b60200201515f6004811061217d5761217c614426565b5b602002015160ff1660ff168152602001856001600481106121a1576121a0614426565b5b60200201516001600481106121b9576121b8614426565b5b602002015160ff1660ff168152602001856001600481106121dd576121dc614426565b5b60200201516002600481106121f5576121f4614426565b5b602002015160ff1660ff1681525090505f60405180608001604052808660026004811061222557612224614426565b5b602002015160026004811061223d5761223c614426565b5b602002015160ff1660ff1681526020018660026004811061226157612260614426565b5b602002015160036004811061227957612278614426565b5b602002015160ff1660ff1681526020018660026004811061229d5761229c614426565b5b60200201515f600481106122b4576122b3614426565b5b602002015160ff1660ff168152602001866002600481106122d8576122d7614426565b5b60200201516001600481106122f0576122ef614426565b5b602002015160ff1660ff1681525090505f6040518060800160405280876003600481106123205761231f614426565b5b602002015160016004811061233857612337614426565b5b602002015160ff1660ff1681526020018760036004811061235c5761235b614426565b5b602002015160026004811061237457612373614426565b5b602002015160ff1660ff1681526020018760036004811061239857612397614426565b5b60200201516003600481106123b0576123af614426565b5b602002015160ff1660ff168152602001876003600481106123d4576123d3614426565b5b60200201515f600481106123eb576123ea614426565b5b602002015160ff1660ff168152509050604051806080016040528085815260200184815260200183815260200182815250945050505050919050565b61242f6139ae565b5f5b60048110156124f7575f5b60048110156124e957600984836004811061245a57612459614426565b5b6020020151826004811061247157612470614426565b5b602002015160ff16610100811061248b5761248a614426565b5b602091828204019190069054906101000a900460ff168483600481106124b4576124b3614426565b5b602002015182600481106124cb576124ca614426565b5b602002019060ff16908160ff1681525050808060010191505061243c565b508080600101915050612431565b50819050919050565b6125086139ae565b5f604051806080016040528060405180608001604052805f60ff1681526020015f60ff1681526020015f60ff1681526020015f60ff16815250815260200160405180608001604052805f60ff1681526020015f60ff1681526020015f60ff1681526020015f60ff16815250815260200160405180608001604052805f60ff1681526020015f60ff1681526020015f60ff1681526020015f60ff16815250815260200160405180608001604052805f60ff1681526020015f60ff1681526020015f60ff1681526020015f60ff1681525081525090505f5b6004811015612b0e575f5b60048110156126695784816004811061260557612604614426565b5b6020020151826004811061261c5761261b614426565b5b602002015183826004811061263457612633614426565b5b6020020151836004811061264b5761264a614426565b5b602002019060ff16908160ff168152505080806001019150506125e9565b506126a48260016004811061268157612680614426565b5b6020020151826004811061269857612697614426565b5b6020020151600b613854565b6126de836002600481106126bb576126ba614426565b5b602002015183600481106126d2576126d1614426565b5b6020020151600d613854565b612718846003600481106126f5576126f4614426565b5b6020020151846004811061270c5761270b614426565b5b60200201516009613854565b612751855f6004811061272e5761272d614426565b5b6020020151856004811061274557612744614426565b5b6020020151600e613854565b181818845f6004811061276757612766614426565b5b6020020151826004811061277e5761277d614426565b5b602002019060ff16908160ff16815250506127c9826002600481106127a6576127a5614426565b5b602002015182600481106127bd576127bc614426565b5b6020020151600b613854565b612803836003600481106127e0576127df614426565b5b602002015183600481106127f7576127f6614426565b5b6020020151600d613854565b61283c845f6004811061281957612818614426565b5b602002015184600481106128305761282f614426565b5b60200201516009613854565b6128768560016004811061285357612852614426565b5b6020020151856004811061286a57612869614426565b5b6020020151600e613854565b1818188460016004811061288d5761288c614426565b5b602002015182600481106128a4576128a3614426565b5b602002019060ff16908160ff16815250506128ef826003600481106128cc576128cb614426565b5b602002015182600481106128e3576128e2614426565b5b6020020151600b613854565b612928835f6004811061290557612904614426565b5b6020020151836004811061291c5761291b614426565b5b6020020151600d613854565b6129628460016004811061293f5761293e614426565b5b6020020151846004811061295657612955614426565b5b60200201516009613854565b61299c8560026004811061297957612978614426565b5b602002015185600481106129905761298f614426565b5b6020020151600e613854565b181818846002600481106129b3576129b2614426565b5b602002015182600481106129ca576129c9614426565b5b602002019060ff16908160ff1681525050612a14825f600481106129f1576129f0614426565b5b60200201518260048110612a0857612a07614426565b5b6020020151600b613854565b612a4e83600160048110612a2b57612a2a614426565b5b60200201518360048110612a4257612a41614426565b5b6020020151600d613854565b612a8884600260048110612a6557612a64614426565b5b60200201518460048110612a7c57612a7b614426565b5b60200201516009613854565b612ac285600360048110612a9f57612a9e614426565b5b60200201518560048110612ab657612ab5614426565b5b6020020151600e613854565b18181884600360048110612ad957612ad8614426565b5b60200201518260048110612af057612aef614426565b5b602002019060ff16908160ff168152505080806001019150506125de565b5082915050919050565b612b206139ae565b5f5b6004811015612be8575f5b6004811015612bda576001848360048110612b4b57612b4a614426565b5b60200201518260048110612b6257612b61614426565b5b602002015160ff166101008110612b7c57612b7b614426565b5b602091828204019190069054906101000a900460ff16848360048110612ba557612ba4614426565b5b60200201518260048110612bbc57612bbb614426565b5b602002019060ff16908160ff16815250508080600101915050612b2d565b508080600101915050612b22565b50819050919050565b612bf96139ae565b5f825f60048110612c0d57612c0c614426565b5b602002015190505f604051806080016040528085600160048110612c3457612c33614426565b5b6020020151600160048110612c4c57612c4b614426565b5b602002015160ff1660ff16815260200185600160048110612c7057612c6f614426565b5b6020020151600260048110612c8857612c87614426565b5b602002015160ff1660ff16815260200185600160048110612cac57612cab614426565b5b6020020151600360048110612cc457612cc3614426565b5b602002015160ff1660ff16815260200185600160048110612ce857612ce7614426565b5b60200201515f60048110612cff57612cfe614426565b5b602002015160ff1660ff1681525090505f604051806080016040528086600260048110612d2f57612d2e614426565b5b6020020151600260048110612d4757612d46614426565b5b602002015160ff1660ff16815260200186600260048110612d6b57612d6a614426565b5b6020020151600360048110612d8357612d82614426565b5b602002015160ff1660ff16815260200186600260048110612da757612da6614426565b5b60200201515f60048110612dbe57612dbd614426565b5b602002015160ff1660ff16815260200186600260048110612de257612de1614426565b5b6020020151600160048110612dfa57612df9614426565b5b602002015160ff1660ff1681525090505f604051806080016040528087600360048110612e2a57612e29614426565b5b6020020151600360048110612e4257612e41614426565b5b602002015160ff1660ff16815260200187600360048110612e6657612e65614426565b5b60200201515f60048110612e7d57612e7c614426565b5b602002015160ff1660ff16815260200187600360048110612ea157612ea0614426565b5b6020020151600160048110612eb957612eb8614426565b5b602002015160ff1660ff16815260200187600360048110612edd57612edc614426565b5b6020020151600260048110612ef557612ef4614426565b5b602002015160ff1660ff168152509050604051806080016040528085815260200184815260200183815260200182815250945050505050919050565b612f396139ae565b5f604051806080016040528060405180608001604052805f60ff1681526020015f60ff1681526020015f60ff1681526020015f60ff16815250815260200160405180608001604052805f60ff1681526020015f60ff1681526020015f60ff1681526020015f60ff16815250815260200160405180608001604052805f60ff1681526020015f60ff1681526020015f60ff1681526020015f60ff16815250815260200160405180608001604052805f60ff1681526020015f60ff1681526020015f60ff1681526020015f60ff1681525081525090505f5b600481101561353f575f5b600481101561309a5784816004811061303657613035614426565b5b6020020151826004811061304d5761304c614426565b5b602002015183826004811061306557613064614426565b5b6020020151836004811061307c5761307b614426565b5b602002019060ff16908160ff1681525050808060010191505061301a565b506130d5826003600481106130b2576130b1614426565b5b602002015182600481106130c9576130c8614426565b5b60200201516001613854565b61310f836002600481106130ec576130eb614426565b5b6020020151836004811061310357613102614426565b5b60200201516001613854565b6131498460016004811061312657613125614426565b5b6020020151846004811061313d5761313c614426565b5b60200201516003613854565b613182855f6004811061315f5761315e614426565b5b6020020151856004811061317657613175614426565b5b60200201516002613854565b181818845f6004811061319857613197614426565b5b602002015182600481106131af576131ae614426565b5b602002019060ff16908160ff16815250506131fa826003600481106131d7576131d6614426565b5b602002015182600481106131ee576131ed614426565b5b60200201516001613854565b6132348360026004811061321157613210614426565b5b6020020151836004811061322857613227614426565b5b60200201516003613854565b61326e8460016004811061324b5761324a614426565b5b6020020151846004811061326257613261614426565b5b60200201516002613854565b6132a7855f6004811061328457613283614426565b5b6020020151856004811061329b5761329a614426565b5b60200201516001613854565b181818846001600481106132be576132bd614426565b5b602002015182600481106132d5576132d4614426565b5b602002019060ff16908160ff1681525050613320826003600481106132fd576132fc614426565b5b6020020151826004811061331457613313614426565b5b60200201516003613854565b61335a8360026004811061333757613336614426565b5b6020020151836004811061334e5761334d614426565b5b60200201516002613854565b6133948460016004811061337157613370614426565b5b6020020151846004811061338857613387614426565b5b60200201516001613854565b6133cd855f600481106133aa576133a9614426565b5b602002015185600481106133c1576133c0614426565b5b60200201516001613854565b181818846002600481106133e4576133e3614426565b5b602002015182600481106133fb576133fa614426565b5b602002019060ff16908160ff16815250506134468260036004811061342357613422614426565b5b6020020151826004811061343a57613439614426565b5b60200201516002613854565b6134808360026004811061345d5761345c614426565b5b6020020151836004811061347457613473614426565b5b60200201516001613854565b6134ba8460016004811061349757613496614426565b5b602002015184600481106134ae576134ad614426565b5b60200201516001613854565b6134f3855f600481106134d0576134cf614426565b5b602002015185600481106134e7576134e6614426565b5b60200201516003613854565b1818188460036004811061350a57613509614426565b5b6020020151826004811061352157613520614426565b5b602002019060ff16908160ff1681525050808060010191505061300f565b5082915050919050565b61356081613558613933613952565b63ffffffff16565b50565b61356b6139db565b5f60405180608001604052805f60ff1681526020015f60ff1681526020015f60ff1681526020015f60ff168152509050826001600481106135af576135ae614426565b5b6020020151815f600481106135c7576135c6614426565b5b602002019060ff16908160ff1681525050826002600481106135ec576135eb614426565b5b60200201518160016004811061360557613604614426565b5b602002019060ff16908160ff16815250508260036004811061362a57613629614426565b5b60200201518160026004811061364357613642614426565b5b602002019060ff16908160ff1681525050825f6004811061366757613666614426565b5b6020020151816003600481106136805761367f614426565b5b602002019060ff16908160ff168152505080915050919050565b6136a26139db565b6001825f600481106136b7576136b6614426565b5b602002015160ff1661010081106136d1576136d0614426565b5b602091828204019190069054906101000a900460ff16825f600481106136fa576136f9614426565b5b602002019060ff16908160ff168152505060018260016004811061372157613720614426565b5b602002015160ff16610100811061373b5761373a614426565b5b602091828204019190069054906101000a900460ff168260016004811061376557613764614426565b5b602002019060ff16908160ff168152505060018260026004811061378c5761378b614426565b5b602002015160ff1661010081106137a6576137a5614426565b5b602091828204019190069054906101000a900460ff16826002600481106137d0576137cf614426565b5b602002019060ff16908160ff16815250506001826003600481106137f7576137f6614426565b5b602002015160ff16610100811061381157613810614426565b5b602091828204019190069054906101000a900460ff168260036004811061383b5761383a614426565b5b602002019060ff16908160ff1681525050819050919050565b5f808360ff16148061386857505f8260ff16145b15613875575f905061392d565b5f60118460ff16610100811061388e5761388d614426565b5b602091828204019190069054906101000a900460ff1660ff1690505f60118460ff1661010081106138c2576138c1614426565b5b602091828204019190069054906101000a900460ff1660ff1690505f60ff82846138ec9190614773565b6138f691906147a8565b905060198161ffff16610100811061391157613910614426565b5b602091828204019190069054906101000a900460ff1693505050505b92915050565b5f6a636f6e736f6c652e6c6f6790505f80835160208501845afa505050565b6139fd819050919050565b604051806102000160405280601090602082028036833780820191505090505090565b604051806105800160405280602c905b6139986139db565b8152602001906001900390816139905790505090565b60405180608001604052806004905b6139c56139db565b8152602001906001900390816139bd5790505090565b6040518060800160405280600490602082028036833780820191505090505090565b613a056147d8565b565b5f604051905090565b5f80fd5b5f80fd5b5f80fd5b5f80fd5b5f601f19601f8301169050919050565b7f4e487b71000000000000000000000000000000000000000000000000000000005f52604160045260245ffd5b613a6682613a20565b810181811067ffffffffffffffff82111715613a8557613a84613a30565b5b80604052505050565b5f613a97613a07565b9050613aa38282613a5d565b919050565b5f67ffffffffffffffff821115613ac257613ac1613a30565b5b613acb82613a20565b9050602081019050919050565b828183375f83830152505050565b5f613af8613af384613aa8565b613a8e565b905082815260208101848484011115613b1457613b13613a1c565b5b613b1f848285613ad8565b509392505050565b5f82601f830112613b3b57613b3a613a18565b5b8135613b4b848260208601613ae6565b91505092915050565b5f60208284031215613b6957613b68613a10565b5b5f82013567ffffffffffffffff811115613b8657613b85613a14565b5b613b9284828501613b27565b91505092915050565b5f81519050919050565b5f82825260208201905092915050565b5f819050602082019050919050565b5f6fffffffffffffffffffffffffffffffff82169050919050565b613be881613bc4565b82525050565b5f613bf98383613bdf565b60208301905092915050565b5f602082019050919050565b5f613c1b82613b9b565b613c258185613ba5565b9350613c3083613bb5565b805f5b83811015613c60578151613c478882613bee565b9750613c5283613c05565b925050600181019050613c33565b5085935050505092915050565b5f6020820190508181035f830152613c858184613c11565b905092915050565b5f805f805f60a08688031215613ca657613ca5613a10565b5b5f86013567ffffffffffffffff811115613cc357613cc2613a14565b5b613ccf88828901613b27565b955050602086013567ffffffffffffffff811115613cf057613cef613a14565b5b613cfc88828901613b27565b945050604086013567ffffffffffffffff811115613d1d57613d1c613a14565b5b613d2988828901613b27565b935050606086013567ffffffffffffffff811115613d4a57613d49613a14565b5b613d5688828901613b27565b925050608086013567ffffffffffffffff811115613d7757613d76613a14565b5b613d8388828901613b27565b9150509295509295909350565b5f81519050919050565b5f82825260208201905092915050565b8281835e5f83830152505050565b5f613dc282613d90565b613dcc8185613d9a565b9350613ddc818560208601613daa565b613de581613a20565b840191505092915050565b5f6020820190508181035f830152613e088184613db8565b905092915050565b5f67ffffffffffffffff821115613e2a57613e29613a30565b5b602082029050602081019050919050565b5f80fd5b613e4881613bc4565b8114613e52575f80fd5b50565b5f81359050613e6381613e3f565b92915050565b5f613e7b613e7684613e10565b613a8e565b90508083825260208201905060208402830185811115613e9e57613e9d613e3b565b5b835b81811015613ec75780613eb38882613e55565b845260208401935050602081019050613ea0565b5050509392505050565b5f82601f830112613ee557613ee4613a18565b5b8135613ef5848260208601613e69565b91505092915050565b5f60208284031215613f1357613f12613a10565b5b5f82013567ffffffffffffffff811115613f3057613f2f613a14565b5b613f3c84828501613ed1565b91505092915050565b5f67ffffffffffffffff821115613f5f57613f5e613a30565b5b602082029050919050565b5f60ff82169050919050565b613f7f81613f6a565b8114613f89575f80fd5b50565b5f81359050613f9a81613f76565b92915050565b5f613fb2613fad84613f45565b613a8e565b90508060208402830185811115613fcc57613fcb613e3b565b5b835b81811015613ff55780613fe18882613f8c565b845260208401935050602081019050613fce565b5050509392505050565b5f82601f83011261401357614012613a18565b5b6010614020848285613fa0565b91505092915050565b5f8061040083850312156140405761403f613a10565b5b5f61404d85828601613fff565b92505061020061405f85828601613fff565b9150509250929050565b5f60109050919050565b5f81905092915050565b5f819050919050565b61408f81613f6a565b82525050565b5f6140a08383614086565b60208301905092915050565b5f602082019050919050565b6140c181614069565b6140cb8184614073565b92506140d68261407d565b805f5b838110156141065781516140ed8782614095565b96506140f8836140ac565b9250506001810190506140d9565b505050505050565b5f610200820190506141225f8301846140b8565b92915050565b5f610200828403121561413e5761413d613a10565b5b5f61414b84828501613fff565b91505092915050565b61415d81613bc4565b82525050565b5f6020820190506141765f830184614154565b92915050565b5f6020828403121561419157614190613a10565b5b5f61419e84828501613e55565b91505092915050565b5f819050919050565b7f4e487b71000000000000000000000000000000000000000000000000000000005f52601260045260245ffd5b5f6141e7826141a7565b91506141f2836141a7565b925082614202576142016141b0565b5b828206905092915050565b7f4e487b71000000000000000000000000000000000000000000000000000000005f52601160045260245ffd5b5f614244826141a7565b915061424f836141a7565b92508282039050818111156142675761426661420d565b5b92915050565b5f81905092915050565b5f61428182613d90565b61428b818561426d565b935061429b818560208601613daa565b80840191505092915050565b5f815250565b5f6142b88284614277565b91506142c3826142a7565b60018201915081905092915050565b5f6142dd8285614277565b91506142e98284614277565b91508190509392505050565b5f6142ff826141a7565b915061430a836141a7565b92508261431a576143196141b0565b5b828204905092915050565b5f61432f826141a7565b915061433a836141a7565b9250828202614348816141a7565b9150828204841483151761435f5761435e61420d565b5b5092915050565b5f819050602082019050919050565b5f7fffffffffffffffffffffffffffffffff0000000000000000000000000000000082169050919050565b5f6143ab8251614375565b80915050919050565b5f82821b905092915050565b5f6143ca82613d90565b826143d484614366565b90506143df816143a0565b9250601082101561441f5761441a7fffffffffffffffffffffffffffffffff00000000000000000000000000000000836010036008026143b4565b831692505b5050919050565b7f4e487b71000000000000000000000000000000000000000000000000000000005f52603260045260245ffd5b5f61445d826141a7565b9150614468836141a7565b92508282019050808211156144805761447f61420d565b5b92915050565b5f61449082613bc4565b915061449b83613bc4565b925082820190506fffffffffffffffffffffffffffffffff8111156144c3576144c261420d565b5b92915050565b5f82825260208201905092915050565b7f696e76616c6964206175746820746167000000000000000000000000000000005f82015250565b5f61450d6010836144c9565b9150614518826144d9565b602082019050919050565b5f6020820190508181035f83015261453a81614501565b9050919050565b5f61454b82613bc4565b91506fffffffffffffffffffffffffffffffff820361456d5761456c61420d565b5b600182019050919050565b5f819050919050565b61459261458d82614375565b614578565b82525050565b5f6145a38284614581565b60108201915081905092915050565b5f8160801b9050919050565b5f6145c8826145b2565b9050919050565b6145e06145db82613bc4565b6145be565b82525050565b5f6145f182846145cf565b60108201915081905092915050565b5f61460a826141a7565b91505f820361461c5761461b61420d565b5b600182039050919050565b5f614631826141a7565b91507fffffffffffffffffffffffffffffffffffffffffffffffffffffffffffffffff82036146635761466261420d565b5b600182019050919050565b7f736c6963655f6f766572666c6f770000000000000000000000000000000000005f82015250565b5f6146a2600e836144c9565b91506146ad8261466e565b602082019050919050565b5f6020820190508181035f8301526146cf81614696565b9050919050565b7f736c6963655f6f75744f66426f756e64730000000000000000000000000000005f82015250565b5f61470a6011836144c9565b9150614715826146d6565b602082019050919050565b5f6020820190508181035f830152614737816146fe565b9050919050565b614747816141a7565b82525050565b5f6020820190506147605f83018461473e565b92915050565b5f61ffff82169050919050565b5f61477d82614766565b915061478883614766565b9250828201905061ffff8111156147a2576147a161420d565b5b92915050565b5f6147b282614766565b91506147bd83614766565b9250826147cd576147cc6141b0565b5b828206905092915050565b7f4e487b71000000000000000000000000000000000000000000000000000000005f52605160045260245ffdfea2646970667358221220593d5af5dff8cc1b90210f07006570cb0ed5200cecca0c60e57264cdbb1819ba64736f6c634300081a0033",
			"opcodes": "PUSH1 0x80 PUSH1 0x40 MSTORE PUSH1 0x40 MLOAD DUP1 PUSH2 0x160 ADD PUSH1 0x40 MSTORE DUP1 PUSH1 0x8D PUSH1 0xFF AND DUP2 MSTORE PUSH1 0x20 ADD PUSH1 0x1 PUSH1 0xFF AND DUP2 MSTORE PUSH1 0x20 ADD PUSH1 0x2 PUSH1 0xFF AND DUP2 MSTORE PUSH1 0x20 ADD PUSH1 0x4 PUSH1 0xFF AND DUP2 MSTORE PUSH1 0x20 ADD PUSH1 0x8 PUSH1 0xFF AND DUP2 MSTORE PUSH1 0x20 ADD PUSH1 0x10 PUSH1 0xFF AND DUP2 MSTORE PUSH1 0x20 ADD PUSH1 0x20 PUSH1 0xFF AND DUP2 MSTORE PUSH1 0x20 ADD PUSH1 0x40 PUSH1 0xFF AND DUP2 MSTORE PUSH1 0x20 ADD PUSH1 0x80 PUSH1 0xFF AND DUP2 MSTORE PUSH1 0x20 ADD PUSH1 0x1B PUSH1 0xFF AND DUP2 MSTORE PUSH1 0x20 ADD PUSH1 0x36 PUSH1 0xFF AND DUP2 MSTORE POP PUSH0 SWAP1 PUSH1 0xB PUSH2 0x8B SWAP3 SWAP2 SWAP1 PUSH2 0x2906 JUMP JUMPDEST POP PUSH1 0x40 MLOAD DUP1 PUSH2 0x2000 ADD PUSH1 0x40 MSTORE DUP1 PUSH1 0x63 PUSH1 0xFF AND DUP2 MSTORE PUSH1 0x20 ADD PUSH1 0x7C PUSH1 0xFF AND DUP2 MSTORE PUSH1 0x20 ADD PUSH1 0x77 PUSH1 0xFF AND DUP2 MSTORE PUSH1 0x20 ADD PUSH1 0x7B PUSH1 0xFF AND DUP2 MSTORE PUSH1 0x20 ADD PUSH1 0xF2 PUSH1 0xFF AND DUP2 MSTORE PUSH1 0x20 ADD PUSH1 0x6B PUSH1 0xFF AND DUP2 MSTORE PUSH1 0x20 ADD PUSH1 0x6F PUSH1 0xFF AND DUP2 MSTORE PUSH1 0x20 ADD PUSH1 0xC5 PUSH1 0xFF AND DUP2 MSTORE PUSH1 0x20 ADD PUSH1 0x30 PUSH1 0xFF AND DUP2 MSTORE PUSH1 0x20 ADD PUSH1 0x1 PUSH1 0xFF AND DUP2 MSTORE PUSH1 0x20 ADD PUSH1 0x67 PUSH1 0xFF AND DUP2 MSTORE PUSH1 0x20 ADD PUSH1 0x2B PUSH1 0xFF AND DUP2 MSTORE PUSH1 0x20 ADD PUSH1 0xFE PUSH1 0xFF AND DUP2 MSTORE PUSH1 0x20 ADD PUSH1 0xD7 PUSH1 0xFF AND DUP2 MSTORE PUSH1 0x20 ADD PUSH1 0xAB PUSH1 0xFF AND DUP2 MSTORE PUSH1 0x20 ADD PUSH1 0x76 PUSH1 0xFF AND DUP2 MSTORE PUSH1 0x20 ADD PUSH1 0xCA PUSH1 0xFF AND DUP2 MSTORE PUSH1 0x20 ADD PUSH1 0x82 PUSH1 0xFF AND DUP2 MSTORE PUSH1 0x20 ADD PUSH1 0xC9 PUSH1 0xFF AND DUP2 MSTORE PUSH1 0x20 ADD PUSH1 0x7D PUSH1 0xFF AND DUP2 MSTORE PUSH1 0x20 ADD PUSH1 0xFA PUSH1 0xFF AND DUP2 MSTORE PUSH1 0x20 ADD PUSH1 0x59 PUSH1 0xFF AND DUP2 MSTORE PUSH1 0x20 ADD PUSH1 0x47 PUSH1 0xFF AND DUP2 MSTORE PUSH1 0x20 ADD PUSH1 0xF0 PUSH1 0xFF AND DUP2 MSTORE PUSH1 0x20 ADD PUSH1 0xAD PUSH1 0xFF AND DUP2 MSTORE PUSH1 0x20 ADD PUSH1 0xD4 PUSH1 0xFF AND DUP2 MSTORE PUSH1 0x20 ADD PUSH1 0xA2 PUSH1 0xFF AND DUP2 MSTORE PUSH1 0x20 ADD PUSH1 0xAF PUSH1 0xFF AND DUP2 MSTORE PUSH1 0x20 ADD PUSH1 0x9C PUSH1 0xFF AND DUP2 MSTORE PUSH1 0x20 ADD PUSH1 0xA4 PUSH1 0xFF AND DUP2 MSTORE PUSH1 0x20 ADD PUSH1 0x72 PUSH1 0xFF AND DUP2 MSTORE PUSH1 0x20 ADD PUSH1 0xC0 PUSH1 0xFF AND DUP2 MSTORE PUSH1 0x20 ADD PUSH1 0xB7 PUSH1 0xFF AND DUP2 MSTORE PUSH1 0x20 ADD PUSH1 0xFD PUSH1 0xFF AND DUP2 MSTORE PUSH1 0x20 ADD PUSH1 0x93 PUSH1 0xFF AND DUP2 MSTORE PUSH1 0x20 ADD PUSH1 0x26 PUSH1 0xFF AND DUP2 MSTORE PUSH1 0x20 ADD PUSH1 0x36 PUSH1 0xFF AND DUP2 MSTORE PUSH1 0x20 ADD PUSH1 0x3F PUSH1 0xFF AND DUP2 MSTORE PUSH1 0x20 ADD PUSH1 0xF7 PUSH1 0xFF AND DUP2 MSTORE PUSH1 0x20 ADD PUSH1 0xCC PUSH1 0xFF AND DUP2 MSTORE PUSH1 0x20 ADD PUSH1 0x34 PUSH1 0xFF AND DUP2 MSTORE PUSH1 0x20 ADD PUSH1 0xA5 PUSH1 0xFF AND DUP2 MSTORE PUSH1 0x20 ADD PUSH1 0xE5 PUSH1 0xFF AND DUP2 MSTORE PUSH1 0x20 ADD PUSH1 0xF1 PUSH1 0xFF AND DUP2 MSTORE PUSH1 0x20 ADD PUSH1 0x71 PUSH1 0xFF AND DUP2 MSTORE PUSH1 0x20 ADD PUSH1 0xD8 PUSH1 0xFF AND DUP2 MSTORE PUSH1 0x20 ADD PUSH1 0x31 PUSH1 0xFF AND DUP2 MSTORE PUSH1 0x20 ADD PUSH1 0x15 PUSH1 0xFF AND DUP2 MSTORE PUSH1 0x20 ADD PUSH1 0x4 PUSH1 0xFF AND DUP2 MSTORE PUSH1 0x20 ADD PUSH1 0xC7 PUSH1 0xFF AND DUP2 MSTORE PUSH1 0x20 ADD PUSH1 0x23 PUSH1 0xFF AND DUP2 MSTORE PUSH1 0x20 ADD PUSH1 0xC3 PUSH1 0xFF AND DUP2 MSTORE PUSH1 0x20 ADD PUSH1 0x18 PUSH1 0xFF AND DUP2 MSTORE PUSH1 0x20 ADD PUSH1 0x96 PUSH1 0xFF AND DUP2 MSTORE PUSH1 0x20 ADD PUSH1 0x5 PUSH1 0xFF AND DUP2 MSTORE PUSH1 0x20 ADD PUSH1 0x9A PUSH1 0xFF AND DUP2 MSTORE PUSH1 0x20 ADD PUSH1 0x7 PUSH1 0xFF AND DUP2 MSTORE PUSH1 0x20 ADD PUSH1 0x12 PUSH1 0xFF AND DUP2 MSTORE PUSH1 0x20 ADD PUSH1 0x80 PUSH1 0xFF AND DUP2 MSTORE PUSH1 0x20 ADD PUSH1 0xE2 PUSH1 0xFF AND DUP2 MSTORE PUSH1 0x20 ADD PUSH1 0xEB PUSH1 0xFF AND DUP2 MSTORE PUSH1 0x20 ADD PUSH1 0x27 PUSH1 0xFF AND DUP2 MSTORE PUSH1 0x20 ADD PUSH1 0xB2 PUSH1 0xFF AND DUP2 MSTORE PUSH1 0x20 ADD PUSH1 0x75 PUSH1 0xFF AND DUP2 MSTORE PUSH1 0x20 ADD PUSH1 0x9 PUSH1 0xFF AND DUP2 MSTORE PUSH1 0x20 ADD PUSH1 0x83 PUSH1 0xFF AND DUP2 MSTORE PUSH1 0x20 ADD PUSH1 0x2C PUSH1 0xFF AND DUP2 MSTORE PUSH1 0x20 ADD PUSH1 0x1A PUSH1 0xFF AND DUP2 MSTORE PUSH1 0x20 ADD PUSH1 0x1B PUSH1 0xFF AND DUP2 MSTORE PUSH1 0x20 ADD PUSH1 0x6E PUSH1 0xFF AND DUP2 MSTORE PUSH1 0x20 ADD PUSH1 0x5A PUSH1 0xFF AND DUP2 MSTORE PUSH1 0x20 ADD PUSH1 0xA0 PUSH1 0xFF AND DUP2 MSTORE PUSH1 0x20 ADD PUSH1 0x52 PUSH1 0xFF AND DUP2 MSTORE PUSH1 0x20 ADD PUSH1 0x3B PUSH1 0xFF AND DUP2 MSTORE PUSH1 0x20 ADD PUSH1 0xD6 PUSH1 0xFF AND DUP2 MSTORE PUSH1 0x20 ADD PUSH1 0xB3 PUSH1 0xFF AND DUP2 MSTORE PUSH1 0x20 ADD PUSH1 0x29 PUSH1 0xFF AND DUP2 MSTORE PUSH1 0x20 ADD PUSH1 0xE3 PUSH1 0xFF AND DUP2 MSTORE PUSH1 0x20 ADD PUSH1 0x2F PUSH1 0xFF AND DUP2 MSTORE PUSH1 0x20 ADD PUSH1 0x84 PUSH1 0xFF AND DUP2 MSTORE PUSH1 0x20 ADD PUSH1 0x53 PUSH1 0xFF AND DUP2 MSTORE PUSH1 0x20 ADD PUSH1 0xD1 PUSH1 0xFF AND DUP2 MSTORE PUSH1 0x20 ADD PUSH0 PUSH1 0xFF AND DUP2 MSTORE PUSH1 0x20 ADD PUSH1 0xED PUSH1 0xFF AND DUP2 MSTORE PUSH1 0x20 ADD PUSH1 0x20 PUSH1 0xFF AND DUP2 MSTORE PUSH1 0x20 ADD PUSH1 0xFC PUSH1 0xFF AND DUP2 MSTORE PUSH1 0x20 ADD PUSH1 0xB1 PUSH1 0xFF AND DUP2 MSTORE PUSH1 0x20 ADD PUSH1 0x5B PUSH1 0xFF AND DUP2 MSTORE PUSH1 0x20 ADD PUSH1 0x6A PUSH1 0xFF AND DUP2 MSTORE PUSH1 0x20 ADD PUSH1 0xCB PUSH1 0xFF AND DUP2 MSTORE PUSH1 0x20 ADD PUSH1 0xBE PUSH1 0xFF AND DUP2 MSTORE PUSH1 0x20 ADD PUSH1 0x39 PUSH1 0xFF AND DUP2 MSTORE PUSH1 0x20 ADD PUSH1 0x4A PUSH1 0xFF AND DUP2 MSTORE PUSH1 0x20 ADD PUSH1 0x4C PUSH1 0xFF AND DUP2 MSTORE PUSH1 0x20 ADD PUSH1 0x58 PUSH1 0xFF AND DUP2 MSTORE PUSH1 0x20 ADD PUSH1 0xCF PUSH1 0xFF AND DUP2 MSTORE PUSH1 0x20 ADD PUSH1 0xD0 PUSH1 0xFF AND DUP2 MSTORE PUSH1 0x20 ADD PUSH1 0xEF PUSH1 0xFF AND DUP2 MSTORE PUSH1 0x20 ADD PUSH1 0xAA PUSH1 0xFF AND DUP2 MSTORE PUSH1 0x20 ADD PUSH1 0xFB PUSH1 0xFF AND DUP2 MSTORE PUSH1 0x20 ADD PUSH1 0x43 PUSH1 0xFF AND DUP2 MSTORE PUSH1 0x20 ADD PUSH1 0x4D PUSH1 0xFF AND DUP2 MSTORE PUSH1 0x20 ADD PUSH1 0x33 PUSH1 0xFF AND DUP2 MSTORE PUSH1 0x20 ADD PUSH1 0x85 PUSH1 0xFF AND DUP2 MSTORE PUSH1 0x20 ADD PUSH1 0x45 PUSH1 0xFF AND DUP2 MSTORE PUSH1 0x20 ADD PUSH1 0xF9 PUSH1 0xFF AND DUP2 MSTORE PUSH1 0x20 ADD PUSH1 0x2 PUSH1 0xFF AND DUP2 MSTORE PUSH1 0x20 ADD PUSH1 0x7F PUSH1 0xFF AND DUP2 MSTORE PUSH1 0x20 ADD PUSH1 0x50 PUSH1 0xFF AND DUP2 MSTORE PUSH1 0x20 ADD PUSH1 0x3C PUSH1 0xFF AND DUP2 MSTORE PUSH1 0x20 ADD PUSH1 0x9F PUSH1 0xFF AND DUP2 MSTORE PUSH1 0x20 ADD PUSH1 0xA8 PUSH1 0xFF AND DUP2 MSTORE PUSH1 0x20 ADD PUSH1 0x51 PUSH1 0xFF AND DUP2 MSTORE PUSH1 0x20 ADD PUSH1 0xA3 PUSH1 0xFF AND DUP2 MSTORE PUSH1 0x20 ADD PUSH1 0x40 PUSH1 0xFF AND DUP2 MSTORE PUSH1 0x20 ADD PUSH1 0x8F PUSH1 0xFF AND DUP2 MSTORE PUSH1 0x20 ADD PUSH1 0x92 PUSH1 0xFF AND DUP2 MSTORE PUSH1 0x20 ADD PUSH1 0x9D PUSH1 0xFF AND DUP2 MSTORE PUSH1 0x20 ADD PUSH1 0x38 PUSH1 0xFF AND DUP2 MSTORE PUSH1 0x20 ADD PUSH1 0xF5 PUSH1 0xFF AND DUP2 MSTORE PUSH1 0x20 ADD PUSH1 0xBC PUSH1 0xFF AND DUP2 MSTORE PUSH1 0x20 ADD PUSH1 0xB6 PUSH1 0xFF AND DUP2 MSTORE PUSH1 0x20 ADD PUSH1 0xDA PUSH1 0xFF AND DUP2 MSTORE PUSH1 0x20 ADD PUSH1 0x21 PUSH1 0xFF AND DUP2 MSTORE PUSH1 0x20 ADD PUSH1 0x10 PUSH1 0xFF AND DUP2 MSTORE PUSH1 0x20 ADD PUSH1 0xFF DUP1 AND DUP2 MSTORE PUSH1 0x20 ADD PUSH1 0xF3 PUSH1 0xFF AND DUP2 MSTORE PUSH1 0x20 ADD PUSH1 0xD2 PUSH1 0xFF AND DUP2 MSTORE PUSH1 0x20 ADD PUSH1 0xCD PUSH1 0xFF AND DUP2 MSTORE PUSH1 0x20 ADD PUSH1 0xC PUSH1 0xFF AND DUP2 MSTORE PUSH1 0x20 ADD PUSH1 0x13 PUSH1 0xFF AND DUP2 MSTORE PUSH1 0x20 ADD PUSH1 0xEC PUSH1 0xFF AND DUP2 MSTORE PUSH1 0x20 ADD PUSH1 0x5F PUSH1 0xFF AND DUP2 MSTORE PUSH1 0x20 ADD PUSH1 0x97 PUSH1 0xFF AND DUP2 MSTORE PUSH1 0x20 ADD PUSH1 0x44 PUSH1 0xFF AND DUP2 MSTORE PUSH1 0x20 ADD PUSH1 0x17 PUSH1 0xFF AND DUP2 MSTORE PUSH1 0x20 ADD PUSH1 0xC4 PUSH1 0xFF AND DUP2 MSTORE PUSH1 0x20 ADD PUSH1 0xA7 PUSH1 0xFF AND DUP2 MSTORE PUSH1 0x20 ADD PUSH1 0x7E PUSH1 0xFF AND DUP2 MSTORE PUSH1 0x20 ADD PUSH1 0x3D PUSH1 0xFF AND DUP2 MSTORE PUSH1 0x20 ADD PUSH1 0x64 PUSH1 0xFF AND DUP2 MSTORE PUSH1 0x20 ADD PUSH1 0x5D PUSH1 0xFF AND DUP2 MSTORE PUSH1 0x20 ADD PUSH1 0x19 PUSH1 0xFF AND DUP2 MSTORE PUSH1 0x20 ADD PUSH1 0x73 PUSH1 0xFF AND DUP2 MSTORE PUSH1 0x20 ADD PUSH1 0x60 PUSH1 0xFF AND DUP2 MSTORE PUSH1 0x20 ADD PUSH1 0x81 PUSH1 0xFF AND DUP2 MSTORE PUSH1 0x20 ADD PUSH1 0x4F PUSH1 0xFF AND DUP2 MSTORE PUSH1 0x20 ADD PUSH1 0xDC PUSH1 0xFF AND DUP2 MSTORE PUSH1 0x20 ADD PUSH1 0x22 PUSH1 0xFF AND DUP2 MSTORE PUSH1 0x20 ADD PUSH1 0x2A PUSH1 0xFF AND DUP2 MSTORE PUSH1 0x20 ADD PUSH1 0x90 PUSH1 0xFF AND DUP2 MSTORE PUSH1 0x20 ADD PUSH1 0x88 PUSH1 0xFF AND DUP2 MSTORE PUSH1 0x20 ADD PUSH1 0x46 PUSH1 0xFF AND DUP2 MSTORE PUSH1 0x20 ADD PUSH1 0xEE PUSH1 0xFF AND DUP2 MSTORE PUSH1 0x20 ADD PUSH1 0xB8 PUSH1 0xFF AND DUP2 MSTORE PUSH1 0x20 ADD PUSH1 0x14 PUSH1 0xFF AND DUP2 MSTORE PUSH1 0x20 ADD PUSH1 0xDE PUSH1 0xFF AND DUP2 MSTORE PUSH1 0x20 ADD PUSH1 0x5E PUSH1 0xFF AND DUP2 MSTORE PUSH1 0x20 ADD PUSH1 0xB PUSH1 0xFF AND DUP2 MSTORE PUSH1 0x20 ADD PUSH1 0xDB PUSH1 0xFF AND DUP2 MSTORE PUSH1 0x20 ADD PUSH1 0xE0 PUSH1 0xFF AND DUP2 MSTORE PUSH1 0x20 ADD PUSH1 0x32 PUSH1 0xFF AND DUP2 MSTORE PUSH1 0x20 ADD PUSH1 0x3A PUSH1 0xFF AND DUP2 MSTORE PUSH1 0x20 ADD PUSH1 0xA PUSH1 0xFF AND DUP2 MSTORE PUSH1 0x20 ADD PUSH1 0x49 PUSH1 0xFF AND DUP2 MSTORE PUSH1 0x20 ADD PUSH1 0x6 PUSH1 0xFF AND DUP2 MSTORE PUSH1 0x20 ADD PUSH1 0x24 PUSH1 0xFF AND DUP2 MSTORE PUSH1 0x20 ADD PUSH1 0x5C PUSH1 0xFF AND DUP2 MSTORE PUSH1 0x20 ADD PUSH1 0xC2 PUSH1 0xFF AND DUP2 MSTORE PUSH1 0x20 ADD PUSH1 0xD3 PUSH1 0xFF AND DUP2 MSTORE PUSH1 0x20 ADD PUSH1 0xAC PUSH1 0xFF AND DUP2 MSTORE PUSH1 0x20 ADD PUSH1 0x62 PUSH1 0xFF AND DUP2 MSTORE PUSH1 0x20 ADD PUSH1 0x91 PUSH1 0xFF AND DUP2 MSTORE PUSH1 0x20 ADD PUSH1 0x95 PUSH1 0xFF AND DUP2 MSTORE PUSH1 0x20 ADD PUSH1 0xE4 PUSH1 0xFF AND DUP2 MSTORE PUSH1 0x20 ADD PUSH1 0x79 PUSH1 0xFF AND DUP2 MSTORE PUSH1 0x20 ADD PUSH1 0xE7 PUSH1 0xFF AND DUP2 MSTORE PUSH1 0x20 ADD PUSH1 0xC8 PUSH1 0xFF AND DUP2 MSTORE PUSH1 0x20 ADD PUSH1 0x37 PUSH1 0xFF AND DUP2 MSTORE PUSH1 0x20 ADD PUSH1 0x6D PUSH1 0xFF AND DUP2 MSTORE PUSH1 0x20 ADD PUSH1 0x8D PUSH1 0xFF AND DUP2 MSTORE PUSH1 0x20 ADD PUSH1 0xD5 PUSH1 0xFF AND DUP2 MSTORE PUSH1 0x20 ADD PUSH1 0x4E PUSH1 0xFF AND DUP2 MSTORE PUSH1 0x20 ADD PUSH1 0xA9 PUSH1 0xFF AND DUP2 MSTORE PUSH1 0x20 ADD PUSH1 0x6C PUSH1 0xFF AND DUP2 MSTORE PUSH1 0x20 ADD PUSH1 0x56 PUSH1 0xFF AND DUP2 MSTORE PUSH1 0x20 ADD PUSH1 0xF4 PUSH1 0xFF AND DUP2 MSTORE PUSH1 0x20 ADD PUSH1 0xEA PUSH1 0xFF AND DUP2 MSTORE PUSH1 0x20 ADD PUSH1 0x65 PUSH1 0xFF AND DUP2 MSTORE PUSH1 0x20 ADD PUSH1 0x7A PUSH1 0xFF AND DUP2 MSTORE PUSH1 0x20 ADD PUSH1 0xAE PUSH1 0xFF AND DUP2 MSTORE PUSH1 0x20 ADD PUSH1 0x8 PUSH1 0xFF AND DUP2 MSTORE PUSH1 0x20 ADD PUSH1 0xBA PUSH1 0xFF AND DUP2 MSTORE PUSH1 0x20 ADD PUSH1 0x78 PUSH1 0xFF AND DUP2 MSTORE PUSH1 0x20 ADD PUSH1 0x25 PUSH1 0xFF AND DUP2 MSTORE PUSH1 0x20 ADD PUSH1 0x2E PUSH1 0xFF AND DUP2 MSTORE PUSH1 0x20 ADD PUSH1 0x1C PUSH1 0xFF AND DUP2 MSTORE PUSH1 0x20 ADD PUSH1 0xA6 PUSH1 0xFF AND DUP2 MSTORE PUSH1 0x20 ADD PUSH1 0xB4 PUSH1 0xFF AND DUP2 MSTORE PUSH1 0x20 ADD PUSH1 0xC6 PUSH1 0xFF AND DUP2 MSTORE PUSH1 0x20 ADD PUSH1 0xE8 PUSH1 0xFF AND DUP2 MSTORE PUSH1 0x20 ADD PUSH1 0xDD PUSH1 0xFF AND DUP2 MSTORE PUSH1 0x20 ADD PUSH1 0x74 PUSH1 0xFF AND DUP2 MSTORE PUSH1 0x20 ADD PUSH1 0x1F PUSH1 0xFF AND DUP2 MSTORE PUSH1 0x20 ADD PUSH1 0x4B PUSH1 0xFF AND DUP2 MSTORE PUSH1 0x20 ADD PUSH1 0xBD PUSH1 0xFF AND DUP2 MSTORE PUSH1 0x20 ADD PUSH1 0x8B PUSH1 0xFF AND DUP2 MSTORE PUSH1 0x20 ADD PUSH1 0x8A PUSH1 0xFF AND DUP2 MSTORE PUSH1 0x20 ADD PUSH1 0x70 PUSH1 0xFF AND DUP2 MSTORE PUSH1 0x20 ADD PUSH1 0x3E PUSH1 0xFF AND DUP2 MSTORE PUSH1 0x20 ADD PUSH1 0xB5 PUSH1 0xFF AND DUP2 MSTORE PUSH1 0x20 ADD PUSH1 0x66 PUSH1 0xFF AND DUP2 MSTORE PUSH1 0x20 ADD PUSH1 0x48 PUSH1 0xFF AND DUP2 MSTORE PUSH1 0x20 ADD PUSH1 0x3 PUSH1 0xFF AND DUP2 MSTORE PUSH1 0x20 ADD PUSH1 0xF6 PUSH1 0xFF AND DUP2 MSTORE PUSH1 0x20 ADD PUSH1 0xE PUSH1 0xFF AND DUP2 MSTORE PUSH1 0x20 ADD PUSH1 0x61 PUSH1 0xFF AND DUP2 MSTORE PUSH1 0x20 ADD PUSH1 0x35 PUSH1 0xFF AND DUP2 MSTORE PUSH1 0x20 ADD PUSH1 0x57 PUSH1 0xFF AND DUP2 MSTORE PUSH1 0x20 ADD PUSH1 0xB9 PUSH1 0xFF AND DUP2 MSTORE PUSH1 0x20 ADD PUSH1 0x86 PUSH1 0xFF AND DUP2 MSTORE PUSH1 0x20 ADD PUSH1 0xC1 PUSH1 0xFF AND DUP2 MSTORE PUSH1 0x20 ADD PUSH1 0x1D PUSH1 0xFF AND DUP2 MSTORE PUSH1 0x20 ADD PUSH1 0x9E PUSH1 0xFF AND DUP2 MSTORE PUSH1 0x20 ADD PUSH1 0xE1 PUSH1 0xFF AND DUP2 MSTORE PUSH1 0x20 ADD PUSH1 0xF8 PUSH1 0xFF AND DUP2 MSTORE PUSH1 0x20 ADD PUSH1 0x98 PUSH1 0xFF AND DUP2 MSTORE PUSH1 0x20 ADD PUSH1 0x11 PUSH1 0xFF AND DUP2 MSTORE PUSH1 0x20 ADD PUSH1 0x69 PUSH1 0xFF AND DUP2 MSTORE PUSH1 0x20 ADD PUSH1 0xD9 PUSH1 0xFF AND DUP2 MSTORE PUSH1 0x20 ADD PUSH1 0x8E PUSH1 0xFF AND DUP2 MSTORE PUSH1 0x20 ADD PUSH1 0x94 PUSH1 0xFF AND DUP2 MSTORE PUSH1 0x20 ADD PUSH1 0x9B PUSH1 0xFF AND DUP2 MSTORE PUSH1 0x20 ADD PUSH1 0x1E PUSH1 0xFF AND DUP2 MSTORE PUSH1 0x20 ADD PUSH1 0x87 PUSH1 0xFF AND DUP2 MSTORE PUSH1 0x20 ADD PUSH1 0xE9 PUSH1 0xFF AND DUP2 MSTORE PUSH1 0x20 ADD PUSH1 0xCE PUSH1 0xFF AND DUP2 MSTORE PUSH1 0x20 ADD PUSH1 0x55 PUSH1 0xFF AND DUP2 MSTORE PUSH1 0x20 ADD PUSH1 0x28 PUSH1 0xFF AND DUP2 MSTORE PUSH1 0x20 ADD PUSH1 0xDF PUSH1 0xFF AND DUP2 MSTORE PUSH1 0x20 ADD PUSH1 0x8C PUSH1 0xFF AND DUP2 MSTORE PUSH1 0x20 ADD PUSH1 0xA1 PUSH1 0xFF AND DUP2 MSTORE PUSH1 0x20 ADD PUSH1 0x89 PUSH1 0xFF AND DUP2 MSTORE PUSH1 0x20 ADD PUSH1 0xD PUSH1 0xFF AND DUP2 MSTORE PUSH1 0x20 ADD PUSH1 0xBF PUSH1 0xFF AND DUP2 MSTORE PUSH1 0x20 ADD PUSH1 0xE6 PUSH1 0xFF AND DUP2 MSTORE PUSH1 0x20 ADD PUSH1 0x42 PUSH1 0xFF AND DUP2 MSTORE PUSH1 0x20 ADD PUSH1 0x68 PUSH1 0xFF AND DUP2 MSTORE PUSH1 0x20 ADD PUSH1 0x41 PUSH1 0xFF AND DUP2 MSTORE PUSH1 0x20 ADD PUSH1 0x99 PUSH1 0xFF AND DUP2 MSTORE PUSH1 0x20 ADD PUSH1 0x2D PUSH1 0xFF AND DUP2 MSTORE PUSH1 0x20 ADD PUSH1 0xF PUSH1 0xFF AND DUP2 MSTORE PUSH1 0x20 ADD PUSH1 0xB0 PUSH1 0xFF AND DUP2 MSTORE PUSH1 0x20 ADD PUSH1 0x54 PUSH1 0xFF AND DUP2 MSTORE PUSH1 0x20 ADD PUSH1 0xBB PUSH1 0xFF AND DUP2 MSTORE PUSH1 0x20 ADD PUSH1 0x16 PUSH1 0xFF AND DUP2 MSTORE POP PUSH1 0x1 SWAP1 PUSH2 0x100 PUSH2 0xAA5 SWAP3 SWAP2 SWAP1 PUSH2 0x299D JUMP JUMPDEST POP PUSH1 0x40 MLOAD DUP1 PUSH2 0x2000 ADD PUSH1 0x40 MSTORE DUP1 PUSH1 0x52 PUSH1 0xFF AND DUP2 MSTORE PUSH1 0x20 ADD PUSH1 0x9 PUSH1 0xFF AND DUP2 MSTORE PUSH1 0x20 ADD PUSH1 0x6A PUSH1 0xFF AND DUP2 MSTORE PUSH1 0x20 ADD PUSH1 0xD5 PUSH1 0xFF AND DUP2 MSTORE PUSH1 0x20 ADD PUSH1 0x30 PUSH1 0xFF AND DUP2 MSTORE PUSH1 0x20 ADD PUSH1 0x36 PUSH1 0xFF AND DUP2 MSTORE PUSH1 0x20 ADD PUSH1 0xA5 PUSH1 0xFF AND DUP2 MSTORE PUSH1 0x20 ADD PUSH1 0x38 PUSH1 0xFF AND DUP2 MSTORE PUSH1 0x20 ADD PUSH1 0xBF PUSH1 0xFF AND DUP2 MSTORE PUSH1 0x20 ADD PUSH1 0x40 PUSH1 0xFF AND DUP2 MSTORE PUSH1 0x20 ADD PUSH1 0xA3 PUSH1 0xFF AND DUP2 MSTORE PUSH1 0x20 ADD PUSH1 0x9E PUSH1 0xFF AND DUP2 MSTORE PUSH1 0x20 ADD PUSH1 0x81 PUSH1 0xFF AND DUP2 MSTORE PUSH1 0x20 ADD PUSH1 0xF3 PUSH1 0xFF AND DUP2 MSTORE PUSH1 0x20 ADD PUSH1 0xD7 PUSH1 0xFF AND DUP2 MSTORE PUSH1 0x20 ADD PUSH1 0xFB PUSH1 0xFF AND DUP2 MSTORE PUSH1 0x20 ADD PUSH1 0x7C PUSH1 0xFF AND DUP2 MSTORE PUSH1 0x20 ADD PUSH1 0xE3 PUSH1 0xFF AND DUP2 MSTORE PUSH1 0x20 ADD PUSH1 0x39 PUSH1 0xFF AND DUP2 MSTORE PUSH1 0x20 ADD PUSH1 0x82 PUSH1 0xFF AND DUP2 MSTORE PUSH1 0x20 ADD PUSH1 0x9B PUSH1 0xFF AND DUP2 MSTORE PUSH1 0x20 ADD PUSH1 0x2F PUSH1 0xFF AND DUP2 MSTORE PUSH1 0x20 ADD PUSH1 0xFF DUP1 AND DUP2 MSTORE PUSH1 0x20 ADD PUSH1 0x87 PUSH1 0xFF AND DUP2 MSTORE PUSH1 0x20 ADD PUSH1 0x34 PUSH1 0xFF AND DUP2 MSTORE PUSH1 0x20 ADD PUSH1 0x8E PUSH1 0xFF AND DUP2 MSTORE PUSH1 0x20 ADD PUSH1 0x43 PUSH1 0xFF AND DUP2 MSTORE PUSH1 0x20 ADD PUSH1 0x44 PUSH1 0xFF AND DUP2 MSTORE PUSH1 0x20 ADD PUSH1 0xC4 PUSH1 0xFF AND DUP2 MSTORE PUSH1 0x20 ADD PUSH1 0xDE PUSH1 0xFF AND DUP2 MSTORE PUSH1 0x20 ADD PUSH1 0xE9 PUSH1 0xFF AND DUP2 MSTORE PUSH1 0x20 ADD PUSH1 0xCB PUSH1 0xFF AND DUP2 MSTORE PUSH1 0x20 ADD PUSH1 0x54 PUSH1 0xFF AND DUP2 MSTORE PUSH1 0x20 ADD PUSH1 0x7B PUSH1 0xFF AND DUP2 MSTORE PUSH1 0x20 ADD PUSH1 0x94 PUSH1 0xFF AND DUP2 MSTORE PUSH1 0x20 ADD PUSH1 0x32 PUSH1 0xFF AND DUP2 MSTORE PUSH1 0x20 ADD PUSH1 0xA6 PUSH1 0xFF AND DUP2 MSTORE PUSH1 0x20 ADD PUSH1 0xC2 PUSH1 0xFF AND DUP2 MSTORE PUSH1 0x20 ADD PUSH1 0x23 PUSH1 0xFF AND DUP2 MSTORE PUSH1 0x20 ADD PUSH1 0x3D PUSH1 0xFF AND DUP2 MSTORE PUSH1 0x20 ADD PUSH1 0xEE PUSH1 0xFF AND DUP2 MSTORE PUSH1 0x20 ADD PUSH1 0x4C PUSH1 0xFF AND DUP2 MSTORE PUSH1 0x20 ADD PUSH1 0x95 PUSH1 0xFF AND DUP2 MSTORE PUSH1 0x20 ADD PUSH1 0xB PUSH1 0xFF AND DUP2 MSTORE PUSH1 0x20 ADD PUSH1 0x42 PUSH1 0xFF AND DUP2 MSTORE PUSH1 0x20 ADD PUSH1 0xFA PUSH1 0xFF AND DUP2 MSTORE PUSH1 0x20 ADD PUSH1 0xC3 PUSH1 0xFF AND DUP2 MSTORE PUSH1 0x20 ADD PUSH1 0x4E PUSH1 0xFF AND DUP2 MSTORE PUSH1 0x20 ADD PUSH1 0x8 PUSH1 0xFF AND DUP2 MSTORE PUSH1 0x20 ADD PUSH1 0x2E PUSH1 0xFF AND DUP2 MSTORE PUSH1 0x20 ADD PUSH1 0xA1 PUSH1 0xFF AND DUP2 MSTORE PUSH1 0x20 ADD PUSH1 0x66 PUSH1 0xFF AND DUP2 MSTORE PUSH1 0x20 ADD PUSH1 0x28 PUSH1 0xFF AND DUP2 MSTORE PUSH1 0x20 ADD PUSH1 0xD9 PUSH1 0xFF AND DUP2 MSTORE PUSH1 0x20 ADD PUSH1 0x24 PUSH1 0xFF AND DUP2 MSTORE PUSH1 0x20 ADD PUSH1 0xB2 PUSH1 0xFF AND DUP2 MSTORE PUSH1 0x20 ADD PUSH1 0x76 PUSH1 0xFF AND DUP2 MSTORE PUSH1 0x20 ADD PUSH1 0x5B PUSH1 0xFF AND DUP2 MSTORE PUSH1 0x20 ADD PUSH1 0xA2 PUSH1 0xFF AND DUP2 MSTORE PUSH1 0x20 ADD PUSH1 0x49 PUSH1 0xFF AND DUP2 MSTORE PUSH1 0x20 ADD PUSH1 0x6D PUSH1 0xFF AND DUP2 MSTORE PUSH1 0x20 ADD PUSH1 0x8B PUSH1 0xFF AND DUP2 MSTORE PUSH1 0x20 ADD PUSH1 0xD1 PUSH1 0xFF AND DUP2 MSTORE PUSH1 0x20 ADD PUSH1 0x25 PUSH1 0xFF AND DUP2 MSTORE PUSH1 0x20 ADD PUSH1 0x72 PUSH1 0xFF AND DUP2 MSTORE PUSH1 0x20 ADD PUSH1 0xF8 PUSH1 0xFF AND DUP2 MSTORE PUSH1 0x20 ADD PUSH1 0xF6 PUSH1 0xFF AND DUP2 MSTORE PUSH1 0x20 ADD PUSH1 0x64 PUSH1 0xFF AND DUP2 MSTORE PUSH1 0x20 ADD PUSH1 0x86 PUSH1 0xFF AND DUP2 MSTORE PUSH1 0x20 ADD PUSH1 0x68 PUSH1 0xFF AND DUP2 MSTORE PUSH1 0x20 ADD PUSH1 0x98 PUSH1 0xFF AND DUP2 MSTORE PUSH1 0x20 ADD PUSH1 0x16 PUSH1 0xFF AND DUP2 MSTORE PUSH1 0x20 ADD PUSH1 0xD4 PUSH1 0xFF AND DUP2 MSTORE PUSH1 0x20 ADD PUSH1 0xA4 PUSH1 0xFF AND DUP2 MSTORE PUSH1 0x20 ADD PUSH1 0x5C PUSH1 0xFF AND DUP2 MSTORE PUSH1 0x20 ADD PUSH1 0xCC PUSH1 0xFF AND DUP2 MSTORE PUSH1 0x20 ADD PUSH1 0x5D PUSH1 0xFF AND DUP2 MSTORE PUSH1 0x20 ADD PUSH1 0x65 PUSH1 0xFF AND DUP2 MSTORE PUSH1 0x20 ADD PUSH1 0xB6 PUSH1 0xFF AND DUP2 MSTORE PUSH1 0x20 ADD PUSH1 0x92 PUSH1 0xFF AND DUP2 MSTORE PUSH1 0x20 ADD PUSH1 0x6C PUSH1 0xFF AND DUP2 MSTORE PUSH1 0x20 ADD PUSH1 0x70 PUSH1 0xFF AND DUP2 MSTORE PUSH1 0x20 ADD PUSH1 0x48 PUSH1 0xFF AND DUP2 MSTORE PUSH1 0x20 ADD PUSH1 0x50 PUSH1 0xFF AND DUP2 MSTORE PUSH1 0x20 ADD PUSH1 0xFD PUSH1 0xFF AND DUP2 MSTORE PUSH1 0x20 ADD PUSH1 0xED PUSH1 0xFF AND DUP2 MSTORE PUSH1 0x20 ADD PUSH1 0xB9 PUSH1 0xFF AND DUP2 MSTORE PUSH1 0x20 ADD PUSH1 0xDA PUSH1 0xFF AND DUP2 MSTORE PUSH1 0x20 ADD PUSH1 0x5E PUSH1 0xFF AND DUP2 MSTORE PUSH1 0x20 ADD PUSH1 0x15 PUSH1 0xFF AND DUP2 MSTORE PUSH1 0x20 ADD PUSH1 0x46 PUSH1 0xFF AND DUP2 MSTORE PUSH1 0x20 ADD PUSH1 0x57 PUSH1 0xFF AND DUP2 MSTORE PUSH1 0x20 ADD PUSH1 0xA7 PUSH1 0xFF AND DUP2 MSTORE PUSH1 0x20 ADD PUSH1 0x8D PUSH1 0xFF AND DUP2 MSTORE PUSH1 0x20 ADD PUSH1 0x9D PUSH1 0xFF AND DUP2 MSTORE PUSH1 0x20 ADD PUSH1 0x84 PUSH1 0xFF AND DUP2 MSTORE PUSH1 0x20 ADD PUSH1 0x90 PUSH1 0xFF AND DUP2 MSTORE PUSH1 0x20 ADD PUSH1 0xD8 PUSH1 0xFF AND DUP2 MSTORE PUSH1 0x20 ADD PUSH1 0xAB PUSH1 0xFF AND DUP2 MSTORE PUSH1 0x20 ADD PUSH0 PUSH1 0xFF AND DUP2 MSTORE PUSH1 0x20 ADD PUSH1 0x8C PUSH1 0xFF AND DUP2 MSTORE PUSH1 0x20 ADD PUSH1 0xBC PUSH1 0xFF AND DUP2 MSTORE PUSH1 0x20 ADD PUSH1 0xD3 PUSH1 0xFF AND DUP2 MSTORE PUSH1 0x20 ADD PUSH1 0xA PUSH1 0xFF AND DUP2 MSTORE PUSH1 0x20 ADD PUSH1 0xF7 PUSH1 0xFF AND DUP2 MSTORE PUSH1 0x20 ADD PUSH1 0xE4 PUSH1 0xFF AND DUP2 MSTORE PUSH1 0x20 ADD PUSH1 0x58 PUSH1 0xFF AND DUP2 MSTORE PUSH1 0x20 ADD PUSH1 0x5 PUSH1 0xFF AND DUP2 MSTORE PUSH1 0x20 ADD PUSH1 0xB8 PUSH1 0xFF AND DUP2 MSTORE PUSH1 0x20 ADD PUSH1 0xB3 PUSH1 0xFF AND DUP2 MSTORE PUSH1 0x20 ADD PUSH1 0x45 PUSH1 0xFF AND DUP2 MSTORE PUSH1 0x20 ADD PUSH1 0x6 PUSH1 0xFF AND DUP2 MSTORE PUSH1 0x20 ADD PUSH1 0xD0 PUSH1 0xFF AND DUP2 MSTORE PUSH1 0x20 ADD PUSH1 0x2C PUSH1 0xFF AND DUP2 MSTORE PUSH1 0x20 ADD PUSH1 0x1E PUSH1 0xFF AND DUP2 MSTORE PUSH1 0x20 ADD PUSH1 0x8F PUSH1 0xFF AND DUP2 MSTORE PUSH1 0x20 ADD PUSH1 0xCA PUSH1 0xFF AND DUP2 MSTORE PUSH1 0x20 ADD PUSH1 0x3F PUSH1 0xFF AND DUP2 MSTORE PUSH1 0x20 ADD PUSH1 0xF PUSH1 0xFF AND DUP2 MSTORE PUSH1 0x20 ADD PUSH1 0x2 PUSH1 0xFF AND DUP2 MSTORE PUSH1 0x20 ADD PUSH1 0xC1 PUSH1 0xFF AND DUP2 MSTORE PUSH1 0x20 ADD PUSH1 0xAF PUSH1 0xFF AND DUP2 MSTORE PUSH1 0x20 ADD PUSH1 0xBD PUSH1 0xFF AND DUP2 MSTORE PUSH1 0x20 ADD PUSH1 0x3 PUSH1 0xFF AND DUP2 MSTORE PUSH1 0x20 ADD PUSH1 0x1 PUSH1 0xFF AND DUP2 MSTORE PUSH1 0x20 ADD PUSH1 0x13 PUSH1 0xFF AND DUP2 MSTORE PUSH1 0x20 ADD PUSH1 0x8A PUSH1 0xFF AND DUP2 MSTORE PUSH1 0x20 ADD PUSH1 0x6B PUSH1 0xFF AND DUP2 MSTORE PUSH1 0x20 ADD PUSH1 0x3A PUSH1 0xFF AND DUP2 MSTORE PUSH1 0x20 ADD PUSH1 0x91 PUSH1 0xFF AND DUP2 MSTORE PUSH1 0x20 ADD PUSH1 0x11 PUSH1 0xFF AND DUP2 MSTORE PUSH1 0x20 ADD PUSH1 0x41 PUSH1 0xFF AND DUP2 MSTORE PUSH1 0x20 ADD PUSH1 0x4F PUSH1 0xFF AND DUP2 MSTORE PUSH1 0x20 ADD PUSH1 0x67 PUSH1 0xFF AND DUP2 MSTORE PUSH1 0x20 ADD PUSH1 0xDC PUSH1 0xFF AND DUP2 MSTORE PUSH1 0x20 ADD PUSH1 0xEA PUSH1 0xFF AND DUP2 MSTORE PUSH1 0x20 ADD PUSH1 0x97 PUSH1 0xFF AND DUP2 MSTORE PUSH1 0x20 ADD PUSH1 0xF2 PUSH1 0xFF AND DUP2 MSTORE PUSH1 0x20 ADD PUSH1 0xCF PUSH1 0xFF AND DUP2 MSTORE PUSH1 0x20 ADD PUSH1 0xCE PUSH1 0xFF AND DUP2 MSTORE PUSH1 0x20 ADD PUSH1 0xF0 PUSH1 0xFF AND DUP2 MSTORE PUSH1 0x20 ADD PUSH1 0xB4 PUSH1 0xFF AND DUP2 MSTORE PUSH1 0x20 ADD PUSH1 0xE6 PUSH1 0xFF AND DUP2 MSTORE PUSH1 0x20 ADD PUSH1 0x73 PUSH1 0xFF AND DUP2 MSTORE PUSH1 0x20 ADD PUSH1 0x96 PUSH1 0xFF AND DUP2 MSTORE PUSH1 0x20 ADD PUSH1 0xAC PUSH1 0xFF AND DUP2 MSTORE PUSH1 0x20 ADD PUSH1 0x74 PUSH1 0xFF AND DUP2 MSTORE PUSH1 0x20 ADD PUSH1 0x22 PUSH1 0xFF AND DUP2 MSTORE PUSH1 0x20 ADD PUSH1 0xE7 PUSH1 0xFF AND DUP2 MSTORE PUSH1 0x20 ADD PUSH1 0xAD PUSH1 0xFF AND DUP2 MSTORE PUSH1 0x20 ADD PUSH1 0x35 PUSH1 0xFF AND DUP2 MSTORE PUSH1 0x20 ADD PUSH1 0x85 PUSH1 0xFF AND DUP2 MSTORE PUSH1 0x20 ADD PUSH1 0xE2 PUSH1 0xFF AND DUP2 MSTORE PUSH1 0x20 ADD PUSH1 0xF9 PUSH1 0xFF AND DUP2 MSTORE PUSH1 0x20 ADD PUSH1 0x37 PUSH1 0xFF AND DUP2 MSTORE PUSH1 0x20 ADD PUSH1 0xE8 PUSH1 0xFF AND DUP2 MSTORE PUSH1 0x20 ADD PUSH1 0x1C PUSH1 0xFF AND DUP2 MSTORE PUSH1 0x20 ADD PUSH1 0x75 PUSH1 0xFF AND DUP2 MSTORE PUSH1 0x20 ADD PUSH1 0xDF PUSH1 0xFF AND DUP2 MSTORE PUSH1 0x20 ADD PUSH1 0x6E PUSH1 0xFF AND DUP2 MSTORE PUSH1 0x20 ADD PUSH1 0x47 PUSH1 0xFF AND DUP2 MSTORE PUSH1 0x20 ADD PUSH1 0xF1 PUSH1 0xFF AND DUP2 MSTORE PUSH1 0x20 ADD PUSH1 0x1A PUSH1 0xFF AND DUP2 MSTORE PUSH1 0x20 ADD PUSH1 0x71 PUSH1 0xFF AND DUP2 MSTORE PUSH1 0x20 ADD PUSH1 0x1D PUSH1 0xFF AND DUP2 MSTORE PUSH1 0x20 ADD PUSH1 0x29 PUSH1 0xFF AND DUP2 MSTORE PUSH1 0x20 ADD PUSH1 0xC5 PUSH1 0xFF AND DUP2 MSTORE PUSH1 0x20 ADD PUSH1 0x89 PUSH1 0xFF AND DUP2 MSTORE PUSH1 0x20 ADD PUSH1 0x6F PUSH1 0xFF AND DUP2 MSTORE PUSH1 0x20 ADD PUSH1 0xB7 PUSH1 0xFF AND DUP2 MSTORE PUSH1 0x20 ADD PUSH1 0x62 PUSH1 0xFF AND DUP2 MSTORE PUSH1 0x20 ADD PUSH1 0xE PUSH1 0xFF AND DUP2 MSTORE PUSH1 0x20 ADD PUSH1 0xAA PUSH1 0xFF AND DUP2 MSTORE PUSH1 0x20 ADD PUSH1 0x18 PUSH1 0xFF AND DUP2 MSTORE PUSH1 0x20 ADD PUSH1 0xBE PUSH1 0xFF AND DUP2 MSTORE PUSH1 0x20 ADD PUSH1 0x1B PUSH1 0xFF AND DUP2 MSTORE PUSH1 0x20 ADD PUSH1 0xFC PUSH1 0xFF AND DUP2 MSTORE PUSH1 0x20 ADD PUSH1 0x56 PUSH1 0xFF AND DUP2 MSTORE PUSH1 0x20 ADD PUSH1 0x3E PUSH1 0xFF AND DUP2 MSTORE PUSH1 0x20 ADD PUSH1 0x4B PUSH1 0xFF AND DUP2 MSTORE PUSH1 0x20 ADD PUSH1 0xC6 PUSH1 0xFF AND DUP2 MSTORE PUSH1 0x20 ADD PUSH1 0xD2 PUSH1 0xFF AND DUP2 MSTORE PUSH1 0x20 ADD PUSH1 0x79 PUSH1 0xFF AND DUP2 MSTORE PUSH1 0x20 ADD PUSH1 0x20 PUSH1 0xFF AND DUP2 MSTORE PUSH1 0x20 ADD PUSH1 0x9A PUSH1 0xFF AND DUP2 MSTORE PUSH1 0x20 ADD PUSH1 0xDB PUSH1 0xFF AND DUP2 MSTORE PUSH1 0x20 ADD PUSH1 0xC0 PUSH1 0xFF AND DUP2 MSTORE PUSH1 0x20 ADD PUSH1 0xFE PUSH1 0xFF AND DUP2 MSTORE PUSH1 0x20 ADD PUSH1 0x78 PUSH1 0xFF AND DUP2 MSTORE PUSH1 0x20 ADD PUSH1 0xCD PUSH1 0xFF AND DUP2 MSTORE PUSH1 0x20 ADD PUSH1 0x5A PUSH1 0xFF AND DUP2 MSTORE PUSH1 0x20 ADD PUSH1 0xF4 PUSH1 0xFF AND DUP2 MSTORE PUSH1 0x20 ADD PUSH1 0x1F PUSH1 0xFF AND DUP2 MSTORE PUSH1 0x20 ADD PUSH1 0xDD PUSH1 0xFF AND DUP2 MSTORE PUSH1 0x20 ADD PUSH1 0xA8 PUSH1 0xFF AND DUP2 MSTORE PUSH1 0x20 ADD PUSH1 0x33 PUSH1 0xFF AND DUP2 MSTORE PUSH1 0x20 ADD PUSH1 0x88 PUSH1 0xFF AND DUP2 MSTORE PUSH1 0x20 ADD PUSH1 0x7 PUSH1 0xFF AND DUP2 MSTORE PUSH1 0x20 ADD PUSH1 0xC7 PUSH1 0xFF AND DUP2 MSTORE PUSH1 0x20 ADD PUSH1 0x31 PUSH1 0xFF AND DUP2 MSTORE PUSH1 0x20 ADD PUSH1 0xB1 PUSH1 0xFF AND DUP2 MSTORE PUSH1 0x20 ADD PUSH1 0x12 PUSH1 0xFF AND DUP2 MSTORE PUSH1 0x20 ADD PUSH1 0x10 PUSH1 0xFF AND DUP2 MSTORE PUSH1 0x20 ADD PUSH1 0x59 PUSH1 0xFF AND DUP2 MSTORE PUSH1 0x20 ADD PUSH1 0x27 PUSH1 0xFF AND DUP2 MSTORE PUSH1 0x20 ADD PUSH1 0x80 PUSH1 0xFF AND DUP2 MSTORE PUSH1 0x20 ADD PUSH1 0xEC PUSH1 0xFF AND DUP2 MSTORE PUSH1 0x20 ADD PUSH1 0x5F PUSH1 0xFF AND DUP2 MSTORE PUSH1 0x20 ADD PUSH1 0x60 PUSH1 0xFF AND DUP2 MSTORE PUSH1 0x20 ADD PUSH1 0x51 PUSH1 0xFF AND DUP2 MSTORE PUSH1 0x20 ADD PUSH1 0x7F PUSH1 0xFF AND DUP2 MSTORE PUSH1 0x20 ADD PUSH1 0xA9 PUSH1 0xFF AND DUP2 MSTORE PUSH1 0x20 ADD PUSH1 0x19 PUSH1 0xFF AND DUP2 MSTORE PUSH1 0x20 ADD PUSH1 0xB5 PUSH1 0xFF AND DUP2 MSTORE PUSH1 0x20 ADD PUSH1 0x4A PUSH1 0xFF AND DUP2 MSTORE PUSH1 0x20 ADD PUSH1 0xD PUSH1 0xFF AND DUP2 MSTORE PUSH1 0x20 ADD PUSH1 0x2D PUSH1 0xFF AND DUP2 MSTORE PUSH1 0x20 ADD PUSH1 0xE5 PUSH1 0xFF AND DUP2 MSTORE PUSH1 0x20 ADD PUSH1 0x7A PUSH1 0xFF AND DUP2 MSTORE PUSH1 0x20 ADD PUSH1 0x9F PUSH1 0xFF AND DUP2 MSTORE PUSH1 0x20 ADD PUSH1 0x93 PUSH1 0xFF AND DUP2 MSTORE PUSH1 0x20 ADD PUSH1 0xC9 PUSH1 0xFF AND DUP2 MSTORE PUSH1 0x20 ADD PUSH1 0x9C PUSH1 0xFF AND DUP2 MSTORE PUSH1 0x20 ADD PUSH1 0xEF PUSH1 0xFF AND DUP2 MSTORE PUSH1 0x20 ADD PUSH1 0xA0 PUSH1 0xFF AND DUP2 MSTORE PUSH1 0x20 ADD PUSH1 0xE0 PUSH1 0xFF AND DUP2 MSTORE PUSH1 0x20 ADD PUSH1 0x3B PUSH1 0xFF AND DUP2 MSTORE PUSH1 0x20 ADD PUSH1 0x4D PUSH1 0xFF AND DUP2 MSTORE PUSH1 0x20 ADD PUSH1 0xAE PUSH1 0xFF AND DUP2 MSTORE PUSH1 0x20 ADD PUSH1 0x2A PUSH1 0xFF AND DUP2 MSTORE PUSH1 0x20 ADD PUSH1 0xF5 PUSH1 0xFF AND DUP2 MSTORE PUSH1 0x20 ADD PUSH1 0xB0 PUSH1 0xFF AND DUP2 MSTORE PUSH1 0x20 ADD PUSH1 0xC8 PUSH1 0xFF AND DUP2 MSTORE PUSH1 0x20 ADD PUSH1 0xEB PUSH1 0xFF AND DUP2 MSTORE PUSH1 0x20 ADD PUSH1 0xBB PUSH1 0xFF AND DUP2 MSTORE PUSH1 0x20 ADD PUSH1 0x3C PUSH1 0xFF AND DUP2 MSTORE PUSH1 0x20 ADD PUSH1 0x83 PUSH1 0xFF AND DUP2 MSTORE PUSH1 0x20 ADD PUSH1 0x53 PUSH1 0xFF AND DUP2 MSTORE PUSH1 0x20 ADD PUSH1 0x99 PUSH1 0xFF AND DUP2 MSTORE PUSH1 0x20 ADD PUSH1 0x61 PUSH1 0xFF AND DUP2 MSTORE PUSH1 0x20 ADD PUSH1 0x17 PUSH1 0xFF AND DUP2 MSTORE PUSH1 0x20 ADD PUSH1 0x2B PUSH1 0xFF AND DUP2 MSTORE PUSH1 0x20 ADD PUSH1 0x4 PUSH1 0xFF AND DUP2 MSTORE PUSH1 0x20 ADD PUSH1 0x7E PUSH1 0xFF AND DUP2 MSTORE PUSH1 0x20 ADD PUSH1 0xBA PUSH1 0xFF AND DUP2 MSTORE PUSH1 0x20 ADD PUSH1 0x77 PUSH1 0xFF AND DUP2 MSTORE PUSH1 0x20 ADD PUSH1 0xD6 PUSH1 0xFF AND DUP2 MSTORE PUSH1 0x20 ADD PUSH1 0x26 PUSH1 0xFF AND DUP2 MSTORE PUSH1 0x20 ADD PUSH1 0xE1 PUSH1 0xFF AND DUP2 MSTORE PUSH1 0x20 ADD PUSH1 0x69 PUSH1 0xFF AND DUP2 MSTORE PUSH1 0x20 ADD PUSH1 0x14 PUSH1 0xFF AND DUP2 MSTORE PUSH1 0x20 ADD PUSH1 0x63 PUSH1 0xFF AND DUP2 MSTORE PUSH1 0x20 ADD PUSH1 0x55 PUSH1 0xFF AND DUP2 MSTORE PUSH1 0x20 ADD PUSH1 0x21 PUSH1 0xFF AND DUP2 MSTORE PUSH1 0x20 ADD PUSH1 0xC PUSH1 0xFF AND DUP2 MSTORE PUSH1 0x20 ADD PUSH1 0x7D PUSH1 0xFF AND DUP2 MSTORE POP PUSH1 0x9 SWAP1 PUSH2 0x100 PUSH2 0x14BF SWAP3 SWAP2 SWAP1 PUSH2 0x299D JUMP JUMPDEST POP PUSH1 0x40 MLOAD DUP1 PUSH2 0x2000 ADD PUSH1 0x40 MSTORE DUP1 PUSH0 PUSH1 0xFF AND DUP2 MSTORE PUSH1 0x20 ADD PUSH0 PUSH1 0xFF AND DUP2 MSTORE PUSH1 0x20 ADD PUSH1 0xC8 PUSH1 0xFF AND DUP2 MSTORE PUSH1 0x20 ADD PUSH1 0x8 PUSH1 0xFF AND DUP2 MSTORE PUSH1 0x20 ADD PUSH1 0x91 PUSH1 0xFF AND DUP2 MSTORE PUSH1 0x20 ADD PUSH1 0x10 PUSH1 0xFF AND DUP2 MSTORE PUSH1 0x20 ADD PUSH1 0xD0 PUSH1 0xFF AND DUP2 MSTORE PUSH1 0x20 ADD PUSH1 0x36 PUSH1 0xFF AND DUP2 MSTORE PUSH1 0x20 ADD PUSH1 0x5A PUSH1 0xFF AND DUP2 MSTORE PUSH1 0x20 ADD PUSH1 0x3E PUSH1 0xFF AND DUP2 MSTORE PUSH1 0x20 ADD PUSH1 0xD8 PUSH1 0xFF AND DUP2 MSTORE PUSH1 0x20 ADD PUSH1 0x43 PUSH1 0xFF AND DUP2 MSTORE PUSH1 0x20 ADD PUSH1 0x99 PUSH1 0xFF AND DUP2 MSTORE PUSH1 0x20 ADD PUSH1 0x77 PUSH1 0xFF AND DUP2 MSTORE PUSH1 0x20 ADD PUSH1 0xFE PUSH1 0xFF AND DUP2 MSTORE PUSH1 0x20 ADD PUSH1 0x18 PUSH1 0xFF AND DUP2 MSTORE PUSH1 0x20 ADD PUSH1 0x23 PUSH1 0xFF AND DUP2 MSTORE PUSH1 0x20 ADD PUSH1 0x20 PUSH1 0xFF AND DUP2 MSTORE PUSH1 0x20 ADD PUSH1 0x7 PUSH1 0xFF AND DUP2 MSTORE PUSH1 0x20 ADD PUSH1 0x70 PUSH1 0xFF AND DUP2 MSTORE PUSH1 0x20 ADD PUSH1 0xA1 PUSH1 0xFF AND DUP2 MSTORE PUSH1 0x20 ADD PUSH1 0x6C PUSH1 0xFF AND DUP2 MSTORE PUSH1 0x20 ADD PUSH1 0xC PUSH1 0xFF AND DUP2 MSTORE PUSH1 0x20 ADD PUSH1 0x7F PUSH1 0xFF AND DUP2 MSTORE PUSH1 0x20 ADD PUSH1 0x62 PUSH1 0xFF AND DUP2 MSTORE PUSH1 0x20 ADD PUSH1 0x8B PUSH1 0xFF AND DUP2 MSTORE PUSH1 0x20 ADD PUSH1 0x40 PUSH1 0xFF AND DUP2 MSTORE PUSH1 0x20 ADD PUSH1 0x46 PUSH1 0xFF AND DUP2 MSTORE PUSH1 0x20 ADD PUSH1 0xC7 PUSH1 0xFF AND DUP2 MSTORE PUSH1 0x20 ADD PUSH1 0x4B PUSH1 0xFF AND DUP2 MSTORE PUSH1 0x20 ADD PUSH1 0xE0 PUSH1 0xFF AND DUP2 MSTORE PUSH1 0x20 ADD PUSH1 0xE PUSH1 0xFF AND DUP2 MSTORE PUSH1 0x20 ADD PUSH1 0xEB PUSH1 0xFF AND DUP2 MSTORE PUSH1 0x20 ADD PUSH1 0x16 PUSH1 0xFF AND DUP2 MSTORE PUSH1 0x20 ADD PUSH1 0xE8 PUSH1 0xFF AND DUP2 MSTORE PUSH1 0x20 ADD PUSH1 0xAD PUSH1 0xFF AND DUP2 MSTORE PUSH1 0x20 ADD PUSH1 0xCF PUSH1 0xFF AND DUP2 MSTORE PUSH1 0x20 ADD PUSH1 0xCD PUSH1 0xFF AND DUP2 MSTORE PUSH1 0x20 ADD PUSH1 0x39 PUSH1 0xFF AND DUP2 MSTORE PUSH1 0x20 ADD PUSH1 0x53 PUSH1 0xFF AND DUP2 MSTORE PUSH1 0x20 ADD PUSH1 0x6A PUSH1 0xFF AND DUP2 MSTORE PUSH1 0x20 ADD PUSH1 0x27 PUSH1 0xFF AND DUP2 MSTORE PUSH1 0x20 ADD PUSH1 0x35 PUSH1 0xFF AND DUP2 MSTORE PUSH1 0x20 ADD PUSH1 0x93 PUSH1 0xFF AND DUP2 MSTORE PUSH1 0x20 ADD PUSH1 0xD4 PUSH1 0xFF AND DUP2 MSTORE PUSH1 0x20 ADD PUSH1 0x4E PUSH1 0xFF AND DUP2 MSTORE PUSH1 0x20 ADD PUSH1 0x48 PUSH1 0xFF AND DUP2 MSTORE PUSH1 0x20 ADD PUSH1 0xC3 PUSH1 0xFF AND DUP2 MSTORE PUSH1 0x20 ADD PUSH1 0x2B PUSH1 0xFF AND DUP2 MSTORE PUSH1 0x20 ADD PUSH1 0x79 PUSH1 0xFF AND DUP2 MSTORE PUSH1 0x20 ADD PUSH1 0x54 PUSH1 0xFF AND DUP2 MSTORE PUSH1 0x20 ADD PUSH1 0x28 PUSH1 0xFF AND DUP2 MSTORE PUSH1 0x20 ADD PUSH1 0x9 PUSH1 0xFF AND DUP2 MSTORE PUSH1 0x20 ADD PUSH1 0x78 PUSH1 0xFF AND DUP2 MSTORE PUSH1 0x20 ADD PUSH1 0xF PUSH1 0xFF AND DUP2 MSTORE PUSH1 0x20 ADD PUSH1 0x21 PUSH1 0xFF AND DUP2 MSTORE PUSH1 0x20 ADD PUSH1 0x90 PUSH1 0xFF AND DUP2 MSTORE PUSH1 0x20 ADD PUSH1 0x87 PUSH1 0xFF AND DUP2 MSTORE PUSH1 0x20 ADD PUSH1 0x14 PUSH1 0xFF AND DUP2 MSTORE PUSH1 0x20 ADD PUSH1 0x2A PUSH1 0xFF AND DUP2 MSTORE PUSH1 0x20 ADD PUSH1 0xA9 PUSH1 0xFF AND DUP2 MSTORE PUSH1 0x20 ADD PUSH1 0x9C PUSH1 0xFF AND DUP2 MSTORE PUSH1 0x20 ADD PUSH1 0xD6 PUSH1 0xFF AND DUP2 MSTORE PUSH1 0x20 ADD PUSH1 0x74 PUSH1 0xFF AND DUP2 MSTORE PUSH1 0x20 ADD PUSH1 0xB4 PUSH1 0xFF AND DUP2 MSTORE PUSH1 0x20 ADD PUSH1 0x7C PUSH1 0xFF AND DUP2 MSTORE PUSH1 0x20 ADD PUSH1 0xDE PUSH1 0xFF AND DUP2 MSTORE PUSH1 0x20 ADD PUSH1 0xED PUSH1 0xFF AND DUP2 MSTORE PUSH1 0x20 ADD PUSH1 0xB1 PUSH1 0xFF AND DUP2 MSTORE PUSH1 0x20 ADD PUSH1 0x86 PUSH1 0xFF AND DUP2 MSTORE PUSH1 0x20 ADD PUSH1 0x76 PUSH1 0xFF AND DUP2 MSTORE PUSH1 0x20 ADD PUSH1 0xA4 PUSH1 0xFF AND DUP2 MSTORE PUSH1 0x20 ADD PUSH1 0x98 PUSH1 0xFF AND DUP2 MSTORE PUSH1 0x20 ADD PUSH1 0xE2 PUSH1 0xFF AND DUP2 MSTORE PUSH1 0x20 ADD PUSH1 0x96 PUSH1 0xFF AND DUP2 MSTORE PUSH1 0x20 ADD PUSH1 0x8F PUSH1 0xFF AND DUP2 MSTORE PUSH1 0x20 ADD PUSH1 0x2 PUSH1 0xFF AND DUP2 MSTORE PUSH1 0x20 ADD PUSH1 0x32 PUSH1 0xFF AND DUP2 MSTORE PUSH1 0x20 ADD PUSH1 0x1C PUSH1 0xFF AND DUP2 MSTORE PUSH1 0x20 ADD PUSH1 0xC1 PUSH1 0xFF AND DUP2 MSTORE PUSH1 0x20 ADD PUSH1 0x33 PUSH1 0xFF AND DUP2 MSTORE PUSH1 0x20 ADD PUSH1 0xEE PUSH1 0xFF AND DUP2 MSTORE PUSH1 0x20 ADD PUSH1 0xEF PUSH1 0xFF AND DUP2 MSTORE PUSH1 0x20 ADD PUSH1 0x81 PUSH1 0xFF AND DUP2 MSTORE PUSH1 0x20 ADD PUSH1 0xFD PUSH1 0xFF AND DUP2 MSTORE PUSH1 0x20 ADD PUSH1 0x30 PUSH1 0xFF AND DUP2 MSTORE PUSH1 0x20 ADD PUSH1 0x5C PUSH1 0xFF AND DUP2 MSTORE PUSH1 0x20 ADD PUSH1 0x13 PUSH1 0xFF AND DUP2 MSTORE PUSH1 0x20 ADD PUSH1 0x9D PUSH1 0xFF AND DUP2 MSTORE PUSH1 0x20 ADD PUSH1 0x29 PUSH1 0xFF AND DUP2 MSTORE PUSH1 0x20 ADD PUSH1 0x17 PUSH1 0xFF AND DUP2 MSTORE PUSH1 0x20 ADD PUSH1 0xC4 PUSH1 0xFF AND DUP2 MSTORE PUSH1 0x20 ADD PUSH1 0x11 PUSH1 0xFF AND DUP2 MSTORE PUSH1 0x20 ADD PUSH1 0x44 PUSH1 0xFF AND DUP2 MSTORE PUSH1 0x20 ADD PUSH1 0x8C PUSH1 0xFF AND DUP2 MSTORE PUSH1 0x20 ADD PUSH1 0x80 PUSH1 0xFF AND DUP2 MSTORE PUSH1 0x20 ADD PUSH1 0xF3 PUSH1 0xFF AND DUP2 MSTORE PUSH1 0x20 ADD PUSH1 0x73 PUSH1 0xFF AND DUP2 MSTORE PUSH1 0x20 ADD PUSH1 0x42 PUSH1 0xFF AND DUP2 MSTORE PUSH1 0x20 ADD PUSH1 0x1E PUSH1 0xFF AND DUP2 MSTORE PUSH1 0x20 ADD PUSH1 0x1D PUSH1 0xFF AND DUP2 MSTORE PUSH1 0x20 ADD PUSH1 0xB5 PUSH1 0xFF AND DUP2 MSTORE PUSH1 0x20 ADD PUSH1 0xF0 PUSH1 0xFF AND DUP2 MSTORE PUSH1 0x20 ADD PUSH1 0x12 PUSH1 0xFF AND DUP2 MSTORE PUSH1 0x20 ADD PUSH1 0xD1 PUSH1 0xFF AND DUP2 MSTORE PUSH1 0x20 ADD PUSH1 0x5B PUSH1 0xFF AND DUP2 MSTORE PUSH1 0x20 ADD PUSH1 0x41 PUSH1 0xFF AND DUP2 MSTORE PUSH1 0x20 ADD PUSH1 0xA2 PUSH1 0xFF AND DUP2 MSTORE PUSH1 0x20 ADD PUSH1 0xD7 PUSH1 0xFF AND DUP2 MSTORE PUSH1 0x20 ADD PUSH1 0x2C PUSH1 0xFF AND DUP2 MSTORE PUSH1 0x20 ADD PUSH1 0xE9 PUSH1 0xFF AND DUP2 MSTORE PUSH1 0x20 ADD PUSH1 0xD5 PUSH1 0xFF AND DUP2 MSTORE PUSH1 0x20 ADD PUSH1 0x59 PUSH1 0xFF AND DUP2 MSTORE PUSH1 0x20 ADD PUSH1 0xCB PUSH1 0xFF AND DUP2 MSTORE PUSH1 0x20 ADD PUSH1 0x50 PUSH1 0xFF AND DUP2 MSTORE PUSH1 0x20 ADD PUSH1 0xA8 PUSH1 0xFF AND DUP2 MSTORE PUSH1 0x20 ADD PUSH1 0xDC PUSH1 0xFF AND DUP2 MSTORE PUSH1 0x20 ADD PUSH1 0xFC PUSH1 0xFF AND DUP2 MSTORE PUSH1 0x20 ADD PUSH1 0xF2 PUSH1 0xFF AND DUP2 MSTORE PUSH1 0x20 ADD PUSH1 0x56 PUSH1 0xFF AND DUP2 MSTORE PUSH1 0x20 ADD PUSH1 0x72 PUSH1 0xFF AND DUP2 MSTORE PUSH1 0x20 ADD PUSH1 0xA6 PUSH1 0xFF AND DUP2 MSTORE PUSH1 0x20 ADD PUSH1 0x65 PUSH1 0xFF AND DUP2 MSTORE PUSH1 0x20 ADD PUSH1 0x2F PUSH1 0xFF AND DUP2 MSTORE PUSH1 0x20 ADD PUSH1 0x9F PUSH1 0xFF AND DUP2 MSTORE PUSH1 0x20 ADD PUSH1 0x9B PUSH1 0xFF AND DUP2 MSTORE PUSH1 0x20 ADD PUSH1 0x3D PUSH1 0xFF AND DUP2 MSTORE PUSH1 0x20 ADD PUSH1 0xBA PUSH1 0xFF AND DUP2 MSTORE PUSH1 0x20 ADD PUSH1 0x7D PUSH1 0xFF AND DUP2 MSTORE PUSH1 0x20 ADD PUSH1 0xC2 PUSH1 0xFF AND DUP2 MSTORE PUSH1 0x20 ADD PUSH1 0x45 PUSH1 0xFF AND DUP2 MSTORE PUSH1 0x20 ADD PUSH1 0x82 PUSH1 0xFF AND DUP2 MSTORE PUSH1 0x20 ADD PUSH1 0xA7 PUSH1 0xFF AND DUP2 MSTORE PUSH1 0x20 ADD PUSH1 0x57 PUSH1 0xFF AND DUP2 MSTORE PUSH1 0x20 ADD PUSH1 0xB6 PUSH1 0xFF AND DUP2 MSTORE PUSH1 0x20 ADD PUSH1 0xA3 PUSH1 0xFF AND DUP2 MSTORE PUSH1 0x20 ADD PUSH1 0x7A PUSH1 0xFF AND DUP2 MSTORE PUSH1 0x20 ADD PUSH1 0x75 PUSH1 0xFF AND DUP2 MSTORE PUSH1 0x20 ADD PUSH1 0x4F PUSH1 0xFF AND DUP2 MSTORE PUSH1 0x20 ADD PUSH1 0xAE PUSH1 0xFF AND DUP2 MSTORE PUSH1 0x20 ADD PUSH1 0x3F PUSH1 0xFF AND DUP2 MSTORE PUSH1 0x20 ADD PUSH1 0x37 PUSH1 0xFF AND DUP2 MSTORE PUSH1 0x20 ADD PUSH1 0x6D PUSH1 0xFF AND DUP2 MSTORE PUSH1 0x20 ADD PUSH1 0x47 PUSH1 0xFF AND DUP2 MSTORE PUSH1 0x20 ADD PUSH1 0x61 PUSH1 0xFF AND DUP2 MSTORE PUSH1 0x20 ADD PUSH1 0xBE PUSH1 0xFF AND DUP2 MSTORE PUSH1 0x20 ADD PUSH1 0xAB PUSH1 0xFF AND DUP2 MSTORE PUSH1 0x20 ADD PUSH1 0xD3 PUSH1 0xFF AND DUP2 MSTORE PUSH1 0x20 ADD PUSH1 0x5F PUSH1 0xFF AND DUP2 MSTORE PUSH1 0x20 ADD PUSH1 0xB0 PUSH1 0xFF AND DUP2 MSTORE PUSH1 0x20 ADD PUSH1 0x58 PUSH1 0xFF AND DUP2 MSTORE PUSH1 0x20 ADD PUSH1 0xAF PUSH1 0xFF AND DUP2 MSTORE PUSH1 0x20 ADD PUSH1 0xCA PUSH1 0xFF AND DUP2 MSTORE PUSH1 0x20 ADD PUSH1 0x5E PUSH1 0xFF AND DUP2 MSTORE PUSH1 0x20 ADD PUSH1 0xFA PUSH1 0xFF AND DUP2 MSTORE PUSH1 0x20 ADD PUSH1 0x85 PUSH1 0xFF AND DUP2 MSTORE PUSH1 0x20 ADD PUSH1 0xE4 PUSH1 0xFF AND DUP2 MSTORE PUSH1 0x20 ADD PUSH1 0x4D PUSH1 0xFF AND DUP2 MSTORE PUSH1 0x20 ADD PUSH1 0x8A PUSH1 0xFF AND DUP2 MSTORE PUSH1 0x20 ADD PUSH1 0x5 PUSH1 0xFF AND DUP2 MSTORE PUSH1 0x20 ADD PUSH1 0xFB PUSH1 0xFF AND DUP2 MSTORE PUSH1 0x20 ADD PUSH1 0x60 PUSH1 0xFF AND DUP2 MSTORE PUSH1 0x20 ADD PUSH1 0xB7 PUSH1 0xFF AND DUP2 MSTORE PUSH1 0x20 ADD PUSH1 0x7B PUSH1 0xFF AND DUP2 MSTORE PUSH1 0x20 ADD PUSH1 0xB8 PUSH1 0xFF AND DUP2 MSTORE PUSH1 0x20 ADD PUSH1 0x26 PUSH1 0xFF AND DUP2 MSTORE PUSH1 0x20 ADD PUSH1 0x4A PUSH1 0xFF AND DUP2 MSTORE PUSH1 0x20 ADD PUSH1 0x67 PUSH1 0xFF AND DUP2 MSTORE PUSH1 0x20 ADD PUSH1 0xC6 PUSH1 0xFF AND DUP2 MSTORE PUSH1 0x20 ADD PUSH1 0x1A PUSH1 0xFF AND DUP2 MSTORE PUSH1 0x20 ADD PUSH1 0xF8 PUSH1 0xFF AND DUP2 MSTORE PUSH1 0x20 ADD PUSH1 0x69 PUSH1 0xFF AND DUP2 MSTORE PUSH1 0x20 ADD PUSH1 0x25 PUSH1 0xFF AND DUP2 MSTORE PUSH1 0x20 ADD PUSH1 0xB3 PUSH1 0xFF AND DUP2 MSTORE PUSH1 0x20 ADD PUSH1 0xDB PUSH1 0xFF AND DUP2 MSTORE PUSH1 0x20 ADD PUSH1 0xBD PUSH1 0xFF AND DUP2 MSTORE PUSH1 0x20 ADD PUSH1 0x66 PUSH1 0xFF AND DUP2 MSTORE PUSH1 0x20 ADD PUSH1 0xDD PUSH1 0xFF AND DUP2 MSTORE PUSH1 0x20 ADD PUSH1 0xF1 PUSH1 0xFF AND DUP2 MSTORE PUSH1 0x20 ADD PUSH1 0xD2 PUSH1 0xFF AND DUP2 MSTORE PUSH1 0x20 ADD PUSH1 0xDF PUSH1 0xFF AND DUP2 MSTORE PUSH1 0x20 ADD PUSH1 0x3 PUSH1 0xFF AND DUP2 MSTORE PUSH1 0x20 ADD PUSH1 0x8D PUSH1 0xFF AND DUP2 MSTORE PUSH1 0x20 ADD PUSH1 0x34 PUSH1 0xFF AND DUP2 MSTORE PUSH1 0x20 ADD PUSH1 0xD9 PUSH1 0xFF AND DUP2 MSTORE PUSH1 0x20 ADD PUSH1 0x92 PUSH1 0xFF AND DUP2 MSTORE PUSH1 0x20 ADD PUSH1 0xD PUSH1 0xFF AND DUP2 MSTORE PUSH1 0x20 ADD PUSH1 0x63 PUSH1 0xFF AND DUP2 MSTORE PUSH1 0x20 ADD PUSH1 0x55 PUSH1 0xFF AND DUP2 MSTORE PUSH1 0x20 ADD PUSH1 0xAA PUSH1 0xFF AND DUP2 MSTORE PUSH1 0x20 ADD PUSH1 0x49 PUSH1 0xFF AND DUP2 MSTORE PUSH1 0x20 ADD PUSH1 0xEC PUSH1 0xFF AND DUP2 MSTORE PUSH1 0x20 ADD PUSH1 0xBC PUSH1 0xFF AND DUP2 MSTORE PUSH1 0x20 ADD PUSH1 0x95 PUSH1 0xFF AND DUP2 MSTORE PUSH1 0x20 ADD PUSH1 0x3C PUSH1 0xFF AND DUP2 MSTORE PUSH1 0x20 ADD PUSH1 0x84 PUSH1 0xFF AND DUP2 MSTORE PUSH1 0x20 ADD PUSH1 0xB PUSH1 0xFF AND DUP2 MSTORE PUSH1 0x20 ADD PUSH1 0xF5 PUSH1 0xFF AND DUP2 MSTORE PUSH1 0x20 ADD PUSH1 0xE6 PUSH1 0xFF AND DUP2 MSTORE PUSH1 0x20 ADD PUSH1 0xE7 PUSH1 0xFF AND DUP2 MSTORE PUSH1 0x20 ADD PUSH1 0xE5 PUSH1 0xFF AND DUP2 MSTORE PUSH1 0x20 ADD PUSH1 0xAC PUSH1 0xFF AND DUP2 MSTORE PUSH1 0x20 ADD PUSH1 0x7E PUSH1 0xFF AND DUP2 MSTORE PUSH1 0x20 ADD PUSH1 0x6E PUSH1 0xFF AND DUP2 MSTORE PUSH1 0x20 ADD PUSH1 0xB9 PUSH1 0xFF AND DUP2 MSTORE PUSH1 0x20 ADD PUSH1 0xF9 PUSH1 0xFF AND DUP2 MSTORE PUSH1 0x20 ADD PUSH1 0xDA PUSH1 0xFF AND DUP2 MSTORE PUSH1 0x20 ADD PUSH1 0x8E PUSH1 0xFF AND DUP2 MSTORE PUSH1 0x20 ADD PUSH1 0x9A PUSH1 0xFF AND DUP2 MSTORE PUSH1 0x20 ADD PUSH1 0xC9 PUSH1 0xFF AND DUP2 MSTORE PUSH1 0x20 ADD PUSH1 0x24 PUSH1 0xFF AND DUP2 MSTORE PUSH1 0x20 ADD PUSH1 0xE1 PUSH1 0xFF AND DUP2 MSTORE PUSH1 0x20 ADD PUSH1 0xA PUSH1 0xFF AND DUP2 MSTORE PUSH1 0x20 ADD PUSH1 0x15 PUSH1 0xFF AND DUP2 MSTORE PUSH1 0x20 ADD PUSH1 0x6B PUSH1 0xFF AND DUP2 MSTORE PUSH1 0x20 ADD PUSH1 0x3A PUSH1 0xFF AND DUP2 MSTORE PUSH1 0x20 ADD PUSH1 0xA0 PUSH1 0xFF AND DUP2 MSTORE PUSH1 0x20 ADD PUSH1 0x51 PUSH1 0xFF AND DUP2 MSTORE PUSH1 0x20 ADD PUSH1 0xF4 PUSH1 0xFF AND DUP2 MSTORE PUSH1 0x20 ADD PUSH1 0xEA PUSH1 0xFF AND DUP2 MSTORE PUSH1 0x20 ADD PUSH1 0xB2 PUSH1 0xFF AND DUP2 MSTORE PUSH1 0x20 ADD PUSH1 0x97 PUSH1 0xFF AND DUP2 MSTORE PUSH1 0x20 ADD PUSH1 0x9E PUSH1 0xFF AND DUP2 MSTORE PUSH1 0x20 ADD PUSH1 0x5D PUSH1 0xFF AND DUP2 MSTORE PUSH1 0x20 ADD PUSH1 0x22 PUSH1 0xFF AND DUP2 MSTORE PUSH1 0x20 ADD PUSH1 0x88 PUSH1 0xFF AND DUP2 MSTORE PUSH1 0x20 ADD PUSH1 0x94 PUSH1 0xFF AND DUP2 MSTORE PUSH1 0x20 ADD PUSH1 0xCE PUSH1 0xFF AND DUP2 MSTORE PUSH1 0x20 ADD PUSH1 0x19 PUSH1 0xFF AND DUP2 MSTORE PUSH1 0x20 ADD PUSH1 0x1 PUSH1 0xFF AND DUP2 MSTORE PUSH1 0x20 ADD PUSH1 0x71 PUSH1 0xFF AND DUP2 MSTORE PUSH1 0x20 ADD PUSH1 0x4C PUSH1 0xFF AND DUP2 MSTORE PUSH1 0x20 ADD PUSH1 0xA5 PUSH1 0xFF AND DUP2 MSTORE PUSH1 0x20 ADD PUSH1 0xE3 PUSH1 0xFF AND DUP2 MSTORE PUSH1 0x20 ADD PUSH1 0xC5 PUSH1 0xFF AND DUP2 MSTORE PUSH1 0x20 ADD PUSH1 0x31 PUSH1 0xFF AND DUP2 MSTORE PUSH1 0x20 ADD PUSH1 0xBB PUSH1 0xFF AND DUP2 MSTORE PUSH1 0x20 ADD PUSH1 0xCC PUSH1 0xFF AND DUP2 MSTORE PUSH1 0x20 ADD PUSH1 0x1F PUSH1 0xFF AND DUP2 MSTORE PUSH1 0x20 ADD PUSH1 0x2D PUSH1 0xFF AND DUP2 MSTORE PUSH1 0x20 ADD PUSH1 0x3B PUSH1 0xFF AND DUP2 MSTORE PUSH1 0x20 ADD PUSH1 0x52 PUSH1 0xFF AND DUP2 MSTORE PUSH1 0x20 ADD PUSH1 0x6F PUSH1 0xFF AND DUP2 MSTORE PUSH1 0x20 ADD PUSH1 0xF6 PUSH1 0xFF AND DUP2 MSTORE PUSH1 0x20 ADD PUSH1 0x2E PUSH1 0xFF AND DUP2 MSTORE PUSH1 0x20 ADD PUSH1 0x89 PUSH1 0xFF AND DUP2 MSTORE PUSH1 0x20 ADD PUSH1 0xF7 PUSH1 0xFF AND DUP2 MSTORE PUSH1 0x20 ADD PUSH1 0xC0 PUSH1 0xFF AND DUP2 MSTORE PUSH1 0x20 ADD PUSH1 0x68 PUSH1 0xFF AND DUP2 MSTORE PUSH1 0x20 ADD PUSH1 0x1B PUSH1 0xFF AND DUP2 MSTORE PUSH1 0x20 ADD PUSH1 0x64 PUSH1 0xFF AND DUP2 MSTORE PUSH1 0x20 ADD PUSH1 0x4 PUSH1 0xFF AND DUP2 MSTORE PUSH1 0x20 ADD PUSH1 0x6 PUSH1 0xFF AND DUP2 MSTORE PUSH1 0x20 ADD PUSH1 0xBF PUSH1 0xFF AND DUP2 MSTORE PUSH1 0x20 ADD PUSH1 0x83 PUSH1 0xFF AND DUP2 MSTORE PUSH1 0x20 ADD PUSH1 0x38 PUSH1 0xFF AND DUP2 MSTORE POP PUSH1 0x11 SWAP1 PUSH2 0x100 PUSH2 0x1ED9 SWAP3 SWAP2 SWAP1 PUSH2 0x299D JUMP JUMPDEST POP PUSH1 0x40 MLOAD DUP1 PUSH2 0x2000 ADD PUSH1 0x40 MSTORE DUP1 PUSH1 0x1 PUSH1 0xFF AND DUP2 MSTORE PUSH1 0x20 ADD PUSH1 0xE5 PUSH1 0xFF AND DUP2 MSTORE PUSH1 0x20 ADD PUSH1 0x4C PUSH1 0xFF AND DUP2 MSTORE PUSH1 0x20 ADD PUSH1 0xB5 PUSH1 0xFF AND DUP2 MSTORE PUSH1 0x20 ADD PUSH1 0xFB PUSH1 0xFF AND DUP2 MSTORE PUSH1 0x20 ADD PUSH1 0x9F PUSH1 0xFF AND DUP2 MSTORE PUSH1 0x20 ADD PUSH1 0xFC PUSH1 0xFF AND DUP2 MSTORE PUSH1 0x20 ADD PUSH1 0x12 PUSH1 0xFF AND DUP2 MSTORE PUSH1 0x20 ADD PUSH1 0x3 PUSH1 0xFF AND DUP2 MSTORE PUSH1 0x20 ADD PUSH1 0x34 PUSH1 0xFF AND DUP2 MSTORE PUSH1 0x20 ADD PUSH1 0xD4 PUSH1 0xFF AND DUP2 MSTORE PUSH1 0x20 ADD PUSH1 0xC4 PUSH1 0xFF AND DUP2 MSTORE PUSH1 0x20 ADD PUSH1 0x16 PUSH1 0xFF AND DUP2 MSTORE PUSH1 0x20 ADD PUSH1 0xBA PUSH1 0xFF AND DUP2 MSTORE PUSH1 0x20 ADD PUSH1 0x1F PUSH1 0xFF AND DUP2 MSTORE PUSH1 0x20 ADD PUSH1 0x36 PUSH1 0xFF AND DUP2 MSTORE PUSH1 0x20 ADD PUSH1 0x5 PUSH1 0xFF AND DUP2 MSTORE PUSH1 0x20 ADD PUSH1 0x5C PUSH1 0xFF AND DUP2 MSTORE PUSH1 0x20 ADD PUSH1 0x67 PUSH1 0xFF AND DUP2 MSTORE PUSH1 0x20 ADD PUSH1 0x57 PUSH1 0xFF AND DUP2 MSTORE PUSH1 0x20 ADD PUSH1 0x3A PUSH1 0xFF AND DUP2 MSTORE PUSH1 0x20 ADD PUSH1 0xD5 PUSH1 0xFF AND DUP2 MSTORE PUSH1 0x20 ADD PUSH1 0x21 PUSH1 0xFF AND DUP2 MSTORE PUSH1 0x20 ADD PUSH1 0x5A PUSH1 0xFF AND DUP2 MSTORE PUSH1 0x20 ADD PUSH1 0xF PUSH1 0xFF AND DUP2 MSTORE PUSH1 0x20 ADD PUSH1 0xE4 PUSH1 0xFF AND DUP2 MSTORE PUSH1 0x20 ADD PUSH1 0xA9 PUSH1 0xFF AND DUP2 MSTORE PUSH1 0x20 ADD PUSH1 0xF9 PUSH1 0xFF AND DUP2 MSTORE PUSH1 0x20 ADD PUSH1 0x4E PUSH1 0xFF AND DUP2 MSTORE PUSH1 0x20 ADD PUSH1 0x64 PUSH1 0xFF AND DUP2 MSTORE PUSH1 0x20 ADD PUSH1 0x63 PUSH1 0xFF AND DUP2 MSTORE PUSH1 0x20 ADD PUSH1 0xEE PUSH1 0xFF AND DUP2 MSTORE PUSH1 0x20 ADD PUSH1 0x11 PUSH1 0xFF AND DUP2 MSTORE PUSH1 0x20 ADD PUSH1 0x37 PUSH1 0xFF AND DUP2 MSTORE PUSH1 0x20 ADD PUSH1 0xE0 PUSH1 0xFF AND DUP2 MSTORE PUSH1 0x20 ADD PUSH1 0x10 PUSH1 0xFF AND DUP2 MSTORE PUSH1 0x20 ADD PUSH1 0xD2 PUSH1 0xFF AND DUP2 MSTORE PUSH1 0x20 ADD PUSH1 0xAC PUSH1 0xFF AND DUP2 MSTORE PUSH1 0x20 ADD PUSH1 0xA5 PUSH1 0xFF AND DUP2 MSTORE PUSH1 0x20 ADD PUSH1 0x29 PUSH1 0xFF AND DUP2 MSTORE PUSH1 0x20 ADD PUSH1 0x33 PUSH1 0xFF AND DUP2 MSTORE PUSH1 0x20 ADD PUSH1 0x59 PUSH1 0xFF AND DUP2 MSTORE PUSH1 0x20 ADD PUSH1 0x3B PUSH1 0xFF AND DUP2 MSTORE PUSH1 0x20 ADD PUSH1 0x30 PUSH1 0xFF AND DUP2 MSTORE PUSH1 0x20 ADD PUSH1 0x6D PUSH1 0xFF AND DUP2 MSTORE PUSH1 0x20 ADD PUSH1 0xEF PUSH1 0xFF AND DUP2 MSTORE PUSH1 0x20 ADD PUSH1 0xF4 PUSH1 0xFF AND DUP2 MSTORE PUSH1 0x20 ADD PUSH1 0x7B PUSH1 0xFF AND DUP2 MSTORE PUSH1 0x20 ADD PUSH1 0x55 PUSH1 0xFF AND DUP2 MSTORE PUSH1 0x20 ADD PUSH1 0xEB PUSH1 0xFF AND DUP2 MSTORE PUSH1 0x20 ADD PUSH1 0x4D PUSH1 0xFF AND DUP2 MSTORE PUSH1 0x20 ADD PUSH1 0x50 PUSH1 0xFF AND DUP2 MSTORE PUSH1 0x20 ADD PUSH1 0xB7 PUSH1 0xFF AND DUP2 MSTORE PUSH1 0x20 ADD PUSH1 0x2A PUSH1 0xFF AND DUP2 MSTORE PUSH1 0x20 ADD PUSH1 0x7 PUSH1 0xFF AND DUP2 MSTORE PUSH1 0x20 ADD PUSH1 0x8D PUSH1 0xFF AND DUP2 MSTORE PUSH1 0x20 ADD PUSH1 0xFF DUP1 AND DUP2 MSTORE PUSH1 0x20 ADD PUSH1 0x26 PUSH1 0xFF AND DUP2 MSTORE PUSH1 0x20 ADD PUSH1 0xD7 PUSH1 0xFF AND DUP2 MSTORE PUSH1 0x20 ADD PUSH1 0xF0 PUSH1 0xFF AND DUP2 MSTORE PUSH1 0x20 ADD PUSH1 0xC2 PUSH1 0xFF AND DUP2 MSTORE PUSH1 0x20 ADD PUSH1 0x7E PUSH1 0xFF AND DUP2 MSTORE PUSH1 0x20 ADD PUSH1 0x9 PUSH1 0xFF AND DUP2 MSTORE PUSH1 0x20 ADD PUSH1 0x8C PUSH1 0xFF AND DUP2 MSTORE PUSH1 0x20 ADD PUSH1 0x1A PUSH1 0xFF AND DUP2 MSTORE PUSH1 0x20 ADD PUSH1 0x6A PUSH1 0xFF AND DUP2 MSTORE PUSH1 0x20 ADD PUSH1 0x62 PUSH1 0xFF AND DUP2 MSTORE PUSH1 0x20 ADD PUSH1 0xB PUSH1 0xFF AND DUP2 MSTORE PUSH1 0x20 ADD PUSH1 0x5D PUSH1 0xFF AND DUP2 MSTORE PUSH1 0x20 ADD PUSH1 0x82 PUSH1 0xFF AND DUP2 MSTORE PUSH1 0x20 ADD PUSH1 0x1B PUSH1 0xFF AND DUP2 MSTORE PUSH1 0x20 ADD PUSH1 0x8F PUSH1 0xFF AND DUP2 MSTORE PUSH1 0x20 ADD PUSH1 0x2E PUSH1 0xFF AND DUP2 MSTORE PUSH1 0x20 ADD PUSH1 0xBE PUSH1 0xFF AND DUP2 MSTORE PUSH1 0x20 ADD PUSH1 0xA6 PUSH1 0xFF AND DUP2 MSTORE PUSH1 0x20 ADD PUSH1 0x1D PUSH1 0xFF AND DUP2 MSTORE PUSH1 0x20 ADD PUSH1 0xE7 PUSH1 0xFF AND DUP2 MSTORE PUSH1 0x20 ADD PUSH1 0x9D PUSH1 0xFF AND DUP2 MSTORE PUSH1 0x20 ADD PUSH1 0x2D PUSH1 0xFF AND DUP2 MSTORE PUSH1 0x20 ADD PUSH1 0x8A PUSH1 0xFF AND DUP2 MSTORE PUSH1 0x20 ADD PUSH1 0x72 PUSH1 0xFF AND DUP2 MSTORE PUSH1 0x20 ADD PUSH1 0xD9 PUSH1 0xFF AND DUP2 MSTORE PUSH1 0x20 ADD PUSH1 0xF1 PUSH1 0xFF AND DUP2 MSTORE PUSH1 0x20 ADD PUSH1 0x27 PUSH1 0xFF AND DUP2 MSTORE PUSH1 0x20 ADD PUSH1 0x32 PUSH1 0xFF AND DUP2 MSTORE PUSH1 0x20 ADD PUSH1 0xBC PUSH1 0xFF AND DUP2 MSTORE PUSH1 0x20 ADD PUSH1 0x77 PUSH1 0xFF AND DUP2 MSTORE PUSH1 0x20 ADD PUSH1 0x85 PUSH1 0xFF AND DUP2 MSTORE PUSH1 0x20 ADD PUSH1 0x96 PUSH1 0xFF AND DUP2 MSTORE PUSH1 0x20 ADD PUSH1 0x70 PUSH1 0xFF AND DUP2 MSTORE PUSH1 0x20 ADD PUSH1 0x8 PUSH1 0xFF AND DUP2 MSTORE PUSH1 0x20 ADD PUSH1 0x69 PUSH1 0xFF AND DUP2 MSTORE PUSH1 0x20 ADD PUSH1 0x56 PUSH1 0xFF AND DUP2 MSTORE PUSH1 0x20 ADD PUSH1 0xDF PUSH1 0xFF AND DUP2 MSTORE PUSH1 0x20 ADD PUSH1 0x99 PUSH1 0xFF AND DUP2 MSTORE PUSH1 0x20 ADD PUSH1 0x94 PUSH1 0xFF AND DUP2 MSTORE PUSH1 0x20 ADD PUSH1 0xA1 PUSH1 0xFF AND DUP2 MSTORE PUSH1 0x20 ADD PUSH1 0x90 PUSH1 0xFF AND DUP2 MSTORE PUSH1 0x20 ADD PUSH1 0x18 PUSH1 0xFF AND DUP2 MSTORE PUSH1 0x20 ADD PUSH1 0xBB PUSH1 0xFF AND DUP2 MSTORE PUSH1 0x20 ADD PUSH1 0xFA PUSH1 0xFF AND DUP2 MSTORE PUSH1 0x20 ADD PUSH1 0x7A PUSH1 0xFF AND DUP2 MSTORE PUSH1 0x20 ADD PUSH1 0xB0 PUSH1 0xFF AND DUP2 MSTORE PUSH1 0x20 ADD PUSH1 0xA7 PUSH1 0xFF AND DUP2 MSTORE PUSH1 0x20 ADD PUSH1 0xF8 PUSH1 0xFF AND DUP2 MSTORE PUSH1 0x20 ADD PUSH1 0xAB PUSH1 0xFF AND DUP2 MSTORE PUSH1 0x20 ADD PUSH1 0x28 PUSH1 0xFF AND DUP2 MSTORE PUSH1 0x20 ADD PUSH1 0xD6 PUSH1 0xFF AND DUP2 MSTORE PUSH1 0x20 ADD PUSH1 0x15 PUSH1 0xFF AND DUP2 MSTORE PUSH1 0x20 ADD PUSH1 0x8E PUSH1 0xFF AND DUP2 MSTORE PUSH1 0x20 ADD PUSH1 0xCB PUSH1 0xFF AND DUP2 MSTORE PUSH1 0x20 ADD PUSH1 0xF2 PUSH1 0xFF AND DUP2 MSTORE PUSH1 0x20 ADD PUSH1 0x13 PUSH1 0xFF AND DUP2 MSTORE PUSH1 0x20 ADD PUSH1 0xE6 PUSH1 0xFF AND DUP2 MSTORE PUSH1 0x20 ADD PUSH1 0x78 PUSH1 0xFF AND DUP2 MSTORE PUSH1 0x20 ADD PUSH1 0x61 PUSH1 0xFF AND DUP2 MSTORE PUSH1 0x20 ADD PUSH1 0x3F PUSH1 0xFF AND DUP2 MSTORE PUSH1 0x20 ADD PUSH1 0x89 PUSH1 0xFF AND DUP2 MSTORE PUSH1 0x20 ADD PUSH1 0x46 PUSH1 0xFF AND DUP2 MSTORE PUSH1 0x20 ADD PUSH1 0xD PUSH1 0xFF AND DUP2 MSTORE PUSH1 0x20 ADD PUSH1 0x35 PUSH1 0xFF AND DUP2 MSTORE PUSH1 0x20 ADD PUSH1 0x31 PUSH1 0xFF AND DUP2 MSTORE PUSH1 0x20 ADD PUSH1 0x88 PUSH1 0xFF AND DUP2 MSTORE PUSH1 0x20 ADD PUSH1 0xA3 PUSH1 0xFF AND DUP2 MSTORE PUSH1 0x20 ADD PUSH1 0x41 PUSH1 0xFF AND DUP2 MSTORE PUSH1 0x20 ADD PUSH1 0x80 PUSH1 0xFF AND DUP2 MSTORE PUSH1 0x20 ADD PUSH1 0xCA PUSH1 0xFF AND DUP2 MSTORE PUSH1 0x20 ADD PUSH1 0x17 PUSH1 0xFF AND DUP2 MSTORE PUSH1 0x20 ADD PUSH1 0x5F PUSH1 0xFF AND DUP2 MSTORE PUSH1 0x20 ADD PUSH1 0x53 PUSH1 0xFF AND DUP2 MSTORE PUSH1 0x20 ADD PUSH1 0x83 PUSH1 0xFF AND DUP2 MSTORE PUSH1 0x20 ADD PUSH1 0xFE PUSH1 0xFF AND DUP2 MSTORE PUSH1 0x20 ADD PUSH1 0xC3 PUSH1 0xFF AND DUP2 MSTORE PUSH1 0x20 ADD PUSH1 0x9B PUSH1 0xFF AND DUP2 MSTORE PUSH1 0x20 ADD PUSH1 0x45 PUSH1 0xFF AND DUP2 MSTORE PUSH1 0x20 ADD PUSH1 0x39 PUSH1 0xFF AND DUP2 MSTORE PUSH1 0x20 ADD PUSH1 0xE1 PUSH1 0xFF AND DUP2 MSTORE PUSH1 0x20 ADD PUSH1 0xF5 PUSH1 0xFF AND DUP2 MSTORE PUSH1 0x20 ADD PUSH1 0x9E PUSH1 0xFF AND DUP2 MSTORE PUSH1 0x20 ADD PUSH1 0x19 PUSH1 0xFF AND DUP2 MSTORE PUSH1 0x20 ADD PUSH1 0x5E PUSH1 0xFF AND DUP2 MSTORE PUSH1 0x20 ADD PUSH1 0xB6 PUSH1 0xFF AND DUP2 MSTORE PUSH1 0x20 ADD PUSH1 0xCF PUSH1 0xFF AND DUP2 MSTORE PUSH1 0x20 ADD PUSH1 0x4B PUSH1 0xFF AND DUP2 MSTORE PUSH1 0x20 ADD PUSH1 0x38 PUSH1 0xFF AND DUP2 MSTORE PUSH1 0x20 ADD PUSH1 0x4 PUSH1 0xFF AND DUP2 MSTORE PUSH1 0x20 ADD PUSH1 0xB9 PUSH1 0xFF AND DUP2 MSTORE PUSH1 0x20 ADD PUSH1 0x2B PUSH1 0xFF AND DUP2 MSTORE PUSH1 0x20 ADD PUSH1 0xE2 PUSH1 0xFF AND DUP2 MSTORE PUSH1 0x20 ADD PUSH1 0xC1 PUSH1 0xFF AND DUP2 MSTORE PUSH1 0x20 ADD PUSH1 0x4A PUSH1 0xFF AND DUP2 MSTORE PUSH1 0x20 ADD PUSH1 0xDD PUSH1 0xFF AND DUP2 MSTORE PUSH1 0x20 ADD PUSH1 0x48 PUSH1 0xFF AND DUP2 MSTORE PUSH1 0x20 ADD PUSH1 0xC PUSH1 0xFF AND DUP2 MSTORE PUSH1 0x20 ADD PUSH1 0xD0 PUSH1 0xFF AND DUP2 MSTORE PUSH1 0x20 ADD PUSH1 0x7D PUSH1 0xFF AND DUP2 MSTORE PUSH1 0x20 ADD PUSH1 0x3D PUSH1 0xFF AND DUP2 MSTORE PUSH1 0x20 ADD PUSH1 0x58 PUSH1 0xFF AND DUP2 MSTORE PUSH1 0x20 ADD PUSH1 0xDE PUSH1 0xFF AND DUP2 MSTORE PUSH1 0x20 ADD PUSH1 0x7C PUSH1 0xFF AND DUP2 MSTORE PUSH1 0x20 ADD PUSH1 0xD8 PUSH1 0xFF AND DUP2 MSTORE PUSH1 0x20 ADD PUSH1 0x14 PUSH1 0xFF AND DUP2 MSTORE PUSH1 0x20 ADD PUSH1 0x6B PUSH1 0xFF AND DUP2 MSTORE PUSH1 0x20 ADD PUSH1 0x87 PUSH1 0xFF AND DUP2 MSTORE PUSH1 0x20 ADD PUSH1 0x47 PUSH1 0xFF AND DUP2 MSTORE PUSH1 0x20 ADD PUSH1 0xE8 PUSH1 0xFF AND DUP2 MSTORE PUSH1 0x20 ADD PUSH1 0x79 PUSH1 0xFF AND DUP2 MSTORE PUSH1 0x20 ADD PUSH1 0x84 PUSH1 0xFF AND DUP2 MSTORE PUSH1 0x20 ADD PUSH1 0x73 PUSH1 0xFF AND DUP2 MSTORE PUSH1 0x20 ADD PUSH1 0x3C PUSH1 0xFF AND DUP2 MSTORE PUSH1 0x20 ADD PUSH1 0xBD PUSH1 0xFF AND DUP2 MSTORE PUSH1 0x20 ADD PUSH1 0x92 PUSH1 0xFF AND DUP2 MSTORE PUSH1 0x20 ADD PUSH1 0xC9 PUSH1 0xFF AND DUP2 MSTORE PUSH1 0x20 ADD PUSH1 0x23 PUSH1 0xFF AND DUP2 MSTORE PUSH1 0x20 ADD PUSH1 0x8B PUSH1 0xFF AND DUP2 MSTORE PUSH1 0x20 ADD PUSH1 0x97 PUSH1 0xFF AND DUP2 MSTORE PUSH1 0x20 ADD PUSH1 0x95 PUSH1 0xFF AND DUP2 MSTORE PUSH1 0x20 ADD PUSH1 0x44 PUSH1 0xFF AND DUP2 MSTORE PUSH1 0x20 ADD PUSH1 0xDC PUSH1 0xFF AND DUP2 MSTORE PUSH1 0x20 ADD PUSH1 0xAD PUSH1 0xFF AND DUP2 MSTORE PUSH1 0x20 ADD PUSH1 0x40 PUSH1 0xFF AND DUP2 MSTORE PUSH1 0x20 ADD PUSH1 0x65 PUSH1 0xFF AND DUP2 MSTORE PUSH1 0x20 ADD PUSH1 0x86 PUSH1 0xFF AND DUP2 MSTORE PUSH1 0x20 ADD PUSH1 0xA2 PUSH1 0xFF AND DUP2 MSTORE PUSH1 0x20 ADD PUSH1 0xA4 PUSH1 0xFF AND DUP2 MSTORE PUSH1 0x20 ADD PUSH1 0xCC PUSH1 0xFF AND DUP2 MSTORE PUSH1 0x20 ADD PUSH1 0x7F PUSH1 0xFF AND DUP2 MSTORE PUSH1 0x20 ADD PUSH1 0xEC PUSH1 0xFF AND DUP2 MSTORE PUSH1 0x20 ADD PUSH1 0xC0 PUSH1 0xFF AND DUP2 MSTORE PUSH1 0x20 ADD PUSH1 0xAF PUSH1 0xFF AND DUP2 MSTORE PUSH1 0x20 ADD PUSH1 0x91 PUSH1 0xFF AND DUP2 MSTORE PUSH1 0x20 ADD PUSH1 0xFD PUSH1 0xFF AND DUP2 MSTORE PUSH1 0x20 ADD PUSH1 0xF7 PUSH1 0xFF AND DUP2 MSTORE PUSH1 0x20 ADD PUSH1 0x4F PUSH1 0xFF AND DUP2 MSTORE PUSH1 0x20 ADD PUSH1 0x81 PUSH1 0xFF AND DUP2 MSTORE PUSH1 0x20 ADD PUSH1 0x2F PUSH1 0xFF AND DUP2 MSTORE PUSH1 0x20 ADD PUSH1 0x5B PUSH1 0xFF AND DUP2 MSTORE PUSH1 0x20 ADD PUSH1 0xEA PUSH1 0xFF AND DUP2 MSTORE PUSH1 0x20 ADD PUSH1 0xA8 PUSH1 0xFF AND DUP2 MSTORE PUSH1 0x20 ADD PUSH1 0x1C PUSH1 0xFF AND DUP2 MSTORE PUSH1 0x20 ADD PUSH1 0x2 PUSH1 0xFF AND DUP2 MSTORE PUSH1 0x20 ADD PUSH1 0xD1 PUSH1 0xFF AND DUP2 MSTORE PUSH1 0x20 ADD PUSH1 0x98 PUSH1 0xFF AND DUP2 MSTORE PUSH1 0x20 ADD PUSH1 0x71 PUSH1 0xFF AND DUP2 MSTORE PUSH1 0x20 ADD PUSH1 0xED PUSH1 0xFF AND DUP2 MSTORE PUSH1 0x20 ADD PUSH1 0x25 PUSH1 0xFF AND DUP2 MSTORE PUSH1 0x20 ADD PUSH1 0xE3 PUSH1 0xFF AND DUP2 MSTORE PUSH1 0x20 ADD PUSH1 0x24 PUSH1 0xFF AND DUP2 MSTORE PUSH1 0x20 ADD PUSH1 0x6 PUSH1 0xFF AND DUP2 MSTORE PUSH1 0x20 ADD PUSH1 0x68 PUSH1 0xFF AND DUP2 MSTORE PUSH1 0x20 ADD PUSH1 0xB3 PUSH1 0xFF AND DUP2 MSTORE PUSH1 0x20 ADD PUSH1 0x93 PUSH1 0xFF AND DUP2 MSTORE PUSH1 0x20 ADD PUSH1 0x2C PUSH1 0xFF AND DUP2 MSTORE PUSH1 0x20 ADD PUSH1 0x6F PUSH1 0xFF AND DUP2 MSTORE PUSH1 0x20 ADD PUSH1 0x3E PUSH1 0xFF AND DUP2 MSTORE PUSH1 0x20 ADD PUSH1 0x6C PUSH1 0xFF AND DUP2 MSTORE PUSH1 0x20 ADD PUSH1 0xA PUSH1 0xFF AND DUP2 MSTORE PUSH1 0x20 ADD PUSH1 0xB8 PUSH1 0xFF AND DUP2 MSTORE PUSH1 0x20 ADD PUSH1 0xCE PUSH1 0xFF AND DUP2 MSTORE PUSH1 0x20 ADD PUSH1 0xAE PUSH1 0xFF AND DUP2 MSTORE PUSH1 0x20 ADD PUSH1 0x74 PUSH1 0xFF AND DUP2 MSTORE PUSH1 0x20 ADD PUSH1 0xB1 PUSH1 0xFF AND DUP2 MSTORE PUSH1 0x20 ADD PUSH1 0x42 PUSH1 0xFF AND DUP2 MSTORE PUSH1 0x20 ADD PUSH1 0xB4 PUSH1 0xFF AND DUP2 MSTORE PUSH1 0x20 ADD PUSH1 0x1E PUSH1 0xFF AND DUP2 MSTORE PUSH1 0x20 ADD PUSH1 0xD3 PUSH1 0xFF AND DUP2 MSTORE PUSH1 0x20 ADD PUSH1 0x49 PUSH1 0xFF AND DUP2 MSTORE PUSH1 0x20 ADD PUSH1 0xE9 PUSH1 0xFF AND DUP2 MSTORE PUSH1 0x20 ADD PUSH1 0x9C PUSH1 0xFF AND DUP2 MSTORE PUSH1 0x20 ADD PUSH1 0xC8 PUSH1 0xFF AND DUP2 MSTORE PUSH1 0x20 ADD PUSH1 0xC6 PUSH1 0xFF AND DUP2 MSTORE PUSH1 0x20 ADD PUSH1 0xC7 PUSH1 0xFF AND DUP2 MSTORE PUSH1 0x20 ADD PUSH1 0x22 PUSH1 0xFF AND DUP2 MSTORE PUSH1 0x20 ADD PUSH1 0x6E PUSH1 0xFF AND DUP2 MSTORE PUSH1 0x20 ADD PUSH1 0xDB PUSH1 0xFF AND DUP2 MSTORE PUSH1 0x20 ADD PUSH1 0x20 PUSH1 0xFF AND DUP2 MSTORE PUSH1 0x20 ADD PUSH1 0xBF PUSH1 0xFF AND DUP2 MSTORE PUSH1 0x20 ADD PUSH1 0x43 PUSH1 0xFF AND DUP2 MSTORE PUSH1 0x20 ADD PUSH1 0x51 PUSH1 0xFF AND DUP2 MSTORE PUSH1 0x20 ADD PUSH1 0x52 PUSH1 0xFF AND DUP2 MSTORE PUSH1 0x20 ADD PUSH1 0x66 PUSH1 0xFF AND DUP2 MSTORE PUSH1 0x20 ADD PUSH1 0xB2 PUSH1 0xFF AND DUP2 MSTORE PUSH1 0x20 ADD PUSH1 0x76 PUSH1 0xFF AND DUP2 MSTORE PUSH1 0x20 ADD PUSH1 0x60 PUSH1 0xFF AND DUP2 MSTORE PUSH1 0x20 ADD PUSH1 0xDA PUSH1 0xFF AND DUP2 MSTORE PUSH1 0x20 ADD PUSH1 0xC5 PUSH1 0xFF AND DUP2 MSTORE PUSH1 0x20 ADD PUSH1 0xF3 PUSH1 0xFF AND DUP2 MSTORE PUSH1 0x20 ADD PUSH1 0xF6 PUSH1 0xFF AND DUP2 MSTORE PUSH1 0x20 ADD PUSH1 0xAA PUSH1 0xFF AND DUP2 MSTORE PUSH1 0x20 ADD PUSH1 0xCD PUSH1 0xFF AND DUP2 MSTORE PUSH1 0x20 ADD PUSH1 0x9A PUSH1 0xFF AND DUP2 MSTORE PUSH1 0x20 ADD PUSH1 0xA0 PUSH1 0xFF AND DUP2 MSTORE PUSH1 0x20 ADD PUSH1 0x75 PUSH1 0xFF AND DUP2 MSTORE PUSH1 0x20 ADD PUSH1 0x54 PUSH1 0xFF AND DUP2 MSTORE PUSH1 0x20 ADD PUSH1 0xE PUSH1 0xFF AND DUP2 MSTORE PUSH1 0x20 ADD PUSH1 0x1 PUSH1 0xFF AND DUP2 MSTORE POP PUSH1 0x19 SWAP1 PUSH2 0x100 PUSH2 0x28F4 SWAP3 SWAP2 SWAP1 PUSH2 0x299D JUMP JUMPDEST POP CALLVALUE DUP1 ISZERO PUSH2 0x2900 JUMPI PUSH0 DUP1 REVERT JUMPDEST POP PUSH2 0x2A50 JUMP JUMPDEST DUP3 PUSH1 0xB PUSH1 0x1F ADD PUSH1 0x20 SWAP1 DIV DUP2 ADD SWAP3 DUP3 ISZERO PUSH2 0x298C JUMPI SWAP2 PUSH1 0x20 MUL DUP3 ADD PUSH0 JUMPDEST DUP4 DUP3 GT ISZERO PUSH2 0x295E JUMPI DUP4 MLOAD DUP4 DUP3 PUSH2 0x100 EXP DUP2 SLOAD DUP2 PUSH1 0xFF MUL NOT AND SWAP1 DUP4 PUSH1 0xFF AND MUL OR SWAP1 SSTORE POP SWAP3 PUSH1 0x20 ADD SWAP3 PUSH1 0x1 ADD PUSH1 0x20 DUP2 PUSH0 ADD DIV SWAP3 DUP4 ADD SWAP3 PUSH1 0x1 SUB MUL PUSH2 0x2921 JUMP JUMPDEST DUP1 ISZERO PUSH2 0x298A JUMPI DUP3 DUP2 PUSH2 0x100 EXP DUP2 SLOAD SWAP1 PUSH1 0xFF MUL NOT AND SWAP1 SSTORE PUSH1 0x1 ADD PUSH1 0x20 DUP2 PUSH0 ADD DIV SWAP3 DUP4 ADD SWAP3 PUSH1 0x1 SUB MUL PUSH2 0x295E JUMP JUMPDEST POP JUMPDEST POP SWAP1 POP PUSH2 0x2999 SWAP2 SWAP1 PUSH2 0x2A35 JUMP JUMPDEST POP SWAP1 JUMP JUMPDEST DUP3 PUSH2 0x100 PUSH1 0x1F ADD PUSH1 0x20 SWAP1 DIV DUP2 ADD SWAP3 DUP3 ISZERO PUSH2 0x2A24 JUMPI SWAP2 PUSH1 0x20 MUL DUP3 ADD PUSH0 JUMPDEST DUP4 DUP3 GT ISZERO PUSH2 0x29F6 JUMPI DUP4 MLOAD DUP4 DUP3 PUSH2 0x100 EXP DUP2 SLOAD DUP2 PUSH1 0xFF MUL NOT AND SWAP1 DUP4 PUSH1 0xFF AND MUL OR SWAP1 SSTORE POP SWAP3 PUSH1 0x20 ADD SWAP3 PUSH1 0x1 ADD PUSH1 0x20 DUP2 PUSH0 ADD DIV SWAP3 DUP4 ADD SWAP3 PUSH1 0x1 SUB MUL PUSH2 0x29B9 JUMP JUMPDEST DUP1 ISZERO PUSH2 0x2A22 JUMPI DUP3 DUP2 PUSH2 0x100 EXP DUP2 SLOAD SWAP1 PUSH1 0xFF MUL NOT AND SWAP1 SSTORE PUSH1 0x1 ADD PUSH1 0x20 DUP2 PUSH0 ADD DIV SWAP3 DUP4 ADD SWAP3 PUSH1 0x1 SUB MUL PUSH2 0x29F6 JUMP JUMPDEST POP JUMPDEST POP SWAP1 POP PUSH2 0x2A31 SWAP2 SWAP1 PUSH2 0x2A35 JUMP JUMPDEST POP SWAP1 JUMP JUMPDEST JUMPDEST DUP1 DUP3 GT ISZERO PUSH2 0x2A4C JUMPI PUSH0 DUP2 PUSH0 SWAP1 SSTORE POP PUSH1 0x1 ADD PUSH2 0x2A36 JUMP JUMPDEST POP SWAP1 JUMP JUMPDEST PUSH2 0x483B DUP1 PUSH2 0x2A5D PUSH0 CODECOPY PUSH0 RETURN INVALID PUSH1 0x80 PUSH1 0x40 MSTORE CALLVALUE DUP1 ISZERO PUSH2 0xF JUMPI PUSH0 DUP1 REVERT JUMPDEST POP PUSH1 0x4 CALLDATASIZE LT PUSH2 0x7B JUMPI PUSH0 CALLDATALOAD PUSH1 0xE0 SHR DUP1 PUSH4 0x4DD76C8A GT PUSH2 0x59 JUMPI DUP1 PUSH4 0x4DD76C8A EQ PUSH2 0x10F JUMPI DUP1 PUSH4 0x6B71A846 EQ PUSH2 0x13F JUMPI DUP1 PUSH4 0x75F9A137 EQ PUSH2 0x16F JUMPI DUP1 PUSH4 0x93A4014E EQ PUSH2 0x19F JUMPI PUSH2 0x7B JUMP JUMPDEST DUP1 PUSH4 0x6F4A01C EQ PUSH2 0x7F JUMPI DUP1 PUSH4 0x1798A240 EQ PUSH2 0xAF JUMPI DUP1 PUSH4 0x3A0E6BE2 EQ PUSH2 0xDF JUMPI JUMPDEST PUSH0 DUP1 REVERT JUMPDEST PUSH2 0x99 PUSH1 0x4 DUP1 CALLDATASIZE SUB DUP2 ADD SWAP1 PUSH2 0x94 SWAP2 SWAP1 PUSH2 0x3B54 JUMP JUMPDEST PUSH2 0x1CF JUMP JUMPDEST PUSH1 0x40 MLOAD PUSH2 0xA6 SWAP2 SWAP1 PUSH2 0x3C6D JUMP JUMPDEST PUSH1 0x40 MLOAD DUP1 SWAP2 SUB SWAP1 RETURN JUMPDEST PUSH2 0xC9 PUSH1 0x4 DUP1 CALLDATASIZE SUB DUP2 ADD SWAP1 PUSH2 0xC4 SWAP2 SWAP1 PUSH2 0x3C8D JUMP JUMPDEST PUSH2 0x366 JUMP JUMPDEST PUSH1 0x40 MLOAD PUSH2 0xD6 SWAP2 SWAP1 PUSH2 0x3DF0 JUMP JUMPDEST PUSH1 0x40 MLOAD DUP1 SWAP2 SUB SWAP1 RETURN JUMPDEST PUSH2 0xF9 PUSH1 0x4 DUP1 CALLDATASIZE SUB DUP2 ADD SWAP1 PUSH2 0xF4 SWAP2 SWAP1 PUSH2 0x3EFE JUMP JUMPDEST PUSH2 0x76B JUMP JUMPDEST PUSH1 0x40 MLOAD PUSH2 0x106 SWAP2 SWAP1 PUSH2 0x3DF0 JUMP JUMPDEST PUSH1 0x40 MLOAD DUP1 SWAP2 SUB SWAP1 RETURN JUMPDEST PUSH2 0x129 PUSH1 0x4 DUP1 CALLDATASIZE SUB DUP2 ADD SWAP1 PUSH2 0x124 SWAP2 SWAP1 PUSH2 0x4029 JUMP JUMPDEST PUSH2 0x830 JUMP JUMPDEST PUSH1 0x40 MLOAD PUSH2 0x136 SWAP2 SWAP1 PUSH2 0x410E JUMP JUMPDEST PUSH1 0x40 MLOAD DUP1 SWAP2 SUB SWAP1 RETURN JUMPDEST PUSH2 0x159 PUSH1 0x4 DUP1 CALLDATASIZE SUB DUP2 ADD SWAP1 PUSH2 0x154 SWAP2 SWAP1 PUSH2 0x4029 JUMP JUMPDEST PUSH2 0xE63 JUMP JUMPDEST PUSH1 0x40 MLOAD PUSH2 0x166 SWAP2 SWAP1 PUSH2 0x410E JUMP JUMPDEST PUSH1 0x40 MLOAD DUP1 SWAP2 SUB SWAP1 RETURN JUMPDEST PUSH2 0x189 PUSH1 0x4 DUP1 CALLDATASIZE SUB DUP2 ADD SWAP1 PUSH2 0x184 SWAP2 SWAP1 PUSH2 0x4128 JUMP JUMPDEST PUSH2 0x1496 JUMP JUMPDEST PUSH1 0x40 MLOAD PUSH2 0x196 SWAP2 SWAP1 PUSH2 0x4163 JUMP JUMPDEST PUSH1 0x40 MLOAD DUP1 SWAP2 SUB SWAP1 RETURN JUMPDEST PUSH2 0x1B9 PUSH1 0x4 DUP1 CALLDATASIZE SUB DUP2 ADD SWAP1 PUSH2 0x1B4 SWAP2 SWAP1 PUSH2 0x417C JUMP JUMPDEST PUSH2 0x151C JUMP JUMPDEST PUSH1 0x40 MLOAD PUSH2 0x1C6 SWAP2 SWAP1 PUSH2 0x410E JUMP JUMPDEST PUSH1 0x40 MLOAD DUP1 SWAP2 SUB SWAP1 RETURN JUMPDEST PUSH1 0x60 PUSH0 DUP3 MLOAD SWAP1 POP PUSH0 PUSH1 0x10 DUP3 PUSH2 0x1E4 SWAP2 SWAP1 PUSH2 0x41DD JUMP JUMPDEST PUSH1 0x10 PUSH2 0x1F0 SWAP2 SWAP1 PUSH2 0x423A JUMP JUMPDEST SWAP1 POP PUSH1 0x10 DUP2 SUB PUSH2 0x1FE JUMPI PUSH0 SWAP1 POP JUMPDEST PUSH0 PUSH1 0x40 MLOAD DUP1 PUSH1 0x40 ADD PUSH1 0x40 MSTORE DUP1 PUSH1 0x1 DUP2 MSTORE PUSH1 0x20 ADD PUSH0 DUP2 MSTORE POP SWAP1 POP PUSH0 PUSH1 0x1 SWAP1 POP JUMPDEST DUP3 DUP2 LT ISZERO PUSH2 0x254 JUMPI DUP2 PUSH1 0x40 MLOAD PUSH1 0x20 ADD PUSH2 0x236 SWAP2 SWAP1 PUSH2 0x42AD JUMP JUMPDEST PUSH1 0x40 MLOAD PUSH1 0x20 DUP2 DUP4 SUB SUB DUP2 MSTORE SWAP1 PUSH1 0x40 MSTORE SWAP2 POP DUP1 DUP1 PUSH1 0x1 ADD SWAP2 POP POP PUSH2 0x21D JUMP JUMPDEST POP PUSH0 DUP6 DUP3 PUSH1 0x40 MLOAD PUSH1 0x20 ADD PUSH2 0x269 SWAP3 SWAP2 SWAP1 PUSH2 0x42D2 JUMP JUMPDEST PUSH1 0x40 MLOAD PUSH1 0x20 DUP2 DUP4 SUB SUB DUP2 MSTORE SWAP1 PUSH1 0x40 MSTORE SWAP1 POP PUSH0 PUSH1 0x10 DUP3 MLOAD PUSH2 0x289 SWAP2 SWAP1 PUSH2 0x42F5 JUMP JUMPDEST SWAP1 POP PUSH0 DUP2 PUSH8 0xFFFFFFFFFFFFFFFF DUP2 GT ISZERO PUSH2 0x2A6 JUMPI PUSH2 0x2A5 PUSH2 0x3A30 JUMP JUMPDEST JUMPDEST PUSH1 0x40 MLOAD SWAP1 DUP1 DUP3 MSTORE DUP1 PUSH1 0x20 MUL PUSH1 0x20 ADD DUP3 ADD PUSH1 0x40 MSTORE DUP1 ISZERO PUSH2 0x2D4 JUMPI DUP2 PUSH1 0x20 ADD PUSH1 0x20 DUP3 MUL DUP1 CALLDATASIZE DUP4 CALLDATACOPY DUP1 DUP3 ADD SWAP2 POP POP SWAP1 POP JUMPDEST POP SWAP1 POP PUSH0 JUMPDEST DUP3 DUP2 LT ISZERO PUSH2 0x357 JUMPI PUSH2 0x2F9 DUP5 PUSH1 0x10 DUP4 PUSH2 0x2F2 SWAP2 SWAP1 PUSH2 0x4325 JUMP JUMPDEST PUSH1 0x10 PUSH2 0x1594 JUMP JUMPDEST PUSH2 0x302 SWAP1 PUSH2 0x43C0 JUMP JUMPDEST PUSH1 0x80 SHR DUP3 DUP3 DUP2 MLOAD DUP2 LT PUSH2 0x318 JUMPI PUSH2 0x317 PUSH2 0x4426 JUMP JUMPDEST JUMPDEST PUSH1 0x20 MUL PUSH1 0x20 ADD ADD SWAP1 PUSH16 0xFFFFFFFFFFFFFFFFFFFFFFFFFFFFFFFF AND SWAP1 DUP2 PUSH16 0xFFFFFFFFFFFFFFFFFFFFFFFFFFFFFFFF AND DUP2 MSTORE POP POP DUP1 DUP1 PUSH1 0x1 ADD SWAP2 POP POP PUSH2 0x2D9 JUMP JUMPDEST POP DUP1 SWAP7 POP POP POP POP POP POP POP SWAP2 SWAP1 POP JUMP JUMPDEST PUSH1 0x60 PUSH0 PUSH1 0x8 DUP8 MLOAD PUSH2 0x377 SWAP2 SWAP1 PUSH2 0x4325 JUMP JUMPDEST SWAP1 POP PUSH0 PUSH1 0x8 DUP6 MLOAD PUSH2 0x388 SWAP2 SWAP1 PUSH2 0x4325 JUMP JUMPDEST SWAP1 POP PUSH0 DUP3 PUSH1 0x40 PUSH2 0x398 SWAP2 SWAP1 PUSH2 0x4453 JUMP JUMPDEST DUP3 SWAP1 SHL SWAP1 POP PUSH0 PUSH2 0x3A7 DUP11 PUSH2 0x1CF JUMP JUMPDEST SWAP1 POP PUSH0 PUSH2 0x3B3 DUP9 PUSH2 0x1CF JUMP JUMPDEST SWAP1 POP PUSH0 PUSH2 0x3BF DUP12 PUSH2 0x1CF JUMP JUMPDEST SWAP1 POP PUSH0 PUSH2 0x3CB DUP12 PUSH2 0x1CF JUMP JUMPDEST SWAP1 POP PUSH0 PUSH1 0x1 DUP3 PUSH0 DUP2 MLOAD DUP2 LT PUSH2 0x3E3 JUMPI PUSH2 0x3E2 PUSH2 0x4426 JUMP JUMPDEST JUMPDEST PUSH1 0x20 MUL PUSH1 0x20 ADD ADD MLOAD PUSH2 0x3F5 SWAP2 SWAP1 PUSH2 0x4486 JUMP JUMPDEST SWAP1 POP PUSH0 PUSH2 0x401 DUP12 PUSH2 0x1CF JUMP JUMPDEST SWAP1 POP PUSH0 PUSH1 0x40 MLOAD DUP1 PUSH1 0x20 ADD PUSH1 0x40 MSTORE DUP1 PUSH0 PUSH16 0xFFFFFFFFFFFFFFFFFFFFFFFFFFFFFFFF AND PUSH16 0xFFFFFFFFFFFFFFFFFFFFFFFFFFFFFFFF AND DUP2 MSTORE POP SWAP1 POP PUSH0 PUSH2 0x48D PUSH2 0x488 PUSH2 0x460 DUP5 PUSH0 PUSH1 0x1 DUP2 LT PUSH2 0x456 JUMPI PUSH2 0x455 PUSH2 0x4426 JUMP JUMPDEST JUMPDEST PUSH1 0x20 MUL ADD MLOAD PUSH2 0x151C JUMP JUMPDEST PUSH2 0x483 DUP10 PUSH0 DUP2 MLOAD DUP2 LT PUSH2 0x476 JUMPI PUSH2 0x475 PUSH2 0x4426 JUMP JUMPDEST JUMPDEST PUSH1 0x20 MUL PUSH1 0x20 ADD ADD MLOAD PUSH2 0x151C JUMP JUMPDEST PUSH2 0xE63 JUMP JUMPDEST PUSH2 0x1496 JUMP JUMPDEST SWAP1 POP PUSH0 PUSH2 0x4CC PUSH2 0x4C7 PUSH2 0x49F DUP8 PUSH2 0x151C JUMP JUMPDEST PUSH2 0x4C2 DUP11 PUSH0 DUP2 MLOAD DUP2 LT PUSH2 0x4B5 JUMPI PUSH2 0x4B4 PUSH2 0x4426 JUMP JUMPDEST JUMPDEST PUSH1 0x20 MUL PUSH1 0x20 ADD ADD MLOAD PUSH2 0x151C JUMP JUMPDEST PUSH2 0xE63 JUMP JUMPDEST PUSH2 0x1496 JUMP JUMPDEST SWAP1 POP PUSH0 DUP1 JUMPDEST DUP10 MLOAD DUP2 LT ISZERO PUSH2 0x516 JUMPI PUSH2 0x507 PUSH2 0x501 DUP4 DUP13 DUP5 DUP2 MLOAD DUP2 LT PUSH2 0x4F4 JUMPI PUSH2 0x4F3 PUSH2 0x4426 JUMP JUMPDEST JUMPDEST PUSH1 0x20 MUL PUSH1 0x20 ADD ADD MLOAD PUSH2 0x16B0 JUMP JUMPDEST DUP6 PUSH2 0x16BC JUMP JUMPDEST SWAP2 POP DUP1 DUP1 PUSH1 0x1 ADD SWAP2 POP POP PUSH2 0x4D1 JUMP JUMPDEST POP PUSH0 JUMPDEST DUP11 MLOAD DUP2 LT ISZERO PUSH2 0x55E JUMPI PUSH2 0x54F PUSH2 0x549 DUP4 DUP14 DUP5 DUP2 MLOAD DUP2 LT PUSH2 0x53C JUMPI PUSH2 0x53B PUSH2 0x4426 JUMP JUMPDEST JUMPDEST PUSH1 0x20 MUL PUSH1 0x20 ADD ADD MLOAD PUSH2 0x16B0 JUMP JUMPDEST DUP6 PUSH2 0x16BC JUMP JUMPDEST SWAP2 POP DUP1 DUP1 PUSH1 0x1 ADD SWAP2 POP POP PUSH2 0x519 JUMP JUMPDEST POP PUSH2 0x572 PUSH2 0x56C DUP3 DUP14 PUSH2 0x16B0 JUMP JUMPDEST DUP5 PUSH2 0x16BC JUMP JUMPDEST SWAP1 POP PUSH2 0x57E DUP2 DUP4 PUSH2 0x16B0 JUMP JUMPDEST SWAP1 POP PUSH2 0x59B DUP2 PUSH16 0xFFFFFFFFFFFFFFFFFFFFFFFFFFFFFFFF AND PUSH2 0x177D JUMP JUMPDEST DUP5 PUSH0 DUP2 MLOAD DUP2 LT PUSH2 0x5AE JUMPI PUSH2 0x5AD PUSH2 0x4426 JUMP JUMPDEST JUMPDEST PUSH1 0x20 MUL PUSH1 0x20 ADD ADD MLOAD PUSH16 0xFFFFFFFFFFFFFFFFFFFFFFFFFFFFFFFF AND DUP2 PUSH16 0xFFFFFFFFFFFFFFFFFFFFFFFFFFFFFFFF AND EQ PUSH2 0x61B JUMPI PUSH1 0x40 MLOAD PUSH32 0x8C379A000000000000000000000000000000000000000000000000000000000 DUP2 MSTORE PUSH1 0x4 ADD PUSH2 0x612 SWAP1 PUSH2 0x4523 JUMP JUMPDEST PUSH1 0x40 MLOAD DUP1 SWAP2 SUB SWAP1 REVERT JUMPDEST PUSH0 PUSH1 0x1 DUP8 PUSH2 0x629 SWAP2 SWAP1 PUSH2 0x4486 JUMP JUMPDEST SWAP1 POP PUSH0 DUP12 MLOAD PUSH8 0xFFFFFFFFFFFFFFFF DUP2 GT ISZERO PUSH2 0x647 JUMPI PUSH2 0x646 PUSH2 0x3A30 JUMP JUMPDEST JUMPDEST PUSH1 0x40 MLOAD SWAP1 DUP1 DUP3 MSTORE DUP1 PUSH1 0x20 MUL PUSH1 0x20 ADD DUP3 ADD PUSH1 0x40 MSTORE DUP1 ISZERO PUSH2 0x675 JUMPI DUP2 PUSH1 0x20 ADD PUSH1 0x20 DUP3 MUL DUP1 CALLDATASIZE DUP4 CALLDATACOPY DUP1 DUP3 ADD SWAP2 POP POP SWAP1 POP JUMPDEST POP SWAP1 POP PUSH0 JUMPDEST DUP2 MLOAD DUP2 LT ISZERO PUSH2 0x747 JUMPI PUSH0 PUSH2 0x6C0 PUSH2 0x6BB PUSH2 0x693 DUP7 PUSH2 0x151C JUMP JUMPDEST PUSH2 0x6B6 DUP16 PUSH0 DUP2 MLOAD DUP2 LT PUSH2 0x6A9 JUMPI PUSH2 0x6A8 PUSH2 0x4426 JUMP JUMPDEST JUMPDEST PUSH1 0x20 MUL PUSH1 0x20 ADD ADD MLOAD PUSH2 0x151C JUMP JUMPDEST PUSH2 0xE63 JUMP JUMPDEST PUSH2 0x1496 JUMP JUMPDEST SWAP1 POP PUSH2 0x6E6 DUP2 DUP16 DUP5 DUP2 MLOAD DUP2 LT PUSH2 0x6D9 JUMPI PUSH2 0x6D8 PUSH2 0x4426 JUMP JUMPDEST JUMPDEST PUSH1 0x20 MUL PUSH1 0x20 ADD ADD MLOAD PUSH2 0x16B0 JUMP JUMPDEST DUP4 DUP4 DUP2 MLOAD DUP2 LT PUSH2 0x6F9 JUMPI PUSH2 0x6F8 PUSH2 0x4426 JUMP JUMPDEST JUMPDEST PUSH1 0x20 MUL PUSH1 0x20 ADD ADD SWAP1 PUSH16 0xFFFFFFFFFFFFFFFFFFFFFFFFFFFFFFFF AND SWAP1 DUP2 PUSH16 0xFFFFFFFFFFFFFFFFFFFFFFFFFFFFFFFF AND DUP2 MSTORE POP POP DUP4 DUP1 PUSH2 0x736 SWAP1 PUSH2 0x4541 JUMP JUMPDEST SWAP5 POP POP POP DUP1 DUP1 PUSH1 0x1 ADD SWAP2 POP POP PUSH2 0x67A JUMP JUMPDEST POP PUSH2 0x751 DUP2 PUSH2 0x76B JUMP JUMPDEST SWAP16 POP POP POP POP POP POP POP POP POP POP POP POP POP POP POP POP SWAP6 SWAP5 POP POP POP POP POP JUMP JUMPDEST PUSH1 0x60 PUSH0 DUP3 PUSH0 DUP2 MLOAD DUP2 LT PUSH2 0x781 JUMPI PUSH2 0x780 PUSH2 0x4426 JUMP JUMPDEST JUMPDEST PUSH1 0x20 MUL PUSH1 0x20 ADD ADD MLOAD PUSH1 0x80 SHL PUSH1 0x40 MLOAD PUSH1 0x20 ADD PUSH2 0x79C SWAP2 SWAP1 PUSH2 0x4598 JUMP JUMPDEST PUSH1 0x40 MLOAD PUSH1 0x20 DUP2 DUP4 SUB SUB DUP2 MSTORE SWAP1 PUSH1 0x40 MSTORE SWAP1 POP PUSH0 PUSH1 0x1 SWAP1 POP JUMPDEST DUP4 MLOAD DUP2 LT ISZERO PUSH2 0x826 JUMPI DUP2 DUP5 DUP3 DUP2 MLOAD DUP2 LT PUSH2 0x7D0 JUMPI PUSH2 0x7CF PUSH2 0x4426 JUMP JUMPDEST JUMPDEST PUSH1 0x20 MUL PUSH1 0x20 ADD ADD MLOAD PUSH1 0x40 MLOAD PUSH1 0x20 ADD PUSH2 0x7E8 SWAP2 SWAP1 PUSH2 0x45E6 JUMP JUMPDEST PUSH1 0x40 MLOAD PUSH1 0x20 DUP2 DUP4 SUB SUB DUP2 MSTORE SWAP1 PUSH1 0x40 MSTORE PUSH1 0x40 MLOAD PUSH1 0x20 ADD PUSH2 0x808 SWAP3 SWAP2 SWAP1 PUSH2 0x42D2 JUMP JUMPDEST PUSH1 0x40 MLOAD PUSH1 0x20 DUP2 DUP4 SUB SUB DUP2 MSTORE SWAP1 PUSH1 0x40 MSTORE SWAP2 POP DUP1 DUP1 PUSH1 0x1 ADD SWAP2 POP POP PUSH2 0x7B3 JUMP JUMPDEST POP DUP1 SWAP2 POP POP SWAP2 SWAP1 POP JUMP JUMPDEST PUSH2 0x838 PUSH2 0x395D JUMP JUMPDEST PUSH0 PUSH1 0x40 MLOAD DUP1 PUSH1 0x80 ADD PUSH1 0x40 MSTORE DUP1 PUSH1 0x40 MLOAD DUP1 PUSH1 0x80 ADD PUSH1 0x40 MSTORE DUP1 DUP8 PUSH0 PUSH1 0x10 DUP2 LT PUSH2 0x862 JUMPI PUSH2 0x861 PUSH2 0x4426 JUMP JUMPDEST JUMPDEST PUSH1 0x20 MUL ADD MLOAD PUSH1 0xFF AND PUSH1 0xFF AND DUP2 MSTORE PUSH1 0x20 ADD DUP8 PUSH1 0x4 PUSH1 0x10 DUP2 LT PUSH2 0x886 JUMPI PUSH2 0x885 PUSH2 0x4426 JUMP JUMPDEST JUMPDEST PUSH1 0x20 MUL ADD MLOAD PUSH1 0xFF AND PUSH1 0xFF AND DUP2 MSTORE PUSH1 0x20 ADD DUP8 PUSH1 0x8 PUSH1 0x10 DUP2 LT PUSH2 0x8AA JUMPI PUSH2 0x8A9 PUSH2 0x4426 JUMP JUMPDEST JUMPDEST PUSH1 0x20 MUL ADD MLOAD PUSH1 0xFF AND PUSH1 0xFF AND DUP2 MSTORE PUSH1 0x20 ADD DUP8 PUSH1 0xC PUSH1 0x10 DUP2 LT PUSH2 0x8CE JUMPI PUSH2 0x8CD PUSH2 0x4426 JUMP JUMPDEST JUMPDEST PUSH1 0x20 MUL ADD MLOAD PUSH1 0xFF AND PUSH1 0xFF AND DUP2 MSTORE POP DUP2 MSTORE PUSH1 0x20 ADD PUSH1 0x40 MLOAD DUP1 PUSH1 0x80 ADD PUSH1 0x40 MSTORE DUP1 DUP8 PUSH1 0x1 PUSH1 0x10 DUP2 LT PUSH2 0x900 JUMPI PUSH2 0x8FF PUSH2 0x4426 JUMP JUMPDEST JUMPDEST PUSH1 0x20 MUL ADD MLOAD PUSH1 0xFF AND PUSH1 0xFF AND DUP2 MSTORE PUSH1 0x20 ADD DUP8 PUSH1 0x5 PUSH1 0x10 DUP2 LT PUSH2 0x924 JUMPI PUSH2 0x923 PUSH2 0x4426 JUMP JUMPDEST JUMPDEST PUSH1 0x20 MUL ADD MLOAD PUSH1 0xFF AND PUSH1 0xFF AND DUP2 MSTORE PUSH1 0x20 ADD DUP8 PUSH1 0x9 PUSH1 0x10 DUP2 LT PUSH2 0x948 JUMPI PUSH2 0x947 PUSH2 0x4426 JUMP JUMPDEST JUMPDEST PUSH1 0x20 MUL ADD MLOAD PUSH1 0xFF AND PUSH1 0xFF AND DUP2 MSTORE PUSH1 0x20 ADD DUP8 PUSH1 0xD PUSH1 0x10 DUP2 LT PUSH2 0x96C JUMPI PUSH2 0x96B PUSH2 0x4426 JUMP JUMPDEST JUMPDEST PUSH1 0x20 MUL ADD MLOAD PUSH1 0xFF AND PUSH1 0xFF AND DUP2 MSTORE POP DUP2 MSTORE PUSH1 0x20 ADD PUSH1 0x40 MLOAD DUP1 PUSH1 0x80 ADD PUSH1 0x40 MSTORE DUP1 DUP8 PUSH1 0x2 PUSH1 0x10 DUP2 LT PUSH2 0x99E JUMPI PUSH2 0x99D PUSH2 0x4426 JUMP JUMPDEST JUMPDEST PUSH1 0x20 MUL ADD MLOAD PUSH1 0xFF AND PUSH1 0xFF AND DUP2 MSTORE PUSH1 0x20 ADD DUP8 PUSH1 0x6 PUSH1 0x10 DUP2 LT PUSH2 0x9C2 JUMPI PUSH2 0x9C1 PUSH2 0x4426 JUMP JUMPDEST JUMPDEST PUSH1 0x20 MUL ADD MLOAD PUSH1 0xFF AND PUSH1 0xFF AND DUP2 MSTORE PUSH1 0x20 ADD DUP8 PUSH1 0xA PUSH1 0x10 DUP2 LT PUSH2 0x9E6 JUMPI PUSH2 0x9E5 PUSH2 0x4426 JUMP JUMPDEST JUMPDEST PUSH1 0x20 MUL ADD MLOAD PUSH1 0xFF AND PUSH1 0xFF AND DUP2 MSTORE PUSH1 0x20 ADD DUP8 PUSH1 0xE PUSH1 0x10 DUP2 LT PUSH2 0xA0A JUMPI PUSH2 0xA09 PUSH2 0x4426 JUMP JUMPDEST JUMPDEST PUSH1 0x20 MUL ADD MLOAD PUSH1 0xFF AND PUSH1 0xFF AND DUP2 MSTORE POP DUP2 MSTORE PUSH1 0x20 ADD PUSH1 0x40 MLOAD DUP1 PUSH1 0x80 ADD PUSH1 0x40 MSTORE DUP1 DUP8 PUSH1 0x3 PUSH1 0x10 DUP2 LT PUSH2 0xA3C JUMPI PUSH2 0xA3B PUSH2 0x4426 JUMP JUMPDEST JUMPDEST PUSH1 0x20 MUL ADD MLOAD PUSH1 0xFF AND PUSH1 0xFF AND DUP2 MSTORE PUSH1 0x20 ADD DUP8 PUSH1 0x7 PUSH1 0x10 DUP2 LT PUSH2 0xA60 JUMPI PUSH2 0xA5F PUSH2 0x4426 JUMP JUMPDEST JUMPDEST PUSH1 0x20 MUL ADD MLOAD PUSH1 0xFF AND PUSH1 0xFF AND DUP2 MSTORE PUSH1 0x20 ADD DUP8 PUSH1 0xB PUSH1 0x10 DUP2 LT PUSH2 0xA84 JUMPI PUSH2 0xA83 PUSH2 0x4426 JUMP JUMPDEST JUMPDEST PUSH1 0x20 MUL ADD MLOAD PUSH1 0xFF AND PUSH1 0xFF AND DUP2 MSTORE PUSH1 0x20 ADD DUP8 PUSH1 0xF PUSH1 0x10 DUP2 LT PUSH2 0xAA8 JUMPI PUSH2 0xAA7 PUSH2 0x4426 JUMP JUMPDEST JUMPDEST PUSH1 0x20 MUL ADD MLOAD PUSH1 0xFF AND PUSH1 0xFF AND DUP2 MSTORE POP DUP2 MSTORE POP SWAP1 POP PUSH0 PUSH2 0xAC5 DUP5 PUSH2 0x1816 JUMP JUMPDEST SWAP1 POP PUSH0 PUSH1 0x40 MLOAD DUP1 PUSH1 0x80 ADD PUSH1 0x40 MSTORE DUP1 DUP4 PUSH1 0x28 PUSH1 0x2C DUP2 LT PUSH2 0xAE7 JUMPI PUSH2 0xAE6 PUSH2 0x4426 JUMP JUMPDEST JUMPDEST PUSH1 0x20 MUL ADD MLOAD DUP2 MSTORE PUSH1 0x20 ADD DUP4 PUSH1 0x29 PUSH1 0x2C DUP2 LT PUSH2 0xB05 JUMPI PUSH2 0xB04 PUSH2 0x4426 JUMP JUMPDEST JUMPDEST PUSH1 0x20 MUL ADD MLOAD DUP2 MSTORE PUSH1 0x20 ADD DUP4 PUSH1 0x2A PUSH1 0x2C DUP2 LT PUSH2 0xB23 JUMPI PUSH2 0xB22 PUSH2 0x4426 JUMP JUMPDEST JUMPDEST PUSH1 0x20 MUL ADD MLOAD DUP2 MSTORE PUSH1 0x20 ADD DUP4 PUSH1 0x2B PUSH1 0x2C DUP2 LT PUSH2 0xB41 JUMPI PUSH2 0xB40 PUSH2 0x4426 JUMP JUMPDEST JUMPDEST PUSH1 0x20 MUL ADD MLOAD DUP2 MSTORE POP SWAP1 POP PUSH2 0xB55 DUP4 DUP3 PUSH2 0x200A JUMP JUMPDEST SWAP3 POP PUSH0 PUSH1 0x9 SWAP1 POP JUMPDEST PUSH1 0x1 DUP2 LT PUSH2 0xC78 JUMPI PUSH2 0xB6E DUP5 PUSH2 0x20E7 JUMP JUMPDEST SWAP4 POP PUSH2 0xB79 DUP5 PUSH2 0x2427 JUMP JUMPDEST SWAP4 POP PUSH1 0x40 MLOAD DUP1 PUSH1 0x80 ADD PUSH1 0x40 MSTORE DUP1 DUP5 DUP4 PUSH1 0x4 PUSH2 0xB94 SWAP2 SWAP1 PUSH2 0x4325 JUMP JUMPDEST PUSH1 0x2C DUP2 LT PUSH2 0xBA5 JUMPI PUSH2 0xBA4 PUSH2 0x4426 JUMP JUMPDEST JUMPDEST PUSH1 0x20 MUL ADD MLOAD DUP2 MSTORE PUSH1 0x20 ADD DUP5 PUSH1 0x1 DUP5 PUSH1 0x4 PUSH2 0xBBF SWAP2 SWAP1 PUSH2 0x4325 JUMP JUMPDEST PUSH2 0xBC9 SWAP2 SWAP1 PUSH2 0x4453 JUMP JUMPDEST PUSH1 0x2C DUP2 LT PUSH2 0xBDA JUMPI PUSH2 0xBD9 PUSH2 0x4426 JUMP JUMPDEST JUMPDEST PUSH1 0x20 MUL ADD MLOAD DUP2 MSTORE PUSH1 0x20 ADD DUP5 PUSH1 0x2 DUP5 PUSH1 0x4 PUSH2 0xBF4 SWAP2 SWAP1 PUSH2 0x4325 JUMP JUMPDEST PUSH2 0xBFE SWAP2 SWAP1 PUSH2 0x4453 JUMP JUMPDEST PUSH1 0x2C DUP2 LT PUSH2 0xC0F JUMPI PUSH2 0xC0E PUSH2 0x4426 JUMP JUMPDEST JUMPDEST PUSH1 0x20 MUL ADD MLOAD DUP2 MSTORE PUSH1 0x20 ADD DUP5 PUSH1 0x3 DUP5 PUSH1 0x4 PUSH2 0xC29 SWAP2 SWAP1 PUSH2 0x4325 JUMP JUMPDEST PUSH2 0xC33 SWAP2 SWAP1 PUSH2 0x4453 JUMP JUMPDEST PUSH1 0x2C DUP2 LT PUSH2 0xC44 JUMPI PUSH2 0xC43 PUSH2 0x4426 JUMP JUMPDEST JUMPDEST PUSH1 0x20 MUL ADD MLOAD DUP2 MSTORE POP SWAP2 POP PUSH2 0xC58 DUP5 DUP4 PUSH2 0x200A JUMP JUMPDEST SWAP4 POP PUSH2 0xC63 DUP5 PUSH2 0x2500 JUMP JUMPDEST SWAP4 POP DUP1 DUP1 PUSH2 0xC70 SWAP1 PUSH2 0x4600 JUMP JUMPDEST SWAP2 POP POP PUSH2 0xB5D JUMP JUMPDEST POP PUSH2 0xC82 DUP4 PUSH2 0x20E7 JUMP JUMPDEST SWAP3 POP PUSH2 0xC8D DUP4 PUSH2 0x2427 JUMP JUMPDEST SWAP3 POP PUSH1 0x40 MLOAD DUP1 PUSH1 0x80 ADD PUSH1 0x40 MSTORE DUP1 DUP4 PUSH0 PUSH1 0x2C DUP2 LT PUSH2 0xCAD JUMPI PUSH2 0xCAC PUSH2 0x4426 JUMP JUMPDEST JUMPDEST PUSH1 0x20 MUL ADD MLOAD DUP2 MSTORE PUSH1 0x20 ADD DUP4 PUSH1 0x1 PUSH1 0x2C DUP2 LT PUSH2 0xCCB JUMPI PUSH2 0xCCA PUSH2 0x4426 JUMP JUMPDEST JUMPDEST PUSH1 0x20 MUL ADD MLOAD DUP2 MSTORE PUSH1 0x20 ADD DUP4 PUSH1 0x2 PUSH1 0x2C DUP2 LT PUSH2 0xCE9 JUMPI PUSH2 0xCE8 PUSH2 0x4426 JUMP JUMPDEST JUMPDEST PUSH1 0x20 MUL ADD MLOAD DUP2 MSTORE PUSH1 0x20 ADD DUP4 PUSH1 0x3 PUSH1 0x2C DUP2 LT PUSH2 0xD07 JUMPI PUSH2 0xD06 PUSH2 0x4426 JUMP JUMPDEST JUMPDEST PUSH1 0x20 MUL ADD MLOAD DUP2 MSTORE POP SWAP1 POP PUSH2 0xD1B DUP4 DUP3 PUSH2 0x200A JUMP JUMPDEST SWAP3 POP PUSH0 PUSH1 0x40 MLOAD DUP1 PUSH2 0x200 ADD PUSH1 0x40 MSTORE DUP1 PUSH0 PUSH1 0xFF AND DUP2 MSTORE PUSH1 0x20 ADD PUSH0 PUSH1 0xFF AND DUP2 MSTORE PUSH1 0x20 ADD PUSH0 PUSH1 0xFF AND DUP2 MSTORE PUSH1 0x20 ADD PUSH0 PUSH1 0xFF AND DUP2 MSTORE PUSH1 0x20 ADD PUSH0 PUSH1 0xFF AND DUP2 MSTORE PUSH1 0x20 ADD PUSH0 PUSH1 0xFF AND DUP2 MSTORE PUSH1 0x20 ADD PUSH0 PUSH1 0xFF AND DUP2 MSTORE PUSH1 0x20 ADD PUSH0 PUSH1 0xFF AND DUP2 MSTORE PUSH1 0x20 ADD PUSH0 PUSH1 0xFF AND DUP2 MSTORE PUSH1 0x20 ADD PUSH0 PUSH1 0xFF AND DUP2 MSTORE PUSH1 0x20 ADD PUSH0 PUSH1 0xFF AND DUP2 MSTORE PUSH1 0x20 ADD PUSH0 PUSH1 0xFF AND DUP2 MSTORE PUSH1 0x20 ADD PUSH0 PUSH1 0xFF AND DUP2 MSTORE PUSH1 0x20 ADD PUSH0 PUSH1 0xFF AND DUP2 MSTORE PUSH1 0x20 ADD PUSH0 PUSH1 0xFF AND DUP2 MSTORE PUSH1 0x20 ADD PUSH0 PUSH1 0xFF AND DUP2 MSTORE POP SWAP1 POP PUSH0 JUMPDEST PUSH1 0x4 DUP2 LT ISZERO PUSH2 0xE55 JUMPI PUSH0 JUMPDEST PUSH1 0x4 DUP2 LT ISZERO PUSH2 0xE47 JUMPI DUP6 DUP2 PUSH1 0x4 DUP2 LT PUSH2 0xDE3 JUMPI PUSH2 0xDE2 PUSH2 0x4426 JUMP JUMPDEST JUMPDEST PUSH1 0x20 MUL ADD MLOAD DUP3 PUSH1 0x4 DUP2 LT PUSH2 0xDFA JUMPI PUSH2 0xDF9 PUSH2 0x4426 JUMP JUMPDEST JUMPDEST PUSH1 0x20 MUL ADD MLOAD DUP4 DUP3 DUP5 PUSH1 0x4 PUSH2 0xE0E SWAP2 SWAP1 PUSH2 0x4325 JUMP JUMPDEST PUSH2 0xE18 SWAP2 SWAP1 PUSH2 0x4453 JUMP JUMPDEST PUSH1 0x10 DUP2 LT PUSH2 0xE29 JUMPI PUSH2 0xE28 PUSH2 0x4426 JUMP JUMPDEST JUMPDEST PUSH1 0x20 MUL ADD SWAP1 PUSH1 0xFF AND SWAP1 DUP2 PUSH1 0xFF AND DUP2 MSTORE POP POP DUP1 DUP1 PUSH1 0x1 ADD SWAP2 POP POP PUSH2 0xDC7 JUMP JUMPDEST POP DUP1 DUP1 PUSH1 0x1 ADD SWAP2 POP POP PUSH2 0xDBC JUMP JUMPDEST POP DUP1 SWAP5 POP POP POP POP POP SWAP3 SWAP2 POP POP JUMP JUMPDEST PUSH2 0xE6B PUSH2 0x395D JUMP JUMPDEST PUSH0 PUSH1 0x40 MLOAD DUP1 PUSH1 0x80 ADD PUSH1 0x40 MSTORE DUP1 PUSH1 0x40 MLOAD DUP1 PUSH1 0x80 ADD PUSH1 0x40 MSTORE DUP1 DUP8 PUSH0 PUSH1 0x10 DUP2 LT PUSH2 0xE95 JUMPI PUSH2 0xE94 PUSH2 0x4426 JUMP JUMPDEST JUMPDEST PUSH1 0x20 MUL ADD MLOAD PUSH1 0xFF AND PUSH1 0xFF AND DUP2 MSTORE PUSH1 0x20 ADD DUP8 PUSH1 0x4 PUSH1 0x10 DUP2 LT PUSH2 0xEB9 JUMPI PUSH2 0xEB8 PUSH2 0x4426 JUMP JUMPDEST JUMPDEST PUSH1 0x20 MUL ADD MLOAD PUSH1 0xFF AND PUSH1 0xFF AND DUP2 MSTORE PUSH1 0x20 ADD DUP8 PUSH1 0x8 PUSH1 0x10 DUP2 LT PUSH2 0xEDD JUMPI PUSH2 0xEDC PUSH2 0x4426 JUMP JUMPDEST JUMPDEST PUSH1 0x20 MUL ADD MLOAD PUSH1 0xFF AND PUSH1 0xFF AND DUP2 MSTORE PUSH1 0x20 ADD DUP8 PUSH1 0xC PUSH1 0x10 DUP2 LT PUSH2 0xF01 JUMPI PUSH2 0xF00 PUSH2 0x4426 JUMP JUMPDEST JUMPDEST PUSH1 0x20 MUL ADD MLOAD PUSH1 0xFF AND PUSH1 0xFF AND DUP2 MSTORE POP DUP2 MSTORE PUSH1 0x20 ADD PUSH1 0x40 MLOAD DUP1 PUSH1 0x80 ADD PUSH1 0x40 MSTORE DUP1 DUP8 PUSH1 0x1 PUSH1 0x10 DUP2 LT PUSH2 0xF33 JUMPI PUSH2 0xF32 PUSH2 0x4426 JUMP JUMPDEST JUMPDEST PUSH1 0x20 MUL ADD MLOAD PUSH1 0xFF AND PUSH1 0xFF AND DUP2 MSTORE PUSH1 0x20 ADD DUP8 PUSH1 0x5 PUSH1 0x10 DUP2 LT PUSH2 0xF57 JUMPI PUSH2 0xF56 PUSH2 0x4426 JUMP JUMPDEST JUMPDEST PUSH1 0x20 MUL ADD MLOAD PUSH1 0xFF AND PUSH1 0xFF AND DUP2 MSTORE PUSH1 0x20 ADD DUP8 PUSH1 0x9 PUSH1 0x10 DUP2 LT PUSH2 0xF7B JUMPI PUSH2 0xF7A PUSH2 0x4426 JUMP JUMPDEST JUMPDEST PUSH1 0x20 MUL ADD MLOAD PUSH1 0xFF AND PUSH1 0xFF AND DUP2 MSTORE PUSH1 0x20 ADD DUP8 PUSH1 0xD PUSH1 0x10 DUP2 LT PUSH2 0xF9F JUMPI PUSH2 0xF9E PUSH2 0x4426 JUMP JUMPDEST JUMPDEST PUSH1 0x20 MUL ADD MLOAD PUSH1 0xFF AND PUSH1 0xFF AND DUP2 MSTORE POP DUP2 MSTORE PUSH1 0x20 ADD PUSH1 0x40 MLOAD DUP1 PUSH1 0x80 ADD PUSH1 0x40 MSTORE DUP1 DUP8 PUSH1 0x2 PUSH1 0x10 DUP2 LT PUSH2 0xFD1 JUMPI PUSH2 0xFD0 PUSH2 0x4426 JUMP JUMPDEST JUMPDEST PUSH1 0x20 MUL ADD MLOAD PUSH1 0xFF AND PUSH1 0xFF AND DUP2 MSTORE PUSH1 0x20 ADD DUP8 PUSH1 0x6 PUSH1 0x10 DUP2 LT PUSH2 0xFF5 JUMPI PUSH2 0xFF4 PUSH2 0x4426 JUMP JUMPDEST JUMPDEST PUSH1 0x20 MUL ADD MLOAD PUSH1 0xFF AND PUSH1 0xFF AND DUP2 MSTORE PUSH1 0x20 ADD DUP8 PUSH1 0xA PUSH1 0x10 DUP2 LT PUSH2 0x1019 JUMPI PUSH2 0x1018 PUSH2 0x4426 JUMP JUMPDEST JUMPDEST PUSH1 0x20 MUL ADD MLOAD PUSH1 0xFF AND PUSH1 0xFF AND DUP2 MSTORE PUSH1 0x20 ADD DUP8 PUSH1 0xE PUSH1 0x10 DUP2 LT PUSH2 0x103D JUMPI PUSH2 0x103C PUSH2 0x4426 JUMP JUMPDEST JUMPDEST PUSH1 0x20 MUL ADD MLOAD PUSH1 0xFF AND PUSH1 0xFF AND DUP2 MSTORE POP DUP2 MSTORE PUSH1 0x20 ADD PUSH1 0x40 MLOAD DUP1 PUSH1 0x80 ADD PUSH1 0x40 MSTORE DUP1 DUP8 PUSH1 0x3 PUSH1 0x10 DUP2 LT PUSH2 0x106F JUMPI PUSH2 0x106E PUSH2 0x4426 JUMP JUMPDEST JUMPDEST PUSH1 0x20 MUL ADD MLOAD PUSH1 0xFF AND PUSH1 0xFF AND DUP2 MSTORE PUSH1 0x20 ADD DUP8 PUSH1 0x7 PUSH1 0x10 DUP2 LT PUSH2 0x1093 JUMPI PUSH2 0x1092 PUSH2 0x4426 JUMP JUMPDEST JUMPDEST PUSH1 0x20 MUL ADD MLOAD PUSH1 0xFF AND PUSH1 0xFF AND DUP2 MSTORE PUSH1 0x20 ADD DUP8 PUSH1 0xB PUSH1 0x10 DUP2 LT PUSH2 0x10B7 JUMPI PUSH2 0x10B6 PUSH2 0x4426 JUMP JUMPDEST JUMPDEST PUSH1 0x20 MUL ADD MLOAD PUSH1 0xFF AND PUSH1 0xFF AND DUP2 MSTORE PUSH1 0x20 ADD DUP8 PUSH1 0xF PUSH1 0x10 DUP2 LT PUSH2 0x10DB JUMPI PUSH2 0x10DA PUSH2 0x4426 JUMP JUMPDEST JUMPDEST PUSH1 0x20 MUL ADD MLOAD PUSH1 0xFF AND PUSH1 0xFF AND DUP2 MSTORE POP DUP2 MSTORE POP SWAP1 POP PUSH0 PUSH2 0x10F8 DUP5 PUSH2 0x1816 JUMP JUMPDEST SWAP1 POP PUSH0 PUSH1 0x40 MLOAD DUP1 PUSH1 0x80 ADD PUSH1 0x40 MSTORE DUP1 DUP4 PUSH0 PUSH1 0x2C DUP2 LT PUSH2 0x1119 JUMPI PUSH2 0x1118 PUSH2 0x4426 JUMP JUMPDEST JUMPDEST PUSH1 0x20 MUL ADD MLOAD DUP2 MSTORE PUSH1 0x20 ADD DUP4 PUSH1 0x1 PUSH1 0x2C DUP2 LT PUSH2 0x1137 JUMPI PUSH2 0x1136 PUSH2 0x4426 JUMP JUMPDEST JUMPDEST PUSH1 0x20 MUL ADD MLOAD DUP2 MSTORE PUSH1 0x20 ADD DUP4 PUSH1 0x2 PUSH1 0x2C DUP2 LT PUSH2 0x1155 JUMPI PUSH2 0x1154 PUSH2 0x4426 JUMP JUMPDEST JUMPDEST PUSH1 0x20 MUL ADD MLOAD DUP2 MSTORE PUSH1 0x20 ADD DUP4 PUSH1 0x3 PUSH1 0x2C DUP2 LT PUSH2 0x1173 JUMPI PUSH2 0x1172 PUSH2 0x4426 JUMP JUMPDEST JUMPDEST PUSH1 0x20 MUL ADD MLOAD DUP2 MSTORE POP SWAP1 POP PUSH2 0x1187 DUP4 DUP3 PUSH2 0x200A JUMP JUMPDEST SWAP3 POP PUSH2 0x1192 DUP4 PUSH2 0x2B18 JUMP JUMPDEST SWAP3 POP PUSH2 0x119D DUP4 PUSH2 0x2BF1 JUMP JUMPDEST SWAP3 POP PUSH0 PUSH1 0x1 SWAP1 POP JUMPDEST PUSH1 0x9 DUP2 GT PUSH2 0x12C0 JUMPI PUSH2 0x11B6 DUP5 PUSH2 0x2F31 JUMP JUMPDEST SWAP4 POP PUSH1 0x40 MLOAD DUP1 PUSH1 0x80 ADD PUSH1 0x40 MSTORE DUP1 DUP5 DUP4 PUSH1 0x4 PUSH2 0x11D1 SWAP2 SWAP1 PUSH2 0x4325 JUMP JUMPDEST PUSH1 0x2C DUP2 LT PUSH2 0x11E2 JUMPI PUSH2 0x11E1 PUSH2 0x4426 JUMP JUMPDEST JUMPDEST PUSH1 0x20 MUL ADD MLOAD DUP2 MSTORE PUSH1 0x20 ADD DUP5 PUSH1 0x1 DUP5 PUSH1 0x4 PUSH2 0x11FC SWAP2 SWAP1 PUSH2 0x4325 JUMP JUMPDEST PUSH2 0x1206 SWAP2 SWAP1 PUSH2 0x4453 JUMP JUMPDEST PUSH1 0x2C DUP2 LT PUSH2 0x1217 JUMPI PUSH2 0x1216 PUSH2 0x4426 JUMP JUMPDEST JUMPDEST PUSH1 0x20 MUL ADD MLOAD DUP2 MSTORE PUSH1 0x20 ADD DUP5 PUSH1 0x2 DUP5 PUSH1 0x4 PUSH2 0x1231 SWAP2 SWAP1 PUSH2 0x4325 JUMP JUMPDEST PUSH2 0x123B SWAP2 SWAP1 PUSH2 0x4453 JUMP JUMPDEST PUSH1 0x2C DUP2 LT PUSH2 0x124C JUMPI PUSH2 0x124B PUSH2 0x4426 JUMP JUMPDEST JUMPDEST PUSH1 0x20 MUL ADD MLOAD DUP2 MSTORE PUSH1 0x20 ADD DUP5 PUSH1 0x3 DUP5 PUSH1 0x4 PUSH2 0x1266 SWAP2 SWAP1 PUSH2 0x4325 JUMP JUMPDEST PUSH2 0x1270 SWAP2 SWAP1 PUSH2 0x4453 JUMP JUMPDEST PUSH1 0x2C DUP2 LT PUSH2 0x1281 JUMPI PUSH2 0x1280 PUSH2 0x4426 JUMP JUMPDEST JUMPDEST PUSH1 0x20 MUL ADD MLOAD DUP2 MSTORE POP SWAP2 POP PUSH2 0x1295 DUP5 DUP4 PUSH2 0x200A JUMP JUMPDEST SWAP4 POP PUSH2 0x12A0 DUP5 PUSH2 0x2B18 JUMP JUMPDEST SWAP4 POP PUSH2 0x12AB DUP5 PUSH2 0x2BF1 JUMP JUMPDEST SWAP4 POP DUP1 DUP1 PUSH2 0x12B8 SWAP1 PUSH2 0x4627 JUMP JUMPDEST SWAP2 POP POP PUSH2 0x11A5 JUMP JUMPDEST POP PUSH1 0x40 MLOAD DUP1 PUSH1 0x80 ADD PUSH1 0x40 MSTORE DUP1 DUP4 PUSH1 0x28 PUSH1 0x2C DUP2 LT PUSH2 0x12E0 JUMPI PUSH2 0x12DF PUSH2 0x4426 JUMP JUMPDEST JUMPDEST PUSH1 0x20 MUL ADD MLOAD DUP2 MSTORE PUSH1 0x20 ADD DUP4 PUSH1 0x29 PUSH1 0x2C DUP2 LT PUSH2 0x12FE JUMPI PUSH2 0x12FD PUSH2 0x4426 JUMP JUMPDEST JUMPDEST PUSH1 0x20 MUL ADD MLOAD DUP2 MSTORE PUSH1 0x20 ADD DUP4 PUSH1 0x2A PUSH1 0x2C DUP2 LT PUSH2 0x131C JUMPI PUSH2 0x131B PUSH2 0x4426 JUMP JUMPDEST JUMPDEST PUSH1 0x20 MUL ADD MLOAD DUP2 MSTORE PUSH1 0x20 ADD DUP4 PUSH1 0x2B PUSH1 0x2C DUP2 LT PUSH2 0x133A JUMPI PUSH2 0x1339 PUSH2 0x4426 JUMP JUMPDEST JUMPDEST PUSH1 0x20 MUL ADD MLOAD DUP2 MSTORE POP SWAP1 POP PUSH2 0x134E DUP4 DUP3 PUSH2 0x200A JUMP JUMPDEST SWAP3 POP PUSH0 PUSH1 0x40 MLOAD DUP1 PUSH2 0x200 ADD PUSH1 0x40 MSTORE DUP1 PUSH0 PUSH1 0xFF AND DUP2 MSTORE PUSH1 0x20 ADD PUSH0 PUSH1 0xFF AND DUP2 MSTORE PUSH1 0x20 ADD PUSH0 PUSH1 0xFF AND DUP2 MSTORE PUSH1 0x20 ADD PUSH0 PUSH1 0xFF AND DUP2 MSTORE PUSH1 0x20 ADD PUSH0 PUSH1 0xFF AND DUP2 MSTORE PUSH1 0x20 ADD PUSH0 PUSH1 0xFF AND DUP2 MSTORE PUSH1 0x20 ADD PUSH0 PUSH1 0xFF AND DUP2 MSTORE PUSH1 0x20 ADD PUSH0 PUSH1 0xFF AND DUP2 MSTORE PUSH1 0x20 ADD PUSH0 PUSH1 0xFF AND DUP2 MSTORE PUSH1 0x20 ADD PUSH0 PUSH1 0xFF AND DUP2 MSTORE PUSH1 0x20 ADD PUSH0 PUSH1 0xFF AND DUP2 MSTORE PUSH1 0x20 ADD PUSH0 PUSH1 0xFF AND DUP2 MSTORE PUSH1 0x20 ADD PUSH0 PUSH1 0xFF AND DUP2 MSTORE PUSH1 0x20 ADD PUSH0 PUSH1 0xFF AND DUP2 MSTORE PUSH1 0x20 ADD PUSH0 PUSH1 0xFF AND DUP2 MSTORE PUSH1 0x20 ADD PUSH0 PUSH1 0xFF AND DUP2 MSTORE POP SWAP1 POP PUSH0 JUMPDEST PUSH1 0x4 DUP2 LT ISZERO PUSH2 0x1488 JUMPI PUSH0 JUMPDEST PUSH1 0x4 DUP2 LT ISZERO PUSH2 0x147A JUMPI DUP6 DUP2 PUSH1 0x4 DUP2 LT PUSH2 0x1416 JUMPI PUSH2 0x1415 PUSH2 0x4426 JUMP JUMPDEST JUMPDEST PUSH1 0x20 MUL ADD MLOAD DUP3 PUSH1 0x4 DUP2 LT PUSH2 0x142D JUMPI PUSH2 0x142C PUSH2 0x4426 JUMP JUMPDEST JUMPDEST PUSH1 0x20 MUL ADD MLOAD DUP4 DUP3 DUP5 PUSH1 0x4 PUSH2 0x1441 SWAP2 SWAP1 PUSH2 0x4325 JUMP JUMPDEST PUSH2 0x144B SWAP2 SWAP1 PUSH2 0x4453 JUMP JUMPDEST PUSH1 0x10 DUP2 LT PUSH2 0x145C JUMPI PUSH2 0x145B PUSH2 0x4426 JUMP JUMPDEST JUMPDEST PUSH1 0x20 MUL ADD SWAP1 PUSH1 0xFF AND SWAP1 DUP2 PUSH1 0xFF AND DUP2 MSTORE POP POP DUP1 DUP1 PUSH1 0x1 ADD SWAP2 POP POP PUSH2 0x13FA JUMP JUMPDEST POP DUP1 DUP1 PUSH1 0x1 ADD SWAP2 POP POP PUSH2 0x13EF JUMP JUMPDEST POP DUP1 SWAP5 POP POP POP POP POP SWAP3 SWAP2 POP POP JUMP JUMPDEST PUSH0 DUP1 DUP3 PUSH0 PUSH1 0x10 DUP2 LT PUSH2 0x14AB JUMPI PUSH2 0x14AA PUSH2 0x4426 JUMP JUMPDEST JUMPDEST PUSH1 0x20 MUL ADD MLOAD PUSH1 0xFF AND SWAP1 POP PUSH0 PUSH1 0x1 SWAP1 POP JUMPDEST PUSH1 0x10 DUP2 LT ISZERO PUSH2 0x1512 JUMPI PUSH1 0x8 DUP3 PUSH16 0xFFFFFFFFFFFFFFFFFFFFFFFFFFFFFFFF AND SWAP1 SHL SWAP2 POP DUP4 DUP2 PUSH1 0x10 DUP2 LT PUSH2 0x14F0 JUMPI PUSH2 0x14EF PUSH2 0x4426 JUMP JUMPDEST JUMPDEST PUSH1 0x20 MUL ADD MLOAD PUSH1 0xFF AND DUP3 PUSH2 0x1503 SWAP2 SWAP1 PUSH2 0x4486 JUMP JUMPDEST SWAP2 POP DUP1 DUP1 PUSH1 0x1 ADD SWAP2 POP POP PUSH2 0x14BB JUMP JUMPDEST POP DUP1 SWAP2 POP POP SWAP2 SWAP1 POP JUMP JUMPDEST PUSH2 0x1524 PUSH2 0x395D JUMP JUMPDEST PUSH0 JUMPDEST PUSH1 0x10 DUP2 LT ISZERO PUSH2 0x158E JUMPI DUP1 PUSH1 0x8 PUSH2 0x153C SWAP2 SWAP1 PUSH2 0x4325 JUMP JUMPDEST DUP4 PUSH16 0xFFFFFFFFFFFFFFFFFFFFFFFFFFFFFFFF AND SWAP1 SHR DUP3 DUP3 PUSH1 0xF PUSH2 0x155F SWAP2 SWAP1 PUSH2 0x423A JUMP JUMPDEST PUSH1 0x10 DUP2 LT PUSH2 0x1570 JUMPI PUSH2 0x156F PUSH2 0x4426 JUMP JUMPDEST JUMPDEST PUSH1 0x20 MUL ADD SWAP1 PUSH1 0xFF AND SWAP1 DUP2 PUSH1 0xFF AND DUP2 MSTORE POP POP DUP1 DUP1 PUSH1 0x1 ADD SWAP2 POP POP PUSH2 0x1526 JUMP JUMPDEST POP SWAP2 SWAP1 POP JUMP JUMPDEST PUSH1 0x60 DUP2 PUSH1 0x1F DUP4 PUSH2 0x15A4 SWAP2 SWAP1 PUSH2 0x4453 JUMP JUMPDEST LT ISZERO PUSH2 0x15E5 JUMPI PUSH1 0x40 MLOAD PUSH32 0x8C379A000000000000000000000000000000000000000000000000000000000 DUP2 MSTORE PUSH1 0x4 ADD PUSH2 0x15DC SWAP1 PUSH2 0x46B8 JUMP JUMPDEST PUSH1 0x40 MLOAD DUP1 SWAP2 SUB SWAP1 REVERT JUMPDEST DUP2 DUP4 PUSH2 0x15F1 SWAP2 SWAP1 PUSH2 0x4453 JUMP JUMPDEST DUP5 MLOAD LT ISZERO PUSH2 0x1634 JUMPI PUSH1 0x40 MLOAD PUSH32 0x8C379A000000000000000000000000000000000000000000000000000000000 DUP2 MSTORE PUSH1 0x4 ADD PUSH2 0x162B SWAP1 PUSH2 0x4720 JUMP JUMPDEST PUSH1 0x40 MLOAD DUP1 SWAP2 SUB SWAP1 REVERT JUMPDEST PUSH1 0x60 DUP3 ISZERO PUSH0 DUP2 EQ PUSH2 0x1653 JUMPI PUSH1 0x40 MLOAD SWAP2 POP PUSH0 DUP3 MSTORE PUSH1 0x20 DUP3 ADD PUSH1 0x40 MSTORE PUSH2 0x16A4 JUMP JUMPDEST PUSH1 0x40 MLOAD SWAP2 POP PUSH1 0x1F DUP5 AND DUP1 ISZERO PUSH1 0x20 MUL DUP2 DUP5 ADD ADD DUP6 DUP2 ADD DUP8 DUP4 ISZERO PUSH1 0x20 MUL DUP5 DUP12 ADD ADD ADD JUMPDEST DUP2 DUP4 LT ISZERO PUSH2 0x1691 JUMPI DUP1 MLOAD DUP4 MSTORE PUSH1 0x20 DUP4 ADD SWAP3 POP PUSH1 0x20 DUP2 ADD SWAP1 POP PUSH2 0x1674 JUMP JUMPDEST POP DUP7 DUP6 MSTORE PUSH1 0x1F NOT PUSH1 0x1F DUP4 ADD AND PUSH1 0x40 MSTORE POP POP POP JUMPDEST POP DUP1 SWAP2 POP POP SWAP4 SWAP3 POP POP POP JUMP JUMPDEST PUSH0 DUP2 DUP4 XOR SWAP1 POP SWAP3 SWAP2 POP POP JUMP JUMPDEST PUSH0 DUP1 PUSH0 SWAP1 POP PUSH0 PUSH1 0x87 SWAP1 POP PUSH0 JUMPDEST PUSH1 0x80 DUP2 PUSH1 0xFF AND LT ISZERO PUSH2 0x1771 JUMPI PUSH0 PUSH1 0x1 DUP7 AND PUSH16 0xFFFFFFFFFFFFFFFFFFFFFFFFFFFFFFFF AND EQ PUSH2 0x16F6 JUMPI DUP6 DUP4 XOR SWAP3 POP JUMPDEST PUSH0 DUP1 PUSH1 0x7F DUP9 PUSH16 0xFFFFFFFFFFFFFFFFFFFFFFFFFFFFFFFF AND SWAP1 SHR PUSH16 0xFFFFFFFFFFFFFFFFFFFFFFFFFFFFFFFF AND EQ ISZERO SWAP1 POP PUSH1 0x1 DUP8 PUSH16 0xFFFFFFFFFFFFFFFFFFFFFFFFFFFFFFFF AND SWAP1 SHL SWAP7 POP DUP1 ISZERO PUSH2 0x174A JUMPI DUP3 DUP8 XOR SWAP7 POP JUMPDEST PUSH1 0x1 DUP7 PUSH16 0xFFFFFFFFFFFFFFFFFFFFFFFFFFFFFFFF AND SWAP1 SHR SWAP6 POP POP DUP1 DUP1 PUSH1 0x1 ADD SWAP2 POP POP PUSH2 0x16C8 JUMP JUMPDEST POP DUP2 SWAP3 POP POP POP SWAP3 SWAP2 POP POP JUMP JUMPDEST PUSH2 0x1813 DUP2 PUSH1 0x40 MLOAD PUSH1 0x24 ADD PUSH2 0x1791 SWAP2 SWAP1 PUSH2 0x474D JUMP JUMPDEST PUSH1 0x40 MLOAD PUSH1 0x20 DUP2 DUP4 SUB SUB DUP2 MSTORE SWAP1 PUSH1 0x40 MSTORE PUSH32 0xF82C50F100000000000000000000000000000000000000000000000000000000 PUSH28 0xFFFFFFFFFFFFFFFFFFFFFFFFFFFFFFFFFFFFFFFFFFFFFFFFFFFFFFFF NOT AND PUSH1 0x20 DUP3 ADD DUP1 MLOAD PUSH28 0xFFFFFFFFFFFFFFFFFFFFFFFFFFFFFFFFFFFFFFFFFFFFFFFFFFFFFFFF DUP4 DUP2 DUP4 AND OR DUP4 MSTORE POP POP POP POP PUSH2 0x3549 JUMP JUMPDEST POP JUMP JUMPDEST PUSH2 0x181E PUSH2 0x3980 JUMP JUMPDEST PUSH2 0x1826 PUSH2 0x3980 JUMP JUMPDEST DUP3 PUSH0 PUSH1 0x10 DUP2 LT PUSH2 0x1839 JUMPI PUSH2 0x1838 PUSH2 0x4426 JUMP JUMPDEST JUMPDEST PUSH1 0x20 MUL ADD MLOAD DUP2 PUSH0 PUSH1 0x2C DUP2 LT PUSH2 0x1851 JUMPI PUSH2 0x1850 PUSH2 0x4426 JUMP JUMPDEST JUMPDEST PUSH1 0x20 MUL ADD MLOAD PUSH0 PUSH1 0x4 DUP2 LT PUSH2 0x1868 JUMPI PUSH2 0x1867 PUSH2 0x4426 JUMP JUMPDEST JUMPDEST PUSH1 0x20 MUL ADD SWAP1 PUSH1 0xFF AND SWAP1 DUP2 PUSH1 0xFF AND DUP2 MSTORE POP POP DUP3 PUSH1 0x1 PUSH1 0x10 DUP2 LT PUSH2 0x188D JUMPI PUSH2 0x188C PUSH2 0x4426 JUMP JUMPDEST JUMPDEST PUSH1 0x20 MUL ADD MLOAD DUP2 PUSH0 PUSH1 0x2C DUP2 LT PUSH2 0x18A5 JUMPI PUSH2 0x18A4 PUSH2 0x4426 JUMP JUMPDEST JUMPDEST PUSH1 0x20 MUL ADD MLOAD PUSH1 0x1 PUSH1 0x4 DUP2 LT PUSH2 0x18BD JUMPI PUSH2 0x18BC PUSH2 0x4426 JUMP JUMPDEST JUMPDEST PUSH1 0x20 MUL ADD SWAP1 PUSH1 0xFF AND SWAP1 DUP2 PUSH1 0xFF AND DUP2 MSTORE POP POP DUP3 PUSH1 0x2 PUSH1 0x10 DUP2 LT PUSH2 0x18E2 JUMPI PUSH2 0x18E1 PUSH2 0x4426 JUMP JUMPDEST JUMPDEST PUSH1 0x20 MUL ADD MLOAD DUP2 PUSH0 PUSH1 0x2C DUP2 LT PUSH2 0x18FA JUMPI PUSH2 0x18F9 PUSH2 0x4426 JUMP JUMPDEST JUMPDEST PUSH1 0x20 MUL ADD MLOAD PUSH1 0x2 PUSH1 0x4 DUP2 LT PUSH2 0x1912 JUMPI PUSH2 0x1911 PUSH2 0x4426 JUMP JUMPDEST JUMPDEST PUSH1 0x20 MUL ADD SWAP1 PUSH1 0xFF AND SWAP1 DUP2 PUSH1 0xFF AND DUP2 MSTORE POP POP DUP3 PUSH1 0x3 PUSH1 0x10 DUP2 LT PUSH2 0x1937 JUMPI PUSH2 0x1936 PUSH2 0x4426 JUMP JUMPDEST JUMPDEST PUSH1 0x20 MUL ADD MLOAD DUP2 PUSH0 PUSH1 0x2C DUP2 LT PUSH2 0x194F JUMPI PUSH2 0x194E PUSH2 0x4426 JUMP JUMPDEST JUMPDEST PUSH1 0x20 MUL ADD MLOAD PUSH1 0x3 PUSH1 0x4 DUP2 LT PUSH2 0x1967 JUMPI PUSH2 0x1966 PUSH2 0x4426 JUMP JUMPDEST JUMPDEST PUSH1 0x20 MUL ADD SWAP1 PUSH1 0xFF AND SWAP1 DUP2 PUSH1 0xFF AND DUP2 MSTORE POP POP DUP3 PUSH1 0x4 PUSH1 0x10 DUP2 LT PUSH2 0x198C JUMPI PUSH2 0x198B PUSH2 0x4426 JUMP JUMPDEST JUMPDEST PUSH1 0x20 MUL ADD MLOAD DUP2 PUSH1 0x1 PUSH1 0x2C DUP2 LT PUSH2 0x19A5 JUMPI PUSH2 0x19A4 PUSH2 0x4426 JUMP JUMPDEST JUMPDEST PUSH1 0x20 MUL ADD MLOAD PUSH0 PUSH1 0x4 DUP2 LT PUSH2 0x19BC JUMPI PUSH2 0x19BB PUSH2 0x4426 JUMP JUMPDEST JUMPDEST PUSH1 0x20 MUL ADD SWAP1 PUSH1 0xFF AND SWAP1 DUP2 PUSH1 0xFF AND DUP2 MSTORE POP POP DUP3 PUSH1 0x5 PUSH1 0x10 DUP2 LT PUSH2 0x19E1 JUMPI PUSH2 0x19E0 PUSH2 0x4426 JUMP JUMPDEST JUMPDEST PUSH1 0x20 MUL ADD MLOAD DUP2 PUSH1 0x1 PUSH1 0x2C DUP2 LT PUSH2 0x19FA JUMPI PUSH2 0x19F9 PUSH2 0x4426 JUMP JUMPDEST JUMPDEST PUSH1 0x20 MUL ADD MLOAD PUSH1 0x1 PUSH1 0x4 DUP2 LT PUSH2 0x1A12 JUMPI PUSH2 0x1A11 PUSH2 0x4426 JUMP JUMPDEST JUMPDEST PUSH1 0x20 MUL ADD SWAP1 PUSH1 0xFF AND SWAP1 DUP2 PUSH1 0xFF AND DUP2 MSTORE POP POP DUP3 PUSH1 0x6 PUSH1 0x10 DUP2 LT PUSH2 0x1A37 JUMPI PUSH2 0x1A36 PUSH2 0x4426 JUMP JUMPDEST JUMPDEST PUSH1 0x20 MUL ADD MLOAD DUP2 PUSH1 0x1 PUSH1 0x2C DUP2 LT PUSH2 0x1A50 JUMPI PUSH2 0x1A4F PUSH2 0x4426 JUMP JUMPDEST JUMPDEST PUSH1 0x20 MUL ADD MLOAD PUSH1 0x2 PUSH1 0x4 DUP2 LT PUSH2 0x1A68 JUMPI PUSH2 0x1A67 PUSH2 0x4426 JUMP JUMPDEST JUMPDEST PUSH1 0x20 MUL ADD SWAP1 PUSH1 0xFF AND SWAP1 DUP2 PUSH1 0xFF AND DUP2 MSTORE POP POP DUP3 PUSH1 0x7 PUSH1 0x10 DUP2 LT PUSH2 0x1A8D JUMPI PUSH2 0x1A8C PUSH2 0x4426 JUMP JUMPDEST JUMPDEST PUSH1 0x20 MUL ADD MLOAD DUP2 PUSH1 0x1 PUSH1 0x2C DUP2 LT PUSH2 0x1AA6 JUMPI PUSH2 0x1AA5 PUSH2 0x4426 JUMP JUMPDEST JUMPDEST PUSH1 0x20 MUL ADD MLOAD PUSH1 0x3 PUSH1 0x4 DUP2 LT PUSH2 0x1ABE JUMPI PUSH2 0x1ABD PUSH2 0x4426 JUMP JUMPDEST JUMPDEST PUSH1 0x20 MUL ADD SWAP1 PUSH1 0xFF AND SWAP1 DUP2 PUSH1 0xFF AND DUP2 MSTORE POP POP DUP3 PUSH1 0x8 PUSH1 0x10 DUP2 LT PUSH2 0x1AE3 JUMPI PUSH2 0x1AE2 PUSH2 0x4426 JUMP JUMPDEST JUMPDEST PUSH1 0x20 MUL ADD MLOAD DUP2 PUSH1 0x2 PUSH1 0x2C DUP2 LT PUSH2 0x1AFC JUMPI PUSH2 0x1AFB PUSH2 0x4426 JUMP JUMPDEST JUMPDEST PUSH1 0x20 MUL ADD MLOAD PUSH0 PUSH1 0x4 DUP2 LT PUSH2 0x1B13 JUMPI PUSH2 0x1B12 PUSH2 0x4426 JUMP JUMPDEST JUMPDEST PUSH1 0x20 MUL ADD SWAP1 PUSH1 0xFF AND SWAP1 DUP2 PUSH1 0xFF AND DUP2 MSTORE POP POP DUP3 PUSH1 0x9 PUSH1 0x10 DUP2 LT PUSH2 0x1B38 JUMPI PUSH2 0x1B37 PUSH2 0x4426 JUMP JUMPDEST JUMPDEST PUSH1 0x20 MUL ADD MLOAD DUP2 PUSH1 0x2 PUSH1 0x2C DUP2 LT PUSH2 0x1B51 JUMPI PUSH2 0x1B50 PUSH2 0x4426 JUMP JUMPDEST JUMPDEST PUSH1 0x20 MUL ADD MLOAD PUSH1 0x1 PUSH1 0x4 DUP2 LT PUSH2 0x1B69 JUMPI PUSH2 0x1B68 PUSH2 0x4426 JUMP JUMPDEST JUMPDEST PUSH1 0x20 MUL ADD SWAP1 PUSH1 0xFF AND SWAP1 DUP2 PUSH1 0xFF AND DUP2 MSTORE POP POP DUP3 PUSH1 0xA PUSH1 0x10 DUP2 LT PUSH2 0x1B8E JUMPI PUSH2 0x1B8D PUSH2 0x4426 JUMP JUMPDEST JUMPDEST PUSH1 0x20 MUL ADD MLOAD DUP2 PUSH1 0x2 PUSH1 0x2C DUP2 LT PUSH2 0x1BA7 JUMPI PUSH2 0x1BA6 PUSH2 0x4426 JUMP JUMPDEST JUMPDEST PUSH1 0x20 MUL ADD MLOAD PUSH1 0x2 PUSH1 0x4 DUP2 LT PUSH2 0x1BBF JUMPI PUSH2 0x1BBE PUSH2 0x4426 JUMP JUMPDEST JUMPDEST PUSH1 0x20 MUL ADD SWAP1 PUSH1 0xFF AND SWAP1 DUP2 PUSH1 0xFF AND DUP2 MSTORE POP POP DUP3 PUSH1 0xB PUSH1 0x10 DUP2 LT PUSH2 0x1BE4 JUMPI PUSH2 0x1BE3 PUSH2 0x4426 JUMP JUMPDEST JUMPDEST PUSH1 0x20 MUL ADD MLOAD DUP2 PUSH1 0x2 PUSH1 0x2C DUP2 LT PUSH2 0x1BFD JUMPI PUSH2 0x1BFC PUSH2 0x4426 JUMP JUMPDEST JUMPDEST PUSH1 0x20 MUL ADD MLOAD PUSH1 0x3 PUSH1 0x4 DUP2 LT PUSH2 0x1C15 JUMPI PUSH2 0x1C14 PUSH2 0x4426 JUMP JUMPDEST JUMPDEST PUSH1 0x20 MUL ADD SWAP1 PUSH1 0xFF AND SWAP1 DUP2 PUSH1 0xFF AND DUP2 MSTORE POP POP DUP3 PUSH1 0xC PUSH1 0x10 DUP2 LT PUSH2 0x1C3A JUMPI PUSH2 0x1C39 PUSH2 0x4426 JUMP JUMPDEST JUMPDEST PUSH1 0x20 MUL ADD MLOAD DUP2 PUSH1 0x3 PUSH1 0x2C DUP2 LT PUSH2 0x1C53 JUMPI PUSH2 0x1C52 PUSH2 0x4426 JUMP JUMPDEST JUMPDEST PUSH1 0x20 MUL ADD MLOAD PUSH0 PUSH1 0x4 DUP2 LT PUSH2 0x1C6A JUMPI PUSH2 0x1C69 PUSH2 0x4426 JUMP JUMPDEST JUMPDEST PUSH1 0x20 MUL ADD SWAP1 PUSH1 0xFF AND SWAP1 DUP2 PUSH1 0xFF AND DUP2 MSTORE POP POP DUP3 PUSH1 0xD PUSH1 0x10 DUP2 LT PUSH2 0x1C8F JUMPI PUSH2 0x1C8E PUSH2 0x4426 JUMP JUMPDEST JUMPDEST PUSH1 0x20 MUL ADD MLOAD DUP2 PUSH1 0x3 PUSH1 0x2C DUP2 LT PUSH2 0x1CA8 JUMPI PUSH2 0x1CA7 PUSH2 0x4426 JUMP JUMPDEST JUMPDEST PUSH1 0x20 MUL ADD MLOAD PUSH1 0x1 PUSH1 0x4 DUP2 LT PUSH2 0x1CC0 JUMPI PUSH2 0x1CBF PUSH2 0x4426 JUMP JUMPDEST JUMPDEST PUSH1 0x20 MUL ADD SWAP1 PUSH1 0xFF AND SWAP1 DUP2 PUSH1 0xFF AND DUP2 MSTORE POP POP DUP3 PUSH1 0xE PUSH1 0x10 DUP2 LT PUSH2 0x1CE5 JUMPI PUSH2 0x1CE4 PUSH2 0x4426 JUMP JUMPDEST JUMPDEST PUSH1 0x20 MUL ADD MLOAD DUP2 PUSH1 0x3 PUSH1 0x2C DUP2 LT PUSH2 0x1CFE JUMPI PUSH2 0x1CFD PUSH2 0x4426 JUMP JUMPDEST JUMPDEST PUSH1 0x20 MUL ADD MLOAD PUSH1 0x2 PUSH1 0x4 DUP2 LT PUSH2 0x1D16 JUMPI PUSH2 0x1D15 PUSH2 0x4426 JUMP JUMPDEST JUMPDEST PUSH1 0x20 MUL ADD SWAP1 PUSH1 0xFF AND SWAP1 DUP2 PUSH1 0xFF AND DUP2 MSTORE POP POP DUP3 PUSH1 0xF PUSH1 0x10 DUP2 LT PUSH2 0x1D3B JUMPI PUSH2 0x1D3A PUSH2 0x4426 JUMP JUMPDEST JUMPDEST PUSH1 0x20 MUL ADD MLOAD DUP2 PUSH1 0x3 PUSH1 0x2C DUP2 LT PUSH2 0x1D54 JUMPI PUSH2 0x1D53 PUSH2 0x4426 JUMP JUMPDEST JUMPDEST PUSH1 0x20 MUL ADD MLOAD PUSH1 0x3 PUSH1 0x4 DUP2 LT PUSH2 0x1D6C JUMPI PUSH2 0x1D6B PUSH2 0x4426 JUMP JUMPDEST JUMPDEST PUSH1 0x20 MUL ADD SWAP1 PUSH1 0xFF AND SWAP1 DUP2 PUSH1 0xFF AND DUP2 MSTORE POP POP PUSH0 PUSH1 0x4 SWAP1 POP JUMPDEST PUSH1 0x2C DUP2 LT ISZERO PUSH2 0x2000 JUMPI PUSH0 DUP3 PUSH1 0x1 DUP4 PUSH2 0x1D9B SWAP2 SWAP1 PUSH2 0x423A JUMP JUMPDEST PUSH1 0x2C DUP2 LT PUSH2 0x1DAC JUMPI PUSH2 0x1DAB PUSH2 0x4426 JUMP JUMPDEST JUMPDEST PUSH1 0x20 MUL ADD MLOAD SWAP1 POP PUSH0 PUSH1 0x4 DUP4 PUSH2 0x1DC1 SWAP2 SWAP1 PUSH2 0x41DD JUMP JUMPDEST SUB PUSH2 0x1E4C JUMPI PUSH2 0x1DD7 PUSH2 0x1DD2 DUP3 PUSH2 0x3563 JUMP JUMPDEST PUSH2 0x369A JUMP JUMPDEST SWAP1 POP PUSH0 PUSH1 0x4 DUP4 PUSH2 0x1DE7 SWAP2 SWAP1 PUSH2 0x42F5 JUMP JUMPDEST PUSH1 0xB DUP2 LT PUSH2 0x1DF8 JUMPI PUSH2 0x1DF7 PUSH2 0x4426 JUMP JUMPDEST JUMPDEST PUSH1 0x20 SWAP2 DUP3 DUP3 DIV ADD SWAP2 SWAP1 MOD SWAP1 SLOAD SWAP1 PUSH2 0x100 EXP SWAP1 DIV PUSH1 0xFF AND DUP2 PUSH0 PUSH1 0x4 DUP2 LT PUSH2 0x1E21 JUMPI PUSH2 0x1E20 PUSH2 0x4426 JUMP JUMPDEST JUMPDEST PUSH1 0x20 MUL ADD MLOAD XOR DUP2 PUSH0 PUSH1 0x4 DUP2 LT PUSH2 0x1E3A JUMPI PUSH2 0x1E39 PUSH2 0x4426 JUMP JUMPDEST JUMPDEST PUSH1 0x20 MUL ADD SWAP1 PUSH1 0xFF AND SWAP1 DUP2 PUSH1 0xFF AND DUP2 MSTORE POP POP JUMPDEST PUSH1 0x40 MLOAD DUP1 PUSH1 0x80 ADD PUSH1 0x40 MSTORE DUP1 DUP5 PUSH1 0x4 DUP6 PUSH2 0x1E65 SWAP2 SWAP1 PUSH2 0x423A JUMP JUMPDEST PUSH1 0x2C DUP2 LT PUSH2 0x1E76 JUMPI PUSH2 0x1E75 PUSH2 0x4426 JUMP JUMPDEST JUMPDEST PUSH1 0x20 MUL ADD MLOAD PUSH0 PUSH1 0x4 DUP2 LT PUSH2 0x1E8D JUMPI PUSH2 0x1E8C PUSH2 0x4426 JUMP JUMPDEST JUMPDEST PUSH1 0x20 MUL ADD MLOAD DUP4 PUSH0 PUSH1 0x4 DUP2 LT PUSH2 0x1EA5 JUMPI PUSH2 0x1EA4 PUSH2 0x4426 JUMP JUMPDEST JUMPDEST PUSH1 0x20 MUL ADD MLOAD XOR PUSH1 0xFF AND PUSH1 0xFF AND DUP2 MSTORE PUSH1 0x20 ADD DUP5 PUSH1 0x4 DUP6 PUSH2 0x1EC4 SWAP2 SWAP1 PUSH2 0x423A JUMP JUMPDEST PUSH1 0x2C DUP2 LT PUSH2 0x1ED5 JUMPI PUSH2 0x1ED4 PUSH2 0x4426 JUMP JUMPDEST JUMPDEST PUSH1 0x20 MUL ADD MLOAD PUSH1 0x1 PUSH1 0x4 DUP2 LT PUSH2 0x1EED JUMPI PUSH2 0x1EEC PUSH2 0x4426 JUMP JUMPDEST JUMPDEST PUSH1 0x20 MUL ADD MLOAD DUP4 PUSH1 0x1 PUSH1 0x4 DUP2 LT PUSH2 0x1F06 JUMPI PUSH2 0x1F05 PUSH2 0x4426 JUMP JUMPDEST JUMPDEST PUSH1 0x20 MUL ADD MLOAD XOR PUSH1 0xFF AND PUSH1 0xFF AND DUP2 MSTORE PUSH1 0x20 ADD DUP5 PUSH1 0x4 DUP6 PUSH2 0x1F25 SWAP2 SWAP1 PUSH2 0x423A JUMP JUMPDEST PUSH1 0x2C DUP2 LT PUSH2 0x1F36 JUMPI PUSH2 0x1F35 PUSH2 0x4426 JUMP JUMPDEST JUMPDEST PUSH1 0x20 MUL ADD MLOAD PUSH1 0x2 PUSH1 0x4 DUP2 LT PUSH2 0x1F4E JUMPI PUSH2 0x1F4D PUSH2 0x4426 JUMP JUMPDEST JUMPDEST PUSH1 0x20 MUL ADD MLOAD DUP4 PUSH1 0x2 PUSH1 0x4 DUP2 LT PUSH2 0x1F67 JUMPI PUSH2 0x1F66 PUSH2 0x4426 JUMP JUMPDEST JUMPDEST PUSH1 0x20 MUL ADD MLOAD XOR PUSH1 0xFF AND PUSH1 0xFF AND DUP2 MSTORE PUSH1 0x20 ADD DUP5 PUSH1 0x4 DUP6 PUSH2 0x1F86 SWAP2 SWAP1 PUSH2 0x423A JUMP JUMPDEST PUSH1 0x2C DUP2 LT PUSH2 0x1F97 JUMPI PUSH2 0x1F96 PUSH2 0x4426 JUMP JUMPDEST JUMPDEST PUSH1 0x20 MUL ADD MLOAD PUSH1 0x3 PUSH1 0x4 DUP2 LT PUSH2 0x1FAF JUMPI PUSH2 0x1FAE PUSH2 0x4426 JUMP JUMPDEST JUMPDEST PUSH1 0x20 MUL ADD MLOAD DUP4 PUSH1 0x3 PUSH1 0x4 DUP2 LT PUSH2 0x1FC8 JUMPI PUSH2 0x1FC7 PUSH2 0x4426 JUMP JUMPDEST JUMPDEST PUSH1 0x20 MUL ADD MLOAD XOR PUSH1 0xFF AND PUSH1 0xFF AND DUP2 MSTORE POP DUP4 DUP4 PUSH1 0x2C DUP2 LT PUSH2 0x1FEA JUMPI PUSH2 0x1FE9 PUSH2 0x4426 JUMP JUMPDEST JUMPDEST PUSH1 0x20 MUL ADD DUP2 SWAP1 MSTORE POP POP DUP1 DUP1 PUSH1 0x1 ADD SWAP2 POP POP PUSH2 0x1D83 JUMP JUMPDEST POP DUP1 SWAP2 POP POP SWAP2 SWAP1 POP JUMP JUMPDEST PUSH2 0x2012 PUSH2 0x39AE JUMP JUMPDEST PUSH0 JUMPDEST PUSH1 0x4 DUP2 LT ISZERO PUSH2 0x20DD JUMPI PUSH0 JUMPDEST PUSH1 0x4 DUP2 LT ISZERO PUSH2 0x20CF JUMPI DUP4 DUP2 PUSH1 0x4 DUP2 LT PUSH2 0x203B JUMPI PUSH2 0x203A PUSH2 0x4426 JUMP JUMPDEST JUMPDEST PUSH1 0x20 MUL ADD MLOAD DUP3 PUSH1 0x4 DUP2 LT PUSH2 0x2052 JUMPI PUSH2 0x2051 PUSH2 0x4426 JUMP JUMPDEST JUMPDEST PUSH1 0x20 MUL ADD MLOAD DUP6 DUP4 PUSH1 0x4 DUP2 LT PUSH2 0x206A JUMPI PUSH2 0x2069 PUSH2 0x4426 JUMP JUMPDEST JUMPDEST PUSH1 0x20 MUL ADD MLOAD DUP3 PUSH1 0x4 DUP2 LT PUSH2 0x2081 JUMPI PUSH2 0x2080 PUSH2 0x4426 JUMP JUMPDEST JUMPDEST PUSH1 0x20 MUL ADD MLOAD XOR DUP6 DUP4 PUSH1 0x4 DUP2 LT PUSH2 0x209A JUMPI PUSH2 0x2099 PUSH2 0x4426 JUMP JUMPDEST JUMPDEST PUSH1 0x20 MUL ADD MLOAD DUP3 PUSH1 0x4 DUP2 LT PUSH2 0x20B1 JUMPI PUSH2 0x20B0 PUSH2 0x4426 JUMP JUMPDEST JUMPDEST PUSH1 0x20 MUL ADD SWAP1 PUSH1 0xFF AND SWAP1 DUP2 PUSH1 0xFF AND DUP2 MSTORE POP POP DUP1 DUP1 PUSH1 0x1 ADD SWAP2 POP POP PUSH2 0x201F JUMP JUMPDEST POP DUP1 DUP1 PUSH1 0x1 ADD SWAP2 POP POP PUSH2 0x2014 JUMP JUMPDEST POP DUP3 SWAP1 POP SWAP3 SWAP2 POP POP JUMP JUMPDEST PUSH2 0x20EF PUSH2 0x39AE JUMP JUMPDEST PUSH0 DUP3 PUSH0 PUSH1 0x4 DUP2 LT PUSH2 0x2103 JUMPI PUSH2 0x2102 PUSH2 0x4426 JUMP JUMPDEST JUMPDEST PUSH1 0x20 MUL ADD MLOAD SWAP1 POP PUSH0 PUSH1 0x40 MLOAD DUP1 PUSH1 0x80 ADD PUSH1 0x40 MSTORE DUP1 DUP6 PUSH1 0x1 PUSH1 0x4 DUP2 LT PUSH2 0x212A JUMPI PUSH2 0x2129 PUSH2 0x4426 JUMP JUMPDEST JUMPDEST PUSH1 0x20 MUL ADD MLOAD PUSH1 0x3 PUSH1 0x4 DUP2 LT PUSH2 0x2142 JUMPI PUSH2 0x2141 PUSH2 0x4426 JUMP JUMPDEST JUMPDEST PUSH1 0x20 MUL ADD MLOAD PUSH1 0xFF AND PUSH1 0xFF AND DUP2 MSTORE PUSH1 0x20 ADD DUP6 PUSH1 0x1 PUSH1 0x4 DUP2 LT PUSH2 0x2166 JUMPI PUSH2 0x2165 PUSH2 0x4426 JUMP JUMPDEST JUMPDEST PUSH1 0x20 MUL ADD MLOAD PUSH0 PUSH1 0x4 DUP2 LT PUSH2 0x217D JUMPI PUSH2 0x217C PUSH2 0x4426 JUMP JUMPDEST JUMPDEST PUSH1 0x20 MUL ADD MLOAD PUSH1 0xFF AND PUSH1 0xFF AND DUP2 MSTORE PUSH1 0x20 ADD DUP6 PUSH1 0x1 PUSH1 0x4 DUP2 LT PUSH2 0x21A1 JUMPI PUSH2 0x21A0 PUSH2 0x4426 JUMP JUMPDEST JUMPDEST PUSH1 0x20 MUL ADD MLOAD PUSH1 0x1 PUSH1 0x4 DUP2 LT PUSH2 0x21B9 JUMPI PUSH2 0x21B8 PUSH2 0x4426 JUMP JUMPDEST JUMPDEST PUSH1 0x20 MUL ADD MLOAD PUSH1 0xFF AND PUSH1 0xFF AND DUP2 MSTORE PUSH1 0x20 ADD DUP6 PUSH1 0x1 PUSH1 0x4 DUP2 LT PUSH2 0x21DD JUMPI PUSH2 0x21DC PUSH2 0x4426 JUMP JUMPDEST JUMPDEST PUSH1 0x20 MUL ADD MLOAD PUSH1 0x2 PUSH1 0x4 DUP2 LT PUSH2 0x21F5 JUMPI PUSH2 0x21F4 PUSH2 0x4426 JUMP JUMPDEST JUMPDEST PUSH1 0x20 MUL ADD MLOAD PUSH1 0xFF AND PUSH1 0xFF AND DUP2 MSTORE POP SWAP1 POP PUSH0 PUSH1 0x40 MLOAD DUP1 PUSH1 0x80 ADD PUSH1 0x40 MSTORE DUP1 DUP7 PUSH1 0x2 PUSH1 0x4 DUP2 LT PUSH2 0x2225 JUMPI PUSH2 0x2224 PUSH2 0x4426 JUMP JUMPDEST JUMPDEST PUSH1 0x20 MUL ADD MLOAD PUSH1 0x2 PUSH1 0x4 DUP2 LT PUSH2 0x223D JUMPI PUSH2 0x223C PUSH2 0x4426 JUMP JUMPDEST JUMPDEST PUSH1 0x20 MUL ADD MLOAD PUSH1 0xFF AND PUSH1 0xFF AND DUP2 MSTORE PUSH1 0x20 ADD DUP7 PUSH1 0x2 PUSH1 0x4 DUP2 LT PUSH2 0x2261 JUMPI PUSH2 0x2260 PUSH2 0x4426 JUMP JUMPDEST JUMPDEST PUSH1 0x20 MUL ADD MLOAD PUSH1 0x3 PUSH1 0x4 DUP2 LT PUSH2 0x2279 JUMPI PUSH2 0x2278 PUSH2 0x4426 JUMP JUMPDEST JUMPDEST PUSH1 0x20 MUL ADD MLOAD PUSH1 0xFF AND PUSH1 0xFF AND DUP2 MSTORE PUSH1 0x20 ADD DUP7 PUSH1 0x2 PUSH1 0x4 DUP2 LT PUSH2 0x229D JUMPI PUSH2 0x229C PUSH2 0x4426 JUMP JUMPDEST JUMPDEST PUSH1 0x20 MUL ADD MLOAD PUSH0 PUSH1 0x4 DUP2 LT PUSH2 0x22B4 JUMPI PUSH2 0x22B3 PUSH2 0x4426 JUMP JUMPDEST JUMPDEST PUSH1 0x20 MUL ADD MLOAD PUSH1 0xFF AND PUSH1 0xFF AND DUP2 MSTORE PUSH1 0x20 ADD DUP7 PUSH1 0x2 PUSH1 0x4 DUP2 LT PUSH2 0x22D8 JUMPI PUSH2 0x22D7 PUSH2 0x4426 JUMP JUMPDEST JUMPDEST PUSH1 0x20 MUL ADD MLOAD PUSH1 0x1 PUSH1 0x4 DUP2 LT PUSH2 0x22F0 JUMPI PUSH2 0x22EF PUSH2 0x4426 JUMP JUMPDEST JUMPDEST PUSH1 0x20 MUL ADD MLOAD PUSH1 0xFF AND PUSH1 0xFF AND DUP2 MSTORE POP SWAP1 POP PUSH0 PUSH1 0x40 MLOAD DUP1 PUSH1 0x80 ADD PUSH1 0x40 MSTORE DUP1 DUP8 PUSH1 0x3 PUSH1 0x4 DUP2 LT PUSH2 0x2320 JUMPI PUSH2 0x231F PUSH2 0x4426 JUMP JUMPDEST JUMPDEST PUSH1 0x20 MUL ADD MLOAD PUSH1 0x1 PUSH1 0x4 DUP2 LT PUSH2 0x2338 JUMPI PUSH2 0x2337 PUSH2 0x4426 JUMP JUMPDEST JUMPDEST PUSH1 0x20 MUL ADD MLOAD PUSH1 0xFF AND PUSH1 0xFF AND DUP2 MSTORE PUSH1 0x20 ADD DUP8 PUSH1 0x3 PUSH1 0x4 DUP2 LT PUSH2 0x235C JUMPI PUSH2 0x235B PUSH2 0x4426 JUMP JUMPDEST JUMPDEST PUSH1 0x20 MUL ADD MLOAD PUSH1 0x2 PUSH1 0x4 DUP2 LT PUSH2 0x2374 JUMPI PUSH2 0x2373 PUSH2 0x4426 JUMP JUMPDEST JUMPDEST PUSH1 0x20 MUL ADD MLOAD PUSH1 0xFF AND PUSH1 0xFF AND DUP2 MSTORE PUSH1 0x20 ADD DUP8 PUSH1 0x3 PUSH1 0x4 DUP2 LT PUSH2 0x2398 JUMPI PUSH2 0x2397 PUSH2 0x4426 JUMP JUMPDEST JUMPDEST PUSH1 0x20 MUL ADD MLOAD PUSH1 0x3 PUSH1 0x4 DUP2 LT PUSH2 0x23B0 JUMPI PUSH2 0x23AF PUSH2 0x4426 JUMP JUMPDEST JUMPDEST PUSH1 0x20 MUL ADD MLOAD PUSH1 0xFF AND PUSH1 0xFF AND DUP2 MSTORE PUSH1 0x20 ADD DUP8 PUSH1 0x3 PUSH1 0x4 DUP2 LT PUSH2 0x23D4 JUMPI PUSH2 0x23D3 PUSH2 0x4426 JUMP JUMPDEST JUMPDEST PUSH1 0x20 MUL ADD MLOAD PUSH0 PUSH1 0x4 DUP2 LT PUSH2 0x23EB JUMPI PUSH2 0x23EA PUSH2 0x4426 JUMP JUMPDEST JUMPDEST PUSH1 0x20 MUL ADD MLOAD PUSH1 0xFF AND PUSH1 0xFF AND DUP2 MSTORE POP SWAP1 POP PUSH1 0x40 MLOAD DUP1 PUSH1 0x80 ADD PUSH1 0x40 MSTORE DUP1 DUP6 DUP2 MSTORE PUSH1 0x20 ADD DUP5 DUP2 MSTORE PUSH1 0x20 ADD DUP4 DUP2 MSTORE PUSH1 0x20 ADD DUP3 DUP2 MSTORE POP SWAP5 POP POP POP POP POP SWAP2 SWAP1 POP JUMP JUMPDEST PUSH2 0x242F PUSH2 0x39AE JUMP JUMPDEST PUSH0 JUMPDEST PUSH1 0x4 DUP2 LT ISZERO PUSH2 0x24F7 JUMPI PUSH0 JUMPDEST PUSH1 0x4 DUP2 LT ISZERO PUSH2 0x24E9 JUMPI PUSH1 0x9 DUP5 DUP4 PUSH1 0x4 DUP2 LT PUSH2 0x245A JUMPI PUSH2 0x2459 PUSH2 0x4426 JUMP JUMPDEST JUMPDEST PUSH1 0x20 MUL ADD MLOAD DUP3 PUSH1 0x4 DUP2 LT PUSH2 0x2471 JUMPI PUSH2 0x2470 PUSH2 0x4426 JUMP JUMPDEST JUMPDEST PUSH1 0x20 MUL ADD MLOAD PUSH1 0xFF AND PUSH2 0x100 DUP2 LT PUSH2 0x248B JUMPI PUSH2 0x248A PUSH2 0x4426 JUMP JUMPDEST JUMPDEST PUSH1 0x20 SWAP2 DUP3 DUP3 DIV ADD SWAP2 SWAP1 MOD SWAP1 SLOAD SWAP1 PUSH2 0x100 EXP SWAP1 DIV PUSH1 0xFF AND DUP5 DUP4 PUSH1 0x4 DUP2 LT PUSH2 0x24B4 JUMPI PUSH2 0x24B3 PUSH2 0x4426 JUMP JUMPDEST JUMPDEST PUSH1 0x20 MUL ADD MLOAD DUP3 PUSH1 0x4 DUP2 LT PUSH2 0x24CB JUMPI PUSH2 0x24CA PUSH2 0x4426 JUMP JUMPDEST JUMPDEST PUSH1 0x20 MUL ADD SWAP1 PUSH1 0xFF AND SWAP1 DUP2 PUSH1 0xFF AND DUP2 MSTORE POP POP DUP1 DUP1 PUSH1 0x1 ADD SWAP2 POP POP PUSH2 0x243C JUMP JUMPDEST POP DUP1 DUP1 PUSH1 0x1 ADD SWAP2 POP POP PUSH2 0x2431 JUMP JUMPDEST POP DUP2 SWAP1 POP SWAP2 SWAP1 POP JUMP JUMPDEST PUSH2 0x2508 PUSH2 0x39AE JUMP JUMPDEST PUSH0 PUSH1 0x40 MLOAD DUP1 PUSH1 0x80 ADD PUSH1 0x40 MSTORE DUP1 PUSH1 0x40 MLOAD DUP1 PUSH1 0x80 ADD PUSH1 0x40 MSTORE DUP1 PUSH0 PUSH1 0xFF AND DUP2 MSTORE PUSH1 0x20 ADD PUSH0 PUSH1 0xFF AND DUP2 MSTORE PUSH1 0x20 ADD PUSH0 PUSH1 0xFF AND DUP2 MSTORE PUSH1 0x20 ADD PUSH0 PUSH1 0xFF AND DUP2 MSTORE POP DUP2 MSTORE PUSH1 0x20 ADD PUSH1 0x40 MLOAD DUP1 PUSH1 0x80 ADD PUSH1 0x40 MSTORE DUP1 PUSH0 PUSH1 0xFF AND DUP2 MSTORE PUSH1 0x20 ADD PUSH0 PUSH1 0xFF AND DUP2 MSTORE PUSH1 0x20 ADD PUSH0 PUSH1 0xFF AND DUP2 MSTORE PUSH1 0x20 ADD PUSH0 PUSH1 0xFF AND DUP2 MSTORE POP DUP2 MSTORE PUSH1 0x20 ADD PUSH1 0x40 MLOAD DUP1 PUSH1 0x80 ADD PUSH1 0x40 MSTORE DUP1 PUSH0 PUSH1 0xFF AND DUP2 MSTORE PUSH1 0x20 ADD PUSH0 PUSH1 0xFF AND DUP2 MSTORE PUSH1 0x20 ADD PUSH0 PUSH1 0xFF AND DUP2 MSTORE PUSH1 0x20 ADD PUSH0 PUSH1 0xFF AND DUP2 MSTORE POP DUP2 MSTORE PUSH1 0x20 ADD PUSH1 0x40 MLOAD DUP1 PUSH1 0x80 ADD PUSH1 0x40 MSTORE DUP1 PUSH0 PUSH1 0xFF AND DUP2 MSTORE PUSH1 0x20 ADD PUSH0 PUSH1 0xFF AND DUP2 MSTORE PUSH1 0x20 ADD PUSH0 PUSH1 0xFF AND DUP2 MSTORE PUSH1 0x20 ADD PUSH0 PUSH1 0xFF AND DUP2 MSTORE POP DUP2 MSTORE POP SWAP1 POP PUSH0 JUMPDEST PUSH1 0x4 DUP2 LT ISZERO PUSH2 0x2B0E JUMPI PUSH0 JUMPDEST PUSH1 0x4 DUP2 LT ISZERO PUSH2 0x2669 JUMPI DUP5 DUP2 PUSH1 0x4 DUP2 LT PUSH2 0x2605 JUMPI PUSH2 0x2604 PUSH2 0x4426 JUMP JUMPDEST JUMPDEST PUSH1 0x20 MUL ADD MLOAD DUP3 PUSH1 0x4 DUP2 LT PUSH2 0x261C JUMPI PUSH2 0x261B PUSH2 0x4426 JUMP JUMPDEST JUMPDEST PUSH1 0x20 MUL ADD MLOAD DUP4 DUP3 PUSH1 0x4 DUP2 LT PUSH2 0x2634 JUMPI PUSH2 0x2633 PUSH2 0x4426 JUMP JUMPDEST JUMPDEST PUSH1 0x20 MUL ADD MLOAD DUP4 PUSH1 0x4 DUP2 LT PUSH2 0x264B JUMPI PUSH2 0x264A PUSH2 0x4426 JUMP JUMPDEST JUMPDEST PUSH1 0x20 MUL ADD SWAP1 PUSH1 0xFF AND SWAP1 DUP2 PUSH1 0xFF AND DUP2 MSTORE POP POP DUP1 DUP1 PUSH1 0x1 ADD SWAP2 POP POP PUSH2 0x25E9 JUMP JUMPDEST POP PUSH2 0x26A4 DUP3 PUSH1 0x1 PUSH1 0x4 DUP2 LT PUSH2 0x2681 JUMPI PUSH2 0x2680 PUSH2 0x4426 JUMP JUMPDEST JUMPDEST PUSH1 0x20 MUL ADD MLOAD DUP3 PUSH1 0x4 DUP2 LT PUSH2 0x2698 JUMPI PUSH2 0x2697 PUSH2 0x4426 JUMP JUMPDEST JUMPDEST PUSH1 0x20 MUL ADD MLOAD PUSH1 0xB PUSH2 0x3854 JUMP JUMPDEST PUSH2 0x26DE DUP4 PUSH1 0x2 PUSH1 0x4 DUP2 LT PUSH2 0x26BB JUMPI PUSH2 0x26BA PUSH2 0x4426 JUMP JUMPDEST JUMPDEST PUSH1 0x20 MUL ADD MLOAD DUP4 PUSH1 0x4 DUP2 LT PUSH2 0x26D2 JUMPI PUSH2 0x26D1 PUSH2 0x4426 JUMP JUMPDEST JUMPDEST PUSH1 0x20 MUL ADD MLOAD PUSH1 0xD PUSH2 0x3854 JUMP JUMPDEST PUSH2 0x2718 DUP5 PUSH1 0x3 PUSH1 0x4 DUP2 LT PUSH2 0x26F5 JUMPI PUSH2 0x26F4 PUSH2 0x4426 JUMP JUMPDEST JUMPDEST PUSH1 0x20 MUL ADD MLOAD DUP5 PUSH1 0x4 DUP2 LT PUSH2 0x270C JUMPI PUSH2 0x270B PUSH2 0x4426 JUMP JUMPDEST JUMPDEST PUSH1 0x20 MUL ADD MLOAD PUSH1 0x9 PUSH2 0x3854 JUMP JUMPDEST PUSH2 0x2751 DUP6 PUSH0 PUSH1 0x4 DUP2 LT PUSH2 0x272E JUMPI PUSH2 0x272D PUSH2 0x4426 JUMP JUMPDEST JUMPDEST PUSH1 0x20 MUL ADD MLOAD DUP6 PUSH1 0x4 DUP2 LT PUSH2 0x2745 JUMPI PUSH2 0x2744 PUSH2 0x4426 JUMP JUMPDEST JUMPDEST PUSH1 0x20 MUL ADD MLOAD PUSH1 0xE PUSH2 0x3854 JUMP JUMPDEST XOR XOR XOR DUP5 PUSH0 PUSH1 0x4 DUP2 LT PUSH2 0x2767 JUMPI PUSH2 0x2766 PUSH2 0x4426 JUMP JUMPDEST JUMPDEST PUSH1 0x20 MUL ADD MLOAD DUP3 PUSH1 0x4 DUP2 LT PUSH2 0x277E JUMPI PUSH2 0x277D PUSH2 0x4426 JUMP JUMPDEST JUMPDEST PUSH1 0x20 MUL ADD SWAP1 PUSH1 0xFF AND SWAP1 DUP2 PUSH1 0xFF AND DUP2 MSTORE POP POP PUSH2 0x27C9 DUP3 PUSH1 0x2 PUSH1 0x4 DUP2 LT PUSH2 0x27A6 JUMPI PUSH2 0x27A5 PUSH2 0x4426 JUMP JUMPDEST JUMPDEST PUSH1 0x20 MUL ADD MLOAD DUP3 PUSH1 0x4 DUP2 LT PUSH2 0x27BD JUMPI PUSH2 0x27BC PUSH2 0x4426 JUMP JUMPDEST JUMPDEST PUSH1 0x20 MUL ADD MLOAD PUSH1 0xB PUSH2 0x3854 JUMP JUMPDEST PUSH2 0x2803 DUP4 PUSH1 0x3 PUSH1 0x4 DUP2 LT PUSH2 0x27E0 JUMPI PUSH2 0x27DF PUSH2 0x4426 JUMP JUMPDEST JUMPDEST PUSH1 0x20 MUL ADD MLOAD DUP4 PUSH1 0x4 DUP2 LT PUSH2 0x27F7 JUMPI PUSH2 0x27F6 PUSH2 0x4426 JUMP JUMPDEST JUMPDEST PUSH1 0x20 MUL ADD MLOAD PUSH1 0xD PUSH2 0x3854 JUMP JUMPDEST PUSH2 0x283C DUP5 PUSH0 PUSH1 0x4 DUP2 LT PUSH2 0x2819 JUMPI PUSH2 0x2818 PUSH2 0x4426 JUMP JUMPDEST JUMPDEST PUSH1 0x20 MUL ADD MLOAD DUP5 PUSH1 0x4 DUP2 LT PUSH2 0x2830 JUMPI PUSH2 0x282F PUSH2 0x4426 JUMP JUMPDEST JUMPDEST PUSH1 0x20 MUL ADD MLOAD PUSH1 0x9 PUSH2 0x3854 JUMP JUMPDEST PUSH2 0x2876 DUP6 PUSH1 0x1 PUSH1 0x4 DUP2 LT PUSH2 0x2853 JUMPI PUSH2 0x2852 PUSH2 0x4426 JUMP JUMPDEST JUMPDEST PUSH1 0x20 MUL ADD MLOAD DUP6 PUSH1 0x4 DUP2 LT PUSH2 0x286A JUMPI PUSH2 0x2869 PUSH2 0x4426 JUMP JUMPDEST JUMPDEST PUSH1 0x20 MUL ADD MLOAD PUSH1 0xE PUSH2 0x3854 JUMP JUMPDEST XOR XOR XOR DUP5 PUSH1 0x1 PUSH1 0x4 DUP2 LT PUSH2 0x288D JUMPI PUSH2 0x288C PUSH2 0x4426 JUMP JUMPDEST JUMPDEST PUSH1 0x20 MUL ADD MLOAD DUP3 PUSH1 0x4 DUP2 LT PUSH2 0x28A4 JUMPI PUSH2 0x28A3 PUSH2 0x4426 JUMP JUMPDEST JUMPDEST PUSH1 0x20 MUL ADD SWAP1 PUSH1 0xFF AND SWAP1 DUP2 PUSH1 0xFF AND DUP2 MSTORE POP POP PUSH2 0x28EF DUP3 PUSH1 0x3 PUSH1 0x4 DUP2 LT PUSH2 0x28CC JUMPI PUSH2 0x28CB PUSH2 0x4426 JUMP JUMPDEST JUMPDEST PUSH1 0x20 MUL ADD MLOAD DUP3 PUSH1 0x4 DUP2 LT PUSH2 0x28E3 JUMPI PUSH2 0x28E2 PUSH2 0x4426 JUMP JUMPDEST JUMPDEST PUSH1 0x20 MUL ADD MLOAD PUSH1 0xB PUSH2 0x3854 JUMP JUMPDEST PUSH2 0x2928 DUP4 PUSH0 PUSH1 0x4 DUP2 LT PUSH2 0x2905 JUMPI PUSH2 0x2904 PUSH2 0x4426 JUMP JUMPDEST JUMPDEST PUSH1 0x20 MUL ADD MLOAD DUP4 PUSH1 0x4 DUP2 LT PUSH2 0x291C JUMPI PUSH2 0x291B PUSH2 0x4426 JUMP JUMPDEST JUMPDEST PUSH1 0x20 MUL ADD MLOAD PUSH1 0xD PUSH2 0x3854 JUMP JUMPDEST PUSH2 0x2962 DUP5 PUSH1 0x1 PUSH1 0x4 DUP2 LT PUSH2 0x293F JUMPI PUSH2 0x293E PUSH2 0x4426 JUMP JUMPDEST JUMPDEST PUSH1 0x20 MUL ADD MLOAD DUP5 PUSH1 0x4 DUP2 LT PUSH2 0x2956 JUMPI PUSH2 0x2955 PUSH2 0x4426 JUMP JUMPDEST JUMPDEST PUSH1 0x20 MUL ADD MLOAD PUSH1 0x9 PUSH2 0x3854 JUMP JUMPDEST PUSH2 0x299C DUP6 PUSH1 0x2 PUSH1 0x4 DUP2 LT PUSH2 0x2979 JUMPI PUSH2 0x2978 PUSH2 0x4426 JUMP JUMPDEST JUMPDEST PUSH1 0x20 MUL ADD MLOAD DUP6 PUSH1 0x4 DUP2 LT PUSH2 0x2990 JUMPI PUSH2 0x298F PUSH2 0x4426 JUMP JUMPDEST JUMPDEST PUSH1 0x20 MUL ADD MLOAD PUSH1 0xE PUSH2 0x3854 JUMP JUMPDEST XOR XOR XOR DUP5 PUSH1 0x2 PUSH1 0x4 DUP2 LT PUSH2 0x29B3 JUMPI PUSH2 0x29B2 PUSH2 0x4426 JUMP JUMPDEST JUMPDEST PUSH1 0x20 MUL ADD MLOAD DUP3 PUSH1 0x4 DUP2 LT PUSH2 0x29CA JUMPI PUSH2 0x29C9 PUSH2 0x4426 JUMP JUMPDEST JUMPDEST PUSH1 0x20 MUL ADD SWAP1 PUSH1 0xFF AND SWAP1 DUP2 PUSH1 0xFF AND DUP2 MSTORE POP POP PUSH2 0x2A14 DUP3 PUSH0 PUSH1 0x4 DUP2 LT PUSH2 0x29F1 JUMPI PUSH2 0x29F0 PUSH2 0x4426 JUMP JUMPDEST JUMPDEST PUSH1 0x20 MUL ADD MLOAD DUP3 PUSH1 0x4 DUP2 LT PUSH2 0x2A08 JUMPI PUSH2 0x2A07 PUSH2 0x4426 JUMP JUMPDEST JUMPDEST PUSH1 0x20 MUL ADD MLOAD PUSH1 0xB PUSH2 0x3854 JUMP JUMPDEST PUSH2 0x2A4E DUP4 PUSH1 0x1 PUSH1 0x4 DUP2 LT PUSH2 0x2A2B JUMPI PUSH2 0x2A2A PUSH2 0x4426 JUMP JUMPDEST JUMPDEST PUSH1 0x20 MUL ADD MLOAD DUP4 PUSH1 0x4 DUP2 LT PUSH2 0x2A42 JUMPI PUSH2 0x2A41 PUSH2 0x4426 JUMP JUMPDEST JUMPDEST PUSH1 0x20 MUL ADD MLOAD PUSH1 0xD PUSH2 0x3854 JUMP JUMPDEST PUSH2 0x2A88 DUP5 PUSH1 0x2 PUSH1 0x4 DUP2 LT PUSH2 0x2A65 JUMPI PUSH2 0x2A64 PUSH2 0x4426 JUMP JUMPDEST JUMPDEST PUSH1 0x20 MUL ADD MLOAD DUP5 PUSH1 0x4 DUP2 LT PUSH2 0x2A7C JUMPI PUSH2 0x2A7B PUSH2 0x4426 JUMP JUMPDEST JUMPDEST PUSH1 0x20 MUL ADD MLOAD PUSH1 0x9 PUSH2 0x3854 JUMP JUMPDEST PUSH2 0x2AC2 DUP6 PUSH1 0x3 PUSH1 0x4 DUP2 LT PUSH2 0x2A9F JUMPI PUSH2 0x2A9E PUSH2 0x4426 JUMP JUMPDEST JUMPDEST PUSH1 0x20 MUL ADD MLOAD DUP6 PUSH1 0x4 DUP2 LT PUSH2 0x2AB6 JUMPI PUSH2 0x2AB5 PUSH2 0x4426 JUMP JUMPDEST JUMPDEST PUSH1 0x20 MUL ADD MLOAD PUSH1 0xE PUSH2 0x3854 JUMP JUMPDEST XOR XOR XOR DUP5 PUSH1 0x3 PUSH1 0x4 DUP2 LT PUSH2 0x2AD9 JUMPI PUSH2 0x2AD8 PUSH2 0x4426 JUMP JUMPDEST JUMPDEST PUSH1 0x20 MUL ADD MLOAD DUP3 PUSH1 0x4 DUP2 LT PUSH2 0x2AF0 JUMPI PUSH2 0x2AEF PUSH2 0x4426 JUMP JUMPDEST JUMPDEST PUSH1 0x20 MUL ADD SWAP1 PUSH1 0xFF AND SWAP1 DUP2 PUSH1 0xFF AND DUP2 MSTORE POP POP DUP1 DUP1 PUSH1 0x1 ADD SWAP2 POP POP PUSH2 0x25DE JUMP JUMPDEST POP DUP3 SWAP2 POP POP SWAP2 SWAP1 POP JUMP JUMPDEST PUSH2 0x2B20 PUSH2 0x39AE JUMP JUMPDEST PUSH0 JUMPDEST PUSH1 0x4 DUP2 LT ISZERO PUSH2 0x2BE8 JUMPI PUSH0 JUMPDEST PUSH1 0x4 DUP2 LT ISZERO PUSH2 0x2BDA JUMPI PUSH1 0x1 DUP5 DUP4 PUSH1 0x4 DUP2 LT PUSH2 0x2B4B JUMPI PUSH2 0x2B4A PUSH2 0x4426 JUMP JUMPDEST JUMPDEST PUSH1 0x20 MUL ADD MLOAD DUP3 PUSH1 0x4 DUP2 LT PUSH2 0x2B62 JUMPI PUSH2 0x2B61 PUSH2 0x4426 JUMP JUMPDEST JUMPDEST PUSH1 0x20 MUL ADD MLOAD PUSH1 0xFF AND PUSH2 0x100 DUP2 LT PUSH2 0x2B7C JUMPI PUSH2 0x2B7B PUSH2 0x4426 JUMP JUMPDEST JUMPDEST PUSH1 0x20 SWAP2 DUP3 DUP3 DIV ADD SWAP2 SWAP1 MOD SWAP1 SLOAD SWAP1 PUSH2 0x100 EXP SWAP1 DIV PUSH1 0xFF AND DUP5 DUP4 PUSH1 0x4 DUP2 LT PUSH2 0x2BA5 JUMPI PUSH2 0x2BA4 PUSH2 0x4426 JUMP JUMPDEST JUMPDEST PUSH1 0x20 MUL ADD MLOAD DUP3 PUSH1 0x4 DUP2 LT PUSH2 0x2BBC JUMPI PUSH2 0x2BBB PUSH2 0x4426 JUMP JUMPDEST JUMPDEST PUSH1 0x20 MUL ADD SWAP1 PUSH1 0xFF AND SWAP1 DUP2 PUSH1 0xFF AND DUP2 MSTORE POP POP DUP1 DUP1 PUSH1 0x1 ADD SWAP2 POP POP PUSH2 0x2B2D JUMP JUMPDEST POP DUP1 DUP1 PUSH1 0x1 ADD SWAP2 POP POP PUSH2 0x2B22 JUMP JUMPDEST POP DUP2 SWAP1 POP SWAP2 SWAP1 POP JUMP JUMPDEST PUSH2 0x2BF9 PUSH2 0x39AE JUMP JUMPDEST PUSH0 DUP3 PUSH0 PUSH1 0x4 DUP2 LT PUSH2 0x2C0D JUMPI PUSH2 0x2C0C PUSH2 0x4426 JUMP JUMPDEST JUMPDEST PUSH1 0x20 MUL ADD MLOAD SWAP1 POP PUSH0 PUSH1 0x40 MLOAD DUP1 PUSH1 0x80 ADD PUSH1 0x40 MSTORE DUP1 DUP6 PUSH1 0x1 PUSH1 0x4 DUP2 LT PUSH2 0x2C34 JUMPI PUSH2 0x2C33 PUSH2 0x4426 JUMP JUMPDEST JUMPDEST PUSH1 0x20 MUL ADD MLOAD PUSH1 0x1 PUSH1 0x4 DUP2 LT PUSH2 0x2C4C JUMPI PUSH2 0x2C4B PUSH2 0x4426 JUMP JUMPDEST JUMPDEST PUSH1 0x20 MUL ADD MLOAD PUSH1 0xFF AND PUSH1 0xFF AND DUP2 MSTORE PUSH1 0x20 ADD DUP6 PUSH1 0x1 PUSH1 0x4 DUP2 LT PUSH2 0x2C70 JUMPI PUSH2 0x2C6F PUSH2 0x4426 JUMP JUMPDEST JUMPDEST PUSH1 0x20 MUL ADD MLOAD PUSH1 0x2 PUSH1 0x4 DUP2 LT PUSH2 0x2C88 JUMPI PUSH2 0x2C87 PUSH2 0x4426 JUMP JUMPDEST JUMPDEST PUSH1 0x20 MUL ADD MLOAD PUSH1 0xFF AND PUSH1 0xFF AND DUP2 MSTORE PUSH1 0x20 ADD DUP6 PUSH1 0x1 PUSH1 0x4 DUP2 LT PUSH2 0x2CAC JUMPI PUSH2 0x2CAB PUSH2 0x4426 JUMP JUMPDEST JUMPDEST PUSH1 0x20 MUL ADD MLOAD PUSH1 0x3 PUSH1 0x4 DUP2 LT PUSH2 0x2CC4 JUMPI PUSH2 0x2CC3 PUSH2 0x4426 JUMP JUMPDEST JUMPDEST PUSH1 0x20 MUL ADD MLOAD PUSH1 0xFF AND PUSH1 0xFF AND DUP2 MSTORE PUSH1 0x20 ADD DUP6 PUSH1 0x1 PUSH1 0x4 DUP2 LT PUSH2 0x2CE8 JUMPI PUSH2 0x2CE7 PUSH2 0x4426 JUMP JUMPDEST JUMPDEST PUSH1 0x20 MUL ADD MLOAD PUSH0 PUSH1 0x4 DUP2 LT PUSH2 0x2CFF JUMPI PUSH2 0x2CFE PUSH2 0x4426 JUMP JUMPDEST JUMPDEST PUSH1 0x20 MUL ADD MLOAD PUSH1 0xFF AND PUSH1 0xFF AND DUP2 MSTORE POP SWAP1 POP PUSH0 PUSH1 0x40 MLOAD DUP1 PUSH1 0x80 ADD PUSH1 0x40 MSTORE DUP1 DUP7 PUSH1 0x2 PUSH1 0x4 DUP2 LT PUSH2 0x2D2F JUMPI PUSH2 0x2D2E PUSH2 0x4426 JUMP JUMPDEST JUMPDEST PUSH1 0x20 MUL ADD MLOAD PUSH1 0x2 PUSH1 0x4 DUP2 LT PUSH2 0x2D47 JUMPI PUSH2 0x2D46 PUSH2 0x4426 JUMP JUMPDEST JUMPDEST PUSH1 0x20 MUL ADD MLOAD PUSH1 0xFF AND PUSH1 0xFF AND DUP2 MSTORE PUSH1 0x20 ADD DUP7 PUSH1 0x2 PUSH1 0x4 DUP2 LT PUSH2 0x2D6B JUMPI PUSH2 0x2D6A PUSH2 0x4426 JUMP JUMPDEST JUMPDEST PUSH1 0x20 MUL ADD MLOAD PUSH1 0x3 PUSH1 0x4 DUP2 LT PUSH2 0x2D83 JUMPI PUSH2 0x2D82 PUSH2 0x4426 JUMP JUMPDEST JUMPDEST PUSH1 0x20 MUL ADD MLOAD PUSH1 0xFF AND PUSH1 0xFF AND DUP2 MSTORE PUSH1 0x20 ADD DUP7 PUSH1 0x2 PUSH1 0x4 DUP2 LT PUSH2 0x2DA7 JUMPI PUSH2 0x2DA6 PUSH2 0x4426 JUMP JUMPDEST JUMPDEST PUSH1 0x20 MUL ADD MLOAD PUSH0 PUSH1 0x4 DUP2 LT PUSH2 0x2DBE JUMPI PUSH2 0x2DBD PUSH2 0x4426 JUMP JUMPDEST JUMPDEST PUSH1 0x20 MUL ADD MLOAD PUSH1 0xFF AND PUSH1 0xFF AND DUP2 MSTORE PUSH1 0x20 ADD DUP7 PUSH1 0x2 PUSH1 0x4 DUP2 LT PUSH2 0x2DE2 JUMPI PUSH2 0x2DE1 PUSH2 0x4426 JUMP JUMPDEST JUMPDEST PUSH1 0x20 MUL ADD MLOAD PUSH1 0x1 PUSH1 0x4 DUP2 LT PUSH2 0x2DFA JUMPI PUSH2 0x2DF9 PUSH2 0x4426 JUMP JUMPDEST JUMPDEST PUSH1 0x20 MUL ADD MLOAD PUSH1 0xFF AND PUSH1 0xFF AND DUP2 MSTORE POP SWAP1 POP PUSH0 PUSH1 0x40 MLOAD DUP1 PUSH1 0x80 ADD PUSH1 0x40 MSTORE DUP1 DUP8 PUSH1 0x3 PUSH1 0x4 DUP2 LT PUSH2 0x2E2A JUMPI PUSH2 0x2E29 PUSH2 0x4426 JUMP JUMPDEST JUMPDEST PUSH1 0x20 MUL ADD MLOAD PUSH1 0x3 PUSH1 0x4 DUP2 LT PUSH2 0x2E42 JUMPI PUSH2 0x2E41 PUSH2 0x4426 JUMP JUMPDEST JUMPDEST PUSH1 0x20 MUL ADD MLOAD PUSH1 0xFF AND PUSH1 0xFF AND DUP2 MSTORE PUSH1 0x20 ADD DUP8 PUSH1 0x3 PUSH1 0x4 DUP2 LT PUSH2 0x2E66 JUMPI PUSH2 0x2E65 PUSH2 0x4426 JUMP JUMPDEST JUMPDEST PUSH1 0x20 MUL ADD MLOAD PUSH0 PUSH1 0x4 DUP2 LT PUSH2 0x2E7D JUMPI PUSH2 0x2E7C PUSH2 0x4426 JUMP JUMPDEST JUMPDEST PUSH1 0x20 MUL ADD MLOAD PUSH1 0xFF AND PUSH1 0xFF AND DUP2 MSTORE PUSH1 0x20 ADD DUP8 PUSH1 0x3 PUSH1 0x4 DUP2 LT PUSH2 0x2EA1 JUMPI PUSH2 0x2EA0 PUSH2 0x4426 JUMP JUMPDEST JUMPDEST PUSH1 0x20 MUL ADD MLOAD PUSH1 0x1 PUSH1 0x4 DUP2 LT PUSH2 0x2EB9 JUMPI PUSH2 0x2EB8 PUSH2 0x4426 JUMP JUMPDEST JUMPDEST PUSH1 0x20 MUL ADD MLOAD PUSH1 0xFF AND PUSH1 0xFF AND DUP2 MSTORE PUSH1 0x20 ADD DUP8 PUSH1 0x3 PUSH1 0x4 DUP2 LT PUSH2 0x2EDD JUMPI PUSH2 0x2EDC PUSH2 0x4426 JUMP JUMPDEST JUMPDEST PUSH1 0x20 MUL ADD MLOAD PUSH1 0x2 PUSH1 0x4 DUP2 LT PUSH2 0x2EF5 JUMPI PUSH2 0x2EF4 PUSH2 0x4426 JUMP JUMPDEST JUMPDEST PUSH1 0x20 MUL ADD MLOAD PUSH1 0xFF AND PUSH1 0xFF AND DUP2 MSTORE POP SWAP1 POP PUSH1 0x40 MLOAD DUP1 PUSH1 0x80 ADD PUSH1 0x40 MSTORE DUP1 DUP6 DUP2 MSTORE PUSH1 0x20 ADD DUP5 DUP2 MSTORE PUSH1 0x20 ADD DUP4 DUP2 MSTORE PUSH1 0x20 ADD DUP3 DUP2 MSTORE POP SWAP5 POP POP POP POP POP SWAP2 SWAP1 POP JUMP JUMPDEST PUSH2 0x2F39 PUSH2 0x39AE JUMP JUMPDEST PUSH0 PUSH1 0x40 MLOAD DUP1 PUSH1 0x80 ADD PUSH1 0x40 MSTORE DUP1 PUSH1 0x40 MLOAD DUP1 PUSH1 0x80 ADD PUSH1 0x40 MSTORE DUP1 PUSH0 PUSH1 0xFF AND DUP2 MSTORE PUSH1 0x20 ADD PUSH0 PUSH1 0xFF AND DUP2 MSTORE PUSH1 0x20 ADD PUSH0 PUSH1 0xFF AND DUP2 MSTORE PUSH1 0x20 ADD PUSH0 PUSH1 0xFF AND DUP2 MSTORE POP DUP2 MSTORE PUSH1 0x20 ADD PUSH1 0x40 MLOAD DUP1 PUSH1 0x80 ADD PUSH1 0x40 MSTORE DUP1 PUSH0 PUSH1 0xFF AND DUP2 MSTORE PUSH1 0x20 ADD PUSH0 PUSH1 0xFF AND DUP2 MSTORE PUSH1 0x20 ADD PUSH0 PUSH1 0xFF AND DUP2 MSTORE PUSH1 0x20 ADD PUSH0 PUSH1 0xFF AND DUP2 MSTORE POP DUP2 MSTORE PUSH1 0x20 ADD PUSH1 0x40 MLOAD DUP1 PUSH1 0x80 ADD PUSH1 0x40 MSTORE DUP1 PUSH0 PUSH1 0xFF AND DUP2 MSTORE PUSH1 0x20 ADD PUSH0 PUSH1 0xFF AND DUP2 MSTORE PUSH1 0x20 ADD PUSH0 PUSH1 0xFF AND DUP2 MSTORE PUSH1 0x20 ADD PUSH0 PUSH1 0xFF AND DUP2 MSTORE POP DUP2 MSTORE PUSH1 0x20 ADD PUSH1 0x40 MLOAD DUP1 PUSH1 0x80 ADD PUSH1 0x40 MSTORE DUP1 PUSH0 PUSH1 0xFF AND DUP2 MSTORE PUSH1 0x20 ADD PUSH0 PUSH1 0xFF AND DUP2 MSTORE PUSH1 0x20 ADD PUSH0 PUSH1 0xFF AND DUP2 MSTORE PUSH1 0x20 ADD PUSH0 PUSH1 0xFF AND DUP2 MSTORE POP DUP2 MSTORE POP SWAP1 POP PUSH0 JUMPDEST PUSH1 0x4 DUP2 LT ISZERO PUSH2 0x353F JUMPI PUSH0 JUMPDEST PUSH1 0x4 DUP2 LT ISZERO PUSH2 0x309A JUMPI DUP5 DUP2 PUSH1 0x4 DUP2 LT PUSH2 0x3036 JUMPI PUSH2 0x3035 PUSH2 0x4426 JUMP JUMPDEST JUMPDEST PUSH1 0x20 MUL ADD MLOAD DUP3 PUSH1 0x4 DUP2 LT PUSH2 0x304D JUMPI PUSH2 0x304C PUSH2 0x4426 JUMP JUMPDEST JUMPDEST PUSH1 0x20 MUL ADD MLOAD DUP4 DUP3 PUSH1 0x4 DUP2 LT PUSH2 0x3065 JUMPI PUSH2 0x3064 PUSH2 0x4426 JUMP JUMPDEST JUMPDEST PUSH1 0x20 MUL ADD MLOAD DUP4 PUSH1 0x4 DUP2 LT PUSH2 0x307C JUMPI PUSH2 0x307B PUSH2 0x4426 JUMP JUMPDEST JUMPDEST PUSH1 0x20 MUL ADD SWAP1 PUSH1 0xFF AND SWAP1 DUP2 PUSH1 0xFF AND DUP2 MSTORE POP POP DUP1 DUP1 PUSH1 0x1 ADD SWAP2 POP POP PUSH2 0x301A JUMP JUMPDEST POP PUSH2 0x30D5 DUP3 PUSH1 0x3 PUSH1 0x4 DUP2 LT PUSH2 0x30B2 JUMPI PUSH2 0x30B1 PUSH2 0x4426 JUMP JUMPDEST JUMPDEST PUSH1 0x20 MUL ADD MLOAD DUP3 PUSH1 0x4 DUP2 LT PUSH2 0x30C9 JUMPI PUSH2 0x30C8 PUSH2 0x4426 JUMP JUMPDEST JUMPDEST PUSH1 0x20 MUL ADD MLOAD PUSH1 0x1 PUSH2 0x3854 JUMP JUMPDEST PUSH2 0x310F DUP4 PUSH1 0x2 PUSH1 0x4 DUP2 LT PUSH2 0x30EC JUMPI PUSH2 0x30EB PUSH2 0x4426 JUMP JUMPDEST JUMPDEST PUSH1 0x20 MUL ADD MLOAD DUP4 PUSH1 0x4 DUP2 LT PUSH2 0x3103 JUMPI PUSH2 0x3102 PUSH2 0x4426 JUMP JUMPDEST JUMPDEST PUSH1 0x20 MUL ADD MLOAD PUSH1 0x1 PUSH2 0x3854 JUMP JUMPDEST PUSH2 0x3149 DUP5 PUSH1 0x1 PUSH1 0x4 DUP2 LT PUSH2 0x3126 JUMPI PUSH2 0x3125 PUSH2 0x4426 JUMP JUMPDEST JUMPDEST PUSH1 0x20 MUL ADD MLOAD DUP5 PUSH1 0x4 DUP2 LT PUSH2 0x313D JUMPI PUSH2 0x313C PUSH2 0x4426 JUMP JUMPDEST JUMPDEST PUSH1 0x20 MUL ADD MLOAD PUSH1 0x3 PUSH2 0x3854 JUMP JUMPDEST PUSH2 0x3182 DUP6 PUSH0 PUSH1 0x4 DUP2 LT PUSH2 0x315F JUMPI PUSH2 0x315E PUSH2 0x4426 JUMP JUMPDEST JUMPDEST PUSH1 0x20 MUL ADD MLOAD DUP6 PUSH1 0x4 DUP2 LT PUSH2 0x3176 JUMPI PUSH2 0x3175 PUSH2 0x4426 JUMP JUMPDEST JUMPDEST PUSH1 0x20 MUL ADD MLOAD PUSH1 0x2 PUSH2 0x3854 JUMP JUMPDEST XOR XOR XOR DUP5 PUSH0 PUSH1 0x4 DUP2 LT PUSH2 0x3198 JUMPI PUSH2 0x3197 PUSH2 0x4426 JUMP JUMPDEST JUMPDEST PUSH1 0x20 MUL ADD MLOAD DUP3 PUSH1 0x4 DUP2 LT PUSH2 0x31AF JUMPI PUSH2 0x31AE PUSH2 0x4426 JUMP JUMPDEST JUMPDEST PUSH1 0x20 MUL ADD SWAP1 PUSH1 0xFF AND SWAP1 DUP2 PUSH1 0xFF AND DUP2 MSTORE POP POP PUSH2 0x31FA DUP3 PUSH1 0x3 PUSH1 0x4 DUP2 LT PUSH2 0x31D7 JUMPI PUSH2 0x31D6 PUSH2 0x4426 JUMP JUMPDEST JUMPDEST PUSH1 0x20 MUL ADD MLOAD DUP3 PUSH1 0x4 DUP2 LT PUSH2 0x31EE JUMPI PUSH2 0x31ED PUSH2 0x4426 JUMP JUMPDEST JUMPDEST PUSH1 0x20 MUL ADD MLOAD PUSH1 0x1 PUSH2 0x3854 JUMP JUMPDEST PUSH2 0x3234 DUP4 PUSH1 0x2 PUSH1 0x4 DUP2 LT PUSH2 0x3211 JUMPI PUSH2 0x3210 PUSH2 0x4426 JUMP JUMPDEST JUMPDEST PUSH1 0x20 MUL ADD MLOAD DUP4 PUSH1 0x4 DUP2 LT PUSH2 0x3228 JUMPI PUSH2 0x3227 PUSH2 0x4426 JUMP JUMPDEST JUMPDEST PUSH1 0x20 MUL ADD MLOAD PUSH1 0x3 PUSH2 0x3854 JUMP JUMPDEST PUSH2 0x326E DUP5 PUSH1 0x1 PUSH1 0x4 DUP2 LT PUSH2 0x324B JUMPI PUSH2 0x324A PUSH2 0x4426 JUMP JUMPDEST JUMPDEST PUSH1 0x20 MUL ADD MLOAD DUP5 PUSH1 0x4 DUP2 LT PUSH2 0x3262 JUMPI PUSH2 0x3261 PUSH2 0x4426 JUMP JUMPDEST JUMPDEST PUSH1 0x20 MUL ADD MLOAD PUSH1 0x2 PUSH2 0x3854 JUMP JUMPDEST PUSH2 0x32A7 DUP6 PUSH0 PUSH1 0x4 DUP2 LT PUSH2 0x3284 JUMPI PUSH2 0x3283 PUSH2 0x4426 JUMP JUMPDEST JUMPDEST PUSH1 0x20 MUL ADD MLOAD DUP6 PUSH1 0x4 DUP2 LT PUSH2 0x329B JUMPI PUSH2 0x329A PUSH2 0x4426 JUMP JUMPDEST JUMPDEST PUSH1 0x20 MUL ADD MLOAD PUSH1 0x1 PUSH2 0x3854 JUMP JUMPDEST XOR XOR XOR DUP5 PUSH1 0x1 PUSH1 0x4 DUP2 LT PUSH2 0x32BE JUMPI PUSH2 0x32BD PUSH2 0x4426 JUMP JUMPDEST JUMPDEST PUSH1 0x20 MUL ADD MLOAD DUP3 PUSH1 0x4 DUP2 LT PUSH2 0x32D5 JUMPI PUSH2 0x32D4 PUSH2 0x4426 JUMP JUMPDEST JUMPDEST PUSH1 0x20 MUL ADD SWAP1 PUSH1 0xFF AND SWAP1 DUP2 PUSH1 0xFF AND DUP2 MSTORE POP POP PUSH2 0x3320 DUP3 PUSH1 0x3 PUSH1 0x4 DUP2 LT PUSH2 0x32FD JUMPI PUSH2 0x32FC PUSH2 0x4426 JUMP JUMPDEST JUMPDEST PUSH1 0x20 MUL ADD MLOAD DUP3 PUSH1 0x4 DUP2 LT PUSH2 0x3314 JUMPI PUSH2 0x3313 PUSH2 0x4426 JUMP JUMPDEST JUMPDEST PUSH1 0x20 MUL ADD MLOAD PUSH1 0x3 PUSH2 0x3854 JUMP JUMPDEST PUSH2 0x335A DUP4 PUSH1 0x2 PUSH1 0x4 DUP2 LT PUSH2 0x3337 JUMPI PUSH2 0x3336 PUSH2 0x4426 JUMP JUMPDEST JUMPDEST PUSH1 0x20 MUL ADD MLOAD DUP4 PUSH1 0x4 DUP2 LT PUSH2 0x334E JUMPI PUSH2 0x334D PUSH2 0x4426 JUMP JUMPDEST JUMPDEST PUSH1 0x20 MUL ADD MLOAD PUSH1 0x2 PUSH2 0x3854 JUMP JUMPDEST PUSH2 0x3394 DUP5 PUSH1 0x1 PUSH1 0x4 DUP2 LT PUSH2 0x3371 JUMPI PUSH2 0x3370 PUSH2 0x4426 JUMP JUMPDEST JUMPDEST PUSH1 0x20 MUL ADD MLOAD DUP5 PUSH1 0x4 DUP2 LT PUSH2 0x3388 JUMPI PUSH2 0x3387 PUSH2 0x4426 JUMP JUMPDEST JUMPDEST PUSH1 0x20 MUL ADD MLOAD PUSH1 0x1 PUSH2 0x3854 JUMP JUMPDEST PUSH2 0x33CD DUP6 PUSH0 PUSH1 0x4 DUP2 LT PUSH2 0x33AA JUMPI PUSH2 0x33A9 PUSH2 0x4426 JUMP JUMPDEST JUMPDEST PUSH1 0x20 MUL ADD MLOAD DUP6 PUSH1 0x4 DUP2 LT PUSH2 0x33C1 JUMPI PUSH2 0x33C0 PUSH2 0x4426 JUMP JUMPDEST JUMPDEST PUSH1 0x20 MUL ADD MLOAD PUSH1 0x1 PUSH2 0x3854 JUMP JUMPDEST XOR XOR XOR DUP5 PUSH1 0x2 PUSH1 0x4 DUP2 LT PUSH2 0x33E4 JUMPI PUSH2 0x33E3 PUSH2 0x4426 JUMP JUMPDEST JUMPDEST PUSH1 0x20 MUL ADD MLOAD DUP3 PUSH1 0x4 DUP2 LT PUSH2 0x33FB JUMPI PUSH2 0x33FA PUSH2 0x4426 JUMP JUMPDEST JUMPDEST PUSH1 0x20 MUL ADD SWAP1 PUSH1 0xFF AND SWAP1 DUP2 PUSH1 0xFF AND DUP2 MSTORE POP POP PUSH2 0x3446 DUP3 PUSH1 0x3 PUSH1 0x4 DUP2 LT PUSH2 0x3423 JUMPI PUSH2 0x3422 PUSH2 0x4426 JUMP JUMPDEST JUMPDEST PUSH1 0x20 MUL ADD MLOAD DUP3 PUSH1 0x4 DUP2 LT PUSH2 0x343A JUMPI PUSH2 0x3439 PUSH2 0x4426 JUMP JUMPDEST JUMPDEST PUSH1 0x20 MUL ADD MLOAD PUSH1 0x2 PUSH2 0x3854 JUMP JUMPDEST PUSH2 0x3480 DUP4 PUSH1 0x2 PUSH1 0x4 DUP2 LT PUSH2 0x345D JUMPI PUSH2 0x345C PUSH2 0x4426 JUMP JUMPDEST JUMPDEST PUSH1 0x20 MUL ADD MLOAD DUP4 PUSH1 0x4 DUP2 LT PUSH2 0x3474 JUMPI PUSH2 0x3473 PUSH2 0x4426 JUMP JUMPDEST JUMPDEST PUSH1 0x20 MUL ADD MLOAD PUSH1 0x1 PUSH2 0x3854 JUMP JUMPDEST PUSH2 0x34BA DUP5 PUSH1 0x1 PUSH1 0x4 DUP2 LT PUSH2 0x3497 JUMPI PUSH2 0x3496 PUSH2 0x4426 JUMP JUMPDEST JUMPDEST PUSH1 0x20 MUL ADD MLOAD DUP5 PUSH1 0x4 DUP2 LT PUSH2 0x34AE JUMPI PUSH2 0x34AD PUSH2 0x4426 JUMP JUMPDEST JUMPDEST PUSH1 0x20 MUL ADD MLOAD PUSH1 0x1 PUSH2 0x3854 JUMP JUMPDEST PUSH2 0x34F3 DUP6 PUSH0 PUSH1 0x4 DUP2 LT PUSH2 0x34D0 JUMPI PUSH2 0x34CF PUSH2 0x4426 JUMP JUMPDEST JUMPDEST PUSH1 0x20 MUL ADD MLOAD DUP6 PUSH1 0x4 DUP2 LT PUSH2 0x34E7 JUMPI PUSH2 0x34E6 PUSH2 0x4426 JUMP JUMPDEST JUMPDEST PUSH1 0x20 MUL ADD MLOAD PUSH1 0x3 PUSH2 0x3854 JUMP JUMPDEST XOR XOR XOR DUP5 PUSH1 0x3 PUSH1 0x4 DUP2 LT PUSH2 0x350A JUMPI PUSH2 0x3509 PUSH2 0x4426 JUMP JUMPDEST JUMPDEST PUSH1 0x20 MUL ADD MLOAD DUP3 PUSH1 0x4 DUP2 LT PUSH2 0x3521 JUMPI PUSH2 0x3520 PUSH2 0x4426 JUMP JUMPDEST JUMPDEST PUSH1 0x20 MUL ADD SWAP1 PUSH1 0xFF AND SWAP1 DUP2 PUSH1 0xFF AND DUP2 MSTORE POP POP DUP1 DUP1 PUSH1 0x1 ADD SWAP2 POP POP PUSH2 0x300F JUMP JUMPDEST POP DUP3 SWAP2 POP POP SWAP2 SWAP1 POP JUMP JUMPDEST PUSH2 0x3560 DUP2 PUSH2 0x3558 PUSH2 0x3933 PUSH2 0x3952 JUMP JUMPDEST PUSH4 0xFFFFFFFF AND JUMP JUMPDEST POP JUMP JUMPDEST PUSH2 0x356B PUSH2 0x39DB JUMP JUMPDEST PUSH0 PUSH1 0x40 MLOAD DUP1 PUSH1 0x80 ADD PUSH1 0x40 MSTORE DUP1 PUSH0 PUSH1 0xFF AND DUP2 MSTORE PUSH1 0x20 ADD PUSH0 PUSH1 0xFF AND DUP2 MSTORE PUSH1 0x20 ADD PUSH0 PUSH1 0xFF AND DUP2 MSTORE PUSH1 0x20 ADD PUSH0 PUSH1 0xFF AND DUP2 MSTORE POP SWAP1 POP DUP3 PUSH1 0x1 PUSH1 0x4 DUP2 LT PUSH2 0x35AF JUMPI PUSH2 0x35AE PUSH2 0x4426 JUMP JUMPDEST JUMPDEST PUSH1 0x20 MUL ADD MLOAD DUP2 PUSH0 PUSH1 0x4 DUP2 LT PUSH2 0x35C7 JUMPI PUSH2 0x35C6 PUSH2 0x4426 JUMP JUMPDEST JUMPDEST PUSH1 0x20 MUL ADD SWAP1 PUSH1 0xFF AND SWAP1 DUP2 PUSH1 0xFF AND DUP2 MSTORE POP POP DUP3 PUSH1 0x2 PUSH1 0x4 DUP2 LT PUSH2 0x35EC JUMPI PUSH2 0x35EB PUSH2 0x4426 JUMP JUMPDEST JUMPDEST PUSH1 0x20 MUL ADD MLOAD DUP2 PUSH1 0x1 PUSH1 0x4 DUP2 LT PUSH2 0x3605 JUMPI PUSH2 0x3604 PUSH2 0x4426 JUMP JUMPDEST JUMPDEST PUSH1 0x20 MUL ADD SWAP1 PUSH1 0xFF AND SWAP1 DUP2 PUSH1 0xFF AND DUP2 MSTORE POP POP DUP3 PUSH1 0x3 PUSH1 0x4 DUP2 LT PUSH2 0x362A JUMPI PUSH2 0x3629 PUSH2 0x4426 JUMP JUMPDEST JUMPDEST PUSH1 0x20 MUL ADD MLOAD DUP2 PUSH1 0x2 PUSH1 0x4 DUP2 LT PUSH2 0x3643 JUMPI PUSH2 0x3642 PUSH2 0x4426 JUMP JUMPDEST JUMPDEST PUSH1 0x20 MUL ADD SWAP1 PUSH1 0xFF AND SWAP1 DUP2 PUSH1 0xFF AND DUP2 MSTORE POP POP DUP3 PUSH0 PUSH1 0x4 DUP2 LT PUSH2 0x3667 JUMPI PUSH2 0x3666 PUSH2 0x4426 JUMP JUMPDEST JUMPDEST PUSH1 0x20 MUL ADD MLOAD DUP2 PUSH1 0x3 PUSH1 0x4 DUP2 LT PUSH2 0x3680 JUMPI PUSH2 0x367F PUSH2 0x4426 JUMP JUMPDEST JUMPDEST PUSH1 0x20 MUL ADD SWAP1 PUSH1 0xFF AND SWAP1 DUP2 PUSH1 0xFF AND DUP2 MSTORE POP POP DUP1 SWAP2 POP POP SWAP2 SWAP1 POP JUMP JUMPDEST PUSH2 0x36A2 PUSH2 0x39DB JUMP JUMPDEST PUSH1 0x1 DUP3 PUSH0 PUSH1 0x4 DUP2 LT PUSH2 0x36B7 JUMPI PUSH2 0x36B6 PUSH2 0x4426 JUMP JUMPDEST JUMPDEST PUSH1 0x20 MUL ADD MLOAD PUSH1 0xFF AND PUSH2 0x100 DUP2 LT PUSH2 0x36D1 JUMPI PUSH2 0x36D0 PUSH2 0x4426 JUMP JUMPDEST JUMPDEST PUSH1 0x20 SWAP2 DUP3 DUP3 DIV ADD SWAP2 SWAP1 MOD SWAP1 SLOAD SWAP1 PUSH2 0x100 EXP SWAP1 DIV PUSH1 0xFF AND DUP3 PUSH0 PUSH1 0x4 DUP2 LT PUSH2 0x36FA JUMPI PUSH2 0x36F9 PUSH2 0x4426 JUMP JUMPDEST JUMPDEST PUSH1 0x20 MUL ADD SWAP1 PUSH1 0xFF AND SWAP1 DUP2 PUSH1 0xFF AND DUP2 MSTORE POP POP PUSH1 0x1 DUP3 PUSH1 0x1 PUSH1 0x4 DUP2 LT PUSH2 0x3721 JUMPI PUSH2 0x3720 PUSH2 0x4426 JUMP JUMPDEST JUMPDEST PUSH1 0x20 MUL ADD MLOAD PUSH1 0xFF AND PUSH2 0x100 DUP2 LT PUSH2 0x373B JUMPI PUSH2 0x373A PUSH2 0x4426 JUMP JUMPDEST JUMPDEST PUSH1 0x20 SWAP2 DUP3 DUP3 DIV ADD SWAP2 SWAP1 MOD SWAP1 SLOAD SWAP1 PUSH2 0x100 EXP SWAP1 DIV PUSH1 0xFF AND DUP3 PUSH1 0x1 PUSH1 0x4 DUP2 LT PUSH2 0x3765 JUMPI PUSH2 0x3764 PUSH2 0x4426 JUMP JUMPDEST JUMPDEST PUSH1 0x20 MUL ADD SWAP1 PUSH1 0xFF AND SWAP1 DUP2 PUSH1 0xFF AND DUP2 MSTORE POP POP PUSH1 0x1 DUP3 PUSH1 0x2 PUSH1 0x4 DUP2 LT PUSH2 0x378C JUMPI PUSH2 0x378B PUSH2 0x4426 JUMP JUMPDEST JUMPDEST PUSH1 0x20 MUL ADD MLOAD PUSH1 0xFF AND PUSH2 0x100 DUP2 LT PUSH2 0x37A6 JUMPI PUSH2 0x37A5 PUSH2 0x4426 JUMP JUMPDEST JUMPDEST PUSH1 0x20 SWAP2 DUP3 DUP3 DIV ADD SWAP2 SWAP1 MOD SWAP1 SLOAD SWAP1 PUSH2 0x100 EXP SWAP1 DIV PUSH1 0xFF AND DUP3 PUSH1 0x2 PUSH1 0x4 DUP2 LT PUSH2 0x37D0 JUMPI PUSH2 0x37CF PUSH2 0x4426 JUMP JUMPDEST JUMPDEST PUSH1 0x20 MUL ADD SWAP1 PUSH1 0xFF AND SWAP1 DUP2 PUSH1 0xFF AND DUP2 MSTORE POP POP PUSH1 0x1 DUP3 PUSH1 0x3 PUSH1 0x4 DUP2 LT PUSH2 0x37F7 JUMPI PUSH2 0x37F6 PUSH2 0x4426 JUMP JUMPDEST JUMPDEST PUSH1 0x20 MUL ADD MLOAD PUSH1 0xFF AND PUSH2 0x100 DUP2 LT PUSH2 0x3811 JUMPI PUSH2 0x3810 PUSH2 0x4426 JUMP JUMPDEST JUMPDEST PUSH1 0x20 SWAP2 DUP3 DUP3 DIV ADD SWAP2 SWAP1 MOD SWAP1 SLOAD SWAP1 PUSH2 0x100 EXP SWAP1 DIV PUSH1 0xFF AND DUP3 PUSH1 0x3 PUSH1 0x4 DUP2 LT PUSH2 0x383B JUMPI PUSH2 0x383A PUSH2 0x4426 JUMP JUMPDEST JUMPDEST PUSH1 0x20 MUL ADD SWAP1 PUSH1 0xFF AND SWAP1 DUP2 PUSH1 0xFF AND DUP2 MSTORE POP POP DUP2 SWAP1 POP SWAP2 SWAP1 POP JUMP JUMPDEST PUSH0 DUP1 DUP4 PUSH1 0xFF AND EQ DUP1 PUSH2 0x3868 JUMPI POP PUSH0 DUP3 PUSH1 0xFF AND EQ JUMPDEST ISZERO PUSH2 0x3875 JUMPI PUSH0 SWAP1 POP PUSH2 0x392D JUMP JUMPDEST PUSH0 PUSH1 0x11 DUP5 PUSH1 0xFF AND PUSH2 0x100 DUP2 LT PUSH2 0x388E JUMPI PUSH2 0x388D PUSH2 0x4426 JUMP JUMPDEST JUMPDEST PUSH1 0x20 SWAP2 DUP3 DUP3 DIV ADD SWAP2 SWAP1 MOD SWAP1 SLOAD SWAP1 PUSH2 0x100 EXP SWAP1 DIV PUSH1 0xFF AND PUSH1 0xFF AND SWAP1 POP PUSH0 PUSH1 0x11 DUP5 PUSH1 0xFF AND PUSH2 0x100 DUP2 LT PUSH2 0x38C2 JUMPI PUSH2 0x38C1 PUSH2 0x4426 JUMP JUMPDEST JUMPDEST PUSH1 0x20 SWAP2 DUP3 DUP3 DIV ADD SWAP2 SWAP1 MOD SWAP1 SLOAD SWAP1 PUSH2 0x100 EXP SWAP1 DIV PUSH1 0xFF AND PUSH1 0xFF AND SWAP1 POP PUSH0 PUSH1 0xFF DUP3 DUP5 PUSH2 0x38EC SWAP2 SWAP1 PUSH2 0x4773 JUMP JUMPDEST PUSH2 0x38F6 SWAP2 SWAP1 PUSH2 0x47A8 JUMP JUMPDEST SWAP1 POP PUSH1 0x19 DUP2 PUSH2 0xFFFF AND PUSH2 0x100 DUP2 LT PUSH2 0x3911 JUMPI PUSH2 0x3910 PUSH2 0x4426 JUMP JUMPDEST JUMPDEST PUSH1 0x20 SWAP2 DUP3 DUP3 DIV ADD SWAP2 SWAP1 MOD SWAP1 SLOAD SWAP1 PUSH2 0x100 EXP SWAP1 DIV PUSH1 0xFF AND SWAP4 POP POP POP POP JUMPDEST SWAP3 SWAP2 POP POP JUMP JUMPDEST PUSH0 PUSH11 0x636F6E736F6C652E6C6F67 SWAP1 POP PUSH0 DUP1 DUP4 MLOAD PUSH1 0x20 DUP6 ADD DUP5 GAS STATICCALL POP POP POP JUMP JUMPDEST PUSH2 0x39FD DUP2 SWAP1 POP SWAP2 SWAP1 POP JUMP JUMPDEST PUSH1 0x40 MLOAD DUP1 PUSH2 0x200 ADD PUSH1 0x40 MSTORE DUP1 PUSH1 0x10 SWAP1 PUSH1 0x20 DUP3 MUL DUP1 CALLDATASIZE DUP4 CALLDATACOPY DUP1 DUP3 ADD SWAP2 POP POP SWAP1 POP POP SWAP1 JUMP JUMPDEST PUSH1 0x40 MLOAD DUP1 PUSH2 0x580 ADD PUSH1 0x40 MSTORE DUP1 PUSH1 0x2C SWAP1 JUMPDEST PUSH2 0x3998 PUSH2 0x39DB JUMP JUMPDEST DUP2 MSTORE PUSH1 0x20 ADD SWAP1 PUSH1 0x1 SWAP1 SUB SWAP1 DUP2 PUSH2 0x3990 JUMPI SWAP1 POP POP SWAP1 JUMP JUMPDEST PUSH1 0x40 MLOAD DUP1 PUSH1 0x80 ADD PUSH1 0x40 MSTORE DUP1 PUSH1 0x4 SWAP1 JUMPDEST PUSH2 0x39C5 PUSH2 0x39DB JUMP JUMPDEST DUP2 MSTORE PUSH1 0x20 ADD SWAP1 PUSH1 0x1 SWAP1 SUB SWAP1 DUP2 PUSH2 0x39BD JUMPI SWAP1 POP POP SWAP1 JUMP JUMPDEST PUSH1 0x40 MLOAD DUP1 PUSH1 0x80 ADD PUSH1 0x40 MSTORE DUP1 PUSH1 0x4 SWAP1 PUSH1 0x20 DUP3 MUL DUP1 CALLDATASIZE DUP4 CALLDATACOPY DUP1 DUP3 ADD SWAP2 POP POP SWAP1 POP POP SWAP1 JUMP JUMPDEST PUSH2 0x3A05 PUSH2 0x47D8 JUMP JUMPDEST JUMP JUMPDEST PUSH0 PUSH1 0x40 MLOAD SWAP1 POP SWAP1 JUMP JUMPDEST PUSH0 DUP1 REVERT JUMPDEST PUSH0 DUP1 REVERT JUMPDEST PUSH0 DUP1 REVERT JUMPDEST PUSH0 DUP1 REVERT JUMPDEST PUSH0 PUSH1 0x1F NOT PUSH1 0x1F DUP4 ADD AND SWAP1 POP SWAP2 SWAP1 POP JUMP JUMPDEST PUSH32 0x4E487B7100000000000000000000000000000000000000000000000000000000 PUSH0 MSTORE PUSH1 0x41 PUSH1 0x4 MSTORE PUSH1 0x24 PUSH0 REVERT JUMPDEST PUSH2 0x3A66 DUP3 PUSH2 0x3A20 JUMP JUMPDEST DUP2 ADD DUP2 DUP2 LT PUSH8 0xFFFFFFFFFFFFFFFF DUP3 GT OR ISZERO PUSH2 0x3A85 JUMPI PUSH2 0x3A84 PUSH2 0x3A30 JUMP JUMPDEST JUMPDEST DUP1 PUSH1 0x40 MSTORE POP POP POP JUMP JUMPDEST PUSH0 PUSH2 0x3A97 PUSH2 0x3A07 JUMP JUMPDEST SWAP1 POP PUSH2 0x3AA3 DUP3 DUP3 PUSH2 0x3A5D JUMP JUMPDEST SWAP2 SWAP1 POP JUMP JUMPDEST PUSH0 PUSH8 0xFFFFFFFFFFFFFFFF DUP3 GT ISZERO PUSH2 0x3AC2 JUMPI PUSH2 0x3AC1 PUSH2 0x3A30 JUMP JUMPDEST JUMPDEST PUSH2 0x3ACB DUP3 PUSH2 0x3A20 JUMP JUMPDEST SWAP1 POP PUSH1 0x20 DUP2 ADD SWAP1 POP SWAP2 SWAP1 POP JUMP JUMPDEST DUP3 DUP2 DUP4 CALLDATACOPY PUSH0 DUP4 DUP4 ADD MSTORE POP POP POP JUMP JUMPDEST PUSH0 PUSH2 0x3AF8 PUSH2 0x3AF3 DUP5 PUSH2 0x3AA8 JUMP JUMPDEST PUSH2 0x3A8E JUMP JUMPDEST SWAP1 POP DUP3 DUP2 MSTORE PUSH1 0x20 DUP2 ADD DUP5 DUP5 DUP5 ADD GT ISZERO PUSH2 0x3B14 JUMPI PUSH2 0x3B13 PUSH2 0x3A1C JUMP JUMPDEST JUMPDEST PUSH2 0x3B1F DUP5 DUP3 DUP6 PUSH2 0x3AD8 JUMP JUMPDEST POP SWAP4 SWAP3 POP POP POP JUMP JUMPDEST PUSH0 DUP3 PUSH1 0x1F DUP4 ADD SLT PUSH2 0x3B3B JUMPI PUSH2 0x3B3A PUSH2 0x3A18 JUMP JUMPDEST JUMPDEST DUP2 CALLDATALOAD PUSH2 0x3B4B DUP5 DUP3 PUSH1 0x20 DUP7 ADD PUSH2 0x3AE6 JUMP JUMPDEST SWAP2 POP POP SWAP3 SWAP2 POP POP JUMP JUMPDEST PUSH0 PUSH1 0x20 DUP3 DUP5 SUB SLT ISZERO PUSH2 0x3B69 JUMPI PUSH2 0x3B68 PUSH2 0x3A10 JUMP JUMPDEST JUMPDEST PUSH0 DUP3 ADD CALLDATALOAD PUSH8 0xFFFFFFFFFFFFFFFF DUP2 GT ISZERO PUSH2 0x3B86 JUMPI PUSH2 0x3B85 PUSH2 0x3A14 JUMP JUMPDEST JUMPDEST PUSH2 0x3B92 DUP5 DUP3 DUP6 ADD PUSH2 0x3B27 JUMP JUMPDEST SWAP2 POP POP SWAP3 SWAP2 POP POP JUMP JUMPDEST PUSH0 DUP2 MLOAD SWAP1 POP SWAP2 SWAP1 POP JUMP JUMPDEST PUSH0 DUP3 DUP3 MSTORE PUSH1 0x20 DUP3 ADD SWAP1 POP SWAP3 SWAP2 POP POP JUMP JUMPDEST PUSH0 DUP2 SWAP1 POP PUSH1 0x20 DUP3 ADD SWAP1 POP SWAP2 SWAP1 POP JUMP JUMPDEST PUSH0 PUSH16 0xFFFFFFFFFFFFFFFFFFFFFFFFFFFFFFFF DUP3 AND SWAP1 POP SWAP2 SWAP1 POP JUMP JUMPDEST PUSH2 0x3BE8 DUP2 PUSH2 0x3BC4 JUMP JUMPDEST DUP3 MSTORE POP POP JUMP JUMPDEST PUSH0 PUSH2 0x3BF9 DUP4 DUP4 PUSH2 0x3BDF JUMP JUMPDEST PUSH1 0x20 DUP4 ADD SWAP1 POP SWAP3 SWAP2 POP POP JUMP JUMPDEST PUSH0 PUSH1 0x20 DUP3 ADD SWAP1 POP SWAP2 SWAP1 POP JUMP JUMPDEST PUSH0 PUSH2 0x3C1B DUP3 PUSH2 0x3B9B JUMP JUMPDEST PUSH2 0x3C25 DUP2 DUP6 PUSH2 0x3BA5 JUMP JUMPDEST SWAP4 POP PUSH2 0x3C30 DUP4 PUSH2 0x3BB5 JUMP JUMPDEST DUP1 PUSH0 JUMPDEST DUP4 DUP2 LT ISZERO PUSH2 0x3C60 JUMPI DUP2 MLOAD PUSH2 0x3C47 DUP9 DUP3 PUSH2 0x3BEE JUMP JUMPDEST SWAP8 POP PUSH2 0x3C52 DUP4 PUSH2 0x3C05 JUMP JUMPDEST SWAP3 POP POP PUSH1 0x1 DUP2 ADD SWAP1 POP PUSH2 0x3C33 JUMP JUMPDEST POP DUP6 SWAP4 POP POP POP POP SWAP3 SWAP2 POP POP JUMP JUMPDEST PUSH0 PUSH1 0x20 DUP3 ADD SWAP1 POP DUP2 DUP2 SUB PUSH0 DUP4 ADD MSTORE PUSH2 0x3C85 DUP2 DUP5 PUSH2 0x3C11 JUMP JUMPDEST SWAP1 POP SWAP3 SWAP2 POP POP JUMP JUMPDEST PUSH0 DUP1 PUSH0 DUP1 PUSH0 PUSH1 0xA0 DUP7 DUP9 SUB SLT ISZERO PUSH2 0x3CA6 JUMPI PUSH2 0x3CA5 PUSH2 0x3A10 JUMP JUMPDEST JUMPDEST PUSH0 DUP7 ADD CALLDATALOAD PUSH8 0xFFFFFFFFFFFFFFFF DUP2 GT ISZERO PUSH2 0x3CC3 JUMPI PUSH2 0x3CC2 PUSH2 0x3A14 JUMP JUMPDEST JUMPDEST PUSH2 0x3CCF DUP9 DUP3 DUP10 ADD PUSH2 0x3B27 JUMP JUMPDEST SWAP6 POP POP PUSH1 0x20 DUP7 ADD CALLDATALOAD PUSH8 0xFFFFFFFFFFFFFFFF DUP2 GT ISZERO PUSH2 0x3CF0 JUMPI PUSH2 0x3CEF PUSH2 0x3A14 JUMP JUMPDEST JUMPDEST PUSH2 0x3CFC DUP9 DUP3 DUP10 ADD PUSH2 0x3B27 JUMP JUMPDEST SWAP5 POP POP PUSH1 0x40 DUP7 ADD CALLDATALOAD PUSH8 0xFFFFFFFFFFFFFFFF DUP2 GT ISZERO PUSH2 0x3D1D JUMPI PUSH2 0x3D1C PUSH2 0x3A14 JUMP JUMPDEST JUMPDEST PUSH2 0x3D29 DUP9 DUP3 DUP10 ADD PUSH2 0x3B27 JUMP JUMPDEST SWAP4 POP POP PUSH1 0x60 DUP7 ADD CALLDATALOAD PUSH8 0xFFFFFFFFFFFFFFFF DUP2 GT ISZERO PUSH2 0x3D4A JUMPI PUSH2 0x3D49 PUSH2 0x3A14 JUMP JUMPDEST JUMPDEST PUSH2 0x3D56 DUP9 DUP3 DUP10 ADD PUSH2 0x3B27 JUMP JUMPDEST SWAP3 POP POP PUSH1 0x80 DUP7 ADD CALLDATALOAD PUSH8 0xFFFFFFFFFFFFFFFF DUP2 GT ISZERO PUSH2 0x3D77 JUMPI PUSH2 0x3D76 PUSH2 0x3A14 JUMP JUMPDEST JUMPDEST PUSH2 0x3D83 DUP9 DUP3 DUP10 ADD PUSH2 0x3B27 JUMP JUMPDEST SWAP2 POP POP SWAP3 SWAP6 POP SWAP3 SWAP6 SWAP1 SWAP4 POP JUMP JUMPDEST PUSH0 DUP2 MLOAD SWAP1 POP SWAP2 SWAP1 POP JUMP JUMPDEST PUSH0 DUP3 DUP3 MSTORE PUSH1 0x20 DUP3 ADD SWAP1 POP SWAP3 SWAP2 POP POP JUMP JUMPDEST DUP3 DUP2 DUP4 MCOPY PUSH0 DUP4 DUP4 ADD MSTORE POP POP POP JUMP JUMPDEST PUSH0 PUSH2 0x3DC2 DUP3 PUSH2 0x3D90 JUMP JUMPDEST PUSH2 0x3DCC DUP2 DUP6 PUSH2 0x3D9A JUMP JUMPDEST SWAP4 POP PUSH2 0x3DDC DUP2 DUP6 PUSH1 0x20 DUP7 ADD PUSH2 0x3DAA JUMP JUMPDEST PUSH2 0x3DE5 DUP2 PUSH2 0x3A20 JUMP JUMPDEST DUP5 ADD SWAP2 POP POP SWAP3 SWAP2 POP POP JUMP JUMPDEST PUSH0 PUSH1 0x20 DUP3 ADD SWAP1 POP DUP2 DUP2 SUB PUSH0 DUP4 ADD MSTORE PUSH2 0x3E08 DUP2 DUP5 PUSH2 0x3DB8 JUMP JUMPDEST SWAP1 POP SWAP3 SWAP2 POP POP JUMP JUMPDEST PUSH0 PUSH8 0xFFFFFFFFFFFFFFFF DUP3 GT ISZERO PUSH2 0x3E2A JUMPI PUSH2 0x3E29 PUSH2 0x3A30 JUMP JUMPDEST JUMPDEST PUSH1 0x20 DUP3 MUL SWAP1 POP PUSH1 0x20 DUP2 ADD SWAP1 POP SWAP2 SWAP1 POP JUMP JUMPDEST PUSH0 DUP1 REVERT JUMPDEST PUSH2 0x3E48 DUP2 PUSH2 0x3BC4 JUMP JUMPDEST DUP2 EQ PUSH2 0x3E52 JUMPI PUSH0 DUP1 REVERT JUMPDEST POP JUMP JUMPDEST PUSH0 DUP2 CALLDATALOAD SWAP1 POP PUSH2 0x3E63 DUP2 PUSH2 0x3E3F JUMP JUMPDEST SWAP3 SWAP2 POP POP JUMP JUMPDEST PUSH0 PUSH2 0x3E7B PUSH2 0x3E76 DUP5 PUSH2 0x3E10 JUMP JUMPDEST PUSH2 0x3A8E JUMP JUMPDEST SWAP1 POP DUP1 DUP4 DUP3 MSTORE PUSH1 0x20 DUP3 ADD SWAP1 POP PUSH1 0x20 DUP5 MUL DUP4 ADD DUP6 DUP2 GT ISZERO PUSH2 0x3E9E JUMPI PUSH2 0x3E9D PUSH2 0x3E3B JUMP JUMPDEST JUMPDEST DUP4 JUMPDEST DUP2 DUP2 LT ISZERO PUSH2 0x3EC7 JUMPI DUP1 PUSH2 0x3EB3 DUP9 DUP3 PUSH2 0x3E55 JUMP JUMPDEST DUP5 MSTORE PUSH1 0x20 DUP5 ADD SWAP4 POP POP PUSH1 0x20 DUP2 ADD SWAP1 POP PUSH2 0x3EA0 JUMP JUMPDEST POP POP POP SWAP4 SWAP3 POP POP POP JUMP JUMPDEST PUSH0 DUP3 PUSH1 0x1F DUP4 ADD SLT PUSH2 0x3EE5 JUMPI PUSH2 0x3EE4 PUSH2 0x3A18 JUMP JUMPDEST JUMPDEST DUP2 CALLDATALOAD PUSH2 0x3EF5 DUP5 DUP3 PUSH1 0x20 DUP7 ADD PUSH2 0x3E69 JUMP JUMPDEST SWAP2 POP POP SWAP3 SWAP2 POP POP JUMP JUMPDEST PUSH0 PUSH1 0x20 DUP3 DUP5 SUB SLT ISZERO PUSH2 0x3F13 JUMPI PUSH2 0x3F12 PUSH2 0x3A10 JUMP JUMPDEST JUMPDEST PUSH0 DUP3 ADD CALLDATALOAD PUSH8 0xFFFFFFFFFFFFFFFF DUP2 GT ISZERO PUSH2 0x3F30 JUMPI PUSH2 0x3F2F PUSH2 0x3A14 JUMP JUMPDEST JUMPDEST PUSH2 0x3F3C DUP5 DUP3 DUP6 ADD PUSH2 0x3ED1 JUMP JUMPDEST SWAP2 POP POP SWAP3 SWAP2 POP POP JUMP JUMPDEST PUSH0 PUSH8 0xFFFFFFFFFFFFFFFF DUP3 GT ISZERO PUSH2 0x3F5F JUMPI PUSH2 0x3F5E PUSH2 0x3A30 JUMP JUMPDEST JUMPDEST PUSH1 0x20 DUP3 MUL SWAP1 POP SWAP2 SWAP1 POP JUMP JUMPDEST PUSH0 PUSH1 0xFF DUP3 AND SWAP1 POP SWAP2 SWAP1 POP JUMP JUMPDEST PUSH2 0x3F7F DUP2 PUSH2 0x3F6A JUMP JUMPDEST DUP2 EQ PUSH2 0x3F89 JUMPI PUSH0 DUP1 REVERT JUMPDEST POP JUMP JUMPDEST PUSH0 DUP2 CALLDATALOAD SWAP1 POP PUSH2 0x3F9A DUP2 PUSH2 0x3F76 JUMP JUMPDEST SWAP3 SWAP2 POP POP JUMP JUMPDEST PUSH0 PUSH2 0x3FB2 PUSH2 0x3FAD DUP5 PUSH2 0x3F45 JUMP JUMPDEST PUSH2 0x3A8E JUMP JUMPDEST SWAP1 POP DUP1 PUSH1 0x20 DUP5 MUL DUP4 ADD DUP6 DUP2 GT ISZERO PUSH2 0x3FCC JUMPI PUSH2 0x3FCB PUSH2 0x3E3B JUMP JUMPDEST JUMPDEST DUP4 JUMPDEST DUP2 DUP2 LT ISZERO PUSH2 0x3FF5 JUMPI DUP1 PUSH2 0x3FE1 DUP9 DUP3 PUSH2 0x3F8C JUMP JUMPDEST DUP5 MSTORE PUSH1 0x20 DUP5 ADD SWAP4 POP POP PUSH1 0x20 DUP2 ADD SWAP1 POP PUSH2 0x3FCE JUMP JUMPDEST POP POP POP SWAP4 SWAP3 POP POP POP JUMP JUMPDEST PUSH0 DUP3 PUSH1 0x1F DUP4 ADD SLT PUSH2 0x4013 JUMPI PUSH2 0x4012 PUSH2 0x3A18 JUMP JUMPDEST JUMPDEST PUSH1 0x10 PUSH2 0x4020 DUP5 DUP3 DUP6 PUSH2 0x3FA0 JUMP JUMPDEST SWAP2 POP POP SWAP3 SWAP2 POP POP JUMP JUMPDEST PUSH0 DUP1 PUSH2 0x400 DUP4 DUP6 SUB SLT ISZERO PUSH2 0x4040 JUMPI PUSH2 0x403F PUSH2 0x3A10 JUMP JUMPDEST JUMPDEST PUSH0 PUSH2 0x404D DUP6 DUP3 DUP7 ADD PUSH2 0x3FFF JUMP JUMPDEST SWAP3 POP POP PUSH2 0x200 PUSH2 0x405F DUP6 DUP3 DUP7 ADD PUSH2 0x3FFF JUMP JUMPDEST SWAP2 POP POP SWAP3 POP SWAP3 SWAP1 POP JUMP JUMPDEST PUSH0 PUSH1 0x10 SWAP1 POP SWAP2 SWAP1 POP JUMP JUMPDEST PUSH0 DUP2 SWAP1 POP SWAP3 SWAP2 POP POP JUMP JUMPDEST PUSH0 DUP2 SWAP1 POP SWAP2 SWAP1 POP JUMP JUMPDEST PUSH2 0x408F DUP2 PUSH2 0x3F6A JUMP JUMPDEST DUP3 MSTORE POP POP JUMP JUMPDEST PUSH0 PUSH2 0x40A0 DUP4 DUP4 PUSH2 0x4086 JUMP JUMPDEST PUSH1 0x20 DUP4 ADD SWAP1 POP SWAP3 SWAP2 POP POP JUMP JUMPDEST PUSH0 PUSH1 0x20 DUP3 ADD SWAP1 POP SWAP2 SWAP1 POP JUMP JUMPDEST PUSH2 0x40C1 DUP2 PUSH2 0x4069 JUMP JUMPDEST PUSH2 0x40CB DUP2 DUP5 PUSH2 0x4073 JUMP JUMPDEST SWAP3 POP PUSH2 0x40D6 DUP3 PUSH2 0x407D JUMP JUMPDEST DUP1 PUSH0 JUMPDEST DUP4 DUP2 LT ISZERO PUSH2 0x4106 JUMPI DUP2 MLOAD PUSH2 0x40ED DUP8 DUP3 PUSH2 0x4095 JUMP JUMPDEST SWAP7 POP PUSH2 0x40F8 DUP4 PUSH2 0x40AC JUMP JUMPDEST SWAP3 POP POP PUSH1 0x1 DUP2 ADD SWAP1 POP PUSH2 0x40D9 JUMP JUMPDEST POP POP POP POP POP POP JUMP JUMPDEST PUSH0 PUSH2 0x200 DUP3 ADD SWAP1 POP PUSH2 0x4122 PUSH0 DUP4 ADD DUP5 PUSH2 0x40B8 JUMP JUMPDEST SWAP3 SWAP2 POP POP JUMP JUMPDEST PUSH0 PUSH2 0x200 DUP3 DUP5 SUB SLT ISZERO PUSH2 0x413E JUMPI PUSH2 0x413D PUSH2 0x3A10 JUMP JUMPDEST JUMPDEST PUSH0 PUSH2 0x414B DUP5 DUP3 DUP6 ADD PUSH2 0x3FFF JUMP JUMPDEST SWAP2 POP POP SWAP3 SWAP2 POP POP JUMP JUMPDEST PUSH2 0x415D DUP2 PUSH2 0x3BC4 JUMP JUMPDEST DUP3 MSTORE POP POP JUMP JUMPDEST PUSH0 PUSH1 0x20 DUP3 ADD SWAP1 POP PUSH2 0x4176 PUSH0 DUP4 ADD DUP5 PUSH2 0x4154 JUMP JUMPDEST SWAP3 SWAP2 POP POP JUMP JUMPDEST PUSH0 PUSH1 0x20 DUP3 DUP5 SUB SLT ISZERO PUSH2 0x4191 JUMPI PUSH2 0x4190 PUSH2 0x3A10 JUMP JUMPDEST JUMPDEST PUSH0 PUSH2 0x419E DUP5 DUP3 DUP6 ADD PUSH2 0x3E55 JUMP JUMPDEST SWAP2 POP POP SWAP3 SWAP2 POP POP JUMP JUMPDEST PUSH0 DUP2 SWAP1 POP SWAP2 SWAP1 POP JUMP JUMPDEST PUSH32 0x4E487B7100000000000000000000000000000000000000000000000000000000 PUSH0 MSTORE PUSH1 0x12 PUSH1 0x4 MSTORE PUSH1 0x24 PUSH0 REVERT JUMPDEST PUSH0 PUSH2 0x41E7 DUP3 PUSH2 0x41A7 JUMP JUMPDEST SWAP2 POP PUSH2 0x41F2 DUP4 PUSH2 0x41A7 JUMP JUMPDEST SWAP3 POP DUP3 PUSH2 0x4202 JUMPI PUSH2 0x4201 PUSH2 0x41B0 JUMP JUMPDEST JUMPDEST DUP3 DUP3 MOD SWAP1 POP SWAP3 SWAP2 POP POP JUMP JUMPDEST PUSH32 0x4E487B7100000000000000000000000000000000000000000000000000000000 PUSH0 MSTORE PUSH1 0x11 PUSH1 0x4 MSTORE PUSH1 0x24 PUSH0 REVERT JUMPDEST PUSH0 PUSH2 0x4244 DUP3 PUSH2 0x41A7 JUMP JUMPDEST SWAP2 POP PUSH2 0x424F DUP4 PUSH2 0x41A7 JUMP JUMPDEST SWAP3 POP DUP3 DUP3 SUB SWAP1 POP DUP2 DUP2 GT ISZERO PUSH2 0x4267 JUMPI PUSH2 0x4266 PUSH2 0x420D JUMP JUMPDEST JUMPDEST SWAP3 SWAP2 POP POP JUMP JUMPDEST PUSH0 DUP2 SWAP1 POP SWAP3 SWAP2 POP POP JUMP JUMPDEST PUSH0 PUSH2 0x4281 DUP3 PUSH2 0x3D90 JUMP JUMPDEST PUSH2 0x428B DUP2 DUP6 PUSH2 0x426D JUMP JUMPDEST SWAP4 POP PUSH2 0x429B DUP2 DUP6 PUSH1 0x20 DUP7 ADD PUSH2 0x3DAA JUMP JUMPDEST DUP1 DUP5 ADD SWAP2 POP POP SWAP3 SWAP2 POP POP JUMP JUMPDEST PUSH0 DUP2 MSTORE POP JUMP JUMPDEST PUSH0 PUSH2 0x42B8 DUP3 DUP5 PUSH2 0x4277 JUMP JUMPDEST SWAP2 POP PUSH2 0x42C3 DUP3 PUSH2 0x42A7 JUMP JUMPDEST PUSH1 0x1 DUP3 ADD SWAP2 POP DUP2 SWAP1 POP SWAP3 SWAP2 POP POP JUMP JUMPDEST PUSH0 PUSH2 0x42DD DUP3 DUP6 PUSH2 0x4277 JUMP JUMPDEST SWAP2 POP PUSH2 0x42E9 DUP3 DUP5 PUSH2 0x4277 JUMP JUMPDEST SWAP2 POP DUP2 SWAP1 POP SWAP4 SWAP3 POP POP POP JUMP JUMPDEST PUSH0 PUSH2 0x42FF DUP3 PUSH2 0x41A7 JUMP JUMPDEST SWAP2 POP PUSH2 0x430A DUP4 PUSH2 0x41A7 JUMP JUMPDEST SWAP3 POP DUP3 PUSH2 0x431A JUMPI PUSH2 0x4319 PUSH2 0x41B0 JUMP JUMPDEST JUMPDEST DUP3 DUP3 DIV SWAP1 POP SWAP3 SWAP2 POP POP JUMP JUMPDEST PUSH0 PUSH2 0x432F DUP3 PUSH2 0x41A7 JUMP JUMPDEST SWAP2 POP PUSH2 0x433A DUP4 PUSH2 0x41A7 JUMP JUMPDEST SWAP3 POP DUP3 DUP3 MUL PUSH2 0x4348 DUP2 PUSH2 0x41A7 JUMP JUMPDEST SWAP2 POP DUP3 DUP3 DIV DUP5 EQ DUP4 ISZERO OR PUSH2 0x435F JUMPI PUSH2 0x435E PUSH2 0x420D JUMP JUMPDEST JUMPDEST POP SWAP3 SWAP2 POP POP JUMP JUMPDEST PUSH0 DUP2 SWAP1 POP PUSH1 0x20 DUP3 ADD SWAP1 POP SWAP2 SWAP1 POP JUMP JUMPDEST PUSH0 PUSH32 0xFFFFFFFFFFFFFFFFFFFFFFFFFFFFFFFF00000000000000000000000000000000 DUP3 AND SWAP1 POP SWAP2 SWAP1 POP JUMP JUMPDEST PUSH0 PUSH2 0x43AB DUP3 MLOAD PUSH2 0x4375 JUMP JUMPDEST DUP1 SWAP2 POP POP SWAP2 SWAP1 POP JUMP JUMPDEST PUSH0 DUP3 DUP3 SHL SWAP1 POP SWAP3 SWAP2 POP POP JUMP JUMPDEST PUSH0 PUSH2 0x43CA DUP3 PUSH2 0x3D90 JUMP JUMPDEST DUP3 PUSH2 0x43D4 DUP5 PUSH2 0x4366 JUMP JUMPDEST SWAP1 POP PUSH2 0x43DF DUP2 PUSH2 0x43A0 JUMP JUMPDEST SWAP3 POP PUSH1 0x10 DUP3 LT ISZERO PUSH2 0x441F JUMPI PUSH2 0x441A PUSH32 0xFFFFFFFFFFFFFFFFFFFFFFFFFFFFFFFF00000000000000000000000000000000 DUP4 PUSH1 0x10 SUB PUSH1 0x8 MUL PUSH2 0x43B4 JUMP JUMPDEST DUP4 AND SWAP3 POP JUMPDEST POP POP SWAP2 SWAP1 POP JUMP JUMPDEST PUSH32 0x4E487B7100000000000000000000000000000000000000000000000000000000 PUSH0 MSTORE PUSH1 0x32 PUSH1 0x4 MSTORE PUSH1 0x24 PUSH0 REVERT JUMPDEST PUSH0 PUSH2 0x445D DUP3 PUSH2 0x41A7 JUMP JUMPDEST SWAP2 POP PUSH2 0x4468 DUP4 PUSH2 0x41A7 JUMP JUMPDEST SWAP3 POP DUP3 DUP3 ADD SWAP1 POP DUP1 DUP3 GT ISZERO PUSH2 0x4480 JUMPI PUSH2 0x447F PUSH2 0x420D JUMP JUMPDEST JUMPDEST SWAP3 SWAP2 POP POP JUMP JUMPDEST PUSH0 PUSH2 0x4490 DUP3 PUSH2 0x3BC4 JUMP JUMPDEST SWAP2 POP PUSH2 0x449B DUP4 PUSH2 0x3BC4 JUMP JUMPDEST SWAP3 POP DUP3 DUP3 ADD SWAP1 POP PUSH16 0xFFFFFFFFFFFFFFFFFFFFFFFFFFFFFFFF DUP2 GT ISZERO PUSH2 0x44C3 JUMPI PUSH2 0x44C2 PUSH2 0x420D JUMP JUMPDEST JUMPDEST SWAP3 SWAP2 POP POP JUMP JUMPDEST PUSH0 DUP3 DUP3 MSTORE PUSH1 0x20 DUP3 ADD SWAP1 POP SWAP3 SWAP2 POP POP JUMP JUMPDEST PUSH32 0x696E76616C696420617574682074616700000000000000000000000000000000 PUSH0 DUP3 ADD MSTORE POP JUMP JUMPDEST PUSH0 PUSH2 0x450D PUSH1 0x10 DUP4 PUSH2 0x44C9 JUMP JUMPDEST SWAP2 POP PUSH2 0x4518 DUP3 PUSH2 0x44D9 JUMP JUMPDEST PUSH1 0x20 DUP3 ADD SWAP1 POP SWAP2 SWAP1 POP JUMP JUMPDEST PUSH0 PUSH1 0x20 DUP3 ADD SWAP1 POP DUP2 DUP2 SUB PUSH0 DUP4 ADD MSTORE PUSH2 0x453A DUP2 PUSH2 0x4501 JUMP JUMPDEST SWAP1 POP SWAP2 SWAP1 POP JUMP JUMPDEST PUSH0 PUSH2 0x454B DUP3 PUSH2 0x3BC4 JUMP JUMPDEST SWAP2 POP PUSH16 0xFFFFFFFFFFFFFFFFFFFFFFFFFFFFFFFF DUP3 SUB PUSH2 0x456D JUMPI PUSH2 0x456C PUSH2 0x420D JUMP JUMPDEST JUMPDEST PUSH1 0x1 DUP3 ADD SWAP1 POP SWAP2 SWAP1 POP JUMP JUMPDEST PUSH0 DUP2 SWAP1 POP SWAP2 SWAP1 POP JUMP JUMPDEST PUSH2 0x4592 PUSH2 0x458D DUP3 PUSH2 0x4375 JUMP JUMPDEST PUSH2 0x4578 JUMP JUMPDEST DUP3 MSTORE POP POP JUMP JUMPDEST PUSH0 PUSH2 0x45A3 DUP3 DUP5 PUSH2 0x4581 JUMP JUMPDEST PUSH1 0x10 DUP3 ADD SWAP2 POP DUP2 SWAP1 POP SWAP3 SWAP2 POP POP JUMP JUMPDEST PUSH0 DUP2 PUSH1 0x80 SHL SWAP1 POP SWAP2 SWAP1 POP JUMP JUMPDEST PUSH0 PUSH2 0x45C8 DUP3 PUSH2 0x45B2 JUMP JUMPDEST SWAP1 POP SWAP2 SWAP1 POP JUMP JUMPDEST PUSH2 0x45E0 PUSH2 0x45DB DUP3 PUSH2 0x3BC4 JUMP JUMPDEST PUSH2 0x45BE JUMP JUMPDEST DUP3 MSTORE POP POP JUMP JUMPDEST PUSH0 PUSH2 0x45F1 DUP3 DUP5 PUSH2 0x45CF JUMP JUMPDEST PUSH1 0x10 DUP3 ADD SWAP2 POP DUP2 SWAP1 POP SWAP3 SWAP2 POP POP JUMP JUMPDEST PUSH0 PUSH2 0x460A DUP3 PUSH2 0x41A7 JUMP JUMPDEST SWAP2 POP PUSH0 DUP3 SUB PUSH2 0x461C JUMPI PUSH2 0x461B PUSH2 0x420D JUMP JUMPDEST JUMPDEST PUSH1 0x1 DUP3 SUB SWAP1 POP SWAP2 SWAP1 POP JUMP JUMPDEST PUSH0 PUSH2 0x4631 DUP3 PUSH2 0x41A7 JUMP JUMPDEST SWAP2 POP PUSH32 0xFFFFFFFFFFFFFFFFFFFFFFFFFFFFFFFFFFFFFFFFFFFFFFFFFFFFFFFFFFFFFFFF DUP3 SUB PUSH2 0x4663 JUMPI PUSH2 0x4662 PUSH2 0x420D JUMP JUMPDEST JUMPDEST PUSH1 0x1 DUP3 ADD SWAP1 POP SWAP2 SWAP1 POP JUMP JUMPDEST PUSH32 0x736C6963655F6F766572666C6F77000000000000000000000000000000000000 PUSH0 DUP3 ADD MSTORE POP JUMP JUMPDEST PUSH0 PUSH2 0x46A2 PUSH1 0xE DUP4 PUSH2 0x44C9 JUMP JUMPDEST SWAP2 POP PUSH2 0x46AD DUP3 PUSH2 0x466E JUMP JUMPDEST PUSH1 0x20 DUP3 ADD SWAP1 POP SWAP2 SWAP1 POP JUMP JUMPDEST PUSH0 PUSH1 0x20 DUP3 ADD SWAP1 POP DUP2 DUP2 SUB PUSH0 DUP4 ADD MSTORE PUSH2 0x46CF DUP2 PUSH2 0x4696 JUMP JUMPDEST SWAP1 POP SWAP2 SWAP1 POP JUMP JUMPDEST PUSH32 0x736C6963655F6F75744F66426F756E6473000000000000000000000000000000 PUSH0 DUP3 ADD MSTORE POP JUMP JUMPDEST PUSH0 PUSH2 0x470A PUSH1 0x11 DUP4 PUSH2 0x44C9 JUMP JUMPDEST SWAP2 POP PUSH2 0x4715 DUP3 PUSH2 0x46D6 JUMP JUMPDEST PUSH1 0x20 DUP3 ADD SWAP1 POP SWAP2 SWAP1 POP JUMP JUMPDEST PUSH0 PUSH1 0x20 DUP3 ADD SWAP1 POP DUP2 DUP2 SUB PUSH0 DUP4 ADD MSTORE PUSH2 0x4737 DUP2 PUSH2 0x46FE JUMP JUMPDEST SWAP1 POP SWAP2 SWAP1 POP JUMP JUMPDEST PUSH2 0x4747 DUP2 PUSH2 0x41A7 JUMP JUMPDEST DUP3 MSTORE POP POP JUMP JUMPDEST PUSH0 PUSH1 0x20 DUP3 ADD SWAP1 POP PUSH2 0x4760 PUSH0 DUP4 ADD DUP5 PUSH2 0x473E JUMP JUMPDEST SWAP3 SWAP2 POP POP JUMP JUMPDEST PUSH0 PUSH2 0xFFFF DUP3 AND SWAP1 POP SWAP2 SWAP1 POP JUMP JUMPDEST PUSH0 PUSH2 0x477D DUP3 PUSH2 0x4766 JUMP JUMPDEST SWAP2 POP PUSH2 0x4788 DUP4 PUSH2 0x4766 JUMP JUMPDEST SWAP3 POP DUP3 DUP3 ADD SWAP1 POP PUSH2 0xFFFF DUP2 GT ISZERO PUSH2 0x47A2 JUMPI PUSH2 0x47A1 PUSH2 0x420D JUMP JUMPDEST JUMPDEST SWAP3 SWAP2 POP POP JUMP JUMPDEST PUSH0 PUSH2 0x47B2 DUP3 PUSH2 0x4766 JUMP JUMPDEST SWAP2 POP PUSH2 0x47BD DUP4 PUSH2 0x4766 JUMP JUMPDEST SWAP3 POP DUP3 PUSH2 0x47CD JUMPI PUSH2 0x47CC PUSH2 0x41B0 JUMP JUMPDEST JUMPDEST DUP3 DUP3 MOD SWAP1 POP SWAP3 SWAP2 POP POP JUMP JUMPDEST PUSH32 0x4E487B7100000000000000000000000000000000000000000000000000000000 PUSH0 MSTORE PUSH1 0x51 PUSH1 0x4 MSTORE PUSH1 0x24 PUSH0 REVERT INVALID LOG2 PUSH5 0x6970667358 0x22 SLT KECCAK256 MSIZE RETURNDATASIZE GAS CREATE2 0xDF 0xF8 0xCC SHL SWAP1 0x21 0xF SMOD STOP PUSH6 0x70CB0ED5200C 0xEC 0xCA 0xC PUSH1 0xE5 PUSH19 0x64CDBB1819BA64736F6C634300081A00330000 "
		},
		"gasEstimates": {
			"creation": {
				"codeDepositCost": "3698200",
				"executionCost": "infinite",
				"totalCost": "infinite"
			},
			"external": {
				"aes_dec(uint8[16],uint8[16])": "infinite",
				"aes_enc(uint8[16],uint8[16])": "infinite",
				"aes_gcm_dec(bytes,bytes,bytes,bytes,bytes)": "infinite",
				"bytes_to_uint128_array_w_padding(bytes)": "infinite",
				"uint128_array_to_bytes(uint128[])": "infinite",
				"uint128_to_uint8_array(uint128)": "infinite",
				"uint8_array_to_uint128(uint8[16])": "infinite"
			},
			"internal": {
				"add_round_key(uint8[4] memory[4] memory,uint8[4] memory[4] memory)": "infinite",
				"expand_key(uint8[16] memory)": "infinite",
				"gal_mul(uint8,uint8)": "infinite",
				"inv_mix_columns(uint8[4] memory[4] memory)": "infinite",
				"inv_shift_rows(uint8[4] memory[4] memory)": "infinite",
				"inv_sub_state(uint8[4] memory[4] memory)": "infinite",
				"mix_columns(uint8[4] memory[4] memory)": "infinite",
				"rot_word(uint8[4] memory)": "infinite",
				"shift_rows(uint8[4] memory[4] memory)": "infinite",
				"sub_state(uint8[4] memory[4] memory)": "infinite",
				"sub_word(uint8[4] memory)": "infinite"
			}
		},
		"methodIdentifiers": {
			"aes_dec(uint8[16],uint8[16])": "4dd76c8a",
			"aes_enc(uint8[16],uint8[16])": "6b71a846",
			"aes_gcm_dec(bytes,bytes,bytes,bytes,bytes)": "1798a240",
			"bytes_to_uint128_array_w_padding(bytes)": "06f4a01c",
			"uint128_array_to_bytes(uint128[])": "3a0e6be2",
			"uint128_to_uint8_array(uint128)": "93a4014e",
			"uint8_array_to_uint128(uint8[16])": "75f9a137"
		}
	},
	"abi": [
		{
			"inputs": [
				{
					"internalType": "uint8[16]",
					"name": "cipher",
					"type": "uint8[16]"
				},
				{
					"internalType": "uint8[16]",
					"name": "key",
					"type": "uint8[16]"
				}
			],
			"name": "aes_dec",
			"outputs": [
				{
					"internalType": "uint8[16]",
					"name": "",
					"type": "uint8[16]"
				}
			],
			"stateMutability": "view",
			"type": "function"
		},
		{
			"inputs": [
				{
					"internalType": "uint8[16]",
					"name": "plain",
					"type": "uint8[16]"
				},
				{
					"internalType": "uint8[16]",
					"name": "key",
					"type": "uint8[16]"
				}
			],
			"name": "aes_enc",
			"outputs": [
				{
					"internalType": "uint8[16]",
					"name": "",
					"type": "uint8[16]"
				}
			],
			"stateMutability": "view",
			"type": "function"
		},
		{
			"inputs": [
				{
					"internalType": "bytes",
					"name": "cipher",
					"type": "bytes"
				},
				{
					"internalType": "bytes",
					"name": "key",
					"type": "bytes"
				},
				{
					"internalType": "bytes",
					"name": "iv",
					"type": "bytes"
				},
				{
					"internalType": "bytes",
					"name": "auth_data",
					"type": "bytes"
				},
				{
					"internalType": "bytes",
					"name": "auth_tag",
					"type": "bytes"
				}
			],
			"name": "aes_gcm_dec",
			"outputs": [
				{
					"internalType": "bytes",
					"name": "plain",
					"type": "bytes"
				}
			],
			"stateMutability": "view",
			"type": "function"
		},
		{
			"inputs": [
				{
					"internalType": "bytes",
					"name": "in_bytes",
					"type": "bytes"
				}
			],
			"name": "bytes_to_uint128_array_w_padding",
			"outputs": [
				{
					"internalType": "uint128[]",
					"name": "",
					"type": "uint128[]"
				}
			],
			"stateMutability": "pure",
			"type": "function"
		},
		{
			"inputs": [
				{
					"internalType": "uint128[]",
					"name": "uint128_array",
					"type": "uint128[]"
				}
			],
			"name": "uint128_array_to_bytes",
			"outputs": [
				{
					"internalType": "bytes",
					"name": "",
					"type": "bytes"
				}
			],
			"stateMutability": "pure",
			"type": "function"
		},
		{
			"inputs": [
				{
					"internalType": "uint128",
					"name": "num",
					"type": "uint128"
				}
			],
			"name": "uint128_to_uint8_array",
			"outputs": [
				{
					"internalType": "uint8[16]",
					"name": "array",
					"type": "uint8[16]"
				}
			],
			"stateMutability": "pure",
			"type": "function"
		},
		{
			"inputs": [
				{
					"internalType": "uint8[16]",
					"name": "uint8_array",
					"type": "uint8[16]"
				}
			],
			"name": "uint8_array_to_uint128",
			"outputs": [
				{
					"internalType": "uint128",
					"name": "",
					"type": "uint128"
				}
			],
			"stateMutability": "pure",
			"type": "function"
		}
	]
}