{
	"data": {
		"bytecode": {
			"linkReferences": {},
			"object": "6080604052604051806101600160405280608d60ff168152602001600160ff168152602001600260ff168152602001600460ff168152602001600860ff168152602001601060ff168152602001602060ff168152602001604060ff168152602001608060ff168152602001601b60ff168152602001603660ff168152505f90600b61008b929190612906565b50604051806120000160405280606360ff168152602001607c60ff168152602001607760ff168152602001607b60ff16815260200160f260ff168152602001606b60ff168152602001606f60ff16815260200160c560ff168152602001603060ff168152602001600160ff168152602001606760ff168152602001602b60ff16815260200160fe60ff16815260200160d760ff16815260200160ab60ff168152602001607660ff16815260200160ca60ff168152602001608260ff16815260200160c960ff168152602001607d60ff16815260200160fa60ff168152602001605960ff168152602001604760ff16815260200160f060ff16815260200160ad60ff16815260200160d460ff16815260200160a260ff16815260200160af60ff168152602001609c60ff16815260200160a460ff168152602001607260ff16815260200160c060ff16815260200160b760ff16815260200160fd60ff168152602001609360ff168152602001602660ff168152602001603660ff168152602001603f60ff16815260200160f760ff16815260200160cc60ff168152602001603460ff16815260200160a560ff16815260200160e560ff16815260200160f160ff168152602001607160ff16815260200160d860ff168152602001603160ff168152602001601560ff168152602001600460ff16815260200160c760ff168152602001602360ff16815260200160c360ff168152602001601860ff168152602001609660ff168152602001600560ff168152602001609a60ff168152602001600760ff168152602001601260ff168152602001608060ff16815260200160e260ff16815260200160eb60ff168152602001602760ff16815260200160b260ff168152602001607560ff168152602001600960ff168152602001608360ff168152602001602c60ff168152602001601a60ff168152602001601b60ff168152602001606e60ff168152602001605a60ff16815260200160a060ff168152602001605260ff168152602001603b60ff16815260200160d660ff16815260200160b360ff168152602001602960ff16815260200160e360ff168152602001602f60ff168152602001608460ff168152602001605360ff16815260200160d160ff1681526020015f60ff16815260200160ed60ff168152602001602060ff16815260200160fc60ff16815260200160b160ff168152602001605b60ff168152602001606a60ff16815260200160cb60ff16815260200160be60ff168152602001603960ff168152602001604a60ff168152602001604c60ff168152602001605860ff16815260200160cf60ff16815260200160d060ff16815260200160ef60ff16815260200160aa60ff16815260200160fb60ff168152602001604360ff168152602001604d60ff168152602001603360ff168152602001608560ff168152602001604560ff16815260200160f960ff168152602001600260ff168152602001607f60ff168152602001605060ff168152602001603c60ff168152602001609f60ff16815260200160a860ff168152602001605160ff16815260200160a360ff168152602001604060ff168152602001608f60ff168152602001609260ff168152602001609d60ff168152602001603860ff16815260200160f560ff16815260200160bc60ff16815260200160b660ff16815260200160da60ff168152602001602160ff168152602001601060ff16815260200160ff8016815260200160f360ff16815260200160d260ff16815260200160cd60ff168152602001600c60ff168152602001601360ff16815260200160ec60ff168152602001605f60ff168152602001609760ff168152602001604460ff168152602001601760ff16815260200160c460ff16815260200160a760ff168152602001607e60ff168152602001603d60ff168152602001606460ff168152602001605d60ff168152602001601960ff168152602001607360ff168152602001606060ff168152602001608160ff168152602001604f60ff16815260200160dc60ff168152602001602260ff168152602001602a60ff168152602001609060ff168152602001608860ff168152602001604660ff16815260200160ee60ff16815260200160b860ff168152602001601460ff16815260200160de60ff168152602001605e60ff168152602001600b60ff16815260200160db60ff16815260200160e060ff168152602001603260ff168152602001603a60ff168152602001600a60ff168152602001604960ff168152602001600660ff168152602001602460ff168152602001605c60ff16815260200160c260ff16815260200160d360ff16815260200160ac60ff168152602001606260ff168152602001609160ff168152602001609560ff16815260200160e460ff168152602001607960ff16815260200160e760ff16815260200160c860ff168152602001603760ff168152602001606d60ff168152602001608d60ff16815260200160d560ff168152602001604e60ff16815260200160a960ff168152602001606c60ff168152602001605660ff16815260200160f460ff16815260200160ea60ff168152602001606560ff168152602001607a60ff16815260200160ae60ff168152602001600860ff16815260200160ba60ff168152602001607860ff168152602001602560ff168152602001602e60ff168152602001601c60ff16815260200160a660ff16815260200160b460ff16815260200160c660ff16815260200160e860ff16815260200160dd60ff168152602001607460ff168152602001601f60ff168152602001604b60ff16815260200160bd60ff168152602001608b60ff168152602001608a60ff168152602001607060ff168152602001603e60ff16815260200160b560ff168152602001606660ff168152602001604860ff168152602001600360ff16815260200160f660ff168152602001600e60ff168152602001606160ff168152602001603560ff168152602001605760ff16815260200160b960ff168152602001608660ff16815260200160c160ff168152602001601d60ff168152602001609e60ff16815260200160e160ff16815260200160f860ff168152602001609860ff168152602001601160ff168152602001606960ff16815260200160d960ff168152602001608e60ff168152602001609460ff168152602001609b60ff168152602001601e60ff168152602001608760ff16815260200160e960ff16815260200160ce60ff168152602001605560ff168152602001602860ff16815260200160df60ff168152602001608c60ff16815260200160a160ff168152602001608960ff168152602001600d60ff16815260200160bf60ff16815260200160e660ff168152602001604260ff168152602001606860ff168152602001604160ff168152602001609960ff168152602001602d60ff168152602001600f60ff16815260200160b060ff168152602001605460ff16815260200160bb60ff168152602001601660ff16815250600190610100610aa592919061299d565b50604051806120000160405280605260ff168152602001600960ff168152602001606a60ff16815260200160d560ff168152602001603060ff168152602001603660ff16815260200160a560ff168152602001603860ff16815260200160bf60ff168152602001604060ff16815260200160a360ff168152602001609e60ff168152602001608160ff16815260200160f360ff16815260200160d760ff16815260200160fb60ff168152602001607c60ff16815260200160e360ff168152602001603960ff168152602001608260ff168152602001609b60ff168152602001602f60ff16815260200160ff80168152602001608760ff168152602001603460ff168152602001608e60ff168152602001604360ff168152602001604460ff16815260200160c460ff16815260200160de60ff16815260200160e960ff16815260200160cb60ff168152602001605460ff168152602001607b60ff168152602001609460ff168152602001603260ff16815260200160a660ff16815260200160c260ff168152602001602360ff168152602001603d60ff16815260200160ee60ff168152602001604c60ff168152602001609560ff168152602001600b60ff168152602001604260ff16815260200160fa60ff16815260200160c360ff168152602001604e60ff168152602001600860ff168152602001602e60ff16815260200160a160ff168152602001606660ff168152602001602860ff16815260200160d960ff168152602001602460ff16815260200160b260ff168152602001607660ff168152602001605b60ff16815260200160a260ff168152602001604960ff168152602001606d60ff168152602001608b60ff16815260200160d160ff168152602001602560ff168152602001607260ff16815260200160f860ff16815260200160f660ff168152602001606460ff168152602001608660ff168152602001606860ff168152602001609860ff168152602001601660ff16815260200160d460ff16815260200160a460ff168152602001605c60ff16815260200160cc60ff168152602001605d60ff168152602001606560ff16815260200160b660ff168152602001609260ff168152602001606c60ff168152602001607060ff168152602001604860ff168152602001605060ff16815260200160fd60ff16815260200160ed60ff16815260200160b960ff16815260200160da60ff168152602001605e60ff168152602001601560ff168152602001604660ff168152602001605760ff16815260200160a760ff168152602001608d60ff168152602001609d60ff168152602001608460ff168152602001609060ff16815260200160d860ff16815260200160ab60ff1681526020015f60ff168152602001608c60ff16815260200160bc60ff16815260200160d360ff168152602001600a60ff16815260200160f760ff16815260200160e460ff168152602001605860ff168152602001600560ff16815260200160b860ff16815260200160b360ff168152602001604560ff168152602001600660ff16815260200160d060ff168152602001602c60ff168152602001601e60ff168152602001608f60ff16815260200160ca60ff168152602001603f60ff168152602001600f60ff168152602001600260ff16815260200160c160ff16815260200160af60ff16815260200160bd60ff168152602001600360ff168152602001600160ff168152602001601360ff168152602001608a60ff168152602001606b60ff168152602001603a60ff168152602001609160ff168152602001601160ff168152602001604160ff168152602001604f60ff168152602001606760ff16815260200160dc60ff16815260200160ea60ff168152602001609760ff16815260200160f260ff16815260200160cf60ff16815260200160ce60ff16815260200160f060ff16815260200160b460ff16815260200160e660ff168152602001607360ff168152602001609660ff16815260200160ac60ff168152602001607460ff168152602001602260ff16815260200160e760ff16815260200160ad60ff168152602001603560ff168152602001608560ff16815260200160e260ff16815260200160f960ff168152602001603760ff16815260200160e860ff168152602001601c60ff168152602001607560ff16815260200160df60ff168152602001606e60ff168152602001604760ff16815260200160f160ff168152602001601a60ff168152602001607160ff168152602001601d60ff168152602001602960ff16815260200160c560ff168152602001608960ff168152602001606f60ff16815260200160b760ff168152602001606260ff168152602001600e60ff16815260200160aa60ff168152602001601860ff16815260200160be60ff168152602001601b60ff16815260200160fc60ff168152602001605660ff168152602001603e60ff168152602001604b60ff16815260200160c660ff16815260200160d260ff168152602001607960ff168152602001602060ff168152602001609a60ff16815260200160db60ff16815260200160c060ff16815260200160fe60ff168152602001607860ff16815260200160cd60ff168152602001605a60ff16815260200160f460ff168152602001601f60ff16815260200160dd60ff16815260200160a860ff168152602001603360ff168152602001608860ff168152602001600760ff16815260200160c760ff168152602001603160ff16815260200160b160ff168152602001601260ff168152602001601060ff168152602001605960ff168152602001602760ff168152602001608060ff16815260200160ec60ff168152602001605f60ff168152602001606060ff168152602001605160ff168152602001607f60ff16815260200160a960ff168152602001601960ff16815260200160b560ff168152602001604a60ff168152602001600d60ff168152602001602d60ff16815260200160e560ff168152602001607a60ff168152602001609f60ff168152602001609360ff16815260200160c960ff168152602001609c60ff16815260200160ef60ff16815260200160a060ff16815260200160e060ff168152602001603b60ff168152602001604d60ff16815260200160ae60ff168152602001602a60ff16815260200160f560ff16815260200160b060ff16815260200160c860ff16815260200160eb60ff16815260200160bb60ff168152602001603c60ff168152602001608360ff168152602001605360ff168152602001609960ff168152602001606160ff168152602001601760ff168152602001602b60ff168152602001600460ff168152602001607e60ff16815260200160ba60ff168152602001607760ff16815260200160d660ff168152602001602660ff16815260200160e160ff168152602001606960ff168152602001601460ff168152602001606360ff168152602001605560ff168152602001602160ff168152602001600c60ff168152602001607d60ff168152506009906101006114bf92919061299d565b506040518061200001604052805f60ff1681526020015f60ff16815260200160c860ff168152602001600860ff168152602001609160ff168152602001601060ff16815260200160d060ff168152602001603660ff168152602001605a60ff168152602001603e60ff16815260200160d860ff168152602001604360ff168152602001609960ff168152602001607760ff16815260200160fe60ff168152602001601860ff168152602001602360ff168152602001602060ff168152602001600760ff168152602001607060ff16815260200160a160ff168152602001606c60ff168152602001600c60ff168152602001607f60ff168152602001606260ff168152602001608b60ff168152602001604060ff168152602001604660ff16815260200160c760ff168152602001604b60ff16815260200160e060ff168152602001600e60ff16815260200160eb60ff168152602001601660ff16815260200160e860ff16815260200160ad60ff16815260200160cf60ff16815260200160cd60ff168152602001603960ff168152602001605360ff168152602001606a60ff168152602001602760ff168152602001603560ff168152602001609360ff16815260200160d460ff168152602001604e60ff168152602001604860ff16815260200160c360ff168152602001602b60ff168152602001607960ff168152602001605460ff168152602001602860ff168152602001600960ff168152602001607860ff168152602001600f60ff168152602001602160ff168152602001609060ff168152602001608760ff168152602001601460ff168152602001602a60ff16815260200160a960ff168152602001609c60ff16815260200160d660ff168152602001607460ff16815260200160b460ff168152602001607c60ff16815260200160de60ff16815260200160ed60ff16815260200160b160ff168152602001608660ff168152602001607660ff16815260200160a460ff168152602001609860ff16815260200160e260ff168152602001609660ff168152602001608f60ff168152602001600260ff168152602001603260ff168152602001601c60ff16815260200160c160ff168152602001603360ff16815260200160ee60ff16815260200160ef60ff168152602001608160ff16815260200160fd60ff168152602001603060ff168152602001605c60ff168152602001601360ff168152602001609d60ff168152602001602960ff168152602001601760ff16815260200160c460ff168152602001601160ff168152602001604460ff168152602001608c60ff168152602001608060ff16815260200160f360ff168152602001607360ff168152602001604260ff168152602001601e60ff168152602001601d60ff16815260200160b560ff16815260200160f060ff168152602001601260ff16815260200160d160ff168152602001605b60ff168152602001604160ff16815260200160a260ff16815260200160d760ff168152602001602c60ff16815260200160e960ff16815260200160d560ff168152602001605960ff16815260200160cb60ff168152602001605060ff16815260200160a860ff16815260200160dc60ff16815260200160fc60ff16815260200160f260ff168152602001605660ff168152602001607260ff16815260200160a660ff168152602001606560ff168152602001602f60ff168152602001609f60ff168152602001609b60ff168152602001603d60ff16815260200160ba60ff168152602001607d60ff16815260200160c260ff168152602001604560ff168152602001608260ff16815260200160a760ff168152602001605760ff16815260200160b660ff16815260200160a360ff168152602001607a60ff168152602001607560ff168152602001604f60ff16815260200160ae60ff168152602001603f60ff168152602001603760ff168152602001606d60ff168152602001604760ff168152602001606160ff16815260200160be60ff16815260200160ab60ff16815260200160d360ff168152602001605f60ff16815260200160b060ff168152602001605860ff16815260200160af60ff16815260200160ca60ff168152602001605e60ff16815260200160fa60ff168152602001608560ff16815260200160e460ff168152602001604d60ff168152602001608a60ff168152602001600560ff16815260200160fb60ff168152602001606060ff16815260200160b760ff168152602001607b60ff16815260200160b860ff168152602001602660ff168152602001604a60ff168152602001606760ff16815260200160c660ff168152602001601a60ff16815260200160f860ff168152602001606960ff168152602001602560ff16815260200160b360ff16815260200160db60ff16815260200160bd60ff168152602001606660ff16815260200160dd60ff16815260200160f160ff16815260200160d260ff16815260200160df60ff168152602001600360ff168152602001608d60ff168152602001603460ff16815260200160d960ff168152602001609260ff168152602001600d60ff168152602001606360ff168152602001605560ff16815260200160aa60ff168152602001604960ff16815260200160ec60ff16815260200160bc60ff168152602001609560ff168152602001603c60ff168152602001608460ff168152602001600b60ff16815260200160f560ff16815260200160e660ff16815260200160e760ff16815260200160e560ff16815260200160ac60ff168152602001607e60ff168152602001606e60ff16815260200160b960ff16815260200160f960ff16815260200160da60ff168152602001608e60ff168152602001609a60ff16815260200160c960ff168152602001602460ff16815260200160e160ff168152602001600a60ff168152602001601560ff168152602001606b60ff168152602001603a60ff16815260200160a060ff168152602001605160ff16815260200160f460ff16815260200160ea60ff16815260200160b260ff168152602001609760ff168152602001609e60ff168152602001605d60ff168152602001602260ff168152602001608860ff168152602001609460ff16815260200160ce60ff168152602001601960ff168152602001600160ff168152602001607160ff168152602001604c60ff16815260200160a560ff16815260200160e360ff16815260200160c560ff168152602001603160ff16815260200160bb60ff16815260200160cc60ff168152602001601f60ff168152602001602d60ff168152602001603b60ff168152602001605260ff168152602001606f60ff16815260200160f660ff168152602001602e60ff168152602001608960ff16815260200160f760ff16815260200160c060ff168152602001606860ff168152602001601b60ff168152602001606460ff168152602001600460ff168152602001600660ff16815260200160bf60ff168152602001608360ff168152602001603860ff16815250601190610100611ed992919061299d565b50604051806120000160405280600160ff16815260200160e560ff168152602001604c60ff16815260200160b560ff16815260200160fb60ff168152602001609f60ff16815260200160fc60ff168152602001601260ff168152602001600360ff168152602001603460ff16815260200160d460ff16815260200160c460ff168152602001601660ff16815260200160ba60ff168152602001601f60ff168152602001603660ff168152602001600560ff168152602001605c60ff168152602001606760ff168152602001605760ff168152602001603a60ff16815260200160d560ff168152602001602160ff168152602001605a60ff168152602001600f60ff16815260200160e460ff16815260200160a960ff16815260200160f960ff168152602001604e60ff168152602001606460ff168152602001606360ff16815260200160ee60ff168152602001601160ff168152602001603760ff16815260200160e060ff168152602001601060ff16815260200160d260ff16815260200160ac60ff16815260200160a560ff168152602001602960ff168152602001603360ff168152602001605960ff168152602001603b60ff168152602001603060ff168152602001606d60ff16815260200160ef60ff16815260200160f460ff168152602001607b60ff168152602001605560ff16815260200160eb60ff168152602001604d60ff168152602001605060ff16815260200160b760ff168152602001602a60ff168152602001600760ff168152602001608d60ff16815260200160ff80168152602001602660ff16815260200160d760ff16815260200160f060ff16815260200160c260ff168152602001607e60ff168152602001600960ff168152602001608c60ff168152602001601a60ff168152602001606a60ff168152602001606260ff168152602001600b60ff168152602001605d60ff168152602001608260ff168152602001601b60ff168152602001608f60ff168152602001602e60ff16815260200160be60ff16815260200160a660ff168152602001601d60ff16815260200160e760ff168152602001609d60ff168152602001602d60ff168152602001608a60ff168152602001607260ff16815260200160d960ff16815260200160f160ff168152602001602760ff168152602001603260ff16815260200160bc60ff168152602001607760ff168152602001608560ff168152602001609660ff168152602001607060ff168152602001600860ff168152602001606960ff168152602001605660ff16815260200160df60ff168152602001609960ff168152602001609460ff16815260200160a160ff168152602001609060ff168152602001601860ff16815260200160bb60ff16815260200160fa60ff168152602001607a60ff16815260200160b060ff16815260200160a760ff16815260200160f860ff16815260200160ab60ff168152602001602860ff16815260200160d660ff168152602001601560ff168152602001608e60ff16815260200160cb60ff16815260200160f260ff168152602001601360ff16815260200160e660ff168152602001607860ff168152602001606160ff168152602001603f60ff168152602001608960ff168152602001604660ff168152602001600d60ff168152602001603560ff168152602001603160ff168152602001608860ff16815260200160a360ff168152602001604160ff168152602001608060ff16815260200160ca60ff168152602001601760ff168152602001605f60ff168152602001605360ff168152602001608360ff16815260200160fe60ff16815260200160c360ff168152602001609b60ff168152602001604560ff168152602001603960ff16815260200160e160ff16815260200160f560ff168152602001609e60ff168152602001601960ff168152602001605e60ff16815260200160b660ff16815260200160cf60ff168152602001604b60ff168152602001603860ff168152602001600460ff16815260200160b960ff168152602001602b60ff16815260200160e260ff16815260200160c160ff168152602001604a60ff16815260200160dd60ff168152602001604860ff168152602001600c60ff16815260200160d060ff168152602001607d60ff168152602001603d60ff168152602001605860ff16815260200160de60ff168152602001607c60ff16815260200160d860ff168152602001601460ff168152602001606b60ff168152602001608760ff168152602001604760ff16815260200160e860ff168152602001607960ff168152602001608460ff168152602001607360ff168152602001603c60ff16815260200160bd60ff168152602001609260ff16815260200160c960ff168152602001602360ff168152602001608b60ff168152602001609760ff168152602001609560ff168152602001604460ff16815260200160dc60ff16815260200160ad60ff168152602001604060ff168152602001606560ff168152602001608660ff16815260200160a260ff16815260200160a460ff16815260200160cc60ff168152602001607f60ff16815260200160ec60ff16815260200160c060ff16815260200160af60ff168152602001609160ff16815260200160fd60ff16815260200160f760ff168152602001604f60ff168152602001608160ff168152602001602f60ff168152602001605b60ff16815260200160ea60ff16815260200160a860ff168152602001601c60ff168152602001600260ff16815260200160d160ff168152602001609860ff168152602001607160ff16815260200160ed60ff168152602001602560ff16815260200160e360ff168152602001602460ff168152602001600660ff168152602001606860ff16815260200160b360ff168152602001609360ff168152602001602c60ff168152602001606f60ff168152602001603e60ff168152602001606c60ff168152602001600a60ff16815260200160b860ff16815260200160ce60ff16815260200160ae60ff168152602001607460ff16815260200160b160ff168152602001604260ff16815260200160b460ff168152602001601e60ff16815260200160d360ff168152602001604960ff16815260200160e960ff168152602001609c60ff16815260200160c860ff16815260200160c660ff16815260200160c760ff168152602001602260ff168152602001606e60ff16815260200160db60ff168152602001602060ff16815260200160bf60ff168152602001604360ff168152602001605160ff168152602001605260ff168152602001606660ff16815260200160b260ff168152602001607660ff168152602001606060ff16815260200160da60ff16815260200160c560ff16815260200160f360ff16815260200160f660ff16815260200160aa60ff16815260200160cd60ff168152602001609a60ff16815260200160a060ff168152602001607560ff168152602001605460ff168152602001600e60ff168152602001600160ff168152506019906101006128f492919061299d565b50348015612900575f80fd5b50612a50565b82600b601f0160209004810192821561298c579160200282015f5b8382111561295e57835183826101000a81548160ff021916908360ff16021790555092602001926001016020815f01049283019260010302612921565b801561298a5782816101000a81549060ff02191690556001016020815f0104928301926001030261295e565b505b5090506129999190612a35565b5090565b82610100601f01602090048101928215612a24579160200282015f5b838211156129f657835183826101000a81548160ff021916908360ff16021790555092602001926001016020815f010492830192600103026129b9565b8015612a225782816101000a81549060ff02191690556001016020815f010492830192600103026129f6565b505b509050612a319190612a35565b5090565b5b80821115612a4c575f815f905550600101612a36565b5090565b6133ce80612a5d5f395ff3fe608060405234801561000f575f80fd5b5060043610610034575f3560e01c8063dc4f8a5814610038578063e007f90714610068575b5f80fd5b610052600480360381019061004d9190613022565b610098565b60405161005f9190613107565b60405180910390f35b610082600480360381019061007d9190613022565b6106cb565b60405161008f9190613107565b60405180910390f35b6100a0612e01565b5f60405180608001604052806040518060800160405280875f601081106100ca576100c9613121565b5b602002015160ff1660ff168152602001876004601081106100ee576100ed613121565b5b602002015160ff1660ff1681526020018760086010811061011257610111613121565b5b602002015160ff1660ff16815260200187600c6010811061013657610135613121565b5b602002015160ff1660ff16815250815260200160405180608001604052808760016010811061016857610167613121565b5b602002015160ff1660ff1681526020018760056010811061018c5761018b613121565b5b602002015160ff1660ff168152602001876009601081106101b0576101af613121565b5b602002015160ff1660ff16815260200187600d601081106101d4576101d3613121565b5b602002015160ff1660ff16815250815260200160405180608001604052808760026010811061020657610205613121565b5b602002015160ff1660ff1681526020018760066010811061022a57610229613121565b5b602002015160ff1660ff16815260200187600a6010811061024e5761024d613121565b5b602002015160ff1660ff16815260200187600e6010811061027257610271613121565b5b602002015160ff1660ff1681525081526020016040518060800160405280876003601081106102a4576102a3613121565b5b602002015160ff1660ff168152602001876007601081106102c8576102c7613121565b5b602002015160ff1660ff16815260200187600b601081106102ec576102eb613121565b5b602002015160ff1660ff16815260200187600f601081106103105761030f613121565b5b602002015160ff1660ff1681525081525090505f61032d84610cfe565b90505f6040518060800160405280836028602c811061034f5761034e613121565b5b60200201518152602001836029602c811061036d5761036c613121565b5b6020020151815260200183602a602c811061038b5761038a613121565b5b6020020151815260200183602b602c81106103a9576103a8613121565b5b602002015181525090506103bd83826114f2565b92505f600990505b600181106104e0576103d6846115cf565b93506103e18461190f565b93506040518060800160405280848360046103fc9190613184565b602c811061040d5761040c613121565b5b602002015181526020018460018460046104279190613184565b61043191906131c5565b602c811061044257610441613121565b5b6020020151815260200184600284600461045c9190613184565b61046691906131c5565b602c811061047757610476613121565b5b602002015181526020018460038460046104919190613184565b61049b91906131c5565b602c81106104ac576104ab613121565b5b602002015181525091506104c084836114f2565b93506104cb846119e8565b935080806104d8906131f8565b9150506103c5565b506104ea836115cf565b92506104f58361190f565b92506040518060800160405280835f602c811061051557610514613121565b5b60200201518152602001836001602c811061053357610532613121565b5b60200201518152602001836002602c811061055157610550613121565b5b60200201518152602001836003602c811061056f5761056e613121565b5b6020020151815250905061058383826114f2565b92505f6040518061020001604052805f60ff1681526020015f60ff1681526020015f60ff1681526020015f60ff1681526020015f60ff1681526020015f60ff1681526020015f60ff1681526020015f60ff1681526020015f60ff1681526020015f60ff1681526020015f60ff1681526020015f60ff1681526020015f60ff1681526020015f60ff1681526020015f60ff1681526020015f60ff1681525090505f5b60048110156106bd575f5b60048110156106af5785816004811061064b5761064a613121565b5b6020020151826004811061066257610661613121565b5b602002015183828460046106769190613184565b61068091906131c5565b6010811061069157610690613121565b5b602002019060ff16908160ff1681525050808060010191505061062f565b508080600101915050610624565b508094505050505092915050565b6106d3612e01565b5f60405180608001604052806040518060800160405280875f601081106106fd576106fc613121565b5b602002015160ff1660ff1681526020018760046010811061072157610720613121565b5b602002015160ff1660ff1681526020018760086010811061074557610744613121565b5b602002015160ff1660ff16815260200187600c6010811061076957610768613121565b5b602002015160ff1660ff16815250815260200160405180608001604052808760016010811061079b5761079a613121565b5b602002015160ff1660ff168152602001876005601081106107bf576107be613121565b5b602002015160ff1660ff168152602001876009601081106107e3576107e2613121565b5b602002015160ff1660ff16815260200187600d6010811061080757610806613121565b5b602002015160ff1660ff16815250815260200160405180608001604052808760026010811061083957610838613121565b5b602002015160ff1660ff1681526020018760066010811061085d5761085c613121565b5b602002015160ff1660ff16815260200187600a6010811061088157610880613121565b5b602002015160ff1660ff16815260200187600e601081106108a5576108a4613121565b5b602002015160ff1660ff1681525081526020016040518060800160405280876003601081106108d7576108d6613121565b5b602002015160ff1660ff168152602001876007601081106108fb576108fa613121565b5b602002015160ff1660ff16815260200187600b6010811061091f5761091e613121565b5b602002015160ff1660ff16815260200187600f6010811061094357610942613121565b5b602002015160ff1660ff1681525081525090505f61096084610cfe565b90505f6040518060800160405280835f602c811061098157610980613121565b5b60200201518152602001836001602c811061099f5761099e613121565b5b60200201518152602001836002602c81106109bd576109bc613121565b5b60200201518152602001836003602c81106109db576109da613121565b5b602002015181525090506109ef83826114f2565b92506109fa83612000565b9250610a05836120d9565b92505f600190505b60098111610b2857610a1e84612419565b9350604051806080016040528084836004610a399190613184565b602c8110610a4a57610a49613121565b5b60200201518152602001846001846004610a649190613184565b610a6e91906131c5565b602c8110610a7f57610a7e613121565b5b60200201518152602001846002846004610a999190613184565b610aa391906131c5565b602c8110610ab457610ab3613121565b5b60200201518152602001846003846004610ace9190613184565b610ad891906131c5565b602c8110610ae957610ae8613121565b5b60200201518152509150610afd84836114f2565b9350610b0884612000565b9350610b13846120d9565b93508080610b209061321f565b915050610a0d565b506040518060800160405280836028602c8110610b4857610b47613121565b5b60200201518152602001836029602c8110610b6657610b65613121565b5b6020020151815260200183602a602c8110610b8457610b83613121565b5b6020020151815260200183602b602c8110610ba257610ba1613121565b5b60200201518152509050610bb683826114f2565b92505f6040518061020001604052805f60ff1681526020015f60ff1681526020015f60ff1681526020015f60ff1681526020015f60ff1681526020015f60ff1681526020015f60ff1681526020015f60ff1681526020015f60ff1681526020015f60ff1681526020015f60ff1681526020015f60ff1681526020015f60ff1681526020015f60ff1681526020015f60ff1681526020015f60ff1681525090505f5b6004811015610cf0575f5b6004811015610ce257858160048110610c7e57610c7d613121565b5b60200201518260048110610c9557610c94613121565b5b60200201518382846004610ca99190613184565b610cb391906131c5565b60108110610cc457610cc3613121565b5b602002019060ff16908160ff16815250508080600101915050610c62565b508080600101915050610c57565b508094505050505092915050565b610d06612e24565b610d0e612e24565b825f60108110610d2157610d20613121565b5b6020020151815f602c8110610d3957610d38613121565b5b60200201515f60048110610d5057610d4f613121565b5b602002019060ff16908160ff168152505082600160108110610d7557610d74613121565b5b6020020151815f602c8110610d8d57610d8c613121565b5b6020020151600160048110610da557610da4613121565b5b602002019060ff16908160ff168152505082600260108110610dca57610dc9613121565b5b6020020151815f602c8110610de257610de1613121565b5b6020020151600260048110610dfa57610df9613121565b5b602002019060ff16908160ff168152505082600360108110610e1f57610e1e613121565b5b6020020151815f602c8110610e3757610e36613121565b5b6020020151600360048110610e4f57610e4e613121565b5b602002019060ff16908160ff168152505082600460108110610e7457610e73613121565b5b6020020151816001602c8110610e8d57610e8c613121565b5b60200201515f60048110610ea457610ea3613121565b5b602002019060ff16908160ff168152505082600560108110610ec957610ec8613121565b5b6020020151816001602c8110610ee257610ee1613121565b5b6020020151600160048110610efa57610ef9613121565b5b602002019060ff16908160ff168152505082600660108110610f1f57610f1e613121565b5b6020020151816001602c8110610f3857610f37613121565b5b6020020151600260048110610f5057610f4f613121565b5b602002019060ff16908160ff168152505082600760108110610f7557610f74613121565b5b6020020151816001602c8110610f8e57610f8d613121565b5b6020020151600360048110610fa657610fa5613121565b5b602002019060ff16908160ff168152505082600860108110610fcb57610fca613121565b5b6020020151816002602c8110610fe457610fe3613121565b5b60200201515f60048110610ffb57610ffa613121565b5b602002019060ff16908160ff1681525050826009601081106110205761101f613121565b5b6020020151816002602c811061103957611038613121565b5b602002015160016004811061105157611050613121565b5b602002019060ff16908160ff168152505082600a6010811061107657611075613121565b5b6020020151816002602c811061108f5761108e613121565b5b60200201516002600481106110a7576110a6613121565b5b602002019060ff16908160ff168152505082600b601081106110cc576110cb613121565b5b6020020151816002602c81106110e5576110e4613121565b5b60200201516003600481106110fd576110fc613121565b5b602002019060ff16908160ff168152505082600c6010811061112257611121613121565b5b6020020151816003602c811061113b5761113a613121565b5b60200201515f6004811061115257611151613121565b5b602002019060ff16908160ff168152505082600d6010811061117757611176613121565b5b6020020151816003602c81106111905761118f613121565b5b60200201516001600481106111a8576111a7613121565b5b602002019060ff16908160ff168152505082600e601081106111cd576111cc613121565b5b6020020151816003602c81106111e6576111e5613121565b5b60200201516002600481106111fe576111fd613121565b5b602002019060ff16908160ff168152505082600f6010811061122357611222613121565b5b6020020151816003602c811061123c5761123b613121565b5b602002015160036004811061125457611253613121565b5b602002019060ff16908160ff16815250505f600490505b602c8110156114e8575f826001836112839190613266565b602c811061129457611293613121565b5b602002015190505f6004836112a991906132c6565b03611334576112bf6112ba82612a31565b612b68565b90505f6004836112cf91906132f6565b600b81106112e0576112df613121565b5b602091828204019190069054906101000a900460ff16815f6004811061130957611308613121565b5b602002015118815f6004811061132257611321613121565b5b602002019060ff16908160ff16815250505b60405180608001604052808460048561134d9190613266565b602c811061135e5761135d613121565b5b60200201515f6004811061137557611374613121565b5b6020020151835f6004811061138d5761138c613121565b5b60200201511860ff1660ff168152602001846004856113ac9190613266565b602c81106113bd576113bc613121565b5b60200201516001600481106113d5576113d4613121565b5b6020020151836001600481106113ee576113ed613121565b5b60200201511860ff1660ff1681526020018460048561140d9190613266565b602c811061141e5761141d613121565b5b602002015160026004811061143657611435613121565b5b60200201518360026004811061144f5761144e613121565b5b60200201511860ff1660ff1681526020018460048561146e9190613266565b602c811061147f5761147e613121565b5b602002015160036004811061149757611496613121565b5b6020020151836003600481106114b0576114af613121565b5b60200201511860ff1660ff168152508383602c81106114d2576114d1613121565b5b602002018190525050808060010191505061126b565b5080915050919050565b6114fa612e52565b5f5b60048110156115c5575f5b60048110156115b75783816004811061152357611522613121565b5b6020020151826004811061153a57611539613121565b5b602002015185836004811061155257611551613121565b5b6020020151826004811061156957611568613121565b5b60200201511885836004811061158257611581613121565b5b6020020151826004811061159957611598613121565b5b602002019060ff16908160ff16815250508080600101915050611507565b5080806001019150506114fc565b5082905092915050565b6115d7612e52565b5f825f600481106115eb576115ea613121565b5b602002015190505f60405180608001604052808560016004811061161257611611613121565b5b602002015160036004811061162a57611629613121565b5b602002015160ff1660ff1681526020018560016004811061164e5761164d613121565b5b60200201515f6004811061166557611664613121565b5b602002015160ff1660ff1681526020018560016004811061168957611688613121565b5b60200201516001600481106116a1576116a0613121565b5b602002015160ff1660ff168152602001856001600481106116c5576116c4613121565b5b60200201516002600481106116dd576116dc613121565b5b602002015160ff1660ff1681525090505f60405180608001604052808660026004811061170d5761170c613121565b5b602002015160026004811061172557611724613121565b5b602002015160ff1660ff1681526020018660026004811061174957611748613121565b5b602002015160036004811061176157611760613121565b5b602002015160ff1660ff1681526020018660026004811061178557611784613121565b5b60200201515f6004811061179c5761179b613121565b5b602002015160ff1660ff168152602001866002600481106117c0576117bf613121565b5b60200201516001600481106117d8576117d7613121565b5b602002015160ff1660ff1681525090505f60405180608001604052808760036004811061180857611807613121565b5b60200201516001600481106118205761181f613121565b5b602002015160ff1660ff1681526020018760036004811061184457611843613121565b5b602002015160026004811061185c5761185b613121565b5b602002015160ff1660ff168152602001876003600481106118805761187f613121565b5b602002015160036004811061189857611897613121565b5b602002015160ff1660ff168152602001876003600481106118bc576118bb613121565b5b60200201515f600481106118d3576118d2613121565b5b602002015160ff1660ff168152509050604051806080016040528085815260200184815260200183815260200182815250945050505050919050565b611917612e52565b5f5b60048110156119df575f5b60048110156119d157600984836004811061194257611941613121565b5b6020020151826004811061195957611958613121565b5b602002015160ff16610100811061197357611972613121565b5b602091828204019190069054906101000a900460ff1684836004811061199c5761199b613121565b5b602002015182600481106119b3576119b2613121565b5b602002019060ff16908160ff16815250508080600101915050611924565b508080600101915050611919565b50819050919050565b6119f0612e52565b5f604051806080016040528060405180608001604052805f60ff1681526020015f60ff1681526020015f60ff1681526020015f60ff16815250815260200160405180608001604052805f60ff1681526020015f60ff1681526020015f60ff1681526020015f60ff16815250815260200160405180608001604052805f60ff1681526020015f60ff1681526020015f60ff1681526020015f60ff16815250815260200160405180608001604052805f60ff1681526020015f60ff1681526020015f60ff1681526020015f60ff1681525081525090505f5b6004811015611ff6575f5b6004811015611b5157848160048110611aed57611aec613121565b5b60200201518260048110611b0457611b03613121565b5b6020020151838260048110611b1c57611b1b613121565b5b60200201518360048110611b3357611b32613121565b5b602002019060ff16908160ff16815250508080600101915050611ad1565b50611b8c82600160048110611b6957611b68613121565b5b60200201518260048110611b8057611b7f613121565b5b6020020151600b612d22565b611bc683600260048110611ba357611ba2613121565b5b60200201518360048110611bba57611bb9613121565b5b6020020151600d612d22565b611c0084600360048110611bdd57611bdc613121565b5b60200201518460048110611bf457611bf3613121565b5b60200201516009612d22565b611c39855f60048110611c1657611c15613121565b5b60200201518560048110611c2d57611c2c613121565b5b6020020151600e612d22565b181818845f60048110611c4f57611c4e613121565b5b60200201518260048110611c6657611c65613121565b5b602002019060ff16908160ff1681525050611cb182600260048110611c8e57611c8d613121565b5b60200201518260048110611ca557611ca4613121565b5b6020020151600b612d22565b611ceb83600360048110611cc857611cc7613121565b5b60200201518360048110611cdf57611cde613121565b5b6020020151600d612d22565b611d24845f60048110611d0157611d00613121565b5b60200201518460048110611d1857611d17613121565b5b60200201516009612d22565b611d5e85600160048110611d3b57611d3a613121565b5b60200201518560048110611d5257611d51613121565b5b6020020151600e612d22565b18181884600160048110611d7557611d74613121565b5b60200201518260048110611d8c57611d8b613121565b5b602002019060ff16908160ff1681525050611dd782600360048110611db457611db3613121565b5b60200201518260048110611dcb57611dca613121565b5b6020020151600b612d22565b611e10835f60048110611ded57611dec613121565b5b60200201518360048110611e0457611e03613121565b5b6020020151600d612d22565b611e4a84600160048110611e2757611e26613121565b5b60200201518460048110611e3e57611e3d613121565b5b60200201516009612d22565b611e8485600260048110611e6157611e60613121565b5b60200201518560048110611e7857611e77613121565b5b6020020151600e612d22565b18181884600260048110611e9b57611e9a613121565b5b60200201518260048110611eb257611eb1613121565b5b602002019060ff16908160ff1681525050611efc825f60048110611ed957611ed8613121565b5b60200201518260048110611ef057611eef613121565b5b6020020151600b612d22565b611f3683600160048110611f1357611f12613121565b5b60200201518360048110611f2a57611f29613121565b5b6020020151600d612d22565b611f7084600260048110611f4d57611f4c613121565b5b60200201518460048110611f6457611f63613121565b5b60200201516009612d22565b611faa85600360048110611f8757611f86613121565b5b60200201518560048110611f9e57611f9d613121565b5b6020020151600e612d22565b18181884600360048110611fc157611fc0613121565b5b60200201518260048110611fd857611fd7613121565b5b602002019060ff16908160ff16815250508080600101915050611ac6565b5082915050919050565b612008612e52565b5f5b60048110156120d0575f5b60048110156120c257600184836004811061203357612032613121565b5b6020020151826004811061204a57612049613121565b5b602002015160ff16610100811061206457612063613121565b5b602091828204019190069054906101000a900460ff1684836004811061208d5761208c613121565b5b602002015182600481106120a4576120a3613121565b5b602002019060ff16908160ff16815250508080600101915050612015565b50808060010191505061200a565b50819050919050565b6120e1612e52565b5f825f600481106120f5576120f4613121565b5b602002015190505f60405180608001604052808560016004811061211c5761211b613121565b5b602002015160016004811061213457612133613121565b5b602002015160ff1660ff1681526020018560016004811061215857612157613121565b5b60200201516002600481106121705761216f613121565b5b602002015160ff1660ff1681526020018560016004811061219457612193613121565b5b60200201516003600481106121ac576121ab613121565b5b602002015160ff1660ff168152602001856001600481106121d0576121cf613121565b5b60200201515f600481106121e7576121e6613121565b5b602002015160ff1660ff1681525090505f60405180608001604052808660026004811061221757612216613121565b5b602002015160026004811061222f5761222e613121565b5b602002015160ff1660ff1681526020018660026004811061225357612252613121565b5b602002015160036004811061226b5761226a613121565b5b602002015160ff1660ff1681526020018660026004811061228f5761228e613121565b5b60200201515f600481106122a6576122a5613121565b5b602002015160ff1660ff168152602001866002600481106122ca576122c9613121565b5b60200201516001600481106122e2576122e1613121565b5b602002015160ff1660ff1681525090505f60405180608001604052808760036004811061231257612311613121565b5b602002015160036004811061232a57612329613121565b5b602002015160ff1660ff1681526020018760036004811061234e5761234d613121565b5b60200201515f6004811061236557612364613121565b5b602002015160ff1660ff1681526020018760036004811061238957612388613121565b5b60200201516001600481106123a1576123a0613121565b5b602002015160ff1660ff168152602001876003600481106123c5576123c4613121565b5b60200201516002600481106123dd576123dc613121565b5b602002015160ff1660ff168152509050604051806080016040528085815260200184815260200183815260200182815250945050505050919050565b612421612e52565b5f604051806080016040528060405180608001604052805f60ff1681526020015f60ff1681526020015f60ff1681526020015f60ff16815250815260200160405180608001604052805f60ff1681526020015f60ff1681526020015f60ff1681526020015f60ff16815250815260200160405180608001604052805f60ff1681526020015f60ff1681526020015f60ff1681526020015f60ff16815250815260200160405180608001604052805f60ff1681526020015f60ff1681526020015f60ff1681526020015f60ff1681525081525090505f5b6004811015612a27575f5b60048110156125825784816004811061251e5761251d613121565b5b6020020151826004811061253557612534613121565b5b602002015183826004811061254d5761254c613121565b5b6020020151836004811061256457612563613121565b5b602002019060ff16908160ff16815250508080600101915050612502565b506125bd8260036004811061259a57612599613121565b5b602002015182600481106125b1576125b0613121565b5b60200201516001612d22565b6125f7836002600481106125d4576125d3613121565b5b602002015183600481106125eb576125ea613121565b5b60200201516001612d22565b6126318460016004811061260e5761260d613121565b5b6020020151846004811061262557612624613121565b5b60200201516003612d22565b61266a855f6004811061264757612646613121565b5b6020020151856004811061265e5761265d613121565b5b60200201516002612d22565b181818845f600481106126805761267f613121565b5b6020020151826004811061269757612696613121565b5b602002019060ff16908160ff16815250506126e2826003600481106126bf576126be613121565b5b602002015182600481106126d6576126d5613121565b5b60200201516001612d22565b61271c836002600481106126f9576126f8613121565b5b602002015183600481106127105761270f613121565b5b60200201516003612d22565b6127568460016004811061273357612732613121565b5b6020020151846004811061274a57612749613121565b5b60200201516002612d22565b61278f855f6004811061276c5761276b613121565b5b6020020151856004811061278357612782613121565b5b60200201516001612d22565b181818846001600481106127a6576127a5613121565b5b602002015182600481106127bd576127bc613121565b5b602002019060ff16908160ff1681525050612808826003600481106127e5576127e4613121565b5b602002015182600481106127fc576127fb613121565b5b60200201516003612d22565b6128428360026004811061281f5761281e613121565b5b6020020151836004811061283657612835613121565b5b60200201516002612d22565b61287c8460016004811061285957612858613121565b5b602002015184600481106128705761286f613121565b5b60200201516001612d22565b6128b5855f6004811061289257612891613121565b5b602002015185600481106128a9576128a8613121565b5b60200201516001612d22565b181818846002600481106128cc576128cb613121565b5b602002015182600481106128e3576128e2613121565b5b602002019060ff16908160ff168152505061292e8260036004811061290b5761290a613121565b5b6020020151826004811061292257612921613121565b5b60200201516002612d22565b6129688360026004811061294557612944613121565b5b6020020151836004811061295c5761295b613121565b5b60200201516001612d22565b6129a28460016004811061297f5761297e613121565b5b6020020151846004811061299657612995613121565b5b60200201516001612d22565b6129db855f600481106129b8576129b7613121565b5b602002015185600481106129cf576129ce613121565b5b60200201516003612d22565b181818846003600481106129f2576129f1613121565b5b60200201518260048110612a0957612a08613121565b5b602002019060ff16908160ff168152505080806001019150506124f7565b5082915050919050565b612a39612e7f565b5f60405180608001604052805f60ff1681526020015f60ff1681526020015f60ff1681526020015f60ff16815250905082600160048110612a7d57612a7c613121565b5b6020020151815f60048110612a9557612a94613121565b5b602002019060ff16908160ff168152505082600260048110612aba57612ab9613121565b5b602002015181600160048110612ad357612ad2613121565b5b602002019060ff16908160ff168152505082600360048110612af857612af7613121565b5b602002015181600260048110612b1157612b10613121565b5b602002019060ff16908160ff1681525050825f60048110612b3557612b34613121565b5b602002015181600360048110612b4e57612b4d613121565b5b602002019060ff16908160ff168152505080915050919050565b612b70612e7f565b6001825f60048110612b8557612b84613121565b5b602002015160ff166101008110612b9f57612b9e613121565b5b602091828204019190069054906101000a900460ff16825f60048110612bc857612bc7613121565b5b602002019060ff16908160ff1681525050600182600160048110612bef57612bee613121565b5b602002015160ff166101008110612c0957612c08613121565b5b602091828204019190069054906101000a900460ff1682600160048110612c3357612c32613121565b5b602002019060ff16908160ff1681525050600182600260048110612c5a57612c59613121565b5b602002015160ff166101008110612c7457612c73613121565b5b602091828204019190069054906101000a900460ff1682600260048110612c9e57612c9d613121565b5b602002019060ff16908160ff1681525050600182600360048110612cc557612cc4613121565b5b602002015160ff166101008110612cdf57612cde613121565b5b602091828204019190069054906101000a900460ff1682600360048110612d0957612d08613121565b5b602002019060ff16908160ff1681525050819050919050565b5f808360ff161480612d3657505f8260ff16145b15612d43575f9050612dfb565b5f60118460ff166101008110612d5c57612d5b613121565b5b602091828204019190069054906101000a900460ff1660ff1690505f60118460ff166101008110612d9057612d8f613121565b5b602091828204019190069054906101000a900460ff1660ff1690505f60ff8284612dba9190613333565b612dc49190613368565b905060198161ffff166101008110612ddf57612dde613121565b5b602091828204019190069054906101000a900460ff1693505050505b92915050565b604051806102000160405280601090602082028036833780820191505090505090565b604051806105800160405280602c905b612e3c612e7f565b815260200190600190039081612e345790505090565b60405180608001604052806004905b612e69612e7f565b815260200190600190039081612e615790505090565b6040518060800160405280600490602082028036833780820191505090505090565b5f604051905090565b5f80fd5b5f80fd5b5f601f19601f8301169050919050565b7f4e487b71000000000000000000000000000000000000000000000000000000005f52604160045260245ffd5b612ef882612eb2565b810181811067ffffffffffffffff82111715612f1757612f16612ec2565b5b80604052505050565b5f612f29612ea1565b9050612f358282612eef565b919050565b5f67ffffffffffffffff821115612f5457612f53612ec2565b5b602082029050919050565b5f80fd5b5f60ff82169050919050565b612f7881612f63565b8114612f82575f80fd5b50565b5f81359050612f9381612f6f565b92915050565b5f612fab612fa684612f3a565b612f20565b90508060208402830185811115612fc557612fc4612f5f565b5b835b81811015612fee5780612fda8882612f85565b845260208401935050602081019050612fc7565b5050509392505050565b5f82601f83011261300c5761300b612eae565b5b6010613019848285612f99565b91505092915050565b5f80610400838503121561303957613038612eaa565b5b5f61304685828601612ff8565b92505061020061305885828601612ff8565b9150509250929050565b5f60109050919050565b5f81905092915050565b5f819050919050565b61308881612f63565b82525050565b5f613099838361307f565b60208301905092915050565b5f602082019050919050565b6130ba81613062565b6130c4818461306c565b92506130cf82613076565b805f5b838110156130ff5781516130e6878261308e565b96506130f1836130a5565b9250506001810190506130d2565b505050505050565b5f6102008201905061311b5f8301846130b1565b92915050565b7f4e487b71000000000000000000000000000000000000000000000000000000005f52603260045260245ffd5b5f819050919050565b7f4e487b71000000000000000000000000000000000000000000000000000000005f52601160045260245ffd5b5f61318e8261314e565b91506131998361314e565b92508282026131a78161314e565b915082820484148315176131be576131bd613157565b5b5092915050565b5f6131cf8261314e565b91506131da8361314e565b92508282019050808211156131f2576131f1613157565b5b92915050565b5f6132028261314e565b91505f820361321457613213613157565b5b600182039050919050565b5f6132298261314e565b91507fffffffffffffffffffffffffffffffffffffffffffffffffffffffffffffffff820361325b5761325a613157565b5b600182019050919050565b5f6132708261314e565b915061327b8361314e565b925082820390508181111561329357613292613157565b5b92915050565b7f4e487b71000000000000000000000000000000000000000000000000000000005f52601260045260245ffd5b5f6132d08261314e565b91506132db8361314e565b9250826132eb576132ea613299565b5b828206905092915050565b5f6133008261314e565b915061330b8361314e565b92508261331b5761331a613299565b5b828204905092915050565b5f61ffff82169050919050565b5f61333d82613326565b915061334883613326565b9250828201905061ffff81111561336257613361613157565b5b92915050565b5f61337282613326565b915061337d83613326565b92508261338d5761338c613299565b5b82820690509291505056fea26469706673582212200cc15caa8f04b8d77aa3fd4d81b2661c9195df07afafbad0318fd789ed2af5dd64736f6c634300081a0033",
			"opcodes": "PUSH1 0x80 PUSH1 0x40 MSTORE PUSH1 0x40 MLOAD DUP1 PUSH2 0x160 ADD PUSH1 0x40 MSTORE DUP1 PUSH1 0x8D PUSH1 0xFF AND DUP2 MSTORE PUSH1 0x20 ADD PUSH1 0x1 PUSH1 0xFF AND DUP2 MSTORE PUSH1 0x20 ADD PUSH1 0x2 PUSH1 0xFF AND DUP2 MSTORE PUSH1 0x20 ADD PUSH1 0x4 PUSH1 0xFF AND DUP2 MSTORE PUSH1 0x20 ADD PUSH1 0x8 PUSH1 0xFF AND DUP2 MSTORE PUSH1 0x20 ADD PUSH1 0x10 PUSH1 0xFF AND DUP2 MSTORE PUSH1 0x20 ADD PUSH1 0x20 PUSH1 0xFF AND DUP2 MSTORE PUSH1 0x20 ADD PUSH1 0x40 PUSH1 0xFF AND DUP2 MSTORE PUSH1 0x20 ADD PUSH1 0x80 PUSH1 0xFF AND DUP2 MSTORE PUSH1 0x20 ADD PUSH1 0x1B PUSH1 0xFF AND DUP2 MSTORE PUSH1 0x20 ADD PUSH1 0x36 PUSH1 0xFF AND DUP2 MSTORE POP PUSH0 SWAP1 PUSH1 0xB PUSH2 0x8B SWAP3 SWAP2 SWAP1 PUSH2 0x2906 JUMP JUMPDEST POP PUSH1 0x40 MLOAD DUP1 PUSH2 0x2000 ADD PUSH1 0x40 MSTORE DUP1 PUSH1 0x63 PUSH1 0xFF AND DUP2 MSTORE PUSH1 0x20 ADD PUSH1 0x7C PUSH1 0xFF AND DUP2 MSTORE PUSH1 0x20 ADD PUSH1 0x77 PUSH1 0xFF AND DUP2 MSTORE PUSH1 0x20 ADD PUSH1 0x7B PUSH1 0xFF AND DUP2 MSTORE PUSH1 0x20 ADD PUSH1 0xF2 PUSH1 0xFF AND DUP2 MSTORE PUSH1 0x20 ADD PUSH1 0x6B PUSH1 0xFF AND DUP2 MSTORE PUSH1 0x20 ADD PUSH1 0x6F PUSH1 0xFF AND DUP2 MSTORE PUSH1 0x20 ADD PUSH1 0xC5 PUSH1 0xFF AND DUP2 MSTORE PUSH1 0x20 ADD PUSH1 0x30 PUSH1 0xFF AND DUP2 MSTORE PUSH1 0x20 ADD PUSH1 0x1 PUSH1 0xFF AND DUP2 MSTORE PUSH1 0x20 ADD PUSH1 0x67 PUSH1 0xFF AND DUP2 MSTORE PUSH1 0x20 ADD PUSH1 0x2B PUSH1 0xFF AND DUP2 MSTORE PUSH1 0x20 ADD PUSH1 0xFE PUSH1 0xFF AND DUP2 MSTORE PUSH1 0x20 ADD PUSH1 0xD7 PUSH1 0xFF AND DUP2 MSTORE PUSH1 0x20 ADD PUSH1 0xAB PUSH1 0xFF AND DUP2 MSTORE PUSH1 0x20 ADD PUSH1 0x76 PUSH1 0xFF AND DUP2 MSTORE PUSH1 0x20 ADD PUSH1 0xCA PUSH1 0xFF AND DUP2 MSTORE PUSH1 0x20 ADD PUSH1 0x82 PUSH1 0xFF AND DUP2 MSTORE PUSH1 0x20 ADD PUSH1 0xC9 PUSH1 0xFF AND DUP2 MSTORE PUSH1 0x20 ADD PUSH1 0x7D PUSH1 0xFF AND DUP2 MSTORE PUSH1 0x20 ADD PUSH1 0xFA PUSH1 0xFF AND DUP2 MSTORE PUSH1 0x20 ADD PUSH1 0x59 PUSH1 0xFF AND DUP2 MSTORE PUSH1 0x20 ADD PUSH1 0x47 PUSH1 0xFF AND DUP2 MSTORE PUSH1 0x20 ADD PUSH1 0xF0 PUSH1 0xFF AND DUP2 MSTORE PUSH1 0x20 ADD PUSH1 0xAD PUSH1 0xFF AND DUP2 MSTORE PUSH1 0x20 ADD PUSH1 0xD4 PUSH1 0xFF AND DUP2 MSTORE PUSH1 0x20 ADD PUSH1 0xA2 PUSH1 0xFF AND DUP2 MSTORE PUSH1 0x20 ADD PUSH1 0xAF PUSH1 0xFF AND DUP2 MSTORE PUSH1 0x20 ADD PUSH1 0x9C PUSH1 0xFF AND DUP2 MSTORE PUSH1 0x20 ADD PUSH1 0xA4 PUSH1 0xFF AND DUP2 MSTORE PUSH1 0x20 ADD PUSH1 0x72 PUSH1 0xFF AND DUP2 MSTORE PUSH1 0x20 ADD PUSH1 0xC0 PUSH1 0xFF AND DUP2 MSTORE PUSH1 0x20 ADD PUSH1 0xB7 PUSH1 0xFF AND DUP2 MSTORE PUSH1 0x20 ADD PUSH1 0xFD PUSH1 0xFF AND DUP2 MSTORE PUSH1 0x20 ADD PUSH1 0x93 PUSH1 0xFF AND DUP2 MSTORE PUSH1 0x20 ADD PUSH1 0x26 PUSH1 0xFF AND DUP2 MSTORE PUSH1 0x20 ADD PUSH1 0x36 PUSH1 0xFF AND DUP2 MSTORE PUSH1 0x20 ADD PUSH1 0x3F PUSH1 0xFF AND DUP2 MSTORE PUSH1 0x20 ADD PUSH1 0xF7 PUSH1 0xFF AND DUP2 MSTORE PUSH1 0x20 ADD PUSH1 0xCC PUSH1 0xFF AND DUP2 MSTORE PUSH1 0x20 ADD PUSH1 0x34 PUSH1 0xFF AND DUP2 MSTORE PUSH1 0x20 ADD PUSH1 0xA5 PUSH1 0xFF AND DUP2 MSTORE PUSH1 0x20 ADD PUSH1 0xE5 PUSH1 0xFF AND DUP2 MSTORE PUSH1 0x20 ADD PUSH1 0xF1 PUSH1 0xFF AND DUP2 MSTORE PUSH1 0x20 ADD PUSH1 0x71 PUSH1 0xFF AND DUP2 MSTORE PUSH1 0x20 ADD PUSH1 0xD8 PUSH1 0xFF AND DUP2 MSTORE PUSH1 0x20 ADD PUSH1 0x31 PUSH1 0xFF AND DUP2 MSTORE PUSH1 0x20 ADD PUSH1 0x15 PUSH1 0xFF AND DUP2 MSTORE PUSH1 0x20 ADD PUSH1 0x4 PUSH1 0xFF AND DUP2 MSTORE PUSH1 0x20 ADD PUSH1 0xC7 PUSH1 0xFF AND DUP2 MSTORE PUSH1 0x20 ADD PUSH1 0x23 PUSH1 0xFF AND DUP2 MSTORE PUSH1 0x20 ADD PUSH1 0xC3 PUSH1 0xFF AND DUP2 MSTORE PUSH1 0x20 ADD PUSH1 0x18 PUSH1 0xFF AND DUP2 MSTORE PUSH1 0x20 ADD PUSH1 0x96 PUSH1 0xFF AND DUP2 MSTORE PUSH1 0x20 ADD PUSH1 0x5 PUSH1 0xFF AND DUP2 MSTORE PUSH1 0x20 ADD PUSH1 0x9A PUSH1 0xFF AND DUP2 MSTORE PUSH1 0x20 ADD PUSH1 0x7 PUSH1 0xFF AND DUP2 MSTORE PUSH1 0x20 ADD PUSH1 0x12 PUSH1 0xFF AND DUP2 MSTORE PUSH1 0x20 ADD PUSH1 0x80 PUSH1 0xFF AND DUP2 MSTORE PUSH1 0x20 ADD PUSH1 0xE2 PUSH1 0xFF AND DUP2 MSTORE PUSH1 0x20 ADD PUSH1 0xEB PUSH1 0xFF AND DUP2 MSTORE PUSH1 0x20 ADD PUSH1 0x27 PUSH1 0xFF AND DUP2 MSTORE PUSH1 0x20 ADD PUSH1 0xB2 PUSH1 0xFF AND DUP2 MSTORE PUSH1 0x20 ADD PUSH1 0x75 PUSH1 0xFF AND DUP2 MSTORE PUSH1 0x20 ADD PUSH1 0x9 PUSH1 0xFF AND DUP2 MSTORE PUSH1 0x20 ADD PUSH1 0x83 PUSH1 0xFF AND DUP2 MSTORE PUSH1 0x20 ADD PUSH1 0x2C PUSH1 0xFF AND DUP2 MSTORE PUSH1 0x20 ADD PUSH1 0x1A PUSH1 0xFF AND DUP2 MSTORE PUSH1 0x20 ADD PUSH1 0x1B PUSH1 0xFF AND DUP2 MSTORE PUSH1 0x20 ADD PUSH1 0x6E PUSH1 0xFF AND DUP2 MSTORE PUSH1 0x20 ADD PUSH1 0x5A PUSH1 0xFF AND DUP2 MSTORE PUSH1 0x20 ADD PUSH1 0xA0 PUSH1 0xFF AND DUP2 MSTORE PUSH1 0x20 ADD PUSH1 0x52 PUSH1 0xFF AND DUP2 MSTORE PUSH1 0x20 ADD PUSH1 0x3B PUSH1 0xFF AND DUP2 MSTORE PUSH1 0x20 ADD PUSH1 0xD6 PUSH1 0xFF AND DUP2 MSTORE PUSH1 0x20 ADD PUSH1 0xB3 PUSH1 0xFF AND DUP2 MSTORE PUSH1 0x20 ADD PUSH1 0x29 PUSH1 0xFF AND DUP2 MSTORE PUSH1 0x20 ADD PUSH1 0xE3 PUSH1 0xFF AND DUP2 MSTORE PUSH1 0x20 ADD PUSH1 0x2F PUSH1 0xFF AND DUP2 MSTORE PUSH1 0x20 ADD PUSH1 0x84 PUSH1 0xFF AND DUP2 MSTORE PUSH1 0x20 ADD PUSH1 0x53 PUSH1 0xFF AND DUP2 MSTORE PUSH1 0x20 ADD PUSH1 0xD1 PUSH1 0xFF AND DUP2 MSTORE PUSH1 0x20 ADD PUSH0 PUSH1 0xFF AND DUP2 MSTORE PUSH1 0x20 ADD PUSH1 0xED PUSH1 0xFF AND DUP2 MSTORE PUSH1 0x20 ADD PUSH1 0x20 PUSH1 0xFF AND DUP2 MSTORE PUSH1 0x20 ADD PUSH1 0xFC PUSH1 0xFF AND DUP2 MSTORE PUSH1 0x20 ADD PUSH1 0xB1 PUSH1 0xFF AND DUP2 MSTORE PUSH1 0x20 ADD PUSH1 0x5B PUSH1 0xFF AND DUP2 MSTORE PUSH1 0x20 ADD PUSH1 0x6A PUSH1 0xFF AND DUP2 MSTORE PUSH1 0x20 ADD PUSH1 0xCB PUSH1 0xFF AND DUP2 MSTORE PUSH1 0x20 ADD PUSH1 0xBE PUSH1 0xFF AND DUP2 MSTORE PUSH1 0x20 ADD PUSH1 0x39 PUSH1 0xFF AND DUP2 MSTORE PUSH1 0x20 ADD PUSH1 0x4A PUSH1 0xFF AND DUP2 MSTORE PUSH1 0x20 ADD PUSH1 0x4C PUSH1 0xFF AND DUP2 MSTORE PUSH1 0x20 ADD PUSH1 0x58 PUSH1 0xFF AND DUP2 MSTORE PUSH1 0x20 ADD PUSH1 0xCF PUSH1 0xFF AND DUP2 MSTORE PUSH1 0x20 ADD PUSH1 0xD0 PUSH1 0xFF AND DUP2 MSTORE PUSH1 0x20 ADD PUSH1 0xEF PUSH1 0xFF AND DUP2 MSTORE PUSH1 0x20 ADD PUSH1 0xAA PUSH1 0xFF AND DUP2 MSTORE PUSH1 0x20 ADD PUSH1 0xFB PUSH1 0xFF AND DUP2 MSTORE PUSH1 0x20 ADD PUSH1 0x43 PUSH1 0xFF AND DUP2 MSTORE PUSH1 0x20 ADD PUSH1 0x4D PUSH1 0xFF AND DUP2 MSTORE PUSH1 0x20 ADD PUSH1 0x33 PUSH1 0xFF AND DUP2 MSTORE PUSH1 0x20 ADD PUSH1 0x85 PUSH1 0xFF AND DUP2 MSTORE PUSH1 0x20 ADD PUSH1 0x45 PUSH1 0xFF AND DUP2 MSTORE PUSH1 0x20 ADD PUSH1 0xF9 PUSH1 0xFF AND DUP2 MSTORE PUSH1 0x20 ADD PUSH1 0x2 PUSH1 0xFF AND DUP2 MSTORE PUSH1 0x20 ADD PUSH1 0x7F PUSH1 0xFF AND DUP2 MSTORE PUSH1 0x20 ADD PUSH1 0x50 PUSH1 0xFF AND DUP2 MSTORE PUSH1 0x20 ADD PUSH1 0x3C PUSH1 0xFF AND DUP2 MSTORE PUSH1 0x20 ADD PUSH1 0x9F PUSH1 0xFF AND DUP2 MSTORE PUSH1 0x20 ADD PUSH1 0xA8 PUSH1 0xFF AND DUP2 MSTORE PUSH1 0x20 ADD PUSH1 0x51 PUSH1 0xFF AND DUP2 MSTORE PUSH1 0x20 ADD PUSH1 0xA3 PUSH1 0xFF AND DUP2 MSTORE PUSH1 0x20 ADD PUSH1 0x40 PUSH1 0xFF AND DUP2 MSTORE PUSH1 0x20 ADD PUSH1 0x8F PUSH1 0xFF AND DUP2 MSTORE PUSH1 0x20 ADD PUSH1 0x92 PUSH1 0xFF AND DUP2 MSTORE PUSH1 0x20 ADD PUSH1 0x9D PUSH1 0xFF AND DUP2 MSTORE PUSH1 0x20 ADD PUSH1 0x38 PUSH1 0xFF AND DUP2 MSTORE PUSH1 0x20 ADD PUSH1 0xF5 PUSH1 0xFF AND DUP2 MSTORE PUSH1 0x20 ADD PUSH1 0xBC PUSH1 0xFF AND DUP2 MSTORE PUSH1 0x20 ADD PUSH1 0xB6 PUSH1 0xFF AND DUP2 MSTORE PUSH1 0x20 ADD PUSH1 0xDA PUSH1 0xFF AND DUP2 MSTORE PUSH1 0x20 ADD PUSH1 0x21 PUSH1 0xFF AND DUP2 MSTORE PUSH1 0x20 ADD PUSH1 0x10 PUSH1 0xFF AND DUP2 MSTORE PUSH1 0x20 ADD PUSH1 0xFF DUP1 AND DUP2 MSTORE PUSH1 0x20 ADD PUSH1 0xF3 PUSH1 0xFF AND DUP2 MSTORE PUSH1 0x20 ADD PUSH1 0xD2 PUSH1 0xFF AND DUP2 MSTORE PUSH1 0x20 ADD PUSH1 0xCD PUSH1 0xFF AND DUP2 MSTORE PUSH1 0x20 ADD PUSH1 0xC PUSH1 0xFF AND DUP2 MSTORE PUSH1 0x20 ADD PUSH1 0x13 PUSH1 0xFF AND DUP2 MSTORE PUSH1 0x20 ADD PUSH1 0xEC PUSH1 0xFF AND DUP2 MSTORE PUSH1 0x20 ADD PUSH1 0x5F PUSH1 0xFF AND DUP2 MSTORE PUSH1 0x20 ADD PUSH1 0x97 PUSH1 0xFF AND DUP2 MSTORE PUSH1 0x20 ADD PUSH1 0x44 PUSH1 0xFF AND DUP2 MSTORE PUSH1 0x20 ADD PUSH1 0x17 PUSH1 0xFF AND DUP2 MSTORE PUSH1 0x20 ADD PUSH1 0xC4 PUSH1 0xFF AND DUP2 MSTORE PUSH1 0x20 ADD PUSH1 0xA7 PUSH1 0xFF AND DUP2 MSTORE PUSH1 0x20 ADD PUSH1 0x7E PUSH1 0xFF AND DUP2 MSTORE PUSH1 0x20 ADD PUSH1 0x3D PUSH1 0xFF AND DUP2 MSTORE PUSH1 0x20 ADD PUSH1 0x64 PUSH1 0xFF AND DUP2 MSTORE PUSH1 0x20 ADD PUSH1 0x5D PUSH1 0xFF AND DUP2 MSTORE PUSH1 0x20 ADD PUSH1 0x19 PUSH1 0xFF AND DUP2 MSTORE PUSH1 0x20 ADD PUSH1 0x73 PUSH1 0xFF AND DUP2 MSTORE PUSH1 0x20 ADD PUSH1 0x60 PUSH1 0xFF AND DUP2 MSTORE PUSH1 0x20 ADD PUSH1 0x81 PUSH1 0xFF AND DUP2 MSTORE PUSH1 0x20 ADD PUSH1 0x4F PUSH1 0xFF AND DUP2 MSTORE PUSH1 0x20 ADD PUSH1 0xDC PUSH1 0xFF AND DUP2 MSTORE PUSH1 0x20 ADD PUSH1 0x22 PUSH1 0xFF AND DUP2 MSTORE PUSH1 0x20 ADD PUSH1 0x2A PUSH1 0xFF AND DUP2 MSTORE PUSH1 0x20 ADD PUSH1 0x90 PUSH1 0xFF AND DUP2 MSTORE PUSH1 0x20 ADD PUSH1 0x88 PUSH1 0xFF AND DUP2 MSTORE PUSH1 0x20 ADD PUSH1 0x46 PUSH1 0xFF AND DUP2 MSTORE PUSH1 0x20 ADD PUSH1 0xEE PUSH1 0xFF AND DUP2 MSTORE PUSH1 0x20 ADD PUSH1 0xB8 PUSH1 0xFF AND DUP2 MSTORE PUSH1 0x20 ADD PUSH1 0x14 PUSH1 0xFF AND DUP2 MSTORE PUSH1 0x20 ADD PUSH1 0xDE PUSH1 0xFF AND DUP2 MSTORE PUSH1 0x20 ADD PUSH1 0x5E PUSH1 0xFF AND DUP2 MSTORE PUSH1 0x20 ADD PUSH1 0xB PUSH1 0xFF AND DUP2 MSTORE PUSH1 0x20 ADD PUSH1 0xDB PUSH1 0xFF AND DUP2 MSTORE PUSH1 0x20 ADD PUSH1 0xE0 PUSH1 0xFF AND DUP2 MSTORE PUSH1 0x20 ADD PUSH1 0x32 PUSH1 0xFF AND DUP2 MSTORE PUSH1 0x20 ADD PUSH1 0x3A PUSH1 0xFF AND DUP2 MSTORE PUSH1 0x20 ADD PUSH1 0xA PUSH1 0xFF AND DUP2 MSTORE PUSH1 0x20 ADD PUSH1 0x49 PUSH1 0xFF AND DUP2 MSTORE PUSH1 0x20 ADD PUSH1 0x6 PUSH1 0xFF AND DUP2 MSTORE PUSH1 0x20 ADD PUSH1 0x24 PUSH1 0xFF AND DUP2 MSTORE PUSH1 0x20 ADD PUSH1 0x5C PUSH1 0xFF AND DUP2 MSTORE PUSH1 0x20 ADD PUSH1 0xC2 PUSH1 0xFF AND DUP2 MSTORE PUSH1 0x20 ADD PUSH1 0xD3 PUSH1 0xFF AND DUP2 MSTORE PUSH1 0x20 ADD PUSH1 0xAC PUSH1 0xFF AND DUP2 MSTORE PUSH1 0x20 ADD PUSH1 0x62 PUSH1 0xFF AND DUP2 MSTORE PUSH1 0x20 ADD PUSH1 0x91 PUSH1 0xFF AND DUP2 MSTORE PUSH1 0x20 ADD PUSH1 0x95 PUSH1 0xFF AND DUP2 MSTORE PUSH1 0x20 ADD PUSH1 0xE4 PUSH1 0xFF AND DUP2 MSTORE PUSH1 0x20 ADD PUSH1 0x79 PUSH1 0xFF AND DUP2 MSTORE PUSH1 0x20 ADD PUSH1 0xE7 PUSH1 0xFF AND DUP2 MSTORE PUSH1 0x20 ADD PUSH1 0xC8 PUSH1 0xFF AND DUP2 MSTORE PUSH1 0x20 ADD PUSH1 0x37 PUSH1 0xFF AND DUP2 MSTORE PUSH1 0x20 ADD PUSH1 0x6D PUSH1 0xFF AND DUP2 MSTORE PUSH1 0x20 ADD PUSH1 0x8D PUSH1 0xFF AND DUP2 MSTORE PUSH1 0x20 ADD PUSH1 0xD5 PUSH1 0xFF AND DUP2 MSTORE PUSH1 0x20 ADD PUSH1 0x4E PUSH1 0xFF AND DUP2 MSTORE PUSH1 0x20 ADD PUSH1 0xA9 PUSH1 0xFF AND DUP2 MSTORE PUSH1 0x20 ADD PUSH1 0x6C PUSH1 0xFF AND DUP2 MSTORE PUSH1 0x20 ADD PUSH1 0x56 PUSH1 0xFF AND DUP2 MSTORE PUSH1 0x20 ADD PUSH1 0xF4 PUSH1 0xFF AND DUP2 MSTORE PUSH1 0x20 ADD PUSH1 0xEA PUSH1 0xFF AND DUP2 MSTORE PUSH1 0x20 ADD PUSH1 0x65 PUSH1 0xFF AND DUP2 MSTORE PUSH1 0x20 ADD PUSH1 0x7A PUSH1 0xFF AND DUP2 MSTORE PUSH1 0x20 ADD PUSH1 0xAE PUSH1 0xFF AND DUP2 MSTORE PUSH1 0x20 ADD PUSH1 0x8 PUSH1 0xFF AND DUP2 MSTORE PUSH1 0x20 ADD PUSH1 0xBA PUSH1 0xFF AND DUP2 MSTORE PUSH1 0x20 ADD PUSH1 0x78 PUSH1 0xFF AND DUP2 MSTORE PUSH1 0x20 ADD PUSH1 0x25 PUSH1 0xFF AND DUP2 MSTORE PUSH1 0x20 ADD PUSH1 0x2E PUSH1 0xFF AND DUP2 MSTORE PUSH1 0x20 ADD PUSH1 0x1C PUSH1 0xFF AND DUP2 MSTORE PUSH1 0x20 ADD PUSH1 0xA6 PUSH1 0xFF AND DUP2 MSTORE PUSH1 0x20 ADD PUSH1 0xB4 PUSH1 0xFF AND DUP2 MSTORE PUSH1 0x20 ADD PUSH1 0xC6 PUSH1 0xFF AND DUP2 MSTORE PUSH1 0x20 ADD PUSH1 0xE8 PUSH1 0xFF AND DUP2 MSTORE PUSH1 0x20 ADD PUSH1 0xDD PUSH1 0xFF AND DUP2 MSTORE PUSH1 0x20 ADD PUSH1 0x74 PUSH1 0xFF AND DUP2 MSTORE PUSH1 0x20 ADD PUSH1 0x1F PUSH1 0xFF AND DUP2 MSTORE PUSH1 0x20 ADD PUSH1 0x4B PUSH1 0xFF AND DUP2 MSTORE PUSH1 0x20 ADD PUSH1 0xBD PUSH1 0xFF AND DUP2 MSTORE PUSH1 0x20 ADD PUSH1 0x8B PUSH1 0xFF AND DUP2 MSTORE PUSH1 0x20 ADD PUSH1 0x8A PUSH1 0xFF AND DUP2 MSTORE PUSH1 0x20 ADD PUSH1 0x70 PUSH1 0xFF AND DUP2 MSTORE PUSH1 0x20 ADD PUSH1 0x3E PUSH1 0xFF AND DUP2 MSTORE PUSH1 0x20 ADD PUSH1 0xB5 PUSH1 0xFF AND DUP2 MSTORE PUSH1 0x20 ADD PUSH1 0x66 PUSH1 0xFF AND DUP2 MSTORE PUSH1 0x20 ADD PUSH1 0x48 PUSH1 0xFF AND DUP2 MSTORE PUSH1 0x20 ADD PUSH1 0x3 PUSH1 0xFF AND DUP2 MSTORE PUSH1 0x20 ADD PUSH1 0xF6 PUSH1 0xFF AND DUP2 MSTORE PUSH1 0x20 ADD PUSH1 0xE PUSH1 0xFF AND DUP2 MSTORE PUSH1 0x20 ADD PUSH1 0x61 PUSH1 0xFF AND DUP2 MSTORE PUSH1 0x20 ADD PUSH1 0x35 PUSH1 0xFF AND DUP2 MSTORE PUSH1 0x20 ADD PUSH1 0x57 PUSH1 0xFF AND DUP2 MSTORE PUSH1 0x20 ADD PUSH1 0xB9 PUSH1 0xFF AND DUP2 MSTORE PUSH1 0x20 ADD PUSH1 0x86 PUSH1 0xFF AND DUP2 MSTORE PUSH1 0x20 ADD PUSH1 0xC1 PUSH1 0xFF AND DUP2 MSTORE PUSH1 0x20 ADD PUSH1 0x1D PUSH1 0xFF AND DUP2 MSTORE PUSH1 0x20 ADD PUSH1 0x9E PUSH1 0xFF AND DUP2 MSTORE PUSH1 0x20 ADD PUSH1 0xE1 PUSH1 0xFF AND DUP2 MSTORE PUSH1 0x20 ADD PUSH1 0xF8 PUSH1 0xFF AND DUP2 MSTORE PUSH1 0x20 ADD PUSH1 0x98 PUSH1 0xFF AND DUP2 MSTORE PUSH1 0x20 ADD PUSH1 0x11 PUSH1 0xFF AND DUP2 MSTORE PUSH1 0x20 ADD PUSH1 0x69 PUSH1 0xFF AND DUP2 MSTORE PUSH1 0x20 ADD PUSH1 0xD9 PUSH1 0xFF AND DUP2 MSTORE PUSH1 0x20 ADD PUSH1 0x8E PUSH1 0xFF AND DUP2 MSTORE PUSH1 0x20 ADD PUSH1 0x94 PUSH1 0xFF AND DUP2 MSTORE PUSH1 0x20 ADD PUSH1 0x9B PUSH1 0xFF AND DUP2 MSTORE PUSH1 0x20 ADD PUSH1 0x1E PUSH1 0xFF AND DUP2 MSTORE PUSH1 0x20 ADD PUSH1 0x87 PUSH1 0xFF AND DUP2 MSTORE PUSH1 0x20 ADD PUSH1 0xE9 PUSH1 0xFF AND DUP2 MSTORE PUSH1 0x20 ADD PUSH1 0xCE PUSH1 0xFF AND DUP2 MSTORE PUSH1 0x20 ADD PUSH1 0x55 PUSH1 0xFF AND DUP2 MSTORE PUSH1 0x20 ADD PUSH1 0x28 PUSH1 0xFF AND DUP2 MSTORE PUSH1 0x20 ADD PUSH1 0xDF PUSH1 0xFF AND DUP2 MSTORE PUSH1 0x20 ADD PUSH1 0x8C PUSH1 0xFF AND DUP2 MSTORE PUSH1 0x20 ADD PUSH1 0xA1 PUSH1 0xFF AND DUP2 MSTORE PUSH1 0x20 ADD PUSH1 0x89 PUSH1 0xFF AND DUP2 MSTORE PUSH1 0x20 ADD PUSH1 0xD PUSH1 0xFF AND DUP2 MSTORE PUSH1 0x20 ADD PUSH1 0xBF PUSH1 0xFF AND DUP2 MSTORE PUSH1 0x20 ADD PUSH1 0xE6 PUSH1 0xFF AND DUP2 MSTORE PUSH1 0x20 ADD PUSH1 0x42 PUSH1 0xFF AND DUP2 MSTORE PUSH1 0x20 ADD PUSH1 0x68 PUSH1 0xFF AND DUP2 MSTORE PUSH1 0x20 ADD PUSH1 0x41 PUSH1 0xFF AND DUP2 MSTORE PUSH1 0x20 ADD PUSH1 0x99 PUSH1 0xFF AND DUP2 MSTORE PUSH1 0x20 ADD PUSH1 0x2D PUSH1 0xFF AND DUP2 MSTORE PUSH1 0x20 ADD PUSH1 0xF PUSH1 0xFF AND DUP2 MSTORE PUSH1 0x20 ADD PUSH1 0xB0 PUSH1 0xFF AND DUP2 MSTORE PUSH1 0x20 ADD PUSH1 0x54 PUSH1 0xFF AND DUP2 MSTORE PUSH1 0x20 ADD PUSH1 0xBB PUSH1 0xFF AND DUP2 MSTORE PUSH1 0x20 ADD PUSH1 0x16 PUSH1 0xFF AND DUP2 MSTORE POP PUSH1 0x1 SWAP1 PUSH2 0x100 PUSH2 0xAA5 SWAP3 SWAP2 SWAP1 PUSH2 0x299D JUMP JUMPDEST POP PUSH1 0x40 MLOAD DUP1 PUSH2 0x2000 ADD PUSH1 0x40 MSTORE DUP1 PUSH1 0x52 PUSH1 0xFF AND DUP2 MSTORE PUSH1 0x20 ADD PUSH1 0x9 PUSH1 0xFF AND DUP2 MSTORE PUSH1 0x20 ADD PUSH1 0x6A PUSH1 0xFF AND DUP2 MSTORE PUSH1 0x20 ADD PUSH1 0xD5 PUSH1 0xFF AND DUP2 MSTORE PUSH1 0x20 ADD PUSH1 0x30 PUSH1 0xFF AND DUP2 MSTORE PUSH1 0x20 ADD PUSH1 0x36 PUSH1 0xFF AND DUP2 MSTORE PUSH1 0x20 ADD PUSH1 0xA5 PUSH1 0xFF AND DUP2 MSTORE PUSH1 0x20 ADD PUSH1 0x38 PUSH1 0xFF AND DUP2 MSTORE PUSH1 0x20 ADD PUSH1 0xBF PUSH1 0xFF AND DUP2 MSTORE PUSH1 0x20 ADD PUSH1 0x40 PUSH1 0xFF AND DUP2 MSTORE PUSH1 0x20 ADD PUSH1 0xA3 PUSH1 0xFF AND DUP2 MSTORE PUSH1 0x20 ADD PUSH1 0x9E PUSH1 0xFF AND DUP2 MSTORE PUSH1 0x20 ADD PUSH1 0x81 PUSH1 0xFF AND DUP2 MSTORE PUSH1 0x20 ADD PUSH1 0xF3 PUSH1 0xFF AND DUP2 MSTORE PUSH1 0x20 ADD PUSH1 0xD7 PUSH1 0xFF AND DUP2 MSTORE PUSH1 0x20 ADD PUSH1 0xFB PUSH1 0xFF AND DUP2 MSTORE PUSH1 0x20 ADD PUSH1 0x7C PUSH1 0xFF AND DUP2 MSTORE PUSH1 0x20 ADD PUSH1 0xE3 PUSH1 0xFF AND DUP2 MSTORE PUSH1 0x20 ADD PUSH1 0x39 PUSH1 0xFF AND DUP2 MSTORE PUSH1 0x20 ADD PUSH1 0x82 PUSH1 0xFF AND DUP2 MSTORE PUSH1 0x20 ADD PUSH1 0x9B PUSH1 0xFF AND DUP2 MSTORE PUSH1 0x20 ADD PUSH1 0x2F PUSH1 0xFF AND DUP2 MSTORE PUSH1 0x20 ADD PUSH1 0xFF DUP1 AND DUP2 MSTORE PUSH1 0x20 ADD PUSH1 0x87 PUSH1 0xFF AND DUP2 MSTORE PUSH1 0x20 ADD PUSH1 0x34 PUSH1 0xFF AND DUP2 MSTORE PUSH1 0x20 ADD PUSH1 0x8E PUSH1 0xFF AND DUP2 MSTORE PUSH1 0x20 ADD PUSH1 0x43 PUSH1 0xFF AND DUP2 MSTORE PUSH1 0x20 ADD PUSH1 0x44 PUSH1 0xFF AND DUP2 MSTORE PUSH1 0x20 ADD PUSH1 0xC4 PUSH1 0xFF AND DUP2 MSTORE PUSH1 0x20 ADD PUSH1 0xDE PUSH1 0xFF AND DUP2 MSTORE PUSH1 0x20 ADD PUSH1 0xE9 PUSH1 0xFF AND DUP2 MSTORE PUSH1 0x20 ADD PUSH1 0xCB PUSH1 0xFF AND DUP2 MSTORE PUSH1 0x20 ADD PUSH1 0x54 PUSH1 0xFF AND DUP2 MSTORE PUSH1 0x20 ADD PUSH1 0x7B PUSH1 0xFF AND DUP2 MSTORE PUSH1 0x20 ADD PUSH1 0x94 PUSH1 0xFF AND DUP2 MSTORE PUSH1 0x20 ADD PUSH1 0x32 PUSH1 0xFF AND DUP2 MSTORE PUSH1 0x20 ADD PUSH1 0xA6 PUSH1 0xFF AND DUP2 MSTORE PUSH1 0x20 ADD PUSH1 0xC2 PUSH1 0xFF AND DUP2 MSTORE PUSH1 0x20 ADD PUSH1 0x23 PUSH1 0xFF AND DUP2 MSTORE PUSH1 0x20 ADD PUSH1 0x3D PUSH1 0xFF AND DUP2 MSTORE PUSH1 0x20 ADD PUSH1 0xEE PUSH1 0xFF AND DUP2 MSTORE PUSH1 0x20 ADD PUSH1 0x4C PUSH1 0xFF AND DUP2 MSTORE PUSH1 0x20 ADD PUSH1 0x95 PUSH1 0xFF AND DUP2 MSTORE PUSH1 0x20 ADD PUSH1 0xB PUSH1 0xFF AND DUP2 MSTORE PUSH1 0x20 ADD PUSH1 0x42 PUSH1 0xFF AND DUP2 MSTORE PUSH1 0x20 ADD PUSH1 0xFA PUSH1 0xFF AND DUP2 MSTORE PUSH1 0x20 ADD PUSH1 0xC3 PUSH1 0xFF AND DUP2 MSTORE PUSH1 0x20 ADD PUSH1 0x4E PUSH1 0xFF AND DUP2 MSTORE PUSH1 0x20 ADD PUSH1 0x8 PUSH1 0xFF AND DUP2 MSTORE PUSH1 0x20 ADD PUSH1 0x2E PUSH1 0xFF AND DUP2 MSTORE PUSH1 0x20 ADD PUSH1 0xA1 PUSH1 0xFF AND DUP2 MSTORE PUSH1 0x20 ADD PUSH1 0x66 PUSH1 0xFF AND DUP2 MSTORE PUSH1 0x20 ADD PUSH1 0x28 PUSH1 0xFF AND DUP2 MSTORE PUSH1 0x20 ADD PUSH1 0xD9 PUSH1 0xFF AND DUP2 MSTORE PUSH1 0x20 ADD PUSH1 0x24 PUSH1 0xFF AND DUP2 MSTORE PUSH1 0x20 ADD PUSH1 0xB2 PUSH1 0xFF AND DUP2 MSTORE PUSH1 0x20 ADD PUSH1 0x76 PUSH1 0xFF AND DUP2 MSTORE PUSH1 0x20 ADD PUSH1 0x5B PUSH1 0xFF AND DUP2 MSTORE PUSH1 0x20 ADD PUSH1 0xA2 PUSH1 0xFF AND DUP2 MSTORE PUSH1 0x20 ADD PUSH1 0x49 PUSH1 0xFF AND DUP2 MSTORE PUSH1 0x20 ADD PUSH1 0x6D PUSH1 0xFF AND DUP2 MSTORE PUSH1 0x20 ADD PUSH1 0x8B PUSH1 0xFF AND DUP2 MSTORE PUSH1 0x20 ADD PUSH1 0xD1 PUSH1 0xFF AND DUP2 MSTORE PUSH1 0x20 ADD PUSH1 0x25 PUSH1 0xFF AND DUP2 MSTORE PUSH1 0x20 ADD PUSH1 0x72 PUSH1 0xFF AND DUP2 MSTORE PUSH1 0x20 ADD PUSH1 0xF8 PUSH1 0xFF AND DUP2 MSTORE PUSH1 0x20 ADD PUSH1 0xF6 PUSH1 0xFF AND DUP2 MSTORE PUSH1 0x20 ADD PUSH1 0x64 PUSH1 0xFF AND DUP2 MSTORE PUSH1 0x20 ADD PUSH1 0x86 PUSH1 0xFF AND DUP2 MSTORE PUSH1 0x20 ADD PUSH1 0x68 PUSH1 0xFF AND DUP2 MSTORE PUSH1 0x20 ADD PUSH1 0x98 PUSH1 0xFF AND DUP2 MSTORE PUSH1 0x20 ADD PUSH1 0x16 PUSH1 0xFF AND DUP2 MSTORE PUSH1 0x20 ADD PUSH1 0xD4 PUSH1 0xFF AND DUP2 MSTORE PUSH1 0x20 ADD PUSH1 0xA4 PUSH1 0xFF AND DUP2 MSTORE PUSH1 0x20 ADD PUSH1 0x5C PUSH1 0xFF AND DUP2 MSTORE PUSH1 0x20 ADD PUSH1 0xCC PUSH1 0xFF AND DUP2 MSTORE PUSH1 0x20 ADD PUSH1 0x5D PUSH1 0xFF AND DUP2 MSTORE PUSH1 0x20 ADD PUSH1 0x65 PUSH1 0xFF AND DUP2 MSTORE PUSH1 0x20 ADD PUSH1 0xB6 PUSH1 0xFF AND DUP2 MSTORE PUSH1 0x20 ADD PUSH1 0x92 PUSH1 0xFF AND DUP2 MSTORE PUSH1 0x20 ADD PUSH1 0x6C PUSH1 0xFF AND DUP2 MSTORE PUSH1 0x20 ADD PUSH1 0x70 PUSH1 0xFF AND DUP2 MSTORE PUSH1 0x20 ADD PUSH1 0x48 PUSH1 0xFF AND DUP2 MSTORE PUSH1 0x20 ADD PUSH1 0x50 PUSH1 0xFF AND DUP2 MSTORE PUSH1 0x20 ADD PUSH1 0xFD PUSH1 0xFF AND DUP2 MSTORE PUSH1 0x20 ADD PUSH1 0xED PUSH1 0xFF AND DUP2 MSTORE PUSH1 0x20 ADD PUSH1 0xB9 PUSH1 0xFF AND DUP2 MSTORE PUSH1 0x20 ADD PUSH1 0xDA PUSH1 0xFF AND DUP2 MSTORE PUSH1 0x20 ADD PUSH1 0x5E PUSH1 0xFF AND DUP2 MSTORE PUSH1 0x20 ADD PUSH1 0x15 PUSH1 0xFF AND DUP2 MSTORE PUSH1 0x20 ADD PUSH1 0x46 PUSH1 0xFF AND DUP2 MSTORE PUSH1 0x20 ADD PUSH1 0x57 PUSH1 0xFF AND DUP2 MSTORE PUSH1 0x20 ADD PUSH1 0xA7 PUSH1 0xFF AND DUP2 MSTORE PUSH1 0x20 ADD PUSH1 0x8D PUSH1 0xFF AND DUP2 MSTORE PUSH1 0x20 ADD PUSH1 0x9D PUSH1 0xFF AND DUP2 MSTORE PUSH1 0x20 ADD PUSH1 0x84 PUSH1 0xFF AND DUP2 MSTORE PUSH1 0x20 ADD PUSH1 0x90 PUSH1 0xFF AND DUP2 MSTORE PUSH1 0x20 ADD PUSH1 0xD8 PUSH1 0xFF AND DUP2 MSTORE PUSH1 0x20 ADD PUSH1 0xAB PUSH1 0xFF AND DUP2 MSTORE PUSH1 0x20 ADD PUSH0 PUSH1 0xFF AND DUP2 MSTORE PUSH1 0x20 ADD PUSH1 0x8C PUSH1 0xFF AND DUP2 MSTORE PUSH1 0x20 ADD PUSH1 0xBC PUSH1 0xFF AND DUP2 MSTORE PUSH1 0x20 ADD PUSH1 0xD3 PUSH1 0xFF AND DUP2 MSTORE PUSH1 0x20 ADD PUSH1 0xA PUSH1 0xFF AND DUP2 MSTORE PUSH1 0x20 ADD PUSH1 0xF7 PUSH1 0xFF AND DUP2 MSTORE PUSH1 0x20 ADD PUSH1 0xE4 PUSH1 0xFF AND DUP2 MSTORE PUSH1 0x20 ADD PUSH1 0x58 PUSH1 0xFF AND DUP2 MSTORE PUSH1 0x20 ADD PUSH1 0x5 PUSH1 0xFF AND DUP2 MSTORE PUSH1 0x20 ADD PUSH1 0xB8 PUSH1 0xFF AND DUP2 MSTORE PUSH1 0x20 ADD PUSH1 0xB3 PUSH1 0xFF AND DUP2 MSTORE PUSH1 0x20 ADD PUSH1 0x45 PUSH1 0xFF AND DUP2 MSTORE PUSH1 0x20 ADD PUSH1 0x6 PUSH1 0xFF AND DUP2 MSTORE PUSH1 0x20 ADD PUSH1 0xD0 PUSH1 0xFF AND DUP2 MSTORE PUSH1 0x20 ADD PUSH1 0x2C PUSH1 0xFF AND DUP2 MSTORE PUSH1 0x20 ADD PUSH1 0x1E PUSH1 0xFF AND DUP2 MSTORE PUSH1 0x20 ADD PUSH1 0x8F PUSH1 0xFF AND DUP2 MSTORE PUSH1 0x20 ADD PUSH1 0xCA PUSH1 0xFF AND DUP2 MSTORE PUSH1 0x20 ADD PUSH1 0x3F PUSH1 0xFF AND DUP2 MSTORE PUSH1 0x20 ADD PUSH1 0xF PUSH1 0xFF AND DUP2 MSTORE PUSH1 0x20 ADD PUSH1 0x2 PUSH1 0xFF AND DUP2 MSTORE PUSH1 0x20 ADD PUSH1 0xC1 PUSH1 0xFF AND DUP2 MSTORE PUSH1 0x20 ADD PUSH1 0xAF PUSH1 0xFF AND DUP2 MSTORE PUSH1 0x20 ADD PUSH1 0xBD PUSH1 0xFF AND DUP2 MSTORE PUSH1 0x20 ADD PUSH1 0x3 PUSH1 0xFF AND DUP2 MSTORE PUSH1 0x20 ADD PUSH1 0x1 PUSH1 0xFF AND DUP2 MSTORE PUSH1 0x20 ADD PUSH1 0x13 PUSH1 0xFF AND DUP2 MSTORE PUSH1 0x20 ADD PUSH1 0x8A PUSH1 0xFF AND DUP2 MSTORE PUSH1 0x20 ADD PUSH1 0x6B PUSH1 0xFF AND DUP2 MSTORE PUSH1 0x20 ADD PUSH1 0x3A PUSH1 0xFF AND DUP2 MSTORE PUSH1 0x20 ADD PUSH1 0x91 PUSH1 0xFF AND DUP2 MSTORE PUSH1 0x20 ADD PUSH1 0x11 PUSH1 0xFF AND DUP2 MSTORE PUSH1 0x20 ADD PUSH1 0x41 PUSH1 0xFF AND DUP2 MSTORE PUSH1 0x20 ADD PUSH1 0x4F PUSH1 0xFF AND DUP2 MSTORE PUSH1 0x20 ADD PUSH1 0x67 PUSH1 0xFF AND DUP2 MSTORE PUSH1 0x20 ADD PUSH1 0xDC PUSH1 0xFF AND DUP2 MSTORE PUSH1 0x20 ADD PUSH1 0xEA PUSH1 0xFF AND DUP2 MSTORE PUSH1 0x20 ADD PUSH1 0x97 PUSH1 0xFF AND DUP2 MSTORE PUSH1 0x20 ADD PUSH1 0xF2 PUSH1 0xFF AND DUP2 MSTORE PUSH1 0x20 ADD PUSH1 0xCF PUSH1 0xFF AND DUP2 MSTORE PUSH1 0x20 ADD PUSH1 0xCE PUSH1 0xFF AND DUP2 MSTORE PUSH1 0x20 ADD PUSH1 0xF0 PUSH1 0xFF AND DUP2 MSTORE PUSH1 0x20 ADD PUSH1 0xB4 PUSH1 0xFF AND DUP2 MSTORE PUSH1 0x20 ADD PUSH1 0xE6 PUSH1 0xFF AND DUP2 MSTORE PUSH1 0x20 ADD PUSH1 0x73 PUSH1 0xFF AND DUP2 MSTORE PUSH1 0x20 ADD PUSH1 0x96 PUSH1 0xFF AND DUP2 MSTORE PUSH1 0x20 ADD PUSH1 0xAC PUSH1 0xFF AND DUP2 MSTORE PUSH1 0x20 ADD PUSH1 0x74 PUSH1 0xFF AND DUP2 MSTORE PUSH1 0x20 ADD PUSH1 0x22 PUSH1 0xFF AND DUP2 MSTORE PUSH1 0x20 ADD PUSH1 0xE7 PUSH1 0xFF AND DUP2 MSTORE PUSH1 0x20 ADD PUSH1 0xAD PUSH1 0xFF AND DUP2 MSTORE PUSH1 0x20 ADD PUSH1 0x35 PUSH1 0xFF AND DUP2 MSTORE PUSH1 0x20 ADD PUSH1 0x85 PUSH1 0xFF AND DUP2 MSTORE PUSH1 0x20 ADD PUSH1 0xE2 PUSH1 0xFF AND DUP2 MSTORE PUSH1 0x20 ADD PUSH1 0xF9 PUSH1 0xFF AND DUP2 MSTORE PUSH1 0x20 ADD PUSH1 0x37 PUSH1 0xFF AND DUP2 MSTORE PUSH1 0x20 ADD PUSH1 0xE8 PUSH1 0xFF AND DUP2 MSTORE PUSH1 0x20 ADD PUSH1 0x1C PUSH1 0xFF AND DUP2 MSTORE PUSH1 0x20 ADD PUSH1 0x75 PUSH1 0xFF AND DUP2 MSTORE PUSH1 0x20 ADD PUSH1 0xDF PUSH1 0xFF AND DUP2 MSTORE PUSH1 0x20 ADD PUSH1 0x6E PUSH1 0xFF AND DUP2 MSTORE PUSH1 0x20 ADD PUSH1 0x47 PUSH1 0xFF AND DUP2 MSTORE PUSH1 0x20 ADD PUSH1 0xF1 PUSH1 0xFF AND DUP2 MSTORE PUSH1 0x20 ADD PUSH1 0x1A PUSH1 0xFF AND DUP2 MSTORE PUSH1 0x20 ADD PUSH1 0x71 PUSH1 0xFF AND DUP2 MSTORE PUSH1 0x20 ADD PUSH1 0x1D PUSH1 0xFF AND DUP2 MSTORE PUSH1 0x20 ADD PUSH1 0x29 PUSH1 0xFF AND DUP2 MSTORE PUSH1 0x20 ADD PUSH1 0xC5 PUSH1 0xFF AND DUP2 MSTORE PUSH1 0x20 ADD PUSH1 0x89 PUSH1 0xFF AND DUP2 MSTORE PUSH1 0x20 ADD PUSH1 0x6F PUSH1 0xFF AND DUP2 MSTORE PUSH1 0x20 ADD PUSH1 0xB7 PUSH1 0xFF AND DUP2 MSTORE PUSH1 0x20 ADD PUSH1 0x62 PUSH1 0xFF AND DUP2 MSTORE PUSH1 0x20 ADD PUSH1 0xE PUSH1 0xFF AND DUP2 MSTORE PUSH1 0x20 ADD PUSH1 0xAA PUSH1 0xFF AND DUP2 MSTORE PUSH1 0x20 ADD PUSH1 0x18 PUSH1 0xFF AND DUP2 MSTORE PUSH1 0x20 ADD PUSH1 0xBE PUSH1 0xFF AND DUP2 MSTORE PUSH1 0x20 ADD PUSH1 0x1B PUSH1 0xFF AND DUP2 MSTORE PUSH1 0x20 ADD PUSH1 0xFC PUSH1 0xFF AND DUP2 MSTORE PUSH1 0x20 ADD PUSH1 0x56 PUSH1 0xFF AND DUP2 MSTORE PUSH1 0x20 ADD PUSH1 0x3E PUSH1 0xFF AND DUP2 MSTORE PUSH1 0x20 ADD PUSH1 0x4B PUSH1 0xFF AND DUP2 MSTORE PUSH1 0x20 ADD PUSH1 0xC6 PUSH1 0xFF AND DUP2 MSTORE PUSH1 0x20 ADD PUSH1 0xD2 PUSH1 0xFF AND DUP2 MSTORE PUSH1 0x20 ADD PUSH1 0x79 PUSH1 0xFF AND DUP2 MSTORE PUSH1 0x20 ADD PUSH1 0x20 PUSH1 0xFF AND DUP2 MSTORE PUSH1 0x20 ADD PUSH1 0x9A PUSH1 0xFF AND DUP2 MSTORE PUSH1 0x20 ADD PUSH1 0xDB PUSH1 0xFF AND DUP2 MSTORE PUSH1 0x20 ADD PUSH1 0xC0 PUSH1 0xFF AND DUP2 MSTORE PUSH1 0x20 ADD PUSH1 0xFE PUSH1 0xFF AND DUP2 MSTORE PUSH1 0x20 ADD PUSH1 0x78 PUSH1 0xFF AND DUP2 MSTORE PUSH1 0x20 ADD PUSH1 0xCD PUSH1 0xFF AND DUP2 MSTORE PUSH1 0x20 ADD PUSH1 0x5A PUSH1 0xFF AND DUP2 MSTORE PUSH1 0x20 ADD PUSH1 0xF4 PUSH1 0xFF AND DUP2 MSTORE PUSH1 0x20 ADD PUSH1 0x1F PUSH1 0xFF AND DUP2 MSTORE PUSH1 0x20 ADD PUSH1 0xDD PUSH1 0xFF AND DUP2 MSTORE PUSH1 0x20 ADD PUSH1 0xA8 PUSH1 0xFF AND DUP2 MSTORE PUSH1 0x20 ADD PUSH1 0x33 PUSH1 0xFF AND DUP2 MSTORE PUSH1 0x20 ADD PUSH1 0x88 PUSH1 0xFF AND DUP2 MSTORE PUSH1 0x20 ADD PUSH1 0x7 PUSH1 0xFF AND DUP2 MSTORE PUSH1 0x20 ADD PUSH1 0xC7 PUSH1 0xFF AND DUP2 MSTORE PUSH1 0x20 ADD PUSH1 0x31 PUSH1 0xFF AND DUP2 MSTORE PUSH1 0x20 ADD PUSH1 0xB1 PUSH1 0xFF AND DUP2 MSTORE PUSH1 0x20 ADD PUSH1 0x12 PUSH1 0xFF AND DUP2 MSTORE PUSH1 0x20 ADD PUSH1 0x10 PUSH1 0xFF AND DUP2 MSTORE PUSH1 0x20 ADD PUSH1 0x59 PUSH1 0xFF AND DUP2 MSTORE PUSH1 0x20 ADD PUSH1 0x27 PUSH1 0xFF AND DUP2 MSTORE PUSH1 0x20 ADD PUSH1 0x80 PUSH1 0xFF AND DUP2 MSTORE PUSH1 0x20 ADD PUSH1 0xEC PUSH1 0xFF AND DUP2 MSTORE PUSH1 0x20 ADD PUSH1 0x5F PUSH1 0xFF AND DUP2 MSTORE PUSH1 0x20 ADD PUSH1 0x60 PUSH1 0xFF AND DUP2 MSTORE PUSH1 0x20 ADD PUSH1 0x51 PUSH1 0xFF AND DUP2 MSTORE PUSH1 0x20 ADD PUSH1 0x7F PUSH1 0xFF AND DUP2 MSTORE PUSH1 0x20 ADD PUSH1 0xA9 PUSH1 0xFF AND DUP2 MSTORE PUSH1 0x20 ADD PUSH1 0x19 PUSH1 0xFF AND DUP2 MSTORE PUSH1 0x20 ADD PUSH1 0xB5 PUSH1 0xFF AND DUP2 MSTORE PUSH1 0x20 ADD PUSH1 0x4A PUSH1 0xFF AND DUP2 MSTORE PUSH1 0x20 ADD PUSH1 0xD PUSH1 0xFF AND DUP2 MSTORE PUSH1 0x20 ADD PUSH1 0x2D PUSH1 0xFF AND DUP2 MSTORE PUSH1 0x20 ADD PUSH1 0xE5 PUSH1 0xFF AND DUP2 MSTORE PUSH1 0x20 ADD PUSH1 0x7A PUSH1 0xFF AND DUP2 MSTORE PUSH1 0x20 ADD PUSH1 0x9F PUSH1 0xFF AND DUP2 MSTORE PUSH1 0x20 ADD PUSH1 0x93 PUSH1 0xFF AND DUP2 MSTORE PUSH1 0x20 ADD PUSH1 0xC9 PUSH1 0xFF AND DUP2 MSTORE PUSH1 0x20 ADD PUSH1 0x9C PUSH1 0xFF AND DUP2 MSTORE PUSH1 0x20 ADD PUSH1 0xEF PUSH1 0xFF AND DUP2 MSTORE PUSH1 0x20 ADD PUSH1 0xA0 PUSH1 0xFF AND DUP2 MSTORE PUSH1 0x20 ADD PUSH1 0xE0 PUSH1 0xFF AND DUP2 MSTORE PUSH1 0x20 ADD PUSH1 0x3B PUSH1 0xFF AND DUP2 MSTORE PUSH1 0x20 ADD PUSH1 0x4D PUSH1 0xFF AND DUP2 MSTORE PUSH1 0x20 ADD PUSH1 0xAE PUSH1 0xFF AND DUP2 MSTORE PUSH1 0x20 ADD PUSH1 0x2A PUSH1 0xFF AND DUP2 MSTORE PUSH1 0x20 ADD PUSH1 0xF5 PUSH1 0xFF AND DUP2 MSTORE PUSH1 0x20 ADD PUSH1 0xB0 PUSH1 0xFF AND DUP2 MSTORE PUSH1 0x20 ADD PUSH1 0xC8 PUSH1 0xFF AND DUP2 MSTORE PUSH1 0x20 ADD PUSH1 0xEB PUSH1 0xFF AND DUP2 MSTORE PUSH1 0x20 ADD PUSH1 0xBB PUSH1 0xFF AND DUP2 MSTORE PUSH1 0x20 ADD PUSH1 0x3C PUSH1 0xFF AND DUP2 MSTORE PUSH1 0x20 ADD PUSH1 0x83 PUSH1 0xFF AND DUP2 MSTORE PUSH1 0x20 ADD PUSH1 0x53 PUSH1 0xFF AND DUP2 MSTORE PUSH1 0x20 ADD PUSH1 0x99 PUSH1 0xFF AND DUP2 MSTORE PUSH1 0x20 ADD PUSH1 0x61 PUSH1 0xFF AND DUP2 MSTORE PUSH1 0x20 ADD PUSH1 0x17 PUSH1 0xFF AND DUP2 MSTORE PUSH1 0x20 ADD PUSH1 0x2B PUSH1 0xFF AND DUP2 MSTORE PUSH1 0x20 ADD PUSH1 0x4 PUSH1 0xFF AND DUP2 MSTORE PUSH1 0x20 ADD PUSH1 0x7E PUSH1 0xFF AND DUP2 MSTORE PUSH1 0x20 ADD PUSH1 0xBA PUSH1 0xFF AND DUP2 MSTORE PUSH1 0x20 ADD PUSH1 0x77 PUSH1 0xFF AND DUP2 MSTORE PUSH1 0x20 ADD PUSH1 0xD6 PUSH1 0xFF AND DUP2 MSTORE PUSH1 0x20 ADD PUSH1 0x26 PUSH1 0xFF AND DUP2 MSTORE PUSH1 0x20 ADD PUSH1 0xE1 PUSH1 0xFF AND DUP2 MSTORE PUSH1 0x20 ADD PUSH1 0x69 PUSH1 0xFF AND DUP2 MSTORE PUSH1 0x20 ADD PUSH1 0x14 PUSH1 0xFF AND DUP2 MSTORE PUSH1 0x20 ADD PUSH1 0x63 PUSH1 0xFF AND DUP2 MSTORE PUSH1 0x20 ADD PUSH1 0x55 PUSH1 0xFF AND DUP2 MSTORE PUSH1 0x20 ADD PUSH1 0x21 PUSH1 0xFF AND DUP2 MSTORE PUSH1 0x20 ADD PUSH1 0xC PUSH1 0xFF AND DUP2 MSTORE PUSH1 0x20 ADD PUSH1 0x7D PUSH1 0xFF AND DUP2 MSTORE POP PUSH1 0x9 SWAP1 PUSH2 0x100 PUSH2 0x14BF SWAP3 SWAP2 SWAP1 PUSH2 0x299D JUMP JUMPDEST POP PUSH1 0x40 MLOAD DUP1 PUSH2 0x2000 ADD PUSH1 0x40 MSTORE DUP1 PUSH0 PUSH1 0xFF AND DUP2 MSTORE PUSH1 0x20 ADD PUSH0 PUSH1 0xFF AND DUP2 MSTORE PUSH1 0x20 ADD PUSH1 0xC8 PUSH1 0xFF AND DUP2 MSTORE PUSH1 0x20 ADD PUSH1 0x8 PUSH1 0xFF AND DUP2 MSTORE PUSH1 0x20 ADD PUSH1 0x91 PUSH1 0xFF AND DUP2 MSTORE PUSH1 0x20 ADD PUSH1 0x10 PUSH1 0xFF AND DUP2 MSTORE PUSH1 0x20 ADD PUSH1 0xD0 PUSH1 0xFF AND DUP2 MSTORE PUSH1 0x20 ADD PUSH1 0x36 PUSH1 0xFF AND DUP2 MSTORE PUSH1 0x20 ADD PUSH1 0x5A PUSH1 0xFF AND DUP2 MSTORE PUSH1 0x20 ADD PUSH1 0x3E PUSH1 0xFF AND DUP2 MSTORE PUSH1 0x20 ADD PUSH1 0xD8 PUSH1 0xFF AND DUP2 MSTORE PUSH1 0x20 ADD PUSH1 0x43 PUSH1 0xFF AND DUP2 MSTORE PUSH1 0x20 ADD PUSH1 0x99 PUSH1 0xFF AND DUP2 MSTORE PUSH1 0x20 ADD PUSH1 0x77 PUSH1 0xFF AND DUP2 MSTORE PUSH1 0x20 ADD PUSH1 0xFE PUSH1 0xFF AND DUP2 MSTORE PUSH1 0x20 ADD PUSH1 0x18 PUSH1 0xFF AND DUP2 MSTORE PUSH1 0x20 ADD PUSH1 0x23 PUSH1 0xFF AND DUP2 MSTORE PUSH1 0x20 ADD PUSH1 0x20 PUSH1 0xFF AND DUP2 MSTORE PUSH1 0x20 ADD PUSH1 0x7 PUSH1 0xFF AND DUP2 MSTORE PUSH1 0x20 ADD PUSH1 0x70 PUSH1 0xFF AND DUP2 MSTORE PUSH1 0x20 ADD PUSH1 0xA1 PUSH1 0xFF AND DUP2 MSTORE PUSH1 0x20 ADD PUSH1 0x6C PUSH1 0xFF AND DUP2 MSTORE PUSH1 0x20 ADD PUSH1 0xC PUSH1 0xFF AND DUP2 MSTORE PUSH1 0x20 ADD PUSH1 0x7F PUSH1 0xFF AND DUP2 MSTORE PUSH1 0x20 ADD PUSH1 0x62 PUSH1 0xFF AND DUP2 MSTORE PUSH1 0x20 ADD PUSH1 0x8B PUSH1 0xFF AND DUP2 MSTORE PUSH1 0x20 ADD PUSH1 0x40 PUSH1 0xFF AND DUP2 MSTORE PUSH1 0x20 ADD PUSH1 0x46 PUSH1 0xFF AND DUP2 MSTORE PUSH1 0x20 ADD PUSH1 0xC7 PUSH1 0xFF AND DUP2 MSTORE PUSH1 0x20 ADD PUSH1 0x4B PUSH1 0xFF AND DUP2 MSTORE PUSH1 0x20 ADD PUSH1 0xE0 PUSH1 0xFF AND DUP2 MSTORE PUSH1 0x20 ADD PUSH1 0xE PUSH1 0xFF AND DUP2 MSTORE PUSH1 0x20 ADD PUSH1 0xEB PUSH1 0xFF AND DUP2 MSTORE PUSH1 0x20 ADD PUSH1 0x16 PUSH1 0xFF AND DUP2 MSTORE PUSH1 0x20 ADD PUSH1 0xE8 PUSH1 0xFF AND DUP2 MSTORE PUSH1 0x20 ADD PUSH1 0xAD PUSH1 0xFF AND DUP2 MSTORE PUSH1 0x20 ADD PUSH1 0xCF PUSH1 0xFF AND DUP2 MSTORE PUSH1 0x20 ADD PUSH1 0xCD PUSH1 0xFF AND DUP2 MSTORE PUSH1 0x20 ADD PUSH1 0x39 PUSH1 0xFF AND DUP2 MSTORE PUSH1 0x20 ADD PUSH1 0x53 PUSH1 0xFF AND DUP2 MSTORE PUSH1 0x20 ADD PUSH1 0x6A PUSH1 0xFF AND DUP2 MSTORE PUSH1 0x20 ADD PUSH1 0x27 PUSH1 0xFF AND DUP2 MSTORE PUSH1 0x20 ADD PUSH1 0x35 PUSH1 0xFF AND DUP2 MSTORE PUSH1 0x20 ADD PUSH1 0x93 PUSH1 0xFF AND DUP2 MSTORE PUSH1 0x20 ADD PUSH1 0xD4 PUSH1 0xFF AND DUP2 MSTORE PUSH1 0x20 ADD PUSH1 0x4E PUSH1 0xFF AND DUP2 MSTORE PUSH1 0x20 ADD PUSH1 0x48 PUSH1 0xFF AND DUP2 MSTORE PUSH1 0x20 ADD PUSH1 0xC3 PUSH1 0xFF AND DUP2 MSTORE PUSH1 0x20 ADD PUSH1 0x2B PUSH1 0xFF AND DUP2 MSTORE PUSH1 0x20 ADD PUSH1 0x79 PUSH1 0xFF AND DUP2 MSTORE PUSH1 0x20 ADD PUSH1 0x54 PUSH1 0xFF AND DUP2 MSTORE PUSH1 0x20 ADD PUSH1 0x28 PUSH1 0xFF AND DUP2 MSTORE PUSH1 0x20 ADD PUSH1 0x9 PUSH1 0xFF AND DUP2 MSTORE PUSH1 0x20 ADD PUSH1 0x78 PUSH1 0xFF AND DUP2 MSTORE PUSH1 0x20 ADD PUSH1 0xF PUSH1 0xFF AND DUP2 MSTORE PUSH1 0x20 ADD PUSH1 0x21 PUSH1 0xFF AND DUP2 MSTORE PUSH1 0x20 ADD PUSH1 0x90 PUSH1 0xFF AND DUP2 MSTORE PUSH1 0x20 ADD PUSH1 0x87 PUSH1 0xFF AND DUP2 MSTORE PUSH1 0x20 ADD PUSH1 0x14 PUSH1 0xFF AND DUP2 MSTORE PUSH1 0x20 ADD PUSH1 0x2A PUSH1 0xFF AND DUP2 MSTORE PUSH1 0x20 ADD PUSH1 0xA9 PUSH1 0xFF AND DUP2 MSTORE PUSH1 0x20 ADD PUSH1 0x9C PUSH1 0xFF AND DUP2 MSTORE PUSH1 0x20 ADD PUSH1 0xD6 PUSH1 0xFF AND DUP2 MSTORE PUSH1 0x20 ADD PUSH1 0x74 PUSH1 0xFF AND DUP2 MSTORE PUSH1 0x20 ADD PUSH1 0xB4 PUSH1 0xFF AND DUP2 MSTORE PUSH1 0x20 ADD PUSH1 0x7C PUSH1 0xFF AND DUP2 MSTORE PUSH1 0x20 ADD PUSH1 0xDE PUSH1 0xFF AND DUP2 MSTORE PUSH1 0x20 ADD PUSH1 0xED PUSH1 0xFF AND DUP2 MSTORE PUSH1 0x20 ADD PUSH1 0xB1 PUSH1 0xFF AND DUP2 MSTORE PUSH1 0x20 ADD PUSH1 0x86 PUSH1 0xFF AND DUP2 MSTORE PUSH1 0x20 ADD PUSH1 0x76 PUSH1 0xFF AND DUP2 MSTORE PUSH1 0x20 ADD PUSH1 0xA4 PUSH1 0xFF AND DUP2 MSTORE PUSH1 0x20 ADD PUSH1 0x98 PUSH1 0xFF AND DUP2 MSTORE PUSH1 0x20 ADD PUSH1 0xE2 PUSH1 0xFF AND DUP2 MSTORE PUSH1 0x20 ADD PUSH1 0x96 PUSH1 0xFF AND DUP2 MSTORE PUSH1 0x20 ADD PUSH1 0x8F PUSH1 0xFF AND DUP2 MSTORE PUSH1 0x20 ADD PUSH1 0x2 PUSH1 0xFF AND DUP2 MSTORE PUSH1 0x20 ADD PUSH1 0x32 PUSH1 0xFF AND DUP2 MSTORE PUSH1 0x20 ADD PUSH1 0x1C PUSH1 0xFF AND DUP2 MSTORE PUSH1 0x20 ADD PUSH1 0xC1 PUSH1 0xFF AND DUP2 MSTORE PUSH1 0x20 ADD PUSH1 0x33 PUSH1 0xFF AND DUP2 MSTORE PUSH1 0x20 ADD PUSH1 0xEE PUSH1 0xFF AND DUP2 MSTORE PUSH1 0x20 ADD PUSH1 0xEF PUSH1 0xFF AND DUP2 MSTORE PUSH1 0x20 ADD PUSH1 0x81 PUSH1 0xFF AND DUP2 MSTORE PUSH1 0x20 ADD PUSH1 0xFD PUSH1 0xFF AND DUP2 MSTORE PUSH1 0x20 ADD PUSH1 0x30 PUSH1 0xFF AND DUP2 MSTORE PUSH1 0x20 ADD PUSH1 0x5C PUSH1 0xFF AND DUP2 MSTORE PUSH1 0x20 ADD PUSH1 0x13 PUSH1 0xFF AND DUP2 MSTORE PUSH1 0x20 ADD PUSH1 0x9D PUSH1 0xFF AND DUP2 MSTORE PUSH1 0x20 ADD PUSH1 0x29 PUSH1 0xFF AND DUP2 MSTORE PUSH1 0x20 ADD PUSH1 0x17 PUSH1 0xFF AND DUP2 MSTORE PUSH1 0x20 ADD PUSH1 0xC4 PUSH1 0xFF AND DUP2 MSTORE PUSH1 0x20 ADD PUSH1 0x11 PUSH1 0xFF AND DUP2 MSTORE PUSH1 0x20 ADD PUSH1 0x44 PUSH1 0xFF AND DUP2 MSTORE PUSH1 0x20 ADD PUSH1 0x8C PUSH1 0xFF AND DUP2 MSTORE PUSH1 0x20 ADD PUSH1 0x80 PUSH1 0xFF AND DUP2 MSTORE PUSH1 0x20 ADD PUSH1 0xF3 PUSH1 0xFF AND DUP2 MSTORE PUSH1 0x20 ADD PUSH1 0x73 PUSH1 0xFF AND DUP2 MSTORE PUSH1 0x20 ADD PUSH1 0x42 PUSH1 0xFF AND DUP2 MSTORE PUSH1 0x20 ADD PUSH1 0x1E PUSH1 0xFF AND DUP2 MSTORE PUSH1 0x20 ADD PUSH1 0x1D PUSH1 0xFF AND DUP2 MSTORE PUSH1 0x20 ADD PUSH1 0xB5 PUSH1 0xFF AND DUP2 MSTORE PUSH1 0x20 ADD PUSH1 0xF0 PUSH1 0xFF AND DUP2 MSTORE PUSH1 0x20 ADD PUSH1 0x12 PUSH1 0xFF AND DUP2 MSTORE PUSH1 0x20 ADD PUSH1 0xD1 PUSH1 0xFF AND DUP2 MSTORE PUSH1 0x20 ADD PUSH1 0x5B PUSH1 0xFF AND DUP2 MSTORE PUSH1 0x20 ADD PUSH1 0x41 PUSH1 0xFF AND DUP2 MSTORE PUSH1 0x20 ADD PUSH1 0xA2 PUSH1 0xFF AND DUP2 MSTORE PUSH1 0x20 ADD PUSH1 0xD7 PUSH1 0xFF AND DUP2 MSTORE PUSH1 0x20 ADD PUSH1 0x2C PUSH1 0xFF AND DUP2 MSTORE PUSH1 0x20 ADD PUSH1 0xE9 PUSH1 0xFF AND DUP2 MSTORE PUSH1 0x20 ADD PUSH1 0xD5 PUSH1 0xFF AND DUP2 MSTORE PUSH1 0x20 ADD PUSH1 0x59 PUSH1 0xFF AND DUP2 MSTORE PUSH1 0x20 ADD PUSH1 0xCB PUSH1 0xFF AND DUP2 MSTORE PUSH1 0x20 ADD PUSH1 0x50 PUSH1 0xFF AND DUP2 MSTORE PUSH1 0x20 ADD PUSH1 0xA8 PUSH1 0xFF AND DUP2 MSTORE PUSH1 0x20 ADD PUSH1 0xDC PUSH1 0xFF AND DUP2 MSTORE PUSH1 0x20 ADD PUSH1 0xFC PUSH1 0xFF AND DUP2 MSTORE PUSH1 0x20 ADD PUSH1 0xF2 PUSH1 0xFF AND DUP2 MSTORE PUSH1 0x20 ADD PUSH1 0x56 PUSH1 0xFF AND DUP2 MSTORE PUSH1 0x20 ADD PUSH1 0x72 PUSH1 0xFF AND DUP2 MSTORE PUSH1 0x20 ADD PUSH1 0xA6 PUSH1 0xFF AND DUP2 MSTORE PUSH1 0x20 ADD PUSH1 0x65 PUSH1 0xFF AND DUP2 MSTORE PUSH1 0x20 ADD PUSH1 0x2F PUSH1 0xFF AND DUP2 MSTORE PUSH1 0x20 ADD PUSH1 0x9F PUSH1 0xFF AND DUP2 MSTORE PUSH1 0x20 ADD PUSH1 0x9B PUSH1 0xFF AND DUP2 MSTORE PUSH1 0x20 ADD PUSH1 0x3D PUSH1 0xFF AND DUP2 MSTORE PUSH1 0x20 ADD PUSH1 0xBA PUSH1 0xFF AND DUP2 MSTORE PUSH1 0x20 ADD PUSH1 0x7D PUSH1 0xFF AND DUP2 MSTORE PUSH1 0x20 ADD PUSH1 0xC2 PUSH1 0xFF AND DUP2 MSTORE PUSH1 0x20 ADD PUSH1 0x45 PUSH1 0xFF AND DUP2 MSTORE PUSH1 0x20 ADD PUSH1 0x82 PUSH1 0xFF AND DUP2 MSTORE PUSH1 0x20 ADD PUSH1 0xA7 PUSH1 0xFF AND DUP2 MSTORE PUSH1 0x20 ADD PUSH1 0x57 PUSH1 0xFF AND DUP2 MSTORE PUSH1 0x20 ADD PUSH1 0xB6 PUSH1 0xFF AND DUP2 MSTORE PUSH1 0x20 ADD PUSH1 0xA3 PUSH1 0xFF AND DUP2 MSTORE PUSH1 0x20 ADD PUSH1 0x7A PUSH1 0xFF AND DUP2 MSTORE PUSH1 0x20 ADD PUSH1 0x75 PUSH1 0xFF AND DUP2 MSTORE PUSH1 0x20 ADD PUSH1 0x4F PUSH1 0xFF AND DUP2 MSTORE PUSH1 0x20 ADD PUSH1 0xAE PUSH1 0xFF AND DUP2 MSTORE PUSH1 0x20 ADD PUSH1 0x3F PUSH1 0xFF AND DUP2 MSTORE PUSH1 0x20 ADD PUSH1 0x37 PUSH1 0xFF AND DUP2 MSTORE PUSH1 0x20 ADD PUSH1 0x6D PUSH1 0xFF AND DUP2 MSTORE PUSH1 0x20 ADD PUSH1 0x47 PUSH1 0xFF AND DUP2 MSTORE PUSH1 0x20 ADD PUSH1 0x61 PUSH1 0xFF AND DUP2 MSTORE PUSH1 0x20 ADD PUSH1 0xBE PUSH1 0xFF AND DUP2 MSTORE PUSH1 0x20 ADD PUSH1 0xAB PUSH1 0xFF AND DUP2 MSTORE PUSH1 0x20 ADD PUSH1 0xD3 PUSH1 0xFF AND DUP2 MSTORE PUSH1 0x20 ADD PUSH1 0x5F PUSH1 0xFF AND DUP2 MSTORE PUSH1 0x20 ADD PUSH1 0xB0 PUSH1 0xFF AND DUP2 MSTORE PUSH1 0x20 ADD PUSH1 0x58 PUSH1 0xFF AND DUP2 MSTORE PUSH1 0x20 ADD PUSH1 0xAF PUSH1 0xFF AND DUP2 MSTORE PUSH1 0x20 ADD PUSH1 0xCA PUSH1 0xFF AND DUP2 MSTORE PUSH1 0x20 ADD PUSH1 0x5E PUSH1 0xFF AND DUP2 MSTORE PUSH1 0x20 ADD PUSH1 0xFA PUSH1 0xFF AND DUP2 MSTORE PUSH1 0x20 ADD PUSH1 0x85 PUSH1 0xFF AND DUP2 MSTORE PUSH1 0x20 ADD PUSH1 0xE4 PUSH1 0xFF AND DUP2 MSTORE PUSH1 0x20 ADD PUSH1 0x4D PUSH1 0xFF AND DUP2 MSTORE PUSH1 0x20 ADD PUSH1 0x8A PUSH1 0xFF AND DUP2 MSTORE PUSH1 0x20 ADD PUSH1 0x5 PUSH1 0xFF AND DUP2 MSTORE PUSH1 0x20 ADD PUSH1 0xFB PUSH1 0xFF AND DUP2 MSTORE PUSH1 0x20 ADD PUSH1 0x60 PUSH1 0xFF AND DUP2 MSTORE PUSH1 0x20 ADD PUSH1 0xB7 PUSH1 0xFF AND DUP2 MSTORE PUSH1 0x20 ADD PUSH1 0x7B PUSH1 0xFF AND DUP2 MSTORE PUSH1 0x20 ADD PUSH1 0xB8 PUSH1 0xFF AND DUP2 MSTORE PUSH1 0x20 ADD PUSH1 0x26 PUSH1 0xFF AND DUP2 MSTORE PUSH1 0x20 ADD PUSH1 0x4A PUSH1 0xFF AND DUP2 MSTORE PUSH1 0x20 ADD PUSH1 0x67 PUSH1 0xFF AND DUP2 MSTORE PUSH1 0x20 ADD PUSH1 0xC6 PUSH1 0xFF AND DUP2 MSTORE PUSH1 0x20 ADD PUSH1 0x1A PUSH1 0xFF AND DUP2 MSTORE PUSH1 0x20 ADD PUSH1 0xF8 PUSH1 0xFF AND DUP2 MSTORE PUSH1 0x20 ADD PUSH1 0x69 PUSH1 0xFF AND DUP2 MSTORE PUSH1 0x20 ADD PUSH1 0x25 PUSH1 0xFF AND DUP2 MSTORE PUSH1 0x20 ADD PUSH1 0xB3 PUSH1 0xFF AND DUP2 MSTORE PUSH1 0x20 ADD PUSH1 0xDB PUSH1 0xFF AND DUP2 MSTORE PUSH1 0x20 ADD PUSH1 0xBD PUSH1 0xFF AND DUP2 MSTORE PUSH1 0x20 ADD PUSH1 0x66 PUSH1 0xFF AND DUP2 MSTORE PUSH1 0x20 ADD PUSH1 0xDD PUSH1 0xFF AND DUP2 MSTORE PUSH1 0x20 ADD PUSH1 0xF1 PUSH1 0xFF AND DUP2 MSTORE PUSH1 0x20 ADD PUSH1 0xD2 PUSH1 0xFF AND DUP2 MSTORE PUSH1 0x20 ADD PUSH1 0xDF PUSH1 0xFF AND DUP2 MSTORE PUSH1 0x20 ADD PUSH1 0x3 PUSH1 0xFF AND DUP2 MSTORE PUSH1 0x20 ADD PUSH1 0x8D PUSH1 0xFF AND DUP2 MSTORE PUSH1 0x20 ADD PUSH1 0x34 PUSH1 0xFF AND DUP2 MSTORE PUSH1 0x20 ADD PUSH1 0xD9 PUSH1 0xFF AND DUP2 MSTORE PUSH1 0x20 ADD PUSH1 0x92 PUSH1 0xFF AND DUP2 MSTORE PUSH1 0x20 ADD PUSH1 0xD PUSH1 0xFF AND DUP2 MSTORE PUSH1 0x20 ADD PUSH1 0x63 PUSH1 0xFF AND DUP2 MSTORE PUSH1 0x20 ADD PUSH1 0x55 PUSH1 0xFF AND DUP2 MSTORE PUSH1 0x20 ADD PUSH1 0xAA PUSH1 0xFF AND DUP2 MSTORE PUSH1 0x20 ADD PUSH1 0x49 PUSH1 0xFF AND DUP2 MSTORE PUSH1 0x20 ADD PUSH1 0xEC PUSH1 0xFF AND DUP2 MSTORE PUSH1 0x20 ADD PUSH1 0xBC PUSH1 0xFF AND DUP2 MSTORE PUSH1 0x20 ADD PUSH1 0x95 PUSH1 0xFF AND DUP2 MSTORE PUSH1 0x20 ADD PUSH1 0x3C PUSH1 0xFF AND DUP2 MSTORE PUSH1 0x20 ADD PUSH1 0x84 PUSH1 0xFF AND DUP2 MSTORE PUSH1 0x20 ADD PUSH1 0xB PUSH1 0xFF AND DUP2 MSTORE PUSH1 0x20 ADD PUSH1 0xF5 PUSH1 0xFF AND DUP2 MSTORE PUSH1 0x20 ADD PUSH1 0xE6 PUSH1 0xFF AND DUP2 MSTORE PUSH1 0x20 ADD PUSH1 0xE7 PUSH1 0xFF AND DUP2 MSTORE PUSH1 0x20 ADD PUSH1 0xE5 PUSH1 0xFF AND DUP2 MSTORE PUSH1 0x20 ADD PUSH1 0xAC PUSH1 0xFF AND DUP2 MSTORE PUSH1 0x20 ADD PUSH1 0x7E PUSH1 0xFF AND DUP2 MSTORE PUSH1 0x20 ADD PUSH1 0x6E PUSH1 0xFF AND DUP2 MSTORE PUSH1 0x20 ADD PUSH1 0xB9 PUSH1 0xFF AND DUP2 MSTORE PUSH1 0x20 ADD PUSH1 0xF9 PUSH1 0xFF AND DUP2 MSTORE PUSH1 0x20 ADD PUSH1 0xDA PUSH1 0xFF AND DUP2 MSTORE PUSH1 0x20 ADD PUSH1 0x8E PUSH1 0xFF AND DUP2 MSTORE PUSH1 0x20 ADD PUSH1 0x9A PUSH1 0xFF AND DUP2 MSTORE PUSH1 0x20 ADD PUSH1 0xC9 PUSH1 0xFF AND DUP2 MSTORE PUSH1 0x20 ADD PUSH1 0x24 PUSH1 0xFF AND DUP2 MSTORE PUSH1 0x20 ADD PUSH1 0xE1 PUSH1 0xFF AND DUP2 MSTORE PUSH1 0x20 ADD PUSH1 0xA PUSH1 0xFF AND DUP2 MSTORE PUSH1 0x20 ADD PUSH1 0x15 PUSH1 0xFF AND DUP2 MSTORE PUSH1 0x20 ADD PUSH1 0x6B PUSH1 0xFF AND DUP2 MSTORE PUSH1 0x20 ADD PUSH1 0x3A PUSH1 0xFF AND DUP2 MSTORE PUSH1 0x20 ADD PUSH1 0xA0 PUSH1 0xFF AND DUP2 MSTORE PUSH1 0x20 ADD PUSH1 0x51 PUSH1 0xFF AND DUP2 MSTORE PUSH1 0x20 ADD PUSH1 0xF4 PUSH1 0xFF AND DUP2 MSTORE PUSH1 0x20 ADD PUSH1 0xEA PUSH1 0xFF AND DUP2 MSTORE PUSH1 0x20 ADD PUSH1 0xB2 PUSH1 0xFF AND DUP2 MSTORE PUSH1 0x20 ADD PUSH1 0x97 PUSH1 0xFF AND DUP2 MSTORE PUSH1 0x20 ADD PUSH1 0x9E PUSH1 0xFF AND DUP2 MSTORE PUSH1 0x20 ADD PUSH1 0x5D PUSH1 0xFF AND DUP2 MSTORE PUSH1 0x20 ADD PUSH1 0x22 PUSH1 0xFF AND DUP2 MSTORE PUSH1 0x20 ADD PUSH1 0x88 PUSH1 0xFF AND DUP2 MSTORE PUSH1 0x20 ADD PUSH1 0x94 PUSH1 0xFF AND DUP2 MSTORE PUSH1 0x20 ADD PUSH1 0xCE PUSH1 0xFF AND DUP2 MSTORE PUSH1 0x20 ADD PUSH1 0x19 PUSH1 0xFF AND DUP2 MSTORE PUSH1 0x20 ADD PUSH1 0x1 PUSH1 0xFF AND DUP2 MSTORE PUSH1 0x20 ADD PUSH1 0x71 PUSH1 0xFF AND DUP2 MSTORE PUSH1 0x20 ADD PUSH1 0x4C PUSH1 0xFF AND DUP2 MSTORE PUSH1 0x20 ADD PUSH1 0xA5 PUSH1 0xFF AND DUP2 MSTORE PUSH1 0x20 ADD PUSH1 0xE3 PUSH1 0xFF AND DUP2 MSTORE PUSH1 0x20 ADD PUSH1 0xC5 PUSH1 0xFF AND DUP2 MSTORE PUSH1 0x20 ADD PUSH1 0x31 PUSH1 0xFF AND DUP2 MSTORE PUSH1 0x20 ADD PUSH1 0xBB PUSH1 0xFF AND DUP2 MSTORE PUSH1 0x20 ADD PUSH1 0xCC PUSH1 0xFF AND DUP2 MSTORE PUSH1 0x20 ADD PUSH1 0x1F PUSH1 0xFF AND DUP2 MSTORE PUSH1 0x20 ADD PUSH1 0x2D PUSH1 0xFF AND DUP2 MSTORE PUSH1 0x20 ADD PUSH1 0x3B PUSH1 0xFF AND DUP2 MSTORE PUSH1 0x20 ADD PUSH1 0x52 PUSH1 0xFF AND DUP2 MSTORE PUSH1 0x20 ADD PUSH1 0x6F PUSH1 0xFF AND DUP2 MSTORE PUSH1 0x20 ADD PUSH1 0xF6 PUSH1 0xFF AND DUP2 MSTORE PUSH1 0x20 ADD PUSH1 0x2E PUSH1 0xFF AND DUP2 MSTORE PUSH1 0x20 ADD PUSH1 0x89 PUSH1 0xFF AND DUP2 MSTORE PUSH1 0x20 ADD PUSH1 0xF7 PUSH1 0xFF AND DUP2 MSTORE PUSH1 0x20 ADD PUSH1 0xC0 PUSH1 0xFF AND DUP2 MSTORE PUSH1 0x20 ADD PUSH1 0x68 PUSH1 0xFF AND DUP2 MSTORE PUSH1 0x20 ADD PUSH1 0x1B PUSH1 0xFF AND DUP2 MSTORE PUSH1 0x20 ADD PUSH1 0x64 PUSH1 0xFF AND DUP2 MSTORE PUSH1 0x20 ADD PUSH1 0x4 PUSH1 0xFF AND DUP2 MSTORE PUSH1 0x20 ADD PUSH1 0x6 PUSH1 0xFF AND DUP2 MSTORE PUSH1 0x20 ADD PUSH1 0xBF PUSH1 0xFF AND DUP2 MSTORE PUSH1 0x20 ADD PUSH1 0x83 PUSH1 0xFF AND DUP2 MSTORE PUSH1 0x20 ADD PUSH1 0x38 PUSH1 0xFF AND DUP2 MSTORE POP PUSH1 0x11 SWAP1 PUSH2 0x100 PUSH2 0x1ED9 SWAP3 SWAP2 SWAP1 PUSH2 0x299D JUMP JUMPDEST POP PUSH1 0x40 MLOAD DUP1 PUSH2 0x2000 ADD PUSH1 0x40 MSTORE DUP1 PUSH1 0x1 PUSH1 0xFF AND DUP2 MSTORE PUSH1 0x20 ADD PUSH1 0xE5 PUSH1 0xFF AND DUP2 MSTORE PUSH1 0x20 ADD PUSH1 0x4C PUSH1 0xFF AND DUP2 MSTORE PUSH1 0x20 ADD PUSH1 0xB5 PUSH1 0xFF AND DUP2 MSTORE PUSH1 0x20 ADD PUSH1 0xFB PUSH1 0xFF AND DUP2 MSTORE PUSH1 0x20 ADD PUSH1 0x9F PUSH1 0xFF AND DUP2 MSTORE PUSH1 0x20 ADD PUSH1 0xFC PUSH1 0xFF AND DUP2 MSTORE PUSH1 0x20 ADD PUSH1 0x12 PUSH1 0xFF AND DUP2 MSTORE PUSH1 0x20 ADD PUSH1 0x3 PUSH1 0xFF AND DUP2 MSTORE PUSH1 0x20 ADD PUSH1 0x34 PUSH1 0xFF AND DUP2 MSTORE PUSH1 0x20 ADD PUSH1 0xD4 PUSH1 0xFF AND DUP2 MSTORE PUSH1 0x20 ADD PUSH1 0xC4 PUSH1 0xFF AND DUP2 MSTORE PUSH1 0x20 ADD PUSH1 0x16 PUSH1 0xFF AND DUP2 MSTORE PUSH1 0x20 ADD PUSH1 0xBA PUSH1 0xFF AND DUP2 MSTORE PUSH1 0x20 ADD PUSH1 0x1F PUSH1 0xFF AND DUP2 MSTORE PUSH1 0x20 ADD PUSH1 0x36 PUSH1 0xFF AND DUP2 MSTORE PUSH1 0x20 ADD PUSH1 0x5 PUSH1 0xFF AND DUP2 MSTORE PUSH1 0x20 ADD PUSH1 0x5C PUSH1 0xFF AND DUP2 MSTORE PUSH1 0x20 ADD PUSH1 0x67 PUSH1 0xFF AND DUP2 MSTORE PUSH1 0x20 ADD PUSH1 0x57 PUSH1 0xFF AND DUP2 MSTORE PUSH1 0x20 ADD PUSH1 0x3A PUSH1 0xFF AND DUP2 MSTORE PUSH1 0x20 ADD PUSH1 0xD5 PUSH1 0xFF AND DUP2 MSTORE PUSH1 0x20 ADD PUSH1 0x21 PUSH1 0xFF AND DUP2 MSTORE PUSH1 0x20 ADD PUSH1 0x5A PUSH1 0xFF AND DUP2 MSTORE PUSH1 0x20 ADD PUSH1 0xF PUSH1 0xFF AND DUP2 MSTORE PUSH1 0x20 ADD PUSH1 0xE4 PUSH1 0xFF AND DUP2 MSTORE PUSH1 0x20 ADD PUSH1 0xA9 PUSH1 0xFF AND DUP2 MSTORE PUSH1 0x20 ADD PUSH1 0xF9 PUSH1 0xFF AND DUP2 MSTORE PUSH1 0x20 ADD PUSH1 0x4E PUSH1 0xFF AND DUP2 MSTORE PUSH1 0x20 ADD PUSH1 0x64 PUSH1 0xFF AND DUP2 MSTORE PUSH1 0x20 ADD PUSH1 0x63 PUSH1 0xFF AND DUP2 MSTORE PUSH1 0x20 ADD PUSH1 0xEE PUSH1 0xFF AND DUP2 MSTORE PUSH1 0x20 ADD PUSH1 0x11 PUSH1 0xFF AND DUP2 MSTORE PUSH1 0x20 ADD PUSH1 0x37 PUSH1 0xFF AND DUP2 MSTORE PUSH1 0x20 ADD PUSH1 0xE0 PUSH1 0xFF AND DUP2 MSTORE PUSH1 0x20 ADD PUSH1 0x10 PUSH1 0xFF AND DUP2 MSTORE PUSH1 0x20 ADD PUSH1 0xD2 PUSH1 0xFF AND DUP2 MSTORE PUSH1 0x20 ADD PUSH1 0xAC PUSH1 0xFF AND DUP2 MSTORE PUSH1 0x20 ADD PUSH1 0xA5 PUSH1 0xFF AND DUP2 MSTORE PUSH1 0x20 ADD PUSH1 0x29 PUSH1 0xFF AND DUP2 MSTORE PUSH1 0x20 ADD PUSH1 0x33 PUSH1 0xFF AND DUP2 MSTORE PUSH1 0x20 ADD PUSH1 0x59 PUSH1 0xFF AND DUP2 MSTORE PUSH1 0x20 ADD PUSH1 0x3B PUSH1 0xFF AND DUP2 MSTORE PUSH1 0x20 ADD PUSH1 0x30 PUSH1 0xFF AND DUP2 MSTORE PUSH1 0x20 ADD PUSH1 0x6D PUSH1 0xFF AND DUP2 MSTORE PUSH1 0x20 ADD PUSH1 0xEF PUSH1 0xFF AND DUP2 MSTORE PUSH1 0x20 ADD PUSH1 0xF4 PUSH1 0xFF AND DUP2 MSTORE PUSH1 0x20 ADD PUSH1 0x7B PUSH1 0xFF AND DUP2 MSTORE PUSH1 0x20 ADD PUSH1 0x55 PUSH1 0xFF AND DUP2 MSTORE PUSH1 0x20 ADD PUSH1 0xEB PUSH1 0xFF AND DUP2 MSTORE PUSH1 0x20 ADD PUSH1 0x4D PUSH1 0xFF AND DUP2 MSTORE PUSH1 0x20 ADD PUSH1 0x50 PUSH1 0xFF AND DUP2 MSTORE PUSH1 0x20 ADD PUSH1 0xB7 PUSH1 0xFF AND DUP2 MSTORE PUSH1 0x20 ADD PUSH1 0x2A PUSH1 0xFF AND DUP2 MSTORE PUSH1 0x20 ADD PUSH1 0x7 PUSH1 0xFF AND DUP2 MSTORE PUSH1 0x20 ADD PUSH1 0x8D PUSH1 0xFF AND DUP2 MSTORE PUSH1 0x20 ADD PUSH1 0xFF DUP1 AND DUP2 MSTORE PUSH1 0x20 ADD PUSH1 0x26 PUSH1 0xFF AND DUP2 MSTORE PUSH1 0x20 ADD PUSH1 0xD7 PUSH1 0xFF AND DUP2 MSTORE PUSH1 0x20 ADD PUSH1 0xF0 PUSH1 0xFF AND DUP2 MSTORE PUSH1 0x20 ADD PUSH1 0xC2 PUSH1 0xFF AND DUP2 MSTORE PUSH1 0x20 ADD PUSH1 0x7E PUSH1 0xFF AND DUP2 MSTORE PUSH1 0x20 ADD PUSH1 0x9 PUSH1 0xFF AND DUP2 MSTORE PUSH1 0x20 ADD PUSH1 0x8C PUSH1 0xFF AND DUP2 MSTORE PUSH1 0x20 ADD PUSH1 0x1A PUSH1 0xFF AND DUP2 MSTORE PUSH1 0x20 ADD PUSH1 0x6A PUSH1 0xFF AND DUP2 MSTORE PUSH1 0x20 ADD PUSH1 0x62 PUSH1 0xFF AND DUP2 MSTORE PUSH1 0x20 ADD PUSH1 0xB PUSH1 0xFF AND DUP2 MSTORE PUSH1 0x20 ADD PUSH1 0x5D PUSH1 0xFF AND DUP2 MSTORE PUSH1 0x20 ADD PUSH1 0x82 PUSH1 0xFF AND DUP2 MSTORE PUSH1 0x20 ADD PUSH1 0x1B PUSH1 0xFF AND DUP2 MSTORE PUSH1 0x20 ADD PUSH1 0x8F PUSH1 0xFF AND DUP2 MSTORE PUSH1 0x20 ADD PUSH1 0x2E PUSH1 0xFF AND DUP2 MSTORE PUSH1 0x20 ADD PUSH1 0xBE PUSH1 0xFF AND DUP2 MSTORE PUSH1 0x20 ADD PUSH1 0xA6 PUSH1 0xFF AND DUP2 MSTORE PUSH1 0x20 ADD PUSH1 0x1D PUSH1 0xFF AND DUP2 MSTORE PUSH1 0x20 ADD PUSH1 0xE7 PUSH1 0xFF AND DUP2 MSTORE PUSH1 0x20 ADD PUSH1 0x9D PUSH1 0xFF AND DUP2 MSTORE PUSH1 0x20 ADD PUSH1 0x2D PUSH1 0xFF AND DUP2 MSTORE PUSH1 0x20 ADD PUSH1 0x8A PUSH1 0xFF AND DUP2 MSTORE PUSH1 0x20 ADD PUSH1 0x72 PUSH1 0xFF AND DUP2 MSTORE PUSH1 0x20 ADD PUSH1 0xD9 PUSH1 0xFF AND DUP2 MSTORE PUSH1 0x20 ADD PUSH1 0xF1 PUSH1 0xFF AND DUP2 MSTORE PUSH1 0x20 ADD PUSH1 0x27 PUSH1 0xFF AND DUP2 MSTORE PUSH1 0x20 ADD PUSH1 0x32 PUSH1 0xFF AND DUP2 MSTORE PUSH1 0x20 ADD PUSH1 0xBC PUSH1 0xFF AND DUP2 MSTORE PUSH1 0x20 ADD PUSH1 0x77 PUSH1 0xFF AND DUP2 MSTORE PUSH1 0x20 ADD PUSH1 0x85 PUSH1 0xFF AND DUP2 MSTORE PUSH1 0x20 ADD PUSH1 0x96 PUSH1 0xFF AND DUP2 MSTORE PUSH1 0x20 ADD PUSH1 0x70 PUSH1 0xFF AND DUP2 MSTORE PUSH1 0x20 ADD PUSH1 0x8 PUSH1 0xFF AND DUP2 MSTORE PUSH1 0x20 ADD PUSH1 0x69 PUSH1 0xFF AND DUP2 MSTORE PUSH1 0x20 ADD PUSH1 0x56 PUSH1 0xFF AND DUP2 MSTORE PUSH1 0x20 ADD PUSH1 0xDF PUSH1 0xFF AND DUP2 MSTORE PUSH1 0x20 ADD PUSH1 0x99 PUSH1 0xFF AND DUP2 MSTORE PUSH1 0x20 ADD PUSH1 0x94 PUSH1 0xFF AND DUP2 MSTORE PUSH1 0x20 ADD PUSH1 0xA1 PUSH1 0xFF AND DUP2 MSTORE PUSH1 0x20 ADD PUSH1 0x90 PUSH1 0xFF AND DUP2 MSTORE PUSH1 0x20 ADD PUSH1 0x18 PUSH1 0xFF AND DUP2 MSTORE PUSH1 0x20 ADD PUSH1 0xBB PUSH1 0xFF AND DUP2 MSTORE PUSH1 0x20 ADD PUSH1 0xFA PUSH1 0xFF AND DUP2 MSTORE PUSH1 0x20 ADD PUSH1 0x7A PUSH1 0xFF AND DUP2 MSTORE PUSH1 0x20 ADD PUSH1 0xB0 PUSH1 0xFF AND DUP2 MSTORE PUSH1 0x20 ADD PUSH1 0xA7 PUSH1 0xFF AND DUP2 MSTORE PUSH1 0x20 ADD PUSH1 0xF8 PUSH1 0xFF AND DUP2 MSTORE PUSH1 0x20 ADD PUSH1 0xAB PUSH1 0xFF AND DUP2 MSTORE PUSH1 0x20 ADD PUSH1 0x28 PUSH1 0xFF AND DUP2 MSTORE PUSH1 0x20 ADD PUSH1 0xD6 PUSH1 0xFF AND DUP2 MSTORE PUSH1 0x20 ADD PUSH1 0x15 PUSH1 0xFF AND DUP2 MSTORE PUSH1 0x20 ADD PUSH1 0x8E PUSH1 0xFF AND DUP2 MSTORE PUSH1 0x20 ADD PUSH1 0xCB PUSH1 0xFF AND DUP2 MSTORE PUSH1 0x20 ADD PUSH1 0xF2 PUSH1 0xFF AND DUP2 MSTORE PUSH1 0x20 ADD PUSH1 0x13 PUSH1 0xFF AND DUP2 MSTORE PUSH1 0x20 ADD PUSH1 0xE6 PUSH1 0xFF AND DUP2 MSTORE PUSH1 0x20 ADD PUSH1 0x78 PUSH1 0xFF AND DUP2 MSTORE PUSH1 0x20 ADD PUSH1 0x61 PUSH1 0xFF AND DUP2 MSTORE PUSH1 0x20 ADD PUSH1 0x3F PUSH1 0xFF AND DUP2 MSTORE PUSH1 0x20 ADD PUSH1 0x89 PUSH1 0xFF AND DUP2 MSTORE PUSH1 0x20 ADD PUSH1 0x46 PUSH1 0xFF AND DUP2 MSTORE PUSH1 0x20 ADD PUSH1 0xD PUSH1 0xFF AND DUP2 MSTORE PUSH1 0x20 ADD PUSH1 0x35 PUSH1 0xFF AND DUP2 MSTORE PUSH1 0x20 ADD PUSH1 0x31 PUSH1 0xFF AND DUP2 MSTORE PUSH1 0x20 ADD PUSH1 0x88 PUSH1 0xFF AND DUP2 MSTORE PUSH1 0x20 ADD PUSH1 0xA3 PUSH1 0xFF AND DUP2 MSTORE PUSH1 0x20 ADD PUSH1 0x41 PUSH1 0xFF AND DUP2 MSTORE PUSH1 0x20 ADD PUSH1 0x80 PUSH1 0xFF AND DUP2 MSTORE PUSH1 0x20 ADD PUSH1 0xCA PUSH1 0xFF AND DUP2 MSTORE PUSH1 0x20 ADD PUSH1 0x17 PUSH1 0xFF AND DUP2 MSTORE PUSH1 0x20 ADD PUSH1 0x5F PUSH1 0xFF AND DUP2 MSTORE PUSH1 0x20 ADD PUSH1 0x53 PUSH1 0xFF AND DUP2 MSTORE PUSH1 0x20 ADD PUSH1 0x83 PUSH1 0xFF AND DUP2 MSTORE PUSH1 0x20 ADD PUSH1 0xFE PUSH1 0xFF AND DUP2 MSTORE PUSH1 0x20 ADD PUSH1 0xC3 PUSH1 0xFF AND DUP2 MSTORE PUSH1 0x20 ADD PUSH1 0x9B PUSH1 0xFF AND DUP2 MSTORE PUSH1 0x20 ADD PUSH1 0x45 PUSH1 0xFF AND DUP2 MSTORE PUSH1 0x20 ADD PUSH1 0x39 PUSH1 0xFF AND DUP2 MSTORE PUSH1 0x20 ADD PUSH1 0xE1 PUSH1 0xFF AND DUP2 MSTORE PUSH1 0x20 ADD PUSH1 0xF5 PUSH1 0xFF AND DUP2 MSTORE PUSH1 0x20 ADD PUSH1 0x9E PUSH1 0xFF AND DUP2 MSTORE PUSH1 0x20 ADD PUSH1 0x19 PUSH1 0xFF AND DUP2 MSTORE PUSH1 0x20 ADD PUSH1 0x5E PUSH1 0xFF AND DUP2 MSTORE PUSH1 0x20 ADD PUSH1 0xB6 PUSH1 0xFF AND DUP2 MSTORE PUSH1 0x20 ADD PUSH1 0xCF PUSH1 0xFF AND DUP2 MSTORE PUSH1 0x20 ADD PUSH1 0x4B PUSH1 0xFF AND DUP2 MSTORE PUSH1 0x20 ADD PUSH1 0x38 PUSH1 0xFF AND DUP2 MSTORE PUSH1 0x20 ADD PUSH1 0x4 PUSH1 0xFF AND DUP2 MSTORE PUSH1 0x20 ADD PUSH1 0xB9 PUSH1 0xFF AND DUP2 MSTORE PUSH1 0x20 ADD PUSH1 0x2B PUSH1 0xFF AND DUP2 MSTORE PUSH1 0x20 ADD PUSH1 0xE2 PUSH1 0xFF AND DUP2 MSTORE PUSH1 0x20 ADD PUSH1 0xC1 PUSH1 0xFF AND DUP2 MSTORE PUSH1 0x20 ADD PUSH1 0x4A PUSH1 0xFF AND DUP2 MSTORE PUSH1 0x20 ADD PUSH1 0xDD PUSH1 0xFF AND DUP2 MSTORE PUSH1 0x20 ADD PUSH1 0x48 PUSH1 0xFF AND DUP2 MSTORE PUSH1 0x20 ADD PUSH1 0xC PUSH1 0xFF AND DUP2 MSTORE PUSH1 0x20 ADD PUSH1 0xD0 PUSH1 0xFF AND DUP2 MSTORE PUSH1 0x20 ADD PUSH1 0x7D PUSH1 0xFF AND DUP2 MSTORE PUSH1 0x20 ADD PUSH1 0x3D PUSH1 0xFF AND DUP2 MSTORE PUSH1 0x20 ADD PUSH1 0x58 PUSH1 0xFF AND DUP2 MSTORE PUSH1 0x20 ADD PUSH1 0xDE PUSH1 0xFF AND DUP2 MSTORE PUSH1 0x20 ADD PUSH1 0x7C PUSH1 0xFF AND DUP2 MSTORE PUSH1 0x20 ADD PUSH1 0xD8 PUSH1 0xFF AND DUP2 MSTORE PUSH1 0x20 ADD PUSH1 0x14 PUSH1 0xFF AND DUP2 MSTORE PUSH1 0x20 ADD PUSH1 0x6B PUSH1 0xFF AND DUP2 MSTORE PUSH1 0x20 ADD PUSH1 0x87 PUSH1 0xFF AND DUP2 MSTORE PUSH1 0x20 ADD PUSH1 0x47 PUSH1 0xFF AND DUP2 MSTORE PUSH1 0x20 ADD PUSH1 0xE8 PUSH1 0xFF AND DUP2 MSTORE PUSH1 0x20 ADD PUSH1 0x79 PUSH1 0xFF AND DUP2 MSTORE PUSH1 0x20 ADD PUSH1 0x84 PUSH1 0xFF AND DUP2 MSTORE PUSH1 0x20 ADD PUSH1 0x73 PUSH1 0xFF AND DUP2 MSTORE PUSH1 0x20 ADD PUSH1 0x3C PUSH1 0xFF AND DUP2 MSTORE PUSH1 0x20 ADD PUSH1 0xBD PUSH1 0xFF AND DUP2 MSTORE PUSH1 0x20 ADD PUSH1 0x92 PUSH1 0xFF AND DUP2 MSTORE PUSH1 0x20 ADD PUSH1 0xC9 PUSH1 0xFF AND DUP2 MSTORE PUSH1 0x20 ADD PUSH1 0x23 PUSH1 0xFF AND DUP2 MSTORE PUSH1 0x20 ADD PUSH1 0x8B PUSH1 0xFF AND DUP2 MSTORE PUSH1 0x20 ADD PUSH1 0x97 PUSH1 0xFF AND DUP2 MSTORE PUSH1 0x20 ADD PUSH1 0x95 PUSH1 0xFF AND DUP2 MSTORE PUSH1 0x20 ADD PUSH1 0x44 PUSH1 0xFF AND DUP2 MSTORE PUSH1 0x20 ADD PUSH1 0xDC PUSH1 0xFF AND DUP2 MSTORE PUSH1 0x20 ADD PUSH1 0xAD PUSH1 0xFF AND DUP2 MSTORE PUSH1 0x20 ADD PUSH1 0x40 PUSH1 0xFF AND DUP2 MSTORE PUSH1 0x20 ADD PUSH1 0x65 PUSH1 0xFF AND DUP2 MSTORE PUSH1 0x20 ADD PUSH1 0x86 PUSH1 0xFF AND DUP2 MSTORE PUSH1 0x20 ADD PUSH1 0xA2 PUSH1 0xFF AND DUP2 MSTORE PUSH1 0x20 ADD PUSH1 0xA4 PUSH1 0xFF AND DUP2 MSTORE PUSH1 0x20 ADD PUSH1 0xCC PUSH1 0xFF AND DUP2 MSTORE PUSH1 0x20 ADD PUSH1 0x7F PUSH1 0xFF AND DUP2 MSTORE PUSH1 0x20 ADD PUSH1 0xEC PUSH1 0xFF AND DUP2 MSTORE PUSH1 0x20 ADD PUSH1 0xC0 PUSH1 0xFF AND DUP2 MSTORE PUSH1 0x20 ADD PUSH1 0xAF PUSH1 0xFF AND DUP2 MSTORE PUSH1 0x20 ADD PUSH1 0x91 PUSH1 0xFF AND DUP2 MSTORE PUSH1 0x20 ADD PUSH1 0xFD PUSH1 0xFF AND DUP2 MSTORE PUSH1 0x20 ADD PUSH1 0xF7 PUSH1 0xFF AND DUP2 MSTORE PUSH1 0x20 ADD PUSH1 0x4F PUSH1 0xFF AND DUP2 MSTORE PUSH1 0x20 ADD PUSH1 0x81 PUSH1 0xFF AND DUP2 MSTORE PUSH1 0x20 ADD PUSH1 0x2F PUSH1 0xFF AND DUP2 MSTORE PUSH1 0x20 ADD PUSH1 0x5B PUSH1 0xFF AND DUP2 MSTORE PUSH1 0x20 ADD PUSH1 0xEA PUSH1 0xFF AND DUP2 MSTORE PUSH1 0x20 ADD PUSH1 0xA8 PUSH1 0xFF AND DUP2 MSTORE PUSH1 0x20 ADD PUSH1 0x1C PUSH1 0xFF AND DUP2 MSTORE PUSH1 0x20 ADD PUSH1 0x2 PUSH1 0xFF AND DUP2 MSTORE PUSH1 0x20 ADD PUSH1 0xD1 PUSH1 0xFF AND DUP2 MSTORE PUSH1 0x20 ADD PUSH1 0x98 PUSH1 0xFF AND DUP2 MSTORE PUSH1 0x20 ADD PUSH1 0x71 PUSH1 0xFF AND DUP2 MSTORE PUSH1 0x20 ADD PUSH1 0xED PUSH1 0xFF AND DUP2 MSTORE PUSH1 0x20 ADD PUSH1 0x25 PUSH1 0xFF AND DUP2 MSTORE PUSH1 0x20 ADD PUSH1 0xE3 PUSH1 0xFF AND DUP2 MSTORE PUSH1 0x20 ADD PUSH1 0x24 PUSH1 0xFF AND DUP2 MSTORE PUSH1 0x20 ADD PUSH1 0x6 PUSH1 0xFF AND DUP2 MSTORE PUSH1 0x20 ADD PUSH1 0x68 PUSH1 0xFF AND DUP2 MSTORE PUSH1 0x20 ADD PUSH1 0xB3 PUSH1 0xFF AND DUP2 MSTORE PUSH1 0x20 ADD PUSH1 0x93 PUSH1 0xFF AND DUP2 MSTORE PUSH1 0x20 ADD PUSH1 0x2C PUSH1 0xFF AND DUP2 MSTORE PUSH1 0x20 ADD PUSH1 0x6F PUSH1 0xFF AND DUP2 MSTORE PUSH1 0x20 ADD PUSH1 0x3E PUSH1 0xFF AND DUP2 MSTORE PUSH1 0x20 ADD PUSH1 0x6C PUSH1 0xFF AND DUP2 MSTORE PUSH1 0x20 ADD PUSH1 0xA PUSH1 0xFF AND DUP2 MSTORE PUSH1 0x20 ADD PUSH1 0xB8 PUSH1 0xFF AND DUP2 MSTORE PUSH1 0x20 ADD PUSH1 0xCE PUSH1 0xFF AND DUP2 MSTORE PUSH1 0x20 ADD PUSH1 0xAE PUSH1 0xFF AND DUP2 MSTORE PUSH1 0x20 ADD PUSH1 0x74 PUSH1 0xFF AND DUP2 MSTORE PUSH1 0x20 ADD PUSH1 0xB1 PUSH1 0xFF AND DUP2 MSTORE PUSH1 0x20 ADD PUSH1 0x42 PUSH1 0xFF AND DUP2 MSTORE PUSH1 0x20 ADD PUSH1 0xB4 PUSH1 0xFF AND DUP2 MSTORE PUSH1 0x20 ADD PUSH1 0x1E PUSH1 0xFF AND DUP2 MSTORE PUSH1 0x20 ADD PUSH1 0xD3 PUSH1 0xFF AND DUP2 MSTORE PUSH1 0x20 ADD PUSH1 0x49 PUSH1 0xFF AND DUP2 MSTORE PUSH1 0x20 ADD PUSH1 0xE9 PUSH1 0xFF AND DUP2 MSTORE PUSH1 0x20 ADD PUSH1 0x9C PUSH1 0xFF AND DUP2 MSTORE PUSH1 0x20 ADD PUSH1 0xC8 PUSH1 0xFF AND DUP2 MSTORE PUSH1 0x20 ADD PUSH1 0xC6 PUSH1 0xFF AND DUP2 MSTORE PUSH1 0x20 ADD PUSH1 0xC7 PUSH1 0xFF AND DUP2 MSTORE PUSH1 0x20 ADD PUSH1 0x22 PUSH1 0xFF AND DUP2 MSTORE PUSH1 0x20 ADD PUSH1 0x6E PUSH1 0xFF AND DUP2 MSTORE PUSH1 0x20 ADD PUSH1 0xDB PUSH1 0xFF AND DUP2 MSTORE PUSH1 0x20 ADD PUSH1 0x20 PUSH1 0xFF AND DUP2 MSTORE PUSH1 0x20 ADD PUSH1 0xBF PUSH1 0xFF AND DUP2 MSTORE PUSH1 0x20 ADD PUSH1 0x43 PUSH1 0xFF AND DUP2 MSTORE PUSH1 0x20 ADD PUSH1 0x51 PUSH1 0xFF AND DUP2 MSTORE PUSH1 0x20 ADD PUSH1 0x52 PUSH1 0xFF AND DUP2 MSTORE PUSH1 0x20 ADD PUSH1 0x66 PUSH1 0xFF AND DUP2 MSTORE PUSH1 0x20 ADD PUSH1 0xB2 PUSH1 0xFF AND DUP2 MSTORE PUSH1 0x20 ADD PUSH1 0x76 PUSH1 0xFF AND DUP2 MSTORE PUSH1 0x20 ADD PUSH1 0x60 PUSH1 0xFF AND DUP2 MSTORE PUSH1 0x20 ADD PUSH1 0xDA PUSH1 0xFF AND DUP2 MSTORE PUSH1 0x20 ADD PUSH1 0xC5 PUSH1 0xFF AND DUP2 MSTORE PUSH1 0x20 ADD PUSH1 0xF3 PUSH1 0xFF AND DUP2 MSTORE PUSH1 0x20 ADD PUSH1 0xF6 PUSH1 0xFF AND DUP2 MSTORE PUSH1 0x20 ADD PUSH1 0xAA PUSH1 0xFF AND DUP2 MSTORE PUSH1 0x20 ADD PUSH1 0xCD PUSH1 0xFF AND DUP2 MSTORE PUSH1 0x20 ADD PUSH1 0x9A PUSH1 0xFF AND DUP2 MSTORE PUSH1 0x20 ADD PUSH1 0xA0 PUSH1 0xFF AND DUP2 MSTORE PUSH1 0x20 ADD PUSH1 0x75 PUSH1 0xFF AND DUP2 MSTORE PUSH1 0x20 ADD PUSH1 0x54 PUSH1 0xFF AND DUP2 MSTORE PUSH1 0x20 ADD PUSH1 0xE PUSH1 0xFF AND DUP2 MSTORE PUSH1 0x20 ADD PUSH1 0x1 PUSH1 0xFF AND DUP2 MSTORE POP PUSH1 0x19 SWAP1 PUSH2 0x100 PUSH2 0x28F4 SWAP3 SWAP2 SWAP1 PUSH2 0x299D JUMP JUMPDEST POP CALLVALUE DUP1 ISZERO PUSH2 0x2900 JUMPI PUSH0 DUP1 REVERT JUMPDEST POP PUSH2 0x2A50 JUMP JUMPDEST DUP3 PUSH1 0xB PUSH1 0x1F ADD PUSH1 0x20 SWAP1 DIV DUP2 ADD SWAP3 DUP3 ISZERO PUSH2 0x298C JUMPI SWAP2 PUSH1 0x20 MUL DUP3 ADD PUSH0 JUMPDEST DUP4 DUP3 GT ISZERO PUSH2 0x295E JUMPI DUP4 MLOAD DUP4 DUP3 PUSH2 0x100 EXP DUP2 SLOAD DUP2 PUSH1 0xFF MUL NOT AND SWAP1 DUP4 PUSH1 0xFF AND MUL OR SWAP1 SSTORE POP SWAP3 PUSH1 0x20 ADD SWAP3 PUSH1 0x1 ADD PUSH1 0x20 DUP2 PUSH0 ADD DIV SWAP3 DUP4 ADD SWAP3 PUSH1 0x1 SUB MUL PUSH2 0x2921 JUMP JUMPDEST DUP1 ISZERO PUSH2 0x298A JUMPI DUP3 DUP2 PUSH2 0x100 EXP DUP2 SLOAD SWAP1 PUSH1 0xFF MUL NOT AND SWAP1 SSTORE PUSH1 0x1 ADD PUSH1 0x20 DUP2 PUSH0 ADD DIV SWAP3 DUP4 ADD SWAP3 PUSH1 0x1 SUB MUL PUSH2 0x295E JUMP JUMPDEST POP JUMPDEST POP SWAP1 POP PUSH2 0x2999 SWAP2 SWAP1 PUSH2 0x2A35 JUMP JUMPDEST POP SWAP1 JUMP JUMPDEST DUP3 PUSH2 0x100 PUSH1 0x1F ADD PUSH1 0x20 SWAP1 DIV DUP2 ADD SWAP3 DUP3 ISZERO PUSH2 0x2A24 JUMPI SWAP2 PUSH1 0x20 MUL DUP3 ADD PUSH0 JUMPDEST DUP4 DUP3 GT ISZERO PUSH2 0x29F6 JUMPI DUP4 MLOAD DUP4 DUP3 PUSH2 0x100 EXP DUP2 SLOAD DUP2 PUSH1 0xFF MUL NOT AND SWAP1 DUP4 PUSH1 0xFF AND MUL OR SWAP1 SSTORE POP SWAP3 PUSH1 0x20 ADD SWAP3 PUSH1 0x1 ADD PUSH1 0x20 DUP2 PUSH0 ADD DIV SWAP3 DUP4 ADD SWAP3 PUSH1 0x1 SUB MUL PUSH2 0x29B9 JUMP JUMPDEST DUP1 ISZERO PUSH2 0x2A22 JUMPI DUP3 DUP2 PUSH2 0x100 EXP DUP2 SLOAD SWAP1 PUSH1 0xFF MUL NOT AND SWAP1 SSTORE PUSH1 0x1 ADD PUSH1 0x20 DUP2 PUSH0 ADD DIV SWAP3 DUP4 ADD SWAP3 PUSH1 0x1 SUB MUL PUSH2 0x29F6 JUMP JUMPDEST POP JUMPDEST POP SWAP1 POP PUSH2 0x2A31 SWAP2 SWAP1 PUSH2 0x2A35 JUMP JUMPDEST POP SWAP1 JUMP JUMPDEST JUMPDEST DUP1 DUP3 GT ISZERO PUSH2 0x2A4C JUMPI PUSH0 DUP2 PUSH0 SWAP1 SSTORE POP PUSH1 0x1 ADD PUSH2 0x2A36 JUMP JUMPDEST POP SWAP1 JUMP JUMPDEST PUSH2 0x33CE DUP1 PUSH2 0x2A5D PUSH0 CODECOPY PUSH0 RETURN INVALID PUSH1 0x80 PUSH1 0x40 MSTORE CALLVALUE DUP1 ISZERO PUSH2 0xF JUMPI PUSH0 DUP1 REVERT JUMPDEST POP PUSH1 0x4 CALLDATASIZE LT PUSH2 0x34 JUMPI PUSH0 CALLDATALOAD PUSH1 0xE0 SHR DUP1 PUSH4 0xDC4F8A58 EQ PUSH2 0x38 JUMPI DUP1 PUSH4 0xE007F907 EQ PUSH2 0x68 JUMPI JUMPDEST PUSH0 DUP1 REVERT JUMPDEST PUSH2 0x52 PUSH1 0x4 DUP1 CALLDATASIZE SUB DUP2 ADD SWAP1 PUSH2 0x4D SWAP2 SWAP1 PUSH2 0x3022 JUMP JUMPDEST PUSH2 0x98 JUMP JUMPDEST PUSH1 0x40 MLOAD PUSH2 0x5F SWAP2 SWAP1 PUSH2 0x3107 JUMP JUMPDEST PUSH1 0x40 MLOAD DUP1 SWAP2 SUB SWAP1 RETURN JUMPDEST PUSH2 0x82 PUSH1 0x4 DUP1 CALLDATASIZE SUB DUP2 ADD SWAP1 PUSH2 0x7D SWAP2 SWAP1 PUSH2 0x3022 JUMP JUMPDEST PUSH2 0x6CB JUMP JUMPDEST PUSH1 0x40 MLOAD PUSH2 0x8F SWAP2 SWAP1 PUSH2 0x3107 JUMP JUMPDEST PUSH1 0x40 MLOAD DUP1 SWAP2 SUB SWAP1 RETURN JUMPDEST PUSH2 0xA0 PUSH2 0x2E01 JUMP JUMPDEST PUSH0 PUSH1 0x40 MLOAD DUP1 PUSH1 0x80 ADD PUSH1 0x40 MSTORE DUP1 PUSH1 0x40 MLOAD DUP1 PUSH1 0x80 ADD PUSH1 0x40 MSTORE DUP1 DUP8 PUSH0 PUSH1 0x10 DUP2 LT PUSH2 0xCA JUMPI PUSH2 0xC9 PUSH2 0x3121 JUMP JUMPDEST JUMPDEST PUSH1 0x20 MUL ADD MLOAD PUSH1 0xFF AND PUSH1 0xFF AND DUP2 MSTORE PUSH1 0x20 ADD DUP8 PUSH1 0x4 PUSH1 0x10 DUP2 LT PUSH2 0xEE JUMPI PUSH2 0xED PUSH2 0x3121 JUMP JUMPDEST JUMPDEST PUSH1 0x20 MUL ADD MLOAD PUSH1 0xFF AND PUSH1 0xFF AND DUP2 MSTORE PUSH1 0x20 ADD DUP8 PUSH1 0x8 PUSH1 0x10 DUP2 LT PUSH2 0x112 JUMPI PUSH2 0x111 PUSH2 0x3121 JUMP JUMPDEST JUMPDEST PUSH1 0x20 MUL ADD MLOAD PUSH1 0xFF AND PUSH1 0xFF AND DUP2 MSTORE PUSH1 0x20 ADD DUP8 PUSH1 0xC PUSH1 0x10 DUP2 LT PUSH2 0x136 JUMPI PUSH2 0x135 PUSH2 0x3121 JUMP JUMPDEST JUMPDEST PUSH1 0x20 MUL ADD MLOAD PUSH1 0xFF AND PUSH1 0xFF AND DUP2 MSTORE POP DUP2 MSTORE PUSH1 0x20 ADD PUSH1 0x40 MLOAD DUP1 PUSH1 0x80 ADD PUSH1 0x40 MSTORE DUP1 DUP8 PUSH1 0x1 PUSH1 0x10 DUP2 LT PUSH2 0x168 JUMPI PUSH2 0x167 PUSH2 0x3121 JUMP JUMPDEST JUMPDEST PUSH1 0x20 MUL ADD MLOAD PUSH1 0xFF AND PUSH1 0xFF AND DUP2 MSTORE PUSH1 0x20 ADD DUP8 PUSH1 0x5 PUSH1 0x10 DUP2 LT PUSH2 0x18C JUMPI PUSH2 0x18B PUSH2 0x3121 JUMP JUMPDEST JUMPDEST PUSH1 0x20 MUL ADD MLOAD PUSH1 0xFF AND PUSH1 0xFF AND DUP2 MSTORE PUSH1 0x20 ADD DUP8 PUSH1 0x9 PUSH1 0x10 DUP2 LT PUSH2 0x1B0 JUMPI PUSH2 0x1AF PUSH2 0x3121 JUMP JUMPDEST JUMPDEST PUSH1 0x20 MUL ADD MLOAD PUSH1 0xFF AND PUSH1 0xFF AND DUP2 MSTORE PUSH1 0x20 ADD DUP8 PUSH1 0xD PUSH1 0x10 DUP2 LT PUSH2 0x1D4 JUMPI PUSH2 0x1D3 PUSH2 0x3121 JUMP JUMPDEST JUMPDEST PUSH1 0x20 MUL ADD MLOAD PUSH1 0xFF AND PUSH1 0xFF AND DUP2 MSTORE POP DUP2 MSTORE PUSH1 0x20 ADD PUSH1 0x40 MLOAD DUP1 PUSH1 0x80 ADD PUSH1 0x40 MSTORE DUP1 DUP8 PUSH1 0x2 PUSH1 0x10 DUP2 LT PUSH2 0x206 JUMPI PUSH2 0x205 PUSH2 0x3121 JUMP JUMPDEST JUMPDEST PUSH1 0x20 MUL ADD MLOAD PUSH1 0xFF AND PUSH1 0xFF AND DUP2 MSTORE PUSH1 0x20 ADD DUP8 PUSH1 0x6 PUSH1 0x10 DUP2 LT PUSH2 0x22A JUMPI PUSH2 0x229 PUSH2 0x3121 JUMP JUMPDEST JUMPDEST PUSH1 0x20 MUL ADD MLOAD PUSH1 0xFF AND PUSH1 0xFF AND DUP2 MSTORE PUSH1 0x20 ADD DUP8 PUSH1 0xA PUSH1 0x10 DUP2 LT PUSH2 0x24E JUMPI PUSH2 0x24D PUSH2 0x3121 JUMP JUMPDEST JUMPDEST PUSH1 0x20 MUL ADD MLOAD PUSH1 0xFF AND PUSH1 0xFF AND DUP2 MSTORE PUSH1 0x20 ADD DUP8 PUSH1 0xE PUSH1 0x10 DUP2 LT PUSH2 0x272 JUMPI PUSH2 0x271 PUSH2 0x3121 JUMP JUMPDEST JUMPDEST PUSH1 0x20 MUL ADD MLOAD PUSH1 0xFF AND PUSH1 0xFF AND DUP2 MSTORE POP DUP2 MSTORE PUSH1 0x20 ADD PUSH1 0x40 MLOAD DUP1 PUSH1 0x80 ADD PUSH1 0x40 MSTORE DUP1 DUP8 PUSH1 0x3 PUSH1 0x10 DUP2 LT PUSH2 0x2A4 JUMPI PUSH2 0x2A3 PUSH2 0x3121 JUMP JUMPDEST JUMPDEST PUSH1 0x20 MUL ADD MLOAD PUSH1 0xFF AND PUSH1 0xFF AND DUP2 MSTORE PUSH1 0x20 ADD DUP8 PUSH1 0x7 PUSH1 0x10 DUP2 LT PUSH2 0x2C8 JUMPI PUSH2 0x2C7 PUSH2 0x3121 JUMP JUMPDEST JUMPDEST PUSH1 0x20 MUL ADD MLOAD PUSH1 0xFF AND PUSH1 0xFF AND DUP2 MSTORE PUSH1 0x20 ADD DUP8 PUSH1 0xB PUSH1 0x10 DUP2 LT PUSH2 0x2EC JUMPI PUSH2 0x2EB PUSH2 0x3121 JUMP JUMPDEST JUMPDEST PUSH1 0x20 MUL ADD MLOAD PUSH1 0xFF AND PUSH1 0xFF AND DUP2 MSTORE PUSH1 0x20 ADD DUP8 PUSH1 0xF PUSH1 0x10 DUP2 LT PUSH2 0x310 JUMPI PUSH2 0x30F PUSH2 0x3121 JUMP JUMPDEST JUMPDEST PUSH1 0x20 MUL ADD MLOAD PUSH1 0xFF AND PUSH1 0xFF AND DUP2 MSTORE POP DUP2 MSTORE POP SWAP1 POP PUSH0 PUSH2 0x32D DUP5 PUSH2 0xCFE JUMP JUMPDEST SWAP1 POP PUSH0 PUSH1 0x40 MLOAD DUP1 PUSH1 0x80 ADD PUSH1 0x40 MSTORE DUP1 DUP4 PUSH1 0x28 PUSH1 0x2C DUP2 LT PUSH2 0x34F JUMPI PUSH2 0x34E PUSH2 0x3121 JUMP JUMPDEST JUMPDEST PUSH1 0x20 MUL ADD MLOAD DUP2 MSTORE PUSH1 0x20 ADD DUP4 PUSH1 0x29 PUSH1 0x2C DUP2 LT PUSH2 0x36D JUMPI PUSH2 0x36C PUSH2 0x3121 JUMP JUMPDEST JUMPDEST PUSH1 0x20 MUL ADD MLOAD DUP2 MSTORE PUSH1 0x20 ADD DUP4 PUSH1 0x2A PUSH1 0x2C DUP2 LT PUSH2 0x38B JUMPI PUSH2 0x38A PUSH2 0x3121 JUMP JUMPDEST JUMPDEST PUSH1 0x20 MUL ADD MLOAD DUP2 MSTORE PUSH1 0x20 ADD DUP4 PUSH1 0x2B PUSH1 0x2C DUP2 LT PUSH2 0x3A9 JUMPI PUSH2 0x3A8 PUSH2 0x3121 JUMP JUMPDEST JUMPDEST PUSH1 0x20 MUL ADD MLOAD DUP2 MSTORE POP SWAP1 POP PUSH2 0x3BD DUP4 DUP3 PUSH2 0x14F2 JUMP JUMPDEST SWAP3 POP PUSH0 PUSH1 0x9 SWAP1 POP JUMPDEST PUSH1 0x1 DUP2 LT PUSH2 0x4E0 JUMPI PUSH2 0x3D6 DUP5 PUSH2 0x15CF JUMP JUMPDEST SWAP4 POP PUSH2 0x3E1 DUP5 PUSH2 0x190F JUMP JUMPDEST SWAP4 POP PUSH1 0x40 MLOAD DUP1 PUSH1 0x80 ADD PUSH1 0x40 MSTORE DUP1 DUP5 DUP4 PUSH1 0x4 PUSH2 0x3FC SWAP2 SWAP1 PUSH2 0x3184 JUMP JUMPDEST PUSH1 0x2C DUP2 LT PUSH2 0x40D JUMPI PUSH2 0x40C PUSH2 0x3121 JUMP JUMPDEST JUMPDEST PUSH1 0x20 MUL ADD MLOAD DUP2 MSTORE PUSH1 0x20 ADD DUP5 PUSH1 0x1 DUP5 PUSH1 0x4 PUSH2 0x427 SWAP2 SWAP1 PUSH2 0x3184 JUMP JUMPDEST PUSH2 0x431 SWAP2 SWAP1 PUSH2 0x31C5 JUMP JUMPDEST PUSH1 0x2C DUP2 LT PUSH2 0x442 JUMPI PUSH2 0x441 PUSH2 0x3121 JUMP JUMPDEST JUMPDEST PUSH1 0x20 MUL ADD MLOAD DUP2 MSTORE PUSH1 0x20 ADD DUP5 PUSH1 0x2 DUP5 PUSH1 0x4 PUSH2 0x45C SWAP2 SWAP1 PUSH2 0x3184 JUMP JUMPDEST PUSH2 0x466 SWAP2 SWAP1 PUSH2 0x31C5 JUMP JUMPDEST PUSH1 0x2C DUP2 LT PUSH2 0x477 JUMPI PUSH2 0x476 PUSH2 0x3121 JUMP JUMPDEST JUMPDEST PUSH1 0x20 MUL ADD MLOAD DUP2 MSTORE PUSH1 0x20 ADD DUP5 PUSH1 0x3 DUP5 PUSH1 0x4 PUSH2 0x491 SWAP2 SWAP1 PUSH2 0x3184 JUMP JUMPDEST PUSH2 0x49B SWAP2 SWAP1 PUSH2 0x31C5 JUMP JUMPDEST PUSH1 0x2C DUP2 LT PUSH2 0x4AC JUMPI PUSH2 0x4AB PUSH2 0x3121 JUMP JUMPDEST JUMPDEST PUSH1 0x20 MUL ADD MLOAD DUP2 MSTORE POP SWAP2 POP PUSH2 0x4C0 DUP5 DUP4 PUSH2 0x14F2 JUMP JUMPDEST SWAP4 POP PUSH2 0x4CB DUP5 PUSH2 0x19E8 JUMP JUMPDEST SWAP4 POP DUP1 DUP1 PUSH2 0x4D8 SWAP1 PUSH2 0x31F8 JUMP JUMPDEST SWAP2 POP POP PUSH2 0x3C5 JUMP JUMPDEST POP PUSH2 0x4EA DUP4 PUSH2 0x15CF JUMP JUMPDEST SWAP3 POP PUSH2 0x4F5 DUP4 PUSH2 0x190F JUMP JUMPDEST SWAP3 POP PUSH1 0x40 MLOAD DUP1 PUSH1 0x80 ADD PUSH1 0x40 MSTORE DUP1 DUP4 PUSH0 PUSH1 0x2C DUP2 LT PUSH2 0x515 JUMPI PUSH2 0x514 PUSH2 0x3121 JUMP JUMPDEST JUMPDEST PUSH1 0x20 MUL ADD MLOAD DUP2 MSTORE PUSH1 0x20 ADD DUP4 PUSH1 0x1 PUSH1 0x2C DUP2 LT PUSH2 0x533 JUMPI PUSH2 0x532 PUSH2 0x3121 JUMP JUMPDEST JUMPDEST PUSH1 0x20 MUL ADD MLOAD DUP2 MSTORE PUSH1 0x20 ADD DUP4 PUSH1 0x2 PUSH1 0x2C DUP2 LT PUSH2 0x551 JUMPI PUSH2 0x550 PUSH2 0x3121 JUMP JUMPDEST JUMPDEST PUSH1 0x20 MUL ADD MLOAD DUP2 MSTORE PUSH1 0x20 ADD DUP4 PUSH1 0x3 PUSH1 0x2C DUP2 LT PUSH2 0x56F JUMPI PUSH2 0x56E PUSH2 0x3121 JUMP JUMPDEST JUMPDEST PUSH1 0x20 MUL ADD MLOAD DUP2 MSTORE POP SWAP1 POP PUSH2 0x583 DUP4 DUP3 PUSH2 0x14F2 JUMP JUMPDEST SWAP3 POP PUSH0 PUSH1 0x40 MLOAD DUP1 PUSH2 0x200 ADD PUSH1 0x40 MSTORE DUP1 PUSH0 PUSH1 0xFF AND DUP2 MSTORE PUSH1 0x20 ADD PUSH0 PUSH1 0xFF AND DUP2 MSTORE PUSH1 0x20 ADD PUSH0 PUSH1 0xFF AND DUP2 MSTORE PUSH1 0x20 ADD PUSH0 PUSH1 0xFF AND DUP2 MSTORE PUSH1 0x20 ADD PUSH0 PUSH1 0xFF AND DUP2 MSTORE PUSH1 0x20 ADD PUSH0 PUSH1 0xFF AND DUP2 MSTORE PUSH1 0x20 ADD PUSH0 PUSH1 0xFF AND DUP2 MSTORE PUSH1 0x20 ADD PUSH0 PUSH1 0xFF AND DUP2 MSTORE PUSH1 0x20 ADD PUSH0 PUSH1 0xFF AND DUP2 MSTORE PUSH1 0x20 ADD PUSH0 PUSH1 0xFF AND DUP2 MSTORE PUSH1 0x20 ADD PUSH0 PUSH1 0xFF AND DUP2 MSTORE PUSH1 0x20 ADD PUSH0 PUSH1 0xFF AND DUP2 MSTORE PUSH1 0x20 ADD PUSH0 PUSH1 0xFF AND DUP2 MSTORE PUSH1 0x20 ADD PUSH0 PUSH1 0xFF AND DUP2 MSTORE PUSH1 0x20 ADD PUSH0 PUSH1 0xFF AND DUP2 MSTORE PUSH1 0x20 ADD PUSH0 PUSH1 0xFF AND DUP2 MSTORE POP SWAP1 POP PUSH0 JUMPDEST PUSH1 0x4 DUP2 LT ISZERO PUSH2 0x6BD JUMPI PUSH0 JUMPDEST PUSH1 0x4 DUP2 LT ISZERO PUSH2 0x6AF JUMPI DUP6 DUP2 PUSH1 0x4 DUP2 LT PUSH2 0x64B JUMPI PUSH2 0x64A PUSH2 0x3121 JUMP JUMPDEST JUMPDEST PUSH1 0x20 MUL ADD MLOAD DUP3 PUSH1 0x4 DUP2 LT PUSH2 0x662 JUMPI PUSH2 0x661 PUSH2 0x3121 JUMP JUMPDEST JUMPDEST PUSH1 0x20 MUL ADD MLOAD DUP4 DUP3 DUP5 PUSH1 0x4 PUSH2 0x676 SWAP2 SWAP1 PUSH2 0x3184 JUMP JUMPDEST PUSH2 0x680 SWAP2 SWAP1 PUSH2 0x31C5 JUMP JUMPDEST PUSH1 0x10 DUP2 LT PUSH2 0x691 JUMPI PUSH2 0x690 PUSH2 0x3121 JUMP JUMPDEST JUMPDEST PUSH1 0x20 MUL ADD SWAP1 PUSH1 0xFF AND SWAP1 DUP2 PUSH1 0xFF AND DUP2 MSTORE POP POP DUP1 DUP1 PUSH1 0x1 ADD SWAP2 POP POP PUSH2 0x62F JUMP JUMPDEST POP DUP1 DUP1 PUSH1 0x1 ADD SWAP2 POP POP PUSH2 0x624 JUMP JUMPDEST POP DUP1 SWAP5 POP POP POP POP POP SWAP3 SWAP2 POP POP JUMP JUMPDEST PUSH2 0x6D3 PUSH2 0x2E01 JUMP JUMPDEST PUSH0 PUSH1 0x40 MLOAD DUP1 PUSH1 0x80 ADD PUSH1 0x40 MSTORE DUP1 PUSH1 0x40 MLOAD DUP1 PUSH1 0x80 ADD PUSH1 0x40 MSTORE DUP1 DUP8 PUSH0 PUSH1 0x10 DUP2 LT PUSH2 0x6FD JUMPI PUSH2 0x6FC PUSH2 0x3121 JUMP JUMPDEST JUMPDEST PUSH1 0x20 MUL ADD MLOAD PUSH1 0xFF AND PUSH1 0xFF AND DUP2 MSTORE PUSH1 0x20 ADD DUP8 PUSH1 0x4 PUSH1 0x10 DUP2 LT PUSH2 0x721 JUMPI PUSH2 0x720 PUSH2 0x3121 JUMP JUMPDEST JUMPDEST PUSH1 0x20 MUL ADD MLOAD PUSH1 0xFF AND PUSH1 0xFF AND DUP2 MSTORE PUSH1 0x20 ADD DUP8 PUSH1 0x8 PUSH1 0x10 DUP2 LT PUSH2 0x745 JUMPI PUSH2 0x744 PUSH2 0x3121 JUMP JUMPDEST JUMPDEST PUSH1 0x20 MUL ADD MLOAD PUSH1 0xFF AND PUSH1 0xFF AND DUP2 MSTORE PUSH1 0x20 ADD DUP8 PUSH1 0xC PUSH1 0x10 DUP2 LT PUSH2 0x769 JUMPI PUSH2 0x768 PUSH2 0x3121 JUMP JUMPDEST JUMPDEST PUSH1 0x20 MUL ADD MLOAD PUSH1 0xFF AND PUSH1 0xFF AND DUP2 MSTORE POP DUP2 MSTORE PUSH1 0x20 ADD PUSH1 0x40 MLOAD DUP1 PUSH1 0x80 ADD PUSH1 0x40 MSTORE DUP1 DUP8 PUSH1 0x1 PUSH1 0x10 DUP2 LT PUSH2 0x79B JUMPI PUSH2 0x79A PUSH2 0x3121 JUMP JUMPDEST JUMPDEST PUSH1 0x20 MUL ADD MLOAD PUSH1 0xFF AND PUSH1 0xFF AND DUP2 MSTORE PUSH1 0x20 ADD DUP8 PUSH1 0x5 PUSH1 0x10 DUP2 LT PUSH2 0x7BF JUMPI PUSH2 0x7BE PUSH2 0x3121 JUMP JUMPDEST JUMPDEST PUSH1 0x20 MUL ADD MLOAD PUSH1 0xFF AND PUSH1 0xFF AND DUP2 MSTORE PUSH1 0x20 ADD DUP8 PUSH1 0x9 PUSH1 0x10 DUP2 LT PUSH2 0x7E3 JUMPI PUSH2 0x7E2 PUSH2 0x3121 JUMP JUMPDEST JUMPDEST PUSH1 0x20 MUL ADD MLOAD PUSH1 0xFF AND PUSH1 0xFF AND DUP2 MSTORE PUSH1 0x20 ADD DUP8 PUSH1 0xD PUSH1 0x10 DUP2 LT PUSH2 0x807 JUMPI PUSH2 0x806 PUSH2 0x3121 JUMP JUMPDEST JUMPDEST PUSH1 0x20 MUL ADD MLOAD PUSH1 0xFF AND PUSH1 0xFF AND DUP2 MSTORE POP DUP2 MSTORE PUSH1 0x20 ADD PUSH1 0x40 MLOAD DUP1 PUSH1 0x80 ADD PUSH1 0x40 MSTORE DUP1 DUP8 PUSH1 0x2 PUSH1 0x10 DUP2 LT PUSH2 0x839 JUMPI PUSH2 0x838 PUSH2 0x3121 JUMP JUMPDEST JUMPDEST PUSH1 0x20 MUL ADD MLOAD PUSH1 0xFF AND PUSH1 0xFF AND DUP2 MSTORE PUSH1 0x20 ADD DUP8 PUSH1 0x6 PUSH1 0x10 DUP2 LT PUSH2 0x85D JUMPI PUSH2 0x85C PUSH2 0x3121 JUMP JUMPDEST JUMPDEST PUSH1 0x20 MUL ADD MLOAD PUSH1 0xFF AND PUSH1 0xFF AND DUP2 MSTORE PUSH1 0x20 ADD DUP8 PUSH1 0xA PUSH1 0x10 DUP2 LT PUSH2 0x881 JUMPI PUSH2 0x880 PUSH2 0x3121 JUMP JUMPDEST JUMPDEST PUSH1 0x20 MUL ADD MLOAD PUSH1 0xFF AND PUSH1 0xFF AND DUP2 MSTORE PUSH1 0x20 ADD DUP8 PUSH1 0xE PUSH1 0x10 DUP2 LT PUSH2 0x8A5 JUMPI PUSH2 0x8A4 PUSH2 0x3121 JUMP JUMPDEST JUMPDEST PUSH1 0x20 MUL ADD MLOAD PUSH1 0xFF AND PUSH1 0xFF AND DUP2 MSTORE POP DUP2 MSTORE PUSH1 0x20 ADD PUSH1 0x40 MLOAD DUP1 PUSH1 0x80 ADD PUSH1 0x40 MSTORE DUP1 DUP8 PUSH1 0x3 PUSH1 0x10 DUP2 LT PUSH2 0x8D7 JUMPI PUSH2 0x8D6 PUSH2 0x3121 JUMP JUMPDEST JUMPDEST PUSH1 0x20 MUL ADD MLOAD PUSH1 0xFF AND PUSH1 0xFF AND DUP2 MSTORE PUSH1 0x20 ADD DUP8 PUSH1 0x7 PUSH1 0x10 DUP2 LT PUSH2 0x8FB JUMPI PUSH2 0x8FA PUSH2 0x3121 JUMP JUMPDEST JUMPDEST PUSH1 0x20 MUL ADD MLOAD PUSH1 0xFF AND PUSH1 0xFF AND DUP2 MSTORE PUSH1 0x20 ADD DUP8 PUSH1 0xB PUSH1 0x10 DUP2 LT PUSH2 0x91F JUMPI PUSH2 0x91E PUSH2 0x3121 JUMP JUMPDEST JUMPDEST PUSH1 0x20 MUL ADD MLOAD PUSH1 0xFF AND PUSH1 0xFF AND DUP2 MSTORE PUSH1 0x20 ADD DUP8 PUSH1 0xF PUSH1 0x10 DUP2 LT PUSH2 0x943 JUMPI PUSH2 0x942 PUSH2 0x3121 JUMP JUMPDEST JUMPDEST PUSH1 0x20 MUL ADD MLOAD PUSH1 0xFF AND PUSH1 0xFF AND DUP2 MSTORE POP DUP2 MSTORE POP SWAP1 POP PUSH0 PUSH2 0x960 DUP5 PUSH2 0xCFE JUMP JUMPDEST SWAP1 POP PUSH0 PUSH1 0x40 MLOAD DUP1 PUSH1 0x80 ADD PUSH1 0x40 MSTORE DUP1 DUP4 PUSH0 PUSH1 0x2C DUP2 LT PUSH2 0x981 JUMPI PUSH2 0x980 PUSH2 0x3121 JUMP JUMPDEST JUMPDEST PUSH1 0x20 MUL ADD MLOAD DUP2 MSTORE PUSH1 0x20 ADD DUP4 PUSH1 0x1 PUSH1 0x2C DUP2 LT PUSH2 0x99F JUMPI PUSH2 0x99E PUSH2 0x3121 JUMP JUMPDEST JUMPDEST PUSH1 0x20 MUL ADD MLOAD DUP2 MSTORE PUSH1 0x20 ADD DUP4 PUSH1 0x2 PUSH1 0x2C DUP2 LT PUSH2 0x9BD JUMPI PUSH2 0x9BC PUSH2 0x3121 JUMP JUMPDEST JUMPDEST PUSH1 0x20 MUL ADD MLOAD DUP2 MSTORE PUSH1 0x20 ADD DUP4 PUSH1 0x3 PUSH1 0x2C DUP2 LT PUSH2 0x9DB JUMPI PUSH2 0x9DA PUSH2 0x3121 JUMP JUMPDEST JUMPDEST PUSH1 0x20 MUL ADD MLOAD DUP2 MSTORE POP SWAP1 POP PUSH2 0x9EF DUP4 DUP3 PUSH2 0x14F2 JUMP JUMPDEST SWAP3 POP PUSH2 0x9FA DUP4 PUSH2 0x2000 JUMP JUMPDEST SWAP3 POP PUSH2 0xA05 DUP4 PUSH2 0x20D9 JUMP JUMPDEST SWAP3 POP PUSH0 PUSH1 0x1 SWAP1 POP JUMPDEST PUSH1 0x9 DUP2 GT PUSH2 0xB28 JUMPI PUSH2 0xA1E DUP5 PUSH2 0x2419 JUMP JUMPDEST SWAP4 POP PUSH1 0x40 MLOAD DUP1 PUSH1 0x80 ADD PUSH1 0x40 MSTORE DUP1 DUP5 DUP4 PUSH1 0x4 PUSH2 0xA39 SWAP2 SWAP1 PUSH2 0x3184 JUMP JUMPDEST PUSH1 0x2C DUP2 LT PUSH2 0xA4A JUMPI PUSH2 0xA49 PUSH2 0x3121 JUMP JUMPDEST JUMPDEST PUSH1 0x20 MUL ADD MLOAD DUP2 MSTORE PUSH1 0x20 ADD DUP5 PUSH1 0x1 DUP5 PUSH1 0x4 PUSH2 0xA64 SWAP2 SWAP1 PUSH2 0x3184 JUMP JUMPDEST PUSH2 0xA6E SWAP2 SWAP1 PUSH2 0x31C5 JUMP JUMPDEST PUSH1 0x2C DUP2 LT PUSH2 0xA7F JUMPI PUSH2 0xA7E PUSH2 0x3121 JUMP JUMPDEST JUMPDEST PUSH1 0x20 MUL ADD MLOAD DUP2 MSTORE PUSH1 0x20 ADD DUP5 PUSH1 0x2 DUP5 PUSH1 0x4 PUSH2 0xA99 SWAP2 SWAP1 PUSH2 0x3184 JUMP JUMPDEST PUSH2 0xAA3 SWAP2 SWAP1 PUSH2 0x31C5 JUMP JUMPDEST PUSH1 0x2C DUP2 LT PUSH2 0xAB4 JUMPI PUSH2 0xAB3 PUSH2 0x3121 JUMP JUMPDEST JUMPDEST PUSH1 0x20 MUL ADD MLOAD DUP2 MSTORE PUSH1 0x20 ADD DUP5 PUSH1 0x3 DUP5 PUSH1 0x4 PUSH2 0xACE SWAP2 SWAP1 PUSH2 0x3184 JUMP JUMPDEST PUSH2 0xAD8 SWAP2 SWAP1 PUSH2 0x31C5 JUMP JUMPDEST PUSH1 0x2C DUP2 LT PUSH2 0xAE9 JUMPI PUSH2 0xAE8 PUSH2 0x3121 JUMP JUMPDEST JUMPDEST PUSH1 0x20 MUL ADD MLOAD DUP2 MSTORE POP SWAP2 POP PUSH2 0xAFD DUP5 DUP4 PUSH2 0x14F2 JUMP JUMPDEST SWAP4 POP PUSH2 0xB08 DUP5 PUSH2 0x2000 JUMP JUMPDEST SWAP4 POP PUSH2 0xB13 DUP5 PUSH2 0x20D9 JUMP JUMPDEST SWAP4 POP DUP1 DUP1 PUSH2 0xB20 SWAP1 PUSH2 0x321F JUMP JUMPDEST SWAP2 POP POP PUSH2 0xA0D JUMP JUMPDEST POP PUSH1 0x40 MLOAD DUP1 PUSH1 0x80 ADD PUSH1 0x40 MSTORE DUP1 DUP4 PUSH1 0x28 PUSH1 0x2C DUP2 LT PUSH2 0xB48 JUMPI PUSH2 0xB47 PUSH2 0x3121 JUMP JUMPDEST JUMPDEST PUSH1 0x20 MUL ADD MLOAD DUP2 MSTORE PUSH1 0x20 ADD DUP4 PUSH1 0x29 PUSH1 0x2C DUP2 LT PUSH2 0xB66 JUMPI PUSH2 0xB65 PUSH2 0x3121 JUMP JUMPDEST JUMPDEST PUSH1 0x20 MUL ADD MLOAD DUP2 MSTORE PUSH1 0x20 ADD DUP4 PUSH1 0x2A PUSH1 0x2C DUP2 LT PUSH2 0xB84 JUMPI PUSH2 0xB83 PUSH2 0x3121 JUMP JUMPDEST JUMPDEST PUSH1 0x20 MUL ADD MLOAD DUP2 MSTORE PUSH1 0x20 ADD DUP4 PUSH1 0x2B PUSH1 0x2C DUP2 LT PUSH2 0xBA2 JUMPI PUSH2 0xBA1 PUSH2 0x3121 JUMP JUMPDEST JUMPDEST PUSH1 0x20 MUL ADD MLOAD DUP2 MSTORE POP SWAP1 POP PUSH2 0xBB6 DUP4 DUP3 PUSH2 0x14F2 JUMP JUMPDEST SWAP3 POP PUSH0 PUSH1 0x40 MLOAD DUP1 PUSH2 0x200 ADD PUSH1 0x40 MSTORE DUP1 PUSH0 PUSH1 0xFF AND DUP2 MSTORE PUSH1 0x20 ADD PUSH0 PUSH1 0xFF AND DUP2 MSTORE PUSH1 0x20 ADD PUSH0 PUSH1 0xFF AND DUP2 MSTORE PUSH1 0x20 ADD PUSH0 PUSH1 0xFF AND DUP2 MSTORE PUSH1 0x20 ADD PUSH0 PUSH1 0xFF AND DUP2 MSTORE PUSH1 0x20 ADD PUSH0 PUSH1 0xFF AND DUP2 MSTORE PUSH1 0x20 ADD PUSH0 PUSH1 0xFF AND DUP2 MSTORE PUSH1 0x20 ADD PUSH0 PUSH1 0xFF AND DUP2 MSTORE PUSH1 0x20 ADD PUSH0 PUSH1 0xFF AND DUP2 MSTORE PUSH1 0x20 ADD PUSH0 PUSH1 0xFF AND DUP2 MSTORE PUSH1 0x20 ADD PUSH0 PUSH1 0xFF AND DUP2 MSTORE PUSH1 0x20 ADD PUSH0 PUSH1 0xFF AND DUP2 MSTORE PUSH1 0x20 ADD PUSH0 PUSH1 0xFF AND DUP2 MSTORE PUSH1 0x20 ADD PUSH0 PUSH1 0xFF AND DUP2 MSTORE PUSH1 0x20 ADD PUSH0 PUSH1 0xFF AND DUP2 MSTORE PUSH1 0x20 ADD PUSH0 PUSH1 0xFF AND DUP2 MSTORE POP SWAP1 POP PUSH0 JUMPDEST PUSH1 0x4 DUP2 LT ISZERO PUSH2 0xCF0 JUMPI PUSH0 JUMPDEST PUSH1 0x4 DUP2 LT ISZERO PUSH2 0xCE2 JUMPI DUP6 DUP2 PUSH1 0x4 DUP2 LT PUSH2 0xC7E JUMPI PUSH2 0xC7D PUSH2 0x3121 JUMP JUMPDEST JUMPDEST PUSH1 0x20 MUL ADD MLOAD DUP3 PUSH1 0x4 DUP2 LT PUSH2 0xC95 JUMPI PUSH2 0xC94 PUSH2 0x3121 JUMP JUMPDEST JUMPDEST PUSH1 0x20 MUL ADD MLOAD DUP4 DUP3 DUP5 PUSH1 0x4 PUSH2 0xCA9 SWAP2 SWAP1 PUSH2 0x3184 JUMP JUMPDEST PUSH2 0xCB3 SWAP2 SWAP1 PUSH2 0x31C5 JUMP JUMPDEST PUSH1 0x10 DUP2 LT PUSH2 0xCC4 JUMPI PUSH2 0xCC3 PUSH2 0x3121 JUMP JUMPDEST JUMPDEST PUSH1 0x20 MUL ADD SWAP1 PUSH1 0xFF AND SWAP1 DUP2 PUSH1 0xFF AND DUP2 MSTORE POP POP DUP1 DUP1 PUSH1 0x1 ADD SWAP2 POP POP PUSH2 0xC62 JUMP JUMPDEST POP DUP1 DUP1 PUSH1 0x1 ADD SWAP2 POP POP PUSH2 0xC57 JUMP JUMPDEST POP DUP1 SWAP5 POP POP POP POP POP SWAP3 SWAP2 POP POP JUMP JUMPDEST PUSH2 0xD06 PUSH2 0x2E24 JUMP JUMPDEST PUSH2 0xD0E PUSH2 0x2E24 JUMP JUMPDEST DUP3 PUSH0 PUSH1 0x10 DUP2 LT PUSH2 0xD21 JUMPI PUSH2 0xD20 PUSH2 0x3121 JUMP JUMPDEST JUMPDEST PUSH1 0x20 MUL ADD MLOAD DUP2 PUSH0 PUSH1 0x2C DUP2 LT PUSH2 0xD39 JUMPI PUSH2 0xD38 PUSH2 0x3121 JUMP JUMPDEST JUMPDEST PUSH1 0x20 MUL ADD MLOAD PUSH0 PUSH1 0x4 DUP2 LT PUSH2 0xD50 JUMPI PUSH2 0xD4F PUSH2 0x3121 JUMP JUMPDEST JUMPDEST PUSH1 0x20 MUL ADD SWAP1 PUSH1 0xFF AND SWAP1 DUP2 PUSH1 0xFF AND DUP2 MSTORE POP POP DUP3 PUSH1 0x1 PUSH1 0x10 DUP2 LT PUSH2 0xD75 JUMPI PUSH2 0xD74 PUSH2 0x3121 JUMP JUMPDEST JUMPDEST PUSH1 0x20 MUL ADD MLOAD DUP2 PUSH0 PUSH1 0x2C DUP2 LT PUSH2 0xD8D JUMPI PUSH2 0xD8C PUSH2 0x3121 JUMP JUMPDEST JUMPDEST PUSH1 0x20 MUL ADD MLOAD PUSH1 0x1 PUSH1 0x4 DUP2 LT PUSH2 0xDA5 JUMPI PUSH2 0xDA4 PUSH2 0x3121 JUMP JUMPDEST JUMPDEST PUSH1 0x20 MUL ADD SWAP1 PUSH1 0xFF AND SWAP1 DUP2 PUSH1 0xFF AND DUP2 MSTORE POP POP DUP3 PUSH1 0x2 PUSH1 0x10 DUP2 LT PUSH2 0xDCA JUMPI PUSH2 0xDC9 PUSH2 0x3121 JUMP JUMPDEST JUMPDEST PUSH1 0x20 MUL ADD MLOAD DUP2 PUSH0 PUSH1 0x2C DUP2 LT PUSH2 0xDE2 JUMPI PUSH2 0xDE1 PUSH2 0x3121 JUMP JUMPDEST JUMPDEST PUSH1 0x20 MUL ADD MLOAD PUSH1 0x2 PUSH1 0x4 DUP2 LT PUSH2 0xDFA JUMPI PUSH2 0xDF9 PUSH2 0x3121 JUMP JUMPDEST JUMPDEST PUSH1 0x20 MUL ADD SWAP1 PUSH1 0xFF AND SWAP1 DUP2 PUSH1 0xFF AND DUP2 MSTORE POP POP DUP3 PUSH1 0x3 PUSH1 0x10 DUP2 LT PUSH2 0xE1F JUMPI PUSH2 0xE1E PUSH2 0x3121 JUMP JUMPDEST JUMPDEST PUSH1 0x20 MUL ADD MLOAD DUP2 PUSH0 PUSH1 0x2C DUP2 LT PUSH2 0xE37 JUMPI PUSH2 0xE36 PUSH2 0x3121 JUMP JUMPDEST JUMPDEST PUSH1 0x20 MUL ADD MLOAD PUSH1 0x3 PUSH1 0x4 DUP2 LT PUSH2 0xE4F JUMPI PUSH2 0xE4E PUSH2 0x3121 JUMP JUMPDEST JUMPDEST PUSH1 0x20 MUL ADD SWAP1 PUSH1 0xFF AND SWAP1 DUP2 PUSH1 0xFF AND DUP2 MSTORE POP POP DUP3 PUSH1 0x4 PUSH1 0x10 DUP2 LT PUSH2 0xE74 JUMPI PUSH2 0xE73 PUSH2 0x3121 JUMP JUMPDEST JUMPDEST PUSH1 0x20 MUL ADD MLOAD DUP2 PUSH1 0x1 PUSH1 0x2C DUP2 LT PUSH2 0xE8D JUMPI PUSH2 0xE8C PUSH2 0x3121 JUMP JUMPDEST JUMPDEST PUSH1 0x20 MUL ADD MLOAD PUSH0 PUSH1 0x4 DUP2 LT PUSH2 0xEA4 JUMPI PUSH2 0xEA3 PUSH2 0x3121 JUMP JUMPDEST JUMPDEST PUSH1 0x20 MUL ADD SWAP1 PUSH1 0xFF AND SWAP1 DUP2 PUSH1 0xFF AND DUP2 MSTORE POP POP DUP3 PUSH1 0x5 PUSH1 0x10 DUP2 LT PUSH2 0xEC9 JUMPI PUSH2 0xEC8 PUSH2 0x3121 JUMP JUMPDEST JUMPDEST PUSH1 0x20 MUL ADD MLOAD DUP2 PUSH1 0x1 PUSH1 0x2C DUP2 LT PUSH2 0xEE2 JUMPI PUSH2 0xEE1 PUSH2 0x3121 JUMP JUMPDEST JUMPDEST PUSH1 0x20 MUL ADD MLOAD PUSH1 0x1 PUSH1 0x4 DUP2 LT PUSH2 0xEFA JUMPI PUSH2 0xEF9 PUSH2 0x3121 JUMP JUMPDEST JUMPDEST PUSH1 0x20 MUL ADD SWAP1 PUSH1 0xFF AND SWAP1 DUP2 PUSH1 0xFF AND DUP2 MSTORE POP POP DUP3 PUSH1 0x6 PUSH1 0x10 DUP2 LT PUSH2 0xF1F JUMPI PUSH2 0xF1E PUSH2 0x3121 JUMP JUMPDEST JUMPDEST PUSH1 0x20 MUL ADD MLOAD DUP2 PUSH1 0x1 PUSH1 0x2C DUP2 LT PUSH2 0xF38 JUMPI PUSH2 0xF37 PUSH2 0x3121 JUMP JUMPDEST JUMPDEST PUSH1 0x20 MUL ADD MLOAD PUSH1 0x2 PUSH1 0x4 DUP2 LT PUSH2 0xF50 JUMPI PUSH2 0xF4F PUSH2 0x3121 JUMP JUMPDEST JUMPDEST PUSH1 0x20 MUL ADD SWAP1 PUSH1 0xFF AND SWAP1 DUP2 PUSH1 0xFF AND DUP2 MSTORE POP POP DUP3 PUSH1 0x7 PUSH1 0x10 DUP2 LT PUSH2 0xF75 JUMPI PUSH2 0xF74 PUSH2 0x3121 JUMP JUMPDEST JUMPDEST PUSH1 0x20 MUL ADD MLOAD DUP2 PUSH1 0x1 PUSH1 0x2C DUP2 LT PUSH2 0xF8E JUMPI PUSH2 0xF8D PUSH2 0x3121 JUMP JUMPDEST JUMPDEST PUSH1 0x20 MUL ADD MLOAD PUSH1 0x3 PUSH1 0x4 DUP2 LT PUSH2 0xFA6 JUMPI PUSH2 0xFA5 PUSH2 0x3121 JUMP JUMPDEST JUMPDEST PUSH1 0x20 MUL ADD SWAP1 PUSH1 0xFF AND SWAP1 DUP2 PUSH1 0xFF AND DUP2 MSTORE POP POP DUP3 PUSH1 0x8 PUSH1 0x10 DUP2 LT PUSH2 0xFCB JUMPI PUSH2 0xFCA PUSH2 0x3121 JUMP JUMPDEST JUMPDEST PUSH1 0x20 MUL ADD MLOAD DUP2 PUSH1 0x2 PUSH1 0x2C DUP2 LT PUSH2 0xFE4 JUMPI PUSH2 0xFE3 PUSH2 0x3121 JUMP JUMPDEST JUMPDEST PUSH1 0x20 MUL ADD MLOAD PUSH0 PUSH1 0x4 DUP2 LT PUSH2 0xFFB JUMPI PUSH2 0xFFA PUSH2 0x3121 JUMP JUMPDEST JUMPDEST PUSH1 0x20 MUL ADD SWAP1 PUSH1 0xFF AND SWAP1 DUP2 PUSH1 0xFF AND DUP2 MSTORE POP POP DUP3 PUSH1 0x9 PUSH1 0x10 DUP2 LT PUSH2 0x1020 JUMPI PUSH2 0x101F PUSH2 0x3121 JUMP JUMPDEST JUMPDEST PUSH1 0x20 MUL ADD MLOAD DUP2 PUSH1 0x2 PUSH1 0x2C DUP2 LT PUSH2 0x1039 JUMPI PUSH2 0x1038 PUSH2 0x3121 JUMP JUMPDEST JUMPDEST PUSH1 0x20 MUL ADD MLOAD PUSH1 0x1 PUSH1 0x4 DUP2 LT PUSH2 0x1051 JUMPI PUSH2 0x1050 PUSH2 0x3121 JUMP JUMPDEST JUMPDEST PUSH1 0x20 MUL ADD SWAP1 PUSH1 0xFF AND SWAP1 DUP2 PUSH1 0xFF AND DUP2 MSTORE POP POP DUP3 PUSH1 0xA PUSH1 0x10 DUP2 LT PUSH2 0x1076 JUMPI PUSH2 0x1075 PUSH2 0x3121 JUMP JUMPDEST JUMPDEST PUSH1 0x20 MUL ADD MLOAD DUP2 PUSH1 0x2 PUSH1 0x2C DUP2 LT PUSH2 0x108F JUMPI PUSH2 0x108E PUSH2 0x3121 JUMP JUMPDEST JUMPDEST PUSH1 0x20 MUL ADD MLOAD PUSH1 0x2 PUSH1 0x4 DUP2 LT PUSH2 0x10A7 JUMPI PUSH2 0x10A6 PUSH2 0x3121 JUMP JUMPDEST JUMPDEST PUSH1 0x20 MUL ADD SWAP1 PUSH1 0xFF AND SWAP1 DUP2 PUSH1 0xFF AND DUP2 MSTORE POP POP DUP3 PUSH1 0xB PUSH1 0x10 DUP2 LT PUSH2 0x10CC JUMPI PUSH2 0x10CB PUSH2 0x3121 JUMP JUMPDEST JUMPDEST PUSH1 0x20 MUL ADD MLOAD DUP2 PUSH1 0x2 PUSH1 0x2C DUP2 LT PUSH2 0x10E5 JUMPI PUSH2 0x10E4 PUSH2 0x3121 JUMP JUMPDEST JUMPDEST PUSH1 0x20 MUL ADD MLOAD PUSH1 0x3 PUSH1 0x4 DUP2 LT PUSH2 0x10FD JUMPI PUSH2 0x10FC PUSH2 0x3121 JUMP JUMPDEST JUMPDEST PUSH1 0x20 MUL ADD SWAP1 PUSH1 0xFF AND SWAP1 DUP2 PUSH1 0xFF AND DUP2 MSTORE POP POP DUP3 PUSH1 0xC PUSH1 0x10 DUP2 LT PUSH2 0x1122 JUMPI PUSH2 0x1121 PUSH2 0x3121 JUMP JUMPDEST JUMPDEST PUSH1 0x20 MUL ADD MLOAD DUP2 PUSH1 0x3 PUSH1 0x2C DUP2 LT PUSH2 0x113B JUMPI PUSH2 0x113A PUSH2 0x3121 JUMP JUMPDEST JUMPDEST PUSH1 0x20 MUL ADD MLOAD PUSH0 PUSH1 0x4 DUP2 LT PUSH2 0x1152 JUMPI PUSH2 0x1151 PUSH2 0x3121 JUMP JUMPDEST JUMPDEST PUSH1 0x20 MUL ADD SWAP1 PUSH1 0xFF AND SWAP1 DUP2 PUSH1 0xFF AND DUP2 MSTORE POP POP DUP3 PUSH1 0xD PUSH1 0x10 DUP2 LT PUSH2 0x1177 JUMPI PUSH2 0x1176 PUSH2 0x3121 JUMP JUMPDEST JUMPDEST PUSH1 0x20 MUL ADD MLOAD DUP2 PUSH1 0x3 PUSH1 0x2C DUP2 LT PUSH2 0x1190 JUMPI PUSH2 0x118F PUSH2 0x3121 JUMP JUMPDEST JUMPDEST PUSH1 0x20 MUL ADD MLOAD PUSH1 0x1 PUSH1 0x4 DUP2 LT PUSH2 0x11A8 JUMPI PUSH2 0x11A7 PUSH2 0x3121 JUMP JUMPDEST JUMPDEST PUSH1 0x20 MUL ADD SWAP1 PUSH1 0xFF AND SWAP1 DUP2 PUSH1 0xFF AND DUP2 MSTORE POP POP DUP3 PUSH1 0xE PUSH1 0x10 DUP2 LT PUSH2 0x11CD JUMPI PUSH2 0x11CC PUSH2 0x3121 JUMP JUMPDEST JUMPDEST PUSH1 0x20 MUL ADD MLOAD DUP2 PUSH1 0x3 PUSH1 0x2C DUP2 LT PUSH2 0x11E6 JUMPI PUSH2 0x11E5 PUSH2 0x3121 JUMP JUMPDEST JUMPDEST PUSH1 0x20 MUL ADD MLOAD PUSH1 0x2 PUSH1 0x4 DUP2 LT PUSH2 0x11FE JUMPI PUSH2 0x11FD PUSH2 0x3121 JUMP JUMPDEST JUMPDEST PUSH1 0x20 MUL ADD SWAP1 PUSH1 0xFF AND SWAP1 DUP2 PUSH1 0xFF AND DUP2 MSTORE POP POP DUP3 PUSH1 0xF PUSH1 0x10 DUP2 LT PUSH2 0x1223 JUMPI PUSH2 0x1222 PUSH2 0x3121 JUMP JUMPDEST JUMPDEST PUSH1 0x20 MUL ADD MLOAD DUP2 PUSH1 0x3 PUSH1 0x2C DUP2 LT PUSH2 0x123C JUMPI PUSH2 0x123B PUSH2 0x3121 JUMP JUMPDEST JUMPDEST PUSH1 0x20 MUL ADD MLOAD PUSH1 0x3 PUSH1 0x4 DUP2 LT PUSH2 0x1254 JUMPI PUSH2 0x1253 PUSH2 0x3121 JUMP JUMPDEST JUMPDEST PUSH1 0x20 MUL ADD SWAP1 PUSH1 0xFF AND SWAP1 DUP2 PUSH1 0xFF AND DUP2 MSTORE POP POP PUSH0 PUSH1 0x4 SWAP1 POP JUMPDEST PUSH1 0x2C DUP2 LT ISZERO PUSH2 0x14E8 JUMPI PUSH0 DUP3 PUSH1 0x1 DUP4 PUSH2 0x1283 SWAP2 SWAP1 PUSH2 0x3266 JUMP JUMPDEST PUSH1 0x2C DUP2 LT PUSH2 0x1294 JUMPI PUSH2 0x1293 PUSH2 0x3121 JUMP JUMPDEST JUMPDEST PUSH1 0x20 MUL ADD MLOAD SWAP1 POP PUSH0 PUSH1 0x4 DUP4 PUSH2 0x12A9 SWAP2 SWAP1 PUSH2 0x32C6 JUMP JUMPDEST SUB PUSH2 0x1334 JUMPI PUSH2 0x12BF PUSH2 0x12BA DUP3 PUSH2 0x2A31 JUMP JUMPDEST PUSH2 0x2B68 JUMP JUMPDEST SWAP1 POP PUSH0 PUSH1 0x4 DUP4 PUSH2 0x12CF SWAP2 SWAP1 PUSH2 0x32F6 JUMP JUMPDEST PUSH1 0xB DUP2 LT PUSH2 0x12E0 JUMPI PUSH2 0x12DF PUSH2 0x3121 JUMP JUMPDEST JUMPDEST PUSH1 0x20 SWAP2 DUP3 DUP3 DIV ADD SWAP2 SWAP1 MOD SWAP1 SLOAD SWAP1 PUSH2 0x100 EXP SWAP1 DIV PUSH1 0xFF AND DUP2 PUSH0 PUSH1 0x4 DUP2 LT PUSH2 0x1309 JUMPI PUSH2 0x1308 PUSH2 0x3121 JUMP JUMPDEST JUMPDEST PUSH1 0x20 MUL ADD MLOAD XOR DUP2 PUSH0 PUSH1 0x4 DUP2 LT PUSH2 0x1322 JUMPI PUSH2 0x1321 PUSH2 0x3121 JUMP JUMPDEST JUMPDEST PUSH1 0x20 MUL ADD SWAP1 PUSH1 0xFF AND SWAP1 DUP2 PUSH1 0xFF AND DUP2 MSTORE POP POP JUMPDEST PUSH1 0x40 MLOAD DUP1 PUSH1 0x80 ADD PUSH1 0x40 MSTORE DUP1 DUP5 PUSH1 0x4 DUP6 PUSH2 0x134D SWAP2 SWAP1 PUSH2 0x3266 JUMP JUMPDEST PUSH1 0x2C DUP2 LT PUSH2 0x135E JUMPI PUSH2 0x135D PUSH2 0x3121 JUMP JUMPDEST JUMPDEST PUSH1 0x20 MUL ADD MLOAD PUSH0 PUSH1 0x4 DUP2 LT PUSH2 0x1375 JUMPI PUSH2 0x1374 PUSH2 0x3121 JUMP JUMPDEST JUMPDEST PUSH1 0x20 MUL ADD MLOAD DUP4 PUSH0 PUSH1 0x4 DUP2 LT PUSH2 0x138D JUMPI PUSH2 0x138C PUSH2 0x3121 JUMP JUMPDEST JUMPDEST PUSH1 0x20 MUL ADD MLOAD XOR PUSH1 0xFF AND PUSH1 0xFF AND DUP2 MSTORE PUSH1 0x20 ADD DUP5 PUSH1 0x4 DUP6 PUSH2 0x13AC SWAP2 SWAP1 PUSH2 0x3266 JUMP JUMPDEST PUSH1 0x2C DUP2 LT PUSH2 0x13BD JUMPI PUSH2 0x13BC PUSH2 0x3121 JUMP JUMPDEST JUMPDEST PUSH1 0x20 MUL ADD MLOAD PUSH1 0x1 PUSH1 0x4 DUP2 LT PUSH2 0x13D5 JUMPI PUSH2 0x13D4 PUSH2 0x3121 JUMP JUMPDEST JUMPDEST PUSH1 0x20 MUL ADD MLOAD DUP4 PUSH1 0x1 PUSH1 0x4 DUP2 LT PUSH2 0x13EE JUMPI PUSH2 0x13ED PUSH2 0x3121 JUMP JUMPDEST JUMPDEST PUSH1 0x20 MUL ADD MLOAD XOR PUSH1 0xFF AND PUSH1 0xFF AND DUP2 MSTORE PUSH1 0x20 ADD DUP5 PUSH1 0x4 DUP6 PUSH2 0x140D SWAP2 SWAP1 PUSH2 0x3266 JUMP JUMPDEST PUSH1 0x2C DUP2 LT PUSH2 0x141E JUMPI PUSH2 0x141D PUSH2 0x3121 JUMP JUMPDEST JUMPDEST PUSH1 0x20 MUL ADD MLOAD PUSH1 0x2 PUSH1 0x4 DUP2 LT PUSH2 0x1436 JUMPI PUSH2 0x1435 PUSH2 0x3121 JUMP JUMPDEST JUMPDEST PUSH1 0x20 MUL ADD MLOAD DUP4 PUSH1 0x2 PUSH1 0x4 DUP2 LT PUSH2 0x144F JUMPI PUSH2 0x144E PUSH2 0x3121 JUMP JUMPDEST JUMPDEST PUSH1 0x20 MUL ADD MLOAD XOR PUSH1 0xFF AND PUSH1 0xFF AND DUP2 MSTORE PUSH1 0x20 ADD DUP5 PUSH1 0x4 DUP6 PUSH2 0x146E SWAP2 SWAP1 PUSH2 0x3266 JUMP JUMPDEST PUSH1 0x2C DUP2 LT PUSH2 0x147F JUMPI PUSH2 0x147E PUSH2 0x3121 JUMP JUMPDEST JUMPDEST PUSH1 0x20 MUL ADD MLOAD PUSH1 0x3 PUSH1 0x4 DUP2 LT PUSH2 0x1497 JUMPI PUSH2 0x1496 PUSH2 0x3121 JUMP JUMPDEST JUMPDEST PUSH1 0x20 MUL ADD MLOAD DUP4 PUSH1 0x3 PUSH1 0x4 DUP2 LT PUSH2 0x14B0 JUMPI PUSH2 0x14AF PUSH2 0x3121 JUMP JUMPDEST JUMPDEST PUSH1 0x20 MUL ADD MLOAD XOR PUSH1 0xFF AND PUSH1 0xFF AND DUP2 MSTORE POP DUP4 DUP4 PUSH1 0x2C DUP2 LT PUSH2 0x14D2 JUMPI PUSH2 0x14D1 PUSH2 0x3121 JUMP JUMPDEST JUMPDEST PUSH1 0x20 MUL ADD DUP2 SWAP1 MSTORE POP POP DUP1 DUP1 PUSH1 0x1 ADD SWAP2 POP POP PUSH2 0x126B JUMP JUMPDEST POP DUP1 SWAP2 POP POP SWAP2 SWAP1 POP JUMP JUMPDEST PUSH2 0x14FA PUSH2 0x2E52 JUMP JUMPDEST PUSH0 JUMPDEST PUSH1 0x4 DUP2 LT ISZERO PUSH2 0x15C5 JUMPI PUSH0 JUMPDEST PUSH1 0x4 DUP2 LT ISZERO PUSH2 0x15B7 JUMPI DUP4 DUP2 PUSH1 0x4 DUP2 LT PUSH2 0x1523 JUMPI PUSH2 0x1522 PUSH2 0x3121 JUMP JUMPDEST JUMPDEST PUSH1 0x20 MUL ADD MLOAD DUP3 PUSH1 0x4 DUP2 LT PUSH2 0x153A JUMPI PUSH2 0x1539 PUSH2 0x3121 JUMP JUMPDEST JUMPDEST PUSH1 0x20 MUL ADD MLOAD DUP6 DUP4 PUSH1 0x4 DUP2 LT PUSH2 0x1552 JUMPI PUSH2 0x1551 PUSH2 0x3121 JUMP JUMPDEST JUMPDEST PUSH1 0x20 MUL ADD MLOAD DUP3 PUSH1 0x4 DUP2 LT PUSH2 0x1569 JUMPI PUSH2 0x1568 PUSH2 0x3121 JUMP JUMPDEST JUMPDEST PUSH1 0x20 MUL ADD MLOAD XOR DUP6 DUP4 PUSH1 0x4 DUP2 LT PUSH2 0x1582 JUMPI PUSH2 0x1581 PUSH2 0x3121 JUMP JUMPDEST JUMPDEST PUSH1 0x20 MUL ADD MLOAD DUP3 PUSH1 0x4 DUP2 LT PUSH2 0x1599 JUMPI PUSH2 0x1598 PUSH2 0x3121 JUMP JUMPDEST JUMPDEST PUSH1 0x20 MUL ADD SWAP1 PUSH1 0xFF AND SWAP1 DUP2 PUSH1 0xFF AND DUP2 MSTORE POP POP DUP1 DUP1 PUSH1 0x1 ADD SWAP2 POP POP PUSH2 0x1507 JUMP JUMPDEST POP DUP1 DUP1 PUSH1 0x1 ADD SWAP2 POP POP PUSH2 0x14FC JUMP JUMPDEST POP DUP3 SWAP1 POP SWAP3 SWAP2 POP POP JUMP JUMPDEST PUSH2 0x15D7 PUSH2 0x2E52 JUMP JUMPDEST PUSH0 DUP3 PUSH0 PUSH1 0x4 DUP2 LT PUSH2 0x15EB JUMPI PUSH2 0x15EA PUSH2 0x3121 JUMP JUMPDEST JUMPDEST PUSH1 0x20 MUL ADD MLOAD SWAP1 POP PUSH0 PUSH1 0x40 MLOAD DUP1 PUSH1 0x80 ADD PUSH1 0x40 MSTORE DUP1 DUP6 PUSH1 0x1 PUSH1 0x4 DUP2 LT PUSH2 0x1612 JUMPI PUSH2 0x1611 PUSH2 0x3121 JUMP JUMPDEST JUMPDEST PUSH1 0x20 MUL ADD MLOAD PUSH1 0x3 PUSH1 0x4 DUP2 LT PUSH2 0x162A JUMPI PUSH2 0x1629 PUSH2 0x3121 JUMP JUMPDEST JUMPDEST PUSH1 0x20 MUL ADD MLOAD PUSH1 0xFF AND PUSH1 0xFF AND DUP2 MSTORE PUSH1 0x20 ADD DUP6 PUSH1 0x1 PUSH1 0x4 DUP2 LT PUSH2 0x164E JUMPI PUSH2 0x164D PUSH2 0x3121 JUMP JUMPDEST JUMPDEST PUSH1 0x20 MUL ADD MLOAD PUSH0 PUSH1 0x4 DUP2 LT PUSH2 0x1665 JUMPI PUSH2 0x1664 PUSH2 0x3121 JUMP JUMPDEST JUMPDEST PUSH1 0x20 MUL ADD MLOAD PUSH1 0xFF AND PUSH1 0xFF AND DUP2 MSTORE PUSH1 0x20 ADD DUP6 PUSH1 0x1 PUSH1 0x4 DUP2 LT PUSH2 0x1689 JUMPI PUSH2 0x1688 PUSH2 0x3121 JUMP JUMPDEST JUMPDEST PUSH1 0x20 MUL ADD MLOAD PUSH1 0x1 PUSH1 0x4 DUP2 LT PUSH2 0x16A1 JUMPI PUSH2 0x16A0 PUSH2 0x3121 JUMP JUMPDEST JUMPDEST PUSH1 0x20 MUL ADD MLOAD PUSH1 0xFF AND PUSH1 0xFF AND DUP2 MSTORE PUSH1 0x20 ADD DUP6 PUSH1 0x1 PUSH1 0x4 DUP2 LT PUSH2 0x16C5 JUMPI PUSH2 0x16C4 PUSH2 0x3121 JUMP JUMPDEST JUMPDEST PUSH1 0x20 MUL ADD MLOAD PUSH1 0x2 PUSH1 0x4 DUP2 LT PUSH2 0x16DD JUMPI PUSH2 0x16DC PUSH2 0x3121 JUMP JUMPDEST JUMPDEST PUSH1 0x20 MUL ADD MLOAD PUSH1 0xFF AND PUSH1 0xFF AND DUP2 MSTORE POP SWAP1 POP PUSH0 PUSH1 0x40 MLOAD DUP1 PUSH1 0x80 ADD PUSH1 0x40 MSTORE DUP1 DUP7 PUSH1 0x2 PUSH1 0x4 DUP2 LT PUSH2 0x170D JUMPI PUSH2 0x170C PUSH2 0x3121 JUMP JUMPDEST JUMPDEST PUSH1 0x20 MUL ADD MLOAD PUSH1 0x2 PUSH1 0x4 DUP2 LT PUSH2 0x1725 JUMPI PUSH2 0x1724 PUSH2 0x3121 JUMP JUMPDEST JUMPDEST PUSH1 0x20 MUL ADD MLOAD PUSH1 0xFF AND PUSH1 0xFF AND DUP2 MSTORE PUSH1 0x20 ADD DUP7 PUSH1 0x2 PUSH1 0x4 DUP2 LT PUSH2 0x1749 JUMPI PUSH2 0x1748 PUSH2 0x3121 JUMP JUMPDEST JUMPDEST PUSH1 0x20 MUL ADD MLOAD PUSH1 0x3 PUSH1 0x4 DUP2 LT PUSH2 0x1761 JUMPI PUSH2 0x1760 PUSH2 0x3121 JUMP JUMPDEST JUMPDEST PUSH1 0x20 MUL ADD MLOAD PUSH1 0xFF AND PUSH1 0xFF AND DUP2 MSTORE PUSH1 0x20 ADD DUP7 PUSH1 0x2 PUSH1 0x4 DUP2 LT PUSH2 0x1785 JUMPI PUSH2 0x1784 PUSH2 0x3121 JUMP JUMPDEST JUMPDEST PUSH1 0x20 MUL ADD MLOAD PUSH0 PUSH1 0x4 DUP2 LT PUSH2 0x179C JUMPI PUSH2 0x179B PUSH2 0x3121 JUMP JUMPDEST JUMPDEST PUSH1 0x20 MUL ADD MLOAD PUSH1 0xFF AND PUSH1 0xFF AND DUP2 MSTORE PUSH1 0x20 ADD DUP7 PUSH1 0x2 PUSH1 0x4 DUP2 LT PUSH2 0x17C0 JUMPI PUSH2 0x17BF PUSH2 0x3121 JUMP JUMPDEST JUMPDEST PUSH1 0x20 MUL ADD MLOAD PUSH1 0x1 PUSH1 0x4 DUP2 LT PUSH2 0x17D8 JUMPI PUSH2 0x17D7 PUSH2 0x3121 JUMP JUMPDEST JUMPDEST PUSH1 0x20 MUL ADD MLOAD PUSH1 0xFF AND PUSH1 0xFF AND DUP2 MSTORE POP SWAP1 POP PUSH0 PUSH1 0x40 MLOAD DUP1 PUSH1 0x80 ADD PUSH1 0x40 MSTORE DUP1 DUP8 PUSH1 0x3 PUSH1 0x4 DUP2 LT PUSH2 0x1808 JUMPI PUSH2 0x1807 PUSH2 0x3121 JUMP JUMPDEST JUMPDEST PUSH1 0x20 MUL ADD MLOAD PUSH1 0x1 PUSH1 0x4 DUP2 LT PUSH2 0x1820 JUMPI PUSH2 0x181F PUSH2 0x3121 JUMP JUMPDEST JUMPDEST PUSH1 0x20 MUL ADD MLOAD PUSH1 0xFF AND PUSH1 0xFF AND DUP2 MSTORE PUSH1 0x20 ADD DUP8 PUSH1 0x3 PUSH1 0x4 DUP2 LT PUSH2 0x1844 JUMPI PUSH2 0x1843 PUSH2 0x3121 JUMP JUMPDEST JUMPDEST PUSH1 0x20 MUL ADD MLOAD PUSH1 0x2 PUSH1 0x4 DUP2 LT PUSH2 0x185C JUMPI PUSH2 0x185B PUSH2 0x3121 JUMP JUMPDEST JUMPDEST PUSH1 0x20 MUL ADD MLOAD PUSH1 0xFF AND PUSH1 0xFF AND DUP2 MSTORE PUSH1 0x20 ADD DUP8 PUSH1 0x3 PUSH1 0x4 DUP2 LT PUSH2 0x1880 JUMPI PUSH2 0x187F PUSH2 0x3121 JUMP JUMPDEST JUMPDEST PUSH1 0x20 MUL ADD MLOAD PUSH1 0x3 PUSH1 0x4 DUP2 LT PUSH2 0x1898 JUMPI PUSH2 0x1897 PUSH2 0x3121 JUMP JUMPDEST JUMPDEST PUSH1 0x20 MUL ADD MLOAD PUSH1 0xFF AND PUSH1 0xFF AND DUP2 MSTORE PUSH1 0x20 ADD DUP8 PUSH1 0x3 PUSH1 0x4 DUP2 LT PUSH2 0x18BC JUMPI PUSH2 0x18BB PUSH2 0x3121 JUMP JUMPDEST JUMPDEST PUSH1 0x20 MUL ADD MLOAD PUSH0 PUSH1 0x4 DUP2 LT PUSH2 0x18D3 JUMPI PUSH2 0x18D2 PUSH2 0x3121 JUMP JUMPDEST JUMPDEST PUSH1 0x20 MUL ADD MLOAD PUSH1 0xFF AND PUSH1 0xFF AND DUP2 MSTORE POP SWAP1 POP PUSH1 0x40 MLOAD DUP1 PUSH1 0x80 ADD PUSH1 0x40 MSTORE DUP1 DUP6 DUP2 MSTORE PUSH1 0x20 ADD DUP5 DUP2 MSTORE PUSH1 0x20 ADD DUP4 DUP2 MSTORE PUSH1 0x20 ADD DUP3 DUP2 MSTORE POP SWAP5 POP POP POP POP POP SWAP2 SWAP1 POP JUMP JUMPDEST PUSH2 0x1917 PUSH2 0x2E52 JUMP JUMPDEST PUSH0 JUMPDEST PUSH1 0x4 DUP2 LT ISZERO PUSH2 0x19DF JUMPI PUSH0 JUMPDEST PUSH1 0x4 DUP2 LT ISZERO PUSH2 0x19D1 JUMPI PUSH1 0x9 DUP5 DUP4 PUSH1 0x4 DUP2 LT PUSH2 0x1942 JUMPI PUSH2 0x1941 PUSH2 0x3121 JUMP JUMPDEST JUMPDEST PUSH1 0x20 MUL ADD MLOAD DUP3 PUSH1 0x4 DUP2 LT PUSH2 0x1959 JUMPI PUSH2 0x1958 PUSH2 0x3121 JUMP JUMPDEST JUMPDEST PUSH1 0x20 MUL ADD MLOAD PUSH1 0xFF AND PUSH2 0x100 DUP2 LT PUSH2 0x1973 JUMPI PUSH2 0x1972 PUSH2 0x3121 JUMP JUMPDEST JUMPDEST PUSH1 0x20 SWAP2 DUP3 DUP3 DIV ADD SWAP2 SWAP1 MOD SWAP1 SLOAD SWAP1 PUSH2 0x100 EXP SWAP1 DIV PUSH1 0xFF AND DUP5 DUP4 PUSH1 0x4 DUP2 LT PUSH2 0x199C JUMPI PUSH2 0x199B PUSH2 0x3121 JUMP JUMPDEST JUMPDEST PUSH1 0x20 MUL ADD MLOAD DUP3 PUSH1 0x4 DUP2 LT PUSH2 0x19B3 JUMPI PUSH2 0x19B2 PUSH2 0x3121 JUMP JUMPDEST JUMPDEST PUSH1 0x20 MUL ADD SWAP1 PUSH1 0xFF AND SWAP1 DUP2 PUSH1 0xFF AND DUP2 MSTORE POP POP DUP1 DUP1 PUSH1 0x1 ADD SWAP2 POP POP PUSH2 0x1924 JUMP JUMPDEST POP DUP1 DUP1 PUSH1 0x1 ADD SWAP2 POP POP PUSH2 0x1919 JUMP JUMPDEST POP DUP2 SWAP1 POP SWAP2 SWAP1 POP JUMP JUMPDEST PUSH2 0x19F0 PUSH2 0x2E52 JUMP JUMPDEST PUSH0 PUSH1 0x40 MLOAD DUP1 PUSH1 0x80 ADD PUSH1 0x40 MSTORE DUP1 PUSH1 0x40 MLOAD DUP1 PUSH1 0x80 ADD PUSH1 0x40 MSTORE DUP1 PUSH0 PUSH1 0xFF AND DUP2 MSTORE PUSH1 0x20 ADD PUSH0 PUSH1 0xFF AND DUP2 MSTORE PUSH1 0x20 ADD PUSH0 PUSH1 0xFF AND DUP2 MSTORE PUSH1 0x20 ADD PUSH0 PUSH1 0xFF AND DUP2 MSTORE POP DUP2 MSTORE PUSH1 0x20 ADD PUSH1 0x40 MLOAD DUP1 PUSH1 0x80 ADD PUSH1 0x40 MSTORE DUP1 PUSH0 PUSH1 0xFF AND DUP2 MSTORE PUSH1 0x20 ADD PUSH0 PUSH1 0xFF AND DUP2 MSTORE PUSH1 0x20 ADD PUSH0 PUSH1 0xFF AND DUP2 MSTORE PUSH1 0x20 ADD PUSH0 PUSH1 0xFF AND DUP2 MSTORE POP DUP2 MSTORE PUSH1 0x20 ADD PUSH1 0x40 MLOAD DUP1 PUSH1 0x80 ADD PUSH1 0x40 MSTORE DUP1 PUSH0 PUSH1 0xFF AND DUP2 MSTORE PUSH1 0x20 ADD PUSH0 PUSH1 0xFF AND DUP2 MSTORE PUSH1 0x20 ADD PUSH0 PUSH1 0xFF AND DUP2 MSTORE PUSH1 0x20 ADD PUSH0 PUSH1 0xFF AND DUP2 MSTORE POP DUP2 MSTORE PUSH1 0x20 ADD PUSH1 0x40 MLOAD DUP1 PUSH1 0x80 ADD PUSH1 0x40 MSTORE DUP1 PUSH0 PUSH1 0xFF AND DUP2 MSTORE PUSH1 0x20 ADD PUSH0 PUSH1 0xFF AND DUP2 MSTORE PUSH1 0x20 ADD PUSH0 PUSH1 0xFF AND DUP2 MSTORE PUSH1 0x20 ADD PUSH0 PUSH1 0xFF AND DUP2 MSTORE POP DUP2 MSTORE POP SWAP1 POP PUSH0 JUMPDEST PUSH1 0x4 DUP2 LT ISZERO PUSH2 0x1FF6 JUMPI PUSH0 JUMPDEST PUSH1 0x4 DUP2 LT ISZERO PUSH2 0x1B51 JUMPI DUP5 DUP2 PUSH1 0x4 DUP2 LT PUSH2 0x1AED JUMPI PUSH2 0x1AEC PUSH2 0x3121 JUMP JUMPDEST JUMPDEST PUSH1 0x20 MUL ADD MLOAD DUP3 PUSH1 0x4 DUP2 LT PUSH2 0x1B04 JUMPI PUSH2 0x1B03 PUSH2 0x3121 JUMP JUMPDEST JUMPDEST PUSH1 0x20 MUL ADD MLOAD DUP4 DUP3 PUSH1 0x4 DUP2 LT PUSH2 0x1B1C JUMPI PUSH2 0x1B1B PUSH2 0x3121 JUMP JUMPDEST JUMPDEST PUSH1 0x20 MUL ADD MLOAD DUP4 PUSH1 0x4 DUP2 LT PUSH2 0x1B33 JUMPI PUSH2 0x1B32 PUSH2 0x3121 JUMP JUMPDEST JUMPDEST PUSH1 0x20 MUL ADD SWAP1 PUSH1 0xFF AND SWAP1 DUP2 PUSH1 0xFF AND DUP2 MSTORE POP POP DUP1 DUP1 PUSH1 0x1 ADD SWAP2 POP POP PUSH2 0x1AD1 JUMP JUMPDEST POP PUSH2 0x1B8C DUP3 PUSH1 0x1 PUSH1 0x4 DUP2 LT PUSH2 0x1B69 JUMPI PUSH2 0x1B68 PUSH2 0x3121 JUMP JUMPDEST JUMPDEST PUSH1 0x20 MUL ADD MLOAD DUP3 PUSH1 0x4 DUP2 LT PUSH2 0x1B80 JUMPI PUSH2 0x1B7F PUSH2 0x3121 JUMP JUMPDEST JUMPDEST PUSH1 0x20 MUL ADD MLOAD PUSH1 0xB PUSH2 0x2D22 JUMP JUMPDEST PUSH2 0x1BC6 DUP4 PUSH1 0x2 PUSH1 0x4 DUP2 LT PUSH2 0x1BA3 JUMPI PUSH2 0x1BA2 PUSH2 0x3121 JUMP JUMPDEST JUMPDEST PUSH1 0x20 MUL ADD MLOAD DUP4 PUSH1 0x4 DUP2 LT PUSH2 0x1BBA JUMPI PUSH2 0x1BB9 PUSH2 0x3121 JUMP JUMPDEST JUMPDEST PUSH1 0x20 MUL ADD MLOAD PUSH1 0xD PUSH2 0x2D22 JUMP JUMPDEST PUSH2 0x1C00 DUP5 PUSH1 0x3 PUSH1 0x4 DUP2 LT PUSH2 0x1BDD JUMPI PUSH2 0x1BDC PUSH2 0x3121 JUMP JUMPDEST JUMPDEST PUSH1 0x20 MUL ADD MLOAD DUP5 PUSH1 0x4 DUP2 LT PUSH2 0x1BF4 JUMPI PUSH2 0x1BF3 PUSH2 0x3121 JUMP JUMPDEST JUMPDEST PUSH1 0x20 MUL ADD MLOAD PUSH1 0x9 PUSH2 0x2D22 JUMP JUMPDEST PUSH2 0x1C39 DUP6 PUSH0 PUSH1 0x4 DUP2 LT PUSH2 0x1C16 JUMPI PUSH2 0x1C15 PUSH2 0x3121 JUMP JUMPDEST JUMPDEST PUSH1 0x20 MUL ADD MLOAD DUP6 PUSH1 0x4 DUP2 LT PUSH2 0x1C2D JUMPI PUSH2 0x1C2C PUSH2 0x3121 JUMP JUMPDEST JUMPDEST PUSH1 0x20 MUL ADD MLOAD PUSH1 0xE PUSH2 0x2D22 JUMP JUMPDEST XOR XOR XOR DUP5 PUSH0 PUSH1 0x4 DUP2 LT PUSH2 0x1C4F JUMPI PUSH2 0x1C4E PUSH2 0x3121 JUMP JUMPDEST JUMPDEST PUSH1 0x20 MUL ADD MLOAD DUP3 PUSH1 0x4 DUP2 LT PUSH2 0x1C66 JUMPI PUSH2 0x1C65 PUSH2 0x3121 JUMP JUMPDEST JUMPDEST PUSH1 0x20 MUL ADD SWAP1 PUSH1 0xFF AND SWAP1 DUP2 PUSH1 0xFF AND DUP2 MSTORE POP POP PUSH2 0x1CB1 DUP3 PUSH1 0x2 PUSH1 0x4 DUP2 LT PUSH2 0x1C8E JUMPI PUSH2 0x1C8D PUSH2 0x3121 JUMP JUMPDEST JUMPDEST PUSH1 0x20 MUL ADD MLOAD DUP3 PUSH1 0x4 DUP2 LT PUSH2 0x1CA5 JUMPI PUSH2 0x1CA4 PUSH2 0x3121 JUMP JUMPDEST JUMPDEST PUSH1 0x20 MUL ADD MLOAD PUSH1 0xB PUSH2 0x2D22 JUMP JUMPDEST PUSH2 0x1CEB DUP4 PUSH1 0x3 PUSH1 0x4 DUP2 LT PUSH2 0x1CC8 JUMPI PUSH2 0x1CC7 PUSH2 0x3121 JUMP JUMPDEST JUMPDEST PUSH1 0x20 MUL ADD MLOAD DUP4 PUSH1 0x4 DUP2 LT PUSH2 0x1CDF JUMPI PUSH2 0x1CDE PUSH2 0x3121 JUMP JUMPDEST JUMPDEST PUSH1 0x20 MUL ADD MLOAD PUSH1 0xD PUSH2 0x2D22 JUMP JUMPDEST PUSH2 0x1D24 DUP5 PUSH0 PUSH1 0x4 DUP2 LT PUSH2 0x1D01 JUMPI PUSH2 0x1D00 PUSH2 0x3121 JUMP JUMPDEST JUMPDEST PUSH1 0x20 MUL ADD MLOAD DUP5 PUSH1 0x4 DUP2 LT PUSH2 0x1D18 JUMPI PUSH2 0x1D17 PUSH2 0x3121 JUMP JUMPDEST JUMPDEST PUSH1 0x20 MUL ADD MLOAD PUSH1 0x9 PUSH2 0x2D22 JUMP JUMPDEST PUSH2 0x1D5E DUP6 PUSH1 0x1 PUSH1 0x4 DUP2 LT PUSH2 0x1D3B JUMPI PUSH2 0x1D3A PUSH2 0x3121 JUMP JUMPDEST JUMPDEST PUSH1 0x20 MUL ADD MLOAD DUP6 PUSH1 0x4 DUP2 LT PUSH2 0x1D52 JUMPI PUSH2 0x1D51 PUSH2 0x3121 JUMP JUMPDEST JUMPDEST PUSH1 0x20 MUL ADD MLOAD PUSH1 0xE PUSH2 0x2D22 JUMP JUMPDEST XOR XOR XOR DUP5 PUSH1 0x1 PUSH1 0x4 DUP2 LT PUSH2 0x1D75 JUMPI PUSH2 0x1D74 PUSH2 0x3121 JUMP JUMPDEST JUMPDEST PUSH1 0x20 MUL ADD MLOAD DUP3 PUSH1 0x4 DUP2 LT PUSH2 0x1D8C JUMPI PUSH2 0x1D8B PUSH2 0x3121 JUMP JUMPDEST JUMPDEST PUSH1 0x20 MUL ADD SWAP1 PUSH1 0xFF AND SWAP1 DUP2 PUSH1 0xFF AND DUP2 MSTORE POP POP PUSH2 0x1DD7 DUP3 PUSH1 0x3 PUSH1 0x4 DUP2 LT PUSH2 0x1DB4 JUMPI PUSH2 0x1DB3 PUSH2 0x3121 JUMP JUMPDEST JUMPDEST PUSH1 0x20 MUL ADD MLOAD DUP3 PUSH1 0x4 DUP2 LT PUSH2 0x1DCB JUMPI PUSH2 0x1DCA PUSH2 0x3121 JUMP JUMPDEST JUMPDEST PUSH1 0x20 MUL ADD MLOAD PUSH1 0xB PUSH2 0x2D22 JUMP JUMPDEST PUSH2 0x1E10 DUP4 PUSH0 PUSH1 0x4 DUP2 LT PUSH2 0x1DED JUMPI PUSH2 0x1DEC PUSH2 0x3121 JUMP JUMPDEST JUMPDEST PUSH1 0x20 MUL ADD MLOAD DUP4 PUSH1 0x4 DUP2 LT PUSH2 0x1E04 JUMPI PUSH2 0x1E03 PUSH2 0x3121 JUMP JUMPDEST JUMPDEST PUSH1 0x20 MUL ADD MLOAD PUSH1 0xD PUSH2 0x2D22 JUMP JUMPDEST PUSH2 0x1E4A DUP5 PUSH1 0x1 PUSH1 0x4 DUP2 LT PUSH2 0x1E27 JUMPI PUSH2 0x1E26 PUSH2 0x3121 JUMP JUMPDEST JUMPDEST PUSH1 0x20 MUL ADD MLOAD DUP5 PUSH1 0x4 DUP2 LT PUSH2 0x1E3E JUMPI PUSH2 0x1E3D PUSH2 0x3121 JUMP JUMPDEST JUMPDEST PUSH1 0x20 MUL ADD MLOAD PUSH1 0x9 PUSH2 0x2D22 JUMP JUMPDEST PUSH2 0x1E84 DUP6 PUSH1 0x2 PUSH1 0x4 DUP2 LT PUSH2 0x1E61 JUMPI PUSH2 0x1E60 PUSH2 0x3121 JUMP JUMPDEST JUMPDEST PUSH1 0x20 MUL ADD MLOAD DUP6 PUSH1 0x4 DUP2 LT PUSH2 0x1E78 JUMPI PUSH2 0x1E77 PUSH2 0x3121 JUMP JUMPDEST JUMPDEST PUSH1 0x20 MUL ADD MLOAD PUSH1 0xE PUSH2 0x2D22 JUMP JUMPDEST XOR XOR XOR DUP5 PUSH1 0x2 PUSH1 0x4 DUP2 LT PUSH2 0x1E9B JUMPI PUSH2 0x1E9A PUSH2 0x3121 JUMP JUMPDEST JUMPDEST PUSH1 0x20 MUL ADD MLOAD DUP3 PUSH1 0x4 DUP2 LT PUSH2 0x1EB2 JUMPI PUSH2 0x1EB1 PUSH2 0x3121 JUMP JUMPDEST JUMPDEST PUSH1 0x20 MUL ADD SWAP1 PUSH1 0xFF AND SWAP1 DUP2 PUSH1 0xFF AND DUP2 MSTORE POP POP PUSH2 0x1EFC DUP3 PUSH0 PUSH1 0x4 DUP2 LT PUSH2 0x1ED9 JUMPI PUSH2 0x1ED8 PUSH2 0x3121 JUMP JUMPDEST JUMPDEST PUSH1 0x20 MUL ADD MLOAD DUP3 PUSH1 0x4 DUP2 LT PUSH2 0x1EF0 JUMPI PUSH2 0x1EEF PUSH2 0x3121 JUMP JUMPDEST JUMPDEST PUSH1 0x20 MUL ADD MLOAD PUSH1 0xB PUSH2 0x2D22 JUMP JUMPDEST PUSH2 0x1F36 DUP4 PUSH1 0x1 PUSH1 0x4 DUP2 LT PUSH2 0x1F13 JUMPI PUSH2 0x1F12 PUSH2 0x3121 JUMP JUMPDEST JUMPDEST PUSH1 0x20 MUL ADD MLOAD DUP4 PUSH1 0x4 DUP2 LT PUSH2 0x1F2A JUMPI PUSH2 0x1F29 PUSH2 0x3121 JUMP JUMPDEST JUMPDEST PUSH1 0x20 MUL ADD MLOAD PUSH1 0xD PUSH2 0x2D22 JUMP JUMPDEST PUSH2 0x1F70 DUP5 PUSH1 0x2 PUSH1 0x4 DUP2 LT PUSH2 0x1F4D JUMPI PUSH2 0x1F4C PUSH2 0x3121 JUMP JUMPDEST JUMPDEST PUSH1 0x20 MUL ADD MLOAD DUP5 PUSH1 0x4 DUP2 LT PUSH2 0x1F64 JUMPI PUSH2 0x1F63 PUSH2 0x3121 JUMP JUMPDEST JUMPDEST PUSH1 0x20 MUL ADD MLOAD PUSH1 0x9 PUSH2 0x2D22 JUMP JUMPDEST PUSH2 0x1FAA DUP6 PUSH1 0x3 PUSH1 0x4 DUP2 LT PUSH2 0x1F87 JUMPI PUSH2 0x1F86 PUSH2 0x3121 JUMP JUMPDEST JUMPDEST PUSH1 0x20 MUL ADD MLOAD DUP6 PUSH1 0x4 DUP2 LT PUSH2 0x1F9E JUMPI PUSH2 0x1F9D PUSH2 0x3121 JUMP JUMPDEST JUMPDEST PUSH1 0x20 MUL ADD MLOAD PUSH1 0xE PUSH2 0x2D22 JUMP JUMPDEST XOR XOR XOR DUP5 PUSH1 0x3 PUSH1 0x4 DUP2 LT PUSH2 0x1FC1 JUMPI PUSH2 0x1FC0 PUSH2 0x3121 JUMP JUMPDEST JUMPDEST PUSH1 0x20 MUL ADD MLOAD DUP3 PUSH1 0x4 DUP2 LT PUSH2 0x1FD8 JUMPI PUSH2 0x1FD7 PUSH2 0x3121 JUMP JUMPDEST JUMPDEST PUSH1 0x20 MUL ADD SWAP1 PUSH1 0xFF AND SWAP1 DUP2 PUSH1 0xFF AND DUP2 MSTORE POP POP DUP1 DUP1 PUSH1 0x1 ADD SWAP2 POP POP PUSH2 0x1AC6 JUMP JUMPDEST POP DUP3 SWAP2 POP POP SWAP2 SWAP1 POP JUMP JUMPDEST PUSH2 0x2008 PUSH2 0x2E52 JUMP JUMPDEST PUSH0 JUMPDEST PUSH1 0x4 DUP2 LT ISZERO PUSH2 0x20D0 JUMPI PUSH0 JUMPDEST PUSH1 0x4 DUP2 LT ISZERO PUSH2 0x20C2 JUMPI PUSH1 0x1 DUP5 DUP4 PUSH1 0x4 DUP2 LT PUSH2 0x2033 JUMPI PUSH2 0x2032 PUSH2 0x3121 JUMP JUMPDEST JUMPDEST PUSH1 0x20 MUL ADD MLOAD DUP3 PUSH1 0x4 DUP2 LT PUSH2 0x204A JUMPI PUSH2 0x2049 PUSH2 0x3121 JUMP JUMPDEST JUMPDEST PUSH1 0x20 MUL ADD MLOAD PUSH1 0xFF AND PUSH2 0x100 DUP2 LT PUSH2 0x2064 JUMPI PUSH2 0x2063 PUSH2 0x3121 JUMP JUMPDEST JUMPDEST PUSH1 0x20 SWAP2 DUP3 DUP3 DIV ADD SWAP2 SWAP1 MOD SWAP1 SLOAD SWAP1 PUSH2 0x100 EXP SWAP1 DIV PUSH1 0xFF AND DUP5 DUP4 PUSH1 0x4 DUP2 LT PUSH2 0x208D JUMPI PUSH2 0x208C PUSH2 0x3121 JUMP JUMPDEST JUMPDEST PUSH1 0x20 MUL ADD MLOAD DUP3 PUSH1 0x4 DUP2 LT PUSH2 0x20A4 JUMPI PUSH2 0x20A3 PUSH2 0x3121 JUMP JUMPDEST JUMPDEST PUSH1 0x20 MUL ADD SWAP1 PUSH1 0xFF AND SWAP1 DUP2 PUSH1 0xFF AND DUP2 MSTORE POP POP DUP1 DUP1 PUSH1 0x1 ADD SWAP2 POP POP PUSH2 0x2015 JUMP JUMPDEST POP DUP1 DUP1 PUSH1 0x1 ADD SWAP2 POP POP PUSH2 0x200A JUMP JUMPDEST POP DUP2 SWAP1 POP SWAP2 SWAP1 POP JUMP JUMPDEST PUSH2 0x20E1 PUSH2 0x2E52 JUMP JUMPDEST PUSH0 DUP3 PUSH0 PUSH1 0x4 DUP2 LT PUSH2 0x20F5 JUMPI PUSH2 0x20F4 PUSH2 0x3121 JUMP JUMPDEST JUMPDEST PUSH1 0x20 MUL ADD MLOAD SWAP1 POP PUSH0 PUSH1 0x40 MLOAD DUP1 PUSH1 0x80 ADD PUSH1 0x40 MSTORE DUP1 DUP6 PUSH1 0x1 PUSH1 0x4 DUP2 LT PUSH2 0x211C JUMPI PUSH2 0x211B PUSH2 0x3121 JUMP JUMPDEST JUMPDEST PUSH1 0x20 MUL ADD MLOAD PUSH1 0x1 PUSH1 0x4 DUP2 LT PUSH2 0x2134 JUMPI PUSH2 0x2133 PUSH2 0x3121 JUMP JUMPDEST JUMPDEST PUSH1 0x20 MUL ADD MLOAD PUSH1 0xFF AND PUSH1 0xFF AND DUP2 MSTORE PUSH1 0x20 ADD DUP6 PUSH1 0x1 PUSH1 0x4 DUP2 LT PUSH2 0x2158 JUMPI PUSH2 0x2157 PUSH2 0x3121 JUMP JUMPDEST JUMPDEST PUSH1 0x20 MUL ADD MLOAD PUSH1 0x2 PUSH1 0x4 DUP2 LT PUSH2 0x2170 JUMPI PUSH2 0x216F PUSH2 0x3121 JUMP JUMPDEST JUMPDEST PUSH1 0x20 MUL ADD MLOAD PUSH1 0xFF AND PUSH1 0xFF AND DUP2 MSTORE PUSH1 0x20 ADD DUP6 PUSH1 0x1 PUSH1 0x4 DUP2 LT PUSH2 0x2194 JUMPI PUSH2 0x2193 PUSH2 0x3121 JUMP JUMPDEST JUMPDEST PUSH1 0x20 MUL ADD MLOAD PUSH1 0x3 PUSH1 0x4 DUP2 LT PUSH2 0x21AC JUMPI PUSH2 0x21AB PUSH2 0x3121 JUMP JUMPDEST JUMPDEST PUSH1 0x20 MUL ADD MLOAD PUSH1 0xFF AND PUSH1 0xFF AND DUP2 MSTORE PUSH1 0x20 ADD DUP6 PUSH1 0x1 PUSH1 0x4 DUP2 LT PUSH2 0x21D0 JUMPI PUSH2 0x21CF PUSH2 0x3121 JUMP JUMPDEST JUMPDEST PUSH1 0x20 MUL ADD MLOAD PUSH0 PUSH1 0x4 DUP2 LT PUSH2 0x21E7 JUMPI PUSH2 0x21E6 PUSH2 0x3121 JUMP JUMPDEST JUMPDEST PUSH1 0x20 MUL ADD MLOAD PUSH1 0xFF AND PUSH1 0xFF AND DUP2 MSTORE POP SWAP1 POP PUSH0 PUSH1 0x40 MLOAD DUP1 PUSH1 0x80 ADD PUSH1 0x40 MSTORE DUP1 DUP7 PUSH1 0x2 PUSH1 0x4 DUP2 LT PUSH2 0x2217 JUMPI PUSH2 0x2216 PUSH2 0x3121 JUMP JUMPDEST JUMPDEST PUSH1 0x20 MUL ADD MLOAD PUSH1 0x2 PUSH1 0x4 DUP2 LT PUSH2 0x222F JUMPI PUSH2 0x222E PUSH2 0x3121 JUMP JUMPDEST JUMPDEST PUSH1 0x20 MUL ADD MLOAD PUSH1 0xFF AND PUSH1 0xFF AND DUP2 MSTORE PUSH1 0x20 ADD DUP7 PUSH1 0x2 PUSH1 0x4 DUP2 LT PUSH2 0x2253 JUMPI PUSH2 0x2252 PUSH2 0x3121 JUMP JUMPDEST JUMPDEST PUSH1 0x20 MUL ADD MLOAD PUSH1 0x3 PUSH1 0x4 DUP2 LT PUSH2 0x226B JUMPI PUSH2 0x226A PUSH2 0x3121 JUMP JUMPDEST JUMPDEST PUSH1 0x20 MUL ADD MLOAD PUSH1 0xFF AND PUSH1 0xFF AND DUP2 MSTORE PUSH1 0x20 ADD DUP7 PUSH1 0x2 PUSH1 0x4 DUP2 LT PUSH2 0x228F JUMPI PUSH2 0x228E PUSH2 0x3121 JUMP JUMPDEST JUMPDEST PUSH1 0x20 MUL ADD MLOAD PUSH0 PUSH1 0x4 DUP2 LT PUSH2 0x22A6 JUMPI PUSH2 0x22A5 PUSH2 0x3121 JUMP JUMPDEST JUMPDEST PUSH1 0x20 MUL ADD MLOAD PUSH1 0xFF AND PUSH1 0xFF AND DUP2 MSTORE PUSH1 0x20 ADD DUP7 PUSH1 0x2 PUSH1 0x4 DUP2 LT PUSH2 0x22CA JUMPI PUSH2 0x22C9 PUSH2 0x3121 JUMP JUMPDEST JUMPDEST PUSH1 0x20 MUL ADD MLOAD PUSH1 0x1 PUSH1 0x4 DUP2 LT PUSH2 0x22E2 JUMPI PUSH2 0x22E1 PUSH2 0x3121 JUMP JUMPDEST JUMPDEST PUSH1 0x20 MUL ADD MLOAD PUSH1 0xFF AND PUSH1 0xFF AND DUP2 MSTORE POP SWAP1 POP PUSH0 PUSH1 0x40 MLOAD DUP1 PUSH1 0x80 ADD PUSH1 0x40 MSTORE DUP1 DUP8 PUSH1 0x3 PUSH1 0x4 DUP2 LT PUSH2 0x2312 JUMPI PUSH2 0x2311 PUSH2 0x3121 JUMP JUMPDEST JUMPDEST PUSH1 0x20 MUL ADD MLOAD PUSH1 0x3 PUSH1 0x4 DUP2 LT PUSH2 0x232A JUMPI PUSH2 0x2329 PUSH2 0x3121 JUMP JUMPDEST JUMPDEST PUSH1 0x20 MUL ADD MLOAD PUSH1 0xFF AND PUSH1 0xFF AND DUP2 MSTORE PUSH1 0x20 ADD DUP8 PUSH1 0x3 PUSH1 0x4 DUP2 LT PUSH2 0x234E JUMPI PUSH2 0x234D PUSH2 0x3121 JUMP JUMPDEST JUMPDEST PUSH1 0x20 MUL ADD MLOAD PUSH0 PUSH1 0x4 DUP2 LT PUSH2 0x2365 JUMPI PUSH2 0x2364 PUSH2 0x3121 JUMP JUMPDEST JUMPDEST PUSH1 0x20 MUL ADD MLOAD PUSH1 0xFF AND PUSH1 0xFF AND DUP2 MSTORE PUSH1 0x20 ADD DUP8 PUSH1 0x3 PUSH1 0x4 DUP2 LT PUSH2 0x2389 JUMPI PUSH2 0x2388 PUSH2 0x3121 JUMP JUMPDEST JUMPDEST PUSH1 0x20 MUL ADD MLOAD PUSH1 0x1 PUSH1 0x4 DUP2 LT PUSH2 0x23A1 JUMPI PUSH2 0x23A0 PUSH2 0x3121 JUMP JUMPDEST JUMPDEST PUSH1 0x20 MUL ADD MLOAD PUSH1 0xFF AND PUSH1 0xFF AND DUP2 MSTORE PUSH1 0x20 ADD DUP8 PUSH1 0x3 PUSH1 0x4 DUP2 LT PUSH2 0x23C5 JUMPI PUSH2 0x23C4 PUSH2 0x3121 JUMP JUMPDEST JUMPDEST PUSH1 0x20 MUL ADD MLOAD PUSH1 0x2 PUSH1 0x4 DUP2 LT PUSH2 0x23DD JUMPI PUSH2 0x23DC PUSH2 0x3121 JUMP JUMPDEST JUMPDEST PUSH1 0x20 MUL ADD MLOAD PUSH1 0xFF AND PUSH1 0xFF AND DUP2 MSTORE POP SWAP1 POP PUSH1 0x40 MLOAD DUP1 PUSH1 0x80 ADD PUSH1 0x40 MSTORE DUP1 DUP6 DUP2 MSTORE PUSH1 0x20 ADD DUP5 DUP2 MSTORE PUSH1 0x20 ADD DUP4 DUP2 MSTORE PUSH1 0x20 ADD DUP3 DUP2 MSTORE POP SWAP5 POP POP POP POP POP SWAP2 SWAP1 POP JUMP JUMPDEST PUSH2 0x2421 PUSH2 0x2E52 JUMP JUMPDEST PUSH0 PUSH1 0x40 MLOAD DUP1 PUSH1 0x80 ADD PUSH1 0x40 MSTORE DUP1 PUSH1 0x40 MLOAD DUP1 PUSH1 0x80 ADD PUSH1 0x40 MSTORE DUP1 PUSH0 PUSH1 0xFF AND DUP2 MSTORE PUSH1 0x20 ADD PUSH0 PUSH1 0xFF AND DUP2 MSTORE PUSH1 0x20 ADD PUSH0 PUSH1 0xFF AND DUP2 MSTORE PUSH1 0x20 ADD PUSH0 PUSH1 0xFF AND DUP2 MSTORE POP DUP2 MSTORE PUSH1 0x20 ADD PUSH1 0x40 MLOAD DUP1 PUSH1 0x80 ADD PUSH1 0x40 MSTORE DUP1 PUSH0 PUSH1 0xFF AND DUP2 MSTORE PUSH1 0x20 ADD PUSH0 PUSH1 0xFF AND DUP2 MSTORE PUSH1 0x20 ADD PUSH0 PUSH1 0xFF AND DUP2 MSTORE PUSH1 0x20 ADD PUSH0 PUSH1 0xFF AND DUP2 MSTORE POP DUP2 MSTORE PUSH1 0x20 ADD PUSH1 0x40 MLOAD DUP1 PUSH1 0x80 ADD PUSH1 0x40 MSTORE DUP1 PUSH0 PUSH1 0xFF AND DUP2 MSTORE PUSH1 0x20 ADD PUSH0 PUSH1 0xFF AND DUP2 MSTORE PUSH1 0x20 ADD PUSH0 PUSH1 0xFF AND DUP2 MSTORE PUSH1 0x20 ADD PUSH0 PUSH1 0xFF AND DUP2 MSTORE POP DUP2 MSTORE PUSH1 0x20 ADD PUSH1 0x40 MLOAD DUP1 PUSH1 0x80 ADD PUSH1 0x40 MSTORE DUP1 PUSH0 PUSH1 0xFF AND DUP2 MSTORE PUSH1 0x20 ADD PUSH0 PUSH1 0xFF AND DUP2 MSTORE PUSH1 0x20 ADD PUSH0 PUSH1 0xFF AND DUP2 MSTORE PUSH1 0x20 ADD PUSH0 PUSH1 0xFF AND DUP2 MSTORE POP DUP2 MSTORE POP SWAP1 POP PUSH0 JUMPDEST PUSH1 0x4 DUP2 LT ISZERO PUSH2 0x2A27 JUMPI PUSH0 JUMPDEST PUSH1 0x4 DUP2 LT ISZERO PUSH2 0x2582 JUMPI DUP5 DUP2 PUSH1 0x4 DUP2 LT PUSH2 0x251E JUMPI PUSH2 0x251D PUSH2 0x3121 JUMP JUMPDEST JUMPDEST PUSH1 0x20 MUL ADD MLOAD DUP3 PUSH1 0x4 DUP2 LT PUSH2 0x2535 JUMPI PUSH2 0x2534 PUSH2 0x3121 JUMP JUMPDEST JUMPDEST PUSH1 0x20 MUL ADD MLOAD DUP4 DUP3 PUSH1 0x4 DUP2 LT PUSH2 0x254D JUMPI PUSH2 0x254C PUSH2 0x3121 JUMP JUMPDEST JUMPDEST PUSH1 0x20 MUL ADD MLOAD DUP4 PUSH1 0x4 DUP2 LT PUSH2 0x2564 JUMPI PUSH2 0x2563 PUSH2 0x3121 JUMP JUMPDEST JUMPDEST PUSH1 0x20 MUL ADD SWAP1 PUSH1 0xFF AND SWAP1 DUP2 PUSH1 0xFF AND DUP2 MSTORE POP POP DUP1 DUP1 PUSH1 0x1 ADD SWAP2 POP POP PUSH2 0x2502 JUMP JUMPDEST POP PUSH2 0x25BD DUP3 PUSH1 0x3 PUSH1 0x4 DUP2 LT PUSH2 0x259A JUMPI PUSH2 0x2599 PUSH2 0x3121 JUMP JUMPDEST JUMPDEST PUSH1 0x20 MUL ADD MLOAD DUP3 PUSH1 0x4 DUP2 LT PUSH2 0x25B1 JUMPI PUSH2 0x25B0 PUSH2 0x3121 JUMP JUMPDEST JUMPDEST PUSH1 0x20 MUL ADD MLOAD PUSH1 0x1 PUSH2 0x2D22 JUMP JUMPDEST PUSH2 0x25F7 DUP4 PUSH1 0x2 PUSH1 0x4 DUP2 LT PUSH2 0x25D4 JUMPI PUSH2 0x25D3 PUSH2 0x3121 JUMP JUMPDEST JUMPDEST PUSH1 0x20 MUL ADD MLOAD DUP4 PUSH1 0x4 DUP2 LT PUSH2 0x25EB JUMPI PUSH2 0x25EA PUSH2 0x3121 JUMP JUMPDEST JUMPDEST PUSH1 0x20 MUL ADD MLOAD PUSH1 0x1 PUSH2 0x2D22 JUMP JUMPDEST PUSH2 0x2631 DUP5 PUSH1 0x1 PUSH1 0x4 DUP2 LT PUSH2 0x260E JUMPI PUSH2 0x260D PUSH2 0x3121 JUMP JUMPDEST JUMPDEST PUSH1 0x20 MUL ADD MLOAD DUP5 PUSH1 0x4 DUP2 LT PUSH2 0x2625 JUMPI PUSH2 0x2624 PUSH2 0x3121 JUMP JUMPDEST JUMPDEST PUSH1 0x20 MUL ADD MLOAD PUSH1 0x3 PUSH2 0x2D22 JUMP JUMPDEST PUSH2 0x266A DUP6 PUSH0 PUSH1 0x4 DUP2 LT PUSH2 0x2647 JUMPI PUSH2 0x2646 PUSH2 0x3121 JUMP JUMPDEST JUMPDEST PUSH1 0x20 MUL ADD MLOAD DUP6 PUSH1 0x4 DUP2 LT PUSH2 0x265E JUMPI PUSH2 0x265D PUSH2 0x3121 JUMP JUMPDEST JUMPDEST PUSH1 0x20 MUL ADD MLOAD PUSH1 0x2 PUSH2 0x2D22 JUMP JUMPDEST XOR XOR XOR DUP5 PUSH0 PUSH1 0x4 DUP2 LT PUSH2 0x2680 JUMPI PUSH2 0x267F PUSH2 0x3121 JUMP JUMPDEST JUMPDEST PUSH1 0x20 MUL ADD MLOAD DUP3 PUSH1 0x4 DUP2 LT PUSH2 0x2697 JUMPI PUSH2 0x2696 PUSH2 0x3121 JUMP JUMPDEST JUMPDEST PUSH1 0x20 MUL ADD SWAP1 PUSH1 0xFF AND SWAP1 DUP2 PUSH1 0xFF AND DUP2 MSTORE POP POP PUSH2 0x26E2 DUP3 PUSH1 0x3 PUSH1 0x4 DUP2 LT PUSH2 0x26BF JUMPI PUSH2 0x26BE PUSH2 0x3121 JUMP JUMPDEST JUMPDEST PUSH1 0x20 MUL ADD MLOAD DUP3 PUSH1 0x4 DUP2 LT PUSH2 0x26D6 JUMPI PUSH2 0x26D5 PUSH2 0x3121 JUMP JUMPDEST JUMPDEST PUSH1 0x20 MUL ADD MLOAD PUSH1 0x1 PUSH2 0x2D22 JUMP JUMPDEST PUSH2 0x271C DUP4 PUSH1 0x2 PUSH1 0x4 DUP2 LT PUSH2 0x26F9 JUMPI PUSH2 0x26F8 PUSH2 0x3121 JUMP JUMPDEST JUMPDEST PUSH1 0x20 MUL ADD MLOAD DUP4 PUSH1 0x4 DUP2 LT PUSH2 0x2710 JUMPI PUSH2 0x270F PUSH2 0x3121 JUMP JUMPDEST JUMPDEST PUSH1 0x20 MUL ADD MLOAD PUSH1 0x3 PUSH2 0x2D22 JUMP JUMPDEST PUSH2 0x2756 DUP5 PUSH1 0x1 PUSH1 0x4 DUP2 LT PUSH2 0x2733 JUMPI PUSH2 0x2732 PUSH2 0x3121 JUMP JUMPDEST JUMPDEST PUSH1 0x20 MUL ADD MLOAD DUP5 PUSH1 0x4 DUP2 LT PUSH2 0x274A JUMPI PUSH2 0x2749 PUSH2 0x3121 JUMP JUMPDEST JUMPDEST PUSH1 0x20 MUL ADD MLOAD PUSH1 0x2 PUSH2 0x2D22 JUMP JUMPDEST PUSH2 0x278F DUP6 PUSH0 PUSH1 0x4 DUP2 LT PUSH2 0x276C JUMPI PUSH2 0x276B PUSH2 0x3121 JUMP JUMPDEST JUMPDEST PUSH1 0x20 MUL ADD MLOAD DUP6 PUSH1 0x4 DUP2 LT PUSH2 0x2783 JUMPI PUSH2 0x2782 PUSH2 0x3121 JUMP JUMPDEST JUMPDEST PUSH1 0x20 MUL ADD MLOAD PUSH1 0x1 PUSH2 0x2D22 JUMP JUMPDEST XOR XOR XOR DUP5 PUSH1 0x1 PUSH1 0x4 DUP2 LT PUSH2 0x27A6 JUMPI PUSH2 0x27A5 PUSH2 0x3121 JUMP JUMPDEST JUMPDEST PUSH1 0x20 MUL ADD MLOAD DUP3 PUSH1 0x4 DUP2 LT PUSH2 0x27BD JUMPI PUSH2 0x27BC PUSH2 0x3121 JUMP JUMPDEST JUMPDEST PUSH1 0x20 MUL ADD SWAP1 PUSH1 0xFF AND SWAP1 DUP2 PUSH1 0xFF AND DUP2 MSTORE POP POP PUSH2 0x2808 DUP3 PUSH1 0x3 PUSH1 0x4 DUP2 LT PUSH2 0x27E5 JUMPI PUSH2 0x27E4 PUSH2 0x3121 JUMP JUMPDEST JUMPDEST PUSH1 0x20 MUL ADD MLOAD DUP3 PUSH1 0x4 DUP2 LT PUSH2 0x27FC JUMPI PUSH2 0x27FB PUSH2 0x3121 JUMP JUMPDEST JUMPDEST PUSH1 0x20 MUL ADD MLOAD PUSH1 0x3 PUSH2 0x2D22 JUMP JUMPDEST PUSH2 0x2842 DUP4 PUSH1 0x2 PUSH1 0x4 DUP2 LT PUSH2 0x281F JUMPI PUSH2 0x281E PUSH2 0x3121 JUMP JUMPDEST JUMPDEST PUSH1 0x20 MUL ADD MLOAD DUP4 PUSH1 0x4 DUP2 LT PUSH2 0x2836 JUMPI PUSH2 0x2835 PUSH2 0x3121 JUMP JUMPDEST JUMPDEST PUSH1 0x20 MUL ADD MLOAD PUSH1 0x2 PUSH2 0x2D22 JUMP JUMPDEST PUSH2 0x287C DUP5 PUSH1 0x1 PUSH1 0x4 DUP2 LT PUSH2 0x2859 JUMPI PUSH2 0x2858 PUSH2 0x3121 JUMP JUMPDEST JUMPDEST PUSH1 0x20 MUL ADD MLOAD DUP5 PUSH1 0x4 DUP2 LT PUSH2 0x2870 JUMPI PUSH2 0x286F PUSH2 0x3121 JUMP JUMPDEST JUMPDEST PUSH1 0x20 MUL ADD MLOAD PUSH1 0x1 PUSH2 0x2D22 JUMP JUMPDEST PUSH2 0x28B5 DUP6 PUSH0 PUSH1 0x4 DUP2 LT PUSH2 0x2892 JUMPI PUSH2 0x2891 PUSH2 0x3121 JUMP JUMPDEST JUMPDEST PUSH1 0x20 MUL ADD MLOAD DUP6 PUSH1 0x4 DUP2 LT PUSH2 0x28A9 JUMPI PUSH2 0x28A8 PUSH2 0x3121 JUMP JUMPDEST JUMPDEST PUSH1 0x20 MUL ADD MLOAD PUSH1 0x1 PUSH2 0x2D22 JUMP JUMPDEST XOR XOR XOR DUP5 PUSH1 0x2 PUSH1 0x4 DUP2 LT PUSH2 0x28CC JUMPI PUSH2 0x28CB PUSH2 0x3121 JUMP JUMPDEST JUMPDEST PUSH1 0x20 MUL ADD MLOAD DUP3 PUSH1 0x4 DUP2 LT PUSH2 0x28E3 JUMPI PUSH2 0x28E2 PUSH2 0x3121 JUMP JUMPDEST JUMPDEST PUSH1 0x20 MUL ADD SWAP1 PUSH1 0xFF AND SWAP1 DUP2 PUSH1 0xFF AND DUP2 MSTORE POP POP PUSH2 0x292E DUP3 PUSH1 0x3 PUSH1 0x4 DUP2 LT PUSH2 0x290B JUMPI PUSH2 0x290A PUSH2 0x3121 JUMP JUMPDEST JUMPDEST PUSH1 0x20 MUL ADD MLOAD DUP3 PUSH1 0x4 DUP2 LT PUSH2 0x2922 JUMPI PUSH2 0x2921 PUSH2 0x3121 JUMP JUMPDEST JUMPDEST PUSH1 0x20 MUL ADD MLOAD PUSH1 0x2 PUSH2 0x2D22 JUMP JUMPDEST PUSH2 0x2968 DUP4 PUSH1 0x2 PUSH1 0x4 DUP2 LT PUSH2 0x2945 JUMPI PUSH2 0x2944 PUSH2 0x3121 JUMP JUMPDEST JUMPDEST PUSH1 0x20 MUL ADD MLOAD DUP4 PUSH1 0x4 DUP2 LT PUSH2 0x295C JUMPI PUSH2 0x295B PUSH2 0x3121 JUMP JUMPDEST JUMPDEST PUSH1 0x20 MUL ADD MLOAD PUSH1 0x1 PUSH2 0x2D22 JUMP JUMPDEST PUSH2 0x29A2 DUP5 PUSH1 0x1 PUSH1 0x4 DUP2 LT PUSH2 0x297F JUMPI PUSH2 0x297E PUSH2 0x3121 JUMP JUMPDEST JUMPDEST PUSH1 0x20 MUL ADD MLOAD DUP5 PUSH1 0x4 DUP2 LT PUSH2 0x2996 JUMPI PUSH2 0x2995 PUSH2 0x3121 JUMP JUMPDEST JUMPDEST PUSH1 0x20 MUL ADD MLOAD PUSH1 0x1 PUSH2 0x2D22 JUMP JUMPDEST PUSH2 0x29DB DUP6 PUSH0 PUSH1 0x4 DUP2 LT PUSH2 0x29B8 JUMPI PUSH2 0x29B7 PUSH2 0x3121 JUMP JUMPDEST JUMPDEST PUSH1 0x20 MUL ADD MLOAD DUP6 PUSH1 0x4 DUP2 LT PUSH2 0x29CF JUMPI PUSH2 0x29CE PUSH2 0x3121 JUMP JUMPDEST JUMPDEST PUSH1 0x20 MUL ADD MLOAD PUSH1 0x3 PUSH2 0x2D22 JUMP JUMPDEST XOR XOR XOR DUP5 PUSH1 0x3 PUSH1 0x4 DUP2 LT PUSH2 0x29F2 JUMPI PUSH2 0x29F1 PUSH2 0x3121 JUMP JUMPDEST JUMPDEST PUSH1 0x20 MUL ADD MLOAD DUP3 PUSH1 0x4 DUP2 LT PUSH2 0x2A09 JUMPI PUSH2 0x2A08 PUSH2 0x3121 JUMP JUMPDEST JUMPDEST PUSH1 0x20 MUL ADD SWAP1 PUSH1 0xFF AND SWAP1 DUP2 PUSH1 0xFF AND DUP2 MSTORE POP POP DUP1 DUP1 PUSH1 0x1 ADD SWAP2 POP POP PUSH2 0x24F7 JUMP JUMPDEST POP DUP3 SWAP2 POP POP SWAP2 SWAP1 POP JUMP JUMPDEST PUSH2 0x2A39 PUSH2 0x2E7F JUMP JUMPDEST PUSH0 PUSH1 0x40 MLOAD DUP1 PUSH1 0x80 ADD PUSH1 0x40 MSTORE DUP1 PUSH0 PUSH1 0xFF AND DUP2 MSTORE PUSH1 0x20 ADD PUSH0 PUSH1 0xFF AND DUP2 MSTORE PUSH1 0x20 ADD PUSH0 PUSH1 0xFF AND DUP2 MSTORE PUSH1 0x20 ADD PUSH0 PUSH1 0xFF AND DUP2 MSTORE POP SWAP1 POP DUP3 PUSH1 0x1 PUSH1 0x4 DUP2 LT PUSH2 0x2A7D JUMPI PUSH2 0x2A7C PUSH2 0x3121 JUMP JUMPDEST JUMPDEST PUSH1 0x20 MUL ADD MLOAD DUP2 PUSH0 PUSH1 0x4 DUP2 LT PUSH2 0x2A95 JUMPI PUSH2 0x2A94 PUSH2 0x3121 JUMP JUMPDEST JUMPDEST PUSH1 0x20 MUL ADD SWAP1 PUSH1 0xFF AND SWAP1 DUP2 PUSH1 0xFF AND DUP2 MSTORE POP POP DUP3 PUSH1 0x2 PUSH1 0x4 DUP2 LT PUSH2 0x2ABA JUMPI PUSH2 0x2AB9 PUSH2 0x3121 JUMP JUMPDEST JUMPDEST PUSH1 0x20 MUL ADD MLOAD DUP2 PUSH1 0x1 PUSH1 0x4 DUP2 LT PUSH2 0x2AD3 JUMPI PUSH2 0x2AD2 PUSH2 0x3121 JUMP JUMPDEST JUMPDEST PUSH1 0x20 MUL ADD SWAP1 PUSH1 0xFF AND SWAP1 DUP2 PUSH1 0xFF AND DUP2 MSTORE POP POP DUP3 PUSH1 0x3 PUSH1 0x4 DUP2 LT PUSH2 0x2AF8 JUMPI PUSH2 0x2AF7 PUSH2 0x3121 JUMP JUMPDEST JUMPDEST PUSH1 0x20 MUL ADD MLOAD DUP2 PUSH1 0x2 PUSH1 0x4 DUP2 LT PUSH2 0x2B11 JUMPI PUSH2 0x2B10 PUSH2 0x3121 JUMP JUMPDEST JUMPDEST PUSH1 0x20 MUL ADD SWAP1 PUSH1 0xFF AND SWAP1 DUP2 PUSH1 0xFF AND DUP2 MSTORE POP POP DUP3 PUSH0 PUSH1 0x4 DUP2 LT PUSH2 0x2B35 JUMPI PUSH2 0x2B34 PUSH2 0x3121 JUMP JUMPDEST JUMPDEST PUSH1 0x20 MUL ADD MLOAD DUP2 PUSH1 0x3 PUSH1 0x4 DUP2 LT PUSH2 0x2B4E JUMPI PUSH2 0x2B4D PUSH2 0x3121 JUMP JUMPDEST JUMPDEST PUSH1 0x20 MUL ADD SWAP1 PUSH1 0xFF AND SWAP1 DUP2 PUSH1 0xFF AND DUP2 MSTORE POP POP DUP1 SWAP2 POP POP SWAP2 SWAP1 POP JUMP JUMPDEST PUSH2 0x2B70 PUSH2 0x2E7F JUMP JUMPDEST PUSH1 0x1 DUP3 PUSH0 PUSH1 0x4 DUP2 LT PUSH2 0x2B85 JUMPI PUSH2 0x2B84 PUSH2 0x3121 JUMP JUMPDEST JUMPDEST PUSH1 0x20 MUL ADD MLOAD PUSH1 0xFF AND PUSH2 0x100 DUP2 LT PUSH2 0x2B9F JUMPI PUSH2 0x2B9E PUSH2 0x3121 JUMP JUMPDEST JUMPDEST PUSH1 0x20 SWAP2 DUP3 DUP3 DIV ADD SWAP2 SWAP1 MOD SWAP1 SLOAD SWAP1 PUSH2 0x100 EXP SWAP1 DIV PUSH1 0xFF AND DUP3 PUSH0 PUSH1 0x4 DUP2 LT PUSH2 0x2BC8 JUMPI PUSH2 0x2BC7 PUSH2 0x3121 JUMP JUMPDEST JUMPDEST PUSH1 0x20 MUL ADD SWAP1 PUSH1 0xFF AND SWAP1 DUP2 PUSH1 0xFF AND DUP2 MSTORE POP POP PUSH1 0x1 DUP3 PUSH1 0x1 PUSH1 0x4 DUP2 LT PUSH2 0x2BEF JUMPI PUSH2 0x2BEE PUSH2 0x3121 JUMP JUMPDEST JUMPDEST PUSH1 0x20 MUL ADD MLOAD PUSH1 0xFF AND PUSH2 0x100 DUP2 LT PUSH2 0x2C09 JUMPI PUSH2 0x2C08 PUSH2 0x3121 JUMP JUMPDEST JUMPDEST PUSH1 0x20 SWAP2 DUP3 DUP3 DIV ADD SWAP2 SWAP1 MOD SWAP1 SLOAD SWAP1 PUSH2 0x100 EXP SWAP1 DIV PUSH1 0xFF AND DUP3 PUSH1 0x1 PUSH1 0x4 DUP2 LT PUSH2 0x2C33 JUMPI PUSH2 0x2C32 PUSH2 0x3121 JUMP JUMPDEST JUMPDEST PUSH1 0x20 MUL ADD SWAP1 PUSH1 0xFF AND SWAP1 DUP2 PUSH1 0xFF AND DUP2 MSTORE POP POP PUSH1 0x1 DUP3 PUSH1 0x2 PUSH1 0x4 DUP2 LT PUSH2 0x2C5A JUMPI PUSH2 0x2C59 PUSH2 0x3121 JUMP JUMPDEST JUMPDEST PUSH1 0x20 MUL ADD MLOAD PUSH1 0xFF AND PUSH2 0x100 DUP2 LT PUSH2 0x2C74 JUMPI PUSH2 0x2C73 PUSH2 0x3121 JUMP JUMPDEST JUMPDEST PUSH1 0x20 SWAP2 DUP3 DUP3 DIV ADD SWAP2 SWAP1 MOD SWAP1 SLOAD SWAP1 PUSH2 0x100 EXP SWAP1 DIV PUSH1 0xFF AND DUP3 PUSH1 0x2 PUSH1 0x4 DUP2 LT PUSH2 0x2C9E JUMPI PUSH2 0x2C9D PUSH2 0x3121 JUMP JUMPDEST JUMPDEST PUSH1 0x20 MUL ADD SWAP1 PUSH1 0xFF AND SWAP1 DUP2 PUSH1 0xFF AND DUP2 MSTORE POP POP PUSH1 0x1 DUP3 PUSH1 0x3 PUSH1 0x4 DUP2 LT PUSH2 0x2CC5 JUMPI PUSH2 0x2CC4 PUSH2 0x3121 JUMP JUMPDEST JUMPDEST PUSH1 0x20 MUL ADD MLOAD PUSH1 0xFF AND PUSH2 0x100 DUP2 LT PUSH2 0x2CDF JUMPI PUSH2 0x2CDE PUSH2 0x3121 JUMP JUMPDEST JUMPDEST PUSH1 0x20 SWAP2 DUP3 DUP3 DIV ADD SWAP2 SWAP1 MOD SWAP1 SLOAD SWAP1 PUSH2 0x100 EXP SWAP1 DIV PUSH1 0xFF AND DUP3 PUSH1 0x3 PUSH1 0x4 DUP2 LT PUSH2 0x2D09 JUMPI PUSH2 0x2D08 PUSH2 0x3121 JUMP JUMPDEST JUMPDEST PUSH1 0x20 MUL ADD SWAP1 PUSH1 0xFF AND SWAP1 DUP2 PUSH1 0xFF AND DUP2 MSTORE POP POP DUP2 SWAP1 POP SWAP2 SWAP1 POP JUMP JUMPDEST PUSH0 DUP1 DUP4 PUSH1 0xFF AND EQ DUP1 PUSH2 0x2D36 JUMPI POP PUSH0 DUP3 PUSH1 0xFF AND EQ JUMPDEST ISZERO PUSH2 0x2D43 JUMPI PUSH0 SWAP1 POP PUSH2 0x2DFB JUMP JUMPDEST PUSH0 PUSH1 0x11 DUP5 PUSH1 0xFF AND PUSH2 0x100 DUP2 LT PUSH2 0x2D5C JUMPI PUSH2 0x2D5B PUSH2 0x3121 JUMP JUMPDEST JUMPDEST PUSH1 0x20 SWAP2 DUP3 DUP3 DIV ADD SWAP2 SWAP1 MOD SWAP1 SLOAD SWAP1 PUSH2 0x100 EXP SWAP1 DIV PUSH1 0xFF AND PUSH1 0xFF AND SWAP1 POP PUSH0 PUSH1 0x11 DUP5 PUSH1 0xFF AND PUSH2 0x100 DUP2 LT PUSH2 0x2D90 JUMPI PUSH2 0x2D8F PUSH2 0x3121 JUMP JUMPDEST JUMPDEST PUSH1 0x20 SWAP2 DUP3 DUP3 DIV ADD SWAP2 SWAP1 MOD SWAP1 SLOAD SWAP1 PUSH2 0x100 EXP SWAP1 DIV PUSH1 0xFF AND PUSH1 0xFF AND SWAP1 POP PUSH0 PUSH1 0xFF DUP3 DUP5 PUSH2 0x2DBA SWAP2 SWAP1 PUSH2 0x3333 JUMP JUMPDEST PUSH2 0x2DC4 SWAP2 SWAP1 PUSH2 0x3368 JUMP JUMPDEST SWAP1 POP PUSH1 0x19 DUP2 PUSH2 0xFFFF AND PUSH2 0x100 DUP2 LT PUSH2 0x2DDF JUMPI PUSH2 0x2DDE PUSH2 0x3121 JUMP JUMPDEST JUMPDEST PUSH1 0x20 SWAP2 DUP3 DUP3 DIV ADD SWAP2 SWAP1 MOD SWAP1 SLOAD SWAP1 PUSH2 0x100 EXP SWAP1 DIV PUSH1 0xFF AND SWAP4 POP POP POP POP JUMPDEST SWAP3 SWAP2 POP POP JUMP JUMPDEST PUSH1 0x40 MLOAD DUP1 PUSH2 0x200 ADD PUSH1 0x40 MSTORE DUP1 PUSH1 0x10 SWAP1 PUSH1 0x20 DUP3 MUL DUP1 CALLDATASIZE DUP4 CALLDATACOPY DUP1 DUP3 ADD SWAP2 POP POP SWAP1 POP POP SWAP1 JUMP JUMPDEST PUSH1 0x40 MLOAD DUP1 PUSH2 0x580 ADD PUSH1 0x40 MSTORE DUP1 PUSH1 0x2C SWAP1 JUMPDEST PUSH2 0x2E3C PUSH2 0x2E7F JUMP JUMPDEST DUP2 MSTORE PUSH1 0x20 ADD SWAP1 PUSH1 0x1 SWAP1 SUB SWAP1 DUP2 PUSH2 0x2E34 JUMPI SWAP1 POP POP SWAP1 JUMP JUMPDEST PUSH1 0x40 MLOAD DUP1 PUSH1 0x80 ADD PUSH1 0x40 MSTORE DUP1 PUSH1 0x4 SWAP1 JUMPDEST PUSH2 0x2E69 PUSH2 0x2E7F JUMP JUMPDEST DUP2 MSTORE PUSH1 0x20 ADD SWAP1 PUSH1 0x1 SWAP1 SUB SWAP1 DUP2 PUSH2 0x2E61 JUMPI SWAP1 POP POP SWAP1 JUMP JUMPDEST PUSH1 0x40 MLOAD DUP1 PUSH1 0x80 ADD PUSH1 0x40 MSTORE DUP1 PUSH1 0x4 SWAP1 PUSH1 0x20 DUP3 MUL DUP1 CALLDATASIZE DUP4 CALLDATACOPY DUP1 DUP3 ADD SWAP2 POP POP SWAP1 POP POP SWAP1 JUMP JUMPDEST PUSH0 PUSH1 0x40 MLOAD SWAP1 POP SWAP1 JUMP JUMPDEST PUSH0 DUP1 REVERT JUMPDEST PUSH0 DUP1 REVERT JUMPDEST PUSH0 PUSH1 0x1F NOT PUSH1 0x1F DUP4 ADD AND SWAP1 POP SWAP2 SWAP1 POP JUMP JUMPDEST PUSH32 0x4E487B7100000000000000000000000000000000000000000000000000000000 PUSH0 MSTORE PUSH1 0x41 PUSH1 0x4 MSTORE PUSH1 0x24 PUSH0 REVERT JUMPDEST PUSH2 0x2EF8 DUP3 PUSH2 0x2EB2 JUMP JUMPDEST DUP2 ADD DUP2 DUP2 LT PUSH8 0xFFFFFFFFFFFFFFFF DUP3 GT OR ISZERO PUSH2 0x2F17 JUMPI PUSH2 0x2F16 PUSH2 0x2EC2 JUMP JUMPDEST JUMPDEST DUP1 PUSH1 0x40 MSTORE POP POP POP JUMP JUMPDEST PUSH0 PUSH2 0x2F29 PUSH2 0x2EA1 JUMP JUMPDEST SWAP1 POP PUSH2 0x2F35 DUP3 DUP3 PUSH2 0x2EEF JUMP JUMPDEST SWAP2 SWAP1 POP JUMP JUMPDEST PUSH0 PUSH8 0xFFFFFFFFFFFFFFFF DUP3 GT ISZERO PUSH2 0x2F54 JUMPI PUSH2 0x2F53 PUSH2 0x2EC2 JUMP JUMPDEST JUMPDEST PUSH1 0x20 DUP3 MUL SWAP1 POP SWAP2 SWAP1 POP JUMP JUMPDEST PUSH0 DUP1 REVERT JUMPDEST PUSH0 PUSH1 0xFF DUP3 AND SWAP1 POP SWAP2 SWAP1 POP JUMP JUMPDEST PUSH2 0x2F78 DUP2 PUSH2 0x2F63 JUMP JUMPDEST DUP2 EQ PUSH2 0x2F82 JUMPI PUSH0 DUP1 REVERT JUMPDEST POP JUMP JUMPDEST PUSH0 DUP2 CALLDATALOAD SWAP1 POP PUSH2 0x2F93 DUP2 PUSH2 0x2F6F JUMP JUMPDEST SWAP3 SWAP2 POP POP JUMP JUMPDEST PUSH0 PUSH2 0x2FAB PUSH2 0x2FA6 DUP5 PUSH2 0x2F3A JUMP JUMPDEST PUSH2 0x2F20 JUMP JUMPDEST SWAP1 POP DUP1 PUSH1 0x20 DUP5 MUL DUP4 ADD DUP6 DUP2 GT ISZERO PUSH2 0x2FC5 JUMPI PUSH2 0x2FC4 PUSH2 0x2F5F JUMP JUMPDEST JUMPDEST DUP4 JUMPDEST DUP2 DUP2 LT ISZERO PUSH2 0x2FEE JUMPI DUP1 PUSH2 0x2FDA DUP9 DUP3 PUSH2 0x2F85 JUMP JUMPDEST DUP5 MSTORE PUSH1 0x20 DUP5 ADD SWAP4 POP POP PUSH1 0x20 DUP2 ADD SWAP1 POP PUSH2 0x2FC7 JUMP JUMPDEST POP POP POP SWAP4 SWAP3 POP POP POP JUMP JUMPDEST PUSH0 DUP3 PUSH1 0x1F DUP4 ADD SLT PUSH2 0x300C JUMPI PUSH2 0x300B PUSH2 0x2EAE JUMP JUMPDEST JUMPDEST PUSH1 0x10 PUSH2 0x3019 DUP5 DUP3 DUP6 PUSH2 0x2F99 JUMP JUMPDEST SWAP2 POP POP SWAP3 SWAP2 POP POP JUMP JUMPDEST PUSH0 DUP1 PUSH2 0x400 DUP4 DUP6 SUB SLT ISZERO PUSH2 0x3039 JUMPI PUSH2 0x3038 PUSH2 0x2EAA JUMP JUMPDEST JUMPDEST PUSH0 PUSH2 0x3046 DUP6 DUP3 DUP7 ADD PUSH2 0x2FF8 JUMP JUMPDEST SWAP3 POP POP PUSH2 0x200 PUSH2 0x3058 DUP6 DUP3 DUP7 ADD PUSH2 0x2FF8 JUMP JUMPDEST SWAP2 POP POP SWAP3 POP SWAP3 SWAP1 POP JUMP JUMPDEST PUSH0 PUSH1 0x10 SWAP1 POP SWAP2 SWAP1 POP JUMP JUMPDEST PUSH0 DUP2 SWAP1 POP SWAP3 SWAP2 POP POP JUMP JUMPDEST PUSH0 DUP2 SWAP1 POP SWAP2 SWAP1 POP JUMP JUMPDEST PUSH2 0x3088 DUP2 PUSH2 0x2F63 JUMP JUMPDEST DUP3 MSTORE POP POP JUMP JUMPDEST PUSH0 PUSH2 0x3099 DUP4 DUP4 PUSH2 0x307F JUMP JUMPDEST PUSH1 0x20 DUP4 ADD SWAP1 POP SWAP3 SWAP2 POP POP JUMP JUMPDEST PUSH0 PUSH1 0x20 DUP3 ADD SWAP1 POP SWAP2 SWAP1 POP JUMP JUMPDEST PUSH2 0x30BA DUP2 PUSH2 0x3062 JUMP JUMPDEST PUSH2 0x30C4 DUP2 DUP5 PUSH2 0x306C JUMP JUMPDEST SWAP3 POP PUSH2 0x30CF DUP3 PUSH2 0x3076 JUMP JUMPDEST DUP1 PUSH0 JUMPDEST DUP4 DUP2 LT ISZERO PUSH2 0x30FF JUMPI DUP2 MLOAD PUSH2 0x30E6 DUP8 DUP3 PUSH2 0x308E JUMP JUMPDEST SWAP7 POP PUSH2 0x30F1 DUP4 PUSH2 0x30A5 JUMP JUMPDEST SWAP3 POP POP PUSH1 0x1 DUP2 ADD SWAP1 POP PUSH2 0x30D2 JUMP JUMPDEST POP POP POP POP POP POP JUMP JUMPDEST PUSH0 PUSH2 0x200 DUP3 ADD SWAP1 POP PUSH2 0x311B PUSH0 DUP4 ADD DUP5 PUSH2 0x30B1 JUMP JUMPDEST SWAP3 SWAP2 POP POP JUMP JUMPDEST PUSH32 0x4E487B7100000000000000000000000000000000000000000000000000000000 PUSH0 MSTORE PUSH1 0x32 PUSH1 0x4 MSTORE PUSH1 0x24 PUSH0 REVERT JUMPDEST PUSH0 DUP2 SWAP1 POP SWAP2 SWAP1 POP JUMP JUMPDEST PUSH32 0x4E487B7100000000000000000000000000000000000000000000000000000000 PUSH0 MSTORE PUSH1 0x11 PUSH1 0x4 MSTORE PUSH1 0x24 PUSH0 REVERT JUMPDEST PUSH0 PUSH2 0x318E DUP3 PUSH2 0x314E JUMP JUMPDEST SWAP2 POP PUSH2 0x3199 DUP4 PUSH2 0x314E JUMP JUMPDEST SWAP3 POP DUP3 DUP3 MUL PUSH2 0x31A7 DUP2 PUSH2 0x314E JUMP JUMPDEST SWAP2 POP DUP3 DUP3 DIV DUP5 EQ DUP4 ISZERO OR PUSH2 0x31BE JUMPI PUSH2 0x31BD PUSH2 0x3157 JUMP JUMPDEST JUMPDEST POP SWAP3 SWAP2 POP POP JUMP JUMPDEST PUSH0 PUSH2 0x31CF DUP3 PUSH2 0x314E JUMP JUMPDEST SWAP2 POP PUSH2 0x31DA DUP4 PUSH2 0x314E JUMP JUMPDEST SWAP3 POP DUP3 DUP3 ADD SWAP1 POP DUP1 DUP3 GT ISZERO PUSH2 0x31F2 JUMPI PUSH2 0x31F1 PUSH2 0x3157 JUMP JUMPDEST JUMPDEST SWAP3 SWAP2 POP POP JUMP JUMPDEST PUSH0 PUSH2 0x3202 DUP3 PUSH2 0x314E JUMP JUMPDEST SWAP2 POP PUSH0 DUP3 SUB PUSH2 0x3214 JUMPI PUSH2 0x3213 PUSH2 0x3157 JUMP JUMPDEST JUMPDEST PUSH1 0x1 DUP3 SUB SWAP1 POP SWAP2 SWAP1 POP JUMP JUMPDEST PUSH0 PUSH2 0x3229 DUP3 PUSH2 0x314E JUMP JUMPDEST SWAP2 POP PUSH32 0xFFFFFFFFFFFFFFFFFFFFFFFFFFFFFFFFFFFFFFFFFFFFFFFFFFFFFFFFFFFFFFFF DUP3 SUB PUSH2 0x325B JUMPI PUSH2 0x325A PUSH2 0x3157 JUMP JUMPDEST JUMPDEST PUSH1 0x1 DUP3 ADD SWAP1 POP SWAP2 SWAP1 POP JUMP JUMPDEST PUSH0 PUSH2 0x3270 DUP3 PUSH2 0x314E JUMP JUMPDEST SWAP2 POP PUSH2 0x327B DUP4 PUSH2 0x314E JUMP JUMPDEST SWAP3 POP DUP3 DUP3 SUB SWAP1 POP DUP2 DUP2 GT ISZERO PUSH2 0x3293 JUMPI PUSH2 0x3292 PUSH2 0x3157 JUMP JUMPDEST JUMPDEST SWAP3 SWAP2 POP POP JUMP JUMPDEST PUSH32 0x4E487B7100000000000000000000000000000000000000000000000000000000 PUSH0 MSTORE PUSH1 0x12 PUSH1 0x4 MSTORE PUSH1 0x24 PUSH0 REVERT JUMPDEST PUSH0 PUSH2 0x32D0 DUP3 PUSH2 0x314E JUMP JUMPDEST SWAP2 POP PUSH2 0x32DB DUP4 PUSH2 0x314E JUMP JUMPDEST SWAP3 POP DUP3 PUSH2 0x32EB JUMPI PUSH2 0x32EA PUSH2 0x3299 JUMP JUMPDEST JUMPDEST DUP3 DUP3 MOD SWAP1 POP SWAP3 SWAP2 POP POP JUMP JUMPDEST PUSH0 PUSH2 0x3300 DUP3 PUSH2 0x314E JUMP JUMPDEST SWAP2 POP PUSH2 0x330B DUP4 PUSH2 0x314E JUMP JUMPDEST SWAP3 POP DUP3 PUSH2 0x331B JUMPI PUSH2 0x331A PUSH2 0x3299 JUMP JUMPDEST JUMPDEST DUP3 DUP3 DIV SWAP1 POP SWAP3 SWAP2 POP POP JUMP JUMPDEST PUSH0 PUSH2 0xFFFF DUP3 AND SWAP1 POP SWAP2 SWAP1 POP JUMP JUMPDEST PUSH0 PUSH2 0x333D DUP3 PUSH2 0x3326 JUMP JUMPDEST SWAP2 POP PUSH2 0x3348 DUP4 PUSH2 0x3326 JUMP JUMPDEST SWAP3 POP DUP3 DUP3 ADD SWAP1 POP PUSH2 0xFFFF DUP2 GT ISZERO PUSH2 0x3362 JUMPI PUSH2 0x3361 PUSH2 0x3157 JUMP JUMPDEST JUMPDEST SWAP3 SWAP2 POP POP JUMP JUMPDEST PUSH0 PUSH2 0x3372 DUP3 PUSH2 0x3326 JUMP JUMPDEST SWAP2 POP PUSH2 0x337D DUP4 PUSH2 0x3326 JUMP JUMPDEST SWAP3 POP DUP3 PUSH2 0x338D JUMPI PUSH2 0x338C PUSH2 0x3299 JUMP JUMPDEST JUMPDEST DUP3 DUP3 MOD SWAP1 POP SWAP3 SWAP2 POP POP JUMP INVALID LOG2 PUSH5 0x6970667358 0x22 SLT KECCAK256 0xC 0xC1 TLOAD 0xAA DUP16 DIV 0xB8 0xD7 PUSH27 0xA3FD4D81B2661C9195DF07AFAFBAD0318FD789ED2AF5DD64736F6C PUSH4 0x4300081A STOP CALLER "
		},
		"gasEstimates": {
			"creation": {
				"codeDepositCost": "2652400",
				"executionCost": "infinite",
				"totalCost": "infinite"
			},
			"external": {
				"dec(uint8[16],uint8[16])": "infinite",
				"enc(uint8[16],uint8[16])": "infinite"
			},
			"internal": {
				"add_round_key(uint8[4] memory[4] memory,uint8[4] memory[4] memory)": "infinite",
				"expand_key(uint8[16] memory)": "infinite",
				"gal_mul(uint8,uint8)": "infinite",
				"inv_mix_columns(uint8[4] memory[4] memory)": "infinite",
				"inv_shift_rows(uint8[4] memory[4] memory)": "infinite",
				"inv_sub_state(uint8[4] memory[4] memory)": "infinite",
				"mix_columns(uint8[4] memory[4] memory)": "infinite",
				"rot_word(uint8[4] memory)": "infinite",
				"shift_rows(uint8[4] memory[4] memory)": "infinite",
				"sub_state(uint8[4] memory[4] memory)": "infinite",
				"sub_word(uint8[4] memory)": "infinite"
			}
		},
		"methodIdentifiers": {
			"dec(uint8[16],uint8[16])": "dc4f8a58",
			"enc(uint8[16],uint8[16])": "e007f907"
		}
	},
	"abi": [
		{
			"inputs": [
				{
					"internalType": "uint8[16]",
					"name": "cipher",
					"type": "uint8[16]"
				},
				{
					"internalType": "uint8[16]",
					"name": "key",
					"type": "uint8[16]"
				}
			],
			"name": "dec",
			"outputs": [
				{
					"internalType": "uint8[16]",
					"name": "",
					"type": "uint8[16]"
				}
			],
			"stateMutability": "view",
			"type": "function"
		},
		{
			"inputs": [
				{
					"internalType": "uint8[16]",
					"name": "plain",
					"type": "uint8[16]"
				},
				{
					"internalType": "uint8[16]",
					"name": "key",
					"type": "uint8[16]"
				}
			],
			"name": "enc",
			"outputs": [
				{
					"internalType": "uint8[16]",
					"name": "",
					"type": "uint8[16]"
				}
			],
			"stateMutability": "view",
			"type": "function"
		}
	]
}