{
	"data": {
		"bytecode": {
			"linkReferences": {},
			"object": "6080604052604051806101600160405280608d60ff168152602001600160ff168152602001600260ff168152602001600460ff168152602001600860ff168152602001601060ff168152602001602060ff168152602001604060ff168152602001608060ff168152602001601b60ff168152602001603660ff168152505f90600b61008b929190612906565b50604051806120000160405280606360ff168152602001607c60ff168152602001607760ff168152602001607b60ff16815260200160f260ff168152602001606b60ff168152602001606f60ff16815260200160c560ff168152602001603060ff168152602001600160ff168152602001606760ff168152602001602b60ff16815260200160fe60ff16815260200160d760ff16815260200160ab60ff168152602001607660ff16815260200160ca60ff168152602001608260ff16815260200160c960ff168152602001607d60ff16815260200160fa60ff168152602001605960ff168152602001604760ff16815260200160f060ff16815260200160ad60ff16815260200160d460ff16815260200160a260ff16815260200160af60ff168152602001609c60ff16815260200160a460ff168152602001607260ff16815260200160c060ff16815260200160b760ff16815260200160fd60ff168152602001609360ff168152602001602660ff168152602001603660ff168152602001603f60ff16815260200160f760ff16815260200160cc60ff168152602001603460ff16815260200160a560ff16815260200160e560ff16815260200160f160ff168152602001607160ff16815260200160d860ff168152602001603160ff168152602001601560ff168152602001600460ff16815260200160c760ff168152602001602360ff16815260200160c360ff168152602001601860ff168152602001609660ff168152602001600560ff168152602001609a60ff168152602001600760ff168152602001601260ff168152602001608060ff16815260200160e260ff16815260200160eb60ff168152602001602760ff16815260200160b260ff168152602001607560ff168152602001600960ff168152602001608360ff168152602001602c60ff168152602001601a60ff168152602001601b60ff168152602001606e60ff168152602001605a60ff16815260200160a060ff168152602001605260ff168152602001603b60ff16815260200160d660ff16815260200160b360ff168152602001602960ff16815260200160e360ff168152602001602f60ff168152602001608460ff168152602001605360ff16815260200160d160ff1681526020015f60ff16815260200160ed60ff168152602001602060ff16815260200160fc60ff16815260200160b160ff168152602001605b60ff168152602001606a60ff16815260200160cb60ff16815260200160be60ff168152602001603960ff168152602001604a60ff168152602001604c60ff168152602001605860ff16815260200160cf60ff16815260200160d060ff16815260200160ef60ff16815260200160aa60ff16815260200160fb60ff168152602001604360ff168152602001604d60ff168152602001603360ff168152602001608560ff168152602001604560ff16815260200160f960ff168152602001600260ff168152602001607f60ff168152602001605060ff168152602001603c60ff168152602001609f60ff16815260200160a860ff168152602001605160ff16815260200160a360ff168152602001604060ff168152602001608f60ff168152602001609260ff168152602001609d60ff168152602001603860ff16815260200160f560ff16815260200160bc60ff16815260200160b660ff16815260200160da60ff168152602001602160ff168152602001601060ff16815260200160ff8016815260200160f360ff16815260200160d260ff16815260200160cd60ff168152602001600c60ff168152602001601360ff16815260200160ec60ff168152602001605f60ff168152602001609760ff168152602001604460ff168152602001601760ff16815260200160c460ff16815260200160a760ff168152602001607e60ff168152602001603d60ff168152602001606460ff168152602001605d60ff168152602001601960ff168152602001607360ff168152602001606060ff168152602001608160ff168152602001604f60ff16815260200160dc60ff168152602001602260ff168152602001602a60ff168152602001609060ff168152602001608860ff168152602001604660ff16815260200160ee60ff16815260200160b860ff168152602001601460ff16815260200160de60ff168152602001605e60ff168152602001600b60ff16815260200160db60ff16815260200160e060ff168152602001603260ff168152602001603a60ff168152602001600a60ff168152602001604960ff168152602001600660ff168152602001602460ff168152602001605c60ff16815260200160c260ff16815260200160d360ff16815260200160ac60ff168152602001606260ff168152602001609160ff168152602001609560ff16815260200160e460ff168152602001607960ff16815260200160e760ff16815260200160c860ff168152602001603760ff168152602001606d60ff168152602001608d60ff16815260200160d560ff168152602001604e60ff16815260200160a960ff168152602001606c60ff168152602001605660ff16815260200160f460ff16815260200160ea60ff168152602001606560ff168152602001607a60ff16815260200160ae60ff168152602001600860ff16815260200160ba60ff168152602001607860ff168152602001602560ff168152602001602e60ff168152602001601c60ff16815260200160a660ff16815260200160b460ff16815260200160c660ff16815260200160e860ff16815260200160dd60ff168152602001607460ff168152602001601f60ff168152602001604b60ff16815260200160bd60ff168152602001608b60ff168152602001608a60ff168152602001607060ff168152602001603e60ff16815260200160b560ff168152602001606660ff168152602001604860ff168152602001600360ff16815260200160f660ff168152602001600e60ff168152602001606160ff168152602001603560ff168152602001605760ff16815260200160b960ff168152602001608660ff16815260200160c160ff168152602001601d60ff168152602001609e60ff16815260200160e160ff16815260200160f860ff168152602001609860ff168152602001601160ff168152602001606960ff16815260200160d960ff168152602001608e60ff168152602001609460ff168152602001609b60ff168152602001601e60ff168152602001608760ff16815260200160e960ff16815260200160ce60ff168152602001605560ff168152602001602860ff16815260200160df60ff168152602001608c60ff16815260200160a160ff168152602001608960ff168152602001600d60ff16815260200160bf60ff16815260200160e660ff168152602001604260ff168152602001606860ff168152602001604160ff168152602001609960ff168152602001602d60ff168152602001600f60ff16815260200160b060ff168152602001605460ff16815260200160bb60ff168152602001601660ff16815250600190610100610aa592919061299d565b50604051806120000160405280605260ff168152602001600960ff168152602001606a60ff16815260200160d560ff168152602001603060ff168152602001603660ff16815260200160a560ff168152602001603860ff16815260200160bf60ff168152602001604060ff16815260200160a360ff168152602001609e60ff168152602001608160ff16815260200160f360ff16815260200160d760ff16815260200160fb60ff168152602001607c60ff16815260200160e360ff168152602001603960ff168152602001608260ff168152602001609b60ff168152602001602f60ff16815260200160ff80168152602001608760ff168152602001603460ff168152602001608e60ff168152602001604360ff168152602001604460ff16815260200160c460ff16815260200160de60ff16815260200160e960ff16815260200160cb60ff168152602001605460ff168152602001607b60ff168152602001609460ff168152602001603260ff16815260200160a660ff16815260200160c260ff168152602001602360ff168152602001603d60ff16815260200160ee60ff168152602001604c60ff168152602001609560ff168152602001600b60ff168152602001604260ff16815260200160fa60ff16815260200160c360ff168152602001604e60ff168152602001600860ff168152602001602e60ff16815260200160a160ff168152602001606660ff168152602001602860ff16815260200160d960ff168152602001602460ff16815260200160b260ff168152602001607660ff168152602001605b60ff16815260200160a260ff168152602001604960ff168152602001606d60ff168152602001608b60ff16815260200160d160ff168152602001602560ff168152602001607260ff16815260200160f860ff16815260200160f660ff168152602001606460ff168152602001608660ff168152602001606860ff168152602001609860ff168152602001601660ff16815260200160d460ff16815260200160a460ff168152602001605c60ff16815260200160cc60ff168152602001605d60ff168152602001606560ff16815260200160b660ff168152602001609260ff168152602001606c60ff168152602001607060ff168152602001604860ff168152602001605060ff16815260200160fd60ff16815260200160ed60ff16815260200160b960ff16815260200160da60ff168152602001605e60ff168152602001601560ff168152602001604660ff168152602001605760ff16815260200160a760ff168152602001608d60ff168152602001609d60ff168152602001608460ff168152602001609060ff16815260200160d860ff16815260200160ab60ff1681526020015f60ff168152602001608c60ff16815260200160bc60ff16815260200160d360ff168152602001600a60ff16815260200160f760ff16815260200160e460ff168152602001605860ff168152602001600560ff16815260200160b860ff16815260200160b360ff168152602001604560ff168152602001600660ff16815260200160d060ff168152602001602c60ff168152602001601e60ff168152602001608f60ff16815260200160ca60ff168152602001603f60ff168152602001600f60ff168152602001600260ff16815260200160c160ff16815260200160af60ff16815260200160bd60ff168152602001600360ff168152602001600160ff168152602001601360ff168152602001608a60ff168152602001606b60ff168152602001603a60ff168152602001609160ff168152602001601160ff168152602001604160ff168152602001604f60ff168152602001606760ff16815260200160dc60ff16815260200160ea60ff168152602001609760ff16815260200160f260ff16815260200160cf60ff16815260200160ce60ff16815260200160f060ff16815260200160b460ff16815260200160e660ff168152602001607360ff168152602001609660ff16815260200160ac60ff168152602001607460ff168152602001602260ff16815260200160e760ff16815260200160ad60ff168152602001603560ff168152602001608560ff16815260200160e260ff16815260200160f960ff168152602001603760ff16815260200160e860ff168152602001601c60ff168152602001607560ff16815260200160df60ff168152602001606e60ff168152602001604760ff16815260200160f160ff168152602001601a60ff168152602001607160ff168152602001601d60ff168152602001602960ff16815260200160c560ff168152602001608960ff168152602001606f60ff16815260200160b760ff168152602001606260ff168152602001600e60ff16815260200160aa60ff168152602001601860ff16815260200160be60ff168152602001601b60ff16815260200160fc60ff168152602001605660ff168152602001603e60ff168152602001604b60ff16815260200160c660ff16815260200160d260ff168152602001607960ff168152602001602060ff168152602001609a60ff16815260200160db60ff16815260200160c060ff16815260200160fe60ff168152602001607860ff16815260200160cd60ff168152602001605a60ff16815260200160f460ff168152602001601f60ff16815260200160dd60ff16815260200160a860ff168152602001603360ff168152602001608860ff168152602001600760ff16815260200160c760ff168152602001603160ff16815260200160b160ff168152602001601260ff168152602001601060ff168152602001605960ff168152602001602760ff168152602001608060ff16815260200160ec60ff168152602001605f60ff168152602001606060ff168152602001605160ff168152602001607f60ff16815260200160a960ff168152602001601960ff16815260200160b560ff168152602001604a60ff168152602001600d60ff168152602001602d60ff16815260200160e560ff168152602001607a60ff168152602001609f60ff168152602001609360ff16815260200160c960ff168152602001609c60ff16815260200160ef60ff16815260200160a060ff16815260200160e060ff168152602001603b60ff168152602001604d60ff16815260200160ae60ff168152602001602a60ff16815260200160f560ff16815260200160b060ff16815260200160c860ff16815260200160eb60ff16815260200160bb60ff168152602001603c60ff168152602001608360ff168152602001605360ff168152602001609960ff168152602001606160ff168152602001601760ff168152602001602b60ff168152602001600460ff168152602001607e60ff16815260200160ba60ff168152602001607760ff16815260200160d660ff168152602001602660ff16815260200160e160ff168152602001606960ff168152602001601460ff168152602001606360ff168152602001605560ff168152602001602160ff168152602001600c60ff168152602001607d60ff168152506009906101006114bf92919061299d565b506040518061200001604052805f60ff1681526020015f60ff16815260200160c860ff168152602001600860ff168152602001609160ff168152602001601060ff16815260200160d060ff168152602001603660ff168152602001605a60ff168152602001603e60ff16815260200160d860ff168152602001604360ff168152602001609960ff168152602001607760ff16815260200160fe60ff168152602001601860ff168152602001602360ff168152602001602060ff168152602001600760ff168152602001607060ff16815260200160a160ff168152602001606c60ff168152602001600c60ff168152602001607f60ff168152602001606260ff168152602001608b60ff168152602001604060ff168152602001604660ff16815260200160c760ff168152602001604b60ff16815260200160e060ff168152602001600e60ff16815260200160eb60ff168152602001601660ff16815260200160e860ff16815260200160ad60ff16815260200160cf60ff16815260200160cd60ff168152602001603960ff168152602001605360ff168152602001606a60ff168152602001602760ff168152602001603560ff168152602001609360ff16815260200160d460ff168152602001604e60ff168152602001604860ff16815260200160c360ff168152602001602b60ff168152602001607960ff168152602001605460ff168152602001602860ff168152602001600960ff168152602001607860ff168152602001600f60ff168152602001602160ff168152602001609060ff168152602001608760ff168152602001601460ff168152602001602a60ff16815260200160a960ff168152602001609c60ff16815260200160d660ff168152602001607460ff16815260200160b460ff168152602001607c60ff16815260200160de60ff16815260200160ed60ff16815260200160b160ff168152602001608660ff168152602001607660ff16815260200160a460ff168152602001609860ff16815260200160e260ff168152602001609660ff168152602001608f60ff168152602001600260ff168152602001603260ff168152602001601c60ff16815260200160c160ff168152602001603360ff16815260200160ee60ff16815260200160ef60ff168152602001608160ff16815260200160fd60ff168152602001603060ff168152602001605c60ff168152602001601360ff168152602001609d60ff168152602001602960ff168152602001601760ff16815260200160c460ff168152602001601160ff168152602001604460ff168152602001608c60ff168152602001608060ff16815260200160f360ff168152602001607360ff168152602001604260ff168152602001601e60ff168152602001601d60ff16815260200160b560ff16815260200160f060ff168152602001601260ff16815260200160d160ff168152602001605b60ff168152602001604160ff16815260200160a260ff16815260200160d760ff168152602001602c60ff16815260200160e960ff16815260200160d560ff168152602001605960ff16815260200160cb60ff168152602001605060ff16815260200160a860ff16815260200160dc60ff16815260200160fc60ff16815260200160f260ff168152602001605660ff168152602001607260ff16815260200160a660ff168152602001606560ff168152602001602f60ff168152602001609f60ff168152602001609b60ff168152602001603d60ff16815260200160ba60ff168152602001607d60ff16815260200160c260ff168152602001604560ff168152602001608260ff16815260200160a760ff168152602001605760ff16815260200160b660ff16815260200160a360ff168152602001607a60ff168152602001607560ff168152602001604f60ff16815260200160ae60ff168152602001603f60ff168152602001603760ff168152602001606d60ff168152602001604760ff168152602001606160ff16815260200160be60ff16815260200160ab60ff16815260200160d360ff168152602001605f60ff16815260200160b060ff168152602001605860ff16815260200160af60ff16815260200160ca60ff168152602001605e60ff16815260200160fa60ff168152602001608560ff16815260200160e460ff168152602001604d60ff168152602001608a60ff168152602001600560ff16815260200160fb60ff168152602001606060ff16815260200160b760ff168152602001607b60ff16815260200160b860ff168152602001602660ff168152602001604a60ff168152602001606760ff16815260200160c660ff168152602001601a60ff16815260200160f860ff168152602001606960ff168152602001602560ff16815260200160b360ff16815260200160db60ff16815260200160bd60ff168152602001606660ff16815260200160dd60ff16815260200160f160ff16815260200160d260ff16815260200160df60ff168152602001600360ff168152602001608d60ff168152602001603460ff16815260200160d960ff168152602001609260ff168152602001600d60ff168152602001606360ff168152602001605560ff16815260200160aa60ff168152602001604960ff16815260200160ec60ff16815260200160bc60ff168152602001609560ff168152602001603c60ff168152602001608460ff168152602001600b60ff16815260200160f560ff16815260200160e660ff16815260200160e760ff16815260200160e560ff16815260200160ac60ff168152602001607e60ff168152602001606e60ff16815260200160b960ff16815260200160f960ff16815260200160da60ff168152602001608e60ff168152602001609a60ff16815260200160c960ff168152602001602460ff16815260200160e160ff168152602001600a60ff168152602001601560ff168152602001606b60ff168152602001603a60ff16815260200160a060ff168152602001605160ff16815260200160f460ff16815260200160ea60ff16815260200160b260ff168152602001609760ff168152602001609e60ff168152602001605d60ff168152602001602260ff168152602001608860ff168152602001609460ff16815260200160ce60ff168152602001601960ff168152602001600160ff168152602001607160ff168152602001604c60ff16815260200160a560ff16815260200160e360ff16815260200160c560ff168152602001603160ff16815260200160bb60ff16815260200160cc60ff168152602001601f60ff168152602001602d60ff168152602001603b60ff168152602001605260ff168152602001606f60ff16815260200160f660ff168152602001602e60ff168152602001608960ff16815260200160f760ff16815260200160c060ff168152602001606860ff168152602001601b60ff168152602001606460ff168152602001600460ff168152602001600660ff16815260200160bf60ff168152602001608360ff168152602001603860ff16815250601190610100611ed992919061299d565b50604051806120000160405280600160ff16815260200160e560ff168152602001604c60ff16815260200160b560ff16815260200160fb60ff168152602001609f60ff16815260200160fc60ff168152602001601260ff168152602001600360ff168152602001603460ff16815260200160d460ff16815260200160c460ff168152602001601660ff16815260200160ba60ff168152602001601f60ff168152602001603660ff168152602001600560ff168152602001605c60ff168152602001606760ff168152602001605760ff168152602001603a60ff16815260200160d560ff168152602001602160ff168152602001605a60ff168152602001600f60ff16815260200160e460ff16815260200160a960ff16815260200160f960ff168152602001604e60ff168152602001606460ff168152602001606360ff16815260200160ee60ff168152602001601160ff168152602001603760ff16815260200160e060ff168152602001601060ff16815260200160d260ff16815260200160ac60ff16815260200160a560ff168152602001602960ff168152602001603360ff168152602001605960ff168152602001603b60ff168152602001603060ff168152602001606d60ff16815260200160ef60ff16815260200160f460ff168152602001607b60ff168152602001605560ff16815260200160eb60ff168152602001604d60ff168152602001605060ff16815260200160b760ff168152602001602a60ff168152602001600760ff168152602001608d60ff16815260200160ff80168152602001602660ff16815260200160d760ff16815260200160f060ff16815260200160c260ff168152602001607e60ff168152602001600960ff168152602001608c60ff168152602001601a60ff168152602001606a60ff168152602001606260ff168152602001600b60ff168152602001605d60ff168152602001608260ff168152602001601b60ff168152602001608f60ff168152602001602e60ff16815260200160be60ff16815260200160a660ff168152602001601d60ff16815260200160e760ff168152602001609d60ff168152602001602d60ff168152602001608a60ff168152602001607260ff16815260200160d960ff16815260200160f160ff168152602001602760ff168152602001603260ff16815260200160bc60ff168152602001607760ff168152602001608560ff168152602001609660ff168152602001607060ff168152602001600860ff168152602001606960ff168152602001605660ff16815260200160df60ff168152602001609960ff168152602001609460ff16815260200160a160ff168152602001609060ff168152602001601860ff16815260200160bb60ff16815260200160fa60ff168152602001607a60ff16815260200160b060ff16815260200160a760ff16815260200160f860ff16815260200160ab60ff168152602001602860ff16815260200160d660ff168152602001601560ff168152602001608e60ff16815260200160cb60ff16815260200160f260ff168152602001601360ff16815260200160e660ff168152602001607860ff168152602001606160ff168152602001603f60ff168152602001608960ff168152602001604660ff168152602001600d60ff168152602001603560ff168152602001603160ff168152602001608860ff16815260200160a360ff168152602001604160ff168152602001608060ff16815260200160ca60ff168152602001601760ff168152602001605f60ff168152602001605360ff168152602001608360ff16815260200160fe60ff16815260200160c360ff168152602001609b60ff168152602001604560ff168152602001603960ff16815260200160e160ff16815260200160f560ff168152602001609e60ff168152602001601960ff168152602001605e60ff16815260200160b660ff16815260200160cf60ff168152602001604b60ff168152602001603860ff168152602001600460ff16815260200160b960ff168152602001602b60ff16815260200160e260ff16815260200160c160ff168152602001604a60ff16815260200160dd60ff168152602001604860ff168152602001600c60ff16815260200160d060ff168152602001607d60ff168152602001603d60ff168152602001605860ff16815260200160de60ff168152602001607c60ff16815260200160d860ff168152602001601460ff168152602001606b60ff168152602001608760ff168152602001604760ff16815260200160e860ff168152602001607960ff168152602001608460ff168152602001607360ff168152602001603c60ff16815260200160bd60ff168152602001609260ff16815260200160c960ff168152602001602360ff168152602001608b60ff168152602001609760ff168152602001609560ff168152602001604460ff16815260200160dc60ff16815260200160ad60ff168152602001604060ff168152602001606560ff168152602001608660ff16815260200160a260ff16815260200160a460ff16815260200160cc60ff168152602001607f60ff16815260200160ec60ff16815260200160c060ff16815260200160af60ff168152602001609160ff16815260200160fd60ff16815260200160f760ff168152602001604f60ff168152602001608160ff168152602001602f60ff168152602001605b60ff16815260200160ea60ff16815260200160a860ff168152602001601c60ff168152602001600260ff16815260200160d160ff168152602001609860ff168152602001607160ff16815260200160ed60ff168152602001602560ff16815260200160e360ff168152602001602460ff168152602001600660ff168152602001606860ff16815260200160b360ff168152602001609360ff168152602001602c60ff168152602001606f60ff168152602001603e60ff168152602001606c60ff168152602001600a60ff16815260200160b860ff16815260200160ce60ff16815260200160ae60ff168152602001607460ff16815260200160b160ff168152602001604260ff16815260200160b460ff168152602001601e60ff16815260200160d360ff168152602001604960ff16815260200160e960ff168152602001609c60ff16815260200160c860ff16815260200160c660ff16815260200160c760ff168152602001602260ff168152602001606e60ff16815260200160db60ff168152602001602060ff16815260200160bf60ff168152602001604360ff168152602001605160ff168152602001605260ff168152602001606660ff16815260200160b260ff168152602001607660ff168152602001606060ff16815260200160da60ff16815260200160c560ff16815260200160f360ff16815260200160f660ff16815260200160aa60ff16815260200160cd60ff168152602001609a60ff16815260200160a060ff168152602001607560ff168152602001605460ff168152602001600e60ff168152602001600160ff168152506019906101006128f492919061299d565b50348015612900575f80fd5b50612a50565b82600b601f0160209004810192821561298c579160200282015f5b8382111561295e57835183826101000a81548160ff021916908360ff16021790555092602001926001016020815f01049283019260010302612921565b801561298a5782816101000a81549060ff02191690556001016020815f0104928301926001030261295e565b505b5090506129999190612a35565b5090565b82610100601f01602090048101928215612a24579160200282015f5b838211156129f657835183826101000a81548160ff021916908360ff16021790555092602001926001016020815f010492830192600103026129b9565b8015612a225782816101000a81549060ff02191690556001016020815f010492830192600103026129f6565b505b509050612a319190612a35565b5090565b5b80821115612a4c575f815f905550600101612a36565b5090565b613f2480612a5d5f395ff3fe608060405234801561000f575f80fd5b5060043610610055575f3560e01c806306f4a01c14610059578063285fe5f2146100895780633a0e6be2146100b95780634dd76c8a146100e95780636b71a84614610119575b5f80fd5b610073600480360381019061006e9190613422565b610149565b604051610080919061353b565b60405180910390f35b6100a3600480360381019061009e919061355b565b6102e0565b6040516100b0919061368f565b60405180910390f35b6100d360048036038101906100ce919061379d565b6102ea565b6040516100e0919061368f565b60405180910390f35b61010360048036038101906100fe91906138c8565b6103b0565b60405161011091906139ad565b60405180910390f35b610133600480360381019061012e91906138c8565b6109e3565b60405161014091906139ad565b60405180910390f35b60605f825190505f60108261015e91906139fd565b601061016a9190613a5a565b905060108103610178575f90505b5f6040518060400160405280600181526020015f81525090505f600190505b828110156101ce57816040516020016101b09190613acd565b60405160208183030381529060405291508080600101915050610197565b505f85826040516020016101e3929190613af2565b60405160208183030381529060405290505f601082516102039190613b15565b90505f8167ffffffffffffffff8111156102205761021f6132fe565b5b60405190808252806020026020018201604052801561024e5781602001602082028036833780820191505090505b5090505f5b828110156102d1576102738460108361026c9190613b45565b6010611016565b61027c90613be0565b60801c82828151811061029257610291613c46565b5b60200260200101906fffffffffffffffffffffffffffffffff1690816fffffffffffffffffffffffffffffffff16815250508080600101915050610253565b50809650505050505050919050565b6060949350505050565b60605f825f81518110610300576102ff613c46565b5b602002602001015160801b60405160200161031b9190613c93565b60405160208183030381529060405290505f600190505b83518110156103a65781846001815181106103505761034f613c46565b5b60200260200101516040516020016103689190613ce1565b604051602081830303815290604052604051602001610388929190613af2565b60405160208183030381529060405291508080600101915050610332565b5080915050919050565b6103b8613235565b5f60405180608001604052806040518060800160405280875f601081106103e2576103e1613c46565b5b602002015160ff1660ff1681526020018760046010811061040657610405613c46565b5b602002015160ff1660ff1681526020018760086010811061042a57610429613c46565b5b602002015160ff1660ff16815260200187600c6010811061044e5761044d613c46565b5b602002015160ff1660ff1681525081526020016040518060800160405280876001601081106104805761047f613c46565b5b602002015160ff1660ff168152602001876005601081106104a4576104a3613c46565b5b602002015160ff1660ff168152602001876009601081106104c8576104c7613c46565b5b602002015160ff1660ff16815260200187600d601081106104ec576104eb613c46565b5b602002015160ff1660ff16815250815260200160405180608001604052808760026010811061051e5761051d613c46565b5b602002015160ff1660ff1681526020018760066010811061054257610541613c46565b5b602002015160ff1660ff16815260200187600a6010811061056657610565613c46565b5b602002015160ff1660ff16815260200187600e6010811061058a57610589613c46565b5b602002015160ff1660ff1681525081526020016040518060800160405280876003601081106105bc576105bb613c46565b5b602002015160ff1660ff168152602001876007601081106105e0576105df613c46565b5b602002015160ff1660ff16815260200187600b6010811061060457610603613c46565b5b602002015160ff1660ff16815260200187600f6010811061062857610627613c46565b5b602002015160ff1660ff1681525081525090505f61064584611132565b90505f6040518060800160405280836028602c811061066757610666613c46565b5b60200201518152602001836029602c811061068557610684613c46565b5b6020020151815260200183602a602c81106106a3576106a2613c46565b5b6020020151815260200183602b602c81106106c1576106c0613c46565b5b602002015181525090506106d58382611926565b92505f600990505b600181106107f8576106ee84611a03565b93506106f984611d43565b93506040518060800160405280848360046107149190613b45565b602c811061072557610724613c46565b5b6020020151815260200184600184600461073f9190613b45565b6107499190613cfb565b602c811061075a57610759613c46565b5b602002015181526020018460028460046107749190613b45565b61077e9190613cfb565b602c811061078f5761078e613c46565b5b602002015181526020018460038460046107a99190613b45565b6107b39190613cfb565b602c81106107c4576107c3613c46565b5b602002015181525091506107d88483611926565b93506107e384611e1c565b935080806107f090613d2e565b9150506106dd565b5061080283611a03565b925061080d83611d43565b92506040518060800160405280835f602c811061082d5761082c613c46565b5b60200201518152602001836001602c811061084b5761084a613c46565b5b60200201518152602001836002602c811061086957610868613c46565b5b60200201518152602001836003602c811061088757610886613c46565b5b6020020151815250905061089b8382611926565b92505f6040518061020001604052805f60ff1681526020015f60ff1681526020015f60ff1681526020015f60ff1681526020015f60ff1681526020015f60ff1681526020015f60ff1681526020015f60ff1681526020015f60ff1681526020015f60ff1681526020015f60ff1681526020015f60ff1681526020015f60ff1681526020015f60ff1681526020015f60ff1681526020015f60ff1681525090505f5b60048110156109d5575f5b60048110156109c75785816004811061096357610962613c46565b5b6020020151826004811061097a57610979613c46565b5b6020020151838284600461098e9190613b45565b6109989190613cfb565b601081106109a9576109a8613c46565b5b602002019060ff16908160ff16815250508080600101915050610947565b50808060010191505061093c565b508094505050505092915050565b6109eb613235565b5f60405180608001604052806040518060800160405280875f60108110610a1557610a14613c46565b5b602002015160ff1660ff16815260200187600460108110610a3957610a38613c46565b5b602002015160ff1660ff16815260200187600860108110610a5d57610a5c613c46565b5b602002015160ff1660ff16815260200187600c60108110610a8157610a80613c46565b5b602002015160ff1660ff168152508152602001604051806080016040528087600160108110610ab357610ab2613c46565b5b602002015160ff1660ff16815260200187600560108110610ad757610ad6613c46565b5b602002015160ff1660ff16815260200187600960108110610afb57610afa613c46565b5b602002015160ff1660ff16815260200187600d60108110610b1f57610b1e613c46565b5b602002015160ff1660ff168152508152602001604051806080016040528087600260108110610b5157610b50613c46565b5b602002015160ff1660ff16815260200187600660108110610b7557610b74613c46565b5b602002015160ff1660ff16815260200187600a60108110610b9957610b98613c46565b5b602002015160ff1660ff16815260200187600e60108110610bbd57610bbc613c46565b5b602002015160ff1660ff168152508152602001604051806080016040528087600360108110610bef57610bee613c46565b5b602002015160ff1660ff16815260200187600760108110610c1357610c12613c46565b5b602002015160ff1660ff16815260200187600b60108110610c3757610c36613c46565b5b602002015160ff1660ff16815260200187600f60108110610c5b57610c5a613c46565b5b602002015160ff1660ff1681525081525090505f610c7884611132565b90505f6040518060800160405280835f602c8110610c9957610c98613c46565b5b60200201518152602001836001602c8110610cb757610cb6613c46565b5b60200201518152602001836002602c8110610cd557610cd4613c46565b5b60200201518152602001836003602c8110610cf357610cf2613c46565b5b60200201518152509050610d078382611926565b9250610d1283612434565b9250610d1d8361250d565b92505f600190505b60098111610e4057610d368461284d565b9350604051806080016040528084836004610d519190613b45565b602c8110610d6257610d61613c46565b5b60200201518152602001846001846004610d7c9190613b45565b610d869190613cfb565b602c8110610d9757610d96613c46565b5b60200201518152602001846002846004610db19190613b45565b610dbb9190613cfb565b602c8110610dcc57610dcb613c46565b5b60200201518152602001846003846004610de69190613b45565b610df09190613cfb565b602c8110610e0157610e00613c46565b5b60200201518152509150610e158483611926565b9350610e2084612434565b9350610e2b8461250d565b93508080610e3890613d55565b915050610d25565b506040518060800160405280836028602c8110610e6057610e5f613c46565b5b60200201518152602001836029602c8110610e7e57610e7d613c46565b5b6020020151815260200183602a602c8110610e9c57610e9b613c46565b5b6020020151815260200183602b602c8110610eba57610eb9613c46565b5b60200201518152509050610ece8382611926565b92505f6040518061020001604052805f60ff1681526020015f60ff1681526020015f60ff1681526020015f60ff1681526020015f60ff1681526020015f60ff1681526020015f60ff1681526020015f60ff1681526020015f60ff1681526020015f60ff1681526020015f60ff1681526020015f60ff1681526020015f60ff1681526020015f60ff1681526020015f60ff1681526020015f60ff1681525090505f5b6004811015611008575f5b6004811015610ffa57858160048110610f9657610f95613c46565b5b60200201518260048110610fad57610fac613c46565b5b60200201518382846004610fc19190613b45565b610fcb9190613cfb565b60108110610fdc57610fdb613c46565b5b602002019060ff16908160ff16815250508080600101915050610f7a565b508080600101915050610f6f565b508094505050505092915050565b606081601f836110269190613cfb565b1015611067576040517f08c379a000000000000000000000000000000000000000000000000000000000815260040161105e90613df6565b60405180910390fd5b81836110739190613cfb565b845110156110b6576040517f08c379a00000000000000000000000000000000000000000000000000000000081526004016110ad90613e5e565b60405180910390fd5b606082155f81146110d55760405191505f825260208201604052611126565b6040519150601f8416801560200281840101858101878315602002848b0101015b8183101561111357805183526020830192506020810190506110f6565b50868552601f19601f8301166040525050505b50809150509392505050565b61113a613258565b611142613258565b825f6010811061115557611154613c46565b5b6020020151815f602c811061116d5761116c613c46565b5b60200201515f6004811061118457611183613c46565b5b602002019060ff16908160ff1681525050826001601081106111a9576111a8613c46565b5b6020020151815f602c81106111c1576111c0613c46565b5b60200201516001600481106111d9576111d8613c46565b5b602002019060ff16908160ff1681525050826002601081106111fe576111fd613c46565b5b6020020151815f602c811061121657611215613c46565b5b602002015160026004811061122e5761122d613c46565b5b602002019060ff16908160ff16815250508260036010811061125357611252613c46565b5b6020020151815f602c811061126b5761126a613c46565b5b602002015160036004811061128357611282613c46565b5b602002019060ff16908160ff1681525050826004601081106112a8576112a7613c46565b5b6020020151816001602c81106112c1576112c0613c46565b5b60200201515f600481106112d8576112d7613c46565b5b602002019060ff16908160ff1681525050826005601081106112fd576112fc613c46565b5b6020020151816001602c811061131657611315613c46565b5b602002015160016004811061132e5761132d613c46565b5b602002019060ff16908160ff16815250508260066010811061135357611352613c46565b5b6020020151816001602c811061136c5761136b613c46565b5b602002015160026004811061138457611383613c46565b5b602002019060ff16908160ff1681525050826007601081106113a9576113a8613c46565b5b6020020151816001602c81106113c2576113c1613c46565b5b60200201516003600481106113da576113d9613c46565b5b602002019060ff16908160ff1681525050826008601081106113ff576113fe613c46565b5b6020020151816002602c811061141857611417613c46565b5b60200201515f6004811061142f5761142e613c46565b5b602002019060ff16908160ff16815250508260096010811061145457611453613c46565b5b6020020151816002602c811061146d5761146c613c46565b5b602002015160016004811061148557611484613c46565b5b602002019060ff16908160ff168152505082600a601081106114aa576114a9613c46565b5b6020020151816002602c81106114c3576114c2613c46565b5b60200201516002600481106114db576114da613c46565b5b602002019060ff16908160ff168152505082600b60108110611500576114ff613c46565b5b6020020151816002602c811061151957611518613c46565b5b602002015160036004811061153157611530613c46565b5b602002019060ff16908160ff168152505082600c6010811061155657611555613c46565b5b6020020151816003602c811061156f5761156e613c46565b5b60200201515f6004811061158657611585613c46565b5b602002019060ff16908160ff168152505082600d601081106115ab576115aa613c46565b5b6020020151816003602c81106115c4576115c3613c46565b5b60200201516001600481106115dc576115db613c46565b5b602002019060ff16908160ff168152505082600e6010811061160157611600613c46565b5b6020020151816003602c811061161a57611619613c46565b5b602002015160026004811061163257611631613c46565b5b602002019060ff16908160ff168152505082600f6010811061165757611656613c46565b5b6020020151816003602c81106116705761166f613c46565b5b602002015160036004811061168857611687613c46565b5b602002019060ff16908160ff16815250505f600490505b602c81101561191c575f826001836116b79190613a5a565b602c81106116c8576116c7613c46565b5b602002015190505f6004836116dd91906139fd565b03611768576116f36116ee82612e65565b612f9c565b90505f6004836117039190613b15565b600b811061171457611713613c46565b5b602091828204019190069054906101000a900460ff16815f6004811061173d5761173c613c46565b5b602002015118815f6004811061175657611755613c46565b5b602002019060ff16908160ff16815250505b6040518060800160405280846004856117819190613a5a565b602c811061179257611791613c46565b5b60200201515f600481106117a9576117a8613c46565b5b6020020151835f600481106117c1576117c0613c46565b5b60200201511860ff1660ff168152602001846004856117e09190613a5a565b602c81106117f1576117f0613c46565b5b602002015160016004811061180957611808613c46565b5b60200201518360016004811061182257611821613c46565b5b60200201511860ff1660ff168152602001846004856118419190613a5a565b602c811061185257611851613c46565b5b602002015160026004811061186a57611869613c46565b5b60200201518360026004811061188357611882613c46565b5b60200201511860ff1660ff168152602001846004856118a29190613a5a565b602c81106118b3576118b2613c46565b5b60200201516003600481106118cb576118ca613c46565b5b6020020151836003600481106118e4576118e3613c46565b5b60200201511860ff1660ff168152508383602c811061190657611905613c46565b5b602002018190525050808060010191505061169f565b5080915050919050565b61192e613286565b5f5b60048110156119f9575f5b60048110156119eb5783816004811061195757611956613c46565b5b6020020151826004811061196e5761196d613c46565b5b602002015185836004811061198657611985613c46565b5b6020020151826004811061199d5761199c613c46565b5b6020020151188583600481106119b6576119b5613c46565b5b602002015182600481106119cd576119cc613c46565b5b602002019060ff16908160ff1681525050808060010191505061193b565b508080600101915050611930565b5082905092915050565b611a0b613286565b5f825f60048110611a1f57611a1e613c46565b5b602002015190505f604051806080016040528085600160048110611a4657611a45613c46565b5b6020020151600360048110611a5e57611a5d613c46565b5b602002015160ff1660ff16815260200185600160048110611a8257611a81613c46565b5b60200201515f60048110611a9957611a98613c46565b5b602002015160ff1660ff16815260200185600160048110611abd57611abc613c46565b5b6020020151600160048110611ad557611ad4613c46565b5b602002015160ff1660ff16815260200185600160048110611af957611af8613c46565b5b6020020151600260048110611b1157611b10613c46565b5b602002015160ff1660ff1681525090505f604051806080016040528086600260048110611b4157611b40613c46565b5b6020020151600260048110611b5957611b58613c46565b5b602002015160ff1660ff16815260200186600260048110611b7d57611b7c613c46565b5b6020020151600360048110611b9557611b94613c46565b5b602002015160ff1660ff16815260200186600260048110611bb957611bb8613c46565b5b60200201515f60048110611bd057611bcf613c46565b5b602002015160ff1660ff16815260200186600260048110611bf457611bf3613c46565b5b6020020151600160048110611c0c57611c0b613c46565b5b602002015160ff1660ff1681525090505f604051806080016040528087600360048110611c3c57611c3b613c46565b5b6020020151600160048110611c5457611c53613c46565b5b602002015160ff1660ff16815260200187600360048110611c7857611c77613c46565b5b6020020151600260048110611c9057611c8f613c46565b5b602002015160ff1660ff16815260200187600360048110611cb457611cb3613c46565b5b6020020151600360048110611ccc57611ccb613c46565b5b602002015160ff1660ff16815260200187600360048110611cf057611cef613c46565b5b60200201515f60048110611d0757611d06613c46565b5b602002015160ff1660ff168152509050604051806080016040528085815260200184815260200183815260200182815250945050505050919050565b611d4b613286565b5f5b6004811015611e13575f5b6004811015611e05576009848360048110611d7657611d75613c46565b5b60200201518260048110611d8d57611d8c613c46565b5b602002015160ff166101008110611da757611da6613c46565b5b602091828204019190069054906101000a900460ff16848360048110611dd057611dcf613c46565b5b60200201518260048110611de757611de6613c46565b5b602002019060ff16908160ff16815250508080600101915050611d58565b508080600101915050611d4d565b50819050919050565b611e24613286565b5f604051806080016040528060405180608001604052805f60ff1681526020015f60ff1681526020015f60ff1681526020015f60ff16815250815260200160405180608001604052805f60ff1681526020015f60ff1681526020015f60ff1681526020015f60ff16815250815260200160405180608001604052805f60ff1681526020015f60ff1681526020015f60ff1681526020015f60ff16815250815260200160405180608001604052805f60ff1681526020015f60ff1681526020015f60ff1681526020015f60ff1681525081525090505f5b600481101561242a575f5b6004811015611f8557848160048110611f2157611f20613c46565b5b60200201518260048110611f3857611f37613c46565b5b6020020151838260048110611f5057611f4f613c46565b5b60200201518360048110611f6757611f66613c46565b5b602002019060ff16908160ff16815250508080600101915050611f05565b50611fc082600160048110611f9d57611f9c613c46565b5b60200201518260048110611fb457611fb3613c46565b5b6020020151600b613156565b611ffa83600260048110611fd757611fd6613c46565b5b60200201518360048110611fee57611fed613c46565b5b6020020151600d613156565b6120348460036004811061201157612010613c46565b5b6020020151846004811061202857612027613c46565b5b60200201516009613156565b61206d855f6004811061204a57612049613c46565b5b6020020151856004811061206157612060613c46565b5b6020020151600e613156565b181818845f6004811061208357612082613c46565b5b6020020151826004811061209a57612099613c46565b5b602002019060ff16908160ff16815250506120e5826002600481106120c2576120c1613c46565b5b602002015182600481106120d9576120d8613c46565b5b6020020151600b613156565b61211f836003600481106120fc576120fb613c46565b5b6020020151836004811061211357612112613c46565b5b6020020151600d613156565b612158845f6004811061213557612134613c46565b5b6020020151846004811061214c5761214b613c46565b5b60200201516009613156565b6121928560016004811061216f5761216e613c46565b5b6020020151856004811061218657612185613c46565b5b6020020151600e613156565b181818846001600481106121a9576121a8613c46565b5b602002015182600481106121c0576121bf613c46565b5b602002019060ff16908160ff168152505061220b826003600481106121e8576121e7613c46565b5b602002015182600481106121ff576121fe613c46565b5b6020020151600b613156565b612244835f6004811061222157612220613c46565b5b6020020151836004811061223857612237613c46565b5b6020020151600d613156565b61227e8460016004811061225b5761225a613c46565b5b6020020151846004811061227257612271613c46565b5b60200201516009613156565b6122b88560026004811061229557612294613c46565b5b602002015185600481106122ac576122ab613c46565b5b6020020151600e613156565b181818846002600481106122cf576122ce613c46565b5b602002015182600481106122e6576122e5613c46565b5b602002019060ff16908160ff1681525050612330825f6004811061230d5761230c613c46565b5b6020020151826004811061232457612323613c46565b5b6020020151600b613156565b61236a8360016004811061234757612346613c46565b5b6020020151836004811061235e5761235d613c46565b5b6020020151600d613156565b6123a48460026004811061238157612380613c46565b5b6020020151846004811061239857612397613c46565b5b60200201516009613156565b6123de856003600481106123bb576123ba613c46565b5b602002015185600481106123d2576123d1613c46565b5b6020020151600e613156565b181818846003600481106123f5576123f4613c46565b5b6020020151826004811061240c5761240b613c46565b5b602002019060ff16908160ff16815250508080600101915050611efa565b5082915050919050565b61243c613286565b5f5b6004811015612504575f5b60048110156124f657600184836004811061246757612466613c46565b5b6020020151826004811061247e5761247d613c46565b5b602002015160ff16610100811061249857612497613c46565b5b602091828204019190069054906101000a900460ff168483600481106124c1576124c0613c46565b5b602002015182600481106124d8576124d7613c46565b5b602002019060ff16908160ff16815250508080600101915050612449565b50808060010191505061243e565b50819050919050565b612515613286565b5f825f6004811061252957612528613c46565b5b602002015190505f6040518060800160405280856001600481106125505761254f613c46565b5b602002015160016004811061256857612567613c46565b5b602002015160ff1660ff1681526020018560016004811061258c5761258b613c46565b5b60200201516002600481106125a4576125a3613c46565b5b602002015160ff1660ff168152602001856001600481106125c8576125c7613c46565b5b60200201516003600481106125e0576125df613c46565b5b602002015160ff1660ff1681526020018560016004811061260457612603613c46565b5b60200201515f6004811061261b5761261a613c46565b5b602002015160ff1660ff1681525090505f60405180608001604052808660026004811061264b5761264a613c46565b5b602002015160026004811061266357612662613c46565b5b602002015160ff1660ff1681526020018660026004811061268757612686613c46565b5b602002015160036004811061269f5761269e613c46565b5b602002015160ff1660ff168152602001866002600481106126c3576126c2613c46565b5b60200201515f600481106126da576126d9613c46565b5b602002015160ff1660ff168152602001866002600481106126fe576126fd613c46565b5b602002015160016004811061271657612715613c46565b5b602002015160ff1660ff1681525090505f60405180608001604052808760036004811061274657612745613c46565b5b602002015160036004811061275e5761275d613c46565b5b602002015160ff1660ff1681526020018760036004811061278257612781613c46565b5b60200201515f6004811061279957612798613c46565b5b602002015160ff1660ff168152602001876003600481106127bd576127bc613c46565b5b60200201516001600481106127d5576127d4613c46565b5b602002015160ff1660ff168152602001876003600481106127f9576127f8613c46565b5b602002015160026004811061281157612810613c46565b5b602002015160ff1660ff168152509050604051806080016040528085815260200184815260200183815260200182815250945050505050919050565b612855613286565b5f604051806080016040528060405180608001604052805f60ff1681526020015f60ff1681526020015f60ff1681526020015f60ff16815250815260200160405180608001604052805f60ff1681526020015f60ff1681526020015f60ff1681526020015f60ff16815250815260200160405180608001604052805f60ff1681526020015f60ff1681526020015f60ff1681526020015f60ff16815250815260200160405180608001604052805f60ff1681526020015f60ff1681526020015f60ff1681526020015f60ff1681525081525090505f5b6004811015612e5b575f5b60048110156129b65784816004811061295257612951613c46565b5b6020020151826004811061296957612968613c46565b5b602002015183826004811061298157612980613c46565b5b6020020151836004811061299857612997613c46565b5b602002019060ff16908160ff16815250508080600101915050612936565b506129f1826003600481106129ce576129cd613c46565b5b602002015182600481106129e5576129e4613c46565b5b60200201516001613156565b612a2b83600260048110612a0857612a07613c46565b5b60200201518360048110612a1f57612a1e613c46565b5b60200201516001613156565b612a6584600160048110612a4257612a41613c46565b5b60200201518460048110612a5957612a58613c46565b5b60200201516003613156565b612a9e855f60048110612a7b57612a7a613c46565b5b60200201518560048110612a9257612a91613c46565b5b60200201516002613156565b181818845f60048110612ab457612ab3613c46565b5b60200201518260048110612acb57612aca613c46565b5b602002019060ff16908160ff1681525050612b1682600360048110612af357612af2613c46565b5b60200201518260048110612b0a57612b09613c46565b5b60200201516001613156565b612b5083600260048110612b2d57612b2c613c46565b5b60200201518360048110612b4457612b43613c46565b5b60200201516003613156565b612b8a84600160048110612b6757612b66613c46565b5b60200201518460048110612b7e57612b7d613c46565b5b60200201516002613156565b612bc3855f60048110612ba057612b9f613c46565b5b60200201518560048110612bb757612bb6613c46565b5b60200201516001613156565b18181884600160048110612bda57612bd9613c46565b5b60200201518260048110612bf157612bf0613c46565b5b602002019060ff16908160ff1681525050612c3c82600360048110612c1957612c18613c46565b5b60200201518260048110612c3057612c2f613c46565b5b60200201516003613156565b612c7683600260048110612c5357612c52613c46565b5b60200201518360048110612c6a57612c69613c46565b5b60200201516002613156565b612cb084600160048110612c8d57612c8c613c46565b5b60200201518460048110612ca457612ca3613c46565b5b60200201516001613156565b612ce9855f60048110612cc657612cc5613c46565b5b60200201518560048110612cdd57612cdc613c46565b5b60200201516001613156565b18181884600260048110612d0057612cff613c46565b5b60200201518260048110612d1757612d16613c46565b5b602002019060ff16908160ff1681525050612d6282600360048110612d3f57612d3e613c46565b5b60200201518260048110612d5657612d55613c46565b5b60200201516002613156565b612d9c83600260048110612d7957612d78613c46565b5b60200201518360048110612d9057612d8f613c46565b5b60200201516001613156565b612dd684600160048110612db357612db2613c46565b5b60200201518460048110612dca57612dc9613c46565b5b60200201516001613156565b612e0f855f60048110612dec57612deb613c46565b5b60200201518560048110612e0357612e02613c46565b5b60200201516003613156565b18181884600360048110612e2657612e25613c46565b5b60200201518260048110612e3d57612e3c613c46565b5b602002019060ff16908160ff1681525050808060010191505061292b565b5082915050919050565b612e6d6132b3565b5f60405180608001604052805f60ff1681526020015f60ff1681526020015f60ff1681526020015f60ff16815250905082600160048110612eb157612eb0613c46565b5b6020020151815f60048110612ec957612ec8613c46565b5b602002019060ff16908160ff168152505082600260048110612eee57612eed613c46565b5b602002015181600160048110612f0757612f06613c46565b5b602002019060ff16908160ff168152505082600360048110612f2c57612f2b613c46565b5b602002015181600260048110612f4557612f44613c46565b5b602002019060ff16908160ff1681525050825f60048110612f6957612f68613c46565b5b602002015181600360048110612f8257612f81613c46565b5b602002019060ff16908160ff168152505080915050919050565b612fa46132b3565b6001825f60048110612fb957612fb8613c46565b5b602002015160ff166101008110612fd357612fd2613c46565b5b602091828204019190069054906101000a900460ff16825f60048110612ffc57612ffb613c46565b5b602002019060ff16908160ff168152505060018260016004811061302357613022613c46565b5b602002015160ff16610100811061303d5761303c613c46565b5b602091828204019190069054906101000a900460ff168260016004811061306757613066613c46565b5b602002019060ff16908160ff168152505060018260026004811061308e5761308d613c46565b5b602002015160ff1661010081106130a8576130a7613c46565b5b602091828204019190069054906101000a900460ff16826002600481106130d2576130d1613c46565b5b602002019060ff16908160ff16815250506001826003600481106130f9576130f8613c46565b5b602002015160ff16610100811061311357613112613c46565b5b602091828204019190069054906101000a900460ff168260036004811061313d5761313c613c46565b5b602002019060ff16908160ff1681525050819050919050565b5f808360ff16148061316a57505f8260ff16145b15613177575f905061322f565b5f60118460ff1661010081106131905761318f613c46565b5b602091828204019190069054906101000a900460ff1660ff1690505f60118460ff1661010081106131c4576131c3613c46565b5b602091828204019190069054906101000a900460ff1660ff1690505f60ff82846131ee9190613e89565b6131f89190613ebe565b905060198161ffff16610100811061321357613212613c46565b5b602091828204019190069054906101000a900460ff1693505050505b92915050565b604051806102000160405280601090602082028036833780820191505090505090565b604051806105800160405280602c905b6132706132b3565b8152602001906001900390816132685790505090565b60405180608001604052806004905b61329d6132b3565b8152602001906001900390816132955790505090565b6040518060800160405280600490602082028036833780820191505090505090565b5f604051905090565b5f80fd5b5f80fd5b5f80fd5b5f80fd5b5f601f19601f8301169050919050565b7f4e487b71000000000000000000000000000000000000000000000000000000005f52604160045260245ffd5b613334826132ee565b810181811067ffffffffffffffff82111715613353576133526132fe565b5b80604052505050565b5f6133656132d5565b9050613371828261332b565b919050565b5f67ffffffffffffffff8211156133905761338f6132fe565b5b613399826132ee565b9050602081019050919050565b828183375f83830152505050565b5f6133c66133c184613376565b61335c565b9050828152602081018484840111156133e2576133e16132ea565b5b6133ed8482856133a6565b509392505050565b5f82601f830112613409576134086132e6565b5b81356134198482602086016133b4565b91505092915050565b5f60208284031215613437576134366132de565b5b5f82013567ffffffffffffffff811115613454576134536132e2565b5b613460848285016133f5565b91505092915050565b5f81519050919050565b5f82825260208201905092915050565b5f819050602082019050919050565b5f6fffffffffffffffffffffffffffffffff82169050919050565b6134b681613492565b82525050565b5f6134c783836134ad565b60208301905092915050565b5f602082019050919050565b5f6134e982613469565b6134f38185613473565b93506134fe83613483565b805f5b8381101561352e57815161351588826134bc565b9750613520836134d3565b925050600181019050613501565b5085935050505092915050565b5f6020820190508181035f83015261355381846134df565b905092915050565b5f805f8060808587031215613573576135726132de565b5b5f85013567ffffffffffffffff8111156135905761358f6132e2565b5b61359c878288016133f5565b945050602085013567ffffffffffffffff8111156135bd576135bc6132e2565b5b6135c9878288016133f5565b935050604085013567ffffffffffffffff8111156135ea576135e96132e2565b5b6135f6878288016133f5565b925050606085013567ffffffffffffffff811115613617576136166132e2565b5b613623878288016133f5565b91505092959194509250565b5f81519050919050565b5f82825260208201905092915050565b8281835e5f83830152505050565b5f6136618261362f565b61366b8185613639565b935061367b818560208601613649565b613684816132ee565b840191505092915050565b5f6020820190508181035f8301526136a78184613657565b905092915050565b5f67ffffffffffffffff8211156136c9576136c86132fe565b5b602082029050602081019050919050565b5f80fd5b6136e781613492565b81146136f1575f80fd5b50565b5f81359050613702816136de565b92915050565b5f61371a613715846136af565b61335c565b9050808382526020820190506020840283018581111561373d5761373c6136da565b5b835b81811015613766578061375288826136f4565b84526020840193505060208101905061373f565b5050509392505050565b5f82601f830112613784576137836132e6565b5b8135613794848260208601613708565b91505092915050565b5f602082840312156137b2576137b16132de565b5b5f82013567ffffffffffffffff8111156137cf576137ce6132e2565b5b6137db84828501613770565b91505092915050565b5f67ffffffffffffffff8211156137fe576137fd6132fe565b5b602082029050919050565b5f60ff82169050919050565b61381e81613809565b8114613828575f80fd5b50565b5f8135905061383981613815565b92915050565b5f61385161384c846137e4565b61335c565b9050806020840283018581111561386b5761386a6136da565b5b835b818110156138945780613880888261382b565b84526020840193505060208101905061386d565b5050509392505050565b5f82601f8301126138b2576138b16132e6565b5b60106138bf84828561383f565b91505092915050565b5f8061040083850312156138df576138de6132de565b5b5f6138ec8582860161389e565b9250506102006138fe8582860161389e565b9150509250929050565b5f60109050919050565b5f81905092915050565b5f819050919050565b61392e81613809565b82525050565b5f61393f8383613925565b60208301905092915050565b5f602082019050919050565b61396081613908565b61396a8184613912565b92506139758261391c565b805f5b838110156139a557815161398c8782613934565b96506139978361394b565b925050600181019050613978565b505050505050565b5f610200820190506139c15f830184613957565b92915050565b5f819050919050565b7f4e487b71000000000000000000000000000000000000000000000000000000005f52601260045260245ffd5b5f613a07826139c7565b9150613a12836139c7565b925082613a2257613a216139d0565b5b828206905092915050565b7f4e487b71000000000000000000000000000000000000000000000000000000005f52601160045260245ffd5b5f613a64826139c7565b9150613a6f836139c7565b9250828203905081811115613a8757613a86613a2d565b5b92915050565b5f81905092915050565b5f613aa18261362f565b613aab8185613a8d565b9350613abb818560208601613649565b80840191505092915050565b5f815250565b5f613ad88284613a97565b9150613ae382613ac7565b60018201915081905092915050565b5f613afd8285613a97565b9150613b098284613a97565b91508190509392505050565b5f613b1f826139c7565b9150613b2a836139c7565b925082613b3a57613b396139d0565b5b828204905092915050565b5f613b4f826139c7565b9150613b5a836139c7565b9250828202613b68816139c7565b91508282048414831517613b7f57613b7e613a2d565b5b5092915050565b5f819050602082019050919050565b5f7fffffffffffffffffffffffffffffffff0000000000000000000000000000000082169050919050565b5f613bcb8251613b95565b80915050919050565b5f82821b905092915050565b5f613bea8261362f565b82613bf484613b86565b9050613bff81613bc0565b92506010821015613c3f57613c3a7fffffffffffffffffffffffffffffffff0000000000000000000000000000000083601003600802613bd4565b831692505b5050919050565b7f4e487b71000000000000000000000000000000000000000000000000000000005f52603260045260245ffd5b5f819050919050565b613c8d613c8882613b95565b613c73565b82525050565b5f613c9e8284613c7c565b60108201915081905092915050565b5f8160801b9050919050565b5f613cc382613cad565b9050919050565b613cdb613cd682613492565b613cb9565b82525050565b5f613cec8284613cca565b60108201915081905092915050565b5f613d05826139c7565b9150613d10836139c7565b9250828201905080821115613d2857613d27613a2d565b5b92915050565b5f613d38826139c7565b91505f8203613d4a57613d49613a2d565b5b600182039050919050565b5f613d5f826139c7565b91507fffffffffffffffffffffffffffffffffffffffffffffffffffffffffffffffff8203613d9157613d90613a2d565b5b600182019050919050565b5f82825260208201905092915050565b7f736c6963655f6f766572666c6f770000000000000000000000000000000000005f82015250565b5f613de0600e83613d9c565b9150613deb82613dac565b602082019050919050565b5f6020820190508181035f830152613e0d81613dd4565b9050919050565b7f736c6963655f6f75744f66426f756e64730000000000000000000000000000005f82015250565b5f613e48601183613d9c565b9150613e5382613e14565b602082019050919050565b5f6020820190508181035f830152613e7581613e3c565b9050919050565b5f61ffff82169050919050565b5f613e9382613e7c565b9150613e9e83613e7c565b9250828201905061ffff811115613eb857613eb7613a2d565b5b92915050565b5f613ec882613e7c565b9150613ed383613e7c565b925082613ee357613ee26139d0565b5b82820690509291505056fea26469706673582212200db3458a97470a490e7e18da48430314bc12df9a7796fe679df10e4adef9811b64736f6c634300081a0033",
			"opcodes": "PUSH1 0x80 PUSH1 0x40 MSTORE PUSH1 0x40 MLOAD DUP1 PUSH2 0x160 ADD PUSH1 0x40 MSTORE DUP1 PUSH1 0x8D PUSH1 0xFF AND DUP2 MSTORE PUSH1 0x20 ADD PUSH1 0x1 PUSH1 0xFF AND DUP2 MSTORE PUSH1 0x20 ADD PUSH1 0x2 PUSH1 0xFF AND DUP2 MSTORE PUSH1 0x20 ADD PUSH1 0x4 PUSH1 0xFF AND DUP2 MSTORE PUSH1 0x20 ADD PUSH1 0x8 PUSH1 0xFF AND DUP2 MSTORE PUSH1 0x20 ADD PUSH1 0x10 PUSH1 0xFF AND DUP2 MSTORE PUSH1 0x20 ADD PUSH1 0x20 PUSH1 0xFF AND DUP2 MSTORE PUSH1 0x20 ADD PUSH1 0x40 PUSH1 0xFF AND DUP2 MSTORE PUSH1 0x20 ADD PUSH1 0x80 PUSH1 0xFF AND DUP2 MSTORE PUSH1 0x20 ADD PUSH1 0x1B PUSH1 0xFF AND DUP2 MSTORE PUSH1 0x20 ADD PUSH1 0x36 PUSH1 0xFF AND DUP2 MSTORE POP PUSH0 SWAP1 PUSH1 0xB PUSH2 0x8B SWAP3 SWAP2 SWAP1 PUSH2 0x2906 JUMP JUMPDEST POP PUSH1 0x40 MLOAD DUP1 PUSH2 0x2000 ADD PUSH1 0x40 MSTORE DUP1 PUSH1 0x63 PUSH1 0xFF AND DUP2 MSTORE PUSH1 0x20 ADD PUSH1 0x7C PUSH1 0xFF AND DUP2 MSTORE PUSH1 0x20 ADD PUSH1 0x77 PUSH1 0xFF AND DUP2 MSTORE PUSH1 0x20 ADD PUSH1 0x7B PUSH1 0xFF AND DUP2 MSTORE PUSH1 0x20 ADD PUSH1 0xF2 PUSH1 0xFF AND DUP2 MSTORE PUSH1 0x20 ADD PUSH1 0x6B PUSH1 0xFF AND DUP2 MSTORE PUSH1 0x20 ADD PUSH1 0x6F PUSH1 0xFF AND DUP2 MSTORE PUSH1 0x20 ADD PUSH1 0xC5 PUSH1 0xFF AND DUP2 MSTORE PUSH1 0x20 ADD PUSH1 0x30 PUSH1 0xFF AND DUP2 MSTORE PUSH1 0x20 ADD PUSH1 0x1 PUSH1 0xFF AND DUP2 MSTORE PUSH1 0x20 ADD PUSH1 0x67 PUSH1 0xFF AND DUP2 MSTORE PUSH1 0x20 ADD PUSH1 0x2B PUSH1 0xFF AND DUP2 MSTORE PUSH1 0x20 ADD PUSH1 0xFE PUSH1 0xFF AND DUP2 MSTORE PUSH1 0x20 ADD PUSH1 0xD7 PUSH1 0xFF AND DUP2 MSTORE PUSH1 0x20 ADD PUSH1 0xAB PUSH1 0xFF AND DUP2 MSTORE PUSH1 0x20 ADD PUSH1 0x76 PUSH1 0xFF AND DUP2 MSTORE PUSH1 0x20 ADD PUSH1 0xCA PUSH1 0xFF AND DUP2 MSTORE PUSH1 0x20 ADD PUSH1 0x82 PUSH1 0xFF AND DUP2 MSTORE PUSH1 0x20 ADD PUSH1 0xC9 PUSH1 0xFF AND DUP2 MSTORE PUSH1 0x20 ADD PUSH1 0x7D PUSH1 0xFF AND DUP2 MSTORE PUSH1 0x20 ADD PUSH1 0xFA PUSH1 0xFF AND DUP2 MSTORE PUSH1 0x20 ADD PUSH1 0x59 PUSH1 0xFF AND DUP2 MSTORE PUSH1 0x20 ADD PUSH1 0x47 PUSH1 0xFF AND DUP2 MSTORE PUSH1 0x20 ADD PUSH1 0xF0 PUSH1 0xFF AND DUP2 MSTORE PUSH1 0x20 ADD PUSH1 0xAD PUSH1 0xFF AND DUP2 MSTORE PUSH1 0x20 ADD PUSH1 0xD4 PUSH1 0xFF AND DUP2 MSTORE PUSH1 0x20 ADD PUSH1 0xA2 PUSH1 0xFF AND DUP2 MSTORE PUSH1 0x20 ADD PUSH1 0xAF PUSH1 0xFF AND DUP2 MSTORE PUSH1 0x20 ADD PUSH1 0x9C PUSH1 0xFF AND DUP2 MSTORE PUSH1 0x20 ADD PUSH1 0xA4 PUSH1 0xFF AND DUP2 MSTORE PUSH1 0x20 ADD PUSH1 0x72 PUSH1 0xFF AND DUP2 MSTORE PUSH1 0x20 ADD PUSH1 0xC0 PUSH1 0xFF AND DUP2 MSTORE PUSH1 0x20 ADD PUSH1 0xB7 PUSH1 0xFF AND DUP2 MSTORE PUSH1 0x20 ADD PUSH1 0xFD PUSH1 0xFF AND DUP2 MSTORE PUSH1 0x20 ADD PUSH1 0x93 PUSH1 0xFF AND DUP2 MSTORE PUSH1 0x20 ADD PUSH1 0x26 PUSH1 0xFF AND DUP2 MSTORE PUSH1 0x20 ADD PUSH1 0x36 PUSH1 0xFF AND DUP2 MSTORE PUSH1 0x20 ADD PUSH1 0x3F PUSH1 0xFF AND DUP2 MSTORE PUSH1 0x20 ADD PUSH1 0xF7 PUSH1 0xFF AND DUP2 MSTORE PUSH1 0x20 ADD PUSH1 0xCC PUSH1 0xFF AND DUP2 MSTORE PUSH1 0x20 ADD PUSH1 0x34 PUSH1 0xFF AND DUP2 MSTORE PUSH1 0x20 ADD PUSH1 0xA5 PUSH1 0xFF AND DUP2 MSTORE PUSH1 0x20 ADD PUSH1 0xE5 PUSH1 0xFF AND DUP2 MSTORE PUSH1 0x20 ADD PUSH1 0xF1 PUSH1 0xFF AND DUP2 MSTORE PUSH1 0x20 ADD PUSH1 0x71 PUSH1 0xFF AND DUP2 MSTORE PUSH1 0x20 ADD PUSH1 0xD8 PUSH1 0xFF AND DUP2 MSTORE PUSH1 0x20 ADD PUSH1 0x31 PUSH1 0xFF AND DUP2 MSTORE PUSH1 0x20 ADD PUSH1 0x15 PUSH1 0xFF AND DUP2 MSTORE PUSH1 0x20 ADD PUSH1 0x4 PUSH1 0xFF AND DUP2 MSTORE PUSH1 0x20 ADD PUSH1 0xC7 PUSH1 0xFF AND DUP2 MSTORE PUSH1 0x20 ADD PUSH1 0x23 PUSH1 0xFF AND DUP2 MSTORE PUSH1 0x20 ADD PUSH1 0xC3 PUSH1 0xFF AND DUP2 MSTORE PUSH1 0x20 ADD PUSH1 0x18 PUSH1 0xFF AND DUP2 MSTORE PUSH1 0x20 ADD PUSH1 0x96 PUSH1 0xFF AND DUP2 MSTORE PUSH1 0x20 ADD PUSH1 0x5 PUSH1 0xFF AND DUP2 MSTORE PUSH1 0x20 ADD PUSH1 0x9A PUSH1 0xFF AND DUP2 MSTORE PUSH1 0x20 ADD PUSH1 0x7 PUSH1 0xFF AND DUP2 MSTORE PUSH1 0x20 ADD PUSH1 0x12 PUSH1 0xFF AND DUP2 MSTORE PUSH1 0x20 ADD PUSH1 0x80 PUSH1 0xFF AND DUP2 MSTORE PUSH1 0x20 ADD PUSH1 0xE2 PUSH1 0xFF AND DUP2 MSTORE PUSH1 0x20 ADD PUSH1 0xEB PUSH1 0xFF AND DUP2 MSTORE PUSH1 0x20 ADD PUSH1 0x27 PUSH1 0xFF AND DUP2 MSTORE PUSH1 0x20 ADD PUSH1 0xB2 PUSH1 0xFF AND DUP2 MSTORE PUSH1 0x20 ADD PUSH1 0x75 PUSH1 0xFF AND DUP2 MSTORE PUSH1 0x20 ADD PUSH1 0x9 PUSH1 0xFF AND DUP2 MSTORE PUSH1 0x20 ADD PUSH1 0x83 PUSH1 0xFF AND DUP2 MSTORE PUSH1 0x20 ADD PUSH1 0x2C PUSH1 0xFF AND DUP2 MSTORE PUSH1 0x20 ADD PUSH1 0x1A PUSH1 0xFF AND DUP2 MSTORE PUSH1 0x20 ADD PUSH1 0x1B PUSH1 0xFF AND DUP2 MSTORE PUSH1 0x20 ADD PUSH1 0x6E PUSH1 0xFF AND DUP2 MSTORE PUSH1 0x20 ADD PUSH1 0x5A PUSH1 0xFF AND DUP2 MSTORE PUSH1 0x20 ADD PUSH1 0xA0 PUSH1 0xFF AND DUP2 MSTORE PUSH1 0x20 ADD PUSH1 0x52 PUSH1 0xFF AND DUP2 MSTORE PUSH1 0x20 ADD PUSH1 0x3B PUSH1 0xFF AND DUP2 MSTORE PUSH1 0x20 ADD PUSH1 0xD6 PUSH1 0xFF AND DUP2 MSTORE PUSH1 0x20 ADD PUSH1 0xB3 PUSH1 0xFF AND DUP2 MSTORE PUSH1 0x20 ADD PUSH1 0x29 PUSH1 0xFF AND DUP2 MSTORE PUSH1 0x20 ADD PUSH1 0xE3 PUSH1 0xFF AND DUP2 MSTORE PUSH1 0x20 ADD PUSH1 0x2F PUSH1 0xFF AND DUP2 MSTORE PUSH1 0x20 ADD PUSH1 0x84 PUSH1 0xFF AND DUP2 MSTORE PUSH1 0x20 ADD PUSH1 0x53 PUSH1 0xFF AND DUP2 MSTORE PUSH1 0x20 ADD PUSH1 0xD1 PUSH1 0xFF AND DUP2 MSTORE PUSH1 0x20 ADD PUSH0 PUSH1 0xFF AND DUP2 MSTORE PUSH1 0x20 ADD PUSH1 0xED PUSH1 0xFF AND DUP2 MSTORE PUSH1 0x20 ADD PUSH1 0x20 PUSH1 0xFF AND DUP2 MSTORE PUSH1 0x20 ADD PUSH1 0xFC PUSH1 0xFF AND DUP2 MSTORE PUSH1 0x20 ADD PUSH1 0xB1 PUSH1 0xFF AND DUP2 MSTORE PUSH1 0x20 ADD PUSH1 0x5B PUSH1 0xFF AND DUP2 MSTORE PUSH1 0x20 ADD PUSH1 0x6A PUSH1 0xFF AND DUP2 MSTORE PUSH1 0x20 ADD PUSH1 0xCB PUSH1 0xFF AND DUP2 MSTORE PUSH1 0x20 ADD PUSH1 0xBE PUSH1 0xFF AND DUP2 MSTORE PUSH1 0x20 ADD PUSH1 0x39 PUSH1 0xFF AND DUP2 MSTORE PUSH1 0x20 ADD PUSH1 0x4A PUSH1 0xFF AND DUP2 MSTORE PUSH1 0x20 ADD PUSH1 0x4C PUSH1 0xFF AND DUP2 MSTORE PUSH1 0x20 ADD PUSH1 0x58 PUSH1 0xFF AND DUP2 MSTORE PUSH1 0x20 ADD PUSH1 0xCF PUSH1 0xFF AND DUP2 MSTORE PUSH1 0x20 ADD PUSH1 0xD0 PUSH1 0xFF AND DUP2 MSTORE PUSH1 0x20 ADD PUSH1 0xEF PUSH1 0xFF AND DUP2 MSTORE PUSH1 0x20 ADD PUSH1 0xAA PUSH1 0xFF AND DUP2 MSTORE PUSH1 0x20 ADD PUSH1 0xFB PUSH1 0xFF AND DUP2 MSTORE PUSH1 0x20 ADD PUSH1 0x43 PUSH1 0xFF AND DUP2 MSTORE PUSH1 0x20 ADD PUSH1 0x4D PUSH1 0xFF AND DUP2 MSTORE PUSH1 0x20 ADD PUSH1 0x33 PUSH1 0xFF AND DUP2 MSTORE PUSH1 0x20 ADD PUSH1 0x85 PUSH1 0xFF AND DUP2 MSTORE PUSH1 0x20 ADD PUSH1 0x45 PUSH1 0xFF AND DUP2 MSTORE PUSH1 0x20 ADD PUSH1 0xF9 PUSH1 0xFF AND DUP2 MSTORE PUSH1 0x20 ADD PUSH1 0x2 PUSH1 0xFF AND DUP2 MSTORE PUSH1 0x20 ADD PUSH1 0x7F PUSH1 0xFF AND DUP2 MSTORE PUSH1 0x20 ADD PUSH1 0x50 PUSH1 0xFF AND DUP2 MSTORE PUSH1 0x20 ADD PUSH1 0x3C PUSH1 0xFF AND DUP2 MSTORE PUSH1 0x20 ADD PUSH1 0x9F PUSH1 0xFF AND DUP2 MSTORE PUSH1 0x20 ADD PUSH1 0xA8 PUSH1 0xFF AND DUP2 MSTORE PUSH1 0x20 ADD PUSH1 0x51 PUSH1 0xFF AND DUP2 MSTORE PUSH1 0x20 ADD PUSH1 0xA3 PUSH1 0xFF AND DUP2 MSTORE PUSH1 0x20 ADD PUSH1 0x40 PUSH1 0xFF AND DUP2 MSTORE PUSH1 0x20 ADD PUSH1 0x8F PUSH1 0xFF AND DUP2 MSTORE PUSH1 0x20 ADD PUSH1 0x92 PUSH1 0xFF AND DUP2 MSTORE PUSH1 0x20 ADD PUSH1 0x9D PUSH1 0xFF AND DUP2 MSTORE PUSH1 0x20 ADD PUSH1 0x38 PUSH1 0xFF AND DUP2 MSTORE PUSH1 0x20 ADD PUSH1 0xF5 PUSH1 0xFF AND DUP2 MSTORE PUSH1 0x20 ADD PUSH1 0xBC PUSH1 0xFF AND DUP2 MSTORE PUSH1 0x20 ADD PUSH1 0xB6 PUSH1 0xFF AND DUP2 MSTORE PUSH1 0x20 ADD PUSH1 0xDA PUSH1 0xFF AND DUP2 MSTORE PUSH1 0x20 ADD PUSH1 0x21 PUSH1 0xFF AND DUP2 MSTORE PUSH1 0x20 ADD PUSH1 0x10 PUSH1 0xFF AND DUP2 MSTORE PUSH1 0x20 ADD PUSH1 0xFF DUP1 AND DUP2 MSTORE PUSH1 0x20 ADD PUSH1 0xF3 PUSH1 0xFF AND DUP2 MSTORE PUSH1 0x20 ADD PUSH1 0xD2 PUSH1 0xFF AND DUP2 MSTORE PUSH1 0x20 ADD PUSH1 0xCD PUSH1 0xFF AND DUP2 MSTORE PUSH1 0x20 ADD PUSH1 0xC PUSH1 0xFF AND DUP2 MSTORE PUSH1 0x20 ADD PUSH1 0x13 PUSH1 0xFF AND DUP2 MSTORE PUSH1 0x20 ADD PUSH1 0xEC PUSH1 0xFF AND DUP2 MSTORE PUSH1 0x20 ADD PUSH1 0x5F PUSH1 0xFF AND DUP2 MSTORE PUSH1 0x20 ADD PUSH1 0x97 PUSH1 0xFF AND DUP2 MSTORE PUSH1 0x20 ADD PUSH1 0x44 PUSH1 0xFF AND DUP2 MSTORE PUSH1 0x20 ADD PUSH1 0x17 PUSH1 0xFF AND DUP2 MSTORE PUSH1 0x20 ADD PUSH1 0xC4 PUSH1 0xFF AND DUP2 MSTORE PUSH1 0x20 ADD PUSH1 0xA7 PUSH1 0xFF AND DUP2 MSTORE PUSH1 0x20 ADD PUSH1 0x7E PUSH1 0xFF AND DUP2 MSTORE PUSH1 0x20 ADD PUSH1 0x3D PUSH1 0xFF AND DUP2 MSTORE PUSH1 0x20 ADD PUSH1 0x64 PUSH1 0xFF AND DUP2 MSTORE PUSH1 0x20 ADD PUSH1 0x5D PUSH1 0xFF AND DUP2 MSTORE PUSH1 0x20 ADD PUSH1 0x19 PUSH1 0xFF AND DUP2 MSTORE PUSH1 0x20 ADD PUSH1 0x73 PUSH1 0xFF AND DUP2 MSTORE PUSH1 0x20 ADD PUSH1 0x60 PUSH1 0xFF AND DUP2 MSTORE PUSH1 0x20 ADD PUSH1 0x81 PUSH1 0xFF AND DUP2 MSTORE PUSH1 0x20 ADD PUSH1 0x4F PUSH1 0xFF AND DUP2 MSTORE PUSH1 0x20 ADD PUSH1 0xDC PUSH1 0xFF AND DUP2 MSTORE PUSH1 0x20 ADD PUSH1 0x22 PUSH1 0xFF AND DUP2 MSTORE PUSH1 0x20 ADD PUSH1 0x2A PUSH1 0xFF AND DUP2 MSTORE PUSH1 0x20 ADD PUSH1 0x90 PUSH1 0xFF AND DUP2 MSTORE PUSH1 0x20 ADD PUSH1 0x88 PUSH1 0xFF AND DUP2 MSTORE PUSH1 0x20 ADD PUSH1 0x46 PUSH1 0xFF AND DUP2 MSTORE PUSH1 0x20 ADD PUSH1 0xEE PUSH1 0xFF AND DUP2 MSTORE PUSH1 0x20 ADD PUSH1 0xB8 PUSH1 0xFF AND DUP2 MSTORE PUSH1 0x20 ADD PUSH1 0x14 PUSH1 0xFF AND DUP2 MSTORE PUSH1 0x20 ADD PUSH1 0xDE PUSH1 0xFF AND DUP2 MSTORE PUSH1 0x20 ADD PUSH1 0x5E PUSH1 0xFF AND DUP2 MSTORE PUSH1 0x20 ADD PUSH1 0xB PUSH1 0xFF AND DUP2 MSTORE PUSH1 0x20 ADD PUSH1 0xDB PUSH1 0xFF AND DUP2 MSTORE PUSH1 0x20 ADD PUSH1 0xE0 PUSH1 0xFF AND DUP2 MSTORE PUSH1 0x20 ADD PUSH1 0x32 PUSH1 0xFF AND DUP2 MSTORE PUSH1 0x20 ADD PUSH1 0x3A PUSH1 0xFF AND DUP2 MSTORE PUSH1 0x20 ADD PUSH1 0xA PUSH1 0xFF AND DUP2 MSTORE PUSH1 0x20 ADD PUSH1 0x49 PUSH1 0xFF AND DUP2 MSTORE PUSH1 0x20 ADD PUSH1 0x6 PUSH1 0xFF AND DUP2 MSTORE PUSH1 0x20 ADD PUSH1 0x24 PUSH1 0xFF AND DUP2 MSTORE PUSH1 0x20 ADD PUSH1 0x5C PUSH1 0xFF AND DUP2 MSTORE PUSH1 0x20 ADD PUSH1 0xC2 PUSH1 0xFF AND DUP2 MSTORE PUSH1 0x20 ADD PUSH1 0xD3 PUSH1 0xFF AND DUP2 MSTORE PUSH1 0x20 ADD PUSH1 0xAC PUSH1 0xFF AND DUP2 MSTORE PUSH1 0x20 ADD PUSH1 0x62 PUSH1 0xFF AND DUP2 MSTORE PUSH1 0x20 ADD PUSH1 0x91 PUSH1 0xFF AND DUP2 MSTORE PUSH1 0x20 ADD PUSH1 0x95 PUSH1 0xFF AND DUP2 MSTORE PUSH1 0x20 ADD PUSH1 0xE4 PUSH1 0xFF AND DUP2 MSTORE PUSH1 0x20 ADD PUSH1 0x79 PUSH1 0xFF AND DUP2 MSTORE PUSH1 0x20 ADD PUSH1 0xE7 PUSH1 0xFF AND DUP2 MSTORE PUSH1 0x20 ADD PUSH1 0xC8 PUSH1 0xFF AND DUP2 MSTORE PUSH1 0x20 ADD PUSH1 0x37 PUSH1 0xFF AND DUP2 MSTORE PUSH1 0x20 ADD PUSH1 0x6D PUSH1 0xFF AND DUP2 MSTORE PUSH1 0x20 ADD PUSH1 0x8D PUSH1 0xFF AND DUP2 MSTORE PUSH1 0x20 ADD PUSH1 0xD5 PUSH1 0xFF AND DUP2 MSTORE PUSH1 0x20 ADD PUSH1 0x4E PUSH1 0xFF AND DUP2 MSTORE PUSH1 0x20 ADD PUSH1 0xA9 PUSH1 0xFF AND DUP2 MSTORE PUSH1 0x20 ADD PUSH1 0x6C PUSH1 0xFF AND DUP2 MSTORE PUSH1 0x20 ADD PUSH1 0x56 PUSH1 0xFF AND DUP2 MSTORE PUSH1 0x20 ADD PUSH1 0xF4 PUSH1 0xFF AND DUP2 MSTORE PUSH1 0x20 ADD PUSH1 0xEA PUSH1 0xFF AND DUP2 MSTORE PUSH1 0x20 ADD PUSH1 0x65 PUSH1 0xFF AND DUP2 MSTORE PUSH1 0x20 ADD PUSH1 0x7A PUSH1 0xFF AND DUP2 MSTORE PUSH1 0x20 ADD PUSH1 0xAE PUSH1 0xFF AND DUP2 MSTORE PUSH1 0x20 ADD PUSH1 0x8 PUSH1 0xFF AND DUP2 MSTORE PUSH1 0x20 ADD PUSH1 0xBA PUSH1 0xFF AND DUP2 MSTORE PUSH1 0x20 ADD PUSH1 0x78 PUSH1 0xFF AND DUP2 MSTORE PUSH1 0x20 ADD PUSH1 0x25 PUSH1 0xFF AND DUP2 MSTORE PUSH1 0x20 ADD PUSH1 0x2E PUSH1 0xFF AND DUP2 MSTORE PUSH1 0x20 ADD PUSH1 0x1C PUSH1 0xFF AND DUP2 MSTORE PUSH1 0x20 ADD PUSH1 0xA6 PUSH1 0xFF AND DUP2 MSTORE PUSH1 0x20 ADD PUSH1 0xB4 PUSH1 0xFF AND DUP2 MSTORE PUSH1 0x20 ADD PUSH1 0xC6 PUSH1 0xFF AND DUP2 MSTORE PUSH1 0x20 ADD PUSH1 0xE8 PUSH1 0xFF AND DUP2 MSTORE PUSH1 0x20 ADD PUSH1 0xDD PUSH1 0xFF AND DUP2 MSTORE PUSH1 0x20 ADD PUSH1 0x74 PUSH1 0xFF AND DUP2 MSTORE PUSH1 0x20 ADD PUSH1 0x1F PUSH1 0xFF AND DUP2 MSTORE PUSH1 0x20 ADD PUSH1 0x4B PUSH1 0xFF AND DUP2 MSTORE PUSH1 0x20 ADD PUSH1 0xBD PUSH1 0xFF AND DUP2 MSTORE PUSH1 0x20 ADD PUSH1 0x8B PUSH1 0xFF AND DUP2 MSTORE PUSH1 0x20 ADD PUSH1 0x8A PUSH1 0xFF AND DUP2 MSTORE PUSH1 0x20 ADD PUSH1 0x70 PUSH1 0xFF AND DUP2 MSTORE PUSH1 0x20 ADD PUSH1 0x3E PUSH1 0xFF AND DUP2 MSTORE PUSH1 0x20 ADD PUSH1 0xB5 PUSH1 0xFF AND DUP2 MSTORE PUSH1 0x20 ADD PUSH1 0x66 PUSH1 0xFF AND DUP2 MSTORE PUSH1 0x20 ADD PUSH1 0x48 PUSH1 0xFF AND DUP2 MSTORE PUSH1 0x20 ADD PUSH1 0x3 PUSH1 0xFF AND DUP2 MSTORE PUSH1 0x20 ADD PUSH1 0xF6 PUSH1 0xFF AND DUP2 MSTORE PUSH1 0x20 ADD PUSH1 0xE PUSH1 0xFF AND DUP2 MSTORE PUSH1 0x20 ADD PUSH1 0x61 PUSH1 0xFF AND DUP2 MSTORE PUSH1 0x20 ADD PUSH1 0x35 PUSH1 0xFF AND DUP2 MSTORE PUSH1 0x20 ADD PUSH1 0x57 PUSH1 0xFF AND DUP2 MSTORE PUSH1 0x20 ADD PUSH1 0xB9 PUSH1 0xFF AND DUP2 MSTORE PUSH1 0x20 ADD PUSH1 0x86 PUSH1 0xFF AND DUP2 MSTORE PUSH1 0x20 ADD PUSH1 0xC1 PUSH1 0xFF AND DUP2 MSTORE PUSH1 0x20 ADD PUSH1 0x1D PUSH1 0xFF AND DUP2 MSTORE PUSH1 0x20 ADD PUSH1 0x9E PUSH1 0xFF AND DUP2 MSTORE PUSH1 0x20 ADD PUSH1 0xE1 PUSH1 0xFF AND DUP2 MSTORE PUSH1 0x20 ADD PUSH1 0xF8 PUSH1 0xFF AND DUP2 MSTORE PUSH1 0x20 ADD PUSH1 0x98 PUSH1 0xFF AND DUP2 MSTORE PUSH1 0x20 ADD PUSH1 0x11 PUSH1 0xFF AND DUP2 MSTORE PUSH1 0x20 ADD PUSH1 0x69 PUSH1 0xFF AND DUP2 MSTORE PUSH1 0x20 ADD PUSH1 0xD9 PUSH1 0xFF AND DUP2 MSTORE PUSH1 0x20 ADD PUSH1 0x8E PUSH1 0xFF AND DUP2 MSTORE PUSH1 0x20 ADD PUSH1 0x94 PUSH1 0xFF AND DUP2 MSTORE PUSH1 0x20 ADD PUSH1 0x9B PUSH1 0xFF AND DUP2 MSTORE PUSH1 0x20 ADD PUSH1 0x1E PUSH1 0xFF AND DUP2 MSTORE PUSH1 0x20 ADD PUSH1 0x87 PUSH1 0xFF AND DUP2 MSTORE PUSH1 0x20 ADD PUSH1 0xE9 PUSH1 0xFF AND DUP2 MSTORE PUSH1 0x20 ADD PUSH1 0xCE PUSH1 0xFF AND DUP2 MSTORE PUSH1 0x20 ADD PUSH1 0x55 PUSH1 0xFF AND DUP2 MSTORE PUSH1 0x20 ADD PUSH1 0x28 PUSH1 0xFF AND DUP2 MSTORE PUSH1 0x20 ADD PUSH1 0xDF PUSH1 0xFF AND DUP2 MSTORE PUSH1 0x20 ADD PUSH1 0x8C PUSH1 0xFF AND DUP2 MSTORE PUSH1 0x20 ADD PUSH1 0xA1 PUSH1 0xFF AND DUP2 MSTORE PUSH1 0x20 ADD PUSH1 0x89 PUSH1 0xFF AND DUP2 MSTORE PUSH1 0x20 ADD PUSH1 0xD PUSH1 0xFF AND DUP2 MSTORE PUSH1 0x20 ADD PUSH1 0xBF PUSH1 0xFF AND DUP2 MSTORE PUSH1 0x20 ADD PUSH1 0xE6 PUSH1 0xFF AND DUP2 MSTORE PUSH1 0x20 ADD PUSH1 0x42 PUSH1 0xFF AND DUP2 MSTORE PUSH1 0x20 ADD PUSH1 0x68 PUSH1 0xFF AND DUP2 MSTORE PUSH1 0x20 ADD PUSH1 0x41 PUSH1 0xFF AND DUP2 MSTORE PUSH1 0x20 ADD PUSH1 0x99 PUSH1 0xFF AND DUP2 MSTORE PUSH1 0x20 ADD PUSH1 0x2D PUSH1 0xFF AND DUP2 MSTORE PUSH1 0x20 ADD PUSH1 0xF PUSH1 0xFF AND DUP2 MSTORE PUSH1 0x20 ADD PUSH1 0xB0 PUSH1 0xFF AND DUP2 MSTORE PUSH1 0x20 ADD PUSH1 0x54 PUSH1 0xFF AND DUP2 MSTORE PUSH1 0x20 ADD PUSH1 0xBB PUSH1 0xFF AND DUP2 MSTORE PUSH1 0x20 ADD PUSH1 0x16 PUSH1 0xFF AND DUP2 MSTORE POP PUSH1 0x1 SWAP1 PUSH2 0x100 PUSH2 0xAA5 SWAP3 SWAP2 SWAP1 PUSH2 0x299D JUMP JUMPDEST POP PUSH1 0x40 MLOAD DUP1 PUSH2 0x2000 ADD PUSH1 0x40 MSTORE DUP1 PUSH1 0x52 PUSH1 0xFF AND DUP2 MSTORE PUSH1 0x20 ADD PUSH1 0x9 PUSH1 0xFF AND DUP2 MSTORE PUSH1 0x20 ADD PUSH1 0x6A PUSH1 0xFF AND DUP2 MSTORE PUSH1 0x20 ADD PUSH1 0xD5 PUSH1 0xFF AND DUP2 MSTORE PUSH1 0x20 ADD PUSH1 0x30 PUSH1 0xFF AND DUP2 MSTORE PUSH1 0x20 ADD PUSH1 0x36 PUSH1 0xFF AND DUP2 MSTORE PUSH1 0x20 ADD PUSH1 0xA5 PUSH1 0xFF AND DUP2 MSTORE PUSH1 0x20 ADD PUSH1 0x38 PUSH1 0xFF AND DUP2 MSTORE PUSH1 0x20 ADD PUSH1 0xBF PUSH1 0xFF AND DUP2 MSTORE PUSH1 0x20 ADD PUSH1 0x40 PUSH1 0xFF AND DUP2 MSTORE PUSH1 0x20 ADD PUSH1 0xA3 PUSH1 0xFF AND DUP2 MSTORE PUSH1 0x20 ADD PUSH1 0x9E PUSH1 0xFF AND DUP2 MSTORE PUSH1 0x20 ADD PUSH1 0x81 PUSH1 0xFF AND DUP2 MSTORE PUSH1 0x20 ADD PUSH1 0xF3 PUSH1 0xFF AND DUP2 MSTORE PUSH1 0x20 ADD PUSH1 0xD7 PUSH1 0xFF AND DUP2 MSTORE PUSH1 0x20 ADD PUSH1 0xFB PUSH1 0xFF AND DUP2 MSTORE PUSH1 0x20 ADD PUSH1 0x7C PUSH1 0xFF AND DUP2 MSTORE PUSH1 0x20 ADD PUSH1 0xE3 PUSH1 0xFF AND DUP2 MSTORE PUSH1 0x20 ADD PUSH1 0x39 PUSH1 0xFF AND DUP2 MSTORE PUSH1 0x20 ADD PUSH1 0x82 PUSH1 0xFF AND DUP2 MSTORE PUSH1 0x20 ADD PUSH1 0x9B PUSH1 0xFF AND DUP2 MSTORE PUSH1 0x20 ADD PUSH1 0x2F PUSH1 0xFF AND DUP2 MSTORE PUSH1 0x20 ADD PUSH1 0xFF DUP1 AND DUP2 MSTORE PUSH1 0x20 ADD PUSH1 0x87 PUSH1 0xFF AND DUP2 MSTORE PUSH1 0x20 ADD PUSH1 0x34 PUSH1 0xFF AND DUP2 MSTORE PUSH1 0x20 ADD PUSH1 0x8E PUSH1 0xFF AND DUP2 MSTORE PUSH1 0x20 ADD PUSH1 0x43 PUSH1 0xFF AND DUP2 MSTORE PUSH1 0x20 ADD PUSH1 0x44 PUSH1 0xFF AND DUP2 MSTORE PUSH1 0x20 ADD PUSH1 0xC4 PUSH1 0xFF AND DUP2 MSTORE PUSH1 0x20 ADD PUSH1 0xDE PUSH1 0xFF AND DUP2 MSTORE PUSH1 0x20 ADD PUSH1 0xE9 PUSH1 0xFF AND DUP2 MSTORE PUSH1 0x20 ADD PUSH1 0xCB PUSH1 0xFF AND DUP2 MSTORE PUSH1 0x20 ADD PUSH1 0x54 PUSH1 0xFF AND DUP2 MSTORE PUSH1 0x20 ADD PUSH1 0x7B PUSH1 0xFF AND DUP2 MSTORE PUSH1 0x20 ADD PUSH1 0x94 PUSH1 0xFF AND DUP2 MSTORE PUSH1 0x20 ADD PUSH1 0x32 PUSH1 0xFF AND DUP2 MSTORE PUSH1 0x20 ADD PUSH1 0xA6 PUSH1 0xFF AND DUP2 MSTORE PUSH1 0x20 ADD PUSH1 0xC2 PUSH1 0xFF AND DUP2 MSTORE PUSH1 0x20 ADD PUSH1 0x23 PUSH1 0xFF AND DUP2 MSTORE PUSH1 0x20 ADD PUSH1 0x3D PUSH1 0xFF AND DUP2 MSTORE PUSH1 0x20 ADD PUSH1 0xEE PUSH1 0xFF AND DUP2 MSTORE PUSH1 0x20 ADD PUSH1 0x4C PUSH1 0xFF AND DUP2 MSTORE PUSH1 0x20 ADD PUSH1 0x95 PUSH1 0xFF AND DUP2 MSTORE PUSH1 0x20 ADD PUSH1 0xB PUSH1 0xFF AND DUP2 MSTORE PUSH1 0x20 ADD PUSH1 0x42 PUSH1 0xFF AND DUP2 MSTORE PUSH1 0x20 ADD PUSH1 0xFA PUSH1 0xFF AND DUP2 MSTORE PUSH1 0x20 ADD PUSH1 0xC3 PUSH1 0xFF AND DUP2 MSTORE PUSH1 0x20 ADD PUSH1 0x4E PUSH1 0xFF AND DUP2 MSTORE PUSH1 0x20 ADD PUSH1 0x8 PUSH1 0xFF AND DUP2 MSTORE PUSH1 0x20 ADD PUSH1 0x2E PUSH1 0xFF AND DUP2 MSTORE PUSH1 0x20 ADD PUSH1 0xA1 PUSH1 0xFF AND DUP2 MSTORE PUSH1 0x20 ADD PUSH1 0x66 PUSH1 0xFF AND DUP2 MSTORE PUSH1 0x20 ADD PUSH1 0x28 PUSH1 0xFF AND DUP2 MSTORE PUSH1 0x20 ADD PUSH1 0xD9 PUSH1 0xFF AND DUP2 MSTORE PUSH1 0x20 ADD PUSH1 0x24 PUSH1 0xFF AND DUP2 MSTORE PUSH1 0x20 ADD PUSH1 0xB2 PUSH1 0xFF AND DUP2 MSTORE PUSH1 0x20 ADD PUSH1 0x76 PUSH1 0xFF AND DUP2 MSTORE PUSH1 0x20 ADD PUSH1 0x5B PUSH1 0xFF AND DUP2 MSTORE PUSH1 0x20 ADD PUSH1 0xA2 PUSH1 0xFF AND DUP2 MSTORE PUSH1 0x20 ADD PUSH1 0x49 PUSH1 0xFF AND DUP2 MSTORE PUSH1 0x20 ADD PUSH1 0x6D PUSH1 0xFF AND DUP2 MSTORE PUSH1 0x20 ADD PUSH1 0x8B PUSH1 0xFF AND DUP2 MSTORE PUSH1 0x20 ADD PUSH1 0xD1 PUSH1 0xFF AND DUP2 MSTORE PUSH1 0x20 ADD PUSH1 0x25 PUSH1 0xFF AND DUP2 MSTORE PUSH1 0x20 ADD PUSH1 0x72 PUSH1 0xFF AND DUP2 MSTORE PUSH1 0x20 ADD PUSH1 0xF8 PUSH1 0xFF AND DUP2 MSTORE PUSH1 0x20 ADD PUSH1 0xF6 PUSH1 0xFF AND DUP2 MSTORE PUSH1 0x20 ADD PUSH1 0x64 PUSH1 0xFF AND DUP2 MSTORE PUSH1 0x20 ADD PUSH1 0x86 PUSH1 0xFF AND DUP2 MSTORE PUSH1 0x20 ADD PUSH1 0x68 PUSH1 0xFF AND DUP2 MSTORE PUSH1 0x20 ADD PUSH1 0x98 PUSH1 0xFF AND DUP2 MSTORE PUSH1 0x20 ADD PUSH1 0x16 PUSH1 0xFF AND DUP2 MSTORE PUSH1 0x20 ADD PUSH1 0xD4 PUSH1 0xFF AND DUP2 MSTORE PUSH1 0x20 ADD PUSH1 0xA4 PUSH1 0xFF AND DUP2 MSTORE PUSH1 0x20 ADD PUSH1 0x5C PUSH1 0xFF AND DUP2 MSTORE PUSH1 0x20 ADD PUSH1 0xCC PUSH1 0xFF AND DUP2 MSTORE PUSH1 0x20 ADD PUSH1 0x5D PUSH1 0xFF AND DUP2 MSTORE PUSH1 0x20 ADD PUSH1 0x65 PUSH1 0xFF AND DUP2 MSTORE PUSH1 0x20 ADD PUSH1 0xB6 PUSH1 0xFF AND DUP2 MSTORE PUSH1 0x20 ADD PUSH1 0x92 PUSH1 0xFF AND DUP2 MSTORE PUSH1 0x20 ADD PUSH1 0x6C PUSH1 0xFF AND DUP2 MSTORE PUSH1 0x20 ADD PUSH1 0x70 PUSH1 0xFF AND DUP2 MSTORE PUSH1 0x20 ADD PUSH1 0x48 PUSH1 0xFF AND DUP2 MSTORE PUSH1 0x20 ADD PUSH1 0x50 PUSH1 0xFF AND DUP2 MSTORE PUSH1 0x20 ADD PUSH1 0xFD PUSH1 0xFF AND DUP2 MSTORE PUSH1 0x20 ADD PUSH1 0xED PUSH1 0xFF AND DUP2 MSTORE PUSH1 0x20 ADD PUSH1 0xB9 PUSH1 0xFF AND DUP2 MSTORE PUSH1 0x20 ADD PUSH1 0xDA PUSH1 0xFF AND DUP2 MSTORE PUSH1 0x20 ADD PUSH1 0x5E PUSH1 0xFF AND DUP2 MSTORE PUSH1 0x20 ADD PUSH1 0x15 PUSH1 0xFF AND DUP2 MSTORE PUSH1 0x20 ADD PUSH1 0x46 PUSH1 0xFF AND DUP2 MSTORE PUSH1 0x20 ADD PUSH1 0x57 PUSH1 0xFF AND DUP2 MSTORE PUSH1 0x20 ADD PUSH1 0xA7 PUSH1 0xFF AND DUP2 MSTORE PUSH1 0x20 ADD PUSH1 0x8D PUSH1 0xFF AND DUP2 MSTORE PUSH1 0x20 ADD PUSH1 0x9D PUSH1 0xFF AND DUP2 MSTORE PUSH1 0x20 ADD PUSH1 0x84 PUSH1 0xFF AND DUP2 MSTORE PUSH1 0x20 ADD PUSH1 0x90 PUSH1 0xFF AND DUP2 MSTORE PUSH1 0x20 ADD PUSH1 0xD8 PUSH1 0xFF AND DUP2 MSTORE PUSH1 0x20 ADD PUSH1 0xAB PUSH1 0xFF AND DUP2 MSTORE PUSH1 0x20 ADD PUSH0 PUSH1 0xFF AND DUP2 MSTORE PUSH1 0x20 ADD PUSH1 0x8C PUSH1 0xFF AND DUP2 MSTORE PUSH1 0x20 ADD PUSH1 0xBC PUSH1 0xFF AND DUP2 MSTORE PUSH1 0x20 ADD PUSH1 0xD3 PUSH1 0xFF AND DUP2 MSTORE PUSH1 0x20 ADD PUSH1 0xA PUSH1 0xFF AND DUP2 MSTORE PUSH1 0x20 ADD PUSH1 0xF7 PUSH1 0xFF AND DUP2 MSTORE PUSH1 0x20 ADD PUSH1 0xE4 PUSH1 0xFF AND DUP2 MSTORE PUSH1 0x20 ADD PUSH1 0x58 PUSH1 0xFF AND DUP2 MSTORE PUSH1 0x20 ADD PUSH1 0x5 PUSH1 0xFF AND DUP2 MSTORE PUSH1 0x20 ADD PUSH1 0xB8 PUSH1 0xFF AND DUP2 MSTORE PUSH1 0x20 ADD PUSH1 0xB3 PUSH1 0xFF AND DUP2 MSTORE PUSH1 0x20 ADD PUSH1 0x45 PUSH1 0xFF AND DUP2 MSTORE PUSH1 0x20 ADD PUSH1 0x6 PUSH1 0xFF AND DUP2 MSTORE PUSH1 0x20 ADD PUSH1 0xD0 PUSH1 0xFF AND DUP2 MSTORE PUSH1 0x20 ADD PUSH1 0x2C PUSH1 0xFF AND DUP2 MSTORE PUSH1 0x20 ADD PUSH1 0x1E PUSH1 0xFF AND DUP2 MSTORE PUSH1 0x20 ADD PUSH1 0x8F PUSH1 0xFF AND DUP2 MSTORE PUSH1 0x20 ADD PUSH1 0xCA PUSH1 0xFF AND DUP2 MSTORE PUSH1 0x20 ADD PUSH1 0x3F PUSH1 0xFF AND DUP2 MSTORE PUSH1 0x20 ADD PUSH1 0xF PUSH1 0xFF AND DUP2 MSTORE PUSH1 0x20 ADD PUSH1 0x2 PUSH1 0xFF AND DUP2 MSTORE PUSH1 0x20 ADD PUSH1 0xC1 PUSH1 0xFF AND DUP2 MSTORE PUSH1 0x20 ADD PUSH1 0xAF PUSH1 0xFF AND DUP2 MSTORE PUSH1 0x20 ADD PUSH1 0xBD PUSH1 0xFF AND DUP2 MSTORE PUSH1 0x20 ADD PUSH1 0x3 PUSH1 0xFF AND DUP2 MSTORE PUSH1 0x20 ADD PUSH1 0x1 PUSH1 0xFF AND DUP2 MSTORE PUSH1 0x20 ADD PUSH1 0x13 PUSH1 0xFF AND DUP2 MSTORE PUSH1 0x20 ADD PUSH1 0x8A PUSH1 0xFF AND DUP2 MSTORE PUSH1 0x20 ADD PUSH1 0x6B PUSH1 0xFF AND DUP2 MSTORE PUSH1 0x20 ADD PUSH1 0x3A PUSH1 0xFF AND DUP2 MSTORE PUSH1 0x20 ADD PUSH1 0x91 PUSH1 0xFF AND DUP2 MSTORE PUSH1 0x20 ADD PUSH1 0x11 PUSH1 0xFF AND DUP2 MSTORE PUSH1 0x20 ADD PUSH1 0x41 PUSH1 0xFF AND DUP2 MSTORE PUSH1 0x20 ADD PUSH1 0x4F PUSH1 0xFF AND DUP2 MSTORE PUSH1 0x20 ADD PUSH1 0x67 PUSH1 0xFF AND DUP2 MSTORE PUSH1 0x20 ADD PUSH1 0xDC PUSH1 0xFF AND DUP2 MSTORE PUSH1 0x20 ADD PUSH1 0xEA PUSH1 0xFF AND DUP2 MSTORE PUSH1 0x20 ADD PUSH1 0x97 PUSH1 0xFF AND DUP2 MSTORE PUSH1 0x20 ADD PUSH1 0xF2 PUSH1 0xFF AND DUP2 MSTORE PUSH1 0x20 ADD PUSH1 0xCF PUSH1 0xFF AND DUP2 MSTORE PUSH1 0x20 ADD PUSH1 0xCE PUSH1 0xFF AND DUP2 MSTORE PUSH1 0x20 ADD PUSH1 0xF0 PUSH1 0xFF AND DUP2 MSTORE PUSH1 0x20 ADD PUSH1 0xB4 PUSH1 0xFF AND DUP2 MSTORE PUSH1 0x20 ADD PUSH1 0xE6 PUSH1 0xFF AND DUP2 MSTORE PUSH1 0x20 ADD PUSH1 0x73 PUSH1 0xFF AND DUP2 MSTORE PUSH1 0x20 ADD PUSH1 0x96 PUSH1 0xFF AND DUP2 MSTORE PUSH1 0x20 ADD PUSH1 0xAC PUSH1 0xFF AND DUP2 MSTORE PUSH1 0x20 ADD PUSH1 0x74 PUSH1 0xFF AND DUP2 MSTORE PUSH1 0x20 ADD PUSH1 0x22 PUSH1 0xFF AND DUP2 MSTORE PUSH1 0x20 ADD PUSH1 0xE7 PUSH1 0xFF AND DUP2 MSTORE PUSH1 0x20 ADD PUSH1 0xAD PUSH1 0xFF AND DUP2 MSTORE PUSH1 0x20 ADD PUSH1 0x35 PUSH1 0xFF AND DUP2 MSTORE PUSH1 0x20 ADD PUSH1 0x85 PUSH1 0xFF AND DUP2 MSTORE PUSH1 0x20 ADD PUSH1 0xE2 PUSH1 0xFF AND DUP2 MSTORE PUSH1 0x20 ADD PUSH1 0xF9 PUSH1 0xFF AND DUP2 MSTORE PUSH1 0x20 ADD PUSH1 0x37 PUSH1 0xFF AND DUP2 MSTORE PUSH1 0x20 ADD PUSH1 0xE8 PUSH1 0xFF AND DUP2 MSTORE PUSH1 0x20 ADD PUSH1 0x1C PUSH1 0xFF AND DUP2 MSTORE PUSH1 0x20 ADD PUSH1 0x75 PUSH1 0xFF AND DUP2 MSTORE PUSH1 0x20 ADD PUSH1 0xDF PUSH1 0xFF AND DUP2 MSTORE PUSH1 0x20 ADD PUSH1 0x6E PUSH1 0xFF AND DUP2 MSTORE PUSH1 0x20 ADD PUSH1 0x47 PUSH1 0xFF AND DUP2 MSTORE PUSH1 0x20 ADD PUSH1 0xF1 PUSH1 0xFF AND DUP2 MSTORE PUSH1 0x20 ADD PUSH1 0x1A PUSH1 0xFF AND DUP2 MSTORE PUSH1 0x20 ADD PUSH1 0x71 PUSH1 0xFF AND DUP2 MSTORE PUSH1 0x20 ADD PUSH1 0x1D PUSH1 0xFF AND DUP2 MSTORE PUSH1 0x20 ADD PUSH1 0x29 PUSH1 0xFF AND DUP2 MSTORE PUSH1 0x20 ADD PUSH1 0xC5 PUSH1 0xFF AND DUP2 MSTORE PUSH1 0x20 ADD PUSH1 0x89 PUSH1 0xFF AND DUP2 MSTORE PUSH1 0x20 ADD PUSH1 0x6F PUSH1 0xFF AND DUP2 MSTORE PUSH1 0x20 ADD PUSH1 0xB7 PUSH1 0xFF AND DUP2 MSTORE PUSH1 0x20 ADD PUSH1 0x62 PUSH1 0xFF AND DUP2 MSTORE PUSH1 0x20 ADD PUSH1 0xE PUSH1 0xFF AND DUP2 MSTORE PUSH1 0x20 ADD PUSH1 0xAA PUSH1 0xFF AND DUP2 MSTORE PUSH1 0x20 ADD PUSH1 0x18 PUSH1 0xFF AND DUP2 MSTORE PUSH1 0x20 ADD PUSH1 0xBE PUSH1 0xFF AND DUP2 MSTORE PUSH1 0x20 ADD PUSH1 0x1B PUSH1 0xFF AND DUP2 MSTORE PUSH1 0x20 ADD PUSH1 0xFC PUSH1 0xFF AND DUP2 MSTORE PUSH1 0x20 ADD PUSH1 0x56 PUSH1 0xFF AND DUP2 MSTORE PUSH1 0x20 ADD PUSH1 0x3E PUSH1 0xFF AND DUP2 MSTORE PUSH1 0x20 ADD PUSH1 0x4B PUSH1 0xFF AND DUP2 MSTORE PUSH1 0x20 ADD PUSH1 0xC6 PUSH1 0xFF AND DUP2 MSTORE PUSH1 0x20 ADD PUSH1 0xD2 PUSH1 0xFF AND DUP2 MSTORE PUSH1 0x20 ADD PUSH1 0x79 PUSH1 0xFF AND DUP2 MSTORE PUSH1 0x20 ADD PUSH1 0x20 PUSH1 0xFF AND DUP2 MSTORE PUSH1 0x20 ADD PUSH1 0x9A PUSH1 0xFF AND DUP2 MSTORE PUSH1 0x20 ADD PUSH1 0xDB PUSH1 0xFF AND DUP2 MSTORE PUSH1 0x20 ADD PUSH1 0xC0 PUSH1 0xFF AND DUP2 MSTORE PUSH1 0x20 ADD PUSH1 0xFE PUSH1 0xFF AND DUP2 MSTORE PUSH1 0x20 ADD PUSH1 0x78 PUSH1 0xFF AND DUP2 MSTORE PUSH1 0x20 ADD PUSH1 0xCD PUSH1 0xFF AND DUP2 MSTORE PUSH1 0x20 ADD PUSH1 0x5A PUSH1 0xFF AND DUP2 MSTORE PUSH1 0x20 ADD PUSH1 0xF4 PUSH1 0xFF AND DUP2 MSTORE PUSH1 0x20 ADD PUSH1 0x1F PUSH1 0xFF AND DUP2 MSTORE PUSH1 0x20 ADD PUSH1 0xDD PUSH1 0xFF AND DUP2 MSTORE PUSH1 0x20 ADD PUSH1 0xA8 PUSH1 0xFF AND DUP2 MSTORE PUSH1 0x20 ADD PUSH1 0x33 PUSH1 0xFF AND DUP2 MSTORE PUSH1 0x20 ADD PUSH1 0x88 PUSH1 0xFF AND DUP2 MSTORE PUSH1 0x20 ADD PUSH1 0x7 PUSH1 0xFF AND DUP2 MSTORE PUSH1 0x20 ADD PUSH1 0xC7 PUSH1 0xFF AND DUP2 MSTORE PUSH1 0x20 ADD PUSH1 0x31 PUSH1 0xFF AND DUP2 MSTORE PUSH1 0x20 ADD PUSH1 0xB1 PUSH1 0xFF AND DUP2 MSTORE PUSH1 0x20 ADD PUSH1 0x12 PUSH1 0xFF AND DUP2 MSTORE PUSH1 0x20 ADD PUSH1 0x10 PUSH1 0xFF AND DUP2 MSTORE PUSH1 0x20 ADD PUSH1 0x59 PUSH1 0xFF AND DUP2 MSTORE PUSH1 0x20 ADD PUSH1 0x27 PUSH1 0xFF AND DUP2 MSTORE PUSH1 0x20 ADD PUSH1 0x80 PUSH1 0xFF AND DUP2 MSTORE PUSH1 0x20 ADD PUSH1 0xEC PUSH1 0xFF AND DUP2 MSTORE PUSH1 0x20 ADD PUSH1 0x5F PUSH1 0xFF AND DUP2 MSTORE PUSH1 0x20 ADD PUSH1 0x60 PUSH1 0xFF AND DUP2 MSTORE PUSH1 0x20 ADD PUSH1 0x51 PUSH1 0xFF AND DUP2 MSTORE PUSH1 0x20 ADD PUSH1 0x7F PUSH1 0xFF AND DUP2 MSTORE PUSH1 0x20 ADD PUSH1 0xA9 PUSH1 0xFF AND DUP2 MSTORE PUSH1 0x20 ADD PUSH1 0x19 PUSH1 0xFF AND DUP2 MSTORE PUSH1 0x20 ADD PUSH1 0xB5 PUSH1 0xFF AND DUP2 MSTORE PUSH1 0x20 ADD PUSH1 0x4A PUSH1 0xFF AND DUP2 MSTORE PUSH1 0x20 ADD PUSH1 0xD PUSH1 0xFF AND DUP2 MSTORE PUSH1 0x20 ADD PUSH1 0x2D PUSH1 0xFF AND DUP2 MSTORE PUSH1 0x20 ADD PUSH1 0xE5 PUSH1 0xFF AND DUP2 MSTORE PUSH1 0x20 ADD PUSH1 0x7A PUSH1 0xFF AND DUP2 MSTORE PUSH1 0x20 ADD PUSH1 0x9F PUSH1 0xFF AND DUP2 MSTORE PUSH1 0x20 ADD PUSH1 0x93 PUSH1 0xFF AND DUP2 MSTORE PUSH1 0x20 ADD PUSH1 0xC9 PUSH1 0xFF AND DUP2 MSTORE PUSH1 0x20 ADD PUSH1 0x9C PUSH1 0xFF AND DUP2 MSTORE PUSH1 0x20 ADD PUSH1 0xEF PUSH1 0xFF AND DUP2 MSTORE PUSH1 0x20 ADD PUSH1 0xA0 PUSH1 0xFF AND DUP2 MSTORE PUSH1 0x20 ADD PUSH1 0xE0 PUSH1 0xFF AND DUP2 MSTORE PUSH1 0x20 ADD PUSH1 0x3B PUSH1 0xFF AND DUP2 MSTORE PUSH1 0x20 ADD PUSH1 0x4D PUSH1 0xFF AND DUP2 MSTORE PUSH1 0x20 ADD PUSH1 0xAE PUSH1 0xFF AND DUP2 MSTORE PUSH1 0x20 ADD PUSH1 0x2A PUSH1 0xFF AND DUP2 MSTORE PUSH1 0x20 ADD PUSH1 0xF5 PUSH1 0xFF AND DUP2 MSTORE PUSH1 0x20 ADD PUSH1 0xB0 PUSH1 0xFF AND DUP2 MSTORE PUSH1 0x20 ADD PUSH1 0xC8 PUSH1 0xFF AND DUP2 MSTORE PUSH1 0x20 ADD PUSH1 0xEB PUSH1 0xFF AND DUP2 MSTORE PUSH1 0x20 ADD PUSH1 0xBB PUSH1 0xFF AND DUP2 MSTORE PUSH1 0x20 ADD PUSH1 0x3C PUSH1 0xFF AND DUP2 MSTORE PUSH1 0x20 ADD PUSH1 0x83 PUSH1 0xFF AND DUP2 MSTORE PUSH1 0x20 ADD PUSH1 0x53 PUSH1 0xFF AND DUP2 MSTORE PUSH1 0x20 ADD PUSH1 0x99 PUSH1 0xFF AND DUP2 MSTORE PUSH1 0x20 ADD PUSH1 0x61 PUSH1 0xFF AND DUP2 MSTORE PUSH1 0x20 ADD PUSH1 0x17 PUSH1 0xFF AND DUP2 MSTORE PUSH1 0x20 ADD PUSH1 0x2B PUSH1 0xFF AND DUP2 MSTORE PUSH1 0x20 ADD PUSH1 0x4 PUSH1 0xFF AND DUP2 MSTORE PUSH1 0x20 ADD PUSH1 0x7E PUSH1 0xFF AND DUP2 MSTORE PUSH1 0x20 ADD PUSH1 0xBA PUSH1 0xFF AND DUP2 MSTORE PUSH1 0x20 ADD PUSH1 0x77 PUSH1 0xFF AND DUP2 MSTORE PUSH1 0x20 ADD PUSH1 0xD6 PUSH1 0xFF AND DUP2 MSTORE PUSH1 0x20 ADD PUSH1 0x26 PUSH1 0xFF AND DUP2 MSTORE PUSH1 0x20 ADD PUSH1 0xE1 PUSH1 0xFF AND DUP2 MSTORE PUSH1 0x20 ADD PUSH1 0x69 PUSH1 0xFF AND DUP2 MSTORE PUSH1 0x20 ADD PUSH1 0x14 PUSH1 0xFF AND DUP2 MSTORE PUSH1 0x20 ADD PUSH1 0x63 PUSH1 0xFF AND DUP2 MSTORE PUSH1 0x20 ADD PUSH1 0x55 PUSH1 0xFF AND DUP2 MSTORE PUSH1 0x20 ADD PUSH1 0x21 PUSH1 0xFF AND DUP2 MSTORE PUSH1 0x20 ADD PUSH1 0xC PUSH1 0xFF AND DUP2 MSTORE PUSH1 0x20 ADD PUSH1 0x7D PUSH1 0xFF AND DUP2 MSTORE POP PUSH1 0x9 SWAP1 PUSH2 0x100 PUSH2 0x14BF SWAP3 SWAP2 SWAP1 PUSH2 0x299D JUMP JUMPDEST POP PUSH1 0x40 MLOAD DUP1 PUSH2 0x2000 ADD PUSH1 0x40 MSTORE DUP1 PUSH0 PUSH1 0xFF AND DUP2 MSTORE PUSH1 0x20 ADD PUSH0 PUSH1 0xFF AND DUP2 MSTORE PUSH1 0x20 ADD PUSH1 0xC8 PUSH1 0xFF AND DUP2 MSTORE PUSH1 0x20 ADD PUSH1 0x8 PUSH1 0xFF AND DUP2 MSTORE PUSH1 0x20 ADD PUSH1 0x91 PUSH1 0xFF AND DUP2 MSTORE PUSH1 0x20 ADD PUSH1 0x10 PUSH1 0xFF AND DUP2 MSTORE PUSH1 0x20 ADD PUSH1 0xD0 PUSH1 0xFF AND DUP2 MSTORE PUSH1 0x20 ADD PUSH1 0x36 PUSH1 0xFF AND DUP2 MSTORE PUSH1 0x20 ADD PUSH1 0x5A PUSH1 0xFF AND DUP2 MSTORE PUSH1 0x20 ADD PUSH1 0x3E PUSH1 0xFF AND DUP2 MSTORE PUSH1 0x20 ADD PUSH1 0xD8 PUSH1 0xFF AND DUP2 MSTORE PUSH1 0x20 ADD PUSH1 0x43 PUSH1 0xFF AND DUP2 MSTORE PUSH1 0x20 ADD PUSH1 0x99 PUSH1 0xFF AND DUP2 MSTORE PUSH1 0x20 ADD PUSH1 0x77 PUSH1 0xFF AND DUP2 MSTORE PUSH1 0x20 ADD PUSH1 0xFE PUSH1 0xFF AND DUP2 MSTORE PUSH1 0x20 ADD PUSH1 0x18 PUSH1 0xFF AND DUP2 MSTORE PUSH1 0x20 ADD PUSH1 0x23 PUSH1 0xFF AND DUP2 MSTORE PUSH1 0x20 ADD PUSH1 0x20 PUSH1 0xFF AND DUP2 MSTORE PUSH1 0x20 ADD PUSH1 0x7 PUSH1 0xFF AND DUP2 MSTORE PUSH1 0x20 ADD PUSH1 0x70 PUSH1 0xFF AND DUP2 MSTORE PUSH1 0x20 ADD PUSH1 0xA1 PUSH1 0xFF AND DUP2 MSTORE PUSH1 0x20 ADD PUSH1 0x6C PUSH1 0xFF AND DUP2 MSTORE PUSH1 0x20 ADD PUSH1 0xC PUSH1 0xFF AND DUP2 MSTORE PUSH1 0x20 ADD PUSH1 0x7F PUSH1 0xFF AND DUP2 MSTORE PUSH1 0x20 ADD PUSH1 0x62 PUSH1 0xFF AND DUP2 MSTORE PUSH1 0x20 ADD PUSH1 0x8B PUSH1 0xFF AND DUP2 MSTORE PUSH1 0x20 ADD PUSH1 0x40 PUSH1 0xFF AND DUP2 MSTORE PUSH1 0x20 ADD PUSH1 0x46 PUSH1 0xFF AND DUP2 MSTORE PUSH1 0x20 ADD PUSH1 0xC7 PUSH1 0xFF AND DUP2 MSTORE PUSH1 0x20 ADD PUSH1 0x4B PUSH1 0xFF AND DUP2 MSTORE PUSH1 0x20 ADD PUSH1 0xE0 PUSH1 0xFF AND DUP2 MSTORE PUSH1 0x20 ADD PUSH1 0xE PUSH1 0xFF AND DUP2 MSTORE PUSH1 0x20 ADD PUSH1 0xEB PUSH1 0xFF AND DUP2 MSTORE PUSH1 0x20 ADD PUSH1 0x16 PUSH1 0xFF AND DUP2 MSTORE PUSH1 0x20 ADD PUSH1 0xE8 PUSH1 0xFF AND DUP2 MSTORE PUSH1 0x20 ADD PUSH1 0xAD PUSH1 0xFF AND DUP2 MSTORE PUSH1 0x20 ADD PUSH1 0xCF PUSH1 0xFF AND DUP2 MSTORE PUSH1 0x20 ADD PUSH1 0xCD PUSH1 0xFF AND DUP2 MSTORE PUSH1 0x20 ADD PUSH1 0x39 PUSH1 0xFF AND DUP2 MSTORE PUSH1 0x20 ADD PUSH1 0x53 PUSH1 0xFF AND DUP2 MSTORE PUSH1 0x20 ADD PUSH1 0x6A PUSH1 0xFF AND DUP2 MSTORE PUSH1 0x20 ADD PUSH1 0x27 PUSH1 0xFF AND DUP2 MSTORE PUSH1 0x20 ADD PUSH1 0x35 PUSH1 0xFF AND DUP2 MSTORE PUSH1 0x20 ADD PUSH1 0x93 PUSH1 0xFF AND DUP2 MSTORE PUSH1 0x20 ADD PUSH1 0xD4 PUSH1 0xFF AND DUP2 MSTORE PUSH1 0x20 ADD PUSH1 0x4E PUSH1 0xFF AND DUP2 MSTORE PUSH1 0x20 ADD PUSH1 0x48 PUSH1 0xFF AND DUP2 MSTORE PUSH1 0x20 ADD PUSH1 0xC3 PUSH1 0xFF AND DUP2 MSTORE PUSH1 0x20 ADD PUSH1 0x2B PUSH1 0xFF AND DUP2 MSTORE PUSH1 0x20 ADD PUSH1 0x79 PUSH1 0xFF AND DUP2 MSTORE PUSH1 0x20 ADD PUSH1 0x54 PUSH1 0xFF AND DUP2 MSTORE PUSH1 0x20 ADD PUSH1 0x28 PUSH1 0xFF AND DUP2 MSTORE PUSH1 0x20 ADD PUSH1 0x9 PUSH1 0xFF AND DUP2 MSTORE PUSH1 0x20 ADD PUSH1 0x78 PUSH1 0xFF AND DUP2 MSTORE PUSH1 0x20 ADD PUSH1 0xF PUSH1 0xFF AND DUP2 MSTORE PUSH1 0x20 ADD PUSH1 0x21 PUSH1 0xFF AND DUP2 MSTORE PUSH1 0x20 ADD PUSH1 0x90 PUSH1 0xFF AND DUP2 MSTORE PUSH1 0x20 ADD PUSH1 0x87 PUSH1 0xFF AND DUP2 MSTORE PUSH1 0x20 ADD PUSH1 0x14 PUSH1 0xFF AND DUP2 MSTORE PUSH1 0x20 ADD PUSH1 0x2A PUSH1 0xFF AND DUP2 MSTORE PUSH1 0x20 ADD PUSH1 0xA9 PUSH1 0xFF AND DUP2 MSTORE PUSH1 0x20 ADD PUSH1 0x9C PUSH1 0xFF AND DUP2 MSTORE PUSH1 0x20 ADD PUSH1 0xD6 PUSH1 0xFF AND DUP2 MSTORE PUSH1 0x20 ADD PUSH1 0x74 PUSH1 0xFF AND DUP2 MSTORE PUSH1 0x20 ADD PUSH1 0xB4 PUSH1 0xFF AND DUP2 MSTORE PUSH1 0x20 ADD PUSH1 0x7C PUSH1 0xFF AND DUP2 MSTORE PUSH1 0x20 ADD PUSH1 0xDE PUSH1 0xFF AND DUP2 MSTORE PUSH1 0x20 ADD PUSH1 0xED PUSH1 0xFF AND DUP2 MSTORE PUSH1 0x20 ADD PUSH1 0xB1 PUSH1 0xFF AND DUP2 MSTORE PUSH1 0x20 ADD PUSH1 0x86 PUSH1 0xFF AND DUP2 MSTORE PUSH1 0x20 ADD PUSH1 0x76 PUSH1 0xFF AND DUP2 MSTORE PUSH1 0x20 ADD PUSH1 0xA4 PUSH1 0xFF AND DUP2 MSTORE PUSH1 0x20 ADD PUSH1 0x98 PUSH1 0xFF AND DUP2 MSTORE PUSH1 0x20 ADD PUSH1 0xE2 PUSH1 0xFF AND DUP2 MSTORE PUSH1 0x20 ADD PUSH1 0x96 PUSH1 0xFF AND DUP2 MSTORE PUSH1 0x20 ADD PUSH1 0x8F PUSH1 0xFF AND DUP2 MSTORE PUSH1 0x20 ADD PUSH1 0x2 PUSH1 0xFF AND DUP2 MSTORE PUSH1 0x20 ADD PUSH1 0x32 PUSH1 0xFF AND DUP2 MSTORE PUSH1 0x20 ADD PUSH1 0x1C PUSH1 0xFF AND DUP2 MSTORE PUSH1 0x20 ADD PUSH1 0xC1 PUSH1 0xFF AND DUP2 MSTORE PUSH1 0x20 ADD PUSH1 0x33 PUSH1 0xFF AND DUP2 MSTORE PUSH1 0x20 ADD PUSH1 0xEE PUSH1 0xFF AND DUP2 MSTORE PUSH1 0x20 ADD PUSH1 0xEF PUSH1 0xFF AND DUP2 MSTORE PUSH1 0x20 ADD PUSH1 0x81 PUSH1 0xFF AND DUP2 MSTORE PUSH1 0x20 ADD PUSH1 0xFD PUSH1 0xFF AND DUP2 MSTORE PUSH1 0x20 ADD PUSH1 0x30 PUSH1 0xFF AND DUP2 MSTORE PUSH1 0x20 ADD PUSH1 0x5C PUSH1 0xFF AND DUP2 MSTORE PUSH1 0x20 ADD PUSH1 0x13 PUSH1 0xFF AND DUP2 MSTORE PUSH1 0x20 ADD PUSH1 0x9D PUSH1 0xFF AND DUP2 MSTORE PUSH1 0x20 ADD PUSH1 0x29 PUSH1 0xFF AND DUP2 MSTORE PUSH1 0x20 ADD PUSH1 0x17 PUSH1 0xFF AND DUP2 MSTORE PUSH1 0x20 ADD PUSH1 0xC4 PUSH1 0xFF AND DUP2 MSTORE PUSH1 0x20 ADD PUSH1 0x11 PUSH1 0xFF AND DUP2 MSTORE PUSH1 0x20 ADD PUSH1 0x44 PUSH1 0xFF AND DUP2 MSTORE PUSH1 0x20 ADD PUSH1 0x8C PUSH1 0xFF AND DUP2 MSTORE PUSH1 0x20 ADD PUSH1 0x80 PUSH1 0xFF AND DUP2 MSTORE PUSH1 0x20 ADD PUSH1 0xF3 PUSH1 0xFF AND DUP2 MSTORE PUSH1 0x20 ADD PUSH1 0x73 PUSH1 0xFF AND DUP2 MSTORE PUSH1 0x20 ADD PUSH1 0x42 PUSH1 0xFF AND DUP2 MSTORE PUSH1 0x20 ADD PUSH1 0x1E PUSH1 0xFF AND DUP2 MSTORE PUSH1 0x20 ADD PUSH1 0x1D PUSH1 0xFF AND DUP2 MSTORE PUSH1 0x20 ADD PUSH1 0xB5 PUSH1 0xFF AND DUP2 MSTORE PUSH1 0x20 ADD PUSH1 0xF0 PUSH1 0xFF AND DUP2 MSTORE PUSH1 0x20 ADD PUSH1 0x12 PUSH1 0xFF AND DUP2 MSTORE PUSH1 0x20 ADD PUSH1 0xD1 PUSH1 0xFF AND DUP2 MSTORE PUSH1 0x20 ADD PUSH1 0x5B PUSH1 0xFF AND DUP2 MSTORE PUSH1 0x20 ADD PUSH1 0x41 PUSH1 0xFF AND DUP2 MSTORE PUSH1 0x20 ADD PUSH1 0xA2 PUSH1 0xFF AND DUP2 MSTORE PUSH1 0x20 ADD PUSH1 0xD7 PUSH1 0xFF AND DUP2 MSTORE PUSH1 0x20 ADD PUSH1 0x2C PUSH1 0xFF AND DUP2 MSTORE PUSH1 0x20 ADD PUSH1 0xE9 PUSH1 0xFF AND DUP2 MSTORE PUSH1 0x20 ADD PUSH1 0xD5 PUSH1 0xFF AND DUP2 MSTORE PUSH1 0x20 ADD PUSH1 0x59 PUSH1 0xFF AND DUP2 MSTORE PUSH1 0x20 ADD PUSH1 0xCB PUSH1 0xFF AND DUP2 MSTORE PUSH1 0x20 ADD PUSH1 0x50 PUSH1 0xFF AND DUP2 MSTORE PUSH1 0x20 ADD PUSH1 0xA8 PUSH1 0xFF AND DUP2 MSTORE PUSH1 0x20 ADD PUSH1 0xDC PUSH1 0xFF AND DUP2 MSTORE PUSH1 0x20 ADD PUSH1 0xFC PUSH1 0xFF AND DUP2 MSTORE PUSH1 0x20 ADD PUSH1 0xF2 PUSH1 0xFF AND DUP2 MSTORE PUSH1 0x20 ADD PUSH1 0x56 PUSH1 0xFF AND DUP2 MSTORE PUSH1 0x20 ADD PUSH1 0x72 PUSH1 0xFF AND DUP2 MSTORE PUSH1 0x20 ADD PUSH1 0xA6 PUSH1 0xFF AND DUP2 MSTORE PUSH1 0x20 ADD PUSH1 0x65 PUSH1 0xFF AND DUP2 MSTORE PUSH1 0x20 ADD PUSH1 0x2F PUSH1 0xFF AND DUP2 MSTORE PUSH1 0x20 ADD PUSH1 0x9F PUSH1 0xFF AND DUP2 MSTORE PUSH1 0x20 ADD PUSH1 0x9B PUSH1 0xFF AND DUP2 MSTORE PUSH1 0x20 ADD PUSH1 0x3D PUSH1 0xFF AND DUP2 MSTORE PUSH1 0x20 ADD PUSH1 0xBA PUSH1 0xFF AND DUP2 MSTORE PUSH1 0x20 ADD PUSH1 0x7D PUSH1 0xFF AND DUP2 MSTORE PUSH1 0x20 ADD PUSH1 0xC2 PUSH1 0xFF AND DUP2 MSTORE PUSH1 0x20 ADD PUSH1 0x45 PUSH1 0xFF AND DUP2 MSTORE PUSH1 0x20 ADD PUSH1 0x82 PUSH1 0xFF AND DUP2 MSTORE PUSH1 0x20 ADD PUSH1 0xA7 PUSH1 0xFF AND DUP2 MSTORE PUSH1 0x20 ADD PUSH1 0x57 PUSH1 0xFF AND DUP2 MSTORE PUSH1 0x20 ADD PUSH1 0xB6 PUSH1 0xFF AND DUP2 MSTORE PUSH1 0x20 ADD PUSH1 0xA3 PUSH1 0xFF AND DUP2 MSTORE PUSH1 0x20 ADD PUSH1 0x7A PUSH1 0xFF AND DUP2 MSTORE PUSH1 0x20 ADD PUSH1 0x75 PUSH1 0xFF AND DUP2 MSTORE PUSH1 0x20 ADD PUSH1 0x4F PUSH1 0xFF AND DUP2 MSTORE PUSH1 0x20 ADD PUSH1 0xAE PUSH1 0xFF AND DUP2 MSTORE PUSH1 0x20 ADD PUSH1 0x3F PUSH1 0xFF AND DUP2 MSTORE PUSH1 0x20 ADD PUSH1 0x37 PUSH1 0xFF AND DUP2 MSTORE PUSH1 0x20 ADD PUSH1 0x6D PUSH1 0xFF AND DUP2 MSTORE PUSH1 0x20 ADD PUSH1 0x47 PUSH1 0xFF AND DUP2 MSTORE PUSH1 0x20 ADD PUSH1 0x61 PUSH1 0xFF AND DUP2 MSTORE PUSH1 0x20 ADD PUSH1 0xBE PUSH1 0xFF AND DUP2 MSTORE PUSH1 0x20 ADD PUSH1 0xAB PUSH1 0xFF AND DUP2 MSTORE PUSH1 0x20 ADD PUSH1 0xD3 PUSH1 0xFF AND DUP2 MSTORE PUSH1 0x20 ADD PUSH1 0x5F PUSH1 0xFF AND DUP2 MSTORE PUSH1 0x20 ADD PUSH1 0xB0 PUSH1 0xFF AND DUP2 MSTORE PUSH1 0x20 ADD PUSH1 0x58 PUSH1 0xFF AND DUP2 MSTORE PUSH1 0x20 ADD PUSH1 0xAF PUSH1 0xFF AND DUP2 MSTORE PUSH1 0x20 ADD PUSH1 0xCA PUSH1 0xFF AND DUP2 MSTORE PUSH1 0x20 ADD PUSH1 0x5E PUSH1 0xFF AND DUP2 MSTORE PUSH1 0x20 ADD PUSH1 0xFA PUSH1 0xFF AND DUP2 MSTORE PUSH1 0x20 ADD PUSH1 0x85 PUSH1 0xFF AND DUP2 MSTORE PUSH1 0x20 ADD PUSH1 0xE4 PUSH1 0xFF AND DUP2 MSTORE PUSH1 0x20 ADD PUSH1 0x4D PUSH1 0xFF AND DUP2 MSTORE PUSH1 0x20 ADD PUSH1 0x8A PUSH1 0xFF AND DUP2 MSTORE PUSH1 0x20 ADD PUSH1 0x5 PUSH1 0xFF AND DUP2 MSTORE PUSH1 0x20 ADD PUSH1 0xFB PUSH1 0xFF AND DUP2 MSTORE PUSH1 0x20 ADD PUSH1 0x60 PUSH1 0xFF AND DUP2 MSTORE PUSH1 0x20 ADD PUSH1 0xB7 PUSH1 0xFF AND DUP2 MSTORE PUSH1 0x20 ADD PUSH1 0x7B PUSH1 0xFF AND DUP2 MSTORE PUSH1 0x20 ADD PUSH1 0xB8 PUSH1 0xFF AND DUP2 MSTORE PUSH1 0x20 ADD PUSH1 0x26 PUSH1 0xFF AND DUP2 MSTORE PUSH1 0x20 ADD PUSH1 0x4A PUSH1 0xFF AND DUP2 MSTORE PUSH1 0x20 ADD PUSH1 0x67 PUSH1 0xFF AND DUP2 MSTORE PUSH1 0x20 ADD PUSH1 0xC6 PUSH1 0xFF AND DUP2 MSTORE PUSH1 0x20 ADD PUSH1 0x1A PUSH1 0xFF AND DUP2 MSTORE PUSH1 0x20 ADD PUSH1 0xF8 PUSH1 0xFF AND DUP2 MSTORE PUSH1 0x20 ADD PUSH1 0x69 PUSH1 0xFF AND DUP2 MSTORE PUSH1 0x20 ADD PUSH1 0x25 PUSH1 0xFF AND DUP2 MSTORE PUSH1 0x20 ADD PUSH1 0xB3 PUSH1 0xFF AND DUP2 MSTORE PUSH1 0x20 ADD PUSH1 0xDB PUSH1 0xFF AND DUP2 MSTORE PUSH1 0x20 ADD PUSH1 0xBD PUSH1 0xFF AND DUP2 MSTORE PUSH1 0x20 ADD PUSH1 0x66 PUSH1 0xFF AND DUP2 MSTORE PUSH1 0x20 ADD PUSH1 0xDD PUSH1 0xFF AND DUP2 MSTORE PUSH1 0x20 ADD PUSH1 0xF1 PUSH1 0xFF AND DUP2 MSTORE PUSH1 0x20 ADD PUSH1 0xD2 PUSH1 0xFF AND DUP2 MSTORE PUSH1 0x20 ADD PUSH1 0xDF PUSH1 0xFF AND DUP2 MSTORE PUSH1 0x20 ADD PUSH1 0x3 PUSH1 0xFF AND DUP2 MSTORE PUSH1 0x20 ADD PUSH1 0x8D PUSH1 0xFF AND DUP2 MSTORE PUSH1 0x20 ADD PUSH1 0x34 PUSH1 0xFF AND DUP2 MSTORE PUSH1 0x20 ADD PUSH1 0xD9 PUSH1 0xFF AND DUP2 MSTORE PUSH1 0x20 ADD PUSH1 0x92 PUSH1 0xFF AND DUP2 MSTORE PUSH1 0x20 ADD PUSH1 0xD PUSH1 0xFF AND DUP2 MSTORE PUSH1 0x20 ADD PUSH1 0x63 PUSH1 0xFF AND DUP2 MSTORE PUSH1 0x20 ADD PUSH1 0x55 PUSH1 0xFF AND DUP2 MSTORE PUSH1 0x20 ADD PUSH1 0xAA PUSH1 0xFF AND DUP2 MSTORE PUSH1 0x20 ADD PUSH1 0x49 PUSH1 0xFF AND DUP2 MSTORE PUSH1 0x20 ADD PUSH1 0xEC PUSH1 0xFF AND DUP2 MSTORE PUSH1 0x20 ADD PUSH1 0xBC PUSH1 0xFF AND DUP2 MSTORE PUSH1 0x20 ADD PUSH1 0x95 PUSH1 0xFF AND DUP2 MSTORE PUSH1 0x20 ADD PUSH1 0x3C PUSH1 0xFF AND DUP2 MSTORE PUSH1 0x20 ADD PUSH1 0x84 PUSH1 0xFF AND DUP2 MSTORE PUSH1 0x20 ADD PUSH1 0xB PUSH1 0xFF AND DUP2 MSTORE PUSH1 0x20 ADD PUSH1 0xF5 PUSH1 0xFF AND DUP2 MSTORE PUSH1 0x20 ADD PUSH1 0xE6 PUSH1 0xFF AND DUP2 MSTORE PUSH1 0x20 ADD PUSH1 0xE7 PUSH1 0xFF AND DUP2 MSTORE PUSH1 0x20 ADD PUSH1 0xE5 PUSH1 0xFF AND DUP2 MSTORE PUSH1 0x20 ADD PUSH1 0xAC PUSH1 0xFF AND DUP2 MSTORE PUSH1 0x20 ADD PUSH1 0x7E PUSH1 0xFF AND DUP2 MSTORE PUSH1 0x20 ADD PUSH1 0x6E PUSH1 0xFF AND DUP2 MSTORE PUSH1 0x20 ADD PUSH1 0xB9 PUSH1 0xFF AND DUP2 MSTORE PUSH1 0x20 ADD PUSH1 0xF9 PUSH1 0xFF AND DUP2 MSTORE PUSH1 0x20 ADD PUSH1 0xDA PUSH1 0xFF AND DUP2 MSTORE PUSH1 0x20 ADD PUSH1 0x8E PUSH1 0xFF AND DUP2 MSTORE PUSH1 0x20 ADD PUSH1 0x9A PUSH1 0xFF AND DUP2 MSTORE PUSH1 0x20 ADD PUSH1 0xC9 PUSH1 0xFF AND DUP2 MSTORE PUSH1 0x20 ADD PUSH1 0x24 PUSH1 0xFF AND DUP2 MSTORE PUSH1 0x20 ADD PUSH1 0xE1 PUSH1 0xFF AND DUP2 MSTORE PUSH1 0x20 ADD PUSH1 0xA PUSH1 0xFF AND DUP2 MSTORE PUSH1 0x20 ADD PUSH1 0x15 PUSH1 0xFF AND DUP2 MSTORE PUSH1 0x20 ADD PUSH1 0x6B PUSH1 0xFF AND DUP2 MSTORE PUSH1 0x20 ADD PUSH1 0x3A PUSH1 0xFF AND DUP2 MSTORE PUSH1 0x20 ADD PUSH1 0xA0 PUSH1 0xFF AND DUP2 MSTORE PUSH1 0x20 ADD PUSH1 0x51 PUSH1 0xFF AND DUP2 MSTORE PUSH1 0x20 ADD PUSH1 0xF4 PUSH1 0xFF AND DUP2 MSTORE PUSH1 0x20 ADD PUSH1 0xEA PUSH1 0xFF AND DUP2 MSTORE PUSH1 0x20 ADD PUSH1 0xB2 PUSH1 0xFF AND DUP2 MSTORE PUSH1 0x20 ADD PUSH1 0x97 PUSH1 0xFF AND DUP2 MSTORE PUSH1 0x20 ADD PUSH1 0x9E PUSH1 0xFF AND DUP2 MSTORE PUSH1 0x20 ADD PUSH1 0x5D PUSH1 0xFF AND DUP2 MSTORE PUSH1 0x20 ADD PUSH1 0x22 PUSH1 0xFF AND DUP2 MSTORE PUSH1 0x20 ADD PUSH1 0x88 PUSH1 0xFF AND DUP2 MSTORE PUSH1 0x20 ADD PUSH1 0x94 PUSH1 0xFF AND DUP2 MSTORE PUSH1 0x20 ADD PUSH1 0xCE PUSH1 0xFF AND DUP2 MSTORE PUSH1 0x20 ADD PUSH1 0x19 PUSH1 0xFF AND DUP2 MSTORE PUSH1 0x20 ADD PUSH1 0x1 PUSH1 0xFF AND DUP2 MSTORE PUSH1 0x20 ADD PUSH1 0x71 PUSH1 0xFF AND DUP2 MSTORE PUSH1 0x20 ADD PUSH1 0x4C PUSH1 0xFF AND DUP2 MSTORE PUSH1 0x20 ADD PUSH1 0xA5 PUSH1 0xFF AND DUP2 MSTORE PUSH1 0x20 ADD PUSH1 0xE3 PUSH1 0xFF AND DUP2 MSTORE PUSH1 0x20 ADD PUSH1 0xC5 PUSH1 0xFF AND DUP2 MSTORE PUSH1 0x20 ADD PUSH1 0x31 PUSH1 0xFF AND DUP2 MSTORE PUSH1 0x20 ADD PUSH1 0xBB PUSH1 0xFF AND DUP2 MSTORE PUSH1 0x20 ADD PUSH1 0xCC PUSH1 0xFF AND DUP2 MSTORE PUSH1 0x20 ADD PUSH1 0x1F PUSH1 0xFF AND DUP2 MSTORE PUSH1 0x20 ADD PUSH1 0x2D PUSH1 0xFF AND DUP2 MSTORE PUSH1 0x20 ADD PUSH1 0x3B PUSH1 0xFF AND DUP2 MSTORE PUSH1 0x20 ADD PUSH1 0x52 PUSH1 0xFF AND DUP2 MSTORE PUSH1 0x20 ADD PUSH1 0x6F PUSH1 0xFF AND DUP2 MSTORE PUSH1 0x20 ADD PUSH1 0xF6 PUSH1 0xFF AND DUP2 MSTORE PUSH1 0x20 ADD PUSH1 0x2E PUSH1 0xFF AND DUP2 MSTORE PUSH1 0x20 ADD PUSH1 0x89 PUSH1 0xFF AND DUP2 MSTORE PUSH1 0x20 ADD PUSH1 0xF7 PUSH1 0xFF AND DUP2 MSTORE PUSH1 0x20 ADD PUSH1 0xC0 PUSH1 0xFF AND DUP2 MSTORE PUSH1 0x20 ADD PUSH1 0x68 PUSH1 0xFF AND DUP2 MSTORE PUSH1 0x20 ADD PUSH1 0x1B PUSH1 0xFF AND DUP2 MSTORE PUSH1 0x20 ADD PUSH1 0x64 PUSH1 0xFF AND DUP2 MSTORE PUSH1 0x20 ADD PUSH1 0x4 PUSH1 0xFF AND DUP2 MSTORE PUSH1 0x20 ADD PUSH1 0x6 PUSH1 0xFF AND DUP2 MSTORE PUSH1 0x20 ADD PUSH1 0xBF PUSH1 0xFF AND DUP2 MSTORE PUSH1 0x20 ADD PUSH1 0x83 PUSH1 0xFF AND DUP2 MSTORE PUSH1 0x20 ADD PUSH1 0x38 PUSH1 0xFF AND DUP2 MSTORE POP PUSH1 0x11 SWAP1 PUSH2 0x100 PUSH2 0x1ED9 SWAP3 SWAP2 SWAP1 PUSH2 0x299D JUMP JUMPDEST POP PUSH1 0x40 MLOAD DUP1 PUSH2 0x2000 ADD PUSH1 0x40 MSTORE DUP1 PUSH1 0x1 PUSH1 0xFF AND DUP2 MSTORE PUSH1 0x20 ADD PUSH1 0xE5 PUSH1 0xFF AND DUP2 MSTORE PUSH1 0x20 ADD PUSH1 0x4C PUSH1 0xFF AND DUP2 MSTORE PUSH1 0x20 ADD PUSH1 0xB5 PUSH1 0xFF AND DUP2 MSTORE PUSH1 0x20 ADD PUSH1 0xFB PUSH1 0xFF AND DUP2 MSTORE PUSH1 0x20 ADD PUSH1 0x9F PUSH1 0xFF AND DUP2 MSTORE PUSH1 0x20 ADD PUSH1 0xFC PUSH1 0xFF AND DUP2 MSTORE PUSH1 0x20 ADD PUSH1 0x12 PUSH1 0xFF AND DUP2 MSTORE PUSH1 0x20 ADD PUSH1 0x3 PUSH1 0xFF AND DUP2 MSTORE PUSH1 0x20 ADD PUSH1 0x34 PUSH1 0xFF AND DUP2 MSTORE PUSH1 0x20 ADD PUSH1 0xD4 PUSH1 0xFF AND DUP2 MSTORE PUSH1 0x20 ADD PUSH1 0xC4 PUSH1 0xFF AND DUP2 MSTORE PUSH1 0x20 ADD PUSH1 0x16 PUSH1 0xFF AND DUP2 MSTORE PUSH1 0x20 ADD PUSH1 0xBA PUSH1 0xFF AND DUP2 MSTORE PUSH1 0x20 ADD PUSH1 0x1F PUSH1 0xFF AND DUP2 MSTORE PUSH1 0x20 ADD PUSH1 0x36 PUSH1 0xFF AND DUP2 MSTORE PUSH1 0x20 ADD PUSH1 0x5 PUSH1 0xFF AND DUP2 MSTORE PUSH1 0x20 ADD PUSH1 0x5C PUSH1 0xFF AND DUP2 MSTORE PUSH1 0x20 ADD PUSH1 0x67 PUSH1 0xFF AND DUP2 MSTORE PUSH1 0x20 ADD PUSH1 0x57 PUSH1 0xFF AND DUP2 MSTORE PUSH1 0x20 ADD PUSH1 0x3A PUSH1 0xFF AND DUP2 MSTORE PUSH1 0x20 ADD PUSH1 0xD5 PUSH1 0xFF AND DUP2 MSTORE PUSH1 0x20 ADD PUSH1 0x21 PUSH1 0xFF AND DUP2 MSTORE PUSH1 0x20 ADD PUSH1 0x5A PUSH1 0xFF AND DUP2 MSTORE PUSH1 0x20 ADD PUSH1 0xF PUSH1 0xFF AND DUP2 MSTORE PUSH1 0x20 ADD PUSH1 0xE4 PUSH1 0xFF AND DUP2 MSTORE PUSH1 0x20 ADD PUSH1 0xA9 PUSH1 0xFF AND DUP2 MSTORE PUSH1 0x20 ADD PUSH1 0xF9 PUSH1 0xFF AND DUP2 MSTORE PUSH1 0x20 ADD PUSH1 0x4E PUSH1 0xFF AND DUP2 MSTORE PUSH1 0x20 ADD PUSH1 0x64 PUSH1 0xFF AND DUP2 MSTORE PUSH1 0x20 ADD PUSH1 0x63 PUSH1 0xFF AND DUP2 MSTORE PUSH1 0x20 ADD PUSH1 0xEE PUSH1 0xFF AND DUP2 MSTORE PUSH1 0x20 ADD PUSH1 0x11 PUSH1 0xFF AND DUP2 MSTORE PUSH1 0x20 ADD PUSH1 0x37 PUSH1 0xFF AND DUP2 MSTORE PUSH1 0x20 ADD PUSH1 0xE0 PUSH1 0xFF AND DUP2 MSTORE PUSH1 0x20 ADD PUSH1 0x10 PUSH1 0xFF AND DUP2 MSTORE PUSH1 0x20 ADD PUSH1 0xD2 PUSH1 0xFF AND DUP2 MSTORE PUSH1 0x20 ADD PUSH1 0xAC PUSH1 0xFF AND DUP2 MSTORE PUSH1 0x20 ADD PUSH1 0xA5 PUSH1 0xFF AND DUP2 MSTORE PUSH1 0x20 ADD PUSH1 0x29 PUSH1 0xFF AND DUP2 MSTORE PUSH1 0x20 ADD PUSH1 0x33 PUSH1 0xFF AND DUP2 MSTORE PUSH1 0x20 ADD PUSH1 0x59 PUSH1 0xFF AND DUP2 MSTORE PUSH1 0x20 ADD PUSH1 0x3B PUSH1 0xFF AND DUP2 MSTORE PUSH1 0x20 ADD PUSH1 0x30 PUSH1 0xFF AND DUP2 MSTORE PUSH1 0x20 ADD PUSH1 0x6D PUSH1 0xFF AND DUP2 MSTORE PUSH1 0x20 ADD PUSH1 0xEF PUSH1 0xFF AND DUP2 MSTORE PUSH1 0x20 ADD PUSH1 0xF4 PUSH1 0xFF AND DUP2 MSTORE PUSH1 0x20 ADD PUSH1 0x7B PUSH1 0xFF AND DUP2 MSTORE PUSH1 0x20 ADD PUSH1 0x55 PUSH1 0xFF AND DUP2 MSTORE PUSH1 0x20 ADD PUSH1 0xEB PUSH1 0xFF AND DUP2 MSTORE PUSH1 0x20 ADD PUSH1 0x4D PUSH1 0xFF AND DUP2 MSTORE PUSH1 0x20 ADD PUSH1 0x50 PUSH1 0xFF AND DUP2 MSTORE PUSH1 0x20 ADD PUSH1 0xB7 PUSH1 0xFF AND DUP2 MSTORE PUSH1 0x20 ADD PUSH1 0x2A PUSH1 0xFF AND DUP2 MSTORE PUSH1 0x20 ADD PUSH1 0x7 PUSH1 0xFF AND DUP2 MSTORE PUSH1 0x20 ADD PUSH1 0x8D PUSH1 0xFF AND DUP2 MSTORE PUSH1 0x20 ADD PUSH1 0xFF DUP1 AND DUP2 MSTORE PUSH1 0x20 ADD PUSH1 0x26 PUSH1 0xFF AND DUP2 MSTORE PUSH1 0x20 ADD PUSH1 0xD7 PUSH1 0xFF AND DUP2 MSTORE PUSH1 0x20 ADD PUSH1 0xF0 PUSH1 0xFF AND DUP2 MSTORE PUSH1 0x20 ADD PUSH1 0xC2 PUSH1 0xFF AND DUP2 MSTORE PUSH1 0x20 ADD PUSH1 0x7E PUSH1 0xFF AND DUP2 MSTORE PUSH1 0x20 ADD PUSH1 0x9 PUSH1 0xFF AND DUP2 MSTORE PUSH1 0x20 ADD PUSH1 0x8C PUSH1 0xFF AND DUP2 MSTORE PUSH1 0x20 ADD PUSH1 0x1A PUSH1 0xFF AND DUP2 MSTORE PUSH1 0x20 ADD PUSH1 0x6A PUSH1 0xFF AND DUP2 MSTORE PUSH1 0x20 ADD PUSH1 0x62 PUSH1 0xFF AND DUP2 MSTORE PUSH1 0x20 ADD PUSH1 0xB PUSH1 0xFF AND DUP2 MSTORE PUSH1 0x20 ADD PUSH1 0x5D PUSH1 0xFF AND DUP2 MSTORE PUSH1 0x20 ADD PUSH1 0x82 PUSH1 0xFF AND DUP2 MSTORE PUSH1 0x20 ADD PUSH1 0x1B PUSH1 0xFF AND DUP2 MSTORE PUSH1 0x20 ADD PUSH1 0x8F PUSH1 0xFF AND DUP2 MSTORE PUSH1 0x20 ADD PUSH1 0x2E PUSH1 0xFF AND DUP2 MSTORE PUSH1 0x20 ADD PUSH1 0xBE PUSH1 0xFF AND DUP2 MSTORE PUSH1 0x20 ADD PUSH1 0xA6 PUSH1 0xFF AND DUP2 MSTORE PUSH1 0x20 ADD PUSH1 0x1D PUSH1 0xFF AND DUP2 MSTORE PUSH1 0x20 ADD PUSH1 0xE7 PUSH1 0xFF AND DUP2 MSTORE PUSH1 0x20 ADD PUSH1 0x9D PUSH1 0xFF AND DUP2 MSTORE PUSH1 0x20 ADD PUSH1 0x2D PUSH1 0xFF AND DUP2 MSTORE PUSH1 0x20 ADD PUSH1 0x8A PUSH1 0xFF AND DUP2 MSTORE PUSH1 0x20 ADD PUSH1 0x72 PUSH1 0xFF AND DUP2 MSTORE PUSH1 0x20 ADD PUSH1 0xD9 PUSH1 0xFF AND DUP2 MSTORE PUSH1 0x20 ADD PUSH1 0xF1 PUSH1 0xFF AND DUP2 MSTORE PUSH1 0x20 ADD PUSH1 0x27 PUSH1 0xFF AND DUP2 MSTORE PUSH1 0x20 ADD PUSH1 0x32 PUSH1 0xFF AND DUP2 MSTORE PUSH1 0x20 ADD PUSH1 0xBC PUSH1 0xFF AND DUP2 MSTORE PUSH1 0x20 ADD PUSH1 0x77 PUSH1 0xFF AND DUP2 MSTORE PUSH1 0x20 ADD PUSH1 0x85 PUSH1 0xFF AND DUP2 MSTORE PUSH1 0x20 ADD PUSH1 0x96 PUSH1 0xFF AND DUP2 MSTORE PUSH1 0x20 ADD PUSH1 0x70 PUSH1 0xFF AND DUP2 MSTORE PUSH1 0x20 ADD PUSH1 0x8 PUSH1 0xFF AND DUP2 MSTORE PUSH1 0x20 ADD PUSH1 0x69 PUSH1 0xFF AND DUP2 MSTORE PUSH1 0x20 ADD PUSH1 0x56 PUSH1 0xFF AND DUP2 MSTORE PUSH1 0x20 ADD PUSH1 0xDF PUSH1 0xFF AND DUP2 MSTORE PUSH1 0x20 ADD PUSH1 0x99 PUSH1 0xFF AND DUP2 MSTORE PUSH1 0x20 ADD PUSH1 0x94 PUSH1 0xFF AND DUP2 MSTORE PUSH1 0x20 ADD PUSH1 0xA1 PUSH1 0xFF AND DUP2 MSTORE PUSH1 0x20 ADD PUSH1 0x90 PUSH1 0xFF AND DUP2 MSTORE PUSH1 0x20 ADD PUSH1 0x18 PUSH1 0xFF AND DUP2 MSTORE PUSH1 0x20 ADD PUSH1 0xBB PUSH1 0xFF AND DUP2 MSTORE PUSH1 0x20 ADD PUSH1 0xFA PUSH1 0xFF AND DUP2 MSTORE PUSH1 0x20 ADD PUSH1 0x7A PUSH1 0xFF AND DUP2 MSTORE PUSH1 0x20 ADD PUSH1 0xB0 PUSH1 0xFF AND DUP2 MSTORE PUSH1 0x20 ADD PUSH1 0xA7 PUSH1 0xFF AND DUP2 MSTORE PUSH1 0x20 ADD PUSH1 0xF8 PUSH1 0xFF AND DUP2 MSTORE PUSH1 0x20 ADD PUSH1 0xAB PUSH1 0xFF AND DUP2 MSTORE PUSH1 0x20 ADD PUSH1 0x28 PUSH1 0xFF AND DUP2 MSTORE PUSH1 0x20 ADD PUSH1 0xD6 PUSH1 0xFF AND DUP2 MSTORE PUSH1 0x20 ADD PUSH1 0x15 PUSH1 0xFF AND DUP2 MSTORE PUSH1 0x20 ADD PUSH1 0x8E PUSH1 0xFF AND DUP2 MSTORE PUSH1 0x20 ADD PUSH1 0xCB PUSH1 0xFF AND DUP2 MSTORE PUSH1 0x20 ADD PUSH1 0xF2 PUSH1 0xFF AND DUP2 MSTORE PUSH1 0x20 ADD PUSH1 0x13 PUSH1 0xFF AND DUP2 MSTORE PUSH1 0x20 ADD PUSH1 0xE6 PUSH1 0xFF AND DUP2 MSTORE PUSH1 0x20 ADD PUSH1 0x78 PUSH1 0xFF AND DUP2 MSTORE PUSH1 0x20 ADD PUSH1 0x61 PUSH1 0xFF AND DUP2 MSTORE PUSH1 0x20 ADD PUSH1 0x3F PUSH1 0xFF AND DUP2 MSTORE PUSH1 0x20 ADD PUSH1 0x89 PUSH1 0xFF AND DUP2 MSTORE PUSH1 0x20 ADD PUSH1 0x46 PUSH1 0xFF AND DUP2 MSTORE PUSH1 0x20 ADD PUSH1 0xD PUSH1 0xFF AND DUP2 MSTORE PUSH1 0x20 ADD PUSH1 0x35 PUSH1 0xFF AND DUP2 MSTORE PUSH1 0x20 ADD PUSH1 0x31 PUSH1 0xFF AND DUP2 MSTORE PUSH1 0x20 ADD PUSH1 0x88 PUSH1 0xFF AND DUP2 MSTORE PUSH1 0x20 ADD PUSH1 0xA3 PUSH1 0xFF AND DUP2 MSTORE PUSH1 0x20 ADD PUSH1 0x41 PUSH1 0xFF AND DUP2 MSTORE PUSH1 0x20 ADD PUSH1 0x80 PUSH1 0xFF AND DUP2 MSTORE PUSH1 0x20 ADD PUSH1 0xCA PUSH1 0xFF AND DUP2 MSTORE PUSH1 0x20 ADD PUSH1 0x17 PUSH1 0xFF AND DUP2 MSTORE PUSH1 0x20 ADD PUSH1 0x5F PUSH1 0xFF AND DUP2 MSTORE PUSH1 0x20 ADD PUSH1 0x53 PUSH1 0xFF AND DUP2 MSTORE PUSH1 0x20 ADD PUSH1 0x83 PUSH1 0xFF AND DUP2 MSTORE PUSH1 0x20 ADD PUSH1 0xFE PUSH1 0xFF AND DUP2 MSTORE PUSH1 0x20 ADD PUSH1 0xC3 PUSH1 0xFF AND DUP2 MSTORE PUSH1 0x20 ADD PUSH1 0x9B PUSH1 0xFF AND DUP2 MSTORE PUSH1 0x20 ADD PUSH1 0x45 PUSH1 0xFF AND DUP2 MSTORE PUSH1 0x20 ADD PUSH1 0x39 PUSH1 0xFF AND DUP2 MSTORE PUSH1 0x20 ADD PUSH1 0xE1 PUSH1 0xFF AND DUP2 MSTORE PUSH1 0x20 ADD PUSH1 0xF5 PUSH1 0xFF AND DUP2 MSTORE PUSH1 0x20 ADD PUSH1 0x9E PUSH1 0xFF AND DUP2 MSTORE PUSH1 0x20 ADD PUSH1 0x19 PUSH1 0xFF AND DUP2 MSTORE PUSH1 0x20 ADD PUSH1 0x5E PUSH1 0xFF AND DUP2 MSTORE PUSH1 0x20 ADD PUSH1 0xB6 PUSH1 0xFF AND DUP2 MSTORE PUSH1 0x20 ADD PUSH1 0xCF PUSH1 0xFF AND DUP2 MSTORE PUSH1 0x20 ADD PUSH1 0x4B PUSH1 0xFF AND DUP2 MSTORE PUSH1 0x20 ADD PUSH1 0x38 PUSH1 0xFF AND DUP2 MSTORE PUSH1 0x20 ADD PUSH1 0x4 PUSH1 0xFF AND DUP2 MSTORE PUSH1 0x20 ADD PUSH1 0xB9 PUSH1 0xFF AND DUP2 MSTORE PUSH1 0x20 ADD PUSH1 0x2B PUSH1 0xFF AND DUP2 MSTORE PUSH1 0x20 ADD PUSH1 0xE2 PUSH1 0xFF AND DUP2 MSTORE PUSH1 0x20 ADD PUSH1 0xC1 PUSH1 0xFF AND DUP2 MSTORE PUSH1 0x20 ADD PUSH1 0x4A PUSH1 0xFF AND DUP2 MSTORE PUSH1 0x20 ADD PUSH1 0xDD PUSH1 0xFF AND DUP2 MSTORE PUSH1 0x20 ADD PUSH1 0x48 PUSH1 0xFF AND DUP2 MSTORE PUSH1 0x20 ADD PUSH1 0xC PUSH1 0xFF AND DUP2 MSTORE PUSH1 0x20 ADD PUSH1 0xD0 PUSH1 0xFF AND DUP2 MSTORE PUSH1 0x20 ADD PUSH1 0x7D PUSH1 0xFF AND DUP2 MSTORE PUSH1 0x20 ADD PUSH1 0x3D PUSH1 0xFF AND DUP2 MSTORE PUSH1 0x20 ADD PUSH1 0x58 PUSH1 0xFF AND DUP2 MSTORE PUSH1 0x20 ADD PUSH1 0xDE PUSH1 0xFF AND DUP2 MSTORE PUSH1 0x20 ADD PUSH1 0x7C PUSH1 0xFF AND DUP2 MSTORE PUSH1 0x20 ADD PUSH1 0xD8 PUSH1 0xFF AND DUP2 MSTORE PUSH1 0x20 ADD PUSH1 0x14 PUSH1 0xFF AND DUP2 MSTORE PUSH1 0x20 ADD PUSH1 0x6B PUSH1 0xFF AND DUP2 MSTORE PUSH1 0x20 ADD PUSH1 0x87 PUSH1 0xFF AND DUP2 MSTORE PUSH1 0x20 ADD PUSH1 0x47 PUSH1 0xFF AND DUP2 MSTORE PUSH1 0x20 ADD PUSH1 0xE8 PUSH1 0xFF AND DUP2 MSTORE PUSH1 0x20 ADD PUSH1 0x79 PUSH1 0xFF AND DUP2 MSTORE PUSH1 0x20 ADD PUSH1 0x84 PUSH1 0xFF AND DUP2 MSTORE PUSH1 0x20 ADD PUSH1 0x73 PUSH1 0xFF AND DUP2 MSTORE PUSH1 0x20 ADD PUSH1 0x3C PUSH1 0xFF AND DUP2 MSTORE PUSH1 0x20 ADD PUSH1 0xBD PUSH1 0xFF AND DUP2 MSTORE PUSH1 0x20 ADD PUSH1 0x92 PUSH1 0xFF AND DUP2 MSTORE PUSH1 0x20 ADD PUSH1 0xC9 PUSH1 0xFF AND DUP2 MSTORE PUSH1 0x20 ADD PUSH1 0x23 PUSH1 0xFF AND DUP2 MSTORE PUSH1 0x20 ADD PUSH1 0x8B PUSH1 0xFF AND DUP2 MSTORE PUSH1 0x20 ADD PUSH1 0x97 PUSH1 0xFF AND DUP2 MSTORE PUSH1 0x20 ADD PUSH1 0x95 PUSH1 0xFF AND DUP2 MSTORE PUSH1 0x20 ADD PUSH1 0x44 PUSH1 0xFF AND DUP2 MSTORE PUSH1 0x20 ADD PUSH1 0xDC PUSH1 0xFF AND DUP2 MSTORE PUSH1 0x20 ADD PUSH1 0xAD PUSH1 0xFF AND DUP2 MSTORE PUSH1 0x20 ADD PUSH1 0x40 PUSH1 0xFF AND DUP2 MSTORE PUSH1 0x20 ADD PUSH1 0x65 PUSH1 0xFF AND DUP2 MSTORE PUSH1 0x20 ADD PUSH1 0x86 PUSH1 0xFF AND DUP2 MSTORE PUSH1 0x20 ADD PUSH1 0xA2 PUSH1 0xFF AND DUP2 MSTORE PUSH1 0x20 ADD PUSH1 0xA4 PUSH1 0xFF AND DUP2 MSTORE PUSH1 0x20 ADD PUSH1 0xCC PUSH1 0xFF AND DUP2 MSTORE PUSH1 0x20 ADD PUSH1 0x7F PUSH1 0xFF AND DUP2 MSTORE PUSH1 0x20 ADD PUSH1 0xEC PUSH1 0xFF AND DUP2 MSTORE PUSH1 0x20 ADD PUSH1 0xC0 PUSH1 0xFF AND DUP2 MSTORE PUSH1 0x20 ADD PUSH1 0xAF PUSH1 0xFF AND DUP2 MSTORE PUSH1 0x20 ADD PUSH1 0x91 PUSH1 0xFF AND DUP2 MSTORE PUSH1 0x20 ADD PUSH1 0xFD PUSH1 0xFF AND DUP2 MSTORE PUSH1 0x20 ADD PUSH1 0xF7 PUSH1 0xFF AND DUP2 MSTORE PUSH1 0x20 ADD PUSH1 0x4F PUSH1 0xFF AND DUP2 MSTORE PUSH1 0x20 ADD PUSH1 0x81 PUSH1 0xFF AND DUP2 MSTORE PUSH1 0x20 ADD PUSH1 0x2F PUSH1 0xFF AND DUP2 MSTORE PUSH1 0x20 ADD PUSH1 0x5B PUSH1 0xFF AND DUP2 MSTORE PUSH1 0x20 ADD PUSH1 0xEA PUSH1 0xFF AND DUP2 MSTORE PUSH1 0x20 ADD PUSH1 0xA8 PUSH1 0xFF AND DUP2 MSTORE PUSH1 0x20 ADD PUSH1 0x1C PUSH1 0xFF AND DUP2 MSTORE PUSH1 0x20 ADD PUSH1 0x2 PUSH1 0xFF AND DUP2 MSTORE PUSH1 0x20 ADD PUSH1 0xD1 PUSH1 0xFF AND DUP2 MSTORE PUSH1 0x20 ADD PUSH1 0x98 PUSH1 0xFF AND DUP2 MSTORE PUSH1 0x20 ADD PUSH1 0x71 PUSH1 0xFF AND DUP2 MSTORE PUSH1 0x20 ADD PUSH1 0xED PUSH1 0xFF AND DUP2 MSTORE PUSH1 0x20 ADD PUSH1 0x25 PUSH1 0xFF AND DUP2 MSTORE PUSH1 0x20 ADD PUSH1 0xE3 PUSH1 0xFF AND DUP2 MSTORE PUSH1 0x20 ADD PUSH1 0x24 PUSH1 0xFF AND DUP2 MSTORE PUSH1 0x20 ADD PUSH1 0x6 PUSH1 0xFF AND DUP2 MSTORE PUSH1 0x20 ADD PUSH1 0x68 PUSH1 0xFF AND DUP2 MSTORE PUSH1 0x20 ADD PUSH1 0xB3 PUSH1 0xFF AND DUP2 MSTORE PUSH1 0x20 ADD PUSH1 0x93 PUSH1 0xFF AND DUP2 MSTORE PUSH1 0x20 ADD PUSH1 0x2C PUSH1 0xFF AND DUP2 MSTORE PUSH1 0x20 ADD PUSH1 0x6F PUSH1 0xFF AND DUP2 MSTORE PUSH1 0x20 ADD PUSH1 0x3E PUSH1 0xFF AND DUP2 MSTORE PUSH1 0x20 ADD PUSH1 0x6C PUSH1 0xFF AND DUP2 MSTORE PUSH1 0x20 ADD PUSH1 0xA PUSH1 0xFF AND DUP2 MSTORE PUSH1 0x20 ADD PUSH1 0xB8 PUSH1 0xFF AND DUP2 MSTORE PUSH1 0x20 ADD PUSH1 0xCE PUSH1 0xFF AND DUP2 MSTORE PUSH1 0x20 ADD PUSH1 0xAE PUSH1 0xFF AND DUP2 MSTORE PUSH1 0x20 ADD PUSH1 0x74 PUSH1 0xFF AND DUP2 MSTORE PUSH1 0x20 ADD PUSH1 0xB1 PUSH1 0xFF AND DUP2 MSTORE PUSH1 0x20 ADD PUSH1 0x42 PUSH1 0xFF AND DUP2 MSTORE PUSH1 0x20 ADD PUSH1 0xB4 PUSH1 0xFF AND DUP2 MSTORE PUSH1 0x20 ADD PUSH1 0x1E PUSH1 0xFF AND DUP2 MSTORE PUSH1 0x20 ADD PUSH1 0xD3 PUSH1 0xFF AND DUP2 MSTORE PUSH1 0x20 ADD PUSH1 0x49 PUSH1 0xFF AND DUP2 MSTORE PUSH1 0x20 ADD PUSH1 0xE9 PUSH1 0xFF AND DUP2 MSTORE PUSH1 0x20 ADD PUSH1 0x9C PUSH1 0xFF AND DUP2 MSTORE PUSH1 0x20 ADD PUSH1 0xC8 PUSH1 0xFF AND DUP2 MSTORE PUSH1 0x20 ADD PUSH1 0xC6 PUSH1 0xFF AND DUP2 MSTORE PUSH1 0x20 ADD PUSH1 0xC7 PUSH1 0xFF AND DUP2 MSTORE PUSH1 0x20 ADD PUSH1 0x22 PUSH1 0xFF AND DUP2 MSTORE PUSH1 0x20 ADD PUSH1 0x6E PUSH1 0xFF AND DUP2 MSTORE PUSH1 0x20 ADD PUSH1 0xDB PUSH1 0xFF AND DUP2 MSTORE PUSH1 0x20 ADD PUSH1 0x20 PUSH1 0xFF AND DUP2 MSTORE PUSH1 0x20 ADD PUSH1 0xBF PUSH1 0xFF AND DUP2 MSTORE PUSH1 0x20 ADD PUSH1 0x43 PUSH1 0xFF AND DUP2 MSTORE PUSH1 0x20 ADD PUSH1 0x51 PUSH1 0xFF AND DUP2 MSTORE PUSH1 0x20 ADD PUSH1 0x52 PUSH1 0xFF AND DUP2 MSTORE PUSH1 0x20 ADD PUSH1 0x66 PUSH1 0xFF AND DUP2 MSTORE PUSH1 0x20 ADD PUSH1 0xB2 PUSH1 0xFF AND DUP2 MSTORE PUSH1 0x20 ADD PUSH1 0x76 PUSH1 0xFF AND DUP2 MSTORE PUSH1 0x20 ADD PUSH1 0x60 PUSH1 0xFF AND DUP2 MSTORE PUSH1 0x20 ADD PUSH1 0xDA PUSH1 0xFF AND DUP2 MSTORE PUSH1 0x20 ADD PUSH1 0xC5 PUSH1 0xFF AND DUP2 MSTORE PUSH1 0x20 ADD PUSH1 0xF3 PUSH1 0xFF AND DUP2 MSTORE PUSH1 0x20 ADD PUSH1 0xF6 PUSH1 0xFF AND DUP2 MSTORE PUSH1 0x20 ADD PUSH1 0xAA PUSH1 0xFF AND DUP2 MSTORE PUSH1 0x20 ADD PUSH1 0xCD PUSH1 0xFF AND DUP2 MSTORE PUSH1 0x20 ADD PUSH1 0x9A PUSH1 0xFF AND DUP2 MSTORE PUSH1 0x20 ADD PUSH1 0xA0 PUSH1 0xFF AND DUP2 MSTORE PUSH1 0x20 ADD PUSH1 0x75 PUSH1 0xFF AND DUP2 MSTORE PUSH1 0x20 ADD PUSH1 0x54 PUSH1 0xFF AND DUP2 MSTORE PUSH1 0x20 ADD PUSH1 0xE PUSH1 0xFF AND DUP2 MSTORE PUSH1 0x20 ADD PUSH1 0x1 PUSH1 0xFF AND DUP2 MSTORE POP PUSH1 0x19 SWAP1 PUSH2 0x100 PUSH2 0x28F4 SWAP3 SWAP2 SWAP1 PUSH2 0x299D JUMP JUMPDEST POP CALLVALUE DUP1 ISZERO PUSH2 0x2900 JUMPI PUSH0 DUP1 REVERT JUMPDEST POP PUSH2 0x2A50 JUMP JUMPDEST DUP3 PUSH1 0xB PUSH1 0x1F ADD PUSH1 0x20 SWAP1 DIV DUP2 ADD SWAP3 DUP3 ISZERO PUSH2 0x298C JUMPI SWAP2 PUSH1 0x20 MUL DUP3 ADD PUSH0 JUMPDEST DUP4 DUP3 GT ISZERO PUSH2 0x295E JUMPI DUP4 MLOAD DUP4 DUP3 PUSH2 0x100 EXP DUP2 SLOAD DUP2 PUSH1 0xFF MUL NOT AND SWAP1 DUP4 PUSH1 0xFF AND MUL OR SWAP1 SSTORE POP SWAP3 PUSH1 0x20 ADD SWAP3 PUSH1 0x1 ADD PUSH1 0x20 DUP2 PUSH0 ADD DIV SWAP3 DUP4 ADD SWAP3 PUSH1 0x1 SUB MUL PUSH2 0x2921 JUMP JUMPDEST DUP1 ISZERO PUSH2 0x298A JUMPI DUP3 DUP2 PUSH2 0x100 EXP DUP2 SLOAD SWAP1 PUSH1 0xFF MUL NOT AND SWAP1 SSTORE PUSH1 0x1 ADD PUSH1 0x20 DUP2 PUSH0 ADD DIV SWAP3 DUP4 ADD SWAP3 PUSH1 0x1 SUB MUL PUSH2 0x295E JUMP JUMPDEST POP JUMPDEST POP SWAP1 POP PUSH2 0x2999 SWAP2 SWAP1 PUSH2 0x2A35 JUMP JUMPDEST POP SWAP1 JUMP JUMPDEST DUP3 PUSH2 0x100 PUSH1 0x1F ADD PUSH1 0x20 SWAP1 DIV DUP2 ADD SWAP3 DUP3 ISZERO PUSH2 0x2A24 JUMPI SWAP2 PUSH1 0x20 MUL DUP3 ADD PUSH0 JUMPDEST DUP4 DUP3 GT ISZERO PUSH2 0x29F6 JUMPI DUP4 MLOAD DUP4 DUP3 PUSH2 0x100 EXP DUP2 SLOAD DUP2 PUSH1 0xFF MUL NOT AND SWAP1 DUP4 PUSH1 0xFF AND MUL OR SWAP1 SSTORE POP SWAP3 PUSH1 0x20 ADD SWAP3 PUSH1 0x1 ADD PUSH1 0x20 DUP2 PUSH0 ADD DIV SWAP3 DUP4 ADD SWAP3 PUSH1 0x1 SUB MUL PUSH2 0x29B9 JUMP JUMPDEST DUP1 ISZERO PUSH2 0x2A22 JUMPI DUP3 DUP2 PUSH2 0x100 EXP DUP2 SLOAD SWAP1 PUSH1 0xFF MUL NOT AND SWAP1 SSTORE PUSH1 0x1 ADD PUSH1 0x20 DUP2 PUSH0 ADD DIV SWAP3 DUP4 ADD SWAP3 PUSH1 0x1 SUB MUL PUSH2 0x29F6 JUMP JUMPDEST POP JUMPDEST POP SWAP1 POP PUSH2 0x2A31 SWAP2 SWAP1 PUSH2 0x2A35 JUMP JUMPDEST POP SWAP1 JUMP JUMPDEST JUMPDEST DUP1 DUP3 GT ISZERO PUSH2 0x2A4C JUMPI PUSH0 DUP2 PUSH0 SWAP1 SSTORE POP PUSH1 0x1 ADD PUSH2 0x2A36 JUMP JUMPDEST POP SWAP1 JUMP JUMPDEST PUSH2 0x3F24 DUP1 PUSH2 0x2A5D PUSH0 CODECOPY PUSH0 RETURN INVALID PUSH1 0x80 PUSH1 0x40 MSTORE CALLVALUE DUP1 ISZERO PUSH2 0xF JUMPI PUSH0 DUP1 REVERT JUMPDEST POP PUSH1 0x4 CALLDATASIZE LT PUSH2 0x55 JUMPI PUSH0 CALLDATALOAD PUSH1 0xE0 SHR DUP1 PUSH4 0x6F4A01C EQ PUSH2 0x59 JUMPI DUP1 PUSH4 0x285FE5F2 EQ PUSH2 0x89 JUMPI DUP1 PUSH4 0x3A0E6BE2 EQ PUSH2 0xB9 JUMPI DUP1 PUSH4 0x4DD76C8A EQ PUSH2 0xE9 JUMPI DUP1 PUSH4 0x6B71A846 EQ PUSH2 0x119 JUMPI JUMPDEST PUSH0 DUP1 REVERT JUMPDEST PUSH2 0x73 PUSH1 0x4 DUP1 CALLDATASIZE SUB DUP2 ADD SWAP1 PUSH2 0x6E SWAP2 SWAP1 PUSH2 0x3422 JUMP JUMPDEST PUSH2 0x149 JUMP JUMPDEST PUSH1 0x40 MLOAD PUSH2 0x80 SWAP2 SWAP1 PUSH2 0x353B JUMP JUMPDEST PUSH1 0x40 MLOAD DUP1 SWAP2 SUB SWAP1 RETURN JUMPDEST PUSH2 0xA3 PUSH1 0x4 DUP1 CALLDATASIZE SUB DUP2 ADD SWAP1 PUSH2 0x9E SWAP2 SWAP1 PUSH2 0x355B JUMP JUMPDEST PUSH2 0x2E0 JUMP JUMPDEST PUSH1 0x40 MLOAD PUSH2 0xB0 SWAP2 SWAP1 PUSH2 0x368F JUMP JUMPDEST PUSH1 0x40 MLOAD DUP1 SWAP2 SUB SWAP1 RETURN JUMPDEST PUSH2 0xD3 PUSH1 0x4 DUP1 CALLDATASIZE SUB DUP2 ADD SWAP1 PUSH2 0xCE SWAP2 SWAP1 PUSH2 0x379D JUMP JUMPDEST PUSH2 0x2EA JUMP JUMPDEST PUSH1 0x40 MLOAD PUSH2 0xE0 SWAP2 SWAP1 PUSH2 0x368F JUMP JUMPDEST PUSH1 0x40 MLOAD DUP1 SWAP2 SUB SWAP1 RETURN JUMPDEST PUSH2 0x103 PUSH1 0x4 DUP1 CALLDATASIZE SUB DUP2 ADD SWAP1 PUSH2 0xFE SWAP2 SWAP1 PUSH2 0x38C8 JUMP JUMPDEST PUSH2 0x3B0 JUMP JUMPDEST PUSH1 0x40 MLOAD PUSH2 0x110 SWAP2 SWAP1 PUSH2 0x39AD JUMP JUMPDEST PUSH1 0x40 MLOAD DUP1 SWAP2 SUB SWAP1 RETURN JUMPDEST PUSH2 0x133 PUSH1 0x4 DUP1 CALLDATASIZE SUB DUP2 ADD SWAP1 PUSH2 0x12E SWAP2 SWAP1 PUSH2 0x38C8 JUMP JUMPDEST PUSH2 0x9E3 JUMP JUMPDEST PUSH1 0x40 MLOAD PUSH2 0x140 SWAP2 SWAP1 PUSH2 0x39AD JUMP JUMPDEST PUSH1 0x40 MLOAD DUP1 SWAP2 SUB SWAP1 RETURN JUMPDEST PUSH1 0x60 PUSH0 DUP3 MLOAD SWAP1 POP PUSH0 PUSH1 0x10 DUP3 PUSH2 0x15E SWAP2 SWAP1 PUSH2 0x39FD JUMP JUMPDEST PUSH1 0x10 PUSH2 0x16A SWAP2 SWAP1 PUSH2 0x3A5A JUMP JUMPDEST SWAP1 POP PUSH1 0x10 DUP2 SUB PUSH2 0x178 JUMPI PUSH0 SWAP1 POP JUMPDEST PUSH0 PUSH1 0x40 MLOAD DUP1 PUSH1 0x40 ADD PUSH1 0x40 MSTORE DUP1 PUSH1 0x1 DUP2 MSTORE PUSH1 0x20 ADD PUSH0 DUP2 MSTORE POP SWAP1 POP PUSH0 PUSH1 0x1 SWAP1 POP JUMPDEST DUP3 DUP2 LT ISZERO PUSH2 0x1CE JUMPI DUP2 PUSH1 0x40 MLOAD PUSH1 0x20 ADD PUSH2 0x1B0 SWAP2 SWAP1 PUSH2 0x3ACD JUMP JUMPDEST PUSH1 0x40 MLOAD PUSH1 0x20 DUP2 DUP4 SUB SUB DUP2 MSTORE SWAP1 PUSH1 0x40 MSTORE SWAP2 POP DUP1 DUP1 PUSH1 0x1 ADD SWAP2 POP POP PUSH2 0x197 JUMP JUMPDEST POP PUSH0 DUP6 DUP3 PUSH1 0x40 MLOAD PUSH1 0x20 ADD PUSH2 0x1E3 SWAP3 SWAP2 SWAP1 PUSH2 0x3AF2 JUMP JUMPDEST PUSH1 0x40 MLOAD PUSH1 0x20 DUP2 DUP4 SUB SUB DUP2 MSTORE SWAP1 PUSH1 0x40 MSTORE SWAP1 POP PUSH0 PUSH1 0x10 DUP3 MLOAD PUSH2 0x203 SWAP2 SWAP1 PUSH2 0x3B15 JUMP JUMPDEST SWAP1 POP PUSH0 DUP2 PUSH8 0xFFFFFFFFFFFFFFFF DUP2 GT ISZERO PUSH2 0x220 JUMPI PUSH2 0x21F PUSH2 0x32FE JUMP JUMPDEST JUMPDEST PUSH1 0x40 MLOAD SWAP1 DUP1 DUP3 MSTORE DUP1 PUSH1 0x20 MUL PUSH1 0x20 ADD DUP3 ADD PUSH1 0x40 MSTORE DUP1 ISZERO PUSH2 0x24E JUMPI DUP2 PUSH1 0x20 ADD PUSH1 0x20 DUP3 MUL DUP1 CALLDATASIZE DUP4 CALLDATACOPY DUP1 DUP3 ADD SWAP2 POP POP SWAP1 POP JUMPDEST POP SWAP1 POP PUSH0 JUMPDEST DUP3 DUP2 LT ISZERO PUSH2 0x2D1 JUMPI PUSH2 0x273 DUP5 PUSH1 0x10 DUP4 PUSH2 0x26C SWAP2 SWAP1 PUSH2 0x3B45 JUMP JUMPDEST PUSH1 0x10 PUSH2 0x1016 JUMP JUMPDEST PUSH2 0x27C SWAP1 PUSH2 0x3BE0 JUMP JUMPDEST PUSH1 0x80 SHR DUP3 DUP3 DUP2 MLOAD DUP2 LT PUSH2 0x292 JUMPI PUSH2 0x291 PUSH2 0x3C46 JUMP JUMPDEST JUMPDEST PUSH1 0x20 MUL PUSH1 0x20 ADD ADD SWAP1 PUSH16 0xFFFFFFFFFFFFFFFFFFFFFFFFFFFFFFFF AND SWAP1 DUP2 PUSH16 0xFFFFFFFFFFFFFFFFFFFFFFFFFFFFFFFF AND DUP2 MSTORE POP POP DUP1 DUP1 PUSH1 0x1 ADD SWAP2 POP POP PUSH2 0x253 JUMP JUMPDEST POP DUP1 SWAP7 POP POP POP POP POP POP POP SWAP2 SWAP1 POP JUMP JUMPDEST PUSH1 0x60 SWAP5 SWAP4 POP POP POP POP JUMP JUMPDEST PUSH1 0x60 PUSH0 DUP3 PUSH0 DUP2 MLOAD DUP2 LT PUSH2 0x300 JUMPI PUSH2 0x2FF PUSH2 0x3C46 JUMP JUMPDEST JUMPDEST PUSH1 0x20 MUL PUSH1 0x20 ADD ADD MLOAD PUSH1 0x80 SHL PUSH1 0x40 MLOAD PUSH1 0x20 ADD PUSH2 0x31B SWAP2 SWAP1 PUSH2 0x3C93 JUMP JUMPDEST PUSH1 0x40 MLOAD PUSH1 0x20 DUP2 DUP4 SUB SUB DUP2 MSTORE SWAP1 PUSH1 0x40 MSTORE SWAP1 POP PUSH0 PUSH1 0x1 SWAP1 POP JUMPDEST DUP4 MLOAD DUP2 LT ISZERO PUSH2 0x3A6 JUMPI DUP2 DUP5 PUSH1 0x1 DUP2 MLOAD DUP2 LT PUSH2 0x350 JUMPI PUSH2 0x34F PUSH2 0x3C46 JUMP JUMPDEST JUMPDEST PUSH1 0x20 MUL PUSH1 0x20 ADD ADD MLOAD PUSH1 0x40 MLOAD PUSH1 0x20 ADD PUSH2 0x368 SWAP2 SWAP1 PUSH2 0x3CE1 JUMP JUMPDEST PUSH1 0x40 MLOAD PUSH1 0x20 DUP2 DUP4 SUB SUB DUP2 MSTORE SWAP1 PUSH1 0x40 MSTORE PUSH1 0x40 MLOAD PUSH1 0x20 ADD PUSH2 0x388 SWAP3 SWAP2 SWAP1 PUSH2 0x3AF2 JUMP JUMPDEST PUSH1 0x40 MLOAD PUSH1 0x20 DUP2 DUP4 SUB SUB DUP2 MSTORE SWAP1 PUSH1 0x40 MSTORE SWAP2 POP DUP1 DUP1 PUSH1 0x1 ADD SWAP2 POP POP PUSH2 0x332 JUMP JUMPDEST POP DUP1 SWAP2 POP POP SWAP2 SWAP1 POP JUMP JUMPDEST PUSH2 0x3B8 PUSH2 0x3235 JUMP JUMPDEST PUSH0 PUSH1 0x40 MLOAD DUP1 PUSH1 0x80 ADD PUSH1 0x40 MSTORE DUP1 PUSH1 0x40 MLOAD DUP1 PUSH1 0x80 ADD PUSH1 0x40 MSTORE DUP1 DUP8 PUSH0 PUSH1 0x10 DUP2 LT PUSH2 0x3E2 JUMPI PUSH2 0x3E1 PUSH2 0x3C46 JUMP JUMPDEST JUMPDEST PUSH1 0x20 MUL ADD MLOAD PUSH1 0xFF AND PUSH1 0xFF AND DUP2 MSTORE PUSH1 0x20 ADD DUP8 PUSH1 0x4 PUSH1 0x10 DUP2 LT PUSH2 0x406 JUMPI PUSH2 0x405 PUSH2 0x3C46 JUMP JUMPDEST JUMPDEST PUSH1 0x20 MUL ADD MLOAD PUSH1 0xFF AND PUSH1 0xFF AND DUP2 MSTORE PUSH1 0x20 ADD DUP8 PUSH1 0x8 PUSH1 0x10 DUP2 LT PUSH2 0x42A JUMPI PUSH2 0x429 PUSH2 0x3C46 JUMP JUMPDEST JUMPDEST PUSH1 0x20 MUL ADD MLOAD PUSH1 0xFF AND PUSH1 0xFF AND DUP2 MSTORE PUSH1 0x20 ADD DUP8 PUSH1 0xC PUSH1 0x10 DUP2 LT PUSH2 0x44E JUMPI PUSH2 0x44D PUSH2 0x3C46 JUMP JUMPDEST JUMPDEST PUSH1 0x20 MUL ADD MLOAD PUSH1 0xFF AND PUSH1 0xFF AND DUP2 MSTORE POP DUP2 MSTORE PUSH1 0x20 ADD PUSH1 0x40 MLOAD DUP1 PUSH1 0x80 ADD PUSH1 0x40 MSTORE DUP1 DUP8 PUSH1 0x1 PUSH1 0x10 DUP2 LT PUSH2 0x480 JUMPI PUSH2 0x47F PUSH2 0x3C46 JUMP JUMPDEST JUMPDEST PUSH1 0x20 MUL ADD MLOAD PUSH1 0xFF AND PUSH1 0xFF AND DUP2 MSTORE PUSH1 0x20 ADD DUP8 PUSH1 0x5 PUSH1 0x10 DUP2 LT PUSH2 0x4A4 JUMPI PUSH2 0x4A3 PUSH2 0x3C46 JUMP JUMPDEST JUMPDEST PUSH1 0x20 MUL ADD MLOAD PUSH1 0xFF AND PUSH1 0xFF AND DUP2 MSTORE PUSH1 0x20 ADD DUP8 PUSH1 0x9 PUSH1 0x10 DUP2 LT PUSH2 0x4C8 JUMPI PUSH2 0x4C7 PUSH2 0x3C46 JUMP JUMPDEST JUMPDEST PUSH1 0x20 MUL ADD MLOAD PUSH1 0xFF AND PUSH1 0xFF AND DUP2 MSTORE PUSH1 0x20 ADD DUP8 PUSH1 0xD PUSH1 0x10 DUP2 LT PUSH2 0x4EC JUMPI PUSH2 0x4EB PUSH2 0x3C46 JUMP JUMPDEST JUMPDEST PUSH1 0x20 MUL ADD MLOAD PUSH1 0xFF AND PUSH1 0xFF AND DUP2 MSTORE POP DUP2 MSTORE PUSH1 0x20 ADD PUSH1 0x40 MLOAD DUP1 PUSH1 0x80 ADD PUSH1 0x40 MSTORE DUP1 DUP8 PUSH1 0x2 PUSH1 0x10 DUP2 LT PUSH2 0x51E JUMPI PUSH2 0x51D PUSH2 0x3C46 JUMP JUMPDEST JUMPDEST PUSH1 0x20 MUL ADD MLOAD PUSH1 0xFF AND PUSH1 0xFF AND DUP2 MSTORE PUSH1 0x20 ADD DUP8 PUSH1 0x6 PUSH1 0x10 DUP2 LT PUSH2 0x542 JUMPI PUSH2 0x541 PUSH2 0x3C46 JUMP JUMPDEST JUMPDEST PUSH1 0x20 MUL ADD MLOAD PUSH1 0xFF AND PUSH1 0xFF AND DUP2 MSTORE PUSH1 0x20 ADD DUP8 PUSH1 0xA PUSH1 0x10 DUP2 LT PUSH2 0x566 JUMPI PUSH2 0x565 PUSH2 0x3C46 JUMP JUMPDEST JUMPDEST PUSH1 0x20 MUL ADD MLOAD PUSH1 0xFF AND PUSH1 0xFF AND DUP2 MSTORE PUSH1 0x20 ADD DUP8 PUSH1 0xE PUSH1 0x10 DUP2 LT PUSH2 0x58A JUMPI PUSH2 0x589 PUSH2 0x3C46 JUMP JUMPDEST JUMPDEST PUSH1 0x20 MUL ADD MLOAD PUSH1 0xFF AND PUSH1 0xFF AND DUP2 MSTORE POP DUP2 MSTORE PUSH1 0x20 ADD PUSH1 0x40 MLOAD DUP1 PUSH1 0x80 ADD PUSH1 0x40 MSTORE DUP1 DUP8 PUSH1 0x3 PUSH1 0x10 DUP2 LT PUSH2 0x5BC JUMPI PUSH2 0x5BB PUSH2 0x3C46 JUMP JUMPDEST JUMPDEST PUSH1 0x20 MUL ADD MLOAD PUSH1 0xFF AND PUSH1 0xFF AND DUP2 MSTORE PUSH1 0x20 ADD DUP8 PUSH1 0x7 PUSH1 0x10 DUP2 LT PUSH2 0x5E0 JUMPI PUSH2 0x5DF PUSH2 0x3C46 JUMP JUMPDEST JUMPDEST PUSH1 0x20 MUL ADD MLOAD PUSH1 0xFF AND PUSH1 0xFF AND DUP2 MSTORE PUSH1 0x20 ADD DUP8 PUSH1 0xB PUSH1 0x10 DUP2 LT PUSH2 0x604 JUMPI PUSH2 0x603 PUSH2 0x3C46 JUMP JUMPDEST JUMPDEST PUSH1 0x20 MUL ADD MLOAD PUSH1 0xFF AND PUSH1 0xFF AND DUP2 MSTORE PUSH1 0x20 ADD DUP8 PUSH1 0xF PUSH1 0x10 DUP2 LT PUSH2 0x628 JUMPI PUSH2 0x627 PUSH2 0x3C46 JUMP JUMPDEST JUMPDEST PUSH1 0x20 MUL ADD MLOAD PUSH1 0xFF AND PUSH1 0xFF AND DUP2 MSTORE POP DUP2 MSTORE POP SWAP1 POP PUSH0 PUSH2 0x645 DUP5 PUSH2 0x1132 JUMP JUMPDEST SWAP1 POP PUSH0 PUSH1 0x40 MLOAD DUP1 PUSH1 0x80 ADD PUSH1 0x40 MSTORE DUP1 DUP4 PUSH1 0x28 PUSH1 0x2C DUP2 LT PUSH2 0x667 JUMPI PUSH2 0x666 PUSH2 0x3C46 JUMP JUMPDEST JUMPDEST PUSH1 0x20 MUL ADD MLOAD DUP2 MSTORE PUSH1 0x20 ADD DUP4 PUSH1 0x29 PUSH1 0x2C DUP2 LT PUSH2 0x685 JUMPI PUSH2 0x684 PUSH2 0x3C46 JUMP JUMPDEST JUMPDEST PUSH1 0x20 MUL ADD MLOAD DUP2 MSTORE PUSH1 0x20 ADD DUP4 PUSH1 0x2A PUSH1 0x2C DUP2 LT PUSH2 0x6A3 JUMPI PUSH2 0x6A2 PUSH2 0x3C46 JUMP JUMPDEST JUMPDEST PUSH1 0x20 MUL ADD MLOAD DUP2 MSTORE PUSH1 0x20 ADD DUP4 PUSH1 0x2B PUSH1 0x2C DUP2 LT PUSH2 0x6C1 JUMPI PUSH2 0x6C0 PUSH2 0x3C46 JUMP JUMPDEST JUMPDEST PUSH1 0x20 MUL ADD MLOAD DUP2 MSTORE POP SWAP1 POP PUSH2 0x6D5 DUP4 DUP3 PUSH2 0x1926 JUMP JUMPDEST SWAP3 POP PUSH0 PUSH1 0x9 SWAP1 POP JUMPDEST PUSH1 0x1 DUP2 LT PUSH2 0x7F8 JUMPI PUSH2 0x6EE DUP5 PUSH2 0x1A03 JUMP JUMPDEST SWAP4 POP PUSH2 0x6F9 DUP5 PUSH2 0x1D43 JUMP JUMPDEST SWAP4 POP PUSH1 0x40 MLOAD DUP1 PUSH1 0x80 ADD PUSH1 0x40 MSTORE DUP1 DUP5 DUP4 PUSH1 0x4 PUSH2 0x714 SWAP2 SWAP1 PUSH2 0x3B45 JUMP JUMPDEST PUSH1 0x2C DUP2 LT PUSH2 0x725 JUMPI PUSH2 0x724 PUSH2 0x3C46 JUMP JUMPDEST JUMPDEST PUSH1 0x20 MUL ADD MLOAD DUP2 MSTORE PUSH1 0x20 ADD DUP5 PUSH1 0x1 DUP5 PUSH1 0x4 PUSH2 0x73F SWAP2 SWAP1 PUSH2 0x3B45 JUMP JUMPDEST PUSH2 0x749 SWAP2 SWAP1 PUSH2 0x3CFB JUMP JUMPDEST PUSH1 0x2C DUP2 LT PUSH2 0x75A JUMPI PUSH2 0x759 PUSH2 0x3C46 JUMP JUMPDEST JUMPDEST PUSH1 0x20 MUL ADD MLOAD DUP2 MSTORE PUSH1 0x20 ADD DUP5 PUSH1 0x2 DUP5 PUSH1 0x4 PUSH2 0x774 SWAP2 SWAP1 PUSH2 0x3B45 JUMP JUMPDEST PUSH2 0x77E SWAP2 SWAP1 PUSH2 0x3CFB JUMP JUMPDEST PUSH1 0x2C DUP2 LT PUSH2 0x78F JUMPI PUSH2 0x78E PUSH2 0x3C46 JUMP JUMPDEST JUMPDEST PUSH1 0x20 MUL ADD MLOAD DUP2 MSTORE PUSH1 0x20 ADD DUP5 PUSH1 0x3 DUP5 PUSH1 0x4 PUSH2 0x7A9 SWAP2 SWAP1 PUSH2 0x3B45 JUMP JUMPDEST PUSH2 0x7B3 SWAP2 SWAP1 PUSH2 0x3CFB JUMP JUMPDEST PUSH1 0x2C DUP2 LT PUSH2 0x7C4 JUMPI PUSH2 0x7C3 PUSH2 0x3C46 JUMP JUMPDEST JUMPDEST PUSH1 0x20 MUL ADD MLOAD DUP2 MSTORE POP SWAP2 POP PUSH2 0x7D8 DUP5 DUP4 PUSH2 0x1926 JUMP JUMPDEST SWAP4 POP PUSH2 0x7E3 DUP5 PUSH2 0x1E1C JUMP JUMPDEST SWAP4 POP DUP1 DUP1 PUSH2 0x7F0 SWAP1 PUSH2 0x3D2E JUMP JUMPDEST SWAP2 POP POP PUSH2 0x6DD JUMP JUMPDEST POP PUSH2 0x802 DUP4 PUSH2 0x1A03 JUMP JUMPDEST SWAP3 POP PUSH2 0x80D DUP4 PUSH2 0x1D43 JUMP JUMPDEST SWAP3 POP PUSH1 0x40 MLOAD DUP1 PUSH1 0x80 ADD PUSH1 0x40 MSTORE DUP1 DUP4 PUSH0 PUSH1 0x2C DUP2 LT PUSH2 0x82D JUMPI PUSH2 0x82C PUSH2 0x3C46 JUMP JUMPDEST JUMPDEST PUSH1 0x20 MUL ADD MLOAD DUP2 MSTORE PUSH1 0x20 ADD DUP4 PUSH1 0x1 PUSH1 0x2C DUP2 LT PUSH2 0x84B JUMPI PUSH2 0x84A PUSH2 0x3C46 JUMP JUMPDEST JUMPDEST PUSH1 0x20 MUL ADD MLOAD DUP2 MSTORE PUSH1 0x20 ADD DUP4 PUSH1 0x2 PUSH1 0x2C DUP2 LT PUSH2 0x869 JUMPI PUSH2 0x868 PUSH2 0x3C46 JUMP JUMPDEST JUMPDEST PUSH1 0x20 MUL ADD MLOAD DUP2 MSTORE PUSH1 0x20 ADD DUP4 PUSH1 0x3 PUSH1 0x2C DUP2 LT PUSH2 0x887 JUMPI PUSH2 0x886 PUSH2 0x3C46 JUMP JUMPDEST JUMPDEST PUSH1 0x20 MUL ADD MLOAD DUP2 MSTORE POP SWAP1 POP PUSH2 0x89B DUP4 DUP3 PUSH2 0x1926 JUMP JUMPDEST SWAP3 POP PUSH0 PUSH1 0x40 MLOAD DUP1 PUSH2 0x200 ADD PUSH1 0x40 MSTORE DUP1 PUSH0 PUSH1 0xFF AND DUP2 MSTORE PUSH1 0x20 ADD PUSH0 PUSH1 0xFF AND DUP2 MSTORE PUSH1 0x20 ADD PUSH0 PUSH1 0xFF AND DUP2 MSTORE PUSH1 0x20 ADD PUSH0 PUSH1 0xFF AND DUP2 MSTORE PUSH1 0x20 ADD PUSH0 PUSH1 0xFF AND DUP2 MSTORE PUSH1 0x20 ADD PUSH0 PUSH1 0xFF AND DUP2 MSTORE PUSH1 0x20 ADD PUSH0 PUSH1 0xFF AND DUP2 MSTORE PUSH1 0x20 ADD PUSH0 PUSH1 0xFF AND DUP2 MSTORE PUSH1 0x20 ADD PUSH0 PUSH1 0xFF AND DUP2 MSTORE PUSH1 0x20 ADD PUSH0 PUSH1 0xFF AND DUP2 MSTORE PUSH1 0x20 ADD PUSH0 PUSH1 0xFF AND DUP2 MSTORE PUSH1 0x20 ADD PUSH0 PUSH1 0xFF AND DUP2 MSTORE PUSH1 0x20 ADD PUSH0 PUSH1 0xFF AND DUP2 MSTORE PUSH1 0x20 ADD PUSH0 PUSH1 0xFF AND DUP2 MSTORE PUSH1 0x20 ADD PUSH0 PUSH1 0xFF AND DUP2 MSTORE PUSH1 0x20 ADD PUSH0 PUSH1 0xFF AND DUP2 MSTORE POP SWAP1 POP PUSH0 JUMPDEST PUSH1 0x4 DUP2 LT ISZERO PUSH2 0x9D5 JUMPI PUSH0 JUMPDEST PUSH1 0x4 DUP2 LT ISZERO PUSH2 0x9C7 JUMPI DUP6 DUP2 PUSH1 0x4 DUP2 LT PUSH2 0x963 JUMPI PUSH2 0x962 PUSH2 0x3C46 JUMP JUMPDEST JUMPDEST PUSH1 0x20 MUL ADD MLOAD DUP3 PUSH1 0x4 DUP2 LT PUSH2 0x97A JUMPI PUSH2 0x979 PUSH2 0x3C46 JUMP JUMPDEST JUMPDEST PUSH1 0x20 MUL ADD MLOAD DUP4 DUP3 DUP5 PUSH1 0x4 PUSH2 0x98E SWAP2 SWAP1 PUSH2 0x3B45 JUMP JUMPDEST PUSH2 0x998 SWAP2 SWAP1 PUSH2 0x3CFB JUMP JUMPDEST PUSH1 0x10 DUP2 LT PUSH2 0x9A9 JUMPI PUSH2 0x9A8 PUSH2 0x3C46 JUMP JUMPDEST JUMPDEST PUSH1 0x20 MUL ADD SWAP1 PUSH1 0xFF AND SWAP1 DUP2 PUSH1 0xFF AND DUP2 MSTORE POP POP DUP1 DUP1 PUSH1 0x1 ADD SWAP2 POP POP PUSH2 0x947 JUMP JUMPDEST POP DUP1 DUP1 PUSH1 0x1 ADD SWAP2 POP POP PUSH2 0x93C JUMP JUMPDEST POP DUP1 SWAP5 POP POP POP POP POP SWAP3 SWAP2 POP POP JUMP JUMPDEST PUSH2 0x9EB PUSH2 0x3235 JUMP JUMPDEST PUSH0 PUSH1 0x40 MLOAD DUP1 PUSH1 0x80 ADD PUSH1 0x40 MSTORE DUP1 PUSH1 0x40 MLOAD DUP1 PUSH1 0x80 ADD PUSH1 0x40 MSTORE DUP1 DUP8 PUSH0 PUSH1 0x10 DUP2 LT PUSH2 0xA15 JUMPI PUSH2 0xA14 PUSH2 0x3C46 JUMP JUMPDEST JUMPDEST PUSH1 0x20 MUL ADD MLOAD PUSH1 0xFF AND PUSH1 0xFF AND DUP2 MSTORE PUSH1 0x20 ADD DUP8 PUSH1 0x4 PUSH1 0x10 DUP2 LT PUSH2 0xA39 JUMPI PUSH2 0xA38 PUSH2 0x3C46 JUMP JUMPDEST JUMPDEST PUSH1 0x20 MUL ADD MLOAD PUSH1 0xFF AND PUSH1 0xFF AND DUP2 MSTORE PUSH1 0x20 ADD DUP8 PUSH1 0x8 PUSH1 0x10 DUP2 LT PUSH2 0xA5D JUMPI PUSH2 0xA5C PUSH2 0x3C46 JUMP JUMPDEST JUMPDEST PUSH1 0x20 MUL ADD MLOAD PUSH1 0xFF AND PUSH1 0xFF AND DUP2 MSTORE PUSH1 0x20 ADD DUP8 PUSH1 0xC PUSH1 0x10 DUP2 LT PUSH2 0xA81 JUMPI PUSH2 0xA80 PUSH2 0x3C46 JUMP JUMPDEST JUMPDEST PUSH1 0x20 MUL ADD MLOAD PUSH1 0xFF AND PUSH1 0xFF AND DUP2 MSTORE POP DUP2 MSTORE PUSH1 0x20 ADD PUSH1 0x40 MLOAD DUP1 PUSH1 0x80 ADD PUSH1 0x40 MSTORE DUP1 DUP8 PUSH1 0x1 PUSH1 0x10 DUP2 LT PUSH2 0xAB3 JUMPI PUSH2 0xAB2 PUSH2 0x3C46 JUMP JUMPDEST JUMPDEST PUSH1 0x20 MUL ADD MLOAD PUSH1 0xFF AND PUSH1 0xFF AND DUP2 MSTORE PUSH1 0x20 ADD DUP8 PUSH1 0x5 PUSH1 0x10 DUP2 LT PUSH2 0xAD7 JUMPI PUSH2 0xAD6 PUSH2 0x3C46 JUMP JUMPDEST JUMPDEST PUSH1 0x20 MUL ADD MLOAD PUSH1 0xFF AND PUSH1 0xFF AND DUP2 MSTORE PUSH1 0x20 ADD DUP8 PUSH1 0x9 PUSH1 0x10 DUP2 LT PUSH2 0xAFB JUMPI PUSH2 0xAFA PUSH2 0x3C46 JUMP JUMPDEST JUMPDEST PUSH1 0x20 MUL ADD MLOAD PUSH1 0xFF AND PUSH1 0xFF AND DUP2 MSTORE PUSH1 0x20 ADD DUP8 PUSH1 0xD PUSH1 0x10 DUP2 LT PUSH2 0xB1F JUMPI PUSH2 0xB1E PUSH2 0x3C46 JUMP JUMPDEST JUMPDEST PUSH1 0x20 MUL ADD MLOAD PUSH1 0xFF AND PUSH1 0xFF AND DUP2 MSTORE POP DUP2 MSTORE PUSH1 0x20 ADD PUSH1 0x40 MLOAD DUP1 PUSH1 0x80 ADD PUSH1 0x40 MSTORE DUP1 DUP8 PUSH1 0x2 PUSH1 0x10 DUP2 LT PUSH2 0xB51 JUMPI PUSH2 0xB50 PUSH2 0x3C46 JUMP JUMPDEST JUMPDEST PUSH1 0x20 MUL ADD MLOAD PUSH1 0xFF AND PUSH1 0xFF AND DUP2 MSTORE PUSH1 0x20 ADD DUP8 PUSH1 0x6 PUSH1 0x10 DUP2 LT PUSH2 0xB75 JUMPI PUSH2 0xB74 PUSH2 0x3C46 JUMP JUMPDEST JUMPDEST PUSH1 0x20 MUL ADD MLOAD PUSH1 0xFF AND PUSH1 0xFF AND DUP2 MSTORE PUSH1 0x20 ADD DUP8 PUSH1 0xA PUSH1 0x10 DUP2 LT PUSH2 0xB99 JUMPI PUSH2 0xB98 PUSH2 0x3C46 JUMP JUMPDEST JUMPDEST PUSH1 0x20 MUL ADD MLOAD PUSH1 0xFF AND PUSH1 0xFF AND DUP2 MSTORE PUSH1 0x20 ADD DUP8 PUSH1 0xE PUSH1 0x10 DUP2 LT PUSH2 0xBBD JUMPI PUSH2 0xBBC PUSH2 0x3C46 JUMP JUMPDEST JUMPDEST PUSH1 0x20 MUL ADD MLOAD PUSH1 0xFF AND PUSH1 0xFF AND DUP2 MSTORE POP DUP2 MSTORE PUSH1 0x20 ADD PUSH1 0x40 MLOAD DUP1 PUSH1 0x80 ADD PUSH1 0x40 MSTORE DUP1 DUP8 PUSH1 0x3 PUSH1 0x10 DUP2 LT PUSH2 0xBEF JUMPI PUSH2 0xBEE PUSH2 0x3C46 JUMP JUMPDEST JUMPDEST PUSH1 0x20 MUL ADD MLOAD PUSH1 0xFF AND PUSH1 0xFF AND DUP2 MSTORE PUSH1 0x20 ADD DUP8 PUSH1 0x7 PUSH1 0x10 DUP2 LT PUSH2 0xC13 JUMPI PUSH2 0xC12 PUSH2 0x3C46 JUMP JUMPDEST JUMPDEST PUSH1 0x20 MUL ADD MLOAD PUSH1 0xFF AND PUSH1 0xFF AND DUP2 MSTORE PUSH1 0x20 ADD DUP8 PUSH1 0xB PUSH1 0x10 DUP2 LT PUSH2 0xC37 JUMPI PUSH2 0xC36 PUSH2 0x3C46 JUMP JUMPDEST JUMPDEST PUSH1 0x20 MUL ADD MLOAD PUSH1 0xFF AND PUSH1 0xFF AND DUP2 MSTORE PUSH1 0x20 ADD DUP8 PUSH1 0xF PUSH1 0x10 DUP2 LT PUSH2 0xC5B JUMPI PUSH2 0xC5A PUSH2 0x3C46 JUMP JUMPDEST JUMPDEST PUSH1 0x20 MUL ADD MLOAD PUSH1 0xFF AND PUSH1 0xFF AND DUP2 MSTORE POP DUP2 MSTORE POP SWAP1 POP PUSH0 PUSH2 0xC78 DUP5 PUSH2 0x1132 JUMP JUMPDEST SWAP1 POP PUSH0 PUSH1 0x40 MLOAD DUP1 PUSH1 0x80 ADD PUSH1 0x40 MSTORE DUP1 DUP4 PUSH0 PUSH1 0x2C DUP2 LT PUSH2 0xC99 JUMPI PUSH2 0xC98 PUSH2 0x3C46 JUMP JUMPDEST JUMPDEST PUSH1 0x20 MUL ADD MLOAD DUP2 MSTORE PUSH1 0x20 ADD DUP4 PUSH1 0x1 PUSH1 0x2C DUP2 LT PUSH2 0xCB7 JUMPI PUSH2 0xCB6 PUSH2 0x3C46 JUMP JUMPDEST JUMPDEST PUSH1 0x20 MUL ADD MLOAD DUP2 MSTORE PUSH1 0x20 ADD DUP4 PUSH1 0x2 PUSH1 0x2C DUP2 LT PUSH2 0xCD5 JUMPI PUSH2 0xCD4 PUSH2 0x3C46 JUMP JUMPDEST JUMPDEST PUSH1 0x20 MUL ADD MLOAD DUP2 MSTORE PUSH1 0x20 ADD DUP4 PUSH1 0x3 PUSH1 0x2C DUP2 LT PUSH2 0xCF3 JUMPI PUSH2 0xCF2 PUSH2 0x3C46 JUMP JUMPDEST JUMPDEST PUSH1 0x20 MUL ADD MLOAD DUP2 MSTORE POP SWAP1 POP PUSH2 0xD07 DUP4 DUP3 PUSH2 0x1926 JUMP JUMPDEST SWAP3 POP PUSH2 0xD12 DUP4 PUSH2 0x2434 JUMP JUMPDEST SWAP3 POP PUSH2 0xD1D DUP4 PUSH2 0x250D JUMP JUMPDEST SWAP3 POP PUSH0 PUSH1 0x1 SWAP1 POP JUMPDEST PUSH1 0x9 DUP2 GT PUSH2 0xE40 JUMPI PUSH2 0xD36 DUP5 PUSH2 0x284D JUMP JUMPDEST SWAP4 POP PUSH1 0x40 MLOAD DUP1 PUSH1 0x80 ADD PUSH1 0x40 MSTORE DUP1 DUP5 DUP4 PUSH1 0x4 PUSH2 0xD51 SWAP2 SWAP1 PUSH2 0x3B45 JUMP JUMPDEST PUSH1 0x2C DUP2 LT PUSH2 0xD62 JUMPI PUSH2 0xD61 PUSH2 0x3C46 JUMP JUMPDEST JUMPDEST PUSH1 0x20 MUL ADD MLOAD DUP2 MSTORE PUSH1 0x20 ADD DUP5 PUSH1 0x1 DUP5 PUSH1 0x4 PUSH2 0xD7C SWAP2 SWAP1 PUSH2 0x3B45 JUMP JUMPDEST PUSH2 0xD86 SWAP2 SWAP1 PUSH2 0x3CFB JUMP JUMPDEST PUSH1 0x2C DUP2 LT PUSH2 0xD97 JUMPI PUSH2 0xD96 PUSH2 0x3C46 JUMP JUMPDEST JUMPDEST PUSH1 0x20 MUL ADD MLOAD DUP2 MSTORE PUSH1 0x20 ADD DUP5 PUSH1 0x2 DUP5 PUSH1 0x4 PUSH2 0xDB1 SWAP2 SWAP1 PUSH2 0x3B45 JUMP JUMPDEST PUSH2 0xDBB SWAP2 SWAP1 PUSH2 0x3CFB JUMP JUMPDEST PUSH1 0x2C DUP2 LT PUSH2 0xDCC JUMPI PUSH2 0xDCB PUSH2 0x3C46 JUMP JUMPDEST JUMPDEST PUSH1 0x20 MUL ADD MLOAD DUP2 MSTORE PUSH1 0x20 ADD DUP5 PUSH1 0x3 DUP5 PUSH1 0x4 PUSH2 0xDE6 SWAP2 SWAP1 PUSH2 0x3B45 JUMP JUMPDEST PUSH2 0xDF0 SWAP2 SWAP1 PUSH2 0x3CFB JUMP JUMPDEST PUSH1 0x2C DUP2 LT PUSH2 0xE01 JUMPI PUSH2 0xE00 PUSH2 0x3C46 JUMP JUMPDEST JUMPDEST PUSH1 0x20 MUL ADD MLOAD DUP2 MSTORE POP SWAP2 POP PUSH2 0xE15 DUP5 DUP4 PUSH2 0x1926 JUMP JUMPDEST SWAP4 POP PUSH2 0xE20 DUP5 PUSH2 0x2434 JUMP JUMPDEST SWAP4 POP PUSH2 0xE2B DUP5 PUSH2 0x250D JUMP JUMPDEST SWAP4 POP DUP1 DUP1 PUSH2 0xE38 SWAP1 PUSH2 0x3D55 JUMP JUMPDEST SWAP2 POP POP PUSH2 0xD25 JUMP JUMPDEST POP PUSH1 0x40 MLOAD DUP1 PUSH1 0x80 ADD PUSH1 0x40 MSTORE DUP1 DUP4 PUSH1 0x28 PUSH1 0x2C DUP2 LT PUSH2 0xE60 JUMPI PUSH2 0xE5F PUSH2 0x3C46 JUMP JUMPDEST JUMPDEST PUSH1 0x20 MUL ADD MLOAD DUP2 MSTORE PUSH1 0x20 ADD DUP4 PUSH1 0x29 PUSH1 0x2C DUP2 LT PUSH2 0xE7E JUMPI PUSH2 0xE7D PUSH2 0x3C46 JUMP JUMPDEST JUMPDEST PUSH1 0x20 MUL ADD MLOAD DUP2 MSTORE PUSH1 0x20 ADD DUP4 PUSH1 0x2A PUSH1 0x2C DUP2 LT PUSH2 0xE9C JUMPI PUSH2 0xE9B PUSH2 0x3C46 JUMP JUMPDEST JUMPDEST PUSH1 0x20 MUL ADD MLOAD DUP2 MSTORE PUSH1 0x20 ADD DUP4 PUSH1 0x2B PUSH1 0x2C DUP2 LT PUSH2 0xEBA JUMPI PUSH2 0xEB9 PUSH2 0x3C46 JUMP JUMPDEST JUMPDEST PUSH1 0x20 MUL ADD MLOAD DUP2 MSTORE POP SWAP1 POP PUSH2 0xECE DUP4 DUP3 PUSH2 0x1926 JUMP JUMPDEST SWAP3 POP PUSH0 PUSH1 0x40 MLOAD DUP1 PUSH2 0x200 ADD PUSH1 0x40 MSTORE DUP1 PUSH0 PUSH1 0xFF AND DUP2 MSTORE PUSH1 0x20 ADD PUSH0 PUSH1 0xFF AND DUP2 MSTORE PUSH1 0x20 ADD PUSH0 PUSH1 0xFF AND DUP2 MSTORE PUSH1 0x20 ADD PUSH0 PUSH1 0xFF AND DUP2 MSTORE PUSH1 0x20 ADD PUSH0 PUSH1 0xFF AND DUP2 MSTORE PUSH1 0x20 ADD PUSH0 PUSH1 0xFF AND DUP2 MSTORE PUSH1 0x20 ADD PUSH0 PUSH1 0xFF AND DUP2 MSTORE PUSH1 0x20 ADD PUSH0 PUSH1 0xFF AND DUP2 MSTORE PUSH1 0x20 ADD PUSH0 PUSH1 0xFF AND DUP2 MSTORE PUSH1 0x20 ADD PUSH0 PUSH1 0xFF AND DUP2 MSTORE PUSH1 0x20 ADD PUSH0 PUSH1 0xFF AND DUP2 MSTORE PUSH1 0x20 ADD PUSH0 PUSH1 0xFF AND DUP2 MSTORE PUSH1 0x20 ADD PUSH0 PUSH1 0xFF AND DUP2 MSTORE PUSH1 0x20 ADD PUSH0 PUSH1 0xFF AND DUP2 MSTORE PUSH1 0x20 ADD PUSH0 PUSH1 0xFF AND DUP2 MSTORE PUSH1 0x20 ADD PUSH0 PUSH1 0xFF AND DUP2 MSTORE POP SWAP1 POP PUSH0 JUMPDEST PUSH1 0x4 DUP2 LT ISZERO PUSH2 0x1008 JUMPI PUSH0 JUMPDEST PUSH1 0x4 DUP2 LT ISZERO PUSH2 0xFFA JUMPI DUP6 DUP2 PUSH1 0x4 DUP2 LT PUSH2 0xF96 JUMPI PUSH2 0xF95 PUSH2 0x3C46 JUMP JUMPDEST JUMPDEST PUSH1 0x20 MUL ADD MLOAD DUP3 PUSH1 0x4 DUP2 LT PUSH2 0xFAD JUMPI PUSH2 0xFAC PUSH2 0x3C46 JUMP JUMPDEST JUMPDEST PUSH1 0x20 MUL ADD MLOAD DUP4 DUP3 DUP5 PUSH1 0x4 PUSH2 0xFC1 SWAP2 SWAP1 PUSH2 0x3B45 JUMP JUMPDEST PUSH2 0xFCB SWAP2 SWAP1 PUSH2 0x3CFB JUMP JUMPDEST PUSH1 0x10 DUP2 LT PUSH2 0xFDC JUMPI PUSH2 0xFDB PUSH2 0x3C46 JUMP JUMPDEST JUMPDEST PUSH1 0x20 MUL ADD SWAP1 PUSH1 0xFF AND SWAP1 DUP2 PUSH1 0xFF AND DUP2 MSTORE POP POP DUP1 DUP1 PUSH1 0x1 ADD SWAP2 POP POP PUSH2 0xF7A JUMP JUMPDEST POP DUP1 DUP1 PUSH1 0x1 ADD SWAP2 POP POP PUSH2 0xF6F JUMP JUMPDEST POP DUP1 SWAP5 POP POP POP POP POP SWAP3 SWAP2 POP POP JUMP JUMPDEST PUSH1 0x60 DUP2 PUSH1 0x1F DUP4 PUSH2 0x1026 SWAP2 SWAP1 PUSH2 0x3CFB JUMP JUMPDEST LT ISZERO PUSH2 0x1067 JUMPI PUSH1 0x40 MLOAD PUSH32 0x8C379A000000000000000000000000000000000000000000000000000000000 DUP2 MSTORE PUSH1 0x4 ADD PUSH2 0x105E SWAP1 PUSH2 0x3DF6 JUMP JUMPDEST PUSH1 0x40 MLOAD DUP1 SWAP2 SUB SWAP1 REVERT JUMPDEST DUP2 DUP4 PUSH2 0x1073 SWAP2 SWAP1 PUSH2 0x3CFB JUMP JUMPDEST DUP5 MLOAD LT ISZERO PUSH2 0x10B6 JUMPI PUSH1 0x40 MLOAD PUSH32 0x8C379A000000000000000000000000000000000000000000000000000000000 DUP2 MSTORE PUSH1 0x4 ADD PUSH2 0x10AD SWAP1 PUSH2 0x3E5E JUMP JUMPDEST PUSH1 0x40 MLOAD DUP1 SWAP2 SUB SWAP1 REVERT JUMPDEST PUSH1 0x60 DUP3 ISZERO PUSH0 DUP2 EQ PUSH2 0x10D5 JUMPI PUSH1 0x40 MLOAD SWAP2 POP PUSH0 DUP3 MSTORE PUSH1 0x20 DUP3 ADD PUSH1 0x40 MSTORE PUSH2 0x1126 JUMP JUMPDEST PUSH1 0x40 MLOAD SWAP2 POP PUSH1 0x1F DUP5 AND DUP1 ISZERO PUSH1 0x20 MUL DUP2 DUP5 ADD ADD DUP6 DUP2 ADD DUP8 DUP4 ISZERO PUSH1 0x20 MUL DUP5 DUP12 ADD ADD ADD JUMPDEST DUP2 DUP4 LT ISZERO PUSH2 0x1113 JUMPI DUP1 MLOAD DUP4 MSTORE PUSH1 0x20 DUP4 ADD SWAP3 POP PUSH1 0x20 DUP2 ADD SWAP1 POP PUSH2 0x10F6 JUMP JUMPDEST POP DUP7 DUP6 MSTORE PUSH1 0x1F NOT PUSH1 0x1F DUP4 ADD AND PUSH1 0x40 MSTORE POP POP POP JUMPDEST POP DUP1 SWAP2 POP POP SWAP4 SWAP3 POP POP POP JUMP JUMPDEST PUSH2 0x113A PUSH2 0x3258 JUMP JUMPDEST PUSH2 0x1142 PUSH2 0x3258 JUMP JUMPDEST DUP3 PUSH0 PUSH1 0x10 DUP2 LT PUSH2 0x1155 JUMPI PUSH2 0x1154 PUSH2 0x3C46 JUMP JUMPDEST JUMPDEST PUSH1 0x20 MUL ADD MLOAD DUP2 PUSH0 PUSH1 0x2C DUP2 LT PUSH2 0x116D JUMPI PUSH2 0x116C PUSH2 0x3C46 JUMP JUMPDEST JUMPDEST PUSH1 0x20 MUL ADD MLOAD PUSH0 PUSH1 0x4 DUP2 LT PUSH2 0x1184 JUMPI PUSH2 0x1183 PUSH2 0x3C46 JUMP JUMPDEST JUMPDEST PUSH1 0x20 MUL ADD SWAP1 PUSH1 0xFF AND SWAP1 DUP2 PUSH1 0xFF AND DUP2 MSTORE POP POP DUP3 PUSH1 0x1 PUSH1 0x10 DUP2 LT PUSH2 0x11A9 JUMPI PUSH2 0x11A8 PUSH2 0x3C46 JUMP JUMPDEST JUMPDEST PUSH1 0x20 MUL ADD MLOAD DUP2 PUSH0 PUSH1 0x2C DUP2 LT PUSH2 0x11C1 JUMPI PUSH2 0x11C0 PUSH2 0x3C46 JUMP JUMPDEST JUMPDEST PUSH1 0x20 MUL ADD MLOAD PUSH1 0x1 PUSH1 0x4 DUP2 LT PUSH2 0x11D9 JUMPI PUSH2 0x11D8 PUSH2 0x3C46 JUMP JUMPDEST JUMPDEST PUSH1 0x20 MUL ADD SWAP1 PUSH1 0xFF AND SWAP1 DUP2 PUSH1 0xFF AND DUP2 MSTORE POP POP DUP3 PUSH1 0x2 PUSH1 0x10 DUP2 LT PUSH2 0x11FE JUMPI PUSH2 0x11FD PUSH2 0x3C46 JUMP JUMPDEST JUMPDEST PUSH1 0x20 MUL ADD MLOAD DUP2 PUSH0 PUSH1 0x2C DUP2 LT PUSH2 0x1216 JUMPI PUSH2 0x1215 PUSH2 0x3C46 JUMP JUMPDEST JUMPDEST PUSH1 0x20 MUL ADD MLOAD PUSH1 0x2 PUSH1 0x4 DUP2 LT PUSH2 0x122E JUMPI PUSH2 0x122D PUSH2 0x3C46 JUMP JUMPDEST JUMPDEST PUSH1 0x20 MUL ADD SWAP1 PUSH1 0xFF AND SWAP1 DUP2 PUSH1 0xFF AND DUP2 MSTORE POP POP DUP3 PUSH1 0x3 PUSH1 0x10 DUP2 LT PUSH2 0x1253 JUMPI PUSH2 0x1252 PUSH2 0x3C46 JUMP JUMPDEST JUMPDEST PUSH1 0x20 MUL ADD MLOAD DUP2 PUSH0 PUSH1 0x2C DUP2 LT PUSH2 0x126B JUMPI PUSH2 0x126A PUSH2 0x3C46 JUMP JUMPDEST JUMPDEST PUSH1 0x20 MUL ADD MLOAD PUSH1 0x3 PUSH1 0x4 DUP2 LT PUSH2 0x1283 JUMPI PUSH2 0x1282 PUSH2 0x3C46 JUMP JUMPDEST JUMPDEST PUSH1 0x20 MUL ADD SWAP1 PUSH1 0xFF AND SWAP1 DUP2 PUSH1 0xFF AND DUP2 MSTORE POP POP DUP3 PUSH1 0x4 PUSH1 0x10 DUP2 LT PUSH2 0x12A8 JUMPI PUSH2 0x12A7 PUSH2 0x3C46 JUMP JUMPDEST JUMPDEST PUSH1 0x20 MUL ADD MLOAD DUP2 PUSH1 0x1 PUSH1 0x2C DUP2 LT PUSH2 0x12C1 JUMPI PUSH2 0x12C0 PUSH2 0x3C46 JUMP JUMPDEST JUMPDEST PUSH1 0x20 MUL ADD MLOAD PUSH0 PUSH1 0x4 DUP2 LT PUSH2 0x12D8 JUMPI PUSH2 0x12D7 PUSH2 0x3C46 JUMP JUMPDEST JUMPDEST PUSH1 0x20 MUL ADD SWAP1 PUSH1 0xFF AND SWAP1 DUP2 PUSH1 0xFF AND DUP2 MSTORE POP POP DUP3 PUSH1 0x5 PUSH1 0x10 DUP2 LT PUSH2 0x12FD JUMPI PUSH2 0x12FC PUSH2 0x3C46 JUMP JUMPDEST JUMPDEST PUSH1 0x20 MUL ADD MLOAD DUP2 PUSH1 0x1 PUSH1 0x2C DUP2 LT PUSH2 0x1316 JUMPI PUSH2 0x1315 PUSH2 0x3C46 JUMP JUMPDEST JUMPDEST PUSH1 0x20 MUL ADD MLOAD PUSH1 0x1 PUSH1 0x4 DUP2 LT PUSH2 0x132E JUMPI PUSH2 0x132D PUSH2 0x3C46 JUMP JUMPDEST JUMPDEST PUSH1 0x20 MUL ADD SWAP1 PUSH1 0xFF AND SWAP1 DUP2 PUSH1 0xFF AND DUP2 MSTORE POP POP DUP3 PUSH1 0x6 PUSH1 0x10 DUP2 LT PUSH2 0x1353 JUMPI PUSH2 0x1352 PUSH2 0x3C46 JUMP JUMPDEST JUMPDEST PUSH1 0x20 MUL ADD MLOAD DUP2 PUSH1 0x1 PUSH1 0x2C DUP2 LT PUSH2 0x136C JUMPI PUSH2 0x136B PUSH2 0x3C46 JUMP JUMPDEST JUMPDEST PUSH1 0x20 MUL ADD MLOAD PUSH1 0x2 PUSH1 0x4 DUP2 LT PUSH2 0x1384 JUMPI PUSH2 0x1383 PUSH2 0x3C46 JUMP JUMPDEST JUMPDEST PUSH1 0x20 MUL ADD SWAP1 PUSH1 0xFF AND SWAP1 DUP2 PUSH1 0xFF AND DUP2 MSTORE POP POP DUP3 PUSH1 0x7 PUSH1 0x10 DUP2 LT PUSH2 0x13A9 JUMPI PUSH2 0x13A8 PUSH2 0x3C46 JUMP JUMPDEST JUMPDEST PUSH1 0x20 MUL ADD MLOAD DUP2 PUSH1 0x1 PUSH1 0x2C DUP2 LT PUSH2 0x13C2 JUMPI PUSH2 0x13C1 PUSH2 0x3C46 JUMP JUMPDEST JUMPDEST PUSH1 0x20 MUL ADD MLOAD PUSH1 0x3 PUSH1 0x4 DUP2 LT PUSH2 0x13DA JUMPI PUSH2 0x13D9 PUSH2 0x3C46 JUMP JUMPDEST JUMPDEST PUSH1 0x20 MUL ADD SWAP1 PUSH1 0xFF AND SWAP1 DUP2 PUSH1 0xFF AND DUP2 MSTORE POP POP DUP3 PUSH1 0x8 PUSH1 0x10 DUP2 LT PUSH2 0x13FF JUMPI PUSH2 0x13FE PUSH2 0x3C46 JUMP JUMPDEST JUMPDEST PUSH1 0x20 MUL ADD MLOAD DUP2 PUSH1 0x2 PUSH1 0x2C DUP2 LT PUSH2 0x1418 JUMPI PUSH2 0x1417 PUSH2 0x3C46 JUMP JUMPDEST JUMPDEST PUSH1 0x20 MUL ADD MLOAD PUSH0 PUSH1 0x4 DUP2 LT PUSH2 0x142F JUMPI PUSH2 0x142E PUSH2 0x3C46 JUMP JUMPDEST JUMPDEST PUSH1 0x20 MUL ADD SWAP1 PUSH1 0xFF AND SWAP1 DUP2 PUSH1 0xFF AND DUP2 MSTORE POP POP DUP3 PUSH1 0x9 PUSH1 0x10 DUP2 LT PUSH2 0x1454 JUMPI PUSH2 0x1453 PUSH2 0x3C46 JUMP JUMPDEST JUMPDEST PUSH1 0x20 MUL ADD MLOAD DUP2 PUSH1 0x2 PUSH1 0x2C DUP2 LT PUSH2 0x146D JUMPI PUSH2 0x146C PUSH2 0x3C46 JUMP JUMPDEST JUMPDEST PUSH1 0x20 MUL ADD MLOAD PUSH1 0x1 PUSH1 0x4 DUP2 LT PUSH2 0x1485 JUMPI PUSH2 0x1484 PUSH2 0x3C46 JUMP JUMPDEST JUMPDEST PUSH1 0x20 MUL ADD SWAP1 PUSH1 0xFF AND SWAP1 DUP2 PUSH1 0xFF AND DUP2 MSTORE POP POP DUP3 PUSH1 0xA PUSH1 0x10 DUP2 LT PUSH2 0x14AA JUMPI PUSH2 0x14A9 PUSH2 0x3C46 JUMP JUMPDEST JUMPDEST PUSH1 0x20 MUL ADD MLOAD DUP2 PUSH1 0x2 PUSH1 0x2C DUP2 LT PUSH2 0x14C3 JUMPI PUSH2 0x14C2 PUSH2 0x3C46 JUMP JUMPDEST JUMPDEST PUSH1 0x20 MUL ADD MLOAD PUSH1 0x2 PUSH1 0x4 DUP2 LT PUSH2 0x14DB JUMPI PUSH2 0x14DA PUSH2 0x3C46 JUMP JUMPDEST JUMPDEST PUSH1 0x20 MUL ADD SWAP1 PUSH1 0xFF AND SWAP1 DUP2 PUSH1 0xFF AND DUP2 MSTORE POP POP DUP3 PUSH1 0xB PUSH1 0x10 DUP2 LT PUSH2 0x1500 JUMPI PUSH2 0x14FF PUSH2 0x3C46 JUMP JUMPDEST JUMPDEST PUSH1 0x20 MUL ADD MLOAD DUP2 PUSH1 0x2 PUSH1 0x2C DUP2 LT PUSH2 0x1519 JUMPI PUSH2 0x1518 PUSH2 0x3C46 JUMP JUMPDEST JUMPDEST PUSH1 0x20 MUL ADD MLOAD PUSH1 0x3 PUSH1 0x4 DUP2 LT PUSH2 0x1531 JUMPI PUSH2 0x1530 PUSH2 0x3C46 JUMP JUMPDEST JUMPDEST PUSH1 0x20 MUL ADD SWAP1 PUSH1 0xFF AND SWAP1 DUP2 PUSH1 0xFF AND DUP2 MSTORE POP POP DUP3 PUSH1 0xC PUSH1 0x10 DUP2 LT PUSH2 0x1556 JUMPI PUSH2 0x1555 PUSH2 0x3C46 JUMP JUMPDEST JUMPDEST PUSH1 0x20 MUL ADD MLOAD DUP2 PUSH1 0x3 PUSH1 0x2C DUP2 LT PUSH2 0x156F JUMPI PUSH2 0x156E PUSH2 0x3C46 JUMP JUMPDEST JUMPDEST PUSH1 0x20 MUL ADD MLOAD PUSH0 PUSH1 0x4 DUP2 LT PUSH2 0x1586 JUMPI PUSH2 0x1585 PUSH2 0x3C46 JUMP JUMPDEST JUMPDEST PUSH1 0x20 MUL ADD SWAP1 PUSH1 0xFF AND SWAP1 DUP2 PUSH1 0xFF AND DUP2 MSTORE POP POP DUP3 PUSH1 0xD PUSH1 0x10 DUP2 LT PUSH2 0x15AB JUMPI PUSH2 0x15AA PUSH2 0x3C46 JUMP JUMPDEST JUMPDEST PUSH1 0x20 MUL ADD MLOAD DUP2 PUSH1 0x3 PUSH1 0x2C DUP2 LT PUSH2 0x15C4 JUMPI PUSH2 0x15C3 PUSH2 0x3C46 JUMP JUMPDEST JUMPDEST PUSH1 0x20 MUL ADD MLOAD PUSH1 0x1 PUSH1 0x4 DUP2 LT PUSH2 0x15DC JUMPI PUSH2 0x15DB PUSH2 0x3C46 JUMP JUMPDEST JUMPDEST PUSH1 0x20 MUL ADD SWAP1 PUSH1 0xFF AND SWAP1 DUP2 PUSH1 0xFF AND DUP2 MSTORE POP POP DUP3 PUSH1 0xE PUSH1 0x10 DUP2 LT PUSH2 0x1601 JUMPI PUSH2 0x1600 PUSH2 0x3C46 JUMP JUMPDEST JUMPDEST PUSH1 0x20 MUL ADD MLOAD DUP2 PUSH1 0x3 PUSH1 0x2C DUP2 LT PUSH2 0x161A JUMPI PUSH2 0x1619 PUSH2 0x3C46 JUMP JUMPDEST JUMPDEST PUSH1 0x20 MUL ADD MLOAD PUSH1 0x2 PUSH1 0x4 DUP2 LT PUSH2 0x1632 JUMPI PUSH2 0x1631 PUSH2 0x3C46 JUMP JUMPDEST JUMPDEST PUSH1 0x20 MUL ADD SWAP1 PUSH1 0xFF AND SWAP1 DUP2 PUSH1 0xFF AND DUP2 MSTORE POP POP DUP3 PUSH1 0xF PUSH1 0x10 DUP2 LT PUSH2 0x1657 JUMPI PUSH2 0x1656 PUSH2 0x3C46 JUMP JUMPDEST JUMPDEST PUSH1 0x20 MUL ADD MLOAD DUP2 PUSH1 0x3 PUSH1 0x2C DUP2 LT PUSH2 0x1670 JUMPI PUSH2 0x166F PUSH2 0x3C46 JUMP JUMPDEST JUMPDEST PUSH1 0x20 MUL ADD MLOAD PUSH1 0x3 PUSH1 0x4 DUP2 LT PUSH2 0x1688 JUMPI PUSH2 0x1687 PUSH2 0x3C46 JUMP JUMPDEST JUMPDEST PUSH1 0x20 MUL ADD SWAP1 PUSH1 0xFF AND SWAP1 DUP2 PUSH1 0xFF AND DUP2 MSTORE POP POP PUSH0 PUSH1 0x4 SWAP1 POP JUMPDEST PUSH1 0x2C DUP2 LT ISZERO PUSH2 0x191C JUMPI PUSH0 DUP3 PUSH1 0x1 DUP4 PUSH2 0x16B7 SWAP2 SWAP1 PUSH2 0x3A5A JUMP JUMPDEST PUSH1 0x2C DUP2 LT PUSH2 0x16C8 JUMPI PUSH2 0x16C7 PUSH2 0x3C46 JUMP JUMPDEST JUMPDEST PUSH1 0x20 MUL ADD MLOAD SWAP1 POP PUSH0 PUSH1 0x4 DUP4 PUSH2 0x16DD SWAP2 SWAP1 PUSH2 0x39FD JUMP JUMPDEST SUB PUSH2 0x1768 JUMPI PUSH2 0x16F3 PUSH2 0x16EE DUP3 PUSH2 0x2E65 JUMP JUMPDEST PUSH2 0x2F9C JUMP JUMPDEST SWAP1 POP PUSH0 PUSH1 0x4 DUP4 PUSH2 0x1703 SWAP2 SWAP1 PUSH2 0x3B15 JUMP JUMPDEST PUSH1 0xB DUP2 LT PUSH2 0x1714 JUMPI PUSH2 0x1713 PUSH2 0x3C46 JUMP JUMPDEST JUMPDEST PUSH1 0x20 SWAP2 DUP3 DUP3 DIV ADD SWAP2 SWAP1 MOD SWAP1 SLOAD SWAP1 PUSH2 0x100 EXP SWAP1 DIV PUSH1 0xFF AND DUP2 PUSH0 PUSH1 0x4 DUP2 LT PUSH2 0x173D JUMPI PUSH2 0x173C PUSH2 0x3C46 JUMP JUMPDEST JUMPDEST PUSH1 0x20 MUL ADD MLOAD XOR DUP2 PUSH0 PUSH1 0x4 DUP2 LT PUSH2 0x1756 JUMPI PUSH2 0x1755 PUSH2 0x3C46 JUMP JUMPDEST JUMPDEST PUSH1 0x20 MUL ADD SWAP1 PUSH1 0xFF AND SWAP1 DUP2 PUSH1 0xFF AND DUP2 MSTORE POP POP JUMPDEST PUSH1 0x40 MLOAD DUP1 PUSH1 0x80 ADD PUSH1 0x40 MSTORE DUP1 DUP5 PUSH1 0x4 DUP6 PUSH2 0x1781 SWAP2 SWAP1 PUSH2 0x3A5A JUMP JUMPDEST PUSH1 0x2C DUP2 LT PUSH2 0x1792 JUMPI PUSH2 0x1791 PUSH2 0x3C46 JUMP JUMPDEST JUMPDEST PUSH1 0x20 MUL ADD MLOAD PUSH0 PUSH1 0x4 DUP2 LT PUSH2 0x17A9 JUMPI PUSH2 0x17A8 PUSH2 0x3C46 JUMP JUMPDEST JUMPDEST PUSH1 0x20 MUL ADD MLOAD DUP4 PUSH0 PUSH1 0x4 DUP2 LT PUSH2 0x17C1 JUMPI PUSH2 0x17C0 PUSH2 0x3C46 JUMP JUMPDEST JUMPDEST PUSH1 0x20 MUL ADD MLOAD XOR PUSH1 0xFF AND PUSH1 0xFF AND DUP2 MSTORE PUSH1 0x20 ADD DUP5 PUSH1 0x4 DUP6 PUSH2 0x17E0 SWAP2 SWAP1 PUSH2 0x3A5A JUMP JUMPDEST PUSH1 0x2C DUP2 LT PUSH2 0x17F1 JUMPI PUSH2 0x17F0 PUSH2 0x3C46 JUMP JUMPDEST JUMPDEST PUSH1 0x20 MUL ADD MLOAD PUSH1 0x1 PUSH1 0x4 DUP2 LT PUSH2 0x1809 JUMPI PUSH2 0x1808 PUSH2 0x3C46 JUMP JUMPDEST JUMPDEST PUSH1 0x20 MUL ADD MLOAD DUP4 PUSH1 0x1 PUSH1 0x4 DUP2 LT PUSH2 0x1822 JUMPI PUSH2 0x1821 PUSH2 0x3C46 JUMP JUMPDEST JUMPDEST PUSH1 0x20 MUL ADD MLOAD XOR PUSH1 0xFF AND PUSH1 0xFF AND DUP2 MSTORE PUSH1 0x20 ADD DUP5 PUSH1 0x4 DUP6 PUSH2 0x1841 SWAP2 SWAP1 PUSH2 0x3A5A JUMP JUMPDEST PUSH1 0x2C DUP2 LT PUSH2 0x1852 JUMPI PUSH2 0x1851 PUSH2 0x3C46 JUMP JUMPDEST JUMPDEST PUSH1 0x20 MUL ADD MLOAD PUSH1 0x2 PUSH1 0x4 DUP2 LT PUSH2 0x186A JUMPI PUSH2 0x1869 PUSH2 0x3C46 JUMP JUMPDEST JUMPDEST PUSH1 0x20 MUL ADD MLOAD DUP4 PUSH1 0x2 PUSH1 0x4 DUP2 LT PUSH2 0x1883 JUMPI PUSH2 0x1882 PUSH2 0x3C46 JUMP JUMPDEST JUMPDEST PUSH1 0x20 MUL ADD MLOAD XOR PUSH1 0xFF AND PUSH1 0xFF AND DUP2 MSTORE PUSH1 0x20 ADD DUP5 PUSH1 0x4 DUP6 PUSH2 0x18A2 SWAP2 SWAP1 PUSH2 0x3A5A JUMP JUMPDEST PUSH1 0x2C DUP2 LT PUSH2 0x18B3 JUMPI PUSH2 0x18B2 PUSH2 0x3C46 JUMP JUMPDEST JUMPDEST PUSH1 0x20 MUL ADD MLOAD PUSH1 0x3 PUSH1 0x4 DUP2 LT PUSH2 0x18CB JUMPI PUSH2 0x18CA PUSH2 0x3C46 JUMP JUMPDEST JUMPDEST PUSH1 0x20 MUL ADD MLOAD DUP4 PUSH1 0x3 PUSH1 0x4 DUP2 LT PUSH2 0x18E4 JUMPI PUSH2 0x18E3 PUSH2 0x3C46 JUMP JUMPDEST JUMPDEST PUSH1 0x20 MUL ADD MLOAD XOR PUSH1 0xFF AND PUSH1 0xFF AND DUP2 MSTORE POP DUP4 DUP4 PUSH1 0x2C DUP2 LT PUSH2 0x1906 JUMPI PUSH2 0x1905 PUSH2 0x3C46 JUMP JUMPDEST JUMPDEST PUSH1 0x20 MUL ADD DUP2 SWAP1 MSTORE POP POP DUP1 DUP1 PUSH1 0x1 ADD SWAP2 POP POP PUSH2 0x169F JUMP JUMPDEST POP DUP1 SWAP2 POP POP SWAP2 SWAP1 POP JUMP JUMPDEST PUSH2 0x192E PUSH2 0x3286 JUMP JUMPDEST PUSH0 JUMPDEST PUSH1 0x4 DUP2 LT ISZERO PUSH2 0x19F9 JUMPI PUSH0 JUMPDEST PUSH1 0x4 DUP2 LT ISZERO PUSH2 0x19EB JUMPI DUP4 DUP2 PUSH1 0x4 DUP2 LT PUSH2 0x1957 JUMPI PUSH2 0x1956 PUSH2 0x3C46 JUMP JUMPDEST JUMPDEST PUSH1 0x20 MUL ADD MLOAD DUP3 PUSH1 0x4 DUP2 LT PUSH2 0x196E JUMPI PUSH2 0x196D PUSH2 0x3C46 JUMP JUMPDEST JUMPDEST PUSH1 0x20 MUL ADD MLOAD DUP6 DUP4 PUSH1 0x4 DUP2 LT PUSH2 0x1986 JUMPI PUSH2 0x1985 PUSH2 0x3C46 JUMP JUMPDEST JUMPDEST PUSH1 0x20 MUL ADD MLOAD DUP3 PUSH1 0x4 DUP2 LT PUSH2 0x199D JUMPI PUSH2 0x199C PUSH2 0x3C46 JUMP JUMPDEST JUMPDEST PUSH1 0x20 MUL ADD MLOAD XOR DUP6 DUP4 PUSH1 0x4 DUP2 LT PUSH2 0x19B6 JUMPI PUSH2 0x19B5 PUSH2 0x3C46 JUMP JUMPDEST JUMPDEST PUSH1 0x20 MUL ADD MLOAD DUP3 PUSH1 0x4 DUP2 LT PUSH2 0x19CD JUMPI PUSH2 0x19CC PUSH2 0x3C46 JUMP JUMPDEST JUMPDEST PUSH1 0x20 MUL ADD SWAP1 PUSH1 0xFF AND SWAP1 DUP2 PUSH1 0xFF AND DUP2 MSTORE POP POP DUP1 DUP1 PUSH1 0x1 ADD SWAP2 POP POP PUSH2 0x193B JUMP JUMPDEST POP DUP1 DUP1 PUSH1 0x1 ADD SWAP2 POP POP PUSH2 0x1930 JUMP JUMPDEST POP DUP3 SWAP1 POP SWAP3 SWAP2 POP POP JUMP JUMPDEST PUSH2 0x1A0B PUSH2 0x3286 JUMP JUMPDEST PUSH0 DUP3 PUSH0 PUSH1 0x4 DUP2 LT PUSH2 0x1A1F JUMPI PUSH2 0x1A1E PUSH2 0x3C46 JUMP JUMPDEST JUMPDEST PUSH1 0x20 MUL ADD MLOAD SWAP1 POP PUSH0 PUSH1 0x40 MLOAD DUP1 PUSH1 0x80 ADD PUSH1 0x40 MSTORE DUP1 DUP6 PUSH1 0x1 PUSH1 0x4 DUP2 LT PUSH2 0x1A46 JUMPI PUSH2 0x1A45 PUSH2 0x3C46 JUMP JUMPDEST JUMPDEST PUSH1 0x20 MUL ADD MLOAD PUSH1 0x3 PUSH1 0x4 DUP2 LT PUSH2 0x1A5E JUMPI PUSH2 0x1A5D PUSH2 0x3C46 JUMP JUMPDEST JUMPDEST PUSH1 0x20 MUL ADD MLOAD PUSH1 0xFF AND PUSH1 0xFF AND DUP2 MSTORE PUSH1 0x20 ADD DUP6 PUSH1 0x1 PUSH1 0x4 DUP2 LT PUSH2 0x1A82 JUMPI PUSH2 0x1A81 PUSH2 0x3C46 JUMP JUMPDEST JUMPDEST PUSH1 0x20 MUL ADD MLOAD PUSH0 PUSH1 0x4 DUP2 LT PUSH2 0x1A99 JUMPI PUSH2 0x1A98 PUSH2 0x3C46 JUMP JUMPDEST JUMPDEST PUSH1 0x20 MUL ADD MLOAD PUSH1 0xFF AND PUSH1 0xFF AND DUP2 MSTORE PUSH1 0x20 ADD DUP6 PUSH1 0x1 PUSH1 0x4 DUP2 LT PUSH2 0x1ABD JUMPI PUSH2 0x1ABC PUSH2 0x3C46 JUMP JUMPDEST JUMPDEST PUSH1 0x20 MUL ADD MLOAD PUSH1 0x1 PUSH1 0x4 DUP2 LT PUSH2 0x1AD5 JUMPI PUSH2 0x1AD4 PUSH2 0x3C46 JUMP JUMPDEST JUMPDEST PUSH1 0x20 MUL ADD MLOAD PUSH1 0xFF AND PUSH1 0xFF AND DUP2 MSTORE PUSH1 0x20 ADD DUP6 PUSH1 0x1 PUSH1 0x4 DUP2 LT PUSH2 0x1AF9 JUMPI PUSH2 0x1AF8 PUSH2 0x3C46 JUMP JUMPDEST JUMPDEST PUSH1 0x20 MUL ADD MLOAD PUSH1 0x2 PUSH1 0x4 DUP2 LT PUSH2 0x1B11 JUMPI PUSH2 0x1B10 PUSH2 0x3C46 JUMP JUMPDEST JUMPDEST PUSH1 0x20 MUL ADD MLOAD PUSH1 0xFF AND PUSH1 0xFF AND DUP2 MSTORE POP SWAP1 POP PUSH0 PUSH1 0x40 MLOAD DUP1 PUSH1 0x80 ADD PUSH1 0x40 MSTORE DUP1 DUP7 PUSH1 0x2 PUSH1 0x4 DUP2 LT PUSH2 0x1B41 JUMPI PUSH2 0x1B40 PUSH2 0x3C46 JUMP JUMPDEST JUMPDEST PUSH1 0x20 MUL ADD MLOAD PUSH1 0x2 PUSH1 0x4 DUP2 LT PUSH2 0x1B59 JUMPI PUSH2 0x1B58 PUSH2 0x3C46 JUMP JUMPDEST JUMPDEST PUSH1 0x20 MUL ADD MLOAD PUSH1 0xFF AND PUSH1 0xFF AND DUP2 MSTORE PUSH1 0x20 ADD DUP7 PUSH1 0x2 PUSH1 0x4 DUP2 LT PUSH2 0x1B7D JUMPI PUSH2 0x1B7C PUSH2 0x3C46 JUMP JUMPDEST JUMPDEST PUSH1 0x20 MUL ADD MLOAD PUSH1 0x3 PUSH1 0x4 DUP2 LT PUSH2 0x1B95 JUMPI PUSH2 0x1B94 PUSH2 0x3C46 JUMP JUMPDEST JUMPDEST PUSH1 0x20 MUL ADD MLOAD PUSH1 0xFF AND PUSH1 0xFF AND DUP2 MSTORE PUSH1 0x20 ADD DUP7 PUSH1 0x2 PUSH1 0x4 DUP2 LT PUSH2 0x1BB9 JUMPI PUSH2 0x1BB8 PUSH2 0x3C46 JUMP JUMPDEST JUMPDEST PUSH1 0x20 MUL ADD MLOAD PUSH0 PUSH1 0x4 DUP2 LT PUSH2 0x1BD0 JUMPI PUSH2 0x1BCF PUSH2 0x3C46 JUMP JUMPDEST JUMPDEST PUSH1 0x20 MUL ADD MLOAD PUSH1 0xFF AND PUSH1 0xFF AND DUP2 MSTORE PUSH1 0x20 ADD DUP7 PUSH1 0x2 PUSH1 0x4 DUP2 LT PUSH2 0x1BF4 JUMPI PUSH2 0x1BF3 PUSH2 0x3C46 JUMP JUMPDEST JUMPDEST PUSH1 0x20 MUL ADD MLOAD PUSH1 0x1 PUSH1 0x4 DUP2 LT PUSH2 0x1C0C JUMPI PUSH2 0x1C0B PUSH2 0x3C46 JUMP JUMPDEST JUMPDEST PUSH1 0x20 MUL ADD MLOAD PUSH1 0xFF AND PUSH1 0xFF AND DUP2 MSTORE POP SWAP1 POP PUSH0 PUSH1 0x40 MLOAD DUP1 PUSH1 0x80 ADD PUSH1 0x40 MSTORE DUP1 DUP8 PUSH1 0x3 PUSH1 0x4 DUP2 LT PUSH2 0x1C3C JUMPI PUSH2 0x1C3B PUSH2 0x3C46 JUMP JUMPDEST JUMPDEST PUSH1 0x20 MUL ADD MLOAD PUSH1 0x1 PUSH1 0x4 DUP2 LT PUSH2 0x1C54 JUMPI PUSH2 0x1C53 PUSH2 0x3C46 JUMP JUMPDEST JUMPDEST PUSH1 0x20 MUL ADD MLOAD PUSH1 0xFF AND PUSH1 0xFF AND DUP2 MSTORE PUSH1 0x20 ADD DUP8 PUSH1 0x3 PUSH1 0x4 DUP2 LT PUSH2 0x1C78 JUMPI PUSH2 0x1C77 PUSH2 0x3C46 JUMP JUMPDEST JUMPDEST PUSH1 0x20 MUL ADD MLOAD PUSH1 0x2 PUSH1 0x4 DUP2 LT PUSH2 0x1C90 JUMPI PUSH2 0x1C8F PUSH2 0x3C46 JUMP JUMPDEST JUMPDEST PUSH1 0x20 MUL ADD MLOAD PUSH1 0xFF AND PUSH1 0xFF AND DUP2 MSTORE PUSH1 0x20 ADD DUP8 PUSH1 0x3 PUSH1 0x4 DUP2 LT PUSH2 0x1CB4 JUMPI PUSH2 0x1CB3 PUSH2 0x3C46 JUMP JUMPDEST JUMPDEST PUSH1 0x20 MUL ADD MLOAD PUSH1 0x3 PUSH1 0x4 DUP2 LT PUSH2 0x1CCC JUMPI PUSH2 0x1CCB PUSH2 0x3C46 JUMP JUMPDEST JUMPDEST PUSH1 0x20 MUL ADD MLOAD PUSH1 0xFF AND PUSH1 0xFF AND DUP2 MSTORE PUSH1 0x20 ADD DUP8 PUSH1 0x3 PUSH1 0x4 DUP2 LT PUSH2 0x1CF0 JUMPI PUSH2 0x1CEF PUSH2 0x3C46 JUMP JUMPDEST JUMPDEST PUSH1 0x20 MUL ADD MLOAD PUSH0 PUSH1 0x4 DUP2 LT PUSH2 0x1D07 JUMPI PUSH2 0x1D06 PUSH2 0x3C46 JUMP JUMPDEST JUMPDEST PUSH1 0x20 MUL ADD MLOAD PUSH1 0xFF AND PUSH1 0xFF AND DUP2 MSTORE POP SWAP1 POP PUSH1 0x40 MLOAD DUP1 PUSH1 0x80 ADD PUSH1 0x40 MSTORE DUP1 DUP6 DUP2 MSTORE PUSH1 0x20 ADD DUP5 DUP2 MSTORE PUSH1 0x20 ADD DUP4 DUP2 MSTORE PUSH1 0x20 ADD DUP3 DUP2 MSTORE POP SWAP5 POP POP POP POP POP SWAP2 SWAP1 POP JUMP JUMPDEST PUSH2 0x1D4B PUSH2 0x3286 JUMP JUMPDEST PUSH0 JUMPDEST PUSH1 0x4 DUP2 LT ISZERO PUSH2 0x1E13 JUMPI PUSH0 JUMPDEST PUSH1 0x4 DUP2 LT ISZERO PUSH2 0x1E05 JUMPI PUSH1 0x9 DUP5 DUP4 PUSH1 0x4 DUP2 LT PUSH2 0x1D76 JUMPI PUSH2 0x1D75 PUSH2 0x3C46 JUMP JUMPDEST JUMPDEST PUSH1 0x20 MUL ADD MLOAD DUP3 PUSH1 0x4 DUP2 LT PUSH2 0x1D8D JUMPI PUSH2 0x1D8C PUSH2 0x3C46 JUMP JUMPDEST JUMPDEST PUSH1 0x20 MUL ADD MLOAD PUSH1 0xFF AND PUSH2 0x100 DUP2 LT PUSH2 0x1DA7 JUMPI PUSH2 0x1DA6 PUSH2 0x3C46 JUMP JUMPDEST JUMPDEST PUSH1 0x20 SWAP2 DUP3 DUP3 DIV ADD SWAP2 SWAP1 MOD SWAP1 SLOAD SWAP1 PUSH2 0x100 EXP SWAP1 DIV PUSH1 0xFF AND DUP5 DUP4 PUSH1 0x4 DUP2 LT PUSH2 0x1DD0 JUMPI PUSH2 0x1DCF PUSH2 0x3C46 JUMP JUMPDEST JUMPDEST PUSH1 0x20 MUL ADD MLOAD DUP3 PUSH1 0x4 DUP2 LT PUSH2 0x1DE7 JUMPI PUSH2 0x1DE6 PUSH2 0x3C46 JUMP JUMPDEST JUMPDEST PUSH1 0x20 MUL ADD SWAP1 PUSH1 0xFF AND SWAP1 DUP2 PUSH1 0xFF AND DUP2 MSTORE POP POP DUP1 DUP1 PUSH1 0x1 ADD SWAP2 POP POP PUSH2 0x1D58 JUMP JUMPDEST POP DUP1 DUP1 PUSH1 0x1 ADD SWAP2 POP POP PUSH2 0x1D4D JUMP JUMPDEST POP DUP2 SWAP1 POP SWAP2 SWAP1 POP JUMP JUMPDEST PUSH2 0x1E24 PUSH2 0x3286 JUMP JUMPDEST PUSH0 PUSH1 0x40 MLOAD DUP1 PUSH1 0x80 ADD PUSH1 0x40 MSTORE DUP1 PUSH1 0x40 MLOAD DUP1 PUSH1 0x80 ADD PUSH1 0x40 MSTORE DUP1 PUSH0 PUSH1 0xFF AND DUP2 MSTORE PUSH1 0x20 ADD PUSH0 PUSH1 0xFF AND DUP2 MSTORE PUSH1 0x20 ADD PUSH0 PUSH1 0xFF AND DUP2 MSTORE PUSH1 0x20 ADD PUSH0 PUSH1 0xFF AND DUP2 MSTORE POP DUP2 MSTORE PUSH1 0x20 ADD PUSH1 0x40 MLOAD DUP1 PUSH1 0x80 ADD PUSH1 0x40 MSTORE DUP1 PUSH0 PUSH1 0xFF AND DUP2 MSTORE PUSH1 0x20 ADD PUSH0 PUSH1 0xFF AND DUP2 MSTORE PUSH1 0x20 ADD PUSH0 PUSH1 0xFF AND DUP2 MSTORE PUSH1 0x20 ADD PUSH0 PUSH1 0xFF AND DUP2 MSTORE POP DUP2 MSTORE PUSH1 0x20 ADD PUSH1 0x40 MLOAD DUP1 PUSH1 0x80 ADD PUSH1 0x40 MSTORE DUP1 PUSH0 PUSH1 0xFF AND DUP2 MSTORE PUSH1 0x20 ADD PUSH0 PUSH1 0xFF AND DUP2 MSTORE PUSH1 0x20 ADD PUSH0 PUSH1 0xFF AND DUP2 MSTORE PUSH1 0x20 ADD PUSH0 PUSH1 0xFF AND DUP2 MSTORE POP DUP2 MSTORE PUSH1 0x20 ADD PUSH1 0x40 MLOAD DUP1 PUSH1 0x80 ADD PUSH1 0x40 MSTORE DUP1 PUSH0 PUSH1 0xFF AND DUP2 MSTORE PUSH1 0x20 ADD PUSH0 PUSH1 0xFF AND DUP2 MSTORE PUSH1 0x20 ADD PUSH0 PUSH1 0xFF AND DUP2 MSTORE PUSH1 0x20 ADD PUSH0 PUSH1 0xFF AND DUP2 MSTORE POP DUP2 MSTORE POP SWAP1 POP PUSH0 JUMPDEST PUSH1 0x4 DUP2 LT ISZERO PUSH2 0x242A JUMPI PUSH0 JUMPDEST PUSH1 0x4 DUP2 LT ISZERO PUSH2 0x1F85 JUMPI DUP5 DUP2 PUSH1 0x4 DUP2 LT PUSH2 0x1F21 JUMPI PUSH2 0x1F20 PUSH2 0x3C46 JUMP JUMPDEST JUMPDEST PUSH1 0x20 MUL ADD MLOAD DUP3 PUSH1 0x4 DUP2 LT PUSH2 0x1F38 JUMPI PUSH2 0x1F37 PUSH2 0x3C46 JUMP JUMPDEST JUMPDEST PUSH1 0x20 MUL ADD MLOAD DUP4 DUP3 PUSH1 0x4 DUP2 LT PUSH2 0x1F50 JUMPI PUSH2 0x1F4F PUSH2 0x3C46 JUMP JUMPDEST JUMPDEST PUSH1 0x20 MUL ADD MLOAD DUP4 PUSH1 0x4 DUP2 LT PUSH2 0x1F67 JUMPI PUSH2 0x1F66 PUSH2 0x3C46 JUMP JUMPDEST JUMPDEST PUSH1 0x20 MUL ADD SWAP1 PUSH1 0xFF AND SWAP1 DUP2 PUSH1 0xFF AND DUP2 MSTORE POP POP DUP1 DUP1 PUSH1 0x1 ADD SWAP2 POP POP PUSH2 0x1F05 JUMP JUMPDEST POP PUSH2 0x1FC0 DUP3 PUSH1 0x1 PUSH1 0x4 DUP2 LT PUSH2 0x1F9D JUMPI PUSH2 0x1F9C PUSH2 0x3C46 JUMP JUMPDEST JUMPDEST PUSH1 0x20 MUL ADD MLOAD DUP3 PUSH1 0x4 DUP2 LT PUSH2 0x1FB4 JUMPI PUSH2 0x1FB3 PUSH2 0x3C46 JUMP JUMPDEST JUMPDEST PUSH1 0x20 MUL ADD MLOAD PUSH1 0xB PUSH2 0x3156 JUMP JUMPDEST PUSH2 0x1FFA DUP4 PUSH1 0x2 PUSH1 0x4 DUP2 LT PUSH2 0x1FD7 JUMPI PUSH2 0x1FD6 PUSH2 0x3C46 JUMP JUMPDEST JUMPDEST PUSH1 0x20 MUL ADD MLOAD DUP4 PUSH1 0x4 DUP2 LT PUSH2 0x1FEE JUMPI PUSH2 0x1FED PUSH2 0x3C46 JUMP JUMPDEST JUMPDEST PUSH1 0x20 MUL ADD MLOAD PUSH1 0xD PUSH2 0x3156 JUMP JUMPDEST PUSH2 0x2034 DUP5 PUSH1 0x3 PUSH1 0x4 DUP2 LT PUSH2 0x2011 JUMPI PUSH2 0x2010 PUSH2 0x3C46 JUMP JUMPDEST JUMPDEST PUSH1 0x20 MUL ADD MLOAD DUP5 PUSH1 0x4 DUP2 LT PUSH2 0x2028 JUMPI PUSH2 0x2027 PUSH2 0x3C46 JUMP JUMPDEST JUMPDEST PUSH1 0x20 MUL ADD MLOAD PUSH1 0x9 PUSH2 0x3156 JUMP JUMPDEST PUSH2 0x206D DUP6 PUSH0 PUSH1 0x4 DUP2 LT PUSH2 0x204A JUMPI PUSH2 0x2049 PUSH2 0x3C46 JUMP JUMPDEST JUMPDEST PUSH1 0x20 MUL ADD MLOAD DUP6 PUSH1 0x4 DUP2 LT PUSH2 0x2061 JUMPI PUSH2 0x2060 PUSH2 0x3C46 JUMP JUMPDEST JUMPDEST PUSH1 0x20 MUL ADD MLOAD PUSH1 0xE PUSH2 0x3156 JUMP JUMPDEST XOR XOR XOR DUP5 PUSH0 PUSH1 0x4 DUP2 LT PUSH2 0x2083 JUMPI PUSH2 0x2082 PUSH2 0x3C46 JUMP JUMPDEST JUMPDEST PUSH1 0x20 MUL ADD MLOAD DUP3 PUSH1 0x4 DUP2 LT PUSH2 0x209A JUMPI PUSH2 0x2099 PUSH2 0x3C46 JUMP JUMPDEST JUMPDEST PUSH1 0x20 MUL ADD SWAP1 PUSH1 0xFF AND SWAP1 DUP2 PUSH1 0xFF AND DUP2 MSTORE POP POP PUSH2 0x20E5 DUP3 PUSH1 0x2 PUSH1 0x4 DUP2 LT PUSH2 0x20C2 JUMPI PUSH2 0x20C1 PUSH2 0x3C46 JUMP JUMPDEST JUMPDEST PUSH1 0x20 MUL ADD MLOAD DUP3 PUSH1 0x4 DUP2 LT PUSH2 0x20D9 JUMPI PUSH2 0x20D8 PUSH2 0x3C46 JUMP JUMPDEST JUMPDEST PUSH1 0x20 MUL ADD MLOAD PUSH1 0xB PUSH2 0x3156 JUMP JUMPDEST PUSH2 0x211F DUP4 PUSH1 0x3 PUSH1 0x4 DUP2 LT PUSH2 0x20FC JUMPI PUSH2 0x20FB PUSH2 0x3C46 JUMP JUMPDEST JUMPDEST PUSH1 0x20 MUL ADD MLOAD DUP4 PUSH1 0x4 DUP2 LT PUSH2 0x2113 JUMPI PUSH2 0x2112 PUSH2 0x3C46 JUMP JUMPDEST JUMPDEST PUSH1 0x20 MUL ADD MLOAD PUSH1 0xD PUSH2 0x3156 JUMP JUMPDEST PUSH2 0x2158 DUP5 PUSH0 PUSH1 0x4 DUP2 LT PUSH2 0x2135 JUMPI PUSH2 0x2134 PUSH2 0x3C46 JUMP JUMPDEST JUMPDEST PUSH1 0x20 MUL ADD MLOAD DUP5 PUSH1 0x4 DUP2 LT PUSH2 0x214C JUMPI PUSH2 0x214B PUSH2 0x3C46 JUMP JUMPDEST JUMPDEST PUSH1 0x20 MUL ADD MLOAD PUSH1 0x9 PUSH2 0x3156 JUMP JUMPDEST PUSH2 0x2192 DUP6 PUSH1 0x1 PUSH1 0x4 DUP2 LT PUSH2 0x216F JUMPI PUSH2 0x216E PUSH2 0x3C46 JUMP JUMPDEST JUMPDEST PUSH1 0x20 MUL ADD MLOAD DUP6 PUSH1 0x4 DUP2 LT PUSH2 0x2186 JUMPI PUSH2 0x2185 PUSH2 0x3C46 JUMP JUMPDEST JUMPDEST PUSH1 0x20 MUL ADD MLOAD PUSH1 0xE PUSH2 0x3156 JUMP JUMPDEST XOR XOR XOR DUP5 PUSH1 0x1 PUSH1 0x4 DUP2 LT PUSH2 0x21A9 JUMPI PUSH2 0x21A8 PUSH2 0x3C46 JUMP JUMPDEST JUMPDEST PUSH1 0x20 MUL ADD MLOAD DUP3 PUSH1 0x4 DUP2 LT PUSH2 0x21C0 JUMPI PUSH2 0x21BF PUSH2 0x3C46 JUMP JUMPDEST JUMPDEST PUSH1 0x20 MUL ADD SWAP1 PUSH1 0xFF AND SWAP1 DUP2 PUSH1 0xFF AND DUP2 MSTORE POP POP PUSH2 0x220B DUP3 PUSH1 0x3 PUSH1 0x4 DUP2 LT PUSH2 0x21E8 JUMPI PUSH2 0x21E7 PUSH2 0x3C46 JUMP JUMPDEST JUMPDEST PUSH1 0x20 MUL ADD MLOAD DUP3 PUSH1 0x4 DUP2 LT PUSH2 0x21FF JUMPI PUSH2 0x21FE PUSH2 0x3C46 JUMP JUMPDEST JUMPDEST PUSH1 0x20 MUL ADD MLOAD PUSH1 0xB PUSH2 0x3156 JUMP JUMPDEST PUSH2 0x2244 DUP4 PUSH0 PUSH1 0x4 DUP2 LT PUSH2 0x2221 JUMPI PUSH2 0x2220 PUSH2 0x3C46 JUMP JUMPDEST JUMPDEST PUSH1 0x20 MUL ADD MLOAD DUP4 PUSH1 0x4 DUP2 LT PUSH2 0x2238 JUMPI PUSH2 0x2237 PUSH2 0x3C46 JUMP JUMPDEST JUMPDEST PUSH1 0x20 MUL ADD MLOAD PUSH1 0xD PUSH2 0x3156 JUMP JUMPDEST PUSH2 0x227E DUP5 PUSH1 0x1 PUSH1 0x4 DUP2 LT PUSH2 0x225B JUMPI PUSH2 0x225A PUSH2 0x3C46 JUMP JUMPDEST JUMPDEST PUSH1 0x20 MUL ADD MLOAD DUP5 PUSH1 0x4 DUP2 LT PUSH2 0x2272 JUMPI PUSH2 0x2271 PUSH2 0x3C46 JUMP JUMPDEST JUMPDEST PUSH1 0x20 MUL ADD MLOAD PUSH1 0x9 PUSH2 0x3156 JUMP JUMPDEST PUSH2 0x22B8 DUP6 PUSH1 0x2 PUSH1 0x4 DUP2 LT PUSH2 0x2295 JUMPI PUSH2 0x2294 PUSH2 0x3C46 JUMP JUMPDEST JUMPDEST PUSH1 0x20 MUL ADD MLOAD DUP6 PUSH1 0x4 DUP2 LT PUSH2 0x22AC JUMPI PUSH2 0x22AB PUSH2 0x3C46 JUMP JUMPDEST JUMPDEST PUSH1 0x20 MUL ADD MLOAD PUSH1 0xE PUSH2 0x3156 JUMP JUMPDEST XOR XOR XOR DUP5 PUSH1 0x2 PUSH1 0x4 DUP2 LT PUSH2 0x22CF JUMPI PUSH2 0x22CE PUSH2 0x3C46 JUMP JUMPDEST JUMPDEST PUSH1 0x20 MUL ADD MLOAD DUP3 PUSH1 0x4 DUP2 LT PUSH2 0x22E6 JUMPI PUSH2 0x22E5 PUSH2 0x3C46 JUMP JUMPDEST JUMPDEST PUSH1 0x20 MUL ADD SWAP1 PUSH1 0xFF AND SWAP1 DUP2 PUSH1 0xFF AND DUP2 MSTORE POP POP PUSH2 0x2330 DUP3 PUSH0 PUSH1 0x4 DUP2 LT PUSH2 0x230D JUMPI PUSH2 0x230C PUSH2 0x3C46 JUMP JUMPDEST JUMPDEST PUSH1 0x20 MUL ADD MLOAD DUP3 PUSH1 0x4 DUP2 LT PUSH2 0x2324 JUMPI PUSH2 0x2323 PUSH2 0x3C46 JUMP JUMPDEST JUMPDEST PUSH1 0x20 MUL ADD MLOAD PUSH1 0xB PUSH2 0x3156 JUMP JUMPDEST PUSH2 0x236A DUP4 PUSH1 0x1 PUSH1 0x4 DUP2 LT PUSH2 0x2347 JUMPI PUSH2 0x2346 PUSH2 0x3C46 JUMP JUMPDEST JUMPDEST PUSH1 0x20 MUL ADD MLOAD DUP4 PUSH1 0x4 DUP2 LT PUSH2 0x235E JUMPI PUSH2 0x235D PUSH2 0x3C46 JUMP JUMPDEST JUMPDEST PUSH1 0x20 MUL ADD MLOAD PUSH1 0xD PUSH2 0x3156 JUMP JUMPDEST PUSH2 0x23A4 DUP5 PUSH1 0x2 PUSH1 0x4 DUP2 LT PUSH2 0x2381 JUMPI PUSH2 0x2380 PUSH2 0x3C46 JUMP JUMPDEST JUMPDEST PUSH1 0x20 MUL ADD MLOAD DUP5 PUSH1 0x4 DUP2 LT PUSH2 0x2398 JUMPI PUSH2 0x2397 PUSH2 0x3C46 JUMP JUMPDEST JUMPDEST PUSH1 0x20 MUL ADD MLOAD PUSH1 0x9 PUSH2 0x3156 JUMP JUMPDEST PUSH2 0x23DE DUP6 PUSH1 0x3 PUSH1 0x4 DUP2 LT PUSH2 0x23BB JUMPI PUSH2 0x23BA PUSH2 0x3C46 JUMP JUMPDEST JUMPDEST PUSH1 0x20 MUL ADD MLOAD DUP6 PUSH1 0x4 DUP2 LT PUSH2 0x23D2 JUMPI PUSH2 0x23D1 PUSH2 0x3C46 JUMP JUMPDEST JUMPDEST PUSH1 0x20 MUL ADD MLOAD PUSH1 0xE PUSH2 0x3156 JUMP JUMPDEST XOR XOR XOR DUP5 PUSH1 0x3 PUSH1 0x4 DUP2 LT PUSH2 0x23F5 JUMPI PUSH2 0x23F4 PUSH2 0x3C46 JUMP JUMPDEST JUMPDEST PUSH1 0x20 MUL ADD MLOAD DUP3 PUSH1 0x4 DUP2 LT PUSH2 0x240C JUMPI PUSH2 0x240B PUSH2 0x3C46 JUMP JUMPDEST JUMPDEST PUSH1 0x20 MUL ADD SWAP1 PUSH1 0xFF AND SWAP1 DUP2 PUSH1 0xFF AND DUP2 MSTORE POP POP DUP1 DUP1 PUSH1 0x1 ADD SWAP2 POP POP PUSH2 0x1EFA JUMP JUMPDEST POP DUP3 SWAP2 POP POP SWAP2 SWAP1 POP JUMP JUMPDEST PUSH2 0x243C PUSH2 0x3286 JUMP JUMPDEST PUSH0 JUMPDEST PUSH1 0x4 DUP2 LT ISZERO PUSH2 0x2504 JUMPI PUSH0 JUMPDEST PUSH1 0x4 DUP2 LT ISZERO PUSH2 0x24F6 JUMPI PUSH1 0x1 DUP5 DUP4 PUSH1 0x4 DUP2 LT PUSH2 0x2467 JUMPI PUSH2 0x2466 PUSH2 0x3C46 JUMP JUMPDEST JUMPDEST PUSH1 0x20 MUL ADD MLOAD DUP3 PUSH1 0x4 DUP2 LT PUSH2 0x247E JUMPI PUSH2 0x247D PUSH2 0x3C46 JUMP JUMPDEST JUMPDEST PUSH1 0x20 MUL ADD MLOAD PUSH1 0xFF AND PUSH2 0x100 DUP2 LT PUSH2 0x2498 JUMPI PUSH2 0x2497 PUSH2 0x3C46 JUMP JUMPDEST JUMPDEST PUSH1 0x20 SWAP2 DUP3 DUP3 DIV ADD SWAP2 SWAP1 MOD SWAP1 SLOAD SWAP1 PUSH2 0x100 EXP SWAP1 DIV PUSH1 0xFF AND DUP5 DUP4 PUSH1 0x4 DUP2 LT PUSH2 0x24C1 JUMPI PUSH2 0x24C0 PUSH2 0x3C46 JUMP JUMPDEST JUMPDEST PUSH1 0x20 MUL ADD MLOAD DUP3 PUSH1 0x4 DUP2 LT PUSH2 0x24D8 JUMPI PUSH2 0x24D7 PUSH2 0x3C46 JUMP JUMPDEST JUMPDEST PUSH1 0x20 MUL ADD SWAP1 PUSH1 0xFF AND SWAP1 DUP2 PUSH1 0xFF AND DUP2 MSTORE POP POP DUP1 DUP1 PUSH1 0x1 ADD SWAP2 POP POP PUSH2 0x2449 JUMP JUMPDEST POP DUP1 DUP1 PUSH1 0x1 ADD SWAP2 POP POP PUSH2 0x243E JUMP JUMPDEST POP DUP2 SWAP1 POP SWAP2 SWAP1 POP JUMP JUMPDEST PUSH2 0x2515 PUSH2 0x3286 JUMP JUMPDEST PUSH0 DUP3 PUSH0 PUSH1 0x4 DUP2 LT PUSH2 0x2529 JUMPI PUSH2 0x2528 PUSH2 0x3C46 JUMP JUMPDEST JUMPDEST PUSH1 0x20 MUL ADD MLOAD SWAP1 POP PUSH0 PUSH1 0x40 MLOAD DUP1 PUSH1 0x80 ADD PUSH1 0x40 MSTORE DUP1 DUP6 PUSH1 0x1 PUSH1 0x4 DUP2 LT PUSH2 0x2550 JUMPI PUSH2 0x254F PUSH2 0x3C46 JUMP JUMPDEST JUMPDEST PUSH1 0x20 MUL ADD MLOAD PUSH1 0x1 PUSH1 0x4 DUP2 LT PUSH2 0x2568 JUMPI PUSH2 0x2567 PUSH2 0x3C46 JUMP JUMPDEST JUMPDEST PUSH1 0x20 MUL ADD MLOAD PUSH1 0xFF AND PUSH1 0xFF AND DUP2 MSTORE PUSH1 0x20 ADD DUP6 PUSH1 0x1 PUSH1 0x4 DUP2 LT PUSH2 0x258C JUMPI PUSH2 0x258B PUSH2 0x3C46 JUMP JUMPDEST JUMPDEST PUSH1 0x20 MUL ADD MLOAD PUSH1 0x2 PUSH1 0x4 DUP2 LT PUSH2 0x25A4 JUMPI PUSH2 0x25A3 PUSH2 0x3C46 JUMP JUMPDEST JUMPDEST PUSH1 0x20 MUL ADD MLOAD PUSH1 0xFF AND PUSH1 0xFF AND DUP2 MSTORE PUSH1 0x20 ADD DUP6 PUSH1 0x1 PUSH1 0x4 DUP2 LT PUSH2 0x25C8 JUMPI PUSH2 0x25C7 PUSH2 0x3C46 JUMP JUMPDEST JUMPDEST PUSH1 0x20 MUL ADD MLOAD PUSH1 0x3 PUSH1 0x4 DUP2 LT PUSH2 0x25E0 JUMPI PUSH2 0x25DF PUSH2 0x3C46 JUMP JUMPDEST JUMPDEST PUSH1 0x20 MUL ADD MLOAD PUSH1 0xFF AND PUSH1 0xFF AND DUP2 MSTORE PUSH1 0x20 ADD DUP6 PUSH1 0x1 PUSH1 0x4 DUP2 LT PUSH2 0x2604 JUMPI PUSH2 0x2603 PUSH2 0x3C46 JUMP JUMPDEST JUMPDEST PUSH1 0x20 MUL ADD MLOAD PUSH0 PUSH1 0x4 DUP2 LT PUSH2 0x261B JUMPI PUSH2 0x261A PUSH2 0x3C46 JUMP JUMPDEST JUMPDEST PUSH1 0x20 MUL ADD MLOAD PUSH1 0xFF AND PUSH1 0xFF AND DUP2 MSTORE POP SWAP1 POP PUSH0 PUSH1 0x40 MLOAD DUP1 PUSH1 0x80 ADD PUSH1 0x40 MSTORE DUP1 DUP7 PUSH1 0x2 PUSH1 0x4 DUP2 LT PUSH2 0x264B JUMPI PUSH2 0x264A PUSH2 0x3C46 JUMP JUMPDEST JUMPDEST PUSH1 0x20 MUL ADD MLOAD PUSH1 0x2 PUSH1 0x4 DUP2 LT PUSH2 0x2663 JUMPI PUSH2 0x2662 PUSH2 0x3C46 JUMP JUMPDEST JUMPDEST PUSH1 0x20 MUL ADD MLOAD PUSH1 0xFF AND PUSH1 0xFF AND DUP2 MSTORE PUSH1 0x20 ADD DUP7 PUSH1 0x2 PUSH1 0x4 DUP2 LT PUSH2 0x2687 JUMPI PUSH2 0x2686 PUSH2 0x3C46 JUMP JUMPDEST JUMPDEST PUSH1 0x20 MUL ADD MLOAD PUSH1 0x3 PUSH1 0x4 DUP2 LT PUSH2 0x269F JUMPI PUSH2 0x269E PUSH2 0x3C46 JUMP JUMPDEST JUMPDEST PUSH1 0x20 MUL ADD MLOAD PUSH1 0xFF AND PUSH1 0xFF AND DUP2 MSTORE PUSH1 0x20 ADD DUP7 PUSH1 0x2 PUSH1 0x4 DUP2 LT PUSH2 0x26C3 JUMPI PUSH2 0x26C2 PUSH2 0x3C46 JUMP JUMPDEST JUMPDEST PUSH1 0x20 MUL ADD MLOAD PUSH0 PUSH1 0x4 DUP2 LT PUSH2 0x26DA JUMPI PUSH2 0x26D9 PUSH2 0x3C46 JUMP JUMPDEST JUMPDEST PUSH1 0x20 MUL ADD MLOAD PUSH1 0xFF AND PUSH1 0xFF AND DUP2 MSTORE PUSH1 0x20 ADD DUP7 PUSH1 0x2 PUSH1 0x4 DUP2 LT PUSH2 0x26FE JUMPI PUSH2 0x26FD PUSH2 0x3C46 JUMP JUMPDEST JUMPDEST PUSH1 0x20 MUL ADD MLOAD PUSH1 0x1 PUSH1 0x4 DUP2 LT PUSH2 0x2716 JUMPI PUSH2 0x2715 PUSH2 0x3C46 JUMP JUMPDEST JUMPDEST PUSH1 0x20 MUL ADD MLOAD PUSH1 0xFF AND PUSH1 0xFF AND DUP2 MSTORE POP SWAP1 POP PUSH0 PUSH1 0x40 MLOAD DUP1 PUSH1 0x80 ADD PUSH1 0x40 MSTORE DUP1 DUP8 PUSH1 0x3 PUSH1 0x4 DUP2 LT PUSH2 0x2746 JUMPI PUSH2 0x2745 PUSH2 0x3C46 JUMP JUMPDEST JUMPDEST PUSH1 0x20 MUL ADD MLOAD PUSH1 0x3 PUSH1 0x4 DUP2 LT PUSH2 0x275E JUMPI PUSH2 0x275D PUSH2 0x3C46 JUMP JUMPDEST JUMPDEST PUSH1 0x20 MUL ADD MLOAD PUSH1 0xFF AND PUSH1 0xFF AND DUP2 MSTORE PUSH1 0x20 ADD DUP8 PUSH1 0x3 PUSH1 0x4 DUP2 LT PUSH2 0x2782 JUMPI PUSH2 0x2781 PUSH2 0x3C46 JUMP JUMPDEST JUMPDEST PUSH1 0x20 MUL ADD MLOAD PUSH0 PUSH1 0x4 DUP2 LT PUSH2 0x2799 JUMPI PUSH2 0x2798 PUSH2 0x3C46 JUMP JUMPDEST JUMPDEST PUSH1 0x20 MUL ADD MLOAD PUSH1 0xFF AND PUSH1 0xFF AND DUP2 MSTORE PUSH1 0x20 ADD DUP8 PUSH1 0x3 PUSH1 0x4 DUP2 LT PUSH2 0x27BD JUMPI PUSH2 0x27BC PUSH2 0x3C46 JUMP JUMPDEST JUMPDEST PUSH1 0x20 MUL ADD MLOAD PUSH1 0x1 PUSH1 0x4 DUP2 LT PUSH2 0x27D5 JUMPI PUSH2 0x27D4 PUSH2 0x3C46 JUMP JUMPDEST JUMPDEST PUSH1 0x20 MUL ADD MLOAD PUSH1 0xFF AND PUSH1 0xFF AND DUP2 MSTORE PUSH1 0x20 ADD DUP8 PUSH1 0x3 PUSH1 0x4 DUP2 LT PUSH2 0x27F9 JUMPI PUSH2 0x27F8 PUSH2 0x3C46 JUMP JUMPDEST JUMPDEST PUSH1 0x20 MUL ADD MLOAD PUSH1 0x2 PUSH1 0x4 DUP2 LT PUSH2 0x2811 JUMPI PUSH2 0x2810 PUSH2 0x3C46 JUMP JUMPDEST JUMPDEST PUSH1 0x20 MUL ADD MLOAD PUSH1 0xFF AND PUSH1 0xFF AND DUP2 MSTORE POP SWAP1 POP PUSH1 0x40 MLOAD DUP1 PUSH1 0x80 ADD PUSH1 0x40 MSTORE DUP1 DUP6 DUP2 MSTORE PUSH1 0x20 ADD DUP5 DUP2 MSTORE PUSH1 0x20 ADD DUP4 DUP2 MSTORE PUSH1 0x20 ADD DUP3 DUP2 MSTORE POP SWAP5 POP POP POP POP POP SWAP2 SWAP1 POP JUMP JUMPDEST PUSH2 0x2855 PUSH2 0x3286 JUMP JUMPDEST PUSH0 PUSH1 0x40 MLOAD DUP1 PUSH1 0x80 ADD PUSH1 0x40 MSTORE DUP1 PUSH1 0x40 MLOAD DUP1 PUSH1 0x80 ADD PUSH1 0x40 MSTORE DUP1 PUSH0 PUSH1 0xFF AND DUP2 MSTORE PUSH1 0x20 ADD PUSH0 PUSH1 0xFF AND DUP2 MSTORE PUSH1 0x20 ADD PUSH0 PUSH1 0xFF AND DUP2 MSTORE PUSH1 0x20 ADD PUSH0 PUSH1 0xFF AND DUP2 MSTORE POP DUP2 MSTORE PUSH1 0x20 ADD PUSH1 0x40 MLOAD DUP1 PUSH1 0x80 ADD PUSH1 0x40 MSTORE DUP1 PUSH0 PUSH1 0xFF AND DUP2 MSTORE PUSH1 0x20 ADD PUSH0 PUSH1 0xFF AND DUP2 MSTORE PUSH1 0x20 ADD PUSH0 PUSH1 0xFF AND DUP2 MSTORE PUSH1 0x20 ADD PUSH0 PUSH1 0xFF AND DUP2 MSTORE POP DUP2 MSTORE PUSH1 0x20 ADD PUSH1 0x40 MLOAD DUP1 PUSH1 0x80 ADD PUSH1 0x40 MSTORE DUP1 PUSH0 PUSH1 0xFF AND DUP2 MSTORE PUSH1 0x20 ADD PUSH0 PUSH1 0xFF AND DUP2 MSTORE PUSH1 0x20 ADD PUSH0 PUSH1 0xFF AND DUP2 MSTORE PUSH1 0x20 ADD PUSH0 PUSH1 0xFF AND DUP2 MSTORE POP DUP2 MSTORE PUSH1 0x20 ADD PUSH1 0x40 MLOAD DUP1 PUSH1 0x80 ADD PUSH1 0x40 MSTORE DUP1 PUSH0 PUSH1 0xFF AND DUP2 MSTORE PUSH1 0x20 ADD PUSH0 PUSH1 0xFF AND DUP2 MSTORE PUSH1 0x20 ADD PUSH0 PUSH1 0xFF AND DUP2 MSTORE PUSH1 0x20 ADD PUSH0 PUSH1 0xFF AND DUP2 MSTORE POP DUP2 MSTORE POP SWAP1 POP PUSH0 JUMPDEST PUSH1 0x4 DUP2 LT ISZERO PUSH2 0x2E5B JUMPI PUSH0 JUMPDEST PUSH1 0x4 DUP2 LT ISZERO PUSH2 0x29B6 JUMPI DUP5 DUP2 PUSH1 0x4 DUP2 LT PUSH2 0x2952 JUMPI PUSH2 0x2951 PUSH2 0x3C46 JUMP JUMPDEST JUMPDEST PUSH1 0x20 MUL ADD MLOAD DUP3 PUSH1 0x4 DUP2 LT PUSH2 0x2969 JUMPI PUSH2 0x2968 PUSH2 0x3C46 JUMP JUMPDEST JUMPDEST PUSH1 0x20 MUL ADD MLOAD DUP4 DUP3 PUSH1 0x4 DUP2 LT PUSH2 0x2981 JUMPI PUSH2 0x2980 PUSH2 0x3C46 JUMP JUMPDEST JUMPDEST PUSH1 0x20 MUL ADD MLOAD DUP4 PUSH1 0x4 DUP2 LT PUSH2 0x2998 JUMPI PUSH2 0x2997 PUSH2 0x3C46 JUMP JUMPDEST JUMPDEST PUSH1 0x20 MUL ADD SWAP1 PUSH1 0xFF AND SWAP1 DUP2 PUSH1 0xFF AND DUP2 MSTORE POP POP DUP1 DUP1 PUSH1 0x1 ADD SWAP2 POP POP PUSH2 0x2936 JUMP JUMPDEST POP PUSH2 0x29F1 DUP3 PUSH1 0x3 PUSH1 0x4 DUP2 LT PUSH2 0x29CE JUMPI PUSH2 0x29CD PUSH2 0x3C46 JUMP JUMPDEST JUMPDEST PUSH1 0x20 MUL ADD MLOAD DUP3 PUSH1 0x4 DUP2 LT PUSH2 0x29E5 JUMPI PUSH2 0x29E4 PUSH2 0x3C46 JUMP JUMPDEST JUMPDEST PUSH1 0x20 MUL ADD MLOAD PUSH1 0x1 PUSH2 0x3156 JUMP JUMPDEST PUSH2 0x2A2B DUP4 PUSH1 0x2 PUSH1 0x4 DUP2 LT PUSH2 0x2A08 JUMPI PUSH2 0x2A07 PUSH2 0x3C46 JUMP JUMPDEST JUMPDEST PUSH1 0x20 MUL ADD MLOAD DUP4 PUSH1 0x4 DUP2 LT PUSH2 0x2A1F JUMPI PUSH2 0x2A1E PUSH2 0x3C46 JUMP JUMPDEST JUMPDEST PUSH1 0x20 MUL ADD MLOAD PUSH1 0x1 PUSH2 0x3156 JUMP JUMPDEST PUSH2 0x2A65 DUP5 PUSH1 0x1 PUSH1 0x4 DUP2 LT PUSH2 0x2A42 JUMPI PUSH2 0x2A41 PUSH2 0x3C46 JUMP JUMPDEST JUMPDEST PUSH1 0x20 MUL ADD MLOAD DUP5 PUSH1 0x4 DUP2 LT PUSH2 0x2A59 JUMPI PUSH2 0x2A58 PUSH2 0x3C46 JUMP JUMPDEST JUMPDEST PUSH1 0x20 MUL ADD MLOAD PUSH1 0x3 PUSH2 0x3156 JUMP JUMPDEST PUSH2 0x2A9E DUP6 PUSH0 PUSH1 0x4 DUP2 LT PUSH2 0x2A7B JUMPI PUSH2 0x2A7A PUSH2 0x3C46 JUMP JUMPDEST JUMPDEST PUSH1 0x20 MUL ADD MLOAD DUP6 PUSH1 0x4 DUP2 LT PUSH2 0x2A92 JUMPI PUSH2 0x2A91 PUSH2 0x3C46 JUMP JUMPDEST JUMPDEST PUSH1 0x20 MUL ADD MLOAD PUSH1 0x2 PUSH2 0x3156 JUMP JUMPDEST XOR XOR XOR DUP5 PUSH0 PUSH1 0x4 DUP2 LT PUSH2 0x2AB4 JUMPI PUSH2 0x2AB3 PUSH2 0x3C46 JUMP JUMPDEST JUMPDEST PUSH1 0x20 MUL ADD MLOAD DUP3 PUSH1 0x4 DUP2 LT PUSH2 0x2ACB JUMPI PUSH2 0x2ACA PUSH2 0x3C46 JUMP JUMPDEST JUMPDEST PUSH1 0x20 MUL ADD SWAP1 PUSH1 0xFF AND SWAP1 DUP2 PUSH1 0xFF AND DUP2 MSTORE POP POP PUSH2 0x2B16 DUP3 PUSH1 0x3 PUSH1 0x4 DUP2 LT PUSH2 0x2AF3 JUMPI PUSH2 0x2AF2 PUSH2 0x3C46 JUMP JUMPDEST JUMPDEST PUSH1 0x20 MUL ADD MLOAD DUP3 PUSH1 0x4 DUP2 LT PUSH2 0x2B0A JUMPI PUSH2 0x2B09 PUSH2 0x3C46 JUMP JUMPDEST JUMPDEST PUSH1 0x20 MUL ADD MLOAD PUSH1 0x1 PUSH2 0x3156 JUMP JUMPDEST PUSH2 0x2B50 DUP4 PUSH1 0x2 PUSH1 0x4 DUP2 LT PUSH2 0x2B2D JUMPI PUSH2 0x2B2C PUSH2 0x3C46 JUMP JUMPDEST JUMPDEST PUSH1 0x20 MUL ADD MLOAD DUP4 PUSH1 0x4 DUP2 LT PUSH2 0x2B44 JUMPI PUSH2 0x2B43 PUSH2 0x3C46 JUMP JUMPDEST JUMPDEST PUSH1 0x20 MUL ADD MLOAD PUSH1 0x3 PUSH2 0x3156 JUMP JUMPDEST PUSH2 0x2B8A DUP5 PUSH1 0x1 PUSH1 0x4 DUP2 LT PUSH2 0x2B67 JUMPI PUSH2 0x2B66 PUSH2 0x3C46 JUMP JUMPDEST JUMPDEST PUSH1 0x20 MUL ADD MLOAD DUP5 PUSH1 0x4 DUP2 LT PUSH2 0x2B7E JUMPI PUSH2 0x2B7D PUSH2 0x3C46 JUMP JUMPDEST JUMPDEST PUSH1 0x20 MUL ADD MLOAD PUSH1 0x2 PUSH2 0x3156 JUMP JUMPDEST PUSH2 0x2BC3 DUP6 PUSH0 PUSH1 0x4 DUP2 LT PUSH2 0x2BA0 JUMPI PUSH2 0x2B9F PUSH2 0x3C46 JUMP JUMPDEST JUMPDEST PUSH1 0x20 MUL ADD MLOAD DUP6 PUSH1 0x4 DUP2 LT PUSH2 0x2BB7 JUMPI PUSH2 0x2BB6 PUSH2 0x3C46 JUMP JUMPDEST JUMPDEST PUSH1 0x20 MUL ADD MLOAD PUSH1 0x1 PUSH2 0x3156 JUMP JUMPDEST XOR XOR XOR DUP5 PUSH1 0x1 PUSH1 0x4 DUP2 LT PUSH2 0x2BDA JUMPI PUSH2 0x2BD9 PUSH2 0x3C46 JUMP JUMPDEST JUMPDEST PUSH1 0x20 MUL ADD MLOAD DUP3 PUSH1 0x4 DUP2 LT PUSH2 0x2BF1 JUMPI PUSH2 0x2BF0 PUSH2 0x3C46 JUMP JUMPDEST JUMPDEST PUSH1 0x20 MUL ADD SWAP1 PUSH1 0xFF AND SWAP1 DUP2 PUSH1 0xFF AND DUP2 MSTORE POP POP PUSH2 0x2C3C DUP3 PUSH1 0x3 PUSH1 0x4 DUP2 LT PUSH2 0x2C19 JUMPI PUSH2 0x2C18 PUSH2 0x3C46 JUMP JUMPDEST JUMPDEST PUSH1 0x20 MUL ADD MLOAD DUP3 PUSH1 0x4 DUP2 LT PUSH2 0x2C30 JUMPI PUSH2 0x2C2F PUSH2 0x3C46 JUMP JUMPDEST JUMPDEST PUSH1 0x20 MUL ADD MLOAD PUSH1 0x3 PUSH2 0x3156 JUMP JUMPDEST PUSH2 0x2C76 DUP4 PUSH1 0x2 PUSH1 0x4 DUP2 LT PUSH2 0x2C53 JUMPI PUSH2 0x2C52 PUSH2 0x3C46 JUMP JUMPDEST JUMPDEST PUSH1 0x20 MUL ADD MLOAD DUP4 PUSH1 0x4 DUP2 LT PUSH2 0x2C6A JUMPI PUSH2 0x2C69 PUSH2 0x3C46 JUMP JUMPDEST JUMPDEST PUSH1 0x20 MUL ADD MLOAD PUSH1 0x2 PUSH2 0x3156 JUMP JUMPDEST PUSH2 0x2CB0 DUP5 PUSH1 0x1 PUSH1 0x4 DUP2 LT PUSH2 0x2C8D JUMPI PUSH2 0x2C8C PUSH2 0x3C46 JUMP JUMPDEST JUMPDEST PUSH1 0x20 MUL ADD MLOAD DUP5 PUSH1 0x4 DUP2 LT PUSH2 0x2CA4 JUMPI PUSH2 0x2CA3 PUSH2 0x3C46 JUMP JUMPDEST JUMPDEST PUSH1 0x20 MUL ADD MLOAD PUSH1 0x1 PUSH2 0x3156 JUMP JUMPDEST PUSH2 0x2CE9 DUP6 PUSH0 PUSH1 0x4 DUP2 LT PUSH2 0x2CC6 JUMPI PUSH2 0x2CC5 PUSH2 0x3C46 JUMP JUMPDEST JUMPDEST PUSH1 0x20 MUL ADD MLOAD DUP6 PUSH1 0x4 DUP2 LT PUSH2 0x2CDD JUMPI PUSH2 0x2CDC PUSH2 0x3C46 JUMP JUMPDEST JUMPDEST PUSH1 0x20 MUL ADD MLOAD PUSH1 0x1 PUSH2 0x3156 JUMP JUMPDEST XOR XOR XOR DUP5 PUSH1 0x2 PUSH1 0x4 DUP2 LT PUSH2 0x2D00 JUMPI PUSH2 0x2CFF PUSH2 0x3C46 JUMP JUMPDEST JUMPDEST PUSH1 0x20 MUL ADD MLOAD DUP3 PUSH1 0x4 DUP2 LT PUSH2 0x2D17 JUMPI PUSH2 0x2D16 PUSH2 0x3C46 JUMP JUMPDEST JUMPDEST PUSH1 0x20 MUL ADD SWAP1 PUSH1 0xFF AND SWAP1 DUP2 PUSH1 0xFF AND DUP2 MSTORE POP POP PUSH2 0x2D62 DUP3 PUSH1 0x3 PUSH1 0x4 DUP2 LT PUSH2 0x2D3F JUMPI PUSH2 0x2D3E PUSH2 0x3C46 JUMP JUMPDEST JUMPDEST PUSH1 0x20 MUL ADD MLOAD DUP3 PUSH1 0x4 DUP2 LT PUSH2 0x2D56 JUMPI PUSH2 0x2D55 PUSH2 0x3C46 JUMP JUMPDEST JUMPDEST PUSH1 0x20 MUL ADD MLOAD PUSH1 0x2 PUSH2 0x3156 JUMP JUMPDEST PUSH2 0x2D9C DUP4 PUSH1 0x2 PUSH1 0x4 DUP2 LT PUSH2 0x2D79 JUMPI PUSH2 0x2D78 PUSH2 0x3C46 JUMP JUMPDEST JUMPDEST PUSH1 0x20 MUL ADD MLOAD DUP4 PUSH1 0x4 DUP2 LT PUSH2 0x2D90 JUMPI PUSH2 0x2D8F PUSH2 0x3C46 JUMP JUMPDEST JUMPDEST PUSH1 0x20 MUL ADD MLOAD PUSH1 0x1 PUSH2 0x3156 JUMP JUMPDEST PUSH2 0x2DD6 DUP5 PUSH1 0x1 PUSH1 0x4 DUP2 LT PUSH2 0x2DB3 JUMPI PUSH2 0x2DB2 PUSH2 0x3C46 JUMP JUMPDEST JUMPDEST PUSH1 0x20 MUL ADD MLOAD DUP5 PUSH1 0x4 DUP2 LT PUSH2 0x2DCA JUMPI PUSH2 0x2DC9 PUSH2 0x3C46 JUMP JUMPDEST JUMPDEST PUSH1 0x20 MUL ADD MLOAD PUSH1 0x1 PUSH2 0x3156 JUMP JUMPDEST PUSH2 0x2E0F DUP6 PUSH0 PUSH1 0x4 DUP2 LT PUSH2 0x2DEC JUMPI PUSH2 0x2DEB PUSH2 0x3C46 JUMP JUMPDEST JUMPDEST PUSH1 0x20 MUL ADD MLOAD DUP6 PUSH1 0x4 DUP2 LT PUSH2 0x2E03 JUMPI PUSH2 0x2E02 PUSH2 0x3C46 JUMP JUMPDEST JUMPDEST PUSH1 0x20 MUL ADD MLOAD PUSH1 0x3 PUSH2 0x3156 JUMP JUMPDEST XOR XOR XOR DUP5 PUSH1 0x3 PUSH1 0x4 DUP2 LT PUSH2 0x2E26 JUMPI PUSH2 0x2E25 PUSH2 0x3C46 JUMP JUMPDEST JUMPDEST PUSH1 0x20 MUL ADD MLOAD DUP3 PUSH1 0x4 DUP2 LT PUSH2 0x2E3D JUMPI PUSH2 0x2E3C PUSH2 0x3C46 JUMP JUMPDEST JUMPDEST PUSH1 0x20 MUL ADD SWAP1 PUSH1 0xFF AND SWAP1 DUP2 PUSH1 0xFF AND DUP2 MSTORE POP POP DUP1 DUP1 PUSH1 0x1 ADD SWAP2 POP POP PUSH2 0x292B JUMP JUMPDEST POP DUP3 SWAP2 POP POP SWAP2 SWAP1 POP JUMP JUMPDEST PUSH2 0x2E6D PUSH2 0x32B3 JUMP JUMPDEST PUSH0 PUSH1 0x40 MLOAD DUP1 PUSH1 0x80 ADD PUSH1 0x40 MSTORE DUP1 PUSH0 PUSH1 0xFF AND DUP2 MSTORE PUSH1 0x20 ADD PUSH0 PUSH1 0xFF AND DUP2 MSTORE PUSH1 0x20 ADD PUSH0 PUSH1 0xFF AND DUP2 MSTORE PUSH1 0x20 ADD PUSH0 PUSH1 0xFF AND DUP2 MSTORE POP SWAP1 POP DUP3 PUSH1 0x1 PUSH1 0x4 DUP2 LT PUSH2 0x2EB1 JUMPI PUSH2 0x2EB0 PUSH2 0x3C46 JUMP JUMPDEST JUMPDEST PUSH1 0x20 MUL ADD MLOAD DUP2 PUSH0 PUSH1 0x4 DUP2 LT PUSH2 0x2EC9 JUMPI PUSH2 0x2EC8 PUSH2 0x3C46 JUMP JUMPDEST JUMPDEST PUSH1 0x20 MUL ADD SWAP1 PUSH1 0xFF AND SWAP1 DUP2 PUSH1 0xFF AND DUP2 MSTORE POP POP DUP3 PUSH1 0x2 PUSH1 0x4 DUP2 LT PUSH2 0x2EEE JUMPI PUSH2 0x2EED PUSH2 0x3C46 JUMP JUMPDEST JUMPDEST PUSH1 0x20 MUL ADD MLOAD DUP2 PUSH1 0x1 PUSH1 0x4 DUP2 LT PUSH2 0x2F07 JUMPI PUSH2 0x2F06 PUSH2 0x3C46 JUMP JUMPDEST JUMPDEST PUSH1 0x20 MUL ADD SWAP1 PUSH1 0xFF AND SWAP1 DUP2 PUSH1 0xFF AND DUP2 MSTORE POP POP DUP3 PUSH1 0x3 PUSH1 0x4 DUP2 LT PUSH2 0x2F2C JUMPI PUSH2 0x2F2B PUSH2 0x3C46 JUMP JUMPDEST JUMPDEST PUSH1 0x20 MUL ADD MLOAD DUP2 PUSH1 0x2 PUSH1 0x4 DUP2 LT PUSH2 0x2F45 JUMPI PUSH2 0x2F44 PUSH2 0x3C46 JUMP JUMPDEST JUMPDEST PUSH1 0x20 MUL ADD SWAP1 PUSH1 0xFF AND SWAP1 DUP2 PUSH1 0xFF AND DUP2 MSTORE POP POP DUP3 PUSH0 PUSH1 0x4 DUP2 LT PUSH2 0x2F69 JUMPI PUSH2 0x2F68 PUSH2 0x3C46 JUMP JUMPDEST JUMPDEST PUSH1 0x20 MUL ADD MLOAD DUP2 PUSH1 0x3 PUSH1 0x4 DUP2 LT PUSH2 0x2F82 JUMPI PUSH2 0x2F81 PUSH2 0x3C46 JUMP JUMPDEST JUMPDEST PUSH1 0x20 MUL ADD SWAP1 PUSH1 0xFF AND SWAP1 DUP2 PUSH1 0xFF AND DUP2 MSTORE POP POP DUP1 SWAP2 POP POP SWAP2 SWAP1 POP JUMP JUMPDEST PUSH2 0x2FA4 PUSH2 0x32B3 JUMP JUMPDEST PUSH1 0x1 DUP3 PUSH0 PUSH1 0x4 DUP2 LT PUSH2 0x2FB9 JUMPI PUSH2 0x2FB8 PUSH2 0x3C46 JUMP JUMPDEST JUMPDEST PUSH1 0x20 MUL ADD MLOAD PUSH1 0xFF AND PUSH2 0x100 DUP2 LT PUSH2 0x2FD3 JUMPI PUSH2 0x2FD2 PUSH2 0x3C46 JUMP JUMPDEST JUMPDEST PUSH1 0x20 SWAP2 DUP3 DUP3 DIV ADD SWAP2 SWAP1 MOD SWAP1 SLOAD SWAP1 PUSH2 0x100 EXP SWAP1 DIV PUSH1 0xFF AND DUP3 PUSH0 PUSH1 0x4 DUP2 LT PUSH2 0x2FFC JUMPI PUSH2 0x2FFB PUSH2 0x3C46 JUMP JUMPDEST JUMPDEST PUSH1 0x20 MUL ADD SWAP1 PUSH1 0xFF AND SWAP1 DUP2 PUSH1 0xFF AND DUP2 MSTORE POP POP PUSH1 0x1 DUP3 PUSH1 0x1 PUSH1 0x4 DUP2 LT PUSH2 0x3023 JUMPI PUSH2 0x3022 PUSH2 0x3C46 JUMP JUMPDEST JUMPDEST PUSH1 0x20 MUL ADD MLOAD PUSH1 0xFF AND PUSH2 0x100 DUP2 LT PUSH2 0x303D JUMPI PUSH2 0x303C PUSH2 0x3C46 JUMP JUMPDEST JUMPDEST PUSH1 0x20 SWAP2 DUP3 DUP3 DIV ADD SWAP2 SWAP1 MOD SWAP1 SLOAD SWAP1 PUSH2 0x100 EXP SWAP1 DIV PUSH1 0xFF AND DUP3 PUSH1 0x1 PUSH1 0x4 DUP2 LT PUSH2 0x3067 JUMPI PUSH2 0x3066 PUSH2 0x3C46 JUMP JUMPDEST JUMPDEST PUSH1 0x20 MUL ADD SWAP1 PUSH1 0xFF AND SWAP1 DUP2 PUSH1 0xFF AND DUP2 MSTORE POP POP PUSH1 0x1 DUP3 PUSH1 0x2 PUSH1 0x4 DUP2 LT PUSH2 0x308E JUMPI PUSH2 0x308D PUSH2 0x3C46 JUMP JUMPDEST JUMPDEST PUSH1 0x20 MUL ADD MLOAD PUSH1 0xFF AND PUSH2 0x100 DUP2 LT PUSH2 0x30A8 JUMPI PUSH2 0x30A7 PUSH2 0x3C46 JUMP JUMPDEST JUMPDEST PUSH1 0x20 SWAP2 DUP3 DUP3 DIV ADD SWAP2 SWAP1 MOD SWAP1 SLOAD SWAP1 PUSH2 0x100 EXP SWAP1 DIV PUSH1 0xFF AND DUP3 PUSH1 0x2 PUSH1 0x4 DUP2 LT PUSH2 0x30D2 JUMPI PUSH2 0x30D1 PUSH2 0x3C46 JUMP JUMPDEST JUMPDEST PUSH1 0x20 MUL ADD SWAP1 PUSH1 0xFF AND SWAP1 DUP2 PUSH1 0xFF AND DUP2 MSTORE POP POP PUSH1 0x1 DUP3 PUSH1 0x3 PUSH1 0x4 DUP2 LT PUSH2 0x30F9 JUMPI PUSH2 0x30F8 PUSH2 0x3C46 JUMP JUMPDEST JUMPDEST PUSH1 0x20 MUL ADD MLOAD PUSH1 0xFF AND PUSH2 0x100 DUP2 LT PUSH2 0x3113 JUMPI PUSH2 0x3112 PUSH2 0x3C46 JUMP JUMPDEST JUMPDEST PUSH1 0x20 SWAP2 DUP3 DUP3 DIV ADD SWAP2 SWAP1 MOD SWAP1 SLOAD SWAP1 PUSH2 0x100 EXP SWAP1 DIV PUSH1 0xFF AND DUP3 PUSH1 0x3 PUSH1 0x4 DUP2 LT PUSH2 0x313D JUMPI PUSH2 0x313C PUSH2 0x3C46 JUMP JUMPDEST JUMPDEST PUSH1 0x20 MUL ADD SWAP1 PUSH1 0xFF AND SWAP1 DUP2 PUSH1 0xFF AND DUP2 MSTORE POP POP DUP2 SWAP1 POP SWAP2 SWAP1 POP JUMP JUMPDEST PUSH0 DUP1 DUP4 PUSH1 0xFF AND EQ DUP1 PUSH2 0x316A JUMPI POP PUSH0 DUP3 PUSH1 0xFF AND EQ JUMPDEST ISZERO PUSH2 0x3177 JUMPI PUSH0 SWAP1 POP PUSH2 0x322F JUMP JUMPDEST PUSH0 PUSH1 0x11 DUP5 PUSH1 0xFF AND PUSH2 0x100 DUP2 LT PUSH2 0x3190 JUMPI PUSH2 0x318F PUSH2 0x3C46 JUMP JUMPDEST JUMPDEST PUSH1 0x20 SWAP2 DUP3 DUP3 DIV ADD SWAP2 SWAP1 MOD SWAP1 SLOAD SWAP1 PUSH2 0x100 EXP SWAP1 DIV PUSH1 0xFF AND PUSH1 0xFF AND SWAP1 POP PUSH0 PUSH1 0x11 DUP5 PUSH1 0xFF AND PUSH2 0x100 DUP2 LT PUSH2 0x31C4 JUMPI PUSH2 0x31C3 PUSH2 0x3C46 JUMP JUMPDEST JUMPDEST PUSH1 0x20 SWAP2 DUP3 DUP3 DIV ADD SWAP2 SWAP1 MOD SWAP1 SLOAD SWAP1 PUSH2 0x100 EXP SWAP1 DIV PUSH1 0xFF AND PUSH1 0xFF AND SWAP1 POP PUSH0 PUSH1 0xFF DUP3 DUP5 PUSH2 0x31EE SWAP2 SWAP1 PUSH2 0x3E89 JUMP JUMPDEST PUSH2 0x31F8 SWAP2 SWAP1 PUSH2 0x3EBE JUMP JUMPDEST SWAP1 POP PUSH1 0x19 DUP2 PUSH2 0xFFFF AND PUSH2 0x100 DUP2 LT PUSH2 0x3213 JUMPI PUSH2 0x3212 PUSH2 0x3C46 JUMP JUMPDEST JUMPDEST PUSH1 0x20 SWAP2 DUP3 DUP3 DIV ADD SWAP2 SWAP1 MOD SWAP1 SLOAD SWAP1 PUSH2 0x100 EXP SWAP1 DIV PUSH1 0xFF AND SWAP4 POP POP POP POP JUMPDEST SWAP3 SWAP2 POP POP JUMP JUMPDEST PUSH1 0x40 MLOAD DUP1 PUSH2 0x200 ADD PUSH1 0x40 MSTORE DUP1 PUSH1 0x10 SWAP1 PUSH1 0x20 DUP3 MUL DUP1 CALLDATASIZE DUP4 CALLDATACOPY DUP1 DUP3 ADD SWAP2 POP POP SWAP1 POP POP SWAP1 JUMP JUMPDEST PUSH1 0x40 MLOAD DUP1 PUSH2 0x580 ADD PUSH1 0x40 MSTORE DUP1 PUSH1 0x2C SWAP1 JUMPDEST PUSH2 0x3270 PUSH2 0x32B3 JUMP JUMPDEST DUP2 MSTORE PUSH1 0x20 ADD SWAP1 PUSH1 0x1 SWAP1 SUB SWAP1 DUP2 PUSH2 0x3268 JUMPI SWAP1 POP POP SWAP1 JUMP JUMPDEST PUSH1 0x40 MLOAD DUP1 PUSH1 0x80 ADD PUSH1 0x40 MSTORE DUP1 PUSH1 0x4 SWAP1 JUMPDEST PUSH2 0x329D PUSH2 0x32B3 JUMP JUMPDEST DUP2 MSTORE PUSH1 0x20 ADD SWAP1 PUSH1 0x1 SWAP1 SUB SWAP1 DUP2 PUSH2 0x3295 JUMPI SWAP1 POP POP SWAP1 JUMP JUMPDEST PUSH1 0x40 MLOAD DUP1 PUSH1 0x80 ADD PUSH1 0x40 MSTORE DUP1 PUSH1 0x4 SWAP1 PUSH1 0x20 DUP3 MUL DUP1 CALLDATASIZE DUP4 CALLDATACOPY DUP1 DUP3 ADD SWAP2 POP POP SWAP1 POP POP SWAP1 JUMP JUMPDEST PUSH0 PUSH1 0x40 MLOAD SWAP1 POP SWAP1 JUMP JUMPDEST PUSH0 DUP1 REVERT JUMPDEST PUSH0 DUP1 REVERT JUMPDEST PUSH0 DUP1 REVERT JUMPDEST PUSH0 DUP1 REVERT JUMPDEST PUSH0 PUSH1 0x1F NOT PUSH1 0x1F DUP4 ADD AND SWAP1 POP SWAP2 SWAP1 POP JUMP JUMPDEST PUSH32 0x4E487B7100000000000000000000000000000000000000000000000000000000 PUSH0 MSTORE PUSH1 0x41 PUSH1 0x4 MSTORE PUSH1 0x24 PUSH0 REVERT JUMPDEST PUSH2 0x3334 DUP3 PUSH2 0x32EE JUMP JUMPDEST DUP2 ADD DUP2 DUP2 LT PUSH8 0xFFFFFFFFFFFFFFFF DUP3 GT OR ISZERO PUSH2 0x3353 JUMPI PUSH2 0x3352 PUSH2 0x32FE JUMP JUMPDEST JUMPDEST DUP1 PUSH1 0x40 MSTORE POP POP POP JUMP JUMPDEST PUSH0 PUSH2 0x3365 PUSH2 0x32D5 JUMP JUMPDEST SWAP1 POP PUSH2 0x3371 DUP3 DUP3 PUSH2 0x332B JUMP JUMPDEST SWAP2 SWAP1 POP JUMP JUMPDEST PUSH0 PUSH8 0xFFFFFFFFFFFFFFFF DUP3 GT ISZERO PUSH2 0x3390 JUMPI PUSH2 0x338F PUSH2 0x32FE JUMP JUMPDEST JUMPDEST PUSH2 0x3399 DUP3 PUSH2 0x32EE JUMP JUMPDEST SWAP1 POP PUSH1 0x20 DUP2 ADD SWAP1 POP SWAP2 SWAP1 POP JUMP JUMPDEST DUP3 DUP2 DUP4 CALLDATACOPY PUSH0 DUP4 DUP4 ADD MSTORE POP POP POP JUMP JUMPDEST PUSH0 PUSH2 0x33C6 PUSH2 0x33C1 DUP5 PUSH2 0x3376 JUMP JUMPDEST PUSH2 0x335C JUMP JUMPDEST SWAP1 POP DUP3 DUP2 MSTORE PUSH1 0x20 DUP2 ADD DUP5 DUP5 DUP5 ADD GT ISZERO PUSH2 0x33E2 JUMPI PUSH2 0x33E1 PUSH2 0x32EA JUMP JUMPDEST JUMPDEST PUSH2 0x33ED DUP5 DUP3 DUP6 PUSH2 0x33A6 JUMP JUMPDEST POP SWAP4 SWAP3 POP POP POP JUMP JUMPDEST PUSH0 DUP3 PUSH1 0x1F DUP4 ADD SLT PUSH2 0x3409 JUMPI PUSH2 0x3408 PUSH2 0x32E6 JUMP JUMPDEST JUMPDEST DUP2 CALLDATALOAD PUSH2 0x3419 DUP5 DUP3 PUSH1 0x20 DUP7 ADD PUSH2 0x33B4 JUMP JUMPDEST SWAP2 POP POP SWAP3 SWAP2 POP POP JUMP JUMPDEST PUSH0 PUSH1 0x20 DUP3 DUP5 SUB SLT ISZERO PUSH2 0x3437 JUMPI PUSH2 0x3436 PUSH2 0x32DE JUMP JUMPDEST JUMPDEST PUSH0 DUP3 ADD CALLDATALOAD PUSH8 0xFFFFFFFFFFFFFFFF DUP2 GT ISZERO PUSH2 0x3454 JUMPI PUSH2 0x3453 PUSH2 0x32E2 JUMP JUMPDEST JUMPDEST PUSH2 0x3460 DUP5 DUP3 DUP6 ADD PUSH2 0x33F5 JUMP JUMPDEST SWAP2 POP POP SWAP3 SWAP2 POP POP JUMP JUMPDEST PUSH0 DUP2 MLOAD SWAP1 POP SWAP2 SWAP1 POP JUMP JUMPDEST PUSH0 DUP3 DUP3 MSTORE PUSH1 0x20 DUP3 ADD SWAP1 POP SWAP3 SWAP2 POP POP JUMP JUMPDEST PUSH0 DUP2 SWAP1 POP PUSH1 0x20 DUP3 ADD SWAP1 POP SWAP2 SWAP1 POP JUMP JUMPDEST PUSH0 PUSH16 0xFFFFFFFFFFFFFFFFFFFFFFFFFFFFFFFF DUP3 AND SWAP1 POP SWAP2 SWAP1 POP JUMP JUMPDEST PUSH2 0x34B6 DUP2 PUSH2 0x3492 JUMP JUMPDEST DUP3 MSTORE POP POP JUMP JUMPDEST PUSH0 PUSH2 0x34C7 DUP4 DUP4 PUSH2 0x34AD JUMP JUMPDEST PUSH1 0x20 DUP4 ADD SWAP1 POP SWAP3 SWAP2 POP POP JUMP JUMPDEST PUSH0 PUSH1 0x20 DUP3 ADD SWAP1 POP SWAP2 SWAP1 POP JUMP JUMPDEST PUSH0 PUSH2 0x34E9 DUP3 PUSH2 0x3469 JUMP JUMPDEST PUSH2 0x34F3 DUP2 DUP6 PUSH2 0x3473 JUMP JUMPDEST SWAP4 POP PUSH2 0x34FE DUP4 PUSH2 0x3483 JUMP JUMPDEST DUP1 PUSH0 JUMPDEST DUP4 DUP2 LT ISZERO PUSH2 0x352E JUMPI DUP2 MLOAD PUSH2 0x3515 DUP9 DUP3 PUSH2 0x34BC JUMP JUMPDEST SWAP8 POP PUSH2 0x3520 DUP4 PUSH2 0x34D3 JUMP JUMPDEST SWAP3 POP POP PUSH1 0x1 DUP2 ADD SWAP1 POP PUSH2 0x3501 JUMP JUMPDEST POP DUP6 SWAP4 POP POP POP POP SWAP3 SWAP2 POP POP JUMP JUMPDEST PUSH0 PUSH1 0x20 DUP3 ADD SWAP1 POP DUP2 DUP2 SUB PUSH0 DUP4 ADD MSTORE PUSH2 0x3553 DUP2 DUP5 PUSH2 0x34DF JUMP JUMPDEST SWAP1 POP SWAP3 SWAP2 POP POP JUMP JUMPDEST PUSH0 DUP1 PUSH0 DUP1 PUSH1 0x80 DUP6 DUP8 SUB SLT ISZERO PUSH2 0x3573 JUMPI PUSH2 0x3572 PUSH2 0x32DE JUMP JUMPDEST JUMPDEST PUSH0 DUP6 ADD CALLDATALOAD PUSH8 0xFFFFFFFFFFFFFFFF DUP2 GT ISZERO PUSH2 0x3590 JUMPI PUSH2 0x358F PUSH2 0x32E2 JUMP JUMPDEST JUMPDEST PUSH2 0x359C DUP8 DUP3 DUP9 ADD PUSH2 0x33F5 JUMP JUMPDEST SWAP5 POP POP PUSH1 0x20 DUP6 ADD CALLDATALOAD PUSH8 0xFFFFFFFFFFFFFFFF DUP2 GT ISZERO PUSH2 0x35BD JUMPI PUSH2 0x35BC PUSH2 0x32E2 JUMP JUMPDEST JUMPDEST PUSH2 0x35C9 DUP8 DUP3 DUP9 ADD PUSH2 0x33F5 JUMP JUMPDEST SWAP4 POP POP PUSH1 0x40 DUP6 ADD CALLDATALOAD PUSH8 0xFFFFFFFFFFFFFFFF DUP2 GT ISZERO PUSH2 0x35EA JUMPI PUSH2 0x35E9 PUSH2 0x32E2 JUMP JUMPDEST JUMPDEST PUSH2 0x35F6 DUP8 DUP3 DUP9 ADD PUSH2 0x33F5 JUMP JUMPDEST SWAP3 POP POP PUSH1 0x60 DUP6 ADD CALLDATALOAD PUSH8 0xFFFFFFFFFFFFFFFF DUP2 GT ISZERO PUSH2 0x3617 JUMPI PUSH2 0x3616 PUSH2 0x32E2 JUMP JUMPDEST JUMPDEST PUSH2 0x3623 DUP8 DUP3 DUP9 ADD PUSH2 0x33F5 JUMP JUMPDEST SWAP2 POP POP SWAP3 SWAP6 SWAP2 SWAP5 POP SWAP3 POP JUMP JUMPDEST PUSH0 DUP2 MLOAD SWAP1 POP SWAP2 SWAP1 POP JUMP JUMPDEST PUSH0 DUP3 DUP3 MSTORE PUSH1 0x20 DUP3 ADD SWAP1 POP SWAP3 SWAP2 POP POP JUMP JUMPDEST DUP3 DUP2 DUP4 MCOPY PUSH0 DUP4 DUP4 ADD MSTORE POP POP POP JUMP JUMPDEST PUSH0 PUSH2 0x3661 DUP3 PUSH2 0x362F JUMP JUMPDEST PUSH2 0x366B DUP2 DUP6 PUSH2 0x3639 JUMP JUMPDEST SWAP4 POP PUSH2 0x367B DUP2 DUP6 PUSH1 0x20 DUP7 ADD PUSH2 0x3649 JUMP JUMPDEST PUSH2 0x3684 DUP2 PUSH2 0x32EE JUMP JUMPDEST DUP5 ADD SWAP2 POP POP SWAP3 SWAP2 POP POP JUMP JUMPDEST PUSH0 PUSH1 0x20 DUP3 ADD SWAP1 POP DUP2 DUP2 SUB PUSH0 DUP4 ADD MSTORE PUSH2 0x36A7 DUP2 DUP5 PUSH2 0x3657 JUMP JUMPDEST SWAP1 POP SWAP3 SWAP2 POP POP JUMP JUMPDEST PUSH0 PUSH8 0xFFFFFFFFFFFFFFFF DUP3 GT ISZERO PUSH2 0x36C9 JUMPI PUSH2 0x36C8 PUSH2 0x32FE JUMP JUMPDEST JUMPDEST PUSH1 0x20 DUP3 MUL SWAP1 POP PUSH1 0x20 DUP2 ADD SWAP1 POP SWAP2 SWAP1 POP JUMP JUMPDEST PUSH0 DUP1 REVERT JUMPDEST PUSH2 0x36E7 DUP2 PUSH2 0x3492 JUMP JUMPDEST DUP2 EQ PUSH2 0x36F1 JUMPI PUSH0 DUP1 REVERT JUMPDEST POP JUMP JUMPDEST PUSH0 DUP2 CALLDATALOAD SWAP1 POP PUSH2 0x3702 DUP2 PUSH2 0x36DE JUMP JUMPDEST SWAP3 SWAP2 POP POP JUMP JUMPDEST PUSH0 PUSH2 0x371A PUSH2 0x3715 DUP5 PUSH2 0x36AF JUMP JUMPDEST PUSH2 0x335C JUMP JUMPDEST SWAP1 POP DUP1 DUP4 DUP3 MSTORE PUSH1 0x20 DUP3 ADD SWAP1 POP PUSH1 0x20 DUP5 MUL DUP4 ADD DUP6 DUP2 GT ISZERO PUSH2 0x373D JUMPI PUSH2 0x373C PUSH2 0x36DA JUMP JUMPDEST JUMPDEST DUP4 JUMPDEST DUP2 DUP2 LT ISZERO PUSH2 0x3766 JUMPI DUP1 PUSH2 0x3752 DUP9 DUP3 PUSH2 0x36F4 JUMP JUMPDEST DUP5 MSTORE PUSH1 0x20 DUP5 ADD SWAP4 POP POP PUSH1 0x20 DUP2 ADD SWAP1 POP PUSH2 0x373F JUMP JUMPDEST POP POP POP SWAP4 SWAP3 POP POP POP JUMP JUMPDEST PUSH0 DUP3 PUSH1 0x1F DUP4 ADD SLT PUSH2 0x3784 JUMPI PUSH2 0x3783 PUSH2 0x32E6 JUMP JUMPDEST JUMPDEST DUP2 CALLDATALOAD PUSH2 0x3794 DUP5 DUP3 PUSH1 0x20 DUP7 ADD PUSH2 0x3708 JUMP JUMPDEST SWAP2 POP POP SWAP3 SWAP2 POP POP JUMP JUMPDEST PUSH0 PUSH1 0x20 DUP3 DUP5 SUB SLT ISZERO PUSH2 0x37B2 JUMPI PUSH2 0x37B1 PUSH2 0x32DE JUMP JUMPDEST JUMPDEST PUSH0 DUP3 ADD CALLDATALOAD PUSH8 0xFFFFFFFFFFFFFFFF DUP2 GT ISZERO PUSH2 0x37CF JUMPI PUSH2 0x37CE PUSH2 0x32E2 JUMP JUMPDEST JUMPDEST PUSH2 0x37DB DUP5 DUP3 DUP6 ADD PUSH2 0x3770 JUMP JUMPDEST SWAP2 POP POP SWAP3 SWAP2 POP POP JUMP JUMPDEST PUSH0 PUSH8 0xFFFFFFFFFFFFFFFF DUP3 GT ISZERO PUSH2 0x37FE JUMPI PUSH2 0x37FD PUSH2 0x32FE JUMP JUMPDEST JUMPDEST PUSH1 0x20 DUP3 MUL SWAP1 POP SWAP2 SWAP1 POP JUMP JUMPDEST PUSH0 PUSH1 0xFF DUP3 AND SWAP1 POP SWAP2 SWAP1 POP JUMP JUMPDEST PUSH2 0x381E DUP2 PUSH2 0x3809 JUMP JUMPDEST DUP2 EQ PUSH2 0x3828 JUMPI PUSH0 DUP1 REVERT JUMPDEST POP JUMP JUMPDEST PUSH0 DUP2 CALLDATALOAD SWAP1 POP PUSH2 0x3839 DUP2 PUSH2 0x3815 JUMP JUMPDEST SWAP3 SWAP2 POP POP JUMP JUMPDEST PUSH0 PUSH2 0x3851 PUSH2 0x384C DUP5 PUSH2 0x37E4 JUMP JUMPDEST PUSH2 0x335C JUMP JUMPDEST SWAP1 POP DUP1 PUSH1 0x20 DUP5 MUL DUP4 ADD DUP6 DUP2 GT ISZERO PUSH2 0x386B JUMPI PUSH2 0x386A PUSH2 0x36DA JUMP JUMPDEST JUMPDEST DUP4 JUMPDEST DUP2 DUP2 LT ISZERO PUSH2 0x3894 JUMPI DUP1 PUSH2 0x3880 DUP9 DUP3 PUSH2 0x382B JUMP JUMPDEST DUP5 MSTORE PUSH1 0x20 DUP5 ADD SWAP4 POP POP PUSH1 0x20 DUP2 ADD SWAP1 POP PUSH2 0x386D JUMP JUMPDEST POP POP POP SWAP4 SWAP3 POP POP POP JUMP JUMPDEST PUSH0 DUP3 PUSH1 0x1F DUP4 ADD SLT PUSH2 0x38B2 JUMPI PUSH2 0x38B1 PUSH2 0x32E6 JUMP JUMPDEST JUMPDEST PUSH1 0x10 PUSH2 0x38BF DUP5 DUP3 DUP6 PUSH2 0x383F JUMP JUMPDEST SWAP2 POP POP SWAP3 SWAP2 POP POP JUMP JUMPDEST PUSH0 DUP1 PUSH2 0x400 DUP4 DUP6 SUB SLT ISZERO PUSH2 0x38DF JUMPI PUSH2 0x38DE PUSH2 0x32DE JUMP JUMPDEST JUMPDEST PUSH0 PUSH2 0x38EC DUP6 DUP3 DUP7 ADD PUSH2 0x389E JUMP JUMPDEST SWAP3 POP POP PUSH2 0x200 PUSH2 0x38FE DUP6 DUP3 DUP7 ADD PUSH2 0x389E JUMP JUMPDEST SWAP2 POP POP SWAP3 POP SWAP3 SWAP1 POP JUMP JUMPDEST PUSH0 PUSH1 0x10 SWAP1 POP SWAP2 SWAP1 POP JUMP JUMPDEST PUSH0 DUP2 SWAP1 POP SWAP3 SWAP2 POP POP JUMP JUMPDEST PUSH0 DUP2 SWAP1 POP SWAP2 SWAP1 POP JUMP JUMPDEST PUSH2 0x392E DUP2 PUSH2 0x3809 JUMP JUMPDEST DUP3 MSTORE POP POP JUMP JUMPDEST PUSH0 PUSH2 0x393F DUP4 DUP4 PUSH2 0x3925 JUMP JUMPDEST PUSH1 0x20 DUP4 ADD SWAP1 POP SWAP3 SWAP2 POP POP JUMP JUMPDEST PUSH0 PUSH1 0x20 DUP3 ADD SWAP1 POP SWAP2 SWAP1 POP JUMP JUMPDEST PUSH2 0x3960 DUP2 PUSH2 0x3908 JUMP JUMPDEST PUSH2 0x396A DUP2 DUP5 PUSH2 0x3912 JUMP JUMPDEST SWAP3 POP PUSH2 0x3975 DUP3 PUSH2 0x391C JUMP JUMPDEST DUP1 PUSH0 JUMPDEST DUP4 DUP2 LT ISZERO PUSH2 0x39A5 JUMPI DUP2 MLOAD PUSH2 0x398C DUP8 DUP3 PUSH2 0x3934 JUMP JUMPDEST SWAP7 POP PUSH2 0x3997 DUP4 PUSH2 0x394B JUMP JUMPDEST SWAP3 POP POP PUSH1 0x1 DUP2 ADD SWAP1 POP PUSH2 0x3978 JUMP JUMPDEST POP POP POP POP POP POP JUMP JUMPDEST PUSH0 PUSH2 0x200 DUP3 ADD SWAP1 POP PUSH2 0x39C1 PUSH0 DUP4 ADD DUP5 PUSH2 0x3957 JUMP JUMPDEST SWAP3 SWAP2 POP POP JUMP JUMPDEST PUSH0 DUP2 SWAP1 POP SWAP2 SWAP1 POP JUMP JUMPDEST PUSH32 0x4E487B7100000000000000000000000000000000000000000000000000000000 PUSH0 MSTORE PUSH1 0x12 PUSH1 0x4 MSTORE PUSH1 0x24 PUSH0 REVERT JUMPDEST PUSH0 PUSH2 0x3A07 DUP3 PUSH2 0x39C7 JUMP JUMPDEST SWAP2 POP PUSH2 0x3A12 DUP4 PUSH2 0x39C7 JUMP JUMPDEST SWAP3 POP DUP3 PUSH2 0x3A22 JUMPI PUSH2 0x3A21 PUSH2 0x39D0 JUMP JUMPDEST JUMPDEST DUP3 DUP3 MOD SWAP1 POP SWAP3 SWAP2 POP POP JUMP JUMPDEST PUSH32 0x4E487B7100000000000000000000000000000000000000000000000000000000 PUSH0 MSTORE PUSH1 0x11 PUSH1 0x4 MSTORE PUSH1 0x24 PUSH0 REVERT JUMPDEST PUSH0 PUSH2 0x3A64 DUP3 PUSH2 0x39C7 JUMP JUMPDEST SWAP2 POP PUSH2 0x3A6F DUP4 PUSH2 0x39C7 JUMP JUMPDEST SWAP3 POP DUP3 DUP3 SUB SWAP1 POP DUP2 DUP2 GT ISZERO PUSH2 0x3A87 JUMPI PUSH2 0x3A86 PUSH2 0x3A2D JUMP JUMPDEST JUMPDEST SWAP3 SWAP2 POP POP JUMP JUMPDEST PUSH0 DUP2 SWAP1 POP SWAP3 SWAP2 POP POP JUMP JUMPDEST PUSH0 PUSH2 0x3AA1 DUP3 PUSH2 0x362F JUMP JUMPDEST PUSH2 0x3AAB DUP2 DUP6 PUSH2 0x3A8D JUMP JUMPDEST SWAP4 POP PUSH2 0x3ABB DUP2 DUP6 PUSH1 0x20 DUP7 ADD PUSH2 0x3649 JUMP JUMPDEST DUP1 DUP5 ADD SWAP2 POP POP SWAP3 SWAP2 POP POP JUMP JUMPDEST PUSH0 DUP2 MSTORE POP JUMP JUMPDEST PUSH0 PUSH2 0x3AD8 DUP3 DUP5 PUSH2 0x3A97 JUMP JUMPDEST SWAP2 POP PUSH2 0x3AE3 DUP3 PUSH2 0x3AC7 JUMP JUMPDEST PUSH1 0x1 DUP3 ADD SWAP2 POP DUP2 SWAP1 POP SWAP3 SWAP2 POP POP JUMP JUMPDEST PUSH0 PUSH2 0x3AFD DUP3 DUP6 PUSH2 0x3A97 JUMP JUMPDEST SWAP2 POP PUSH2 0x3B09 DUP3 DUP5 PUSH2 0x3A97 JUMP JUMPDEST SWAP2 POP DUP2 SWAP1 POP SWAP4 SWAP3 POP POP POP JUMP JUMPDEST PUSH0 PUSH2 0x3B1F DUP3 PUSH2 0x39C7 JUMP JUMPDEST SWAP2 POP PUSH2 0x3B2A DUP4 PUSH2 0x39C7 JUMP JUMPDEST SWAP3 POP DUP3 PUSH2 0x3B3A JUMPI PUSH2 0x3B39 PUSH2 0x39D0 JUMP JUMPDEST JUMPDEST DUP3 DUP3 DIV SWAP1 POP SWAP3 SWAP2 POP POP JUMP JUMPDEST PUSH0 PUSH2 0x3B4F DUP3 PUSH2 0x39C7 JUMP JUMPDEST SWAP2 POP PUSH2 0x3B5A DUP4 PUSH2 0x39C7 JUMP JUMPDEST SWAP3 POP DUP3 DUP3 MUL PUSH2 0x3B68 DUP2 PUSH2 0x39C7 JUMP JUMPDEST SWAP2 POP DUP3 DUP3 DIV DUP5 EQ DUP4 ISZERO OR PUSH2 0x3B7F JUMPI PUSH2 0x3B7E PUSH2 0x3A2D JUMP JUMPDEST JUMPDEST POP SWAP3 SWAP2 POP POP JUMP JUMPDEST PUSH0 DUP2 SWAP1 POP PUSH1 0x20 DUP3 ADD SWAP1 POP SWAP2 SWAP1 POP JUMP JUMPDEST PUSH0 PUSH32 0xFFFFFFFFFFFFFFFFFFFFFFFFFFFFFFFF00000000000000000000000000000000 DUP3 AND SWAP1 POP SWAP2 SWAP1 POP JUMP JUMPDEST PUSH0 PUSH2 0x3BCB DUP3 MLOAD PUSH2 0x3B95 JUMP JUMPDEST DUP1 SWAP2 POP POP SWAP2 SWAP1 POP JUMP JUMPDEST PUSH0 DUP3 DUP3 SHL SWAP1 POP SWAP3 SWAP2 POP POP JUMP JUMPDEST PUSH0 PUSH2 0x3BEA DUP3 PUSH2 0x362F JUMP JUMPDEST DUP3 PUSH2 0x3BF4 DUP5 PUSH2 0x3B86 JUMP JUMPDEST SWAP1 POP PUSH2 0x3BFF DUP2 PUSH2 0x3BC0 JUMP JUMPDEST SWAP3 POP PUSH1 0x10 DUP3 LT ISZERO PUSH2 0x3C3F JUMPI PUSH2 0x3C3A PUSH32 0xFFFFFFFFFFFFFFFFFFFFFFFFFFFFFFFF00000000000000000000000000000000 DUP4 PUSH1 0x10 SUB PUSH1 0x8 MUL PUSH2 0x3BD4 JUMP JUMPDEST DUP4 AND SWAP3 POP JUMPDEST POP POP SWAP2 SWAP1 POP JUMP JUMPDEST PUSH32 0x4E487B7100000000000000000000000000000000000000000000000000000000 PUSH0 MSTORE PUSH1 0x32 PUSH1 0x4 MSTORE PUSH1 0x24 PUSH0 REVERT JUMPDEST PUSH0 DUP2 SWAP1 POP SWAP2 SWAP1 POP JUMP JUMPDEST PUSH2 0x3C8D PUSH2 0x3C88 DUP3 PUSH2 0x3B95 JUMP JUMPDEST PUSH2 0x3C73 JUMP JUMPDEST DUP3 MSTORE POP POP JUMP JUMPDEST PUSH0 PUSH2 0x3C9E DUP3 DUP5 PUSH2 0x3C7C JUMP JUMPDEST PUSH1 0x10 DUP3 ADD SWAP2 POP DUP2 SWAP1 POP SWAP3 SWAP2 POP POP JUMP JUMPDEST PUSH0 DUP2 PUSH1 0x80 SHL SWAP1 POP SWAP2 SWAP1 POP JUMP JUMPDEST PUSH0 PUSH2 0x3CC3 DUP3 PUSH2 0x3CAD JUMP JUMPDEST SWAP1 POP SWAP2 SWAP1 POP JUMP JUMPDEST PUSH2 0x3CDB PUSH2 0x3CD6 DUP3 PUSH2 0x3492 JUMP JUMPDEST PUSH2 0x3CB9 JUMP JUMPDEST DUP3 MSTORE POP POP JUMP JUMPDEST PUSH0 PUSH2 0x3CEC DUP3 DUP5 PUSH2 0x3CCA JUMP JUMPDEST PUSH1 0x10 DUP3 ADD SWAP2 POP DUP2 SWAP1 POP SWAP3 SWAP2 POP POP JUMP JUMPDEST PUSH0 PUSH2 0x3D05 DUP3 PUSH2 0x39C7 JUMP JUMPDEST SWAP2 POP PUSH2 0x3D10 DUP4 PUSH2 0x39C7 JUMP JUMPDEST SWAP3 POP DUP3 DUP3 ADD SWAP1 POP DUP1 DUP3 GT ISZERO PUSH2 0x3D28 JUMPI PUSH2 0x3D27 PUSH2 0x3A2D JUMP JUMPDEST JUMPDEST SWAP3 SWAP2 POP POP JUMP JUMPDEST PUSH0 PUSH2 0x3D38 DUP3 PUSH2 0x39C7 JUMP JUMPDEST SWAP2 POP PUSH0 DUP3 SUB PUSH2 0x3D4A JUMPI PUSH2 0x3D49 PUSH2 0x3A2D JUMP JUMPDEST JUMPDEST PUSH1 0x1 DUP3 SUB SWAP1 POP SWAP2 SWAP1 POP JUMP JUMPDEST PUSH0 PUSH2 0x3D5F DUP3 PUSH2 0x39C7 JUMP JUMPDEST SWAP2 POP PUSH32 0xFFFFFFFFFFFFFFFFFFFFFFFFFFFFFFFFFFFFFFFFFFFFFFFFFFFFFFFFFFFFFFFF DUP3 SUB PUSH2 0x3D91 JUMPI PUSH2 0x3D90 PUSH2 0x3A2D JUMP JUMPDEST JUMPDEST PUSH1 0x1 DUP3 ADD SWAP1 POP SWAP2 SWAP1 POP JUMP JUMPDEST PUSH0 DUP3 DUP3 MSTORE PUSH1 0x20 DUP3 ADD SWAP1 POP SWAP3 SWAP2 POP POP JUMP JUMPDEST PUSH32 0x736C6963655F6F766572666C6F77000000000000000000000000000000000000 PUSH0 DUP3 ADD MSTORE POP JUMP JUMPDEST PUSH0 PUSH2 0x3DE0 PUSH1 0xE DUP4 PUSH2 0x3D9C JUMP JUMPDEST SWAP2 POP PUSH2 0x3DEB DUP3 PUSH2 0x3DAC JUMP JUMPDEST PUSH1 0x20 DUP3 ADD SWAP1 POP SWAP2 SWAP1 POP JUMP JUMPDEST PUSH0 PUSH1 0x20 DUP3 ADD SWAP1 POP DUP2 DUP2 SUB PUSH0 DUP4 ADD MSTORE PUSH2 0x3E0D DUP2 PUSH2 0x3DD4 JUMP JUMPDEST SWAP1 POP SWAP2 SWAP1 POP JUMP JUMPDEST PUSH32 0x736C6963655F6F75744F66426F756E6473000000000000000000000000000000 PUSH0 DUP3 ADD MSTORE POP JUMP JUMPDEST PUSH0 PUSH2 0x3E48 PUSH1 0x11 DUP4 PUSH2 0x3D9C JUMP JUMPDEST SWAP2 POP PUSH2 0x3E53 DUP3 PUSH2 0x3E14 JUMP JUMPDEST PUSH1 0x20 DUP3 ADD SWAP1 POP SWAP2 SWAP1 POP JUMP JUMPDEST PUSH0 PUSH1 0x20 DUP3 ADD SWAP1 POP DUP2 DUP2 SUB PUSH0 DUP4 ADD MSTORE PUSH2 0x3E75 DUP2 PUSH2 0x3E3C JUMP JUMPDEST SWAP1 POP SWAP2 SWAP1 POP JUMP JUMPDEST PUSH0 PUSH2 0xFFFF DUP3 AND SWAP1 POP SWAP2 SWAP1 POP JUMP JUMPDEST PUSH0 PUSH2 0x3E93 DUP3 PUSH2 0x3E7C JUMP JUMPDEST SWAP2 POP PUSH2 0x3E9E DUP4 PUSH2 0x3E7C JUMP JUMPDEST SWAP3 POP DUP3 DUP3 ADD SWAP1 POP PUSH2 0xFFFF DUP2 GT ISZERO PUSH2 0x3EB8 JUMPI PUSH2 0x3EB7 PUSH2 0x3A2D JUMP JUMPDEST JUMPDEST SWAP3 SWAP2 POP POP JUMP JUMPDEST PUSH0 PUSH2 0x3EC8 DUP3 PUSH2 0x3E7C JUMP JUMPDEST SWAP2 POP PUSH2 0x3ED3 DUP4 PUSH2 0x3E7C JUMP JUMPDEST SWAP3 POP DUP3 PUSH2 0x3EE3 JUMPI PUSH2 0x3EE2 PUSH2 0x39D0 JUMP JUMPDEST JUMPDEST DUP3 DUP3 MOD SWAP1 POP SWAP3 SWAP2 POP POP JUMP INVALID LOG2 PUSH5 0x6970667358 0x22 SLT KECCAK256 0xD 0xB3 GASLIMIT DUP11 SWAP8 SELFBALANCE EXP BLOBHASH 0xE PUSH31 0x18DA48430314BC12DF9A7796FE679DF10E4ADEF9811B64736F6C634300081A STOP CALLER "
		},
		"gasEstimates": {
			"creation": {
				"codeDepositCost": "3232800",
				"executionCost": "infinite",
				"totalCost": "infinite"
			},
			"external": {
				"aes_dec(uint8[16],uint8[16])": "infinite",
				"aes_enc(uint8[16],uint8[16])": "infinite",
				"aes_gcm_dec(bytes,bytes,bytes,bytes)": "infinite",
				"bytes_to_uint128_array_w_padding(bytes)": "infinite",
				"uint128_array_to_bytes(uint128[])": "infinite"
			},
			"internal": {
				"add_round_key(uint8[4] memory[4] memory,uint8[4] memory[4] memory)": "infinite",
				"expand_key(uint8[16] memory)": "infinite",
				"gal_mul(uint8,uint8)": "infinite",
				"inv_mix_columns(uint8[4] memory[4] memory)": "infinite",
				"inv_shift_rows(uint8[4] memory[4] memory)": "infinite",
				"inv_sub_state(uint8[4] memory[4] memory)": "infinite",
				"mix_columns(uint8[4] memory[4] memory)": "infinite",
				"rot_word(uint8[4] memory)": "infinite",
				"shift_rows(uint8[4] memory[4] memory)": "infinite",
				"sub_state(uint8[4] memory[4] memory)": "infinite",
				"sub_word(uint8[4] memory)": "infinite"
			}
		},
		"methodIdentifiers": {
			"aes_dec(uint8[16],uint8[16])": "4dd76c8a",
			"aes_enc(uint8[16],uint8[16])": "6b71a846",
			"aes_gcm_dec(bytes,bytes,bytes,bytes)": "285fe5f2",
			"bytes_to_uint128_array_w_padding(bytes)": "06f4a01c",
			"uint128_array_to_bytes(uint128[])": "3a0e6be2"
		}
	},
	"abi": [
		{
			"inputs": [
				{
					"internalType": "uint8[16]",
					"name": "cipher",
					"type": "uint8[16]"
				},
				{
					"internalType": "uint8[16]",
					"name": "key",
					"type": "uint8[16]"
				}
			],
			"name": "aes_dec",
			"outputs": [
				{
					"internalType": "uint8[16]",
					"name": "",
					"type": "uint8[16]"
				}
			],
			"stateMutability": "view",
			"type": "function"
		},
		{
			"inputs": [
				{
					"internalType": "uint8[16]",
					"name": "plain",
					"type": "uint8[16]"
				},
				{
					"internalType": "uint8[16]",
					"name": "key",
					"type": "uint8[16]"
				}
			],
			"name": "aes_enc",
			"outputs": [
				{
					"internalType": "uint8[16]",
					"name": "",
					"type": "uint8[16]"
				}
			],
			"stateMutability": "view",
			"type": "function"
		},
		{
			"inputs": [
				{
					"internalType": "bytes",
					"name": "cipher",
					"type": "bytes"
				},
				{
					"internalType": "bytes",
					"name": "key",
					"type": "bytes"
				},
				{
					"internalType": "bytes",
					"name": "iv",
					"type": "bytes"
				},
				{
					"internalType": "bytes",
					"name": "auth_data",
					"type": "bytes"
				}
			],
			"name": "aes_gcm_dec",
			"outputs": [
				{
					"internalType": "bytes",
					"name": "plain",
					"type": "bytes"
				}
			],
			"stateMutability": "view",
			"type": "function"
		},
		{
			"inputs": [
				{
					"internalType": "bytes",
					"name": "in_bytes",
					"type": "bytes"
				}
			],
			"name": "bytes_to_uint128_array_w_padding",
			"outputs": [
				{
					"internalType": "uint128[]",
					"name": "",
					"type": "uint128[]"
				}
			],
			"stateMutability": "pure",
			"type": "function"
		},
		{
			"inputs": [
				{
					"internalType": "uint128[]",
					"name": "uint128_array",
					"type": "uint128[]"
				}
			],
			"name": "uint128_array_to_bytes",
			"outputs": [
				{
					"internalType": "bytes",
					"name": "",
					"type": "bytes"
				}
			],
			"stateMutability": "pure",
			"type": "function"
		}
	]
}