{
	"data": {
		"bytecode": {
			"linkReferences": {
				"contract/Wesolowski-VDF/WesolowskiVDFVerifier.sol": {
					"WesolowskiVDFVerifier": [
						{
							"length": 20,
							"start": 6363
						}
					]
				}
			},
			"object": "608060405234801561000f575f80fd5b50604051614269380380614269833981810160405281019061003191906101c4565b335f806101000a81548173ffffffffffffffffffffffffffffffffffffffff021916908373ffffffffffffffffffffffffffffffffffffffff1602179055508360015f6101000a81548173ffffffffffffffffffffffffffffffffffffffff021916908373ffffffffffffffffffffffffffffffffffffffff1602179055508260028190555060646002546100c69190610282565b6003819055506003546002546100dc91906102b2565b600481905550816005819055505f600a5f6101000a81548160ff0219169083151502179055505f600a60016101000a81548160ff0219169083151502179055508060078190555042600681905550505050506102e5565b5f80fd5b5f73ffffffffffffffffffffffffffffffffffffffff82169050919050565b5f61016082610137565b9050919050565b61017081610156565b811461017a575f80fd5b50565b5f8151905061018b81610167565b92915050565b5f819050919050565b6101a381610191565b81146101ad575f80fd5b50565b5f815190506101be8161019a565b92915050565b5f805f80608085870312156101dc576101db610133565b5b5f6101e98782880161017d565b94505060206101fa878288016101b0565b935050604061020b878288016101b0565b925050606061021c878288016101b0565b91505092959194509250565b7f4e487b71000000000000000000000000000000000000000000000000000000005f52601260045260245ffd5b7f4e487b71000000000000000000000000000000000000000000000000000000005f52601160045260245ffd5b5f61028c82610191565b915061029783610191565b9250826102a7576102a6610228565b5b828204905092915050565b5f6102bc82610191565b91506102c783610191565b92508282019050808211156102df576102de610255565b5b92915050565b613f77806102f25f395ff3fe608060405260043610610134575f3560e01c80638bda91ab116100aa578063c76546891161006e578063c7654689146103ce578063c8f781c2146103e4578063d0e30db0146103ee578063d1261df014610418578063fb47e3a214610454578063ff28ebac1461047e57610134565b80638bda91ab146102fa5780639a67dd0814610322578063aa8c217c1461034a578063b614666514610374578063c09cec77146103a457610134565b8063466add1c116100fc578063466add1c146102105780635361178c1461023e5780635c5499a01461026657806370dea79a1461027c57806375a598ea146102a657806383f093e1146102d057610134565b80631a39d8ef146101385780631d8103fd1461016257806325d9f34f1461018c5780633b417a82146101b65780633ba0b9a9146101e6575b5f80fd5b348015610143575f80fd5b5061014c6104a8565b6040516101599190612f19565b60405180910390f35b34801561016d575f80fd5b506101766104ae565b6040516101839190612fa2565b60405180910390f35b348015610197575f80fd5b506101a061053a565b6040516101ad9190612f19565b60405180910390f35b3480156101c1575f80fd5b506101ca610540565b6040516101dd9796959493929190612fc2565b60405180910390f35b3480156101f1575f80fd5b506101fa61080d565b6040516102079190612f19565b60405180910390f35b34801561021b575f80fd5b50610224610813565b604051610235959493929190613052565b60405180910390f35b348015610249575f80fd5b50610264600480360381019061025f91906131f5565b610a32565b005b348015610271575f80fd5b5061027a610b26565b005b348015610287575f80fd5b50610290610ded565b60405161029d9190612f19565b60405180910390f35b3480156102b1575f80fd5b506102ba610df3565b6040516102c79190613256565b60405180910390f35b3480156102db575f80fd5b506102e4610e06565b6040516102f19190612fa2565b60405180910390f35b348015610305575f80fd5b50610320600480360381019061031b9190613299565b610e92565b005b34801561032d575f80fd5b5061034860048036038101906103439190613364565b610fa9565b005b348015610355575f80fd5b5061035e61119d565b60405161036b9190612f19565b60405180910390f35b34801561037f575f80fd5b506103886111a3565b60405161039b9796959493929190613447565b60405180910390f35b3480156103af575f80fd5b506103b861121f565b6040516103c591906134b4565b60405180910390f35b3480156103d9575f80fd5b506103e2611244565b005b6103ec611457565b005b3480156103f9575f80fd5b50610402611592565b60405161040f9190612f19565b60405180910390f35b348015610423575f80fd5b5061043e60048036038101906104399190613500565b611598565b60405161044b9190613256565b60405180910390f35b34801561045f575f80fd5b506104686115b1565b60405161047591906134b4565b60405180910390f35b348015610489575f80fd5b506104926115d4565b60405161049f9190613256565b60405180910390f35b60045481565b600880546104bb906135a4565b80601f01602080910402602001604051908101604052809291908181526020018280546104e7906135a4565b80156105325780601f1061050957610100808354040283529160200191610532565b820191905f5260205f20905b81548152906001019060200180831161051557829003601f168201915b505050505081565b60065481565b600b805f018054610550906135a4565b80601f016020809104026020016040519081016040528092919081815260200182805461057c906135a4565b80156105c75780601f1061059e576101008083540402835291602001916105c7565b820191905f5260205f20905b8154815290600101906020018083116105aa57829003601f168201915b5050505050908060010180546105dc906135a4565b80601f0160208091040260200160405190810160405280929190818152602001828054610608906135a4565b80156106535780601f1061062a57610100808354040283529160200191610653565b820191905f5260205f20905b81548152906001019060200180831161063657829003601f168201915b505050505090806002018054610668906135a4565b80601f0160208091040260200160405190810160405280929190818152602001828054610694906135a4565b80156106df5780601f106106b6576101008083540402835291602001916106df565b820191905f5260205f20905b8154815290600101906020018083116106c257829003601f168201915b5050505050908060030180546106f4906135a4565b80601f0160208091040260200160405190810160405280929190818152602001828054610720906135a4565b801561076b5780601f106107425761010080835404028352916020019161076b565b820191905f5260205f20905b81548152906001019060200180831161074e57829003601f168201915b505050505090806004018054610780906135a4565b80601f01602080910402602001604051908101604052809291908181526020018280546107ac906135a4565b80156107f75780601f106107ce576101008083540402835291602001916107f7565b820191905f5260205f20905b8154815290600101906020018083116107da57829003601f168201915b5050505050908060050154908060060154905087565b60055481565b5f806060806060600a60019054906101000a900460ff16610869576040517f08c379a00000000000000000000000000000000000000000000000000000000081526004016108609061362e565b60405180910390fd5b600b60060154600b60050154600b600301600b600101600b5f0182805461088f906135a4565b80601f01602080910402602001604051908101604052809291908181526020018280546108bb906135a4565b80156109065780601f106108dd57610100808354040283529160200191610906565b820191905f5260205f20905b8154815290600101906020018083116108e957829003601f168201915b50505050509250818054610919906135a4565b80601f0160208091040260200160405190810160405280929190818152602001828054610945906135a4565b80156109905780601f1061096757610100808354040283529160200191610990565b820191905f5260205f20905b81548152906001019060200180831161097357829003601f168201915b505050505091508080546109a3906135a4565b80601f01602080910402602001604051908101604052809291908181526020018280546109cf906135a4565b8015610a1a5780601f106109f157610100808354040283529160200191610a1a565b820191905f5260205f20905b8154815290600101906020018083116109fd57829003601f168201915b50505050509050945094509450945094509091929394565b60015f9054906101000a900473ffffffffffffffffffffffffffffffffffffffff1673ffffffffffffffffffffffffffffffffffffffff163373ffffffffffffffffffffffffffffffffffffffff1614610ac1576040517f08c379a0000000000000000000000000000000000000000000000000000000008152600401610ab8906136bc565b60405180910390fd5b8060089081610ad09190613877565b507f3e52fbbb12f1347bd63824136fa0930b30743ac0b2c238cf13892cf4f4e5296981604051610b009190612fa2565b60405180910390a16001600a60016101000a81548160ff02191690831515021790555050565b5f8054906101000a900473ffffffffffffffffffffffffffffffffffffffff1673ffffffffffffffffffffffffffffffffffffffff163373ffffffffffffffffffffffffffffffffffffffff1614610bb3576040517f08c379a0000000000000000000000000000000000000000000000000000000008152600401610baa906139b6565b60405180910390fd5b600454471015610bf8576040517f08c379a0000000000000000000000000000000000000000000000000000000008152600401610bef90613a1e565b60405180910390fd5b60015f9054906101000a900473ffffffffffffffffffffffffffffffffffffffff1673ffffffffffffffffffffffffffffffffffffffff166108fc60025490811502906040515f60405180830381858888f19350505050158015610c5e573d5f803e3d5ffd5b505f8054906101000a900473ffffffffffffffffffffffffffffffffffffffff1673ffffffffffffffffffffffffffffffffffffffff166108fc60035490811502906040515f60405180830381858888f19350505050158015610cc3573d5f803e3d5ffd5b5060015f9054906101000a900473ffffffffffffffffffffffffffffffffffffffff1673ffffffffffffffffffffffffffffffffffffffff163373ffffffffffffffffffffffffffffffffffffffff167fddf252ad1be2c89b69c2b068fc378daa952ba7f163c4a11628f55a4df523b3ef600254604051610d449190612f19565b60405180910390a35f8054906101000a900473ffffffffffffffffffffffffffffffffffffffff1673ffffffffffffffffffffffffffffffffffffffff163373ffffffffffffffffffffffffffffffffffffffff167fddf252ad1be2c89b69c2b068fc378daa952ba7f163c4a11628f55a4df523b3ef600354604051610dca9190612f19565b60405180910390a35f600a5f6101000a81548160ff021916908315150217905550565b60075481565b600a60019054906101000a900460ff1681565b60098054610e13906135a4565b80601f0160208091040260200160405190810160405280929190818152602001828054610e3f906135a4565b8015610e8a5780601f10610e6157610100808354040283529160200191610e8a565b820191905f5260205f20905b815481529060010190602001808311610e6d57829003601f168201915b505050505081565b5f8054906101000a900473ffffffffffffffffffffffffffffffffffffffff1673ffffffffffffffffffffffffffffffffffffffff163373ffffffffffffffffffffffffffffffffffffffff1614610f1f576040517f08c379a0000000000000000000000000000000000000000000000000000000008152600401610f1690613aac565b60405180910390fd5b84600b5f019081610f309190613877565b5083600b6001019081610f439190613877565b5082600b6003019081610f569190613877565b5080600b6006018190555081600b600501819055507f5b1fd024cfdecf12403893eb3f5c7143182cbb3d479096b12ff678deb056b8ad85604051610f9a9190612fa2565b60405180910390a15050505050565b60015f9054906101000a900473ffffffffffffffffffffffffffffffffffffffff1673ffffffffffffffffffffffffffffffffffffffff163373ffffffffffffffffffffffffffffffffffffffff1614611038576040517f08c379a000000000000000000000000000000000000000000000000000000000815260040161102f90613b14565b60405180910390fd5b60045447101561107d576040517f08c379a000000000000000000000000000000000000000000000000000000000815260040161107490613a1e565b60405180910390fd5b826009908161108c9190613877565b5081600b600201908161109f9190613877565b5080600b60040190816110b29190613877565b506110bb6115e6565b6111985760015f9054906101000a900473ffffffffffffffffffffffffffffffffffffffff1673ffffffffffffffffffffffffffffffffffffffff166108fc60045490811502906040515f60405180830381858888f19350505050158015611125573d5f803e3d5ffd5b5060015f9054906101000a900473ffffffffffffffffffffffffffffffffffffffff1673ffffffffffffffffffffffffffffffffffffffff167fe4bb88acda5194aa84e6feedbb6438ffd447bdee1e1ad8dda3c32fcff9a68f0860045460405161118f9190612f19565b60405180910390a25b505050565b60025481565b5f805f805f805f805f9054906101000a900473ffffffffffffffffffffffffffffffffffffffff1660015f9054906101000a900473ffffffffffffffffffffffffffffffffffffffff16600254600354600454600554600a5f9054906101000a900460ff16965096509650965096509650965090919293949596565b60015f9054906101000a900473ffffffffffffffffffffffffffffffffffffffff1681565b5f8054906101000a900473ffffffffffffffffffffffffffffffffffffffff1673ffffffffffffffffffffffffffffffffffffffff163373ffffffffffffffffffffffffffffffffffffffff16146112d1576040517f08c379a00000000000000000000000000000000000000000000000000000000081526004016112c8906139b6565b60405180910390fd5b600454471015611316576040517f08c379a000000000000000000000000000000000000000000000000000000000815260040161130d90613a1e565b60405180910390fd5b6007546006546113269190613b5f565b421015611368576040517f08c379a000000000000000000000000000000000000000000000000000000000815260040161135f90613bdc565b60405180910390fd5b5f8054906101000a900473ffffffffffffffffffffffffffffffffffffffff1673ffffffffffffffffffffffffffffffffffffffff166108fc60045490811502906040515f60405180830381858888f193505050501580156113cc573d5f803e3d5ffd5b505f8054906101000a900473ffffffffffffffffffffffffffffffffffffffff1673ffffffffffffffffffffffffffffffffffffffff167fe4bb88acda5194aa84e6feedbb6438ffd447bdee1e1ad8dda3c32fcff9a68f086004546040516114349190612f19565b60405180910390a25f600a5f6101000a81548160ff021916908315150217905550565b5f8054906101000a900473ffffffffffffffffffffffffffffffffffffffff1673ffffffffffffffffffffffffffffffffffffffff163373ffffffffffffffffffffffffffffffffffffffff16146114e4576040517f08c379a00000000000000000000000000000000000000000000000000000000081526004016114db90613c44565b60405180910390fd5b6004543414611528576040517f08c379a000000000000000000000000000000000000000000000000000000000815260040161151f90613cd2565b60405180910390fd5b3373ffffffffffffffffffffffffffffffffffffffff167fe1fffcc4923d04b559f4d29a8bfc6cda04eb5b0d3c460751c2402c5c5cc9109c3460405161156e9190612f19565b60405180910390a26001600a5f6101000a81548160ff021916908315150217905550565b60035481565b5f6115a6868686868661167f565b905095945050505050565b5f8054906101000a900473ffffffffffffffffffffffffffffffffffffffff1681565b600a5f9054906101000a900460ff1681565b5f73__$0fd1cc851c6411cf7573f2ba214718d454$__63c2269a7b600b600301600b600101600b600201600b600401600b600601546040518663ffffffff1660e01b815260040161163b959493929190613d90565b602060405180830381865af4158015611656573d5f803e3d5ffd5b505050506040513d601f19601f8201168201806040525081019061167a9190613e27565b905090565b5f6116be6040518060400160405280600181526020017f30000000000000000000000000000000000000000000000000000000000000008152506118b9565b5f8514806116ec57507fffffffff00000000ffffffffffffffffbce6faada7179e84f3b9cac2fc6325518510155b806116f657505f84145b8061172157507fffffffff00000000ffffffffffffffffbce6faada7179e84f3b9cac2fc6325518410155b1561172e575f90506118b0565b61176c6040518060400160405280600181526020017f31000000000000000000000000000000000000000000000000000000000000008152506118b9565b6117768383611952565b611782575f90506118b0565b6117c06040518060400160405280600181526020017f32000000000000000000000000000000000000000000000000000000000000008152506118b9565b5f6117ca85611b43565b90505f7fffffffff00000000ffffffffffffffffbce6faada7179e84f3b9cac2fc632551806117fc576117fb613e52565b5b82895f1c0990505f7fffffffff00000000ffffffffffffffffbce6faada7179e84f3b9cac2fc6325518061183357611832613e52565b5b83890990505f61184587878585611bc7565b90507fffffffff00000000ffffffffffffffffbce6faada7179e84f3b9cac2fc6325518061187657611875613e52565b5b897fffffffff00000000ffffffffffffffffbce6faada7179e84f3b9cac2fc6325516118a29190613e7f565b820890505f81149450505050505b95945050505050565b61194f816040516024016118cd9190613ef4565b6040516020818303038152906040527f41304fac000000000000000000000000000000000000000000000000000000007bffffffffffffffffffffffffffffffffffffffffffffffffffffffff19166020820180517bffffffffffffffffffffffffffffffffffffffffffffffffffffffff8381831617835250505050612700565b50565b5f7fffffffff00000001000000000000000000000000ffffffffffffffffffffffff831015806119a257507fffffffff00000001000000000000000000000000ffffffffffffffffffffffff8210155b806119b757505f831480156119b657505f82145b5b156119c4575f9050611b3d565b5f7fffffffff00000001000000000000000000000000ffffffffffffffffffffffff806119f4576119f3613e52565b5b83840990505f7fffffffff00000001000000000000000000000000ffffffffffffffffffffffff80611a2957611a28613e52565b5b7fffffffff00000001000000000000000000000000ffffffffffffffffffffffff80611a5857611a57613e52565b5b7fffffffff00000001000000000000000000000000fffffffffffffffffffffffc87097fffffffff00000001000000000000000000000000ffffffffffffffffffffffff80611aaa57611aa9613e52565b5b877fffffffff00000001000000000000000000000000ffffffffffffffffffffffff80611ada57611ad9613e52565b5b898a09090890507fffffffff00000001000000000000000000000000ffffffffffffffffffffffff80611b1057611b0f613e52565b5b7f5ac635d8aa3a93e7b3ebbd55769886bc651d06b0cc53b0f63bce3c3e27d2604b82089050808214925050505b92915050565b5f60405160208152602080820152602060408201528260608201527fffffffff00000000ffffffffffffffffbce6faada7179e84f3b9cac2fc63254f60808201527fffffffff00000000ffffffffffffffffbce6faada7179e84f3b9cac2fc63255160a082015260208160c08360055f19fa611bbd575f80fd5b8051915050919050565b5f805f805f60ff90505f805f89148015611be057505f88145b15611bf3575f96505050505050506126f8565b611c3f7f6b17d1f2e12c4247f8bce6e563a440f277037d812deb33a0f4a13945d898c2967f4fe342e2fe1a7f9b8ee7eb4a7c0f9e162bce33576b315ececbb6406837bf51f58d8d61271a565b80925081935050505f82148015611c5557505f81145b15611cd5577fffffffff00000000ffffffffffffffffbce6faada7179e84f3b9cac2fc63255180611c8957611c88613e52565b5b887fffffffff00000000ffffffffffffffffbce6faada7179e84f3b9cac2fc632551038a0898505f97505f89148015611cc157505f88145b15611cd4575f96505050505050506126f8565b5b600189841c16600189851c1660011b015b5f8103611d0a5760018403935060018a851c1660018a861c1660011b019050611ce6565b50600189841c16600189851c1660011b01955060018603611d6c577f6b17d1f2e12c4247f8bce6e563a440f277037d812deb33a0f4a13945d898c29696507f4fe342e2fe1a7f9b8ee7eb4a7c0f9e162bce33576b315ececbb6406837bf51f593505b60028603611d7b578a96508993505b60038603611d8a578196508093505b60018303925060019550600194505b827fffffffffffffffffffffffffffffffffffffffffffffffffffffffffffffffff1115612650577fffffffff00000001000000000000000000000000ffffffffffffffffffffffff846002097fffffffff00000001000000000000000000000000ffffffffffffffffffffffff8182097fffffffff00000001000000000000000000000000ffffffffffffffffffffffff818a097fffffffff00000001000000000000000000000000ffffffffffffffffffffffff82840992507fffffffff00000001000000000000000000000000ffffffffffffffffffffffff807fffffffff00000001000000000000000000000000ffffffffffffffffffffffff8b8d087fffffffff00000001000000000000000000000000ffffffffffffffffffffffff8c7fffffffff00000001000000000000000000000000ffffffffffffffffffffffff038e08096003097fffffffff00000001000000000000000000000000ffffffffffffffffffffffff89850998507fffffffff00000001000000000000000000000000ffffffffffffffffffffffff8a840999507fffffffff00000001000000000000000000000000ffffffffffffffffffffffff80837fffffffff00000001000000000000000000000000fffffffffffffffffffffffd097fffffffff00000001000000000000000000000000ffffffffffffffffffffffff838409089a507fffffffff00000001000000000000000000000000ffffffffffffffffffffffff80837fffffffff00000001000000000000000000000000ffffffffffffffffffffffff038d08820992507fffffffff00000001000000000000000000000000ffffffffffffffffffffffff837fffffffff00000001000000000000000000000000ffffffffffffffffffffffff8a870908975060018d881c1660018d891c1660011b0190508061207557877fffffffff00000001000000000000000000000000ffffffffffffffffffffffff03975050505050612645565b600181036120c4577f6b17d1f2e12c4247f8bce6e563a440f277037d812deb33a0f4a13945d898c29693507f4fe342e2fe1a7f9b8ee7eb4a7c0f9e162bce33576b315ececbb6406837bf51f592505b600281036120d3578e93508d92505b600381036120e2578593508492505b896120fe57839a50829750600199506001985050505050612645565b7fffffffff00000001000000000000000000000000ffffffffffffffffffffffff887fffffffff00000001000000000000000000000000ffffffffffffffffffffffff8b8609087fffffffff00000001000000000000000000000000ffffffffffffffffffffffff8c7fffffffff00000001000000000000000000000000ffffffffffffffffffffffff037fffffffff00000001000000000000000000000000ffffffffffffffffffffffff8d88090893508061243e578361243d577fffffffff00000001000000000000000000000000ffffffffffffffffffffffff897fffffffff00000001000000000000000000000000fffffffffffffffffffffffd0994507fffffffff00000001000000000000000000000000ffffffffffffffffffffffff85860993507fffffffff00000001000000000000000000000000ffffffffffffffffffffffff848d0992507fffffffff00000001000000000000000000000000ffffffffffffffffffffffff84860994507fffffffff00000001000000000000000000000000ffffffffffffffffffffffff808c7fffffffff00000001000000000000000000000000ffffffffffffffffffffffff038e087fffffffff00000001000000000000000000000000ffffffffffffffffffffffff8d8f080990507fffffffff00000001000000000000000000000000ffffffffffffffffffffffff8160030991507fffffffff00000001000000000000000000000000ffffffffffffffffffffffff8a860999507fffffffff00000001000000000000000000000000ffffffffffffffffffffffff8b85099a507fffffffff00000001000000000000000000000000ffffffffffffffffffffffff80847fffffffff00000001000000000000000000000000fffffffffffffffffffffffd097fffffffff00000001000000000000000000000000ffffffffffffffffffffffff848509089b507fffffffff00000001000000000000000000000000ffffffffffffffffffffffff808d7fffffffff00000001000000000000000000000000ffffffffffffffffffffffff038508830993507fffffffff00000001000000000000000000000000ffffffffffffffffffffffff808a8709850898505050505050612645565b5b7fffffffff00000001000000000000000000000000ffffffffffffffffffffffff84850991507fffffffff00000001000000000000000000000000ffffffffffffffffffffffff8483097fffffffff00000001000000000000000000000000ffffffffffffffffffffffff838d099b507fffffffff00000001000000000000000000000000ffffffffffffffffffffffff818c099a507fffffffff00000001000000000000000000000000ffffffffffffffffffffffff838e097fffffffff00000001000000000000000000000000ffffffffffffffffffffffff80827fffffffff00000001000000000000000000000000fffffffffffffffffffffffd097fffffffff00000001000000000000000000000000ffffffffffffffffffffffff847fffffffff00000001000000000000000000000000ffffffffffffffffffffffff037fffffffff00000001000000000000000000000000ffffffffffffffffffffffff878809080893507fffffffff00000001000000000000000000000000ffffffffffffffffffffffff80838d097fffffffff00000001000000000000000000000000ffffffffffffffffffffffff857fffffffff00000001000000000000000000000000ffffffffffffffffffffffff887fffffffff00000001000000000000000000000000ffffffffffffffffffffffff03860809089a50839d50505050505050505b600183039250611d99565b60405186606082015260208152602080820152602060408201527fffffffff00000001000000000000000000000000fffffffffffffffffffffffd60808201527fffffffff00000001000000000000000000000000ffffffffffffffffffffffff60a082015260208160c08360055f19fa6126c9575f80fd5b7fffffffff00000001000000000000000000000000ffffffffffffffffffffffff815189099750505050505050505b949350505050565b6127178161270f6127c76127e6565b63ffffffff16565b50565b5f805f8061272888886127f1565b1561273a5785859350935050506127be565b61274486866127f1565b156127565787879350935050506127be565b858814801561276457508487145b1561278b5761277688886001806127fd565b809450819550829a50839b50505050506127ab565b61279a88886001808a8a612a85565b809450819550829a50839b50505050505b6127b788888484612d89565b9350935050505b94509492505050565b5f6a636f6e736f6c652e6c6f6790505f80835160208501845afa505050565b612ef7819050919050565b5f808214905092915050565b5f805f807fffffffff00000001000000000000000000000000ffffffffffffffffffffffff8760020993507fffffffff00000001000000000000000000000000ffffffffffffffffffffffff84850991507fffffffff00000001000000000000000000000000ffffffffffffffffffffffff82890990507fffffffff00000001000000000000000000000000ffffffffffffffffffffffff82850992507fffffffff00000001000000000000000000000000ffffffffffffffffffffffff86830991507fffffffff00000001000000000000000000000000ffffffffffffffffffffffff807fffffffff00000001000000000000000000000000ffffffffffffffffffffffff888b087fffffffff00000001000000000000000000000000ffffffffffffffffffffffff897fffffffff00000001000000000000000000000000ffffffffffffffffffffffff038c080960030995507fffffffff00000001000000000000000000000000ffffffffffffffffffffffff80827fffffffff00000001000000000000000000000000fffffffffffffffffffffffd097fffffffff00000001000000000000000000000000ffffffffffffffffffffffff8889090893507fffffffff00000001000000000000000000000000ffffffffffffffffffffffff80857fffffffff00000001000000000000000000000000ffffffffffffffffffffffff038308870997507fffffffff00000001000000000000000000000000ffffffffffffffffffffffff85840990507fffffffff00000001000000000000000000000000ffffffffffffffffffffffff808885097fffffffff00000001000000000000000000000000ffffffffffffffffffffffff0389089250945094509450949050565b5f805f805f8903612aa25785856001809350935093509350612d7c565b887fffffffff00000001000000000000000000000000ffffffffffffffffffffffff0398507fffffffff00000001000000000000000000000000ffffffffffffffffffffffff897fffffffff00000001000000000000000000000000ffffffffffffffffffffffff8988090894507fffffffff00000001000000000000000000000000ffffffffffffffffffffffff8a7fffffffff00000001000000000000000000000000ffffffffffffffffffffffff037fffffffff00000001000000000000000000000000ffffffffffffffffffffffff8a89090895507fffffffff00000001000000000000000000000000ffffffffffffffffffffffff86870993507fffffffff00000001000000000000000000000000ffffffffffffffffffffffff86850992507fffffffff00000001000000000000000000000000ffffffffffffffffffffffff84890991507fffffffff00000001000000000000000000000000ffffffffffffffffffffffff83880990507fffffffff00000001000000000000000000000000ffffffffffffffffffffffff848b0997507fffffffff00000001000000000000000000000000ffffffffffffffffffffffff80897fffffffff00000001000000000000000000000000fffffffffffffffffffffffd097fffffffff00000001000000000000000000000000ffffffffffffffffffffffff857fffffffff00000001000000000000000000000000ffffffffffffffffffffffff037fffffffff00000001000000000000000000000000ffffffffffffffffffffffff898a09080893507fffffffff00000001000000000000000000000000ffffffffffffffffffffffff80848b097fffffffff00000001000000000000000000000000ffffffffffffffffffffffff877fffffffff00000001000000000000000000000000ffffffffffffffffffffffff887fffffffff00000001000000000000000000000000ffffffffffffffffffffffff038d08090892505b9650965096509692505050565b5f805f612d9584612e73565b90507fffffffff00000001000000000000000000000000ffffffffffffffffffffffff80612dc657612dc5613e52565b5b81870991505f7fffffffff00000001000000000000000000000000ffffffffffffffffffffffff80612dfb57612dfa613e52565b5b82870990507fffffffff00000001000000000000000000000000ffffffffffffffffffffffff80612e2f57612e2e613e52565b5b81820991507fffffffff00000001000000000000000000000000ffffffffffffffffffffffff80612e6357612e62613e52565b5b8289099350505094509492505050565b5f60405160208152602080820152602060408201528260608201527fffffffff00000001000000000000000000000000fffffffffffffffffffffffd60808201527fffffffff00000001000000000000000000000000ffffffffffffffffffffffff60a082015260208160c08360055f19fa612eed575f80fd5b8051915050919050565b612eff613f14565b565b5f819050919050565b612f1381612f01565b82525050565b5f602082019050612f2c5f830184612f0a565b92915050565b5f81519050919050565b5f82825260208201905092915050565b8281835e5f83830152505050565b5f601f19601f8301169050919050565b5f612f7482612f32565b612f7e8185612f3c565b9350612f8e818560208601612f4c565b612f9781612f5a565b840191505092915050565b5f6020820190508181035f830152612fba8184612f6a565b905092915050565b5f60e0820190508181035f830152612fda818a612f6a565b90508181036020830152612fee8189612f6a565b905081810360408301526130028188612f6a565b905081810360608301526130168187612f6a565b9050818103608083015261302a8186612f6a565b905061303960a0830185612f0a565b61304660c0830184612f0a565b98975050505050505050565b5f60a0820190506130655f830188612f0a565b6130726020830187612f0a565b81810360408301526130848186612f6a565b905081810360608301526130988185612f6a565b905081810360808301526130ac8184612f6a565b90509695505050505050565b5f604051905090565b5f80fd5b5f80fd5b5f80fd5b5f80fd5b7f4e487b71000000000000000000000000000000000000000000000000000000005f52604160045260245ffd5b61310782612f5a565b810181811067ffffffffffffffff82111715613126576131256130d1565b5b80604052505050565b5f6131386130b8565b905061314482826130fe565b919050565b5f67ffffffffffffffff821115613163576131626130d1565b5b61316c82612f5a565b9050602081019050919050565b828183375f83830152505050565b5f61319961319484613149565b61312f565b9050828152602081018484840111156131b5576131b46130cd565b5b6131c0848285613179565b509392505050565b5f82601f8301126131dc576131db6130c9565b5b81356131ec848260208601613187565b91505092915050565b5f6020828403121561320a576132096130c1565b5b5f82013567ffffffffffffffff811115613227576132266130c5565b5b613233848285016131c8565b91505092915050565b5f8115159050919050565b6132508161323c565b82525050565b5f6020820190506132695f830184613247565b92915050565b61327881612f01565b8114613282575f80fd5b50565b5f813590506132938161326f565b92915050565b5f805f805f60a086880312156132b2576132b16130c1565b5b5f86013567ffffffffffffffff8111156132cf576132ce6130c5565b5b6132db888289016131c8565b955050602086013567ffffffffffffffff8111156132fc576132fb6130c5565b5b613308888289016131c8565b945050604086013567ffffffffffffffff811115613329576133286130c5565b5b613335888289016131c8565b935050606061334688828901613285565b925050608061335788828901613285565b9150509295509295909350565b5f805f6060848603121561337b5761337a6130c1565b5b5f84013567ffffffffffffffff811115613398576133976130c5565b5b6133a4868287016131c8565b935050602084013567ffffffffffffffff8111156133c5576133c46130c5565b5b6133d1868287016131c8565b925050604084013567ffffffffffffffff8111156133f2576133f16130c5565b5b6133fe868287016131c8565b9150509250925092565b5f73ffffffffffffffffffffffffffffffffffffffff82169050919050565b5f61343182613408565b9050919050565b61344181613427565b82525050565b5f60e08201905061345a5f83018a613438565b6134676020830189613438565b6134746040830188612f0a565b6134816060830187612f0a565b61348e6080830186612f0a565b61349b60a0830185612f0a565b6134a860c0830184613247565b98975050505050505050565b5f6020820190506134c75f830184613438565b92915050565b5f819050919050565b6134df816134cd565b81146134e9575f80fd5b50565b5f813590506134fa816134d6565b92915050565b5f805f805f60a08688031215613519576135186130c1565b5b5f613526888289016134ec565b955050602061353788828901613285565b945050604061354888828901613285565b935050606061355988828901613285565b925050608061356a88828901613285565b9150509295509295909350565b7f4e487b71000000000000000000000000000000000000000000000000000000005f52602260045260245ffd5b5f60028204905060018216806135bb57607f821691505b6020821081036135ce576135cd613577565b5b50919050565b5f82825260208201905092915050565b7f706c7a2075706c6f61642062616e6b20726563656970742066697273740000005f82015250565b5f613618601d836135d4565b9150613623826135e4565b602082019050919050565b5f6020820190508181035f8301526136458161360c565b9050919050565b7f4f6e6c7920426f622063616e2075706c6f61642062616e6b20726563656970745f8201527f2e00000000000000000000000000000000000000000000000000000000000000602082015250565b5f6136a66021836135d4565b91506136b18261364c565b604082019050919050565b5f6020820190508181035f8301526136d38161369a565b9050919050565b5f819050815f5260205f209050919050565b5f6020601f8301049050919050565b5f82821b905092915050565b5f600883026137367fffffffffffffffffffffffffffffffffffffffffffffffffffffffffffffffff826136fb565b61374086836136fb565b95508019841693508086168417925050509392505050565b5f819050919050565b5f61377b61377661377184612f01565b613758565b612f01565b9050919050565b5f819050919050565b61379483613761565b6137a86137a082613782565b848454613707565b825550505050565b5f90565b6137bc6137b0565b6137c781848461378b565b505050565b5b818110156137ea576137df5f826137b4565b6001810190506137cd565b5050565b601f82111561382f57613800816136da565b613809846136ec565b81016020851015613818578190505b61382c613824856136ec565b8301826137cc565b50505b505050565b5f82821c905092915050565b5f61384f5f1984600802613834565b1980831691505092915050565b5f6138678383613840565b9150826002028217905092915050565b61388082612f32565b67ffffffffffffffff811115613899576138986130d1565b5b6138a382546135a4565b6138ae8282856137ee565b5f60209050601f8311600181146138df575f84156138cd578287015190505b6138d7858261385c565b86555061393e565b601f1984166138ed866136da565b5f5b82811015613914578489015182556001820191506020850194506020810190506138ef565b86831015613931578489015161392d601f891682613840565b8355505b6001600288020188555050505b505050505050565b7f4f6e6c7920416c6963652063616e20696e697469617465207472616e736665725f8201527f2e00000000000000000000000000000000000000000000000000000000000000602082015250565b5f6139a06021836135d4565b91506139ab82613946565b604082019050919050565b5f6020820190508181035f8301526139cd81613994565b9050919050565b7f496e73756666696369656e742062616c616e63652e00000000000000000000005f82015250565b5f613a086015836135d4565b9150613a13826139d4565b602082019050919050565b5f6020820190508181035f830152613a35816139fc565b9050919050565b7f4f6e6c7920416c6963652063616e2075706c6f616420656e63727970746564205f8201527f646174612e000000000000000000000000000000000000000000000000000000602082015250565b5f613a966025836135d4565b9150613aa182613a3c565b604082019050919050565b5f6020820190508181035f830152613ac381613a8a565b9050919050565b7f4f6e6c7920426f622063616e207375626d69742070726f6f662e0000000000005f82015250565b5f613afe601a836135d4565b9150613b0982613aca565b602082019050919050565b5f6020820190508181035f830152613b2b81613af2565b9050919050565b7f4e487b71000000000000000000000000000000000000000000000000000000005f52601160045260245ffd5b5f613b6982612f01565b9150613b7483612f01565b9250828201905080821115613b8c57613b8b613b32565b5b92915050565b7f6e6f742074696d656f75742079657400000000000000000000000000000000005f82015250565b5f613bc6600f836135d4565b9150613bd182613b92565b602082019050919050565b5f6020820190508181035f830152613bf381613bba565b9050919050565b7f4f6e6c7920416c6963652063616e206465706f7369742e0000000000000000005f82015250565b5f613c2e6017836135d4565b9150613c3982613bfa565b602082019050919050565b5f6020820190508181035f830152613c5b81613c22565b9050919050565b7f4465706f73697420616d6f756e74206d757374206265206d6f7265207468616e5f8201527f20312e3031612e00000000000000000000000000000000000000000000000000602082015250565b5f613cbc6027836135d4565b9150613cc782613c62565b604082019050919050565b5f6020820190508181035f830152613ce981613cb0565b9050919050565b5f82825260208201905092915050565b5f8154613d0c816135a4565b613d168186613cf0565b9450600182165f8114613d305760018114613d4657613d78565b60ff198316865281151560200286019350613d78565b613d4f856136da565b5f5b83811015613d7057815481890152600182019150602081019050613d51565b808801955050505b50505092915050565b613d8a81612f01565b82525050565b5f60a0820190508181035f830152613da88188613d00565b90508181036020830152613dbc8187613d00565b90508181036040830152613dd08186613d00565b90508181036060830152613de48185613d00565b9050613df36080830184613d81565b9695505050505050565b613e068161323c565b8114613e10575f80fd5b50565b5f81519050613e2181613dfd565b92915050565b5f60208284031215613e3c57613e3b6130c1565b5b5f613e4984828501613e13565b91505092915050565b7f4e487b71000000000000000000000000000000000000000000000000000000005f52601260045260245ffd5b5f613e8982612f01565b9150613e9483612f01565b9250828203905081811115613eac57613eab613b32565b5b92915050565b5f81519050919050565b5f613ec682613eb2565b613ed081856135d4565b9350613ee0818560208601612f4c565b613ee981612f5a565b840191505092915050565b5f6020820190508181035f830152613f0c8184613ebc565b905092915050565b7f4e487b71000000000000000000000000000000000000000000000000000000005f52605160045260245ffdfea2646970667358221220ccd9c81c2262fd8a60fc3686fc7ab844f1b78b153c6c8f97781dd545a957f10764736f6c634300081a0033",
			"opcodes": "PUSH1 0x80 PUSH1 0x40 MSTORE CALLVALUE DUP1 ISZERO PUSH2 0xF JUMPI PUSH0 DUP1 REVERT JUMPDEST POP PUSH1 0x40 MLOAD PUSH2 0x4269 CODESIZE SUB DUP1 PUSH2 0x4269 DUP4 CODECOPY DUP2 DUP2 ADD PUSH1 0x40 MSTORE DUP2 ADD SWAP1 PUSH2 0x31 SWAP2 SWAP1 PUSH2 0x1C4 JUMP JUMPDEST CALLER PUSH0 DUP1 PUSH2 0x100 EXP DUP2 SLOAD DUP2 PUSH20 0xFFFFFFFFFFFFFFFFFFFFFFFFFFFFFFFFFFFFFFFF MUL NOT AND SWAP1 DUP4 PUSH20 0xFFFFFFFFFFFFFFFFFFFFFFFFFFFFFFFFFFFFFFFF AND MUL OR SWAP1 SSTORE POP DUP4 PUSH1 0x1 PUSH0 PUSH2 0x100 EXP DUP2 SLOAD DUP2 PUSH20 0xFFFFFFFFFFFFFFFFFFFFFFFFFFFFFFFFFFFFFFFF MUL NOT AND SWAP1 DUP4 PUSH20 0xFFFFFFFFFFFFFFFFFFFFFFFFFFFFFFFFFFFFFFFF AND MUL OR SWAP1 SSTORE POP DUP3 PUSH1 0x2 DUP2 SWAP1 SSTORE POP PUSH1 0x64 PUSH1 0x2 SLOAD PUSH2 0xC6 SWAP2 SWAP1 PUSH2 0x282 JUMP JUMPDEST PUSH1 0x3 DUP2 SWAP1 SSTORE POP PUSH1 0x3 SLOAD PUSH1 0x2 SLOAD PUSH2 0xDC SWAP2 SWAP1 PUSH2 0x2B2 JUMP JUMPDEST PUSH1 0x4 DUP2 SWAP1 SSTORE POP DUP2 PUSH1 0x5 DUP2 SWAP1 SSTORE POP PUSH0 PUSH1 0xA PUSH0 PUSH2 0x100 EXP DUP2 SLOAD DUP2 PUSH1 0xFF MUL NOT AND SWAP1 DUP4 ISZERO ISZERO MUL OR SWAP1 SSTORE POP PUSH0 PUSH1 0xA PUSH1 0x1 PUSH2 0x100 EXP DUP2 SLOAD DUP2 PUSH1 0xFF MUL NOT AND SWAP1 DUP4 ISZERO ISZERO MUL OR SWAP1 SSTORE POP DUP1 PUSH1 0x7 DUP2 SWAP1 SSTORE POP TIMESTAMP PUSH1 0x6 DUP2 SWAP1 SSTORE POP POP POP POP POP PUSH2 0x2E5 JUMP JUMPDEST PUSH0 DUP1 REVERT JUMPDEST PUSH0 PUSH20 0xFFFFFFFFFFFFFFFFFFFFFFFFFFFFFFFFFFFFFFFF DUP3 AND SWAP1 POP SWAP2 SWAP1 POP JUMP JUMPDEST PUSH0 PUSH2 0x160 DUP3 PUSH2 0x137 JUMP JUMPDEST SWAP1 POP SWAP2 SWAP1 POP JUMP JUMPDEST PUSH2 0x170 DUP2 PUSH2 0x156 JUMP JUMPDEST DUP2 EQ PUSH2 0x17A JUMPI PUSH0 DUP1 REVERT JUMPDEST POP JUMP JUMPDEST PUSH0 DUP2 MLOAD SWAP1 POP PUSH2 0x18B DUP2 PUSH2 0x167 JUMP JUMPDEST SWAP3 SWAP2 POP POP JUMP JUMPDEST PUSH0 DUP2 SWAP1 POP SWAP2 SWAP1 POP JUMP JUMPDEST PUSH2 0x1A3 DUP2 PUSH2 0x191 JUMP JUMPDEST DUP2 EQ PUSH2 0x1AD JUMPI PUSH0 DUP1 REVERT JUMPDEST POP JUMP JUMPDEST PUSH0 DUP2 MLOAD SWAP1 POP PUSH2 0x1BE DUP2 PUSH2 0x19A JUMP JUMPDEST SWAP3 SWAP2 POP POP JUMP JUMPDEST PUSH0 DUP1 PUSH0 DUP1 PUSH1 0x80 DUP6 DUP8 SUB SLT ISZERO PUSH2 0x1DC JUMPI PUSH2 0x1DB PUSH2 0x133 JUMP JUMPDEST JUMPDEST PUSH0 PUSH2 0x1E9 DUP8 DUP3 DUP9 ADD PUSH2 0x17D JUMP JUMPDEST SWAP5 POP POP PUSH1 0x20 PUSH2 0x1FA DUP8 DUP3 DUP9 ADD PUSH2 0x1B0 JUMP JUMPDEST SWAP4 POP POP PUSH1 0x40 PUSH2 0x20B DUP8 DUP3 DUP9 ADD PUSH2 0x1B0 JUMP JUMPDEST SWAP3 POP POP PUSH1 0x60 PUSH2 0x21C DUP8 DUP3 DUP9 ADD PUSH2 0x1B0 JUMP JUMPDEST SWAP2 POP POP SWAP3 SWAP6 SWAP2 SWAP5 POP SWAP3 POP JUMP JUMPDEST PUSH32 0x4E487B7100000000000000000000000000000000000000000000000000000000 PUSH0 MSTORE PUSH1 0x12 PUSH1 0x4 MSTORE PUSH1 0x24 PUSH0 REVERT JUMPDEST PUSH32 0x4E487B7100000000000000000000000000000000000000000000000000000000 PUSH0 MSTORE PUSH1 0x11 PUSH1 0x4 MSTORE PUSH1 0x24 PUSH0 REVERT JUMPDEST PUSH0 PUSH2 0x28C DUP3 PUSH2 0x191 JUMP JUMPDEST SWAP2 POP PUSH2 0x297 DUP4 PUSH2 0x191 JUMP JUMPDEST SWAP3 POP DUP3 PUSH2 0x2A7 JUMPI PUSH2 0x2A6 PUSH2 0x228 JUMP JUMPDEST JUMPDEST DUP3 DUP3 DIV SWAP1 POP SWAP3 SWAP2 POP POP JUMP JUMPDEST PUSH0 PUSH2 0x2BC DUP3 PUSH2 0x191 JUMP JUMPDEST SWAP2 POP PUSH2 0x2C7 DUP4 PUSH2 0x191 JUMP JUMPDEST SWAP3 POP DUP3 DUP3 ADD SWAP1 POP DUP1 DUP3 GT ISZERO PUSH2 0x2DF JUMPI PUSH2 0x2DE PUSH2 0x255 JUMP JUMPDEST JUMPDEST SWAP3 SWAP2 POP POP JUMP JUMPDEST PUSH2 0x3F77 DUP1 PUSH2 0x2F2 PUSH0 CODECOPY PUSH0 RETURN INVALID PUSH1 0x80 PUSH1 0x40 MSTORE PUSH1 0x4 CALLDATASIZE LT PUSH2 0x134 JUMPI PUSH0 CALLDATALOAD PUSH1 0xE0 SHR DUP1 PUSH4 0x8BDA91AB GT PUSH2 0xAA JUMPI DUP1 PUSH4 0xC7654689 GT PUSH2 0x6E JUMPI DUP1 PUSH4 0xC7654689 EQ PUSH2 0x3CE JUMPI DUP1 PUSH4 0xC8F781C2 EQ PUSH2 0x3E4 JUMPI DUP1 PUSH4 0xD0E30DB0 EQ PUSH2 0x3EE JUMPI DUP1 PUSH4 0xD1261DF0 EQ PUSH2 0x418 JUMPI DUP1 PUSH4 0xFB47E3A2 EQ PUSH2 0x454 JUMPI DUP1 PUSH4 0xFF28EBAC EQ PUSH2 0x47E JUMPI PUSH2 0x134 JUMP JUMPDEST DUP1 PUSH4 0x8BDA91AB EQ PUSH2 0x2FA JUMPI DUP1 PUSH4 0x9A67DD08 EQ PUSH2 0x322 JUMPI DUP1 PUSH4 0xAA8C217C EQ PUSH2 0x34A JUMPI DUP1 PUSH4 0xB6146665 EQ PUSH2 0x374 JUMPI DUP1 PUSH4 0xC09CEC77 EQ PUSH2 0x3A4 JUMPI PUSH2 0x134 JUMP JUMPDEST DUP1 PUSH4 0x466ADD1C GT PUSH2 0xFC JUMPI DUP1 PUSH4 0x466ADD1C EQ PUSH2 0x210 JUMPI DUP1 PUSH4 0x5361178C EQ PUSH2 0x23E JUMPI DUP1 PUSH4 0x5C5499A0 EQ PUSH2 0x266 JUMPI DUP1 PUSH4 0x70DEA79A EQ PUSH2 0x27C JUMPI DUP1 PUSH4 0x75A598EA EQ PUSH2 0x2A6 JUMPI DUP1 PUSH4 0x83F093E1 EQ PUSH2 0x2D0 JUMPI PUSH2 0x134 JUMP JUMPDEST DUP1 PUSH4 0x1A39D8EF EQ PUSH2 0x138 JUMPI DUP1 PUSH4 0x1D8103FD EQ PUSH2 0x162 JUMPI DUP1 PUSH4 0x25D9F34F EQ PUSH2 0x18C JUMPI DUP1 PUSH4 0x3B417A82 EQ PUSH2 0x1B6 JUMPI DUP1 PUSH4 0x3BA0B9A9 EQ PUSH2 0x1E6 JUMPI JUMPDEST PUSH0 DUP1 REVERT JUMPDEST CALLVALUE DUP1 ISZERO PUSH2 0x143 JUMPI PUSH0 DUP1 REVERT JUMPDEST POP PUSH2 0x14C PUSH2 0x4A8 JUMP JUMPDEST PUSH1 0x40 MLOAD PUSH2 0x159 SWAP2 SWAP1 PUSH2 0x2F19 JUMP JUMPDEST PUSH1 0x40 MLOAD DUP1 SWAP2 SUB SWAP1 RETURN JUMPDEST CALLVALUE DUP1 ISZERO PUSH2 0x16D JUMPI PUSH0 DUP1 REVERT JUMPDEST POP PUSH2 0x176 PUSH2 0x4AE JUMP JUMPDEST PUSH1 0x40 MLOAD PUSH2 0x183 SWAP2 SWAP1 PUSH2 0x2FA2 JUMP JUMPDEST PUSH1 0x40 MLOAD DUP1 SWAP2 SUB SWAP1 RETURN JUMPDEST CALLVALUE DUP1 ISZERO PUSH2 0x197 JUMPI PUSH0 DUP1 REVERT JUMPDEST POP PUSH2 0x1A0 PUSH2 0x53A JUMP JUMPDEST PUSH1 0x40 MLOAD PUSH2 0x1AD SWAP2 SWAP1 PUSH2 0x2F19 JUMP JUMPDEST PUSH1 0x40 MLOAD DUP1 SWAP2 SUB SWAP1 RETURN JUMPDEST CALLVALUE DUP1 ISZERO PUSH2 0x1C1 JUMPI PUSH0 DUP1 REVERT JUMPDEST POP PUSH2 0x1CA PUSH2 0x540 JUMP JUMPDEST PUSH1 0x40 MLOAD PUSH2 0x1DD SWAP8 SWAP7 SWAP6 SWAP5 SWAP4 SWAP3 SWAP2 SWAP1 PUSH2 0x2FC2 JUMP JUMPDEST PUSH1 0x40 MLOAD DUP1 SWAP2 SUB SWAP1 RETURN JUMPDEST CALLVALUE DUP1 ISZERO PUSH2 0x1F1 JUMPI PUSH0 DUP1 REVERT JUMPDEST POP PUSH2 0x1FA PUSH2 0x80D JUMP JUMPDEST PUSH1 0x40 MLOAD PUSH2 0x207 SWAP2 SWAP1 PUSH2 0x2F19 JUMP JUMPDEST PUSH1 0x40 MLOAD DUP1 SWAP2 SUB SWAP1 RETURN JUMPDEST CALLVALUE DUP1 ISZERO PUSH2 0x21B JUMPI PUSH0 DUP1 REVERT JUMPDEST POP PUSH2 0x224 PUSH2 0x813 JUMP JUMPDEST PUSH1 0x40 MLOAD PUSH2 0x235 SWAP6 SWAP5 SWAP4 SWAP3 SWAP2 SWAP1 PUSH2 0x3052 JUMP JUMPDEST PUSH1 0x40 MLOAD DUP1 SWAP2 SUB SWAP1 RETURN JUMPDEST CALLVALUE DUP1 ISZERO PUSH2 0x249 JUMPI PUSH0 DUP1 REVERT JUMPDEST POP PUSH2 0x264 PUSH1 0x4 DUP1 CALLDATASIZE SUB DUP2 ADD SWAP1 PUSH2 0x25F SWAP2 SWAP1 PUSH2 0x31F5 JUMP JUMPDEST PUSH2 0xA32 JUMP JUMPDEST STOP JUMPDEST CALLVALUE DUP1 ISZERO PUSH2 0x271 JUMPI PUSH0 DUP1 REVERT JUMPDEST POP PUSH2 0x27A PUSH2 0xB26 JUMP JUMPDEST STOP JUMPDEST CALLVALUE DUP1 ISZERO PUSH2 0x287 JUMPI PUSH0 DUP1 REVERT JUMPDEST POP PUSH2 0x290 PUSH2 0xDED JUMP JUMPDEST PUSH1 0x40 MLOAD PUSH2 0x29D SWAP2 SWAP1 PUSH2 0x2F19 JUMP JUMPDEST PUSH1 0x40 MLOAD DUP1 SWAP2 SUB SWAP1 RETURN JUMPDEST CALLVALUE DUP1 ISZERO PUSH2 0x2B1 JUMPI PUSH0 DUP1 REVERT JUMPDEST POP PUSH2 0x2BA PUSH2 0xDF3 JUMP JUMPDEST PUSH1 0x40 MLOAD PUSH2 0x2C7 SWAP2 SWAP1 PUSH2 0x3256 JUMP JUMPDEST PUSH1 0x40 MLOAD DUP1 SWAP2 SUB SWAP1 RETURN JUMPDEST CALLVALUE DUP1 ISZERO PUSH2 0x2DB JUMPI PUSH0 DUP1 REVERT JUMPDEST POP PUSH2 0x2E4 PUSH2 0xE06 JUMP JUMPDEST PUSH1 0x40 MLOAD PUSH2 0x2F1 SWAP2 SWAP1 PUSH2 0x2FA2 JUMP JUMPDEST PUSH1 0x40 MLOAD DUP1 SWAP2 SUB SWAP1 RETURN JUMPDEST CALLVALUE DUP1 ISZERO PUSH2 0x305 JUMPI PUSH0 DUP1 REVERT JUMPDEST POP PUSH2 0x320 PUSH1 0x4 DUP1 CALLDATASIZE SUB DUP2 ADD SWAP1 PUSH2 0x31B SWAP2 SWAP1 PUSH2 0x3299 JUMP JUMPDEST PUSH2 0xE92 JUMP JUMPDEST STOP JUMPDEST CALLVALUE DUP1 ISZERO PUSH2 0x32D JUMPI PUSH0 DUP1 REVERT JUMPDEST POP PUSH2 0x348 PUSH1 0x4 DUP1 CALLDATASIZE SUB DUP2 ADD SWAP1 PUSH2 0x343 SWAP2 SWAP1 PUSH2 0x3364 JUMP JUMPDEST PUSH2 0xFA9 JUMP JUMPDEST STOP JUMPDEST CALLVALUE DUP1 ISZERO PUSH2 0x355 JUMPI PUSH0 DUP1 REVERT JUMPDEST POP PUSH2 0x35E PUSH2 0x119D JUMP JUMPDEST PUSH1 0x40 MLOAD PUSH2 0x36B SWAP2 SWAP1 PUSH2 0x2F19 JUMP JUMPDEST PUSH1 0x40 MLOAD DUP1 SWAP2 SUB SWAP1 RETURN JUMPDEST CALLVALUE DUP1 ISZERO PUSH2 0x37F JUMPI PUSH0 DUP1 REVERT JUMPDEST POP PUSH2 0x388 PUSH2 0x11A3 JUMP JUMPDEST PUSH1 0x40 MLOAD PUSH2 0x39B SWAP8 SWAP7 SWAP6 SWAP5 SWAP4 SWAP3 SWAP2 SWAP1 PUSH2 0x3447 JUMP JUMPDEST PUSH1 0x40 MLOAD DUP1 SWAP2 SUB SWAP1 RETURN JUMPDEST CALLVALUE DUP1 ISZERO PUSH2 0x3AF JUMPI PUSH0 DUP1 REVERT JUMPDEST POP PUSH2 0x3B8 PUSH2 0x121F JUMP JUMPDEST PUSH1 0x40 MLOAD PUSH2 0x3C5 SWAP2 SWAP1 PUSH2 0x34B4 JUMP JUMPDEST PUSH1 0x40 MLOAD DUP1 SWAP2 SUB SWAP1 RETURN JUMPDEST CALLVALUE DUP1 ISZERO PUSH2 0x3D9 JUMPI PUSH0 DUP1 REVERT JUMPDEST POP PUSH2 0x3E2 PUSH2 0x1244 JUMP JUMPDEST STOP JUMPDEST PUSH2 0x3EC PUSH2 0x1457 JUMP JUMPDEST STOP JUMPDEST CALLVALUE DUP1 ISZERO PUSH2 0x3F9 JUMPI PUSH0 DUP1 REVERT JUMPDEST POP PUSH2 0x402 PUSH2 0x1592 JUMP JUMPDEST PUSH1 0x40 MLOAD PUSH2 0x40F SWAP2 SWAP1 PUSH2 0x2F19 JUMP JUMPDEST PUSH1 0x40 MLOAD DUP1 SWAP2 SUB SWAP1 RETURN JUMPDEST CALLVALUE DUP1 ISZERO PUSH2 0x423 JUMPI PUSH0 DUP1 REVERT JUMPDEST POP PUSH2 0x43E PUSH1 0x4 DUP1 CALLDATASIZE SUB DUP2 ADD SWAP1 PUSH2 0x439 SWAP2 SWAP1 PUSH2 0x3500 JUMP JUMPDEST PUSH2 0x1598 JUMP JUMPDEST PUSH1 0x40 MLOAD PUSH2 0x44B SWAP2 SWAP1 PUSH2 0x3256 JUMP JUMPDEST PUSH1 0x40 MLOAD DUP1 SWAP2 SUB SWAP1 RETURN JUMPDEST CALLVALUE DUP1 ISZERO PUSH2 0x45F JUMPI PUSH0 DUP1 REVERT JUMPDEST POP PUSH2 0x468 PUSH2 0x15B1 JUMP JUMPDEST PUSH1 0x40 MLOAD PUSH2 0x475 SWAP2 SWAP1 PUSH2 0x34B4 JUMP JUMPDEST PUSH1 0x40 MLOAD DUP1 SWAP2 SUB SWAP1 RETURN JUMPDEST CALLVALUE DUP1 ISZERO PUSH2 0x489 JUMPI PUSH0 DUP1 REVERT JUMPDEST POP PUSH2 0x492 PUSH2 0x15D4 JUMP JUMPDEST PUSH1 0x40 MLOAD PUSH2 0x49F SWAP2 SWAP1 PUSH2 0x3256 JUMP JUMPDEST PUSH1 0x40 MLOAD DUP1 SWAP2 SUB SWAP1 RETURN JUMPDEST PUSH1 0x4 SLOAD DUP2 JUMP JUMPDEST PUSH1 0x8 DUP1 SLOAD PUSH2 0x4BB SWAP1 PUSH2 0x35A4 JUMP JUMPDEST DUP1 PUSH1 0x1F ADD PUSH1 0x20 DUP1 SWAP2 DIV MUL PUSH1 0x20 ADD PUSH1 0x40 MLOAD SWAP1 DUP2 ADD PUSH1 0x40 MSTORE DUP1 SWAP3 SWAP2 SWAP1 DUP2 DUP2 MSTORE PUSH1 0x20 ADD DUP3 DUP1 SLOAD PUSH2 0x4E7 SWAP1 PUSH2 0x35A4 JUMP JUMPDEST DUP1 ISZERO PUSH2 0x532 JUMPI DUP1 PUSH1 0x1F LT PUSH2 0x509 JUMPI PUSH2 0x100 DUP1 DUP4 SLOAD DIV MUL DUP4 MSTORE SWAP2 PUSH1 0x20 ADD SWAP2 PUSH2 0x532 JUMP JUMPDEST DUP3 ADD SWAP2 SWAP1 PUSH0 MSTORE PUSH1 0x20 PUSH0 KECCAK256 SWAP1 JUMPDEST DUP2 SLOAD DUP2 MSTORE SWAP1 PUSH1 0x1 ADD SWAP1 PUSH1 0x20 ADD DUP1 DUP4 GT PUSH2 0x515 JUMPI DUP3 SWAP1 SUB PUSH1 0x1F AND DUP3 ADD SWAP2 JUMPDEST POP POP POP POP POP DUP2 JUMP JUMPDEST PUSH1 0x6 SLOAD DUP2 JUMP JUMPDEST PUSH1 0xB DUP1 PUSH0 ADD DUP1 SLOAD PUSH2 0x550 SWAP1 PUSH2 0x35A4 JUMP JUMPDEST DUP1 PUSH1 0x1F ADD PUSH1 0x20 DUP1 SWAP2 DIV MUL PUSH1 0x20 ADD PUSH1 0x40 MLOAD SWAP1 DUP2 ADD PUSH1 0x40 MSTORE DUP1 SWAP3 SWAP2 SWAP1 DUP2 DUP2 MSTORE PUSH1 0x20 ADD DUP3 DUP1 SLOAD PUSH2 0x57C SWAP1 PUSH2 0x35A4 JUMP JUMPDEST DUP1 ISZERO PUSH2 0x5C7 JUMPI DUP1 PUSH1 0x1F LT PUSH2 0x59E JUMPI PUSH2 0x100 DUP1 DUP4 SLOAD DIV MUL DUP4 MSTORE SWAP2 PUSH1 0x20 ADD SWAP2 PUSH2 0x5C7 JUMP JUMPDEST DUP3 ADD SWAP2 SWAP1 PUSH0 MSTORE PUSH1 0x20 PUSH0 KECCAK256 SWAP1 JUMPDEST DUP2 SLOAD DUP2 MSTORE SWAP1 PUSH1 0x1 ADD SWAP1 PUSH1 0x20 ADD DUP1 DUP4 GT PUSH2 0x5AA JUMPI DUP3 SWAP1 SUB PUSH1 0x1F AND DUP3 ADD SWAP2 JUMPDEST POP POP POP POP POP SWAP1 DUP1 PUSH1 0x1 ADD DUP1 SLOAD PUSH2 0x5DC SWAP1 PUSH2 0x35A4 JUMP JUMPDEST DUP1 PUSH1 0x1F ADD PUSH1 0x20 DUP1 SWAP2 DIV MUL PUSH1 0x20 ADD PUSH1 0x40 MLOAD SWAP1 DUP2 ADD PUSH1 0x40 MSTORE DUP1 SWAP3 SWAP2 SWAP1 DUP2 DUP2 MSTORE PUSH1 0x20 ADD DUP3 DUP1 SLOAD PUSH2 0x608 SWAP1 PUSH2 0x35A4 JUMP JUMPDEST DUP1 ISZERO PUSH2 0x653 JUMPI DUP1 PUSH1 0x1F LT PUSH2 0x62A JUMPI PUSH2 0x100 DUP1 DUP4 SLOAD DIV MUL DUP4 MSTORE SWAP2 PUSH1 0x20 ADD SWAP2 PUSH2 0x653 JUMP JUMPDEST DUP3 ADD SWAP2 SWAP1 PUSH0 MSTORE PUSH1 0x20 PUSH0 KECCAK256 SWAP1 JUMPDEST DUP2 SLOAD DUP2 MSTORE SWAP1 PUSH1 0x1 ADD SWAP1 PUSH1 0x20 ADD DUP1 DUP4 GT PUSH2 0x636 JUMPI DUP3 SWAP1 SUB PUSH1 0x1F AND DUP3 ADD SWAP2 JUMPDEST POP POP POP POP POP SWAP1 DUP1 PUSH1 0x2 ADD DUP1 SLOAD PUSH2 0x668 SWAP1 PUSH2 0x35A4 JUMP JUMPDEST DUP1 PUSH1 0x1F ADD PUSH1 0x20 DUP1 SWAP2 DIV MUL PUSH1 0x20 ADD PUSH1 0x40 MLOAD SWAP1 DUP2 ADD PUSH1 0x40 MSTORE DUP1 SWAP3 SWAP2 SWAP1 DUP2 DUP2 MSTORE PUSH1 0x20 ADD DUP3 DUP1 SLOAD PUSH2 0x694 SWAP1 PUSH2 0x35A4 JUMP JUMPDEST DUP1 ISZERO PUSH2 0x6DF JUMPI DUP1 PUSH1 0x1F LT PUSH2 0x6B6 JUMPI PUSH2 0x100 DUP1 DUP4 SLOAD DIV MUL DUP4 MSTORE SWAP2 PUSH1 0x20 ADD SWAP2 PUSH2 0x6DF JUMP JUMPDEST DUP3 ADD SWAP2 SWAP1 PUSH0 MSTORE PUSH1 0x20 PUSH0 KECCAK256 SWAP1 JUMPDEST DUP2 SLOAD DUP2 MSTORE SWAP1 PUSH1 0x1 ADD SWAP1 PUSH1 0x20 ADD DUP1 DUP4 GT PUSH2 0x6C2 JUMPI DUP3 SWAP1 SUB PUSH1 0x1F AND DUP3 ADD SWAP2 JUMPDEST POP POP POP POP POP SWAP1 DUP1 PUSH1 0x3 ADD DUP1 SLOAD PUSH2 0x6F4 SWAP1 PUSH2 0x35A4 JUMP JUMPDEST DUP1 PUSH1 0x1F ADD PUSH1 0x20 DUP1 SWAP2 DIV MUL PUSH1 0x20 ADD PUSH1 0x40 MLOAD SWAP1 DUP2 ADD PUSH1 0x40 MSTORE DUP1 SWAP3 SWAP2 SWAP1 DUP2 DUP2 MSTORE PUSH1 0x20 ADD DUP3 DUP1 SLOAD PUSH2 0x720 SWAP1 PUSH2 0x35A4 JUMP JUMPDEST DUP1 ISZERO PUSH2 0x76B JUMPI DUP1 PUSH1 0x1F LT PUSH2 0x742 JUMPI PUSH2 0x100 DUP1 DUP4 SLOAD DIV MUL DUP4 MSTORE SWAP2 PUSH1 0x20 ADD SWAP2 PUSH2 0x76B JUMP JUMPDEST DUP3 ADD SWAP2 SWAP1 PUSH0 MSTORE PUSH1 0x20 PUSH0 KECCAK256 SWAP1 JUMPDEST DUP2 SLOAD DUP2 MSTORE SWAP1 PUSH1 0x1 ADD SWAP1 PUSH1 0x20 ADD DUP1 DUP4 GT PUSH2 0x74E JUMPI DUP3 SWAP1 SUB PUSH1 0x1F AND DUP3 ADD SWAP2 JUMPDEST POP POP POP POP POP SWAP1 DUP1 PUSH1 0x4 ADD DUP1 SLOAD PUSH2 0x780 SWAP1 PUSH2 0x35A4 JUMP JUMPDEST DUP1 PUSH1 0x1F ADD PUSH1 0x20 DUP1 SWAP2 DIV MUL PUSH1 0x20 ADD PUSH1 0x40 MLOAD SWAP1 DUP2 ADD PUSH1 0x40 MSTORE DUP1 SWAP3 SWAP2 SWAP1 DUP2 DUP2 MSTORE PUSH1 0x20 ADD DUP3 DUP1 SLOAD PUSH2 0x7AC SWAP1 PUSH2 0x35A4 JUMP JUMPDEST DUP1 ISZERO PUSH2 0x7F7 JUMPI DUP1 PUSH1 0x1F LT PUSH2 0x7CE JUMPI PUSH2 0x100 DUP1 DUP4 SLOAD DIV MUL DUP4 MSTORE SWAP2 PUSH1 0x20 ADD SWAP2 PUSH2 0x7F7 JUMP JUMPDEST DUP3 ADD SWAP2 SWAP1 PUSH0 MSTORE PUSH1 0x20 PUSH0 KECCAK256 SWAP1 JUMPDEST DUP2 SLOAD DUP2 MSTORE SWAP1 PUSH1 0x1 ADD SWAP1 PUSH1 0x20 ADD DUP1 DUP4 GT PUSH2 0x7DA JUMPI DUP3 SWAP1 SUB PUSH1 0x1F AND DUP3 ADD SWAP2 JUMPDEST POP POP POP POP POP SWAP1 DUP1 PUSH1 0x5 ADD SLOAD SWAP1 DUP1 PUSH1 0x6 ADD SLOAD SWAP1 POP DUP8 JUMP JUMPDEST PUSH1 0x5 SLOAD DUP2 JUMP JUMPDEST PUSH0 DUP1 PUSH1 0x60 DUP1 PUSH1 0x60 PUSH1 0xA PUSH1 0x1 SWAP1 SLOAD SWAP1 PUSH2 0x100 EXP SWAP1 DIV PUSH1 0xFF AND PUSH2 0x869 JUMPI PUSH1 0x40 MLOAD PUSH32 0x8C379A000000000000000000000000000000000000000000000000000000000 DUP2 MSTORE PUSH1 0x4 ADD PUSH2 0x860 SWAP1 PUSH2 0x362E JUMP JUMPDEST PUSH1 0x40 MLOAD DUP1 SWAP2 SUB SWAP1 REVERT JUMPDEST PUSH1 0xB PUSH1 0x6 ADD SLOAD PUSH1 0xB PUSH1 0x5 ADD SLOAD PUSH1 0xB PUSH1 0x3 ADD PUSH1 0xB PUSH1 0x1 ADD PUSH1 0xB PUSH0 ADD DUP3 DUP1 SLOAD PUSH2 0x88F SWAP1 PUSH2 0x35A4 JUMP JUMPDEST DUP1 PUSH1 0x1F ADD PUSH1 0x20 DUP1 SWAP2 DIV MUL PUSH1 0x20 ADD PUSH1 0x40 MLOAD SWAP1 DUP2 ADD PUSH1 0x40 MSTORE DUP1 SWAP3 SWAP2 SWAP1 DUP2 DUP2 MSTORE PUSH1 0x20 ADD DUP3 DUP1 SLOAD PUSH2 0x8BB SWAP1 PUSH2 0x35A4 JUMP JUMPDEST DUP1 ISZERO PUSH2 0x906 JUMPI DUP1 PUSH1 0x1F LT PUSH2 0x8DD JUMPI PUSH2 0x100 DUP1 DUP4 SLOAD DIV MUL DUP4 MSTORE SWAP2 PUSH1 0x20 ADD SWAP2 PUSH2 0x906 JUMP JUMPDEST DUP3 ADD SWAP2 SWAP1 PUSH0 MSTORE PUSH1 0x20 PUSH0 KECCAK256 SWAP1 JUMPDEST DUP2 SLOAD DUP2 MSTORE SWAP1 PUSH1 0x1 ADD SWAP1 PUSH1 0x20 ADD DUP1 DUP4 GT PUSH2 0x8E9 JUMPI DUP3 SWAP1 SUB PUSH1 0x1F AND DUP3 ADD SWAP2 JUMPDEST POP POP POP POP POP SWAP3 POP DUP2 DUP1 SLOAD PUSH2 0x919 SWAP1 PUSH2 0x35A4 JUMP JUMPDEST DUP1 PUSH1 0x1F ADD PUSH1 0x20 DUP1 SWAP2 DIV MUL PUSH1 0x20 ADD PUSH1 0x40 MLOAD SWAP1 DUP2 ADD PUSH1 0x40 MSTORE DUP1 SWAP3 SWAP2 SWAP1 DUP2 DUP2 MSTORE PUSH1 0x20 ADD DUP3 DUP1 SLOAD PUSH2 0x945 SWAP1 PUSH2 0x35A4 JUMP JUMPDEST DUP1 ISZERO PUSH2 0x990 JUMPI DUP1 PUSH1 0x1F LT PUSH2 0x967 JUMPI PUSH2 0x100 DUP1 DUP4 SLOAD DIV MUL DUP4 MSTORE SWAP2 PUSH1 0x20 ADD SWAP2 PUSH2 0x990 JUMP JUMPDEST DUP3 ADD SWAP2 SWAP1 PUSH0 MSTORE PUSH1 0x20 PUSH0 KECCAK256 SWAP1 JUMPDEST DUP2 SLOAD DUP2 MSTORE SWAP1 PUSH1 0x1 ADD SWAP1 PUSH1 0x20 ADD DUP1 DUP4 GT PUSH2 0x973 JUMPI DUP3 SWAP1 SUB PUSH1 0x1F AND DUP3 ADD SWAP2 JUMPDEST POP POP POP POP POP SWAP2 POP DUP1 DUP1 SLOAD PUSH2 0x9A3 SWAP1 PUSH2 0x35A4 JUMP JUMPDEST DUP1 PUSH1 0x1F ADD PUSH1 0x20 DUP1 SWAP2 DIV MUL PUSH1 0x20 ADD PUSH1 0x40 MLOAD SWAP1 DUP2 ADD PUSH1 0x40 MSTORE DUP1 SWAP3 SWAP2 SWAP1 DUP2 DUP2 MSTORE PUSH1 0x20 ADD DUP3 DUP1 SLOAD PUSH2 0x9CF SWAP1 PUSH2 0x35A4 JUMP JUMPDEST DUP1 ISZERO PUSH2 0xA1A JUMPI DUP1 PUSH1 0x1F LT PUSH2 0x9F1 JUMPI PUSH2 0x100 DUP1 DUP4 SLOAD DIV MUL DUP4 MSTORE SWAP2 PUSH1 0x20 ADD SWAP2 PUSH2 0xA1A JUMP JUMPDEST DUP3 ADD SWAP2 SWAP1 PUSH0 MSTORE PUSH1 0x20 PUSH0 KECCAK256 SWAP1 JUMPDEST DUP2 SLOAD DUP2 MSTORE SWAP1 PUSH1 0x1 ADD SWAP1 PUSH1 0x20 ADD DUP1 DUP4 GT PUSH2 0x9FD JUMPI DUP3 SWAP1 SUB PUSH1 0x1F AND DUP3 ADD SWAP2 JUMPDEST POP POP POP POP POP SWAP1 POP SWAP5 POP SWAP5 POP SWAP5 POP SWAP5 POP SWAP5 POP SWAP1 SWAP2 SWAP3 SWAP4 SWAP5 JUMP JUMPDEST PUSH1 0x1 PUSH0 SWAP1 SLOAD SWAP1 PUSH2 0x100 EXP SWAP1 DIV PUSH20 0xFFFFFFFFFFFFFFFFFFFFFFFFFFFFFFFFFFFFFFFF AND PUSH20 0xFFFFFFFFFFFFFFFFFFFFFFFFFFFFFFFFFFFFFFFF AND CALLER PUSH20 0xFFFFFFFFFFFFFFFFFFFFFFFFFFFFFFFFFFFFFFFF AND EQ PUSH2 0xAC1 JUMPI PUSH1 0x40 MLOAD PUSH32 0x8C379A000000000000000000000000000000000000000000000000000000000 DUP2 MSTORE PUSH1 0x4 ADD PUSH2 0xAB8 SWAP1 PUSH2 0x36BC JUMP JUMPDEST PUSH1 0x40 MLOAD DUP1 SWAP2 SUB SWAP1 REVERT JUMPDEST DUP1 PUSH1 0x8 SWAP1 DUP2 PUSH2 0xAD0 SWAP2 SWAP1 PUSH2 0x3877 JUMP JUMPDEST POP PUSH32 0x3E52FBBB12F1347BD63824136FA0930B30743AC0B2C238CF13892CF4F4E52969 DUP2 PUSH1 0x40 MLOAD PUSH2 0xB00 SWAP2 SWAP1 PUSH2 0x2FA2 JUMP JUMPDEST PUSH1 0x40 MLOAD DUP1 SWAP2 SUB SWAP1 LOG1 PUSH1 0x1 PUSH1 0xA PUSH1 0x1 PUSH2 0x100 EXP DUP2 SLOAD DUP2 PUSH1 0xFF MUL NOT AND SWAP1 DUP4 ISZERO ISZERO MUL OR SWAP1 SSTORE POP POP JUMP JUMPDEST PUSH0 DUP1 SLOAD SWAP1 PUSH2 0x100 EXP SWAP1 DIV PUSH20 0xFFFFFFFFFFFFFFFFFFFFFFFFFFFFFFFFFFFFFFFF AND PUSH20 0xFFFFFFFFFFFFFFFFFFFFFFFFFFFFFFFFFFFFFFFF AND CALLER PUSH20 0xFFFFFFFFFFFFFFFFFFFFFFFFFFFFFFFFFFFFFFFF AND EQ PUSH2 0xBB3 JUMPI PUSH1 0x40 MLOAD PUSH32 0x8C379A000000000000000000000000000000000000000000000000000000000 DUP2 MSTORE PUSH1 0x4 ADD PUSH2 0xBAA SWAP1 PUSH2 0x39B6 JUMP JUMPDEST PUSH1 0x40 MLOAD DUP1 SWAP2 SUB SWAP1 REVERT JUMPDEST PUSH1 0x4 SLOAD SELFBALANCE LT ISZERO PUSH2 0xBF8 JUMPI PUSH1 0x40 MLOAD PUSH32 0x8C379A000000000000000000000000000000000000000000000000000000000 DUP2 MSTORE PUSH1 0x4 ADD PUSH2 0xBEF SWAP1 PUSH2 0x3A1E JUMP JUMPDEST PUSH1 0x40 MLOAD DUP1 SWAP2 SUB SWAP1 REVERT JUMPDEST PUSH1 0x1 PUSH0 SWAP1 SLOAD SWAP1 PUSH2 0x100 EXP SWAP1 DIV PUSH20 0xFFFFFFFFFFFFFFFFFFFFFFFFFFFFFFFFFFFFFFFF AND PUSH20 0xFFFFFFFFFFFFFFFFFFFFFFFFFFFFFFFFFFFFFFFF AND PUSH2 0x8FC PUSH1 0x2 SLOAD SWAP1 DUP2 ISZERO MUL SWAP1 PUSH1 0x40 MLOAD PUSH0 PUSH1 0x40 MLOAD DUP1 DUP4 SUB DUP2 DUP6 DUP9 DUP9 CALL SWAP4 POP POP POP POP ISZERO DUP1 ISZERO PUSH2 0xC5E JUMPI RETURNDATASIZE PUSH0 DUP1 RETURNDATACOPY RETURNDATASIZE PUSH0 REVERT JUMPDEST POP PUSH0 DUP1 SLOAD SWAP1 PUSH2 0x100 EXP SWAP1 DIV PUSH20 0xFFFFFFFFFFFFFFFFFFFFFFFFFFFFFFFFFFFFFFFF AND PUSH20 0xFFFFFFFFFFFFFFFFFFFFFFFFFFFFFFFFFFFFFFFF AND PUSH2 0x8FC PUSH1 0x3 SLOAD SWAP1 DUP2 ISZERO MUL SWAP1 PUSH1 0x40 MLOAD PUSH0 PUSH1 0x40 MLOAD DUP1 DUP4 SUB DUP2 DUP6 DUP9 DUP9 CALL SWAP4 POP POP POP POP ISZERO DUP1 ISZERO PUSH2 0xCC3 JUMPI RETURNDATASIZE PUSH0 DUP1 RETURNDATACOPY RETURNDATASIZE PUSH0 REVERT JUMPDEST POP PUSH1 0x1 PUSH0 SWAP1 SLOAD SWAP1 PUSH2 0x100 EXP SWAP1 DIV PUSH20 0xFFFFFFFFFFFFFFFFFFFFFFFFFFFFFFFFFFFFFFFF AND PUSH20 0xFFFFFFFFFFFFFFFFFFFFFFFFFFFFFFFFFFFFFFFF AND CALLER PUSH20 0xFFFFFFFFFFFFFFFFFFFFFFFFFFFFFFFFFFFFFFFF AND PUSH32 0xDDF252AD1BE2C89B69C2B068FC378DAA952BA7F163C4A11628F55A4DF523B3EF PUSH1 0x2 SLOAD PUSH1 0x40 MLOAD PUSH2 0xD44 SWAP2 SWAP1 PUSH2 0x2F19 JUMP JUMPDEST PUSH1 0x40 MLOAD DUP1 SWAP2 SUB SWAP1 LOG3 PUSH0 DUP1 SLOAD SWAP1 PUSH2 0x100 EXP SWAP1 DIV PUSH20 0xFFFFFFFFFFFFFFFFFFFFFFFFFFFFFFFFFFFFFFFF AND PUSH20 0xFFFFFFFFFFFFFFFFFFFFFFFFFFFFFFFFFFFFFFFF AND CALLER PUSH20 0xFFFFFFFFFFFFFFFFFFFFFFFFFFFFFFFFFFFFFFFF AND PUSH32 0xDDF252AD1BE2C89B69C2B068FC378DAA952BA7F163C4A11628F55A4DF523B3EF PUSH1 0x3 SLOAD PUSH1 0x40 MLOAD PUSH2 0xDCA SWAP2 SWAP1 PUSH2 0x2F19 JUMP JUMPDEST PUSH1 0x40 MLOAD DUP1 SWAP2 SUB SWAP1 LOG3 PUSH0 PUSH1 0xA PUSH0 PUSH2 0x100 EXP DUP2 SLOAD DUP2 PUSH1 0xFF MUL NOT AND SWAP1 DUP4 ISZERO ISZERO MUL OR SWAP1 SSTORE POP JUMP JUMPDEST PUSH1 0x7 SLOAD DUP2 JUMP JUMPDEST PUSH1 0xA PUSH1 0x1 SWAP1 SLOAD SWAP1 PUSH2 0x100 EXP SWAP1 DIV PUSH1 0xFF AND DUP2 JUMP JUMPDEST PUSH1 0x9 DUP1 SLOAD PUSH2 0xE13 SWAP1 PUSH2 0x35A4 JUMP JUMPDEST DUP1 PUSH1 0x1F ADD PUSH1 0x20 DUP1 SWAP2 DIV MUL PUSH1 0x20 ADD PUSH1 0x40 MLOAD SWAP1 DUP2 ADD PUSH1 0x40 MSTORE DUP1 SWAP3 SWAP2 SWAP1 DUP2 DUP2 MSTORE PUSH1 0x20 ADD DUP3 DUP1 SLOAD PUSH2 0xE3F SWAP1 PUSH2 0x35A4 JUMP JUMPDEST DUP1 ISZERO PUSH2 0xE8A JUMPI DUP1 PUSH1 0x1F LT PUSH2 0xE61 JUMPI PUSH2 0x100 DUP1 DUP4 SLOAD DIV MUL DUP4 MSTORE SWAP2 PUSH1 0x20 ADD SWAP2 PUSH2 0xE8A JUMP JUMPDEST DUP3 ADD SWAP2 SWAP1 PUSH0 MSTORE PUSH1 0x20 PUSH0 KECCAK256 SWAP1 JUMPDEST DUP2 SLOAD DUP2 MSTORE SWAP1 PUSH1 0x1 ADD SWAP1 PUSH1 0x20 ADD DUP1 DUP4 GT PUSH2 0xE6D JUMPI DUP3 SWAP1 SUB PUSH1 0x1F AND DUP3 ADD SWAP2 JUMPDEST POP POP POP POP POP DUP2 JUMP JUMPDEST PUSH0 DUP1 SLOAD SWAP1 PUSH2 0x100 EXP SWAP1 DIV PUSH20 0xFFFFFFFFFFFFFFFFFFFFFFFFFFFFFFFFFFFFFFFF AND PUSH20 0xFFFFFFFFFFFFFFFFFFFFFFFFFFFFFFFFFFFFFFFF AND CALLER PUSH20 0xFFFFFFFFFFFFFFFFFFFFFFFFFFFFFFFFFFFFFFFF AND EQ PUSH2 0xF1F JUMPI PUSH1 0x40 MLOAD PUSH32 0x8C379A000000000000000000000000000000000000000000000000000000000 DUP2 MSTORE PUSH1 0x4 ADD PUSH2 0xF16 SWAP1 PUSH2 0x3AAC JUMP JUMPDEST PUSH1 0x40 MLOAD DUP1 SWAP2 SUB SWAP1 REVERT JUMPDEST DUP5 PUSH1 0xB PUSH0 ADD SWAP1 DUP2 PUSH2 0xF30 SWAP2 SWAP1 PUSH2 0x3877 JUMP JUMPDEST POP DUP4 PUSH1 0xB PUSH1 0x1 ADD SWAP1 DUP2 PUSH2 0xF43 SWAP2 SWAP1 PUSH2 0x3877 JUMP JUMPDEST POP DUP3 PUSH1 0xB PUSH1 0x3 ADD SWAP1 DUP2 PUSH2 0xF56 SWAP2 SWAP1 PUSH2 0x3877 JUMP JUMPDEST POP DUP1 PUSH1 0xB PUSH1 0x6 ADD DUP2 SWAP1 SSTORE POP DUP2 PUSH1 0xB PUSH1 0x5 ADD DUP2 SWAP1 SSTORE POP PUSH32 0x5B1FD024CFDECF12403893EB3F5C7143182CBB3D479096B12FF678DEB056B8AD DUP6 PUSH1 0x40 MLOAD PUSH2 0xF9A SWAP2 SWAP1 PUSH2 0x2FA2 JUMP JUMPDEST PUSH1 0x40 MLOAD DUP1 SWAP2 SUB SWAP1 LOG1 POP POP POP POP POP JUMP JUMPDEST PUSH1 0x1 PUSH0 SWAP1 SLOAD SWAP1 PUSH2 0x100 EXP SWAP1 DIV PUSH20 0xFFFFFFFFFFFFFFFFFFFFFFFFFFFFFFFFFFFFFFFF AND PUSH20 0xFFFFFFFFFFFFFFFFFFFFFFFFFFFFFFFFFFFFFFFF AND CALLER PUSH20 0xFFFFFFFFFFFFFFFFFFFFFFFFFFFFFFFFFFFFFFFF AND EQ PUSH2 0x1038 JUMPI PUSH1 0x40 MLOAD PUSH32 0x8C379A000000000000000000000000000000000000000000000000000000000 DUP2 MSTORE PUSH1 0x4 ADD PUSH2 0x102F SWAP1 PUSH2 0x3B14 JUMP JUMPDEST PUSH1 0x40 MLOAD DUP1 SWAP2 SUB SWAP1 REVERT JUMPDEST PUSH1 0x4 SLOAD SELFBALANCE LT ISZERO PUSH2 0x107D JUMPI PUSH1 0x40 MLOAD PUSH32 0x8C379A000000000000000000000000000000000000000000000000000000000 DUP2 MSTORE PUSH1 0x4 ADD PUSH2 0x1074 SWAP1 PUSH2 0x3A1E JUMP JUMPDEST PUSH1 0x40 MLOAD DUP1 SWAP2 SUB SWAP1 REVERT JUMPDEST DUP3 PUSH1 0x9 SWAP1 DUP2 PUSH2 0x108C SWAP2 SWAP1 PUSH2 0x3877 JUMP JUMPDEST POP DUP2 PUSH1 0xB PUSH1 0x2 ADD SWAP1 DUP2 PUSH2 0x109F SWAP2 SWAP1 PUSH2 0x3877 JUMP JUMPDEST POP DUP1 PUSH1 0xB PUSH1 0x4 ADD SWAP1 DUP2 PUSH2 0x10B2 SWAP2 SWAP1 PUSH2 0x3877 JUMP JUMPDEST POP PUSH2 0x10BB PUSH2 0x15E6 JUMP JUMPDEST PUSH2 0x1198 JUMPI PUSH1 0x1 PUSH0 SWAP1 SLOAD SWAP1 PUSH2 0x100 EXP SWAP1 DIV PUSH20 0xFFFFFFFFFFFFFFFFFFFFFFFFFFFFFFFFFFFFFFFF AND PUSH20 0xFFFFFFFFFFFFFFFFFFFFFFFFFFFFFFFFFFFFFFFF AND PUSH2 0x8FC PUSH1 0x4 SLOAD SWAP1 DUP2 ISZERO MUL SWAP1 PUSH1 0x40 MLOAD PUSH0 PUSH1 0x40 MLOAD DUP1 DUP4 SUB DUP2 DUP6 DUP9 DUP9 CALL SWAP4 POP POP POP POP ISZERO DUP1 ISZERO PUSH2 0x1125 JUMPI RETURNDATASIZE PUSH0 DUP1 RETURNDATACOPY RETURNDATASIZE PUSH0 REVERT JUMPDEST POP PUSH1 0x1 PUSH0 SWAP1 SLOAD SWAP1 PUSH2 0x100 EXP SWAP1 DIV PUSH20 0xFFFFFFFFFFFFFFFFFFFFFFFFFFFFFFFFFFFFFFFF AND PUSH20 0xFFFFFFFFFFFFFFFFFFFFFFFFFFFFFFFFFFFFFFFF AND PUSH32 0xE4BB88ACDA5194AA84E6FEEDBB6438FFD447BDEE1E1AD8DDA3C32FCFF9A68F08 PUSH1 0x4 SLOAD PUSH1 0x40 MLOAD PUSH2 0x118F SWAP2 SWAP1 PUSH2 0x2F19 JUMP JUMPDEST PUSH1 0x40 MLOAD DUP1 SWAP2 SUB SWAP1 LOG2 JUMPDEST POP POP POP JUMP JUMPDEST PUSH1 0x2 SLOAD DUP2 JUMP JUMPDEST PUSH0 DUP1 PUSH0 DUP1 PUSH0 DUP1 PUSH0 DUP1 PUSH0 SWAP1 SLOAD SWAP1 PUSH2 0x100 EXP SWAP1 DIV PUSH20 0xFFFFFFFFFFFFFFFFFFFFFFFFFFFFFFFFFFFFFFFF AND PUSH1 0x1 PUSH0 SWAP1 SLOAD SWAP1 PUSH2 0x100 EXP SWAP1 DIV PUSH20 0xFFFFFFFFFFFFFFFFFFFFFFFFFFFFFFFFFFFFFFFF AND PUSH1 0x2 SLOAD PUSH1 0x3 SLOAD PUSH1 0x4 SLOAD PUSH1 0x5 SLOAD PUSH1 0xA PUSH0 SWAP1 SLOAD SWAP1 PUSH2 0x100 EXP SWAP1 DIV PUSH1 0xFF AND SWAP7 POP SWAP7 POP SWAP7 POP SWAP7 POP SWAP7 POP SWAP7 POP SWAP7 POP SWAP1 SWAP2 SWAP3 SWAP4 SWAP5 SWAP6 SWAP7 JUMP JUMPDEST PUSH1 0x1 PUSH0 SWAP1 SLOAD SWAP1 PUSH2 0x100 EXP SWAP1 DIV PUSH20 0xFFFFFFFFFFFFFFFFFFFFFFFFFFFFFFFFFFFFFFFF AND DUP2 JUMP JUMPDEST PUSH0 DUP1 SLOAD SWAP1 PUSH2 0x100 EXP SWAP1 DIV PUSH20 0xFFFFFFFFFFFFFFFFFFFFFFFFFFFFFFFFFFFFFFFF AND PUSH20 0xFFFFFFFFFFFFFFFFFFFFFFFFFFFFFFFFFFFFFFFF AND CALLER PUSH20 0xFFFFFFFFFFFFFFFFFFFFFFFFFFFFFFFFFFFFFFFF AND EQ PUSH2 0x12D1 JUMPI PUSH1 0x40 MLOAD PUSH32 0x8C379A000000000000000000000000000000000000000000000000000000000 DUP2 MSTORE PUSH1 0x4 ADD PUSH2 0x12C8 SWAP1 PUSH2 0x39B6 JUMP JUMPDEST PUSH1 0x40 MLOAD DUP1 SWAP2 SUB SWAP1 REVERT JUMPDEST PUSH1 0x4 SLOAD SELFBALANCE LT ISZERO PUSH2 0x1316 JUMPI PUSH1 0x40 MLOAD PUSH32 0x8C379A000000000000000000000000000000000000000000000000000000000 DUP2 MSTORE PUSH1 0x4 ADD PUSH2 0x130D SWAP1 PUSH2 0x3A1E JUMP JUMPDEST PUSH1 0x40 MLOAD DUP1 SWAP2 SUB SWAP1 REVERT JUMPDEST PUSH1 0x7 SLOAD PUSH1 0x6 SLOAD PUSH2 0x1326 SWAP2 SWAP1 PUSH2 0x3B5F JUMP JUMPDEST TIMESTAMP LT ISZERO PUSH2 0x1368 JUMPI PUSH1 0x40 MLOAD PUSH32 0x8C379A000000000000000000000000000000000000000000000000000000000 DUP2 MSTORE PUSH1 0x4 ADD PUSH2 0x135F SWAP1 PUSH2 0x3BDC JUMP JUMPDEST PUSH1 0x40 MLOAD DUP1 SWAP2 SUB SWAP1 REVERT JUMPDEST PUSH0 DUP1 SLOAD SWAP1 PUSH2 0x100 EXP SWAP1 DIV PUSH20 0xFFFFFFFFFFFFFFFFFFFFFFFFFFFFFFFFFFFFFFFF AND PUSH20 0xFFFFFFFFFFFFFFFFFFFFFFFFFFFFFFFFFFFFFFFF AND PUSH2 0x8FC PUSH1 0x4 SLOAD SWAP1 DUP2 ISZERO MUL SWAP1 PUSH1 0x40 MLOAD PUSH0 PUSH1 0x40 MLOAD DUP1 DUP4 SUB DUP2 DUP6 DUP9 DUP9 CALL SWAP4 POP POP POP POP ISZERO DUP1 ISZERO PUSH2 0x13CC JUMPI RETURNDATASIZE PUSH0 DUP1 RETURNDATACOPY RETURNDATASIZE PUSH0 REVERT JUMPDEST POP PUSH0 DUP1 SLOAD SWAP1 PUSH2 0x100 EXP SWAP1 DIV PUSH20 0xFFFFFFFFFFFFFFFFFFFFFFFFFFFFFFFFFFFFFFFF AND PUSH20 0xFFFFFFFFFFFFFFFFFFFFFFFFFFFFFFFFFFFFFFFF AND PUSH32 0xE4BB88ACDA5194AA84E6FEEDBB6438FFD447BDEE1E1AD8DDA3C32FCFF9A68F08 PUSH1 0x4 SLOAD PUSH1 0x40 MLOAD PUSH2 0x1434 SWAP2 SWAP1 PUSH2 0x2F19 JUMP JUMPDEST PUSH1 0x40 MLOAD DUP1 SWAP2 SUB SWAP1 LOG2 PUSH0 PUSH1 0xA PUSH0 PUSH2 0x100 EXP DUP2 SLOAD DUP2 PUSH1 0xFF MUL NOT AND SWAP1 DUP4 ISZERO ISZERO MUL OR SWAP1 SSTORE POP JUMP JUMPDEST PUSH0 DUP1 SLOAD SWAP1 PUSH2 0x100 EXP SWAP1 DIV PUSH20 0xFFFFFFFFFFFFFFFFFFFFFFFFFFFFFFFFFFFFFFFF AND PUSH20 0xFFFFFFFFFFFFFFFFFFFFFFFFFFFFFFFFFFFFFFFF AND CALLER PUSH20 0xFFFFFFFFFFFFFFFFFFFFFFFFFFFFFFFFFFFFFFFF AND EQ PUSH2 0x14E4 JUMPI PUSH1 0x40 MLOAD PUSH32 0x8C379A000000000000000000000000000000000000000000000000000000000 DUP2 MSTORE PUSH1 0x4 ADD PUSH2 0x14DB SWAP1 PUSH2 0x3C44 JUMP JUMPDEST PUSH1 0x40 MLOAD DUP1 SWAP2 SUB SWAP1 REVERT JUMPDEST PUSH1 0x4 SLOAD CALLVALUE EQ PUSH2 0x1528 JUMPI PUSH1 0x40 MLOAD PUSH32 0x8C379A000000000000000000000000000000000000000000000000000000000 DUP2 MSTORE PUSH1 0x4 ADD PUSH2 0x151F SWAP1 PUSH2 0x3CD2 JUMP JUMPDEST PUSH1 0x40 MLOAD DUP1 SWAP2 SUB SWAP1 REVERT JUMPDEST CALLER PUSH20 0xFFFFFFFFFFFFFFFFFFFFFFFFFFFFFFFFFFFFFFFF AND PUSH32 0xE1FFFCC4923D04B559F4D29A8BFC6CDA04EB5B0D3C460751C2402C5C5CC9109C CALLVALUE PUSH1 0x40 MLOAD PUSH2 0x156E SWAP2 SWAP1 PUSH2 0x2F19 JUMP JUMPDEST PUSH1 0x40 MLOAD DUP1 SWAP2 SUB SWAP1 LOG2 PUSH1 0x1 PUSH1 0xA PUSH0 PUSH2 0x100 EXP DUP2 SLOAD DUP2 PUSH1 0xFF MUL NOT AND SWAP1 DUP4 ISZERO ISZERO MUL OR SWAP1 SSTORE POP JUMP JUMPDEST PUSH1 0x3 SLOAD DUP2 JUMP JUMPDEST PUSH0 PUSH2 0x15A6 DUP7 DUP7 DUP7 DUP7 DUP7 PUSH2 0x167F JUMP JUMPDEST SWAP1 POP SWAP6 SWAP5 POP POP POP POP POP JUMP JUMPDEST PUSH0 DUP1 SLOAD SWAP1 PUSH2 0x100 EXP SWAP1 DIV PUSH20 0xFFFFFFFFFFFFFFFFFFFFFFFFFFFFFFFFFFFFFFFF AND DUP2 JUMP JUMPDEST PUSH1 0xA PUSH0 SWAP1 SLOAD SWAP1 PUSH2 0x100 EXP SWAP1 DIV PUSH1 0xFF AND DUP2 JUMP JUMPDEST PUSH0 PUSH20 0x0 PUSH4 0xC2269A7B PUSH1 0xB PUSH1 0x3 ADD PUSH1 0xB PUSH1 0x1 ADD PUSH1 0xB PUSH1 0x2 ADD PUSH1 0xB PUSH1 0x4 ADD PUSH1 0xB PUSH1 0x6 ADD SLOAD PUSH1 0x40 MLOAD DUP7 PUSH4 0xFFFFFFFF AND PUSH1 0xE0 SHL DUP2 MSTORE PUSH1 0x4 ADD PUSH2 0x163B SWAP6 SWAP5 SWAP4 SWAP3 SWAP2 SWAP1 PUSH2 0x3D90 JUMP JUMPDEST PUSH1 0x20 PUSH1 0x40 MLOAD DUP1 DUP4 SUB DUP2 DUP7 GAS DELEGATECALL ISZERO DUP1 ISZERO PUSH2 0x1656 JUMPI RETURNDATASIZE PUSH0 DUP1 RETURNDATACOPY RETURNDATASIZE PUSH0 REVERT JUMPDEST POP POP POP POP PUSH1 0x40 MLOAD RETURNDATASIZE PUSH1 0x1F NOT PUSH1 0x1F DUP3 ADD AND DUP3 ADD DUP1 PUSH1 0x40 MSTORE POP DUP2 ADD SWAP1 PUSH2 0x167A SWAP2 SWAP1 PUSH2 0x3E27 JUMP JUMPDEST SWAP1 POP SWAP1 JUMP JUMPDEST PUSH0 PUSH2 0x16BE PUSH1 0x40 MLOAD DUP1 PUSH1 0x40 ADD PUSH1 0x40 MSTORE DUP1 PUSH1 0x1 DUP2 MSTORE PUSH1 0x20 ADD PUSH32 0x3000000000000000000000000000000000000000000000000000000000000000 DUP2 MSTORE POP PUSH2 0x18B9 JUMP JUMPDEST PUSH0 DUP6 EQ DUP1 PUSH2 0x16EC JUMPI POP PUSH32 0xFFFFFFFF00000000FFFFFFFFFFFFFFFFBCE6FAADA7179E84F3B9CAC2FC632551 DUP6 LT ISZERO JUMPDEST DUP1 PUSH2 0x16F6 JUMPI POP PUSH0 DUP5 EQ JUMPDEST DUP1 PUSH2 0x1721 JUMPI POP PUSH32 0xFFFFFFFF00000000FFFFFFFFFFFFFFFFBCE6FAADA7179E84F3B9CAC2FC632551 DUP5 LT ISZERO JUMPDEST ISZERO PUSH2 0x172E JUMPI PUSH0 SWAP1 POP PUSH2 0x18B0 JUMP JUMPDEST PUSH2 0x176C PUSH1 0x40 MLOAD DUP1 PUSH1 0x40 ADD PUSH1 0x40 MSTORE DUP1 PUSH1 0x1 DUP2 MSTORE PUSH1 0x20 ADD PUSH32 0x3100000000000000000000000000000000000000000000000000000000000000 DUP2 MSTORE POP PUSH2 0x18B9 JUMP JUMPDEST PUSH2 0x1776 DUP4 DUP4 PUSH2 0x1952 JUMP JUMPDEST PUSH2 0x1782 JUMPI PUSH0 SWAP1 POP PUSH2 0x18B0 JUMP JUMPDEST PUSH2 0x17C0 PUSH1 0x40 MLOAD DUP1 PUSH1 0x40 ADD PUSH1 0x40 MSTORE DUP1 PUSH1 0x1 DUP2 MSTORE PUSH1 0x20 ADD PUSH32 0x3200000000000000000000000000000000000000000000000000000000000000 DUP2 MSTORE POP PUSH2 0x18B9 JUMP JUMPDEST PUSH0 PUSH2 0x17CA DUP6 PUSH2 0x1B43 JUMP JUMPDEST SWAP1 POP PUSH0 PUSH32 0xFFFFFFFF00000000FFFFFFFFFFFFFFFFBCE6FAADA7179E84F3B9CAC2FC632551 DUP1 PUSH2 0x17FC JUMPI PUSH2 0x17FB PUSH2 0x3E52 JUMP JUMPDEST JUMPDEST DUP3 DUP10 PUSH0 SHR MULMOD SWAP1 POP PUSH0 PUSH32 0xFFFFFFFF00000000FFFFFFFFFFFFFFFFBCE6FAADA7179E84F3B9CAC2FC632551 DUP1 PUSH2 0x1833 JUMPI PUSH2 0x1832 PUSH2 0x3E52 JUMP JUMPDEST JUMPDEST DUP4 DUP10 MULMOD SWAP1 POP PUSH0 PUSH2 0x1845 DUP8 DUP8 DUP6 DUP6 PUSH2 0x1BC7 JUMP JUMPDEST SWAP1 POP PUSH32 0xFFFFFFFF00000000FFFFFFFFFFFFFFFFBCE6FAADA7179E84F3B9CAC2FC632551 DUP1 PUSH2 0x1876 JUMPI PUSH2 0x1875 PUSH2 0x3E52 JUMP JUMPDEST JUMPDEST DUP10 PUSH32 0xFFFFFFFF00000000FFFFFFFFFFFFFFFFBCE6FAADA7179E84F3B9CAC2FC632551 PUSH2 0x18A2 SWAP2 SWAP1 PUSH2 0x3E7F JUMP JUMPDEST DUP3 ADDMOD SWAP1 POP PUSH0 DUP2 EQ SWAP5 POP POP POP POP POP JUMPDEST SWAP6 SWAP5 POP POP POP POP POP JUMP JUMPDEST PUSH2 0x194F DUP2 PUSH1 0x40 MLOAD PUSH1 0x24 ADD PUSH2 0x18CD SWAP2 SWAP1 PUSH2 0x3EF4 JUMP JUMPDEST PUSH1 0x40 MLOAD PUSH1 0x20 DUP2 DUP4 SUB SUB DUP2 MSTORE SWAP1 PUSH1 0x40 MSTORE PUSH32 0x41304FAC00000000000000000000000000000000000000000000000000000000 PUSH28 0xFFFFFFFFFFFFFFFFFFFFFFFFFFFFFFFFFFFFFFFFFFFFFFFFFFFFFFFF NOT AND PUSH1 0x20 DUP3 ADD DUP1 MLOAD PUSH28 0xFFFFFFFFFFFFFFFFFFFFFFFFFFFFFFFFFFFFFFFFFFFFFFFFFFFFFFFF DUP4 DUP2 DUP4 AND OR DUP4 MSTORE POP POP POP POP PUSH2 0x2700 JUMP JUMPDEST POP JUMP JUMPDEST PUSH0 PUSH32 0xFFFFFFFF00000001000000000000000000000000FFFFFFFFFFFFFFFFFFFFFFFF DUP4 LT ISZERO DUP1 PUSH2 0x19A2 JUMPI POP PUSH32 0xFFFFFFFF00000001000000000000000000000000FFFFFFFFFFFFFFFFFFFFFFFF DUP3 LT ISZERO JUMPDEST DUP1 PUSH2 0x19B7 JUMPI POP PUSH0 DUP4 EQ DUP1 ISZERO PUSH2 0x19B6 JUMPI POP PUSH0 DUP3 EQ JUMPDEST JUMPDEST ISZERO PUSH2 0x19C4 JUMPI PUSH0 SWAP1 POP PUSH2 0x1B3D JUMP JUMPDEST PUSH0 PUSH32 0xFFFFFFFF00000001000000000000000000000000FFFFFFFFFFFFFFFFFFFFFFFF DUP1 PUSH2 0x19F4 JUMPI PUSH2 0x19F3 PUSH2 0x3E52 JUMP JUMPDEST JUMPDEST DUP4 DUP5 MULMOD SWAP1 POP PUSH0 PUSH32 0xFFFFFFFF00000001000000000000000000000000FFFFFFFFFFFFFFFFFFFFFFFF DUP1 PUSH2 0x1A29 JUMPI PUSH2 0x1A28 PUSH2 0x3E52 JUMP JUMPDEST JUMPDEST PUSH32 0xFFFFFFFF00000001000000000000000000000000FFFFFFFFFFFFFFFFFFFFFFFF DUP1 PUSH2 0x1A58 JUMPI PUSH2 0x1A57 PUSH2 0x3E52 JUMP JUMPDEST JUMPDEST PUSH32 0xFFFFFFFF00000001000000000000000000000000FFFFFFFFFFFFFFFFFFFFFFFC DUP8 MULMOD PUSH32 0xFFFFFFFF00000001000000000000000000000000FFFFFFFFFFFFFFFFFFFFFFFF DUP1 PUSH2 0x1AAA JUMPI PUSH2 0x1AA9 PUSH2 0x3E52 JUMP JUMPDEST JUMPDEST DUP8 PUSH32 0xFFFFFFFF00000001000000000000000000000000FFFFFFFFFFFFFFFFFFFFFFFF DUP1 PUSH2 0x1ADA JUMPI PUSH2 0x1AD9 PUSH2 0x3E52 JUMP JUMPDEST JUMPDEST DUP10 DUP11 MULMOD MULMOD ADDMOD SWAP1 POP PUSH32 0xFFFFFFFF00000001000000000000000000000000FFFFFFFFFFFFFFFFFFFFFFFF DUP1 PUSH2 0x1B10 JUMPI PUSH2 0x1B0F PUSH2 0x3E52 JUMP JUMPDEST JUMPDEST PUSH32 0x5AC635D8AA3A93E7B3EBBD55769886BC651D06B0CC53B0F63BCE3C3E27D2604B DUP3 ADDMOD SWAP1 POP DUP1 DUP3 EQ SWAP3 POP POP POP JUMPDEST SWAP3 SWAP2 POP POP JUMP JUMPDEST PUSH0 PUSH1 0x40 MLOAD PUSH1 0x20 DUP2 MSTORE PUSH1 0x20 DUP1 DUP3 ADD MSTORE PUSH1 0x20 PUSH1 0x40 DUP3 ADD MSTORE DUP3 PUSH1 0x60 DUP3 ADD MSTORE PUSH32 0xFFFFFFFF00000000FFFFFFFFFFFFFFFFBCE6FAADA7179E84F3B9CAC2FC63254F PUSH1 0x80 DUP3 ADD MSTORE PUSH32 0xFFFFFFFF00000000FFFFFFFFFFFFFFFFBCE6FAADA7179E84F3B9CAC2FC632551 PUSH1 0xA0 DUP3 ADD MSTORE PUSH1 0x20 DUP2 PUSH1 0xC0 DUP4 PUSH1 0x5 PUSH0 NOT STATICCALL PUSH2 0x1BBD JUMPI PUSH0 DUP1 REVERT JUMPDEST DUP1 MLOAD SWAP2 POP POP SWAP2 SWAP1 POP JUMP JUMPDEST PUSH0 DUP1 PUSH0 DUP1 PUSH0 PUSH1 0xFF SWAP1 POP PUSH0 DUP1 PUSH0 DUP10 EQ DUP1 ISZERO PUSH2 0x1BE0 JUMPI POP PUSH0 DUP9 EQ JUMPDEST ISZERO PUSH2 0x1BF3 JUMPI PUSH0 SWAP7 POP POP POP POP POP POP POP PUSH2 0x26F8 JUMP JUMPDEST PUSH2 0x1C3F PUSH32 0x6B17D1F2E12C4247F8BCE6E563A440F277037D812DEB33A0F4A13945D898C296 PUSH32 0x4FE342E2FE1A7F9B8EE7EB4A7C0F9E162BCE33576B315ECECBB6406837BF51F5 DUP14 DUP14 PUSH2 0x271A JUMP JUMPDEST DUP1 SWAP3 POP DUP2 SWAP4 POP POP POP PUSH0 DUP3 EQ DUP1 ISZERO PUSH2 0x1C55 JUMPI POP PUSH0 DUP2 EQ JUMPDEST ISZERO PUSH2 0x1CD5 JUMPI PUSH32 0xFFFFFFFF00000000FFFFFFFFFFFFFFFFBCE6FAADA7179E84F3B9CAC2FC632551 DUP1 PUSH2 0x1C89 JUMPI PUSH2 0x1C88 PUSH2 0x3E52 JUMP JUMPDEST JUMPDEST DUP9 PUSH32 0xFFFFFFFF00000000FFFFFFFFFFFFFFFFBCE6FAADA7179E84F3B9CAC2FC632551 SUB DUP11 ADDMOD SWAP9 POP PUSH0 SWAP8 POP PUSH0 DUP10 EQ DUP1 ISZERO PUSH2 0x1CC1 JUMPI POP PUSH0 DUP9 EQ JUMPDEST ISZERO PUSH2 0x1CD4 JUMPI PUSH0 SWAP7 POP POP POP POP POP POP POP PUSH2 0x26F8 JUMP JUMPDEST JUMPDEST PUSH1 0x1 DUP10 DUP5 SHR AND PUSH1 0x1 DUP10 DUP6 SHR AND PUSH1 0x1 SHL ADD JUMPDEST PUSH0 DUP2 SUB PUSH2 0x1D0A JUMPI PUSH1 0x1 DUP5 SUB SWAP4 POP PUSH1 0x1 DUP11 DUP6 SHR AND PUSH1 0x1 DUP11 DUP7 SHR AND PUSH1 0x1 SHL ADD SWAP1 POP PUSH2 0x1CE6 JUMP JUMPDEST POP PUSH1 0x1 DUP10 DUP5 SHR AND PUSH1 0x1 DUP10 DUP6 SHR AND PUSH1 0x1 SHL ADD SWAP6 POP PUSH1 0x1 DUP7 SUB PUSH2 0x1D6C JUMPI PUSH32 0x6B17D1F2E12C4247F8BCE6E563A440F277037D812DEB33A0F4A13945D898C296 SWAP7 POP PUSH32 0x4FE342E2FE1A7F9B8EE7EB4A7C0F9E162BCE33576B315ECECBB6406837BF51F5 SWAP4 POP JUMPDEST PUSH1 0x2 DUP7 SUB PUSH2 0x1D7B JUMPI DUP11 SWAP7 POP DUP10 SWAP4 POP JUMPDEST PUSH1 0x3 DUP7 SUB PUSH2 0x1D8A JUMPI DUP2 SWAP7 POP DUP1 SWAP4 POP JUMPDEST PUSH1 0x1 DUP4 SUB SWAP3 POP PUSH1 0x1 SWAP6 POP PUSH1 0x1 SWAP5 POP JUMPDEST DUP3 PUSH32 0xFFFFFFFFFFFFFFFFFFFFFFFFFFFFFFFFFFFFFFFFFFFFFFFFFFFFFFFFFFFFFFFF GT ISZERO PUSH2 0x2650 JUMPI PUSH32 0xFFFFFFFF00000001000000000000000000000000FFFFFFFFFFFFFFFFFFFFFFFF DUP5 PUSH1 0x2 MULMOD PUSH32 0xFFFFFFFF00000001000000000000000000000000FFFFFFFFFFFFFFFFFFFFFFFF DUP2 DUP3 MULMOD PUSH32 0xFFFFFFFF00000001000000000000000000000000FFFFFFFFFFFFFFFFFFFFFFFF DUP2 DUP11 MULMOD PUSH32 0xFFFFFFFF00000001000000000000000000000000FFFFFFFFFFFFFFFFFFFFFFFF DUP3 DUP5 MULMOD SWAP3 POP PUSH32 0xFFFFFFFF00000001000000000000000000000000FFFFFFFFFFFFFFFFFFFFFFFF DUP1 PUSH32 0xFFFFFFFF00000001000000000000000000000000FFFFFFFFFFFFFFFFFFFFFFFF DUP12 DUP14 ADDMOD PUSH32 0xFFFFFFFF00000001000000000000000000000000FFFFFFFFFFFFFFFFFFFFFFFF DUP13 PUSH32 0xFFFFFFFF00000001000000000000000000000000FFFFFFFFFFFFFFFFFFFFFFFF SUB DUP15 ADDMOD MULMOD PUSH1 0x3 MULMOD PUSH32 0xFFFFFFFF00000001000000000000000000000000FFFFFFFFFFFFFFFFFFFFFFFF DUP10 DUP6 MULMOD SWAP9 POP PUSH32 0xFFFFFFFF00000001000000000000000000000000FFFFFFFFFFFFFFFFFFFFFFFF DUP11 DUP5 MULMOD SWAP10 POP PUSH32 0xFFFFFFFF00000001000000000000000000000000FFFFFFFFFFFFFFFFFFFFFFFF DUP1 DUP4 PUSH32 0xFFFFFFFF00000001000000000000000000000000FFFFFFFFFFFFFFFFFFFFFFFD MULMOD PUSH32 0xFFFFFFFF00000001000000000000000000000000FFFFFFFFFFFFFFFFFFFFFFFF DUP4 DUP5 MULMOD ADDMOD SWAP11 POP PUSH32 0xFFFFFFFF00000001000000000000000000000000FFFFFFFFFFFFFFFFFFFFFFFF DUP1 DUP4 PUSH32 0xFFFFFFFF00000001000000000000000000000000FFFFFFFFFFFFFFFFFFFFFFFF SUB DUP14 ADDMOD DUP3 MULMOD SWAP3 POP PUSH32 0xFFFFFFFF00000001000000000000000000000000FFFFFFFFFFFFFFFFFFFFFFFF DUP4 PUSH32 0xFFFFFFFF00000001000000000000000000000000FFFFFFFFFFFFFFFFFFFFFFFF DUP11 DUP8 MULMOD ADDMOD SWAP8 POP PUSH1 0x1 DUP14 DUP9 SHR AND PUSH1 0x1 DUP14 DUP10 SHR AND PUSH1 0x1 SHL ADD SWAP1 POP DUP1 PUSH2 0x2075 JUMPI DUP8 PUSH32 0xFFFFFFFF00000001000000000000000000000000FFFFFFFFFFFFFFFFFFFFFFFF SUB SWAP8 POP POP POP POP POP PUSH2 0x2645 JUMP JUMPDEST PUSH1 0x1 DUP2 SUB PUSH2 0x20C4 JUMPI PUSH32 0x6B17D1F2E12C4247F8BCE6E563A440F277037D812DEB33A0F4A13945D898C296 SWAP4 POP PUSH32 0x4FE342E2FE1A7F9B8EE7EB4A7C0F9E162BCE33576B315ECECBB6406837BF51F5 SWAP3 POP JUMPDEST PUSH1 0x2 DUP2 SUB PUSH2 0x20D3 JUMPI DUP15 SWAP4 POP DUP14 SWAP3 POP JUMPDEST PUSH1 0x3 DUP2 SUB PUSH2 0x20E2 JUMPI DUP6 SWAP4 POP DUP5 SWAP3 POP JUMPDEST DUP10 PUSH2 0x20FE JUMPI DUP4 SWAP11 POP DUP3 SWAP8 POP PUSH1 0x1 SWAP10 POP PUSH1 0x1 SWAP9 POP POP POP POP POP PUSH2 0x2645 JUMP JUMPDEST PUSH32 0xFFFFFFFF00000001000000000000000000000000FFFFFFFFFFFFFFFFFFFFFFFF DUP9 PUSH32 0xFFFFFFFF00000001000000000000000000000000FFFFFFFFFFFFFFFFFFFFFFFF DUP12 DUP7 MULMOD ADDMOD PUSH32 0xFFFFFFFF00000001000000000000000000000000FFFFFFFFFFFFFFFFFFFFFFFF DUP13 PUSH32 0xFFFFFFFF00000001000000000000000000000000FFFFFFFFFFFFFFFFFFFFFFFF SUB PUSH32 0xFFFFFFFF00000001000000000000000000000000FFFFFFFFFFFFFFFFFFFFFFFF DUP14 DUP9 MULMOD ADDMOD SWAP4 POP DUP1 PUSH2 0x243E JUMPI DUP4 PUSH2 0x243D JUMPI PUSH32 0xFFFFFFFF00000001000000000000000000000000FFFFFFFFFFFFFFFFFFFFFFFF DUP10 PUSH32 0xFFFFFFFF00000001000000000000000000000000FFFFFFFFFFFFFFFFFFFFFFFD MULMOD SWAP5 POP PUSH32 0xFFFFFFFF00000001000000000000000000000000FFFFFFFFFFFFFFFFFFFFFFFF DUP6 DUP7 MULMOD SWAP4 POP PUSH32 0xFFFFFFFF00000001000000000000000000000000FFFFFFFFFFFFFFFFFFFFFFFF DUP5 DUP14 MULMOD SWAP3 POP PUSH32 0xFFFFFFFF00000001000000000000000000000000FFFFFFFFFFFFFFFFFFFFFFFF DUP5 DUP7 MULMOD SWAP5 POP PUSH32 0xFFFFFFFF00000001000000000000000000000000FFFFFFFFFFFFFFFFFFFFFFFF DUP1 DUP13 PUSH32 0xFFFFFFFF00000001000000000000000000000000FFFFFFFFFFFFFFFFFFFFFFFF SUB DUP15 ADDMOD PUSH32 0xFFFFFFFF00000001000000000000000000000000FFFFFFFFFFFFFFFFFFFFFFFF DUP14 DUP16 ADDMOD MULMOD SWAP1 POP PUSH32 0xFFFFFFFF00000001000000000000000000000000FFFFFFFFFFFFFFFFFFFFFFFF DUP2 PUSH1 0x3 MULMOD SWAP2 POP PUSH32 0xFFFFFFFF00000001000000000000000000000000FFFFFFFFFFFFFFFFFFFFFFFF DUP11 DUP7 MULMOD SWAP10 POP PUSH32 0xFFFFFFFF00000001000000000000000000000000FFFFFFFFFFFFFFFFFFFFFFFF DUP12 DUP6 MULMOD SWAP11 POP PUSH32 0xFFFFFFFF00000001000000000000000000000000FFFFFFFFFFFFFFFFFFFFFFFF DUP1 DUP5 PUSH32 0xFFFFFFFF00000001000000000000000000000000FFFFFFFFFFFFFFFFFFFFFFFD MULMOD PUSH32 0xFFFFFFFF00000001000000000000000000000000FFFFFFFFFFFFFFFFFFFFFFFF DUP5 DUP6 MULMOD ADDMOD SWAP12 POP PUSH32 0xFFFFFFFF00000001000000000000000000000000FFFFFFFFFFFFFFFFFFFFFFFF DUP1 DUP14 PUSH32 0xFFFFFFFF00000001000000000000000000000000FFFFFFFFFFFFFFFFFFFFFFFF SUB DUP6 ADDMOD DUP4 MULMOD SWAP4 POP PUSH32 0xFFFFFFFF00000001000000000000000000000000FFFFFFFFFFFFFFFFFFFFFFFF DUP1 DUP11 DUP8 MULMOD DUP6 ADDMOD SWAP9 POP POP POP POP POP POP PUSH2 0x2645 JUMP JUMPDEST JUMPDEST PUSH32 0xFFFFFFFF00000001000000000000000000000000FFFFFFFFFFFFFFFFFFFFFFFF DUP5 DUP6 MULMOD SWAP2 POP PUSH32 0xFFFFFFFF00000001000000000000000000000000FFFFFFFFFFFFFFFFFFFFFFFF DUP5 DUP4 MULMOD PUSH32 0xFFFFFFFF00000001000000000000000000000000FFFFFFFFFFFFFFFFFFFFFFFF DUP4 DUP14 MULMOD SWAP12 POP PUSH32 0xFFFFFFFF00000001000000000000000000000000FFFFFFFFFFFFFFFFFFFFFFFF DUP2 DUP13 MULMOD SWAP11 POP PUSH32 0xFFFFFFFF00000001000000000000000000000000FFFFFFFFFFFFFFFFFFFFFFFF DUP4 DUP15 MULMOD PUSH32 0xFFFFFFFF00000001000000000000000000000000FFFFFFFFFFFFFFFFFFFFFFFF DUP1 DUP3 PUSH32 0xFFFFFFFF00000001000000000000000000000000FFFFFFFFFFFFFFFFFFFFFFFD MULMOD PUSH32 0xFFFFFFFF00000001000000000000000000000000FFFFFFFFFFFFFFFFFFFFFFFF DUP5 PUSH32 0xFFFFFFFF00000001000000000000000000000000FFFFFFFFFFFFFFFFFFFFFFFF SUB PUSH32 0xFFFFFFFF00000001000000000000000000000000FFFFFFFFFFFFFFFFFFFFFFFF DUP8 DUP9 MULMOD ADDMOD ADDMOD SWAP4 POP PUSH32 0xFFFFFFFF00000001000000000000000000000000FFFFFFFFFFFFFFFFFFFFFFFF DUP1 DUP4 DUP14 MULMOD PUSH32 0xFFFFFFFF00000001000000000000000000000000FFFFFFFFFFFFFFFFFFFFFFFF DUP6 PUSH32 0xFFFFFFFF00000001000000000000000000000000FFFFFFFFFFFFFFFFFFFFFFFF DUP9 PUSH32 0xFFFFFFFF00000001000000000000000000000000FFFFFFFFFFFFFFFFFFFFFFFF SUB DUP7 ADDMOD MULMOD ADDMOD SWAP11 POP DUP4 SWAP14 POP POP POP POP POP POP POP POP JUMPDEST PUSH1 0x1 DUP4 SUB SWAP3 POP PUSH2 0x1D99 JUMP JUMPDEST PUSH1 0x40 MLOAD DUP7 PUSH1 0x60 DUP3 ADD MSTORE PUSH1 0x20 DUP2 MSTORE PUSH1 0x20 DUP1 DUP3 ADD MSTORE PUSH1 0x20 PUSH1 0x40 DUP3 ADD MSTORE PUSH32 0xFFFFFFFF00000001000000000000000000000000FFFFFFFFFFFFFFFFFFFFFFFD PUSH1 0x80 DUP3 ADD MSTORE PUSH32 0xFFFFFFFF00000001000000000000000000000000FFFFFFFFFFFFFFFFFFFFFFFF PUSH1 0xA0 DUP3 ADD MSTORE PUSH1 0x20 DUP2 PUSH1 0xC0 DUP4 PUSH1 0x5 PUSH0 NOT STATICCALL PUSH2 0x26C9 JUMPI PUSH0 DUP1 REVERT JUMPDEST PUSH32 0xFFFFFFFF00000001000000000000000000000000FFFFFFFFFFFFFFFFFFFFFFFF DUP2 MLOAD DUP10 MULMOD SWAP8 POP POP POP POP POP POP POP POP JUMPDEST SWAP5 SWAP4 POP POP POP POP JUMP JUMPDEST PUSH2 0x2717 DUP2 PUSH2 0x270F PUSH2 0x27C7 PUSH2 0x27E6 JUMP JUMPDEST PUSH4 0xFFFFFFFF AND JUMP JUMPDEST POP JUMP JUMPDEST PUSH0 DUP1 PUSH0 DUP1 PUSH2 0x2728 DUP9 DUP9 PUSH2 0x27F1 JUMP JUMPDEST ISZERO PUSH2 0x273A JUMPI DUP6 DUP6 SWAP4 POP SWAP4 POP POP POP PUSH2 0x27BE JUMP JUMPDEST PUSH2 0x2744 DUP7 DUP7 PUSH2 0x27F1 JUMP JUMPDEST ISZERO PUSH2 0x2756 JUMPI DUP8 DUP8 SWAP4 POP SWAP4 POP POP POP PUSH2 0x27BE JUMP JUMPDEST DUP6 DUP9 EQ DUP1 ISZERO PUSH2 0x2764 JUMPI POP DUP5 DUP8 EQ JUMPDEST ISZERO PUSH2 0x278B JUMPI PUSH2 0x2776 DUP9 DUP9 PUSH1 0x1 DUP1 PUSH2 0x27FD JUMP JUMPDEST DUP1 SWAP5 POP DUP2 SWAP6 POP DUP3 SWAP11 POP DUP4 SWAP12 POP POP POP POP POP PUSH2 0x27AB JUMP JUMPDEST PUSH2 0x279A DUP9 DUP9 PUSH1 0x1 DUP1 DUP11 DUP11 PUSH2 0x2A85 JUMP JUMPDEST DUP1 SWAP5 POP DUP2 SWAP6 POP DUP3 SWAP11 POP DUP4 SWAP12 POP POP POP POP POP JUMPDEST PUSH2 0x27B7 DUP9 DUP9 DUP5 DUP5 PUSH2 0x2D89 JUMP JUMPDEST SWAP4 POP SWAP4 POP POP POP JUMPDEST SWAP5 POP SWAP5 SWAP3 POP POP POP JUMP JUMPDEST PUSH0 PUSH11 0x636F6E736F6C652E6C6F67 SWAP1 POP PUSH0 DUP1 DUP4 MLOAD PUSH1 0x20 DUP6 ADD DUP5 GAS STATICCALL POP POP POP JUMP JUMPDEST PUSH2 0x2EF7 DUP2 SWAP1 POP SWAP2 SWAP1 POP JUMP JUMPDEST PUSH0 DUP1 DUP3 EQ SWAP1 POP SWAP3 SWAP2 POP POP JUMP JUMPDEST PUSH0 DUP1 PUSH0 DUP1 PUSH32 0xFFFFFFFF00000001000000000000000000000000FFFFFFFFFFFFFFFFFFFFFFFF DUP8 PUSH1 0x2 MULMOD SWAP4 POP PUSH32 0xFFFFFFFF00000001000000000000000000000000FFFFFFFFFFFFFFFFFFFFFFFF DUP5 DUP6 MULMOD SWAP2 POP PUSH32 0xFFFFFFFF00000001000000000000000000000000FFFFFFFFFFFFFFFFFFFFFFFF DUP3 DUP10 MULMOD SWAP1 POP PUSH32 0xFFFFFFFF00000001000000000000000000000000FFFFFFFFFFFFFFFFFFFFFFFF DUP3 DUP6 MULMOD SWAP3 POP PUSH32 0xFFFFFFFF00000001000000000000000000000000FFFFFFFFFFFFFFFFFFFFFFFF DUP7 DUP4 MULMOD SWAP2 POP PUSH32 0xFFFFFFFF00000001000000000000000000000000FFFFFFFFFFFFFFFFFFFFFFFF DUP1 PUSH32 0xFFFFFFFF00000001000000000000000000000000FFFFFFFFFFFFFFFFFFFFFFFF DUP9 DUP12 ADDMOD PUSH32 0xFFFFFFFF00000001000000000000000000000000FFFFFFFFFFFFFFFFFFFFFFFF DUP10 PUSH32 0xFFFFFFFF00000001000000000000000000000000FFFFFFFFFFFFFFFFFFFFFFFF SUB DUP13 ADDMOD MULMOD PUSH1 0x3 MULMOD SWAP6 POP PUSH32 0xFFFFFFFF00000001000000000000000000000000FFFFFFFFFFFFFFFFFFFFFFFF DUP1 DUP3 PUSH32 0xFFFFFFFF00000001000000000000000000000000FFFFFFFFFFFFFFFFFFFFFFFD MULMOD PUSH32 0xFFFFFFFF00000001000000000000000000000000FFFFFFFFFFFFFFFFFFFFFFFF DUP9 DUP10 MULMOD ADDMOD SWAP4 POP PUSH32 0xFFFFFFFF00000001000000000000000000000000FFFFFFFFFFFFFFFFFFFFFFFF DUP1 DUP6 PUSH32 0xFFFFFFFF00000001000000000000000000000000FFFFFFFFFFFFFFFFFFFFFFFF SUB DUP4 ADDMOD DUP8 MULMOD SWAP8 POP PUSH32 0xFFFFFFFF00000001000000000000000000000000FFFFFFFFFFFFFFFFFFFFFFFF DUP6 DUP5 MULMOD SWAP1 POP PUSH32 0xFFFFFFFF00000001000000000000000000000000FFFFFFFFFFFFFFFFFFFFFFFF DUP1 DUP9 DUP6 MULMOD PUSH32 0xFFFFFFFF00000001000000000000000000000000FFFFFFFFFFFFFFFFFFFFFFFF SUB DUP10 ADDMOD SWAP3 POP SWAP5 POP SWAP5 POP SWAP5 POP SWAP5 SWAP1 POP JUMP JUMPDEST PUSH0 DUP1 PUSH0 DUP1 PUSH0 DUP10 SUB PUSH2 0x2AA2 JUMPI DUP6 DUP6 PUSH1 0x1 DUP1 SWAP4 POP SWAP4 POP SWAP4 POP SWAP4 POP PUSH2 0x2D7C JUMP JUMPDEST DUP9 PUSH32 0xFFFFFFFF00000001000000000000000000000000FFFFFFFFFFFFFFFFFFFFFFFF SUB SWAP9 POP PUSH32 0xFFFFFFFF00000001000000000000000000000000FFFFFFFFFFFFFFFFFFFFFFFF DUP10 PUSH32 0xFFFFFFFF00000001000000000000000000000000FFFFFFFFFFFFFFFFFFFFFFFF DUP10 DUP9 MULMOD ADDMOD SWAP5 POP PUSH32 0xFFFFFFFF00000001000000000000000000000000FFFFFFFFFFFFFFFFFFFFFFFF DUP11 PUSH32 0xFFFFFFFF00000001000000000000000000000000FFFFFFFFFFFFFFFFFFFFFFFF SUB PUSH32 0xFFFFFFFF00000001000000000000000000000000FFFFFFFFFFFFFFFFFFFFFFFF DUP11 DUP10 MULMOD ADDMOD SWAP6 POP PUSH32 0xFFFFFFFF00000001000000000000000000000000FFFFFFFFFFFFFFFFFFFFFFFF DUP7 DUP8 MULMOD SWAP4 POP PUSH32 0xFFFFFFFF00000001000000000000000000000000FFFFFFFFFFFFFFFFFFFFFFFF DUP7 DUP6 MULMOD SWAP3 POP PUSH32 0xFFFFFFFF00000001000000000000000000000000FFFFFFFFFFFFFFFFFFFFFFFF DUP5 DUP10 MULMOD SWAP2 POP PUSH32 0xFFFFFFFF00000001000000000000000000000000FFFFFFFFFFFFFFFFFFFFFFFF DUP4 DUP9 MULMOD SWAP1 POP PUSH32 0xFFFFFFFF00000001000000000000000000000000FFFFFFFFFFFFFFFFFFFFFFFF DUP5 DUP12 MULMOD SWAP8 POP PUSH32 0xFFFFFFFF00000001000000000000000000000000FFFFFFFFFFFFFFFFFFFFFFFF DUP1 DUP10 PUSH32 0xFFFFFFFF00000001000000000000000000000000FFFFFFFFFFFFFFFFFFFFFFFD MULMOD PUSH32 0xFFFFFFFF00000001000000000000000000000000FFFFFFFFFFFFFFFFFFFFFFFF DUP6 PUSH32 0xFFFFFFFF00000001000000000000000000000000FFFFFFFFFFFFFFFFFFFFFFFF SUB PUSH32 0xFFFFFFFF00000001000000000000000000000000FFFFFFFFFFFFFFFFFFFFFFFF DUP10 DUP11 MULMOD ADDMOD ADDMOD SWAP4 POP PUSH32 0xFFFFFFFF00000001000000000000000000000000FFFFFFFFFFFFFFFFFFFFFFFF DUP1 DUP5 DUP12 MULMOD PUSH32 0xFFFFFFFF00000001000000000000000000000000FFFFFFFFFFFFFFFFFFFFFFFF DUP8 PUSH32 0xFFFFFFFF00000001000000000000000000000000FFFFFFFFFFFFFFFFFFFFFFFF DUP9 PUSH32 0xFFFFFFFF00000001000000000000000000000000FFFFFFFFFFFFFFFFFFFFFFFF SUB DUP14 ADDMOD MULMOD ADDMOD SWAP3 POP JUMPDEST SWAP7 POP SWAP7 POP SWAP7 POP SWAP7 SWAP3 POP POP POP JUMP JUMPDEST PUSH0 DUP1 PUSH0 PUSH2 0x2D95 DUP5 PUSH2 0x2E73 JUMP JUMPDEST SWAP1 POP PUSH32 0xFFFFFFFF00000001000000000000000000000000FFFFFFFFFFFFFFFFFFFFFFFF DUP1 PUSH2 0x2DC6 JUMPI PUSH2 0x2DC5 PUSH2 0x3E52 JUMP JUMPDEST JUMPDEST DUP2 DUP8 MULMOD SWAP2 POP PUSH0 PUSH32 0xFFFFFFFF00000001000000000000000000000000FFFFFFFFFFFFFFFFFFFFFFFF DUP1 PUSH2 0x2DFB JUMPI PUSH2 0x2DFA PUSH2 0x3E52 JUMP JUMPDEST JUMPDEST DUP3 DUP8 MULMOD SWAP1 POP PUSH32 0xFFFFFFFF00000001000000000000000000000000FFFFFFFFFFFFFFFFFFFFFFFF DUP1 PUSH2 0x2E2F JUMPI PUSH2 0x2E2E PUSH2 0x3E52 JUMP JUMPDEST JUMPDEST DUP2 DUP3 MULMOD SWAP2 POP PUSH32 0xFFFFFFFF00000001000000000000000000000000FFFFFFFFFFFFFFFFFFFFFFFF DUP1 PUSH2 0x2E63 JUMPI PUSH2 0x2E62 PUSH2 0x3E52 JUMP JUMPDEST JUMPDEST DUP3 DUP10 MULMOD SWAP4 POP POP POP SWAP5 POP SWAP5 SWAP3 POP POP POP JUMP JUMPDEST PUSH0 PUSH1 0x40 MLOAD PUSH1 0x20 DUP2 MSTORE PUSH1 0x20 DUP1 DUP3 ADD MSTORE PUSH1 0x20 PUSH1 0x40 DUP3 ADD MSTORE DUP3 PUSH1 0x60 DUP3 ADD MSTORE PUSH32 0xFFFFFFFF00000001000000000000000000000000FFFFFFFFFFFFFFFFFFFFFFFD PUSH1 0x80 DUP3 ADD MSTORE PUSH32 0xFFFFFFFF00000001000000000000000000000000FFFFFFFFFFFFFFFFFFFFFFFF PUSH1 0xA0 DUP3 ADD MSTORE PUSH1 0x20 DUP2 PUSH1 0xC0 DUP4 PUSH1 0x5 PUSH0 NOT STATICCALL PUSH2 0x2EED JUMPI PUSH0 DUP1 REVERT JUMPDEST DUP1 MLOAD SWAP2 POP POP SWAP2 SWAP1 POP JUMP JUMPDEST PUSH2 0x2EFF PUSH2 0x3F14 JUMP JUMPDEST JUMP JUMPDEST PUSH0 DUP2 SWAP1 POP SWAP2 SWAP1 POP JUMP JUMPDEST PUSH2 0x2F13 DUP2 PUSH2 0x2F01 JUMP JUMPDEST DUP3 MSTORE POP POP JUMP JUMPDEST PUSH0 PUSH1 0x20 DUP3 ADD SWAP1 POP PUSH2 0x2F2C PUSH0 DUP4 ADD DUP5 PUSH2 0x2F0A JUMP JUMPDEST SWAP3 SWAP2 POP POP JUMP JUMPDEST PUSH0 DUP2 MLOAD SWAP1 POP SWAP2 SWAP1 POP JUMP JUMPDEST PUSH0 DUP3 DUP3 MSTORE PUSH1 0x20 DUP3 ADD SWAP1 POP SWAP3 SWAP2 POP POP JUMP JUMPDEST DUP3 DUP2 DUP4 MCOPY PUSH0 DUP4 DUP4 ADD MSTORE POP POP POP JUMP JUMPDEST PUSH0 PUSH1 0x1F NOT PUSH1 0x1F DUP4 ADD AND SWAP1 POP SWAP2 SWAP1 POP JUMP JUMPDEST PUSH0 PUSH2 0x2F74 DUP3 PUSH2 0x2F32 JUMP JUMPDEST PUSH2 0x2F7E DUP2 DUP6 PUSH2 0x2F3C JUMP JUMPDEST SWAP4 POP PUSH2 0x2F8E DUP2 DUP6 PUSH1 0x20 DUP7 ADD PUSH2 0x2F4C JUMP JUMPDEST PUSH2 0x2F97 DUP2 PUSH2 0x2F5A JUMP JUMPDEST DUP5 ADD SWAP2 POP POP SWAP3 SWAP2 POP POP JUMP JUMPDEST PUSH0 PUSH1 0x20 DUP3 ADD SWAP1 POP DUP2 DUP2 SUB PUSH0 DUP4 ADD MSTORE PUSH2 0x2FBA DUP2 DUP5 PUSH2 0x2F6A JUMP JUMPDEST SWAP1 POP SWAP3 SWAP2 POP POP JUMP JUMPDEST PUSH0 PUSH1 0xE0 DUP3 ADD SWAP1 POP DUP2 DUP2 SUB PUSH0 DUP4 ADD MSTORE PUSH2 0x2FDA DUP2 DUP11 PUSH2 0x2F6A JUMP JUMPDEST SWAP1 POP DUP2 DUP2 SUB PUSH1 0x20 DUP4 ADD MSTORE PUSH2 0x2FEE DUP2 DUP10 PUSH2 0x2F6A JUMP JUMPDEST SWAP1 POP DUP2 DUP2 SUB PUSH1 0x40 DUP4 ADD MSTORE PUSH2 0x3002 DUP2 DUP9 PUSH2 0x2F6A JUMP JUMPDEST SWAP1 POP DUP2 DUP2 SUB PUSH1 0x60 DUP4 ADD MSTORE PUSH2 0x3016 DUP2 DUP8 PUSH2 0x2F6A JUMP JUMPDEST SWAP1 POP DUP2 DUP2 SUB PUSH1 0x80 DUP4 ADD MSTORE PUSH2 0x302A DUP2 DUP7 PUSH2 0x2F6A JUMP JUMPDEST SWAP1 POP PUSH2 0x3039 PUSH1 0xA0 DUP4 ADD DUP6 PUSH2 0x2F0A JUMP JUMPDEST PUSH2 0x3046 PUSH1 0xC0 DUP4 ADD DUP5 PUSH2 0x2F0A JUMP JUMPDEST SWAP9 SWAP8 POP POP POP POP POP POP POP POP JUMP JUMPDEST PUSH0 PUSH1 0xA0 DUP3 ADD SWAP1 POP PUSH2 0x3065 PUSH0 DUP4 ADD DUP9 PUSH2 0x2F0A JUMP JUMPDEST PUSH2 0x3072 PUSH1 0x20 DUP4 ADD DUP8 PUSH2 0x2F0A JUMP JUMPDEST DUP2 DUP2 SUB PUSH1 0x40 DUP4 ADD MSTORE PUSH2 0x3084 DUP2 DUP7 PUSH2 0x2F6A JUMP JUMPDEST SWAP1 POP DUP2 DUP2 SUB PUSH1 0x60 DUP4 ADD MSTORE PUSH2 0x3098 DUP2 DUP6 PUSH2 0x2F6A JUMP JUMPDEST SWAP1 POP DUP2 DUP2 SUB PUSH1 0x80 DUP4 ADD MSTORE PUSH2 0x30AC DUP2 DUP5 PUSH2 0x2F6A JUMP JUMPDEST SWAP1 POP SWAP7 SWAP6 POP POP POP POP POP POP JUMP JUMPDEST PUSH0 PUSH1 0x40 MLOAD SWAP1 POP SWAP1 JUMP JUMPDEST PUSH0 DUP1 REVERT JUMPDEST PUSH0 DUP1 REVERT JUMPDEST PUSH0 DUP1 REVERT JUMPDEST PUSH0 DUP1 REVERT JUMPDEST PUSH32 0x4E487B7100000000000000000000000000000000000000000000000000000000 PUSH0 MSTORE PUSH1 0x41 PUSH1 0x4 MSTORE PUSH1 0x24 PUSH0 REVERT JUMPDEST PUSH2 0x3107 DUP3 PUSH2 0x2F5A JUMP JUMPDEST DUP2 ADD DUP2 DUP2 LT PUSH8 0xFFFFFFFFFFFFFFFF DUP3 GT OR ISZERO PUSH2 0x3126 JUMPI PUSH2 0x3125 PUSH2 0x30D1 JUMP JUMPDEST JUMPDEST DUP1 PUSH1 0x40 MSTORE POP POP POP JUMP JUMPDEST PUSH0 PUSH2 0x3138 PUSH2 0x30B8 JUMP JUMPDEST SWAP1 POP PUSH2 0x3144 DUP3 DUP3 PUSH2 0x30FE JUMP JUMPDEST SWAP2 SWAP1 POP JUMP JUMPDEST PUSH0 PUSH8 0xFFFFFFFFFFFFFFFF DUP3 GT ISZERO PUSH2 0x3163 JUMPI PUSH2 0x3162 PUSH2 0x30D1 JUMP JUMPDEST JUMPDEST PUSH2 0x316C DUP3 PUSH2 0x2F5A JUMP JUMPDEST SWAP1 POP PUSH1 0x20 DUP2 ADD SWAP1 POP SWAP2 SWAP1 POP JUMP JUMPDEST DUP3 DUP2 DUP4 CALLDATACOPY PUSH0 DUP4 DUP4 ADD MSTORE POP POP POP JUMP JUMPDEST PUSH0 PUSH2 0x3199 PUSH2 0x3194 DUP5 PUSH2 0x3149 JUMP JUMPDEST PUSH2 0x312F JUMP JUMPDEST SWAP1 POP DUP3 DUP2 MSTORE PUSH1 0x20 DUP2 ADD DUP5 DUP5 DUP5 ADD GT ISZERO PUSH2 0x31B5 JUMPI PUSH2 0x31B4 PUSH2 0x30CD JUMP JUMPDEST JUMPDEST PUSH2 0x31C0 DUP5 DUP3 DUP6 PUSH2 0x3179 JUMP JUMPDEST POP SWAP4 SWAP3 POP POP POP JUMP JUMPDEST PUSH0 DUP3 PUSH1 0x1F DUP4 ADD SLT PUSH2 0x31DC JUMPI PUSH2 0x31DB PUSH2 0x30C9 JUMP JUMPDEST JUMPDEST DUP2 CALLDATALOAD PUSH2 0x31EC DUP5 DUP3 PUSH1 0x20 DUP7 ADD PUSH2 0x3187 JUMP JUMPDEST SWAP2 POP POP SWAP3 SWAP2 POP POP JUMP JUMPDEST PUSH0 PUSH1 0x20 DUP3 DUP5 SUB SLT ISZERO PUSH2 0x320A JUMPI PUSH2 0x3209 PUSH2 0x30C1 JUMP JUMPDEST JUMPDEST PUSH0 DUP3 ADD CALLDATALOAD PUSH8 0xFFFFFFFFFFFFFFFF DUP2 GT ISZERO PUSH2 0x3227 JUMPI PUSH2 0x3226 PUSH2 0x30C5 JUMP JUMPDEST JUMPDEST PUSH2 0x3233 DUP5 DUP3 DUP6 ADD PUSH2 0x31C8 JUMP JUMPDEST SWAP2 POP POP SWAP3 SWAP2 POP POP JUMP JUMPDEST PUSH0 DUP2 ISZERO ISZERO SWAP1 POP SWAP2 SWAP1 POP JUMP JUMPDEST PUSH2 0x3250 DUP2 PUSH2 0x323C JUMP JUMPDEST DUP3 MSTORE POP POP JUMP JUMPDEST PUSH0 PUSH1 0x20 DUP3 ADD SWAP1 POP PUSH2 0x3269 PUSH0 DUP4 ADD DUP5 PUSH2 0x3247 JUMP JUMPDEST SWAP3 SWAP2 POP POP JUMP JUMPDEST PUSH2 0x3278 DUP2 PUSH2 0x2F01 JUMP JUMPDEST DUP2 EQ PUSH2 0x3282 JUMPI PUSH0 DUP1 REVERT JUMPDEST POP JUMP JUMPDEST PUSH0 DUP2 CALLDATALOAD SWAP1 POP PUSH2 0x3293 DUP2 PUSH2 0x326F JUMP JUMPDEST SWAP3 SWAP2 POP POP JUMP JUMPDEST PUSH0 DUP1 PUSH0 DUP1 PUSH0 PUSH1 0xA0 DUP7 DUP9 SUB SLT ISZERO PUSH2 0x32B2 JUMPI PUSH2 0x32B1 PUSH2 0x30C1 JUMP JUMPDEST JUMPDEST PUSH0 DUP7 ADD CALLDATALOAD PUSH8 0xFFFFFFFFFFFFFFFF DUP2 GT ISZERO PUSH2 0x32CF JUMPI PUSH2 0x32CE PUSH2 0x30C5 JUMP JUMPDEST JUMPDEST PUSH2 0x32DB DUP9 DUP3 DUP10 ADD PUSH2 0x31C8 JUMP JUMPDEST SWAP6 POP POP PUSH1 0x20 DUP7 ADD CALLDATALOAD PUSH8 0xFFFFFFFFFFFFFFFF DUP2 GT ISZERO PUSH2 0x32FC JUMPI PUSH2 0x32FB PUSH2 0x30C5 JUMP JUMPDEST JUMPDEST PUSH2 0x3308 DUP9 DUP3 DUP10 ADD PUSH2 0x31C8 JUMP JUMPDEST SWAP5 POP POP PUSH1 0x40 DUP7 ADD CALLDATALOAD PUSH8 0xFFFFFFFFFFFFFFFF DUP2 GT ISZERO PUSH2 0x3329 JUMPI PUSH2 0x3328 PUSH2 0x30C5 JUMP JUMPDEST JUMPDEST PUSH2 0x3335 DUP9 DUP3 DUP10 ADD PUSH2 0x31C8 JUMP JUMPDEST SWAP4 POP POP PUSH1 0x60 PUSH2 0x3346 DUP9 DUP3 DUP10 ADD PUSH2 0x3285 JUMP JUMPDEST SWAP3 POP POP PUSH1 0x80 PUSH2 0x3357 DUP9 DUP3 DUP10 ADD PUSH2 0x3285 JUMP JUMPDEST SWAP2 POP POP SWAP3 SWAP6 POP SWAP3 SWAP6 SWAP1 SWAP4 POP JUMP JUMPDEST PUSH0 DUP1 PUSH0 PUSH1 0x60 DUP5 DUP7 SUB SLT ISZERO PUSH2 0x337B JUMPI PUSH2 0x337A PUSH2 0x30C1 JUMP JUMPDEST JUMPDEST PUSH0 DUP5 ADD CALLDATALOAD PUSH8 0xFFFFFFFFFFFFFFFF DUP2 GT ISZERO PUSH2 0x3398 JUMPI PUSH2 0x3397 PUSH2 0x30C5 JUMP JUMPDEST JUMPDEST PUSH2 0x33A4 DUP7 DUP3 DUP8 ADD PUSH2 0x31C8 JUMP JUMPDEST SWAP4 POP POP PUSH1 0x20 DUP5 ADD CALLDATALOAD PUSH8 0xFFFFFFFFFFFFFFFF DUP2 GT ISZERO PUSH2 0x33C5 JUMPI PUSH2 0x33C4 PUSH2 0x30C5 JUMP JUMPDEST JUMPDEST PUSH2 0x33D1 DUP7 DUP3 DUP8 ADD PUSH2 0x31C8 JUMP JUMPDEST SWAP3 POP POP PUSH1 0x40 DUP5 ADD CALLDATALOAD PUSH8 0xFFFFFFFFFFFFFFFF DUP2 GT ISZERO PUSH2 0x33F2 JUMPI PUSH2 0x33F1 PUSH2 0x30C5 JUMP JUMPDEST JUMPDEST PUSH2 0x33FE DUP7 DUP3 DUP8 ADD PUSH2 0x31C8 JUMP JUMPDEST SWAP2 POP POP SWAP3 POP SWAP3 POP SWAP3 JUMP JUMPDEST PUSH0 PUSH20 0xFFFFFFFFFFFFFFFFFFFFFFFFFFFFFFFFFFFFFFFF DUP3 AND SWAP1 POP SWAP2 SWAP1 POP JUMP JUMPDEST PUSH0 PUSH2 0x3431 DUP3 PUSH2 0x3408 JUMP JUMPDEST SWAP1 POP SWAP2 SWAP1 POP JUMP JUMPDEST PUSH2 0x3441 DUP2 PUSH2 0x3427 JUMP JUMPDEST DUP3 MSTORE POP POP JUMP JUMPDEST PUSH0 PUSH1 0xE0 DUP3 ADD SWAP1 POP PUSH2 0x345A PUSH0 DUP4 ADD DUP11 PUSH2 0x3438 JUMP JUMPDEST PUSH2 0x3467 PUSH1 0x20 DUP4 ADD DUP10 PUSH2 0x3438 JUMP JUMPDEST PUSH2 0x3474 PUSH1 0x40 DUP4 ADD DUP9 PUSH2 0x2F0A JUMP JUMPDEST PUSH2 0x3481 PUSH1 0x60 DUP4 ADD DUP8 PUSH2 0x2F0A JUMP JUMPDEST PUSH2 0x348E PUSH1 0x80 DUP4 ADD DUP7 PUSH2 0x2F0A JUMP JUMPDEST PUSH2 0x349B PUSH1 0xA0 DUP4 ADD DUP6 PUSH2 0x2F0A JUMP JUMPDEST PUSH2 0x34A8 PUSH1 0xC0 DUP4 ADD DUP5 PUSH2 0x3247 JUMP JUMPDEST SWAP9 SWAP8 POP POP POP POP POP POP POP POP JUMP JUMPDEST PUSH0 PUSH1 0x20 DUP3 ADD SWAP1 POP PUSH2 0x34C7 PUSH0 DUP4 ADD DUP5 PUSH2 0x3438 JUMP JUMPDEST SWAP3 SWAP2 POP POP JUMP JUMPDEST PUSH0 DUP2 SWAP1 POP SWAP2 SWAP1 POP JUMP JUMPDEST PUSH2 0x34DF DUP2 PUSH2 0x34CD JUMP JUMPDEST DUP2 EQ PUSH2 0x34E9 JUMPI PUSH0 DUP1 REVERT JUMPDEST POP JUMP JUMPDEST PUSH0 DUP2 CALLDATALOAD SWAP1 POP PUSH2 0x34FA DUP2 PUSH2 0x34D6 JUMP JUMPDEST SWAP3 SWAP2 POP POP JUMP JUMPDEST PUSH0 DUP1 PUSH0 DUP1 PUSH0 PUSH1 0xA0 DUP7 DUP9 SUB SLT ISZERO PUSH2 0x3519 JUMPI PUSH2 0x3518 PUSH2 0x30C1 JUMP JUMPDEST JUMPDEST PUSH0 PUSH2 0x3526 DUP9 DUP3 DUP10 ADD PUSH2 0x34EC JUMP JUMPDEST SWAP6 POP POP PUSH1 0x20 PUSH2 0x3537 DUP9 DUP3 DUP10 ADD PUSH2 0x3285 JUMP JUMPDEST SWAP5 POP POP PUSH1 0x40 PUSH2 0x3548 DUP9 DUP3 DUP10 ADD PUSH2 0x3285 JUMP JUMPDEST SWAP4 POP POP PUSH1 0x60 PUSH2 0x3559 DUP9 DUP3 DUP10 ADD PUSH2 0x3285 JUMP JUMPDEST SWAP3 POP POP PUSH1 0x80 PUSH2 0x356A DUP9 DUP3 DUP10 ADD PUSH2 0x3285 JUMP JUMPDEST SWAP2 POP POP SWAP3 SWAP6 POP SWAP3 SWAP6 SWAP1 SWAP4 POP JUMP JUMPDEST PUSH32 0x4E487B7100000000000000000000000000000000000000000000000000000000 PUSH0 MSTORE PUSH1 0x22 PUSH1 0x4 MSTORE PUSH1 0x24 PUSH0 REVERT JUMPDEST PUSH0 PUSH1 0x2 DUP3 DIV SWAP1 POP PUSH1 0x1 DUP3 AND DUP1 PUSH2 0x35BB JUMPI PUSH1 0x7F DUP3 AND SWAP2 POP JUMPDEST PUSH1 0x20 DUP3 LT DUP2 SUB PUSH2 0x35CE JUMPI PUSH2 0x35CD PUSH2 0x3577 JUMP JUMPDEST JUMPDEST POP SWAP2 SWAP1 POP JUMP JUMPDEST PUSH0 DUP3 DUP3 MSTORE PUSH1 0x20 DUP3 ADD SWAP1 POP SWAP3 SWAP2 POP POP JUMP JUMPDEST PUSH32 0x706C7A2075706C6F61642062616E6B2072656365697074206669727374000000 PUSH0 DUP3 ADD MSTORE POP JUMP JUMPDEST PUSH0 PUSH2 0x3618 PUSH1 0x1D DUP4 PUSH2 0x35D4 JUMP JUMPDEST SWAP2 POP PUSH2 0x3623 DUP3 PUSH2 0x35E4 JUMP JUMPDEST PUSH1 0x20 DUP3 ADD SWAP1 POP SWAP2 SWAP1 POP JUMP JUMPDEST PUSH0 PUSH1 0x20 DUP3 ADD SWAP1 POP DUP2 DUP2 SUB PUSH0 DUP4 ADD MSTORE PUSH2 0x3645 DUP2 PUSH2 0x360C JUMP JUMPDEST SWAP1 POP SWAP2 SWAP1 POP JUMP JUMPDEST PUSH32 0x4F6E6C7920426F622063616E2075706C6F61642062616E6B2072656365697074 PUSH0 DUP3 ADD MSTORE PUSH32 0x2E00000000000000000000000000000000000000000000000000000000000000 PUSH1 0x20 DUP3 ADD MSTORE POP JUMP JUMPDEST PUSH0 PUSH2 0x36A6 PUSH1 0x21 DUP4 PUSH2 0x35D4 JUMP JUMPDEST SWAP2 POP PUSH2 0x36B1 DUP3 PUSH2 0x364C JUMP JUMPDEST PUSH1 0x40 DUP3 ADD SWAP1 POP SWAP2 SWAP1 POP JUMP JUMPDEST PUSH0 PUSH1 0x20 DUP3 ADD SWAP1 POP DUP2 DUP2 SUB PUSH0 DUP4 ADD MSTORE PUSH2 0x36D3 DUP2 PUSH2 0x369A JUMP JUMPDEST SWAP1 POP SWAP2 SWAP1 POP JUMP JUMPDEST PUSH0 DUP2 SWAP1 POP DUP2 PUSH0 MSTORE PUSH1 0x20 PUSH0 KECCAK256 SWAP1 POP SWAP2 SWAP1 POP JUMP JUMPDEST PUSH0 PUSH1 0x20 PUSH1 0x1F DUP4 ADD DIV SWAP1 POP SWAP2 SWAP1 POP JUMP JUMPDEST PUSH0 DUP3 DUP3 SHL SWAP1 POP SWAP3 SWAP2 POP POP JUMP JUMPDEST PUSH0 PUSH1 0x8 DUP4 MUL PUSH2 0x3736 PUSH32 0xFFFFFFFFFFFFFFFFFFFFFFFFFFFFFFFFFFFFFFFFFFFFFFFFFFFFFFFFFFFFFFFF DUP3 PUSH2 0x36FB JUMP JUMPDEST PUSH2 0x3740 DUP7 DUP4 PUSH2 0x36FB JUMP JUMPDEST SWAP6 POP DUP1 NOT DUP5 AND SWAP4 POP DUP1 DUP7 AND DUP5 OR SWAP3 POP POP POP SWAP4 SWAP3 POP POP POP JUMP JUMPDEST PUSH0 DUP2 SWAP1 POP SWAP2 SWAP1 POP JUMP JUMPDEST PUSH0 PUSH2 0x377B PUSH2 0x3776 PUSH2 0x3771 DUP5 PUSH2 0x2F01 JUMP JUMPDEST PUSH2 0x3758 JUMP JUMPDEST PUSH2 0x2F01 JUMP JUMPDEST SWAP1 POP SWAP2 SWAP1 POP JUMP JUMPDEST PUSH0 DUP2 SWAP1 POP SWAP2 SWAP1 POP JUMP JUMPDEST PUSH2 0x3794 DUP4 PUSH2 0x3761 JUMP JUMPDEST PUSH2 0x37A8 PUSH2 0x37A0 DUP3 PUSH2 0x3782 JUMP JUMPDEST DUP5 DUP5 SLOAD PUSH2 0x3707 JUMP JUMPDEST DUP3 SSTORE POP POP POP POP JUMP JUMPDEST PUSH0 SWAP1 JUMP JUMPDEST PUSH2 0x37BC PUSH2 0x37B0 JUMP JUMPDEST PUSH2 0x37C7 DUP2 DUP5 DUP5 PUSH2 0x378B JUMP JUMPDEST POP POP POP JUMP JUMPDEST JUMPDEST DUP2 DUP2 LT ISZERO PUSH2 0x37EA JUMPI PUSH2 0x37DF PUSH0 DUP3 PUSH2 0x37B4 JUMP JUMPDEST PUSH1 0x1 DUP2 ADD SWAP1 POP PUSH2 0x37CD JUMP JUMPDEST POP POP JUMP JUMPDEST PUSH1 0x1F DUP3 GT ISZERO PUSH2 0x382F JUMPI PUSH2 0x3800 DUP2 PUSH2 0x36DA JUMP JUMPDEST PUSH2 0x3809 DUP5 PUSH2 0x36EC JUMP JUMPDEST DUP2 ADD PUSH1 0x20 DUP6 LT ISZERO PUSH2 0x3818 JUMPI DUP2 SWAP1 POP JUMPDEST PUSH2 0x382C PUSH2 0x3824 DUP6 PUSH2 0x36EC JUMP JUMPDEST DUP4 ADD DUP3 PUSH2 0x37CC JUMP JUMPDEST POP POP JUMPDEST POP POP POP JUMP JUMPDEST PUSH0 DUP3 DUP3 SHR SWAP1 POP SWAP3 SWAP2 POP POP JUMP JUMPDEST PUSH0 PUSH2 0x384F PUSH0 NOT DUP5 PUSH1 0x8 MUL PUSH2 0x3834 JUMP JUMPDEST NOT DUP1 DUP4 AND SWAP2 POP POP SWAP3 SWAP2 POP POP JUMP JUMPDEST PUSH0 PUSH2 0x3867 DUP4 DUP4 PUSH2 0x3840 JUMP JUMPDEST SWAP2 POP DUP3 PUSH1 0x2 MUL DUP3 OR SWAP1 POP SWAP3 SWAP2 POP POP JUMP JUMPDEST PUSH2 0x3880 DUP3 PUSH2 0x2F32 JUMP JUMPDEST PUSH8 0xFFFFFFFFFFFFFFFF DUP2 GT ISZERO PUSH2 0x3899 JUMPI PUSH2 0x3898 PUSH2 0x30D1 JUMP JUMPDEST JUMPDEST PUSH2 0x38A3 DUP3 SLOAD PUSH2 0x35A4 JUMP JUMPDEST PUSH2 0x38AE DUP3 DUP3 DUP6 PUSH2 0x37EE JUMP JUMPDEST PUSH0 PUSH1 0x20 SWAP1 POP PUSH1 0x1F DUP4 GT PUSH1 0x1 DUP2 EQ PUSH2 0x38DF JUMPI PUSH0 DUP5 ISZERO PUSH2 0x38CD JUMPI DUP3 DUP8 ADD MLOAD SWAP1 POP JUMPDEST PUSH2 0x38D7 DUP6 DUP3 PUSH2 0x385C JUMP JUMPDEST DUP7 SSTORE POP PUSH2 0x393E JUMP JUMPDEST PUSH1 0x1F NOT DUP5 AND PUSH2 0x38ED DUP7 PUSH2 0x36DA JUMP JUMPDEST PUSH0 JUMPDEST DUP3 DUP2 LT ISZERO PUSH2 0x3914 JUMPI DUP5 DUP10 ADD MLOAD DUP3 SSTORE PUSH1 0x1 DUP3 ADD SWAP2 POP PUSH1 0x20 DUP6 ADD SWAP5 POP PUSH1 0x20 DUP2 ADD SWAP1 POP PUSH2 0x38EF JUMP JUMPDEST DUP7 DUP4 LT ISZERO PUSH2 0x3931 JUMPI DUP5 DUP10 ADD MLOAD PUSH2 0x392D PUSH1 0x1F DUP10 AND DUP3 PUSH2 0x3840 JUMP JUMPDEST DUP4 SSTORE POP JUMPDEST PUSH1 0x1 PUSH1 0x2 DUP9 MUL ADD DUP9 SSTORE POP POP POP JUMPDEST POP POP POP POP POP POP JUMP JUMPDEST PUSH32 0x4F6E6C7920416C6963652063616E20696E697469617465207472616E73666572 PUSH0 DUP3 ADD MSTORE PUSH32 0x2E00000000000000000000000000000000000000000000000000000000000000 PUSH1 0x20 DUP3 ADD MSTORE POP JUMP JUMPDEST PUSH0 PUSH2 0x39A0 PUSH1 0x21 DUP4 PUSH2 0x35D4 JUMP JUMPDEST SWAP2 POP PUSH2 0x39AB DUP3 PUSH2 0x3946 JUMP JUMPDEST PUSH1 0x40 DUP3 ADD SWAP1 POP SWAP2 SWAP1 POP JUMP JUMPDEST PUSH0 PUSH1 0x20 DUP3 ADD SWAP1 POP DUP2 DUP2 SUB PUSH0 DUP4 ADD MSTORE PUSH2 0x39CD DUP2 PUSH2 0x3994 JUMP JUMPDEST SWAP1 POP SWAP2 SWAP1 POP JUMP JUMPDEST PUSH32 0x496E73756666696369656E742062616C616E63652E0000000000000000000000 PUSH0 DUP3 ADD MSTORE POP JUMP JUMPDEST PUSH0 PUSH2 0x3A08 PUSH1 0x15 DUP4 PUSH2 0x35D4 JUMP JUMPDEST SWAP2 POP PUSH2 0x3A13 DUP3 PUSH2 0x39D4 JUMP JUMPDEST PUSH1 0x20 DUP3 ADD SWAP1 POP SWAP2 SWAP1 POP JUMP JUMPDEST PUSH0 PUSH1 0x20 DUP3 ADD SWAP1 POP DUP2 DUP2 SUB PUSH0 DUP4 ADD MSTORE PUSH2 0x3A35 DUP2 PUSH2 0x39FC JUMP JUMPDEST SWAP1 POP SWAP2 SWAP1 POP JUMP JUMPDEST PUSH32 0x4F6E6C7920416C6963652063616E2075706C6F616420656E6372797074656420 PUSH0 DUP3 ADD MSTORE PUSH32 0x646174612E000000000000000000000000000000000000000000000000000000 PUSH1 0x20 DUP3 ADD MSTORE POP JUMP JUMPDEST PUSH0 PUSH2 0x3A96 PUSH1 0x25 DUP4 PUSH2 0x35D4 JUMP JUMPDEST SWAP2 POP PUSH2 0x3AA1 DUP3 PUSH2 0x3A3C JUMP JUMPDEST PUSH1 0x40 DUP3 ADD SWAP1 POP SWAP2 SWAP1 POP JUMP JUMPDEST PUSH0 PUSH1 0x20 DUP3 ADD SWAP1 POP DUP2 DUP2 SUB PUSH0 DUP4 ADD MSTORE PUSH2 0x3AC3 DUP2 PUSH2 0x3A8A JUMP JUMPDEST SWAP1 POP SWAP2 SWAP1 POP JUMP JUMPDEST PUSH32 0x4F6E6C7920426F622063616E207375626D69742070726F6F662E000000000000 PUSH0 DUP3 ADD MSTORE POP JUMP JUMPDEST PUSH0 PUSH2 0x3AFE PUSH1 0x1A DUP4 PUSH2 0x35D4 JUMP JUMPDEST SWAP2 POP PUSH2 0x3B09 DUP3 PUSH2 0x3ACA JUMP JUMPDEST PUSH1 0x20 DUP3 ADD SWAP1 POP SWAP2 SWAP1 POP JUMP JUMPDEST PUSH0 PUSH1 0x20 DUP3 ADD SWAP1 POP DUP2 DUP2 SUB PUSH0 DUP4 ADD MSTORE PUSH2 0x3B2B DUP2 PUSH2 0x3AF2 JUMP JUMPDEST SWAP1 POP SWAP2 SWAP1 POP JUMP JUMPDEST PUSH32 0x4E487B7100000000000000000000000000000000000000000000000000000000 PUSH0 MSTORE PUSH1 0x11 PUSH1 0x4 MSTORE PUSH1 0x24 PUSH0 REVERT JUMPDEST PUSH0 PUSH2 0x3B69 DUP3 PUSH2 0x2F01 JUMP JUMPDEST SWAP2 POP PUSH2 0x3B74 DUP4 PUSH2 0x2F01 JUMP JUMPDEST SWAP3 POP DUP3 DUP3 ADD SWAP1 POP DUP1 DUP3 GT ISZERO PUSH2 0x3B8C JUMPI PUSH2 0x3B8B PUSH2 0x3B32 JUMP JUMPDEST JUMPDEST SWAP3 SWAP2 POP POP JUMP JUMPDEST PUSH32 0x6E6F742074696D656F7574207965740000000000000000000000000000000000 PUSH0 DUP3 ADD MSTORE POP JUMP JUMPDEST PUSH0 PUSH2 0x3BC6 PUSH1 0xF DUP4 PUSH2 0x35D4 JUMP JUMPDEST SWAP2 POP PUSH2 0x3BD1 DUP3 PUSH2 0x3B92 JUMP JUMPDEST PUSH1 0x20 DUP3 ADD SWAP1 POP SWAP2 SWAP1 POP JUMP JUMPDEST PUSH0 PUSH1 0x20 DUP3 ADD SWAP1 POP DUP2 DUP2 SUB PUSH0 DUP4 ADD MSTORE PUSH2 0x3BF3 DUP2 PUSH2 0x3BBA JUMP JUMPDEST SWAP1 POP SWAP2 SWAP1 POP JUMP JUMPDEST PUSH32 0x4F6E6C7920416C6963652063616E206465706F7369742E000000000000000000 PUSH0 DUP3 ADD MSTORE POP JUMP JUMPDEST PUSH0 PUSH2 0x3C2E PUSH1 0x17 DUP4 PUSH2 0x35D4 JUMP JUMPDEST SWAP2 POP PUSH2 0x3C39 DUP3 PUSH2 0x3BFA JUMP JUMPDEST PUSH1 0x20 DUP3 ADD SWAP1 POP SWAP2 SWAP1 POP JUMP JUMPDEST PUSH0 PUSH1 0x20 DUP3 ADD SWAP1 POP DUP2 DUP2 SUB PUSH0 DUP4 ADD MSTORE PUSH2 0x3C5B DUP2 PUSH2 0x3C22 JUMP JUMPDEST SWAP1 POP SWAP2 SWAP1 POP JUMP JUMPDEST PUSH32 0x4465706F73697420616D6F756E74206D757374206265206D6F7265207468616E PUSH0 DUP3 ADD MSTORE PUSH32 0x20312E3031612E00000000000000000000000000000000000000000000000000 PUSH1 0x20 DUP3 ADD MSTORE POP JUMP JUMPDEST PUSH0 PUSH2 0x3CBC PUSH1 0x27 DUP4 PUSH2 0x35D4 JUMP JUMPDEST SWAP2 POP PUSH2 0x3CC7 DUP3 PUSH2 0x3C62 JUMP JUMPDEST PUSH1 0x40 DUP3 ADD SWAP1 POP SWAP2 SWAP1 POP JUMP JUMPDEST PUSH0 PUSH1 0x20 DUP3 ADD SWAP1 POP DUP2 DUP2 SUB PUSH0 DUP4 ADD MSTORE PUSH2 0x3CE9 DUP2 PUSH2 0x3CB0 JUMP JUMPDEST SWAP1 POP SWAP2 SWAP1 POP JUMP JUMPDEST PUSH0 DUP3 DUP3 MSTORE PUSH1 0x20 DUP3 ADD SWAP1 POP SWAP3 SWAP2 POP POP JUMP JUMPDEST PUSH0 DUP2 SLOAD PUSH2 0x3D0C DUP2 PUSH2 0x35A4 JUMP JUMPDEST PUSH2 0x3D16 DUP2 DUP7 PUSH2 0x3CF0 JUMP JUMPDEST SWAP5 POP PUSH1 0x1 DUP3 AND PUSH0 DUP2 EQ PUSH2 0x3D30 JUMPI PUSH1 0x1 DUP2 EQ PUSH2 0x3D46 JUMPI PUSH2 0x3D78 JUMP JUMPDEST PUSH1 0xFF NOT DUP4 AND DUP7 MSTORE DUP2 ISZERO ISZERO PUSH1 0x20 MUL DUP7 ADD SWAP4 POP PUSH2 0x3D78 JUMP JUMPDEST PUSH2 0x3D4F DUP6 PUSH2 0x36DA JUMP JUMPDEST PUSH0 JUMPDEST DUP4 DUP2 LT ISZERO PUSH2 0x3D70 JUMPI DUP2 SLOAD DUP2 DUP10 ADD MSTORE PUSH1 0x1 DUP3 ADD SWAP2 POP PUSH1 0x20 DUP2 ADD SWAP1 POP PUSH2 0x3D51 JUMP JUMPDEST DUP1 DUP9 ADD SWAP6 POP POP POP JUMPDEST POP POP POP SWAP3 SWAP2 POP POP JUMP JUMPDEST PUSH2 0x3D8A DUP2 PUSH2 0x2F01 JUMP JUMPDEST DUP3 MSTORE POP POP JUMP JUMPDEST PUSH0 PUSH1 0xA0 DUP3 ADD SWAP1 POP DUP2 DUP2 SUB PUSH0 DUP4 ADD MSTORE PUSH2 0x3DA8 DUP2 DUP9 PUSH2 0x3D00 JUMP JUMPDEST SWAP1 POP DUP2 DUP2 SUB PUSH1 0x20 DUP4 ADD MSTORE PUSH2 0x3DBC DUP2 DUP8 PUSH2 0x3D00 JUMP JUMPDEST SWAP1 POP DUP2 DUP2 SUB PUSH1 0x40 DUP4 ADD MSTORE PUSH2 0x3DD0 DUP2 DUP7 PUSH2 0x3D00 JUMP JUMPDEST SWAP1 POP DUP2 DUP2 SUB PUSH1 0x60 DUP4 ADD MSTORE PUSH2 0x3DE4 DUP2 DUP6 PUSH2 0x3D00 JUMP JUMPDEST SWAP1 POP PUSH2 0x3DF3 PUSH1 0x80 DUP4 ADD DUP5 PUSH2 0x3D81 JUMP JUMPDEST SWAP7 SWAP6 POP POP POP POP POP POP JUMP JUMPDEST PUSH2 0x3E06 DUP2 PUSH2 0x323C JUMP JUMPDEST DUP2 EQ PUSH2 0x3E10 JUMPI PUSH0 DUP1 REVERT JUMPDEST POP JUMP JUMPDEST PUSH0 DUP2 MLOAD SWAP1 POP PUSH2 0x3E21 DUP2 PUSH2 0x3DFD JUMP JUMPDEST SWAP3 SWAP2 POP POP JUMP JUMPDEST PUSH0 PUSH1 0x20 DUP3 DUP5 SUB SLT ISZERO PUSH2 0x3E3C JUMPI PUSH2 0x3E3B PUSH2 0x30C1 JUMP JUMPDEST JUMPDEST PUSH0 PUSH2 0x3E49 DUP5 DUP3 DUP6 ADD PUSH2 0x3E13 JUMP JUMPDEST SWAP2 POP POP SWAP3 SWAP2 POP POP JUMP JUMPDEST PUSH32 0x4E487B7100000000000000000000000000000000000000000000000000000000 PUSH0 MSTORE PUSH1 0x12 PUSH1 0x4 MSTORE PUSH1 0x24 PUSH0 REVERT JUMPDEST PUSH0 PUSH2 0x3E89 DUP3 PUSH2 0x2F01 JUMP JUMPDEST SWAP2 POP PUSH2 0x3E94 DUP4 PUSH2 0x2F01 JUMP JUMPDEST SWAP3 POP DUP3 DUP3 SUB SWAP1 POP DUP2 DUP2 GT ISZERO PUSH2 0x3EAC JUMPI PUSH2 0x3EAB PUSH2 0x3B32 JUMP JUMPDEST JUMPDEST SWAP3 SWAP2 POP POP JUMP JUMPDEST PUSH0 DUP2 MLOAD SWAP1 POP SWAP2 SWAP1 POP JUMP JUMPDEST PUSH0 PUSH2 0x3EC6 DUP3 PUSH2 0x3EB2 JUMP JUMPDEST PUSH2 0x3ED0 DUP2 DUP6 PUSH2 0x35D4 JUMP JUMPDEST SWAP4 POP PUSH2 0x3EE0 DUP2 DUP6 PUSH1 0x20 DUP7 ADD PUSH2 0x2F4C JUMP JUMPDEST PUSH2 0x3EE9 DUP2 PUSH2 0x2F5A JUMP JUMPDEST DUP5 ADD SWAP2 POP POP SWAP3 SWAP2 POP POP JUMP JUMPDEST PUSH0 PUSH1 0x20 DUP3 ADD SWAP1 POP DUP2 DUP2 SUB PUSH0 DUP4 ADD MSTORE PUSH2 0x3F0C DUP2 DUP5 PUSH2 0x3EBC JUMP JUMPDEST SWAP1 POP SWAP3 SWAP2 POP POP JUMP JUMPDEST PUSH32 0x4E487B7100000000000000000000000000000000000000000000000000000000 PUSH0 MSTORE PUSH1 0x51 PUSH1 0x4 MSTORE PUSH1 0x24 PUSH0 REVERT INVALID LOG2 PUSH5 0x6970667358 0x22 SLT KECCAK256 0xCC 0xD9 0xC8 SHR 0x22 PUSH3 0xFD8A60 0xFC CALLDATASIZE DUP7 0xFC PUSH27 0xB844F1B78B153C6C8F97781DD545A957F10764736F6C634300081A STOP CALLER "
		},
		"gasEstimates": {
			"creation": {
				"codeDepositCost": "3249400",
				"executionCost": "infinite",
				"totalCost": "infinite"
			},
			"external": {
				"alice()": "2615",
				"amount()": "2492",
				"bankReceiptDec()": "infinite",
				"bankReceiptEnc()": "infinite",
				"bob()": "2619",
				"contract_time()": "2493",
				"deposit()": "2491",
				"depositToContract()": "30287",
				"exchangeRate()": "2537",
				"getTimeReleasedCipher()": "infinite",
				"getTransactionInfo()": "infinite",
				"isDepositToContract()": "2598",
				"isUploadBankReceipt()": "2628",
				"submitProof(bytes,bytes,bytes)": "infinite",
				"testSignature(bytes32,uint256,uint256,uint256,uint256)": "infinite",
				"timeout()": "2514",
				"totalAmount()": "2449",
				"transferToAliceTimeout()": "infinite",
				"transferToBob()": "infinite",
				"tre()": "infinite",
				"uploadBankReceipt(bytes)": "infinite",
				"uploadEncryptedData(bytes,bytes,bytes,uint256,uint256)": "infinite"
			},
			"internal": {
				"vdfVerify()": "infinite",
				"verifyBankReceipt()": "infinite"
			}
		},
		"methodIdentifiers": {
			"alice()": "fb47e3a2",
			"amount()": "aa8c217c",
			"bankReceiptDec()": "83f093e1",
			"bankReceiptEnc()": "1d8103fd",
			"bob()": "c09cec77",
			"contract_time()": "25d9f34f",
			"deposit()": "d0e30db0",
			"depositToContract()": "c8f781c2",
			"exchangeRate()": "3ba0b9a9",
			"getTimeReleasedCipher()": "466add1c",
			"getTransactionInfo()": "b6146665",
			"isDepositToContract()": "ff28ebac",
			"isUploadBankReceipt()": "75a598ea",
			"submitProof(bytes,bytes,bytes)": "9a67dd08",
			"testSignature(bytes32,uint256,uint256,uint256,uint256)": "d1261df0",
			"timeout()": "70dea79a",
			"totalAmount()": "1a39d8ef",
			"transferToAliceTimeout()": "c7654689",
			"transferToBob()": "5c5499a0",
			"tre()": "3b417a82",
			"uploadBankReceipt(bytes)": "5361178c",
			"uploadEncryptedData(bytes,bytes,bytes,uint256,uint256)": "8bda91ab"
		}
	},
	"abi": [
		{
			"inputs": [
				{
					"internalType": "address",
					"name": "_bob",
					"type": "address"
				},
				{
					"internalType": "uint256",
					"name": "_amount",
					"type": "uint256"
				},
				{
					"internalType": "uint256",
					"name": "_exchangeRate",
					"type": "uint256"
				},
				{
					"internalType": "uint256",
					"name": "_timeout",
					"type": "uint256"
				}
			],
			"stateMutability": "nonpayable",
			"type": "constructor"
		},
		{
			"anonymous": false,
			"inputs": [
				{
					"indexed": false,
					"internalType": "bytes",
					"name": "bankReceipt",
					"type": "bytes"
				}
			],
			"name": "BankReceiptUploaded",
			"type": "event"
		},
		{
			"anonymous": false,
			"inputs": [
				{
					"indexed": true,
					"internalType": "address",
					"name": "user",
					"type": "address"
				},
				{
					"indexed": false,
					"internalType": "uint256",
					"name": "amount",
					"type": "uint256"
				}
			],
			"name": "Deposit",
			"type": "event"
		},
		{
			"anonymous": false,
			"inputs": [
				{
					"indexed": false,
					"internalType": "bytes",
					"name": "encryptedData",
					"type": "bytes"
				}
			],
			"name": "EncryptedDataUploaded",
			"type": "event"
		},
		{
			"anonymous": false,
			"inputs": [
				{
					"indexed": true,
					"internalType": "address",
					"name": "from",
					"type": "address"
				},
				{
					"indexed": true,
					"internalType": "address",
					"name": "to",
					"type": "address"
				},
				{
					"indexed": false,
					"internalType": "uint256",
					"name": "amount",
					"type": "uint256"
				}
			],
			"name": "Transfer",
			"type": "event"
		},
		{
			"anonymous": false,
			"inputs": [
				{
					"indexed": true,
					"internalType": "address",
					"name": "to",
					"type": "address"
				},
				{
					"indexed": false,
					"internalType": "uint256",
					"name": "amount",
					"type": "uint256"
				}
			],
			"name": "TransferCompleted",
			"type": "event"
		},
		{
			"inputs": [],
			"name": "alice",
			"outputs": [
				{
					"internalType": "address",
					"name": "",
					"type": "address"
				}
			],
			"stateMutability": "view",
			"type": "function"
		},
		{
			"inputs": [],
			"name": "amount",
			"outputs": [
				{
					"internalType": "uint256",
					"name": "",
					"type": "uint256"
				}
			],
			"stateMutability": "view",
			"type": "function"
		},
		{
			"inputs": [],
			"name": "bankReceiptDec",
			"outputs": [
				{
					"internalType": "bytes",
					"name": "",
					"type": "bytes"
				}
			],
			"stateMutability": "view",
			"type": "function"
		},
		{
			"inputs": [],
			"name": "bankReceiptEnc",
			"outputs": [
				{
					"internalType": "bytes",
					"name": "",
					"type": "bytes"
				}
			],
			"stateMutability": "view",
			"type": "function"
		},
		{
			"inputs": [],
			"name": "bob",
			"outputs": [
				{
					"internalType": "address",
					"name": "",
					"type": "address"
				}
			],
			"stateMutability": "view",
			"type": "function"
		},
		{
			"inputs": [],
			"name": "contract_time",
			"outputs": [
				{
					"internalType": "uint256",
					"name": "",
					"type": "uint256"
				}
			],
			"stateMutability": "view",
			"type": "function"
		},
		{
			"inputs": [],
			"name": "deposit",
			"outputs": [
				{
					"internalType": "uint256",
					"name": "",
					"type": "uint256"
				}
			],
			"stateMutability": "view",
			"type": "function"
		},
		{
			"inputs": [],
			"name": "depositToContract",
			"outputs": [],
			"stateMutability": "payable",
			"type": "function"
		},
		{
			"inputs": [],
			"name": "exchangeRate",
			"outputs": [
				{
					"internalType": "uint256",
					"name": "",
					"type": "uint256"
				}
			],
			"stateMutability": "view",
			"type": "function"
		},
		{
			"inputs": [],
			"name": "getTimeReleasedCipher",
			"outputs": [
				{
					"internalType": "uint256",
					"name": "",
					"type": "uint256"
				},
				{
					"internalType": "uint256",
					"name": "",
					"type": "uint256"
				},
				{
					"internalType": "bytes",
					"name": "",
					"type": "bytes"
				},
				{
					"internalType": "bytes",
					"name": "",
					"type": "bytes"
				},
				{
					"internalType": "bytes",
					"name": "",
					"type": "bytes"
				}
			],
			"stateMutability": "view",
			"type": "function"
		},
		{
			"inputs": [],
			"name": "getTransactionInfo",
			"outputs": [
				{
					"internalType": "address",
					"name": "",
					"type": "address"
				},
				{
					"internalType": "address",
					"name": "",
					"type": "address"
				},
				{
					"internalType": "uint256",
					"name": "",
					"type": "uint256"
				},
				{
					"internalType": "uint256",
					"name": "",
					"type": "uint256"
				},
				{
					"internalType": "uint256",
					"name": "",
					"type": "uint256"
				},
				{
					"internalType": "uint256",
					"name": "",
					"type": "uint256"
				},
				{
					"internalType": "bool",
					"name": "",
					"type": "bool"
				}
			],
			"stateMutability": "view",
			"type": "function"
		},
		{
			"inputs": [],
			"name": "isDepositToContract",
			"outputs": [
				{
					"internalType": "bool",
					"name": "",
					"type": "bool"
				}
			],
			"stateMutability": "view",
			"type": "function"
		},
		{
			"inputs": [],
			"name": "isUploadBankReceipt",
			"outputs": [
				{
					"internalType": "bool",
					"name": "",
					"type": "bool"
				}
			],
			"stateMutability": "view",
			"type": "function"
		},
		{
			"inputs": [
				{
					"internalType": "bytes",
					"name": "_bankReceiptDec",
					"type": "bytes"
				},
				{
					"internalType": "bytes",
					"name": "_y",
					"type": "bytes"
				},
				{
					"internalType": "bytes",
					"name": "_proof",
					"type": "bytes"
				}
			],
			"name": "submitProof",
			"outputs": [],
			"stateMutability": "nonpayable",
			"type": "function"
		},
		{
			"inputs": [
				{
					"internalType": "bytes32",
					"name": "message",
					"type": "bytes32"
				},
				{
					"internalType": "uint256",
					"name": "r",
					"type": "uint256"
				},
				{
					"internalType": "uint256",
					"name": "s",
					"type": "uint256"
				},
				{
					"internalType": "uint256",
					"name": "Qx",
					"type": "uint256"
				},
				{
					"internalType": "uint256",
					"name": "Qy",
					"type": "uint256"
				}
			],
			"name": "testSignature",
			"outputs": [
				{
					"internalType": "bool",
					"name": "",
					"type": "bool"
				}
			],
			"stateMutability": "view",
			"type": "function"
		},
		{
			"inputs": [],
			"name": "timeout",
			"outputs": [
				{
					"internalType": "uint256",
					"name": "",
					"type": "uint256"
				}
			],
			"stateMutability": "view",
			"type": "function"
		},
		{
			"inputs": [],
			"name": "totalAmount",
			"outputs": [
				{
					"internalType": "uint256",
					"name": "",
					"type": "uint256"
				}
			],
			"stateMutability": "view",
			"type": "function"
		},
		{
			"inputs": [],
			"name": "transferToAliceTimeout",
			"outputs": [],
			"stateMutability": "nonpayable",
			"type": "function"
		},
		{
			"inputs": [],
			"name": "transferToBob",
			"outputs": [],
			"stateMutability": "nonpayable",
			"type": "function"
		},
		{
			"inputs": [],
			"name": "tre",
			"outputs": [
				{
					"internalType": "bytes",
					"name": "c",
					"type": "bytes"
				},
				{
					"internalType": "bytes",
					"name": "x",
					"type": "bytes"
				},
				{
					"internalType": "bytes",
					"name": "y",
					"type": "bytes"
				},
				{
					"internalType": "bytes",
					"name": "N",
					"type": "bytes"
				},
				{
					"internalType": "bytes",
					"name": "proof",
					"type": "bytes"
				},
				{
					"internalType": "uint256",
					"name": "security_param",
					"type": "uint256"
				},
				{
					"internalType": "uint256",
					"name": "delay",
					"type": "uint256"
				}
			],
			"stateMutability": "view",
			"type": "function"
		},
		{
			"inputs": [
				{
					"internalType": "bytes",
					"name": "_bankReceipt",
					"type": "bytes"
				}
			],
			"name": "uploadBankReceipt",
			"outputs": [],
			"stateMutability": "nonpayable",
			"type": "function"
		},
		{
			"inputs": [
				{
					"internalType": "bytes",
					"name": "_c",
					"type": "bytes"
				},
				{
					"internalType": "bytes",
					"name": "_x",
					"type": "bytes"
				},
				{
					"internalType": "bytes",
					"name": "_N",
					"type": "bytes"
				},
				{
					"internalType": "uint256",
					"name": "security_param",
					"type": "uint256"
				},
				{
					"internalType": "uint256",
					"name": "_delay",
					"type": "uint256"
				}
			],
			"name": "uploadEncryptedData",
			"outputs": [],
			"stateMutability": "nonpayable",
			"type": "function"
		}
	]
}