{
	"data": {
		"bytecode": {
			"linkReferences": {
				"contract/Wesolowski-VDF/WesolowskiVDFVerifier.sol": {
					"WesolowskiVDFVerifier": [
						{
							"length": 20,
							"start": 6440
						}
					]
				}
			},
			"object": "608060405234801561000f575f80fd5b5060405161434d38038061434d833981810160405281019061003191906101c4565b335f806101000a81548173ffffffffffffffffffffffffffffffffffffffff021916908373ffffffffffffffffffffffffffffffffffffffff1602179055508360015f6101000a81548173ffffffffffffffffffffffffffffffffffffffff021916908373ffffffffffffffffffffffffffffffffffffffff1602179055508260028190555060646002546100c69190610282565b6003819055506003546002546100dc91906102b2565b600481905550816005819055505f600a5f6101000a81548160ff0219169083151502179055505f600a60016101000a81548160ff0219169083151502179055508060078190555042600681905550505050506102e5565b5f80fd5b5f73ffffffffffffffffffffffffffffffffffffffff82169050919050565b5f61016082610137565b9050919050565b61017081610156565b811461017a575f80fd5b50565b5f8151905061018b81610167565b92915050565b5f819050919050565b6101a381610191565b81146101ad575f80fd5b50565b5f815190506101be8161019a565b92915050565b5f805f80608085870312156101dc576101db610133565b5b5f6101e98782880161017d565b94505060206101fa878288016101b0565b935050604061020b878288016101b0565b925050606061021c878288016101b0565b91505092959194509250565b7f4e487b71000000000000000000000000000000000000000000000000000000005f52601260045260245ffd5b7f4e487b71000000000000000000000000000000000000000000000000000000005f52601160045260245ffd5b5f61028c82610191565b915061029783610191565b9250826102a7576102a6610228565b5b828204905092915050565b5f6102bc82610191565b91506102c783610191565b92508282019050808211156102df576102de610255565b5b92915050565b61405b806102f25f395ff3fe608060405260043610610134575f3560e01c80638bda91ab116100aa578063c09cec771161006e578063c09cec77146103e0578063c76546891461040a578063c8f781c214610420578063d0e30db01461042a578063fb47e3a214610454578063ff28ebac1461047e57610134565b80638bda91ab146102fa5780639a67dd0814610322578063aa8c217c1461034a578063ab786c6814610374578063b6146665146103b057610134565b8063466add1c116100fc578063466add1c146102105780635361178c1461023e5780635c5499a01461026657806370dea79a1461027c57806375a598ea146102a657806383f093e1146102d057610134565b80631a39d8ef146101385780631d8103fd1461016257806325d9f34f1461018c5780633b417a82146101b65780633ba0b9a9146101e6575b5f80fd5b348015610143575f80fd5b5061014c6104a8565b6040516101599190612f66565b60405180910390f35b34801561016d575f80fd5b506101766104ae565b6040516101839190612fef565b60405180910390f35b348015610197575f80fd5b506101a061053a565b6040516101ad9190612f66565b60405180910390f35b3480156101c1575f80fd5b506101ca610540565b6040516101dd979695949392919061300f565b60405180910390f35b3480156101f1575f80fd5b506101fa61080d565b6040516102079190612f66565b60405180910390f35b34801561021b575f80fd5b50610224610813565b60405161023595949392919061309f565b60405180910390f35b348015610249575f80fd5b50610264600480360381019061025f9190613242565b610a32565b005b348015610271575f80fd5b5061027a610b26565b005b348015610287575f80fd5b50610290610ded565b60405161029d9190612f66565b60405180910390f35b3480156102b1575f80fd5b506102ba610df3565b6040516102c791906132a3565b60405180910390f35b3480156102db575f80fd5b506102e4610e06565b6040516102f19190612fef565b60405180910390f35b348015610305575f80fd5b50610320600480360381019061031b91906132e6565b610e92565b005b34801561032d575f80fd5b50610348600480360381019061034391906133b1565b610fa9565b005b348015610355575f80fd5b5061035e61119d565b60405161036b9190612f66565b60405180910390f35b34801561037f575f80fd5b5061039a60048036038101906103959190613455565b6111a3565b6040516103a791906132a3565b60405180910390f35b3480156103bb575f80fd5b506103c4611209565b6040516103d79796959493929190613527565b60405180910390f35b3480156103eb575f80fd5b506103f4611285565b6040516104019190613594565b60405180910390f35b348015610415575f80fd5b5061041e6112aa565b005b6104286114bd565b005b348015610435575f80fd5b5061043e6115f8565b60405161044b9190612f66565b60405180910390f35b34801561045f575f80fd5b506104686115fe565b6040516104759190613594565b60405180910390f35b348015610489575f80fd5b50610492611621565b60405161049f91906132a3565b60405180910390f35b60045481565b600880546104bb906135da565b80601f01602080910402602001604051908101604052809291908181526020018280546104e7906135da565b80156105325780601f1061050957610100808354040283529160200191610532565b820191905f5260205f20905b81548152906001019060200180831161051557829003601f168201915b505050505081565b60065481565b600b805f018054610550906135da565b80601f016020809104026020016040519081016040528092919081815260200182805461057c906135da565b80156105c75780601f1061059e576101008083540402835291602001916105c7565b820191905f5260205f20905b8154815290600101906020018083116105aa57829003601f168201915b5050505050908060010180546105dc906135da565b80601f0160208091040260200160405190810160405280929190818152602001828054610608906135da565b80156106535780601f1061062a57610100808354040283529160200191610653565b820191905f5260205f20905b81548152906001019060200180831161063657829003601f168201915b505050505090806002018054610668906135da565b80601f0160208091040260200160405190810160405280929190818152602001828054610694906135da565b80156106df5780601f106106b6576101008083540402835291602001916106df565b820191905f5260205f20905b8154815290600101906020018083116106c257829003601f168201915b5050505050908060030180546106f4906135da565b80601f0160208091040260200160405190810160405280929190818152602001828054610720906135da565b801561076b5780601f106107425761010080835404028352916020019161076b565b820191905f5260205f20905b81548152906001019060200180831161074e57829003601f168201915b505050505090806004018054610780906135da565b80601f01602080910402602001604051908101604052809291908181526020018280546107ac906135da565b80156107f75780601f106107ce576101008083540402835291602001916107f7565b820191905f5260205f20905b8154815290600101906020018083116107da57829003601f168201915b5050505050908060050154908060060154905087565b60055481565b5f806060806060600a60019054906101000a900460ff16610869576040517f08c379a000000000000000000000000000000000000000000000000000000000815260040161086090613664565b60405180910390fd5b600b60060154600b60050154600b600301600b600101600b5f0182805461088f906135da565b80601f01602080910402602001604051908101604052809291908181526020018280546108bb906135da565b80156109065780601f106108dd57610100808354040283529160200191610906565b820191905f5260205f20905b8154815290600101906020018083116108e957829003601f168201915b50505050509250818054610919906135da565b80601f0160208091040260200160405190810160405280929190818152602001828054610945906135da565b80156109905780601f1061096757610100808354040283529160200191610990565b820191905f5260205f20905b81548152906001019060200180831161097357829003601f168201915b505050505091508080546109a3906135da565b80601f01602080910402602001604051908101604052809291908181526020018280546109cf906135da565b8015610a1a5780601f106109f157610100808354040283529160200191610a1a565b820191905f5260205f20905b8154815290600101906020018083116109fd57829003601f168201915b50505050509050945094509450945094509091929394565b60015f9054906101000a900473ffffffffffffffffffffffffffffffffffffffff1673ffffffffffffffffffffffffffffffffffffffff163373ffffffffffffffffffffffffffffffffffffffff1614610ac1576040517f08c379a0000000000000000000000000000000000000000000000000000000008152600401610ab8906136f2565b60405180910390fd5b8060089081610ad091906138ad565b507f3e52fbbb12f1347bd63824136fa0930b30743ac0b2c238cf13892cf4f4e5296981604051610b009190612fef565b60405180910390a16001600a60016101000a81548160ff02191690831515021790555050565b5f8054906101000a900473ffffffffffffffffffffffffffffffffffffffff1673ffffffffffffffffffffffffffffffffffffffff163373ffffffffffffffffffffffffffffffffffffffff1614610bb3576040517f08c379a0000000000000000000000000000000000000000000000000000000008152600401610baa906139ec565b60405180910390fd5b600454471015610bf8576040517f08c379a0000000000000000000000000000000000000000000000000000000008152600401610bef90613a54565b60405180910390fd5b60015f9054906101000a900473ffffffffffffffffffffffffffffffffffffffff1673ffffffffffffffffffffffffffffffffffffffff166108fc60025490811502906040515f60405180830381858888f19350505050158015610c5e573d5f803e3d5ffd5b505f8054906101000a900473ffffffffffffffffffffffffffffffffffffffff1673ffffffffffffffffffffffffffffffffffffffff166108fc60035490811502906040515f60405180830381858888f19350505050158015610cc3573d5f803e3d5ffd5b5060015f9054906101000a900473ffffffffffffffffffffffffffffffffffffffff1673ffffffffffffffffffffffffffffffffffffffff163373ffffffffffffffffffffffffffffffffffffffff167fddf252ad1be2c89b69c2b068fc378daa952ba7f163c4a11628f55a4df523b3ef600254604051610d449190612f66565b60405180910390a35f8054906101000a900473ffffffffffffffffffffffffffffffffffffffff1673ffffffffffffffffffffffffffffffffffffffff163373ffffffffffffffffffffffffffffffffffffffff167fddf252ad1be2c89b69c2b068fc378daa952ba7f163c4a11628f55a4df523b3ef600354604051610dca9190612f66565b60405180910390a35f600a5f6101000a81548160ff021916908315150217905550565b60075481565b600a60019054906101000a900460ff1681565b60098054610e13906135da565b80601f0160208091040260200160405190810160405280929190818152602001828054610e3f906135da565b8015610e8a5780601f10610e6157610100808354040283529160200191610e8a565b820191905f5260205f20905b815481529060010190602001808311610e6d57829003601f168201915b505050505081565b5f8054906101000a900473ffffffffffffffffffffffffffffffffffffffff1673ffffffffffffffffffffffffffffffffffffffff163373ffffffffffffffffffffffffffffffffffffffff1614610f1f576040517f08c379a0000000000000000000000000000000000000000000000000000000008152600401610f1690613ae2565b60405180910390fd5b84600b5f019081610f3091906138ad565b5083600b6001019081610f4391906138ad565b5082600b6003019081610f5691906138ad565b5080600b6006018190555081600b600501819055507f5b1fd024cfdecf12403893eb3f5c7143182cbb3d479096b12ff678deb056b8ad85604051610f9a9190612fef565b60405180910390a15050505050565b60015f9054906101000a900473ffffffffffffffffffffffffffffffffffffffff1673ffffffffffffffffffffffffffffffffffffffff163373ffffffffffffffffffffffffffffffffffffffff1614611038576040517f08c379a000000000000000000000000000000000000000000000000000000000815260040161102f90613b4a565b60405180910390fd5b60045447101561107d576040517f08c379a000000000000000000000000000000000000000000000000000000000815260040161107490613a54565b60405180910390fd5b826009908161108c91906138ad565b5081600b600201908161109f91906138ad565b5080600b60040190816110b291906138ad565b506110bb611633565b6111985760015f9054906101000a900473ffffffffffffffffffffffffffffffffffffffff1673ffffffffffffffffffffffffffffffffffffffff166108fc60045490811502906040515f60405180830381858888f19350505050158015611125573d5f803e3d5ffd5b5060015f9054906101000a900473ffffffffffffffffffffffffffffffffffffffff1673ffffffffffffffffffffffffffffffffffffffff167fe4bb88acda5194aa84e6feedbb6438ffd447bdee1e1ad8dda3c32fcff9a68f0860045460405161118f9190612f66565b60405180910390a25b505050565b60025481565b5f6111fe6002876040516111b79190613ba2565b602060405180830381855afa1580156111d2573d5f803e3d5ffd5b5050506040513d601f19601f820116820180604052508101906111f59190613beb565b868686866116cc565b905095945050505050565b5f805f805f805f805f9054906101000a900473ffffffffffffffffffffffffffffffffffffffff1660015f9054906101000a900473ffffffffffffffffffffffffffffffffffffffff16600254600354600454600554600a5f9054906101000a900460ff16965096509650965096509650965090919293949596565b60015f9054906101000a900473ffffffffffffffffffffffffffffffffffffffff1681565b5f8054906101000a900473ffffffffffffffffffffffffffffffffffffffff1673ffffffffffffffffffffffffffffffffffffffff163373ffffffffffffffffffffffffffffffffffffffff1614611337576040517f08c379a000000000000000000000000000000000000000000000000000000000815260040161132e906139ec565b60405180910390fd5b60045447101561137c576040517f08c379a000000000000000000000000000000000000000000000000000000000815260040161137390613a54565b60405180910390fd5b60075460065461138c9190613c43565b4210156113ce576040517f08c379a00000000000000000000000000000000000000000000000000000000081526004016113c590613cc0565b60405180910390fd5b5f8054906101000a900473ffffffffffffffffffffffffffffffffffffffff1673ffffffffffffffffffffffffffffffffffffffff166108fc60045490811502906040515f60405180830381858888f19350505050158015611432573d5f803e3d5ffd5b505f8054906101000a900473ffffffffffffffffffffffffffffffffffffffff1673ffffffffffffffffffffffffffffffffffffffff167fe4bb88acda5194aa84e6feedbb6438ffd447bdee1e1ad8dda3c32fcff9a68f0860045460405161149a9190612f66565b60405180910390a25f600a5f6101000a81548160ff021916908315150217905550565b5f8054906101000a900473ffffffffffffffffffffffffffffffffffffffff1673ffffffffffffffffffffffffffffffffffffffff163373ffffffffffffffffffffffffffffffffffffffff161461154a576040517f08c379a000000000000000000000000000000000000000000000000000000000815260040161154190613d28565b60405180910390fd5b600454341461158e576040517f08c379a000000000000000000000000000000000000000000000000000000000815260040161158590613db6565b60405180910390fd5b3373ffffffffffffffffffffffffffffffffffffffff167fe1fffcc4923d04b559f4d29a8bfc6cda04eb5b0d3c460751c2402c5c5cc9109c346040516115d49190612f66565b60405180910390a26001600a5f6101000a81548160ff021916908315150217905550565b60035481565b5f8054906101000a900473ffffffffffffffffffffffffffffffffffffffff1681565b600a5f9054906101000a900460ff1681565b5f73__$0fd1cc851c6411cf7573f2ba214718d454$__63c2269a7b600b600301600b600101600b600201600b600401600b600601546040518663ffffffff1660e01b8152600401611688959493929190613e74565b602060405180830381865af41580156116a3573d5f803e3d5ffd5b505050506040513d601f19601f820116820180604052508101906116c79190613f0b565b905090565b5f61170b6040518060400160405280600181526020017f3000000000000000000000000000000000000000000000000000000000000000815250611906565b5f85148061173957507fffffffff00000000ffffffffffffffffbce6faada7179e84f3b9cac2fc6325518510155b8061174357505f84145b8061176e57507fffffffff00000000ffffffffffffffffbce6faada7179e84f3b9cac2fc6325518410155b1561177b575f90506118fd565b6117b96040518060400160405280600181526020017f3100000000000000000000000000000000000000000000000000000000000000815250611906565b6117c3838361199f565b6117cf575f90506118fd565b61180d6040518060400160405280600181526020017f3200000000000000000000000000000000000000000000000000000000000000815250611906565b5f61181785611b90565b90505f7fffffffff00000000ffffffffffffffffbce6faada7179e84f3b9cac2fc6325518061184957611848613f36565b5b82895f1c0990505f7fffffffff00000000ffffffffffffffffbce6faada7179e84f3b9cac2fc632551806118805761187f613f36565b5b83890990505f61189287878585611c14565b90507fffffffff00000000ffffffffffffffffbce6faada7179e84f3b9cac2fc632551806118c3576118c2613f36565b5b897fffffffff00000000ffffffffffffffffbce6faada7179e84f3b9cac2fc6325516118ef9190613f63565b820890505f81149450505050505b95945050505050565b61199c8160405160240161191a9190613fd8565b6040516020818303038152906040527f41304fac000000000000000000000000000000000000000000000000000000007bffffffffffffffffffffffffffffffffffffffffffffffffffffffff19166020820180517bffffffffffffffffffffffffffffffffffffffffffffffffffffffff838183161783525050505061274d565b50565b5f7fffffffff00000001000000000000000000000000ffffffffffffffffffffffff831015806119ef57507fffffffff00000001000000000000000000000000ffffffffffffffffffffffff8210155b80611a0457505f83148015611a0357505f82145b5b15611a11575f9050611b8a565b5f7fffffffff00000001000000000000000000000000ffffffffffffffffffffffff80611a4157611a40613f36565b5b83840990505f7fffffffff00000001000000000000000000000000ffffffffffffffffffffffff80611a7657611a75613f36565b5b7fffffffff00000001000000000000000000000000ffffffffffffffffffffffff80611aa557611aa4613f36565b5b7fffffffff00000001000000000000000000000000fffffffffffffffffffffffc87097fffffffff00000001000000000000000000000000ffffffffffffffffffffffff80611af757611af6613f36565b5b877fffffffff00000001000000000000000000000000ffffffffffffffffffffffff80611b2757611b26613f36565b5b898a09090890507fffffffff00000001000000000000000000000000ffffffffffffffffffffffff80611b5d57611b5c613f36565b5b7f5ac635d8aa3a93e7b3ebbd55769886bc651d06b0cc53b0f63bce3c3e27d2604b82089050808214925050505b92915050565b5f60405160208152602080820152602060408201528260608201527fffffffff00000000ffffffffffffffffbce6faada7179e84f3b9cac2fc63254f60808201527fffffffff00000000ffffffffffffffffbce6faada7179e84f3b9cac2fc63255160a082015260208160c08360055f19fa611c0a575f80fd5b8051915050919050565b5f805f805f60ff90505f805f89148015611c2d57505f88145b15611c40575f9650505050505050612745565b611c8c7f6b17d1f2e12c4247f8bce6e563a440f277037d812deb33a0f4a13945d898c2967f4fe342e2fe1a7f9b8ee7eb4a7c0f9e162bce33576b315ececbb6406837bf51f58d8d612767565b80925081935050505f82148015611ca257505f81145b15611d22577fffffffff00000000ffffffffffffffffbce6faada7179e84f3b9cac2fc63255180611cd657611cd5613f36565b5b887fffffffff00000000ffffffffffffffffbce6faada7179e84f3b9cac2fc632551038a0898505f97505f89148015611d0e57505f88145b15611d21575f9650505050505050612745565b5b600189841c16600189851c1660011b015b5f8103611d575760018403935060018a851c1660018a861c1660011b019050611d33565b50600189841c16600189851c1660011b01955060018603611db9577f6b17d1f2e12c4247f8bce6e563a440f277037d812deb33a0f4a13945d898c29696507f4fe342e2fe1a7f9b8ee7eb4a7c0f9e162bce33576b315ececbb6406837bf51f593505b60028603611dc8578a96508993505b60038603611dd7578196508093505b60018303925060019550600194505b827fffffffffffffffffffffffffffffffffffffffffffffffffffffffffffffffff111561269d577fffffffff00000001000000000000000000000000ffffffffffffffffffffffff846002097fffffffff00000001000000000000000000000000ffffffffffffffffffffffff8182097fffffffff00000001000000000000000000000000ffffffffffffffffffffffff818a097fffffffff00000001000000000000000000000000ffffffffffffffffffffffff82840992507fffffffff00000001000000000000000000000000ffffffffffffffffffffffff807fffffffff00000001000000000000000000000000ffffffffffffffffffffffff8b8d087fffffffff00000001000000000000000000000000ffffffffffffffffffffffff8c7fffffffff00000001000000000000000000000000ffffffffffffffffffffffff038e08096003097fffffffff00000001000000000000000000000000ffffffffffffffffffffffff89850998507fffffffff00000001000000000000000000000000ffffffffffffffffffffffff8a840999507fffffffff00000001000000000000000000000000ffffffffffffffffffffffff80837fffffffff00000001000000000000000000000000fffffffffffffffffffffffd097fffffffff00000001000000000000000000000000ffffffffffffffffffffffff838409089a507fffffffff00000001000000000000000000000000ffffffffffffffffffffffff80837fffffffff00000001000000000000000000000000ffffffffffffffffffffffff038d08820992507fffffffff00000001000000000000000000000000ffffffffffffffffffffffff837fffffffff00000001000000000000000000000000ffffffffffffffffffffffff8a870908975060018d881c1660018d891c1660011b019050806120c257877fffffffff00000001000000000000000000000000ffffffffffffffffffffffff03975050505050612692565b60018103612111577f6b17d1f2e12c4247f8bce6e563a440f277037d812deb33a0f4a13945d898c29693507f4fe342e2fe1a7f9b8ee7eb4a7c0f9e162bce33576b315ececbb6406837bf51f592505b60028103612120578e93508d92505b6003810361212f578593508492505b8961214b57839a50829750600199506001985050505050612692565b7fffffffff00000001000000000000000000000000ffffffffffffffffffffffff887fffffffff00000001000000000000000000000000ffffffffffffffffffffffff8b8609087fffffffff00000001000000000000000000000000ffffffffffffffffffffffff8c7fffffffff00000001000000000000000000000000ffffffffffffffffffffffff037fffffffff00000001000000000000000000000000ffffffffffffffffffffffff8d88090893508061248b578361248a577fffffffff00000001000000000000000000000000ffffffffffffffffffffffff897fffffffff00000001000000000000000000000000fffffffffffffffffffffffd0994507fffffffff00000001000000000000000000000000ffffffffffffffffffffffff85860993507fffffffff00000001000000000000000000000000ffffffffffffffffffffffff848d0992507fffffffff00000001000000000000000000000000ffffffffffffffffffffffff84860994507fffffffff00000001000000000000000000000000ffffffffffffffffffffffff808c7fffffffff00000001000000000000000000000000ffffffffffffffffffffffff038e087fffffffff00000001000000000000000000000000ffffffffffffffffffffffff8d8f080990507fffffffff00000001000000000000000000000000ffffffffffffffffffffffff8160030991507fffffffff00000001000000000000000000000000ffffffffffffffffffffffff8a860999507fffffffff00000001000000000000000000000000ffffffffffffffffffffffff8b85099a507fffffffff00000001000000000000000000000000ffffffffffffffffffffffff80847fffffffff00000001000000000000000000000000fffffffffffffffffffffffd097fffffffff00000001000000000000000000000000ffffffffffffffffffffffff848509089b507fffffffff00000001000000000000000000000000ffffffffffffffffffffffff808d7fffffffff00000001000000000000000000000000ffffffffffffffffffffffff038508830993507fffffffff00000001000000000000000000000000ffffffffffffffffffffffff808a8709850898505050505050612692565b5b7fffffffff00000001000000000000000000000000ffffffffffffffffffffffff84850991507fffffffff00000001000000000000000000000000ffffffffffffffffffffffff8483097fffffffff00000001000000000000000000000000ffffffffffffffffffffffff838d099b507fffffffff00000001000000000000000000000000ffffffffffffffffffffffff818c099a507fffffffff00000001000000000000000000000000ffffffffffffffffffffffff838e097fffffffff00000001000000000000000000000000ffffffffffffffffffffffff80827fffffffff00000001000000000000000000000000fffffffffffffffffffffffd097fffffffff00000001000000000000000000000000ffffffffffffffffffffffff847fffffffff00000001000000000000000000000000ffffffffffffffffffffffff037fffffffff00000001000000000000000000000000ffffffffffffffffffffffff878809080893507fffffffff00000001000000000000000000000000ffffffffffffffffffffffff80838d097fffffffff00000001000000000000000000000000ffffffffffffffffffffffff857fffffffff00000001000000000000000000000000ffffffffffffffffffffffff887fffffffff00000001000000000000000000000000ffffffffffffffffffffffff03860809089a50839d50505050505050505b600183039250611de6565b60405186606082015260208152602080820152602060408201527fffffffff00000001000000000000000000000000fffffffffffffffffffffffd60808201527fffffffff00000001000000000000000000000000ffffffffffffffffffffffff60a082015260208160c08360055f19fa612716575f80fd5b7fffffffff00000001000000000000000000000000ffffffffffffffffffffffff815189099750505050505050505b949350505050565b6127648161275c612814612833565b63ffffffff16565b50565b5f805f80612775888861283e565b1561278757858593509350505061280b565b612791868661283e565b156127a357878793509350505061280b565b85881480156127b157508487145b156127d8576127c3888860018061284a565b809450819550829a50839b50505050506127f8565b6127e788886001808a8a612ad2565b809450819550829a50839b50505050505b61280488888484612dd6565b9350935050505b94509492505050565b5f6a636f6e736f6c652e6c6f6790505f80835160208501845afa505050565b612f44819050919050565b5f808214905092915050565b5f805f807fffffffff00000001000000000000000000000000ffffffffffffffffffffffff8760020993507fffffffff00000001000000000000000000000000ffffffffffffffffffffffff84850991507fffffffff00000001000000000000000000000000ffffffffffffffffffffffff82890990507fffffffff00000001000000000000000000000000ffffffffffffffffffffffff82850992507fffffffff00000001000000000000000000000000ffffffffffffffffffffffff86830991507fffffffff00000001000000000000000000000000ffffffffffffffffffffffff807fffffffff00000001000000000000000000000000ffffffffffffffffffffffff888b087fffffffff00000001000000000000000000000000ffffffffffffffffffffffff897fffffffff00000001000000000000000000000000ffffffffffffffffffffffff038c080960030995507fffffffff00000001000000000000000000000000ffffffffffffffffffffffff80827fffffffff00000001000000000000000000000000fffffffffffffffffffffffd097fffffffff00000001000000000000000000000000ffffffffffffffffffffffff8889090893507fffffffff00000001000000000000000000000000ffffffffffffffffffffffff80857fffffffff00000001000000000000000000000000ffffffffffffffffffffffff038308870997507fffffffff00000001000000000000000000000000ffffffffffffffffffffffff85840990507fffffffff00000001000000000000000000000000ffffffffffffffffffffffff808885097fffffffff00000001000000000000000000000000ffffffffffffffffffffffff0389089250945094509450949050565b5f805f805f8903612aef5785856001809350935093509350612dc9565b887fffffffff00000001000000000000000000000000ffffffffffffffffffffffff0398507fffffffff00000001000000000000000000000000ffffffffffffffffffffffff897fffffffff00000001000000000000000000000000ffffffffffffffffffffffff8988090894507fffffffff00000001000000000000000000000000ffffffffffffffffffffffff8a7fffffffff00000001000000000000000000000000ffffffffffffffffffffffff037fffffffff00000001000000000000000000000000ffffffffffffffffffffffff8a89090895507fffffffff00000001000000000000000000000000ffffffffffffffffffffffff86870993507fffffffff00000001000000000000000000000000ffffffffffffffffffffffff86850992507fffffffff00000001000000000000000000000000ffffffffffffffffffffffff84890991507fffffffff00000001000000000000000000000000ffffffffffffffffffffffff83880990507fffffffff00000001000000000000000000000000ffffffffffffffffffffffff848b0997507fffffffff00000001000000000000000000000000ffffffffffffffffffffffff80897fffffffff00000001000000000000000000000000fffffffffffffffffffffffd097fffffffff00000001000000000000000000000000ffffffffffffffffffffffff857fffffffff00000001000000000000000000000000ffffffffffffffffffffffff037fffffffff00000001000000000000000000000000ffffffffffffffffffffffff898a09080893507fffffffff00000001000000000000000000000000ffffffffffffffffffffffff80848b097fffffffff00000001000000000000000000000000ffffffffffffffffffffffff877fffffffff00000001000000000000000000000000ffffffffffffffffffffffff887fffffffff00000001000000000000000000000000ffffffffffffffffffffffff038d08090892505b9650965096509692505050565b5f805f612de284612ec0565b90507fffffffff00000001000000000000000000000000ffffffffffffffffffffffff80612e1357612e12613f36565b5b81870991505f7fffffffff00000001000000000000000000000000ffffffffffffffffffffffff80612e4857612e47613f36565b5b82870990507fffffffff00000001000000000000000000000000ffffffffffffffffffffffff80612e7c57612e7b613f36565b5b81820991507fffffffff00000001000000000000000000000000ffffffffffffffffffffffff80612eb057612eaf613f36565b5b8289099350505094509492505050565b5f60405160208152602080820152602060408201528260608201527fffffffff00000001000000000000000000000000fffffffffffffffffffffffd60808201527fffffffff00000001000000000000000000000000ffffffffffffffffffffffff60a082015260208160c08360055f19fa612f3a575f80fd5b8051915050919050565b612f4c613ff8565b565b5f819050919050565b612f6081612f4e565b82525050565b5f602082019050612f795f830184612f57565b92915050565b5f81519050919050565b5f82825260208201905092915050565b8281835e5f83830152505050565b5f601f19601f8301169050919050565b5f612fc182612f7f565b612fcb8185612f89565b9350612fdb818560208601612f99565b612fe481612fa7565b840191505092915050565b5f6020820190508181035f8301526130078184612fb7565b905092915050565b5f60e0820190508181035f830152613027818a612fb7565b9050818103602083015261303b8189612fb7565b9050818103604083015261304f8188612fb7565b905081810360608301526130638187612fb7565b905081810360808301526130778186612fb7565b905061308660a0830185612f57565b61309360c0830184612f57565b98975050505050505050565b5f60a0820190506130b25f830188612f57565b6130bf6020830187612f57565b81810360408301526130d18186612fb7565b905081810360608301526130e58185612fb7565b905081810360808301526130f98184612fb7565b90509695505050505050565b5f604051905090565b5f80fd5b5f80fd5b5f80fd5b5f80fd5b7f4e487b71000000000000000000000000000000000000000000000000000000005f52604160045260245ffd5b61315482612fa7565b810181811067ffffffffffffffff821117156131735761317261311e565b5b80604052505050565b5f613185613105565b9050613191828261314b565b919050565b5f67ffffffffffffffff8211156131b0576131af61311e565b5b6131b982612fa7565b9050602081019050919050565b828183375f83830152505050565b5f6131e66131e184613196565b61317c565b9050828152602081018484840111156132025761320161311a565b5b61320d8482856131c6565b509392505050565b5f82601f83011261322957613228613116565b5b81356132398482602086016131d4565b91505092915050565b5f602082840312156132575761325661310e565b5b5f82013567ffffffffffffffff81111561327457613273613112565b5b61328084828501613215565b91505092915050565b5f8115159050919050565b61329d81613289565b82525050565b5f6020820190506132b65f830184613294565b92915050565b6132c581612f4e565b81146132cf575f80fd5b50565b5f813590506132e0816132bc565b92915050565b5f805f805f60a086880312156132ff576132fe61310e565b5b5f86013567ffffffffffffffff81111561331c5761331b613112565b5b61332888828901613215565b955050602086013567ffffffffffffffff81111561334957613348613112565b5b61335588828901613215565b945050604086013567ffffffffffffffff81111561337657613375613112565b5b61338288828901613215565b9350506060613393888289016132d2565b92505060806133a4888289016132d2565b9150509295509295909350565b5f805f606084860312156133c8576133c761310e565b5b5f84013567ffffffffffffffff8111156133e5576133e4613112565b5b6133f186828701613215565b935050602084013567ffffffffffffffff81111561341257613411613112565b5b61341e86828701613215565b925050604084013567ffffffffffffffff81111561343f5761343e613112565b5b61344b86828701613215565b9150509250925092565b5f805f805f60a0868803121561346e5761346d61310e565b5b5f86013567ffffffffffffffff81111561348b5761348a613112565b5b61349788828901613215565b95505060206134a8888289016132d2565b94505060406134b9888289016132d2565b93505060606134ca888289016132d2565b92505060806134db888289016132d2565b9150509295509295909350565b5f73ffffffffffffffffffffffffffffffffffffffff82169050919050565b5f613511826134e8565b9050919050565b61352181613507565b82525050565b5f60e08201905061353a5f83018a613518565b6135476020830189613518565b6135546040830188612f57565b6135616060830187612f57565b61356e6080830186612f57565b61357b60a0830185612f57565b61358860c0830184613294565b98975050505050505050565b5f6020820190506135a75f830184613518565b92915050565b7f4e487b71000000000000000000000000000000000000000000000000000000005f52602260045260245ffd5b5f60028204905060018216806135f157607f821691505b602082108103613604576136036135ad565b5b50919050565b5f82825260208201905092915050565b7f706c7a2075706c6f61642062616e6b20726563656970742066697273740000005f82015250565b5f61364e601d8361360a565b91506136598261361a565b602082019050919050565b5f6020820190508181035f83015261367b81613642565b9050919050565b7f4f6e6c7920426f622063616e2075706c6f61642062616e6b20726563656970745f8201527f2e00000000000000000000000000000000000000000000000000000000000000602082015250565b5f6136dc60218361360a565b91506136e782613682565b604082019050919050565b5f6020820190508181035f830152613709816136d0565b9050919050565b5f819050815f5260205f209050919050565b5f6020601f8301049050919050565b5f82821b905092915050565b5f6008830261376c7fffffffffffffffffffffffffffffffffffffffffffffffffffffffffffffffff82613731565b6137768683613731565b95508019841693508086168417925050509392505050565b5f819050919050565b5f6137b16137ac6137a784612f4e565b61378e565b612f4e565b9050919050565b5f819050919050565b6137ca83613797565b6137de6137d6826137b8565b84845461373d565b825550505050565b5f90565b6137f26137e6565b6137fd8184846137c1565b505050565b5b81811015613820576138155f826137ea565b600181019050613803565b5050565b601f8211156138655761383681613710565b61383f84613722565b8101602085101561384e578190505b61386261385a85613722565b830182613802565b50505b505050565b5f82821c905092915050565b5f6138855f198460080261386a565b1980831691505092915050565b5f61389d8383613876565b9150826002028217905092915050565b6138b682612f7f565b67ffffffffffffffff8111156138cf576138ce61311e565b5b6138d982546135da565b6138e4828285613824565b5f60209050601f831160018114613915575f8415613903578287015190505b61390d8582613892565b865550613974565b601f19841661392386613710565b5f5b8281101561394a57848901518255600182019150602085019450602081019050613925565b868310156139675784890151613963601f891682613876565b8355505b6001600288020188555050505b505050505050565b7f4f6e6c7920416c6963652063616e20696e697469617465207472616e736665725f8201527f2e00000000000000000000000000000000000000000000000000000000000000602082015250565b5f6139d660218361360a565b91506139e18261397c565b604082019050919050565b5f6020820190508181035f830152613a03816139ca565b9050919050565b7f496e73756666696369656e742062616c616e63652e00000000000000000000005f82015250565b5f613a3e60158361360a565b9150613a4982613a0a565b602082019050919050565b5f6020820190508181035f830152613a6b81613a32565b9050919050565b7f4f6e6c7920416c6963652063616e2075706c6f616420656e63727970746564205f8201527f646174612e000000000000000000000000000000000000000000000000000000602082015250565b5f613acc60258361360a565b9150613ad782613a72565b604082019050919050565b5f6020820190508181035f830152613af981613ac0565b9050919050565b7f4f6e6c7920426f622063616e207375626d69742070726f6f662e0000000000005f82015250565b5f613b34601a8361360a565b9150613b3f82613b00565b602082019050919050565b5f6020820190508181035f830152613b6181613b28565b9050919050565b5f81905092915050565b5f613b7c82612f7f565b613b868185613b68565b9350613b96818560208601612f99565b80840191505092915050565b5f613bad8284613b72565b915081905092915050565b5f819050919050565b613bca81613bb8565b8114613bd4575f80fd5b50565b5f81519050613be581613bc1565b92915050565b5f60208284031215613c0057613bff61310e565b5b5f613c0d84828501613bd7565b91505092915050565b7f4e487b71000000000000000000000000000000000000000000000000000000005f52601160045260245ffd5b5f613c4d82612f4e565b9150613c5883612f4e565b9250828201905080821115613c7057613c6f613c16565b5b92915050565b7f6e6f742074696d656f75742079657400000000000000000000000000000000005f82015250565b5f613caa600f8361360a565b9150613cb582613c76565b602082019050919050565b5f6020820190508181035f830152613cd781613c9e565b9050919050565b7f4f6e6c7920416c6963652063616e206465706f7369742e0000000000000000005f82015250565b5f613d1260178361360a565b9150613d1d82613cde565b602082019050919050565b5f6020820190508181035f830152613d3f81613d06565b9050919050565b7f4465706f73697420616d6f756e74206d757374206265206d6f7265207468616e5f8201527f20312e3031612e00000000000000000000000000000000000000000000000000602082015250565b5f613da060278361360a565b9150613dab82613d46565b604082019050919050565b5f6020820190508181035f830152613dcd81613d94565b9050919050565b5f82825260208201905092915050565b5f8154613df0816135da565b613dfa8186613dd4565b9450600182165f8114613e145760018114613e2a57613e5c565b60ff198316865281151560200286019350613e5c565b613e3385613710565b5f5b83811015613e5457815481890152600182019150602081019050613e35565b808801955050505b50505092915050565b613e6e81612f4e565b82525050565b5f60a0820190508181035f830152613e8c8188613de4565b90508181036020830152613ea08187613de4565b90508181036040830152613eb48186613de4565b90508181036060830152613ec88185613de4565b9050613ed76080830184613e65565b9695505050505050565b613eea81613289565b8114613ef4575f80fd5b50565b5f81519050613f0581613ee1565b92915050565b5f60208284031215613f2057613f1f61310e565b5b5f613f2d84828501613ef7565b91505092915050565b7f4e487b71000000000000000000000000000000000000000000000000000000005f52601260045260245ffd5b5f613f6d82612f4e565b9150613f7883612f4e565b9250828203905081811115613f9057613f8f613c16565b5b92915050565b5f81519050919050565b5f613faa82613f96565b613fb4818561360a565b9350613fc4818560208601612f99565b613fcd81612fa7565b840191505092915050565b5f6020820190508181035f830152613ff08184613fa0565b905092915050565b7f4e487b71000000000000000000000000000000000000000000000000000000005f52605160045260245ffdfea26469706673582212201ec5ca4cc6a0135eafba1e06b2a226beac2c72172ec16fe36caab84f0784b01264736f6c634300081a0033",
			"opcodes": "PUSH1 0x80 PUSH1 0x40 MSTORE CALLVALUE DUP1 ISZERO PUSH2 0xF JUMPI PUSH0 DUP1 REVERT JUMPDEST POP PUSH1 0x40 MLOAD PUSH2 0x434D CODESIZE SUB DUP1 PUSH2 0x434D DUP4 CODECOPY DUP2 DUP2 ADD PUSH1 0x40 MSTORE DUP2 ADD SWAP1 PUSH2 0x31 SWAP2 SWAP1 PUSH2 0x1C4 JUMP JUMPDEST CALLER PUSH0 DUP1 PUSH2 0x100 EXP DUP2 SLOAD DUP2 PUSH20 0xFFFFFFFFFFFFFFFFFFFFFFFFFFFFFFFFFFFFFFFF MUL NOT AND SWAP1 DUP4 PUSH20 0xFFFFFFFFFFFFFFFFFFFFFFFFFFFFFFFFFFFFFFFF AND MUL OR SWAP1 SSTORE POP DUP4 PUSH1 0x1 PUSH0 PUSH2 0x100 EXP DUP2 SLOAD DUP2 PUSH20 0xFFFFFFFFFFFFFFFFFFFFFFFFFFFFFFFFFFFFFFFF MUL NOT AND SWAP1 DUP4 PUSH20 0xFFFFFFFFFFFFFFFFFFFFFFFFFFFFFFFFFFFFFFFF AND MUL OR SWAP1 SSTORE POP DUP3 PUSH1 0x2 DUP2 SWAP1 SSTORE POP PUSH1 0x64 PUSH1 0x2 SLOAD PUSH2 0xC6 SWAP2 SWAP1 PUSH2 0x282 JUMP JUMPDEST PUSH1 0x3 DUP2 SWAP1 SSTORE POP PUSH1 0x3 SLOAD PUSH1 0x2 SLOAD PUSH2 0xDC SWAP2 SWAP1 PUSH2 0x2B2 JUMP JUMPDEST PUSH1 0x4 DUP2 SWAP1 SSTORE POP DUP2 PUSH1 0x5 DUP2 SWAP1 SSTORE POP PUSH0 PUSH1 0xA PUSH0 PUSH2 0x100 EXP DUP2 SLOAD DUP2 PUSH1 0xFF MUL NOT AND SWAP1 DUP4 ISZERO ISZERO MUL OR SWAP1 SSTORE POP PUSH0 PUSH1 0xA PUSH1 0x1 PUSH2 0x100 EXP DUP2 SLOAD DUP2 PUSH1 0xFF MUL NOT AND SWAP1 DUP4 ISZERO ISZERO MUL OR SWAP1 SSTORE POP DUP1 PUSH1 0x7 DUP2 SWAP1 SSTORE POP TIMESTAMP PUSH1 0x6 DUP2 SWAP1 SSTORE POP POP POP POP POP PUSH2 0x2E5 JUMP JUMPDEST PUSH0 DUP1 REVERT JUMPDEST PUSH0 PUSH20 0xFFFFFFFFFFFFFFFFFFFFFFFFFFFFFFFFFFFFFFFF DUP3 AND SWAP1 POP SWAP2 SWAP1 POP JUMP JUMPDEST PUSH0 PUSH2 0x160 DUP3 PUSH2 0x137 JUMP JUMPDEST SWAP1 POP SWAP2 SWAP1 POP JUMP JUMPDEST PUSH2 0x170 DUP2 PUSH2 0x156 JUMP JUMPDEST DUP2 EQ PUSH2 0x17A JUMPI PUSH0 DUP1 REVERT JUMPDEST POP JUMP JUMPDEST PUSH0 DUP2 MLOAD SWAP1 POP PUSH2 0x18B DUP2 PUSH2 0x167 JUMP JUMPDEST SWAP3 SWAP2 POP POP JUMP JUMPDEST PUSH0 DUP2 SWAP1 POP SWAP2 SWAP1 POP JUMP JUMPDEST PUSH2 0x1A3 DUP2 PUSH2 0x191 JUMP JUMPDEST DUP2 EQ PUSH2 0x1AD JUMPI PUSH0 DUP1 REVERT JUMPDEST POP JUMP JUMPDEST PUSH0 DUP2 MLOAD SWAP1 POP PUSH2 0x1BE DUP2 PUSH2 0x19A JUMP JUMPDEST SWAP3 SWAP2 POP POP JUMP JUMPDEST PUSH0 DUP1 PUSH0 DUP1 PUSH1 0x80 DUP6 DUP8 SUB SLT ISZERO PUSH2 0x1DC JUMPI PUSH2 0x1DB PUSH2 0x133 JUMP JUMPDEST JUMPDEST PUSH0 PUSH2 0x1E9 DUP8 DUP3 DUP9 ADD PUSH2 0x17D JUMP JUMPDEST SWAP5 POP POP PUSH1 0x20 PUSH2 0x1FA DUP8 DUP3 DUP9 ADD PUSH2 0x1B0 JUMP JUMPDEST SWAP4 POP POP PUSH1 0x40 PUSH2 0x20B DUP8 DUP3 DUP9 ADD PUSH2 0x1B0 JUMP JUMPDEST SWAP3 POP POP PUSH1 0x60 PUSH2 0x21C DUP8 DUP3 DUP9 ADD PUSH2 0x1B0 JUMP JUMPDEST SWAP2 POP POP SWAP3 SWAP6 SWAP2 SWAP5 POP SWAP3 POP JUMP JUMPDEST PUSH32 0x4E487B7100000000000000000000000000000000000000000000000000000000 PUSH0 MSTORE PUSH1 0x12 PUSH1 0x4 MSTORE PUSH1 0x24 PUSH0 REVERT JUMPDEST PUSH32 0x4E487B7100000000000000000000000000000000000000000000000000000000 PUSH0 MSTORE PUSH1 0x11 PUSH1 0x4 MSTORE PUSH1 0x24 PUSH0 REVERT JUMPDEST PUSH0 PUSH2 0x28C DUP3 PUSH2 0x191 JUMP JUMPDEST SWAP2 POP PUSH2 0x297 DUP4 PUSH2 0x191 JUMP JUMPDEST SWAP3 POP DUP3 PUSH2 0x2A7 JUMPI PUSH2 0x2A6 PUSH2 0x228 JUMP JUMPDEST JUMPDEST DUP3 DUP3 DIV SWAP1 POP SWAP3 SWAP2 POP POP JUMP JUMPDEST PUSH0 PUSH2 0x2BC DUP3 PUSH2 0x191 JUMP JUMPDEST SWAP2 POP PUSH2 0x2C7 DUP4 PUSH2 0x191 JUMP JUMPDEST SWAP3 POP DUP3 DUP3 ADD SWAP1 POP DUP1 DUP3 GT ISZERO PUSH2 0x2DF JUMPI PUSH2 0x2DE PUSH2 0x255 JUMP JUMPDEST JUMPDEST SWAP3 SWAP2 POP POP JUMP JUMPDEST PUSH2 0x405B DUP1 PUSH2 0x2F2 PUSH0 CODECOPY PUSH0 RETURN INVALID PUSH1 0x80 PUSH1 0x40 MSTORE PUSH1 0x4 CALLDATASIZE LT PUSH2 0x134 JUMPI PUSH0 CALLDATALOAD PUSH1 0xE0 SHR DUP1 PUSH4 0x8BDA91AB GT PUSH2 0xAA JUMPI DUP1 PUSH4 0xC09CEC77 GT PUSH2 0x6E JUMPI DUP1 PUSH4 0xC09CEC77 EQ PUSH2 0x3E0 JUMPI DUP1 PUSH4 0xC7654689 EQ PUSH2 0x40A JUMPI DUP1 PUSH4 0xC8F781C2 EQ PUSH2 0x420 JUMPI DUP1 PUSH4 0xD0E30DB0 EQ PUSH2 0x42A JUMPI DUP1 PUSH4 0xFB47E3A2 EQ PUSH2 0x454 JUMPI DUP1 PUSH4 0xFF28EBAC EQ PUSH2 0x47E JUMPI PUSH2 0x134 JUMP JUMPDEST DUP1 PUSH4 0x8BDA91AB EQ PUSH2 0x2FA JUMPI DUP1 PUSH4 0x9A67DD08 EQ PUSH2 0x322 JUMPI DUP1 PUSH4 0xAA8C217C EQ PUSH2 0x34A JUMPI DUP1 PUSH4 0xAB786C68 EQ PUSH2 0x374 JUMPI DUP1 PUSH4 0xB6146665 EQ PUSH2 0x3B0 JUMPI PUSH2 0x134 JUMP JUMPDEST DUP1 PUSH4 0x466ADD1C GT PUSH2 0xFC JUMPI DUP1 PUSH4 0x466ADD1C EQ PUSH2 0x210 JUMPI DUP1 PUSH4 0x5361178C EQ PUSH2 0x23E JUMPI DUP1 PUSH4 0x5C5499A0 EQ PUSH2 0x266 JUMPI DUP1 PUSH4 0x70DEA79A EQ PUSH2 0x27C JUMPI DUP1 PUSH4 0x75A598EA EQ PUSH2 0x2A6 JUMPI DUP1 PUSH4 0x83F093E1 EQ PUSH2 0x2D0 JUMPI PUSH2 0x134 JUMP JUMPDEST DUP1 PUSH4 0x1A39D8EF EQ PUSH2 0x138 JUMPI DUP1 PUSH4 0x1D8103FD EQ PUSH2 0x162 JUMPI DUP1 PUSH4 0x25D9F34F EQ PUSH2 0x18C JUMPI DUP1 PUSH4 0x3B417A82 EQ PUSH2 0x1B6 JUMPI DUP1 PUSH4 0x3BA0B9A9 EQ PUSH2 0x1E6 JUMPI JUMPDEST PUSH0 DUP1 REVERT JUMPDEST CALLVALUE DUP1 ISZERO PUSH2 0x143 JUMPI PUSH0 DUP1 REVERT JUMPDEST POP PUSH2 0x14C PUSH2 0x4A8 JUMP JUMPDEST PUSH1 0x40 MLOAD PUSH2 0x159 SWAP2 SWAP1 PUSH2 0x2F66 JUMP JUMPDEST PUSH1 0x40 MLOAD DUP1 SWAP2 SUB SWAP1 RETURN JUMPDEST CALLVALUE DUP1 ISZERO PUSH2 0x16D JUMPI PUSH0 DUP1 REVERT JUMPDEST POP PUSH2 0x176 PUSH2 0x4AE JUMP JUMPDEST PUSH1 0x40 MLOAD PUSH2 0x183 SWAP2 SWAP1 PUSH2 0x2FEF JUMP JUMPDEST PUSH1 0x40 MLOAD DUP1 SWAP2 SUB SWAP1 RETURN JUMPDEST CALLVALUE DUP1 ISZERO PUSH2 0x197 JUMPI PUSH0 DUP1 REVERT JUMPDEST POP PUSH2 0x1A0 PUSH2 0x53A JUMP JUMPDEST PUSH1 0x40 MLOAD PUSH2 0x1AD SWAP2 SWAP1 PUSH2 0x2F66 JUMP JUMPDEST PUSH1 0x40 MLOAD DUP1 SWAP2 SUB SWAP1 RETURN JUMPDEST CALLVALUE DUP1 ISZERO PUSH2 0x1C1 JUMPI PUSH0 DUP1 REVERT JUMPDEST POP PUSH2 0x1CA PUSH2 0x540 JUMP JUMPDEST PUSH1 0x40 MLOAD PUSH2 0x1DD SWAP8 SWAP7 SWAP6 SWAP5 SWAP4 SWAP3 SWAP2 SWAP1 PUSH2 0x300F JUMP JUMPDEST PUSH1 0x40 MLOAD DUP1 SWAP2 SUB SWAP1 RETURN JUMPDEST CALLVALUE DUP1 ISZERO PUSH2 0x1F1 JUMPI PUSH0 DUP1 REVERT JUMPDEST POP PUSH2 0x1FA PUSH2 0x80D JUMP JUMPDEST PUSH1 0x40 MLOAD PUSH2 0x207 SWAP2 SWAP1 PUSH2 0x2F66 JUMP JUMPDEST PUSH1 0x40 MLOAD DUP1 SWAP2 SUB SWAP1 RETURN JUMPDEST CALLVALUE DUP1 ISZERO PUSH2 0x21B JUMPI PUSH0 DUP1 REVERT JUMPDEST POP PUSH2 0x224 PUSH2 0x813 JUMP JUMPDEST PUSH1 0x40 MLOAD PUSH2 0x235 SWAP6 SWAP5 SWAP4 SWAP3 SWAP2 SWAP1 PUSH2 0x309F JUMP JUMPDEST PUSH1 0x40 MLOAD DUP1 SWAP2 SUB SWAP1 RETURN JUMPDEST CALLVALUE DUP1 ISZERO PUSH2 0x249 JUMPI PUSH0 DUP1 REVERT JUMPDEST POP PUSH2 0x264 PUSH1 0x4 DUP1 CALLDATASIZE SUB DUP2 ADD SWAP1 PUSH2 0x25F SWAP2 SWAP1 PUSH2 0x3242 JUMP JUMPDEST PUSH2 0xA32 JUMP JUMPDEST STOP JUMPDEST CALLVALUE DUP1 ISZERO PUSH2 0x271 JUMPI PUSH0 DUP1 REVERT JUMPDEST POP PUSH2 0x27A PUSH2 0xB26 JUMP JUMPDEST STOP JUMPDEST CALLVALUE DUP1 ISZERO PUSH2 0x287 JUMPI PUSH0 DUP1 REVERT JUMPDEST POP PUSH2 0x290 PUSH2 0xDED JUMP JUMPDEST PUSH1 0x40 MLOAD PUSH2 0x29D SWAP2 SWAP1 PUSH2 0x2F66 JUMP JUMPDEST PUSH1 0x40 MLOAD DUP1 SWAP2 SUB SWAP1 RETURN JUMPDEST CALLVALUE DUP1 ISZERO PUSH2 0x2B1 JUMPI PUSH0 DUP1 REVERT JUMPDEST POP PUSH2 0x2BA PUSH2 0xDF3 JUMP JUMPDEST PUSH1 0x40 MLOAD PUSH2 0x2C7 SWAP2 SWAP1 PUSH2 0x32A3 JUMP JUMPDEST PUSH1 0x40 MLOAD DUP1 SWAP2 SUB SWAP1 RETURN JUMPDEST CALLVALUE DUP1 ISZERO PUSH2 0x2DB JUMPI PUSH0 DUP1 REVERT JUMPDEST POP PUSH2 0x2E4 PUSH2 0xE06 JUMP JUMPDEST PUSH1 0x40 MLOAD PUSH2 0x2F1 SWAP2 SWAP1 PUSH2 0x2FEF JUMP JUMPDEST PUSH1 0x40 MLOAD DUP1 SWAP2 SUB SWAP1 RETURN JUMPDEST CALLVALUE DUP1 ISZERO PUSH2 0x305 JUMPI PUSH0 DUP1 REVERT JUMPDEST POP PUSH2 0x320 PUSH1 0x4 DUP1 CALLDATASIZE SUB DUP2 ADD SWAP1 PUSH2 0x31B SWAP2 SWAP1 PUSH2 0x32E6 JUMP JUMPDEST PUSH2 0xE92 JUMP JUMPDEST STOP JUMPDEST CALLVALUE DUP1 ISZERO PUSH2 0x32D JUMPI PUSH0 DUP1 REVERT JUMPDEST POP PUSH2 0x348 PUSH1 0x4 DUP1 CALLDATASIZE SUB DUP2 ADD SWAP1 PUSH2 0x343 SWAP2 SWAP1 PUSH2 0x33B1 JUMP JUMPDEST PUSH2 0xFA9 JUMP JUMPDEST STOP JUMPDEST CALLVALUE DUP1 ISZERO PUSH2 0x355 JUMPI PUSH0 DUP1 REVERT JUMPDEST POP PUSH2 0x35E PUSH2 0x119D JUMP JUMPDEST PUSH1 0x40 MLOAD PUSH2 0x36B SWAP2 SWAP1 PUSH2 0x2F66 JUMP JUMPDEST PUSH1 0x40 MLOAD DUP1 SWAP2 SUB SWAP1 RETURN JUMPDEST CALLVALUE DUP1 ISZERO PUSH2 0x37F JUMPI PUSH0 DUP1 REVERT JUMPDEST POP PUSH2 0x39A PUSH1 0x4 DUP1 CALLDATASIZE SUB DUP2 ADD SWAP1 PUSH2 0x395 SWAP2 SWAP1 PUSH2 0x3455 JUMP JUMPDEST PUSH2 0x11A3 JUMP JUMPDEST PUSH1 0x40 MLOAD PUSH2 0x3A7 SWAP2 SWAP1 PUSH2 0x32A3 JUMP JUMPDEST PUSH1 0x40 MLOAD DUP1 SWAP2 SUB SWAP1 RETURN JUMPDEST CALLVALUE DUP1 ISZERO PUSH2 0x3BB JUMPI PUSH0 DUP1 REVERT JUMPDEST POP PUSH2 0x3C4 PUSH2 0x1209 JUMP JUMPDEST PUSH1 0x40 MLOAD PUSH2 0x3D7 SWAP8 SWAP7 SWAP6 SWAP5 SWAP4 SWAP3 SWAP2 SWAP1 PUSH2 0x3527 JUMP JUMPDEST PUSH1 0x40 MLOAD DUP1 SWAP2 SUB SWAP1 RETURN JUMPDEST CALLVALUE DUP1 ISZERO PUSH2 0x3EB JUMPI PUSH0 DUP1 REVERT JUMPDEST POP PUSH2 0x3F4 PUSH2 0x1285 JUMP JUMPDEST PUSH1 0x40 MLOAD PUSH2 0x401 SWAP2 SWAP1 PUSH2 0x3594 JUMP JUMPDEST PUSH1 0x40 MLOAD DUP1 SWAP2 SUB SWAP1 RETURN JUMPDEST CALLVALUE DUP1 ISZERO PUSH2 0x415 JUMPI PUSH0 DUP1 REVERT JUMPDEST POP PUSH2 0x41E PUSH2 0x12AA JUMP JUMPDEST STOP JUMPDEST PUSH2 0x428 PUSH2 0x14BD JUMP JUMPDEST STOP JUMPDEST CALLVALUE DUP1 ISZERO PUSH2 0x435 JUMPI PUSH0 DUP1 REVERT JUMPDEST POP PUSH2 0x43E PUSH2 0x15F8 JUMP JUMPDEST PUSH1 0x40 MLOAD PUSH2 0x44B SWAP2 SWAP1 PUSH2 0x2F66 JUMP JUMPDEST PUSH1 0x40 MLOAD DUP1 SWAP2 SUB SWAP1 RETURN JUMPDEST CALLVALUE DUP1 ISZERO PUSH2 0x45F JUMPI PUSH0 DUP1 REVERT JUMPDEST POP PUSH2 0x468 PUSH2 0x15FE JUMP JUMPDEST PUSH1 0x40 MLOAD PUSH2 0x475 SWAP2 SWAP1 PUSH2 0x3594 JUMP JUMPDEST PUSH1 0x40 MLOAD DUP1 SWAP2 SUB SWAP1 RETURN JUMPDEST CALLVALUE DUP1 ISZERO PUSH2 0x489 JUMPI PUSH0 DUP1 REVERT JUMPDEST POP PUSH2 0x492 PUSH2 0x1621 JUMP JUMPDEST PUSH1 0x40 MLOAD PUSH2 0x49F SWAP2 SWAP1 PUSH2 0x32A3 JUMP JUMPDEST PUSH1 0x40 MLOAD DUP1 SWAP2 SUB SWAP1 RETURN JUMPDEST PUSH1 0x4 SLOAD DUP2 JUMP JUMPDEST PUSH1 0x8 DUP1 SLOAD PUSH2 0x4BB SWAP1 PUSH2 0x35DA JUMP JUMPDEST DUP1 PUSH1 0x1F ADD PUSH1 0x20 DUP1 SWAP2 DIV MUL PUSH1 0x20 ADD PUSH1 0x40 MLOAD SWAP1 DUP2 ADD PUSH1 0x40 MSTORE DUP1 SWAP3 SWAP2 SWAP1 DUP2 DUP2 MSTORE PUSH1 0x20 ADD DUP3 DUP1 SLOAD PUSH2 0x4E7 SWAP1 PUSH2 0x35DA JUMP JUMPDEST DUP1 ISZERO PUSH2 0x532 JUMPI DUP1 PUSH1 0x1F LT PUSH2 0x509 JUMPI PUSH2 0x100 DUP1 DUP4 SLOAD DIV MUL DUP4 MSTORE SWAP2 PUSH1 0x20 ADD SWAP2 PUSH2 0x532 JUMP JUMPDEST DUP3 ADD SWAP2 SWAP1 PUSH0 MSTORE PUSH1 0x20 PUSH0 KECCAK256 SWAP1 JUMPDEST DUP2 SLOAD DUP2 MSTORE SWAP1 PUSH1 0x1 ADD SWAP1 PUSH1 0x20 ADD DUP1 DUP4 GT PUSH2 0x515 JUMPI DUP3 SWAP1 SUB PUSH1 0x1F AND DUP3 ADD SWAP2 JUMPDEST POP POP POP POP POP DUP2 JUMP JUMPDEST PUSH1 0x6 SLOAD DUP2 JUMP JUMPDEST PUSH1 0xB DUP1 PUSH0 ADD DUP1 SLOAD PUSH2 0x550 SWAP1 PUSH2 0x35DA JUMP JUMPDEST DUP1 PUSH1 0x1F ADD PUSH1 0x20 DUP1 SWAP2 DIV MUL PUSH1 0x20 ADD PUSH1 0x40 MLOAD SWAP1 DUP2 ADD PUSH1 0x40 MSTORE DUP1 SWAP3 SWAP2 SWAP1 DUP2 DUP2 MSTORE PUSH1 0x20 ADD DUP3 DUP1 SLOAD PUSH2 0x57C SWAP1 PUSH2 0x35DA JUMP JUMPDEST DUP1 ISZERO PUSH2 0x5C7 JUMPI DUP1 PUSH1 0x1F LT PUSH2 0x59E JUMPI PUSH2 0x100 DUP1 DUP4 SLOAD DIV MUL DUP4 MSTORE SWAP2 PUSH1 0x20 ADD SWAP2 PUSH2 0x5C7 JUMP JUMPDEST DUP3 ADD SWAP2 SWAP1 PUSH0 MSTORE PUSH1 0x20 PUSH0 KECCAK256 SWAP1 JUMPDEST DUP2 SLOAD DUP2 MSTORE SWAP1 PUSH1 0x1 ADD SWAP1 PUSH1 0x20 ADD DUP1 DUP4 GT PUSH2 0x5AA JUMPI DUP3 SWAP1 SUB PUSH1 0x1F AND DUP3 ADD SWAP2 JUMPDEST POP POP POP POP POP SWAP1 DUP1 PUSH1 0x1 ADD DUP1 SLOAD PUSH2 0x5DC SWAP1 PUSH2 0x35DA JUMP JUMPDEST DUP1 PUSH1 0x1F ADD PUSH1 0x20 DUP1 SWAP2 DIV MUL PUSH1 0x20 ADD PUSH1 0x40 MLOAD SWAP1 DUP2 ADD PUSH1 0x40 MSTORE DUP1 SWAP3 SWAP2 SWAP1 DUP2 DUP2 MSTORE PUSH1 0x20 ADD DUP3 DUP1 SLOAD PUSH2 0x608 SWAP1 PUSH2 0x35DA JUMP JUMPDEST DUP1 ISZERO PUSH2 0x653 JUMPI DUP1 PUSH1 0x1F LT PUSH2 0x62A JUMPI PUSH2 0x100 DUP1 DUP4 SLOAD DIV MUL DUP4 MSTORE SWAP2 PUSH1 0x20 ADD SWAP2 PUSH2 0x653 JUMP JUMPDEST DUP3 ADD SWAP2 SWAP1 PUSH0 MSTORE PUSH1 0x20 PUSH0 KECCAK256 SWAP1 JUMPDEST DUP2 SLOAD DUP2 MSTORE SWAP1 PUSH1 0x1 ADD SWAP1 PUSH1 0x20 ADD DUP1 DUP4 GT PUSH2 0x636 JUMPI DUP3 SWAP1 SUB PUSH1 0x1F AND DUP3 ADD SWAP2 JUMPDEST POP POP POP POP POP SWAP1 DUP1 PUSH1 0x2 ADD DUP1 SLOAD PUSH2 0x668 SWAP1 PUSH2 0x35DA JUMP JUMPDEST DUP1 PUSH1 0x1F ADD PUSH1 0x20 DUP1 SWAP2 DIV MUL PUSH1 0x20 ADD PUSH1 0x40 MLOAD SWAP1 DUP2 ADD PUSH1 0x40 MSTORE DUP1 SWAP3 SWAP2 SWAP1 DUP2 DUP2 MSTORE PUSH1 0x20 ADD DUP3 DUP1 SLOAD PUSH2 0x694 SWAP1 PUSH2 0x35DA JUMP JUMPDEST DUP1 ISZERO PUSH2 0x6DF JUMPI DUP1 PUSH1 0x1F LT PUSH2 0x6B6 JUMPI PUSH2 0x100 DUP1 DUP4 SLOAD DIV MUL DUP4 MSTORE SWAP2 PUSH1 0x20 ADD SWAP2 PUSH2 0x6DF JUMP JUMPDEST DUP3 ADD SWAP2 SWAP1 PUSH0 MSTORE PUSH1 0x20 PUSH0 KECCAK256 SWAP1 JUMPDEST DUP2 SLOAD DUP2 MSTORE SWAP1 PUSH1 0x1 ADD SWAP1 PUSH1 0x20 ADD DUP1 DUP4 GT PUSH2 0x6C2 JUMPI DUP3 SWAP1 SUB PUSH1 0x1F AND DUP3 ADD SWAP2 JUMPDEST POP POP POP POP POP SWAP1 DUP1 PUSH1 0x3 ADD DUP1 SLOAD PUSH2 0x6F4 SWAP1 PUSH2 0x35DA JUMP JUMPDEST DUP1 PUSH1 0x1F ADD PUSH1 0x20 DUP1 SWAP2 DIV MUL PUSH1 0x20 ADD PUSH1 0x40 MLOAD SWAP1 DUP2 ADD PUSH1 0x40 MSTORE DUP1 SWAP3 SWAP2 SWAP1 DUP2 DUP2 MSTORE PUSH1 0x20 ADD DUP3 DUP1 SLOAD PUSH2 0x720 SWAP1 PUSH2 0x35DA JUMP JUMPDEST DUP1 ISZERO PUSH2 0x76B JUMPI DUP1 PUSH1 0x1F LT PUSH2 0x742 JUMPI PUSH2 0x100 DUP1 DUP4 SLOAD DIV MUL DUP4 MSTORE SWAP2 PUSH1 0x20 ADD SWAP2 PUSH2 0x76B JUMP JUMPDEST DUP3 ADD SWAP2 SWAP1 PUSH0 MSTORE PUSH1 0x20 PUSH0 KECCAK256 SWAP1 JUMPDEST DUP2 SLOAD DUP2 MSTORE SWAP1 PUSH1 0x1 ADD SWAP1 PUSH1 0x20 ADD DUP1 DUP4 GT PUSH2 0x74E JUMPI DUP3 SWAP1 SUB PUSH1 0x1F AND DUP3 ADD SWAP2 JUMPDEST POP POP POP POP POP SWAP1 DUP1 PUSH1 0x4 ADD DUP1 SLOAD PUSH2 0x780 SWAP1 PUSH2 0x35DA JUMP JUMPDEST DUP1 PUSH1 0x1F ADD PUSH1 0x20 DUP1 SWAP2 DIV MUL PUSH1 0x20 ADD PUSH1 0x40 MLOAD SWAP1 DUP2 ADD PUSH1 0x40 MSTORE DUP1 SWAP3 SWAP2 SWAP1 DUP2 DUP2 MSTORE PUSH1 0x20 ADD DUP3 DUP1 SLOAD PUSH2 0x7AC SWAP1 PUSH2 0x35DA JUMP JUMPDEST DUP1 ISZERO PUSH2 0x7F7 JUMPI DUP1 PUSH1 0x1F LT PUSH2 0x7CE JUMPI PUSH2 0x100 DUP1 DUP4 SLOAD DIV MUL DUP4 MSTORE SWAP2 PUSH1 0x20 ADD SWAP2 PUSH2 0x7F7 JUMP JUMPDEST DUP3 ADD SWAP2 SWAP1 PUSH0 MSTORE PUSH1 0x20 PUSH0 KECCAK256 SWAP1 JUMPDEST DUP2 SLOAD DUP2 MSTORE SWAP1 PUSH1 0x1 ADD SWAP1 PUSH1 0x20 ADD DUP1 DUP4 GT PUSH2 0x7DA JUMPI DUP3 SWAP1 SUB PUSH1 0x1F AND DUP3 ADD SWAP2 JUMPDEST POP POP POP POP POP SWAP1 DUP1 PUSH1 0x5 ADD SLOAD SWAP1 DUP1 PUSH1 0x6 ADD SLOAD SWAP1 POP DUP8 JUMP JUMPDEST PUSH1 0x5 SLOAD DUP2 JUMP JUMPDEST PUSH0 DUP1 PUSH1 0x60 DUP1 PUSH1 0x60 PUSH1 0xA PUSH1 0x1 SWAP1 SLOAD SWAP1 PUSH2 0x100 EXP SWAP1 DIV PUSH1 0xFF AND PUSH2 0x869 JUMPI PUSH1 0x40 MLOAD PUSH32 0x8C379A000000000000000000000000000000000000000000000000000000000 DUP2 MSTORE PUSH1 0x4 ADD PUSH2 0x860 SWAP1 PUSH2 0x3664 JUMP JUMPDEST PUSH1 0x40 MLOAD DUP1 SWAP2 SUB SWAP1 REVERT JUMPDEST PUSH1 0xB PUSH1 0x6 ADD SLOAD PUSH1 0xB PUSH1 0x5 ADD SLOAD PUSH1 0xB PUSH1 0x3 ADD PUSH1 0xB PUSH1 0x1 ADD PUSH1 0xB PUSH0 ADD DUP3 DUP1 SLOAD PUSH2 0x88F SWAP1 PUSH2 0x35DA JUMP JUMPDEST DUP1 PUSH1 0x1F ADD PUSH1 0x20 DUP1 SWAP2 DIV MUL PUSH1 0x20 ADD PUSH1 0x40 MLOAD SWAP1 DUP2 ADD PUSH1 0x40 MSTORE DUP1 SWAP3 SWAP2 SWAP1 DUP2 DUP2 MSTORE PUSH1 0x20 ADD DUP3 DUP1 SLOAD PUSH2 0x8BB SWAP1 PUSH2 0x35DA JUMP JUMPDEST DUP1 ISZERO PUSH2 0x906 JUMPI DUP1 PUSH1 0x1F LT PUSH2 0x8DD JUMPI PUSH2 0x100 DUP1 DUP4 SLOAD DIV MUL DUP4 MSTORE SWAP2 PUSH1 0x20 ADD SWAP2 PUSH2 0x906 JUMP JUMPDEST DUP3 ADD SWAP2 SWAP1 PUSH0 MSTORE PUSH1 0x20 PUSH0 KECCAK256 SWAP1 JUMPDEST DUP2 SLOAD DUP2 MSTORE SWAP1 PUSH1 0x1 ADD SWAP1 PUSH1 0x20 ADD DUP1 DUP4 GT PUSH2 0x8E9 JUMPI DUP3 SWAP1 SUB PUSH1 0x1F AND DUP3 ADD SWAP2 JUMPDEST POP POP POP POP POP SWAP3 POP DUP2 DUP1 SLOAD PUSH2 0x919 SWAP1 PUSH2 0x35DA JUMP JUMPDEST DUP1 PUSH1 0x1F ADD PUSH1 0x20 DUP1 SWAP2 DIV MUL PUSH1 0x20 ADD PUSH1 0x40 MLOAD SWAP1 DUP2 ADD PUSH1 0x40 MSTORE DUP1 SWAP3 SWAP2 SWAP1 DUP2 DUP2 MSTORE PUSH1 0x20 ADD DUP3 DUP1 SLOAD PUSH2 0x945 SWAP1 PUSH2 0x35DA JUMP JUMPDEST DUP1 ISZERO PUSH2 0x990 JUMPI DUP1 PUSH1 0x1F LT PUSH2 0x967 JUMPI PUSH2 0x100 DUP1 DUP4 SLOAD DIV MUL DUP4 MSTORE SWAP2 PUSH1 0x20 ADD SWAP2 PUSH2 0x990 JUMP JUMPDEST DUP3 ADD SWAP2 SWAP1 PUSH0 MSTORE PUSH1 0x20 PUSH0 KECCAK256 SWAP1 JUMPDEST DUP2 SLOAD DUP2 MSTORE SWAP1 PUSH1 0x1 ADD SWAP1 PUSH1 0x20 ADD DUP1 DUP4 GT PUSH2 0x973 JUMPI DUP3 SWAP1 SUB PUSH1 0x1F AND DUP3 ADD SWAP2 JUMPDEST POP POP POP POP POP SWAP2 POP DUP1 DUP1 SLOAD PUSH2 0x9A3 SWAP1 PUSH2 0x35DA JUMP JUMPDEST DUP1 PUSH1 0x1F ADD PUSH1 0x20 DUP1 SWAP2 DIV MUL PUSH1 0x20 ADD PUSH1 0x40 MLOAD SWAP1 DUP2 ADD PUSH1 0x40 MSTORE DUP1 SWAP3 SWAP2 SWAP1 DUP2 DUP2 MSTORE PUSH1 0x20 ADD DUP3 DUP1 SLOAD PUSH2 0x9CF SWAP1 PUSH2 0x35DA JUMP JUMPDEST DUP1 ISZERO PUSH2 0xA1A JUMPI DUP1 PUSH1 0x1F LT PUSH2 0x9F1 JUMPI PUSH2 0x100 DUP1 DUP4 SLOAD DIV MUL DUP4 MSTORE SWAP2 PUSH1 0x20 ADD SWAP2 PUSH2 0xA1A JUMP JUMPDEST DUP3 ADD SWAP2 SWAP1 PUSH0 MSTORE PUSH1 0x20 PUSH0 KECCAK256 SWAP1 JUMPDEST DUP2 SLOAD DUP2 MSTORE SWAP1 PUSH1 0x1 ADD SWAP1 PUSH1 0x20 ADD DUP1 DUP4 GT PUSH2 0x9FD JUMPI DUP3 SWAP1 SUB PUSH1 0x1F AND DUP3 ADD SWAP2 JUMPDEST POP POP POP POP POP SWAP1 POP SWAP5 POP SWAP5 POP SWAP5 POP SWAP5 POP SWAP5 POP SWAP1 SWAP2 SWAP3 SWAP4 SWAP5 JUMP JUMPDEST PUSH1 0x1 PUSH0 SWAP1 SLOAD SWAP1 PUSH2 0x100 EXP SWAP1 DIV PUSH20 0xFFFFFFFFFFFFFFFFFFFFFFFFFFFFFFFFFFFFFFFF AND PUSH20 0xFFFFFFFFFFFFFFFFFFFFFFFFFFFFFFFFFFFFFFFF AND CALLER PUSH20 0xFFFFFFFFFFFFFFFFFFFFFFFFFFFFFFFFFFFFFFFF AND EQ PUSH2 0xAC1 JUMPI PUSH1 0x40 MLOAD PUSH32 0x8C379A000000000000000000000000000000000000000000000000000000000 DUP2 MSTORE PUSH1 0x4 ADD PUSH2 0xAB8 SWAP1 PUSH2 0x36F2 JUMP JUMPDEST PUSH1 0x40 MLOAD DUP1 SWAP2 SUB SWAP1 REVERT JUMPDEST DUP1 PUSH1 0x8 SWAP1 DUP2 PUSH2 0xAD0 SWAP2 SWAP1 PUSH2 0x38AD JUMP JUMPDEST POP PUSH32 0x3E52FBBB12F1347BD63824136FA0930B30743AC0B2C238CF13892CF4F4E52969 DUP2 PUSH1 0x40 MLOAD PUSH2 0xB00 SWAP2 SWAP1 PUSH2 0x2FEF JUMP JUMPDEST PUSH1 0x40 MLOAD DUP1 SWAP2 SUB SWAP1 LOG1 PUSH1 0x1 PUSH1 0xA PUSH1 0x1 PUSH2 0x100 EXP DUP2 SLOAD DUP2 PUSH1 0xFF MUL NOT AND SWAP1 DUP4 ISZERO ISZERO MUL OR SWAP1 SSTORE POP POP JUMP JUMPDEST PUSH0 DUP1 SLOAD SWAP1 PUSH2 0x100 EXP SWAP1 DIV PUSH20 0xFFFFFFFFFFFFFFFFFFFFFFFFFFFFFFFFFFFFFFFF AND PUSH20 0xFFFFFFFFFFFFFFFFFFFFFFFFFFFFFFFFFFFFFFFF AND CALLER PUSH20 0xFFFFFFFFFFFFFFFFFFFFFFFFFFFFFFFFFFFFFFFF AND EQ PUSH2 0xBB3 JUMPI PUSH1 0x40 MLOAD PUSH32 0x8C379A000000000000000000000000000000000000000000000000000000000 DUP2 MSTORE PUSH1 0x4 ADD PUSH2 0xBAA SWAP1 PUSH2 0x39EC JUMP JUMPDEST PUSH1 0x40 MLOAD DUP1 SWAP2 SUB SWAP1 REVERT JUMPDEST PUSH1 0x4 SLOAD SELFBALANCE LT ISZERO PUSH2 0xBF8 JUMPI PUSH1 0x40 MLOAD PUSH32 0x8C379A000000000000000000000000000000000000000000000000000000000 DUP2 MSTORE PUSH1 0x4 ADD PUSH2 0xBEF SWAP1 PUSH2 0x3A54 JUMP JUMPDEST PUSH1 0x40 MLOAD DUP1 SWAP2 SUB SWAP1 REVERT JUMPDEST PUSH1 0x1 PUSH0 SWAP1 SLOAD SWAP1 PUSH2 0x100 EXP SWAP1 DIV PUSH20 0xFFFFFFFFFFFFFFFFFFFFFFFFFFFFFFFFFFFFFFFF AND PUSH20 0xFFFFFFFFFFFFFFFFFFFFFFFFFFFFFFFFFFFFFFFF AND PUSH2 0x8FC PUSH1 0x2 SLOAD SWAP1 DUP2 ISZERO MUL SWAP1 PUSH1 0x40 MLOAD PUSH0 PUSH1 0x40 MLOAD DUP1 DUP4 SUB DUP2 DUP6 DUP9 DUP9 CALL SWAP4 POP POP POP POP ISZERO DUP1 ISZERO PUSH2 0xC5E JUMPI RETURNDATASIZE PUSH0 DUP1 RETURNDATACOPY RETURNDATASIZE PUSH0 REVERT JUMPDEST POP PUSH0 DUP1 SLOAD SWAP1 PUSH2 0x100 EXP SWAP1 DIV PUSH20 0xFFFFFFFFFFFFFFFFFFFFFFFFFFFFFFFFFFFFFFFF AND PUSH20 0xFFFFFFFFFFFFFFFFFFFFFFFFFFFFFFFFFFFFFFFF AND PUSH2 0x8FC PUSH1 0x3 SLOAD SWAP1 DUP2 ISZERO MUL SWAP1 PUSH1 0x40 MLOAD PUSH0 PUSH1 0x40 MLOAD DUP1 DUP4 SUB DUP2 DUP6 DUP9 DUP9 CALL SWAP4 POP POP POP POP ISZERO DUP1 ISZERO PUSH2 0xCC3 JUMPI RETURNDATASIZE PUSH0 DUP1 RETURNDATACOPY RETURNDATASIZE PUSH0 REVERT JUMPDEST POP PUSH1 0x1 PUSH0 SWAP1 SLOAD SWAP1 PUSH2 0x100 EXP SWAP1 DIV PUSH20 0xFFFFFFFFFFFFFFFFFFFFFFFFFFFFFFFFFFFFFFFF AND PUSH20 0xFFFFFFFFFFFFFFFFFFFFFFFFFFFFFFFFFFFFFFFF AND CALLER PUSH20 0xFFFFFFFFFFFFFFFFFFFFFFFFFFFFFFFFFFFFFFFF AND PUSH32 0xDDF252AD1BE2C89B69C2B068FC378DAA952BA7F163C4A11628F55A4DF523B3EF PUSH1 0x2 SLOAD PUSH1 0x40 MLOAD PUSH2 0xD44 SWAP2 SWAP1 PUSH2 0x2F66 JUMP JUMPDEST PUSH1 0x40 MLOAD DUP1 SWAP2 SUB SWAP1 LOG3 PUSH0 DUP1 SLOAD SWAP1 PUSH2 0x100 EXP SWAP1 DIV PUSH20 0xFFFFFFFFFFFFFFFFFFFFFFFFFFFFFFFFFFFFFFFF AND PUSH20 0xFFFFFFFFFFFFFFFFFFFFFFFFFFFFFFFFFFFFFFFF AND CALLER PUSH20 0xFFFFFFFFFFFFFFFFFFFFFFFFFFFFFFFFFFFFFFFF AND PUSH32 0xDDF252AD1BE2C89B69C2B068FC378DAA952BA7F163C4A11628F55A4DF523B3EF PUSH1 0x3 SLOAD PUSH1 0x40 MLOAD PUSH2 0xDCA SWAP2 SWAP1 PUSH2 0x2F66 JUMP JUMPDEST PUSH1 0x40 MLOAD DUP1 SWAP2 SUB SWAP1 LOG3 PUSH0 PUSH1 0xA PUSH0 PUSH2 0x100 EXP DUP2 SLOAD DUP2 PUSH1 0xFF MUL NOT AND SWAP1 DUP4 ISZERO ISZERO MUL OR SWAP1 SSTORE POP JUMP JUMPDEST PUSH1 0x7 SLOAD DUP2 JUMP JUMPDEST PUSH1 0xA PUSH1 0x1 SWAP1 SLOAD SWAP1 PUSH2 0x100 EXP SWAP1 DIV PUSH1 0xFF AND DUP2 JUMP JUMPDEST PUSH1 0x9 DUP1 SLOAD PUSH2 0xE13 SWAP1 PUSH2 0x35DA JUMP JUMPDEST DUP1 PUSH1 0x1F ADD PUSH1 0x20 DUP1 SWAP2 DIV MUL PUSH1 0x20 ADD PUSH1 0x40 MLOAD SWAP1 DUP2 ADD PUSH1 0x40 MSTORE DUP1 SWAP3 SWAP2 SWAP1 DUP2 DUP2 MSTORE PUSH1 0x20 ADD DUP3 DUP1 SLOAD PUSH2 0xE3F SWAP1 PUSH2 0x35DA JUMP JUMPDEST DUP1 ISZERO PUSH2 0xE8A JUMPI DUP1 PUSH1 0x1F LT PUSH2 0xE61 JUMPI PUSH2 0x100 DUP1 DUP4 SLOAD DIV MUL DUP4 MSTORE SWAP2 PUSH1 0x20 ADD SWAP2 PUSH2 0xE8A JUMP JUMPDEST DUP3 ADD SWAP2 SWAP1 PUSH0 MSTORE PUSH1 0x20 PUSH0 KECCAK256 SWAP1 JUMPDEST DUP2 SLOAD DUP2 MSTORE SWAP1 PUSH1 0x1 ADD SWAP1 PUSH1 0x20 ADD DUP1 DUP4 GT PUSH2 0xE6D JUMPI DUP3 SWAP1 SUB PUSH1 0x1F AND DUP3 ADD SWAP2 JUMPDEST POP POP POP POP POP DUP2 JUMP JUMPDEST PUSH0 DUP1 SLOAD SWAP1 PUSH2 0x100 EXP SWAP1 DIV PUSH20 0xFFFFFFFFFFFFFFFFFFFFFFFFFFFFFFFFFFFFFFFF AND PUSH20 0xFFFFFFFFFFFFFFFFFFFFFFFFFFFFFFFFFFFFFFFF AND CALLER PUSH20 0xFFFFFFFFFFFFFFFFFFFFFFFFFFFFFFFFFFFFFFFF AND EQ PUSH2 0xF1F JUMPI PUSH1 0x40 MLOAD PUSH32 0x8C379A000000000000000000000000000000000000000000000000000000000 DUP2 MSTORE PUSH1 0x4 ADD PUSH2 0xF16 SWAP1 PUSH2 0x3AE2 JUMP JUMPDEST PUSH1 0x40 MLOAD DUP1 SWAP2 SUB SWAP1 REVERT JUMPDEST DUP5 PUSH1 0xB PUSH0 ADD SWAP1 DUP2 PUSH2 0xF30 SWAP2 SWAP1 PUSH2 0x38AD JUMP JUMPDEST POP DUP4 PUSH1 0xB PUSH1 0x1 ADD SWAP1 DUP2 PUSH2 0xF43 SWAP2 SWAP1 PUSH2 0x38AD JUMP JUMPDEST POP DUP3 PUSH1 0xB PUSH1 0x3 ADD SWAP1 DUP2 PUSH2 0xF56 SWAP2 SWAP1 PUSH2 0x38AD JUMP JUMPDEST POP DUP1 PUSH1 0xB PUSH1 0x6 ADD DUP2 SWAP1 SSTORE POP DUP2 PUSH1 0xB PUSH1 0x5 ADD DUP2 SWAP1 SSTORE POP PUSH32 0x5B1FD024CFDECF12403893EB3F5C7143182CBB3D479096B12FF678DEB056B8AD DUP6 PUSH1 0x40 MLOAD PUSH2 0xF9A SWAP2 SWAP1 PUSH2 0x2FEF JUMP JUMPDEST PUSH1 0x40 MLOAD DUP1 SWAP2 SUB SWAP1 LOG1 POP POP POP POP POP JUMP JUMPDEST PUSH1 0x1 PUSH0 SWAP1 SLOAD SWAP1 PUSH2 0x100 EXP SWAP1 DIV PUSH20 0xFFFFFFFFFFFFFFFFFFFFFFFFFFFFFFFFFFFFFFFF AND PUSH20 0xFFFFFFFFFFFFFFFFFFFFFFFFFFFFFFFFFFFFFFFF AND CALLER PUSH20 0xFFFFFFFFFFFFFFFFFFFFFFFFFFFFFFFFFFFFFFFF AND EQ PUSH2 0x1038 JUMPI PUSH1 0x40 MLOAD PUSH32 0x8C379A000000000000000000000000000000000000000000000000000000000 DUP2 MSTORE PUSH1 0x4 ADD PUSH2 0x102F SWAP1 PUSH2 0x3B4A JUMP JUMPDEST PUSH1 0x40 MLOAD DUP1 SWAP2 SUB SWAP1 REVERT JUMPDEST PUSH1 0x4 SLOAD SELFBALANCE LT ISZERO PUSH2 0x107D JUMPI PUSH1 0x40 MLOAD PUSH32 0x8C379A000000000000000000000000000000000000000000000000000000000 DUP2 MSTORE PUSH1 0x4 ADD PUSH2 0x1074 SWAP1 PUSH2 0x3A54 JUMP JUMPDEST PUSH1 0x40 MLOAD DUP1 SWAP2 SUB SWAP1 REVERT JUMPDEST DUP3 PUSH1 0x9 SWAP1 DUP2 PUSH2 0x108C SWAP2 SWAP1 PUSH2 0x38AD JUMP JUMPDEST POP DUP2 PUSH1 0xB PUSH1 0x2 ADD SWAP1 DUP2 PUSH2 0x109F SWAP2 SWAP1 PUSH2 0x38AD JUMP JUMPDEST POP DUP1 PUSH1 0xB PUSH1 0x4 ADD SWAP1 DUP2 PUSH2 0x10B2 SWAP2 SWAP1 PUSH2 0x38AD JUMP JUMPDEST POP PUSH2 0x10BB PUSH2 0x1633 JUMP JUMPDEST PUSH2 0x1198 JUMPI PUSH1 0x1 PUSH0 SWAP1 SLOAD SWAP1 PUSH2 0x100 EXP SWAP1 DIV PUSH20 0xFFFFFFFFFFFFFFFFFFFFFFFFFFFFFFFFFFFFFFFF AND PUSH20 0xFFFFFFFFFFFFFFFFFFFFFFFFFFFFFFFFFFFFFFFF AND PUSH2 0x8FC PUSH1 0x4 SLOAD SWAP1 DUP2 ISZERO MUL SWAP1 PUSH1 0x40 MLOAD PUSH0 PUSH1 0x40 MLOAD DUP1 DUP4 SUB DUP2 DUP6 DUP9 DUP9 CALL SWAP4 POP POP POP POP ISZERO DUP1 ISZERO PUSH2 0x1125 JUMPI RETURNDATASIZE PUSH0 DUP1 RETURNDATACOPY RETURNDATASIZE PUSH0 REVERT JUMPDEST POP PUSH1 0x1 PUSH0 SWAP1 SLOAD SWAP1 PUSH2 0x100 EXP SWAP1 DIV PUSH20 0xFFFFFFFFFFFFFFFFFFFFFFFFFFFFFFFFFFFFFFFF AND PUSH20 0xFFFFFFFFFFFFFFFFFFFFFFFFFFFFFFFFFFFFFFFF AND PUSH32 0xE4BB88ACDA5194AA84E6FEEDBB6438FFD447BDEE1E1AD8DDA3C32FCFF9A68F08 PUSH1 0x4 SLOAD PUSH1 0x40 MLOAD PUSH2 0x118F SWAP2 SWAP1 PUSH2 0x2F66 JUMP JUMPDEST PUSH1 0x40 MLOAD DUP1 SWAP2 SUB SWAP1 LOG2 JUMPDEST POP POP POP JUMP JUMPDEST PUSH1 0x2 SLOAD DUP2 JUMP JUMPDEST PUSH0 PUSH2 0x11FE PUSH1 0x2 DUP8 PUSH1 0x40 MLOAD PUSH2 0x11B7 SWAP2 SWAP1 PUSH2 0x3BA2 JUMP JUMPDEST PUSH1 0x20 PUSH1 0x40 MLOAD DUP1 DUP4 SUB DUP2 DUP6 GAS STATICCALL ISZERO DUP1 ISZERO PUSH2 0x11D2 JUMPI RETURNDATASIZE PUSH0 DUP1 RETURNDATACOPY RETURNDATASIZE PUSH0 REVERT JUMPDEST POP POP POP PUSH1 0x40 MLOAD RETURNDATASIZE PUSH1 0x1F NOT PUSH1 0x1F DUP3 ADD AND DUP3 ADD DUP1 PUSH1 0x40 MSTORE POP DUP2 ADD SWAP1 PUSH2 0x11F5 SWAP2 SWAP1 PUSH2 0x3BEB JUMP JUMPDEST DUP7 DUP7 DUP7 DUP7 PUSH2 0x16CC JUMP JUMPDEST SWAP1 POP SWAP6 SWAP5 POP POP POP POP POP JUMP JUMPDEST PUSH0 DUP1 PUSH0 DUP1 PUSH0 DUP1 PUSH0 DUP1 PUSH0 SWAP1 SLOAD SWAP1 PUSH2 0x100 EXP SWAP1 DIV PUSH20 0xFFFFFFFFFFFFFFFFFFFFFFFFFFFFFFFFFFFFFFFF AND PUSH1 0x1 PUSH0 SWAP1 SLOAD SWAP1 PUSH2 0x100 EXP SWAP1 DIV PUSH20 0xFFFFFFFFFFFFFFFFFFFFFFFFFFFFFFFFFFFFFFFF AND PUSH1 0x2 SLOAD PUSH1 0x3 SLOAD PUSH1 0x4 SLOAD PUSH1 0x5 SLOAD PUSH1 0xA PUSH0 SWAP1 SLOAD SWAP1 PUSH2 0x100 EXP SWAP1 DIV PUSH1 0xFF AND SWAP7 POP SWAP7 POP SWAP7 POP SWAP7 POP SWAP7 POP SWAP7 POP SWAP7 POP SWAP1 SWAP2 SWAP3 SWAP4 SWAP5 SWAP6 SWAP7 JUMP JUMPDEST PUSH1 0x1 PUSH0 SWAP1 SLOAD SWAP1 PUSH2 0x100 EXP SWAP1 DIV PUSH20 0xFFFFFFFFFFFFFFFFFFFFFFFFFFFFFFFFFFFFFFFF AND DUP2 JUMP JUMPDEST PUSH0 DUP1 SLOAD SWAP1 PUSH2 0x100 EXP SWAP1 DIV PUSH20 0xFFFFFFFFFFFFFFFFFFFFFFFFFFFFFFFFFFFFFFFF AND PUSH20 0xFFFFFFFFFFFFFFFFFFFFFFFFFFFFFFFFFFFFFFFF AND CALLER PUSH20 0xFFFFFFFFFFFFFFFFFFFFFFFFFFFFFFFFFFFFFFFF AND EQ PUSH2 0x1337 JUMPI PUSH1 0x40 MLOAD PUSH32 0x8C379A000000000000000000000000000000000000000000000000000000000 DUP2 MSTORE PUSH1 0x4 ADD PUSH2 0x132E SWAP1 PUSH2 0x39EC JUMP JUMPDEST PUSH1 0x40 MLOAD DUP1 SWAP2 SUB SWAP1 REVERT JUMPDEST PUSH1 0x4 SLOAD SELFBALANCE LT ISZERO PUSH2 0x137C JUMPI PUSH1 0x40 MLOAD PUSH32 0x8C379A000000000000000000000000000000000000000000000000000000000 DUP2 MSTORE PUSH1 0x4 ADD PUSH2 0x1373 SWAP1 PUSH2 0x3A54 JUMP JUMPDEST PUSH1 0x40 MLOAD DUP1 SWAP2 SUB SWAP1 REVERT JUMPDEST PUSH1 0x7 SLOAD PUSH1 0x6 SLOAD PUSH2 0x138C SWAP2 SWAP1 PUSH2 0x3C43 JUMP JUMPDEST TIMESTAMP LT ISZERO PUSH2 0x13CE JUMPI PUSH1 0x40 MLOAD PUSH32 0x8C379A000000000000000000000000000000000000000000000000000000000 DUP2 MSTORE PUSH1 0x4 ADD PUSH2 0x13C5 SWAP1 PUSH2 0x3CC0 JUMP JUMPDEST PUSH1 0x40 MLOAD DUP1 SWAP2 SUB SWAP1 REVERT JUMPDEST PUSH0 DUP1 SLOAD SWAP1 PUSH2 0x100 EXP SWAP1 DIV PUSH20 0xFFFFFFFFFFFFFFFFFFFFFFFFFFFFFFFFFFFFFFFF AND PUSH20 0xFFFFFFFFFFFFFFFFFFFFFFFFFFFFFFFFFFFFFFFF AND PUSH2 0x8FC PUSH1 0x4 SLOAD SWAP1 DUP2 ISZERO MUL SWAP1 PUSH1 0x40 MLOAD PUSH0 PUSH1 0x40 MLOAD DUP1 DUP4 SUB DUP2 DUP6 DUP9 DUP9 CALL SWAP4 POP POP POP POP ISZERO DUP1 ISZERO PUSH2 0x1432 JUMPI RETURNDATASIZE PUSH0 DUP1 RETURNDATACOPY RETURNDATASIZE PUSH0 REVERT JUMPDEST POP PUSH0 DUP1 SLOAD SWAP1 PUSH2 0x100 EXP SWAP1 DIV PUSH20 0xFFFFFFFFFFFFFFFFFFFFFFFFFFFFFFFFFFFFFFFF AND PUSH20 0xFFFFFFFFFFFFFFFFFFFFFFFFFFFFFFFFFFFFFFFF AND PUSH32 0xE4BB88ACDA5194AA84E6FEEDBB6438FFD447BDEE1E1AD8DDA3C32FCFF9A68F08 PUSH1 0x4 SLOAD PUSH1 0x40 MLOAD PUSH2 0x149A SWAP2 SWAP1 PUSH2 0x2F66 JUMP JUMPDEST PUSH1 0x40 MLOAD DUP1 SWAP2 SUB SWAP1 LOG2 PUSH0 PUSH1 0xA PUSH0 PUSH2 0x100 EXP DUP2 SLOAD DUP2 PUSH1 0xFF MUL NOT AND SWAP1 DUP4 ISZERO ISZERO MUL OR SWAP1 SSTORE POP JUMP JUMPDEST PUSH0 DUP1 SLOAD SWAP1 PUSH2 0x100 EXP SWAP1 DIV PUSH20 0xFFFFFFFFFFFFFFFFFFFFFFFFFFFFFFFFFFFFFFFF AND PUSH20 0xFFFFFFFFFFFFFFFFFFFFFFFFFFFFFFFFFFFFFFFF AND CALLER PUSH20 0xFFFFFFFFFFFFFFFFFFFFFFFFFFFFFFFFFFFFFFFF AND EQ PUSH2 0x154A JUMPI PUSH1 0x40 MLOAD PUSH32 0x8C379A000000000000000000000000000000000000000000000000000000000 DUP2 MSTORE PUSH1 0x4 ADD PUSH2 0x1541 SWAP1 PUSH2 0x3D28 JUMP JUMPDEST PUSH1 0x40 MLOAD DUP1 SWAP2 SUB SWAP1 REVERT JUMPDEST PUSH1 0x4 SLOAD CALLVALUE EQ PUSH2 0x158E JUMPI PUSH1 0x40 MLOAD PUSH32 0x8C379A000000000000000000000000000000000000000000000000000000000 DUP2 MSTORE PUSH1 0x4 ADD PUSH2 0x1585 SWAP1 PUSH2 0x3DB6 JUMP JUMPDEST PUSH1 0x40 MLOAD DUP1 SWAP2 SUB SWAP1 REVERT JUMPDEST CALLER PUSH20 0xFFFFFFFFFFFFFFFFFFFFFFFFFFFFFFFFFFFFFFFF AND PUSH32 0xE1FFFCC4923D04B559F4D29A8BFC6CDA04EB5B0D3C460751C2402C5C5CC9109C CALLVALUE PUSH1 0x40 MLOAD PUSH2 0x15D4 SWAP2 SWAP1 PUSH2 0x2F66 JUMP JUMPDEST PUSH1 0x40 MLOAD DUP1 SWAP2 SUB SWAP1 LOG2 PUSH1 0x1 PUSH1 0xA PUSH0 PUSH2 0x100 EXP DUP2 SLOAD DUP2 PUSH1 0xFF MUL NOT AND SWAP1 DUP4 ISZERO ISZERO MUL OR SWAP1 SSTORE POP JUMP JUMPDEST PUSH1 0x3 SLOAD DUP2 JUMP JUMPDEST PUSH0 DUP1 SLOAD SWAP1 PUSH2 0x100 EXP SWAP1 DIV PUSH20 0xFFFFFFFFFFFFFFFFFFFFFFFFFFFFFFFFFFFFFFFF AND DUP2 JUMP JUMPDEST PUSH1 0xA PUSH0 SWAP1 SLOAD SWAP1 PUSH2 0x100 EXP SWAP1 DIV PUSH1 0xFF AND DUP2 JUMP JUMPDEST PUSH0 PUSH20 0x0 PUSH4 0xC2269A7B PUSH1 0xB PUSH1 0x3 ADD PUSH1 0xB PUSH1 0x1 ADD PUSH1 0xB PUSH1 0x2 ADD PUSH1 0xB PUSH1 0x4 ADD PUSH1 0xB PUSH1 0x6 ADD SLOAD PUSH1 0x40 MLOAD DUP7 PUSH4 0xFFFFFFFF AND PUSH1 0xE0 SHL DUP2 MSTORE PUSH1 0x4 ADD PUSH2 0x1688 SWAP6 SWAP5 SWAP4 SWAP3 SWAP2 SWAP1 PUSH2 0x3E74 JUMP JUMPDEST PUSH1 0x20 PUSH1 0x40 MLOAD DUP1 DUP4 SUB DUP2 DUP7 GAS DELEGATECALL ISZERO DUP1 ISZERO PUSH2 0x16A3 JUMPI RETURNDATASIZE PUSH0 DUP1 RETURNDATACOPY RETURNDATASIZE PUSH0 REVERT JUMPDEST POP POP POP POP PUSH1 0x40 MLOAD RETURNDATASIZE PUSH1 0x1F NOT PUSH1 0x1F DUP3 ADD AND DUP3 ADD DUP1 PUSH1 0x40 MSTORE POP DUP2 ADD SWAP1 PUSH2 0x16C7 SWAP2 SWAP1 PUSH2 0x3F0B JUMP JUMPDEST SWAP1 POP SWAP1 JUMP JUMPDEST PUSH0 PUSH2 0x170B PUSH1 0x40 MLOAD DUP1 PUSH1 0x40 ADD PUSH1 0x40 MSTORE DUP1 PUSH1 0x1 DUP2 MSTORE PUSH1 0x20 ADD PUSH32 0x3000000000000000000000000000000000000000000000000000000000000000 DUP2 MSTORE POP PUSH2 0x1906 JUMP JUMPDEST PUSH0 DUP6 EQ DUP1 PUSH2 0x1739 JUMPI POP PUSH32 0xFFFFFFFF00000000FFFFFFFFFFFFFFFFBCE6FAADA7179E84F3B9CAC2FC632551 DUP6 LT ISZERO JUMPDEST DUP1 PUSH2 0x1743 JUMPI POP PUSH0 DUP5 EQ JUMPDEST DUP1 PUSH2 0x176E JUMPI POP PUSH32 0xFFFFFFFF00000000FFFFFFFFFFFFFFFFBCE6FAADA7179E84F3B9CAC2FC632551 DUP5 LT ISZERO JUMPDEST ISZERO PUSH2 0x177B JUMPI PUSH0 SWAP1 POP PUSH2 0x18FD JUMP JUMPDEST PUSH2 0x17B9 PUSH1 0x40 MLOAD DUP1 PUSH1 0x40 ADD PUSH1 0x40 MSTORE DUP1 PUSH1 0x1 DUP2 MSTORE PUSH1 0x20 ADD PUSH32 0x3100000000000000000000000000000000000000000000000000000000000000 DUP2 MSTORE POP PUSH2 0x1906 JUMP JUMPDEST PUSH2 0x17C3 DUP4 DUP4 PUSH2 0x199F JUMP JUMPDEST PUSH2 0x17CF JUMPI PUSH0 SWAP1 POP PUSH2 0x18FD JUMP JUMPDEST PUSH2 0x180D PUSH1 0x40 MLOAD DUP1 PUSH1 0x40 ADD PUSH1 0x40 MSTORE DUP1 PUSH1 0x1 DUP2 MSTORE PUSH1 0x20 ADD PUSH32 0x3200000000000000000000000000000000000000000000000000000000000000 DUP2 MSTORE POP PUSH2 0x1906 JUMP JUMPDEST PUSH0 PUSH2 0x1817 DUP6 PUSH2 0x1B90 JUMP JUMPDEST SWAP1 POP PUSH0 PUSH32 0xFFFFFFFF00000000FFFFFFFFFFFFFFFFBCE6FAADA7179E84F3B9CAC2FC632551 DUP1 PUSH2 0x1849 JUMPI PUSH2 0x1848 PUSH2 0x3F36 JUMP JUMPDEST JUMPDEST DUP3 DUP10 PUSH0 SHR MULMOD SWAP1 POP PUSH0 PUSH32 0xFFFFFFFF00000000FFFFFFFFFFFFFFFFBCE6FAADA7179E84F3B9CAC2FC632551 DUP1 PUSH2 0x1880 JUMPI PUSH2 0x187F PUSH2 0x3F36 JUMP JUMPDEST JUMPDEST DUP4 DUP10 MULMOD SWAP1 POP PUSH0 PUSH2 0x1892 DUP8 DUP8 DUP6 DUP6 PUSH2 0x1C14 JUMP JUMPDEST SWAP1 POP PUSH32 0xFFFFFFFF00000000FFFFFFFFFFFFFFFFBCE6FAADA7179E84F3B9CAC2FC632551 DUP1 PUSH2 0x18C3 JUMPI PUSH2 0x18C2 PUSH2 0x3F36 JUMP JUMPDEST JUMPDEST DUP10 PUSH32 0xFFFFFFFF00000000FFFFFFFFFFFFFFFFBCE6FAADA7179E84F3B9CAC2FC632551 PUSH2 0x18EF SWAP2 SWAP1 PUSH2 0x3F63 JUMP JUMPDEST DUP3 ADDMOD SWAP1 POP PUSH0 DUP2 EQ SWAP5 POP POP POP POP POP JUMPDEST SWAP6 SWAP5 POP POP POP POP POP JUMP JUMPDEST PUSH2 0x199C DUP2 PUSH1 0x40 MLOAD PUSH1 0x24 ADD PUSH2 0x191A SWAP2 SWAP1 PUSH2 0x3FD8 JUMP JUMPDEST PUSH1 0x40 MLOAD PUSH1 0x20 DUP2 DUP4 SUB SUB DUP2 MSTORE SWAP1 PUSH1 0x40 MSTORE PUSH32 0x41304FAC00000000000000000000000000000000000000000000000000000000 PUSH28 0xFFFFFFFFFFFFFFFFFFFFFFFFFFFFFFFFFFFFFFFFFFFFFFFFFFFFFFFF NOT AND PUSH1 0x20 DUP3 ADD DUP1 MLOAD PUSH28 0xFFFFFFFFFFFFFFFFFFFFFFFFFFFFFFFFFFFFFFFFFFFFFFFFFFFFFFFF DUP4 DUP2 DUP4 AND OR DUP4 MSTORE POP POP POP POP PUSH2 0x274D JUMP JUMPDEST POP JUMP JUMPDEST PUSH0 PUSH32 0xFFFFFFFF00000001000000000000000000000000FFFFFFFFFFFFFFFFFFFFFFFF DUP4 LT ISZERO DUP1 PUSH2 0x19EF JUMPI POP PUSH32 0xFFFFFFFF00000001000000000000000000000000FFFFFFFFFFFFFFFFFFFFFFFF DUP3 LT ISZERO JUMPDEST DUP1 PUSH2 0x1A04 JUMPI POP PUSH0 DUP4 EQ DUP1 ISZERO PUSH2 0x1A03 JUMPI POP PUSH0 DUP3 EQ JUMPDEST JUMPDEST ISZERO PUSH2 0x1A11 JUMPI PUSH0 SWAP1 POP PUSH2 0x1B8A JUMP JUMPDEST PUSH0 PUSH32 0xFFFFFFFF00000001000000000000000000000000FFFFFFFFFFFFFFFFFFFFFFFF DUP1 PUSH2 0x1A41 JUMPI PUSH2 0x1A40 PUSH2 0x3F36 JUMP JUMPDEST JUMPDEST DUP4 DUP5 MULMOD SWAP1 POP PUSH0 PUSH32 0xFFFFFFFF00000001000000000000000000000000FFFFFFFFFFFFFFFFFFFFFFFF DUP1 PUSH2 0x1A76 JUMPI PUSH2 0x1A75 PUSH2 0x3F36 JUMP JUMPDEST JUMPDEST PUSH32 0xFFFFFFFF00000001000000000000000000000000FFFFFFFFFFFFFFFFFFFFFFFF DUP1 PUSH2 0x1AA5 JUMPI PUSH2 0x1AA4 PUSH2 0x3F36 JUMP JUMPDEST JUMPDEST PUSH32 0xFFFFFFFF00000001000000000000000000000000FFFFFFFFFFFFFFFFFFFFFFFC DUP8 MULMOD PUSH32 0xFFFFFFFF00000001000000000000000000000000FFFFFFFFFFFFFFFFFFFFFFFF DUP1 PUSH2 0x1AF7 JUMPI PUSH2 0x1AF6 PUSH2 0x3F36 JUMP JUMPDEST JUMPDEST DUP8 PUSH32 0xFFFFFFFF00000001000000000000000000000000FFFFFFFFFFFFFFFFFFFFFFFF DUP1 PUSH2 0x1B27 JUMPI PUSH2 0x1B26 PUSH2 0x3F36 JUMP JUMPDEST JUMPDEST DUP10 DUP11 MULMOD MULMOD ADDMOD SWAP1 POP PUSH32 0xFFFFFFFF00000001000000000000000000000000FFFFFFFFFFFFFFFFFFFFFFFF DUP1 PUSH2 0x1B5D JUMPI PUSH2 0x1B5C PUSH2 0x3F36 JUMP JUMPDEST JUMPDEST PUSH32 0x5AC635D8AA3A93E7B3EBBD55769886BC651D06B0CC53B0F63BCE3C3E27D2604B DUP3 ADDMOD SWAP1 POP DUP1 DUP3 EQ SWAP3 POP POP POP JUMPDEST SWAP3 SWAP2 POP POP JUMP JUMPDEST PUSH0 PUSH1 0x40 MLOAD PUSH1 0x20 DUP2 MSTORE PUSH1 0x20 DUP1 DUP3 ADD MSTORE PUSH1 0x20 PUSH1 0x40 DUP3 ADD MSTORE DUP3 PUSH1 0x60 DUP3 ADD MSTORE PUSH32 0xFFFFFFFF00000000FFFFFFFFFFFFFFFFBCE6FAADA7179E84F3B9CAC2FC63254F PUSH1 0x80 DUP3 ADD MSTORE PUSH32 0xFFFFFFFF00000000FFFFFFFFFFFFFFFFBCE6FAADA7179E84F3B9CAC2FC632551 PUSH1 0xA0 DUP3 ADD MSTORE PUSH1 0x20 DUP2 PUSH1 0xC0 DUP4 PUSH1 0x5 PUSH0 NOT STATICCALL PUSH2 0x1C0A JUMPI PUSH0 DUP1 REVERT JUMPDEST DUP1 MLOAD SWAP2 POP POP SWAP2 SWAP1 POP JUMP JUMPDEST PUSH0 DUP1 PUSH0 DUP1 PUSH0 PUSH1 0xFF SWAP1 POP PUSH0 DUP1 PUSH0 DUP10 EQ DUP1 ISZERO PUSH2 0x1C2D JUMPI POP PUSH0 DUP9 EQ JUMPDEST ISZERO PUSH2 0x1C40 JUMPI PUSH0 SWAP7 POP POP POP POP POP POP POP PUSH2 0x2745 JUMP JUMPDEST PUSH2 0x1C8C PUSH32 0x6B17D1F2E12C4247F8BCE6E563A440F277037D812DEB33A0F4A13945D898C296 PUSH32 0x4FE342E2FE1A7F9B8EE7EB4A7C0F9E162BCE33576B315ECECBB6406837BF51F5 DUP14 DUP14 PUSH2 0x2767 JUMP JUMPDEST DUP1 SWAP3 POP DUP2 SWAP4 POP POP POP PUSH0 DUP3 EQ DUP1 ISZERO PUSH2 0x1CA2 JUMPI POP PUSH0 DUP2 EQ JUMPDEST ISZERO PUSH2 0x1D22 JUMPI PUSH32 0xFFFFFFFF00000000FFFFFFFFFFFFFFFFBCE6FAADA7179E84F3B9CAC2FC632551 DUP1 PUSH2 0x1CD6 JUMPI PUSH2 0x1CD5 PUSH2 0x3F36 JUMP JUMPDEST JUMPDEST DUP9 PUSH32 0xFFFFFFFF00000000FFFFFFFFFFFFFFFFBCE6FAADA7179E84F3B9CAC2FC632551 SUB DUP11 ADDMOD SWAP9 POP PUSH0 SWAP8 POP PUSH0 DUP10 EQ DUP1 ISZERO PUSH2 0x1D0E JUMPI POP PUSH0 DUP9 EQ JUMPDEST ISZERO PUSH2 0x1D21 JUMPI PUSH0 SWAP7 POP POP POP POP POP POP POP PUSH2 0x2745 JUMP JUMPDEST JUMPDEST PUSH1 0x1 DUP10 DUP5 SHR AND PUSH1 0x1 DUP10 DUP6 SHR AND PUSH1 0x1 SHL ADD JUMPDEST PUSH0 DUP2 SUB PUSH2 0x1D57 JUMPI PUSH1 0x1 DUP5 SUB SWAP4 POP PUSH1 0x1 DUP11 DUP6 SHR AND PUSH1 0x1 DUP11 DUP7 SHR AND PUSH1 0x1 SHL ADD SWAP1 POP PUSH2 0x1D33 JUMP JUMPDEST POP PUSH1 0x1 DUP10 DUP5 SHR AND PUSH1 0x1 DUP10 DUP6 SHR AND PUSH1 0x1 SHL ADD SWAP6 POP PUSH1 0x1 DUP7 SUB PUSH2 0x1DB9 JUMPI PUSH32 0x6B17D1F2E12C4247F8BCE6E563A440F277037D812DEB33A0F4A13945D898C296 SWAP7 POP PUSH32 0x4FE342E2FE1A7F9B8EE7EB4A7C0F9E162BCE33576B315ECECBB6406837BF51F5 SWAP4 POP JUMPDEST PUSH1 0x2 DUP7 SUB PUSH2 0x1DC8 JUMPI DUP11 SWAP7 POP DUP10 SWAP4 POP JUMPDEST PUSH1 0x3 DUP7 SUB PUSH2 0x1DD7 JUMPI DUP2 SWAP7 POP DUP1 SWAP4 POP JUMPDEST PUSH1 0x1 DUP4 SUB SWAP3 POP PUSH1 0x1 SWAP6 POP PUSH1 0x1 SWAP5 POP JUMPDEST DUP3 PUSH32 0xFFFFFFFFFFFFFFFFFFFFFFFFFFFFFFFFFFFFFFFFFFFFFFFFFFFFFFFFFFFFFFFF GT ISZERO PUSH2 0x269D JUMPI PUSH32 0xFFFFFFFF00000001000000000000000000000000FFFFFFFFFFFFFFFFFFFFFFFF DUP5 PUSH1 0x2 MULMOD PUSH32 0xFFFFFFFF00000001000000000000000000000000FFFFFFFFFFFFFFFFFFFFFFFF DUP2 DUP3 MULMOD PUSH32 0xFFFFFFFF00000001000000000000000000000000FFFFFFFFFFFFFFFFFFFFFFFF DUP2 DUP11 MULMOD PUSH32 0xFFFFFFFF00000001000000000000000000000000FFFFFFFFFFFFFFFFFFFFFFFF DUP3 DUP5 MULMOD SWAP3 POP PUSH32 0xFFFFFFFF00000001000000000000000000000000FFFFFFFFFFFFFFFFFFFFFFFF DUP1 PUSH32 0xFFFFFFFF00000001000000000000000000000000FFFFFFFFFFFFFFFFFFFFFFFF DUP12 DUP14 ADDMOD PUSH32 0xFFFFFFFF00000001000000000000000000000000FFFFFFFFFFFFFFFFFFFFFFFF DUP13 PUSH32 0xFFFFFFFF00000001000000000000000000000000FFFFFFFFFFFFFFFFFFFFFFFF SUB DUP15 ADDMOD MULMOD PUSH1 0x3 MULMOD PUSH32 0xFFFFFFFF00000001000000000000000000000000FFFFFFFFFFFFFFFFFFFFFFFF DUP10 DUP6 MULMOD SWAP9 POP PUSH32 0xFFFFFFFF00000001000000000000000000000000FFFFFFFFFFFFFFFFFFFFFFFF DUP11 DUP5 MULMOD SWAP10 POP PUSH32 0xFFFFFFFF00000001000000000000000000000000FFFFFFFFFFFFFFFFFFFFFFFF DUP1 DUP4 PUSH32 0xFFFFFFFF00000001000000000000000000000000FFFFFFFFFFFFFFFFFFFFFFFD MULMOD PUSH32 0xFFFFFFFF00000001000000000000000000000000FFFFFFFFFFFFFFFFFFFFFFFF DUP4 DUP5 MULMOD ADDMOD SWAP11 POP PUSH32 0xFFFFFFFF00000001000000000000000000000000FFFFFFFFFFFFFFFFFFFFFFFF DUP1 DUP4 PUSH32 0xFFFFFFFF00000001000000000000000000000000FFFFFFFFFFFFFFFFFFFFFFFF SUB DUP14 ADDMOD DUP3 MULMOD SWAP3 POP PUSH32 0xFFFFFFFF00000001000000000000000000000000FFFFFFFFFFFFFFFFFFFFFFFF DUP4 PUSH32 0xFFFFFFFF00000001000000000000000000000000FFFFFFFFFFFFFFFFFFFFFFFF DUP11 DUP8 MULMOD ADDMOD SWAP8 POP PUSH1 0x1 DUP14 DUP9 SHR AND PUSH1 0x1 DUP14 DUP10 SHR AND PUSH1 0x1 SHL ADD SWAP1 POP DUP1 PUSH2 0x20C2 JUMPI DUP8 PUSH32 0xFFFFFFFF00000001000000000000000000000000FFFFFFFFFFFFFFFFFFFFFFFF SUB SWAP8 POP POP POP POP POP PUSH2 0x2692 JUMP JUMPDEST PUSH1 0x1 DUP2 SUB PUSH2 0x2111 JUMPI PUSH32 0x6B17D1F2E12C4247F8BCE6E563A440F277037D812DEB33A0F4A13945D898C296 SWAP4 POP PUSH32 0x4FE342E2FE1A7F9B8EE7EB4A7C0F9E162BCE33576B315ECECBB6406837BF51F5 SWAP3 POP JUMPDEST PUSH1 0x2 DUP2 SUB PUSH2 0x2120 JUMPI DUP15 SWAP4 POP DUP14 SWAP3 POP JUMPDEST PUSH1 0x3 DUP2 SUB PUSH2 0x212F JUMPI DUP6 SWAP4 POP DUP5 SWAP3 POP JUMPDEST DUP10 PUSH2 0x214B JUMPI DUP4 SWAP11 POP DUP3 SWAP8 POP PUSH1 0x1 SWAP10 POP PUSH1 0x1 SWAP9 POP POP POP POP POP PUSH2 0x2692 JUMP JUMPDEST PUSH32 0xFFFFFFFF00000001000000000000000000000000FFFFFFFFFFFFFFFFFFFFFFFF DUP9 PUSH32 0xFFFFFFFF00000001000000000000000000000000FFFFFFFFFFFFFFFFFFFFFFFF DUP12 DUP7 MULMOD ADDMOD PUSH32 0xFFFFFFFF00000001000000000000000000000000FFFFFFFFFFFFFFFFFFFFFFFF DUP13 PUSH32 0xFFFFFFFF00000001000000000000000000000000FFFFFFFFFFFFFFFFFFFFFFFF SUB PUSH32 0xFFFFFFFF00000001000000000000000000000000FFFFFFFFFFFFFFFFFFFFFFFF DUP14 DUP9 MULMOD ADDMOD SWAP4 POP DUP1 PUSH2 0x248B JUMPI DUP4 PUSH2 0x248A JUMPI PUSH32 0xFFFFFFFF00000001000000000000000000000000FFFFFFFFFFFFFFFFFFFFFFFF DUP10 PUSH32 0xFFFFFFFF00000001000000000000000000000000FFFFFFFFFFFFFFFFFFFFFFFD MULMOD SWAP5 POP PUSH32 0xFFFFFFFF00000001000000000000000000000000FFFFFFFFFFFFFFFFFFFFFFFF DUP6 DUP7 MULMOD SWAP4 POP PUSH32 0xFFFFFFFF00000001000000000000000000000000FFFFFFFFFFFFFFFFFFFFFFFF DUP5 DUP14 MULMOD SWAP3 POP PUSH32 0xFFFFFFFF00000001000000000000000000000000FFFFFFFFFFFFFFFFFFFFFFFF DUP5 DUP7 MULMOD SWAP5 POP PUSH32 0xFFFFFFFF00000001000000000000000000000000FFFFFFFFFFFFFFFFFFFFFFFF DUP1 DUP13 PUSH32 0xFFFFFFFF00000001000000000000000000000000FFFFFFFFFFFFFFFFFFFFFFFF SUB DUP15 ADDMOD PUSH32 0xFFFFFFFF00000001000000000000000000000000FFFFFFFFFFFFFFFFFFFFFFFF DUP14 DUP16 ADDMOD MULMOD SWAP1 POP PUSH32 0xFFFFFFFF00000001000000000000000000000000FFFFFFFFFFFFFFFFFFFFFFFF DUP2 PUSH1 0x3 MULMOD SWAP2 POP PUSH32 0xFFFFFFFF00000001000000000000000000000000FFFFFFFFFFFFFFFFFFFFFFFF DUP11 DUP7 MULMOD SWAP10 POP PUSH32 0xFFFFFFFF00000001000000000000000000000000FFFFFFFFFFFFFFFFFFFFFFFF DUP12 DUP6 MULMOD SWAP11 POP PUSH32 0xFFFFFFFF00000001000000000000000000000000FFFFFFFFFFFFFFFFFFFFFFFF DUP1 DUP5 PUSH32 0xFFFFFFFF00000001000000000000000000000000FFFFFFFFFFFFFFFFFFFFFFFD MULMOD PUSH32 0xFFFFFFFF00000001000000000000000000000000FFFFFFFFFFFFFFFFFFFFFFFF DUP5 DUP6 MULMOD ADDMOD SWAP12 POP PUSH32 0xFFFFFFFF00000001000000000000000000000000FFFFFFFFFFFFFFFFFFFFFFFF DUP1 DUP14 PUSH32 0xFFFFFFFF00000001000000000000000000000000FFFFFFFFFFFFFFFFFFFFFFFF SUB DUP6 ADDMOD DUP4 MULMOD SWAP4 POP PUSH32 0xFFFFFFFF00000001000000000000000000000000FFFFFFFFFFFFFFFFFFFFFFFF DUP1 DUP11 DUP8 MULMOD DUP6 ADDMOD SWAP9 POP POP POP POP POP POP PUSH2 0x2692 JUMP JUMPDEST JUMPDEST PUSH32 0xFFFFFFFF00000001000000000000000000000000FFFFFFFFFFFFFFFFFFFFFFFF DUP5 DUP6 MULMOD SWAP2 POP PUSH32 0xFFFFFFFF00000001000000000000000000000000FFFFFFFFFFFFFFFFFFFFFFFF DUP5 DUP4 MULMOD PUSH32 0xFFFFFFFF00000001000000000000000000000000FFFFFFFFFFFFFFFFFFFFFFFF DUP4 DUP14 MULMOD SWAP12 POP PUSH32 0xFFFFFFFF00000001000000000000000000000000FFFFFFFFFFFFFFFFFFFFFFFF DUP2 DUP13 MULMOD SWAP11 POP PUSH32 0xFFFFFFFF00000001000000000000000000000000FFFFFFFFFFFFFFFFFFFFFFFF DUP4 DUP15 MULMOD PUSH32 0xFFFFFFFF00000001000000000000000000000000FFFFFFFFFFFFFFFFFFFFFFFF DUP1 DUP3 PUSH32 0xFFFFFFFF00000001000000000000000000000000FFFFFFFFFFFFFFFFFFFFFFFD MULMOD PUSH32 0xFFFFFFFF00000001000000000000000000000000FFFFFFFFFFFFFFFFFFFFFFFF DUP5 PUSH32 0xFFFFFFFF00000001000000000000000000000000FFFFFFFFFFFFFFFFFFFFFFFF SUB PUSH32 0xFFFFFFFF00000001000000000000000000000000FFFFFFFFFFFFFFFFFFFFFFFF DUP8 DUP9 MULMOD ADDMOD ADDMOD SWAP4 POP PUSH32 0xFFFFFFFF00000001000000000000000000000000FFFFFFFFFFFFFFFFFFFFFFFF DUP1 DUP4 DUP14 MULMOD PUSH32 0xFFFFFFFF00000001000000000000000000000000FFFFFFFFFFFFFFFFFFFFFFFF DUP6 PUSH32 0xFFFFFFFF00000001000000000000000000000000FFFFFFFFFFFFFFFFFFFFFFFF DUP9 PUSH32 0xFFFFFFFF00000001000000000000000000000000FFFFFFFFFFFFFFFFFFFFFFFF SUB DUP7 ADDMOD MULMOD ADDMOD SWAP11 POP DUP4 SWAP14 POP POP POP POP POP POP POP POP JUMPDEST PUSH1 0x1 DUP4 SUB SWAP3 POP PUSH2 0x1DE6 JUMP JUMPDEST PUSH1 0x40 MLOAD DUP7 PUSH1 0x60 DUP3 ADD MSTORE PUSH1 0x20 DUP2 MSTORE PUSH1 0x20 DUP1 DUP3 ADD MSTORE PUSH1 0x20 PUSH1 0x40 DUP3 ADD MSTORE PUSH32 0xFFFFFFFF00000001000000000000000000000000FFFFFFFFFFFFFFFFFFFFFFFD PUSH1 0x80 DUP3 ADD MSTORE PUSH32 0xFFFFFFFF00000001000000000000000000000000FFFFFFFFFFFFFFFFFFFFFFFF PUSH1 0xA0 DUP3 ADD MSTORE PUSH1 0x20 DUP2 PUSH1 0xC0 DUP4 PUSH1 0x5 PUSH0 NOT STATICCALL PUSH2 0x2716 JUMPI PUSH0 DUP1 REVERT JUMPDEST PUSH32 0xFFFFFFFF00000001000000000000000000000000FFFFFFFFFFFFFFFFFFFFFFFF DUP2 MLOAD DUP10 MULMOD SWAP8 POP POP POP POP POP POP POP POP JUMPDEST SWAP5 SWAP4 POP POP POP POP JUMP JUMPDEST PUSH2 0x2764 DUP2 PUSH2 0x275C PUSH2 0x2814 PUSH2 0x2833 JUMP JUMPDEST PUSH4 0xFFFFFFFF AND JUMP JUMPDEST POP JUMP JUMPDEST PUSH0 DUP1 PUSH0 DUP1 PUSH2 0x2775 DUP9 DUP9 PUSH2 0x283E JUMP JUMPDEST ISZERO PUSH2 0x2787 JUMPI DUP6 DUP6 SWAP4 POP SWAP4 POP POP POP PUSH2 0x280B JUMP JUMPDEST PUSH2 0x2791 DUP7 DUP7 PUSH2 0x283E JUMP JUMPDEST ISZERO PUSH2 0x27A3 JUMPI DUP8 DUP8 SWAP4 POP SWAP4 POP POP POP PUSH2 0x280B JUMP JUMPDEST DUP6 DUP9 EQ DUP1 ISZERO PUSH2 0x27B1 JUMPI POP DUP5 DUP8 EQ JUMPDEST ISZERO PUSH2 0x27D8 JUMPI PUSH2 0x27C3 DUP9 DUP9 PUSH1 0x1 DUP1 PUSH2 0x284A JUMP JUMPDEST DUP1 SWAP5 POP DUP2 SWAP6 POP DUP3 SWAP11 POP DUP4 SWAP12 POP POP POP POP POP PUSH2 0x27F8 JUMP JUMPDEST PUSH2 0x27E7 DUP9 DUP9 PUSH1 0x1 DUP1 DUP11 DUP11 PUSH2 0x2AD2 JUMP JUMPDEST DUP1 SWAP5 POP DUP2 SWAP6 POP DUP3 SWAP11 POP DUP4 SWAP12 POP POP POP POP POP JUMPDEST PUSH2 0x2804 DUP9 DUP9 DUP5 DUP5 PUSH2 0x2DD6 JUMP JUMPDEST SWAP4 POP SWAP4 POP POP POP JUMPDEST SWAP5 POP SWAP5 SWAP3 POP POP POP JUMP JUMPDEST PUSH0 PUSH11 0x636F6E736F6C652E6C6F67 SWAP1 POP PUSH0 DUP1 DUP4 MLOAD PUSH1 0x20 DUP6 ADD DUP5 GAS STATICCALL POP POP POP JUMP JUMPDEST PUSH2 0x2F44 DUP2 SWAP1 POP SWAP2 SWAP1 POP JUMP JUMPDEST PUSH0 DUP1 DUP3 EQ SWAP1 POP SWAP3 SWAP2 POP POP JUMP JUMPDEST PUSH0 DUP1 PUSH0 DUP1 PUSH32 0xFFFFFFFF00000001000000000000000000000000FFFFFFFFFFFFFFFFFFFFFFFF DUP8 PUSH1 0x2 MULMOD SWAP4 POP PUSH32 0xFFFFFFFF00000001000000000000000000000000FFFFFFFFFFFFFFFFFFFFFFFF DUP5 DUP6 MULMOD SWAP2 POP PUSH32 0xFFFFFFFF00000001000000000000000000000000FFFFFFFFFFFFFFFFFFFFFFFF DUP3 DUP10 MULMOD SWAP1 POP PUSH32 0xFFFFFFFF00000001000000000000000000000000FFFFFFFFFFFFFFFFFFFFFFFF DUP3 DUP6 MULMOD SWAP3 POP PUSH32 0xFFFFFFFF00000001000000000000000000000000FFFFFFFFFFFFFFFFFFFFFFFF DUP7 DUP4 MULMOD SWAP2 POP PUSH32 0xFFFFFFFF00000001000000000000000000000000FFFFFFFFFFFFFFFFFFFFFFFF DUP1 PUSH32 0xFFFFFFFF00000001000000000000000000000000FFFFFFFFFFFFFFFFFFFFFFFF DUP9 DUP12 ADDMOD PUSH32 0xFFFFFFFF00000001000000000000000000000000FFFFFFFFFFFFFFFFFFFFFFFF DUP10 PUSH32 0xFFFFFFFF00000001000000000000000000000000FFFFFFFFFFFFFFFFFFFFFFFF SUB DUP13 ADDMOD MULMOD PUSH1 0x3 MULMOD SWAP6 POP PUSH32 0xFFFFFFFF00000001000000000000000000000000FFFFFFFFFFFFFFFFFFFFFFFF DUP1 DUP3 PUSH32 0xFFFFFFFF00000001000000000000000000000000FFFFFFFFFFFFFFFFFFFFFFFD MULMOD PUSH32 0xFFFFFFFF00000001000000000000000000000000FFFFFFFFFFFFFFFFFFFFFFFF DUP9 DUP10 MULMOD ADDMOD SWAP4 POP PUSH32 0xFFFFFFFF00000001000000000000000000000000FFFFFFFFFFFFFFFFFFFFFFFF DUP1 DUP6 PUSH32 0xFFFFFFFF00000001000000000000000000000000FFFFFFFFFFFFFFFFFFFFFFFF SUB DUP4 ADDMOD DUP8 MULMOD SWAP8 POP PUSH32 0xFFFFFFFF00000001000000000000000000000000FFFFFFFFFFFFFFFFFFFFFFFF DUP6 DUP5 MULMOD SWAP1 POP PUSH32 0xFFFFFFFF00000001000000000000000000000000FFFFFFFFFFFFFFFFFFFFFFFF DUP1 DUP9 DUP6 MULMOD PUSH32 0xFFFFFFFF00000001000000000000000000000000FFFFFFFFFFFFFFFFFFFFFFFF SUB DUP10 ADDMOD SWAP3 POP SWAP5 POP SWAP5 POP SWAP5 POP SWAP5 SWAP1 POP JUMP JUMPDEST PUSH0 DUP1 PUSH0 DUP1 PUSH0 DUP10 SUB PUSH2 0x2AEF JUMPI DUP6 DUP6 PUSH1 0x1 DUP1 SWAP4 POP SWAP4 POP SWAP4 POP SWAP4 POP PUSH2 0x2DC9 JUMP JUMPDEST DUP9 PUSH32 0xFFFFFFFF00000001000000000000000000000000FFFFFFFFFFFFFFFFFFFFFFFF SUB SWAP9 POP PUSH32 0xFFFFFFFF00000001000000000000000000000000FFFFFFFFFFFFFFFFFFFFFFFF DUP10 PUSH32 0xFFFFFFFF00000001000000000000000000000000FFFFFFFFFFFFFFFFFFFFFFFF DUP10 DUP9 MULMOD ADDMOD SWAP5 POP PUSH32 0xFFFFFFFF00000001000000000000000000000000FFFFFFFFFFFFFFFFFFFFFFFF DUP11 PUSH32 0xFFFFFFFF00000001000000000000000000000000FFFFFFFFFFFFFFFFFFFFFFFF SUB PUSH32 0xFFFFFFFF00000001000000000000000000000000FFFFFFFFFFFFFFFFFFFFFFFF DUP11 DUP10 MULMOD ADDMOD SWAP6 POP PUSH32 0xFFFFFFFF00000001000000000000000000000000FFFFFFFFFFFFFFFFFFFFFFFF DUP7 DUP8 MULMOD SWAP4 POP PUSH32 0xFFFFFFFF00000001000000000000000000000000FFFFFFFFFFFFFFFFFFFFFFFF DUP7 DUP6 MULMOD SWAP3 POP PUSH32 0xFFFFFFFF00000001000000000000000000000000FFFFFFFFFFFFFFFFFFFFFFFF DUP5 DUP10 MULMOD SWAP2 POP PUSH32 0xFFFFFFFF00000001000000000000000000000000FFFFFFFFFFFFFFFFFFFFFFFF DUP4 DUP9 MULMOD SWAP1 POP PUSH32 0xFFFFFFFF00000001000000000000000000000000FFFFFFFFFFFFFFFFFFFFFFFF DUP5 DUP12 MULMOD SWAP8 POP PUSH32 0xFFFFFFFF00000001000000000000000000000000FFFFFFFFFFFFFFFFFFFFFFFF DUP1 DUP10 PUSH32 0xFFFFFFFF00000001000000000000000000000000FFFFFFFFFFFFFFFFFFFFFFFD MULMOD PUSH32 0xFFFFFFFF00000001000000000000000000000000FFFFFFFFFFFFFFFFFFFFFFFF DUP6 PUSH32 0xFFFFFFFF00000001000000000000000000000000FFFFFFFFFFFFFFFFFFFFFFFF SUB PUSH32 0xFFFFFFFF00000001000000000000000000000000FFFFFFFFFFFFFFFFFFFFFFFF DUP10 DUP11 MULMOD ADDMOD ADDMOD SWAP4 POP PUSH32 0xFFFFFFFF00000001000000000000000000000000FFFFFFFFFFFFFFFFFFFFFFFF DUP1 DUP5 DUP12 MULMOD PUSH32 0xFFFFFFFF00000001000000000000000000000000FFFFFFFFFFFFFFFFFFFFFFFF DUP8 PUSH32 0xFFFFFFFF00000001000000000000000000000000FFFFFFFFFFFFFFFFFFFFFFFF DUP9 PUSH32 0xFFFFFFFF00000001000000000000000000000000FFFFFFFFFFFFFFFFFFFFFFFF SUB DUP14 ADDMOD MULMOD ADDMOD SWAP3 POP JUMPDEST SWAP7 POP SWAP7 POP SWAP7 POP SWAP7 SWAP3 POP POP POP JUMP JUMPDEST PUSH0 DUP1 PUSH0 PUSH2 0x2DE2 DUP5 PUSH2 0x2EC0 JUMP JUMPDEST SWAP1 POP PUSH32 0xFFFFFFFF00000001000000000000000000000000FFFFFFFFFFFFFFFFFFFFFFFF DUP1 PUSH2 0x2E13 JUMPI PUSH2 0x2E12 PUSH2 0x3F36 JUMP JUMPDEST JUMPDEST DUP2 DUP8 MULMOD SWAP2 POP PUSH0 PUSH32 0xFFFFFFFF00000001000000000000000000000000FFFFFFFFFFFFFFFFFFFFFFFF DUP1 PUSH2 0x2E48 JUMPI PUSH2 0x2E47 PUSH2 0x3F36 JUMP JUMPDEST JUMPDEST DUP3 DUP8 MULMOD SWAP1 POP PUSH32 0xFFFFFFFF00000001000000000000000000000000FFFFFFFFFFFFFFFFFFFFFFFF DUP1 PUSH2 0x2E7C JUMPI PUSH2 0x2E7B PUSH2 0x3F36 JUMP JUMPDEST JUMPDEST DUP2 DUP3 MULMOD SWAP2 POP PUSH32 0xFFFFFFFF00000001000000000000000000000000FFFFFFFFFFFFFFFFFFFFFFFF DUP1 PUSH2 0x2EB0 JUMPI PUSH2 0x2EAF PUSH2 0x3F36 JUMP JUMPDEST JUMPDEST DUP3 DUP10 MULMOD SWAP4 POP POP POP SWAP5 POP SWAP5 SWAP3 POP POP POP JUMP JUMPDEST PUSH0 PUSH1 0x40 MLOAD PUSH1 0x20 DUP2 MSTORE PUSH1 0x20 DUP1 DUP3 ADD MSTORE PUSH1 0x20 PUSH1 0x40 DUP3 ADD MSTORE DUP3 PUSH1 0x60 DUP3 ADD MSTORE PUSH32 0xFFFFFFFF00000001000000000000000000000000FFFFFFFFFFFFFFFFFFFFFFFD PUSH1 0x80 DUP3 ADD MSTORE PUSH32 0xFFFFFFFF00000001000000000000000000000000FFFFFFFFFFFFFFFFFFFFFFFF PUSH1 0xA0 DUP3 ADD MSTORE PUSH1 0x20 DUP2 PUSH1 0xC0 DUP4 PUSH1 0x5 PUSH0 NOT STATICCALL PUSH2 0x2F3A JUMPI PUSH0 DUP1 REVERT JUMPDEST DUP1 MLOAD SWAP2 POP POP SWAP2 SWAP1 POP JUMP JUMPDEST PUSH2 0x2F4C PUSH2 0x3FF8 JUMP JUMPDEST JUMP JUMPDEST PUSH0 DUP2 SWAP1 POP SWAP2 SWAP1 POP JUMP JUMPDEST PUSH2 0x2F60 DUP2 PUSH2 0x2F4E JUMP JUMPDEST DUP3 MSTORE POP POP JUMP JUMPDEST PUSH0 PUSH1 0x20 DUP3 ADD SWAP1 POP PUSH2 0x2F79 PUSH0 DUP4 ADD DUP5 PUSH2 0x2F57 JUMP JUMPDEST SWAP3 SWAP2 POP POP JUMP JUMPDEST PUSH0 DUP2 MLOAD SWAP1 POP SWAP2 SWAP1 POP JUMP JUMPDEST PUSH0 DUP3 DUP3 MSTORE PUSH1 0x20 DUP3 ADD SWAP1 POP SWAP3 SWAP2 POP POP JUMP JUMPDEST DUP3 DUP2 DUP4 MCOPY PUSH0 DUP4 DUP4 ADD MSTORE POP POP POP JUMP JUMPDEST PUSH0 PUSH1 0x1F NOT PUSH1 0x1F DUP4 ADD AND SWAP1 POP SWAP2 SWAP1 POP JUMP JUMPDEST PUSH0 PUSH2 0x2FC1 DUP3 PUSH2 0x2F7F JUMP JUMPDEST PUSH2 0x2FCB DUP2 DUP6 PUSH2 0x2F89 JUMP JUMPDEST SWAP4 POP PUSH2 0x2FDB DUP2 DUP6 PUSH1 0x20 DUP7 ADD PUSH2 0x2F99 JUMP JUMPDEST PUSH2 0x2FE4 DUP2 PUSH2 0x2FA7 JUMP JUMPDEST DUP5 ADD SWAP2 POP POP SWAP3 SWAP2 POP POP JUMP JUMPDEST PUSH0 PUSH1 0x20 DUP3 ADD SWAP1 POP DUP2 DUP2 SUB PUSH0 DUP4 ADD MSTORE PUSH2 0x3007 DUP2 DUP5 PUSH2 0x2FB7 JUMP JUMPDEST SWAP1 POP SWAP3 SWAP2 POP POP JUMP JUMPDEST PUSH0 PUSH1 0xE0 DUP3 ADD SWAP1 POP DUP2 DUP2 SUB PUSH0 DUP4 ADD MSTORE PUSH2 0x3027 DUP2 DUP11 PUSH2 0x2FB7 JUMP JUMPDEST SWAP1 POP DUP2 DUP2 SUB PUSH1 0x20 DUP4 ADD MSTORE PUSH2 0x303B DUP2 DUP10 PUSH2 0x2FB7 JUMP JUMPDEST SWAP1 POP DUP2 DUP2 SUB PUSH1 0x40 DUP4 ADD MSTORE PUSH2 0x304F DUP2 DUP9 PUSH2 0x2FB7 JUMP JUMPDEST SWAP1 POP DUP2 DUP2 SUB PUSH1 0x60 DUP4 ADD MSTORE PUSH2 0x3063 DUP2 DUP8 PUSH2 0x2FB7 JUMP JUMPDEST SWAP1 POP DUP2 DUP2 SUB PUSH1 0x80 DUP4 ADD MSTORE PUSH2 0x3077 DUP2 DUP7 PUSH2 0x2FB7 JUMP JUMPDEST SWAP1 POP PUSH2 0x3086 PUSH1 0xA0 DUP4 ADD DUP6 PUSH2 0x2F57 JUMP JUMPDEST PUSH2 0x3093 PUSH1 0xC0 DUP4 ADD DUP5 PUSH2 0x2F57 JUMP JUMPDEST SWAP9 SWAP8 POP POP POP POP POP POP POP POP JUMP JUMPDEST PUSH0 PUSH1 0xA0 DUP3 ADD SWAP1 POP PUSH2 0x30B2 PUSH0 DUP4 ADD DUP9 PUSH2 0x2F57 JUMP JUMPDEST PUSH2 0x30BF PUSH1 0x20 DUP4 ADD DUP8 PUSH2 0x2F57 JUMP JUMPDEST DUP2 DUP2 SUB PUSH1 0x40 DUP4 ADD MSTORE PUSH2 0x30D1 DUP2 DUP7 PUSH2 0x2FB7 JUMP JUMPDEST SWAP1 POP DUP2 DUP2 SUB PUSH1 0x60 DUP4 ADD MSTORE PUSH2 0x30E5 DUP2 DUP6 PUSH2 0x2FB7 JUMP JUMPDEST SWAP1 POP DUP2 DUP2 SUB PUSH1 0x80 DUP4 ADD MSTORE PUSH2 0x30F9 DUP2 DUP5 PUSH2 0x2FB7 JUMP JUMPDEST SWAP1 POP SWAP7 SWAP6 POP POP POP POP POP POP JUMP JUMPDEST PUSH0 PUSH1 0x40 MLOAD SWAP1 POP SWAP1 JUMP JUMPDEST PUSH0 DUP1 REVERT JUMPDEST PUSH0 DUP1 REVERT JUMPDEST PUSH0 DUP1 REVERT JUMPDEST PUSH0 DUP1 REVERT JUMPDEST PUSH32 0x4E487B7100000000000000000000000000000000000000000000000000000000 PUSH0 MSTORE PUSH1 0x41 PUSH1 0x4 MSTORE PUSH1 0x24 PUSH0 REVERT JUMPDEST PUSH2 0x3154 DUP3 PUSH2 0x2FA7 JUMP JUMPDEST DUP2 ADD DUP2 DUP2 LT PUSH8 0xFFFFFFFFFFFFFFFF DUP3 GT OR ISZERO PUSH2 0x3173 JUMPI PUSH2 0x3172 PUSH2 0x311E JUMP JUMPDEST JUMPDEST DUP1 PUSH1 0x40 MSTORE POP POP POP JUMP JUMPDEST PUSH0 PUSH2 0x3185 PUSH2 0x3105 JUMP JUMPDEST SWAP1 POP PUSH2 0x3191 DUP3 DUP3 PUSH2 0x314B JUMP JUMPDEST SWAP2 SWAP1 POP JUMP JUMPDEST PUSH0 PUSH8 0xFFFFFFFFFFFFFFFF DUP3 GT ISZERO PUSH2 0x31B0 JUMPI PUSH2 0x31AF PUSH2 0x311E JUMP JUMPDEST JUMPDEST PUSH2 0x31B9 DUP3 PUSH2 0x2FA7 JUMP JUMPDEST SWAP1 POP PUSH1 0x20 DUP2 ADD SWAP1 POP SWAP2 SWAP1 POP JUMP JUMPDEST DUP3 DUP2 DUP4 CALLDATACOPY PUSH0 DUP4 DUP4 ADD MSTORE POP POP POP JUMP JUMPDEST PUSH0 PUSH2 0x31E6 PUSH2 0x31E1 DUP5 PUSH2 0x3196 JUMP JUMPDEST PUSH2 0x317C JUMP JUMPDEST SWAP1 POP DUP3 DUP2 MSTORE PUSH1 0x20 DUP2 ADD DUP5 DUP5 DUP5 ADD GT ISZERO PUSH2 0x3202 JUMPI PUSH2 0x3201 PUSH2 0x311A JUMP JUMPDEST JUMPDEST PUSH2 0x320D DUP5 DUP3 DUP6 PUSH2 0x31C6 JUMP JUMPDEST POP SWAP4 SWAP3 POP POP POP JUMP JUMPDEST PUSH0 DUP3 PUSH1 0x1F DUP4 ADD SLT PUSH2 0x3229 JUMPI PUSH2 0x3228 PUSH2 0x3116 JUMP JUMPDEST JUMPDEST DUP2 CALLDATALOAD PUSH2 0x3239 DUP5 DUP3 PUSH1 0x20 DUP7 ADD PUSH2 0x31D4 JUMP JUMPDEST SWAP2 POP POP SWAP3 SWAP2 POP POP JUMP JUMPDEST PUSH0 PUSH1 0x20 DUP3 DUP5 SUB SLT ISZERO PUSH2 0x3257 JUMPI PUSH2 0x3256 PUSH2 0x310E JUMP JUMPDEST JUMPDEST PUSH0 DUP3 ADD CALLDATALOAD PUSH8 0xFFFFFFFFFFFFFFFF DUP2 GT ISZERO PUSH2 0x3274 JUMPI PUSH2 0x3273 PUSH2 0x3112 JUMP JUMPDEST JUMPDEST PUSH2 0x3280 DUP5 DUP3 DUP6 ADD PUSH2 0x3215 JUMP JUMPDEST SWAP2 POP POP SWAP3 SWAP2 POP POP JUMP JUMPDEST PUSH0 DUP2 ISZERO ISZERO SWAP1 POP SWAP2 SWAP1 POP JUMP JUMPDEST PUSH2 0x329D DUP2 PUSH2 0x3289 JUMP JUMPDEST DUP3 MSTORE POP POP JUMP JUMPDEST PUSH0 PUSH1 0x20 DUP3 ADD SWAP1 POP PUSH2 0x32B6 PUSH0 DUP4 ADD DUP5 PUSH2 0x3294 JUMP JUMPDEST SWAP3 SWAP2 POP POP JUMP JUMPDEST PUSH2 0x32C5 DUP2 PUSH2 0x2F4E JUMP JUMPDEST DUP2 EQ PUSH2 0x32CF JUMPI PUSH0 DUP1 REVERT JUMPDEST POP JUMP JUMPDEST PUSH0 DUP2 CALLDATALOAD SWAP1 POP PUSH2 0x32E0 DUP2 PUSH2 0x32BC JUMP JUMPDEST SWAP3 SWAP2 POP POP JUMP JUMPDEST PUSH0 DUP1 PUSH0 DUP1 PUSH0 PUSH1 0xA0 DUP7 DUP9 SUB SLT ISZERO PUSH2 0x32FF JUMPI PUSH2 0x32FE PUSH2 0x310E JUMP JUMPDEST JUMPDEST PUSH0 DUP7 ADD CALLDATALOAD PUSH8 0xFFFFFFFFFFFFFFFF DUP2 GT ISZERO PUSH2 0x331C JUMPI PUSH2 0x331B PUSH2 0x3112 JUMP JUMPDEST JUMPDEST PUSH2 0x3328 DUP9 DUP3 DUP10 ADD PUSH2 0x3215 JUMP JUMPDEST SWAP6 POP POP PUSH1 0x20 DUP7 ADD CALLDATALOAD PUSH8 0xFFFFFFFFFFFFFFFF DUP2 GT ISZERO PUSH2 0x3349 JUMPI PUSH2 0x3348 PUSH2 0x3112 JUMP JUMPDEST JUMPDEST PUSH2 0x3355 DUP9 DUP3 DUP10 ADD PUSH2 0x3215 JUMP JUMPDEST SWAP5 POP POP PUSH1 0x40 DUP7 ADD CALLDATALOAD PUSH8 0xFFFFFFFFFFFFFFFF DUP2 GT ISZERO PUSH2 0x3376 JUMPI PUSH2 0x3375 PUSH2 0x3112 JUMP JUMPDEST JUMPDEST PUSH2 0x3382 DUP9 DUP3 DUP10 ADD PUSH2 0x3215 JUMP JUMPDEST SWAP4 POP POP PUSH1 0x60 PUSH2 0x3393 DUP9 DUP3 DUP10 ADD PUSH2 0x32D2 JUMP JUMPDEST SWAP3 POP POP PUSH1 0x80 PUSH2 0x33A4 DUP9 DUP3 DUP10 ADD PUSH2 0x32D2 JUMP JUMPDEST SWAP2 POP POP SWAP3 SWAP6 POP SWAP3 SWAP6 SWAP1 SWAP4 POP JUMP JUMPDEST PUSH0 DUP1 PUSH0 PUSH1 0x60 DUP5 DUP7 SUB SLT ISZERO PUSH2 0x33C8 JUMPI PUSH2 0x33C7 PUSH2 0x310E JUMP JUMPDEST JUMPDEST PUSH0 DUP5 ADD CALLDATALOAD PUSH8 0xFFFFFFFFFFFFFFFF DUP2 GT ISZERO PUSH2 0x33E5 JUMPI PUSH2 0x33E4 PUSH2 0x3112 JUMP JUMPDEST JUMPDEST PUSH2 0x33F1 DUP7 DUP3 DUP8 ADD PUSH2 0x3215 JUMP JUMPDEST SWAP4 POP POP PUSH1 0x20 DUP5 ADD CALLDATALOAD PUSH8 0xFFFFFFFFFFFFFFFF DUP2 GT ISZERO PUSH2 0x3412 JUMPI PUSH2 0x3411 PUSH2 0x3112 JUMP JUMPDEST JUMPDEST PUSH2 0x341E DUP7 DUP3 DUP8 ADD PUSH2 0x3215 JUMP JUMPDEST SWAP3 POP POP PUSH1 0x40 DUP5 ADD CALLDATALOAD PUSH8 0xFFFFFFFFFFFFFFFF DUP2 GT ISZERO PUSH2 0x343F JUMPI PUSH2 0x343E PUSH2 0x3112 JUMP JUMPDEST JUMPDEST PUSH2 0x344B DUP7 DUP3 DUP8 ADD PUSH2 0x3215 JUMP JUMPDEST SWAP2 POP POP SWAP3 POP SWAP3 POP SWAP3 JUMP JUMPDEST PUSH0 DUP1 PUSH0 DUP1 PUSH0 PUSH1 0xA0 DUP7 DUP9 SUB SLT ISZERO PUSH2 0x346E JUMPI PUSH2 0x346D PUSH2 0x310E JUMP JUMPDEST JUMPDEST PUSH0 DUP7 ADD CALLDATALOAD PUSH8 0xFFFFFFFFFFFFFFFF DUP2 GT ISZERO PUSH2 0x348B JUMPI PUSH2 0x348A PUSH2 0x3112 JUMP JUMPDEST JUMPDEST PUSH2 0x3497 DUP9 DUP3 DUP10 ADD PUSH2 0x3215 JUMP JUMPDEST SWAP6 POP POP PUSH1 0x20 PUSH2 0x34A8 DUP9 DUP3 DUP10 ADD PUSH2 0x32D2 JUMP JUMPDEST SWAP5 POP POP PUSH1 0x40 PUSH2 0x34B9 DUP9 DUP3 DUP10 ADD PUSH2 0x32D2 JUMP JUMPDEST SWAP4 POP POP PUSH1 0x60 PUSH2 0x34CA DUP9 DUP3 DUP10 ADD PUSH2 0x32D2 JUMP JUMPDEST SWAP3 POP POP PUSH1 0x80 PUSH2 0x34DB DUP9 DUP3 DUP10 ADD PUSH2 0x32D2 JUMP JUMPDEST SWAP2 POP POP SWAP3 SWAP6 POP SWAP3 SWAP6 SWAP1 SWAP4 POP JUMP JUMPDEST PUSH0 PUSH20 0xFFFFFFFFFFFFFFFFFFFFFFFFFFFFFFFFFFFFFFFF DUP3 AND SWAP1 POP SWAP2 SWAP1 POP JUMP JUMPDEST PUSH0 PUSH2 0x3511 DUP3 PUSH2 0x34E8 JUMP JUMPDEST SWAP1 POP SWAP2 SWAP1 POP JUMP JUMPDEST PUSH2 0x3521 DUP2 PUSH2 0x3507 JUMP JUMPDEST DUP3 MSTORE POP POP JUMP JUMPDEST PUSH0 PUSH1 0xE0 DUP3 ADD SWAP1 POP PUSH2 0x353A PUSH0 DUP4 ADD DUP11 PUSH2 0x3518 JUMP JUMPDEST PUSH2 0x3547 PUSH1 0x20 DUP4 ADD DUP10 PUSH2 0x3518 JUMP JUMPDEST PUSH2 0x3554 PUSH1 0x40 DUP4 ADD DUP9 PUSH2 0x2F57 JUMP JUMPDEST PUSH2 0x3561 PUSH1 0x60 DUP4 ADD DUP8 PUSH2 0x2F57 JUMP JUMPDEST PUSH2 0x356E PUSH1 0x80 DUP4 ADD DUP7 PUSH2 0x2F57 JUMP JUMPDEST PUSH2 0x357B PUSH1 0xA0 DUP4 ADD DUP6 PUSH2 0x2F57 JUMP JUMPDEST PUSH2 0x3588 PUSH1 0xC0 DUP4 ADD DUP5 PUSH2 0x3294 JUMP JUMPDEST SWAP9 SWAP8 POP POP POP POP POP POP POP POP JUMP JUMPDEST PUSH0 PUSH1 0x20 DUP3 ADD SWAP1 POP PUSH2 0x35A7 PUSH0 DUP4 ADD DUP5 PUSH2 0x3518 JUMP JUMPDEST SWAP3 SWAP2 POP POP JUMP JUMPDEST PUSH32 0x4E487B7100000000000000000000000000000000000000000000000000000000 PUSH0 MSTORE PUSH1 0x22 PUSH1 0x4 MSTORE PUSH1 0x24 PUSH0 REVERT JUMPDEST PUSH0 PUSH1 0x2 DUP3 DIV SWAP1 POP PUSH1 0x1 DUP3 AND DUP1 PUSH2 0x35F1 JUMPI PUSH1 0x7F DUP3 AND SWAP2 POP JUMPDEST PUSH1 0x20 DUP3 LT DUP2 SUB PUSH2 0x3604 JUMPI PUSH2 0x3603 PUSH2 0x35AD JUMP JUMPDEST JUMPDEST POP SWAP2 SWAP1 POP JUMP JUMPDEST PUSH0 DUP3 DUP3 MSTORE PUSH1 0x20 DUP3 ADD SWAP1 POP SWAP3 SWAP2 POP POP JUMP JUMPDEST PUSH32 0x706C7A2075706C6F61642062616E6B2072656365697074206669727374000000 PUSH0 DUP3 ADD MSTORE POP JUMP JUMPDEST PUSH0 PUSH2 0x364E PUSH1 0x1D DUP4 PUSH2 0x360A JUMP JUMPDEST SWAP2 POP PUSH2 0x3659 DUP3 PUSH2 0x361A JUMP JUMPDEST PUSH1 0x20 DUP3 ADD SWAP1 POP SWAP2 SWAP1 POP JUMP JUMPDEST PUSH0 PUSH1 0x20 DUP3 ADD SWAP1 POP DUP2 DUP2 SUB PUSH0 DUP4 ADD MSTORE PUSH2 0x367B DUP2 PUSH2 0x3642 JUMP JUMPDEST SWAP1 POP SWAP2 SWAP1 POP JUMP JUMPDEST PUSH32 0x4F6E6C7920426F622063616E2075706C6F61642062616E6B2072656365697074 PUSH0 DUP3 ADD MSTORE PUSH32 0x2E00000000000000000000000000000000000000000000000000000000000000 PUSH1 0x20 DUP3 ADD MSTORE POP JUMP JUMPDEST PUSH0 PUSH2 0x36DC PUSH1 0x21 DUP4 PUSH2 0x360A JUMP JUMPDEST SWAP2 POP PUSH2 0x36E7 DUP3 PUSH2 0x3682 JUMP JUMPDEST PUSH1 0x40 DUP3 ADD SWAP1 POP SWAP2 SWAP1 POP JUMP JUMPDEST PUSH0 PUSH1 0x20 DUP3 ADD SWAP1 POP DUP2 DUP2 SUB PUSH0 DUP4 ADD MSTORE PUSH2 0x3709 DUP2 PUSH2 0x36D0 JUMP JUMPDEST SWAP1 POP SWAP2 SWAP1 POP JUMP JUMPDEST PUSH0 DUP2 SWAP1 POP DUP2 PUSH0 MSTORE PUSH1 0x20 PUSH0 KECCAK256 SWAP1 POP SWAP2 SWAP1 POP JUMP JUMPDEST PUSH0 PUSH1 0x20 PUSH1 0x1F DUP4 ADD DIV SWAP1 POP SWAP2 SWAP1 POP JUMP JUMPDEST PUSH0 DUP3 DUP3 SHL SWAP1 POP SWAP3 SWAP2 POP POP JUMP JUMPDEST PUSH0 PUSH1 0x8 DUP4 MUL PUSH2 0x376C PUSH32 0xFFFFFFFFFFFFFFFFFFFFFFFFFFFFFFFFFFFFFFFFFFFFFFFFFFFFFFFFFFFFFFFF DUP3 PUSH2 0x3731 JUMP JUMPDEST PUSH2 0x3776 DUP7 DUP4 PUSH2 0x3731 JUMP JUMPDEST SWAP6 POP DUP1 NOT DUP5 AND SWAP4 POP DUP1 DUP7 AND DUP5 OR SWAP3 POP POP POP SWAP4 SWAP3 POP POP POP JUMP JUMPDEST PUSH0 DUP2 SWAP1 POP SWAP2 SWAP1 POP JUMP JUMPDEST PUSH0 PUSH2 0x37B1 PUSH2 0x37AC PUSH2 0x37A7 DUP5 PUSH2 0x2F4E JUMP JUMPDEST PUSH2 0x378E JUMP JUMPDEST PUSH2 0x2F4E JUMP JUMPDEST SWAP1 POP SWAP2 SWAP1 POP JUMP JUMPDEST PUSH0 DUP2 SWAP1 POP SWAP2 SWAP1 POP JUMP JUMPDEST PUSH2 0x37CA DUP4 PUSH2 0x3797 JUMP JUMPDEST PUSH2 0x37DE PUSH2 0x37D6 DUP3 PUSH2 0x37B8 JUMP JUMPDEST DUP5 DUP5 SLOAD PUSH2 0x373D JUMP JUMPDEST DUP3 SSTORE POP POP POP POP JUMP JUMPDEST PUSH0 SWAP1 JUMP JUMPDEST PUSH2 0x37F2 PUSH2 0x37E6 JUMP JUMPDEST PUSH2 0x37FD DUP2 DUP5 DUP5 PUSH2 0x37C1 JUMP JUMPDEST POP POP POP JUMP JUMPDEST JUMPDEST DUP2 DUP2 LT ISZERO PUSH2 0x3820 JUMPI PUSH2 0x3815 PUSH0 DUP3 PUSH2 0x37EA JUMP JUMPDEST PUSH1 0x1 DUP2 ADD SWAP1 POP PUSH2 0x3803 JUMP JUMPDEST POP POP JUMP JUMPDEST PUSH1 0x1F DUP3 GT ISZERO PUSH2 0x3865 JUMPI PUSH2 0x3836 DUP2 PUSH2 0x3710 JUMP JUMPDEST PUSH2 0x383F DUP5 PUSH2 0x3722 JUMP JUMPDEST DUP2 ADD PUSH1 0x20 DUP6 LT ISZERO PUSH2 0x384E JUMPI DUP2 SWAP1 POP JUMPDEST PUSH2 0x3862 PUSH2 0x385A DUP6 PUSH2 0x3722 JUMP JUMPDEST DUP4 ADD DUP3 PUSH2 0x3802 JUMP JUMPDEST POP POP JUMPDEST POP POP POP JUMP JUMPDEST PUSH0 DUP3 DUP3 SHR SWAP1 POP SWAP3 SWAP2 POP POP JUMP JUMPDEST PUSH0 PUSH2 0x3885 PUSH0 NOT DUP5 PUSH1 0x8 MUL PUSH2 0x386A JUMP JUMPDEST NOT DUP1 DUP4 AND SWAP2 POP POP SWAP3 SWAP2 POP POP JUMP JUMPDEST PUSH0 PUSH2 0x389D DUP4 DUP4 PUSH2 0x3876 JUMP JUMPDEST SWAP2 POP DUP3 PUSH1 0x2 MUL DUP3 OR SWAP1 POP SWAP3 SWAP2 POP POP JUMP JUMPDEST PUSH2 0x38B6 DUP3 PUSH2 0x2F7F JUMP JUMPDEST PUSH8 0xFFFFFFFFFFFFFFFF DUP2 GT ISZERO PUSH2 0x38CF JUMPI PUSH2 0x38CE PUSH2 0x311E JUMP JUMPDEST JUMPDEST PUSH2 0x38D9 DUP3 SLOAD PUSH2 0x35DA JUMP JUMPDEST PUSH2 0x38E4 DUP3 DUP3 DUP6 PUSH2 0x3824 JUMP JUMPDEST PUSH0 PUSH1 0x20 SWAP1 POP PUSH1 0x1F DUP4 GT PUSH1 0x1 DUP2 EQ PUSH2 0x3915 JUMPI PUSH0 DUP5 ISZERO PUSH2 0x3903 JUMPI DUP3 DUP8 ADD MLOAD SWAP1 POP JUMPDEST PUSH2 0x390D DUP6 DUP3 PUSH2 0x3892 JUMP JUMPDEST DUP7 SSTORE POP PUSH2 0x3974 JUMP JUMPDEST PUSH1 0x1F NOT DUP5 AND PUSH2 0x3923 DUP7 PUSH2 0x3710 JUMP JUMPDEST PUSH0 JUMPDEST DUP3 DUP2 LT ISZERO PUSH2 0x394A JUMPI DUP5 DUP10 ADD MLOAD DUP3 SSTORE PUSH1 0x1 DUP3 ADD SWAP2 POP PUSH1 0x20 DUP6 ADD SWAP5 POP PUSH1 0x20 DUP2 ADD SWAP1 POP PUSH2 0x3925 JUMP JUMPDEST DUP7 DUP4 LT ISZERO PUSH2 0x3967 JUMPI DUP5 DUP10 ADD MLOAD PUSH2 0x3963 PUSH1 0x1F DUP10 AND DUP3 PUSH2 0x3876 JUMP JUMPDEST DUP4 SSTORE POP JUMPDEST PUSH1 0x1 PUSH1 0x2 DUP9 MUL ADD DUP9 SSTORE POP POP POP JUMPDEST POP POP POP POP POP POP JUMP JUMPDEST PUSH32 0x4F6E6C7920416C6963652063616E20696E697469617465207472616E73666572 PUSH0 DUP3 ADD MSTORE PUSH32 0x2E00000000000000000000000000000000000000000000000000000000000000 PUSH1 0x20 DUP3 ADD MSTORE POP JUMP JUMPDEST PUSH0 PUSH2 0x39D6 PUSH1 0x21 DUP4 PUSH2 0x360A JUMP JUMPDEST SWAP2 POP PUSH2 0x39E1 DUP3 PUSH2 0x397C JUMP JUMPDEST PUSH1 0x40 DUP3 ADD SWAP1 POP SWAP2 SWAP1 POP JUMP JUMPDEST PUSH0 PUSH1 0x20 DUP3 ADD SWAP1 POP DUP2 DUP2 SUB PUSH0 DUP4 ADD MSTORE PUSH2 0x3A03 DUP2 PUSH2 0x39CA JUMP JUMPDEST SWAP1 POP SWAP2 SWAP1 POP JUMP JUMPDEST PUSH32 0x496E73756666696369656E742062616C616E63652E0000000000000000000000 PUSH0 DUP3 ADD MSTORE POP JUMP JUMPDEST PUSH0 PUSH2 0x3A3E PUSH1 0x15 DUP4 PUSH2 0x360A JUMP JUMPDEST SWAP2 POP PUSH2 0x3A49 DUP3 PUSH2 0x3A0A JUMP JUMPDEST PUSH1 0x20 DUP3 ADD SWAP1 POP SWAP2 SWAP1 POP JUMP JUMPDEST PUSH0 PUSH1 0x20 DUP3 ADD SWAP1 POP DUP2 DUP2 SUB PUSH0 DUP4 ADD MSTORE PUSH2 0x3A6B DUP2 PUSH2 0x3A32 JUMP JUMPDEST SWAP1 POP SWAP2 SWAP1 POP JUMP JUMPDEST PUSH32 0x4F6E6C7920416C6963652063616E2075706C6F616420656E6372797074656420 PUSH0 DUP3 ADD MSTORE PUSH32 0x646174612E000000000000000000000000000000000000000000000000000000 PUSH1 0x20 DUP3 ADD MSTORE POP JUMP JUMPDEST PUSH0 PUSH2 0x3ACC PUSH1 0x25 DUP4 PUSH2 0x360A JUMP JUMPDEST SWAP2 POP PUSH2 0x3AD7 DUP3 PUSH2 0x3A72 JUMP JUMPDEST PUSH1 0x40 DUP3 ADD SWAP1 POP SWAP2 SWAP1 POP JUMP JUMPDEST PUSH0 PUSH1 0x20 DUP3 ADD SWAP1 POP DUP2 DUP2 SUB PUSH0 DUP4 ADD MSTORE PUSH2 0x3AF9 DUP2 PUSH2 0x3AC0 JUMP JUMPDEST SWAP1 POP SWAP2 SWAP1 POP JUMP JUMPDEST PUSH32 0x4F6E6C7920426F622063616E207375626D69742070726F6F662E000000000000 PUSH0 DUP3 ADD MSTORE POP JUMP JUMPDEST PUSH0 PUSH2 0x3B34 PUSH1 0x1A DUP4 PUSH2 0x360A JUMP JUMPDEST SWAP2 POP PUSH2 0x3B3F DUP3 PUSH2 0x3B00 JUMP JUMPDEST PUSH1 0x20 DUP3 ADD SWAP1 POP SWAP2 SWAP1 POP JUMP JUMPDEST PUSH0 PUSH1 0x20 DUP3 ADD SWAP1 POP DUP2 DUP2 SUB PUSH0 DUP4 ADD MSTORE PUSH2 0x3B61 DUP2 PUSH2 0x3B28 JUMP JUMPDEST SWAP1 POP SWAP2 SWAP1 POP JUMP JUMPDEST PUSH0 DUP2 SWAP1 POP SWAP3 SWAP2 POP POP JUMP JUMPDEST PUSH0 PUSH2 0x3B7C DUP3 PUSH2 0x2F7F JUMP JUMPDEST PUSH2 0x3B86 DUP2 DUP6 PUSH2 0x3B68 JUMP JUMPDEST SWAP4 POP PUSH2 0x3B96 DUP2 DUP6 PUSH1 0x20 DUP7 ADD PUSH2 0x2F99 JUMP JUMPDEST DUP1 DUP5 ADD SWAP2 POP POP SWAP3 SWAP2 POP POP JUMP JUMPDEST PUSH0 PUSH2 0x3BAD DUP3 DUP5 PUSH2 0x3B72 JUMP JUMPDEST SWAP2 POP DUP2 SWAP1 POP SWAP3 SWAP2 POP POP JUMP JUMPDEST PUSH0 DUP2 SWAP1 POP SWAP2 SWAP1 POP JUMP JUMPDEST PUSH2 0x3BCA DUP2 PUSH2 0x3BB8 JUMP JUMPDEST DUP2 EQ PUSH2 0x3BD4 JUMPI PUSH0 DUP1 REVERT JUMPDEST POP JUMP JUMPDEST PUSH0 DUP2 MLOAD SWAP1 POP PUSH2 0x3BE5 DUP2 PUSH2 0x3BC1 JUMP JUMPDEST SWAP3 SWAP2 POP POP JUMP JUMPDEST PUSH0 PUSH1 0x20 DUP3 DUP5 SUB SLT ISZERO PUSH2 0x3C00 JUMPI PUSH2 0x3BFF PUSH2 0x310E JUMP JUMPDEST JUMPDEST PUSH0 PUSH2 0x3C0D DUP5 DUP3 DUP6 ADD PUSH2 0x3BD7 JUMP JUMPDEST SWAP2 POP POP SWAP3 SWAP2 POP POP JUMP JUMPDEST PUSH32 0x4E487B7100000000000000000000000000000000000000000000000000000000 PUSH0 MSTORE PUSH1 0x11 PUSH1 0x4 MSTORE PUSH1 0x24 PUSH0 REVERT JUMPDEST PUSH0 PUSH2 0x3C4D DUP3 PUSH2 0x2F4E JUMP JUMPDEST SWAP2 POP PUSH2 0x3C58 DUP4 PUSH2 0x2F4E JUMP JUMPDEST SWAP3 POP DUP3 DUP3 ADD SWAP1 POP DUP1 DUP3 GT ISZERO PUSH2 0x3C70 JUMPI PUSH2 0x3C6F PUSH2 0x3C16 JUMP JUMPDEST JUMPDEST SWAP3 SWAP2 POP POP JUMP JUMPDEST PUSH32 0x6E6F742074696D656F7574207965740000000000000000000000000000000000 PUSH0 DUP3 ADD MSTORE POP JUMP JUMPDEST PUSH0 PUSH2 0x3CAA PUSH1 0xF DUP4 PUSH2 0x360A JUMP JUMPDEST SWAP2 POP PUSH2 0x3CB5 DUP3 PUSH2 0x3C76 JUMP JUMPDEST PUSH1 0x20 DUP3 ADD SWAP1 POP SWAP2 SWAP1 POP JUMP JUMPDEST PUSH0 PUSH1 0x20 DUP3 ADD SWAP1 POP DUP2 DUP2 SUB PUSH0 DUP4 ADD MSTORE PUSH2 0x3CD7 DUP2 PUSH2 0x3C9E JUMP JUMPDEST SWAP1 POP SWAP2 SWAP1 POP JUMP JUMPDEST PUSH32 0x4F6E6C7920416C6963652063616E206465706F7369742E000000000000000000 PUSH0 DUP3 ADD MSTORE POP JUMP JUMPDEST PUSH0 PUSH2 0x3D12 PUSH1 0x17 DUP4 PUSH2 0x360A JUMP JUMPDEST SWAP2 POP PUSH2 0x3D1D DUP3 PUSH2 0x3CDE JUMP JUMPDEST PUSH1 0x20 DUP3 ADD SWAP1 POP SWAP2 SWAP1 POP JUMP JUMPDEST PUSH0 PUSH1 0x20 DUP3 ADD SWAP1 POP DUP2 DUP2 SUB PUSH0 DUP4 ADD MSTORE PUSH2 0x3D3F DUP2 PUSH2 0x3D06 JUMP JUMPDEST SWAP1 POP SWAP2 SWAP1 POP JUMP JUMPDEST PUSH32 0x4465706F73697420616D6F756E74206D757374206265206D6F7265207468616E PUSH0 DUP3 ADD MSTORE PUSH32 0x20312E3031612E00000000000000000000000000000000000000000000000000 PUSH1 0x20 DUP3 ADD MSTORE POP JUMP JUMPDEST PUSH0 PUSH2 0x3DA0 PUSH1 0x27 DUP4 PUSH2 0x360A JUMP JUMPDEST SWAP2 POP PUSH2 0x3DAB DUP3 PUSH2 0x3D46 JUMP JUMPDEST PUSH1 0x40 DUP3 ADD SWAP1 POP SWAP2 SWAP1 POP JUMP JUMPDEST PUSH0 PUSH1 0x20 DUP3 ADD SWAP1 POP DUP2 DUP2 SUB PUSH0 DUP4 ADD MSTORE PUSH2 0x3DCD DUP2 PUSH2 0x3D94 JUMP JUMPDEST SWAP1 POP SWAP2 SWAP1 POP JUMP JUMPDEST PUSH0 DUP3 DUP3 MSTORE PUSH1 0x20 DUP3 ADD SWAP1 POP SWAP3 SWAP2 POP POP JUMP JUMPDEST PUSH0 DUP2 SLOAD PUSH2 0x3DF0 DUP2 PUSH2 0x35DA JUMP JUMPDEST PUSH2 0x3DFA DUP2 DUP7 PUSH2 0x3DD4 JUMP JUMPDEST SWAP5 POP PUSH1 0x1 DUP3 AND PUSH0 DUP2 EQ PUSH2 0x3E14 JUMPI PUSH1 0x1 DUP2 EQ PUSH2 0x3E2A JUMPI PUSH2 0x3E5C JUMP JUMPDEST PUSH1 0xFF NOT DUP4 AND DUP7 MSTORE DUP2 ISZERO ISZERO PUSH1 0x20 MUL DUP7 ADD SWAP4 POP PUSH2 0x3E5C JUMP JUMPDEST PUSH2 0x3E33 DUP6 PUSH2 0x3710 JUMP JUMPDEST PUSH0 JUMPDEST DUP4 DUP2 LT ISZERO PUSH2 0x3E54 JUMPI DUP2 SLOAD DUP2 DUP10 ADD MSTORE PUSH1 0x1 DUP3 ADD SWAP2 POP PUSH1 0x20 DUP2 ADD SWAP1 POP PUSH2 0x3E35 JUMP JUMPDEST DUP1 DUP9 ADD SWAP6 POP POP POP JUMPDEST POP POP POP SWAP3 SWAP2 POP POP JUMP JUMPDEST PUSH2 0x3E6E DUP2 PUSH2 0x2F4E JUMP JUMPDEST DUP3 MSTORE POP POP JUMP JUMPDEST PUSH0 PUSH1 0xA0 DUP3 ADD SWAP1 POP DUP2 DUP2 SUB PUSH0 DUP4 ADD MSTORE PUSH2 0x3E8C DUP2 DUP9 PUSH2 0x3DE4 JUMP JUMPDEST SWAP1 POP DUP2 DUP2 SUB PUSH1 0x20 DUP4 ADD MSTORE PUSH2 0x3EA0 DUP2 DUP8 PUSH2 0x3DE4 JUMP JUMPDEST SWAP1 POP DUP2 DUP2 SUB PUSH1 0x40 DUP4 ADD MSTORE PUSH2 0x3EB4 DUP2 DUP7 PUSH2 0x3DE4 JUMP JUMPDEST SWAP1 POP DUP2 DUP2 SUB PUSH1 0x60 DUP4 ADD MSTORE PUSH2 0x3EC8 DUP2 DUP6 PUSH2 0x3DE4 JUMP JUMPDEST SWAP1 POP PUSH2 0x3ED7 PUSH1 0x80 DUP4 ADD DUP5 PUSH2 0x3E65 JUMP JUMPDEST SWAP7 SWAP6 POP POP POP POP POP POP JUMP JUMPDEST PUSH2 0x3EEA DUP2 PUSH2 0x3289 JUMP JUMPDEST DUP2 EQ PUSH2 0x3EF4 JUMPI PUSH0 DUP1 REVERT JUMPDEST POP JUMP JUMPDEST PUSH0 DUP2 MLOAD SWAP1 POP PUSH2 0x3F05 DUP2 PUSH2 0x3EE1 JUMP JUMPDEST SWAP3 SWAP2 POP POP JUMP JUMPDEST PUSH0 PUSH1 0x20 DUP3 DUP5 SUB SLT ISZERO PUSH2 0x3F20 JUMPI PUSH2 0x3F1F PUSH2 0x310E JUMP JUMPDEST JUMPDEST PUSH0 PUSH2 0x3F2D DUP5 DUP3 DUP6 ADD PUSH2 0x3EF7 JUMP JUMPDEST SWAP2 POP POP SWAP3 SWAP2 POP POP JUMP JUMPDEST PUSH32 0x4E487B7100000000000000000000000000000000000000000000000000000000 PUSH0 MSTORE PUSH1 0x12 PUSH1 0x4 MSTORE PUSH1 0x24 PUSH0 REVERT JUMPDEST PUSH0 PUSH2 0x3F6D DUP3 PUSH2 0x2F4E JUMP JUMPDEST SWAP2 POP PUSH2 0x3F78 DUP4 PUSH2 0x2F4E JUMP JUMPDEST SWAP3 POP DUP3 DUP3 SUB SWAP1 POP DUP2 DUP2 GT ISZERO PUSH2 0x3F90 JUMPI PUSH2 0x3F8F PUSH2 0x3C16 JUMP JUMPDEST JUMPDEST SWAP3 SWAP2 POP POP JUMP JUMPDEST PUSH0 DUP2 MLOAD SWAP1 POP SWAP2 SWAP1 POP JUMP JUMPDEST PUSH0 PUSH2 0x3FAA DUP3 PUSH2 0x3F96 JUMP JUMPDEST PUSH2 0x3FB4 DUP2 DUP6 PUSH2 0x360A JUMP JUMPDEST SWAP4 POP PUSH2 0x3FC4 DUP2 DUP6 PUSH1 0x20 DUP7 ADD PUSH2 0x2F99 JUMP JUMPDEST PUSH2 0x3FCD DUP2 PUSH2 0x2FA7 JUMP JUMPDEST DUP5 ADD SWAP2 POP POP SWAP3 SWAP2 POP POP JUMP JUMPDEST PUSH0 PUSH1 0x20 DUP3 ADD SWAP1 POP DUP2 DUP2 SUB PUSH0 DUP4 ADD MSTORE PUSH2 0x3FF0 DUP2 DUP5 PUSH2 0x3FA0 JUMP JUMPDEST SWAP1 POP SWAP3 SWAP2 POP POP JUMP JUMPDEST PUSH32 0x4E487B7100000000000000000000000000000000000000000000000000000000 PUSH0 MSTORE PUSH1 0x51 PUSH1 0x4 MSTORE PUSH1 0x24 PUSH0 REVERT INVALID LOG2 PUSH5 0x6970667358 0x22 SLT KECCAK256 0x1E 0xC5 0xCA 0x4C 0xC6 LOG0 SGT MCOPY 0xAF 0xBA 0x1E MOD 0xB2 LOG2 0x26 0xBE 0xAC 0x2C PUSH19 0x172EC16FE36CAAB84F0784B01264736F6C6343 STOP ADDMOD BYTE STOP CALLER "
		},
		"gasEstimates": {
			"creation": {
				"codeDepositCost": "3295000",
				"executionCost": "infinite",
				"totalCost": "infinite"
			},
			"external": {
				"alice()": "2615",
				"amount()": "2492",
				"bankReceiptDec()": "infinite",
				"bankReceiptEnc()": "infinite",
				"bob()": "2530",
				"contract_time()": "2493",
				"deposit()": "2513",
				"depositToContract()": "30309",
				"exchangeRate()": "2537",
				"getTimeReleasedCipher()": "infinite",
				"getTransactionInfo()": "infinite",
				"isDepositToContract()": "2598",
				"isUploadBankReceipt()": "2628",
				"submitProof(bytes,bytes,bytes)": "infinite",
				"testSignature(bytes,uint256,uint256,uint256,uint256)": "infinite",
				"timeout()": "2514",
				"totalAmount()": "2449",
				"transferToAliceTimeout()": "infinite",
				"transferToBob()": "infinite",
				"tre()": "infinite",
				"uploadBankReceipt(bytes)": "infinite",
				"uploadEncryptedData(bytes,bytes,bytes,uint256,uint256)": "infinite"
			},
			"internal": {
				"vdfVerify()": "infinite",
				"verifyBankReceipt()": "infinite"
			}
		},
		"methodIdentifiers": {
			"alice()": "fb47e3a2",
			"amount()": "aa8c217c",
			"bankReceiptDec()": "83f093e1",
			"bankReceiptEnc()": "1d8103fd",
			"bob()": "c09cec77",
			"contract_time()": "25d9f34f",
			"deposit()": "d0e30db0",
			"depositToContract()": "c8f781c2",
			"exchangeRate()": "3ba0b9a9",
			"getTimeReleasedCipher()": "466add1c",
			"getTransactionInfo()": "b6146665",
			"isDepositToContract()": "ff28ebac",
			"isUploadBankReceipt()": "75a598ea",
			"submitProof(bytes,bytes,bytes)": "9a67dd08",
			"testSignature(bytes,uint256,uint256,uint256,uint256)": "ab786c68",
			"timeout()": "70dea79a",
			"totalAmount()": "1a39d8ef",
			"transferToAliceTimeout()": "c7654689",
			"transferToBob()": "5c5499a0",
			"tre()": "3b417a82",
			"uploadBankReceipt(bytes)": "5361178c",
			"uploadEncryptedData(bytes,bytes,bytes,uint256,uint256)": "8bda91ab"
		}
	},
	"abi": [
		{
			"inputs": [
				{
					"internalType": "address",
					"name": "_bob",
					"type": "address"
				},
				{
					"internalType": "uint256",
					"name": "_amount",
					"type": "uint256"
				},
				{
					"internalType": "uint256",
					"name": "_exchangeRate",
					"type": "uint256"
				},
				{
					"internalType": "uint256",
					"name": "_timeout",
					"type": "uint256"
				}
			],
			"stateMutability": "nonpayable",
			"type": "constructor"
		},
		{
			"anonymous": false,
			"inputs": [
				{
					"indexed": false,
					"internalType": "bytes",
					"name": "bankReceipt",
					"type": "bytes"
				}
			],
			"name": "BankReceiptUploaded",
			"type": "event"
		},
		{
			"anonymous": false,
			"inputs": [
				{
					"indexed": true,
					"internalType": "address",
					"name": "user",
					"type": "address"
				},
				{
					"indexed": false,
					"internalType": "uint256",
					"name": "amount",
					"type": "uint256"
				}
			],
			"name": "Deposit",
			"type": "event"
		},
		{
			"anonymous": false,
			"inputs": [
				{
					"indexed": false,
					"internalType": "bytes",
					"name": "encryptedData",
					"type": "bytes"
				}
			],
			"name": "EncryptedDataUploaded",
			"type": "event"
		},
		{
			"anonymous": false,
			"inputs": [
				{
					"indexed": true,
					"internalType": "address",
					"name": "from",
					"type": "address"
				},
				{
					"indexed": true,
					"internalType": "address",
					"name": "to",
					"type": "address"
				},
				{
					"indexed": false,
					"internalType": "uint256",
					"name": "amount",
					"type": "uint256"
				}
			],
			"name": "Transfer",
			"type": "event"
		},
		{
			"anonymous": false,
			"inputs": [
				{
					"indexed": true,
					"internalType": "address",
					"name": "to",
					"type": "address"
				},
				{
					"indexed": false,
					"internalType": "uint256",
					"name": "amount",
					"type": "uint256"
				}
			],
			"name": "TransferCompleted",
			"type": "event"
		},
		{
			"inputs": [],
			"name": "alice",
			"outputs": [
				{
					"internalType": "address",
					"name": "",
					"type": "address"
				}
			],
			"stateMutability": "view",
			"type": "function"
		},
		{
			"inputs": [],
			"name": "amount",
			"outputs": [
				{
					"internalType": "uint256",
					"name": "",
					"type": "uint256"
				}
			],
			"stateMutability": "view",
			"type": "function"
		},
		{
			"inputs": [],
			"name": "bankReceiptDec",
			"outputs": [
				{
					"internalType": "bytes",
					"name": "",
					"type": "bytes"
				}
			],
			"stateMutability": "view",
			"type": "function"
		},
		{
			"inputs": [],
			"name": "bankReceiptEnc",
			"outputs": [
				{
					"internalType": "bytes",
					"name": "",
					"type": "bytes"
				}
			],
			"stateMutability": "view",
			"type": "function"
		},
		{
			"inputs": [],
			"name": "bob",
			"outputs": [
				{
					"internalType": "address",
					"name": "",
					"type": "address"
				}
			],
			"stateMutability": "view",
			"type": "function"
		},
		{
			"inputs": [],
			"name": "contract_time",
			"outputs": [
				{
					"internalType": "uint256",
					"name": "",
					"type": "uint256"
				}
			],
			"stateMutability": "view",
			"type": "function"
		},
		{
			"inputs": [],
			"name": "deposit",
			"outputs": [
				{
					"internalType": "uint256",
					"name": "",
					"type": "uint256"
				}
			],
			"stateMutability": "view",
			"type": "function"
		},
		{
			"inputs": [],
			"name": "depositToContract",
			"outputs": [],
			"stateMutability": "payable",
			"type": "function"
		},
		{
			"inputs": [],
			"name": "exchangeRate",
			"outputs": [
				{
					"internalType": "uint256",
					"name": "",
					"type": "uint256"
				}
			],
			"stateMutability": "view",
			"type": "function"
		},
		{
			"inputs": [],
			"name": "getTimeReleasedCipher",
			"outputs": [
				{
					"internalType": "uint256",
					"name": "",
					"type": "uint256"
				},
				{
					"internalType": "uint256",
					"name": "",
					"type": "uint256"
				},
				{
					"internalType": "bytes",
					"name": "",
					"type": "bytes"
				},
				{
					"internalType": "bytes",
					"name": "",
					"type": "bytes"
				},
				{
					"internalType": "bytes",
					"name": "",
					"type": "bytes"
				}
			],
			"stateMutability": "view",
			"type": "function"
		},
		{
			"inputs": [],
			"name": "getTransactionInfo",
			"outputs": [
				{
					"internalType": "address",
					"name": "",
					"type": "address"
				},
				{
					"internalType": "address",
					"name": "",
					"type": "address"
				},
				{
					"internalType": "uint256",
					"name": "",
					"type": "uint256"
				},
				{
					"internalType": "uint256",
					"name": "",
					"type": "uint256"
				},
				{
					"internalType": "uint256",
					"name": "",
					"type": "uint256"
				},
				{
					"internalType": "uint256",
					"name": "",
					"type": "uint256"
				},
				{
					"internalType": "bool",
					"name": "",
					"type": "bool"
				}
			],
			"stateMutability": "view",
			"type": "function"
		},
		{
			"inputs": [],
			"name": "isDepositToContract",
			"outputs": [
				{
					"internalType": "bool",
					"name": "",
					"type": "bool"
				}
			],
			"stateMutability": "view",
			"type": "function"
		},
		{
			"inputs": [],
			"name": "isUploadBankReceipt",
			"outputs": [
				{
					"internalType": "bool",
					"name": "",
					"type": "bool"
				}
			],
			"stateMutability": "view",
			"type": "function"
		},
		{
			"inputs": [
				{
					"internalType": "bytes",
					"name": "_bankReceiptDec",
					"type": "bytes"
				},
				{
					"internalType": "bytes",
					"name": "_y",
					"type": "bytes"
				},
				{
					"internalType": "bytes",
					"name": "_proof",
					"type": "bytes"
				}
			],
			"name": "submitProof",
			"outputs": [],
			"stateMutability": "nonpayable",
			"type": "function"
		},
		{
			"inputs": [
				{
					"internalType": "bytes",
					"name": "message",
					"type": "bytes"
				},
				{
					"internalType": "uint256",
					"name": "r",
					"type": "uint256"
				},
				{
					"internalType": "uint256",
					"name": "s",
					"type": "uint256"
				},
				{
					"internalType": "uint256",
					"name": "Qx",
					"type": "uint256"
				},
				{
					"internalType": "uint256",
					"name": "Qy",
					"type": "uint256"
				}
			],
			"name": "testSignature",
			"outputs": [
				{
					"internalType": "bool",
					"name": "",
					"type": "bool"
				}
			],
			"stateMutability": "view",
			"type": "function"
		},
		{
			"inputs": [],
			"name": "timeout",
			"outputs": [
				{
					"internalType": "uint256",
					"name": "",
					"type": "uint256"
				}
			],
			"stateMutability": "view",
			"type": "function"
		},
		{
			"inputs": [],
			"name": "totalAmount",
			"outputs": [
				{
					"internalType": "uint256",
					"name": "",
					"type": "uint256"
				}
			],
			"stateMutability": "view",
			"type": "function"
		},
		{
			"inputs": [],
			"name": "transferToAliceTimeout",
			"outputs": [],
			"stateMutability": "nonpayable",
			"type": "function"
		},
		{
			"inputs": [],
			"name": "transferToBob",
			"outputs": [],
			"stateMutability": "nonpayable",
			"type": "function"
		},
		{
			"inputs": [],
			"name": "tre",
			"outputs": [
				{
					"internalType": "bytes",
					"name": "c",
					"type": "bytes"
				},
				{
					"internalType": "bytes",
					"name": "x",
					"type": "bytes"
				},
				{
					"internalType": "bytes",
					"name": "y",
					"type": "bytes"
				},
				{
					"internalType": "bytes",
					"name": "N",
					"type": "bytes"
				},
				{
					"internalType": "bytes",
					"name": "proof",
					"type": "bytes"
				},
				{
					"internalType": "uint256",
					"name": "security_param",
					"type": "uint256"
				},
				{
					"internalType": "uint256",
					"name": "delay",
					"type": "uint256"
				}
			],
			"stateMutability": "view",
			"type": "function"
		},
		{
			"inputs": [
				{
					"internalType": "bytes",
					"name": "_bankReceipt",
					"type": "bytes"
				}
			],
			"name": "uploadBankReceipt",
			"outputs": [],
			"stateMutability": "nonpayable",
			"type": "function"
		},
		{
			"inputs": [
				{
					"internalType": "bytes",
					"name": "_c",
					"type": "bytes"
				},
				{
					"internalType": "bytes",
					"name": "_x",
					"type": "bytes"
				},
				{
					"internalType": "bytes",
					"name": "_N",
					"type": "bytes"
				},
				{
					"internalType": "uint256",
					"name": "security_param",
					"type": "uint256"
				},
				{
					"internalType": "uint256",
					"name": "_delay",
					"type": "uint256"
				}
			],
			"name": "uploadEncryptedData",
			"outputs": [],
			"stateMutability": "nonpayable",
			"type": "function"
		}
	]
}