{
	"data": {
		"bytecode": {
			"linkReferences": {
				"contract/Wesolowski-VDF/WesolowskiVDFVerifier.sol": {
					"WesolowskiVDFVerifier": [
						{
							"length": 20,
							"start": 5768
						}
					]
				}
			},
			"object": "608060405234801561000f575f80fd5b50604051612533380380612533833981810160405281019061003191906101b5565b335f806101000a81548173ffffffffffffffffffffffffffffffffffffffff021916908373ffffffffffffffffffffffffffffffffffffffff1602179055508260015f6101000a81548173ffffffffffffffffffffffffffffffffffffffff021916908373ffffffffffffffffffffffffffffffffffffffff1602179055508160028190555060646002546100c6919061025f565b6003819055506003546002546100dc919061028f565b600481905550806005819055505f60085f6101000a81548160ff0219169083151502179055505f600860016101000a81548160ff0219169083151502179055505050506102c2565b5f80fd5b5f73ffffffffffffffffffffffffffffffffffffffff82169050919050565b5f61015182610128565b9050919050565b61016181610147565b811461016b575f80fd5b50565b5f8151905061017c81610158565b92915050565b5f819050919050565b61019481610182565b811461019e575f80fd5b50565b5f815190506101af8161018b565b92915050565b5f805f606084860312156101cc576101cb610124565b5b5f6101d98682870161016e565b93505060206101ea868287016101a1565b92505060406101fb868287016101a1565b9150509250925092565b7f4e487b71000000000000000000000000000000000000000000000000000000005f52601260045260245ffd5b7f4e487b71000000000000000000000000000000000000000000000000000000005f52601160045260245ffd5b5f61026982610182565b915061027483610182565b92508261028457610283610205565b5b828204905092915050565b5f61029982610182565b91506102a483610182565b92508282019050808211156102bc576102bb610232565b5b92915050565b612264806102cf5f395ff3fe608060405260043610610108575f3560e01c80638bda91ab11610094578063c09cec7711610063578063c09cec7714610324578063c8f781c21461034e578063d0e30db014610358578063fb47e3a214610382578063ff28ebac146103ac57610108565b80638bda91ab1461027a5780639a67dd08146102a2578063aa8c217c146102ca578063b6146665146102f457610108565b8063466add1c116100db578063466add1c146101ba5780635361178c146101e85780635c5499a01461021057806375a598ea1461022657806383f093e11461025057610108565b80631a39d8ef1461010c5780631d8103fd146101365780633b417a82146101605780633ba0b9a914610190575b5f80fd5b348015610117575f80fd5b506101206103d6565b60405161012d9190611467565b60405180910390f35b348015610141575f80fd5b5061014a6103dc565b60405161015791906114f0565b60405180910390f35b34801561016b575f80fd5b50610174610468565b6040516101879796959493929190611510565b60405180910390f35b34801561019b575f80fd5b506101a4610735565b6040516101b19190611467565b60405180910390f35b3480156101c5575f80fd5b506101ce61073b565b6040516101df9594939291906115a0565b60405180910390f35b3480156101f3575f80fd5b5061020e60048036038101906102099190611743565b61095a565b005b34801561021b575f80fd5b50610224610a4e565b005b348015610231575f80fd5b5061023a610d15565b60405161024791906117a4565b60405180910390f35b34801561025b575f80fd5b50610264610d28565b60405161027191906114f0565b60405180910390f35b348015610285575f80fd5b506102a0600480360381019061029b91906117e7565b610db4565b005b3480156102ad575f80fd5b506102c860048036038101906102c391906118b2565b610ecb565b005b3480156102d5575f80fd5b506102de611199565b6040516102eb9190611467565b60405180910390f35b3480156102ff575f80fd5b5061030861119f565b60405161031b9796959493929190611995565b60405180910390f35b34801561032f575f80fd5b5061033861121b565b6040516103459190611a02565b60405180910390f35b610356611240565b005b348015610363575f80fd5b5061036c61137b565b6040516103799190611467565b60405180910390f35b34801561038d575f80fd5b50610396611381565b6040516103a39190611a02565b60405180910390f35b3480156103b7575f80fd5b506103c06113a4565b6040516103cd91906117a4565b60405180910390f35b60045481565b600680546103e990611a48565b80601f016020809104026020016040519081016040528092919081815260200182805461041590611a48565b80156104605780601f1061043757610100808354040283529160200191610460565b820191905f5260205f20905b81548152906001019060200180831161044357829003601f168201915b505050505081565b6009805f01805461047890611a48565b80601f01602080910402602001604051908101604052809291908181526020018280546104a490611a48565b80156104ef5780601f106104c6576101008083540402835291602001916104ef565b820191905f5260205f20905b8154815290600101906020018083116104d257829003601f168201915b50505050509080600101805461050490611a48565b80601f016020809104026020016040519081016040528092919081815260200182805461053090611a48565b801561057b5780601f106105525761010080835404028352916020019161057b565b820191905f5260205f20905b81548152906001019060200180831161055e57829003601f168201915b50505050509080600201805461059090611a48565b80601f01602080910402602001604051908101604052809291908181526020018280546105bc90611a48565b80156106075780601f106105de57610100808354040283529160200191610607565b820191905f5260205f20905b8154815290600101906020018083116105ea57829003601f168201915b50505050509080600301805461061c90611a48565b80601f016020809104026020016040519081016040528092919081815260200182805461064890611a48565b80156106935780601f1061066a57610100808354040283529160200191610693565b820191905f5260205f20905b81548152906001019060200180831161067657829003601f168201915b5050505050908060040180546106a890611a48565b80601f01602080910402602001604051908101604052809291908181526020018280546106d490611a48565b801561071f5780601f106106f65761010080835404028352916020019161071f565b820191905f5260205f20905b81548152906001019060200180831161070257829003601f168201915b5050505050908060050154908060060154905087565b60055481565b5f806060806060600860019054906101000a900460ff16610791576040517f08c379a000000000000000000000000000000000000000000000000000000000815260040161078890611ad2565b60405180910390fd5b6009600601546009600501546009600301600960010160095f018280546107b790611a48565b80601f01602080910402602001604051908101604052809291908181526020018280546107e390611a48565b801561082e5780601f106108055761010080835404028352916020019161082e565b820191905f5260205f20905b81548152906001019060200180831161081157829003601f168201915b5050505050925081805461084190611a48565b80601f016020809104026020016040519081016040528092919081815260200182805461086d90611a48565b80156108b85780601f1061088f576101008083540402835291602001916108b8565b820191905f5260205f20905b81548152906001019060200180831161089b57829003601f168201915b505050505091508080546108cb90611a48565b80601f01602080910402602001604051908101604052809291908181526020018280546108f790611a48565b80156109425780601f1061091957610100808354040283529160200191610942565b820191905f5260205f20905b81548152906001019060200180831161092557829003601f168201915b50505050509050945094509450945094509091929394565b60015f9054906101000a900473ffffffffffffffffffffffffffffffffffffffff1673ffffffffffffffffffffffffffffffffffffffff163373ffffffffffffffffffffffffffffffffffffffff16146109e9576040517f08c379a00000000000000000000000000000000000000000000000000000000081526004016109e090611b60565b60405180910390fd5b80600690816109f89190611d1b565b507f3e52fbbb12f1347bd63824136fa0930b30743ac0b2c238cf13892cf4f4e5296981604051610a2891906114f0565b60405180910390a16001600860016101000a81548160ff02191690831515021790555050565b5f8054906101000a900473ffffffffffffffffffffffffffffffffffffffff1673ffffffffffffffffffffffffffffffffffffffff163373ffffffffffffffffffffffffffffffffffffffff1614610adb576040517f08c379a0000000000000000000000000000000000000000000000000000000008152600401610ad290611e5a565b60405180910390fd5b600454471015610b20576040517f08c379a0000000000000000000000000000000000000000000000000000000008152600401610b1790611ec2565b60405180910390fd5b60015f9054906101000a900473ffffffffffffffffffffffffffffffffffffffff1673ffffffffffffffffffffffffffffffffffffffff166108fc60025490811502906040515f60405180830381858888f19350505050158015610b86573d5f803e3d5ffd5b505f8054906101000a900473ffffffffffffffffffffffffffffffffffffffff1673ffffffffffffffffffffffffffffffffffffffff166108fc60035490811502906040515f60405180830381858888f19350505050158015610beb573d5f803e3d5ffd5b5060015f9054906101000a900473ffffffffffffffffffffffffffffffffffffffff1673ffffffffffffffffffffffffffffffffffffffff163373ffffffffffffffffffffffffffffffffffffffff167fddf252ad1be2c89b69c2b068fc378daa952ba7f163c4a11628f55a4df523b3ef600254604051610c6c9190611467565b60405180910390a35f8054906101000a900473ffffffffffffffffffffffffffffffffffffffff1673ffffffffffffffffffffffffffffffffffffffff163373ffffffffffffffffffffffffffffffffffffffff167fddf252ad1be2c89b69c2b068fc378daa952ba7f163c4a11628f55a4df523b3ef600354604051610cf29190611467565b60405180910390a35f60085f6101000a81548160ff021916908315150217905550565b600860019054906101000a900460ff1681565b60078054610d3590611a48565b80601f0160208091040260200160405190810160405280929190818152602001828054610d6190611a48565b8015610dac5780601f10610d8357610100808354040283529160200191610dac565b820191905f5260205f20905b815481529060010190602001808311610d8f57829003601f168201915b505050505081565b5f8054906101000a900473ffffffffffffffffffffffffffffffffffffffff1673ffffffffffffffffffffffffffffffffffffffff163373ffffffffffffffffffffffffffffffffffffffff1614610e41576040517f08c379a0000000000000000000000000000000000000000000000000000000008152600401610e3890611f50565b60405180910390fd5b8460095f019081610e529190611d1b565b508360096001019081610e659190611d1b565b508260096003019081610e789190611d1b565b5080600960060181905550816009600501819055507f5b1fd024cfdecf12403893eb3f5c7143182cbb3d479096b12ff678deb056b8ad85604051610ebc91906114f0565b60405180910390a15050505050565b60015f9054906101000a900473ffffffffffffffffffffffffffffffffffffffff1673ffffffffffffffffffffffffffffffffffffffff163373ffffffffffffffffffffffffffffffffffffffff1614610f5a576040517f08c379a0000000000000000000000000000000000000000000000000000000008152600401610f5190611fb8565b60405180910390fd5b600454471015610f9f576040517f08c379a0000000000000000000000000000000000000000000000000000000008152600401610f9690611ec2565b60405180910390fd5b8260079081610fae9190611d1b565b508160096002019081610fc19190611d1b565b508060096004019081610fd49190611d1b565b50610fdd6113b6565b156110bf5760015f9054906101000a900473ffffffffffffffffffffffffffffffffffffffff1673ffffffffffffffffffffffffffffffffffffffff166108fc60045490811502906040515f60405180830381858888f19350505050158015611048573d5f803e3d5ffd5b5060015f9054906101000a900473ffffffffffffffffffffffffffffffffffffffff1673ffffffffffffffffffffffffffffffffffffffff167fe4bb88acda5194aa84e6feedbb6438ffd447bdee1e1ad8dda3c32fcff9a68f086004546040516110b29190611467565b60405180910390a2611194565b5f8054906101000a900473ffffffffffffffffffffffffffffffffffffffff1673ffffffffffffffffffffffffffffffffffffffff166108fc60045490811502906040515f60405180830381858888f19350505050158015611123573d5f803e3d5ffd5b505f8054906101000a900473ffffffffffffffffffffffffffffffffffffffff1673ffffffffffffffffffffffffffffffffffffffff167fe4bb88acda5194aa84e6feedbb6438ffd447bdee1e1ad8dda3c32fcff9a68f0860045460405161118b9190611467565b60405180910390a25b505050565b60025481565b5f805f805f805f805f9054906101000a900473ffffffffffffffffffffffffffffffffffffffff1660015f9054906101000a900473ffffffffffffffffffffffffffffffffffffffff1660025460035460045460055460085f9054906101000a900460ff16965096509650965096509650965090919293949596565b60015f9054906101000a900473ffffffffffffffffffffffffffffffffffffffff1681565b5f8054906101000a900473ffffffffffffffffffffffffffffffffffffffff1673ffffffffffffffffffffffffffffffffffffffff163373ffffffffffffffffffffffffffffffffffffffff16146112cd576040517f08c379a00000000000000000000000000000000000000000000000000000000081526004016112c490612020565b60405180910390fd5b6004543414611311576040517f08c379a0000000000000000000000000000000000000000000000000000000008152600401611308906120ae565b60405180910390fd5b3373ffffffffffffffffffffffffffffffffffffffff167fe1fffcc4923d04b559f4d29a8bfc6cda04eb5b0d3c460751c2402c5c5cc9109c346040516113579190611467565b60405180910390a2600160085f6101000a81548160ff021916908315150217905550565b60035481565b5f8054906101000a900473ffffffffffffffffffffffffffffffffffffffff1681565b60085f9054906101000a900460ff1681565b5f73__$0fd1cc851c6411cf7573f2ba214718d454$__63c2269a7b60096003016009600101600960020160096004016009600601546040518663ffffffff1660e01b815260040161140b95949392919061216c565b602060405180830381865af4158015611426573d5f803e3d5ffd5b505050506040513d601f19601f8201168201806040525081019061144a9190612203565b905090565b5f819050919050565b6114618161144f565b82525050565b5f60208201905061147a5f830184611458565b92915050565b5f81519050919050565b5f82825260208201905092915050565b8281835e5f83830152505050565b5f601f19601f8301169050919050565b5f6114c282611480565b6114cc818561148a565b93506114dc81856020860161149a565b6114e5816114a8565b840191505092915050565b5f6020820190508181035f83015261150881846114b8565b905092915050565b5f60e0820190508181035f830152611528818a6114b8565b9050818103602083015261153c81896114b8565b9050818103604083015261155081886114b8565b9050818103606083015261156481876114b8565b9050818103608083015261157881866114b8565b905061158760a0830185611458565b61159460c0830184611458565b98975050505050505050565b5f60a0820190506115b35f830188611458565b6115c06020830187611458565b81810360408301526115d281866114b8565b905081810360608301526115e681856114b8565b905081810360808301526115fa81846114b8565b90509695505050505050565b5f604051905090565b5f80fd5b5f80fd5b5f80fd5b5f80fd5b7f4e487b71000000000000000000000000000000000000000000000000000000005f52604160045260245ffd5b611655826114a8565b810181811067ffffffffffffffff821117156116745761167361161f565b5b80604052505050565b5f611686611606565b9050611692828261164c565b919050565b5f67ffffffffffffffff8211156116b1576116b061161f565b5b6116ba826114a8565b9050602081019050919050565b828183375f83830152505050565b5f6116e76116e284611697565b61167d565b9050828152602081018484840111156117035761170261161b565b5b61170e8482856116c7565b509392505050565b5f82601f83011261172a57611729611617565b5b813561173a8482602086016116d5565b91505092915050565b5f602082840312156117585761175761160f565b5b5f82013567ffffffffffffffff81111561177557611774611613565b5b61178184828501611716565b91505092915050565b5f8115159050919050565b61179e8161178a565b82525050565b5f6020820190506117b75f830184611795565b92915050565b6117c68161144f565b81146117d0575f80fd5b50565b5f813590506117e1816117bd565b92915050565b5f805f805f60a08688031215611800576117ff61160f565b5b5f86013567ffffffffffffffff81111561181d5761181c611613565b5b61182988828901611716565b955050602086013567ffffffffffffffff81111561184a57611849611613565b5b61185688828901611716565b945050604086013567ffffffffffffffff81111561187757611876611613565b5b61188388828901611716565b9350506060611894888289016117d3565b92505060806118a5888289016117d3565b9150509295509295909350565b5f805f606084860312156118c9576118c861160f565b5b5f84013567ffffffffffffffff8111156118e6576118e5611613565b5b6118f286828701611716565b935050602084013567ffffffffffffffff81111561191357611912611613565b5b61191f86828701611716565b925050604084013567ffffffffffffffff8111156119405761193f611613565b5b61194c86828701611716565b9150509250925092565b5f73ffffffffffffffffffffffffffffffffffffffff82169050919050565b5f61197f82611956565b9050919050565b61198f81611975565b82525050565b5f60e0820190506119a85f83018a611986565b6119b56020830189611986565b6119c26040830188611458565b6119cf6060830187611458565b6119dc6080830186611458565b6119e960a0830185611458565b6119f660c0830184611795565b98975050505050505050565b5f602082019050611a155f830184611986565b92915050565b7f4e487b71000000000000000000000000000000000000000000000000000000005f52602260045260245ffd5b5f6002820490506001821680611a5f57607f821691505b602082108103611a7257611a71611a1b565b5b50919050565b5f82825260208201905092915050565b7f706c7a2075706c6f61642062616e6b20726563656970742066697273740000005f82015250565b5f611abc601d83611a78565b9150611ac782611a88565b602082019050919050565b5f6020820190508181035f830152611ae981611ab0565b9050919050565b7f4f6e6c7920426f622063616e2075706c6f61642062616e6b20726563656970745f8201527f2e00000000000000000000000000000000000000000000000000000000000000602082015250565b5f611b4a602183611a78565b9150611b5582611af0565b604082019050919050565b5f6020820190508181035f830152611b7781611b3e565b9050919050565b5f819050815f5260205f209050919050565b5f6020601f8301049050919050565b5f82821b905092915050565b5f60088302611bda7fffffffffffffffffffffffffffffffffffffffffffffffffffffffffffffffff82611b9f565b611be48683611b9f565b95508019841693508086168417925050509392505050565b5f819050919050565b5f611c1f611c1a611c158461144f565b611bfc565b61144f565b9050919050565b5f819050919050565b611c3883611c05565b611c4c611c4482611c26565b848454611bab565b825550505050565b5f90565b611c60611c54565b611c6b818484611c2f565b505050565b5b81811015611c8e57611c835f82611c58565b600181019050611c71565b5050565b601f821115611cd357611ca481611b7e565b611cad84611b90565b81016020851015611cbc578190505b611cd0611cc885611b90565b830182611c70565b50505b505050565b5f82821c905092915050565b5f611cf35f1984600802611cd8565b1980831691505092915050565b5f611d0b8383611ce4565b9150826002028217905092915050565b611d2482611480565b67ffffffffffffffff811115611d3d57611d3c61161f565b5b611d478254611a48565b611d52828285611c92565b5f60209050601f831160018114611d83575f8415611d71578287015190505b611d7b8582611d00565b865550611de2565b601f198416611d9186611b7e565b5f5b82811015611db857848901518255600182019150602085019450602081019050611d93565b86831015611dd55784890151611dd1601f891682611ce4565b8355505b6001600288020188555050505b505050505050565b7f4f6e6c7920416c6963652063616e20696e697469617465207472616e736665725f8201527f2e00000000000000000000000000000000000000000000000000000000000000602082015250565b5f611e44602183611a78565b9150611e4f82611dea565b604082019050919050565b5f6020820190508181035f830152611e7181611e38565b9050919050565b7f496e73756666696369656e742062616c616e63652e00000000000000000000005f82015250565b5f611eac601583611a78565b9150611eb782611e78565b602082019050919050565b5f6020820190508181035f830152611ed981611ea0565b9050919050565b7f4f6e6c7920416c6963652063616e2075706c6f616420656e63727970746564205f8201527f646174612e000000000000000000000000000000000000000000000000000000602082015250565b5f611f3a602583611a78565b9150611f4582611ee0565b604082019050919050565b5f6020820190508181035f830152611f6781611f2e565b9050919050565b7f4f6e6c7920426f622063616e207375626d69742070726f6f662e0000000000005f82015250565b5f611fa2601a83611a78565b9150611fad82611f6e565b602082019050919050565b5f6020820190508181035f830152611fcf81611f96565b9050919050565b7f4f6e6c7920416c6963652063616e206465706f7369742e0000000000000000005f82015250565b5f61200a601783611a78565b915061201582611fd6565b602082019050919050565b5f6020820190508181035f83015261203781611ffe565b9050919050565b7f4465706f73697420616d6f756e74206d757374206265206d6f7265207468616e5f8201527f20312e3031612e00000000000000000000000000000000000000000000000000602082015250565b5f612098602783611a78565b91506120a38261203e565b604082019050919050565b5f6020820190508181035f8301526120c58161208c565b9050919050565b5f82825260208201905092915050565b5f81546120e881611a48565b6120f281866120cc565b9450600182165f811461210c576001811461212257612154565b60ff198316865281151560200286019350612154565b61212b85611b7e565b5f5b8381101561214c5781548189015260018201915060208101905061212d565b808801955050505b50505092915050565b6121668161144f565b82525050565b5f60a0820190508181035f83015261218481886120dc565b9050818103602083015261219881876120dc565b905081810360408301526121ac81866120dc565b905081810360608301526121c081856120dc565b90506121cf608083018461215d565b9695505050505050565b6121e28161178a565b81146121ec575f80fd5b50565b5f815190506121fd816121d9565b92915050565b5f602082840312156122185761221761160f565b5b5f612225848285016121ef565b9150509291505056fea26469706673582212207e406fe29232198152a9dbf6124b42d36b3621431180ad58d26a7b70b70f47e164736f6c634300081a0033",
			"opcodes": "PUSH1 0x80 PUSH1 0x40 MSTORE CALLVALUE DUP1 ISZERO PUSH2 0xF JUMPI PUSH0 DUP1 REVERT JUMPDEST POP PUSH1 0x40 MLOAD PUSH2 0x2533 CODESIZE SUB DUP1 PUSH2 0x2533 DUP4 CODECOPY DUP2 DUP2 ADD PUSH1 0x40 MSTORE DUP2 ADD SWAP1 PUSH2 0x31 SWAP2 SWAP1 PUSH2 0x1B5 JUMP JUMPDEST CALLER PUSH0 DUP1 PUSH2 0x100 EXP DUP2 SLOAD DUP2 PUSH20 0xFFFFFFFFFFFFFFFFFFFFFFFFFFFFFFFFFFFFFFFF MUL NOT AND SWAP1 DUP4 PUSH20 0xFFFFFFFFFFFFFFFFFFFFFFFFFFFFFFFFFFFFFFFF AND MUL OR SWAP1 SSTORE POP DUP3 PUSH1 0x1 PUSH0 PUSH2 0x100 EXP DUP2 SLOAD DUP2 PUSH20 0xFFFFFFFFFFFFFFFFFFFFFFFFFFFFFFFFFFFFFFFF MUL NOT AND SWAP1 DUP4 PUSH20 0xFFFFFFFFFFFFFFFFFFFFFFFFFFFFFFFFFFFFFFFF AND MUL OR SWAP1 SSTORE POP DUP2 PUSH1 0x2 DUP2 SWAP1 SSTORE POP PUSH1 0x64 PUSH1 0x2 SLOAD PUSH2 0xC6 SWAP2 SWAP1 PUSH2 0x25F JUMP JUMPDEST PUSH1 0x3 DUP2 SWAP1 SSTORE POP PUSH1 0x3 SLOAD PUSH1 0x2 SLOAD PUSH2 0xDC SWAP2 SWAP1 PUSH2 0x28F JUMP JUMPDEST PUSH1 0x4 DUP2 SWAP1 SSTORE POP DUP1 PUSH1 0x5 DUP2 SWAP1 SSTORE POP PUSH0 PUSH1 0x8 PUSH0 PUSH2 0x100 EXP DUP2 SLOAD DUP2 PUSH1 0xFF MUL NOT AND SWAP1 DUP4 ISZERO ISZERO MUL OR SWAP1 SSTORE POP PUSH0 PUSH1 0x8 PUSH1 0x1 PUSH2 0x100 EXP DUP2 SLOAD DUP2 PUSH1 0xFF MUL NOT AND SWAP1 DUP4 ISZERO ISZERO MUL OR SWAP1 SSTORE POP POP POP POP PUSH2 0x2C2 JUMP JUMPDEST PUSH0 DUP1 REVERT JUMPDEST PUSH0 PUSH20 0xFFFFFFFFFFFFFFFFFFFFFFFFFFFFFFFFFFFFFFFF DUP3 AND SWAP1 POP SWAP2 SWAP1 POP JUMP JUMPDEST PUSH0 PUSH2 0x151 DUP3 PUSH2 0x128 JUMP JUMPDEST SWAP1 POP SWAP2 SWAP1 POP JUMP JUMPDEST PUSH2 0x161 DUP2 PUSH2 0x147 JUMP JUMPDEST DUP2 EQ PUSH2 0x16B JUMPI PUSH0 DUP1 REVERT JUMPDEST POP JUMP JUMPDEST PUSH0 DUP2 MLOAD SWAP1 POP PUSH2 0x17C DUP2 PUSH2 0x158 JUMP JUMPDEST SWAP3 SWAP2 POP POP JUMP JUMPDEST PUSH0 DUP2 SWAP1 POP SWAP2 SWAP1 POP JUMP JUMPDEST PUSH2 0x194 DUP2 PUSH2 0x182 JUMP JUMPDEST DUP2 EQ PUSH2 0x19E JUMPI PUSH0 DUP1 REVERT JUMPDEST POP JUMP JUMPDEST PUSH0 DUP2 MLOAD SWAP1 POP PUSH2 0x1AF DUP2 PUSH2 0x18B JUMP JUMPDEST SWAP3 SWAP2 POP POP JUMP JUMPDEST PUSH0 DUP1 PUSH0 PUSH1 0x60 DUP5 DUP7 SUB SLT ISZERO PUSH2 0x1CC JUMPI PUSH2 0x1CB PUSH2 0x124 JUMP JUMPDEST JUMPDEST PUSH0 PUSH2 0x1D9 DUP7 DUP3 DUP8 ADD PUSH2 0x16E JUMP JUMPDEST SWAP4 POP POP PUSH1 0x20 PUSH2 0x1EA DUP7 DUP3 DUP8 ADD PUSH2 0x1A1 JUMP JUMPDEST SWAP3 POP POP PUSH1 0x40 PUSH2 0x1FB DUP7 DUP3 DUP8 ADD PUSH2 0x1A1 JUMP JUMPDEST SWAP2 POP POP SWAP3 POP SWAP3 POP SWAP3 JUMP JUMPDEST PUSH32 0x4E487B7100000000000000000000000000000000000000000000000000000000 PUSH0 MSTORE PUSH1 0x12 PUSH1 0x4 MSTORE PUSH1 0x24 PUSH0 REVERT JUMPDEST PUSH32 0x4E487B7100000000000000000000000000000000000000000000000000000000 PUSH0 MSTORE PUSH1 0x11 PUSH1 0x4 MSTORE PUSH1 0x24 PUSH0 REVERT JUMPDEST PUSH0 PUSH2 0x269 DUP3 PUSH2 0x182 JUMP JUMPDEST SWAP2 POP PUSH2 0x274 DUP4 PUSH2 0x182 JUMP JUMPDEST SWAP3 POP DUP3 PUSH2 0x284 JUMPI PUSH2 0x283 PUSH2 0x205 JUMP JUMPDEST JUMPDEST DUP3 DUP3 DIV SWAP1 POP SWAP3 SWAP2 POP POP JUMP JUMPDEST PUSH0 PUSH2 0x299 DUP3 PUSH2 0x182 JUMP JUMPDEST SWAP2 POP PUSH2 0x2A4 DUP4 PUSH2 0x182 JUMP JUMPDEST SWAP3 POP DUP3 DUP3 ADD SWAP1 POP DUP1 DUP3 GT ISZERO PUSH2 0x2BC JUMPI PUSH2 0x2BB PUSH2 0x232 JUMP JUMPDEST JUMPDEST SWAP3 SWAP2 POP POP JUMP JUMPDEST PUSH2 0x2264 DUP1 PUSH2 0x2CF PUSH0 CODECOPY PUSH0 RETURN INVALID PUSH1 0x80 PUSH1 0x40 MSTORE PUSH1 0x4 CALLDATASIZE LT PUSH2 0x108 JUMPI PUSH0 CALLDATALOAD PUSH1 0xE0 SHR DUP1 PUSH4 0x8BDA91AB GT PUSH2 0x94 JUMPI DUP1 PUSH4 0xC09CEC77 GT PUSH2 0x63 JUMPI DUP1 PUSH4 0xC09CEC77 EQ PUSH2 0x324 JUMPI DUP1 PUSH4 0xC8F781C2 EQ PUSH2 0x34E JUMPI DUP1 PUSH4 0xD0E30DB0 EQ PUSH2 0x358 JUMPI DUP1 PUSH4 0xFB47E3A2 EQ PUSH2 0x382 JUMPI DUP1 PUSH4 0xFF28EBAC EQ PUSH2 0x3AC JUMPI PUSH2 0x108 JUMP JUMPDEST DUP1 PUSH4 0x8BDA91AB EQ PUSH2 0x27A JUMPI DUP1 PUSH4 0x9A67DD08 EQ PUSH2 0x2A2 JUMPI DUP1 PUSH4 0xAA8C217C EQ PUSH2 0x2CA JUMPI DUP1 PUSH4 0xB6146665 EQ PUSH2 0x2F4 JUMPI PUSH2 0x108 JUMP JUMPDEST DUP1 PUSH4 0x466ADD1C GT PUSH2 0xDB JUMPI DUP1 PUSH4 0x466ADD1C EQ PUSH2 0x1BA JUMPI DUP1 PUSH4 0x5361178C EQ PUSH2 0x1E8 JUMPI DUP1 PUSH4 0x5C5499A0 EQ PUSH2 0x210 JUMPI DUP1 PUSH4 0x75A598EA EQ PUSH2 0x226 JUMPI DUP1 PUSH4 0x83F093E1 EQ PUSH2 0x250 JUMPI PUSH2 0x108 JUMP JUMPDEST DUP1 PUSH4 0x1A39D8EF EQ PUSH2 0x10C JUMPI DUP1 PUSH4 0x1D8103FD EQ PUSH2 0x136 JUMPI DUP1 PUSH4 0x3B417A82 EQ PUSH2 0x160 JUMPI DUP1 PUSH4 0x3BA0B9A9 EQ PUSH2 0x190 JUMPI JUMPDEST PUSH0 DUP1 REVERT JUMPDEST CALLVALUE DUP1 ISZERO PUSH2 0x117 JUMPI PUSH0 DUP1 REVERT JUMPDEST POP PUSH2 0x120 PUSH2 0x3D6 JUMP JUMPDEST PUSH1 0x40 MLOAD PUSH2 0x12D SWAP2 SWAP1 PUSH2 0x1467 JUMP JUMPDEST PUSH1 0x40 MLOAD DUP1 SWAP2 SUB SWAP1 RETURN JUMPDEST CALLVALUE DUP1 ISZERO PUSH2 0x141 JUMPI PUSH0 DUP1 REVERT JUMPDEST POP PUSH2 0x14A PUSH2 0x3DC JUMP JUMPDEST PUSH1 0x40 MLOAD PUSH2 0x157 SWAP2 SWAP1 PUSH2 0x14F0 JUMP JUMPDEST PUSH1 0x40 MLOAD DUP1 SWAP2 SUB SWAP1 RETURN JUMPDEST CALLVALUE DUP1 ISZERO PUSH2 0x16B JUMPI PUSH0 DUP1 REVERT JUMPDEST POP PUSH2 0x174 PUSH2 0x468 JUMP JUMPDEST PUSH1 0x40 MLOAD PUSH2 0x187 SWAP8 SWAP7 SWAP6 SWAP5 SWAP4 SWAP3 SWAP2 SWAP1 PUSH2 0x1510 JUMP JUMPDEST PUSH1 0x40 MLOAD DUP1 SWAP2 SUB SWAP1 RETURN JUMPDEST CALLVALUE DUP1 ISZERO PUSH2 0x19B JUMPI PUSH0 DUP1 REVERT JUMPDEST POP PUSH2 0x1A4 PUSH2 0x735 JUMP JUMPDEST PUSH1 0x40 MLOAD PUSH2 0x1B1 SWAP2 SWAP1 PUSH2 0x1467 JUMP JUMPDEST PUSH1 0x40 MLOAD DUP1 SWAP2 SUB SWAP1 RETURN JUMPDEST CALLVALUE DUP1 ISZERO PUSH2 0x1C5 JUMPI PUSH0 DUP1 REVERT JUMPDEST POP PUSH2 0x1CE PUSH2 0x73B JUMP JUMPDEST PUSH1 0x40 MLOAD PUSH2 0x1DF SWAP6 SWAP5 SWAP4 SWAP3 SWAP2 SWAP1 PUSH2 0x15A0 JUMP JUMPDEST PUSH1 0x40 MLOAD DUP1 SWAP2 SUB SWAP1 RETURN JUMPDEST CALLVALUE DUP1 ISZERO PUSH2 0x1F3 JUMPI PUSH0 DUP1 REVERT JUMPDEST POP PUSH2 0x20E PUSH1 0x4 DUP1 CALLDATASIZE SUB DUP2 ADD SWAP1 PUSH2 0x209 SWAP2 SWAP1 PUSH2 0x1743 JUMP JUMPDEST PUSH2 0x95A JUMP JUMPDEST STOP JUMPDEST CALLVALUE DUP1 ISZERO PUSH2 0x21B JUMPI PUSH0 DUP1 REVERT JUMPDEST POP PUSH2 0x224 PUSH2 0xA4E JUMP JUMPDEST STOP JUMPDEST CALLVALUE DUP1 ISZERO PUSH2 0x231 JUMPI PUSH0 DUP1 REVERT JUMPDEST POP PUSH2 0x23A PUSH2 0xD15 JUMP JUMPDEST PUSH1 0x40 MLOAD PUSH2 0x247 SWAP2 SWAP1 PUSH2 0x17A4 JUMP JUMPDEST PUSH1 0x40 MLOAD DUP1 SWAP2 SUB SWAP1 RETURN JUMPDEST CALLVALUE DUP1 ISZERO PUSH2 0x25B JUMPI PUSH0 DUP1 REVERT JUMPDEST POP PUSH2 0x264 PUSH2 0xD28 JUMP JUMPDEST PUSH1 0x40 MLOAD PUSH2 0x271 SWAP2 SWAP1 PUSH2 0x14F0 JUMP JUMPDEST PUSH1 0x40 MLOAD DUP1 SWAP2 SUB SWAP1 RETURN JUMPDEST CALLVALUE DUP1 ISZERO PUSH2 0x285 JUMPI PUSH0 DUP1 REVERT JUMPDEST POP PUSH2 0x2A0 PUSH1 0x4 DUP1 CALLDATASIZE SUB DUP2 ADD SWAP1 PUSH2 0x29B SWAP2 SWAP1 PUSH2 0x17E7 JUMP JUMPDEST PUSH2 0xDB4 JUMP JUMPDEST STOP JUMPDEST CALLVALUE DUP1 ISZERO PUSH2 0x2AD JUMPI PUSH0 DUP1 REVERT JUMPDEST POP PUSH2 0x2C8 PUSH1 0x4 DUP1 CALLDATASIZE SUB DUP2 ADD SWAP1 PUSH2 0x2C3 SWAP2 SWAP1 PUSH2 0x18B2 JUMP JUMPDEST PUSH2 0xECB JUMP JUMPDEST STOP JUMPDEST CALLVALUE DUP1 ISZERO PUSH2 0x2D5 JUMPI PUSH0 DUP1 REVERT JUMPDEST POP PUSH2 0x2DE PUSH2 0x1199 JUMP JUMPDEST PUSH1 0x40 MLOAD PUSH2 0x2EB SWAP2 SWAP1 PUSH2 0x1467 JUMP JUMPDEST PUSH1 0x40 MLOAD DUP1 SWAP2 SUB SWAP1 RETURN JUMPDEST CALLVALUE DUP1 ISZERO PUSH2 0x2FF JUMPI PUSH0 DUP1 REVERT JUMPDEST POP PUSH2 0x308 PUSH2 0x119F JUMP JUMPDEST PUSH1 0x40 MLOAD PUSH2 0x31B SWAP8 SWAP7 SWAP6 SWAP5 SWAP4 SWAP3 SWAP2 SWAP1 PUSH2 0x1995 JUMP JUMPDEST PUSH1 0x40 MLOAD DUP1 SWAP2 SUB SWAP1 RETURN JUMPDEST CALLVALUE DUP1 ISZERO PUSH2 0x32F JUMPI PUSH0 DUP1 REVERT JUMPDEST POP PUSH2 0x338 PUSH2 0x121B JUMP JUMPDEST PUSH1 0x40 MLOAD PUSH2 0x345 SWAP2 SWAP1 PUSH2 0x1A02 JUMP JUMPDEST PUSH1 0x40 MLOAD DUP1 SWAP2 SUB SWAP1 RETURN JUMPDEST PUSH2 0x356 PUSH2 0x1240 JUMP JUMPDEST STOP JUMPDEST CALLVALUE DUP1 ISZERO PUSH2 0x363 JUMPI PUSH0 DUP1 REVERT JUMPDEST POP PUSH2 0x36C PUSH2 0x137B JUMP JUMPDEST PUSH1 0x40 MLOAD PUSH2 0x379 SWAP2 SWAP1 PUSH2 0x1467 JUMP JUMPDEST PUSH1 0x40 MLOAD DUP1 SWAP2 SUB SWAP1 RETURN JUMPDEST CALLVALUE DUP1 ISZERO PUSH2 0x38D JUMPI PUSH0 DUP1 REVERT JUMPDEST POP PUSH2 0x396 PUSH2 0x1381 JUMP JUMPDEST PUSH1 0x40 MLOAD PUSH2 0x3A3 SWAP2 SWAP1 PUSH2 0x1A02 JUMP JUMPDEST PUSH1 0x40 MLOAD DUP1 SWAP2 SUB SWAP1 RETURN JUMPDEST CALLVALUE DUP1 ISZERO PUSH2 0x3B7 JUMPI PUSH0 DUP1 REVERT JUMPDEST POP PUSH2 0x3C0 PUSH2 0x13A4 JUMP JUMPDEST PUSH1 0x40 MLOAD PUSH2 0x3CD SWAP2 SWAP1 PUSH2 0x17A4 JUMP JUMPDEST PUSH1 0x40 MLOAD DUP1 SWAP2 SUB SWAP1 RETURN JUMPDEST PUSH1 0x4 SLOAD DUP2 JUMP JUMPDEST PUSH1 0x6 DUP1 SLOAD PUSH2 0x3E9 SWAP1 PUSH2 0x1A48 JUMP JUMPDEST DUP1 PUSH1 0x1F ADD PUSH1 0x20 DUP1 SWAP2 DIV MUL PUSH1 0x20 ADD PUSH1 0x40 MLOAD SWAP1 DUP2 ADD PUSH1 0x40 MSTORE DUP1 SWAP3 SWAP2 SWAP1 DUP2 DUP2 MSTORE PUSH1 0x20 ADD DUP3 DUP1 SLOAD PUSH2 0x415 SWAP1 PUSH2 0x1A48 JUMP JUMPDEST DUP1 ISZERO PUSH2 0x460 JUMPI DUP1 PUSH1 0x1F LT PUSH2 0x437 JUMPI PUSH2 0x100 DUP1 DUP4 SLOAD DIV MUL DUP4 MSTORE SWAP2 PUSH1 0x20 ADD SWAP2 PUSH2 0x460 JUMP JUMPDEST DUP3 ADD SWAP2 SWAP1 PUSH0 MSTORE PUSH1 0x20 PUSH0 KECCAK256 SWAP1 JUMPDEST DUP2 SLOAD DUP2 MSTORE SWAP1 PUSH1 0x1 ADD SWAP1 PUSH1 0x20 ADD DUP1 DUP4 GT PUSH2 0x443 JUMPI DUP3 SWAP1 SUB PUSH1 0x1F AND DUP3 ADD SWAP2 JUMPDEST POP POP POP POP POP DUP2 JUMP JUMPDEST PUSH1 0x9 DUP1 PUSH0 ADD DUP1 SLOAD PUSH2 0x478 SWAP1 PUSH2 0x1A48 JUMP JUMPDEST DUP1 PUSH1 0x1F ADD PUSH1 0x20 DUP1 SWAP2 DIV MUL PUSH1 0x20 ADD PUSH1 0x40 MLOAD SWAP1 DUP2 ADD PUSH1 0x40 MSTORE DUP1 SWAP3 SWAP2 SWAP1 DUP2 DUP2 MSTORE PUSH1 0x20 ADD DUP3 DUP1 SLOAD PUSH2 0x4A4 SWAP1 PUSH2 0x1A48 JUMP JUMPDEST DUP1 ISZERO PUSH2 0x4EF JUMPI DUP1 PUSH1 0x1F LT PUSH2 0x4C6 JUMPI PUSH2 0x100 DUP1 DUP4 SLOAD DIV MUL DUP4 MSTORE SWAP2 PUSH1 0x20 ADD SWAP2 PUSH2 0x4EF JUMP JUMPDEST DUP3 ADD SWAP2 SWAP1 PUSH0 MSTORE PUSH1 0x20 PUSH0 KECCAK256 SWAP1 JUMPDEST DUP2 SLOAD DUP2 MSTORE SWAP1 PUSH1 0x1 ADD SWAP1 PUSH1 0x20 ADD DUP1 DUP4 GT PUSH2 0x4D2 JUMPI DUP3 SWAP1 SUB PUSH1 0x1F AND DUP3 ADD SWAP2 JUMPDEST POP POP POP POP POP SWAP1 DUP1 PUSH1 0x1 ADD DUP1 SLOAD PUSH2 0x504 SWAP1 PUSH2 0x1A48 JUMP JUMPDEST DUP1 PUSH1 0x1F ADD PUSH1 0x20 DUP1 SWAP2 DIV MUL PUSH1 0x20 ADD PUSH1 0x40 MLOAD SWAP1 DUP2 ADD PUSH1 0x40 MSTORE DUP1 SWAP3 SWAP2 SWAP1 DUP2 DUP2 MSTORE PUSH1 0x20 ADD DUP3 DUP1 SLOAD PUSH2 0x530 SWAP1 PUSH2 0x1A48 JUMP JUMPDEST DUP1 ISZERO PUSH2 0x57B JUMPI DUP1 PUSH1 0x1F LT PUSH2 0x552 JUMPI PUSH2 0x100 DUP1 DUP4 SLOAD DIV MUL DUP4 MSTORE SWAP2 PUSH1 0x20 ADD SWAP2 PUSH2 0x57B JUMP JUMPDEST DUP3 ADD SWAP2 SWAP1 PUSH0 MSTORE PUSH1 0x20 PUSH0 KECCAK256 SWAP1 JUMPDEST DUP2 SLOAD DUP2 MSTORE SWAP1 PUSH1 0x1 ADD SWAP1 PUSH1 0x20 ADD DUP1 DUP4 GT PUSH2 0x55E JUMPI DUP3 SWAP1 SUB PUSH1 0x1F AND DUP3 ADD SWAP2 JUMPDEST POP POP POP POP POP SWAP1 DUP1 PUSH1 0x2 ADD DUP1 SLOAD PUSH2 0x590 SWAP1 PUSH2 0x1A48 JUMP JUMPDEST DUP1 PUSH1 0x1F ADD PUSH1 0x20 DUP1 SWAP2 DIV MUL PUSH1 0x20 ADD PUSH1 0x40 MLOAD SWAP1 DUP2 ADD PUSH1 0x40 MSTORE DUP1 SWAP3 SWAP2 SWAP1 DUP2 DUP2 MSTORE PUSH1 0x20 ADD DUP3 DUP1 SLOAD PUSH2 0x5BC SWAP1 PUSH2 0x1A48 JUMP JUMPDEST DUP1 ISZERO PUSH2 0x607 JUMPI DUP1 PUSH1 0x1F LT PUSH2 0x5DE JUMPI PUSH2 0x100 DUP1 DUP4 SLOAD DIV MUL DUP4 MSTORE SWAP2 PUSH1 0x20 ADD SWAP2 PUSH2 0x607 JUMP JUMPDEST DUP3 ADD SWAP2 SWAP1 PUSH0 MSTORE PUSH1 0x20 PUSH0 KECCAK256 SWAP1 JUMPDEST DUP2 SLOAD DUP2 MSTORE SWAP1 PUSH1 0x1 ADD SWAP1 PUSH1 0x20 ADD DUP1 DUP4 GT PUSH2 0x5EA JUMPI DUP3 SWAP1 SUB PUSH1 0x1F AND DUP3 ADD SWAP2 JUMPDEST POP POP POP POP POP SWAP1 DUP1 PUSH1 0x3 ADD DUP1 SLOAD PUSH2 0x61C SWAP1 PUSH2 0x1A48 JUMP JUMPDEST DUP1 PUSH1 0x1F ADD PUSH1 0x20 DUP1 SWAP2 DIV MUL PUSH1 0x20 ADD PUSH1 0x40 MLOAD SWAP1 DUP2 ADD PUSH1 0x40 MSTORE DUP1 SWAP3 SWAP2 SWAP1 DUP2 DUP2 MSTORE PUSH1 0x20 ADD DUP3 DUP1 SLOAD PUSH2 0x648 SWAP1 PUSH2 0x1A48 JUMP JUMPDEST DUP1 ISZERO PUSH2 0x693 JUMPI DUP1 PUSH1 0x1F LT PUSH2 0x66A JUMPI PUSH2 0x100 DUP1 DUP4 SLOAD DIV MUL DUP4 MSTORE SWAP2 PUSH1 0x20 ADD SWAP2 PUSH2 0x693 JUMP JUMPDEST DUP3 ADD SWAP2 SWAP1 PUSH0 MSTORE PUSH1 0x20 PUSH0 KECCAK256 SWAP1 JUMPDEST DUP2 SLOAD DUP2 MSTORE SWAP1 PUSH1 0x1 ADD SWAP1 PUSH1 0x20 ADD DUP1 DUP4 GT PUSH2 0x676 JUMPI DUP3 SWAP1 SUB PUSH1 0x1F AND DUP3 ADD SWAP2 JUMPDEST POP POP POP POP POP SWAP1 DUP1 PUSH1 0x4 ADD DUP1 SLOAD PUSH2 0x6A8 SWAP1 PUSH2 0x1A48 JUMP JUMPDEST DUP1 PUSH1 0x1F ADD PUSH1 0x20 DUP1 SWAP2 DIV MUL PUSH1 0x20 ADD PUSH1 0x40 MLOAD SWAP1 DUP2 ADD PUSH1 0x40 MSTORE DUP1 SWAP3 SWAP2 SWAP1 DUP2 DUP2 MSTORE PUSH1 0x20 ADD DUP3 DUP1 SLOAD PUSH2 0x6D4 SWAP1 PUSH2 0x1A48 JUMP JUMPDEST DUP1 ISZERO PUSH2 0x71F JUMPI DUP1 PUSH1 0x1F LT PUSH2 0x6F6 JUMPI PUSH2 0x100 DUP1 DUP4 SLOAD DIV MUL DUP4 MSTORE SWAP2 PUSH1 0x20 ADD SWAP2 PUSH2 0x71F JUMP JUMPDEST DUP3 ADD SWAP2 SWAP1 PUSH0 MSTORE PUSH1 0x20 PUSH0 KECCAK256 SWAP1 JUMPDEST DUP2 SLOAD DUP2 MSTORE SWAP1 PUSH1 0x1 ADD SWAP1 PUSH1 0x20 ADD DUP1 DUP4 GT PUSH2 0x702 JUMPI DUP3 SWAP1 SUB PUSH1 0x1F AND DUP3 ADD SWAP2 JUMPDEST POP POP POP POP POP SWAP1 DUP1 PUSH1 0x5 ADD SLOAD SWAP1 DUP1 PUSH1 0x6 ADD SLOAD SWAP1 POP DUP8 JUMP JUMPDEST PUSH1 0x5 SLOAD DUP2 JUMP JUMPDEST PUSH0 DUP1 PUSH1 0x60 DUP1 PUSH1 0x60 PUSH1 0x8 PUSH1 0x1 SWAP1 SLOAD SWAP1 PUSH2 0x100 EXP SWAP1 DIV PUSH1 0xFF AND PUSH2 0x791 JUMPI PUSH1 0x40 MLOAD PUSH32 0x8C379A000000000000000000000000000000000000000000000000000000000 DUP2 MSTORE PUSH1 0x4 ADD PUSH2 0x788 SWAP1 PUSH2 0x1AD2 JUMP JUMPDEST PUSH1 0x40 MLOAD DUP1 SWAP2 SUB SWAP1 REVERT JUMPDEST PUSH1 0x9 PUSH1 0x6 ADD SLOAD PUSH1 0x9 PUSH1 0x5 ADD SLOAD PUSH1 0x9 PUSH1 0x3 ADD PUSH1 0x9 PUSH1 0x1 ADD PUSH1 0x9 PUSH0 ADD DUP3 DUP1 SLOAD PUSH2 0x7B7 SWAP1 PUSH2 0x1A48 JUMP JUMPDEST DUP1 PUSH1 0x1F ADD PUSH1 0x20 DUP1 SWAP2 DIV MUL PUSH1 0x20 ADD PUSH1 0x40 MLOAD SWAP1 DUP2 ADD PUSH1 0x40 MSTORE DUP1 SWAP3 SWAP2 SWAP1 DUP2 DUP2 MSTORE PUSH1 0x20 ADD DUP3 DUP1 SLOAD PUSH2 0x7E3 SWAP1 PUSH2 0x1A48 JUMP JUMPDEST DUP1 ISZERO PUSH2 0x82E JUMPI DUP1 PUSH1 0x1F LT PUSH2 0x805 JUMPI PUSH2 0x100 DUP1 DUP4 SLOAD DIV MUL DUP4 MSTORE SWAP2 PUSH1 0x20 ADD SWAP2 PUSH2 0x82E JUMP JUMPDEST DUP3 ADD SWAP2 SWAP1 PUSH0 MSTORE PUSH1 0x20 PUSH0 KECCAK256 SWAP1 JUMPDEST DUP2 SLOAD DUP2 MSTORE SWAP1 PUSH1 0x1 ADD SWAP1 PUSH1 0x20 ADD DUP1 DUP4 GT PUSH2 0x811 JUMPI DUP3 SWAP1 SUB PUSH1 0x1F AND DUP3 ADD SWAP2 JUMPDEST POP POP POP POP POP SWAP3 POP DUP2 DUP1 SLOAD PUSH2 0x841 SWAP1 PUSH2 0x1A48 JUMP JUMPDEST DUP1 PUSH1 0x1F ADD PUSH1 0x20 DUP1 SWAP2 DIV MUL PUSH1 0x20 ADD PUSH1 0x40 MLOAD SWAP1 DUP2 ADD PUSH1 0x40 MSTORE DUP1 SWAP3 SWAP2 SWAP1 DUP2 DUP2 MSTORE PUSH1 0x20 ADD DUP3 DUP1 SLOAD PUSH2 0x86D SWAP1 PUSH2 0x1A48 JUMP JUMPDEST DUP1 ISZERO PUSH2 0x8B8 JUMPI DUP1 PUSH1 0x1F LT PUSH2 0x88F JUMPI PUSH2 0x100 DUP1 DUP4 SLOAD DIV MUL DUP4 MSTORE SWAP2 PUSH1 0x20 ADD SWAP2 PUSH2 0x8B8 JUMP JUMPDEST DUP3 ADD SWAP2 SWAP1 PUSH0 MSTORE PUSH1 0x20 PUSH0 KECCAK256 SWAP1 JUMPDEST DUP2 SLOAD DUP2 MSTORE SWAP1 PUSH1 0x1 ADD SWAP1 PUSH1 0x20 ADD DUP1 DUP4 GT PUSH2 0x89B JUMPI DUP3 SWAP1 SUB PUSH1 0x1F AND DUP3 ADD SWAP2 JUMPDEST POP POP POP POP POP SWAP2 POP DUP1 DUP1 SLOAD PUSH2 0x8CB SWAP1 PUSH2 0x1A48 JUMP JUMPDEST DUP1 PUSH1 0x1F ADD PUSH1 0x20 DUP1 SWAP2 DIV MUL PUSH1 0x20 ADD PUSH1 0x40 MLOAD SWAP1 DUP2 ADD PUSH1 0x40 MSTORE DUP1 SWAP3 SWAP2 SWAP1 DUP2 DUP2 MSTORE PUSH1 0x20 ADD DUP3 DUP1 SLOAD PUSH2 0x8F7 SWAP1 PUSH2 0x1A48 JUMP JUMPDEST DUP1 ISZERO PUSH2 0x942 JUMPI DUP1 PUSH1 0x1F LT PUSH2 0x919 JUMPI PUSH2 0x100 DUP1 DUP4 SLOAD DIV MUL DUP4 MSTORE SWAP2 PUSH1 0x20 ADD SWAP2 PUSH2 0x942 JUMP JUMPDEST DUP3 ADD SWAP2 SWAP1 PUSH0 MSTORE PUSH1 0x20 PUSH0 KECCAK256 SWAP1 JUMPDEST DUP2 SLOAD DUP2 MSTORE SWAP1 PUSH1 0x1 ADD SWAP1 PUSH1 0x20 ADD DUP1 DUP4 GT PUSH2 0x925 JUMPI DUP3 SWAP1 SUB PUSH1 0x1F AND DUP3 ADD SWAP2 JUMPDEST POP POP POP POP POP SWAP1 POP SWAP5 POP SWAP5 POP SWAP5 POP SWAP5 POP SWAP5 POP SWAP1 SWAP2 SWAP3 SWAP4 SWAP5 JUMP JUMPDEST PUSH1 0x1 PUSH0 SWAP1 SLOAD SWAP1 PUSH2 0x100 EXP SWAP1 DIV PUSH20 0xFFFFFFFFFFFFFFFFFFFFFFFFFFFFFFFFFFFFFFFF AND PUSH20 0xFFFFFFFFFFFFFFFFFFFFFFFFFFFFFFFFFFFFFFFF AND CALLER PUSH20 0xFFFFFFFFFFFFFFFFFFFFFFFFFFFFFFFFFFFFFFFF AND EQ PUSH2 0x9E9 JUMPI PUSH1 0x40 MLOAD PUSH32 0x8C379A000000000000000000000000000000000000000000000000000000000 DUP2 MSTORE PUSH1 0x4 ADD PUSH2 0x9E0 SWAP1 PUSH2 0x1B60 JUMP JUMPDEST PUSH1 0x40 MLOAD DUP1 SWAP2 SUB SWAP1 REVERT JUMPDEST DUP1 PUSH1 0x6 SWAP1 DUP2 PUSH2 0x9F8 SWAP2 SWAP1 PUSH2 0x1D1B JUMP JUMPDEST POP PUSH32 0x3E52FBBB12F1347BD63824136FA0930B30743AC0B2C238CF13892CF4F4E52969 DUP2 PUSH1 0x40 MLOAD PUSH2 0xA28 SWAP2 SWAP1 PUSH2 0x14F0 JUMP JUMPDEST PUSH1 0x40 MLOAD DUP1 SWAP2 SUB SWAP1 LOG1 PUSH1 0x1 PUSH1 0x8 PUSH1 0x1 PUSH2 0x100 EXP DUP2 SLOAD DUP2 PUSH1 0xFF MUL NOT AND SWAP1 DUP4 ISZERO ISZERO MUL OR SWAP1 SSTORE POP POP JUMP JUMPDEST PUSH0 DUP1 SLOAD SWAP1 PUSH2 0x100 EXP SWAP1 DIV PUSH20 0xFFFFFFFFFFFFFFFFFFFFFFFFFFFFFFFFFFFFFFFF AND PUSH20 0xFFFFFFFFFFFFFFFFFFFFFFFFFFFFFFFFFFFFFFFF AND CALLER PUSH20 0xFFFFFFFFFFFFFFFFFFFFFFFFFFFFFFFFFFFFFFFF AND EQ PUSH2 0xADB JUMPI PUSH1 0x40 MLOAD PUSH32 0x8C379A000000000000000000000000000000000000000000000000000000000 DUP2 MSTORE PUSH1 0x4 ADD PUSH2 0xAD2 SWAP1 PUSH2 0x1E5A JUMP JUMPDEST PUSH1 0x40 MLOAD DUP1 SWAP2 SUB SWAP1 REVERT JUMPDEST PUSH1 0x4 SLOAD SELFBALANCE LT ISZERO PUSH2 0xB20 JUMPI PUSH1 0x40 MLOAD PUSH32 0x8C379A000000000000000000000000000000000000000000000000000000000 DUP2 MSTORE PUSH1 0x4 ADD PUSH2 0xB17 SWAP1 PUSH2 0x1EC2 JUMP JUMPDEST PUSH1 0x40 MLOAD DUP1 SWAP2 SUB SWAP1 REVERT JUMPDEST PUSH1 0x1 PUSH0 SWAP1 SLOAD SWAP1 PUSH2 0x100 EXP SWAP1 DIV PUSH20 0xFFFFFFFFFFFFFFFFFFFFFFFFFFFFFFFFFFFFFFFF AND PUSH20 0xFFFFFFFFFFFFFFFFFFFFFFFFFFFFFFFFFFFFFFFF AND PUSH2 0x8FC PUSH1 0x2 SLOAD SWAP1 DUP2 ISZERO MUL SWAP1 PUSH1 0x40 MLOAD PUSH0 PUSH1 0x40 MLOAD DUP1 DUP4 SUB DUP2 DUP6 DUP9 DUP9 CALL SWAP4 POP POP POP POP ISZERO DUP1 ISZERO PUSH2 0xB86 JUMPI RETURNDATASIZE PUSH0 DUP1 RETURNDATACOPY RETURNDATASIZE PUSH0 REVERT JUMPDEST POP PUSH0 DUP1 SLOAD SWAP1 PUSH2 0x100 EXP SWAP1 DIV PUSH20 0xFFFFFFFFFFFFFFFFFFFFFFFFFFFFFFFFFFFFFFFF AND PUSH20 0xFFFFFFFFFFFFFFFFFFFFFFFFFFFFFFFFFFFFFFFF AND PUSH2 0x8FC PUSH1 0x3 SLOAD SWAP1 DUP2 ISZERO MUL SWAP1 PUSH1 0x40 MLOAD PUSH0 PUSH1 0x40 MLOAD DUP1 DUP4 SUB DUP2 DUP6 DUP9 DUP9 CALL SWAP4 POP POP POP POP ISZERO DUP1 ISZERO PUSH2 0xBEB JUMPI RETURNDATASIZE PUSH0 DUP1 RETURNDATACOPY RETURNDATASIZE PUSH0 REVERT JUMPDEST POP PUSH1 0x1 PUSH0 SWAP1 SLOAD SWAP1 PUSH2 0x100 EXP SWAP1 DIV PUSH20 0xFFFFFFFFFFFFFFFFFFFFFFFFFFFFFFFFFFFFFFFF AND PUSH20 0xFFFFFFFFFFFFFFFFFFFFFFFFFFFFFFFFFFFFFFFF AND CALLER PUSH20 0xFFFFFFFFFFFFFFFFFFFFFFFFFFFFFFFFFFFFFFFF AND PUSH32 0xDDF252AD1BE2C89B69C2B068FC378DAA952BA7F163C4A11628F55A4DF523B3EF PUSH1 0x2 SLOAD PUSH1 0x40 MLOAD PUSH2 0xC6C SWAP2 SWAP1 PUSH2 0x1467 JUMP JUMPDEST PUSH1 0x40 MLOAD DUP1 SWAP2 SUB SWAP1 LOG3 PUSH0 DUP1 SLOAD SWAP1 PUSH2 0x100 EXP SWAP1 DIV PUSH20 0xFFFFFFFFFFFFFFFFFFFFFFFFFFFFFFFFFFFFFFFF AND PUSH20 0xFFFFFFFFFFFFFFFFFFFFFFFFFFFFFFFFFFFFFFFF AND CALLER PUSH20 0xFFFFFFFFFFFFFFFFFFFFFFFFFFFFFFFFFFFFFFFF AND PUSH32 0xDDF252AD1BE2C89B69C2B068FC378DAA952BA7F163C4A11628F55A4DF523B3EF PUSH1 0x3 SLOAD PUSH1 0x40 MLOAD PUSH2 0xCF2 SWAP2 SWAP1 PUSH2 0x1467 JUMP JUMPDEST PUSH1 0x40 MLOAD DUP1 SWAP2 SUB SWAP1 LOG3 PUSH0 PUSH1 0x8 PUSH0 PUSH2 0x100 EXP DUP2 SLOAD DUP2 PUSH1 0xFF MUL NOT AND SWAP1 DUP4 ISZERO ISZERO MUL OR SWAP1 SSTORE POP JUMP JUMPDEST PUSH1 0x8 PUSH1 0x1 SWAP1 SLOAD SWAP1 PUSH2 0x100 EXP SWAP1 DIV PUSH1 0xFF AND DUP2 JUMP JUMPDEST PUSH1 0x7 DUP1 SLOAD PUSH2 0xD35 SWAP1 PUSH2 0x1A48 JUMP JUMPDEST DUP1 PUSH1 0x1F ADD PUSH1 0x20 DUP1 SWAP2 DIV MUL PUSH1 0x20 ADD PUSH1 0x40 MLOAD SWAP1 DUP2 ADD PUSH1 0x40 MSTORE DUP1 SWAP3 SWAP2 SWAP1 DUP2 DUP2 MSTORE PUSH1 0x20 ADD DUP3 DUP1 SLOAD PUSH2 0xD61 SWAP1 PUSH2 0x1A48 JUMP JUMPDEST DUP1 ISZERO PUSH2 0xDAC JUMPI DUP1 PUSH1 0x1F LT PUSH2 0xD83 JUMPI PUSH2 0x100 DUP1 DUP4 SLOAD DIV MUL DUP4 MSTORE SWAP2 PUSH1 0x20 ADD SWAP2 PUSH2 0xDAC JUMP JUMPDEST DUP3 ADD SWAP2 SWAP1 PUSH0 MSTORE PUSH1 0x20 PUSH0 KECCAK256 SWAP1 JUMPDEST DUP2 SLOAD DUP2 MSTORE SWAP1 PUSH1 0x1 ADD SWAP1 PUSH1 0x20 ADD DUP1 DUP4 GT PUSH2 0xD8F JUMPI DUP3 SWAP1 SUB PUSH1 0x1F AND DUP3 ADD SWAP2 JUMPDEST POP POP POP POP POP DUP2 JUMP JUMPDEST PUSH0 DUP1 SLOAD SWAP1 PUSH2 0x100 EXP SWAP1 DIV PUSH20 0xFFFFFFFFFFFFFFFFFFFFFFFFFFFFFFFFFFFFFFFF AND PUSH20 0xFFFFFFFFFFFFFFFFFFFFFFFFFFFFFFFFFFFFFFFF AND CALLER PUSH20 0xFFFFFFFFFFFFFFFFFFFFFFFFFFFFFFFFFFFFFFFF AND EQ PUSH2 0xE41 JUMPI PUSH1 0x40 MLOAD PUSH32 0x8C379A000000000000000000000000000000000000000000000000000000000 DUP2 MSTORE PUSH1 0x4 ADD PUSH2 0xE38 SWAP1 PUSH2 0x1F50 JUMP JUMPDEST PUSH1 0x40 MLOAD DUP1 SWAP2 SUB SWAP1 REVERT JUMPDEST DUP5 PUSH1 0x9 PUSH0 ADD SWAP1 DUP2 PUSH2 0xE52 SWAP2 SWAP1 PUSH2 0x1D1B JUMP JUMPDEST POP DUP4 PUSH1 0x9 PUSH1 0x1 ADD SWAP1 DUP2 PUSH2 0xE65 SWAP2 SWAP1 PUSH2 0x1D1B JUMP JUMPDEST POP DUP3 PUSH1 0x9 PUSH1 0x3 ADD SWAP1 DUP2 PUSH2 0xE78 SWAP2 SWAP1 PUSH2 0x1D1B JUMP JUMPDEST POP DUP1 PUSH1 0x9 PUSH1 0x6 ADD DUP2 SWAP1 SSTORE POP DUP2 PUSH1 0x9 PUSH1 0x5 ADD DUP2 SWAP1 SSTORE POP PUSH32 0x5B1FD024CFDECF12403893EB3F5C7143182CBB3D479096B12FF678DEB056B8AD DUP6 PUSH1 0x40 MLOAD PUSH2 0xEBC SWAP2 SWAP1 PUSH2 0x14F0 JUMP JUMPDEST PUSH1 0x40 MLOAD DUP1 SWAP2 SUB SWAP1 LOG1 POP POP POP POP POP JUMP JUMPDEST PUSH1 0x1 PUSH0 SWAP1 SLOAD SWAP1 PUSH2 0x100 EXP SWAP1 DIV PUSH20 0xFFFFFFFFFFFFFFFFFFFFFFFFFFFFFFFFFFFFFFFF AND PUSH20 0xFFFFFFFFFFFFFFFFFFFFFFFFFFFFFFFFFFFFFFFF AND CALLER PUSH20 0xFFFFFFFFFFFFFFFFFFFFFFFFFFFFFFFFFFFFFFFF AND EQ PUSH2 0xF5A JUMPI PUSH1 0x40 MLOAD PUSH32 0x8C379A000000000000000000000000000000000000000000000000000000000 DUP2 MSTORE PUSH1 0x4 ADD PUSH2 0xF51 SWAP1 PUSH2 0x1FB8 JUMP JUMPDEST PUSH1 0x40 MLOAD DUP1 SWAP2 SUB SWAP1 REVERT JUMPDEST PUSH1 0x4 SLOAD SELFBALANCE LT ISZERO PUSH2 0xF9F JUMPI PUSH1 0x40 MLOAD PUSH32 0x8C379A000000000000000000000000000000000000000000000000000000000 DUP2 MSTORE PUSH1 0x4 ADD PUSH2 0xF96 SWAP1 PUSH2 0x1EC2 JUMP JUMPDEST PUSH1 0x40 MLOAD DUP1 SWAP2 SUB SWAP1 REVERT JUMPDEST DUP3 PUSH1 0x7 SWAP1 DUP2 PUSH2 0xFAE SWAP2 SWAP1 PUSH2 0x1D1B JUMP JUMPDEST POP DUP2 PUSH1 0x9 PUSH1 0x2 ADD SWAP1 DUP2 PUSH2 0xFC1 SWAP2 SWAP1 PUSH2 0x1D1B JUMP JUMPDEST POP DUP1 PUSH1 0x9 PUSH1 0x4 ADD SWAP1 DUP2 PUSH2 0xFD4 SWAP2 SWAP1 PUSH2 0x1D1B JUMP JUMPDEST POP PUSH2 0xFDD PUSH2 0x13B6 JUMP JUMPDEST ISZERO PUSH2 0x10BF JUMPI PUSH1 0x1 PUSH0 SWAP1 SLOAD SWAP1 PUSH2 0x100 EXP SWAP1 DIV PUSH20 0xFFFFFFFFFFFFFFFFFFFFFFFFFFFFFFFFFFFFFFFF AND PUSH20 0xFFFFFFFFFFFFFFFFFFFFFFFFFFFFFFFFFFFFFFFF AND PUSH2 0x8FC PUSH1 0x4 SLOAD SWAP1 DUP2 ISZERO MUL SWAP1 PUSH1 0x40 MLOAD PUSH0 PUSH1 0x40 MLOAD DUP1 DUP4 SUB DUP2 DUP6 DUP9 DUP9 CALL SWAP4 POP POP POP POP ISZERO DUP1 ISZERO PUSH2 0x1048 JUMPI RETURNDATASIZE PUSH0 DUP1 RETURNDATACOPY RETURNDATASIZE PUSH0 REVERT JUMPDEST POP PUSH1 0x1 PUSH0 SWAP1 SLOAD SWAP1 PUSH2 0x100 EXP SWAP1 DIV PUSH20 0xFFFFFFFFFFFFFFFFFFFFFFFFFFFFFFFFFFFFFFFF AND PUSH20 0xFFFFFFFFFFFFFFFFFFFFFFFFFFFFFFFFFFFFFFFF AND PUSH32 0xE4BB88ACDA5194AA84E6FEEDBB6438FFD447BDEE1E1AD8DDA3C32FCFF9A68F08 PUSH1 0x4 SLOAD PUSH1 0x40 MLOAD PUSH2 0x10B2 SWAP2 SWAP1 PUSH2 0x1467 JUMP JUMPDEST PUSH1 0x40 MLOAD DUP1 SWAP2 SUB SWAP1 LOG2 PUSH2 0x1194 JUMP JUMPDEST PUSH0 DUP1 SLOAD SWAP1 PUSH2 0x100 EXP SWAP1 DIV PUSH20 0xFFFFFFFFFFFFFFFFFFFFFFFFFFFFFFFFFFFFFFFF AND PUSH20 0xFFFFFFFFFFFFFFFFFFFFFFFFFFFFFFFFFFFFFFFF AND PUSH2 0x8FC PUSH1 0x4 SLOAD SWAP1 DUP2 ISZERO MUL SWAP1 PUSH1 0x40 MLOAD PUSH0 PUSH1 0x40 MLOAD DUP1 DUP4 SUB DUP2 DUP6 DUP9 DUP9 CALL SWAP4 POP POP POP POP ISZERO DUP1 ISZERO PUSH2 0x1123 JUMPI RETURNDATASIZE PUSH0 DUP1 RETURNDATACOPY RETURNDATASIZE PUSH0 REVERT JUMPDEST POP PUSH0 DUP1 SLOAD SWAP1 PUSH2 0x100 EXP SWAP1 DIV PUSH20 0xFFFFFFFFFFFFFFFFFFFFFFFFFFFFFFFFFFFFFFFF AND PUSH20 0xFFFFFFFFFFFFFFFFFFFFFFFFFFFFFFFFFFFFFFFF AND PUSH32 0xE4BB88ACDA5194AA84E6FEEDBB6438FFD447BDEE1E1AD8DDA3C32FCFF9A68F08 PUSH1 0x4 SLOAD PUSH1 0x40 MLOAD PUSH2 0x118B SWAP2 SWAP1 PUSH2 0x1467 JUMP JUMPDEST PUSH1 0x40 MLOAD DUP1 SWAP2 SUB SWAP1 LOG2 JUMPDEST POP POP POP JUMP JUMPDEST PUSH1 0x2 SLOAD DUP2 JUMP JUMPDEST PUSH0 DUP1 PUSH0 DUP1 PUSH0 DUP1 PUSH0 DUP1 PUSH0 SWAP1 SLOAD SWAP1 PUSH2 0x100 EXP SWAP1 DIV PUSH20 0xFFFFFFFFFFFFFFFFFFFFFFFFFFFFFFFFFFFFFFFF AND PUSH1 0x1 PUSH0 SWAP1 SLOAD SWAP1 PUSH2 0x100 EXP SWAP1 DIV PUSH20 0xFFFFFFFFFFFFFFFFFFFFFFFFFFFFFFFFFFFFFFFF AND PUSH1 0x2 SLOAD PUSH1 0x3 SLOAD PUSH1 0x4 SLOAD PUSH1 0x5 SLOAD PUSH1 0x8 PUSH0 SWAP1 SLOAD SWAP1 PUSH2 0x100 EXP SWAP1 DIV PUSH1 0xFF AND SWAP7 POP SWAP7 POP SWAP7 POP SWAP7 POP SWAP7 POP SWAP7 POP SWAP7 POP SWAP1 SWAP2 SWAP3 SWAP4 SWAP5 SWAP6 SWAP7 JUMP JUMPDEST PUSH1 0x1 PUSH0 SWAP1 SLOAD SWAP1 PUSH2 0x100 EXP SWAP1 DIV PUSH20 0xFFFFFFFFFFFFFFFFFFFFFFFFFFFFFFFFFFFFFFFF AND DUP2 JUMP JUMPDEST PUSH0 DUP1 SLOAD SWAP1 PUSH2 0x100 EXP SWAP1 DIV PUSH20 0xFFFFFFFFFFFFFFFFFFFFFFFFFFFFFFFFFFFFFFFF AND PUSH20 0xFFFFFFFFFFFFFFFFFFFFFFFFFFFFFFFFFFFFFFFF AND CALLER PUSH20 0xFFFFFFFFFFFFFFFFFFFFFFFFFFFFFFFFFFFFFFFF AND EQ PUSH2 0x12CD JUMPI PUSH1 0x40 MLOAD PUSH32 0x8C379A000000000000000000000000000000000000000000000000000000000 DUP2 MSTORE PUSH1 0x4 ADD PUSH2 0x12C4 SWAP1 PUSH2 0x2020 JUMP JUMPDEST PUSH1 0x40 MLOAD DUP1 SWAP2 SUB SWAP1 REVERT JUMPDEST PUSH1 0x4 SLOAD CALLVALUE EQ PUSH2 0x1311 JUMPI PUSH1 0x40 MLOAD PUSH32 0x8C379A000000000000000000000000000000000000000000000000000000000 DUP2 MSTORE PUSH1 0x4 ADD PUSH2 0x1308 SWAP1 PUSH2 0x20AE JUMP JUMPDEST PUSH1 0x40 MLOAD DUP1 SWAP2 SUB SWAP1 REVERT JUMPDEST CALLER PUSH20 0xFFFFFFFFFFFFFFFFFFFFFFFFFFFFFFFFFFFFFFFF AND PUSH32 0xE1FFFCC4923D04B559F4D29A8BFC6CDA04EB5B0D3C460751C2402C5C5CC9109C CALLVALUE PUSH1 0x40 MLOAD PUSH2 0x1357 SWAP2 SWAP1 PUSH2 0x1467 JUMP JUMPDEST PUSH1 0x40 MLOAD DUP1 SWAP2 SUB SWAP1 LOG2 PUSH1 0x1 PUSH1 0x8 PUSH0 PUSH2 0x100 EXP DUP2 SLOAD DUP2 PUSH1 0xFF MUL NOT AND SWAP1 DUP4 ISZERO ISZERO MUL OR SWAP1 SSTORE POP JUMP JUMPDEST PUSH1 0x3 SLOAD DUP2 JUMP JUMPDEST PUSH0 DUP1 SLOAD SWAP1 PUSH2 0x100 EXP SWAP1 DIV PUSH20 0xFFFFFFFFFFFFFFFFFFFFFFFFFFFFFFFFFFFFFFFF AND DUP2 JUMP JUMPDEST PUSH1 0x8 PUSH0 SWAP1 SLOAD SWAP1 PUSH2 0x100 EXP SWAP1 DIV PUSH1 0xFF AND DUP2 JUMP JUMPDEST PUSH0 PUSH20 0x0 PUSH4 0xC2269A7B PUSH1 0x9 PUSH1 0x3 ADD PUSH1 0x9 PUSH1 0x1 ADD PUSH1 0x9 PUSH1 0x2 ADD PUSH1 0x9 PUSH1 0x4 ADD PUSH1 0x9 PUSH1 0x6 ADD SLOAD PUSH1 0x40 MLOAD DUP7 PUSH4 0xFFFFFFFF AND PUSH1 0xE0 SHL DUP2 MSTORE PUSH1 0x4 ADD PUSH2 0x140B SWAP6 SWAP5 SWAP4 SWAP3 SWAP2 SWAP1 PUSH2 0x216C JUMP JUMPDEST PUSH1 0x20 PUSH1 0x40 MLOAD DUP1 DUP4 SUB DUP2 DUP7 GAS DELEGATECALL ISZERO DUP1 ISZERO PUSH2 0x1426 JUMPI RETURNDATASIZE PUSH0 DUP1 RETURNDATACOPY RETURNDATASIZE PUSH0 REVERT JUMPDEST POP POP POP POP PUSH1 0x40 MLOAD RETURNDATASIZE PUSH1 0x1F NOT PUSH1 0x1F DUP3 ADD AND DUP3 ADD DUP1 PUSH1 0x40 MSTORE POP DUP2 ADD SWAP1 PUSH2 0x144A SWAP2 SWAP1 PUSH2 0x2203 JUMP JUMPDEST SWAP1 POP SWAP1 JUMP JUMPDEST PUSH0 DUP2 SWAP1 POP SWAP2 SWAP1 POP JUMP JUMPDEST PUSH2 0x1461 DUP2 PUSH2 0x144F JUMP JUMPDEST DUP3 MSTORE POP POP JUMP JUMPDEST PUSH0 PUSH1 0x20 DUP3 ADD SWAP1 POP PUSH2 0x147A PUSH0 DUP4 ADD DUP5 PUSH2 0x1458 JUMP JUMPDEST SWAP3 SWAP2 POP POP JUMP JUMPDEST PUSH0 DUP2 MLOAD SWAP1 POP SWAP2 SWAP1 POP JUMP JUMPDEST PUSH0 DUP3 DUP3 MSTORE PUSH1 0x20 DUP3 ADD SWAP1 POP SWAP3 SWAP2 POP POP JUMP JUMPDEST DUP3 DUP2 DUP4 MCOPY PUSH0 DUP4 DUP4 ADD MSTORE POP POP POP JUMP JUMPDEST PUSH0 PUSH1 0x1F NOT PUSH1 0x1F DUP4 ADD AND SWAP1 POP SWAP2 SWAP1 POP JUMP JUMPDEST PUSH0 PUSH2 0x14C2 DUP3 PUSH2 0x1480 JUMP JUMPDEST PUSH2 0x14CC DUP2 DUP6 PUSH2 0x148A JUMP JUMPDEST SWAP4 POP PUSH2 0x14DC DUP2 DUP6 PUSH1 0x20 DUP7 ADD PUSH2 0x149A JUMP JUMPDEST PUSH2 0x14E5 DUP2 PUSH2 0x14A8 JUMP JUMPDEST DUP5 ADD SWAP2 POP POP SWAP3 SWAP2 POP POP JUMP JUMPDEST PUSH0 PUSH1 0x20 DUP3 ADD SWAP1 POP DUP2 DUP2 SUB PUSH0 DUP4 ADD MSTORE PUSH2 0x1508 DUP2 DUP5 PUSH2 0x14B8 JUMP JUMPDEST SWAP1 POP SWAP3 SWAP2 POP POP JUMP JUMPDEST PUSH0 PUSH1 0xE0 DUP3 ADD SWAP1 POP DUP2 DUP2 SUB PUSH0 DUP4 ADD MSTORE PUSH2 0x1528 DUP2 DUP11 PUSH2 0x14B8 JUMP JUMPDEST SWAP1 POP DUP2 DUP2 SUB PUSH1 0x20 DUP4 ADD MSTORE PUSH2 0x153C DUP2 DUP10 PUSH2 0x14B8 JUMP JUMPDEST SWAP1 POP DUP2 DUP2 SUB PUSH1 0x40 DUP4 ADD MSTORE PUSH2 0x1550 DUP2 DUP9 PUSH2 0x14B8 JUMP JUMPDEST SWAP1 POP DUP2 DUP2 SUB PUSH1 0x60 DUP4 ADD MSTORE PUSH2 0x1564 DUP2 DUP8 PUSH2 0x14B8 JUMP JUMPDEST SWAP1 POP DUP2 DUP2 SUB PUSH1 0x80 DUP4 ADD MSTORE PUSH2 0x1578 DUP2 DUP7 PUSH2 0x14B8 JUMP JUMPDEST SWAP1 POP PUSH2 0x1587 PUSH1 0xA0 DUP4 ADD DUP6 PUSH2 0x1458 JUMP JUMPDEST PUSH2 0x1594 PUSH1 0xC0 DUP4 ADD DUP5 PUSH2 0x1458 JUMP JUMPDEST SWAP9 SWAP8 POP POP POP POP POP POP POP POP JUMP JUMPDEST PUSH0 PUSH1 0xA0 DUP3 ADD SWAP1 POP PUSH2 0x15B3 PUSH0 DUP4 ADD DUP9 PUSH2 0x1458 JUMP JUMPDEST PUSH2 0x15C0 PUSH1 0x20 DUP4 ADD DUP8 PUSH2 0x1458 JUMP JUMPDEST DUP2 DUP2 SUB PUSH1 0x40 DUP4 ADD MSTORE PUSH2 0x15D2 DUP2 DUP7 PUSH2 0x14B8 JUMP JUMPDEST SWAP1 POP DUP2 DUP2 SUB PUSH1 0x60 DUP4 ADD MSTORE PUSH2 0x15E6 DUP2 DUP6 PUSH2 0x14B8 JUMP JUMPDEST SWAP1 POP DUP2 DUP2 SUB PUSH1 0x80 DUP4 ADD MSTORE PUSH2 0x15FA DUP2 DUP5 PUSH2 0x14B8 JUMP JUMPDEST SWAP1 POP SWAP7 SWAP6 POP POP POP POP POP POP JUMP JUMPDEST PUSH0 PUSH1 0x40 MLOAD SWAP1 POP SWAP1 JUMP JUMPDEST PUSH0 DUP1 REVERT JUMPDEST PUSH0 DUP1 REVERT JUMPDEST PUSH0 DUP1 REVERT JUMPDEST PUSH0 DUP1 REVERT JUMPDEST PUSH32 0x4E487B7100000000000000000000000000000000000000000000000000000000 PUSH0 MSTORE PUSH1 0x41 PUSH1 0x4 MSTORE PUSH1 0x24 PUSH0 REVERT JUMPDEST PUSH2 0x1655 DUP3 PUSH2 0x14A8 JUMP JUMPDEST DUP2 ADD DUP2 DUP2 LT PUSH8 0xFFFFFFFFFFFFFFFF DUP3 GT OR ISZERO PUSH2 0x1674 JUMPI PUSH2 0x1673 PUSH2 0x161F JUMP JUMPDEST JUMPDEST DUP1 PUSH1 0x40 MSTORE POP POP POP JUMP JUMPDEST PUSH0 PUSH2 0x1686 PUSH2 0x1606 JUMP JUMPDEST SWAP1 POP PUSH2 0x1692 DUP3 DUP3 PUSH2 0x164C JUMP JUMPDEST SWAP2 SWAP1 POP JUMP JUMPDEST PUSH0 PUSH8 0xFFFFFFFFFFFFFFFF DUP3 GT ISZERO PUSH2 0x16B1 JUMPI PUSH2 0x16B0 PUSH2 0x161F JUMP JUMPDEST JUMPDEST PUSH2 0x16BA DUP3 PUSH2 0x14A8 JUMP JUMPDEST SWAP1 POP PUSH1 0x20 DUP2 ADD SWAP1 POP SWAP2 SWAP1 POP JUMP JUMPDEST DUP3 DUP2 DUP4 CALLDATACOPY PUSH0 DUP4 DUP4 ADD MSTORE POP POP POP JUMP JUMPDEST PUSH0 PUSH2 0x16E7 PUSH2 0x16E2 DUP5 PUSH2 0x1697 JUMP JUMPDEST PUSH2 0x167D JUMP JUMPDEST SWAP1 POP DUP3 DUP2 MSTORE PUSH1 0x20 DUP2 ADD DUP5 DUP5 DUP5 ADD GT ISZERO PUSH2 0x1703 JUMPI PUSH2 0x1702 PUSH2 0x161B JUMP JUMPDEST JUMPDEST PUSH2 0x170E DUP5 DUP3 DUP6 PUSH2 0x16C7 JUMP JUMPDEST POP SWAP4 SWAP3 POP POP POP JUMP JUMPDEST PUSH0 DUP3 PUSH1 0x1F DUP4 ADD SLT PUSH2 0x172A JUMPI PUSH2 0x1729 PUSH2 0x1617 JUMP JUMPDEST JUMPDEST DUP2 CALLDATALOAD PUSH2 0x173A DUP5 DUP3 PUSH1 0x20 DUP7 ADD PUSH2 0x16D5 JUMP JUMPDEST SWAP2 POP POP SWAP3 SWAP2 POP POP JUMP JUMPDEST PUSH0 PUSH1 0x20 DUP3 DUP5 SUB SLT ISZERO PUSH2 0x1758 JUMPI PUSH2 0x1757 PUSH2 0x160F JUMP JUMPDEST JUMPDEST PUSH0 DUP3 ADD CALLDATALOAD PUSH8 0xFFFFFFFFFFFFFFFF DUP2 GT ISZERO PUSH2 0x1775 JUMPI PUSH2 0x1774 PUSH2 0x1613 JUMP JUMPDEST JUMPDEST PUSH2 0x1781 DUP5 DUP3 DUP6 ADD PUSH2 0x1716 JUMP JUMPDEST SWAP2 POP POP SWAP3 SWAP2 POP POP JUMP JUMPDEST PUSH0 DUP2 ISZERO ISZERO SWAP1 POP SWAP2 SWAP1 POP JUMP JUMPDEST PUSH2 0x179E DUP2 PUSH2 0x178A JUMP JUMPDEST DUP3 MSTORE POP POP JUMP JUMPDEST PUSH0 PUSH1 0x20 DUP3 ADD SWAP1 POP PUSH2 0x17B7 PUSH0 DUP4 ADD DUP5 PUSH2 0x1795 JUMP JUMPDEST SWAP3 SWAP2 POP POP JUMP JUMPDEST PUSH2 0x17C6 DUP2 PUSH2 0x144F JUMP JUMPDEST DUP2 EQ PUSH2 0x17D0 JUMPI PUSH0 DUP1 REVERT JUMPDEST POP JUMP JUMPDEST PUSH0 DUP2 CALLDATALOAD SWAP1 POP PUSH2 0x17E1 DUP2 PUSH2 0x17BD JUMP JUMPDEST SWAP3 SWAP2 POP POP JUMP JUMPDEST PUSH0 DUP1 PUSH0 DUP1 PUSH0 PUSH1 0xA0 DUP7 DUP9 SUB SLT ISZERO PUSH2 0x1800 JUMPI PUSH2 0x17FF PUSH2 0x160F JUMP JUMPDEST JUMPDEST PUSH0 DUP7 ADD CALLDATALOAD PUSH8 0xFFFFFFFFFFFFFFFF DUP2 GT ISZERO PUSH2 0x181D JUMPI PUSH2 0x181C PUSH2 0x1613 JUMP JUMPDEST JUMPDEST PUSH2 0x1829 DUP9 DUP3 DUP10 ADD PUSH2 0x1716 JUMP JUMPDEST SWAP6 POP POP PUSH1 0x20 DUP7 ADD CALLDATALOAD PUSH8 0xFFFFFFFFFFFFFFFF DUP2 GT ISZERO PUSH2 0x184A JUMPI PUSH2 0x1849 PUSH2 0x1613 JUMP JUMPDEST JUMPDEST PUSH2 0x1856 DUP9 DUP3 DUP10 ADD PUSH2 0x1716 JUMP JUMPDEST SWAP5 POP POP PUSH1 0x40 DUP7 ADD CALLDATALOAD PUSH8 0xFFFFFFFFFFFFFFFF DUP2 GT ISZERO PUSH2 0x1877 JUMPI PUSH2 0x1876 PUSH2 0x1613 JUMP JUMPDEST JUMPDEST PUSH2 0x1883 DUP9 DUP3 DUP10 ADD PUSH2 0x1716 JUMP JUMPDEST SWAP4 POP POP PUSH1 0x60 PUSH2 0x1894 DUP9 DUP3 DUP10 ADD PUSH2 0x17D3 JUMP JUMPDEST SWAP3 POP POP PUSH1 0x80 PUSH2 0x18A5 DUP9 DUP3 DUP10 ADD PUSH2 0x17D3 JUMP JUMPDEST SWAP2 POP POP SWAP3 SWAP6 POP SWAP3 SWAP6 SWAP1 SWAP4 POP JUMP JUMPDEST PUSH0 DUP1 PUSH0 PUSH1 0x60 DUP5 DUP7 SUB SLT ISZERO PUSH2 0x18C9 JUMPI PUSH2 0x18C8 PUSH2 0x160F JUMP JUMPDEST JUMPDEST PUSH0 DUP5 ADD CALLDATALOAD PUSH8 0xFFFFFFFFFFFFFFFF DUP2 GT ISZERO PUSH2 0x18E6 JUMPI PUSH2 0x18E5 PUSH2 0x1613 JUMP JUMPDEST JUMPDEST PUSH2 0x18F2 DUP7 DUP3 DUP8 ADD PUSH2 0x1716 JUMP JUMPDEST SWAP4 POP POP PUSH1 0x20 DUP5 ADD CALLDATALOAD PUSH8 0xFFFFFFFFFFFFFFFF DUP2 GT ISZERO PUSH2 0x1913 JUMPI PUSH2 0x1912 PUSH2 0x1613 JUMP JUMPDEST JUMPDEST PUSH2 0x191F DUP7 DUP3 DUP8 ADD PUSH2 0x1716 JUMP JUMPDEST SWAP3 POP POP PUSH1 0x40 DUP5 ADD CALLDATALOAD PUSH8 0xFFFFFFFFFFFFFFFF DUP2 GT ISZERO PUSH2 0x1940 JUMPI PUSH2 0x193F PUSH2 0x1613 JUMP JUMPDEST JUMPDEST PUSH2 0x194C DUP7 DUP3 DUP8 ADD PUSH2 0x1716 JUMP JUMPDEST SWAP2 POP POP SWAP3 POP SWAP3 POP SWAP3 JUMP JUMPDEST PUSH0 PUSH20 0xFFFFFFFFFFFFFFFFFFFFFFFFFFFFFFFFFFFFFFFF DUP3 AND SWAP1 POP SWAP2 SWAP1 POP JUMP JUMPDEST PUSH0 PUSH2 0x197F DUP3 PUSH2 0x1956 JUMP JUMPDEST SWAP1 POP SWAP2 SWAP1 POP JUMP JUMPDEST PUSH2 0x198F DUP2 PUSH2 0x1975 JUMP JUMPDEST DUP3 MSTORE POP POP JUMP JUMPDEST PUSH0 PUSH1 0xE0 DUP3 ADD SWAP1 POP PUSH2 0x19A8 PUSH0 DUP4 ADD DUP11 PUSH2 0x1986 JUMP JUMPDEST PUSH2 0x19B5 PUSH1 0x20 DUP4 ADD DUP10 PUSH2 0x1986 JUMP JUMPDEST PUSH2 0x19C2 PUSH1 0x40 DUP4 ADD DUP9 PUSH2 0x1458 JUMP JUMPDEST PUSH2 0x19CF PUSH1 0x60 DUP4 ADD DUP8 PUSH2 0x1458 JUMP JUMPDEST PUSH2 0x19DC PUSH1 0x80 DUP4 ADD DUP7 PUSH2 0x1458 JUMP JUMPDEST PUSH2 0x19E9 PUSH1 0xA0 DUP4 ADD DUP6 PUSH2 0x1458 JUMP JUMPDEST PUSH2 0x19F6 PUSH1 0xC0 DUP4 ADD DUP5 PUSH2 0x1795 JUMP JUMPDEST SWAP9 SWAP8 POP POP POP POP POP POP POP POP JUMP JUMPDEST PUSH0 PUSH1 0x20 DUP3 ADD SWAP1 POP PUSH2 0x1A15 PUSH0 DUP4 ADD DUP5 PUSH2 0x1986 JUMP JUMPDEST SWAP3 SWAP2 POP POP JUMP JUMPDEST PUSH32 0x4E487B7100000000000000000000000000000000000000000000000000000000 PUSH0 MSTORE PUSH1 0x22 PUSH1 0x4 MSTORE PUSH1 0x24 PUSH0 REVERT JUMPDEST PUSH0 PUSH1 0x2 DUP3 DIV SWAP1 POP PUSH1 0x1 DUP3 AND DUP1 PUSH2 0x1A5F JUMPI PUSH1 0x7F DUP3 AND SWAP2 POP JUMPDEST PUSH1 0x20 DUP3 LT DUP2 SUB PUSH2 0x1A72 JUMPI PUSH2 0x1A71 PUSH2 0x1A1B JUMP JUMPDEST JUMPDEST POP SWAP2 SWAP1 POP JUMP JUMPDEST PUSH0 DUP3 DUP3 MSTORE PUSH1 0x20 DUP3 ADD SWAP1 POP SWAP3 SWAP2 POP POP JUMP JUMPDEST PUSH32 0x706C7A2075706C6F61642062616E6B2072656365697074206669727374000000 PUSH0 DUP3 ADD MSTORE POP JUMP JUMPDEST PUSH0 PUSH2 0x1ABC PUSH1 0x1D DUP4 PUSH2 0x1A78 JUMP JUMPDEST SWAP2 POP PUSH2 0x1AC7 DUP3 PUSH2 0x1A88 JUMP JUMPDEST PUSH1 0x20 DUP3 ADD SWAP1 POP SWAP2 SWAP1 POP JUMP JUMPDEST PUSH0 PUSH1 0x20 DUP3 ADD SWAP1 POP DUP2 DUP2 SUB PUSH0 DUP4 ADD MSTORE PUSH2 0x1AE9 DUP2 PUSH2 0x1AB0 JUMP JUMPDEST SWAP1 POP SWAP2 SWAP1 POP JUMP JUMPDEST PUSH32 0x4F6E6C7920426F622063616E2075706C6F61642062616E6B2072656365697074 PUSH0 DUP3 ADD MSTORE PUSH32 0x2E00000000000000000000000000000000000000000000000000000000000000 PUSH1 0x20 DUP3 ADD MSTORE POP JUMP JUMPDEST PUSH0 PUSH2 0x1B4A PUSH1 0x21 DUP4 PUSH2 0x1A78 JUMP JUMPDEST SWAP2 POP PUSH2 0x1B55 DUP3 PUSH2 0x1AF0 JUMP JUMPDEST PUSH1 0x40 DUP3 ADD SWAP1 POP SWAP2 SWAP1 POP JUMP JUMPDEST PUSH0 PUSH1 0x20 DUP3 ADD SWAP1 POP DUP2 DUP2 SUB PUSH0 DUP4 ADD MSTORE PUSH2 0x1B77 DUP2 PUSH2 0x1B3E JUMP JUMPDEST SWAP1 POP SWAP2 SWAP1 POP JUMP JUMPDEST PUSH0 DUP2 SWAP1 POP DUP2 PUSH0 MSTORE PUSH1 0x20 PUSH0 KECCAK256 SWAP1 POP SWAP2 SWAP1 POP JUMP JUMPDEST PUSH0 PUSH1 0x20 PUSH1 0x1F DUP4 ADD DIV SWAP1 POP SWAP2 SWAP1 POP JUMP JUMPDEST PUSH0 DUP3 DUP3 SHL SWAP1 POP SWAP3 SWAP2 POP POP JUMP JUMPDEST PUSH0 PUSH1 0x8 DUP4 MUL PUSH2 0x1BDA PUSH32 0xFFFFFFFFFFFFFFFFFFFFFFFFFFFFFFFFFFFFFFFFFFFFFFFFFFFFFFFFFFFFFFFF DUP3 PUSH2 0x1B9F JUMP JUMPDEST PUSH2 0x1BE4 DUP7 DUP4 PUSH2 0x1B9F JUMP JUMPDEST SWAP6 POP DUP1 NOT DUP5 AND SWAP4 POP DUP1 DUP7 AND DUP5 OR SWAP3 POP POP POP SWAP4 SWAP3 POP POP POP JUMP JUMPDEST PUSH0 DUP2 SWAP1 POP SWAP2 SWAP1 POP JUMP JUMPDEST PUSH0 PUSH2 0x1C1F PUSH2 0x1C1A PUSH2 0x1C15 DUP5 PUSH2 0x144F JUMP JUMPDEST PUSH2 0x1BFC JUMP JUMPDEST PUSH2 0x144F JUMP JUMPDEST SWAP1 POP SWAP2 SWAP1 POP JUMP JUMPDEST PUSH0 DUP2 SWAP1 POP SWAP2 SWAP1 POP JUMP JUMPDEST PUSH2 0x1C38 DUP4 PUSH2 0x1C05 JUMP JUMPDEST PUSH2 0x1C4C PUSH2 0x1C44 DUP3 PUSH2 0x1C26 JUMP JUMPDEST DUP5 DUP5 SLOAD PUSH2 0x1BAB JUMP JUMPDEST DUP3 SSTORE POP POP POP POP JUMP JUMPDEST PUSH0 SWAP1 JUMP JUMPDEST PUSH2 0x1C60 PUSH2 0x1C54 JUMP JUMPDEST PUSH2 0x1C6B DUP2 DUP5 DUP5 PUSH2 0x1C2F JUMP JUMPDEST POP POP POP JUMP JUMPDEST JUMPDEST DUP2 DUP2 LT ISZERO PUSH2 0x1C8E JUMPI PUSH2 0x1C83 PUSH0 DUP3 PUSH2 0x1C58 JUMP JUMPDEST PUSH1 0x1 DUP2 ADD SWAP1 POP PUSH2 0x1C71 JUMP JUMPDEST POP POP JUMP JUMPDEST PUSH1 0x1F DUP3 GT ISZERO PUSH2 0x1CD3 JUMPI PUSH2 0x1CA4 DUP2 PUSH2 0x1B7E JUMP JUMPDEST PUSH2 0x1CAD DUP5 PUSH2 0x1B90 JUMP JUMPDEST DUP2 ADD PUSH1 0x20 DUP6 LT ISZERO PUSH2 0x1CBC JUMPI DUP2 SWAP1 POP JUMPDEST PUSH2 0x1CD0 PUSH2 0x1CC8 DUP6 PUSH2 0x1B90 JUMP JUMPDEST DUP4 ADD DUP3 PUSH2 0x1C70 JUMP JUMPDEST POP POP JUMPDEST POP POP POP JUMP JUMPDEST PUSH0 DUP3 DUP3 SHR SWAP1 POP SWAP3 SWAP2 POP POP JUMP JUMPDEST PUSH0 PUSH2 0x1CF3 PUSH0 NOT DUP5 PUSH1 0x8 MUL PUSH2 0x1CD8 JUMP JUMPDEST NOT DUP1 DUP4 AND SWAP2 POP POP SWAP3 SWAP2 POP POP JUMP JUMPDEST PUSH0 PUSH2 0x1D0B DUP4 DUP4 PUSH2 0x1CE4 JUMP JUMPDEST SWAP2 POP DUP3 PUSH1 0x2 MUL DUP3 OR SWAP1 POP SWAP3 SWAP2 POP POP JUMP JUMPDEST PUSH2 0x1D24 DUP3 PUSH2 0x1480 JUMP JUMPDEST PUSH8 0xFFFFFFFFFFFFFFFF DUP2 GT ISZERO PUSH2 0x1D3D JUMPI PUSH2 0x1D3C PUSH2 0x161F JUMP JUMPDEST JUMPDEST PUSH2 0x1D47 DUP3 SLOAD PUSH2 0x1A48 JUMP JUMPDEST PUSH2 0x1D52 DUP3 DUP3 DUP6 PUSH2 0x1C92 JUMP JUMPDEST PUSH0 PUSH1 0x20 SWAP1 POP PUSH1 0x1F DUP4 GT PUSH1 0x1 DUP2 EQ PUSH2 0x1D83 JUMPI PUSH0 DUP5 ISZERO PUSH2 0x1D71 JUMPI DUP3 DUP8 ADD MLOAD SWAP1 POP JUMPDEST PUSH2 0x1D7B DUP6 DUP3 PUSH2 0x1D00 JUMP JUMPDEST DUP7 SSTORE POP PUSH2 0x1DE2 JUMP JUMPDEST PUSH1 0x1F NOT DUP5 AND PUSH2 0x1D91 DUP7 PUSH2 0x1B7E JUMP JUMPDEST PUSH0 JUMPDEST DUP3 DUP2 LT ISZERO PUSH2 0x1DB8 JUMPI DUP5 DUP10 ADD MLOAD DUP3 SSTORE PUSH1 0x1 DUP3 ADD SWAP2 POP PUSH1 0x20 DUP6 ADD SWAP5 POP PUSH1 0x20 DUP2 ADD SWAP1 POP PUSH2 0x1D93 JUMP JUMPDEST DUP7 DUP4 LT ISZERO PUSH2 0x1DD5 JUMPI DUP5 DUP10 ADD MLOAD PUSH2 0x1DD1 PUSH1 0x1F DUP10 AND DUP3 PUSH2 0x1CE4 JUMP JUMPDEST DUP4 SSTORE POP JUMPDEST PUSH1 0x1 PUSH1 0x2 DUP9 MUL ADD DUP9 SSTORE POP POP POP JUMPDEST POP POP POP POP POP POP JUMP JUMPDEST PUSH32 0x4F6E6C7920416C6963652063616E20696E697469617465207472616E73666572 PUSH0 DUP3 ADD MSTORE PUSH32 0x2E00000000000000000000000000000000000000000000000000000000000000 PUSH1 0x20 DUP3 ADD MSTORE POP JUMP JUMPDEST PUSH0 PUSH2 0x1E44 PUSH1 0x21 DUP4 PUSH2 0x1A78 JUMP JUMPDEST SWAP2 POP PUSH2 0x1E4F DUP3 PUSH2 0x1DEA JUMP JUMPDEST PUSH1 0x40 DUP3 ADD SWAP1 POP SWAP2 SWAP1 POP JUMP JUMPDEST PUSH0 PUSH1 0x20 DUP3 ADD SWAP1 POP DUP2 DUP2 SUB PUSH0 DUP4 ADD MSTORE PUSH2 0x1E71 DUP2 PUSH2 0x1E38 JUMP JUMPDEST SWAP1 POP SWAP2 SWAP1 POP JUMP JUMPDEST PUSH32 0x496E73756666696369656E742062616C616E63652E0000000000000000000000 PUSH0 DUP3 ADD MSTORE POP JUMP JUMPDEST PUSH0 PUSH2 0x1EAC PUSH1 0x15 DUP4 PUSH2 0x1A78 JUMP JUMPDEST SWAP2 POP PUSH2 0x1EB7 DUP3 PUSH2 0x1E78 JUMP JUMPDEST PUSH1 0x20 DUP3 ADD SWAP1 POP SWAP2 SWAP1 POP JUMP JUMPDEST PUSH0 PUSH1 0x20 DUP3 ADD SWAP1 POP DUP2 DUP2 SUB PUSH0 DUP4 ADD MSTORE PUSH2 0x1ED9 DUP2 PUSH2 0x1EA0 JUMP JUMPDEST SWAP1 POP SWAP2 SWAP1 POP JUMP JUMPDEST PUSH32 0x4F6E6C7920416C6963652063616E2075706C6F616420656E6372797074656420 PUSH0 DUP3 ADD MSTORE PUSH32 0x646174612E000000000000000000000000000000000000000000000000000000 PUSH1 0x20 DUP3 ADD MSTORE POP JUMP JUMPDEST PUSH0 PUSH2 0x1F3A PUSH1 0x25 DUP4 PUSH2 0x1A78 JUMP JUMPDEST SWAP2 POP PUSH2 0x1F45 DUP3 PUSH2 0x1EE0 JUMP JUMPDEST PUSH1 0x40 DUP3 ADD SWAP1 POP SWAP2 SWAP1 POP JUMP JUMPDEST PUSH0 PUSH1 0x20 DUP3 ADD SWAP1 POP DUP2 DUP2 SUB PUSH0 DUP4 ADD MSTORE PUSH2 0x1F67 DUP2 PUSH2 0x1F2E JUMP JUMPDEST SWAP1 POP SWAP2 SWAP1 POP JUMP JUMPDEST PUSH32 0x4F6E6C7920426F622063616E207375626D69742070726F6F662E000000000000 PUSH0 DUP3 ADD MSTORE POP JUMP JUMPDEST PUSH0 PUSH2 0x1FA2 PUSH1 0x1A DUP4 PUSH2 0x1A78 JUMP JUMPDEST SWAP2 POP PUSH2 0x1FAD DUP3 PUSH2 0x1F6E JUMP JUMPDEST PUSH1 0x20 DUP3 ADD SWAP1 POP SWAP2 SWAP1 POP JUMP JUMPDEST PUSH0 PUSH1 0x20 DUP3 ADD SWAP1 POP DUP2 DUP2 SUB PUSH0 DUP4 ADD MSTORE PUSH2 0x1FCF DUP2 PUSH2 0x1F96 JUMP JUMPDEST SWAP1 POP SWAP2 SWAP1 POP JUMP JUMPDEST PUSH32 0x4F6E6C7920416C6963652063616E206465706F7369742E000000000000000000 PUSH0 DUP3 ADD MSTORE POP JUMP JUMPDEST PUSH0 PUSH2 0x200A PUSH1 0x17 DUP4 PUSH2 0x1A78 JUMP JUMPDEST SWAP2 POP PUSH2 0x2015 DUP3 PUSH2 0x1FD6 JUMP JUMPDEST PUSH1 0x20 DUP3 ADD SWAP1 POP SWAP2 SWAP1 POP JUMP JUMPDEST PUSH0 PUSH1 0x20 DUP3 ADD SWAP1 POP DUP2 DUP2 SUB PUSH0 DUP4 ADD MSTORE PUSH2 0x2037 DUP2 PUSH2 0x1FFE JUMP JUMPDEST SWAP1 POP SWAP2 SWAP1 POP JUMP JUMPDEST PUSH32 0x4465706F73697420616D6F756E74206D757374206265206D6F7265207468616E PUSH0 DUP3 ADD MSTORE PUSH32 0x20312E3031612E00000000000000000000000000000000000000000000000000 PUSH1 0x20 DUP3 ADD MSTORE POP JUMP JUMPDEST PUSH0 PUSH2 0x2098 PUSH1 0x27 DUP4 PUSH2 0x1A78 JUMP JUMPDEST SWAP2 POP PUSH2 0x20A3 DUP3 PUSH2 0x203E JUMP JUMPDEST PUSH1 0x40 DUP3 ADD SWAP1 POP SWAP2 SWAP1 POP JUMP JUMPDEST PUSH0 PUSH1 0x20 DUP3 ADD SWAP1 POP DUP2 DUP2 SUB PUSH0 DUP4 ADD MSTORE PUSH2 0x20C5 DUP2 PUSH2 0x208C JUMP JUMPDEST SWAP1 POP SWAP2 SWAP1 POP JUMP JUMPDEST PUSH0 DUP3 DUP3 MSTORE PUSH1 0x20 DUP3 ADD SWAP1 POP SWAP3 SWAP2 POP POP JUMP JUMPDEST PUSH0 DUP2 SLOAD PUSH2 0x20E8 DUP2 PUSH2 0x1A48 JUMP JUMPDEST PUSH2 0x20F2 DUP2 DUP7 PUSH2 0x20CC JUMP JUMPDEST SWAP5 POP PUSH1 0x1 DUP3 AND PUSH0 DUP2 EQ PUSH2 0x210C JUMPI PUSH1 0x1 DUP2 EQ PUSH2 0x2122 JUMPI PUSH2 0x2154 JUMP JUMPDEST PUSH1 0xFF NOT DUP4 AND DUP7 MSTORE DUP2 ISZERO ISZERO PUSH1 0x20 MUL DUP7 ADD SWAP4 POP PUSH2 0x2154 JUMP JUMPDEST PUSH2 0x212B DUP6 PUSH2 0x1B7E JUMP JUMPDEST PUSH0 JUMPDEST DUP4 DUP2 LT ISZERO PUSH2 0x214C JUMPI DUP2 SLOAD DUP2 DUP10 ADD MSTORE PUSH1 0x1 DUP3 ADD SWAP2 POP PUSH1 0x20 DUP2 ADD SWAP1 POP PUSH2 0x212D JUMP JUMPDEST DUP1 DUP9 ADD SWAP6 POP POP POP JUMPDEST POP POP POP SWAP3 SWAP2 POP POP JUMP JUMPDEST PUSH2 0x2166 DUP2 PUSH2 0x144F JUMP JUMPDEST DUP3 MSTORE POP POP JUMP JUMPDEST PUSH0 PUSH1 0xA0 DUP3 ADD SWAP1 POP DUP2 DUP2 SUB PUSH0 DUP4 ADD MSTORE PUSH2 0x2184 DUP2 DUP9 PUSH2 0x20DC JUMP JUMPDEST SWAP1 POP DUP2 DUP2 SUB PUSH1 0x20 DUP4 ADD MSTORE PUSH2 0x2198 DUP2 DUP8 PUSH2 0x20DC JUMP JUMPDEST SWAP1 POP DUP2 DUP2 SUB PUSH1 0x40 DUP4 ADD MSTORE PUSH2 0x21AC DUP2 DUP7 PUSH2 0x20DC JUMP JUMPDEST SWAP1 POP DUP2 DUP2 SUB PUSH1 0x60 DUP4 ADD MSTORE PUSH2 0x21C0 DUP2 DUP6 PUSH2 0x20DC JUMP JUMPDEST SWAP1 POP PUSH2 0x21CF PUSH1 0x80 DUP4 ADD DUP5 PUSH2 0x215D JUMP JUMPDEST SWAP7 SWAP6 POP POP POP POP POP POP JUMP JUMPDEST PUSH2 0x21E2 DUP2 PUSH2 0x178A JUMP JUMPDEST DUP2 EQ PUSH2 0x21EC JUMPI PUSH0 DUP1 REVERT JUMPDEST POP JUMP JUMPDEST PUSH0 DUP2 MLOAD SWAP1 POP PUSH2 0x21FD DUP2 PUSH2 0x21D9 JUMP JUMPDEST SWAP3 SWAP2 POP POP JUMP JUMPDEST PUSH0 PUSH1 0x20 DUP3 DUP5 SUB SLT ISZERO PUSH2 0x2218 JUMPI PUSH2 0x2217 PUSH2 0x160F JUMP JUMPDEST JUMPDEST PUSH0 PUSH2 0x2225 DUP5 DUP3 DUP6 ADD PUSH2 0x21EF JUMP JUMPDEST SWAP2 POP POP SWAP3 SWAP2 POP POP JUMP INVALID LOG2 PUSH5 0x6970667358 0x22 SLT KECCAK256 PUSH31 0x406FE29232198152A9DBF6124B42D36B3621431180AD58D26A7B70B70F47E1 PUSH5 0x736F6C6343 STOP ADDMOD BYTE STOP CALLER "
		},
		"gasEstimates": {
			"creation": {
				"codeDepositCost": "1760800",
				"executionCost": "infinite",
				"totalCost": "infinite"
			},
			"external": {
				"alice()": "2593",
				"amount()": "2492",
				"bankReceiptDec()": "infinite",
				"bankReceiptEnc()": "infinite",
				"bob()": "2530",
				"deposit()": "2491",
				"depositToContract()": "30287",
				"exchangeRate()": "2515",
				"getTimeReleasedCipher()": "infinite",
				"getTransactionInfo()": "infinite",
				"isDepositToContract()": "2576",
				"isUploadBankReceipt()": "2606",
				"submitProof(bytes,bytes,bytes)": "infinite",
				"totalAmount()": "2449",
				"transferToBob()": "infinite",
				"tre()": "infinite",
				"uploadBankReceipt(bytes)": "infinite",
				"uploadEncryptedData(bytes,bytes,bytes,uint256,uint256)": "infinite"
			},
			"internal": {
				"verifyBankReceipt()": "infinite",
				"verifyProof()": "infinite"
			}
		},
		"methodIdentifiers": {
			"alice()": "fb47e3a2",
			"amount()": "aa8c217c",
			"bankReceiptDec()": "83f093e1",
			"bankReceiptEnc()": "1d8103fd",
			"bob()": "c09cec77",
			"deposit()": "d0e30db0",
			"depositToContract()": "c8f781c2",
			"exchangeRate()": "3ba0b9a9",
			"getTimeReleasedCipher()": "466add1c",
			"getTransactionInfo()": "b6146665",
			"isDepositToContract()": "ff28ebac",
			"isUploadBankReceipt()": "75a598ea",
			"submitProof(bytes,bytes,bytes)": "9a67dd08",
			"totalAmount()": "1a39d8ef",
			"transferToBob()": "5c5499a0",
			"tre()": "3b417a82",
			"uploadBankReceipt(bytes)": "5361178c",
			"uploadEncryptedData(bytes,bytes,bytes,uint256,uint256)": "8bda91ab"
		}
	},
	"abi": [
		{
			"inputs": [
				{
					"internalType": "address",
					"name": "_bob",
					"type": "address"
				},
				{
					"internalType": "uint256",
					"name": "_amount",
					"type": "uint256"
				},
				{
					"internalType": "uint256",
					"name": "_exchangeRate",
					"type": "uint256"
				}
			],
			"stateMutability": "nonpayable",
			"type": "constructor"
		},
		{
			"anonymous": false,
			"inputs": [
				{
					"indexed": false,
					"internalType": "bytes",
					"name": "bankReceipt",
					"type": "bytes"
				}
			],
			"name": "BankReceiptUploaded",
			"type": "event"
		},
		{
			"anonymous": false,
			"inputs": [
				{
					"indexed": true,
					"internalType": "address",
					"name": "user",
					"type": "address"
				},
				{
					"indexed": false,
					"internalType": "uint256",
					"name": "amount",
					"type": "uint256"
				}
			],
			"name": "Deposit",
			"type": "event"
		},
		{
			"anonymous": false,
			"inputs": [
				{
					"indexed": false,
					"internalType": "bytes",
					"name": "encryptedData",
					"type": "bytes"
				}
			],
			"name": "EncryptedDataUploaded",
			"type": "event"
		},
		{
			"anonymous": false,
			"inputs": [
				{
					"indexed": true,
					"internalType": "address",
					"name": "from",
					"type": "address"
				},
				{
					"indexed": true,
					"internalType": "address",
					"name": "to",
					"type": "address"
				},
				{
					"indexed": false,
					"internalType": "uint256",
					"name": "amount",
					"type": "uint256"
				}
			],
			"name": "Transfer",
			"type": "event"
		},
		{
			"anonymous": false,
			"inputs": [
				{
					"indexed": true,
					"internalType": "address",
					"name": "to",
					"type": "address"
				},
				{
					"indexed": false,
					"internalType": "uint256",
					"name": "amount",
					"type": "uint256"
				}
			],
			"name": "TransferCompleted",
			"type": "event"
		},
		{
			"inputs": [],
			"name": "alice",
			"outputs": [
				{
					"internalType": "address",
					"name": "",
					"type": "address"
				}
			],
			"stateMutability": "view",
			"type": "function"
		},
		{
			"inputs": [],
			"name": "amount",
			"outputs": [
				{
					"internalType": "uint256",
					"name": "",
					"type": "uint256"
				}
			],
			"stateMutability": "view",
			"type": "function"
		},
		{
			"inputs": [],
			"name": "bankReceiptDec",
			"outputs": [
				{
					"internalType": "bytes",
					"name": "",
					"type": "bytes"
				}
			],
			"stateMutability": "view",
			"type": "function"
		},
		{
			"inputs": [],
			"name": "bankReceiptEnc",
			"outputs": [
				{
					"internalType": "bytes",
					"name": "",
					"type": "bytes"
				}
			],
			"stateMutability": "view",
			"type": "function"
		},
		{
			"inputs": [],
			"name": "bob",
			"outputs": [
				{
					"internalType": "address",
					"name": "",
					"type": "address"
				}
			],
			"stateMutability": "view",
			"type": "function"
		},
		{
			"inputs": [],
			"name": "deposit",
			"outputs": [
				{
					"internalType": "uint256",
					"name": "",
					"type": "uint256"
				}
			],
			"stateMutability": "view",
			"type": "function"
		},
		{
			"inputs": [],
			"name": "depositToContract",
			"outputs": [],
			"stateMutability": "payable",
			"type": "function"
		},
		{
			"inputs": [],
			"name": "exchangeRate",
			"outputs": [
				{
					"internalType": "uint256",
					"name": "",
					"type": "uint256"
				}
			],
			"stateMutability": "view",
			"type": "function"
		},
		{
			"inputs": [],
			"name": "getTimeReleasedCipher",
			"outputs": [
				{
					"internalType": "uint256",
					"name": "",
					"type": "uint256"
				},
				{
					"internalType": "uint256",
					"name": "",
					"type": "uint256"
				},
				{
					"internalType": "bytes",
					"name": "",
					"type": "bytes"
				},
				{
					"internalType": "bytes",
					"name": "",
					"type": "bytes"
				},
				{
					"internalType": "bytes",
					"name": "",
					"type": "bytes"
				}
			],
			"stateMutability": "view",
			"type": "function"
		},
		{
			"inputs": [],
			"name": "getTransactionInfo",
			"outputs": [
				{
					"internalType": "address",
					"name": "",
					"type": "address"
				},
				{
					"internalType": "address",
					"name": "",
					"type": "address"
				},
				{
					"internalType": "uint256",
					"name": "",
					"type": "uint256"
				},
				{
					"internalType": "uint256",
					"name": "",
					"type": "uint256"
				},
				{
					"internalType": "uint256",
					"name": "",
					"type": "uint256"
				},
				{
					"internalType": "uint256",
					"name": "",
					"type": "uint256"
				},
				{
					"internalType": "bool",
					"name": "",
					"type": "bool"
				}
			],
			"stateMutability": "view",
			"type": "function"
		},
		{
			"inputs": [],
			"name": "isDepositToContract",
			"outputs": [
				{
					"internalType": "bool",
					"name": "",
					"type": "bool"
				}
			],
			"stateMutability": "view",
			"type": "function"
		},
		{
			"inputs": [],
			"name": "isUploadBankReceipt",
			"outputs": [
				{
					"internalType": "bool",
					"name": "",
					"type": "bool"
				}
			],
			"stateMutability": "view",
			"type": "function"
		},
		{
			"inputs": [
				{
					"internalType": "bytes",
					"name": "_bankReceiptDec",
					"type": "bytes"
				},
				{
					"internalType": "bytes",
					"name": "_y",
					"type": "bytes"
				},
				{
					"internalType": "bytes",
					"name": "_proof",
					"type": "bytes"
				}
			],
			"name": "submitProof",
			"outputs": [],
			"stateMutability": "nonpayable",
			"type": "function"
		},
		{
			"inputs": [],
			"name": "totalAmount",
			"outputs": [
				{
					"internalType": "uint256",
					"name": "",
					"type": "uint256"
				}
			],
			"stateMutability": "view",
			"type": "function"
		},
		{
			"inputs": [],
			"name": "transferToBob",
			"outputs": [],
			"stateMutability": "nonpayable",
			"type": "function"
		},
		{
			"inputs": [],
			"name": "tre",
			"outputs": [
				{
					"internalType": "bytes",
					"name": "c",
					"type": "bytes"
				},
				{
					"internalType": "bytes",
					"name": "x",
					"type": "bytes"
				},
				{
					"internalType": "bytes",
					"name": "y",
					"type": "bytes"
				},
				{
					"internalType": "bytes",
					"name": "N",
					"type": "bytes"
				},
				{
					"internalType": "bytes",
					"name": "proof",
					"type": "bytes"
				},
				{
					"internalType": "uint256",
					"name": "security_param",
					"type": "uint256"
				},
				{
					"internalType": "uint256",
					"name": "delay",
					"type": "uint256"
				}
			],
			"stateMutability": "view",
			"type": "function"
		},
		{
			"inputs": [
				{
					"internalType": "bytes",
					"name": "_bankReceipt",
					"type": "bytes"
				}
			],
			"name": "uploadBankReceipt",
			"outputs": [],
			"stateMutability": "nonpayable",
			"type": "function"
		},
		{
			"inputs": [
				{
					"internalType": "bytes",
					"name": "_c",
					"type": "bytes"
				},
				{
					"internalType": "bytes",
					"name": "_x",
					"type": "bytes"
				},
				{
					"internalType": "bytes",
					"name": "_N",
					"type": "bytes"
				},
				{
					"internalType": "uint256",
					"name": "security_param",
					"type": "uint256"
				},
				{
					"internalType": "uint256",
					"name": "_delay",
					"type": "uint256"
				}
			],
			"name": "uploadEncryptedData",
			"outputs": [],
			"stateMutability": "nonpayable",
			"type": "function"
		}
	]
}