{
	"data": {
		"bytecode": {
			"linkReferences": {
				"contract/Wesolowski-VDF/WesolowskiVDFVerifier.sol": {
					"WesolowskiVDFVerifier": [
						{
							"length": 20,
							"start": 6363
						}
					]
				}
			},
			"object": "608060405234801561000f575f80fd5b50604051614039380380614039833981810160405281019061003191906101c4565b335f806101000a81548173ffffffffffffffffffffffffffffffffffffffff021916908373ffffffffffffffffffffffffffffffffffffffff1602179055508360015f6101000a81548173ffffffffffffffffffffffffffffffffffffffff021916908373ffffffffffffffffffffffffffffffffffffffff1602179055508260028190555060646002546100c69190610282565b6003819055506003546002546100dc91906102b2565b600481905550816005819055505f600a5f6101000a81548160ff0219169083151502179055505f600a60016101000a81548160ff0219169083151502179055508060078190555042600681905550505050506102e5565b5f80fd5b5f73ffffffffffffffffffffffffffffffffffffffff82169050919050565b5f61016082610137565b9050919050565b61017081610156565b811461017a575f80fd5b50565b5f8151905061018b81610167565b92915050565b5f819050919050565b6101a381610191565b81146101ad575f80fd5b50565b5f815190506101be8161019a565b92915050565b5f805f80608085870312156101dc576101db610133565b5b5f6101e98782880161017d565b94505060206101fa878288016101b0565b935050604061020b878288016101b0565b925050606061021c878288016101b0565b91505092959194509250565b7f4e487b71000000000000000000000000000000000000000000000000000000005f52601260045260245ffd5b7f4e487b71000000000000000000000000000000000000000000000000000000005f52601160045260245ffd5b5f61028c82610191565b915061029783610191565b9250826102a7576102a6610228565b5b828204905092915050565b5f6102bc82610191565b91506102c783610191565b92508282019050808211156102df576102de610255565b5b92915050565b613d47806102f25f395ff3fe608060405260043610610134575f3560e01c80638bda91ab116100aa578063c76546891161006e578063c7654689146103ce578063c8f781c2146103e4578063d0e30db0146103ee578063d1261df014610418578063fb47e3a214610454578063ff28ebac1461047e57610134565b80638bda91ab146102fa5780639a67dd0814610322578063aa8c217c1461034a578063b614666514610374578063c09cec77146103a457610134565b8063466add1c116100fc578063466add1c146102105780635361178c1461023e5780635c5499a01461026657806370dea79a1461027c57806375a598ea146102a657806383f093e1146102d057610134565b80631a39d8ef146101385780631d8103fd1461016257806325d9f34f1461018c5780633b417a82146101b65780633ba0b9a9146101e6575b5f80fd5b348015610143575f80fd5b5061014c6104a8565b6040516101599190612d78565b60405180910390f35b34801561016d575f80fd5b506101766104ae565b6040516101839190612e01565b60405180910390f35b348015610197575f80fd5b506101a061053a565b6040516101ad9190612d78565b60405180910390f35b3480156101c1575f80fd5b506101ca610540565b6040516101dd9796959493929190612e21565b60405180910390f35b3480156101f1575f80fd5b506101fa61080d565b6040516102079190612d78565b60405180910390f35b34801561021b575f80fd5b50610224610813565b604051610235959493929190612eb1565b60405180910390f35b348015610249575f80fd5b50610264600480360381019061025f9190613054565b610a32565b005b348015610271575f80fd5b5061027a610b26565b005b348015610287575f80fd5b50610290610ded565b60405161029d9190612d78565b60405180910390f35b3480156102b1575f80fd5b506102ba610df3565b6040516102c791906130b5565b60405180910390f35b3480156102db575f80fd5b506102e4610e06565b6040516102f19190612e01565b60405180910390f35b348015610305575f80fd5b50610320600480360381019061031b91906130f8565b610e92565b005b34801561032d575f80fd5b50610348600480360381019061034391906131c3565b610fa9565b005b348015610355575f80fd5b5061035e61119d565b60405161036b9190612d78565b60405180910390f35b34801561037f575f80fd5b506103886111a3565b60405161039b97969594939291906132a6565b60405180910390f35b3480156103af575f80fd5b506103b861121f565b6040516103c59190613313565b60405180910390f35b3480156103d9575f80fd5b506103e2611244565b005b6103ec611457565b005b3480156103f9575f80fd5b50610402611592565b60405161040f9190612d78565b60405180910390f35b348015610423575f80fd5b5061043e6004803603810190610439919061335f565b611598565b60405161044b91906130b5565b60405180910390f35b34801561045f575f80fd5b506104686115b1565b6040516104759190613313565b60405180910390f35b348015610489575f80fd5b506104926115d4565b60405161049f91906130b5565b60405180910390f35b60045481565b600880546104bb90613403565b80601f01602080910402602001604051908101604052809291908181526020018280546104e790613403565b80156105325780601f1061050957610100808354040283529160200191610532565b820191905f5260205f20905b81548152906001019060200180831161051557829003601f168201915b505050505081565b60065481565b600b805f01805461055090613403565b80601f016020809104026020016040519081016040528092919081815260200182805461057c90613403565b80156105c75780601f1061059e576101008083540402835291602001916105c7565b820191905f5260205f20905b8154815290600101906020018083116105aa57829003601f168201915b5050505050908060010180546105dc90613403565b80601f016020809104026020016040519081016040528092919081815260200182805461060890613403565b80156106535780601f1061062a57610100808354040283529160200191610653565b820191905f5260205f20905b81548152906001019060200180831161063657829003601f168201915b50505050509080600201805461066890613403565b80601f016020809104026020016040519081016040528092919081815260200182805461069490613403565b80156106df5780601f106106b6576101008083540402835291602001916106df565b820191905f5260205f20905b8154815290600101906020018083116106c257829003601f168201915b5050505050908060030180546106f490613403565b80601f016020809104026020016040519081016040528092919081815260200182805461072090613403565b801561076b5780601f106107425761010080835404028352916020019161076b565b820191905f5260205f20905b81548152906001019060200180831161074e57829003601f168201915b50505050509080600401805461078090613403565b80601f01602080910402602001604051908101604052809291908181526020018280546107ac90613403565b80156107f75780601f106107ce576101008083540402835291602001916107f7565b820191905f5260205f20905b8154815290600101906020018083116107da57829003601f168201915b5050505050908060050154908060060154905087565b60055481565b5f806060806060600a60019054906101000a900460ff16610869576040517f08c379a00000000000000000000000000000000000000000000000000000000081526004016108609061348d565b60405180910390fd5b600b60060154600b60050154600b600301600b600101600b5f0182805461088f90613403565b80601f01602080910402602001604051908101604052809291908181526020018280546108bb90613403565b80156109065780601f106108dd57610100808354040283529160200191610906565b820191905f5260205f20905b8154815290600101906020018083116108e957829003601f168201915b5050505050925081805461091990613403565b80601f016020809104026020016040519081016040528092919081815260200182805461094590613403565b80156109905780601f1061096757610100808354040283529160200191610990565b820191905f5260205f20905b81548152906001019060200180831161097357829003601f168201915b505050505091508080546109a390613403565b80601f01602080910402602001604051908101604052809291908181526020018280546109cf90613403565b8015610a1a5780601f106109f157610100808354040283529160200191610a1a565b820191905f5260205f20905b8154815290600101906020018083116109fd57829003601f168201915b50505050509050945094509450945094509091929394565b60015f9054906101000a900473ffffffffffffffffffffffffffffffffffffffff1673ffffffffffffffffffffffffffffffffffffffff163373ffffffffffffffffffffffffffffffffffffffff1614610ac1576040517f08c379a0000000000000000000000000000000000000000000000000000000008152600401610ab89061351b565b60405180910390fd5b8060089081610ad091906136d6565b507f3e52fbbb12f1347bd63824136fa0930b30743ac0b2c238cf13892cf4f4e5296981604051610b009190612e01565b60405180910390a16001600a60016101000a81548160ff02191690831515021790555050565b5f8054906101000a900473ffffffffffffffffffffffffffffffffffffffff1673ffffffffffffffffffffffffffffffffffffffff163373ffffffffffffffffffffffffffffffffffffffff1614610bb3576040517f08c379a0000000000000000000000000000000000000000000000000000000008152600401610baa90613815565b60405180910390fd5b600454471015610bf8576040517f08c379a0000000000000000000000000000000000000000000000000000000008152600401610bef9061387d565b60405180910390fd5b60015f9054906101000a900473ffffffffffffffffffffffffffffffffffffffff1673ffffffffffffffffffffffffffffffffffffffff166108fc60025490811502906040515f60405180830381858888f19350505050158015610c5e573d5f803e3d5ffd5b505f8054906101000a900473ffffffffffffffffffffffffffffffffffffffff1673ffffffffffffffffffffffffffffffffffffffff166108fc60035490811502906040515f60405180830381858888f19350505050158015610cc3573d5f803e3d5ffd5b5060015f9054906101000a900473ffffffffffffffffffffffffffffffffffffffff1673ffffffffffffffffffffffffffffffffffffffff163373ffffffffffffffffffffffffffffffffffffffff167fddf252ad1be2c89b69c2b068fc378daa952ba7f163c4a11628f55a4df523b3ef600254604051610d449190612d78565b60405180910390a35f8054906101000a900473ffffffffffffffffffffffffffffffffffffffff1673ffffffffffffffffffffffffffffffffffffffff163373ffffffffffffffffffffffffffffffffffffffff167fddf252ad1be2c89b69c2b068fc378daa952ba7f163c4a11628f55a4df523b3ef600354604051610dca9190612d78565b60405180910390a35f600a5f6101000a81548160ff021916908315150217905550565b60075481565b600a60019054906101000a900460ff1681565b60098054610e1390613403565b80601f0160208091040260200160405190810160405280929190818152602001828054610e3f90613403565b8015610e8a5780601f10610e6157610100808354040283529160200191610e8a565b820191905f5260205f20905b815481529060010190602001808311610e6d57829003601f168201915b505050505081565b5f8054906101000a900473ffffffffffffffffffffffffffffffffffffffff1673ffffffffffffffffffffffffffffffffffffffff163373ffffffffffffffffffffffffffffffffffffffff1614610f1f576040517f08c379a0000000000000000000000000000000000000000000000000000000008152600401610f169061390b565b60405180910390fd5b84600b5f019081610f3091906136d6565b5083600b6001019081610f4391906136d6565b5082600b6003019081610f5691906136d6565b5080600b6006018190555081600b600501819055507f5b1fd024cfdecf12403893eb3f5c7143182cbb3d479096b12ff678deb056b8ad85604051610f9a9190612e01565b60405180910390a15050505050565b60015f9054906101000a900473ffffffffffffffffffffffffffffffffffffffff1673ffffffffffffffffffffffffffffffffffffffff163373ffffffffffffffffffffffffffffffffffffffff1614611038576040517f08c379a000000000000000000000000000000000000000000000000000000000815260040161102f90613973565b60405180910390fd5b60045447101561107d576040517f08c379a00000000000000000000000000000000000000000000000000000000081526004016110749061387d565b60405180910390fd5b826009908161108c91906136d6565b5081600b600201908161109f91906136d6565b5080600b60040190816110b291906136d6565b506110bb6115e6565b6111985760015f9054906101000a900473ffffffffffffffffffffffffffffffffffffffff1673ffffffffffffffffffffffffffffffffffffffff166108fc60045490811502906040515f60405180830381858888f19350505050158015611125573d5f803e3d5ffd5b5060015f9054906101000a900473ffffffffffffffffffffffffffffffffffffffff1673ffffffffffffffffffffffffffffffffffffffff167fe4bb88acda5194aa84e6feedbb6438ffd447bdee1e1ad8dda3c32fcff9a68f0860045460405161118f9190612d78565b60405180910390a25b505050565b60025481565b5f805f805f805f805f9054906101000a900473ffffffffffffffffffffffffffffffffffffffff1660015f9054906101000a900473ffffffffffffffffffffffffffffffffffffffff16600254600354600454600554600a5f9054906101000a900460ff16965096509650965096509650965090919293949596565b60015f9054906101000a900473ffffffffffffffffffffffffffffffffffffffff1681565b5f8054906101000a900473ffffffffffffffffffffffffffffffffffffffff1673ffffffffffffffffffffffffffffffffffffffff163373ffffffffffffffffffffffffffffffffffffffff16146112d1576040517f08c379a00000000000000000000000000000000000000000000000000000000081526004016112c890613815565b60405180910390fd5b600454471015611316576040517f08c379a000000000000000000000000000000000000000000000000000000000815260040161130d9061387d565b60405180910390fd5b60075460065461132691906139be565b421015611368576040517f08c379a000000000000000000000000000000000000000000000000000000000815260040161135f90613a3b565b60405180910390fd5b5f8054906101000a900473ffffffffffffffffffffffffffffffffffffffff1673ffffffffffffffffffffffffffffffffffffffff166108fc60045490811502906040515f60405180830381858888f193505050501580156113cc573d5f803e3d5ffd5b505f8054906101000a900473ffffffffffffffffffffffffffffffffffffffff1673ffffffffffffffffffffffffffffffffffffffff167fe4bb88acda5194aa84e6feedbb6438ffd447bdee1e1ad8dda3c32fcff9a68f086004546040516114349190612d78565b60405180910390a25f600a5f6101000a81548160ff021916908315150217905550565b5f8054906101000a900473ffffffffffffffffffffffffffffffffffffffff1673ffffffffffffffffffffffffffffffffffffffff163373ffffffffffffffffffffffffffffffffffffffff16146114e4576040517f08c379a00000000000000000000000000000000000000000000000000000000081526004016114db90613aa3565b60405180910390fd5b6004543414611528576040517f08c379a000000000000000000000000000000000000000000000000000000000815260040161151f90613b31565b60405180910390fd5b3373ffffffffffffffffffffffffffffffffffffffff167fe1fffcc4923d04b559f4d29a8bfc6cda04eb5b0d3c460751c2402c5c5cc9109c3460405161156e9190612d78565b60405180910390a26001600a5f6101000a81548160ff021916908315150217905550565b60035481565b5f6115a6868686868661167f565b905095945050505050565b5f8054906101000a900473ffffffffffffffffffffffffffffffffffffffff1681565b600a5f9054906101000a900460ff1681565b5f73__$0fd1cc851c6411cf7573f2ba214718d454$__63c2269a7b600b600301600b600101600b600201600b600401600b600601546040518663ffffffff1660e01b815260040161163b959493929190613bef565b602060405180830381865af4158015611656573d5f803e3d5ffd5b505050506040513d601f19601f8201168201806040525081019061167a9190613c86565b905090565b5f808514806116ae57507fffffffff00000000ffffffffffffffffbce6faada7179e84f3b9cac2fc6325518510155b806116b857505f84145b806116e357507fffffffff00000000ffffffffffffffffbce6faada7179e84f3b9cac2fc6325518410155b156116f0575f90506117f6565b6116fa83836117ff565b611706575f90506117f6565b5f611710856119f0565b90505f7fffffffff00000000ffffffffffffffffbce6faada7179e84f3b9cac2fc6325518061174257611741613cb1565b5b82895f1c0990505f7fffffffff00000000ffffffffffffffffbce6faada7179e84f3b9cac2fc6325518061177957611778613cb1565b5b83890990505f61178b87878585611a74565b90507fffffffff00000000ffffffffffffffffbce6faada7179e84f3b9cac2fc632551806117bc576117bb613cb1565b5b897fffffffff00000000ffffffffffffffffbce6faada7179e84f3b9cac2fc6325516117e89190613cde565b820890505f81149450505050505b95945050505050565b5f7fffffffff00000001000000000000000000000000ffffffffffffffffffffffff8310158061184f57507fffffffff00000001000000000000000000000000ffffffffffffffffffffffff8210155b8061186457505f8314801561186357505f82145b5b15611871575f90506119ea565b5f7fffffffff00000001000000000000000000000000ffffffffffffffffffffffff806118a1576118a0613cb1565b5b83840990505f7fffffffff00000001000000000000000000000000ffffffffffffffffffffffff806118d6576118d5613cb1565b5b7fffffffff00000001000000000000000000000000ffffffffffffffffffffffff8061190557611904613cb1565b5b7fffffffff00000001000000000000000000000000fffffffffffffffffffffffc87097fffffffff00000001000000000000000000000000ffffffffffffffffffffffff8061195757611956613cb1565b5b877fffffffff00000001000000000000000000000000ffffffffffffffffffffffff8061198757611986613cb1565b5b898a09090890507fffffffff00000001000000000000000000000000ffffffffffffffffffffffff806119bd576119bc613cb1565b5b7f5ac635d8aa3a93e7b3ebbd55769886bc651d06b0cc53b0f63bce3c3e27d2604b82089050808214925050505b92915050565b5f60405160208152602080820152602060408201528260608201527fffffffff00000000ffffffffffffffffbce6faada7179e84f3b9cac2fc63254f60808201527fffffffff00000000ffffffffffffffffbce6faada7179e84f3b9cac2fc63255160a082015260208160c08360055f19fa611a6a575f80fd5b8051915050919050565b5f805f805f60ff90505f805f89148015611a8d57505f88145b15611aa0575f96505050505050506125a5565b611aec7f6b17d1f2e12c4247f8bce6e563a440f277037d812deb33a0f4a13945d898c2967f4fe342e2fe1a7f9b8ee7eb4a7c0f9e162bce33576b315ececbb6406837bf51f58d8d6125ad565b80925081935050505f82148015611b0257505f81145b15611b82577fffffffff00000000ffffffffffffffffbce6faada7179e84f3b9cac2fc63255180611b3657611b35613cb1565b5b887fffffffff00000000ffffffffffffffffbce6faada7179e84f3b9cac2fc632551038a0898505f97505f89148015611b6e57505f88145b15611b81575f96505050505050506125a5565b5b600189841c16600189851c1660011b015b5f8103611bb75760018403935060018a851c1660018a861c1660011b019050611b93565b50600189841c16600189851c1660011b01955060018603611c19577f6b17d1f2e12c4247f8bce6e563a440f277037d812deb33a0f4a13945d898c29696507f4fe342e2fe1a7f9b8ee7eb4a7c0f9e162bce33576b315ececbb6406837bf51f593505b60028603611c28578a96508993505b60038603611c37578196508093505b60018303925060019550600194505b827fffffffffffffffffffffffffffffffffffffffffffffffffffffffffffffffff11156124fd577fffffffff00000001000000000000000000000000ffffffffffffffffffffffff846002097fffffffff00000001000000000000000000000000ffffffffffffffffffffffff8182097fffffffff00000001000000000000000000000000ffffffffffffffffffffffff818a097fffffffff00000001000000000000000000000000ffffffffffffffffffffffff82840992507fffffffff00000001000000000000000000000000ffffffffffffffffffffffff807fffffffff00000001000000000000000000000000ffffffffffffffffffffffff8b8d087fffffffff00000001000000000000000000000000ffffffffffffffffffffffff8c7fffffffff00000001000000000000000000000000ffffffffffffffffffffffff038e08096003097fffffffff00000001000000000000000000000000ffffffffffffffffffffffff89850998507fffffffff00000001000000000000000000000000ffffffffffffffffffffffff8a840999507fffffffff00000001000000000000000000000000ffffffffffffffffffffffff80837fffffffff00000001000000000000000000000000fffffffffffffffffffffffd097fffffffff00000001000000000000000000000000ffffffffffffffffffffffff838409089a507fffffffff00000001000000000000000000000000ffffffffffffffffffffffff80837fffffffff00000001000000000000000000000000ffffffffffffffffffffffff038d08820992507fffffffff00000001000000000000000000000000ffffffffffffffffffffffff837fffffffff00000001000000000000000000000000ffffffffffffffffffffffff8a870908975060018d881c1660018d891c1660011b01905080611f2257877fffffffff00000001000000000000000000000000ffffffffffffffffffffffff039750505050506124f2565b60018103611f71577f6b17d1f2e12c4247f8bce6e563a440f277037d812deb33a0f4a13945d898c29693507f4fe342e2fe1a7f9b8ee7eb4a7c0f9e162bce33576b315ececbb6406837bf51f592505b60028103611f80578e93508d92505b60038103611f8f578593508492505b89611fab57839a508297506001995060019850505050506124f2565b7fffffffff00000001000000000000000000000000ffffffffffffffffffffffff887fffffffff00000001000000000000000000000000ffffffffffffffffffffffff8b8609087fffffffff00000001000000000000000000000000ffffffffffffffffffffffff8c7fffffffff00000001000000000000000000000000ffffffffffffffffffffffff037fffffffff00000001000000000000000000000000ffffffffffffffffffffffff8d8809089350806122eb57836122ea577fffffffff00000001000000000000000000000000ffffffffffffffffffffffff897fffffffff00000001000000000000000000000000fffffffffffffffffffffffd0994507fffffffff00000001000000000000000000000000ffffffffffffffffffffffff85860993507fffffffff00000001000000000000000000000000ffffffffffffffffffffffff848d0992507fffffffff00000001000000000000000000000000ffffffffffffffffffffffff84860994507fffffffff00000001000000000000000000000000ffffffffffffffffffffffff808c7fffffffff00000001000000000000000000000000ffffffffffffffffffffffff038e087fffffffff00000001000000000000000000000000ffffffffffffffffffffffff8d8f080990507fffffffff00000001000000000000000000000000ffffffffffffffffffffffff8160030991507fffffffff00000001000000000000000000000000ffffffffffffffffffffffff8a860999507fffffffff00000001000000000000000000000000ffffffffffffffffffffffff8b85099a507fffffffff00000001000000000000000000000000ffffffffffffffffffffffff80847fffffffff00000001000000000000000000000000fffffffffffffffffffffffd097fffffffff00000001000000000000000000000000ffffffffffffffffffffffff848509089b507fffffffff00000001000000000000000000000000ffffffffffffffffffffffff808d7fffffffff00000001000000000000000000000000ffffffffffffffffffffffff038508830993507fffffffff00000001000000000000000000000000ffffffffffffffffffffffff808a87098508985050505050506124f2565b5b7fffffffff00000001000000000000000000000000ffffffffffffffffffffffff84850991507fffffffff00000001000000000000000000000000ffffffffffffffffffffffff8483097fffffffff00000001000000000000000000000000ffffffffffffffffffffffff838d099b507fffffffff00000001000000000000000000000000ffffffffffffffffffffffff818c099a507fffffffff00000001000000000000000000000000ffffffffffffffffffffffff838e097fffffffff00000001000000000000000000000000ffffffffffffffffffffffff80827fffffffff00000001000000000000000000000000fffffffffffffffffffffffd097fffffffff00000001000000000000000000000000ffffffffffffffffffffffff847fffffffff00000001000000000000000000000000ffffffffffffffffffffffff037fffffffff00000001000000000000000000000000ffffffffffffffffffffffff878809080893507fffffffff00000001000000000000000000000000ffffffffffffffffffffffff80838d097fffffffff00000001000000000000000000000000ffffffffffffffffffffffff857fffffffff00000001000000000000000000000000ffffffffffffffffffffffff887fffffffff00000001000000000000000000000000ffffffffffffffffffffffff03860809089a50839d50505050505050505b600183039250611c46565b60405186606082015260208152602080820152602060408201527fffffffff00000001000000000000000000000000fffffffffffffffffffffffd60808201527fffffffff00000001000000000000000000000000ffffffffffffffffffffffff60a082015260208160c08360055f19fa612576575f80fd5b7fffffffff00000001000000000000000000000000ffffffffffffffffffffffff815189099750505050505050505b949350505050565b5f805f806125bb888861265a565b156125cd578585935093505050612651565b6125d7868661265a565b156125e9578787935093505050612651565b85881480156125f757508487145b1561261e576126098888600180612666565b809450819550829a50839b505050505061263e565b61262d88886001808a8a6128ee565b809450819550829a50839b50505050505b61264a88888484612bf2565b9350935050505b94509492505050565b5f808214905092915050565b5f805f807fffffffff00000001000000000000000000000000ffffffffffffffffffffffff8760020993507fffffffff00000001000000000000000000000000ffffffffffffffffffffffff84850991507fffffffff00000001000000000000000000000000ffffffffffffffffffffffff82890990507fffffffff00000001000000000000000000000000ffffffffffffffffffffffff82850992507fffffffff00000001000000000000000000000000ffffffffffffffffffffffff86830991507fffffffff00000001000000000000000000000000ffffffffffffffffffffffff807fffffffff00000001000000000000000000000000ffffffffffffffffffffffff888b087fffffffff00000001000000000000000000000000ffffffffffffffffffffffff897fffffffff00000001000000000000000000000000ffffffffffffffffffffffff038c080960030995507fffffffff00000001000000000000000000000000ffffffffffffffffffffffff80827fffffffff00000001000000000000000000000000fffffffffffffffffffffffd097fffffffff00000001000000000000000000000000ffffffffffffffffffffffff8889090893507fffffffff00000001000000000000000000000000ffffffffffffffffffffffff80857fffffffff00000001000000000000000000000000ffffffffffffffffffffffff038308870997507fffffffff00000001000000000000000000000000ffffffffffffffffffffffff85840990507fffffffff00000001000000000000000000000000ffffffffffffffffffffffff808885097fffffffff00000001000000000000000000000000ffffffffffffffffffffffff0389089250945094509450949050565b5f805f805f890361290b5785856001809350935093509350612be5565b887fffffffff00000001000000000000000000000000ffffffffffffffffffffffff0398507fffffffff00000001000000000000000000000000ffffffffffffffffffffffff897fffffffff00000001000000000000000000000000ffffffffffffffffffffffff8988090894507fffffffff00000001000000000000000000000000ffffffffffffffffffffffff8a7fffffffff00000001000000000000000000000000ffffffffffffffffffffffff037fffffffff00000001000000000000000000000000ffffffffffffffffffffffff8a89090895507fffffffff00000001000000000000000000000000ffffffffffffffffffffffff86870993507fffffffff00000001000000000000000000000000ffffffffffffffffffffffff86850992507fffffffff00000001000000000000000000000000ffffffffffffffffffffffff84890991507fffffffff00000001000000000000000000000000ffffffffffffffffffffffff83880990507fffffffff00000001000000000000000000000000ffffffffffffffffffffffff848b0997507fffffffff00000001000000000000000000000000ffffffffffffffffffffffff80897fffffffff00000001000000000000000000000000fffffffffffffffffffffffd097fffffffff00000001000000000000000000000000ffffffffffffffffffffffff857fffffffff00000001000000000000000000000000ffffffffffffffffffffffff037fffffffff00000001000000000000000000000000ffffffffffffffffffffffff898a09080893507fffffffff00000001000000000000000000000000ffffffffffffffffffffffff80848b097fffffffff00000001000000000000000000000000ffffffffffffffffffffffff877fffffffff00000001000000000000000000000000ffffffffffffffffffffffff887fffffffff00000001000000000000000000000000ffffffffffffffffffffffff038d08090892505b9650965096509692505050565b5f805f612bfe84612cdc565b90507fffffffff00000001000000000000000000000000ffffffffffffffffffffffff80612c2f57612c2e613cb1565b5b81870991505f7fffffffff00000001000000000000000000000000ffffffffffffffffffffffff80612c6457612c63613cb1565b5b82870990507fffffffff00000001000000000000000000000000ffffffffffffffffffffffff80612c9857612c97613cb1565b5b81820991507fffffffff00000001000000000000000000000000ffffffffffffffffffffffff80612ccc57612ccb613cb1565b5b8289099350505094509492505050565b5f60405160208152602080820152602060408201528260608201527fffffffff00000001000000000000000000000000fffffffffffffffffffffffd60808201527fffffffff00000001000000000000000000000000ffffffffffffffffffffffff60a082015260208160c08360055f19fa612d56575f80fd5b8051915050919050565b5f819050919050565b612d7281612d60565b82525050565b5f602082019050612d8b5f830184612d69565b92915050565b5f81519050919050565b5f82825260208201905092915050565b8281835e5f83830152505050565b5f601f19601f8301169050919050565b5f612dd382612d91565b612ddd8185612d9b565b9350612ded818560208601612dab565b612df681612db9565b840191505092915050565b5f6020820190508181035f830152612e198184612dc9565b905092915050565b5f60e0820190508181035f830152612e39818a612dc9565b90508181036020830152612e4d8189612dc9565b90508181036040830152612e618188612dc9565b90508181036060830152612e758187612dc9565b90508181036080830152612e898186612dc9565b9050612e9860a0830185612d69565b612ea560c0830184612d69565b98975050505050505050565b5f60a082019050612ec45f830188612d69565b612ed16020830187612d69565b8181036040830152612ee38186612dc9565b90508181036060830152612ef78185612dc9565b90508181036080830152612f0b8184612dc9565b90509695505050505050565b5f604051905090565b5f80fd5b5f80fd5b5f80fd5b5f80fd5b7f4e487b71000000000000000000000000000000000000000000000000000000005f52604160045260245ffd5b612f6682612db9565b810181811067ffffffffffffffff82111715612f8557612f84612f30565b5b80604052505050565b5f612f97612f17565b9050612fa38282612f5d565b919050565b5f67ffffffffffffffff821115612fc257612fc1612f30565b5b612fcb82612db9565b9050602081019050919050565b828183375f83830152505050565b5f612ff8612ff384612fa8565b612f8e565b90508281526020810184848401111561301457613013612f2c565b5b61301f848285612fd8565b509392505050565b5f82601f83011261303b5761303a612f28565b5b813561304b848260208601612fe6565b91505092915050565b5f6020828403121561306957613068612f20565b5b5f82013567ffffffffffffffff81111561308657613085612f24565b5b61309284828501613027565b91505092915050565b5f8115159050919050565b6130af8161309b565b82525050565b5f6020820190506130c85f8301846130a6565b92915050565b6130d781612d60565b81146130e1575f80fd5b50565b5f813590506130f2816130ce565b92915050565b5f805f805f60a0868803121561311157613110612f20565b5b5f86013567ffffffffffffffff81111561312e5761312d612f24565b5b61313a88828901613027565b955050602086013567ffffffffffffffff81111561315b5761315a612f24565b5b61316788828901613027565b945050604086013567ffffffffffffffff81111561318857613187612f24565b5b61319488828901613027565b93505060606131a5888289016130e4565b92505060806131b6888289016130e4565b9150509295509295909350565b5f805f606084860312156131da576131d9612f20565b5b5f84013567ffffffffffffffff8111156131f7576131f6612f24565b5b61320386828701613027565b935050602084013567ffffffffffffffff81111561322457613223612f24565b5b61323086828701613027565b925050604084013567ffffffffffffffff81111561325157613250612f24565b5b61325d86828701613027565b9150509250925092565b5f73ffffffffffffffffffffffffffffffffffffffff82169050919050565b5f61329082613267565b9050919050565b6132a081613286565b82525050565b5f60e0820190506132b95f83018a613297565b6132c66020830189613297565b6132d36040830188612d69565b6132e06060830187612d69565b6132ed6080830186612d69565b6132fa60a0830185612d69565b61330760c08301846130a6565b98975050505050505050565b5f6020820190506133265f830184613297565b92915050565b5f819050919050565b61333e8161332c565b8114613348575f80fd5b50565b5f8135905061335981613335565b92915050565b5f805f805f60a0868803121561337857613377612f20565b5b5f6133858882890161334b565b9550506020613396888289016130e4565b94505060406133a7888289016130e4565b93505060606133b8888289016130e4565b92505060806133c9888289016130e4565b9150509295509295909350565b7f4e487b71000000000000000000000000000000000000000000000000000000005f52602260045260245ffd5b5f600282049050600182168061341a57607f821691505b60208210810361342d5761342c6133d6565b5b50919050565b5f82825260208201905092915050565b7f706c7a2075706c6f61642062616e6b20726563656970742066697273740000005f82015250565b5f613477601d83613433565b915061348282613443565b602082019050919050565b5f6020820190508181035f8301526134a48161346b565b9050919050565b7f4f6e6c7920426f622063616e2075706c6f61642062616e6b20726563656970745f8201527f2e00000000000000000000000000000000000000000000000000000000000000602082015250565b5f613505602183613433565b9150613510826134ab565b604082019050919050565b5f6020820190508181035f830152613532816134f9565b9050919050565b5f819050815f5260205f209050919050565b5f6020601f8301049050919050565b5f82821b905092915050565b5f600883026135957fffffffffffffffffffffffffffffffffffffffffffffffffffffffffffffffff8261355a565b61359f868361355a565b95508019841693508086168417925050509392505050565b5f819050919050565b5f6135da6135d56135d084612d60565b6135b7565b612d60565b9050919050565b5f819050919050565b6135f3836135c0565b6136076135ff826135e1565b848454613566565b825550505050565b5f90565b61361b61360f565b6136268184846135ea565b505050565b5b818110156136495761363e5f82613613565b60018101905061362c565b5050565b601f82111561368e5761365f81613539565b6136688461354b565b81016020851015613677578190505b61368b6136838561354b565b83018261362b565b50505b505050565b5f82821c905092915050565b5f6136ae5f1984600802613693565b1980831691505092915050565b5f6136c6838361369f565b9150826002028217905092915050565b6136df82612d91565b67ffffffffffffffff8111156136f8576136f7612f30565b5b6137028254613403565b61370d82828561364d565b5f60209050601f83116001811461373e575f841561372c578287015190505b61373685826136bb565b86555061379d565b601f19841661374c86613539565b5f5b828110156137735784890151825560018201915060208501945060208101905061374e565b86831015613790578489015161378c601f89168261369f565b8355505b6001600288020188555050505b505050505050565b7f4f6e6c7920416c6963652063616e20696e697469617465207472616e736665725f8201527f2e00000000000000000000000000000000000000000000000000000000000000602082015250565b5f6137ff602183613433565b915061380a826137a5565b604082019050919050565b5f6020820190508181035f83015261382c816137f3565b9050919050565b7f496e73756666696369656e742062616c616e63652e00000000000000000000005f82015250565b5f613867601583613433565b915061387282613833565b602082019050919050565b5f6020820190508181035f8301526138948161385b565b9050919050565b7f4f6e6c7920416c6963652063616e2075706c6f616420656e63727970746564205f8201527f646174612e000000000000000000000000000000000000000000000000000000602082015250565b5f6138f5602583613433565b91506139008261389b565b604082019050919050565b5f6020820190508181035f830152613922816138e9565b9050919050565b7f4f6e6c7920426f622063616e207375626d69742070726f6f662e0000000000005f82015250565b5f61395d601a83613433565b915061396882613929565b602082019050919050565b5f6020820190508181035f83015261398a81613951565b9050919050565b7f4e487b71000000000000000000000000000000000000000000000000000000005f52601160045260245ffd5b5f6139c882612d60565b91506139d383612d60565b92508282019050808211156139eb576139ea613991565b5b92915050565b7f6e6f742074696d656f75742079657400000000000000000000000000000000005f82015250565b5f613a25600f83613433565b9150613a30826139f1565b602082019050919050565b5f6020820190508181035f830152613a5281613a19565b9050919050565b7f4f6e6c7920416c6963652063616e206465706f7369742e0000000000000000005f82015250565b5f613a8d601783613433565b9150613a9882613a59565b602082019050919050565b5f6020820190508181035f830152613aba81613a81565b9050919050565b7f4465706f73697420616d6f756e74206d757374206265206d6f7265207468616e5f8201527f20312e3031612e00000000000000000000000000000000000000000000000000602082015250565b5f613b1b602783613433565b9150613b2682613ac1565b604082019050919050565b5f6020820190508181035f830152613b4881613b0f565b9050919050565b5f82825260208201905092915050565b5f8154613b6b81613403565b613b758186613b4f565b9450600182165f8114613b8f5760018114613ba557613bd7565b60ff198316865281151560200286019350613bd7565b613bae85613539565b5f5b83811015613bcf57815481890152600182019150602081019050613bb0565b808801955050505b50505092915050565b613be981612d60565b82525050565b5f60a0820190508181035f830152613c078188613b5f565b90508181036020830152613c1b8187613b5f565b90508181036040830152613c2f8186613b5f565b90508181036060830152613c438185613b5f565b9050613c526080830184613be0565b9695505050505050565b613c658161309b565b8114613c6f575f80fd5b50565b5f81519050613c8081613c5c565b92915050565b5f60208284031215613c9b57613c9a612f20565b5b5f613ca884828501613c72565b91505092915050565b7f4e487b71000000000000000000000000000000000000000000000000000000005f52601260045260245ffd5b5f613ce882612d60565b9150613cf383612d60565b9250828203905081811115613d0b57613d0a613991565b5b9291505056fea2646970667358221220ef1c498e7a4dc9459f426324567707d582e7dac2508952f930eb4696ec1b2eac64736f6c634300081a0033",
			"opcodes": "PUSH1 0x80 PUSH1 0x40 MSTORE CALLVALUE DUP1 ISZERO PUSH2 0xF JUMPI PUSH0 DUP1 REVERT JUMPDEST POP PUSH1 0x40 MLOAD PUSH2 0x4039 CODESIZE SUB DUP1 PUSH2 0x4039 DUP4 CODECOPY DUP2 DUP2 ADD PUSH1 0x40 MSTORE DUP2 ADD SWAP1 PUSH2 0x31 SWAP2 SWAP1 PUSH2 0x1C4 JUMP JUMPDEST CALLER PUSH0 DUP1 PUSH2 0x100 EXP DUP2 SLOAD DUP2 PUSH20 0xFFFFFFFFFFFFFFFFFFFFFFFFFFFFFFFFFFFFFFFF MUL NOT AND SWAP1 DUP4 PUSH20 0xFFFFFFFFFFFFFFFFFFFFFFFFFFFFFFFFFFFFFFFF AND MUL OR SWAP1 SSTORE POP DUP4 PUSH1 0x1 PUSH0 PUSH2 0x100 EXP DUP2 SLOAD DUP2 PUSH20 0xFFFFFFFFFFFFFFFFFFFFFFFFFFFFFFFFFFFFFFFF MUL NOT AND SWAP1 DUP4 PUSH20 0xFFFFFFFFFFFFFFFFFFFFFFFFFFFFFFFFFFFFFFFF AND MUL OR SWAP1 SSTORE POP DUP3 PUSH1 0x2 DUP2 SWAP1 SSTORE POP PUSH1 0x64 PUSH1 0x2 SLOAD PUSH2 0xC6 SWAP2 SWAP1 PUSH2 0x282 JUMP JUMPDEST PUSH1 0x3 DUP2 SWAP1 SSTORE POP PUSH1 0x3 SLOAD PUSH1 0x2 SLOAD PUSH2 0xDC SWAP2 SWAP1 PUSH2 0x2B2 JUMP JUMPDEST PUSH1 0x4 DUP2 SWAP1 SSTORE POP DUP2 PUSH1 0x5 DUP2 SWAP1 SSTORE POP PUSH0 PUSH1 0xA PUSH0 PUSH2 0x100 EXP DUP2 SLOAD DUP2 PUSH1 0xFF MUL NOT AND SWAP1 DUP4 ISZERO ISZERO MUL OR SWAP1 SSTORE POP PUSH0 PUSH1 0xA PUSH1 0x1 PUSH2 0x100 EXP DUP2 SLOAD DUP2 PUSH1 0xFF MUL NOT AND SWAP1 DUP4 ISZERO ISZERO MUL OR SWAP1 SSTORE POP DUP1 PUSH1 0x7 DUP2 SWAP1 SSTORE POP TIMESTAMP PUSH1 0x6 DUP2 SWAP1 SSTORE POP POP POP POP POP PUSH2 0x2E5 JUMP JUMPDEST PUSH0 DUP1 REVERT JUMPDEST PUSH0 PUSH20 0xFFFFFFFFFFFFFFFFFFFFFFFFFFFFFFFFFFFFFFFF DUP3 AND SWAP1 POP SWAP2 SWAP1 POP JUMP JUMPDEST PUSH0 PUSH2 0x160 DUP3 PUSH2 0x137 JUMP JUMPDEST SWAP1 POP SWAP2 SWAP1 POP JUMP JUMPDEST PUSH2 0x170 DUP2 PUSH2 0x156 JUMP JUMPDEST DUP2 EQ PUSH2 0x17A JUMPI PUSH0 DUP1 REVERT JUMPDEST POP JUMP JUMPDEST PUSH0 DUP2 MLOAD SWAP1 POP PUSH2 0x18B DUP2 PUSH2 0x167 JUMP JUMPDEST SWAP3 SWAP2 POP POP JUMP JUMPDEST PUSH0 DUP2 SWAP1 POP SWAP2 SWAP1 POP JUMP JUMPDEST PUSH2 0x1A3 DUP2 PUSH2 0x191 JUMP JUMPDEST DUP2 EQ PUSH2 0x1AD JUMPI PUSH0 DUP1 REVERT JUMPDEST POP JUMP JUMPDEST PUSH0 DUP2 MLOAD SWAP1 POP PUSH2 0x1BE DUP2 PUSH2 0x19A JUMP JUMPDEST SWAP3 SWAP2 POP POP JUMP JUMPDEST PUSH0 DUP1 PUSH0 DUP1 PUSH1 0x80 DUP6 DUP8 SUB SLT ISZERO PUSH2 0x1DC JUMPI PUSH2 0x1DB PUSH2 0x133 JUMP JUMPDEST JUMPDEST PUSH0 PUSH2 0x1E9 DUP8 DUP3 DUP9 ADD PUSH2 0x17D JUMP JUMPDEST SWAP5 POP POP PUSH1 0x20 PUSH2 0x1FA DUP8 DUP3 DUP9 ADD PUSH2 0x1B0 JUMP JUMPDEST SWAP4 POP POP PUSH1 0x40 PUSH2 0x20B DUP8 DUP3 DUP9 ADD PUSH2 0x1B0 JUMP JUMPDEST SWAP3 POP POP PUSH1 0x60 PUSH2 0x21C DUP8 DUP3 DUP9 ADD PUSH2 0x1B0 JUMP JUMPDEST SWAP2 POP POP SWAP3 SWAP6 SWAP2 SWAP5 POP SWAP3 POP JUMP JUMPDEST PUSH32 0x4E487B7100000000000000000000000000000000000000000000000000000000 PUSH0 MSTORE PUSH1 0x12 PUSH1 0x4 MSTORE PUSH1 0x24 PUSH0 REVERT JUMPDEST PUSH32 0x4E487B7100000000000000000000000000000000000000000000000000000000 PUSH0 MSTORE PUSH1 0x11 PUSH1 0x4 MSTORE PUSH1 0x24 PUSH0 REVERT JUMPDEST PUSH0 PUSH2 0x28C DUP3 PUSH2 0x191 JUMP JUMPDEST SWAP2 POP PUSH2 0x297 DUP4 PUSH2 0x191 JUMP JUMPDEST SWAP3 POP DUP3 PUSH2 0x2A7 JUMPI PUSH2 0x2A6 PUSH2 0x228 JUMP JUMPDEST JUMPDEST DUP3 DUP3 DIV SWAP1 POP SWAP3 SWAP2 POP POP JUMP JUMPDEST PUSH0 PUSH2 0x2BC DUP3 PUSH2 0x191 JUMP JUMPDEST SWAP2 POP PUSH2 0x2C7 DUP4 PUSH2 0x191 JUMP JUMPDEST SWAP3 POP DUP3 DUP3 ADD SWAP1 POP DUP1 DUP3 GT ISZERO PUSH2 0x2DF JUMPI PUSH2 0x2DE PUSH2 0x255 JUMP JUMPDEST JUMPDEST SWAP3 SWAP2 POP POP JUMP JUMPDEST PUSH2 0x3D47 DUP1 PUSH2 0x2F2 PUSH0 CODECOPY PUSH0 RETURN INVALID PUSH1 0x80 PUSH1 0x40 MSTORE PUSH1 0x4 CALLDATASIZE LT PUSH2 0x134 JUMPI PUSH0 CALLDATALOAD PUSH1 0xE0 SHR DUP1 PUSH4 0x8BDA91AB GT PUSH2 0xAA JUMPI DUP1 PUSH4 0xC7654689 GT PUSH2 0x6E JUMPI DUP1 PUSH4 0xC7654689 EQ PUSH2 0x3CE JUMPI DUP1 PUSH4 0xC8F781C2 EQ PUSH2 0x3E4 JUMPI DUP1 PUSH4 0xD0E30DB0 EQ PUSH2 0x3EE JUMPI DUP1 PUSH4 0xD1261DF0 EQ PUSH2 0x418 JUMPI DUP1 PUSH4 0xFB47E3A2 EQ PUSH2 0x454 JUMPI DUP1 PUSH4 0xFF28EBAC EQ PUSH2 0x47E JUMPI PUSH2 0x134 JUMP JUMPDEST DUP1 PUSH4 0x8BDA91AB EQ PUSH2 0x2FA JUMPI DUP1 PUSH4 0x9A67DD08 EQ PUSH2 0x322 JUMPI DUP1 PUSH4 0xAA8C217C EQ PUSH2 0x34A JUMPI DUP1 PUSH4 0xB6146665 EQ PUSH2 0x374 JUMPI DUP1 PUSH4 0xC09CEC77 EQ PUSH2 0x3A4 JUMPI PUSH2 0x134 JUMP JUMPDEST DUP1 PUSH4 0x466ADD1C GT PUSH2 0xFC JUMPI DUP1 PUSH4 0x466ADD1C EQ PUSH2 0x210 JUMPI DUP1 PUSH4 0x5361178C EQ PUSH2 0x23E JUMPI DUP1 PUSH4 0x5C5499A0 EQ PUSH2 0x266 JUMPI DUP1 PUSH4 0x70DEA79A EQ PUSH2 0x27C JUMPI DUP1 PUSH4 0x75A598EA EQ PUSH2 0x2A6 JUMPI DUP1 PUSH4 0x83F093E1 EQ PUSH2 0x2D0 JUMPI PUSH2 0x134 JUMP JUMPDEST DUP1 PUSH4 0x1A39D8EF EQ PUSH2 0x138 JUMPI DUP1 PUSH4 0x1D8103FD EQ PUSH2 0x162 JUMPI DUP1 PUSH4 0x25D9F34F EQ PUSH2 0x18C JUMPI DUP1 PUSH4 0x3B417A82 EQ PUSH2 0x1B6 JUMPI DUP1 PUSH4 0x3BA0B9A9 EQ PUSH2 0x1E6 JUMPI JUMPDEST PUSH0 DUP1 REVERT JUMPDEST CALLVALUE DUP1 ISZERO PUSH2 0x143 JUMPI PUSH0 DUP1 REVERT JUMPDEST POP PUSH2 0x14C PUSH2 0x4A8 JUMP JUMPDEST PUSH1 0x40 MLOAD PUSH2 0x159 SWAP2 SWAP1 PUSH2 0x2D78 JUMP JUMPDEST PUSH1 0x40 MLOAD DUP1 SWAP2 SUB SWAP1 RETURN JUMPDEST CALLVALUE DUP1 ISZERO PUSH2 0x16D JUMPI PUSH0 DUP1 REVERT JUMPDEST POP PUSH2 0x176 PUSH2 0x4AE JUMP JUMPDEST PUSH1 0x40 MLOAD PUSH2 0x183 SWAP2 SWAP1 PUSH2 0x2E01 JUMP JUMPDEST PUSH1 0x40 MLOAD DUP1 SWAP2 SUB SWAP1 RETURN JUMPDEST CALLVALUE DUP1 ISZERO PUSH2 0x197 JUMPI PUSH0 DUP1 REVERT JUMPDEST POP PUSH2 0x1A0 PUSH2 0x53A JUMP JUMPDEST PUSH1 0x40 MLOAD PUSH2 0x1AD SWAP2 SWAP1 PUSH2 0x2D78 JUMP JUMPDEST PUSH1 0x40 MLOAD DUP1 SWAP2 SUB SWAP1 RETURN JUMPDEST CALLVALUE DUP1 ISZERO PUSH2 0x1C1 JUMPI PUSH0 DUP1 REVERT JUMPDEST POP PUSH2 0x1CA PUSH2 0x540 JUMP JUMPDEST PUSH1 0x40 MLOAD PUSH2 0x1DD SWAP8 SWAP7 SWAP6 SWAP5 SWAP4 SWAP3 SWAP2 SWAP1 PUSH2 0x2E21 JUMP JUMPDEST PUSH1 0x40 MLOAD DUP1 SWAP2 SUB SWAP1 RETURN JUMPDEST CALLVALUE DUP1 ISZERO PUSH2 0x1F1 JUMPI PUSH0 DUP1 REVERT JUMPDEST POP PUSH2 0x1FA PUSH2 0x80D JUMP JUMPDEST PUSH1 0x40 MLOAD PUSH2 0x207 SWAP2 SWAP1 PUSH2 0x2D78 JUMP JUMPDEST PUSH1 0x40 MLOAD DUP1 SWAP2 SUB SWAP1 RETURN JUMPDEST CALLVALUE DUP1 ISZERO PUSH2 0x21B JUMPI PUSH0 DUP1 REVERT JUMPDEST POP PUSH2 0x224 PUSH2 0x813 JUMP JUMPDEST PUSH1 0x40 MLOAD PUSH2 0x235 SWAP6 SWAP5 SWAP4 SWAP3 SWAP2 SWAP1 PUSH2 0x2EB1 JUMP JUMPDEST PUSH1 0x40 MLOAD DUP1 SWAP2 SUB SWAP1 RETURN JUMPDEST CALLVALUE DUP1 ISZERO PUSH2 0x249 JUMPI PUSH0 DUP1 REVERT JUMPDEST POP PUSH2 0x264 PUSH1 0x4 DUP1 CALLDATASIZE SUB DUP2 ADD SWAP1 PUSH2 0x25F SWAP2 SWAP1 PUSH2 0x3054 JUMP JUMPDEST PUSH2 0xA32 JUMP JUMPDEST STOP JUMPDEST CALLVALUE DUP1 ISZERO PUSH2 0x271 JUMPI PUSH0 DUP1 REVERT JUMPDEST POP PUSH2 0x27A PUSH2 0xB26 JUMP JUMPDEST STOP JUMPDEST CALLVALUE DUP1 ISZERO PUSH2 0x287 JUMPI PUSH0 DUP1 REVERT JUMPDEST POP PUSH2 0x290 PUSH2 0xDED JUMP JUMPDEST PUSH1 0x40 MLOAD PUSH2 0x29D SWAP2 SWAP1 PUSH2 0x2D78 JUMP JUMPDEST PUSH1 0x40 MLOAD DUP1 SWAP2 SUB SWAP1 RETURN JUMPDEST CALLVALUE DUP1 ISZERO PUSH2 0x2B1 JUMPI PUSH0 DUP1 REVERT JUMPDEST POP PUSH2 0x2BA PUSH2 0xDF3 JUMP JUMPDEST PUSH1 0x40 MLOAD PUSH2 0x2C7 SWAP2 SWAP1 PUSH2 0x30B5 JUMP JUMPDEST PUSH1 0x40 MLOAD DUP1 SWAP2 SUB SWAP1 RETURN JUMPDEST CALLVALUE DUP1 ISZERO PUSH2 0x2DB JUMPI PUSH0 DUP1 REVERT JUMPDEST POP PUSH2 0x2E4 PUSH2 0xE06 JUMP JUMPDEST PUSH1 0x40 MLOAD PUSH2 0x2F1 SWAP2 SWAP1 PUSH2 0x2E01 JUMP JUMPDEST PUSH1 0x40 MLOAD DUP1 SWAP2 SUB SWAP1 RETURN JUMPDEST CALLVALUE DUP1 ISZERO PUSH2 0x305 JUMPI PUSH0 DUP1 REVERT JUMPDEST POP PUSH2 0x320 PUSH1 0x4 DUP1 CALLDATASIZE SUB DUP2 ADD SWAP1 PUSH2 0x31B SWAP2 SWAP1 PUSH2 0x30F8 JUMP JUMPDEST PUSH2 0xE92 JUMP JUMPDEST STOP JUMPDEST CALLVALUE DUP1 ISZERO PUSH2 0x32D JUMPI PUSH0 DUP1 REVERT JUMPDEST POP PUSH2 0x348 PUSH1 0x4 DUP1 CALLDATASIZE SUB DUP2 ADD SWAP1 PUSH2 0x343 SWAP2 SWAP1 PUSH2 0x31C3 JUMP JUMPDEST PUSH2 0xFA9 JUMP JUMPDEST STOP JUMPDEST CALLVALUE DUP1 ISZERO PUSH2 0x355 JUMPI PUSH0 DUP1 REVERT JUMPDEST POP PUSH2 0x35E PUSH2 0x119D JUMP JUMPDEST PUSH1 0x40 MLOAD PUSH2 0x36B SWAP2 SWAP1 PUSH2 0x2D78 JUMP JUMPDEST PUSH1 0x40 MLOAD DUP1 SWAP2 SUB SWAP1 RETURN JUMPDEST CALLVALUE DUP1 ISZERO PUSH2 0x37F JUMPI PUSH0 DUP1 REVERT JUMPDEST POP PUSH2 0x388 PUSH2 0x11A3 JUMP JUMPDEST PUSH1 0x40 MLOAD PUSH2 0x39B SWAP8 SWAP7 SWAP6 SWAP5 SWAP4 SWAP3 SWAP2 SWAP1 PUSH2 0x32A6 JUMP JUMPDEST PUSH1 0x40 MLOAD DUP1 SWAP2 SUB SWAP1 RETURN JUMPDEST CALLVALUE DUP1 ISZERO PUSH2 0x3AF JUMPI PUSH0 DUP1 REVERT JUMPDEST POP PUSH2 0x3B8 PUSH2 0x121F JUMP JUMPDEST PUSH1 0x40 MLOAD PUSH2 0x3C5 SWAP2 SWAP1 PUSH2 0x3313 JUMP JUMPDEST PUSH1 0x40 MLOAD DUP1 SWAP2 SUB SWAP1 RETURN JUMPDEST CALLVALUE DUP1 ISZERO PUSH2 0x3D9 JUMPI PUSH0 DUP1 REVERT JUMPDEST POP PUSH2 0x3E2 PUSH2 0x1244 JUMP JUMPDEST STOP JUMPDEST PUSH2 0x3EC PUSH2 0x1457 JUMP JUMPDEST STOP JUMPDEST CALLVALUE DUP1 ISZERO PUSH2 0x3F9 JUMPI PUSH0 DUP1 REVERT JUMPDEST POP PUSH2 0x402 PUSH2 0x1592 JUMP JUMPDEST PUSH1 0x40 MLOAD PUSH2 0x40F SWAP2 SWAP1 PUSH2 0x2D78 JUMP JUMPDEST PUSH1 0x40 MLOAD DUP1 SWAP2 SUB SWAP1 RETURN JUMPDEST CALLVALUE DUP1 ISZERO PUSH2 0x423 JUMPI PUSH0 DUP1 REVERT JUMPDEST POP PUSH2 0x43E PUSH1 0x4 DUP1 CALLDATASIZE SUB DUP2 ADD SWAP1 PUSH2 0x439 SWAP2 SWAP1 PUSH2 0x335F JUMP JUMPDEST PUSH2 0x1598 JUMP JUMPDEST PUSH1 0x40 MLOAD PUSH2 0x44B SWAP2 SWAP1 PUSH2 0x30B5 JUMP JUMPDEST PUSH1 0x40 MLOAD DUP1 SWAP2 SUB SWAP1 RETURN JUMPDEST CALLVALUE DUP1 ISZERO PUSH2 0x45F JUMPI PUSH0 DUP1 REVERT JUMPDEST POP PUSH2 0x468 PUSH2 0x15B1 JUMP JUMPDEST PUSH1 0x40 MLOAD PUSH2 0x475 SWAP2 SWAP1 PUSH2 0x3313 JUMP JUMPDEST PUSH1 0x40 MLOAD DUP1 SWAP2 SUB SWAP1 RETURN JUMPDEST CALLVALUE DUP1 ISZERO PUSH2 0x489 JUMPI PUSH0 DUP1 REVERT JUMPDEST POP PUSH2 0x492 PUSH2 0x15D4 JUMP JUMPDEST PUSH1 0x40 MLOAD PUSH2 0x49F SWAP2 SWAP1 PUSH2 0x30B5 JUMP JUMPDEST PUSH1 0x40 MLOAD DUP1 SWAP2 SUB SWAP1 RETURN JUMPDEST PUSH1 0x4 SLOAD DUP2 JUMP JUMPDEST PUSH1 0x8 DUP1 SLOAD PUSH2 0x4BB SWAP1 PUSH2 0x3403 JUMP JUMPDEST DUP1 PUSH1 0x1F ADD PUSH1 0x20 DUP1 SWAP2 DIV MUL PUSH1 0x20 ADD PUSH1 0x40 MLOAD SWAP1 DUP2 ADD PUSH1 0x40 MSTORE DUP1 SWAP3 SWAP2 SWAP1 DUP2 DUP2 MSTORE PUSH1 0x20 ADD DUP3 DUP1 SLOAD PUSH2 0x4E7 SWAP1 PUSH2 0x3403 JUMP JUMPDEST DUP1 ISZERO PUSH2 0x532 JUMPI DUP1 PUSH1 0x1F LT PUSH2 0x509 JUMPI PUSH2 0x100 DUP1 DUP4 SLOAD DIV MUL DUP4 MSTORE SWAP2 PUSH1 0x20 ADD SWAP2 PUSH2 0x532 JUMP JUMPDEST DUP3 ADD SWAP2 SWAP1 PUSH0 MSTORE PUSH1 0x20 PUSH0 KECCAK256 SWAP1 JUMPDEST DUP2 SLOAD DUP2 MSTORE SWAP1 PUSH1 0x1 ADD SWAP1 PUSH1 0x20 ADD DUP1 DUP4 GT PUSH2 0x515 JUMPI DUP3 SWAP1 SUB PUSH1 0x1F AND DUP3 ADD SWAP2 JUMPDEST POP POP POP POP POP DUP2 JUMP JUMPDEST PUSH1 0x6 SLOAD DUP2 JUMP JUMPDEST PUSH1 0xB DUP1 PUSH0 ADD DUP1 SLOAD PUSH2 0x550 SWAP1 PUSH2 0x3403 JUMP JUMPDEST DUP1 PUSH1 0x1F ADD PUSH1 0x20 DUP1 SWAP2 DIV MUL PUSH1 0x20 ADD PUSH1 0x40 MLOAD SWAP1 DUP2 ADD PUSH1 0x40 MSTORE DUP1 SWAP3 SWAP2 SWAP1 DUP2 DUP2 MSTORE PUSH1 0x20 ADD DUP3 DUP1 SLOAD PUSH2 0x57C SWAP1 PUSH2 0x3403 JUMP JUMPDEST DUP1 ISZERO PUSH2 0x5C7 JUMPI DUP1 PUSH1 0x1F LT PUSH2 0x59E JUMPI PUSH2 0x100 DUP1 DUP4 SLOAD DIV MUL DUP4 MSTORE SWAP2 PUSH1 0x20 ADD SWAP2 PUSH2 0x5C7 JUMP JUMPDEST DUP3 ADD SWAP2 SWAP1 PUSH0 MSTORE PUSH1 0x20 PUSH0 KECCAK256 SWAP1 JUMPDEST DUP2 SLOAD DUP2 MSTORE SWAP1 PUSH1 0x1 ADD SWAP1 PUSH1 0x20 ADD DUP1 DUP4 GT PUSH2 0x5AA JUMPI DUP3 SWAP1 SUB PUSH1 0x1F AND DUP3 ADD SWAP2 JUMPDEST POP POP POP POP POP SWAP1 DUP1 PUSH1 0x1 ADD DUP1 SLOAD PUSH2 0x5DC SWAP1 PUSH2 0x3403 JUMP JUMPDEST DUP1 PUSH1 0x1F ADD PUSH1 0x20 DUP1 SWAP2 DIV MUL PUSH1 0x20 ADD PUSH1 0x40 MLOAD SWAP1 DUP2 ADD PUSH1 0x40 MSTORE DUP1 SWAP3 SWAP2 SWAP1 DUP2 DUP2 MSTORE PUSH1 0x20 ADD DUP3 DUP1 SLOAD PUSH2 0x608 SWAP1 PUSH2 0x3403 JUMP JUMPDEST DUP1 ISZERO PUSH2 0x653 JUMPI DUP1 PUSH1 0x1F LT PUSH2 0x62A JUMPI PUSH2 0x100 DUP1 DUP4 SLOAD DIV MUL DUP4 MSTORE SWAP2 PUSH1 0x20 ADD SWAP2 PUSH2 0x653 JUMP JUMPDEST DUP3 ADD SWAP2 SWAP1 PUSH0 MSTORE PUSH1 0x20 PUSH0 KECCAK256 SWAP1 JUMPDEST DUP2 SLOAD DUP2 MSTORE SWAP1 PUSH1 0x1 ADD SWAP1 PUSH1 0x20 ADD DUP1 DUP4 GT PUSH2 0x636 JUMPI DUP3 SWAP1 SUB PUSH1 0x1F AND DUP3 ADD SWAP2 JUMPDEST POP POP POP POP POP SWAP1 DUP1 PUSH1 0x2 ADD DUP1 SLOAD PUSH2 0x668 SWAP1 PUSH2 0x3403 JUMP JUMPDEST DUP1 PUSH1 0x1F ADD PUSH1 0x20 DUP1 SWAP2 DIV MUL PUSH1 0x20 ADD PUSH1 0x40 MLOAD SWAP1 DUP2 ADD PUSH1 0x40 MSTORE DUP1 SWAP3 SWAP2 SWAP1 DUP2 DUP2 MSTORE PUSH1 0x20 ADD DUP3 DUP1 SLOAD PUSH2 0x694 SWAP1 PUSH2 0x3403 JUMP JUMPDEST DUP1 ISZERO PUSH2 0x6DF JUMPI DUP1 PUSH1 0x1F LT PUSH2 0x6B6 JUMPI PUSH2 0x100 DUP1 DUP4 SLOAD DIV MUL DUP4 MSTORE SWAP2 PUSH1 0x20 ADD SWAP2 PUSH2 0x6DF JUMP JUMPDEST DUP3 ADD SWAP2 SWAP1 PUSH0 MSTORE PUSH1 0x20 PUSH0 KECCAK256 SWAP1 JUMPDEST DUP2 SLOAD DUP2 MSTORE SWAP1 PUSH1 0x1 ADD SWAP1 PUSH1 0x20 ADD DUP1 DUP4 GT PUSH2 0x6C2 JUMPI DUP3 SWAP1 SUB PUSH1 0x1F AND DUP3 ADD SWAP2 JUMPDEST POP POP POP POP POP SWAP1 DUP1 PUSH1 0x3 ADD DUP1 SLOAD PUSH2 0x6F4 SWAP1 PUSH2 0x3403 JUMP JUMPDEST DUP1 PUSH1 0x1F ADD PUSH1 0x20 DUP1 SWAP2 DIV MUL PUSH1 0x20 ADD PUSH1 0x40 MLOAD SWAP1 DUP2 ADD PUSH1 0x40 MSTORE DUP1 SWAP3 SWAP2 SWAP1 DUP2 DUP2 MSTORE PUSH1 0x20 ADD DUP3 DUP1 SLOAD PUSH2 0x720 SWAP1 PUSH2 0x3403 JUMP JUMPDEST DUP1 ISZERO PUSH2 0x76B JUMPI DUP1 PUSH1 0x1F LT PUSH2 0x742 JUMPI PUSH2 0x100 DUP1 DUP4 SLOAD DIV MUL DUP4 MSTORE SWAP2 PUSH1 0x20 ADD SWAP2 PUSH2 0x76B JUMP JUMPDEST DUP3 ADD SWAP2 SWAP1 PUSH0 MSTORE PUSH1 0x20 PUSH0 KECCAK256 SWAP1 JUMPDEST DUP2 SLOAD DUP2 MSTORE SWAP1 PUSH1 0x1 ADD SWAP1 PUSH1 0x20 ADD DUP1 DUP4 GT PUSH2 0x74E JUMPI DUP3 SWAP1 SUB PUSH1 0x1F AND DUP3 ADD SWAP2 JUMPDEST POP POP POP POP POP SWAP1 DUP1 PUSH1 0x4 ADD DUP1 SLOAD PUSH2 0x780 SWAP1 PUSH2 0x3403 JUMP JUMPDEST DUP1 PUSH1 0x1F ADD PUSH1 0x20 DUP1 SWAP2 DIV MUL PUSH1 0x20 ADD PUSH1 0x40 MLOAD SWAP1 DUP2 ADD PUSH1 0x40 MSTORE DUP1 SWAP3 SWAP2 SWAP1 DUP2 DUP2 MSTORE PUSH1 0x20 ADD DUP3 DUP1 SLOAD PUSH2 0x7AC SWAP1 PUSH2 0x3403 JUMP JUMPDEST DUP1 ISZERO PUSH2 0x7F7 JUMPI DUP1 PUSH1 0x1F LT PUSH2 0x7CE JUMPI PUSH2 0x100 DUP1 DUP4 SLOAD DIV MUL DUP4 MSTORE SWAP2 PUSH1 0x20 ADD SWAP2 PUSH2 0x7F7 JUMP JUMPDEST DUP3 ADD SWAP2 SWAP1 PUSH0 MSTORE PUSH1 0x20 PUSH0 KECCAK256 SWAP1 JUMPDEST DUP2 SLOAD DUP2 MSTORE SWAP1 PUSH1 0x1 ADD SWAP1 PUSH1 0x20 ADD DUP1 DUP4 GT PUSH2 0x7DA JUMPI DUP3 SWAP1 SUB PUSH1 0x1F AND DUP3 ADD SWAP2 JUMPDEST POP POP POP POP POP SWAP1 DUP1 PUSH1 0x5 ADD SLOAD SWAP1 DUP1 PUSH1 0x6 ADD SLOAD SWAP1 POP DUP8 JUMP JUMPDEST PUSH1 0x5 SLOAD DUP2 JUMP JUMPDEST PUSH0 DUP1 PUSH1 0x60 DUP1 PUSH1 0x60 PUSH1 0xA PUSH1 0x1 SWAP1 SLOAD SWAP1 PUSH2 0x100 EXP SWAP1 DIV PUSH1 0xFF AND PUSH2 0x869 JUMPI PUSH1 0x40 MLOAD PUSH32 0x8C379A000000000000000000000000000000000000000000000000000000000 DUP2 MSTORE PUSH1 0x4 ADD PUSH2 0x860 SWAP1 PUSH2 0x348D JUMP JUMPDEST PUSH1 0x40 MLOAD DUP1 SWAP2 SUB SWAP1 REVERT JUMPDEST PUSH1 0xB PUSH1 0x6 ADD SLOAD PUSH1 0xB PUSH1 0x5 ADD SLOAD PUSH1 0xB PUSH1 0x3 ADD PUSH1 0xB PUSH1 0x1 ADD PUSH1 0xB PUSH0 ADD DUP3 DUP1 SLOAD PUSH2 0x88F SWAP1 PUSH2 0x3403 JUMP JUMPDEST DUP1 PUSH1 0x1F ADD PUSH1 0x20 DUP1 SWAP2 DIV MUL PUSH1 0x20 ADD PUSH1 0x40 MLOAD SWAP1 DUP2 ADD PUSH1 0x40 MSTORE DUP1 SWAP3 SWAP2 SWAP1 DUP2 DUP2 MSTORE PUSH1 0x20 ADD DUP3 DUP1 SLOAD PUSH2 0x8BB SWAP1 PUSH2 0x3403 JUMP JUMPDEST DUP1 ISZERO PUSH2 0x906 JUMPI DUP1 PUSH1 0x1F LT PUSH2 0x8DD JUMPI PUSH2 0x100 DUP1 DUP4 SLOAD DIV MUL DUP4 MSTORE SWAP2 PUSH1 0x20 ADD SWAP2 PUSH2 0x906 JUMP JUMPDEST DUP3 ADD SWAP2 SWAP1 PUSH0 MSTORE PUSH1 0x20 PUSH0 KECCAK256 SWAP1 JUMPDEST DUP2 SLOAD DUP2 MSTORE SWAP1 PUSH1 0x1 ADD SWAP1 PUSH1 0x20 ADD DUP1 DUP4 GT PUSH2 0x8E9 JUMPI DUP3 SWAP1 SUB PUSH1 0x1F AND DUP3 ADD SWAP2 JUMPDEST POP POP POP POP POP SWAP3 POP DUP2 DUP1 SLOAD PUSH2 0x919 SWAP1 PUSH2 0x3403 JUMP JUMPDEST DUP1 PUSH1 0x1F ADD PUSH1 0x20 DUP1 SWAP2 DIV MUL PUSH1 0x20 ADD PUSH1 0x40 MLOAD SWAP1 DUP2 ADD PUSH1 0x40 MSTORE DUP1 SWAP3 SWAP2 SWAP1 DUP2 DUP2 MSTORE PUSH1 0x20 ADD DUP3 DUP1 SLOAD PUSH2 0x945 SWAP1 PUSH2 0x3403 JUMP JUMPDEST DUP1 ISZERO PUSH2 0x990 JUMPI DUP1 PUSH1 0x1F LT PUSH2 0x967 JUMPI PUSH2 0x100 DUP1 DUP4 SLOAD DIV MUL DUP4 MSTORE SWAP2 PUSH1 0x20 ADD SWAP2 PUSH2 0x990 JUMP JUMPDEST DUP3 ADD SWAP2 SWAP1 PUSH0 MSTORE PUSH1 0x20 PUSH0 KECCAK256 SWAP1 JUMPDEST DUP2 SLOAD DUP2 MSTORE SWAP1 PUSH1 0x1 ADD SWAP1 PUSH1 0x20 ADD DUP1 DUP4 GT PUSH2 0x973 JUMPI DUP3 SWAP1 SUB PUSH1 0x1F AND DUP3 ADD SWAP2 JUMPDEST POP POP POP POP POP SWAP2 POP DUP1 DUP1 SLOAD PUSH2 0x9A3 SWAP1 PUSH2 0x3403 JUMP JUMPDEST DUP1 PUSH1 0x1F ADD PUSH1 0x20 DUP1 SWAP2 DIV MUL PUSH1 0x20 ADD PUSH1 0x40 MLOAD SWAP1 DUP2 ADD PUSH1 0x40 MSTORE DUP1 SWAP3 SWAP2 SWAP1 DUP2 DUP2 MSTORE PUSH1 0x20 ADD DUP3 DUP1 SLOAD PUSH2 0x9CF SWAP1 PUSH2 0x3403 JUMP JUMPDEST DUP1 ISZERO PUSH2 0xA1A JUMPI DUP1 PUSH1 0x1F LT PUSH2 0x9F1 JUMPI PUSH2 0x100 DUP1 DUP4 SLOAD DIV MUL DUP4 MSTORE SWAP2 PUSH1 0x20 ADD SWAP2 PUSH2 0xA1A JUMP JUMPDEST DUP3 ADD SWAP2 SWAP1 PUSH0 MSTORE PUSH1 0x20 PUSH0 KECCAK256 SWAP1 JUMPDEST DUP2 SLOAD DUP2 MSTORE SWAP1 PUSH1 0x1 ADD SWAP1 PUSH1 0x20 ADD DUP1 DUP4 GT PUSH2 0x9FD JUMPI DUP3 SWAP1 SUB PUSH1 0x1F AND DUP3 ADD SWAP2 JUMPDEST POP POP POP POP POP SWAP1 POP SWAP5 POP SWAP5 POP SWAP5 POP SWAP5 POP SWAP5 POP SWAP1 SWAP2 SWAP3 SWAP4 SWAP5 JUMP JUMPDEST PUSH1 0x1 PUSH0 SWAP1 SLOAD SWAP1 PUSH2 0x100 EXP SWAP1 DIV PUSH20 0xFFFFFFFFFFFFFFFFFFFFFFFFFFFFFFFFFFFFFFFF AND PUSH20 0xFFFFFFFFFFFFFFFFFFFFFFFFFFFFFFFFFFFFFFFF AND CALLER PUSH20 0xFFFFFFFFFFFFFFFFFFFFFFFFFFFFFFFFFFFFFFFF AND EQ PUSH2 0xAC1 JUMPI PUSH1 0x40 MLOAD PUSH32 0x8C379A000000000000000000000000000000000000000000000000000000000 DUP2 MSTORE PUSH1 0x4 ADD PUSH2 0xAB8 SWAP1 PUSH2 0x351B JUMP JUMPDEST PUSH1 0x40 MLOAD DUP1 SWAP2 SUB SWAP1 REVERT JUMPDEST DUP1 PUSH1 0x8 SWAP1 DUP2 PUSH2 0xAD0 SWAP2 SWAP1 PUSH2 0x36D6 JUMP JUMPDEST POP PUSH32 0x3E52FBBB12F1347BD63824136FA0930B30743AC0B2C238CF13892CF4F4E52969 DUP2 PUSH1 0x40 MLOAD PUSH2 0xB00 SWAP2 SWAP1 PUSH2 0x2E01 JUMP JUMPDEST PUSH1 0x40 MLOAD DUP1 SWAP2 SUB SWAP1 LOG1 PUSH1 0x1 PUSH1 0xA PUSH1 0x1 PUSH2 0x100 EXP DUP2 SLOAD DUP2 PUSH1 0xFF MUL NOT AND SWAP1 DUP4 ISZERO ISZERO MUL OR SWAP1 SSTORE POP POP JUMP JUMPDEST PUSH0 DUP1 SLOAD SWAP1 PUSH2 0x100 EXP SWAP1 DIV PUSH20 0xFFFFFFFFFFFFFFFFFFFFFFFFFFFFFFFFFFFFFFFF AND PUSH20 0xFFFFFFFFFFFFFFFFFFFFFFFFFFFFFFFFFFFFFFFF AND CALLER PUSH20 0xFFFFFFFFFFFFFFFFFFFFFFFFFFFFFFFFFFFFFFFF AND EQ PUSH2 0xBB3 JUMPI PUSH1 0x40 MLOAD PUSH32 0x8C379A000000000000000000000000000000000000000000000000000000000 DUP2 MSTORE PUSH1 0x4 ADD PUSH2 0xBAA SWAP1 PUSH2 0x3815 JUMP JUMPDEST PUSH1 0x40 MLOAD DUP1 SWAP2 SUB SWAP1 REVERT JUMPDEST PUSH1 0x4 SLOAD SELFBALANCE LT ISZERO PUSH2 0xBF8 JUMPI PUSH1 0x40 MLOAD PUSH32 0x8C379A000000000000000000000000000000000000000000000000000000000 DUP2 MSTORE PUSH1 0x4 ADD PUSH2 0xBEF SWAP1 PUSH2 0x387D JUMP JUMPDEST PUSH1 0x40 MLOAD DUP1 SWAP2 SUB SWAP1 REVERT JUMPDEST PUSH1 0x1 PUSH0 SWAP1 SLOAD SWAP1 PUSH2 0x100 EXP SWAP1 DIV PUSH20 0xFFFFFFFFFFFFFFFFFFFFFFFFFFFFFFFFFFFFFFFF AND PUSH20 0xFFFFFFFFFFFFFFFFFFFFFFFFFFFFFFFFFFFFFFFF AND PUSH2 0x8FC PUSH1 0x2 SLOAD SWAP1 DUP2 ISZERO MUL SWAP1 PUSH1 0x40 MLOAD PUSH0 PUSH1 0x40 MLOAD DUP1 DUP4 SUB DUP2 DUP6 DUP9 DUP9 CALL SWAP4 POP POP POP POP ISZERO DUP1 ISZERO PUSH2 0xC5E JUMPI RETURNDATASIZE PUSH0 DUP1 RETURNDATACOPY RETURNDATASIZE PUSH0 REVERT JUMPDEST POP PUSH0 DUP1 SLOAD SWAP1 PUSH2 0x100 EXP SWAP1 DIV PUSH20 0xFFFFFFFFFFFFFFFFFFFFFFFFFFFFFFFFFFFFFFFF AND PUSH20 0xFFFFFFFFFFFFFFFFFFFFFFFFFFFFFFFFFFFFFFFF AND PUSH2 0x8FC PUSH1 0x3 SLOAD SWAP1 DUP2 ISZERO MUL SWAP1 PUSH1 0x40 MLOAD PUSH0 PUSH1 0x40 MLOAD DUP1 DUP4 SUB DUP2 DUP6 DUP9 DUP9 CALL SWAP4 POP POP POP POP ISZERO DUP1 ISZERO PUSH2 0xCC3 JUMPI RETURNDATASIZE PUSH0 DUP1 RETURNDATACOPY RETURNDATASIZE PUSH0 REVERT JUMPDEST POP PUSH1 0x1 PUSH0 SWAP1 SLOAD SWAP1 PUSH2 0x100 EXP SWAP1 DIV PUSH20 0xFFFFFFFFFFFFFFFFFFFFFFFFFFFFFFFFFFFFFFFF AND PUSH20 0xFFFFFFFFFFFFFFFFFFFFFFFFFFFFFFFFFFFFFFFF AND CALLER PUSH20 0xFFFFFFFFFFFFFFFFFFFFFFFFFFFFFFFFFFFFFFFF AND PUSH32 0xDDF252AD1BE2C89B69C2B068FC378DAA952BA7F163C4A11628F55A4DF523B3EF PUSH1 0x2 SLOAD PUSH1 0x40 MLOAD PUSH2 0xD44 SWAP2 SWAP1 PUSH2 0x2D78 JUMP JUMPDEST PUSH1 0x40 MLOAD DUP1 SWAP2 SUB SWAP1 LOG3 PUSH0 DUP1 SLOAD SWAP1 PUSH2 0x100 EXP SWAP1 DIV PUSH20 0xFFFFFFFFFFFFFFFFFFFFFFFFFFFFFFFFFFFFFFFF AND PUSH20 0xFFFFFFFFFFFFFFFFFFFFFFFFFFFFFFFFFFFFFFFF AND CALLER PUSH20 0xFFFFFFFFFFFFFFFFFFFFFFFFFFFFFFFFFFFFFFFF AND PUSH32 0xDDF252AD1BE2C89B69C2B068FC378DAA952BA7F163C4A11628F55A4DF523B3EF PUSH1 0x3 SLOAD PUSH1 0x40 MLOAD PUSH2 0xDCA SWAP2 SWAP1 PUSH2 0x2D78 JUMP JUMPDEST PUSH1 0x40 MLOAD DUP1 SWAP2 SUB SWAP1 LOG3 PUSH0 PUSH1 0xA PUSH0 PUSH2 0x100 EXP DUP2 SLOAD DUP2 PUSH1 0xFF MUL NOT AND SWAP1 DUP4 ISZERO ISZERO MUL OR SWAP1 SSTORE POP JUMP JUMPDEST PUSH1 0x7 SLOAD DUP2 JUMP JUMPDEST PUSH1 0xA PUSH1 0x1 SWAP1 SLOAD SWAP1 PUSH2 0x100 EXP SWAP1 DIV PUSH1 0xFF AND DUP2 JUMP JUMPDEST PUSH1 0x9 DUP1 SLOAD PUSH2 0xE13 SWAP1 PUSH2 0x3403 JUMP JUMPDEST DUP1 PUSH1 0x1F ADD PUSH1 0x20 DUP1 SWAP2 DIV MUL PUSH1 0x20 ADD PUSH1 0x40 MLOAD SWAP1 DUP2 ADD PUSH1 0x40 MSTORE DUP1 SWAP3 SWAP2 SWAP1 DUP2 DUP2 MSTORE PUSH1 0x20 ADD DUP3 DUP1 SLOAD PUSH2 0xE3F SWAP1 PUSH2 0x3403 JUMP JUMPDEST DUP1 ISZERO PUSH2 0xE8A JUMPI DUP1 PUSH1 0x1F LT PUSH2 0xE61 JUMPI PUSH2 0x100 DUP1 DUP4 SLOAD DIV MUL DUP4 MSTORE SWAP2 PUSH1 0x20 ADD SWAP2 PUSH2 0xE8A JUMP JUMPDEST DUP3 ADD SWAP2 SWAP1 PUSH0 MSTORE PUSH1 0x20 PUSH0 KECCAK256 SWAP1 JUMPDEST DUP2 SLOAD DUP2 MSTORE SWAP1 PUSH1 0x1 ADD SWAP1 PUSH1 0x20 ADD DUP1 DUP4 GT PUSH2 0xE6D JUMPI DUP3 SWAP1 SUB PUSH1 0x1F AND DUP3 ADD SWAP2 JUMPDEST POP POP POP POP POP DUP2 JUMP JUMPDEST PUSH0 DUP1 SLOAD SWAP1 PUSH2 0x100 EXP SWAP1 DIV PUSH20 0xFFFFFFFFFFFFFFFFFFFFFFFFFFFFFFFFFFFFFFFF AND PUSH20 0xFFFFFFFFFFFFFFFFFFFFFFFFFFFFFFFFFFFFFFFF AND CALLER PUSH20 0xFFFFFFFFFFFFFFFFFFFFFFFFFFFFFFFFFFFFFFFF AND EQ PUSH2 0xF1F JUMPI PUSH1 0x40 MLOAD PUSH32 0x8C379A000000000000000000000000000000000000000000000000000000000 DUP2 MSTORE PUSH1 0x4 ADD PUSH2 0xF16 SWAP1 PUSH2 0x390B JUMP JUMPDEST PUSH1 0x40 MLOAD DUP1 SWAP2 SUB SWAP1 REVERT JUMPDEST DUP5 PUSH1 0xB PUSH0 ADD SWAP1 DUP2 PUSH2 0xF30 SWAP2 SWAP1 PUSH2 0x36D6 JUMP JUMPDEST POP DUP4 PUSH1 0xB PUSH1 0x1 ADD SWAP1 DUP2 PUSH2 0xF43 SWAP2 SWAP1 PUSH2 0x36D6 JUMP JUMPDEST POP DUP3 PUSH1 0xB PUSH1 0x3 ADD SWAP1 DUP2 PUSH2 0xF56 SWAP2 SWAP1 PUSH2 0x36D6 JUMP JUMPDEST POP DUP1 PUSH1 0xB PUSH1 0x6 ADD DUP2 SWAP1 SSTORE POP DUP2 PUSH1 0xB PUSH1 0x5 ADD DUP2 SWAP1 SSTORE POP PUSH32 0x5B1FD024CFDECF12403893EB3F5C7143182CBB3D479096B12FF678DEB056B8AD DUP6 PUSH1 0x40 MLOAD PUSH2 0xF9A SWAP2 SWAP1 PUSH2 0x2E01 JUMP JUMPDEST PUSH1 0x40 MLOAD DUP1 SWAP2 SUB SWAP1 LOG1 POP POP POP POP POP JUMP JUMPDEST PUSH1 0x1 PUSH0 SWAP1 SLOAD SWAP1 PUSH2 0x100 EXP SWAP1 DIV PUSH20 0xFFFFFFFFFFFFFFFFFFFFFFFFFFFFFFFFFFFFFFFF AND PUSH20 0xFFFFFFFFFFFFFFFFFFFFFFFFFFFFFFFFFFFFFFFF AND CALLER PUSH20 0xFFFFFFFFFFFFFFFFFFFFFFFFFFFFFFFFFFFFFFFF AND EQ PUSH2 0x1038 JUMPI PUSH1 0x40 MLOAD PUSH32 0x8C379A000000000000000000000000000000000000000000000000000000000 DUP2 MSTORE PUSH1 0x4 ADD PUSH2 0x102F SWAP1 PUSH2 0x3973 JUMP JUMPDEST PUSH1 0x40 MLOAD DUP1 SWAP2 SUB SWAP1 REVERT JUMPDEST PUSH1 0x4 SLOAD SELFBALANCE LT ISZERO PUSH2 0x107D JUMPI PUSH1 0x40 MLOAD PUSH32 0x8C379A000000000000000000000000000000000000000000000000000000000 DUP2 MSTORE PUSH1 0x4 ADD PUSH2 0x1074 SWAP1 PUSH2 0x387D JUMP JUMPDEST PUSH1 0x40 MLOAD DUP1 SWAP2 SUB SWAP1 REVERT JUMPDEST DUP3 PUSH1 0x9 SWAP1 DUP2 PUSH2 0x108C SWAP2 SWAP1 PUSH2 0x36D6 JUMP JUMPDEST POP DUP2 PUSH1 0xB PUSH1 0x2 ADD SWAP1 DUP2 PUSH2 0x109F SWAP2 SWAP1 PUSH2 0x36D6 JUMP JUMPDEST POP DUP1 PUSH1 0xB PUSH1 0x4 ADD SWAP1 DUP2 PUSH2 0x10B2 SWAP2 SWAP1 PUSH2 0x36D6 JUMP JUMPDEST POP PUSH2 0x10BB PUSH2 0x15E6 JUMP JUMPDEST PUSH2 0x1198 JUMPI PUSH1 0x1 PUSH0 SWAP1 SLOAD SWAP1 PUSH2 0x100 EXP SWAP1 DIV PUSH20 0xFFFFFFFFFFFFFFFFFFFFFFFFFFFFFFFFFFFFFFFF AND PUSH20 0xFFFFFFFFFFFFFFFFFFFFFFFFFFFFFFFFFFFFFFFF AND PUSH2 0x8FC PUSH1 0x4 SLOAD SWAP1 DUP2 ISZERO MUL SWAP1 PUSH1 0x40 MLOAD PUSH0 PUSH1 0x40 MLOAD DUP1 DUP4 SUB DUP2 DUP6 DUP9 DUP9 CALL SWAP4 POP POP POP POP ISZERO DUP1 ISZERO PUSH2 0x1125 JUMPI RETURNDATASIZE PUSH0 DUP1 RETURNDATACOPY RETURNDATASIZE PUSH0 REVERT JUMPDEST POP PUSH1 0x1 PUSH0 SWAP1 SLOAD SWAP1 PUSH2 0x100 EXP SWAP1 DIV PUSH20 0xFFFFFFFFFFFFFFFFFFFFFFFFFFFFFFFFFFFFFFFF AND PUSH20 0xFFFFFFFFFFFFFFFFFFFFFFFFFFFFFFFFFFFFFFFF AND PUSH32 0xE4BB88ACDA5194AA84E6FEEDBB6438FFD447BDEE1E1AD8DDA3C32FCFF9A68F08 PUSH1 0x4 SLOAD PUSH1 0x40 MLOAD PUSH2 0x118F SWAP2 SWAP1 PUSH2 0x2D78 JUMP JUMPDEST PUSH1 0x40 MLOAD DUP1 SWAP2 SUB SWAP1 LOG2 JUMPDEST POP POP POP JUMP JUMPDEST PUSH1 0x2 SLOAD DUP2 JUMP JUMPDEST PUSH0 DUP1 PUSH0 DUP1 PUSH0 DUP1 PUSH0 DUP1 PUSH0 SWAP1 SLOAD SWAP1 PUSH2 0x100 EXP SWAP1 DIV PUSH20 0xFFFFFFFFFFFFFFFFFFFFFFFFFFFFFFFFFFFFFFFF AND PUSH1 0x1 PUSH0 SWAP1 SLOAD SWAP1 PUSH2 0x100 EXP SWAP1 DIV PUSH20 0xFFFFFFFFFFFFFFFFFFFFFFFFFFFFFFFFFFFFFFFF AND PUSH1 0x2 SLOAD PUSH1 0x3 SLOAD PUSH1 0x4 SLOAD PUSH1 0x5 SLOAD PUSH1 0xA PUSH0 SWAP1 SLOAD SWAP1 PUSH2 0x100 EXP SWAP1 DIV PUSH1 0xFF AND SWAP7 POP SWAP7 POP SWAP7 POP SWAP7 POP SWAP7 POP SWAP7 POP SWAP7 POP SWAP1 SWAP2 SWAP3 SWAP4 SWAP5 SWAP6 SWAP7 JUMP JUMPDEST PUSH1 0x1 PUSH0 SWAP1 SLOAD SWAP1 PUSH2 0x100 EXP SWAP1 DIV PUSH20 0xFFFFFFFFFFFFFFFFFFFFFFFFFFFFFFFFFFFFFFFF AND DUP2 JUMP JUMPDEST PUSH0 DUP1 SLOAD SWAP1 PUSH2 0x100 EXP SWAP1 DIV PUSH20 0xFFFFFFFFFFFFFFFFFFFFFFFFFFFFFFFFFFFFFFFF AND PUSH20 0xFFFFFFFFFFFFFFFFFFFFFFFFFFFFFFFFFFFFFFFF AND CALLER PUSH20 0xFFFFFFFFFFFFFFFFFFFFFFFFFFFFFFFFFFFFFFFF AND EQ PUSH2 0x12D1 JUMPI PUSH1 0x40 MLOAD PUSH32 0x8C379A000000000000000000000000000000000000000000000000000000000 DUP2 MSTORE PUSH1 0x4 ADD PUSH2 0x12C8 SWAP1 PUSH2 0x3815 JUMP JUMPDEST PUSH1 0x40 MLOAD DUP1 SWAP2 SUB SWAP1 REVERT JUMPDEST PUSH1 0x4 SLOAD SELFBALANCE LT ISZERO PUSH2 0x1316 JUMPI PUSH1 0x40 MLOAD PUSH32 0x8C379A000000000000000000000000000000000000000000000000000000000 DUP2 MSTORE PUSH1 0x4 ADD PUSH2 0x130D SWAP1 PUSH2 0x387D JUMP JUMPDEST PUSH1 0x40 MLOAD DUP1 SWAP2 SUB SWAP1 REVERT JUMPDEST PUSH1 0x7 SLOAD PUSH1 0x6 SLOAD PUSH2 0x1326 SWAP2 SWAP1 PUSH2 0x39BE JUMP JUMPDEST TIMESTAMP LT ISZERO PUSH2 0x1368 JUMPI PUSH1 0x40 MLOAD PUSH32 0x8C379A000000000000000000000000000000000000000000000000000000000 DUP2 MSTORE PUSH1 0x4 ADD PUSH2 0x135F SWAP1 PUSH2 0x3A3B JUMP JUMPDEST PUSH1 0x40 MLOAD DUP1 SWAP2 SUB SWAP1 REVERT JUMPDEST PUSH0 DUP1 SLOAD SWAP1 PUSH2 0x100 EXP SWAP1 DIV PUSH20 0xFFFFFFFFFFFFFFFFFFFFFFFFFFFFFFFFFFFFFFFF AND PUSH20 0xFFFFFFFFFFFFFFFFFFFFFFFFFFFFFFFFFFFFFFFF AND PUSH2 0x8FC PUSH1 0x4 SLOAD SWAP1 DUP2 ISZERO MUL SWAP1 PUSH1 0x40 MLOAD PUSH0 PUSH1 0x40 MLOAD DUP1 DUP4 SUB DUP2 DUP6 DUP9 DUP9 CALL SWAP4 POP POP POP POP ISZERO DUP1 ISZERO PUSH2 0x13CC JUMPI RETURNDATASIZE PUSH0 DUP1 RETURNDATACOPY RETURNDATASIZE PUSH0 REVERT JUMPDEST POP PUSH0 DUP1 SLOAD SWAP1 PUSH2 0x100 EXP SWAP1 DIV PUSH20 0xFFFFFFFFFFFFFFFFFFFFFFFFFFFFFFFFFFFFFFFF AND PUSH20 0xFFFFFFFFFFFFFFFFFFFFFFFFFFFFFFFFFFFFFFFF AND PUSH32 0xE4BB88ACDA5194AA84E6FEEDBB6438FFD447BDEE1E1AD8DDA3C32FCFF9A68F08 PUSH1 0x4 SLOAD PUSH1 0x40 MLOAD PUSH2 0x1434 SWAP2 SWAP1 PUSH2 0x2D78 JUMP JUMPDEST PUSH1 0x40 MLOAD DUP1 SWAP2 SUB SWAP1 LOG2 PUSH0 PUSH1 0xA PUSH0 PUSH2 0x100 EXP DUP2 SLOAD DUP2 PUSH1 0xFF MUL NOT AND SWAP1 DUP4 ISZERO ISZERO MUL OR SWAP1 SSTORE POP JUMP JUMPDEST PUSH0 DUP1 SLOAD SWAP1 PUSH2 0x100 EXP SWAP1 DIV PUSH20 0xFFFFFFFFFFFFFFFFFFFFFFFFFFFFFFFFFFFFFFFF AND PUSH20 0xFFFFFFFFFFFFFFFFFFFFFFFFFFFFFFFFFFFFFFFF AND CALLER PUSH20 0xFFFFFFFFFFFFFFFFFFFFFFFFFFFFFFFFFFFFFFFF AND EQ PUSH2 0x14E4 JUMPI PUSH1 0x40 MLOAD PUSH32 0x8C379A000000000000000000000000000000000000000000000000000000000 DUP2 MSTORE PUSH1 0x4 ADD PUSH2 0x14DB SWAP1 PUSH2 0x3AA3 JUMP JUMPDEST PUSH1 0x40 MLOAD DUP1 SWAP2 SUB SWAP1 REVERT JUMPDEST PUSH1 0x4 SLOAD CALLVALUE EQ PUSH2 0x1528 JUMPI PUSH1 0x40 MLOAD PUSH32 0x8C379A000000000000000000000000000000000000000000000000000000000 DUP2 MSTORE PUSH1 0x4 ADD PUSH2 0x151F SWAP1 PUSH2 0x3B31 JUMP JUMPDEST PUSH1 0x40 MLOAD DUP1 SWAP2 SUB SWAP1 REVERT JUMPDEST CALLER PUSH20 0xFFFFFFFFFFFFFFFFFFFFFFFFFFFFFFFFFFFFFFFF AND PUSH32 0xE1FFFCC4923D04B559F4D29A8BFC6CDA04EB5B0D3C460751C2402C5C5CC9109C CALLVALUE PUSH1 0x40 MLOAD PUSH2 0x156E SWAP2 SWAP1 PUSH2 0x2D78 JUMP JUMPDEST PUSH1 0x40 MLOAD DUP1 SWAP2 SUB SWAP1 LOG2 PUSH1 0x1 PUSH1 0xA PUSH0 PUSH2 0x100 EXP DUP2 SLOAD DUP2 PUSH1 0xFF MUL NOT AND SWAP1 DUP4 ISZERO ISZERO MUL OR SWAP1 SSTORE POP JUMP JUMPDEST PUSH1 0x3 SLOAD DUP2 JUMP JUMPDEST PUSH0 PUSH2 0x15A6 DUP7 DUP7 DUP7 DUP7 DUP7 PUSH2 0x167F JUMP JUMPDEST SWAP1 POP SWAP6 SWAP5 POP POP POP POP POP JUMP JUMPDEST PUSH0 DUP1 SLOAD SWAP1 PUSH2 0x100 EXP SWAP1 DIV PUSH20 0xFFFFFFFFFFFFFFFFFFFFFFFFFFFFFFFFFFFFFFFF AND DUP2 JUMP JUMPDEST PUSH1 0xA PUSH0 SWAP1 SLOAD SWAP1 PUSH2 0x100 EXP SWAP1 DIV PUSH1 0xFF AND DUP2 JUMP JUMPDEST PUSH0 PUSH20 0x0 PUSH4 0xC2269A7B PUSH1 0xB PUSH1 0x3 ADD PUSH1 0xB PUSH1 0x1 ADD PUSH1 0xB PUSH1 0x2 ADD PUSH1 0xB PUSH1 0x4 ADD PUSH1 0xB PUSH1 0x6 ADD SLOAD PUSH1 0x40 MLOAD DUP7 PUSH4 0xFFFFFFFF AND PUSH1 0xE0 SHL DUP2 MSTORE PUSH1 0x4 ADD PUSH2 0x163B SWAP6 SWAP5 SWAP4 SWAP3 SWAP2 SWAP1 PUSH2 0x3BEF JUMP JUMPDEST PUSH1 0x20 PUSH1 0x40 MLOAD DUP1 DUP4 SUB DUP2 DUP7 GAS DELEGATECALL ISZERO DUP1 ISZERO PUSH2 0x1656 JUMPI RETURNDATASIZE PUSH0 DUP1 RETURNDATACOPY RETURNDATASIZE PUSH0 REVERT JUMPDEST POP POP POP POP PUSH1 0x40 MLOAD RETURNDATASIZE PUSH1 0x1F NOT PUSH1 0x1F DUP3 ADD AND DUP3 ADD DUP1 PUSH1 0x40 MSTORE POP DUP2 ADD SWAP1 PUSH2 0x167A SWAP2 SWAP1 PUSH2 0x3C86 JUMP JUMPDEST SWAP1 POP SWAP1 JUMP JUMPDEST PUSH0 DUP1 DUP6 EQ DUP1 PUSH2 0x16AE JUMPI POP PUSH32 0xFFFFFFFF00000000FFFFFFFFFFFFFFFFBCE6FAADA7179E84F3B9CAC2FC632551 DUP6 LT ISZERO JUMPDEST DUP1 PUSH2 0x16B8 JUMPI POP PUSH0 DUP5 EQ JUMPDEST DUP1 PUSH2 0x16E3 JUMPI POP PUSH32 0xFFFFFFFF00000000FFFFFFFFFFFFFFFFBCE6FAADA7179E84F3B9CAC2FC632551 DUP5 LT ISZERO JUMPDEST ISZERO PUSH2 0x16F0 JUMPI PUSH0 SWAP1 POP PUSH2 0x17F6 JUMP JUMPDEST PUSH2 0x16FA DUP4 DUP4 PUSH2 0x17FF JUMP JUMPDEST PUSH2 0x1706 JUMPI PUSH0 SWAP1 POP PUSH2 0x17F6 JUMP JUMPDEST PUSH0 PUSH2 0x1710 DUP6 PUSH2 0x19F0 JUMP JUMPDEST SWAP1 POP PUSH0 PUSH32 0xFFFFFFFF00000000FFFFFFFFFFFFFFFFBCE6FAADA7179E84F3B9CAC2FC632551 DUP1 PUSH2 0x1742 JUMPI PUSH2 0x1741 PUSH2 0x3CB1 JUMP JUMPDEST JUMPDEST DUP3 DUP10 PUSH0 SHR MULMOD SWAP1 POP PUSH0 PUSH32 0xFFFFFFFF00000000FFFFFFFFFFFFFFFFBCE6FAADA7179E84F3B9CAC2FC632551 DUP1 PUSH2 0x1779 JUMPI PUSH2 0x1778 PUSH2 0x3CB1 JUMP JUMPDEST JUMPDEST DUP4 DUP10 MULMOD SWAP1 POP PUSH0 PUSH2 0x178B DUP8 DUP8 DUP6 DUP6 PUSH2 0x1A74 JUMP JUMPDEST SWAP1 POP PUSH32 0xFFFFFFFF00000000FFFFFFFFFFFFFFFFBCE6FAADA7179E84F3B9CAC2FC632551 DUP1 PUSH2 0x17BC JUMPI PUSH2 0x17BB PUSH2 0x3CB1 JUMP JUMPDEST JUMPDEST DUP10 PUSH32 0xFFFFFFFF00000000FFFFFFFFFFFFFFFFBCE6FAADA7179E84F3B9CAC2FC632551 PUSH2 0x17E8 SWAP2 SWAP1 PUSH2 0x3CDE JUMP JUMPDEST DUP3 ADDMOD SWAP1 POP PUSH0 DUP2 EQ SWAP5 POP POP POP POP POP JUMPDEST SWAP6 SWAP5 POP POP POP POP POP JUMP JUMPDEST PUSH0 PUSH32 0xFFFFFFFF00000001000000000000000000000000FFFFFFFFFFFFFFFFFFFFFFFF DUP4 LT ISZERO DUP1 PUSH2 0x184F JUMPI POP PUSH32 0xFFFFFFFF00000001000000000000000000000000FFFFFFFFFFFFFFFFFFFFFFFF DUP3 LT ISZERO JUMPDEST DUP1 PUSH2 0x1864 JUMPI POP PUSH0 DUP4 EQ DUP1 ISZERO PUSH2 0x1863 JUMPI POP PUSH0 DUP3 EQ JUMPDEST JUMPDEST ISZERO PUSH2 0x1871 JUMPI PUSH0 SWAP1 POP PUSH2 0x19EA JUMP JUMPDEST PUSH0 PUSH32 0xFFFFFFFF00000001000000000000000000000000FFFFFFFFFFFFFFFFFFFFFFFF DUP1 PUSH2 0x18A1 JUMPI PUSH2 0x18A0 PUSH2 0x3CB1 JUMP JUMPDEST JUMPDEST DUP4 DUP5 MULMOD SWAP1 POP PUSH0 PUSH32 0xFFFFFFFF00000001000000000000000000000000FFFFFFFFFFFFFFFFFFFFFFFF DUP1 PUSH2 0x18D6 JUMPI PUSH2 0x18D5 PUSH2 0x3CB1 JUMP JUMPDEST JUMPDEST PUSH32 0xFFFFFFFF00000001000000000000000000000000FFFFFFFFFFFFFFFFFFFFFFFF DUP1 PUSH2 0x1905 JUMPI PUSH2 0x1904 PUSH2 0x3CB1 JUMP JUMPDEST JUMPDEST PUSH32 0xFFFFFFFF00000001000000000000000000000000FFFFFFFFFFFFFFFFFFFFFFFC DUP8 MULMOD PUSH32 0xFFFFFFFF00000001000000000000000000000000FFFFFFFFFFFFFFFFFFFFFFFF DUP1 PUSH2 0x1957 JUMPI PUSH2 0x1956 PUSH2 0x3CB1 JUMP JUMPDEST JUMPDEST DUP8 PUSH32 0xFFFFFFFF00000001000000000000000000000000FFFFFFFFFFFFFFFFFFFFFFFF DUP1 PUSH2 0x1987 JUMPI PUSH2 0x1986 PUSH2 0x3CB1 JUMP JUMPDEST JUMPDEST DUP10 DUP11 MULMOD MULMOD ADDMOD SWAP1 POP PUSH32 0xFFFFFFFF00000001000000000000000000000000FFFFFFFFFFFFFFFFFFFFFFFF DUP1 PUSH2 0x19BD JUMPI PUSH2 0x19BC PUSH2 0x3CB1 JUMP JUMPDEST JUMPDEST PUSH32 0x5AC635D8AA3A93E7B3EBBD55769886BC651D06B0CC53B0F63BCE3C3E27D2604B DUP3 ADDMOD SWAP1 POP DUP1 DUP3 EQ SWAP3 POP POP POP JUMPDEST SWAP3 SWAP2 POP POP JUMP JUMPDEST PUSH0 PUSH1 0x40 MLOAD PUSH1 0x20 DUP2 MSTORE PUSH1 0x20 DUP1 DUP3 ADD MSTORE PUSH1 0x20 PUSH1 0x40 DUP3 ADD MSTORE DUP3 PUSH1 0x60 DUP3 ADD MSTORE PUSH32 0xFFFFFFFF00000000FFFFFFFFFFFFFFFFBCE6FAADA7179E84F3B9CAC2FC63254F PUSH1 0x80 DUP3 ADD MSTORE PUSH32 0xFFFFFFFF00000000FFFFFFFFFFFFFFFFBCE6FAADA7179E84F3B9CAC2FC632551 PUSH1 0xA0 DUP3 ADD MSTORE PUSH1 0x20 DUP2 PUSH1 0xC0 DUP4 PUSH1 0x5 PUSH0 NOT STATICCALL PUSH2 0x1A6A JUMPI PUSH0 DUP1 REVERT JUMPDEST DUP1 MLOAD SWAP2 POP POP SWAP2 SWAP1 POP JUMP JUMPDEST PUSH0 DUP1 PUSH0 DUP1 PUSH0 PUSH1 0xFF SWAP1 POP PUSH0 DUP1 PUSH0 DUP10 EQ DUP1 ISZERO PUSH2 0x1A8D JUMPI POP PUSH0 DUP9 EQ JUMPDEST ISZERO PUSH2 0x1AA0 JUMPI PUSH0 SWAP7 POP POP POP POP POP POP POP PUSH2 0x25A5 JUMP JUMPDEST PUSH2 0x1AEC PUSH32 0x6B17D1F2E12C4247F8BCE6E563A440F277037D812DEB33A0F4A13945D898C296 PUSH32 0x4FE342E2FE1A7F9B8EE7EB4A7C0F9E162BCE33576B315ECECBB6406837BF51F5 DUP14 DUP14 PUSH2 0x25AD JUMP JUMPDEST DUP1 SWAP3 POP DUP2 SWAP4 POP POP POP PUSH0 DUP3 EQ DUP1 ISZERO PUSH2 0x1B02 JUMPI POP PUSH0 DUP2 EQ JUMPDEST ISZERO PUSH2 0x1B82 JUMPI PUSH32 0xFFFFFFFF00000000FFFFFFFFFFFFFFFFBCE6FAADA7179E84F3B9CAC2FC632551 DUP1 PUSH2 0x1B36 JUMPI PUSH2 0x1B35 PUSH2 0x3CB1 JUMP JUMPDEST JUMPDEST DUP9 PUSH32 0xFFFFFFFF00000000FFFFFFFFFFFFFFFFBCE6FAADA7179E84F3B9CAC2FC632551 SUB DUP11 ADDMOD SWAP9 POP PUSH0 SWAP8 POP PUSH0 DUP10 EQ DUP1 ISZERO PUSH2 0x1B6E JUMPI POP PUSH0 DUP9 EQ JUMPDEST ISZERO PUSH2 0x1B81 JUMPI PUSH0 SWAP7 POP POP POP POP POP POP POP PUSH2 0x25A5 JUMP JUMPDEST JUMPDEST PUSH1 0x1 DUP10 DUP5 SHR AND PUSH1 0x1 DUP10 DUP6 SHR AND PUSH1 0x1 SHL ADD JUMPDEST PUSH0 DUP2 SUB PUSH2 0x1BB7 JUMPI PUSH1 0x1 DUP5 SUB SWAP4 POP PUSH1 0x1 DUP11 DUP6 SHR AND PUSH1 0x1 DUP11 DUP7 SHR AND PUSH1 0x1 SHL ADD SWAP1 POP PUSH2 0x1B93 JUMP JUMPDEST POP PUSH1 0x1 DUP10 DUP5 SHR AND PUSH1 0x1 DUP10 DUP6 SHR AND PUSH1 0x1 SHL ADD SWAP6 POP PUSH1 0x1 DUP7 SUB PUSH2 0x1C19 JUMPI PUSH32 0x6B17D1F2E12C4247F8BCE6E563A440F277037D812DEB33A0F4A13945D898C296 SWAP7 POP PUSH32 0x4FE342E2FE1A7F9B8EE7EB4A7C0F9E162BCE33576B315ECECBB6406837BF51F5 SWAP4 POP JUMPDEST PUSH1 0x2 DUP7 SUB PUSH2 0x1C28 JUMPI DUP11 SWAP7 POP DUP10 SWAP4 POP JUMPDEST PUSH1 0x3 DUP7 SUB PUSH2 0x1C37 JUMPI DUP2 SWAP7 POP DUP1 SWAP4 POP JUMPDEST PUSH1 0x1 DUP4 SUB SWAP3 POP PUSH1 0x1 SWAP6 POP PUSH1 0x1 SWAP5 POP JUMPDEST DUP3 PUSH32 0xFFFFFFFFFFFFFFFFFFFFFFFFFFFFFFFFFFFFFFFFFFFFFFFFFFFFFFFFFFFFFFFF GT ISZERO PUSH2 0x24FD JUMPI PUSH32 0xFFFFFFFF00000001000000000000000000000000FFFFFFFFFFFFFFFFFFFFFFFF DUP5 PUSH1 0x2 MULMOD PUSH32 0xFFFFFFFF00000001000000000000000000000000FFFFFFFFFFFFFFFFFFFFFFFF DUP2 DUP3 MULMOD PUSH32 0xFFFFFFFF00000001000000000000000000000000FFFFFFFFFFFFFFFFFFFFFFFF DUP2 DUP11 MULMOD PUSH32 0xFFFFFFFF00000001000000000000000000000000FFFFFFFFFFFFFFFFFFFFFFFF DUP3 DUP5 MULMOD SWAP3 POP PUSH32 0xFFFFFFFF00000001000000000000000000000000FFFFFFFFFFFFFFFFFFFFFFFF DUP1 PUSH32 0xFFFFFFFF00000001000000000000000000000000FFFFFFFFFFFFFFFFFFFFFFFF DUP12 DUP14 ADDMOD PUSH32 0xFFFFFFFF00000001000000000000000000000000FFFFFFFFFFFFFFFFFFFFFFFF DUP13 PUSH32 0xFFFFFFFF00000001000000000000000000000000FFFFFFFFFFFFFFFFFFFFFFFF SUB DUP15 ADDMOD MULMOD PUSH1 0x3 MULMOD PUSH32 0xFFFFFFFF00000001000000000000000000000000FFFFFFFFFFFFFFFFFFFFFFFF DUP10 DUP6 MULMOD SWAP9 POP PUSH32 0xFFFFFFFF00000001000000000000000000000000FFFFFFFFFFFFFFFFFFFFFFFF DUP11 DUP5 MULMOD SWAP10 POP PUSH32 0xFFFFFFFF00000001000000000000000000000000FFFFFFFFFFFFFFFFFFFFFFFF DUP1 DUP4 PUSH32 0xFFFFFFFF00000001000000000000000000000000FFFFFFFFFFFFFFFFFFFFFFFD MULMOD PUSH32 0xFFFFFFFF00000001000000000000000000000000FFFFFFFFFFFFFFFFFFFFFFFF DUP4 DUP5 MULMOD ADDMOD SWAP11 POP PUSH32 0xFFFFFFFF00000001000000000000000000000000FFFFFFFFFFFFFFFFFFFFFFFF DUP1 DUP4 PUSH32 0xFFFFFFFF00000001000000000000000000000000FFFFFFFFFFFFFFFFFFFFFFFF SUB DUP14 ADDMOD DUP3 MULMOD SWAP3 POP PUSH32 0xFFFFFFFF00000001000000000000000000000000FFFFFFFFFFFFFFFFFFFFFFFF DUP4 PUSH32 0xFFFFFFFF00000001000000000000000000000000FFFFFFFFFFFFFFFFFFFFFFFF DUP11 DUP8 MULMOD ADDMOD SWAP8 POP PUSH1 0x1 DUP14 DUP9 SHR AND PUSH1 0x1 DUP14 DUP10 SHR AND PUSH1 0x1 SHL ADD SWAP1 POP DUP1 PUSH2 0x1F22 JUMPI DUP8 PUSH32 0xFFFFFFFF00000001000000000000000000000000FFFFFFFFFFFFFFFFFFFFFFFF SUB SWAP8 POP POP POP POP POP PUSH2 0x24F2 JUMP JUMPDEST PUSH1 0x1 DUP2 SUB PUSH2 0x1F71 JUMPI PUSH32 0x6B17D1F2E12C4247F8BCE6E563A440F277037D812DEB33A0F4A13945D898C296 SWAP4 POP PUSH32 0x4FE342E2FE1A7F9B8EE7EB4A7C0F9E162BCE33576B315ECECBB6406837BF51F5 SWAP3 POP JUMPDEST PUSH1 0x2 DUP2 SUB PUSH2 0x1F80 JUMPI DUP15 SWAP4 POP DUP14 SWAP3 POP JUMPDEST PUSH1 0x3 DUP2 SUB PUSH2 0x1F8F JUMPI DUP6 SWAP4 POP DUP5 SWAP3 POP JUMPDEST DUP10 PUSH2 0x1FAB JUMPI DUP4 SWAP11 POP DUP3 SWAP8 POP PUSH1 0x1 SWAP10 POP PUSH1 0x1 SWAP9 POP POP POP POP POP PUSH2 0x24F2 JUMP JUMPDEST PUSH32 0xFFFFFFFF00000001000000000000000000000000FFFFFFFFFFFFFFFFFFFFFFFF DUP9 PUSH32 0xFFFFFFFF00000001000000000000000000000000FFFFFFFFFFFFFFFFFFFFFFFF DUP12 DUP7 MULMOD ADDMOD PUSH32 0xFFFFFFFF00000001000000000000000000000000FFFFFFFFFFFFFFFFFFFFFFFF DUP13 PUSH32 0xFFFFFFFF00000001000000000000000000000000FFFFFFFFFFFFFFFFFFFFFFFF SUB PUSH32 0xFFFFFFFF00000001000000000000000000000000FFFFFFFFFFFFFFFFFFFFFFFF DUP14 DUP9 MULMOD ADDMOD SWAP4 POP DUP1 PUSH2 0x22EB JUMPI DUP4 PUSH2 0x22EA JUMPI PUSH32 0xFFFFFFFF00000001000000000000000000000000FFFFFFFFFFFFFFFFFFFFFFFF DUP10 PUSH32 0xFFFFFFFF00000001000000000000000000000000FFFFFFFFFFFFFFFFFFFFFFFD MULMOD SWAP5 POP PUSH32 0xFFFFFFFF00000001000000000000000000000000FFFFFFFFFFFFFFFFFFFFFFFF DUP6 DUP7 MULMOD SWAP4 POP PUSH32 0xFFFFFFFF00000001000000000000000000000000FFFFFFFFFFFFFFFFFFFFFFFF DUP5 DUP14 MULMOD SWAP3 POP PUSH32 0xFFFFFFFF00000001000000000000000000000000FFFFFFFFFFFFFFFFFFFFFFFF DUP5 DUP7 MULMOD SWAP5 POP PUSH32 0xFFFFFFFF00000001000000000000000000000000FFFFFFFFFFFFFFFFFFFFFFFF DUP1 DUP13 PUSH32 0xFFFFFFFF00000001000000000000000000000000FFFFFFFFFFFFFFFFFFFFFFFF SUB DUP15 ADDMOD PUSH32 0xFFFFFFFF00000001000000000000000000000000FFFFFFFFFFFFFFFFFFFFFFFF DUP14 DUP16 ADDMOD MULMOD SWAP1 POP PUSH32 0xFFFFFFFF00000001000000000000000000000000FFFFFFFFFFFFFFFFFFFFFFFF DUP2 PUSH1 0x3 MULMOD SWAP2 POP PUSH32 0xFFFFFFFF00000001000000000000000000000000FFFFFFFFFFFFFFFFFFFFFFFF DUP11 DUP7 MULMOD SWAP10 POP PUSH32 0xFFFFFFFF00000001000000000000000000000000FFFFFFFFFFFFFFFFFFFFFFFF DUP12 DUP6 MULMOD SWAP11 POP PUSH32 0xFFFFFFFF00000001000000000000000000000000FFFFFFFFFFFFFFFFFFFFFFFF DUP1 DUP5 PUSH32 0xFFFFFFFF00000001000000000000000000000000FFFFFFFFFFFFFFFFFFFFFFFD MULMOD PUSH32 0xFFFFFFFF00000001000000000000000000000000FFFFFFFFFFFFFFFFFFFFFFFF DUP5 DUP6 MULMOD ADDMOD SWAP12 POP PUSH32 0xFFFFFFFF00000001000000000000000000000000FFFFFFFFFFFFFFFFFFFFFFFF DUP1 DUP14 PUSH32 0xFFFFFFFF00000001000000000000000000000000FFFFFFFFFFFFFFFFFFFFFFFF SUB DUP6 ADDMOD DUP4 MULMOD SWAP4 POP PUSH32 0xFFFFFFFF00000001000000000000000000000000FFFFFFFFFFFFFFFFFFFFFFFF DUP1 DUP11 DUP8 MULMOD DUP6 ADDMOD SWAP9 POP POP POP POP POP POP PUSH2 0x24F2 JUMP JUMPDEST JUMPDEST PUSH32 0xFFFFFFFF00000001000000000000000000000000FFFFFFFFFFFFFFFFFFFFFFFF DUP5 DUP6 MULMOD SWAP2 POP PUSH32 0xFFFFFFFF00000001000000000000000000000000FFFFFFFFFFFFFFFFFFFFFFFF DUP5 DUP4 MULMOD PUSH32 0xFFFFFFFF00000001000000000000000000000000FFFFFFFFFFFFFFFFFFFFFFFF DUP4 DUP14 MULMOD SWAP12 POP PUSH32 0xFFFFFFFF00000001000000000000000000000000FFFFFFFFFFFFFFFFFFFFFFFF DUP2 DUP13 MULMOD SWAP11 POP PUSH32 0xFFFFFFFF00000001000000000000000000000000FFFFFFFFFFFFFFFFFFFFFFFF DUP4 DUP15 MULMOD PUSH32 0xFFFFFFFF00000001000000000000000000000000FFFFFFFFFFFFFFFFFFFFFFFF DUP1 DUP3 PUSH32 0xFFFFFFFF00000001000000000000000000000000FFFFFFFFFFFFFFFFFFFFFFFD MULMOD PUSH32 0xFFFFFFFF00000001000000000000000000000000FFFFFFFFFFFFFFFFFFFFFFFF DUP5 PUSH32 0xFFFFFFFF00000001000000000000000000000000FFFFFFFFFFFFFFFFFFFFFFFF SUB PUSH32 0xFFFFFFFF00000001000000000000000000000000FFFFFFFFFFFFFFFFFFFFFFFF DUP8 DUP9 MULMOD ADDMOD ADDMOD SWAP4 POP PUSH32 0xFFFFFFFF00000001000000000000000000000000FFFFFFFFFFFFFFFFFFFFFFFF DUP1 DUP4 DUP14 MULMOD PUSH32 0xFFFFFFFF00000001000000000000000000000000FFFFFFFFFFFFFFFFFFFFFFFF DUP6 PUSH32 0xFFFFFFFF00000001000000000000000000000000FFFFFFFFFFFFFFFFFFFFFFFF DUP9 PUSH32 0xFFFFFFFF00000001000000000000000000000000FFFFFFFFFFFFFFFFFFFFFFFF SUB DUP7 ADDMOD MULMOD ADDMOD SWAP11 POP DUP4 SWAP14 POP POP POP POP POP POP POP POP JUMPDEST PUSH1 0x1 DUP4 SUB SWAP3 POP PUSH2 0x1C46 JUMP JUMPDEST PUSH1 0x40 MLOAD DUP7 PUSH1 0x60 DUP3 ADD MSTORE PUSH1 0x20 DUP2 MSTORE PUSH1 0x20 DUP1 DUP3 ADD MSTORE PUSH1 0x20 PUSH1 0x40 DUP3 ADD MSTORE PUSH32 0xFFFFFFFF00000001000000000000000000000000FFFFFFFFFFFFFFFFFFFFFFFD PUSH1 0x80 DUP3 ADD MSTORE PUSH32 0xFFFFFFFF00000001000000000000000000000000FFFFFFFFFFFFFFFFFFFFFFFF PUSH1 0xA0 DUP3 ADD MSTORE PUSH1 0x20 DUP2 PUSH1 0xC0 DUP4 PUSH1 0x5 PUSH0 NOT STATICCALL PUSH2 0x2576 JUMPI PUSH0 DUP1 REVERT JUMPDEST PUSH32 0xFFFFFFFF00000001000000000000000000000000FFFFFFFFFFFFFFFFFFFFFFFF DUP2 MLOAD DUP10 MULMOD SWAP8 POP POP POP POP POP POP POP POP JUMPDEST SWAP5 SWAP4 POP POP POP POP JUMP JUMPDEST PUSH0 DUP1 PUSH0 DUP1 PUSH2 0x25BB DUP9 DUP9 PUSH2 0x265A JUMP JUMPDEST ISZERO PUSH2 0x25CD JUMPI DUP6 DUP6 SWAP4 POP SWAP4 POP POP POP PUSH2 0x2651 JUMP JUMPDEST PUSH2 0x25D7 DUP7 DUP7 PUSH2 0x265A JUMP JUMPDEST ISZERO PUSH2 0x25E9 JUMPI DUP8 DUP8 SWAP4 POP SWAP4 POP POP POP PUSH2 0x2651 JUMP JUMPDEST DUP6 DUP9 EQ DUP1 ISZERO PUSH2 0x25F7 JUMPI POP DUP5 DUP8 EQ JUMPDEST ISZERO PUSH2 0x261E JUMPI PUSH2 0x2609 DUP9 DUP9 PUSH1 0x1 DUP1 PUSH2 0x2666 JUMP JUMPDEST DUP1 SWAP5 POP DUP2 SWAP6 POP DUP3 SWAP11 POP DUP4 SWAP12 POP POP POP POP POP PUSH2 0x263E JUMP JUMPDEST PUSH2 0x262D DUP9 DUP9 PUSH1 0x1 DUP1 DUP11 DUP11 PUSH2 0x28EE JUMP JUMPDEST DUP1 SWAP5 POP DUP2 SWAP6 POP DUP3 SWAP11 POP DUP4 SWAP12 POP POP POP POP POP JUMPDEST PUSH2 0x264A DUP9 DUP9 DUP5 DUP5 PUSH2 0x2BF2 JUMP JUMPDEST SWAP4 POP SWAP4 POP POP POP JUMPDEST SWAP5 POP SWAP5 SWAP3 POP POP POP JUMP JUMPDEST PUSH0 DUP1 DUP3 EQ SWAP1 POP SWAP3 SWAP2 POP POP JUMP JUMPDEST PUSH0 DUP1 PUSH0 DUP1 PUSH32 0xFFFFFFFF00000001000000000000000000000000FFFFFFFFFFFFFFFFFFFFFFFF DUP8 PUSH1 0x2 MULMOD SWAP4 POP PUSH32 0xFFFFFFFF00000001000000000000000000000000FFFFFFFFFFFFFFFFFFFFFFFF DUP5 DUP6 MULMOD SWAP2 POP PUSH32 0xFFFFFFFF00000001000000000000000000000000FFFFFFFFFFFFFFFFFFFFFFFF DUP3 DUP10 MULMOD SWAP1 POP PUSH32 0xFFFFFFFF00000001000000000000000000000000FFFFFFFFFFFFFFFFFFFFFFFF DUP3 DUP6 MULMOD SWAP3 POP PUSH32 0xFFFFFFFF00000001000000000000000000000000FFFFFFFFFFFFFFFFFFFFFFFF DUP7 DUP4 MULMOD SWAP2 POP PUSH32 0xFFFFFFFF00000001000000000000000000000000FFFFFFFFFFFFFFFFFFFFFFFF DUP1 PUSH32 0xFFFFFFFF00000001000000000000000000000000FFFFFFFFFFFFFFFFFFFFFFFF DUP9 DUP12 ADDMOD PUSH32 0xFFFFFFFF00000001000000000000000000000000FFFFFFFFFFFFFFFFFFFFFFFF DUP10 PUSH32 0xFFFFFFFF00000001000000000000000000000000FFFFFFFFFFFFFFFFFFFFFFFF SUB DUP13 ADDMOD MULMOD PUSH1 0x3 MULMOD SWAP6 POP PUSH32 0xFFFFFFFF00000001000000000000000000000000FFFFFFFFFFFFFFFFFFFFFFFF DUP1 DUP3 PUSH32 0xFFFFFFFF00000001000000000000000000000000FFFFFFFFFFFFFFFFFFFFFFFD MULMOD PUSH32 0xFFFFFFFF00000001000000000000000000000000FFFFFFFFFFFFFFFFFFFFFFFF DUP9 DUP10 MULMOD ADDMOD SWAP4 POP PUSH32 0xFFFFFFFF00000001000000000000000000000000FFFFFFFFFFFFFFFFFFFFFFFF DUP1 DUP6 PUSH32 0xFFFFFFFF00000001000000000000000000000000FFFFFFFFFFFFFFFFFFFFFFFF SUB DUP4 ADDMOD DUP8 MULMOD SWAP8 POP PUSH32 0xFFFFFFFF00000001000000000000000000000000FFFFFFFFFFFFFFFFFFFFFFFF DUP6 DUP5 MULMOD SWAP1 POP PUSH32 0xFFFFFFFF00000001000000000000000000000000FFFFFFFFFFFFFFFFFFFFFFFF DUP1 DUP9 DUP6 MULMOD PUSH32 0xFFFFFFFF00000001000000000000000000000000FFFFFFFFFFFFFFFFFFFFFFFF SUB DUP10 ADDMOD SWAP3 POP SWAP5 POP SWAP5 POP SWAP5 POP SWAP5 SWAP1 POP JUMP JUMPDEST PUSH0 DUP1 PUSH0 DUP1 PUSH0 DUP10 SUB PUSH2 0x290B JUMPI DUP6 DUP6 PUSH1 0x1 DUP1 SWAP4 POP SWAP4 POP SWAP4 POP SWAP4 POP PUSH2 0x2BE5 JUMP JUMPDEST DUP9 PUSH32 0xFFFFFFFF00000001000000000000000000000000FFFFFFFFFFFFFFFFFFFFFFFF SUB SWAP9 POP PUSH32 0xFFFFFFFF00000001000000000000000000000000FFFFFFFFFFFFFFFFFFFFFFFF DUP10 PUSH32 0xFFFFFFFF00000001000000000000000000000000FFFFFFFFFFFFFFFFFFFFFFFF DUP10 DUP9 MULMOD ADDMOD SWAP5 POP PUSH32 0xFFFFFFFF00000001000000000000000000000000FFFFFFFFFFFFFFFFFFFFFFFF DUP11 PUSH32 0xFFFFFFFF00000001000000000000000000000000FFFFFFFFFFFFFFFFFFFFFFFF SUB PUSH32 0xFFFFFFFF00000001000000000000000000000000FFFFFFFFFFFFFFFFFFFFFFFF DUP11 DUP10 MULMOD ADDMOD SWAP6 POP PUSH32 0xFFFFFFFF00000001000000000000000000000000FFFFFFFFFFFFFFFFFFFFFFFF DUP7 DUP8 MULMOD SWAP4 POP PUSH32 0xFFFFFFFF00000001000000000000000000000000FFFFFFFFFFFFFFFFFFFFFFFF DUP7 DUP6 MULMOD SWAP3 POP PUSH32 0xFFFFFFFF00000001000000000000000000000000FFFFFFFFFFFFFFFFFFFFFFFF DUP5 DUP10 MULMOD SWAP2 POP PUSH32 0xFFFFFFFF00000001000000000000000000000000FFFFFFFFFFFFFFFFFFFFFFFF DUP4 DUP9 MULMOD SWAP1 POP PUSH32 0xFFFFFFFF00000001000000000000000000000000FFFFFFFFFFFFFFFFFFFFFFFF DUP5 DUP12 MULMOD SWAP8 POP PUSH32 0xFFFFFFFF00000001000000000000000000000000FFFFFFFFFFFFFFFFFFFFFFFF DUP1 DUP10 PUSH32 0xFFFFFFFF00000001000000000000000000000000FFFFFFFFFFFFFFFFFFFFFFFD MULMOD PUSH32 0xFFFFFFFF00000001000000000000000000000000FFFFFFFFFFFFFFFFFFFFFFFF DUP6 PUSH32 0xFFFFFFFF00000001000000000000000000000000FFFFFFFFFFFFFFFFFFFFFFFF SUB PUSH32 0xFFFFFFFF00000001000000000000000000000000FFFFFFFFFFFFFFFFFFFFFFFF DUP10 DUP11 MULMOD ADDMOD ADDMOD SWAP4 POP PUSH32 0xFFFFFFFF00000001000000000000000000000000FFFFFFFFFFFFFFFFFFFFFFFF DUP1 DUP5 DUP12 MULMOD PUSH32 0xFFFFFFFF00000001000000000000000000000000FFFFFFFFFFFFFFFFFFFFFFFF DUP8 PUSH32 0xFFFFFFFF00000001000000000000000000000000FFFFFFFFFFFFFFFFFFFFFFFF DUP9 PUSH32 0xFFFFFFFF00000001000000000000000000000000FFFFFFFFFFFFFFFFFFFFFFFF SUB DUP14 ADDMOD MULMOD ADDMOD SWAP3 POP JUMPDEST SWAP7 POP SWAP7 POP SWAP7 POP SWAP7 SWAP3 POP POP POP JUMP JUMPDEST PUSH0 DUP1 PUSH0 PUSH2 0x2BFE DUP5 PUSH2 0x2CDC JUMP JUMPDEST SWAP1 POP PUSH32 0xFFFFFFFF00000001000000000000000000000000FFFFFFFFFFFFFFFFFFFFFFFF DUP1 PUSH2 0x2C2F JUMPI PUSH2 0x2C2E PUSH2 0x3CB1 JUMP JUMPDEST JUMPDEST DUP2 DUP8 MULMOD SWAP2 POP PUSH0 PUSH32 0xFFFFFFFF00000001000000000000000000000000FFFFFFFFFFFFFFFFFFFFFFFF DUP1 PUSH2 0x2C64 JUMPI PUSH2 0x2C63 PUSH2 0x3CB1 JUMP JUMPDEST JUMPDEST DUP3 DUP8 MULMOD SWAP1 POP PUSH32 0xFFFFFFFF00000001000000000000000000000000FFFFFFFFFFFFFFFFFFFFFFFF DUP1 PUSH2 0x2C98 JUMPI PUSH2 0x2C97 PUSH2 0x3CB1 JUMP JUMPDEST JUMPDEST DUP2 DUP3 MULMOD SWAP2 POP PUSH32 0xFFFFFFFF00000001000000000000000000000000FFFFFFFFFFFFFFFFFFFFFFFF DUP1 PUSH2 0x2CCC JUMPI PUSH2 0x2CCB PUSH2 0x3CB1 JUMP JUMPDEST JUMPDEST DUP3 DUP10 MULMOD SWAP4 POP POP POP SWAP5 POP SWAP5 SWAP3 POP POP POP JUMP JUMPDEST PUSH0 PUSH1 0x40 MLOAD PUSH1 0x20 DUP2 MSTORE PUSH1 0x20 DUP1 DUP3 ADD MSTORE PUSH1 0x20 PUSH1 0x40 DUP3 ADD MSTORE DUP3 PUSH1 0x60 DUP3 ADD MSTORE PUSH32 0xFFFFFFFF00000001000000000000000000000000FFFFFFFFFFFFFFFFFFFFFFFD PUSH1 0x80 DUP3 ADD MSTORE PUSH32 0xFFFFFFFF00000001000000000000000000000000FFFFFFFFFFFFFFFFFFFFFFFF PUSH1 0xA0 DUP3 ADD MSTORE PUSH1 0x20 DUP2 PUSH1 0xC0 DUP4 PUSH1 0x5 PUSH0 NOT STATICCALL PUSH2 0x2D56 JUMPI PUSH0 DUP1 REVERT JUMPDEST DUP1 MLOAD SWAP2 POP POP SWAP2 SWAP1 POP JUMP JUMPDEST PUSH0 DUP2 SWAP1 POP SWAP2 SWAP1 POP JUMP JUMPDEST PUSH2 0x2D72 DUP2 PUSH2 0x2D60 JUMP JUMPDEST DUP3 MSTORE POP POP JUMP JUMPDEST PUSH0 PUSH1 0x20 DUP3 ADD SWAP1 POP PUSH2 0x2D8B PUSH0 DUP4 ADD DUP5 PUSH2 0x2D69 JUMP JUMPDEST SWAP3 SWAP2 POP POP JUMP JUMPDEST PUSH0 DUP2 MLOAD SWAP1 POP SWAP2 SWAP1 POP JUMP JUMPDEST PUSH0 DUP3 DUP3 MSTORE PUSH1 0x20 DUP3 ADD SWAP1 POP SWAP3 SWAP2 POP POP JUMP JUMPDEST DUP3 DUP2 DUP4 MCOPY PUSH0 DUP4 DUP4 ADD MSTORE POP POP POP JUMP JUMPDEST PUSH0 PUSH1 0x1F NOT PUSH1 0x1F DUP4 ADD AND SWAP1 POP SWAP2 SWAP1 POP JUMP JUMPDEST PUSH0 PUSH2 0x2DD3 DUP3 PUSH2 0x2D91 JUMP JUMPDEST PUSH2 0x2DDD DUP2 DUP6 PUSH2 0x2D9B JUMP JUMPDEST SWAP4 POP PUSH2 0x2DED DUP2 DUP6 PUSH1 0x20 DUP7 ADD PUSH2 0x2DAB JUMP JUMPDEST PUSH2 0x2DF6 DUP2 PUSH2 0x2DB9 JUMP JUMPDEST DUP5 ADD SWAP2 POP POP SWAP3 SWAP2 POP POP JUMP JUMPDEST PUSH0 PUSH1 0x20 DUP3 ADD SWAP1 POP DUP2 DUP2 SUB PUSH0 DUP4 ADD MSTORE PUSH2 0x2E19 DUP2 DUP5 PUSH2 0x2DC9 JUMP JUMPDEST SWAP1 POP SWAP3 SWAP2 POP POP JUMP JUMPDEST PUSH0 PUSH1 0xE0 DUP3 ADD SWAP1 POP DUP2 DUP2 SUB PUSH0 DUP4 ADD MSTORE PUSH2 0x2E39 DUP2 DUP11 PUSH2 0x2DC9 JUMP JUMPDEST SWAP1 POP DUP2 DUP2 SUB PUSH1 0x20 DUP4 ADD MSTORE PUSH2 0x2E4D DUP2 DUP10 PUSH2 0x2DC9 JUMP JUMPDEST SWAP1 POP DUP2 DUP2 SUB PUSH1 0x40 DUP4 ADD MSTORE PUSH2 0x2E61 DUP2 DUP9 PUSH2 0x2DC9 JUMP JUMPDEST SWAP1 POP DUP2 DUP2 SUB PUSH1 0x60 DUP4 ADD MSTORE PUSH2 0x2E75 DUP2 DUP8 PUSH2 0x2DC9 JUMP JUMPDEST SWAP1 POP DUP2 DUP2 SUB PUSH1 0x80 DUP4 ADD MSTORE PUSH2 0x2E89 DUP2 DUP7 PUSH2 0x2DC9 JUMP JUMPDEST SWAP1 POP PUSH2 0x2E98 PUSH1 0xA0 DUP4 ADD DUP6 PUSH2 0x2D69 JUMP JUMPDEST PUSH2 0x2EA5 PUSH1 0xC0 DUP4 ADD DUP5 PUSH2 0x2D69 JUMP JUMPDEST SWAP9 SWAP8 POP POP POP POP POP POP POP POP JUMP JUMPDEST PUSH0 PUSH1 0xA0 DUP3 ADD SWAP1 POP PUSH2 0x2EC4 PUSH0 DUP4 ADD DUP9 PUSH2 0x2D69 JUMP JUMPDEST PUSH2 0x2ED1 PUSH1 0x20 DUP4 ADD DUP8 PUSH2 0x2D69 JUMP JUMPDEST DUP2 DUP2 SUB PUSH1 0x40 DUP4 ADD MSTORE PUSH2 0x2EE3 DUP2 DUP7 PUSH2 0x2DC9 JUMP JUMPDEST SWAP1 POP DUP2 DUP2 SUB PUSH1 0x60 DUP4 ADD MSTORE PUSH2 0x2EF7 DUP2 DUP6 PUSH2 0x2DC9 JUMP JUMPDEST SWAP1 POP DUP2 DUP2 SUB PUSH1 0x80 DUP4 ADD MSTORE PUSH2 0x2F0B DUP2 DUP5 PUSH2 0x2DC9 JUMP JUMPDEST SWAP1 POP SWAP7 SWAP6 POP POP POP POP POP POP JUMP JUMPDEST PUSH0 PUSH1 0x40 MLOAD SWAP1 POP SWAP1 JUMP JUMPDEST PUSH0 DUP1 REVERT JUMPDEST PUSH0 DUP1 REVERT JUMPDEST PUSH0 DUP1 REVERT JUMPDEST PUSH0 DUP1 REVERT JUMPDEST PUSH32 0x4E487B7100000000000000000000000000000000000000000000000000000000 PUSH0 MSTORE PUSH1 0x41 PUSH1 0x4 MSTORE PUSH1 0x24 PUSH0 REVERT JUMPDEST PUSH2 0x2F66 DUP3 PUSH2 0x2DB9 JUMP JUMPDEST DUP2 ADD DUP2 DUP2 LT PUSH8 0xFFFFFFFFFFFFFFFF DUP3 GT OR ISZERO PUSH2 0x2F85 JUMPI PUSH2 0x2F84 PUSH2 0x2F30 JUMP JUMPDEST JUMPDEST DUP1 PUSH1 0x40 MSTORE POP POP POP JUMP JUMPDEST PUSH0 PUSH2 0x2F97 PUSH2 0x2F17 JUMP JUMPDEST SWAP1 POP PUSH2 0x2FA3 DUP3 DUP3 PUSH2 0x2F5D JUMP JUMPDEST SWAP2 SWAP1 POP JUMP JUMPDEST PUSH0 PUSH8 0xFFFFFFFFFFFFFFFF DUP3 GT ISZERO PUSH2 0x2FC2 JUMPI PUSH2 0x2FC1 PUSH2 0x2F30 JUMP JUMPDEST JUMPDEST PUSH2 0x2FCB DUP3 PUSH2 0x2DB9 JUMP JUMPDEST SWAP1 POP PUSH1 0x20 DUP2 ADD SWAP1 POP SWAP2 SWAP1 POP JUMP JUMPDEST DUP3 DUP2 DUP4 CALLDATACOPY PUSH0 DUP4 DUP4 ADD MSTORE POP POP POP JUMP JUMPDEST PUSH0 PUSH2 0x2FF8 PUSH2 0x2FF3 DUP5 PUSH2 0x2FA8 JUMP JUMPDEST PUSH2 0x2F8E JUMP JUMPDEST SWAP1 POP DUP3 DUP2 MSTORE PUSH1 0x20 DUP2 ADD DUP5 DUP5 DUP5 ADD GT ISZERO PUSH2 0x3014 JUMPI PUSH2 0x3013 PUSH2 0x2F2C JUMP JUMPDEST JUMPDEST PUSH2 0x301F DUP5 DUP3 DUP6 PUSH2 0x2FD8 JUMP JUMPDEST POP SWAP4 SWAP3 POP POP POP JUMP JUMPDEST PUSH0 DUP3 PUSH1 0x1F DUP4 ADD SLT PUSH2 0x303B JUMPI PUSH2 0x303A PUSH2 0x2F28 JUMP JUMPDEST JUMPDEST DUP2 CALLDATALOAD PUSH2 0x304B DUP5 DUP3 PUSH1 0x20 DUP7 ADD PUSH2 0x2FE6 JUMP JUMPDEST SWAP2 POP POP SWAP3 SWAP2 POP POP JUMP JUMPDEST PUSH0 PUSH1 0x20 DUP3 DUP5 SUB SLT ISZERO PUSH2 0x3069 JUMPI PUSH2 0x3068 PUSH2 0x2F20 JUMP JUMPDEST JUMPDEST PUSH0 DUP3 ADD CALLDATALOAD PUSH8 0xFFFFFFFFFFFFFFFF DUP2 GT ISZERO PUSH2 0x3086 JUMPI PUSH2 0x3085 PUSH2 0x2F24 JUMP JUMPDEST JUMPDEST PUSH2 0x3092 DUP5 DUP3 DUP6 ADD PUSH2 0x3027 JUMP JUMPDEST SWAP2 POP POP SWAP3 SWAP2 POP POP JUMP JUMPDEST PUSH0 DUP2 ISZERO ISZERO SWAP1 POP SWAP2 SWAP1 POP JUMP JUMPDEST PUSH2 0x30AF DUP2 PUSH2 0x309B JUMP JUMPDEST DUP3 MSTORE POP POP JUMP JUMPDEST PUSH0 PUSH1 0x20 DUP3 ADD SWAP1 POP PUSH2 0x30C8 PUSH0 DUP4 ADD DUP5 PUSH2 0x30A6 JUMP JUMPDEST SWAP3 SWAP2 POP POP JUMP JUMPDEST PUSH2 0x30D7 DUP2 PUSH2 0x2D60 JUMP JUMPDEST DUP2 EQ PUSH2 0x30E1 JUMPI PUSH0 DUP1 REVERT JUMPDEST POP JUMP JUMPDEST PUSH0 DUP2 CALLDATALOAD SWAP1 POP PUSH2 0x30F2 DUP2 PUSH2 0x30CE JUMP JUMPDEST SWAP3 SWAP2 POP POP JUMP JUMPDEST PUSH0 DUP1 PUSH0 DUP1 PUSH0 PUSH1 0xA0 DUP7 DUP9 SUB SLT ISZERO PUSH2 0x3111 JUMPI PUSH2 0x3110 PUSH2 0x2F20 JUMP JUMPDEST JUMPDEST PUSH0 DUP7 ADD CALLDATALOAD PUSH8 0xFFFFFFFFFFFFFFFF DUP2 GT ISZERO PUSH2 0x312E JUMPI PUSH2 0x312D PUSH2 0x2F24 JUMP JUMPDEST JUMPDEST PUSH2 0x313A DUP9 DUP3 DUP10 ADD PUSH2 0x3027 JUMP JUMPDEST SWAP6 POP POP PUSH1 0x20 DUP7 ADD CALLDATALOAD PUSH8 0xFFFFFFFFFFFFFFFF DUP2 GT ISZERO PUSH2 0x315B JUMPI PUSH2 0x315A PUSH2 0x2F24 JUMP JUMPDEST JUMPDEST PUSH2 0x3167 DUP9 DUP3 DUP10 ADD PUSH2 0x3027 JUMP JUMPDEST SWAP5 POP POP PUSH1 0x40 DUP7 ADD CALLDATALOAD PUSH8 0xFFFFFFFFFFFFFFFF DUP2 GT ISZERO PUSH2 0x3188 JUMPI PUSH2 0x3187 PUSH2 0x2F24 JUMP JUMPDEST JUMPDEST PUSH2 0x3194 DUP9 DUP3 DUP10 ADD PUSH2 0x3027 JUMP JUMPDEST SWAP4 POP POP PUSH1 0x60 PUSH2 0x31A5 DUP9 DUP3 DUP10 ADD PUSH2 0x30E4 JUMP JUMPDEST SWAP3 POP POP PUSH1 0x80 PUSH2 0x31B6 DUP9 DUP3 DUP10 ADD PUSH2 0x30E4 JUMP JUMPDEST SWAP2 POP POP SWAP3 SWAP6 POP SWAP3 SWAP6 SWAP1 SWAP4 POP JUMP JUMPDEST PUSH0 DUP1 PUSH0 PUSH1 0x60 DUP5 DUP7 SUB SLT ISZERO PUSH2 0x31DA JUMPI PUSH2 0x31D9 PUSH2 0x2F20 JUMP JUMPDEST JUMPDEST PUSH0 DUP5 ADD CALLDATALOAD PUSH8 0xFFFFFFFFFFFFFFFF DUP2 GT ISZERO PUSH2 0x31F7 JUMPI PUSH2 0x31F6 PUSH2 0x2F24 JUMP JUMPDEST JUMPDEST PUSH2 0x3203 DUP7 DUP3 DUP8 ADD PUSH2 0x3027 JUMP JUMPDEST SWAP4 POP POP PUSH1 0x20 DUP5 ADD CALLDATALOAD PUSH8 0xFFFFFFFFFFFFFFFF DUP2 GT ISZERO PUSH2 0x3224 JUMPI PUSH2 0x3223 PUSH2 0x2F24 JUMP JUMPDEST JUMPDEST PUSH2 0x3230 DUP7 DUP3 DUP8 ADD PUSH2 0x3027 JUMP JUMPDEST SWAP3 POP POP PUSH1 0x40 DUP5 ADD CALLDATALOAD PUSH8 0xFFFFFFFFFFFFFFFF DUP2 GT ISZERO PUSH2 0x3251 JUMPI PUSH2 0x3250 PUSH2 0x2F24 JUMP JUMPDEST JUMPDEST PUSH2 0x325D DUP7 DUP3 DUP8 ADD PUSH2 0x3027 JUMP JUMPDEST SWAP2 POP POP SWAP3 POP SWAP3 POP SWAP3 JUMP JUMPDEST PUSH0 PUSH20 0xFFFFFFFFFFFFFFFFFFFFFFFFFFFFFFFFFFFFFFFF DUP3 AND SWAP1 POP SWAP2 SWAP1 POP JUMP JUMPDEST PUSH0 PUSH2 0x3290 DUP3 PUSH2 0x3267 JUMP JUMPDEST SWAP1 POP SWAP2 SWAP1 POP JUMP JUMPDEST PUSH2 0x32A0 DUP2 PUSH2 0x3286 JUMP JUMPDEST DUP3 MSTORE POP POP JUMP JUMPDEST PUSH0 PUSH1 0xE0 DUP3 ADD SWAP1 POP PUSH2 0x32B9 PUSH0 DUP4 ADD DUP11 PUSH2 0x3297 JUMP JUMPDEST PUSH2 0x32C6 PUSH1 0x20 DUP4 ADD DUP10 PUSH2 0x3297 JUMP JUMPDEST PUSH2 0x32D3 PUSH1 0x40 DUP4 ADD DUP9 PUSH2 0x2D69 JUMP JUMPDEST PUSH2 0x32E0 PUSH1 0x60 DUP4 ADD DUP8 PUSH2 0x2D69 JUMP JUMPDEST PUSH2 0x32ED PUSH1 0x80 DUP4 ADD DUP7 PUSH2 0x2D69 JUMP JUMPDEST PUSH2 0x32FA PUSH1 0xA0 DUP4 ADD DUP6 PUSH2 0x2D69 JUMP JUMPDEST PUSH2 0x3307 PUSH1 0xC0 DUP4 ADD DUP5 PUSH2 0x30A6 JUMP JUMPDEST SWAP9 SWAP8 POP POP POP POP POP POP POP POP JUMP JUMPDEST PUSH0 PUSH1 0x20 DUP3 ADD SWAP1 POP PUSH2 0x3326 PUSH0 DUP4 ADD DUP5 PUSH2 0x3297 JUMP JUMPDEST SWAP3 SWAP2 POP POP JUMP JUMPDEST PUSH0 DUP2 SWAP1 POP SWAP2 SWAP1 POP JUMP JUMPDEST PUSH2 0x333E DUP2 PUSH2 0x332C JUMP JUMPDEST DUP2 EQ PUSH2 0x3348 JUMPI PUSH0 DUP1 REVERT JUMPDEST POP JUMP JUMPDEST PUSH0 DUP2 CALLDATALOAD SWAP1 POP PUSH2 0x3359 DUP2 PUSH2 0x3335 JUMP JUMPDEST SWAP3 SWAP2 POP POP JUMP JUMPDEST PUSH0 DUP1 PUSH0 DUP1 PUSH0 PUSH1 0xA0 DUP7 DUP9 SUB SLT ISZERO PUSH2 0x3378 JUMPI PUSH2 0x3377 PUSH2 0x2F20 JUMP JUMPDEST JUMPDEST PUSH0 PUSH2 0x3385 DUP9 DUP3 DUP10 ADD PUSH2 0x334B JUMP JUMPDEST SWAP6 POP POP PUSH1 0x20 PUSH2 0x3396 DUP9 DUP3 DUP10 ADD PUSH2 0x30E4 JUMP JUMPDEST SWAP5 POP POP PUSH1 0x40 PUSH2 0x33A7 DUP9 DUP3 DUP10 ADD PUSH2 0x30E4 JUMP JUMPDEST SWAP4 POP POP PUSH1 0x60 PUSH2 0x33B8 DUP9 DUP3 DUP10 ADD PUSH2 0x30E4 JUMP JUMPDEST SWAP3 POP POP PUSH1 0x80 PUSH2 0x33C9 DUP9 DUP3 DUP10 ADD PUSH2 0x30E4 JUMP JUMPDEST SWAP2 POP POP SWAP3 SWAP6 POP SWAP3 SWAP6 SWAP1 SWAP4 POP JUMP JUMPDEST PUSH32 0x4E487B7100000000000000000000000000000000000000000000000000000000 PUSH0 MSTORE PUSH1 0x22 PUSH1 0x4 MSTORE PUSH1 0x24 PUSH0 REVERT JUMPDEST PUSH0 PUSH1 0x2 DUP3 DIV SWAP1 POP PUSH1 0x1 DUP3 AND DUP1 PUSH2 0x341A JUMPI PUSH1 0x7F DUP3 AND SWAP2 POP JUMPDEST PUSH1 0x20 DUP3 LT DUP2 SUB PUSH2 0x342D JUMPI PUSH2 0x342C PUSH2 0x33D6 JUMP JUMPDEST JUMPDEST POP SWAP2 SWAP1 POP JUMP JUMPDEST PUSH0 DUP3 DUP3 MSTORE PUSH1 0x20 DUP3 ADD SWAP1 POP SWAP3 SWAP2 POP POP JUMP JUMPDEST PUSH32 0x706C7A2075706C6F61642062616E6B2072656365697074206669727374000000 PUSH0 DUP3 ADD MSTORE POP JUMP JUMPDEST PUSH0 PUSH2 0x3477 PUSH1 0x1D DUP4 PUSH2 0x3433 JUMP JUMPDEST SWAP2 POP PUSH2 0x3482 DUP3 PUSH2 0x3443 JUMP JUMPDEST PUSH1 0x20 DUP3 ADD SWAP1 POP SWAP2 SWAP1 POP JUMP JUMPDEST PUSH0 PUSH1 0x20 DUP3 ADD SWAP1 POP DUP2 DUP2 SUB PUSH0 DUP4 ADD MSTORE PUSH2 0x34A4 DUP2 PUSH2 0x346B JUMP JUMPDEST SWAP1 POP SWAP2 SWAP1 POP JUMP JUMPDEST PUSH32 0x4F6E6C7920426F622063616E2075706C6F61642062616E6B2072656365697074 PUSH0 DUP3 ADD MSTORE PUSH32 0x2E00000000000000000000000000000000000000000000000000000000000000 PUSH1 0x20 DUP3 ADD MSTORE POP JUMP JUMPDEST PUSH0 PUSH2 0x3505 PUSH1 0x21 DUP4 PUSH2 0x3433 JUMP JUMPDEST SWAP2 POP PUSH2 0x3510 DUP3 PUSH2 0x34AB JUMP JUMPDEST PUSH1 0x40 DUP3 ADD SWAP1 POP SWAP2 SWAP1 POP JUMP JUMPDEST PUSH0 PUSH1 0x20 DUP3 ADD SWAP1 POP DUP2 DUP2 SUB PUSH0 DUP4 ADD MSTORE PUSH2 0x3532 DUP2 PUSH2 0x34F9 JUMP JUMPDEST SWAP1 POP SWAP2 SWAP1 POP JUMP JUMPDEST PUSH0 DUP2 SWAP1 POP DUP2 PUSH0 MSTORE PUSH1 0x20 PUSH0 KECCAK256 SWAP1 POP SWAP2 SWAP1 POP JUMP JUMPDEST PUSH0 PUSH1 0x20 PUSH1 0x1F DUP4 ADD DIV SWAP1 POP SWAP2 SWAP1 POP JUMP JUMPDEST PUSH0 DUP3 DUP3 SHL SWAP1 POP SWAP3 SWAP2 POP POP JUMP JUMPDEST PUSH0 PUSH1 0x8 DUP4 MUL PUSH2 0x3595 PUSH32 0xFFFFFFFFFFFFFFFFFFFFFFFFFFFFFFFFFFFFFFFFFFFFFFFFFFFFFFFFFFFFFFFF DUP3 PUSH2 0x355A JUMP JUMPDEST PUSH2 0x359F DUP7 DUP4 PUSH2 0x355A JUMP JUMPDEST SWAP6 POP DUP1 NOT DUP5 AND SWAP4 POP DUP1 DUP7 AND DUP5 OR SWAP3 POP POP POP SWAP4 SWAP3 POP POP POP JUMP JUMPDEST PUSH0 DUP2 SWAP1 POP SWAP2 SWAP1 POP JUMP JUMPDEST PUSH0 PUSH2 0x35DA PUSH2 0x35D5 PUSH2 0x35D0 DUP5 PUSH2 0x2D60 JUMP JUMPDEST PUSH2 0x35B7 JUMP JUMPDEST PUSH2 0x2D60 JUMP JUMPDEST SWAP1 POP SWAP2 SWAP1 POP JUMP JUMPDEST PUSH0 DUP2 SWAP1 POP SWAP2 SWAP1 POP JUMP JUMPDEST PUSH2 0x35F3 DUP4 PUSH2 0x35C0 JUMP JUMPDEST PUSH2 0x3607 PUSH2 0x35FF DUP3 PUSH2 0x35E1 JUMP JUMPDEST DUP5 DUP5 SLOAD PUSH2 0x3566 JUMP JUMPDEST DUP3 SSTORE POP POP POP POP JUMP JUMPDEST PUSH0 SWAP1 JUMP JUMPDEST PUSH2 0x361B PUSH2 0x360F JUMP JUMPDEST PUSH2 0x3626 DUP2 DUP5 DUP5 PUSH2 0x35EA JUMP JUMPDEST POP POP POP JUMP JUMPDEST JUMPDEST DUP2 DUP2 LT ISZERO PUSH2 0x3649 JUMPI PUSH2 0x363E PUSH0 DUP3 PUSH2 0x3613 JUMP JUMPDEST PUSH1 0x1 DUP2 ADD SWAP1 POP PUSH2 0x362C JUMP JUMPDEST POP POP JUMP JUMPDEST PUSH1 0x1F DUP3 GT ISZERO PUSH2 0x368E JUMPI PUSH2 0x365F DUP2 PUSH2 0x3539 JUMP JUMPDEST PUSH2 0x3668 DUP5 PUSH2 0x354B JUMP JUMPDEST DUP2 ADD PUSH1 0x20 DUP6 LT ISZERO PUSH2 0x3677 JUMPI DUP2 SWAP1 POP JUMPDEST PUSH2 0x368B PUSH2 0x3683 DUP6 PUSH2 0x354B JUMP JUMPDEST DUP4 ADD DUP3 PUSH2 0x362B JUMP JUMPDEST POP POP JUMPDEST POP POP POP JUMP JUMPDEST PUSH0 DUP3 DUP3 SHR SWAP1 POP SWAP3 SWAP2 POP POP JUMP JUMPDEST PUSH0 PUSH2 0x36AE PUSH0 NOT DUP5 PUSH1 0x8 MUL PUSH2 0x3693 JUMP JUMPDEST NOT DUP1 DUP4 AND SWAP2 POP POP SWAP3 SWAP2 POP POP JUMP JUMPDEST PUSH0 PUSH2 0x36C6 DUP4 DUP4 PUSH2 0x369F JUMP JUMPDEST SWAP2 POP DUP3 PUSH1 0x2 MUL DUP3 OR SWAP1 POP SWAP3 SWAP2 POP POP JUMP JUMPDEST PUSH2 0x36DF DUP3 PUSH2 0x2D91 JUMP JUMPDEST PUSH8 0xFFFFFFFFFFFFFFFF DUP2 GT ISZERO PUSH2 0x36F8 JUMPI PUSH2 0x36F7 PUSH2 0x2F30 JUMP JUMPDEST JUMPDEST PUSH2 0x3702 DUP3 SLOAD PUSH2 0x3403 JUMP JUMPDEST PUSH2 0x370D DUP3 DUP3 DUP6 PUSH2 0x364D JUMP JUMPDEST PUSH0 PUSH1 0x20 SWAP1 POP PUSH1 0x1F DUP4 GT PUSH1 0x1 DUP2 EQ PUSH2 0x373E JUMPI PUSH0 DUP5 ISZERO PUSH2 0x372C JUMPI DUP3 DUP8 ADD MLOAD SWAP1 POP JUMPDEST PUSH2 0x3736 DUP6 DUP3 PUSH2 0x36BB JUMP JUMPDEST DUP7 SSTORE POP PUSH2 0x379D JUMP JUMPDEST PUSH1 0x1F NOT DUP5 AND PUSH2 0x374C DUP7 PUSH2 0x3539 JUMP JUMPDEST PUSH0 JUMPDEST DUP3 DUP2 LT ISZERO PUSH2 0x3773 JUMPI DUP5 DUP10 ADD MLOAD DUP3 SSTORE PUSH1 0x1 DUP3 ADD SWAP2 POP PUSH1 0x20 DUP6 ADD SWAP5 POP PUSH1 0x20 DUP2 ADD SWAP1 POP PUSH2 0x374E JUMP JUMPDEST DUP7 DUP4 LT ISZERO PUSH2 0x3790 JUMPI DUP5 DUP10 ADD MLOAD PUSH2 0x378C PUSH1 0x1F DUP10 AND DUP3 PUSH2 0x369F JUMP JUMPDEST DUP4 SSTORE POP JUMPDEST PUSH1 0x1 PUSH1 0x2 DUP9 MUL ADD DUP9 SSTORE POP POP POP JUMPDEST POP POP POP POP POP POP JUMP JUMPDEST PUSH32 0x4F6E6C7920416C6963652063616E20696E697469617465207472616E73666572 PUSH0 DUP3 ADD MSTORE PUSH32 0x2E00000000000000000000000000000000000000000000000000000000000000 PUSH1 0x20 DUP3 ADD MSTORE POP JUMP JUMPDEST PUSH0 PUSH2 0x37FF PUSH1 0x21 DUP4 PUSH2 0x3433 JUMP JUMPDEST SWAP2 POP PUSH2 0x380A DUP3 PUSH2 0x37A5 JUMP JUMPDEST PUSH1 0x40 DUP3 ADD SWAP1 POP SWAP2 SWAP1 POP JUMP JUMPDEST PUSH0 PUSH1 0x20 DUP3 ADD SWAP1 POP DUP2 DUP2 SUB PUSH0 DUP4 ADD MSTORE PUSH2 0x382C DUP2 PUSH2 0x37F3 JUMP JUMPDEST SWAP1 POP SWAP2 SWAP1 POP JUMP JUMPDEST PUSH32 0x496E73756666696369656E742062616C616E63652E0000000000000000000000 PUSH0 DUP3 ADD MSTORE POP JUMP JUMPDEST PUSH0 PUSH2 0x3867 PUSH1 0x15 DUP4 PUSH2 0x3433 JUMP JUMPDEST SWAP2 POP PUSH2 0x3872 DUP3 PUSH2 0x3833 JUMP JUMPDEST PUSH1 0x20 DUP3 ADD SWAP1 POP SWAP2 SWAP1 POP JUMP JUMPDEST PUSH0 PUSH1 0x20 DUP3 ADD SWAP1 POP DUP2 DUP2 SUB PUSH0 DUP4 ADD MSTORE PUSH2 0x3894 DUP2 PUSH2 0x385B JUMP JUMPDEST SWAP1 POP SWAP2 SWAP1 POP JUMP JUMPDEST PUSH32 0x4F6E6C7920416C6963652063616E2075706C6F616420656E6372797074656420 PUSH0 DUP3 ADD MSTORE PUSH32 0x646174612E000000000000000000000000000000000000000000000000000000 PUSH1 0x20 DUP3 ADD MSTORE POP JUMP JUMPDEST PUSH0 PUSH2 0x38F5 PUSH1 0x25 DUP4 PUSH2 0x3433 JUMP JUMPDEST SWAP2 POP PUSH2 0x3900 DUP3 PUSH2 0x389B JUMP JUMPDEST PUSH1 0x40 DUP3 ADD SWAP1 POP SWAP2 SWAP1 POP JUMP JUMPDEST PUSH0 PUSH1 0x20 DUP3 ADD SWAP1 POP DUP2 DUP2 SUB PUSH0 DUP4 ADD MSTORE PUSH2 0x3922 DUP2 PUSH2 0x38E9 JUMP JUMPDEST SWAP1 POP SWAP2 SWAP1 POP JUMP JUMPDEST PUSH32 0x4F6E6C7920426F622063616E207375626D69742070726F6F662E000000000000 PUSH0 DUP3 ADD MSTORE POP JUMP JUMPDEST PUSH0 PUSH2 0x395D PUSH1 0x1A DUP4 PUSH2 0x3433 JUMP JUMPDEST SWAP2 POP PUSH2 0x3968 DUP3 PUSH2 0x3929 JUMP JUMPDEST PUSH1 0x20 DUP3 ADD SWAP1 POP SWAP2 SWAP1 POP JUMP JUMPDEST PUSH0 PUSH1 0x20 DUP3 ADD SWAP1 POP DUP2 DUP2 SUB PUSH0 DUP4 ADD MSTORE PUSH2 0x398A DUP2 PUSH2 0x3951 JUMP JUMPDEST SWAP1 POP SWAP2 SWAP1 POP JUMP JUMPDEST PUSH32 0x4E487B7100000000000000000000000000000000000000000000000000000000 PUSH0 MSTORE PUSH1 0x11 PUSH1 0x4 MSTORE PUSH1 0x24 PUSH0 REVERT JUMPDEST PUSH0 PUSH2 0x39C8 DUP3 PUSH2 0x2D60 JUMP JUMPDEST SWAP2 POP PUSH2 0x39D3 DUP4 PUSH2 0x2D60 JUMP JUMPDEST SWAP3 POP DUP3 DUP3 ADD SWAP1 POP DUP1 DUP3 GT ISZERO PUSH2 0x39EB JUMPI PUSH2 0x39EA PUSH2 0x3991 JUMP JUMPDEST JUMPDEST SWAP3 SWAP2 POP POP JUMP JUMPDEST PUSH32 0x6E6F742074696D656F7574207965740000000000000000000000000000000000 PUSH0 DUP3 ADD MSTORE POP JUMP JUMPDEST PUSH0 PUSH2 0x3A25 PUSH1 0xF DUP4 PUSH2 0x3433 JUMP JUMPDEST SWAP2 POP PUSH2 0x3A30 DUP3 PUSH2 0x39F1 JUMP JUMPDEST PUSH1 0x20 DUP3 ADD SWAP1 POP SWAP2 SWAP1 POP JUMP JUMPDEST PUSH0 PUSH1 0x20 DUP3 ADD SWAP1 POP DUP2 DUP2 SUB PUSH0 DUP4 ADD MSTORE PUSH2 0x3A52 DUP2 PUSH2 0x3A19 JUMP JUMPDEST SWAP1 POP SWAP2 SWAP1 POP JUMP JUMPDEST PUSH32 0x4F6E6C7920416C6963652063616E206465706F7369742E000000000000000000 PUSH0 DUP3 ADD MSTORE POP JUMP JUMPDEST PUSH0 PUSH2 0x3A8D PUSH1 0x17 DUP4 PUSH2 0x3433 JUMP JUMPDEST SWAP2 POP PUSH2 0x3A98 DUP3 PUSH2 0x3A59 JUMP JUMPDEST PUSH1 0x20 DUP3 ADD SWAP1 POP SWAP2 SWAP1 POP JUMP JUMPDEST PUSH0 PUSH1 0x20 DUP3 ADD SWAP1 POP DUP2 DUP2 SUB PUSH0 DUP4 ADD MSTORE PUSH2 0x3ABA DUP2 PUSH2 0x3A81 JUMP JUMPDEST SWAP1 POP SWAP2 SWAP1 POP JUMP JUMPDEST PUSH32 0x4465706F73697420616D6F756E74206D757374206265206D6F7265207468616E PUSH0 DUP3 ADD MSTORE PUSH32 0x20312E3031612E00000000000000000000000000000000000000000000000000 PUSH1 0x20 DUP3 ADD MSTORE POP JUMP JUMPDEST PUSH0 PUSH2 0x3B1B PUSH1 0x27 DUP4 PUSH2 0x3433 JUMP JUMPDEST SWAP2 POP PUSH2 0x3B26 DUP3 PUSH2 0x3AC1 JUMP JUMPDEST PUSH1 0x40 DUP3 ADD SWAP1 POP SWAP2 SWAP1 POP JUMP JUMPDEST PUSH0 PUSH1 0x20 DUP3 ADD SWAP1 POP DUP2 DUP2 SUB PUSH0 DUP4 ADD MSTORE PUSH2 0x3B48 DUP2 PUSH2 0x3B0F JUMP JUMPDEST SWAP1 POP SWAP2 SWAP1 POP JUMP JUMPDEST PUSH0 DUP3 DUP3 MSTORE PUSH1 0x20 DUP3 ADD SWAP1 POP SWAP3 SWAP2 POP POP JUMP JUMPDEST PUSH0 DUP2 SLOAD PUSH2 0x3B6B DUP2 PUSH2 0x3403 JUMP JUMPDEST PUSH2 0x3B75 DUP2 DUP7 PUSH2 0x3B4F JUMP JUMPDEST SWAP5 POP PUSH1 0x1 DUP3 AND PUSH0 DUP2 EQ PUSH2 0x3B8F JUMPI PUSH1 0x1 DUP2 EQ PUSH2 0x3BA5 JUMPI PUSH2 0x3BD7 JUMP JUMPDEST PUSH1 0xFF NOT DUP4 AND DUP7 MSTORE DUP2 ISZERO ISZERO PUSH1 0x20 MUL DUP7 ADD SWAP4 POP PUSH2 0x3BD7 JUMP JUMPDEST PUSH2 0x3BAE DUP6 PUSH2 0x3539 JUMP JUMPDEST PUSH0 JUMPDEST DUP4 DUP2 LT ISZERO PUSH2 0x3BCF JUMPI DUP2 SLOAD DUP2 DUP10 ADD MSTORE PUSH1 0x1 DUP3 ADD SWAP2 POP PUSH1 0x20 DUP2 ADD SWAP1 POP PUSH2 0x3BB0 JUMP JUMPDEST DUP1 DUP9 ADD SWAP6 POP POP POP JUMPDEST POP POP POP SWAP3 SWAP2 POP POP JUMP JUMPDEST PUSH2 0x3BE9 DUP2 PUSH2 0x2D60 JUMP JUMPDEST DUP3 MSTORE POP POP JUMP JUMPDEST PUSH0 PUSH1 0xA0 DUP3 ADD SWAP1 POP DUP2 DUP2 SUB PUSH0 DUP4 ADD MSTORE PUSH2 0x3C07 DUP2 DUP9 PUSH2 0x3B5F JUMP JUMPDEST SWAP1 POP DUP2 DUP2 SUB PUSH1 0x20 DUP4 ADD MSTORE PUSH2 0x3C1B DUP2 DUP8 PUSH2 0x3B5F JUMP JUMPDEST SWAP1 POP DUP2 DUP2 SUB PUSH1 0x40 DUP4 ADD MSTORE PUSH2 0x3C2F DUP2 DUP7 PUSH2 0x3B5F JUMP JUMPDEST SWAP1 POP DUP2 DUP2 SUB PUSH1 0x60 DUP4 ADD MSTORE PUSH2 0x3C43 DUP2 DUP6 PUSH2 0x3B5F JUMP JUMPDEST SWAP1 POP PUSH2 0x3C52 PUSH1 0x80 DUP4 ADD DUP5 PUSH2 0x3BE0 JUMP JUMPDEST SWAP7 SWAP6 POP POP POP POP POP POP JUMP JUMPDEST PUSH2 0x3C65 DUP2 PUSH2 0x309B JUMP JUMPDEST DUP2 EQ PUSH2 0x3C6F JUMPI PUSH0 DUP1 REVERT JUMPDEST POP JUMP JUMPDEST PUSH0 DUP2 MLOAD SWAP1 POP PUSH2 0x3C80 DUP2 PUSH2 0x3C5C JUMP JUMPDEST SWAP3 SWAP2 POP POP JUMP JUMPDEST PUSH0 PUSH1 0x20 DUP3 DUP5 SUB SLT ISZERO PUSH2 0x3C9B JUMPI PUSH2 0x3C9A PUSH2 0x2F20 JUMP JUMPDEST JUMPDEST PUSH0 PUSH2 0x3CA8 DUP5 DUP3 DUP6 ADD PUSH2 0x3C72 JUMP JUMPDEST SWAP2 POP POP SWAP3 SWAP2 POP POP JUMP JUMPDEST PUSH32 0x4E487B7100000000000000000000000000000000000000000000000000000000 PUSH0 MSTORE PUSH1 0x12 PUSH1 0x4 MSTORE PUSH1 0x24 PUSH0 REVERT JUMPDEST PUSH0 PUSH2 0x3CE8 DUP3 PUSH2 0x2D60 JUMP JUMPDEST SWAP2 POP PUSH2 0x3CF3 DUP4 PUSH2 0x2D60 JUMP JUMPDEST SWAP3 POP DUP3 DUP3 SUB SWAP1 POP DUP2 DUP2 GT ISZERO PUSH2 0x3D0B JUMPI PUSH2 0x3D0A PUSH2 0x3991 JUMP JUMPDEST JUMPDEST SWAP3 SWAP2 POP POP JUMP INVALID LOG2 PUSH5 0x6970667358 0x22 SLT KECCAK256 0xEF SHR BLOBHASH DUP15 PUSH27 0x4DC9459F426324567707D582E7DAC2508952F930EB4696EC1B2EAC PUSH5 0x736F6C6343 STOP ADDMOD BYTE STOP CALLER "
		},
		"gasEstimates": {
			"creation": {
				"codeDepositCost": "3137400",
				"executionCost": "infinite",
				"totalCost": "infinite"
			},
			"external": {
				"alice()": "2615",
				"amount()": "2492",
				"bankReceiptDec()": "infinite",
				"bankReceiptEnc()": "infinite",
				"bob()": "2619",
				"contract_time()": "2493",
				"deposit()": "2491",
				"depositToContract()": "30287",
				"exchangeRate()": "2537",
				"getTimeReleasedCipher()": "infinite",
				"getTransactionInfo()": "infinite",
				"isDepositToContract()": "2598",
				"isUploadBankReceipt()": "2628",
				"submitProof(bytes,bytes,bytes)": "infinite",
				"testSignature(bytes32,uint256,uint256,uint256,uint256)": "infinite",
				"timeout()": "2514",
				"totalAmount()": "2449",
				"transferToAliceTimeout()": "infinite",
				"transferToBob()": "infinite",
				"tre()": "infinite",
				"uploadBankReceipt(bytes)": "infinite",
				"uploadEncryptedData(bytes,bytes,bytes,uint256,uint256)": "infinite"
			},
			"internal": {
				"vdfVerify()": "infinite",
				"verifyBankReceipt()": "infinite"
			}
		},
		"methodIdentifiers": {
			"alice()": "fb47e3a2",
			"amount()": "aa8c217c",
			"bankReceiptDec()": "83f093e1",
			"bankReceiptEnc()": "1d8103fd",
			"bob()": "c09cec77",
			"contract_time()": "25d9f34f",
			"deposit()": "d0e30db0",
			"depositToContract()": "c8f781c2",
			"exchangeRate()": "3ba0b9a9",
			"getTimeReleasedCipher()": "466add1c",
			"getTransactionInfo()": "b6146665",
			"isDepositToContract()": "ff28ebac",
			"isUploadBankReceipt()": "75a598ea",
			"submitProof(bytes,bytes,bytes)": "9a67dd08",
			"testSignature(bytes32,uint256,uint256,uint256,uint256)": "d1261df0",
			"timeout()": "70dea79a",
			"totalAmount()": "1a39d8ef",
			"transferToAliceTimeout()": "c7654689",
			"transferToBob()": "5c5499a0",
			"tre()": "3b417a82",
			"uploadBankReceipt(bytes)": "5361178c",
			"uploadEncryptedData(bytes,bytes,bytes,uint256,uint256)": "8bda91ab"
		}
	},
	"abi": [
		{
			"inputs": [
				{
					"internalType": "address",
					"name": "_bob",
					"type": "address"
				},
				{
					"internalType": "uint256",
					"name": "_amount",
					"type": "uint256"
				},
				{
					"internalType": "uint256",
					"name": "_exchangeRate",
					"type": "uint256"
				},
				{
					"internalType": "uint256",
					"name": "_timeout",
					"type": "uint256"
				}
			],
			"stateMutability": "nonpayable",
			"type": "constructor"
		},
		{
			"anonymous": false,
			"inputs": [
				{
					"indexed": false,
					"internalType": "bytes",
					"name": "bankReceipt",
					"type": "bytes"
				}
			],
			"name": "BankReceiptUploaded",
			"type": "event"
		},
		{
			"anonymous": false,
			"inputs": [
				{
					"indexed": true,
					"internalType": "address",
					"name": "user",
					"type": "address"
				},
				{
					"indexed": false,
					"internalType": "uint256",
					"name": "amount",
					"type": "uint256"
				}
			],
			"name": "Deposit",
			"type": "event"
		},
		{
			"anonymous": false,
			"inputs": [
				{
					"indexed": false,
					"internalType": "bytes",
					"name": "encryptedData",
					"type": "bytes"
				}
			],
			"name": "EncryptedDataUploaded",
			"type": "event"
		},
		{
			"anonymous": false,
			"inputs": [
				{
					"indexed": true,
					"internalType": "address",
					"name": "from",
					"type": "address"
				},
				{
					"indexed": true,
					"internalType": "address",
					"name": "to",
					"type": "address"
				},
				{
					"indexed": false,
					"internalType": "uint256",
					"name": "amount",
					"type": "uint256"
				}
			],
			"name": "Transfer",
			"type": "event"
		},
		{
			"anonymous": false,
			"inputs": [
				{
					"indexed": true,
					"internalType": "address",
					"name": "to",
					"type": "address"
				},
				{
					"indexed": false,
					"internalType": "uint256",
					"name": "amount",
					"type": "uint256"
				}
			],
			"name": "TransferCompleted",
			"type": "event"
		},
		{
			"inputs": [],
			"name": "alice",
			"outputs": [
				{
					"internalType": "address",
					"name": "",
					"type": "address"
				}
			],
			"stateMutability": "view",
			"type": "function"
		},
		{
			"inputs": [],
			"name": "amount",
			"outputs": [
				{
					"internalType": "uint256",
					"name": "",
					"type": "uint256"
				}
			],
			"stateMutability": "view",
			"type": "function"
		},
		{
			"inputs": [],
			"name": "bankReceiptDec",
			"outputs": [
				{
					"internalType": "bytes",
					"name": "",
					"type": "bytes"
				}
			],
			"stateMutability": "view",
			"type": "function"
		},
		{
			"inputs": [],
			"name": "bankReceiptEnc",
			"outputs": [
				{
					"internalType": "bytes",
					"name": "",
					"type": "bytes"
				}
			],
			"stateMutability": "view",
			"type": "function"
		},
		{
			"inputs": [],
			"name": "bob",
			"outputs": [
				{
					"internalType": "address",
					"name": "",
					"type": "address"
				}
			],
			"stateMutability": "view",
			"type": "function"
		},
		{
			"inputs": [],
			"name": "contract_time",
			"outputs": [
				{
					"internalType": "uint256",
					"name": "",
					"type": "uint256"
				}
			],
			"stateMutability": "view",
			"type": "function"
		},
		{
			"inputs": [],
			"name": "deposit",
			"outputs": [
				{
					"internalType": "uint256",
					"name": "",
					"type": "uint256"
				}
			],
			"stateMutability": "view",
			"type": "function"
		},
		{
			"inputs": [],
			"name": "depositToContract",
			"outputs": [],
			"stateMutability": "payable",
			"type": "function"
		},
		{
			"inputs": [],
			"name": "exchangeRate",
			"outputs": [
				{
					"internalType": "uint256",
					"name": "",
					"type": "uint256"
				}
			],
			"stateMutability": "view",
			"type": "function"
		},
		{
			"inputs": [],
			"name": "getTimeReleasedCipher",
			"outputs": [
				{
					"internalType": "uint256",
					"name": "",
					"type": "uint256"
				},
				{
					"internalType": "uint256",
					"name": "",
					"type": "uint256"
				},
				{
					"internalType": "bytes",
					"name": "",
					"type": "bytes"
				},
				{
					"internalType": "bytes",
					"name": "",
					"type": "bytes"
				},
				{
					"internalType": "bytes",
					"name": "",
					"type": "bytes"
				}
			],
			"stateMutability": "view",
			"type": "function"
		},
		{
			"inputs": [],
			"name": "getTransactionInfo",
			"outputs": [
				{
					"internalType": "address",
					"name": "",
					"type": "address"
				},
				{
					"internalType": "address",
					"name": "",
					"type": "address"
				},
				{
					"internalType": "uint256",
					"name": "",
					"type": "uint256"
				},
				{
					"internalType": "uint256",
					"name": "",
					"type": "uint256"
				},
				{
					"internalType": "uint256",
					"name": "",
					"type": "uint256"
				},
				{
					"internalType": "uint256",
					"name": "",
					"type": "uint256"
				},
				{
					"internalType": "bool",
					"name": "",
					"type": "bool"
				}
			],
			"stateMutability": "view",
			"type": "function"
		},
		{
			"inputs": [],
			"name": "isDepositToContract",
			"outputs": [
				{
					"internalType": "bool",
					"name": "",
					"type": "bool"
				}
			],
			"stateMutability": "view",
			"type": "function"
		},
		{
			"inputs": [],
			"name": "isUploadBankReceipt",
			"outputs": [
				{
					"internalType": "bool",
					"name": "",
					"type": "bool"
				}
			],
			"stateMutability": "view",
			"type": "function"
		},
		{
			"inputs": [
				{
					"internalType": "bytes",
					"name": "_bankReceiptDec",
					"type": "bytes"
				},
				{
					"internalType": "bytes",
					"name": "_y",
					"type": "bytes"
				},
				{
					"internalType": "bytes",
					"name": "_proof",
					"type": "bytes"
				}
			],
			"name": "submitProof",
			"outputs": [],
			"stateMutability": "nonpayable",
			"type": "function"
		},
		{
			"inputs": [
				{
					"internalType": "bytes32",
					"name": "message",
					"type": "bytes32"
				},
				{
					"internalType": "uint256",
					"name": "r",
					"type": "uint256"
				},
				{
					"internalType": "uint256",
					"name": "s",
					"type": "uint256"
				},
				{
					"internalType": "uint256",
					"name": "Qx",
					"type": "uint256"
				},
				{
					"internalType": "uint256",
					"name": "Qy",
					"type": "uint256"
				}
			],
			"name": "testSignature",
			"outputs": [
				{
					"internalType": "bool",
					"name": "",
					"type": "bool"
				}
			],
			"stateMutability": "view",
			"type": "function"
		},
		{
			"inputs": [],
			"name": "timeout",
			"outputs": [
				{
					"internalType": "uint256",
					"name": "",
					"type": "uint256"
				}
			],
			"stateMutability": "view",
			"type": "function"
		},
		{
			"inputs": [],
			"name": "totalAmount",
			"outputs": [
				{
					"internalType": "uint256",
					"name": "",
					"type": "uint256"
				}
			],
			"stateMutability": "view",
			"type": "function"
		},
		{
			"inputs": [],
			"name": "transferToAliceTimeout",
			"outputs": [],
			"stateMutability": "nonpayable",
			"type": "function"
		},
		{
			"inputs": [],
			"name": "transferToBob",
			"outputs": [],
			"stateMutability": "nonpayable",
			"type": "function"
		},
		{
			"inputs": [],
			"name": "tre",
			"outputs": [
				{
					"internalType": "bytes",
					"name": "c",
					"type": "bytes"
				},
				{
					"internalType": "bytes",
					"name": "x",
					"type": "bytes"
				},
				{
					"internalType": "bytes",
					"name": "y",
					"type": "bytes"
				},
				{
					"internalType": "bytes",
					"name": "N",
					"type": "bytes"
				},
				{
					"internalType": "bytes",
					"name": "proof",
					"type": "bytes"
				},
				{
					"internalType": "uint256",
					"name": "security_param",
					"type": "uint256"
				},
				{
					"internalType": "uint256",
					"name": "delay",
					"type": "uint256"
				}
			],
			"stateMutability": "view",
			"type": "function"
		},
		{
			"inputs": [
				{
					"internalType": "bytes",
					"name": "_bankReceipt",
					"type": "bytes"
				}
			],
			"name": "uploadBankReceipt",
			"outputs": [],
			"stateMutability": "nonpayable",
			"type": "function"
		},
		{
			"inputs": [
				{
					"internalType": "bytes",
					"name": "_c",
					"type": "bytes"
				},
				{
					"internalType": "bytes",
					"name": "_x",
					"type": "bytes"
				},
				{
					"internalType": "bytes",
					"name": "_N",
					"type": "bytes"
				},
				{
					"internalType": "uint256",
					"name": "security_param",
					"type": "uint256"
				},
				{
					"internalType": "uint256",
					"name": "_delay",
					"type": "uint256"
				}
			],
			"name": "uploadEncryptedData",
			"outputs": [],
			"stateMutability": "nonpayable",
			"type": "function"
		}
	]
}